{
	"contracts/lesson4.2/AdvancedCrowdfunding.sol": {
		"AdvancedCrowdfunding": {
			"abi": [
				{
					"inputs": [
						{
							"internalType": "uint256",
							"name": "goalAmount",
							"type": "uint256"
						},
						{
							"internalType": "uint256",
							"name": "durationDays",
							"type": "uint256"
						}
					],
					"stateMutability": "nonpayable",
					"type": "constructor"
				},
				{
					"anonymous": false,
					"inputs": [
						{
							"indexed": true,
							"internalType": "address",
							"name": "contributor",
							"type": "address"
						},
						{
							"indexed": false,
							"internalType": "uint256",
							"name": "amount",
							"type": "uint256"
						},
						{
							"indexed": false,
							"internalType": "uint256",
							"name": "totalFunded",
							"type": "uint256"
						}
					],
					"name": "Contribution",
					"type": "event"
				},
				{
					"anonymous": false,
					"inputs": [
						{
							"indexed": true,
							"internalType": "address",
							"name": "creator",
							"type": "address"
						},
						{
							"indexed": false,
							"internalType": "uint256",
							"name": "amount",
							"type": "uint256"
						}
					],
					"name": "FundsWithdrawn",
					"type": "event"
				},
				{
					"anonymous": false,
					"inputs": [
						{
							"indexed": true,
							"internalType": "address",
							"name": "contributor",
							"type": "address"
						},
						{
							"indexed": false,
							"internalType": "uint256",
							"name": "amount",
							"type": "uint256"
						}
					],
					"name": "Refunded",
					"type": "event"
				},
				{
					"anonymous": false,
					"inputs": [
						{
							"indexed": false,
							"internalType": "enum AdvancedCrowdfunding.State",
							"name": "oldState",
							"type": "uint8"
						},
						{
							"indexed": false,
							"internalType": "enum AdvancedCrowdfunding.State",
							"name": "newState",
							"type": "uint8"
						},
						{
							"indexed": false,
							"internalType": "uint256",
							"name": "timestamp",
							"type": "uint256"
						}
					],
					"name": "StateChanged",
					"type": "event"
				},
				{
					"inputs": [],
					"name": "CREATOR",
					"outputs": [
						{
							"internalType": "address",
							"name": "",
							"type": "address"
						}
					],
					"stateMutability": "view",
					"type": "function"
				},
				{
					"inputs": [],
					"name": "DEADLINE",
					"outputs": [
						{
							"internalType": "uint256",
							"name": "",
							"type": "uint256"
						}
					],
					"stateMutability": "view",
					"type": "function"
				},
				{
					"inputs": [],
					"name": "GOAL",
					"outputs": [
						{
							"internalType": "uint256",
							"name": "",
							"type": "uint256"
						}
					],
					"stateMutability": "view",
					"type": "function"
				},
				{
					"inputs": [],
					"name": "MINIMUM_CONTRIBUTION",
					"outputs": [
						{
							"internalType": "uint256",
							"name": "",
							"type": "uint256"
						}
					],
					"stateMutability": "view",
					"type": "function"
				},
				{
					"inputs": [],
					"name": "checkGoalReached",
					"outputs": [],
					"stateMutability": "nonpayable",
					"type": "function"
				},
				{
					"inputs": [],
					"name": "contribute",
					"outputs": [],
					"stateMutability": "payable",
					"type": "function"
				},
				{
					"inputs": [
						{
							"internalType": "address",
							"name": "",
							"type": "address"
						}
					],
					"name": "contributions",
					"outputs": [
						{
							"internalType": "uint256",
							"name": "",
							"type": "uint256"
						}
					],
					"stateMutability": "view",
					"type": "function"
				},
				{
					"inputs": [],
					"name": "contributorCount",
					"outputs": [
						{
							"internalType": "uint256",
							"name": "",
							"type": "uint256"
						}
					],
					"stateMutability": "view",
					"type": "function"
				},
				{
					"inputs": [
						{
							"internalType": "uint256",
							"name": "",
							"type": "uint256"
						}
					],
					"name": "contributors",
					"outputs": [
						{
							"internalType": "address",
							"name": "",
							"type": "address"
						}
					],
					"stateMutability": "view",
					"type": "function"
				},
				{
					"inputs": [],
					"name": "currentState",
					"outputs": [
						{
							"internalType": "enum AdvancedCrowdfunding.State",
							"name": "",
							"type": "uint8"
						}
					],
					"stateMutability": "view",
					"type": "function"
				},
				{
					"inputs": [],
					"name": "getInfo",
					"outputs": [
						{
							"internalType": "enum AdvancedCrowdfunding.State",
							"name": "state",
							"type": "uint8"
						},
						{
							"internalType": "uint256",
							"name": "goal",
							"type": "uint256"
						},
						{
							"internalType": "uint256",
							"name": "funded",
							"type": "uint256"
						},
						{
							"internalType": "uint256",
							"name": "deadline",
							"type": "uint256"
						},
						{
							"internalType": "uint256",
							"name": "timeRemaining",
							"type": "uint256"
						},
						{
							"internalType": "uint256",
							"name": "contributors",
							"type": "uint256"
						}
					],
					"stateMutability": "view",
					"type": "function"
				},
				{
					"inputs": [],
					"name": "getProgress",
					"outputs": [
						{
							"internalType": "uint256",
							"name": "percentage",
							"type": "uint256"
						}
					],
					"stateMutability": "view",
					"type": "function"
				},
				{
					"inputs": [],
					"name": "isActive",
					"outputs": [
						{
							"internalType": "bool",
							"name": "",
							"type": "bool"
						}
					],
					"stateMutability": "view",
					"type": "function"
				},
				{
					"inputs": [],
					"name": "refund",
					"outputs": [],
					"stateMutability": "nonpayable",
					"type": "function"
				},
				{
					"inputs": [],
					"name": "totalFunded",
					"outputs": [
						{
							"internalType": "uint256",
							"name": "",
							"type": "uint256"
						}
					],
					"stateMutability": "view",
					"type": "function"
				},
				{
					"inputs": [],
					"name": "withdrawFunds",
					"outputs": [],
					"stateMutability": "nonpayable",
					"type": "function"
				}
			],
			"devdoc": {
				"kind": "dev",
				"methods": {},
				"version": 1
			},
			"evm": {
				"assembly": "    /* \"contracts/lesson4.2/AdvancedCrowdfunding.sol\":57:4193  contract AdvancedCrowdfunding {... */\n  mstore(0x40, 0x0100)\n    /* \"contracts/lesson4.2/AdvancedCrowdfunding.sol\":218:235  State.Fundraising */\n  0x00\n    /* \"contracts/lesson4.2/AdvancedCrowdfunding.sol\":190:235  State public currentState = State.Fundraising */\n  0x00\n  exp(0x0100, 0x00)\n  dup2\n  sload\n  dup2\n  0xff\n  mul\n  not\n  and\n  swap1\n  dup4\n  0x03\n  dup2\n  gt\n  iszero\n  tag_1\n  jumpi\n  tag_2\n  tag_3\n  jump\t// in\ntag_2:\ntag_1:\n  mul\n  or\n  swap1\n  sstore\n  pop\n    /* \"contracts/lesson4.2/AdvancedCrowdfunding.sol\":393:403  0.01 ether */\n  0x2386f26fc10000\n    /* \"contracts/lesson4.2/AdvancedCrowdfunding.sol\":348:403  uint public immutable MINIMUM_CONTRIBUTION = 0.01 ether */\n  0xe0\n  swap1\n  dup2\n  mstore\n  pop\n    /* \"contracts/lesson4.2/AdvancedCrowdfunding.sol\":1094:1408  constructor(uint goalAmount, uint durationDays) {... */\n  callvalue\n  dup1\n  iszero\n  tag_4\n  jumpi\n  revert(0x00, 0x00)\ntag_4:\n  pop\n  mload(0x40)\n  sub(codesize, bytecodeSize)\n  dup1\n  bytecodeSize\n  dup4\n  codecopy\n  dup2\n  dup2\n  add\n  0x40\n  mstore\n  dup2\n  add\n  swap1\n  tag_5\n  swap2\n  swap1\n  tag_6\n  jump\t// in\ntag_5:\n    /* \"contracts/lesson4.2/AdvancedCrowdfunding.sol\":1173:1174  0 */\n  0x00\n    /* \"contracts/lesson4.2/AdvancedCrowdfunding.sol\":1160:1170  goalAmount */\n  dup3\n    /* \"contracts/lesson4.2/AdvancedCrowdfunding.sol\":1160:1174  goalAmount > 0 */\n  gt\n    /* \"contracts/lesson4.2/AdvancedCrowdfunding.sol\":1152:1200  require(goalAmount > 0, \"Goal must be positive\") */\n  tag_9\n  jumpi\n  mload(0x40)\n  0x08c379a000000000000000000000000000000000000000000000000000000000\n  dup2\n  mstore\n  0x04\n  add\n  tag_10\n  swap1\n  tag_11\n  jump\t// in\ntag_10:\n  mload(0x40)\n  dup1\n  swap2\n  sub\n  swap1\n  revert\ntag_9:\n    /* \"contracts/lesson4.2/AdvancedCrowdfunding.sol\":1234:1235  1 */\n  0x01\n    /* \"contracts/lesson4.2/AdvancedCrowdfunding.sol\":1218:1230  durationDays */\n  dup2\n    /* \"contracts/lesson4.2/AdvancedCrowdfunding.sol\":1218:1235  durationDays >= 1 */\n  lt\n  iszero\n    /* \"contracts/lesson4.2/AdvancedCrowdfunding.sol\":1218:1257  durationDays >= 1 && durationDays <= 90 */\n  dup1\n  iszero\n  tag_12\n  jumpi\n  pop\n    /* \"contracts/lesson4.2/AdvancedCrowdfunding.sol\":1255:1257  90 */\n  0x5a\n    /* \"contracts/lesson4.2/AdvancedCrowdfunding.sol\":1239:1251  durationDays */\n  dup2\n    /* \"contracts/lesson4.2/AdvancedCrowdfunding.sol\":1239:1257  durationDays <= 90 */\n  gt\n  iszero\n    /* \"contracts/lesson4.2/AdvancedCrowdfunding.sol\":1218:1257  durationDays >= 1 && durationDays <= 90 */\ntag_12:\n    /* \"contracts/lesson4.2/AdvancedCrowdfunding.sol\":1210:1281  require(durationDays >= 1 && durationDays <= 90, \"Duration: 1-90 days\") */\n  tag_13\n  jumpi\n  mload(0x40)\n  0x08c379a000000000000000000000000000000000000000000000000000000000\n  dup2\n  mstore\n  0x04\n  add\n  tag_14\n  swap1\n  tag_15\n  jump\t// in\ntag_14:\n  mload(0x40)\n  dup1\n  swap2\n  sub\n  swap1\n  revert\ntag_13:\n    /* \"contracts/lesson4.2/AdvancedCrowdfunding.sol\":1302:1312  msg.sender */\n  caller\n    /* \"contracts/lesson4.2/AdvancedCrowdfunding.sol\":1292:1312  CREATOR = msg.sender */\n  0xffffffffffffffffffffffffffffffffffffffff\n  and\n  0x80\n  dup2\n  0xffffffffffffffffffffffffffffffffffffffff\n  and\n  dup2\n  mstore\n  pop\n  pop\n    /* \"contracts/lesson4.2/AdvancedCrowdfunding.sol\":1329:1339  goalAmount */\n  dup2\n    /* \"contracts/lesson4.2/AdvancedCrowdfunding.sol\":1322:1339  GOAL = goalAmount */\n  0xa0\n  dup2\n  dup2\n  mstore\n  pop\n  pop\n    /* \"contracts/lesson4.2/AdvancedCrowdfunding.sol\":1394:1400  1 days */\n  0x015180\n    /* \"contracts/lesson4.2/AdvancedCrowdfunding.sol\":1379:1391  durationDays */\n  dup2\n    /* \"contracts/lesson4.2/AdvancedCrowdfunding.sol\":1379:1400  durationDays * 1 days */\n  tag_16\n  swap2\n  swap1\n  tag_17\n  jump\t// in\ntag_16:\n    /* \"contracts/lesson4.2/AdvancedCrowdfunding.sol\":1360:1375  block.timestamp */\n  timestamp\n    /* \"contracts/lesson4.2/AdvancedCrowdfunding.sol\":1360:1401  block.timestamp + (durationDays * 1 days) */\n  tag_18\n  swap2\n  swap1\n  tag_19\n  jump\t// in\ntag_18:\n    /* \"contracts/lesson4.2/AdvancedCrowdfunding.sol\":1349:1401  DEADLINE = block.timestamp + (durationDays * 1 days) */\n  0xc0\n  dup2\n  dup2\n  mstore\n  pop\n  pop\n    /* \"contracts/lesson4.2/AdvancedCrowdfunding.sol\":1094:1408  constructor(uint goalAmount, uint durationDays) {... */\n  pop\n  pop\n    /* \"contracts/lesson4.2/AdvancedCrowdfunding.sol\":57:4193  contract AdvancedCrowdfunding {... */\n  jump(tag_20)\n    /* \"#utility.yul\":7:187   */\ntag_3:\n    /* \"#utility.yul\":55:132   */\n  0x4e487b7100000000000000000000000000000000000000000000000000000000\n    /* \"#utility.yul\":52:53   */\n  0x00\n    /* \"#utility.yul\":45:133   */\n  mstore\n    /* \"#utility.yul\":152:156   */\n  0x21\n    /* \"#utility.yul\":149:150   */\n  0x04\n    /* \"#utility.yul\":142:157   */\n  mstore\n    /* \"#utility.yul\":176:180   */\n  0x24\n    /* \"#utility.yul\":173:174   */\n  0x00\n    /* \"#utility.yul\":166:181   */\n  revert\n    /* \"#utility.yul\":274:391   */\ntag_22:\n    /* \"#utility.yul\":383:384   */\n  0x00\n    /* \"#utility.yul\":380:381   */\n  0x00\n    /* \"#utility.yul\":373:385   */\n  revert\n    /* \"#utility.yul\":520:597   */\ntag_24:\n    /* \"#utility.yul\":557:564   */\n  0x00\n    /* \"#utility.yul\":586:591   */\n  dup2\n    /* \"#utility.yul\":575:591   */\n  swap1\n  pop\n    /* \"#utility.yul\":520:597   */\n  swap2\n  swap1\n  pop\n  jump\t// out\n    /* \"#utility.yul\":603:725   */\ntag_25:\n    /* \"#utility.yul\":676:700   */\n  tag_40\n    /* \"#utility.yul\":694:699   */\n  dup2\n    /* \"#utility.yul\":676:700   */\n  tag_24\n  jump\t// in\ntag_40:\n    /* \"#utility.yul\":669:674   */\n  dup2\n    /* \"#utility.yul\":666:701   */\n  eq\n    /* \"#utility.yul\":656:719   */\n  tag_41\n  jumpi\n    /* \"#utility.yul\":715:716   */\n  0x00\n    /* \"#utility.yul\":712:713   */\n  0x00\n    /* \"#utility.yul\":705:717   */\n  revert\n    /* \"#utility.yul\":656:719   */\ntag_41:\n    /* \"#utility.yul\":603:725   */\n  pop\n  jump\t// out\n    /* \"#utility.yul\":731:874   */\ntag_26:\n    /* \"#utility.yul\":788:793   */\n  0x00\n    /* \"#utility.yul\":819:825   */\n  dup2\n    /* \"#utility.yul\":813:826   */\n  mload\n    /* \"#utility.yul\":804:826   */\n  swap1\n  pop\n    /* \"#utility.yul\":835:868   */\n  tag_43\n    /* \"#utility.yul\":862:867   */\n  dup2\n    /* \"#utility.yul\":835:868   */\n  tag_25\n  jump\t// in\ntag_43:\n    /* \"#utility.yul\":731:874   */\n  swap3\n  swap2\n  pop\n  pop\n  jump\t// out\n    /* \"#utility.yul\":880:1387   */\ntag_6:\n    /* \"#utility.yul\":959:965   */\n  0x00\n    /* \"#utility.yul\":967:973   */\n  0x00\n    /* \"#utility.yul\":1016:1018   */\n  0x40\n    /* \"#utility.yul\":1004:1013   */\n  dup4\n    /* \"#utility.yul\":995:1002   */\n  dup6\n    /* \"#utility.yul\":991:1014   */\n  sub\n    /* \"#utility.yul\":987:1019   */\n  slt\n    /* \"#utility.yul\":984:1103   */\n  iszero\n  tag_45\n  jumpi\n    /* \"#utility.yul\":1022:1101   */\n  tag_46\n  tag_22\n  jump\t// in\ntag_46:\n    /* \"#utility.yul\":984:1103   */\ntag_45:\n    /* \"#utility.yul\":1142:1143   */\n  0x00\n    /* \"#utility.yul\":1167:1231   */\n  tag_47\n    /* \"#utility.yul\":1223:1230   */\n  dup6\n    /* \"#utility.yul\":1214:1220   */\n  dup3\n    /* \"#utility.yul\":1203:1212   */\n  dup7\n    /* \"#utility.yul\":1199:1221   */\n  add\n    /* \"#utility.yul\":1167:1231   */\n  tag_26\n  jump\t// in\ntag_47:\n    /* \"#utility.yul\":1157:1231   */\n  swap3\n  pop\n    /* \"#utility.yul\":1113:1241   */\n  pop\n    /* \"#utility.yul\":1280:1282   */\n  0x20\n    /* \"#utility.yul\":1306:1370   */\n  tag_48\n    /* \"#utility.yul\":1362:1369   */\n  dup6\n    /* \"#utility.yul\":1353:1359   */\n  dup3\n    /* \"#utility.yul\":1342:1351   */\n  dup7\n    /* \"#utility.yul\":1338:1360   */\n  add\n    /* \"#utility.yul\":1306:1370   */\n  tag_26\n  jump\t// in\ntag_48:\n    /* \"#utility.yul\":1296:1370   */\n  swap2\n  pop\n    /* \"#utility.yul\":1251:1380   */\n  pop\n    /* \"#utility.yul\":880:1387   */\n  swap3\n  pop\n  swap3\n  swap1\n  pop\n  jump\t// out\n    /* \"#utility.yul\":1393:1562   */\ntag_27:\n    /* \"#utility.yul\":1477:1488   */\n  0x00\n    /* \"#utility.yul\":1511:1517   */\n  dup3\n    /* \"#utility.yul\":1506:1509   */\n  dup3\n    /* \"#utility.yul\":1499:1518   */\n  mstore\n    /* \"#utility.yul\":1551:1555   */\n  0x20\n    /* \"#utility.yul\":1546:1549   */\n  dup3\n    /* \"#utility.yul\":1542:1556   */\n  add\n    /* \"#utility.yul\":1527:1556   */\n  swap1\n  pop\n    /* \"#utility.yul\":1393:1562   */\n  swap3\n  swap2\n  pop\n  pop\n  jump\t// out\n    /* \"#utility.yul\":1568:1739   */\ntag_28:\n    /* \"#utility.yul\":1708:1731   */\n  0x476f616c206d75737420626520706f7369746976650000000000000000000000\n    /* \"#utility.yul\":1704:1705   */\n  0x00\n    /* \"#utility.yul\":1696:1702   */\n  dup3\n    /* \"#utility.yul\":1692:1706   */\n  add\n    /* \"#utility.yul\":1685:1732   */\n  mstore\n    /* \"#utility.yul\":1568:1739   */\n  pop\n  jump\t// out\n    /* \"#utility.yul\":1745:2111   */\ntag_29:\n    /* \"#utility.yul\":1887:1890   */\n  0x00\n    /* \"#utility.yul\":1908:1975   */\n  tag_52\n    /* \"#utility.yul\":1972:1974   */\n  0x15\n    /* \"#utility.yul\":1967:1970   */\n  dup4\n    /* \"#utility.yul\":1908:1975   */\n  tag_27\n  jump\t// in\ntag_52:\n    /* \"#utility.yul\":1901:1975   */\n  swap2\n  pop\n    /* \"#utility.yul\":1984:2077   */\n  tag_53\n    /* \"#utility.yul\":2073:2076   */\n  dup3\n    /* \"#utility.yul\":1984:2077   */\n  tag_28\n  jump\t// in\ntag_53:\n    /* \"#utility.yul\":2102:2104   */\n  0x20\n    /* \"#utility.yul\":2097:2100   */\n  dup3\n    /* \"#utility.yul\":2093:2105   */\n  add\n    /* \"#utility.yul\":2086:2105   */\n  swap1\n  pop\n    /* \"#utility.yul\":1745:2111   */\n  swap2\n  swap1\n  pop\n  jump\t// out\n    /* \"#utility.yul\":2117:2536   */\ntag_11:\n    /* \"#utility.yul\":2283:2287   */\n  0x00\n    /* \"#utility.yul\":2321:2323   */\n  0x20\n    /* \"#utility.yul\":2310:2319   */\n  dup3\n    /* \"#utility.yul\":2306:2324   */\n  add\n    /* \"#utility.yul\":2298:2324   */\n  swap1\n  pop\n    /* \"#utility.yul\":2370:2379   */\n  dup2\n    /* \"#utility.yul\":2364:2368   */\n  dup2\n    /* \"#utility.yul\":2360:2380   */\n  sub\n    /* \"#utility.yul\":2356:2357   */\n  0x00\n    /* \"#utility.yul\":2345:2354   */\n  dup4\n    /* \"#utility.yul\":2341:2358   */\n  add\n    /* \"#utility.yul\":2334:2381   */\n  mstore\n    /* \"#utility.yul\":2398:2529   */\n  tag_55\n    /* \"#utility.yul\":2524:2528   */\n  dup2\n    /* \"#utility.yul\":2398:2529   */\n  tag_29\n  jump\t// in\ntag_55:\n    /* \"#utility.yul\":2390:2529   */\n  swap1\n  pop\n    /* \"#utility.yul\":2117:2536   */\n  swap2\n  swap1\n  pop\n  jump\t// out\n    /* \"#utility.yul\":2542:2711   */\ntag_30:\n    /* \"#utility.yul\":2682:2703   */\n  0x4475726174696f6e3a20312d3930206461797300000000000000000000000000\n    /* \"#utility.yul\":2678:2679   */\n  0x00\n    /* \"#utility.yul\":2670:2676   */\n  dup3\n    /* \"#utility.yul\":2666:2680   */\n  add\n    /* \"#utility.yul\":2659:2704   */\n  mstore\n    /* \"#utility.yul\":2542:2711   */\n  pop\n  jump\t// out\n    /* \"#utility.yul\":2717:3083   */\ntag_31:\n    /* \"#utility.yul\":2859:2862   */\n  0x00\n    /* \"#utility.yul\":2880:2947   */\n  tag_58\n    /* \"#utility.yul\":2944:2946   */\n  0x13\n    /* \"#utility.yul\":2939:2942   */\n  dup4\n    /* \"#utility.yul\":2880:2947   */\n  tag_27\n  jump\t// in\ntag_58:\n    /* \"#utility.yul\":2873:2947   */\n  swap2\n  pop\n    /* \"#utility.yul\":2956:3049   */\n  tag_59\n    /* \"#utility.yul\":3045:3048   */\n  dup3\n    /* \"#utility.yul\":2956:3049   */\n  tag_30\n  jump\t// in\ntag_59:\n    /* \"#utility.yul\":3074:3076   */\n  0x20\n    /* \"#utility.yul\":3069:3072   */\n  dup3\n    /* \"#utility.yul\":3065:3077   */\n  add\n    /* \"#utility.yul\":3058:3077   */\n  swap1\n  pop\n    /* \"#utility.yul\":2717:3083   */\n  swap2\n  swap1\n  pop\n  jump\t// out\n    /* \"#utility.yul\":3089:3508   */\ntag_15:\n    /* \"#utility.yul\":3255:3259   */\n  0x00\n    /* \"#utility.yul\":3293:3295   */\n  0x20\n    /* \"#utility.yul\":3282:3291   */\n  dup3\n    /* \"#utility.yul\":3278:3296   */\n  add\n    /* \"#utility.yul\":3270:3296   */\n  swap1\n  pop\n    /* \"#utility.yul\":3342:3351   */\n  dup2\n    /* \"#utility.yul\":3336:3340   */\n  dup2\n    /* \"#utility.yul\":3332:3352   */\n  sub\n    /* \"#utility.yul\":3328:3329   */\n  0x00\n    /* \"#utility.yul\":3317:3326   */\n  dup4\n    /* \"#utility.yul\":3313:3330   */\n  add\n    /* \"#utility.yul\":3306:3353   */\n  mstore\n    /* \"#utility.yul\":3370:3501   */\n  tag_61\n    /* \"#utility.yul\":3496:3500   */\n  dup2\n    /* \"#utility.yul\":3370:3501   */\n  tag_31\n  jump\t// in\ntag_61:\n    /* \"#utility.yul\":3362:3501   */\n  swap1\n  pop\n    /* \"#utility.yul\":3089:3508   */\n  swap2\n  swap1\n  pop\n  jump\t// out\n    /* \"#utility.yul\":3514:3694   */\ntag_32:\n    /* \"#utility.yul\":3562:3639   */\n  0x4e487b7100000000000000000000000000000000000000000000000000000000\n    /* \"#utility.yul\":3559:3560   */\n  0x00\n    /* \"#utility.yul\":3552:3640   */\n  mstore\n    /* \"#utility.yul\":3659:3663   */\n  0x11\n    /* \"#utility.yul\":3656:3657   */\n  0x04\n    /* \"#utility.yul\":3649:3664   */\n  mstore\n    /* \"#utility.yul\":3683:3687   */\n  0x24\n    /* \"#utility.yul\":3680:3681   */\n  0x00\n    /* \"#utility.yul\":3673:3688   */\n  revert\n    /* \"#utility.yul\":3700:4110   */\ntag_17:\n    /* \"#utility.yul\":3740:3747   */\n  0x00\n    /* \"#utility.yul\":3763:3783   */\n  tag_64\n    /* \"#utility.yul\":3781:3782   */\n  dup3\n    /* \"#utility.yul\":3763:3783   */\n  tag_24\n  jump\t// in\ntag_64:\n    /* \"#utility.yul\":3758:3783   */\n  swap2\n  pop\n    /* \"#utility.yul\":3797:3817   */\n  tag_65\n    /* \"#utility.yul\":3815:3816   */\n  dup4\n    /* \"#utility.yul\":3797:3817   */\n  tag_24\n  jump\t// in\ntag_65:\n    /* \"#utility.yul\":3792:3817   */\n  swap3\n  pop\n    /* \"#utility.yul\":3852:3853   */\n  dup3\n    /* \"#utility.yul\":3849:3850   */\n  dup3\n    /* \"#utility.yul\":3845:3854   */\n  mul\n    /* \"#utility.yul\":3874:3904   */\n  tag_66\n    /* \"#utility.yul\":3892:3903   */\n  dup2\n    /* \"#utility.yul\":3874:3904   */\n  tag_24\n  jump\t// in\ntag_66:\n    /* \"#utility.yul\":3863:3904   */\n  swap2\n  pop\n    /* \"#utility.yul\":4053:4054   */\n  dup3\n    /* \"#utility.yul\":4044:4051   */\n  dup3\n    /* \"#utility.yul\":4040:4055   */\n  div\n    /* \"#utility.yul\":4037:4038   */\n  dup5\n    /* \"#utility.yul\":4034:4056   */\n  eq\n    /* \"#utility.yul\":4014:4015   */\n  dup4\n    /* \"#utility.yul\":4007:4016   */\n  iszero\n    /* \"#utility.yul\":3987:4070   */\n  or\n    /* \"#utility.yul\":3964:4103   */\n  tag_67\n  jumpi\n    /* \"#utility.yul\":4083:4101   */\n  tag_68\n  tag_32\n  jump\t// in\ntag_68:\n    /* \"#utility.yul\":3964:4103   */\ntag_67:\n    /* \"#utility.yul\":3748:4110   */\n  pop\n    /* \"#utility.yul\":3700:4110   */\n  swap3\n  swap2\n  pop\n  pop\n  jump\t// out\n    /* \"#utility.yul\":4116:4307   */\ntag_19:\n    /* \"#utility.yul\":4156:4159   */\n  0x00\n    /* \"#utility.yul\":4175:4195   */\n  tag_70\n    /* \"#utility.yul\":4193:4194   */\n  dup3\n    /* \"#utility.yul\":4175:4195   */\n  tag_24\n  jump\t// in\ntag_70:\n    /* \"#utility.yul\":4170:4195   */\n  swap2\n  pop\n    /* \"#utility.yul\":4209:4229   */\n  tag_71\n    /* \"#utility.yul\":4227:4228   */\n  dup4\n    /* \"#utility.yul\":4209:4229   */\n  tag_24\n  jump\t// in\ntag_71:\n    /* \"#utility.yul\":4204:4229   */\n  swap3\n  pop\n    /* \"#utility.yul\":4252:4253   */\n  dup3\n    /* \"#utility.yul\":4249:4250   */\n  dup3\n    /* \"#utility.yul\":4245:4254   */\n  add\n    /* \"#utility.yul\":4238:4254   */\n  swap1\n  pop\n    /* \"#utility.yul\":4273:4276   */\n  dup1\n    /* \"#utility.yul\":4270:4271   */\n  dup3\n    /* \"#utility.yul\":4267:4277   */\n  gt\n    /* \"#utility.yul\":4264:4300   */\n  iszero\n  tag_72\n  jumpi\n    /* \"#utility.yul\":4280:4298   */\n  tag_73\n  tag_32\n  jump\t// in\ntag_73:\n    /* \"#utility.yul\":4264:4300   */\ntag_72:\n    /* \"#utility.yul\":4116:4307   */\n  swap3\n  swap2\n  pop\n  pop\n  jump\t// out\n    /* \"contracts/lesson4.2/AdvancedCrowdfunding.sol\":57:4193  contract AdvancedCrowdfunding {... */\ntag_20:\n  mload(0x80)\n  mload(0xa0)\n  mload(0xc0)\n  mload(0xe0)\n  codecopy(0x00, dataOffset(sub_0), dataSize(sub_0))\n  0x00\n  assignImmutable(\"0x731dc163f73d31d8c68f9917ce4ff967753939f70432973c04fd2c2a48148607\")\n  0x00\n  assignImmutable(\"0x8e8fab5f003314da8d1873ea7720e8d9f47650136d916064d1edb8a11d682624\")\n  0x00\n  assignImmutable(\"0x1d3be50b2bb17407dd170f1d5da128d1def30c6b1598d6a629e79b4775265526\")\n  0x00\n  assignImmutable(\"0x789bcdf275fa270780a52ae3b79bb1ce0fda7e0aaad87b57b74bb99ac290714a\")\n  return(0x00, dataSize(sub_0))\nstop\n\nsub_0: assembly {\n        /* \"contracts/lesson4.2/AdvancedCrowdfunding.sol\":57:4193  contract AdvancedCrowdfunding {... */\n      mstore(0x40, 0x80)\n      jumpi(tag_1, lt(calldatasize, 0x04))\n      shr(0xe0, calldataload(0x00))\n      dup1\n      0x8d0bba03\n      gt\n      tag_18\n      jumpi\n      dup1\n      0xad044f49\n      gt\n      tag_19\n      jumpi\n      dup1\n      0xad044f49\n      eq\n      tag_14\n      jumpi\n      dup1\n      0xd7bb99ba\n      eq\n      tag_15\n      jumpi\n      dup1\n      0xe4fbb609\n      eq\n      tag_16\n      jumpi\n      dup1\n      0xecfd8928\n      eq\n      tag_17\n      jumpi\n      jump(tag_1)\n    tag_19:\n      dup1\n      0x8d0bba03\n      eq\n      tag_10\n      jumpi\n      dup1\n      0x939c4456\n      eq\n      tag_11\n      jumpi\n      dup1\n      0xa082c86e\n      eq\n      tag_12\n      jumpi\n      dup1\n      0xa1bed0be\n      eq\n      tag_13\n      jumpi\n      jump(tag_1)\n    tag_18:\n      dup1\n      0x3cb5d100\n      gt\n      tag_20\n      jumpi\n      dup1\n      0x3cb5d100\n      eq\n      tag_6\n      jumpi\n      dup1\n      0x42e94c90\n      eq\n      tag_7\n      jumpi\n      dup1\n      0x590e1ae3\n      eq\n      tag_8\n      jumpi\n      dup1\n      0x5a9b0b89\n      eq\n      tag_9\n      jumpi\n      jump(tag_1)\n    tag_20:\n      dup1\n      0x01cb3b20\n      eq\n      tag_2\n      jumpi\n      dup1\n      0x0c3f6acf\n      eq\n      tag_3\n      jumpi\n      dup1\n      0x22f3e2d4\n      eq\n      tag_4\n      jumpi\n      dup1\n      0x24600fc3\n      eq\n      tag_5\n      jumpi\n    tag_1:\n      revert(0x00, 0x00)\n        /* \"contracts/lesson4.2/AdvancedCrowdfunding.sol\":2225:2658  function checkGoalReached() public inState(State.Fundraising) {... */\n    tag_2:\n      callvalue\n      dup1\n      iszero\n      tag_21\n      jumpi\n      revert(0x00, 0x00)\n    tag_21:\n      pop\n      tag_22\n      tag_23\n      jump\t// in\n    tag_22:\n      stop\n        /* \"contracts/lesson4.2/AdvancedCrowdfunding.sol\":190:235  State public currentState = State.Fundraising */\n    tag_3:\n      callvalue\n      dup1\n      iszero\n      tag_24\n      jumpi\n      revert(0x00, 0x00)\n    tag_24:\n      pop\n      tag_25\n      tag_26\n      jump\t// in\n    tag_25:\n      mload(0x40)\n      tag_27\n      swap2\n      swap1\n      tag_28\n      jump\t// in\n    tag_27:\n      mload(0x40)\n      dup1\n      swap2\n      sub\n      swap1\n      return\n        /* \"contracts/lesson4.2/AdvancedCrowdfunding.sol\":4056:4191  function isActive() public view returns (bool) {... */\n    tag_4:\n      callvalue\n      dup1\n      iszero\n      tag_29\n      jumpi\n      revert(0x00, 0x00)\n    tag_29:\n      pop\n      tag_30\n      tag_31\n      jump\t// in\n    tag_30:\n      mload(0x40)\n      tag_32\n      swap2\n      swap1\n      tag_33\n      jump\t// in\n    tag_32:\n      mload(0x40)\n      dup1\n      swap2\n      sub\n      swap1\n      return\n        /* \"contracts/lesson4.2/AdvancedCrowdfunding.sol\":2693:3000  function withdrawFunds() public onlyCreator inState(State.Successful) {... */\n    tag_5:\n      callvalue\n      dup1\n      iszero\n      tag_34\n      jumpi\n      revert(0x00, 0x00)\n    tag_34:\n      pop\n      tag_35\n      tag_36\n      jump\t// in\n    tag_35:\n      stop\n        /* \"contracts/lesson4.2/AdvancedCrowdfunding.sol\":525:554  address[] public contributors */\n    tag_6:\n      callvalue\n      dup1\n      iszero\n      tag_37\n      jumpi\n      revert(0x00, 0x00)\n    tag_37:\n      pop\n      tag_38\n      0x04\n      dup1\n      calldatasize\n      sub\n      dup2\n      add\n      swap1\n      tag_39\n      swap2\n      swap1\n      tag_40\n      jump\t// in\n    tag_39:\n      tag_41\n      jump\t// in\n    tag_38:\n      mload(0x40)\n      tag_42\n      swap2\n      swap1\n      tag_43\n      jump\t// in\n    tag_42:\n      mload(0x40)\n      dup1\n      swap2\n      sub\n      swap1\n      return\n        /* \"contracts/lesson4.2/AdvancedCrowdfunding.sol\":474:519  mapping(address => uint) public contributions */\n    tag_7:\n      callvalue\n      dup1\n      iszero\n      tag_44\n      jumpi\n      revert(0x00, 0x00)\n    tag_44:\n      pop\n      tag_45\n      0x04\n      dup1\n      calldatasize\n      sub\n      dup2\n      add\n      swap1\n      tag_46\n      swap2\n      swap1\n      tag_47\n      jump\t// in\n    tag_46:\n      tag_48\n      jump\t// in\n    tag_45:\n      mload(0x40)\n      tag_49\n      swap2\n      swap1\n      tag_50\n      jump\t// in\n    tag_49:\n      mload(0x40)\n      dup1\n      swap2\n      sub\n      swap1\n      return\n        /* \"contracts/lesson4.2/AdvancedCrowdfunding.sol\":3020:3355  function refund() public inState(State.Failed) {... */\n    tag_8:\n      callvalue\n      dup1\n      iszero\n      tag_51\n      jumpi\n      revert(0x00, 0x00)\n    tag_51:\n      pop\n      tag_52\n      tag_53\n      jump\t// in\n    tag_52:\n      stop\n        /* \"contracts/lesson4.2/AdvancedCrowdfunding.sol\":3381:3933  function getInfo()... */\n    tag_9:\n      callvalue\n      dup1\n      iszero\n      tag_54\n      jumpi\n      revert(0x00, 0x00)\n    tag_54:\n      pop\n      tag_55\n      tag_56\n      jump\t// in\n    tag_55:\n      mload(0x40)\n      tag_57\n      swap7\n      swap6\n      swap5\n      swap4\n      swap3\n      swap2\n      swap1\n      tag_58\n      jump\t// in\n    tag_57:\n      mload(0x40)\n      dup1\n      swap2\n      sub\n      swap1\n      return\n        /* \"contracts/lesson4.2/AdvancedCrowdfunding.sol\":348:403  uint public immutable MINIMUM_CONTRIBUTION = 0.01 ether */\n    tag_10:\n      callvalue\n      dup1\n      iszero\n      tag_59\n      jumpi\n      revert(0x00, 0x00)\n    tag_59:\n      pop\n      tag_60\n      tag_61\n      jump\t// in\n    tag_60:\n      mload(0x40)\n      tag_62\n      swap2\n      swap1\n      tag_50\n      jump\t// in\n    tag_62:\n      mload(0x40)\n      dup1\n      swap2\n      sub\n      swap1\n      return\n        /* \"contracts/lesson4.2/AdvancedCrowdfunding.sol\":3939:4050  function getProgress() public view returns (uint percentage) {... */\n    tag_11:\n      callvalue\n      dup1\n      iszero\n      tag_63\n      jumpi\n      revert(0x00, 0x00)\n    tag_63:\n      pop\n      tag_64\n      tag_65\n      jump\t// in\n    tag_64:\n      mload(0x40)\n      tag_66\n      swap2\n      swap1\n      tag_50\n      jump\t// in\n    tag_66:\n      mload(0x40)\n      dup1\n      swap2\n      sub\n      swap1\n      return\n        /* \"contracts/lesson4.2/AdvancedCrowdfunding.sol\":312:342  uint public immutable DEADLINE */\n    tag_12:\n      callvalue\n      dup1\n      iszero\n      tag_67\n      jumpi\n      revert(0x00, 0x00)\n    tag_67:\n      pop\n      tag_68\n      tag_69\n      jump\t// in\n    tag_68:\n      mload(0x40)\n      tag_70\n      swap2\n      swap1\n      tag_50\n      jump\t// in\n    tag_70:\n      mload(0x40)\n      dup1\n      swap2\n      sub\n      swap1\n      return\n        /* \"contracts/lesson4.2/AdvancedCrowdfunding.sol\":280:306  uint public immutable GOAL */\n    tag_13:\n      callvalue\n      dup1\n      iszero\n      tag_71\n      jumpi\n      revert(0x00, 0x00)\n    tag_71:\n      pop\n      tag_72\n      tag_73\n      jump\t// in\n    tag_72:\n      mload(0x40)\n      tag_74\n      swap2\n      swap1\n      tag_50\n      jump\t// in\n    tag_74:\n      mload(0x40)\n      dup1\n      swap2\n      sub\n      swap1\n      return\n        /* \"contracts/lesson4.2/AdvancedCrowdfunding.sol\":410:433  uint public totalFunded */\n    tag_14:\n      callvalue\n      dup1\n      iszero\n      tag_75\n      jumpi\n      revert(0x00, 0x00)\n    tag_75:\n      pop\n      tag_76\n      tag_77\n      jump\t// in\n    tag_76:\n      mload(0x40)\n      tag_78\n      swap2\n      swap1\n      tag_50\n      jump\t// in\n    tag_78:\n      mload(0x40)\n      dup1\n      swap2\n      sub\n      swap1\n      return\n        /* \"contracts/lesson4.2/AdvancedCrowdfunding.sol\":1434:2190  function contribute() public payable inState(State.Fundraising) {... */\n    tag_15:\n      tag_79\n      tag_80\n      jump\t// in\n    tag_79:\n      stop\n        /* \"contracts/lesson4.2/AdvancedCrowdfunding.sol\":242:274  address public immutable CREATOR */\n    tag_16:\n      callvalue\n      dup1\n      iszero\n      tag_81\n      jumpi\n      revert(0x00, 0x00)\n    tag_81:\n      pop\n      tag_82\n      tag_83\n      jump\t// in\n    tag_82:\n      mload(0x40)\n      tag_84\n      swap2\n      swap1\n      tag_43\n      jump\t// in\n    tag_84:\n      mload(0x40)\n      dup1\n      swap2\n      sub\n      swap1\n      return\n        /* \"contracts/lesson4.2/AdvancedCrowdfunding.sol\":439:467  uint public contributorCount */\n    tag_17:\n      callvalue\n      dup1\n      iszero\n      tag_85\n      jumpi\n      revert(0x00, 0x00)\n    tag_85:\n      pop\n      tag_86\n      tag_87\n      jump\t// in\n    tag_86:\n      mload(0x40)\n      tag_88\n      swap2\n      swap1\n      tag_50\n      jump\t// in\n    tag_88:\n      mload(0x40)\n      dup1\n      swap2\n      sub\n      swap1\n      return\n        /* \"contracts/lesson4.2/AdvancedCrowdfunding.sol\":2225:2658  function checkGoalReached() public inState(State.Fundraising) {... */\n    tag_23:\n        /* \"contracts/lesson4.2/AdvancedCrowdfunding.sol\":2268:2285  State.Fundraising */\n      0x00\n        /* \"contracts/lesson4.2/AdvancedCrowdfunding.sol\":941:949  expected */\n      dup1\n        /* \"contracts/lesson4.2/AdvancedCrowdfunding.sol\":925:949  currentState == expected */\n      0x03\n      dup2\n      gt\n      iszero\n      tag_90\n      jumpi\n      tag_91\n      tag_92\n      jump\t// in\n    tag_91:\n    tag_90:\n        /* \"contracts/lesson4.2/AdvancedCrowdfunding.sol\":925:937  currentState */\n      0x00\n      0x00\n      swap1\n      sload\n      swap1\n      0x0100\n      exp\n      swap1\n      div\n      0xff\n      and\n        /* \"contracts/lesson4.2/AdvancedCrowdfunding.sol\":925:949  currentState == expected */\n      0x03\n      dup2\n      gt\n      iszero\n      tag_93\n      jumpi\n      tag_94\n      tag_92\n      jump\t// in\n    tag_94:\n    tag_93:\n      eq\n        /* \"contracts/lesson4.2/AdvancedCrowdfunding.sol\":917:967  require(currentState == expected, \"Invalid state\") */\n      tag_95\n      jumpi\n      mload(0x40)\n      0x08c379a000000000000000000000000000000000000000000000000000000000\n      dup2\n      mstore\n      0x04\n      add\n      tag_96\n      swap1\n      tag_97\n      jump\t// in\n    tag_96:\n      mload(0x40)\n      dup1\n      swap2\n      sub\n      swap1\n      revert\n    tag_95:\n        /* \"contracts/lesson4.2/AdvancedCrowdfunding.sol\":2323:2331  DEADLINE */\n      immutable(\"0x8e8fab5f003314da8d1873ea7720e8d9f47650136d916064d1edb8a11d682624\")\n        /* \"contracts/lesson4.2/AdvancedCrowdfunding.sol\":2305:2320  block.timestamp */\n      timestamp\n        /* \"contracts/lesson4.2/AdvancedCrowdfunding.sol\":2305:2331  block.timestamp > DEADLINE */\n      gt\n        /* \"contracts/lesson4.2/AdvancedCrowdfunding.sol\":2297:2348  require(block.timestamp > DEADLINE, \"Still active\") */\n      tag_99\n      jumpi\n      mload(0x40)\n      0x08c379a000000000000000000000000000000000000000000000000000000000\n      dup2\n      mstore\n      0x04\n      add\n      tag_100\n      swap1\n      tag_101\n      jump\t// in\n    tag_100:\n      mload(0x40)\n      dup1\n      swap2\n      sub\n      swap1\n      revert\n    tag_99:\n        /* \"contracts/lesson4.2/AdvancedCrowdfunding.sol\":2359:2373  State oldState */\n      0x00\n        /* \"contracts/lesson4.2/AdvancedCrowdfunding.sol\":2376:2388  currentState */\n      0x00\n      0x00\n      swap1\n      sload\n      swap1\n      0x0100\n      exp\n      swap1\n      div\n      0xff\n      and\n        /* \"contracts/lesson4.2/AdvancedCrowdfunding.sol\":2359:2388  State oldState = currentState */\n      swap1\n      pop\n        /* \"contracts/lesson4.2/AdvancedCrowdfunding.sol\":2398:2412  State newState */\n      0x00\n        /* \"contracts/lesson4.2/AdvancedCrowdfunding.sol\":2442:2446  GOAL */\n      immutable(\"0x1d3be50b2bb17407dd170f1d5da128d1def30c6b1598d6a629e79b4775265526\")\n        /* \"contracts/lesson4.2/AdvancedCrowdfunding.sol\":2427:2438  totalFunded */\n      sload(0x01)\n        /* \"contracts/lesson4.2/AdvancedCrowdfunding.sol\":2427:2446  totalFunded >= GOAL */\n      lt\n        /* \"contracts/lesson4.2/AdvancedCrowdfunding.sol\":2423:2554  if (totalFunded >= GOAL) {... */\n      tag_102\n      jumpi\n        /* \"contracts/lesson4.2/AdvancedCrowdfunding.sol\":2473:2489  State.Successful */\n      0x01\n        /* \"contracts/lesson4.2/AdvancedCrowdfunding.sol\":2462:2489  newState = State.Successful */\n      swap1\n      pop\n        /* \"contracts/lesson4.2/AdvancedCrowdfunding.sol\":2423:2554  if (totalFunded >= GOAL) {... */\n      jump(tag_103)\n    tag_102:\n        /* \"contracts/lesson4.2/AdvancedCrowdfunding.sol\":2531:2543  State.Failed */\n      0x02\n        /* \"contracts/lesson4.2/AdvancedCrowdfunding.sol\":2520:2543  newState = State.Failed */\n      swap1\n      pop\n        /* \"contracts/lesson4.2/AdvancedCrowdfunding.sol\":2423:2554  if (totalFunded >= GOAL) {... */\n    tag_103:\n        /* \"contracts/lesson4.2/AdvancedCrowdfunding.sol\":2579:2587  newState */\n      dup1\n        /* \"contracts/lesson4.2/AdvancedCrowdfunding.sol\":2564:2576  currentState */\n      0x00\n      0x00\n        /* \"contracts/lesson4.2/AdvancedCrowdfunding.sol\":2564:2587  currentState = newState */\n      0x0100\n      exp\n      dup2\n      sload\n      dup2\n      0xff\n      mul\n      not\n      and\n      swap1\n      dup4\n      0x03\n      dup2\n      gt\n      iszero\n      tag_104\n      jumpi\n      tag_105\n      tag_92\n      jump\t// in\n    tag_105:\n    tag_104:\n      mul\n      or\n      swap1\n      sstore\n      pop\n        /* \"contracts/lesson4.2/AdvancedCrowdfunding.sol\":2602:2651  StateChanged(oldState, newState, block.timestamp) */\n      0x6248a7c8a8dfdcb56514416ad7ed5cf43c516b01ebe5ec4716e35ea71e3ecf64\n        /* \"contracts/lesson4.2/AdvancedCrowdfunding.sol\":2615:2623  oldState */\n      dup3\n        /* \"contracts/lesson4.2/AdvancedCrowdfunding.sol\":2625:2633  newState */\n      dup3\n        /* \"contracts/lesson4.2/AdvancedCrowdfunding.sol\":2635:2650  block.timestamp */\n      timestamp\n        /* \"contracts/lesson4.2/AdvancedCrowdfunding.sol\":2602:2651  StateChanged(oldState, newState, block.timestamp) */\n      mload(0x40)\n      tag_106\n      swap4\n      swap3\n      swap2\n      swap1\n      tag_107\n      jump\t// in\n    tag_106:\n      mload(0x40)\n      dup1\n      swap2\n      sub\n      swap1\n      log1\n        /* \"contracts/lesson4.2/AdvancedCrowdfunding.sol\":2287:2658  {... */\n      pop\n      pop\n        /* \"contracts/lesson4.2/AdvancedCrowdfunding.sol\":2225:2658  function checkGoalReached() public inState(State.Fundraising) {... */\n      pop\n      jump\t// out\n        /* \"contracts/lesson4.2/AdvancedCrowdfunding.sol\":190:235  State public currentState = State.Fundraising */\n    tag_26:\n      0x00\n      0x00\n      swap1\n      sload\n      swap1\n      0x0100\n      exp\n      swap1\n      div\n      0xff\n      and\n      dup2\n      jump\t// out\n        /* \"contracts/lesson4.2/AdvancedCrowdfunding.sol\":4056:4191  function isActive() public view returns (bool) {... */\n    tag_31:\n        /* \"contracts/lesson4.2/AdvancedCrowdfunding.sol\":4097:4101  bool */\n      0x00\n        /* \"contracts/lesson4.2/AdvancedCrowdfunding.sol\":4136:4153  State.Fundraising */\n      0x00\n        /* \"contracts/lesson4.2/AdvancedCrowdfunding.sol\":4120:4153  currentState == State.Fundraising */\n      0x03\n      dup2\n      gt\n      iszero\n      tag_109\n      jumpi\n      tag_110\n      tag_92\n      jump\t// in\n    tag_110:\n    tag_109:\n        /* \"contracts/lesson4.2/AdvancedCrowdfunding.sol\":4120:4132  currentState */\n      0x00\n      0x00\n      swap1\n      sload\n      swap1\n      0x0100\n      exp\n      swap1\n      div\n      0xff\n      and\n        /* \"contracts/lesson4.2/AdvancedCrowdfunding.sol\":4120:4153  currentState == State.Fundraising */\n      0x03\n      dup2\n      gt\n      iszero\n      tag_111\n      jumpi\n      tag_112\n      tag_92\n      jump\t// in\n    tag_112:\n    tag_111:\n      eq\n        /* \"contracts/lesson4.2/AdvancedCrowdfunding.sol\":4120:4184  currentState == State.Fundraising && block.timestamp <= DEADLINE */\n      dup1\n      iszero\n      tag_113\n      jumpi\n      pop\n        /* \"contracts/lesson4.2/AdvancedCrowdfunding.sol\":4176:4184  DEADLINE */\n      immutable(\"0x8e8fab5f003314da8d1873ea7720e8d9f47650136d916064d1edb8a11d682624\")\n        /* \"contracts/lesson4.2/AdvancedCrowdfunding.sol\":4157:4172  block.timestamp */\n      timestamp\n        /* \"contracts/lesson4.2/AdvancedCrowdfunding.sol\":4157:4184  block.timestamp <= DEADLINE */\n      gt\n      iszero\n        /* \"contracts/lesson4.2/AdvancedCrowdfunding.sol\":4120:4184  currentState == State.Fundraising && block.timestamp <= DEADLINE */\n    tag_113:\n        /* \"contracts/lesson4.2/AdvancedCrowdfunding.sol\":4113:4184  return currentState == State.Fundraising && block.timestamp <= DEADLINE */\n      swap1\n      pop\n        /* \"contracts/lesson4.2/AdvancedCrowdfunding.sol\":4056:4191  function isActive() public view returns (bool) {... */\n      swap1\n      jump\t// out\n        /* \"contracts/lesson4.2/AdvancedCrowdfunding.sol\":2693:3000  function withdrawFunds() public onlyCreator inState(State.Successful) {... */\n    tag_36:\n        /* \"contracts/lesson4.2/AdvancedCrowdfunding.sol\":1046:1053  CREATOR */\n      immutable(\"0x789bcdf275fa270780a52ae3b79bb1ce0fda7e0aaad87b57b74bb99ac290714a\")\n        /* \"contracts/lesson4.2/AdvancedCrowdfunding.sol\":1032:1053  msg.sender == CREATOR */\n      0xffffffffffffffffffffffffffffffffffffffff\n      and\n        /* \"contracts/lesson4.2/AdvancedCrowdfunding.sol\":1032:1042  msg.sender */\n      caller\n        /* \"contracts/lesson4.2/AdvancedCrowdfunding.sol\":1032:1053  msg.sender == CREATOR */\n      0xffffffffffffffffffffffffffffffffffffffff\n      and\n      eq\n        /* \"contracts/lesson4.2/AdvancedCrowdfunding.sol\":1024:1070  require(msg.sender == CREATOR, \"Only creator\") */\n      tag_115\n      jumpi\n      mload(0x40)\n      0x08c379a000000000000000000000000000000000000000000000000000000000\n      dup2\n      mstore\n      0x04\n      add\n      tag_116\n      swap1\n      tag_117\n      jump\t// in\n    tag_116:\n      mload(0x40)\n      dup1\n      swap2\n      sub\n      swap1\n      revert\n    tag_115:\n        /* \"contracts/lesson4.2/AdvancedCrowdfunding.sol\":2745:2761  State.Successful */\n      0x01\n        /* \"contracts/lesson4.2/AdvancedCrowdfunding.sol\":941:949  expected */\n      dup1\n        /* \"contracts/lesson4.2/AdvancedCrowdfunding.sol\":925:949  currentState == expected */\n      0x03\n      dup2\n      gt\n      iszero\n      tag_119\n      jumpi\n      tag_120\n      tag_92\n      jump\t// in\n    tag_120:\n    tag_119:\n        /* \"contracts/lesson4.2/AdvancedCrowdfunding.sol\":925:937  currentState */\n      0x00\n      0x00\n      swap1\n      sload\n      swap1\n      0x0100\n      exp\n      swap1\n      div\n      0xff\n      and\n        /* \"contracts/lesson4.2/AdvancedCrowdfunding.sol\":925:949  currentState == expected */\n      0x03\n      dup2\n      gt\n      iszero\n      tag_121\n      jumpi\n      tag_122\n      tag_92\n      jump\t// in\n    tag_122:\n    tag_121:\n      eq\n        /* \"contracts/lesson4.2/AdvancedCrowdfunding.sol\":917:967  require(currentState == expected, \"Invalid state\") */\n      tag_123\n      jumpi\n      mload(0x40)\n      0x08c379a000000000000000000000000000000000000000000000000000000000\n      dup2\n      mstore\n      0x04\n      add\n      tag_124\n      swap1\n      tag_97\n      jump\t// in\n    tag_124:\n      mload(0x40)\n      dup1\n      swap2\n      sub\n      swap1\n      revert\n    tag_123:\n        /* \"contracts/lesson4.2/AdvancedCrowdfunding.sol\":2788:2801  State.PaidOut */\n      0x03\n        /* \"contracts/lesson4.2/AdvancedCrowdfunding.sol\":2773:2785  currentState */\n      0x00\n      0x00\n        /* \"contracts/lesson4.2/AdvancedCrowdfunding.sol\":2773:2801  currentState = State.PaidOut */\n      0x0100\n      exp\n      dup2\n      sload\n      dup2\n      0xff\n      mul\n      not\n      and\n      swap1\n      dup4\n      0x03\n      dup2\n      gt\n      iszero\n      tag_126\n      jumpi\n      tag_127\n      tag_92\n      jump\t// in\n    tag_127:\n    tag_126:\n      mul\n      or\n      swap1\n      sstore\n      pop\n        /* \"contracts/lesson4.2/AdvancedCrowdfunding.sol\":2812:2823  uint amount */\n      0x00\n        /* \"contracts/lesson4.2/AdvancedCrowdfunding.sol\":2826:2847  address(this).balance */\n      selfbalance\n        /* \"contracts/lesson4.2/AdvancedCrowdfunding.sol\":2812:2847  uint amount = address(this).balance */\n      swap1\n      pop\n        /* \"contracts/lesson4.2/AdvancedCrowdfunding.sol\":2858:2867  bool sent */\n      0x00\n        /* \"contracts/lesson4.2/AdvancedCrowdfunding.sol\":2873:2880  CREATOR */\n      immutable(\"0x789bcdf275fa270780a52ae3b79bb1ce0fda7e0aaad87b57b74bb99ac290714a\")\n        /* \"contracts/lesson4.2/AdvancedCrowdfunding.sol\":2873:2885  CREATOR.call */\n      0xffffffffffffffffffffffffffffffffffffffff\n      and\n        /* \"contracts/lesson4.2/AdvancedCrowdfunding.sol\":2893:2899  amount */\n      dup3\n        /* \"contracts/lesson4.2/AdvancedCrowdfunding.sol\":2873:2904  CREATOR.call{value: amount}(\"\") */\n      mload(0x40)\n      tag_128\n      swap1\n      tag_129\n      jump\t// in\n    tag_128:\n      0x00\n      mload(0x40)\n      dup1\n      dup4\n      sub\n      dup2\n      dup6\n      dup8\n      gas\n      call\n      swap3\n      pop\n      pop\n      pop\n      returndatasize\n      dup1\n      0x00\n      dup2\n      eq\n      tag_132\n      jumpi\n      mload(0x40)\n      swap2\n      pop\n      and(add(returndatasize, 0x3f), not(0x1f))\n      dup3\n      add\n      0x40\n      mstore\n      returndatasize\n      dup3\n      mstore\n      returndatasize\n      0x00\n      0x20\n      dup5\n      add\n      returndatacopy\n      jump(tag_131)\n    tag_132:\n      0x60\n      swap2\n      pop\n    tag_131:\n      pop\n        /* \"contracts/lesson4.2/AdvancedCrowdfunding.sol\":2857:2904  (bool sent, ) = CREATOR.call{value: amount}(\"\") */\n      pop\n      swap1\n      pop\n        /* \"contracts/lesson4.2/AdvancedCrowdfunding.sol\":2922:2926  sent */\n      dup1\n        /* \"contracts/lesson4.2/AdvancedCrowdfunding.sol\":2914:2946  require(sent, \"Transfer failed\") */\n      tag_133\n      jumpi\n      mload(0x40)\n      0x08c379a000000000000000000000000000000000000000000000000000000000\n      dup2\n      mstore\n      0x04\n      add\n      tag_134\n      swap1\n      tag_135\n      jump\t// in\n    tag_134:\n      mload(0x40)\n      dup1\n      swap2\n      sub\n      swap1\n      revert\n    tag_133:\n        /* \"contracts/lesson4.2/AdvancedCrowdfunding.sol\":2977:2984  CREATOR */\n      immutable(\"0x789bcdf275fa270780a52ae3b79bb1ce0fda7e0aaad87b57b74bb99ac290714a\")\n        /* \"contracts/lesson4.2/AdvancedCrowdfunding.sol\":2962:2993  FundsWithdrawn(CREATOR, amount) */\n      0xffffffffffffffffffffffffffffffffffffffff\n      and\n      0xeaff4b37086828766ad3268786972c0cd24259d4c87a80f9d3963a3c3d999b0d\n        /* \"contracts/lesson4.2/AdvancedCrowdfunding.sol\":2986:2992  amount */\n      dup4\n        /* \"contracts/lesson4.2/AdvancedCrowdfunding.sol\":2962:2993  FundsWithdrawn(CREATOR, amount) */\n      mload(0x40)\n      tag_136\n      swap2\n      swap1\n      tag_50\n      jump\t// in\n    tag_136:\n      mload(0x40)\n      dup1\n      swap2\n      sub\n      swap1\n      log2\n        /* \"contracts/lesson4.2/AdvancedCrowdfunding.sol\":2763:3000  {... */\n      pop\n      pop\n        /* \"contracts/lesson4.2/AdvancedCrowdfunding.sol\":1080:1081  _ */\n      pop\n        /* \"contracts/lesson4.2/AdvancedCrowdfunding.sol\":2693:3000  function withdrawFunds() public onlyCreator inState(State.Successful) {... */\n      jump\t// out\n        /* \"contracts/lesson4.2/AdvancedCrowdfunding.sol\":525:554  address[] public contributors */\n    tag_41:\n      0x04\n      dup2\n      dup2\n      sload\n      dup2\n      lt\n      tag_137\n      jumpi\n      0x00\n      dup1\n      revert\n    tag_137:\n      swap1\n      0x00\n      mstore\n      keccak256(0x00, 0x20)\n      add\n      0x00\n      swap2\n      pop\n      sload\n      swap1\n      0x0100\n      exp\n      swap1\n      div\n      0xffffffffffffffffffffffffffffffffffffffff\n      and\n      dup2\n      jump\t// out\n        /* \"contracts/lesson4.2/AdvancedCrowdfunding.sol\":474:519  mapping(address => uint) public contributions */\n    tag_48:\n      mstore(0x20, 0x03)\n      dup1\n      0x00\n      mstore\n      keccak256(0x00, 0x40)\n      0x00\n      swap2\n      pop\n      swap1\n      pop\n      sload\n      dup2\n      jump\t// out\n        /* \"contracts/lesson4.2/AdvancedCrowdfunding.sol\":3020:3355  function refund() public inState(State.Failed) {... */\n    tag_53:\n        /* \"contracts/lesson4.2/AdvancedCrowdfunding.sol\":3053:3065  State.Failed */\n      0x02\n        /* \"contracts/lesson4.2/AdvancedCrowdfunding.sol\":941:949  expected */\n      dup1\n        /* \"contracts/lesson4.2/AdvancedCrowdfunding.sol\":925:949  currentState == expected */\n      0x03\n      dup2\n      gt\n      iszero\n      tag_140\n      jumpi\n      tag_141\n      tag_92\n      jump\t// in\n    tag_141:\n    tag_140:\n        /* \"contracts/lesson4.2/AdvancedCrowdfunding.sol\":925:937  currentState */\n      0x00\n      0x00\n      swap1\n      sload\n      swap1\n      0x0100\n      exp\n      swap1\n      div\n      0xff\n      and\n        /* \"contracts/lesson4.2/AdvancedCrowdfunding.sol\":925:949  currentState == expected */\n      0x03\n      dup2\n      gt\n      iszero\n      tag_142\n      jumpi\n      tag_143\n      tag_92\n      jump\t// in\n    tag_143:\n    tag_142:\n      eq\n        /* \"contracts/lesson4.2/AdvancedCrowdfunding.sol\":917:967  require(currentState == expected, \"Invalid state\") */\n      tag_144\n      jumpi\n      mload(0x40)\n      0x08c379a000000000000000000000000000000000000000000000000000000000\n      dup2\n      mstore\n      0x04\n      add\n      tag_145\n      swap1\n      tag_97\n      jump\t// in\n    tag_145:\n      mload(0x40)\n      dup1\n      swap2\n      sub\n      swap1\n      revert\n    tag_144:\n        /* \"contracts/lesson4.2/AdvancedCrowdfunding.sol\":3077:3088  uint amount */\n      0x00\n        /* \"contracts/lesson4.2/AdvancedCrowdfunding.sol\":3091:3104  contributions */\n      0x03\n        /* \"contracts/lesson4.2/AdvancedCrowdfunding.sol\":3091:3116  contributions[msg.sender] */\n      0x00\n        /* \"contracts/lesson4.2/AdvancedCrowdfunding.sol\":3105:3115  msg.sender */\n      caller\n        /* \"contracts/lesson4.2/AdvancedCrowdfunding.sol\":3091:3116  contributions[msg.sender] */\n      0xffffffffffffffffffffffffffffffffffffffff\n      and\n      0xffffffffffffffffffffffffffffffffffffffff\n      and\n      dup2\n      mstore\n      0x20\n      add\n      swap1\n      dup2\n      mstore\n      0x20\n      add\n      0x00\n      keccak256\n      sload\n        /* \"contracts/lesson4.2/AdvancedCrowdfunding.sol\":3077:3116  uint amount = contributions[msg.sender] */\n      swap1\n      pop\n        /* \"contracts/lesson4.2/AdvancedCrowdfunding.sol\":3143:3144  0 */\n      0x00\n        /* \"contracts/lesson4.2/AdvancedCrowdfunding.sol\":3134:3140  amount */\n      dup2\n        /* \"contracts/lesson4.2/AdvancedCrowdfunding.sol\":3134:3144  amount > 0 */\n      gt\n        /* \"contracts/lesson4.2/AdvancedCrowdfunding.sol\":3126:3164  require(amount > 0, \"No contribution\") */\n      tag_147\n      jumpi\n      mload(0x40)\n      0x08c379a000000000000000000000000000000000000000000000000000000000\n      dup2\n      mstore\n      0x04\n      add\n      tag_148\n      swap1\n      tag_149\n      jump\t// in\n    tag_148:\n      mload(0x40)\n      dup1\n      swap2\n      sub\n      swap1\n      revert\n    tag_147:\n        /* \"contracts/lesson4.2/AdvancedCrowdfunding.sol\":3203:3204  0 */\n      0x00\n        /* \"contracts/lesson4.2/AdvancedCrowdfunding.sol\":3175:3188  contributions */\n      0x03\n        /* \"contracts/lesson4.2/AdvancedCrowdfunding.sol\":3175:3200  contributions[msg.sender] */\n      0x00\n        /* \"contracts/lesson4.2/AdvancedCrowdfunding.sol\":3189:3199  msg.sender */\n      caller\n        /* \"contracts/lesson4.2/AdvancedCrowdfunding.sol\":3175:3200  contributions[msg.sender] */\n      0xffffffffffffffffffffffffffffffffffffffff\n      and\n      0xffffffffffffffffffffffffffffffffffffffff\n      and\n      dup2\n      mstore\n      0x20\n      add\n      swap1\n      dup2\n      mstore\n      0x20\n      add\n      0x00\n      keccak256\n        /* \"contracts/lesson4.2/AdvancedCrowdfunding.sol\":3175:3204  contributions[msg.sender] = 0 */\n      dup2\n      swap1\n      sstore\n      pop\n        /* \"contracts/lesson4.2/AdvancedCrowdfunding.sol\":3215:3224  bool sent */\n      0x00\n        /* \"contracts/lesson4.2/AdvancedCrowdfunding.sol\":3230:3240  msg.sender */\n      caller\n        /* \"contracts/lesson4.2/AdvancedCrowdfunding.sol\":3230:3245  msg.sender.call */\n      0xffffffffffffffffffffffffffffffffffffffff\n      and\n        /* \"contracts/lesson4.2/AdvancedCrowdfunding.sol\":3253:3259  amount */\n      dup3\n        /* \"contracts/lesson4.2/AdvancedCrowdfunding.sol\":3230:3264  msg.sender.call{value: amount}(\"\") */\n      mload(0x40)\n      tag_150\n      swap1\n      tag_129\n      jump\t// in\n    tag_150:\n      0x00\n      mload(0x40)\n      dup1\n      dup4\n      sub\n      dup2\n      dup6\n      dup8\n      gas\n      call\n      swap3\n      pop\n      pop\n      pop\n      returndatasize\n      dup1\n      0x00\n      dup2\n      eq\n      tag_153\n      jumpi\n      mload(0x40)\n      swap2\n      pop\n      and(add(returndatasize, 0x3f), not(0x1f))\n      dup3\n      add\n      0x40\n      mstore\n      returndatasize\n      dup3\n      mstore\n      returndatasize\n      0x00\n      0x20\n      dup5\n      add\n      returndatacopy\n      jump(tag_152)\n    tag_153:\n      0x60\n      swap2\n      pop\n    tag_152:\n      pop\n        /* \"contracts/lesson4.2/AdvancedCrowdfunding.sol\":3214:3264  (bool sent, ) = msg.sender.call{value: amount}(\"\") */\n      pop\n      swap1\n      pop\n        /* \"contracts/lesson4.2/AdvancedCrowdfunding.sol\":3282:3286  sent */\n      dup1\n        /* \"contracts/lesson4.2/AdvancedCrowdfunding.sol\":3274:3304  require(sent, \"Refund failed\") */\n      tag_154\n      jumpi\n      mload(0x40)\n      0x08c379a000000000000000000000000000000000000000000000000000000000\n      dup2\n      mstore\n      0x04\n      add\n      tag_155\n      swap1\n      tag_156\n      jump\t// in\n    tag_155:\n      mload(0x40)\n      dup1\n      swap2\n      sub\n      swap1\n      revert\n    tag_154:\n        /* \"contracts/lesson4.2/AdvancedCrowdfunding.sol\":3329:3339  msg.sender */\n      caller\n        /* \"contracts/lesson4.2/AdvancedCrowdfunding.sol\":3320:3348  Refunded(msg.sender, amount) */\n      0xffffffffffffffffffffffffffffffffffffffff\n      and\n      0xd7dee2702d63ad89917b6a4da9981c90c4d24f8c2bdfd64c604ecae57d8d0651\n        /* \"contracts/lesson4.2/AdvancedCrowdfunding.sol\":3341:3347  amount */\n      dup4\n        /* \"contracts/lesson4.2/AdvancedCrowdfunding.sol\":3320:3348  Refunded(msg.sender, amount) */\n      mload(0x40)\n      tag_157\n      swap2\n      swap1\n      tag_50\n      jump\t// in\n    tag_157:\n      mload(0x40)\n      dup1\n      swap2\n      sub\n      swap1\n      log2\n        /* \"contracts/lesson4.2/AdvancedCrowdfunding.sol\":3067:3355  {... */\n      pop\n      pop\n        /* \"contracts/lesson4.2/AdvancedCrowdfunding.sol\":3020:3355  function refund() public inState(State.Failed) {... */\n      pop\n      jump\t// out\n        /* \"contracts/lesson4.2/AdvancedCrowdfunding.sol\":3381:3933  function getInfo()... */\n    tag_56:\n        /* \"contracts/lesson4.2/AdvancedCrowdfunding.sol\":3458:3469  State state */\n      0x00\n        /* \"contracts/lesson4.2/AdvancedCrowdfunding.sol\":3483:3492  uint goal */\n      0x00\n        /* \"contracts/lesson4.2/AdvancedCrowdfunding.sol\":3506:3517  uint funded */\n      0x00\n        /* \"contracts/lesson4.2/AdvancedCrowdfunding.sol\":3531:3544  uint deadline */\n      0x00\n        /* \"contracts/lesson4.2/AdvancedCrowdfunding.sol\":3558:3576  uint timeRemaining */\n      0x00\n        /* \"contracts/lesson4.2/AdvancedCrowdfunding.sol\":3590:3607  uint contributors */\n      0x00\n        /* \"contracts/lesson4.2/AdvancedCrowdfunding.sol\":3632:3646  uint remaining */\n      0x00\n        /* \"contracts/lesson4.2/AdvancedCrowdfunding.sol\":3649:3650  0 */\n      0x00\n        /* \"contracts/lesson4.2/AdvancedCrowdfunding.sol\":3632:3650  uint remaining = 0 */\n      swap1\n      pop\n        /* \"contracts/lesson4.2/AdvancedCrowdfunding.sol\":3682:3690  DEADLINE */\n      immutable(\"0x8e8fab5f003314da8d1873ea7720e8d9f47650136d916064d1edb8a11d682624\")\n        /* \"contracts/lesson4.2/AdvancedCrowdfunding.sol\":3664:3679  block.timestamp */\n      timestamp\n        /* \"contracts/lesson4.2/AdvancedCrowdfunding.sol\":3664:3690  block.timestamp < DEADLINE */\n      lt\n        /* \"contracts/lesson4.2/AdvancedCrowdfunding.sol\":3660:3755  if (block.timestamp < DEADLINE) {... */\n      iszero\n      tag_159\n      jumpi\n        /* \"contracts/lesson4.2/AdvancedCrowdfunding.sol\":3729:3744  block.timestamp */\n      timestamp\n        /* \"contracts/lesson4.2/AdvancedCrowdfunding.sol\":3718:3726  DEADLINE */\n      immutable(\"0x8e8fab5f003314da8d1873ea7720e8d9f47650136d916064d1edb8a11d682624\")\n        /* \"contracts/lesson4.2/AdvancedCrowdfunding.sol\":3718:3744  DEADLINE - block.timestamp */\n      tag_160\n      swap2\n      swap1\n      tag_161\n      jump\t// in\n    tag_160:\n        /* \"contracts/lesson4.2/AdvancedCrowdfunding.sol\":3706:3744  remaining = DEADLINE - block.timestamp */\n      swap1\n      pop\n        /* \"contracts/lesson4.2/AdvancedCrowdfunding.sol\":3660:3755  if (block.timestamp < DEADLINE) {... */\n    tag_159:\n        /* \"contracts/lesson4.2/AdvancedCrowdfunding.sol\":3786:3798  currentState */\n      0x00\n      0x00\n      swap1\n      sload\n      swap1\n      0x0100\n      exp\n      swap1\n      div\n      0xff\n      and\n        /* \"contracts/lesson4.2/AdvancedCrowdfunding.sol\":3812:3816  GOAL */\n      immutable(\"0x1d3be50b2bb17407dd170f1d5da128d1def30c6b1598d6a629e79b4775265526\")\n        /* \"contracts/lesson4.2/AdvancedCrowdfunding.sol\":3830:3841  totalFunded */\n      sload(0x01)\n        /* \"contracts/lesson4.2/AdvancedCrowdfunding.sol\":3855:3863  DEADLINE */\n      immutable(\"0x8e8fab5f003314da8d1873ea7720e8d9f47650136d916064d1edb8a11d682624\")\n        /* \"contracts/lesson4.2/AdvancedCrowdfunding.sol\":3877:3886  remaining */\n      dup5\n        /* \"contracts/lesson4.2/AdvancedCrowdfunding.sol\":3900:3916  contributorCount */\n      sload(0x02)\n        /* \"contracts/lesson4.2/AdvancedCrowdfunding.sol\":3765:3926  return (... */\n      swap7\n      pop\n      swap7\n      pop\n      swap7\n      pop\n      swap7\n      pop\n      swap7\n      pop\n      swap7\n      pop\n      pop\n        /* \"contracts/lesson4.2/AdvancedCrowdfunding.sol\":3381:3933  function getInfo()... */\n      swap1\n      swap2\n      swap3\n      swap4\n      swap5\n      swap6\n      jump\t// out\n        /* \"contracts/lesson4.2/AdvancedCrowdfunding.sol\":348:403  uint public immutable MINIMUM_CONTRIBUTION = 0.01 ether */\n    tag_61:\n      immutable(\"0x731dc163f73d31d8c68f9917ce4ff967753939f70432973c04fd2c2a48148607\")\n      dup2\n      jump\t// out\n        /* \"contracts/lesson4.2/AdvancedCrowdfunding.sol\":3939:4050  function getProgress() public view returns (uint percentage) {... */\n    tag_65:\n        /* \"contracts/lesson4.2/AdvancedCrowdfunding.sol\":3983:3998  uint percentage */\n      0x00\n        /* \"contracts/lesson4.2/AdvancedCrowdfunding.sol\":4039:4043  GOAL */\n      immutable(\"0x1d3be50b2bb17407dd170f1d5da128d1def30c6b1598d6a629e79b4775265526\")\n        /* \"contracts/lesson4.2/AdvancedCrowdfunding.sol\":4032:4035  100 */\n      0x64\n        /* \"contracts/lesson4.2/AdvancedCrowdfunding.sol\":4018:4029  totalFunded */\n      sload(0x01)\n        /* \"contracts/lesson4.2/AdvancedCrowdfunding.sol\":4018:4035  totalFunded * 100 */\n      tag_163\n      swap2\n      swap1\n      tag_164\n      jump\t// in\n    tag_163:\n        /* \"contracts/lesson4.2/AdvancedCrowdfunding.sol\":4017:4043  (totalFunded * 100) / GOAL */\n      tag_165\n      swap2\n      swap1\n      tag_166\n      jump\t// in\n    tag_165:\n        /* \"contracts/lesson4.2/AdvancedCrowdfunding.sol\":4010:4043  return (totalFunded * 100) / GOAL */\n      swap1\n      pop\n        /* \"contracts/lesson4.2/AdvancedCrowdfunding.sol\":3939:4050  function getProgress() public view returns (uint percentage) {... */\n      swap1\n      jump\t// out\n        /* \"contracts/lesson4.2/AdvancedCrowdfunding.sol\":312:342  uint public immutable DEADLINE */\n    tag_69:\n      immutable(\"0x8e8fab5f003314da8d1873ea7720e8d9f47650136d916064d1edb8a11d682624\")\n      dup2\n      jump\t// out\n        /* \"contracts/lesson4.2/AdvancedCrowdfunding.sol\":280:306  uint public immutable GOAL */\n    tag_73:\n      immutable(\"0x1d3be50b2bb17407dd170f1d5da128d1def30c6b1598d6a629e79b4775265526\")\n      dup2\n      jump\t// out\n        /* \"contracts/lesson4.2/AdvancedCrowdfunding.sol\":410:433  uint public totalFunded */\n    tag_77:\n      sload(0x01)\n      dup2\n      jump\t// out\n        /* \"contracts/lesson4.2/AdvancedCrowdfunding.sol\":1434:2190  function contribute() public payable inState(State.Fundraising) {... */\n    tag_80:\n        /* \"contracts/lesson4.2/AdvancedCrowdfunding.sol\":1479:1496  State.Fundraising */\n      0x00\n        /* \"contracts/lesson4.2/AdvancedCrowdfunding.sol\":941:949  expected */\n      dup1\n        /* \"contracts/lesson4.2/AdvancedCrowdfunding.sol\":925:949  currentState == expected */\n      0x03\n      dup2\n      gt\n      iszero\n      tag_168\n      jumpi\n      tag_169\n      tag_92\n      jump\t// in\n    tag_169:\n    tag_168:\n        /* \"contracts/lesson4.2/AdvancedCrowdfunding.sol\":925:937  currentState */\n      0x00\n      0x00\n      swap1\n      sload\n      swap1\n      0x0100\n      exp\n      swap1\n      div\n      0xff\n      and\n        /* \"contracts/lesson4.2/AdvancedCrowdfunding.sol\":925:949  currentState == expected */\n      0x03\n      dup2\n      gt\n      iszero\n      tag_170\n      jumpi\n      tag_171\n      tag_92\n      jump\t// in\n    tag_171:\n    tag_170:\n      eq\n        /* \"contracts/lesson4.2/AdvancedCrowdfunding.sol\":917:967  require(currentState == expected, \"Invalid state\") */\n      tag_172\n      jumpi\n      mload(0x40)\n      0x08c379a000000000000000000000000000000000000000000000000000000000\n      dup2\n      mstore\n      0x04\n      add\n      tag_173\n      swap1\n      tag_97\n      jump\t// in\n    tag_173:\n      mload(0x40)\n      dup1\n      swap2\n      sub\n      swap1\n      revert\n    tag_172:\n        /* \"contracts/lesson4.2/AdvancedCrowdfunding.sol\":1535:1543  DEADLINE */\n      immutable(\"0x8e8fab5f003314da8d1873ea7720e8d9f47650136d916064d1edb8a11d682624\")\n        /* \"contracts/lesson4.2/AdvancedCrowdfunding.sol\":1516:1531  block.timestamp */\n      timestamp\n        /* \"contracts/lesson4.2/AdvancedCrowdfunding.sol\":1516:1543  block.timestamp <= DEADLINE */\n      gt\n      iszero\n        /* \"contracts/lesson4.2/AdvancedCrowdfunding.sol\":1508:1565  require(block.timestamp <= DEADLINE, \"Fundraising ended\") */\n      tag_175\n      jumpi\n      mload(0x40)\n      0x08c379a000000000000000000000000000000000000000000000000000000000\n      dup2\n      mstore\n      0x04\n      add\n      tag_176\n      swap1\n      tag_177\n      jump\t// in\n    tag_176:\n      mload(0x40)\n      dup1\n      swap2\n      sub\n      swap1\n      revert\n    tag_175:\n        /* \"contracts/lesson4.2/AdvancedCrowdfunding.sol\":1596:1616  MINIMUM_CONTRIBUTION */\n      immutable(\"0x731dc163f73d31d8c68f9917ce4ff967753939f70432973c04fd2c2a48148607\")\n        /* \"contracts/lesson4.2/AdvancedCrowdfunding.sol\":1583:1592  msg.value */\n      callvalue\n        /* \"contracts/lesson4.2/AdvancedCrowdfunding.sol\":1583:1616  msg.value >= MINIMUM_CONTRIBUTION */\n      lt\n      iszero\n        /* \"contracts/lesson4.2/AdvancedCrowdfunding.sol\":1575:1634  require(msg.value >= MINIMUM_CONTRIBUTION, \"Below minimum\") */\n      tag_178\n      jumpi\n      mload(0x40)\n      0x08c379a000000000000000000000000000000000000000000000000000000000\n      dup2\n      mstore\n      0x04\n      add\n      tag_179\n      swap1\n      tag_180\n      jump\t// in\n    tag_179:\n      mload(0x40)\n      dup1\n      swap2\n      sub\n      swap1\n      revert\n    tag_178:\n        /* \"contracts/lesson4.2/AdvancedCrowdfunding.sol\":1702:1703  0 */\n      0x00\n        /* \"contracts/lesson4.2/AdvancedCrowdfunding.sol\":1673:1686  contributions */\n      0x03\n        /* \"contracts/lesson4.2/AdvancedCrowdfunding.sol\":1673:1698  contributions[msg.sender] */\n      0x00\n        /* \"contracts/lesson4.2/AdvancedCrowdfunding.sol\":1687:1697  msg.sender */\n      caller\n        /* \"contracts/lesson4.2/AdvancedCrowdfunding.sol\":1673:1698  contributions[msg.sender] */\n      0xffffffffffffffffffffffffffffffffffffffff\n      and\n      0xffffffffffffffffffffffffffffffffffffffff\n      and\n      dup2\n      mstore\n      0x20\n      add\n      swap1\n      dup2\n      mstore\n      0x20\n      add\n      0x00\n      keccak256\n      sload\n        /* \"contracts/lesson4.2/AdvancedCrowdfunding.sol\":1673:1703  contributions[msg.sender] == 0 */\n      sub\n        /* \"contracts/lesson4.2/AdvancedCrowdfunding.sol\":1669:1791  if (contributions[msg.sender] == 0) {... */\n      tag_181\n      jumpi\n        /* \"contracts/lesson4.2/AdvancedCrowdfunding.sol\":1719:1731  contributors */\n      0x04\n        /* \"contracts/lesson4.2/AdvancedCrowdfunding.sol\":1737:1747  msg.sender */\n      caller\n        /* \"contracts/lesson4.2/AdvancedCrowdfunding.sol\":1719:1748  contributors.push(msg.sender) */\n      swap1\n      dup1\n      0x01\n      dup2\n      sload\n      add\n      dup1\n      dup3\n      sstore\n      dup1\n      swap2\n      pop\n      pop\n      0x01\n      swap1\n      sub\n      swap1\n      0x00\n      mstore\n      keccak256(0x00, 0x20)\n      add\n      0x00\n      swap1\n      swap2\n      swap1\n      swap2\n      swap1\n      swap2\n      0x0100\n      exp\n      dup2\n      sload\n      dup2\n      0xffffffffffffffffffffffffffffffffffffffff\n      mul\n      not\n      and\n      swap1\n      dup4\n      0xffffffffffffffffffffffffffffffffffffffff\n      and\n      mul\n      or\n      swap1\n      sstore\n      pop\n        /* \"contracts/lesson4.2/AdvancedCrowdfunding.sol\":1762:1778  contributorCount */\n      0x02\n      0x00\n        /* \"contracts/lesson4.2/AdvancedCrowdfunding.sol\":1762:1780  contributorCount++ */\n      dup2\n      sload\n      dup1\n      swap3\n      swap2\n      swap1\n      tag_183\n      swap1\n      tag_184\n      jump\t// in\n    tag_183:\n      swap2\n      swap1\n      pop\n      sstore\n      pop\n        /* \"contracts/lesson4.2/AdvancedCrowdfunding.sol\":1669:1791  if (contributions[msg.sender] == 0) {... */\n    tag_181:\n        /* \"contracts/lesson4.2/AdvancedCrowdfunding.sol\":1830:1839  msg.value */\n      callvalue\n        /* \"contracts/lesson4.2/AdvancedCrowdfunding.sol\":1801:1814  contributions */\n      0x03\n        /* \"contracts/lesson4.2/AdvancedCrowdfunding.sol\":1801:1826  contributions[msg.sender] */\n      0x00\n        /* \"contracts/lesson4.2/AdvancedCrowdfunding.sol\":1815:1825  msg.sender */\n      caller\n        /* \"contracts/lesson4.2/AdvancedCrowdfunding.sol\":1801:1826  contributions[msg.sender] */\n      0xffffffffffffffffffffffffffffffffffffffff\n      and\n      0xffffffffffffffffffffffffffffffffffffffff\n      and\n      dup2\n      mstore\n      0x20\n      add\n      swap1\n      dup2\n      mstore\n      0x20\n      add\n      0x00\n      keccak256\n      0x00\n        /* \"contracts/lesson4.2/AdvancedCrowdfunding.sol\":1801:1839  contributions[msg.sender] += msg.value */\n      dup3\n      dup3\n      sload\n      tag_185\n      swap2\n      swap1\n      tag_186\n      jump\t// in\n    tag_185:\n      swap3\n      pop\n      pop\n      dup2\n      swap1\n      sstore\n      pop\n        /* \"contracts/lesson4.2/AdvancedCrowdfunding.sol\":1864:1873  msg.value */\n      callvalue\n        /* \"contracts/lesson4.2/AdvancedCrowdfunding.sol\":1849:1860  totalFunded */\n      0x01\n      0x00\n        /* \"contracts/lesson4.2/AdvancedCrowdfunding.sol\":1849:1873  totalFunded += msg.value */\n      dup3\n      dup3\n      sload\n      tag_187\n      swap2\n      swap1\n      tag_186\n      jump\t// in\n    tag_187:\n      swap3\n      pop\n      pop\n      dup2\n      swap1\n      sstore\n      pop\n        /* \"contracts/lesson4.2/AdvancedCrowdfunding.sol\":1902:1912  msg.sender */\n      caller\n        /* \"contracts/lesson4.2/AdvancedCrowdfunding.sol\":1889:1937  Contribution(msg.sender, msg.value, totalFunded) */\n      0xffffffffffffffffffffffffffffffffffffffff\n      and\n      0x5f7675b09617d2c9fa4fd13058ee5877a9538f626b0308816736e83748a45040\n        /* \"contracts/lesson4.2/AdvancedCrowdfunding.sol\":1914:1923  msg.value */\n      callvalue\n        /* \"contracts/lesson4.2/AdvancedCrowdfunding.sol\":1925:1936  totalFunded */\n      sload(0x01)\n        /* \"contracts/lesson4.2/AdvancedCrowdfunding.sol\":1889:1937  Contribution(msg.sender, msg.value, totalFunded) */\n      mload(0x40)\n      tag_188\n      swap3\n      swap2\n      swap1\n      tag_189\n      jump\t// in\n    tag_188:\n      mload(0x40)\n      dup1\n      swap2\n      sub\n      swap1\n      log2\n        /* \"contracts/lesson4.2/AdvancedCrowdfunding.sol\":2003:2007  GOAL */\n      immutable(\"0x1d3be50b2bb17407dd170f1d5da128d1def30c6b1598d6a629e79b4775265526\")\n        /* \"contracts/lesson4.2/AdvancedCrowdfunding.sol\":1988:1999  totalFunded */\n      sload(0x01)\n        /* \"contracts/lesson4.2/AdvancedCrowdfunding.sol\":1988:2007  totalFunded >= GOAL */\n      lt\n        /* \"contracts/lesson4.2/AdvancedCrowdfunding.sol\":1984:2184  if (totalFunded >= GOAL) {... */\n      tag_190\n      jumpi\n        /* \"contracts/lesson4.2/AdvancedCrowdfunding.sol\":2023:2037  State oldState */\n      0x00\n        /* \"contracts/lesson4.2/AdvancedCrowdfunding.sol\":2040:2052  currentState */\n      0x00\n      0x00\n      swap1\n      sload\n      swap1\n      0x0100\n      exp\n      swap1\n      div\n      0xff\n      and\n        /* \"contracts/lesson4.2/AdvancedCrowdfunding.sol\":2023:2052  State oldState = currentState */\n      swap1\n      pop\n        /* \"contracts/lesson4.2/AdvancedCrowdfunding.sol\":2081:2097  State.Successful */\n      0x01\n        /* \"contracts/lesson4.2/AdvancedCrowdfunding.sol\":2066:2078  currentState */\n      0x00\n      0x00\n        /* \"contracts/lesson4.2/AdvancedCrowdfunding.sol\":2066:2097  currentState = State.Successful */\n      0x0100\n      exp\n      dup2\n      sload\n      dup2\n      0xff\n      mul\n      not\n      and\n      swap1\n      dup4\n      0x03\n      dup2\n      gt\n      iszero\n      tag_191\n      jumpi\n      tag_192\n      tag_92\n      jump\t// in\n    tag_192:\n    tag_191:\n      mul\n      or\n      swap1\n      sstore\n      pop\n        /* \"contracts/lesson4.2/AdvancedCrowdfunding.sol\":2116:2173  StateChanged(oldState, State.Successful, block.timestamp) */\n      0x6248a7c8a8dfdcb56514416ad7ed5cf43c516b01ebe5ec4716e35ea71e3ecf64\n        /* \"contracts/lesson4.2/AdvancedCrowdfunding.sol\":2129:2137  oldState */\n      dup2\n        /* \"contracts/lesson4.2/AdvancedCrowdfunding.sol\":2139:2155  State.Successful */\n      0x01\n        /* \"contracts/lesson4.2/AdvancedCrowdfunding.sol\":2157:2172  block.timestamp */\n      timestamp\n        /* \"contracts/lesson4.2/AdvancedCrowdfunding.sol\":2116:2173  StateChanged(oldState, State.Successful, block.timestamp) */\n      mload(0x40)\n      tag_193\n      swap4\n      swap3\n      swap2\n      swap1\n      tag_107\n      jump\t// in\n    tag_193:\n      mload(0x40)\n      dup1\n      swap2\n      sub\n      swap1\n      log1\n        /* \"contracts/lesson4.2/AdvancedCrowdfunding.sol\":2009:2184  {... */\n      pop\n        /* \"contracts/lesson4.2/AdvancedCrowdfunding.sol\":1984:2184  if (totalFunded >= GOAL) {... */\n    tag_190:\n        /* \"contracts/lesson4.2/AdvancedCrowdfunding.sol\":1434:2190  function contribute() public payable inState(State.Fundraising) {... */\n      pop\n      jump\t// out\n        /* \"contracts/lesson4.2/AdvancedCrowdfunding.sol\":242:274  address public immutable CREATOR */\n    tag_83:\n      immutable(\"0x789bcdf275fa270780a52ae3b79bb1ce0fda7e0aaad87b57b74bb99ac290714a\")\n      dup2\n      jump\t// out\n        /* \"contracts/lesson4.2/AdvancedCrowdfunding.sol\":439:467  uint public contributorCount */\n    tag_87:\n      sload(0x02)\n      dup2\n      jump\t// out\n        /* \"#utility.yul\":7:187   */\n    tag_92:\n        /* \"#utility.yul\":55:132   */\n      0x4e487b7100000000000000000000000000000000000000000000000000000000\n        /* \"#utility.yul\":52:53   */\n      0x00\n        /* \"#utility.yul\":45:133   */\n      mstore\n        /* \"#utility.yul\":152:156   */\n      0x21\n        /* \"#utility.yul\":149:150   */\n      0x04\n        /* \"#utility.yul\":142:157   */\n      mstore\n        /* \"#utility.yul\":176:180   */\n      0x24\n        /* \"#utility.yul\":173:174   */\n      0x00\n        /* \"#utility.yul\":166:181   */\n      revert\n        /* \"#utility.yul\":193:305   */\n    tag_194:\n        /* \"#utility.yul\":273:274   */\n      0x04\n        /* \"#utility.yul\":266:271   */\n      dup2\n        /* \"#utility.yul\":263:275   */\n      lt\n        /* \"#utility.yul\":253:299   */\n      tag_237\n      jumpi\n        /* \"#utility.yul\":279:297   */\n      tag_238\n      tag_92\n      jump\t// in\n    tag_238:\n        /* \"#utility.yul\":253:299   */\n    tag_237:\n        /* \"#utility.yul\":193:305   */\n      pop\n      jump\t// out\n        /* \"#utility.yul\":311:436   */\n    tag_195:\n        /* \"#utility.yul\":355:362   */\n      0x00\n        /* \"#utility.yul\":384:389   */\n      dup2\n        /* \"#utility.yul\":373:389   */\n      swap1\n      pop\n        /* \"#utility.yul\":390:430   */\n      tag_240\n        /* \"#utility.yul\":424:429   */\n      dup3\n        /* \"#utility.yul\":390:430   */\n      tag_194\n      jump\t// in\n    tag_240:\n        /* \"#utility.yul\":311:436   */\n      swap2\n      swap1\n      pop\n      jump\t// out\n        /* \"#utility.yul\":442:567   */\n    tag_196:\n        /* \"#utility.yul\":497:506   */\n      0x00\n        /* \"#utility.yul\":530:561   */\n      tag_242\n        /* \"#utility.yul\":555:560   */\n      dup3\n        /* \"#utility.yul\":530:561   */\n      tag_195\n      jump\t// in\n    tag_242:\n        /* \"#utility.yul\":517:561   */\n      swap1\n      pop\n        /* \"#utility.yul\":442:567   */\n      swap2\n      swap1\n      pop\n      jump\t// out\n        /* \"#utility.yul\":573:714   */\n    tag_197:\n        /* \"#utility.yul\":665:707   */\n      tag_244\n        /* \"#utility.yul\":701:706   */\n      dup2\n        /* \"#utility.yul\":665:707   */\n      tag_196\n      jump\t// in\n    tag_244:\n        /* \"#utility.yul\":660:663   */\n      dup3\n        /* \"#utility.yul\":653:708   */\n      mstore\n        /* \"#utility.yul\":573:714   */\n      pop\n      pop\n      jump\t// out\n        /* \"#utility.yul\":720:952   */\n    tag_28:\n        /* \"#utility.yul\":818:822   */\n      0x00\n        /* \"#utility.yul\":856:858   */\n      0x20\n        /* \"#utility.yul\":845:854   */\n      dup3\n        /* \"#utility.yul\":841:859   */\n      add\n        /* \"#utility.yul\":833:859   */\n      swap1\n      pop\n        /* \"#utility.yul\":869:945   */\n      tag_246\n        /* \"#utility.yul\":942:943   */\n      0x00\n        /* \"#utility.yul\":931:940   */\n      dup4\n        /* \"#utility.yul\":927:944   */\n      add\n        /* \"#utility.yul\":918:924   */\n      dup5\n        /* \"#utility.yul\":869:945   */\n      tag_197\n      jump\t// in\n    tag_246:\n        /* \"#utility.yul\":720:952   */\n      swap3\n      swap2\n      pop\n      pop\n      jump\t// out\n        /* \"#utility.yul\":958:1048   */\n    tag_198:\n        /* \"#utility.yul\":992:999   */\n      0x00\n        /* \"#utility.yul\":1035:1040   */\n      dup2\n        /* \"#utility.yul\":1028:1041   */\n      iszero\n        /* \"#utility.yul\":1021:1042   */\n      iszero\n        /* \"#utility.yul\":1010:1042   */\n      swap1\n      pop\n        /* \"#utility.yul\":958:1048   */\n      swap2\n      swap1\n      pop\n      jump\t// out\n        /* \"#utility.yul\":1054:1163   */\n    tag_199:\n        /* \"#utility.yul\":1135:1156   */\n      tag_249\n        /* \"#utility.yul\":1150:1155   */\n      dup2\n        /* \"#utility.yul\":1135:1156   */\n      tag_198\n      jump\t// in\n    tag_249:\n        /* \"#utility.yul\":1130:1133   */\n      dup3\n        /* \"#utility.yul\":1123:1157   */\n      mstore\n        /* \"#utility.yul\":1054:1163   */\n      pop\n      pop\n      jump\t// out\n        /* \"#utility.yul\":1169:1379   */\n    tag_33:\n        /* \"#utility.yul\":1256:1260   */\n      0x00\n        /* \"#utility.yul\":1294:1296   */\n      0x20\n        /* \"#utility.yul\":1283:1292   */\n      dup3\n        /* \"#utility.yul\":1279:1297   */\n      add\n        /* \"#utility.yul\":1271:1297   */\n      swap1\n      pop\n        /* \"#utility.yul\":1307:1372   */\n      tag_251\n        /* \"#utility.yul\":1369:1370   */\n      0x00\n        /* \"#utility.yul\":1358:1367   */\n      dup4\n        /* \"#utility.yul\":1354:1371   */\n      add\n        /* \"#utility.yul\":1345:1351   */\n      dup5\n        /* \"#utility.yul\":1307:1372   */\n      tag_199\n      jump\t// in\n    tag_251:\n        /* \"#utility.yul\":1169:1379   */\n      swap3\n      swap2\n      pop\n      pop\n      jump\t// out\n        /* \"#utility.yul\":1466:1583   */\n    tag_201:\n        /* \"#utility.yul\":1575:1576   */\n      0x00\n        /* \"#utility.yul\":1572:1573   */\n      0x00\n        /* \"#utility.yul\":1565:1577   */\n      revert\n        /* \"#utility.yul\":1712:1789   */\n    tag_203:\n        /* \"#utility.yul\":1749:1756   */\n      0x00\n        /* \"#utility.yul\":1778:1783   */\n      dup2\n        /* \"#utility.yul\":1767:1783   */\n      swap1\n      pop\n        /* \"#utility.yul\":1712:1789   */\n      swap2\n      swap1\n      pop\n      jump\t// out\n        /* \"#utility.yul\":1795:1917   */\n    tag_204:\n        /* \"#utility.yul\":1868:1892   */\n      tag_257\n        /* \"#utility.yul\":1886:1891   */\n      dup2\n        /* \"#utility.yul\":1868:1892   */\n      tag_203\n      jump\t// in\n    tag_257:\n        /* \"#utility.yul\":1861:1866   */\n      dup2\n        /* \"#utility.yul\":1858:1893   */\n      eq\n        /* \"#utility.yul\":1848:1911   */\n      tag_258\n      jumpi\n        /* \"#utility.yul\":1907:1908   */\n      0x00\n        /* \"#utility.yul\":1904:1905   */\n      0x00\n        /* \"#utility.yul\":1897:1909   */\n      revert\n        /* \"#utility.yul\":1848:1911   */\n    tag_258:\n        /* \"#utility.yul\":1795:1917   */\n      pop\n      jump\t// out\n        /* \"#utility.yul\":1923:2062   */\n    tag_205:\n        /* \"#utility.yul\":1969:1974   */\n      0x00\n        /* \"#utility.yul\":2007:2013   */\n      dup2\n        /* \"#utility.yul\":1994:2014   */\n      calldataload\n        /* \"#utility.yul\":1985:2014   */\n      swap1\n      pop\n        /* \"#utility.yul\":2023:2056   */\n      tag_260\n        /* \"#utility.yul\":2050:2055   */\n      dup2\n        /* \"#utility.yul\":2023:2056   */\n      tag_204\n      jump\t// in\n    tag_260:\n        /* \"#utility.yul\":1923:2062   */\n      swap3\n      swap2\n      pop\n      pop\n      jump\t// out\n        /* \"#utility.yul\":2068:2397   */\n    tag_40:\n        /* \"#utility.yul\":2127:2133   */\n      0x00\n        /* \"#utility.yul\":2176:2178   */\n      0x20\n        /* \"#utility.yul\":2164:2173   */\n      dup3\n        /* \"#utility.yul\":2155:2162   */\n      dup5\n        /* \"#utility.yul\":2151:2174   */\n      sub\n        /* \"#utility.yul\":2147:2179   */\n      slt\n        /* \"#utility.yul\":2144:2263   */\n      iszero\n      tag_262\n      jumpi\n        /* \"#utility.yul\":2182:2261   */\n      tag_263\n      tag_201\n      jump\t// in\n    tag_263:\n        /* \"#utility.yul\":2144:2263   */\n    tag_262:\n        /* \"#utility.yul\":2302:2303   */\n      0x00\n        /* \"#utility.yul\":2327:2380   */\n      tag_264\n        /* \"#utility.yul\":2372:2379   */\n      dup5\n        /* \"#utility.yul\":2363:2369   */\n      dup3\n        /* \"#utility.yul\":2352:2361   */\n      dup6\n        /* \"#utility.yul\":2348:2370   */\n      add\n        /* \"#utility.yul\":2327:2380   */\n      tag_205\n      jump\t// in\n    tag_264:\n        /* \"#utility.yul\":2317:2380   */\n      swap2\n      pop\n        /* \"#utility.yul\":2273:2390   */\n      pop\n        /* \"#utility.yul\":2068:2397   */\n      swap3\n      swap2\n      pop\n      pop\n      jump\t// out\n        /* \"#utility.yul\":2403:2529   */\n    tag_206:\n        /* \"#utility.yul\":2440:2447   */\n      0x00\n        /* \"#utility.yul\":2480:2522   */\n      0xffffffffffffffffffffffffffffffffffffffff\n        /* \"#utility.yul\":2473:2478   */\n      dup3\n        /* \"#utility.yul\":2469:2523   */\n      and\n        /* \"#utility.yul\":2458:2523   */\n      swap1\n      pop\n        /* \"#utility.yul\":2403:2529   */\n      swap2\n      swap1\n      pop\n      jump\t// out\n        /* \"#utility.yul\":2535:2631   */\n    tag_207:\n        /* \"#utility.yul\":2572:2579   */\n      0x00\n        /* \"#utility.yul\":2601:2625   */\n      tag_267\n        /* \"#utility.yul\":2619:2624   */\n      dup3\n        /* \"#utility.yul\":2601:2625   */\n      tag_206\n      jump\t// in\n    tag_267:\n        /* \"#utility.yul\":2590:2625   */\n      swap1\n      pop\n        /* \"#utility.yul\":2535:2631   */\n      swap2\n      swap1\n      pop\n      jump\t// out\n        /* \"#utility.yul\":2637:2755   */\n    tag_208:\n        /* \"#utility.yul\":2724:2748   */\n      tag_269\n        /* \"#utility.yul\":2742:2747   */\n      dup2\n        /* \"#utility.yul\":2724:2748   */\n      tag_207\n      jump\t// in\n    tag_269:\n        /* \"#utility.yul\":2719:2722   */\n      dup3\n        /* \"#utility.yul\":2712:2749   */\n      mstore\n        /* \"#utility.yul\":2637:2755   */\n      pop\n      pop\n      jump\t// out\n        /* \"#utility.yul\":2761:2983   */\n    tag_43:\n        /* \"#utility.yul\":2854:2858   */\n      0x00\n        /* \"#utility.yul\":2892:2894   */\n      0x20\n        /* \"#utility.yul\":2881:2890   */\n      dup3\n        /* \"#utility.yul\":2877:2895   */\n      add\n        /* \"#utility.yul\":2869:2895   */\n      swap1\n      pop\n        /* \"#utility.yul\":2905:2976   */\n      tag_271\n        /* \"#utility.yul\":2973:2974   */\n      0x00\n        /* \"#utility.yul\":2962:2971   */\n      dup4\n        /* \"#utility.yul\":2958:2975   */\n      add\n        /* \"#utility.yul\":2949:2955   */\n      dup5\n        /* \"#utility.yul\":2905:2976   */\n      tag_208\n      jump\t// in\n    tag_271:\n        /* \"#utility.yul\":2761:2983   */\n      swap3\n      swap2\n      pop\n      pop\n      jump\t// out\n        /* \"#utility.yul\":2989:3111   */\n    tag_209:\n        /* \"#utility.yul\":3062:3086   */\n      tag_273\n        /* \"#utility.yul\":3080:3085   */\n      dup2\n        /* \"#utility.yul\":3062:3086   */\n      tag_207\n      jump\t// in\n    tag_273:\n        /* \"#utility.yul\":3055:3060   */\n      dup2\n        /* \"#utility.yul\":3052:3087   */\n      eq\n        /* \"#utility.yul\":3042:3105   */\n      tag_274\n      jumpi\n        /* \"#utility.yul\":3101:3102   */\n      0x00\n        /* \"#utility.yul\":3098:3099   */\n      0x00\n        /* \"#utility.yul\":3091:3103   */\n      revert\n        /* \"#utility.yul\":3042:3105   */\n    tag_274:\n        /* \"#utility.yul\":2989:3111   */\n      pop\n      jump\t// out\n        /* \"#utility.yul\":3117:3256   */\n    tag_210:\n        /* \"#utility.yul\":3163:3168   */\n      0x00\n        /* \"#utility.yul\":3201:3207   */\n      dup2\n        /* \"#utility.yul\":3188:3208   */\n      calldataload\n        /* \"#utility.yul\":3179:3208   */\n      swap1\n      pop\n        /* \"#utility.yul\":3217:3250   */\n      tag_276\n        /* \"#utility.yul\":3244:3249   */\n      dup2\n        /* \"#utility.yul\":3217:3250   */\n      tag_209\n      jump\t// in\n    tag_276:\n        /* \"#utility.yul\":3117:3256   */\n      swap3\n      swap2\n      pop\n      pop\n      jump\t// out\n        /* \"#utility.yul\":3262:3591   */\n    tag_47:\n        /* \"#utility.yul\":3321:3327   */\n      0x00\n        /* \"#utility.yul\":3370:3372   */\n      0x20\n        /* \"#utility.yul\":3358:3367   */\n      dup3\n        /* \"#utility.yul\":3349:3356   */\n      dup5\n        /* \"#utility.yul\":3345:3368   */\n      sub\n        /* \"#utility.yul\":3341:3373   */\n      slt\n        /* \"#utility.yul\":3338:3457   */\n      iszero\n      tag_278\n      jumpi\n        /* \"#utility.yul\":3376:3455   */\n      tag_279\n      tag_201\n      jump\t// in\n    tag_279:\n        /* \"#utility.yul\":3338:3457   */\n    tag_278:\n        /* \"#utility.yul\":3496:3497   */\n      0x00\n        /* \"#utility.yul\":3521:3574   */\n      tag_280\n        /* \"#utility.yul\":3566:3573   */\n      dup5\n        /* \"#utility.yul\":3557:3563   */\n      dup3\n        /* \"#utility.yul\":3546:3555   */\n      dup6\n        /* \"#utility.yul\":3542:3564   */\n      add\n        /* \"#utility.yul\":3521:3574   */\n      tag_210\n      jump\t// in\n    tag_280:\n        /* \"#utility.yul\":3511:3574   */\n      swap2\n      pop\n        /* \"#utility.yul\":3467:3584   */\n      pop\n        /* \"#utility.yul\":3262:3591   */\n      swap3\n      swap2\n      pop\n      pop\n      jump\t// out\n        /* \"#utility.yul\":3597:3715   */\n    tag_211:\n        /* \"#utility.yul\":3684:3708   */\n      tag_282\n        /* \"#utility.yul\":3702:3707   */\n      dup2\n        /* \"#utility.yul\":3684:3708   */\n      tag_203\n      jump\t// in\n    tag_282:\n        /* \"#utility.yul\":3679:3682   */\n      dup3\n        /* \"#utility.yul\":3672:3709   */\n      mstore\n        /* \"#utility.yul\":3597:3715   */\n      pop\n      pop\n      jump\t// out\n        /* \"#utility.yul\":3721:3943   */\n    tag_50:\n        /* \"#utility.yul\":3814:3818   */\n      0x00\n        /* \"#utility.yul\":3852:3854   */\n      0x20\n        /* \"#utility.yul\":3841:3850   */\n      dup3\n        /* \"#utility.yul\":3837:3855   */\n      add\n        /* \"#utility.yul\":3829:3855   */\n      swap1\n      pop\n        /* \"#utility.yul\":3865:3936   */\n      tag_284\n        /* \"#utility.yul\":3933:3934   */\n      0x00\n        /* \"#utility.yul\":3922:3931   */\n      dup4\n        /* \"#utility.yul\":3918:3935   */\n      add\n        /* \"#utility.yul\":3909:3915   */\n      dup5\n        /* \"#utility.yul\":3865:3936   */\n      tag_211\n      jump\t// in\n    tag_284:\n        /* \"#utility.yul\":3721:3943   */\n      swap3\n      swap2\n      pop\n      pop\n      jump\t// out\n        /* \"#utility.yul\":3949:4734   */\n    tag_58:\n        /* \"#utility.yul\":4187:4191   */\n      0x00\n        /* \"#utility.yul\":4225:4228   */\n      0xc0\n        /* \"#utility.yul\":4214:4223   */\n      dup3\n        /* \"#utility.yul\":4210:4229   */\n      add\n        /* \"#utility.yul\":4202:4229   */\n      swap1\n      pop\n        /* \"#utility.yul\":4239:4315   */\n      tag_286\n        /* \"#utility.yul\":4312:4313   */\n      0x00\n        /* \"#utility.yul\":4301:4310   */\n      dup4\n        /* \"#utility.yul\":4297:4314   */\n      add\n        /* \"#utility.yul\":4288:4294   */\n      dup10\n        /* \"#utility.yul\":4239:4315   */\n      tag_197\n      jump\t// in\n    tag_286:\n        /* \"#utility.yul\":4325:4397   */\n      tag_287\n        /* \"#utility.yul\":4393:4395   */\n      0x20\n        /* \"#utility.yul\":4382:4391   */\n      dup4\n        /* \"#utility.yul\":4378:4396   */\n      add\n        /* \"#utility.yul\":4369:4375   */\n      dup9\n        /* \"#utility.yul\":4325:4397   */\n      tag_211\n      jump\t// in\n    tag_287:\n        /* \"#utility.yul\":4407:4479   */\n      tag_288\n        /* \"#utility.yul\":4475:4477   */\n      0x40\n        /* \"#utility.yul\":4464:4473   */\n      dup4\n        /* \"#utility.yul\":4460:4478   */\n      add\n        /* \"#utility.yul\":4451:4457   */\n      dup8\n        /* \"#utility.yul\":4407:4479   */\n      tag_211\n      jump\t// in\n    tag_288:\n        /* \"#utility.yul\":4489:4561   */\n      tag_289\n        /* \"#utility.yul\":4557:4559   */\n      0x60\n        /* \"#utility.yul\":4546:4555   */\n      dup4\n        /* \"#utility.yul\":4542:4560   */\n      add\n        /* \"#utility.yul\":4533:4539   */\n      dup7\n        /* \"#utility.yul\":4489:4561   */\n      tag_211\n      jump\t// in\n    tag_289:\n        /* \"#utility.yul\":4571:4644   */\n      tag_290\n        /* \"#utility.yul\":4639:4642   */\n      0x80\n        /* \"#utility.yul\":4628:4637   */\n      dup4\n        /* \"#utility.yul\":4624:4643   */\n      add\n        /* \"#utility.yul\":4615:4621   */\n      dup6\n        /* \"#utility.yul\":4571:4644   */\n      tag_211\n      jump\t// in\n    tag_290:\n        /* \"#utility.yul\":4654:4727   */\n      tag_291\n        /* \"#utility.yul\":4722:4725   */\n      0xa0\n        /* \"#utility.yul\":4711:4720   */\n      dup4\n        /* \"#utility.yul\":4707:4726   */\n      add\n        /* \"#utility.yul\":4698:4704   */\n      dup5\n        /* \"#utility.yul\":4654:4727   */\n      tag_211\n      jump\t// in\n    tag_291:\n        /* \"#utility.yul\":3949:4734   */\n      swap8\n      swap7\n      pop\n      pop\n      pop\n      pop\n      pop\n      pop\n      pop\n      jump\t// out\n        /* \"#utility.yul\":4740:4909   */\n    tag_212:\n        /* \"#utility.yul\":4824:4835   */\n      0x00\n        /* \"#utility.yul\":4858:4864   */\n      dup3\n        /* \"#utility.yul\":4853:4856   */\n      dup3\n        /* \"#utility.yul\":4846:4865   */\n      mstore\n        /* \"#utility.yul\":4898:4902   */\n      0x20\n        /* \"#utility.yul\":4893:4896   */\n      dup3\n        /* \"#utility.yul\":4889:4903   */\n      add\n        /* \"#utility.yul\":4874:4903   */\n      swap1\n      pop\n        /* \"#utility.yul\":4740:4909   */\n      swap3\n      swap2\n      pop\n      pop\n      jump\t// out\n        /* \"#utility.yul\":4915:5078   */\n    tag_213:\n        /* \"#utility.yul\":5055:5070   */\n      0x496e76616c696420737461746500000000000000000000000000000000000000\n        /* \"#utility.yul\":5051:5052   */\n      0x00\n        /* \"#utility.yul\":5043:5049   */\n      dup3\n        /* \"#utility.yul\":5039:5053   */\n      add\n        /* \"#utility.yul\":5032:5071   */\n      mstore\n        /* \"#utility.yul\":4915:5078   */\n      pop\n      jump\t// out\n        /* \"#utility.yul\":5084:5450   */\n    tag_214:\n        /* \"#utility.yul\":5226:5229   */\n      0x00\n        /* \"#utility.yul\":5247:5314   */\n      tag_295\n        /* \"#utility.yul\":5311:5313   */\n      0x0d\n        /* \"#utility.yul\":5306:5309   */\n      dup4\n        /* \"#utility.yul\":5247:5314   */\n      tag_212\n      jump\t// in\n    tag_295:\n        /* \"#utility.yul\":5240:5314   */\n      swap2\n      pop\n        /* \"#utility.yul\":5323:5416   */\n      tag_296\n        /* \"#utility.yul\":5412:5415   */\n      dup3\n        /* \"#utility.yul\":5323:5416   */\n      tag_213\n      jump\t// in\n    tag_296:\n        /* \"#utility.yul\":5441:5443   */\n      0x20\n        /* \"#utility.yul\":5436:5439   */\n      dup3\n        /* \"#utility.yul\":5432:5444   */\n      add\n        /* \"#utility.yul\":5425:5444   */\n      swap1\n      pop\n        /* \"#utility.yul\":5084:5450   */\n      swap2\n      swap1\n      pop\n      jump\t// out\n        /* \"#utility.yul\":5456:5875   */\n    tag_97:\n        /* \"#utility.yul\":5622:5626   */\n      0x00\n        /* \"#utility.yul\":5660:5662   */\n      0x20\n        /* \"#utility.yul\":5649:5658   */\n      dup3\n        /* \"#utility.yul\":5645:5663   */\n      add\n        /* \"#utility.yul\":5637:5663   */\n      swap1\n      pop\n        /* \"#utility.yul\":5709:5718   */\n      dup2\n        /* \"#utility.yul\":5703:5707   */\n      dup2\n        /* \"#utility.yul\":5699:5719   */\n      sub\n        /* \"#utility.yul\":5695:5696   */\n      0x00\n        /* \"#utility.yul\":5684:5693   */\n      dup4\n        /* \"#utility.yul\":5680:5697   */\n      add\n        /* \"#utility.yul\":5673:5720   */\n      mstore\n        /* \"#utility.yul\":5737:5868   */\n      tag_298\n        /* \"#utility.yul\":5863:5867   */\n      dup2\n        /* \"#utility.yul\":5737:5868   */\n      tag_214\n      jump\t// in\n    tag_298:\n        /* \"#utility.yul\":5729:5868   */\n      swap1\n      pop\n        /* \"#utility.yul\":5456:5875   */\n      swap2\n      swap1\n      pop\n      jump\t// out\n        /* \"#utility.yul\":5881:6043   */\n    tag_215:\n        /* \"#utility.yul\":6021:6035   */\n      0x5374696c6c206163746976650000000000000000000000000000000000000000\n        /* \"#utility.yul\":6017:6018   */\n      0x00\n        /* \"#utility.yul\":6009:6015   */\n      dup3\n        /* \"#utility.yul\":6005:6019   */\n      add\n        /* \"#utility.yul\":5998:6036   */\n      mstore\n        /* \"#utility.yul\":5881:6043   */\n      pop\n      jump\t// out\n        /* \"#utility.yul\":6049:6415   */\n    tag_216:\n        /* \"#utility.yul\":6191:6194   */\n      0x00\n        /* \"#utility.yul\":6212:6279   */\n      tag_301\n        /* \"#utility.yul\":6276:6278   */\n      0x0c\n        /* \"#utility.yul\":6271:6274   */\n      dup4\n        /* \"#utility.yul\":6212:6279   */\n      tag_212\n      jump\t// in\n    tag_301:\n        /* \"#utility.yul\":6205:6279   */\n      swap2\n      pop\n        /* \"#utility.yul\":6288:6381   */\n      tag_302\n        /* \"#utility.yul\":6377:6380   */\n      dup3\n        /* \"#utility.yul\":6288:6381   */\n      tag_215\n      jump\t// in\n    tag_302:\n        /* \"#utility.yul\":6406:6408   */\n      0x20\n        /* \"#utility.yul\":6401:6404   */\n      dup3\n        /* \"#utility.yul\":6397:6409   */\n      add\n        /* \"#utility.yul\":6390:6409   */\n      swap1\n      pop\n        /* \"#utility.yul\":6049:6415   */\n      swap2\n      swap1\n      pop\n      jump\t// out\n        /* \"#utility.yul\":6421:6840   */\n    tag_101:\n        /* \"#utility.yul\":6587:6591   */\n      0x00\n        /* \"#utility.yul\":6625:6627   */\n      0x20\n        /* \"#utility.yul\":6614:6623   */\n      dup3\n        /* \"#utility.yul\":6610:6628   */\n      add\n        /* \"#utility.yul\":6602:6628   */\n      swap1\n      pop\n        /* \"#utility.yul\":6674:6683   */\n      dup2\n        /* \"#utility.yul\":6668:6672   */\n      dup2\n        /* \"#utility.yul\":6664:6684   */\n      sub\n        /* \"#utility.yul\":6660:6661   */\n      0x00\n        /* \"#utility.yul\":6649:6658   */\n      dup4\n        /* \"#utility.yul\":6645:6662   */\n      add\n        /* \"#utility.yul\":6638:6685   */\n      mstore\n        /* \"#utility.yul\":6702:6833   */\n      tag_304\n        /* \"#utility.yul\":6828:6832   */\n      dup2\n        /* \"#utility.yul\":6702:6833   */\n      tag_216\n      jump\t// in\n    tag_304:\n        /* \"#utility.yul\":6694:6833   */\n      swap1\n      pop\n        /* \"#utility.yul\":6421:6840   */\n      swap2\n      swap1\n      pop\n      jump\t// out\n        /* \"#utility.yul\":6846:7308   */\n    tag_107:\n        /* \"#utility.yul\":7005:7009   */\n      0x00\n        /* \"#utility.yul\":7043:7045   */\n      0x60\n        /* \"#utility.yul\":7032:7041   */\n      dup3\n        /* \"#utility.yul\":7028:7046   */\n      add\n        /* \"#utility.yul\":7020:7046   */\n      swap1\n      pop\n        /* \"#utility.yul\":7056:7132   */\n      tag_306\n        /* \"#utility.yul\":7129:7130   */\n      0x00\n        /* \"#utility.yul\":7118:7127   */\n      dup4\n        /* \"#utility.yul\":7114:7131   */\n      add\n        /* \"#utility.yul\":7105:7111   */\n      dup7\n        /* \"#utility.yul\":7056:7132   */\n      tag_197\n      jump\t// in\n    tag_306:\n        /* \"#utility.yul\":7142:7219   */\n      tag_307\n        /* \"#utility.yul\":7215:7217   */\n      0x20\n        /* \"#utility.yul\":7204:7213   */\n      dup4\n        /* \"#utility.yul\":7200:7218   */\n      add\n        /* \"#utility.yul\":7191:7197   */\n      dup6\n        /* \"#utility.yul\":7142:7219   */\n      tag_197\n      jump\t// in\n    tag_307:\n        /* \"#utility.yul\":7229:7301   */\n      tag_308\n        /* \"#utility.yul\":7297:7299   */\n      0x40\n        /* \"#utility.yul\":7286:7295   */\n      dup4\n        /* \"#utility.yul\":7282:7300   */\n      add\n        /* \"#utility.yul\":7273:7279   */\n      dup5\n        /* \"#utility.yul\":7229:7301   */\n      tag_211\n      jump\t// in\n    tag_308:\n        /* \"#utility.yul\":6846:7308   */\n      swap5\n      swap4\n      pop\n      pop\n      pop\n      pop\n      jump\t// out\n        /* \"#utility.yul\":7314:7476   */\n    tag_217:\n        /* \"#utility.yul\":7454:7468   */\n      0x4f6e6c792063726561746f720000000000000000000000000000000000000000\n        /* \"#utility.yul\":7450:7451   */\n      0x00\n        /* \"#utility.yul\":7442:7448   */\n      dup3\n        /* \"#utility.yul\":7438:7452   */\n      add\n        /* \"#utility.yul\":7431:7469   */\n      mstore\n        /* \"#utility.yul\":7314:7476   */\n      pop\n      jump\t// out\n        /* \"#utility.yul\":7482:7848   */\n    tag_218:\n        /* \"#utility.yul\":7624:7627   */\n      0x00\n        /* \"#utility.yul\":7645:7712   */\n      tag_311\n        /* \"#utility.yul\":7709:7711   */\n      0x0c\n        /* \"#utility.yul\":7704:7707   */\n      dup4\n        /* \"#utility.yul\":7645:7712   */\n      tag_212\n      jump\t// in\n    tag_311:\n        /* \"#utility.yul\":7638:7712   */\n      swap2\n      pop\n        /* \"#utility.yul\":7721:7814   */\n      tag_312\n        /* \"#utility.yul\":7810:7813   */\n      dup3\n        /* \"#utility.yul\":7721:7814   */\n      tag_217\n      jump\t// in\n    tag_312:\n        /* \"#utility.yul\":7839:7841   */\n      0x20\n        /* \"#utility.yul\":7834:7837   */\n      dup3\n        /* \"#utility.yul\":7830:7842   */\n      add\n        /* \"#utility.yul\":7823:7842   */\n      swap1\n      pop\n        /* \"#utility.yul\":7482:7848   */\n      swap2\n      swap1\n      pop\n      jump\t// out\n        /* \"#utility.yul\":7854:8273   */\n    tag_117:\n        /* \"#utility.yul\":8020:8024   */\n      0x00\n        /* \"#utility.yul\":8058:8060   */\n      0x20\n        /* \"#utility.yul\":8047:8056   */\n      dup3\n        /* \"#utility.yul\":8043:8061   */\n      add\n        /* \"#utility.yul\":8035:8061   */\n      swap1\n      pop\n        /* \"#utility.yul\":8107:8116   */\n      dup2\n        /* \"#utility.yul\":8101:8105   */\n      dup2\n        /* \"#utility.yul\":8097:8117   */\n      sub\n        /* \"#utility.yul\":8093:8094   */\n      0x00\n        /* \"#utility.yul\":8082:8091   */\n      dup4\n        /* \"#utility.yul\":8078:8095   */\n      add\n        /* \"#utility.yul\":8071:8118   */\n      mstore\n        /* \"#utility.yul\":8135:8266   */\n      tag_314\n        /* \"#utility.yul\":8261:8265   */\n      dup2\n        /* \"#utility.yul\":8135:8266   */\n      tag_218\n      jump\t// in\n    tag_314:\n        /* \"#utility.yul\":8127:8266   */\n      swap1\n      pop\n        /* \"#utility.yul\":7854:8273   */\n      swap2\n      swap1\n      pop\n      jump\t// out\n        /* \"#utility.yul\":8279:8426   */\n    tag_219:\n        /* \"#utility.yul\":8380:8391   */\n      0x00\n        /* \"#utility.yul\":8417:8420   */\n      dup2\n        /* \"#utility.yul\":8402:8420   */\n      swap1\n      pop\n        /* \"#utility.yul\":8279:8426   */\n      swap3\n      swap2\n      pop\n      pop\n      jump\t// out\n        /* \"#utility.yul\":8432:8546   */\n    tag_220:\n      pop\n      jump\t// out\n        /* \"#utility.yul\":8552:8950   */\n    tag_221:\n        /* \"#utility.yul\":8711:8714   */\n      0x00\n        /* \"#utility.yul\":8732:8815   */\n      tag_318\n        /* \"#utility.yul\":8813:8814   */\n      0x00\n        /* \"#utility.yul\":8808:8811   */\n      dup4\n        /* \"#utility.yul\":8732:8815   */\n      tag_219\n      jump\t// in\n    tag_318:\n        /* \"#utility.yul\":8725:8815   */\n      swap2\n      pop\n        /* \"#utility.yul\":8824:8917   */\n      tag_319\n        /* \"#utility.yul\":8913:8916   */\n      dup3\n        /* \"#utility.yul\":8824:8917   */\n      tag_220\n      jump\t// in\n    tag_319:\n        /* \"#utility.yul\":8942:8943   */\n      0x00\n        /* \"#utility.yul\":8937:8940   */\n      dup3\n        /* \"#utility.yul\":8933:8944   */\n      add\n        /* \"#utility.yul\":8926:8944   */\n      swap1\n      pop\n        /* \"#utility.yul\":8552:8950   */\n      swap2\n      swap1\n      pop\n      jump\t// out\n        /* \"#utility.yul\":8956:9335   */\n    tag_129:\n        /* \"#utility.yul\":9140:9143   */\n      0x00\n        /* \"#utility.yul\":9162:9309   */\n      tag_321\n        /* \"#utility.yul\":9305:9308   */\n      dup3\n        /* \"#utility.yul\":9162:9309   */\n      tag_221\n      jump\t// in\n    tag_321:\n        /* \"#utility.yul\":9155:9309   */\n      swap2\n      pop\n        /* \"#utility.yul\":9326:9329   */\n      dup2\n        /* \"#utility.yul\":9319:9329   */\n      swap1\n      pop\n        /* \"#utility.yul\":8956:9335   */\n      swap2\n      swap1\n      pop\n      jump\t// out\n        /* \"#utility.yul\":9341:9506   */\n    tag_222:\n        /* \"#utility.yul\":9481:9498   */\n      0x5472616e73666572206661696c65640000000000000000000000000000000000\n        /* \"#utility.yul\":9477:9478   */\n      0x00\n        /* \"#utility.yul\":9469:9475   */\n      dup3\n        /* \"#utility.yul\":9465:9479   */\n      add\n        /* \"#utility.yul\":9458:9499   */\n      mstore\n        /* \"#utility.yul\":9341:9506   */\n      pop\n      jump\t// out\n        /* \"#utility.yul\":9512:9878   */\n    tag_223:\n        /* \"#utility.yul\":9654:9657   */\n      0x00\n        /* \"#utility.yul\":9675:9742   */\n      tag_324\n        /* \"#utility.yul\":9739:9741   */\n      0x0f\n        /* \"#utility.yul\":9734:9737   */\n      dup4\n        /* \"#utility.yul\":9675:9742   */\n      tag_212\n      jump\t// in\n    tag_324:\n        /* \"#utility.yul\":9668:9742   */\n      swap2\n      pop\n        /* \"#utility.yul\":9751:9844   */\n      tag_325\n        /* \"#utility.yul\":9840:9843   */\n      dup3\n        /* \"#utility.yul\":9751:9844   */\n      tag_222\n      jump\t// in\n    tag_325:\n        /* \"#utility.yul\":9869:9871   */\n      0x20\n        /* \"#utility.yul\":9864:9867   */\n      dup3\n        /* \"#utility.yul\":9860:9872   */\n      add\n        /* \"#utility.yul\":9853:9872   */\n      swap1\n      pop\n        /* \"#utility.yul\":9512:9878   */\n      swap2\n      swap1\n      pop\n      jump\t// out\n        /* \"#utility.yul\":9884:10303   */\n    tag_135:\n        /* \"#utility.yul\":10050:10054   */\n      0x00\n        /* \"#utility.yul\":10088:10090   */\n      0x20\n        /* \"#utility.yul\":10077:10086   */\n      dup3\n        /* \"#utility.yul\":10073:10091   */\n      add\n        /* \"#utility.yul\":10065:10091   */\n      swap1\n      pop\n        /* \"#utility.yul\":10137:10146   */\n      dup2\n        /* \"#utility.yul\":10131:10135   */\n      dup2\n        /* \"#utility.yul\":10127:10147   */\n      sub\n        /* \"#utility.yul\":10123:10124   */\n      0x00\n        /* \"#utility.yul\":10112:10121   */\n      dup4\n        /* \"#utility.yul\":10108:10125   */\n      add\n        /* \"#utility.yul\":10101:10148   */\n      mstore\n        /* \"#utility.yul\":10165:10296   */\n      tag_327\n        /* \"#utility.yul\":10291:10295   */\n      dup2\n        /* \"#utility.yul\":10165:10296   */\n      tag_223\n      jump\t// in\n    tag_327:\n        /* \"#utility.yul\":10157:10296   */\n      swap1\n      pop\n        /* \"#utility.yul\":9884:10303   */\n      swap2\n      swap1\n      pop\n      jump\t// out\n        /* \"#utility.yul\":10309:10474   */\n    tag_224:\n        /* \"#utility.yul\":10449:10466   */\n      0x4e6f20636f6e747269627574696f6e0000000000000000000000000000000000\n        /* \"#utility.yul\":10445:10446   */\n      0x00\n        /* \"#utility.yul\":10437:10443   */\n      dup3\n        /* \"#utility.yul\":10433:10447   */\n      add\n        /* \"#utility.yul\":10426:10467   */\n      mstore\n        /* \"#utility.yul\":10309:10474   */\n      pop\n      jump\t// out\n        /* \"#utility.yul\":10480:10846   */\n    tag_225:\n        /* \"#utility.yul\":10622:10625   */\n      0x00\n        /* \"#utility.yul\":10643:10710   */\n      tag_330\n        /* \"#utility.yul\":10707:10709   */\n      0x0f\n        /* \"#utility.yul\":10702:10705   */\n      dup4\n        /* \"#utility.yul\":10643:10710   */\n      tag_212\n      jump\t// in\n    tag_330:\n        /* \"#utility.yul\":10636:10710   */\n      swap2\n      pop\n        /* \"#utility.yul\":10719:10812   */\n      tag_331\n        /* \"#utility.yul\":10808:10811   */\n      dup3\n        /* \"#utility.yul\":10719:10812   */\n      tag_224\n      jump\t// in\n    tag_331:\n        /* \"#utility.yul\":10837:10839   */\n      0x20\n        /* \"#utility.yul\":10832:10835   */\n      dup3\n        /* \"#utility.yul\":10828:10840   */\n      add\n        /* \"#utility.yul\":10821:10840   */\n      swap1\n      pop\n        /* \"#utility.yul\":10480:10846   */\n      swap2\n      swap1\n      pop\n      jump\t// out\n        /* \"#utility.yul\":10852:11271   */\n    tag_149:\n        /* \"#utility.yul\":11018:11022   */\n      0x00\n        /* \"#utility.yul\":11056:11058   */\n      0x20\n        /* \"#utility.yul\":11045:11054   */\n      dup3\n        /* \"#utility.yul\":11041:11059   */\n      add\n        /* \"#utility.yul\":11033:11059   */\n      swap1\n      pop\n        /* \"#utility.yul\":11105:11114   */\n      dup2\n        /* \"#utility.yul\":11099:11103   */\n      dup2\n        /* \"#utility.yul\":11095:11115   */\n      sub\n        /* \"#utility.yul\":11091:11092   */\n      0x00\n        /* \"#utility.yul\":11080:11089   */\n      dup4\n        /* \"#utility.yul\":11076:11093   */\n      add\n        /* \"#utility.yul\":11069:11116   */\n      mstore\n        /* \"#utility.yul\":11133:11264   */\n      tag_333\n        /* \"#utility.yul\":11259:11263   */\n      dup2\n        /* \"#utility.yul\":11133:11264   */\n      tag_225\n      jump\t// in\n    tag_333:\n        /* \"#utility.yul\":11125:11264   */\n      swap1\n      pop\n        /* \"#utility.yul\":10852:11271   */\n      swap2\n      swap1\n      pop\n      jump\t// out\n        /* \"#utility.yul\":11277:11440   */\n    tag_226:\n        /* \"#utility.yul\":11417:11432   */\n      0x526566756e64206661696c656400000000000000000000000000000000000000\n        /* \"#utility.yul\":11413:11414   */\n      0x00\n        /* \"#utility.yul\":11405:11411   */\n      dup3\n        /* \"#utility.yul\":11401:11415   */\n      add\n        /* \"#utility.yul\":11394:11433   */\n      mstore\n        /* \"#utility.yul\":11277:11440   */\n      pop\n      jump\t// out\n        /* \"#utility.yul\":11446:11812   */\n    tag_227:\n        /* \"#utility.yul\":11588:11591   */\n      0x00\n        /* \"#utility.yul\":11609:11676   */\n      tag_336\n        /* \"#utility.yul\":11673:11675   */\n      0x0d\n        /* \"#utility.yul\":11668:11671   */\n      dup4\n        /* \"#utility.yul\":11609:11676   */\n      tag_212\n      jump\t// in\n    tag_336:\n        /* \"#utility.yul\":11602:11676   */\n      swap2\n      pop\n        /* \"#utility.yul\":11685:11778   */\n      tag_337\n        /* \"#utility.yul\":11774:11777   */\n      dup3\n        /* \"#utility.yul\":11685:11778   */\n      tag_226\n      jump\t// in\n    tag_337:\n        /* \"#utility.yul\":11803:11805   */\n      0x20\n        /* \"#utility.yul\":11798:11801   */\n      dup3\n        /* \"#utility.yul\":11794:11806   */\n      add\n        /* \"#utility.yul\":11787:11806   */\n      swap1\n      pop\n        /* \"#utility.yul\":11446:11812   */\n      swap2\n      swap1\n      pop\n      jump\t// out\n        /* \"#utility.yul\":11818:12237   */\n    tag_156:\n        /* \"#utility.yul\":11984:11988   */\n      0x00\n        /* \"#utility.yul\":12022:12024   */\n      0x20\n        /* \"#utility.yul\":12011:12020   */\n      dup3\n        /* \"#utility.yul\":12007:12025   */\n      add\n        /* \"#utility.yul\":11999:12025   */\n      swap1\n      pop\n        /* \"#utility.yul\":12071:12080   */\n      dup2\n        /* \"#utility.yul\":12065:12069   */\n      dup2\n        /* \"#utility.yul\":12061:12081   */\n      sub\n        /* \"#utility.yul\":12057:12058   */\n      0x00\n        /* \"#utility.yul\":12046:12055   */\n      dup4\n        /* \"#utility.yul\":12042:12059   */\n      add\n        /* \"#utility.yul\":12035:12082   */\n      mstore\n        /* \"#utility.yul\":12099:12230   */\n      tag_339\n        /* \"#utility.yul\":12225:12229   */\n      dup2\n        /* \"#utility.yul\":12099:12230   */\n      tag_227\n      jump\t// in\n    tag_339:\n        /* \"#utility.yul\":12091:12230   */\n      swap1\n      pop\n        /* \"#utility.yul\":11818:12237   */\n      swap2\n      swap1\n      pop\n      jump\t// out\n        /* \"#utility.yul\":12243:12423   */\n    tag_228:\n        /* \"#utility.yul\":12291:12368   */\n      0x4e487b7100000000000000000000000000000000000000000000000000000000\n        /* \"#utility.yul\":12288:12289   */\n      0x00\n        /* \"#utility.yul\":12281:12369   */\n      mstore\n        /* \"#utility.yul\":12388:12392   */\n      0x11\n        /* \"#utility.yul\":12385:12386   */\n      0x04\n        /* \"#utility.yul\":12378:12393   */\n      mstore\n        /* \"#utility.yul\":12412:12416   */\n      0x24\n        /* \"#utility.yul\":12409:12410   */\n      0x00\n        /* \"#utility.yul\":12402:12417   */\n      revert\n        /* \"#utility.yul\":12429:12623   */\n    tag_161:\n        /* \"#utility.yul\":12469:12473   */\n      0x00\n        /* \"#utility.yul\":12489:12509   */\n      tag_342\n        /* \"#utility.yul\":12507:12508   */\n      dup3\n        /* \"#utility.yul\":12489:12509   */\n      tag_203\n      jump\t// in\n    tag_342:\n        /* \"#utility.yul\":12484:12509   */\n      swap2\n      pop\n        /* \"#utility.yul\":12523:12543   */\n      tag_343\n        /* \"#utility.yul\":12541:12542   */\n      dup4\n        /* \"#utility.yul\":12523:12543   */\n      tag_203\n      jump\t// in\n    tag_343:\n        /* \"#utility.yul\":12518:12543   */\n      swap3\n      pop\n        /* \"#utility.yul\":12567:12568   */\n      dup3\n        /* \"#utility.yul\":12564:12565   */\n      dup3\n        /* \"#utility.yul\":12560:12569   */\n      sub\n        /* \"#utility.yul\":12552:12569   */\n      swap1\n      pop\n        /* \"#utility.yul\":12591:12592   */\n      dup2\n        /* \"#utility.yul\":12585:12589   */\n      dup2\n        /* \"#utility.yul\":12582:12593   */\n      gt\n        /* \"#utility.yul\":12579:12616   */\n      iszero\n      tag_344\n      jumpi\n        /* \"#utility.yul\":12596:12614   */\n      tag_345\n      tag_228\n      jump\t// in\n    tag_345:\n        /* \"#utility.yul\":12579:12616   */\n    tag_344:\n        /* \"#utility.yul\":12429:12623   */\n      swap3\n      swap2\n      pop\n      pop\n      jump\t// out\n        /* \"#utility.yul\":12629:13039   */\n    tag_164:\n        /* \"#utility.yul\":12669:12676   */\n      0x00\n        /* \"#utility.yul\":12692:12712   */\n      tag_347\n        /* \"#utility.yul\":12710:12711   */\n      dup3\n        /* \"#utility.yul\":12692:12712   */\n      tag_203\n      jump\t// in\n    tag_347:\n        /* \"#utility.yul\":12687:12712   */\n      swap2\n      pop\n        /* \"#utility.yul\":12726:12746   */\n      tag_348\n        /* \"#utility.yul\":12744:12745   */\n      dup4\n        /* \"#utility.yul\":12726:12746   */\n      tag_203\n      jump\t// in\n    tag_348:\n        /* \"#utility.yul\":12721:12746   */\n      swap3\n      pop\n        /* \"#utility.yul\":12781:12782   */\n      dup3\n        /* \"#utility.yul\":12778:12779   */\n      dup3\n        /* \"#utility.yul\":12774:12783   */\n      mul\n        /* \"#utility.yul\":12803:12833   */\n      tag_349\n        /* \"#utility.yul\":12821:12832   */\n      dup2\n        /* \"#utility.yul\":12803:12833   */\n      tag_203\n      jump\t// in\n    tag_349:\n        /* \"#utility.yul\":12792:12833   */\n      swap2\n      pop\n        /* \"#utility.yul\":12982:12983   */\n      dup3\n        /* \"#utility.yul\":12973:12980   */\n      dup3\n        /* \"#utility.yul\":12969:12984   */\n      div\n        /* \"#utility.yul\":12966:12967   */\n      dup5\n        /* \"#utility.yul\":12963:12985   */\n      eq\n        /* \"#utility.yul\":12943:12944   */\n      dup4\n        /* \"#utility.yul\":12936:12945   */\n      iszero\n        /* \"#utility.yul\":12916:12999   */\n      or\n        /* \"#utility.yul\":12893:13032   */\n      tag_350\n      jumpi\n        /* \"#utility.yul\":13012:13030   */\n      tag_351\n      tag_228\n      jump\t// in\n    tag_351:\n        /* \"#utility.yul\":12893:13032   */\n    tag_350:\n        /* \"#utility.yul\":12677:13039   */\n      pop\n        /* \"#utility.yul\":12629:13039   */\n      swap3\n      swap2\n      pop\n      pop\n      jump\t// out\n        /* \"#utility.yul\":13045:13225   */\n    tag_229:\n        /* \"#utility.yul\":13093:13170   */\n      0x4e487b7100000000000000000000000000000000000000000000000000000000\n        /* \"#utility.yul\":13090:13091   */\n      0x00\n        /* \"#utility.yul\":13083:13171   */\n      mstore\n        /* \"#utility.yul\":13190:13194   */\n      0x12\n        /* \"#utility.yul\":13187:13188   */\n      0x04\n        /* \"#utility.yul\":13180:13195   */\n      mstore\n        /* \"#utility.yul\":13214:13218   */\n      0x24\n        /* \"#utility.yul\":13211:13212   */\n      0x00\n        /* \"#utility.yul\":13204:13219   */\n      revert\n        /* \"#utility.yul\":13231:13416   */\n    tag_166:\n        /* \"#utility.yul\":13271:13272   */\n      0x00\n        /* \"#utility.yul\":13288:13308   */\n      tag_354\n        /* \"#utility.yul\":13306:13307   */\n      dup3\n        /* \"#utility.yul\":13288:13308   */\n      tag_203\n      jump\t// in\n    tag_354:\n        /* \"#utility.yul\":13283:13308   */\n      swap2\n      pop\n        /* \"#utility.yul\":13322:13342   */\n      tag_355\n        /* \"#utility.yul\":13340:13341   */\n      dup4\n        /* \"#utility.yul\":13322:13342   */\n      tag_203\n      jump\t// in\n    tag_355:\n        /* \"#utility.yul\":13317:13342   */\n      swap3\n      pop\n        /* \"#utility.yul\":13361:13362   */\n      dup3\n        /* \"#utility.yul\":13351:13386   */\n      tag_356\n      jumpi\n        /* \"#utility.yul\":13366:13384   */\n      tag_357\n      tag_229\n      jump\t// in\n    tag_357:\n        /* \"#utility.yul\":13351:13386   */\n    tag_356:\n        /* \"#utility.yul\":13408:13409   */\n      dup3\n        /* \"#utility.yul\":13405:13406   */\n      dup3\n        /* \"#utility.yul\":13401:13410   */\n      div\n        /* \"#utility.yul\":13396:13410   */\n      swap1\n      pop\n        /* \"#utility.yul\":13231:13416   */\n      swap3\n      swap2\n      pop\n      pop\n      jump\t// out\n        /* \"#utility.yul\":13422:13589   */\n    tag_230:\n        /* \"#utility.yul\":13562:13581   */\n      0x46756e6472616973696e6720656e646564000000000000000000000000000000\n        /* \"#utility.yul\":13558:13559   */\n      0x00\n        /* \"#utility.yul\":13550:13556   */\n      dup3\n        /* \"#utility.yul\":13546:13560   */\n      add\n        /* \"#utility.yul\":13539:13582   */\n      mstore\n        /* \"#utility.yul\":13422:13589   */\n      pop\n      jump\t// out\n        /* \"#utility.yul\":13595:13961   */\n    tag_231:\n        /* \"#utility.yul\":13737:13740   */\n      0x00\n        /* \"#utility.yul\":13758:13825   */\n      tag_360\n        /* \"#utility.yul\":13822:13824   */\n      0x11\n        /* \"#utility.yul\":13817:13820   */\n      dup4\n        /* \"#utility.yul\":13758:13825   */\n      tag_212\n      jump\t// in\n    tag_360:\n        /* \"#utility.yul\":13751:13825   */\n      swap2\n      pop\n        /* \"#utility.yul\":13834:13927   */\n      tag_361\n        /* \"#utility.yul\":13923:13926   */\n      dup3\n        /* \"#utility.yul\":13834:13927   */\n      tag_230\n      jump\t// in\n    tag_361:\n        /* \"#utility.yul\":13952:13954   */\n      0x20\n        /* \"#utility.yul\":13947:13950   */\n      dup3\n        /* \"#utility.yul\":13943:13955   */\n      add\n        /* \"#utility.yul\":13936:13955   */\n      swap1\n      pop\n        /* \"#utility.yul\":13595:13961   */\n      swap2\n      swap1\n      pop\n      jump\t// out\n        /* \"#utility.yul\":13967:14386   */\n    tag_177:\n        /* \"#utility.yul\":14133:14137   */\n      0x00\n        /* \"#utility.yul\":14171:14173   */\n      0x20\n        /* \"#utility.yul\":14160:14169   */\n      dup3\n        /* \"#utility.yul\":14156:14174   */\n      add\n        /* \"#utility.yul\":14148:14174   */\n      swap1\n      pop\n        /* \"#utility.yul\":14220:14229   */\n      dup2\n        /* \"#utility.yul\":14214:14218   */\n      dup2\n        /* \"#utility.yul\":14210:14230   */\n      sub\n        /* \"#utility.yul\":14206:14207   */\n      0x00\n        /* \"#utility.yul\":14195:14204   */\n      dup4\n        /* \"#utility.yul\":14191:14208   */\n      add\n        /* \"#utility.yul\":14184:14231   */\n      mstore\n        /* \"#utility.yul\":14248:14379   */\n      tag_363\n        /* \"#utility.yul\":14374:14378   */\n      dup2\n        /* \"#utility.yul\":14248:14379   */\n      tag_231\n      jump\t// in\n    tag_363:\n        /* \"#utility.yul\":14240:14379   */\n      swap1\n      pop\n        /* \"#utility.yul\":13967:14386   */\n      swap2\n      swap1\n      pop\n      jump\t// out\n        /* \"#utility.yul\":14392:14555   */\n    tag_232:\n        /* \"#utility.yul\":14532:14547   */\n      0x42656c6f77206d696e696d756d00000000000000000000000000000000000000\n        /* \"#utility.yul\":14528:14529   */\n      0x00\n        /* \"#utility.yul\":14520:14526   */\n      dup3\n        /* \"#utility.yul\":14516:14530   */\n      add\n        /* \"#utility.yul\":14509:14548   */\n      mstore\n        /* \"#utility.yul\":14392:14555   */\n      pop\n      jump\t// out\n        /* \"#utility.yul\":14561:14927   */\n    tag_233:\n        /* \"#utility.yul\":14703:14706   */\n      0x00\n        /* \"#utility.yul\":14724:14791   */\n      tag_366\n        /* \"#utility.yul\":14788:14790   */\n      0x0d\n        /* \"#utility.yul\":14783:14786   */\n      dup4\n        /* \"#utility.yul\":14724:14791   */\n      tag_212\n      jump\t// in\n    tag_366:\n        /* \"#utility.yul\":14717:14791   */\n      swap2\n      pop\n        /* \"#utility.yul\":14800:14893   */\n      tag_367\n        /* \"#utility.yul\":14889:14892   */\n      dup3\n        /* \"#utility.yul\":14800:14893   */\n      tag_232\n      jump\t// in\n    tag_367:\n        /* \"#utility.yul\":14918:14920   */\n      0x20\n        /* \"#utility.yul\":14913:14916   */\n      dup3\n        /* \"#utility.yul\":14909:14921   */\n      add\n        /* \"#utility.yul\":14902:14921   */\n      swap1\n      pop\n        /* \"#utility.yul\":14561:14927   */\n      swap2\n      swap1\n      pop\n      jump\t// out\n        /* \"#utility.yul\":14933:15352   */\n    tag_180:\n        /* \"#utility.yul\":15099:15103   */\n      0x00\n        /* \"#utility.yul\":15137:15139   */\n      0x20\n        /* \"#utility.yul\":15126:15135   */\n      dup3\n        /* \"#utility.yul\":15122:15140   */\n      add\n        /* \"#utility.yul\":15114:15140   */\n      swap1\n      pop\n        /* \"#utility.yul\":15186:15195   */\n      dup2\n        /* \"#utility.yul\":15180:15184   */\n      dup2\n        /* \"#utility.yul\":15176:15196   */\n      sub\n        /* \"#utility.yul\":15172:15173   */\n      0x00\n        /* \"#utility.yul\":15161:15170   */\n      dup4\n        /* \"#utility.yul\":15157:15174   */\n      add\n        /* \"#utility.yul\":15150:15197   */\n      mstore\n        /* \"#utility.yul\":15214:15345   */\n      tag_369\n        /* \"#utility.yul\":15340:15344   */\n      dup2\n        /* \"#utility.yul\":15214:15345   */\n      tag_233\n      jump\t// in\n    tag_369:\n        /* \"#utility.yul\":15206:15345   */\n      swap1\n      pop\n        /* \"#utility.yul\":14933:15352   */\n      swap2\n      swap1\n      pop\n      jump\t// out\n        /* \"#utility.yul\":15358:15591   */\n    tag_184:\n        /* \"#utility.yul\":15397:15400   */\n      0x00\n        /* \"#utility.yul\":15420:15444   */\n      tag_371\n        /* \"#utility.yul\":15438:15443   */\n      dup3\n        /* \"#utility.yul\":15420:15444   */\n      tag_203\n      jump\t// in\n    tag_371:\n        /* \"#utility.yul\":15411:15444   */\n      swap2\n      pop\n        /* \"#utility.yul\":15466:15532   */\n      0xffffffffffffffffffffffffffffffffffffffffffffffffffffffffffffffff\n        /* \"#utility.yul\":15459:15464   */\n      dup3\n        /* \"#utility.yul\":15456:15533   */\n      sub\n        /* \"#utility.yul\":15453:15556   */\n      tag_372\n      jumpi\n        /* \"#utility.yul\":15536:15554   */\n      tag_373\n      tag_228\n      jump\t// in\n    tag_373:\n        /* \"#utility.yul\":15453:15556   */\n    tag_372:\n        /* \"#utility.yul\":15583:15584   */\n      0x01\n        /* \"#utility.yul\":15576:15581   */\n      dup3\n        /* \"#utility.yul\":15572:15585   */\n      add\n        /* \"#utility.yul\":15565:15585   */\n      swap1\n      pop\n        /* \"#utility.yul\":15358:15591   */\n      swap2\n      swap1\n      pop\n      jump\t// out\n        /* \"#utility.yul\":15597:15788   */\n    tag_186:\n        /* \"#utility.yul\":15637:15640   */\n      0x00\n        /* \"#utility.yul\":15656:15676   */\n      tag_375\n        /* \"#utility.yul\":15674:15675   */\n      dup3\n        /* \"#utility.yul\":15656:15676   */\n      tag_203\n      jump\t// in\n    tag_375:\n        /* \"#utility.yul\":15651:15676   */\n      swap2\n      pop\n        /* \"#utility.yul\":15690:15710   */\n      tag_376\n        /* \"#utility.yul\":15708:15709   */\n      dup4\n        /* \"#utility.yul\":15690:15710   */\n      tag_203\n      jump\t// in\n    tag_376:\n        /* \"#utility.yul\":15685:15710   */\n      swap3\n      pop\n        /* \"#utility.yul\":15733:15734   */\n      dup3\n        /* \"#utility.yul\":15730:15731   */\n      dup3\n        /* \"#utility.yul\":15726:15735   */\n      add\n        /* \"#utility.yul\":15719:15735   */\n      swap1\n      pop\n        /* \"#utility.yul\":15754:15757   */\n      dup1\n        /* \"#utility.yul\":15751:15752   */\n      dup3\n        /* \"#utility.yul\":15748:15758   */\n      gt\n        /* \"#utility.yul\":15745:15781   */\n      iszero\n      tag_377\n      jumpi\n        /* \"#utility.yul\":15761:15779   */\n      tag_378\n      tag_228\n      jump\t// in\n    tag_378:\n        /* \"#utility.yul\":15745:15781   */\n    tag_377:\n        /* \"#utility.yul\":15597:15788   */\n      swap3\n      swap2\n      pop\n      pop\n      jump\t// out\n        /* \"#utility.yul\":15794:16126   */\n    tag_189:\n        /* \"#utility.yul\":15915:15919   */\n      0x00\n        /* \"#utility.yul\":15953:15955   */\n      0x40\n        /* \"#utility.yul\":15942:15951   */\n      dup3\n        /* \"#utility.yul\":15938:15956   */\n      add\n        /* \"#utility.yul\":15930:15956   */\n      swap1\n      pop\n        /* \"#utility.yul\":15966:16037   */\n      tag_380\n        /* \"#utility.yul\":16034:16035   */\n      0x00\n        /* \"#utility.yul\":16023:16032   */\n      dup4\n        /* \"#utility.yul\":16019:16036   */\n      add\n        /* \"#utility.yul\":16010:16016   */\n      dup6\n        /* \"#utility.yul\":15966:16037   */\n      tag_211\n      jump\t// in\n    tag_380:\n        /* \"#utility.yul\":16047:16119   */\n      tag_381\n        /* \"#utility.yul\":16115:16117   */\n      0x20\n        /* \"#utility.yul\":16104:16113   */\n      dup4\n        /* \"#utility.yul\":16100:16118   */\n      add\n        /* \"#utility.yul\":16091:16097   */\n      dup5\n        /* \"#utility.yul\":16047:16119   */\n      tag_211\n      jump\t// in\n    tag_381:\n        /* \"#utility.yul\":15794:16126   */\n      swap4\n      swap3\n      pop\n      pop\n      pop\n      jump\t// out\n\n    auxdata: 0xa2646970667358221220bdd85ac08530dc514c84b84788a03ac764ac477e74ee168c6bce3c314bbcd8d164736f6c634300081f0033\n}\n",
				"bytecode": {
					"linkReferences": {},
					"object": "6101006040525f5f5f6101000a81548160ff021916908360038111156100285761002761015f565b5b0217905550662386f26fc1000060e090815250348015610046575f5ffd5b50604051611b58380380611b58833981810160405281019061006891906101c3565b5f82116100aa576040517f08c379a00000000000000000000000000000000000000000000000000000000081526004016100a19061025b565b60405180910390fd5b600181101580156100bc5750605a8111155b6100fb576040517f08c379a00000000000000000000000000000000000000000000000000000000081526004016100f2906102c3565b60405180910390fd5b3373ffffffffffffffffffffffffffffffffffffffff1660808173ffffffffffffffffffffffffffffffffffffffff16815250508160a081815250506201518081610146919061030e565b42610151919061034f565b60c081815250505050610382565b7f4e487b71000000000000000000000000000000000000000000000000000000005f52602160045260245ffd5b5f5ffd5b5f819050919050565b6101a281610190565b81146101ac575f5ffd5b50565b5f815190506101bd81610199565b92915050565b5f5f604083850312156101d9576101d861018c565b5b5f6101e6858286016101af565b92505060206101f7858286016101af565b9150509250929050565b5f82825260208201905092915050565b7f476f616c206d75737420626520706f73697469766500000000000000000000005f82015250565b5f610245601583610201565b915061025082610211565b602082019050919050565b5f6020820190508181035f83015261027281610239565b9050919050565b7f4475726174696f6e3a20312d39302064617973000000000000000000000000005f82015250565b5f6102ad601383610201565b91506102b882610279565b602082019050919050565b5f6020820190508181035f8301526102da816102a1565b9050919050565b7f4e487b71000000000000000000000000000000000000000000000000000000005f52601160045260245ffd5b5f61031882610190565b915061032383610190565b925082820261033181610190565b91508282048414831517610348576103476102e1565b5b5092915050565b5f61035982610190565b915061036483610190565b925082820190508082111561037c5761037b6102e1565b5b92915050565b60805160a05160c05160e0516117416104175f395f8181610b200152610ca901525f81816103d90152818161053901528181610a5d01528181610a8601528181610ae601528181610b840152610c4601525f818161044d01528181610ac201528181610b4501528181610ba80152610e8501525f8181610563015281816106940152818161075b0152610f2901526117415ff3fe6080604052600436106100f2575f3560e01c80638d0bba0311610089578063ad044f4911610058578063ad044f49146102db578063d7bb99ba14610305578063e4fbb6091461030f578063ecfd892814610339576100f2565b80638d0bba0314610233578063939c44561461025d578063a082c86e14610287578063a1bed0be146102b1576100f2565b80633cb5d100116100c55780633cb5d1001461017657806342e94c90146101b2578063590e1ae3146101ee5780635a9b0b8914610204576100f2565b806301cb3b20146100f65780630c3f6acf1461010c57806322f3e2d41461013657806324600fc314610160575b5f5ffd5b348015610101575f5ffd5b5061010a610363565b005b348015610117575f5ffd5b506101206104ea565b60405161012d9190610fc4565b60405180910390f35b348015610141575f5ffd5b5061014a6104fb565b6040516101579190610ff7565b60405180910390f35b34801561016b575f5ffd5b50610174610561565b005b348015610181575f5ffd5b5061019c60048036038101906101979190611047565b6107cc565b6040516101a991906110b1565b60405180910390f35b3480156101bd575f5ffd5b506101d860048036038101906101d391906110f4565b610807565b6040516101e5919061112e565b60405180910390f35b3480156101f9575f5ffd5b5061020261081c565b005b34801561020f575f5ffd5b50610218610a51565b60405161022a96959493929190611147565b60405180910390f35b34801561023e575f5ffd5b50610247610b1e565b604051610254919061112e565b60405180910390f35b348015610268575f5ffd5b50610271610b42565b60405161027e919061112e565b60405180910390f35b348015610292575f5ffd5b5061029b610b82565b6040516102a8919061112e565b60405180910390f35b3480156102bc575f5ffd5b506102c5610ba6565b6040516102d2919061112e565b60405180910390f35b3480156102e6575f5ffd5b506102ef610bca565b6040516102fc919061112e565b60405180910390f35b61030d610bd0565b005b34801561031a575f5ffd5b50610323610f27565b60405161033091906110b1565b60405180910390f35b348015610344575f5ffd5b5061034d610f4b565b60405161035a919061112e565b60405180910390f35b5f80600381111561037757610376610f51565b5b5f5f9054906101000a900460ff16600381111561039757610396610f51565b5b146103d7576040517f08c379a00000000000000000000000000000000000000000000000000000000081526004016103ce90611200565b60405180910390fd5b7f00000000000000000000000000000000000000000000000000000000000000004211610439576040517f08c379a000000000000000000000000000000000000000000000000000000000815260040161043090611268565b60405180910390fd5b5f5f5f9054906101000a900460ff1690505f7f00000000000000000000000000000000000000000000000000000000000000006001541061047d5760019050610482565b600290505b805f5f6101000a81548160ff021916908360038111156104a5576104a4610f51565b5b02179055507f6248a7c8a8dfdcb56514416ad7ed5cf43c516b01ebe5ec4716e35ea71e3ecf648282426040516104dd93929190611286565b60405180910390a1505050565b5f5f9054906101000a900460ff1681565b5f5f600381111561050f5761050e610f51565b5b5f5f9054906101000a900460ff16600381111561052f5761052e610f51565b5b14801561055c57507f00000000000000000000000000000000000000000000000000000000000000004211155b905090565b7f000000000000000000000000000000000000000000000000000000000000000073ffffffffffffffffffffffffffffffffffffffff163373ffffffffffffffffffffffffffffffffffffffff16146105ef576040517f08c379a00000000000000000000000000000000000000000000000000000000081526004016105e690611305565b60405180910390fd5b600180600381111561060457610603610f51565b5b5f5f9054906101000a900460ff16600381111561062457610623610f51565b5b14610664576040517f08c379a000000000000000000000000000000000000000000000000000000000815260040161065b90611200565b60405180910390fd5b60035f5f6101000a81548160ff0219169083600381111561068857610687610f51565b5b02179055505f4790505f7f000000000000000000000000000000000000000000000000000000000000000073ffffffffffffffffffffffffffffffffffffffff16826040516106d690611350565b5f6040518083038185875af1925050503d805f8114610710576040519150601f19603f3d011682016040523d82523d5f602084013e610715565b606091505b5050905080610759576040517f08c379a0000000000000000000000000000000000000000000000000000000008152600401610750906113ae565b60405180910390fd5b7f000000000000000000000000000000000000000000000000000000000000000073ffffffffffffffffffffffffffffffffffffffff167feaff4b37086828766ad3268786972c0cd24259d4c87a80f9d3963a3c3d999b0d836040516107bf919061112e565b60405180910390a2505050565b600481815481106107db575f80fd5b905f5260205f20015f915054906101000a900473ffffffffffffffffffffffffffffffffffffffff1681565b6003602052805f5260405f205f915090505481565b600280600381111561083157610830610f51565b5b5f5f9054906101000a900460ff16600381111561085157610850610f51565b5b14610891576040517f08c379a000000000000000000000000000000000000000000000000000000000815260040161088890611200565b60405180910390fd5b5f60035f3373ffffffffffffffffffffffffffffffffffffffff1673ffffffffffffffffffffffffffffffffffffffff1681526020019081526020015f205490505f8111610914576040517f08c379a000000000000000000000000000000000000000000000000000000000815260040161090b90611416565b60405180910390fd5b5f60035f3373ffffffffffffffffffffffffffffffffffffffff1673ffffffffffffffffffffffffffffffffffffffff1681526020019081526020015f20819055505f3373ffffffffffffffffffffffffffffffffffffffff168260405161097b90611350565b5f6040518083038185875af1925050503d805f81146109b5576040519150601f19603f3d011682016040523d82523d5f602084013e6109ba565b606091505b50509050806109fe576040517f08c379a00000000000000000000000000000000000000000000000000000000081526004016109f59061147e565b60405180910390fd5b3373ffffffffffffffffffffffffffffffffffffffff167fd7dee2702d63ad89917b6a4da9981c90c4d24f8c2bdfd64c604ecae57d8d065183604051610a44919061112e565b60405180910390a2505050565b5f5f5f5f5f5f5f5f90507f0000000000000000000000000000000000000000000000000000000000000000421015610ab257427f0000000000000000000000000000000000000000000000000000000000000000610aaf91906114c9565b90505b5f5f9054906101000a900460ff167f00000000000000000000000000000000000000000000000000000000000000006001547f00000000000000000000000000000000000000000000000000000000000000008460025496509650965096509650965050909192939495565b7f000000000000000000000000000000000000000000000000000000000000000081565b5f7f00000000000000000000000000000000000000000000000000000000000000006064600154610b7391906114fc565b610b7d919061156a565b905090565b7f000000000000000000000000000000000000000000000000000000000000000081565b7f000000000000000000000000000000000000000000000000000000000000000081565b60015481565b5f806003811115610be457610be3610f51565b5b5f5f9054906101000a900460ff166003811115610c0457610c03610f51565b5b14610c44576040517f08c379a0000000000000000000000000000000000000000000000000000000008152600401610c3b90611200565b60405180910390fd5b7f0000000000000000000000000000000000000000000000000000000000000000421115610ca7576040517f08c379a0000000000000000000000000000000000000000000000000000000008152600401610c9e906115e4565b60405180910390fd5b7f0000000000000000000000000000000000000000000000000000000000000000341015610d0a576040517f08c379a0000000000000000000000000000000000000000000000000000000008152600401610d019061164c565b60405180910390fd5b5f60035f3373ffffffffffffffffffffffffffffffffffffffff1673ffffffffffffffffffffffffffffffffffffffff1681526020019081526020015f205403610dc657600433908060018154018082558091505060019003905f5260205f20015f9091909190916101000a81548173ffffffffffffffffffffffffffffffffffffffff021916908373ffffffffffffffffffffffffffffffffffffffff16021790555060025f815480929190610dc09061166a565b91905055505b3460035f3373ffffffffffffffffffffffffffffffffffffffff1673ffffffffffffffffffffffffffffffffffffffff1681526020019081526020015f205f828254610e1291906116b1565b925050819055503460015f828254610e2a91906116b1565b925050819055503373ffffffffffffffffffffffffffffffffffffffff167f5f7675b09617d2c9fa4fd13058ee5877a9538f626b0308816736e83748a4504034600154604051610e7b9291906116e4565b60405180910390a27f000000000000000000000000000000000000000000000000000000000000000060015410610f24575f5f5f9054906101000a900460ff16905060015f5f6101000a81548160ff02191690836003811115610ee157610ee0610f51565b5b02179055507f6248a7c8a8dfdcb56514416ad7ed5cf43c516b01ebe5ec4716e35ea71e3ecf6481600142604051610f1a93929190611286565b60405180910390a1505b50565b7f000000000000000000000000000000000000000000000000000000000000000081565b60025481565b7f4e487b71000000000000000000000000000000000000000000000000000000005f52602160045260245ffd5b60048110610f8f57610f8e610f51565b5b50565b5f819050610f9f82610f7e565b919050565b5f610fae82610f92565b9050919050565b610fbe81610fa4565b82525050565b5f602082019050610fd75f830184610fb5565b92915050565b5f8115159050919050565b610ff181610fdd565b82525050565b5f60208201905061100a5f830184610fe8565b92915050565b5f5ffd5b5f819050919050565b61102681611014565b8114611030575f5ffd5b50565b5f813590506110418161101d565b92915050565b5f6020828403121561105c5761105b611010565b5b5f61106984828501611033565b91505092915050565b5f73ffffffffffffffffffffffffffffffffffffffff82169050919050565b5f61109b82611072565b9050919050565b6110ab81611091565b82525050565b5f6020820190506110c45f8301846110a2565b92915050565b6110d381611091565b81146110dd575f5ffd5b50565b5f813590506110ee816110ca565b92915050565b5f6020828403121561110957611108611010565b5b5f611116848285016110e0565b91505092915050565b61112881611014565b82525050565b5f6020820190506111415f83018461111f565b92915050565b5f60c08201905061115a5f830189610fb5565b611167602083018861111f565b611174604083018761111f565b611181606083018661111f565b61118e608083018561111f565b61119b60a083018461111f565b979650505050505050565b5f82825260208201905092915050565b7f496e76616c6964207374617465000000000000000000000000000000000000005f82015250565b5f6111ea600d836111a6565b91506111f5826111b6565b602082019050919050565b5f6020820190508181035f830152611217816111de565b9050919050565b7f5374696c6c2061637469766500000000000000000000000000000000000000005f82015250565b5f611252600c836111a6565b915061125d8261121e565b602082019050919050565b5f6020820190508181035f83015261127f81611246565b9050919050565b5f6060820190506112995f830186610fb5565b6112a66020830185610fb5565b6112b3604083018461111f565b949350505050565b7f4f6e6c792063726561746f7200000000000000000000000000000000000000005f82015250565b5f6112ef600c836111a6565b91506112fa826112bb565b602082019050919050565b5f6020820190508181035f83015261131c816112e3565b9050919050565b5f81905092915050565b50565b5f61133b5f83611323565b91506113468261132d565b5f82019050919050565b5f61135a82611330565b9150819050919050565b7f5472616e73666572206661696c656400000000000000000000000000000000005f82015250565b5f611398600f836111a6565b91506113a382611364565b602082019050919050565b5f6020820190508181035f8301526113c58161138c565b9050919050565b7f4e6f20636f6e747269627574696f6e00000000000000000000000000000000005f82015250565b5f611400600f836111a6565b915061140b826113cc565b602082019050919050565b5f6020820190508181035f83015261142d816113f4565b9050919050565b7f526566756e64206661696c6564000000000000000000000000000000000000005f82015250565b5f611468600d836111a6565b915061147382611434565b602082019050919050565b5f6020820190508181035f8301526114958161145c565b9050919050565b7f4e487b71000000000000000000000000000000000000000000000000000000005f52601160045260245ffd5b5f6114d382611014565b91506114de83611014565b92508282039050818111156114f6576114f561149c565b5b92915050565b5f61150682611014565b915061151183611014565b925082820261151f81611014565b915082820484148315176115365761153561149c565b5b5092915050565b7f4e487b71000000000000000000000000000000000000000000000000000000005f52601260045260245ffd5b5f61157482611014565b915061157f83611014565b92508261158f5761158e61153d565b5b828204905092915050565b7f46756e6472616973696e6720656e6465640000000000000000000000000000005f82015250565b5f6115ce6011836111a6565b91506115d98261159a565b602082019050919050565b5f6020820190508181035f8301526115fb816115c2565b9050919050565b7f42656c6f77206d696e696d756d000000000000000000000000000000000000005f82015250565b5f611636600d836111a6565b915061164182611602565b602082019050919050565b5f6020820190508181035f8301526116638161162a565b9050919050565b5f61167482611014565b91507fffffffffffffffffffffffffffffffffffffffffffffffffffffffffffffffff82036116a6576116a561149c565b5b600182019050919050565b5f6116bb82611014565b91506116c683611014565b92508282019050808211156116de576116dd61149c565b5b92915050565b5f6040820190506116f75f83018561111f565b611704602083018461111f565b939250505056fea2646970667358221220bdd85ac08530dc514c84b84788a03ac764ac477e74ee168c6bce3c314bbcd8d164736f6c634300081f0033",
					"opcodes": "PUSH2 0x100 PUSH1 0x40 MSTORE PUSH0 PUSH0 PUSH0 PUSH2 0x100 EXP DUP2 SLOAD DUP2 PUSH1 0xFF MUL NOT AND SWAP1 DUP4 PUSH1 0x3 DUP2 GT ISZERO PUSH2 0x28 JUMPI PUSH2 0x27 PUSH2 0x15F JUMP JUMPDEST JUMPDEST MUL OR SWAP1 SSTORE POP PUSH7 0x2386F26FC10000 PUSH1 0xE0 SWAP1 DUP2 MSTORE POP CALLVALUE DUP1 ISZERO PUSH2 0x46 JUMPI PUSH0 PUSH0 REVERT JUMPDEST POP PUSH1 0x40 MLOAD PUSH2 0x1B58 CODESIZE SUB DUP1 PUSH2 0x1B58 DUP4 CODECOPY DUP2 DUP2 ADD PUSH1 0x40 MSTORE DUP2 ADD SWAP1 PUSH2 0x68 SWAP2 SWAP1 PUSH2 0x1C3 JUMP JUMPDEST PUSH0 DUP3 GT PUSH2 0xAA JUMPI PUSH1 0x40 MLOAD PUSH32 0x8C379A000000000000000000000000000000000000000000000000000000000 DUP2 MSTORE PUSH1 0x4 ADD PUSH2 0xA1 SWAP1 PUSH2 0x25B JUMP JUMPDEST PUSH1 0x40 MLOAD DUP1 SWAP2 SUB SWAP1 REVERT JUMPDEST PUSH1 0x1 DUP2 LT ISZERO DUP1 ISZERO PUSH2 0xBC JUMPI POP PUSH1 0x5A DUP2 GT ISZERO JUMPDEST PUSH2 0xFB JUMPI PUSH1 0x40 MLOAD PUSH32 0x8C379A000000000000000000000000000000000000000000000000000000000 DUP2 MSTORE PUSH1 0x4 ADD PUSH2 0xF2 SWAP1 PUSH2 0x2C3 JUMP JUMPDEST PUSH1 0x40 MLOAD DUP1 SWAP2 SUB SWAP1 REVERT JUMPDEST CALLER PUSH20 0xFFFFFFFFFFFFFFFFFFFFFFFFFFFFFFFFFFFFFFFF AND PUSH1 0x80 DUP2 PUSH20 0xFFFFFFFFFFFFFFFFFFFFFFFFFFFFFFFFFFFFFFFF AND DUP2 MSTORE POP POP DUP2 PUSH1 0xA0 DUP2 DUP2 MSTORE POP POP PUSH3 0x15180 DUP2 PUSH2 0x146 SWAP2 SWAP1 PUSH2 0x30E JUMP JUMPDEST TIMESTAMP PUSH2 0x151 SWAP2 SWAP1 PUSH2 0x34F JUMP JUMPDEST PUSH1 0xC0 DUP2 DUP2 MSTORE POP POP POP POP PUSH2 0x382 JUMP JUMPDEST PUSH32 0x4E487B7100000000000000000000000000000000000000000000000000000000 PUSH0 MSTORE PUSH1 0x21 PUSH1 0x4 MSTORE PUSH1 0x24 PUSH0 REVERT JUMPDEST PUSH0 PUSH0 REVERT JUMPDEST PUSH0 DUP2 SWAP1 POP SWAP2 SWAP1 POP JUMP JUMPDEST PUSH2 0x1A2 DUP2 PUSH2 0x190 JUMP JUMPDEST DUP2 EQ PUSH2 0x1AC JUMPI PUSH0 PUSH0 REVERT JUMPDEST POP JUMP JUMPDEST PUSH0 DUP2 MLOAD SWAP1 POP PUSH2 0x1BD DUP2 PUSH2 0x199 JUMP JUMPDEST SWAP3 SWAP2 POP POP JUMP JUMPDEST PUSH0 PUSH0 PUSH1 0x40 DUP4 DUP6 SUB SLT ISZERO PUSH2 0x1D9 JUMPI PUSH2 0x1D8 PUSH2 0x18C JUMP JUMPDEST JUMPDEST PUSH0 PUSH2 0x1E6 DUP6 DUP3 DUP7 ADD PUSH2 0x1AF JUMP JUMPDEST SWAP3 POP POP PUSH1 0x20 PUSH2 0x1F7 DUP6 DUP3 DUP7 ADD PUSH2 0x1AF JUMP JUMPDEST SWAP2 POP POP SWAP3 POP SWAP3 SWAP1 POP JUMP JUMPDEST PUSH0 DUP3 DUP3 MSTORE PUSH1 0x20 DUP3 ADD SWAP1 POP SWAP3 SWAP2 POP POP JUMP JUMPDEST PUSH32 0x476F616C206D75737420626520706F7369746976650000000000000000000000 PUSH0 DUP3 ADD MSTORE POP JUMP JUMPDEST PUSH0 PUSH2 0x245 PUSH1 0x15 DUP4 PUSH2 0x201 JUMP JUMPDEST SWAP2 POP PUSH2 0x250 DUP3 PUSH2 0x211 JUMP JUMPDEST PUSH1 0x20 DUP3 ADD SWAP1 POP SWAP2 SWAP1 POP JUMP JUMPDEST PUSH0 PUSH1 0x20 DUP3 ADD SWAP1 POP DUP2 DUP2 SUB PUSH0 DUP4 ADD MSTORE PUSH2 0x272 DUP2 PUSH2 0x239 JUMP JUMPDEST SWAP1 POP SWAP2 SWAP1 POP JUMP JUMPDEST PUSH32 0x4475726174696F6E3A20312D3930206461797300000000000000000000000000 PUSH0 DUP3 ADD MSTORE POP JUMP JUMPDEST PUSH0 PUSH2 0x2AD PUSH1 0x13 DUP4 PUSH2 0x201 JUMP JUMPDEST SWAP2 POP PUSH2 0x2B8 DUP3 PUSH2 0x279 JUMP JUMPDEST PUSH1 0x20 DUP3 ADD SWAP1 POP SWAP2 SWAP1 POP JUMP JUMPDEST PUSH0 PUSH1 0x20 DUP3 ADD SWAP1 POP DUP2 DUP2 SUB PUSH0 DUP4 ADD MSTORE PUSH2 0x2DA DUP2 PUSH2 0x2A1 JUMP JUMPDEST SWAP1 POP SWAP2 SWAP1 POP JUMP JUMPDEST PUSH32 0x4E487B7100000000000000000000000000000000000000000000000000000000 PUSH0 MSTORE PUSH1 0x11 PUSH1 0x4 MSTORE PUSH1 0x24 PUSH0 REVERT JUMPDEST PUSH0 PUSH2 0x318 DUP3 PUSH2 0x190 JUMP JUMPDEST SWAP2 POP PUSH2 0x323 DUP4 PUSH2 0x190 JUMP JUMPDEST SWAP3 POP DUP3 DUP3 MUL PUSH2 0x331 DUP2 PUSH2 0x190 JUMP JUMPDEST SWAP2 POP DUP3 DUP3 DIV DUP5 EQ DUP4 ISZERO OR PUSH2 0x348 JUMPI PUSH2 0x347 PUSH2 0x2E1 JUMP JUMPDEST JUMPDEST POP SWAP3 SWAP2 POP POP JUMP JUMPDEST PUSH0 PUSH2 0x359 DUP3 PUSH2 0x190 JUMP JUMPDEST SWAP2 POP PUSH2 0x364 DUP4 PUSH2 0x190 JUMP JUMPDEST SWAP3 POP DUP3 DUP3 ADD SWAP1 POP DUP1 DUP3 GT ISZERO PUSH2 0x37C JUMPI PUSH2 0x37B PUSH2 0x2E1 JUMP JUMPDEST JUMPDEST SWAP3 SWAP2 POP POP JUMP JUMPDEST PUSH1 0x80 MLOAD PUSH1 0xA0 MLOAD PUSH1 0xC0 MLOAD PUSH1 0xE0 MLOAD PUSH2 0x1741 PUSH2 0x417 PUSH0 CODECOPY PUSH0 DUP2 DUP2 PUSH2 0xB20 ADD MSTORE PUSH2 0xCA9 ADD MSTORE PUSH0 DUP2 DUP2 PUSH2 0x3D9 ADD MSTORE DUP2 DUP2 PUSH2 0x539 ADD MSTORE DUP2 DUP2 PUSH2 0xA5D ADD MSTORE DUP2 DUP2 PUSH2 0xA86 ADD MSTORE DUP2 DUP2 PUSH2 0xAE6 ADD MSTORE DUP2 DUP2 PUSH2 0xB84 ADD MSTORE PUSH2 0xC46 ADD MSTORE PUSH0 DUP2 DUP2 PUSH2 0x44D ADD MSTORE DUP2 DUP2 PUSH2 0xAC2 ADD MSTORE DUP2 DUP2 PUSH2 0xB45 ADD MSTORE DUP2 DUP2 PUSH2 0xBA8 ADD MSTORE PUSH2 0xE85 ADD MSTORE PUSH0 DUP2 DUP2 PUSH2 0x563 ADD MSTORE DUP2 DUP2 PUSH2 0x694 ADD MSTORE DUP2 DUP2 PUSH2 0x75B ADD MSTORE PUSH2 0xF29 ADD MSTORE PUSH2 0x1741 PUSH0 RETURN INVALID PUSH1 0x80 PUSH1 0x40 MSTORE PUSH1 0x4 CALLDATASIZE LT PUSH2 0xF2 JUMPI PUSH0 CALLDATALOAD PUSH1 0xE0 SHR DUP1 PUSH4 0x8D0BBA03 GT PUSH2 0x89 JUMPI DUP1 PUSH4 0xAD044F49 GT PUSH2 0x58 JUMPI DUP1 PUSH4 0xAD044F49 EQ PUSH2 0x2DB JUMPI DUP1 PUSH4 0xD7BB99BA EQ PUSH2 0x305 JUMPI DUP1 PUSH4 0xE4FBB609 EQ PUSH2 0x30F JUMPI DUP1 PUSH4 0xECFD8928 EQ PUSH2 0x339 JUMPI PUSH2 0xF2 JUMP JUMPDEST DUP1 PUSH4 0x8D0BBA03 EQ PUSH2 0x233 JUMPI DUP1 PUSH4 0x939C4456 EQ PUSH2 0x25D JUMPI DUP1 PUSH4 0xA082C86E EQ PUSH2 0x287 JUMPI DUP1 PUSH4 0xA1BED0BE EQ PUSH2 0x2B1 JUMPI PUSH2 0xF2 JUMP JUMPDEST DUP1 PUSH4 0x3CB5D100 GT PUSH2 0xC5 JUMPI DUP1 PUSH4 0x3CB5D100 EQ PUSH2 0x176 JUMPI DUP1 PUSH4 0x42E94C90 EQ PUSH2 0x1B2 JUMPI DUP1 PUSH4 0x590E1AE3 EQ PUSH2 0x1EE JUMPI DUP1 PUSH4 0x5A9B0B89 EQ PUSH2 0x204 JUMPI PUSH2 0xF2 JUMP JUMPDEST DUP1 PUSH4 0x1CB3B20 EQ PUSH2 0xF6 JUMPI DUP1 PUSH4 0xC3F6ACF EQ PUSH2 0x10C JUMPI DUP1 PUSH4 0x22F3E2D4 EQ PUSH2 0x136 JUMPI DUP1 PUSH4 0x24600FC3 EQ PUSH2 0x160 JUMPI JUMPDEST PUSH0 PUSH0 REVERT JUMPDEST CALLVALUE DUP1 ISZERO PUSH2 0x101 JUMPI PUSH0 PUSH0 REVERT JUMPDEST POP PUSH2 0x10A PUSH2 0x363 JUMP JUMPDEST STOP JUMPDEST CALLVALUE DUP1 ISZERO PUSH2 0x117 JUMPI PUSH0 PUSH0 REVERT JUMPDEST POP PUSH2 0x120 PUSH2 0x4EA JUMP JUMPDEST PUSH1 0x40 MLOAD PUSH2 0x12D SWAP2 SWAP1 PUSH2 0xFC4 JUMP JUMPDEST PUSH1 0x40 MLOAD DUP1 SWAP2 SUB SWAP1 RETURN JUMPDEST CALLVALUE DUP1 ISZERO PUSH2 0x141 JUMPI PUSH0 PUSH0 REVERT JUMPDEST POP PUSH2 0x14A PUSH2 0x4FB JUMP JUMPDEST PUSH1 0x40 MLOAD PUSH2 0x157 SWAP2 SWAP1 PUSH2 0xFF7 JUMP JUMPDEST PUSH1 0x40 MLOAD DUP1 SWAP2 SUB SWAP1 RETURN JUMPDEST CALLVALUE DUP1 ISZERO PUSH2 0x16B JUMPI PUSH0 PUSH0 REVERT JUMPDEST POP PUSH2 0x174 PUSH2 0x561 JUMP JUMPDEST STOP JUMPDEST CALLVALUE DUP1 ISZERO PUSH2 0x181 JUMPI PUSH0 PUSH0 REVERT JUMPDEST POP PUSH2 0x19C PUSH1 0x4 DUP1 CALLDATASIZE SUB DUP2 ADD SWAP1 PUSH2 0x197 SWAP2 SWAP1 PUSH2 0x1047 JUMP JUMPDEST PUSH2 0x7CC JUMP JUMPDEST PUSH1 0x40 MLOAD PUSH2 0x1A9 SWAP2 SWAP1 PUSH2 0x10B1 JUMP JUMPDEST PUSH1 0x40 MLOAD DUP1 SWAP2 SUB SWAP1 RETURN JUMPDEST CALLVALUE DUP1 ISZERO PUSH2 0x1BD JUMPI PUSH0 PUSH0 REVERT JUMPDEST POP PUSH2 0x1D8 PUSH1 0x4 DUP1 CALLDATASIZE SUB DUP2 ADD SWAP1 PUSH2 0x1D3 SWAP2 SWAP1 PUSH2 0x10F4 JUMP JUMPDEST PUSH2 0x807 JUMP JUMPDEST PUSH1 0x40 MLOAD PUSH2 0x1E5 SWAP2 SWAP1 PUSH2 0x112E JUMP JUMPDEST PUSH1 0x40 MLOAD DUP1 SWAP2 SUB SWAP1 RETURN JUMPDEST CALLVALUE DUP1 ISZERO PUSH2 0x1F9 JUMPI PUSH0 PUSH0 REVERT JUMPDEST POP PUSH2 0x202 PUSH2 0x81C JUMP JUMPDEST STOP JUMPDEST CALLVALUE DUP1 ISZERO PUSH2 0x20F JUMPI PUSH0 PUSH0 REVERT JUMPDEST POP PUSH2 0x218 PUSH2 0xA51 JUMP JUMPDEST PUSH1 0x40 MLOAD PUSH2 0x22A SWAP7 SWAP6 SWAP5 SWAP4 SWAP3 SWAP2 SWAP1 PUSH2 0x1147 JUMP JUMPDEST PUSH1 0x40 MLOAD DUP1 SWAP2 SUB SWAP1 RETURN JUMPDEST CALLVALUE DUP1 ISZERO PUSH2 0x23E JUMPI PUSH0 PUSH0 REVERT JUMPDEST POP PUSH2 0x247 PUSH2 0xB1E JUMP JUMPDEST PUSH1 0x40 MLOAD PUSH2 0x254 SWAP2 SWAP1 PUSH2 0x112E JUMP JUMPDEST PUSH1 0x40 MLOAD DUP1 SWAP2 SUB SWAP1 RETURN JUMPDEST CALLVALUE DUP1 ISZERO PUSH2 0x268 JUMPI PUSH0 PUSH0 REVERT JUMPDEST POP PUSH2 0x271 PUSH2 0xB42 JUMP JUMPDEST PUSH1 0x40 MLOAD PUSH2 0x27E SWAP2 SWAP1 PUSH2 0x112E JUMP JUMPDEST PUSH1 0x40 MLOAD DUP1 SWAP2 SUB SWAP1 RETURN JUMPDEST CALLVALUE DUP1 ISZERO PUSH2 0x292 JUMPI PUSH0 PUSH0 REVERT JUMPDEST POP PUSH2 0x29B PUSH2 0xB82 JUMP JUMPDEST PUSH1 0x40 MLOAD PUSH2 0x2A8 SWAP2 SWAP1 PUSH2 0x112E JUMP JUMPDEST PUSH1 0x40 MLOAD DUP1 SWAP2 SUB SWAP1 RETURN JUMPDEST CALLVALUE DUP1 ISZERO PUSH2 0x2BC JUMPI PUSH0 PUSH0 REVERT JUMPDEST POP PUSH2 0x2C5 PUSH2 0xBA6 JUMP JUMPDEST PUSH1 0x40 MLOAD PUSH2 0x2D2 SWAP2 SWAP1 PUSH2 0x112E JUMP JUMPDEST PUSH1 0x40 MLOAD DUP1 SWAP2 SUB SWAP1 RETURN JUMPDEST CALLVALUE DUP1 ISZERO PUSH2 0x2E6 JUMPI PUSH0 PUSH0 REVERT JUMPDEST POP PUSH2 0x2EF PUSH2 0xBCA JUMP JUMPDEST PUSH1 0x40 MLOAD PUSH2 0x2FC SWAP2 SWAP1 PUSH2 0x112E JUMP JUMPDEST PUSH1 0x40 MLOAD DUP1 SWAP2 SUB SWAP1 RETURN JUMPDEST PUSH2 0x30D PUSH2 0xBD0 JUMP JUMPDEST STOP JUMPDEST CALLVALUE DUP1 ISZERO PUSH2 0x31A JUMPI PUSH0 PUSH0 REVERT JUMPDEST POP PUSH2 0x323 PUSH2 0xF27 JUMP JUMPDEST PUSH1 0x40 MLOAD PUSH2 0x330 SWAP2 SWAP1 PUSH2 0x10B1 JUMP JUMPDEST PUSH1 0x40 MLOAD DUP1 SWAP2 SUB SWAP1 RETURN JUMPDEST CALLVALUE DUP1 ISZERO PUSH2 0x344 JUMPI PUSH0 PUSH0 REVERT JUMPDEST POP PUSH2 0x34D PUSH2 0xF4B JUMP JUMPDEST PUSH1 0x40 MLOAD PUSH2 0x35A SWAP2 SWAP1 PUSH2 0x112E JUMP JUMPDEST PUSH1 0x40 MLOAD DUP1 SWAP2 SUB SWAP1 RETURN JUMPDEST PUSH0 DUP1 PUSH1 0x3 DUP2 GT ISZERO PUSH2 0x377 JUMPI PUSH2 0x376 PUSH2 0xF51 JUMP JUMPDEST JUMPDEST PUSH0 PUSH0 SWAP1 SLOAD SWAP1 PUSH2 0x100 EXP SWAP1 DIV PUSH1 0xFF AND PUSH1 0x3 DUP2 GT ISZERO PUSH2 0x397 JUMPI PUSH2 0x396 PUSH2 0xF51 JUMP JUMPDEST JUMPDEST EQ PUSH2 0x3D7 JUMPI PUSH1 0x40 MLOAD PUSH32 0x8C379A000000000000000000000000000000000000000000000000000000000 DUP2 MSTORE PUSH1 0x4 ADD PUSH2 0x3CE SWAP1 PUSH2 0x1200 JUMP JUMPDEST PUSH1 0x40 MLOAD DUP1 SWAP2 SUB SWAP1 REVERT JUMPDEST PUSH32 0x0 TIMESTAMP GT PUSH2 0x439 JUMPI PUSH1 0x40 MLOAD PUSH32 0x8C379A000000000000000000000000000000000000000000000000000000000 DUP2 MSTORE PUSH1 0x4 ADD PUSH2 0x430 SWAP1 PUSH2 0x1268 JUMP JUMPDEST PUSH1 0x40 MLOAD DUP1 SWAP2 SUB SWAP1 REVERT JUMPDEST PUSH0 PUSH0 PUSH0 SWAP1 SLOAD SWAP1 PUSH2 0x100 EXP SWAP1 DIV PUSH1 0xFF AND SWAP1 POP PUSH0 PUSH32 0x0 PUSH1 0x1 SLOAD LT PUSH2 0x47D JUMPI PUSH1 0x1 SWAP1 POP PUSH2 0x482 JUMP JUMPDEST PUSH1 0x2 SWAP1 POP JUMPDEST DUP1 PUSH0 PUSH0 PUSH2 0x100 EXP DUP2 SLOAD DUP2 PUSH1 0xFF MUL NOT AND SWAP1 DUP4 PUSH1 0x3 DUP2 GT ISZERO PUSH2 0x4A5 JUMPI PUSH2 0x4A4 PUSH2 0xF51 JUMP JUMPDEST JUMPDEST MUL OR SWAP1 SSTORE POP PUSH32 0x6248A7C8A8DFDCB56514416AD7ED5CF43C516B01EBE5EC4716E35EA71E3ECF64 DUP3 DUP3 TIMESTAMP PUSH1 0x40 MLOAD PUSH2 0x4DD SWAP4 SWAP3 SWAP2 SWAP1 PUSH2 0x1286 JUMP JUMPDEST PUSH1 0x40 MLOAD DUP1 SWAP2 SUB SWAP1 LOG1 POP POP POP JUMP JUMPDEST PUSH0 PUSH0 SWAP1 SLOAD SWAP1 PUSH2 0x100 EXP SWAP1 DIV PUSH1 0xFF AND DUP2 JUMP JUMPDEST PUSH0 PUSH0 PUSH1 0x3 DUP2 GT ISZERO PUSH2 0x50F JUMPI PUSH2 0x50E PUSH2 0xF51 JUMP JUMPDEST JUMPDEST PUSH0 PUSH0 SWAP1 SLOAD SWAP1 PUSH2 0x100 EXP SWAP1 DIV PUSH1 0xFF AND PUSH1 0x3 DUP2 GT ISZERO PUSH2 0x52F JUMPI PUSH2 0x52E PUSH2 0xF51 JUMP JUMPDEST JUMPDEST EQ DUP1 ISZERO PUSH2 0x55C JUMPI POP PUSH32 0x0 TIMESTAMP GT ISZERO JUMPDEST SWAP1 POP SWAP1 JUMP JUMPDEST PUSH32 0x0 PUSH20 0xFFFFFFFFFFFFFFFFFFFFFFFFFFFFFFFFFFFFFFFF AND CALLER PUSH20 0xFFFFFFFFFFFFFFFFFFFFFFFFFFFFFFFFFFFFFFFF AND EQ PUSH2 0x5EF JUMPI PUSH1 0x40 MLOAD PUSH32 0x8C379A000000000000000000000000000000000000000000000000000000000 DUP2 MSTORE PUSH1 0x4 ADD PUSH2 0x5E6 SWAP1 PUSH2 0x1305 JUMP JUMPDEST PUSH1 0x40 MLOAD DUP1 SWAP2 SUB SWAP1 REVERT JUMPDEST PUSH1 0x1 DUP1 PUSH1 0x3 DUP2 GT ISZERO PUSH2 0x604 JUMPI PUSH2 0x603 PUSH2 0xF51 JUMP JUMPDEST JUMPDEST PUSH0 PUSH0 SWAP1 SLOAD SWAP1 PUSH2 0x100 EXP SWAP1 DIV PUSH1 0xFF AND PUSH1 0x3 DUP2 GT ISZERO PUSH2 0x624 JUMPI PUSH2 0x623 PUSH2 0xF51 JUMP JUMPDEST JUMPDEST EQ PUSH2 0x664 JUMPI PUSH1 0x40 MLOAD PUSH32 0x8C379A000000000000000000000000000000000000000000000000000000000 DUP2 MSTORE PUSH1 0x4 ADD PUSH2 0x65B SWAP1 PUSH2 0x1200 JUMP JUMPDEST PUSH1 0x40 MLOAD DUP1 SWAP2 SUB SWAP1 REVERT JUMPDEST PUSH1 0x3 PUSH0 PUSH0 PUSH2 0x100 EXP DUP2 SLOAD DUP2 PUSH1 0xFF MUL NOT AND SWAP1 DUP4 PUSH1 0x3 DUP2 GT ISZERO PUSH2 0x688 JUMPI PUSH2 0x687 PUSH2 0xF51 JUMP JUMPDEST JUMPDEST MUL OR SWAP1 SSTORE POP PUSH0 SELFBALANCE SWAP1 POP PUSH0 PUSH32 0x0 PUSH20 0xFFFFFFFFFFFFFFFFFFFFFFFFFFFFFFFFFFFFFFFF AND DUP3 PUSH1 0x40 MLOAD PUSH2 0x6D6 SWAP1 PUSH2 0x1350 JUMP JUMPDEST PUSH0 PUSH1 0x40 MLOAD DUP1 DUP4 SUB DUP2 DUP6 DUP8 GAS CALL SWAP3 POP POP POP RETURNDATASIZE DUP1 PUSH0 DUP2 EQ PUSH2 0x710 JUMPI PUSH1 0x40 MLOAD SWAP2 POP PUSH1 0x1F NOT PUSH1 0x3F RETURNDATASIZE ADD AND DUP3 ADD PUSH1 0x40 MSTORE RETURNDATASIZE DUP3 MSTORE RETURNDATASIZE PUSH0 PUSH1 0x20 DUP5 ADD RETURNDATACOPY PUSH2 0x715 JUMP JUMPDEST PUSH1 0x60 SWAP2 POP JUMPDEST POP POP SWAP1 POP DUP1 PUSH2 0x759 JUMPI PUSH1 0x40 MLOAD PUSH32 0x8C379A000000000000000000000000000000000000000000000000000000000 DUP2 MSTORE PUSH1 0x4 ADD PUSH2 0x750 SWAP1 PUSH2 0x13AE JUMP JUMPDEST PUSH1 0x40 MLOAD DUP1 SWAP2 SUB SWAP1 REVERT JUMPDEST PUSH32 0x0 PUSH20 0xFFFFFFFFFFFFFFFFFFFFFFFFFFFFFFFFFFFFFFFF AND PUSH32 0xEAFF4B37086828766AD3268786972C0CD24259D4C87A80F9D3963A3C3D999B0D DUP4 PUSH1 0x40 MLOAD PUSH2 0x7BF SWAP2 SWAP1 PUSH2 0x112E JUMP JUMPDEST PUSH1 0x40 MLOAD DUP1 SWAP2 SUB SWAP1 LOG2 POP POP POP JUMP JUMPDEST PUSH1 0x4 DUP2 DUP2 SLOAD DUP2 LT PUSH2 0x7DB JUMPI PUSH0 DUP1 REVERT JUMPDEST SWAP1 PUSH0 MSTORE PUSH1 0x20 PUSH0 KECCAK256 ADD PUSH0 SWAP2 POP SLOAD SWAP1 PUSH2 0x100 EXP SWAP1 DIV PUSH20 0xFFFFFFFFFFFFFFFFFFFFFFFFFFFFFFFFFFFFFFFF AND DUP2 JUMP JUMPDEST PUSH1 0x3 PUSH1 0x20 MSTORE DUP1 PUSH0 MSTORE PUSH1 0x40 PUSH0 KECCAK256 PUSH0 SWAP2 POP SWAP1 POP SLOAD DUP2 JUMP JUMPDEST PUSH1 0x2 DUP1 PUSH1 0x3 DUP2 GT ISZERO PUSH2 0x831 JUMPI PUSH2 0x830 PUSH2 0xF51 JUMP JUMPDEST JUMPDEST PUSH0 PUSH0 SWAP1 SLOAD SWAP1 PUSH2 0x100 EXP SWAP1 DIV PUSH1 0xFF AND PUSH1 0x3 DUP2 GT ISZERO PUSH2 0x851 JUMPI PUSH2 0x850 PUSH2 0xF51 JUMP JUMPDEST JUMPDEST EQ PUSH2 0x891 JUMPI PUSH1 0x40 MLOAD PUSH32 0x8C379A000000000000000000000000000000000000000000000000000000000 DUP2 MSTORE PUSH1 0x4 ADD PUSH2 0x888 SWAP1 PUSH2 0x1200 JUMP JUMPDEST PUSH1 0x40 MLOAD DUP1 SWAP2 SUB SWAP1 REVERT JUMPDEST PUSH0 PUSH1 0x3 PUSH0 CALLER PUSH20 0xFFFFFFFFFFFFFFFFFFFFFFFFFFFFFFFFFFFFFFFF AND PUSH20 0xFFFFFFFFFFFFFFFFFFFFFFFFFFFFFFFFFFFFFFFF AND DUP2 MSTORE PUSH1 0x20 ADD SWAP1 DUP2 MSTORE PUSH1 0x20 ADD PUSH0 KECCAK256 SLOAD SWAP1 POP PUSH0 DUP2 GT PUSH2 0x914 JUMPI PUSH1 0x40 MLOAD PUSH32 0x8C379A000000000000000000000000000000000000000000000000000000000 DUP2 MSTORE PUSH1 0x4 ADD PUSH2 0x90B SWAP1 PUSH2 0x1416 JUMP JUMPDEST PUSH1 0x40 MLOAD DUP1 SWAP2 SUB SWAP1 REVERT JUMPDEST PUSH0 PUSH1 0x3 PUSH0 CALLER PUSH20 0xFFFFFFFFFFFFFFFFFFFFFFFFFFFFFFFFFFFFFFFF AND PUSH20 0xFFFFFFFFFFFFFFFFFFFFFFFFFFFFFFFFFFFFFFFF AND DUP2 MSTORE PUSH1 0x20 ADD SWAP1 DUP2 MSTORE PUSH1 0x20 ADD PUSH0 KECCAK256 DUP2 SWAP1 SSTORE POP PUSH0 CALLER PUSH20 0xFFFFFFFFFFFFFFFFFFFFFFFFFFFFFFFFFFFFFFFF AND DUP3 PUSH1 0x40 MLOAD PUSH2 0x97B SWAP1 PUSH2 0x1350 JUMP JUMPDEST PUSH0 PUSH1 0x40 MLOAD DUP1 DUP4 SUB DUP2 DUP6 DUP8 GAS CALL SWAP3 POP POP POP RETURNDATASIZE DUP1 PUSH0 DUP2 EQ PUSH2 0x9B5 JUMPI PUSH1 0x40 MLOAD SWAP2 POP PUSH1 0x1F NOT PUSH1 0x3F RETURNDATASIZE ADD AND DUP3 ADD PUSH1 0x40 MSTORE RETURNDATASIZE DUP3 MSTORE RETURNDATASIZE PUSH0 PUSH1 0x20 DUP5 ADD RETURNDATACOPY PUSH2 0x9BA JUMP JUMPDEST PUSH1 0x60 SWAP2 POP JUMPDEST POP POP SWAP1 POP DUP1 PUSH2 0x9FE JUMPI PUSH1 0x40 MLOAD PUSH32 0x8C379A000000000000000000000000000000000000000000000000000000000 DUP2 MSTORE PUSH1 0x4 ADD PUSH2 0x9F5 SWAP1 PUSH2 0x147E JUMP JUMPDEST PUSH1 0x40 MLOAD DUP1 SWAP2 SUB SWAP1 REVERT JUMPDEST CALLER PUSH20 0xFFFFFFFFFFFFFFFFFFFFFFFFFFFFFFFFFFFFFFFF AND PUSH32 0xD7DEE2702D63AD89917B6A4DA9981C90C4D24F8C2BDFD64C604ECAE57D8D0651 DUP4 PUSH1 0x40 MLOAD PUSH2 0xA44 SWAP2 SWAP1 PUSH2 0x112E JUMP JUMPDEST PUSH1 0x40 MLOAD DUP1 SWAP2 SUB SWAP1 LOG2 POP POP POP JUMP JUMPDEST PUSH0 PUSH0 PUSH0 PUSH0 PUSH0 PUSH0 PUSH0 PUSH0 SWAP1 POP PUSH32 0x0 TIMESTAMP LT ISZERO PUSH2 0xAB2 JUMPI TIMESTAMP PUSH32 0x0 PUSH2 0xAAF SWAP2 SWAP1 PUSH2 0x14C9 JUMP JUMPDEST SWAP1 POP JUMPDEST PUSH0 PUSH0 SWAP1 SLOAD SWAP1 PUSH2 0x100 EXP SWAP1 DIV PUSH1 0xFF AND PUSH32 0x0 PUSH1 0x1 SLOAD PUSH32 0x0 DUP5 PUSH1 0x2 SLOAD SWAP7 POP SWAP7 POP SWAP7 POP SWAP7 POP SWAP7 POP SWAP7 POP POP SWAP1 SWAP2 SWAP3 SWAP4 SWAP5 SWAP6 JUMP JUMPDEST PUSH32 0x0 DUP2 JUMP JUMPDEST PUSH0 PUSH32 0x0 PUSH1 0x64 PUSH1 0x1 SLOAD PUSH2 0xB73 SWAP2 SWAP1 PUSH2 0x14FC JUMP JUMPDEST PUSH2 0xB7D SWAP2 SWAP1 PUSH2 0x156A JUMP JUMPDEST SWAP1 POP SWAP1 JUMP JUMPDEST PUSH32 0x0 DUP2 JUMP JUMPDEST PUSH32 0x0 DUP2 JUMP JUMPDEST PUSH1 0x1 SLOAD DUP2 JUMP JUMPDEST PUSH0 DUP1 PUSH1 0x3 DUP2 GT ISZERO PUSH2 0xBE4 JUMPI PUSH2 0xBE3 PUSH2 0xF51 JUMP JUMPDEST JUMPDEST PUSH0 PUSH0 SWAP1 SLOAD SWAP1 PUSH2 0x100 EXP SWAP1 DIV PUSH1 0xFF AND PUSH1 0x3 DUP2 GT ISZERO PUSH2 0xC04 JUMPI PUSH2 0xC03 PUSH2 0xF51 JUMP JUMPDEST JUMPDEST EQ PUSH2 0xC44 JUMPI PUSH1 0x40 MLOAD PUSH32 0x8C379A000000000000000000000000000000000000000000000000000000000 DUP2 MSTORE PUSH1 0x4 ADD PUSH2 0xC3B SWAP1 PUSH2 0x1200 JUMP JUMPDEST PUSH1 0x40 MLOAD DUP1 SWAP2 SUB SWAP1 REVERT JUMPDEST PUSH32 0x0 TIMESTAMP GT ISZERO PUSH2 0xCA7 JUMPI PUSH1 0x40 MLOAD PUSH32 0x8C379A000000000000000000000000000000000000000000000000000000000 DUP2 MSTORE PUSH1 0x4 ADD PUSH2 0xC9E SWAP1 PUSH2 0x15E4 JUMP JUMPDEST PUSH1 0x40 MLOAD DUP1 SWAP2 SUB SWAP1 REVERT JUMPDEST PUSH32 0x0 CALLVALUE LT ISZERO PUSH2 0xD0A JUMPI PUSH1 0x40 MLOAD PUSH32 0x8C379A000000000000000000000000000000000000000000000000000000000 DUP2 MSTORE PUSH1 0x4 ADD PUSH2 0xD01 SWAP1 PUSH2 0x164C JUMP JUMPDEST PUSH1 0x40 MLOAD DUP1 SWAP2 SUB SWAP1 REVERT JUMPDEST PUSH0 PUSH1 0x3 PUSH0 CALLER PUSH20 0xFFFFFFFFFFFFFFFFFFFFFFFFFFFFFFFFFFFFFFFF AND PUSH20 0xFFFFFFFFFFFFFFFFFFFFFFFFFFFFFFFFFFFFFFFF AND DUP2 MSTORE PUSH1 0x20 ADD SWAP1 DUP2 MSTORE PUSH1 0x20 ADD PUSH0 KECCAK256 SLOAD SUB PUSH2 0xDC6 JUMPI PUSH1 0x4 CALLER SWAP1 DUP1 PUSH1 0x1 DUP2 SLOAD ADD DUP1 DUP3 SSTORE DUP1 SWAP2 POP POP PUSH1 0x1 SWAP1 SUB SWAP1 PUSH0 MSTORE PUSH1 0x20 PUSH0 KECCAK256 ADD PUSH0 SWAP1 SWAP2 SWAP1 SWAP2 SWAP1 SWAP2 PUSH2 0x100 EXP DUP2 SLOAD DUP2 PUSH20 0xFFFFFFFFFFFFFFFFFFFFFFFFFFFFFFFFFFFFFFFF MUL NOT AND SWAP1 DUP4 PUSH20 0xFFFFFFFFFFFFFFFFFFFFFFFFFFFFFFFFFFFFFFFF AND MUL OR SWAP1 SSTORE POP PUSH1 0x2 PUSH0 DUP2 SLOAD DUP1 SWAP3 SWAP2 SWAP1 PUSH2 0xDC0 SWAP1 PUSH2 0x166A JUMP JUMPDEST SWAP2 SWAP1 POP SSTORE POP JUMPDEST CALLVALUE PUSH1 0x3 PUSH0 CALLER PUSH20 0xFFFFFFFFFFFFFFFFFFFFFFFFFFFFFFFFFFFFFFFF AND PUSH20 0xFFFFFFFFFFFFFFFFFFFFFFFFFFFFFFFFFFFFFFFF AND DUP2 MSTORE PUSH1 0x20 ADD SWAP1 DUP2 MSTORE PUSH1 0x20 ADD PUSH0 KECCAK256 PUSH0 DUP3 DUP3 SLOAD PUSH2 0xE12 SWAP2 SWAP1 PUSH2 0x16B1 JUMP JUMPDEST SWAP3 POP POP DUP2 SWAP1 SSTORE POP CALLVALUE PUSH1 0x1 PUSH0 DUP3 DUP3 SLOAD PUSH2 0xE2A SWAP2 SWAP1 PUSH2 0x16B1 JUMP JUMPDEST SWAP3 POP POP DUP2 SWAP1 SSTORE POP CALLER PUSH20 0xFFFFFFFFFFFFFFFFFFFFFFFFFFFFFFFFFFFFFFFF AND PUSH32 0x5F7675B09617D2C9FA4FD13058EE5877A9538F626B0308816736E83748A45040 CALLVALUE PUSH1 0x1 SLOAD PUSH1 0x40 MLOAD PUSH2 0xE7B SWAP3 SWAP2 SWAP1 PUSH2 0x16E4 JUMP JUMPDEST PUSH1 0x40 MLOAD DUP1 SWAP2 SUB SWAP1 LOG2 PUSH32 0x0 PUSH1 0x1 SLOAD LT PUSH2 0xF24 JUMPI PUSH0 PUSH0 PUSH0 SWAP1 SLOAD SWAP1 PUSH2 0x100 EXP SWAP1 DIV PUSH1 0xFF AND SWAP1 POP PUSH1 0x1 PUSH0 PUSH0 PUSH2 0x100 EXP DUP2 SLOAD DUP2 PUSH1 0xFF MUL NOT AND SWAP1 DUP4 PUSH1 0x3 DUP2 GT ISZERO PUSH2 0xEE1 JUMPI PUSH2 0xEE0 PUSH2 0xF51 JUMP JUMPDEST JUMPDEST MUL OR SWAP1 SSTORE POP PUSH32 0x6248A7C8A8DFDCB56514416AD7ED5CF43C516B01EBE5EC4716E35EA71E3ECF64 DUP2 PUSH1 0x1 TIMESTAMP PUSH1 0x40 MLOAD PUSH2 0xF1A SWAP4 SWAP3 SWAP2 SWAP1 PUSH2 0x1286 JUMP JUMPDEST PUSH1 0x40 MLOAD DUP1 SWAP2 SUB SWAP1 LOG1 POP JUMPDEST POP JUMP JUMPDEST PUSH32 0x0 DUP2 JUMP JUMPDEST PUSH1 0x2 SLOAD DUP2 JUMP JUMPDEST PUSH32 0x4E487B7100000000000000000000000000000000000000000000000000000000 PUSH0 MSTORE PUSH1 0x21 PUSH1 0x4 MSTORE PUSH1 0x24 PUSH0 REVERT JUMPDEST PUSH1 0x4 DUP2 LT PUSH2 0xF8F JUMPI PUSH2 0xF8E PUSH2 0xF51 JUMP JUMPDEST JUMPDEST POP JUMP JUMPDEST PUSH0 DUP2 SWAP1 POP PUSH2 0xF9F DUP3 PUSH2 0xF7E JUMP JUMPDEST SWAP2 SWAP1 POP JUMP JUMPDEST PUSH0 PUSH2 0xFAE DUP3 PUSH2 0xF92 JUMP JUMPDEST SWAP1 POP SWAP2 SWAP1 POP JUMP JUMPDEST PUSH2 0xFBE DUP2 PUSH2 0xFA4 JUMP JUMPDEST DUP3 MSTORE POP POP JUMP JUMPDEST PUSH0 PUSH1 0x20 DUP3 ADD SWAP1 POP PUSH2 0xFD7 PUSH0 DUP4 ADD DUP5 PUSH2 0xFB5 JUMP JUMPDEST SWAP3 SWAP2 POP POP JUMP JUMPDEST PUSH0 DUP2 ISZERO ISZERO SWAP1 POP SWAP2 SWAP1 POP JUMP JUMPDEST PUSH2 0xFF1 DUP2 PUSH2 0xFDD JUMP JUMPDEST DUP3 MSTORE POP POP JUMP JUMPDEST PUSH0 PUSH1 0x20 DUP3 ADD SWAP1 POP PUSH2 0x100A PUSH0 DUP4 ADD DUP5 PUSH2 0xFE8 JUMP JUMPDEST SWAP3 SWAP2 POP POP JUMP JUMPDEST PUSH0 PUSH0 REVERT JUMPDEST PUSH0 DUP2 SWAP1 POP SWAP2 SWAP1 POP JUMP JUMPDEST PUSH2 0x1026 DUP2 PUSH2 0x1014 JUMP JUMPDEST DUP2 EQ PUSH2 0x1030 JUMPI PUSH0 PUSH0 REVERT JUMPDEST POP JUMP JUMPDEST PUSH0 DUP2 CALLDATALOAD SWAP1 POP PUSH2 0x1041 DUP2 PUSH2 0x101D JUMP JUMPDEST SWAP3 SWAP2 POP POP JUMP JUMPDEST PUSH0 PUSH1 0x20 DUP3 DUP5 SUB SLT ISZERO PUSH2 0x105C JUMPI PUSH2 0x105B PUSH2 0x1010 JUMP JUMPDEST JUMPDEST PUSH0 PUSH2 0x1069 DUP5 DUP3 DUP6 ADD PUSH2 0x1033 JUMP JUMPDEST SWAP2 POP POP SWAP3 SWAP2 POP POP JUMP JUMPDEST PUSH0 PUSH20 0xFFFFFFFFFFFFFFFFFFFFFFFFFFFFFFFFFFFFFFFF DUP3 AND SWAP1 POP SWAP2 SWAP1 POP JUMP JUMPDEST PUSH0 PUSH2 0x109B DUP3 PUSH2 0x1072 JUMP JUMPDEST SWAP1 POP SWAP2 SWAP1 POP JUMP JUMPDEST PUSH2 0x10AB DUP2 PUSH2 0x1091 JUMP JUMPDEST DUP3 MSTORE POP POP JUMP JUMPDEST PUSH0 PUSH1 0x20 DUP3 ADD SWAP1 POP PUSH2 0x10C4 PUSH0 DUP4 ADD DUP5 PUSH2 0x10A2 JUMP JUMPDEST SWAP3 SWAP2 POP POP JUMP JUMPDEST PUSH2 0x10D3 DUP2 PUSH2 0x1091 JUMP JUMPDEST DUP2 EQ PUSH2 0x10DD JUMPI PUSH0 PUSH0 REVERT JUMPDEST POP JUMP JUMPDEST PUSH0 DUP2 CALLDATALOAD SWAP1 POP PUSH2 0x10EE DUP2 PUSH2 0x10CA JUMP JUMPDEST SWAP3 SWAP2 POP POP JUMP JUMPDEST PUSH0 PUSH1 0x20 DUP3 DUP5 SUB SLT ISZERO PUSH2 0x1109 JUMPI PUSH2 0x1108 PUSH2 0x1010 JUMP JUMPDEST JUMPDEST PUSH0 PUSH2 0x1116 DUP5 DUP3 DUP6 ADD PUSH2 0x10E0 JUMP JUMPDEST SWAP2 POP POP SWAP3 SWAP2 POP POP JUMP JUMPDEST PUSH2 0x1128 DUP2 PUSH2 0x1014 JUMP JUMPDEST DUP3 MSTORE POP POP JUMP JUMPDEST PUSH0 PUSH1 0x20 DUP3 ADD SWAP1 POP PUSH2 0x1141 PUSH0 DUP4 ADD DUP5 PUSH2 0x111F JUMP JUMPDEST SWAP3 SWAP2 POP POP JUMP JUMPDEST PUSH0 PUSH1 0xC0 DUP3 ADD SWAP1 POP PUSH2 0x115A PUSH0 DUP4 ADD DUP10 PUSH2 0xFB5 JUMP JUMPDEST PUSH2 0x1167 PUSH1 0x20 DUP4 ADD DUP9 PUSH2 0x111F JUMP JUMPDEST PUSH2 0x1174 PUSH1 0x40 DUP4 ADD DUP8 PUSH2 0x111F JUMP JUMPDEST PUSH2 0x1181 PUSH1 0x60 DUP4 ADD DUP7 PUSH2 0x111F JUMP JUMPDEST PUSH2 0x118E PUSH1 0x80 DUP4 ADD DUP6 PUSH2 0x111F JUMP JUMPDEST PUSH2 0x119B PUSH1 0xA0 DUP4 ADD DUP5 PUSH2 0x111F JUMP JUMPDEST SWAP8 SWAP7 POP POP POP POP POP POP POP JUMP JUMPDEST PUSH0 DUP3 DUP3 MSTORE PUSH1 0x20 DUP3 ADD SWAP1 POP SWAP3 SWAP2 POP POP JUMP JUMPDEST PUSH32 0x496E76616C696420737461746500000000000000000000000000000000000000 PUSH0 DUP3 ADD MSTORE POP JUMP JUMPDEST PUSH0 PUSH2 0x11EA PUSH1 0xD DUP4 PUSH2 0x11A6 JUMP JUMPDEST SWAP2 POP PUSH2 0x11F5 DUP3 PUSH2 0x11B6 JUMP JUMPDEST PUSH1 0x20 DUP3 ADD SWAP1 POP SWAP2 SWAP1 POP JUMP JUMPDEST PUSH0 PUSH1 0x20 DUP3 ADD SWAP1 POP DUP2 DUP2 SUB PUSH0 DUP4 ADD MSTORE PUSH2 0x1217 DUP2 PUSH2 0x11DE JUMP JUMPDEST SWAP1 POP SWAP2 SWAP1 POP JUMP JUMPDEST PUSH32 0x5374696C6C206163746976650000000000000000000000000000000000000000 PUSH0 DUP3 ADD MSTORE POP JUMP JUMPDEST PUSH0 PUSH2 0x1252 PUSH1 0xC DUP4 PUSH2 0x11A6 JUMP JUMPDEST SWAP2 POP PUSH2 0x125D DUP3 PUSH2 0x121E JUMP JUMPDEST PUSH1 0x20 DUP3 ADD SWAP1 POP SWAP2 SWAP1 POP JUMP JUMPDEST PUSH0 PUSH1 0x20 DUP3 ADD SWAP1 POP DUP2 DUP2 SUB PUSH0 DUP4 ADD MSTORE PUSH2 0x127F DUP2 PUSH2 0x1246 JUMP JUMPDEST SWAP1 POP SWAP2 SWAP1 POP JUMP JUMPDEST PUSH0 PUSH1 0x60 DUP3 ADD SWAP1 POP PUSH2 0x1299 PUSH0 DUP4 ADD DUP7 PUSH2 0xFB5 JUMP JUMPDEST PUSH2 0x12A6 PUSH1 0x20 DUP4 ADD DUP6 PUSH2 0xFB5 JUMP JUMPDEST PUSH2 0x12B3 PUSH1 0x40 DUP4 ADD DUP5 PUSH2 0x111F JUMP JUMPDEST SWAP5 SWAP4 POP POP POP POP JUMP JUMPDEST PUSH32 0x4F6E6C792063726561746F720000000000000000000000000000000000000000 PUSH0 DUP3 ADD MSTORE POP JUMP JUMPDEST PUSH0 PUSH2 0x12EF PUSH1 0xC DUP4 PUSH2 0x11A6 JUMP JUMPDEST SWAP2 POP PUSH2 0x12FA DUP3 PUSH2 0x12BB JUMP JUMPDEST PUSH1 0x20 DUP3 ADD SWAP1 POP SWAP2 SWAP1 POP JUMP JUMPDEST PUSH0 PUSH1 0x20 DUP3 ADD SWAP1 POP DUP2 DUP2 SUB PUSH0 DUP4 ADD MSTORE PUSH2 0x131C DUP2 PUSH2 0x12E3 JUMP JUMPDEST SWAP1 POP SWAP2 SWAP1 POP JUMP JUMPDEST PUSH0 DUP2 SWAP1 POP SWAP3 SWAP2 POP POP JUMP JUMPDEST POP JUMP JUMPDEST PUSH0 PUSH2 0x133B PUSH0 DUP4 PUSH2 0x1323 JUMP JUMPDEST SWAP2 POP PUSH2 0x1346 DUP3 PUSH2 0x132D JUMP JUMPDEST PUSH0 DUP3 ADD SWAP1 POP SWAP2 SWAP1 POP JUMP JUMPDEST PUSH0 PUSH2 0x135A DUP3 PUSH2 0x1330 JUMP JUMPDEST SWAP2 POP DUP2 SWAP1 POP SWAP2 SWAP1 POP JUMP JUMPDEST PUSH32 0x5472616E73666572206661696C65640000000000000000000000000000000000 PUSH0 DUP3 ADD MSTORE POP JUMP JUMPDEST PUSH0 PUSH2 0x1398 PUSH1 0xF DUP4 PUSH2 0x11A6 JUMP JUMPDEST SWAP2 POP PUSH2 0x13A3 DUP3 PUSH2 0x1364 JUMP JUMPDEST PUSH1 0x20 DUP3 ADD SWAP1 POP SWAP2 SWAP1 POP JUMP JUMPDEST PUSH0 PUSH1 0x20 DUP3 ADD SWAP1 POP DUP2 DUP2 SUB PUSH0 DUP4 ADD MSTORE PUSH2 0x13C5 DUP2 PUSH2 0x138C JUMP JUMPDEST SWAP1 POP SWAP2 SWAP1 POP JUMP JUMPDEST PUSH32 0x4E6F20636F6E747269627574696F6E0000000000000000000000000000000000 PUSH0 DUP3 ADD MSTORE POP JUMP JUMPDEST PUSH0 PUSH2 0x1400 PUSH1 0xF DUP4 PUSH2 0x11A6 JUMP JUMPDEST SWAP2 POP PUSH2 0x140B DUP3 PUSH2 0x13CC JUMP JUMPDEST PUSH1 0x20 DUP3 ADD SWAP1 POP SWAP2 SWAP1 POP JUMP JUMPDEST PUSH0 PUSH1 0x20 DUP3 ADD SWAP1 POP DUP2 DUP2 SUB PUSH0 DUP4 ADD MSTORE PUSH2 0x142D DUP2 PUSH2 0x13F4 JUMP JUMPDEST SWAP1 POP SWAP2 SWAP1 POP JUMP JUMPDEST PUSH32 0x526566756E64206661696C656400000000000000000000000000000000000000 PUSH0 DUP3 ADD MSTORE POP JUMP JUMPDEST PUSH0 PUSH2 0x1468 PUSH1 0xD DUP4 PUSH2 0x11A6 JUMP JUMPDEST SWAP2 POP PUSH2 0x1473 DUP3 PUSH2 0x1434 JUMP JUMPDEST PUSH1 0x20 DUP3 ADD SWAP1 POP SWAP2 SWAP1 POP JUMP JUMPDEST PUSH0 PUSH1 0x20 DUP3 ADD SWAP1 POP DUP2 DUP2 SUB PUSH0 DUP4 ADD MSTORE PUSH2 0x1495 DUP2 PUSH2 0x145C JUMP JUMPDEST SWAP1 POP SWAP2 SWAP1 POP JUMP JUMPDEST PUSH32 0x4E487B7100000000000000000000000000000000000000000000000000000000 PUSH0 MSTORE PUSH1 0x11 PUSH1 0x4 MSTORE PUSH1 0x24 PUSH0 REVERT JUMPDEST PUSH0 PUSH2 0x14D3 DUP3 PUSH2 0x1014 JUMP JUMPDEST SWAP2 POP PUSH2 0x14DE DUP4 PUSH2 0x1014 JUMP JUMPDEST SWAP3 POP DUP3 DUP3 SUB SWAP1 POP DUP2 DUP2 GT ISZERO PUSH2 0x14F6 JUMPI PUSH2 0x14F5 PUSH2 0x149C JUMP JUMPDEST JUMPDEST SWAP3 SWAP2 POP POP JUMP JUMPDEST PUSH0 PUSH2 0x1506 DUP3 PUSH2 0x1014 JUMP JUMPDEST SWAP2 POP PUSH2 0x1511 DUP4 PUSH2 0x1014 JUMP JUMPDEST SWAP3 POP DUP3 DUP3 MUL PUSH2 0x151F DUP2 PUSH2 0x1014 JUMP JUMPDEST SWAP2 POP DUP3 DUP3 DIV DUP5 EQ DUP4 ISZERO OR PUSH2 0x1536 JUMPI PUSH2 0x1535 PUSH2 0x149C JUMP JUMPDEST JUMPDEST POP SWAP3 SWAP2 POP POP JUMP JUMPDEST PUSH32 0x4E487B7100000000000000000000000000000000000000000000000000000000 PUSH0 MSTORE PUSH1 0x12 PUSH1 0x4 MSTORE PUSH1 0x24 PUSH0 REVERT JUMPDEST PUSH0 PUSH2 0x1574 DUP3 PUSH2 0x1014 JUMP JUMPDEST SWAP2 POP PUSH2 0x157F DUP4 PUSH2 0x1014 JUMP JUMPDEST SWAP3 POP DUP3 PUSH2 0x158F JUMPI PUSH2 0x158E PUSH2 0x153D JUMP JUMPDEST JUMPDEST DUP3 DUP3 DIV SWAP1 POP SWAP3 SWAP2 POP POP JUMP JUMPDEST PUSH32 0x46756E6472616973696E6720656E646564000000000000000000000000000000 PUSH0 DUP3 ADD MSTORE POP JUMP JUMPDEST PUSH0 PUSH2 0x15CE PUSH1 0x11 DUP4 PUSH2 0x11A6 JUMP JUMPDEST SWAP2 POP PUSH2 0x15D9 DUP3 PUSH2 0x159A JUMP JUMPDEST PUSH1 0x20 DUP3 ADD SWAP1 POP SWAP2 SWAP1 POP JUMP JUMPDEST PUSH0 PUSH1 0x20 DUP3 ADD SWAP1 POP DUP2 DUP2 SUB PUSH0 DUP4 ADD MSTORE PUSH2 0x15FB DUP2 PUSH2 0x15C2 JUMP JUMPDEST SWAP1 POP SWAP2 SWAP1 POP JUMP JUMPDEST PUSH32 0x42656C6F77206D696E696D756D00000000000000000000000000000000000000 PUSH0 DUP3 ADD MSTORE POP JUMP JUMPDEST PUSH0 PUSH2 0x1636 PUSH1 0xD DUP4 PUSH2 0x11A6 JUMP JUMPDEST SWAP2 POP PUSH2 0x1641 DUP3 PUSH2 0x1602 JUMP JUMPDEST PUSH1 0x20 DUP3 ADD SWAP1 POP SWAP2 SWAP1 POP JUMP JUMPDEST PUSH0 PUSH1 0x20 DUP3 ADD SWAP1 POP DUP2 DUP2 SUB PUSH0 DUP4 ADD MSTORE PUSH2 0x1663 DUP2 PUSH2 0x162A JUMP JUMPDEST SWAP1 POP SWAP2 SWAP1 POP JUMP JUMPDEST PUSH0 PUSH2 0x1674 DUP3 PUSH2 0x1014 JUMP JUMPDEST SWAP2 POP PUSH32 0xFFFFFFFFFFFFFFFFFFFFFFFFFFFFFFFFFFFFFFFFFFFFFFFFFFFFFFFFFFFFFFFF DUP3 SUB PUSH2 0x16A6 JUMPI PUSH2 0x16A5 PUSH2 0x149C JUMP JUMPDEST JUMPDEST PUSH1 0x1 DUP3 ADD SWAP1 POP SWAP2 SWAP1 POP JUMP JUMPDEST PUSH0 PUSH2 0x16BB DUP3 PUSH2 0x1014 JUMP JUMPDEST SWAP2 POP PUSH2 0x16C6 DUP4 PUSH2 0x1014 JUMP JUMPDEST SWAP3 POP DUP3 DUP3 ADD SWAP1 POP DUP1 DUP3 GT ISZERO PUSH2 0x16DE JUMPI PUSH2 0x16DD PUSH2 0x149C JUMP JUMPDEST JUMPDEST SWAP3 SWAP2 POP POP JUMP JUMPDEST PUSH0 PUSH1 0x40 DUP3 ADD SWAP1 POP PUSH2 0x16F7 PUSH0 DUP4 ADD DUP6 PUSH2 0x111F JUMP JUMPDEST PUSH2 0x1704 PUSH1 0x20 DUP4 ADD DUP5 PUSH2 0x111F JUMP JUMPDEST SWAP4 SWAP3 POP POP POP JUMP INVALID LOG2 PUSH5 0x6970667358 0x22 SLT KECCAK256 0xBD 0xD8 GAS 0xC0 DUP6 ADDRESS 0xDC MLOAD 0x4C DUP5 0xB8 SELFBALANCE DUP9 LOG0 GASPRICE 0xC7 PUSH5 0xAC477E74EE AND DUP13 PUSH12 0xCE3C314BBCD8D164736F6C63 NUMBER STOP ADDMOD 0x1F STOP CALLER "
				},
				"gasEstimates": {
					"creation": {
						"codeDepositCost": "1190600",
						"executionCost": "infinite",
						"totalCost": "infinite"
					},
					"external": {
						"CREATOR()": "infinite",
						"DEADLINE()": "infinite",
						"GOAL()": "infinite",
						"MINIMUM_CONTRIBUTION()": "infinite",
						"checkGoalReached()": "infinite",
						"contribute()": "infinite",
						"contributions(address)": "2847",
						"contributorCount()": "2513",
						"contributors(uint256)": "4967",
						"currentState()": "2599",
						"getInfo()": "infinite",
						"getProgress()": "infinite",
						"isActive()": "infinite",
						"refund()": "infinite",
						"totalFunded()": "2447",
						"withdrawFunds()": "infinite"
					}
				},
				"methodIdentifiers": {
					"CREATOR()": "e4fbb609",
					"DEADLINE()": "a082c86e",
					"GOAL()": "a1bed0be",
					"MINIMUM_CONTRIBUTION()": "8d0bba03",
					"checkGoalReached()": "01cb3b20",
					"contribute()": "d7bb99ba",
					"contributions(address)": "42e94c90",
					"contributorCount()": "ecfd8928",
					"contributors(uint256)": "3cb5d100",
					"currentState()": "0c3f6acf",
					"getInfo()": "5a9b0b89",
					"getProgress()": "939c4456",
					"isActive()": "22f3e2d4",
					"refund()": "590e1ae3",
					"totalFunded()": "ad044f49",
					"withdrawFunds()": "24600fc3"
				}
			},
			"storageLayout": {
				"storage": [
					{
						"astId": 11,
						"contract": "contracts/lesson4.2/AdvancedCrowdfunding.sol:AdvancedCrowdfunding",
						"label": "currentState",
						"offset": 0,
						"slot": "0",
						"type": "t_enum(State)6"
					},
					{
						"astId": 22,
						"contract": "contracts/lesson4.2/AdvancedCrowdfunding.sol:AdvancedCrowdfunding",
						"label": "totalFunded",
						"offset": 0,
						"slot": "1",
						"type": "t_uint256"
					},
					{
						"astId": 24,
						"contract": "contracts/lesson4.2/AdvancedCrowdfunding.sol:AdvancedCrowdfunding",
						"label": "contributorCount",
						"offset": 0,
						"slot": "2",
						"type": "t_uint256"
					},
					{
						"astId": 28,
						"contract": "contracts/lesson4.2/AdvancedCrowdfunding.sol:AdvancedCrowdfunding",
						"label": "contributions",
						"offset": 0,
						"slot": "3",
						"type": "t_mapping(t_address,t_uint256)"
					},
					{
						"astId": 31,
						"contract": "contracts/lesson4.2/AdvancedCrowdfunding.sol:AdvancedCrowdfunding",
						"label": "contributors",
						"offset": 0,
						"slot": "4",
						"type": "t_array(t_address)dyn_storage"
					}
				],
				"types": {
					"t_address": {
						"encoding": "inplace",
						"label": "address",
						"numberOfBytes": "20"
					},
					"t_array(t_address)dyn_storage": {
						"base": "t_address",
						"encoding": "dynamic_array",
						"label": "address[]",
						"numberOfBytes": "32"
					},
					"t_enum(State)6": {
						"encoding": "inplace",
						"label": "enum AdvancedCrowdfunding.State",
						"numberOfBytes": "1"
					},
					"t_mapping(t_address,t_uint256)": {
						"encoding": "mapping",
						"key": "t_address",
						"label": "mapping(address => uint256)",
						"numberOfBytes": "32",
						"value": "t_uint256"
					},
					"t_uint256": {
						"encoding": "inplace",
						"label": "uint256",
						"numberOfBytes": "32"
					}
				}
			},
			"userdoc": {
				"kind": "user",
				"methods": {},
				"version": 1
			}
		}
	}
}