{
	"contracts/PracticeContract.sol": {
		"PracticeContract": {
			"abi": [
				{
					"inputs": [],
					"name": "ADMIN",
					"outputs": [
						{
							"internalType": "address",
							"name": "",
							"type": "address"
						}
					],
					"stateMutability": "view",
					"type": "function"
				},
				{
					"inputs": [],
					"name": "MULTIPLIER",
					"outputs": [
						{
							"internalType": "uint256",
							"name": "",
							"type": "uint256"
						}
					],
					"stateMutability": "view",
					"type": "function"
				},
				{
					"inputs": [
						{
							"internalType": "uint256[]",
							"name": "inputs",
							"type": "uint256[]"
						}
					],
					"name": "batchProcess",
					"outputs": [],
					"stateMutability": "nonpayable",
					"type": "function"
				},
				{
					"inputs": [],
					"name": "getSum",
					"outputs": [
						{
							"internalType": "uint256",
							"name": "",
							"type": "uint256"
						}
					],
					"stateMutability": "view",
					"type": "function"
				},
				{
					"inputs": [
						{
							"internalType": "uint256",
							"name": "",
							"type": "uint256"
						}
					],
					"name": "numbers",
					"outputs": [
						{
							"internalType": "uint256",
							"name": "",
							"type": "uint256"
						}
					],
					"stateMutability": "view",
					"type": "function"
				}
			],
			"devdoc": {
				"kind": "dev",
				"methods": {},
				"version": 1
			},
			"evm": {
				"assembly": "    /* \"contracts/PracticeContract.sol\":57:890  contract PracticeContract {... */\n  mstore(0x40, 0xa0)\n  callvalue\n  dup1\n  iszero\n  tag_1\n  jumpi\n  revert(0x00, 0x00)\ntag_1:\n  pop\n  mload(0x80)\n  codecopy(0x00, dataOffset(sub_0), dataSize(sub_0))\n  0x00\n  assignImmutable(\"0xe455bf8ea6e7463a1046a0b52804526e119b4bf5136279614e0b1e8e296a4e2d\")\n  return(0x00, dataSize(sub_0))\nstop\n\nsub_0: assembly {\n        /* \"contracts/PracticeContract.sol\":57:890  contract PracticeContract {... */\n      mstore(0x40, 0x80)\n      callvalue\n      dup1\n      iszero\n      tag_1\n      jumpi\n      revert(0x00, 0x00)\n    tag_1:\n      pop\n      jumpi(tag_2, lt(calldatasize, 0x04))\n      shr(0xe0, calldataload(0x00))\n      dup1\n      0x059f8b16\n      eq\n      tag_3\n      jumpi\n      dup1\n      0x2a0acc6a\n      eq\n      tag_4\n      jumpi\n      dup1\n      0x540c1018\n      eq\n      tag_5\n      jumpi\n      dup1\n      0x569c5f6d\n      eq\n      tag_6\n      jumpi\n      dup1\n      0xd39fa233\n      eq\n      tag_7\n      jumpi\n    tag_2:\n      revert(0x00, 0x00)\n        /* \"contracts/PracticeContract.sol\":178:216  uint256 public constant MULTIPLIER = 2 */\n    tag_3:\n      tag_8\n      tag_9\n      jump\t// in\n    tag_8:\n      mload(0x40)\n      tag_10\n      swap2\n      swap1\n      tag_11\n      jump\t// in\n    tag_10:\n      mload(0x40)\n      dup1\n      swap2\n      sub\n      swap1\n      return\n        /* \"contracts/PracticeContract.sol\":119:149  address public immutable ADMIN */\n    tag_4:\n      tag_12\n      tag_13\n      jump\t// in\n    tag_12:\n      mload(0x40)\n      tag_14\n      swap2\n      swap1\n      tag_15\n      jump\t// in\n    tag_14:\n      mload(0x40)\n      dup1\n      swap2\n      sub\n      swap1\n      return\n        /* \"contracts/PracticeContract.sol\":245:602  function batchProcess(... */\n    tag_5:\n      tag_16\n      0x04\n      dup1\n      calldatasize\n      sub\n      dup2\n      add\n      swap1\n      tag_17\n      swap2\n      swap1\n      tag_18\n      jump\t// in\n    tag_17:\n      tag_19\n      jump\t// in\n    tag_16:\n      stop\n        /* \"contracts/PracticeContract.sol\":608:888  function getSum() external view returns (uint256) {... */\n    tag_6:\n      tag_20\n      tag_21\n      jump\t// in\n    tag_20:\n      mload(0x40)\n      tag_22\n      swap2\n      swap1\n      tag_11\n      jump\t// in\n    tag_22:\n      mload(0x40)\n      dup1\n      swap2\n      sub\n      swap1\n      return\n        /* \"contracts/PracticeContract.sol\":89:113  uint256[] public numbers */\n    tag_7:\n      tag_23\n      0x04\n      dup1\n      calldatasize\n      sub\n      dup2\n      add\n      swap1\n      tag_24\n      swap2\n      swap1\n      tag_25\n      jump\t// in\n    tag_24:\n      tag_26\n      jump\t// in\n    tag_23:\n      mload(0x40)\n      tag_27\n      swap2\n      swap1\n      tag_11\n      jump\t// in\n    tag_27:\n      mload(0x40)\n      dup1\n      swap2\n      sub\n      swap1\n      return\n        /* \"contracts/PracticeContract.sol\":178:216  uint256 public constant MULTIPLIER = 2 */\n    tag_9:\n        /* \"contracts/PracticeContract.sol\":215:216  2 */\n      0x02\n        /* \"contracts/PracticeContract.sol\":178:216  uint256 public constant MULTIPLIER = 2 */\n      dup2\n      jump\t// out\n        /* \"contracts/PracticeContract.sol\":119:149  address public immutable ADMIN */\n    tag_13:\n      immutable(\"0xe455bf8ea6e7463a1046a0b52804526e119b4bf5136279614e0b1e8e296a4e2d\")\n      dup2\n      jump\t// out\n        /* \"contracts/PracticeContract.sol\":245:602  function batchProcess(... */\n    tag_19:\n        /* \"contracts/PracticeContract.sol\":371:376  ADMIN */\n      immutable(\"0xe455bf8ea6e7463a1046a0b52804526e119b4bf5136279614e0b1e8e296a4e2d\")\n        /* \"contracts/PracticeContract.sol\":357:376  msg.sender == ADMIN */\n      0xffffffffffffffffffffffffffffffffffffffff\n      and\n        /* \"contracts/PracticeContract.sol\":357:367  msg.sender */\n      caller\n        /* \"contracts/PracticeContract.sol\":357:376  msg.sender == ADMIN */\n      0xffffffffffffffffffffffffffffffffffffffff\n      and\n      eq\n        /* \"contracts/PracticeContract.sol\":349:390  require(msg.sender == ADMIN, \"Not admin\") */\n      tag_29\n      jumpi\n      mload(0x40)\n      0x08c379a000000000000000000000000000000000000000000000000000000000\n      dup2\n      mstore\n      0x04\n      add\n      tag_30\n      swap1\n      tag_31\n      jump\t// in\n    tag_30:\n      mload(0x40)\n      dup1\n      swap2\n      sub\n      swap1\n      revert\n    tag_29:\n        /* \"contracts/PracticeContract.sol\":401:415  uint256 length */\n      0x00\n        /* \"contracts/PracticeContract.sol\":418:424  inputs */\n      dup3\n      dup3\n        /* \"contracts/PracticeContract.sol\":418:431  inputs.length */\n      swap1\n      pop\n        /* \"contracts/PracticeContract.sol\":401:431  uint256 length = inputs.length */\n      swap1\n      pop\n        /* \"contracts/PracticeContract.sol\":447:453  uint i */\n      0x00\n        /* \"contracts/PracticeContract.sol\":456:457  0 */\n      0x00\n        /* \"contracts/PracticeContract.sol\":447:457  uint i = 0 */\n      swap1\n      pop\n        /* \"contracts/PracticeContract.sol\":442:596  for (uint i = 0; i < length; i++) {... */\n    tag_32:\n        /* \"contracts/PracticeContract.sol\":463:469  length */\n      dup2\n        /* \"contracts/PracticeContract.sol\":459:460  i */\n      dup2\n        /* \"contracts/PracticeContract.sol\":459:469  i < length */\n      lt\n        /* \"contracts/PracticeContract.sol\":442:596  for (uint i = 0; i < length; i++) {... */\n      iszero\n      tag_33\n      jumpi\n        /* \"contracts/PracticeContract.sol\":490:504  uint256 result */\n      0x00\n        /* \"contracts/PracticeContract.sol\":215:216  2 */\n      0x02\n        /* \"contracts/PracticeContract.sol\":507:513  inputs */\n      dup6\n      dup6\n        /* \"contracts/PracticeContract.sol\":514:515  i */\n      dup5\n        /* \"contracts/PracticeContract.sol\":507:516  inputs[i] */\n      dup2\n      dup2\n      lt\n      tag_35\n      jumpi\n      tag_36\n      tag_37\n      jump\t// in\n    tag_36:\n    tag_35:\n      swap1\n      pop\n      0x20\n      mul\n      add\n      calldataload\n        /* \"contracts/PracticeContract.sol\":507:529  inputs[i] * MULTIPLIER */\n      tag_38\n      swap2\n      swap1\n      tag_39\n      jump\t// in\n    tag_38:\n        /* \"contracts/PracticeContract.sol\":490:529  uint256 result = inputs[i] * MULTIPLIER */\n      swap1\n      pop\n        /* \"contracts/PracticeContract.sol\":565:572  numbers */\n      0x00\n        /* \"contracts/PracticeContract.sol\":578:584  result */\n      dup2\n        /* \"contracts/PracticeContract.sol\":565:585  numbers.push(result) */\n      swap1\n      dup1\n      0x01\n      dup2\n      sload\n      add\n      dup1\n      dup3\n      sstore\n      dup1\n      swap2\n      pop\n      pop\n      0x01\n      swap1\n      sub\n      swap1\n      0x00\n      mstore\n      keccak256(0x00, 0x20)\n      add\n      0x00\n      swap1\n      swap2\n      swap1\n      swap2\n      swap1\n      swap2\n      pop\n      sstore\n        /* \"contracts/PracticeContract.sol\":476:596  {... */\n      pop\n        /* \"contracts/PracticeContract.sol\":471:474  i++ */\n      dup1\n      dup1\n      0x01\n      add\n      swap2\n      pop\n      pop\n        /* \"contracts/PracticeContract.sol\":442:596  for (uint i = 0; i < length; i++) {... */\n      jump(tag_32)\n    tag_33:\n      pop\n        /* \"contracts/PracticeContract.sol\":339:602  {... */\n      pop\n        /* \"contracts/PracticeContract.sol\":245:602  function batchProcess(... */\n      pop\n      pop\n      jump\t// out\n        /* \"contracts/PracticeContract.sol\":608:888  function getSum() external view returns (uint256) {... */\n    tag_21:\n        /* \"contracts/PracticeContract.sol\":649:656  uint256 */\n      0x00\n        /* \"contracts/PracticeContract.sol\":690:695  ADMIN */\n      immutable(\"0xe455bf8ea6e7463a1046a0b52804526e119b4bf5136279614e0b1e8e296a4e2d\")\n        /* \"contracts/PracticeContract.sol\":676:695  msg.sender == ADMIN */\n      0xffffffffffffffffffffffffffffffffffffffff\n      and\n        /* \"contracts/PracticeContract.sol\":676:686  msg.sender */\n      caller\n        /* \"contracts/PracticeContract.sol\":676:695  msg.sender == ADMIN */\n      0xffffffffffffffffffffffffffffffffffffffff\n      and\n      eq\n        /* \"contracts/PracticeContract.sol\":668:709  require(msg.sender == ADMIN, \"Not admin\") */\n      tag_42\n      jumpi\n      mload(0x40)\n      0x08c379a000000000000000000000000000000000000000000000000000000000\n      dup2\n      mstore\n      0x04\n      add\n      tag_43\n      swap1\n      tag_31\n      jump\t// in\n    tag_43:\n      mload(0x40)\n      dup1\n      swap2\n      sub\n      swap1\n      revert\n    tag_42:\n        /* \"contracts/PracticeContract.sol\":720:731  uint256 sum */\n      0x00\n        /* \"contracts/PracticeContract.sol\":734:735  0 */\n      0x00\n        /* \"contracts/PracticeContract.sol\":720:735  uint256 sum = 0 */\n      swap1\n      pop\n        /* \"contracts/PracticeContract.sol\":745:759  uint256 length */\n      0x00\n        /* \"contracts/PracticeContract.sol\":762:769  numbers */\n      0x00\n        /* \"contracts/PracticeContract.sol\":762:776  numbers.length */\n      dup1\n      sload\n      swap1\n      pop\n        /* \"contracts/PracticeContract.sol\":745:776  uint256 length = numbers.length */\n      swap1\n      pop\n        /* \"contracts/PracticeContract.sol\":791:797  uint i */\n      0x00\n        /* \"contracts/PracticeContract.sol\":800:801  0 */\n      0x00\n        /* \"contracts/PracticeContract.sol\":791:801  uint i = 0 */\n      swap1\n      pop\n        /* \"contracts/PracticeContract.sol\":786:862  for (uint i = 0; i < length; i++) {... */\n    tag_44:\n        /* \"contracts/PracticeContract.sol\":807:813  length */\n      dup2\n        /* \"contracts/PracticeContract.sol\":803:804  i */\n      dup2\n        /* \"contracts/PracticeContract.sol\":803:813  i < length */\n      lt\n        /* \"contracts/PracticeContract.sol\":786:862  for (uint i = 0; i < length; i++) {... */\n      iszero\n      tag_45\n      jumpi\n        /* \"contracts/PracticeContract.sol\":841:848  numbers */\n      0x00\n        /* \"contracts/PracticeContract.sol\":849:850  i */\n      dup2\n        /* \"contracts/PracticeContract.sol\":841:851  numbers[i] */\n      dup2\n      sload\n      dup2\n      lt\n      tag_47\n      jumpi\n      tag_48\n      tag_37\n      jump\t// in\n    tag_48:\n    tag_47:\n      swap1\n      0x00\n      mstore\n      keccak256(0x00, 0x20)\n      add\n      sload\n        /* \"contracts/PracticeContract.sol\":834:851  sum += numbers[i] */\n      dup4\n      tag_50\n      swap2\n      swap1\n      tag_51\n      jump\t// in\n    tag_50:\n      swap3\n      pop\n        /* \"contracts/PracticeContract.sol\":815:818  i++ */\n      dup1\n      dup1\n      0x01\n      add\n      swap2\n      pop\n      pop\n        /* \"contracts/PracticeContract.sol\":786:862  for (uint i = 0; i < length; i++) {... */\n      jump(tag_44)\n    tag_45:\n      pop\n        /* \"contracts/PracticeContract.sol\":878:881  sum */\n      dup2\n        /* \"contracts/PracticeContract.sol\":871:881  return sum */\n      swap3\n      pop\n      pop\n      pop\n        /* \"contracts/PracticeContract.sol\":608:888  function getSum() external view returns (uint256) {... */\n      swap1\n      jump\t// out\n        /* \"contracts/PracticeContract.sol\":89:113  uint256[] public numbers */\n    tag_26:\n      0x00\n      dup2\n      dup2\n      sload\n      dup2\n      lt\n      tag_52\n      jumpi\n      0x00\n      dup1\n      revert\n    tag_52:\n      swap1\n      0x00\n      mstore\n      keccak256(0x00, 0x20)\n      add\n      0x00\n      swap2\n      pop\n      swap1\n      pop\n      sload\n      dup2\n      jump\t// out\n        /* \"#utility.yul\":7:84   */\n    tag_54:\n        /* \"#utility.yul\":44:51   */\n      0x00\n        /* \"#utility.yul\":73:78   */\n      dup2\n        /* \"#utility.yul\":62:78   */\n      swap1\n      pop\n        /* \"#utility.yul\":7:84   */\n      swap2\n      swap1\n      pop\n      jump\t// out\n        /* \"#utility.yul\":90:208   */\n    tag_55:\n        /* \"#utility.yul\":177:201   */\n      tag_75\n        /* \"#utility.yul\":195:200   */\n      dup2\n        /* \"#utility.yul\":177:201   */\n      tag_54\n      jump\t// in\n    tag_75:\n        /* \"#utility.yul\":172:175   */\n      dup3\n        /* \"#utility.yul\":165:202   */\n      mstore\n        /* \"#utility.yul\":90:208   */\n      pop\n      pop\n      jump\t// out\n        /* \"#utility.yul\":214:436   */\n    tag_11:\n        /* \"#utility.yul\":307:311   */\n      0x00\n        /* \"#utility.yul\":345:347   */\n      0x20\n        /* \"#utility.yul\":334:343   */\n      dup3\n        /* \"#utility.yul\":330:348   */\n      add\n        /* \"#utility.yul\":322:348   */\n      swap1\n      pop\n        /* \"#utility.yul\":358:429   */\n      tag_77\n        /* \"#utility.yul\":426:427   */\n      0x00\n        /* \"#utility.yul\":415:424   */\n      dup4\n        /* \"#utility.yul\":411:428   */\n      add\n        /* \"#utility.yul\":402:408   */\n      dup5\n        /* \"#utility.yul\":358:429   */\n      tag_55\n      jump\t// in\n    tag_77:\n        /* \"#utility.yul\":214:436   */\n      swap3\n      swap2\n      pop\n      pop\n      jump\t// out\n        /* \"#utility.yul\":442:568   */\n    tag_56:\n        /* \"#utility.yul\":479:486   */\n      0x00\n        /* \"#utility.yul\":519:561   */\n      0xffffffffffffffffffffffffffffffffffffffff\n        /* \"#utility.yul\":512:517   */\n      dup3\n        /* \"#utility.yul\":508:562   */\n      and\n        /* \"#utility.yul\":497:562   */\n      swap1\n      pop\n        /* \"#utility.yul\":442:568   */\n      swap2\n      swap1\n      pop\n      jump\t// out\n        /* \"#utility.yul\":574:670   */\n    tag_57:\n        /* \"#utility.yul\":611:618   */\n      0x00\n        /* \"#utility.yul\":640:664   */\n      tag_80\n        /* \"#utility.yul\":658:663   */\n      dup3\n        /* \"#utility.yul\":640:664   */\n      tag_56\n      jump\t// in\n    tag_80:\n        /* \"#utility.yul\":629:664   */\n      swap1\n      pop\n        /* \"#utility.yul\":574:670   */\n      swap2\n      swap1\n      pop\n      jump\t// out\n        /* \"#utility.yul\":676:794   */\n    tag_58:\n        /* \"#utility.yul\":763:787   */\n      tag_82\n        /* \"#utility.yul\":781:786   */\n      dup2\n        /* \"#utility.yul\":763:787   */\n      tag_57\n      jump\t// in\n    tag_82:\n        /* \"#utility.yul\":758:761   */\n      dup3\n        /* \"#utility.yul\":751:788   */\n      mstore\n        /* \"#utility.yul\":676:794   */\n      pop\n      pop\n      jump\t// out\n        /* \"#utility.yul\":800:1022   */\n    tag_15:\n        /* \"#utility.yul\":893:897   */\n      0x00\n        /* \"#utility.yul\":931:933   */\n      0x20\n        /* \"#utility.yul\":920:929   */\n      dup3\n        /* \"#utility.yul\":916:934   */\n      add\n        /* \"#utility.yul\":908:934   */\n      swap1\n      pop\n        /* \"#utility.yul\":944:1015   */\n      tag_84\n        /* \"#utility.yul\":1012:1013   */\n      0x00\n        /* \"#utility.yul\":1001:1010   */\n      dup4\n        /* \"#utility.yul\":997:1014   */\n      add\n        /* \"#utility.yul\":988:994   */\n      dup5\n        /* \"#utility.yul\":944:1015   */\n      tag_58\n      jump\t// in\n    tag_84:\n        /* \"#utility.yul\":800:1022   */\n      swap3\n      swap2\n      pop\n      pop\n      jump\t// out\n        /* \"#utility.yul\":1109:1226   */\n    tag_60:\n        /* \"#utility.yul\":1218:1219   */\n      0x00\n        /* \"#utility.yul\":1215:1216   */\n      0x00\n        /* \"#utility.yul\":1208:1220   */\n      revert\n        /* \"#utility.yul\":1232:1349   */\n    tag_61:\n        /* \"#utility.yul\":1341:1342   */\n      0x00\n        /* \"#utility.yul\":1338:1339   */\n      0x00\n        /* \"#utility.yul\":1331:1343   */\n      revert\n        /* \"#utility.yul\":1355:1472   */\n    tag_62:\n        /* \"#utility.yul\":1464:1465   */\n      0x00\n        /* \"#utility.yul\":1461:1462   */\n      0x00\n        /* \"#utility.yul\":1454:1466   */\n      revert\n        /* \"#utility.yul\":1478:1595   */\n    tag_63:\n        /* \"#utility.yul\":1587:1588   */\n      0x00\n        /* \"#utility.yul\":1584:1585   */\n      0x00\n        /* \"#utility.yul\":1577:1589   */\n      revert\n        /* \"#utility.yul\":1601:1718   */\n    tag_64:\n        /* \"#utility.yul\":1710:1711   */\n      0x00\n        /* \"#utility.yul\":1707:1708   */\n      0x00\n        /* \"#utility.yul\":1700:1712   */\n      revert\n        /* \"#utility.yul\":1741:2309   */\n    tag_65:\n        /* \"#utility.yul\":1814:1822   */\n      0x00\n        /* \"#utility.yul\":1824:1830   */\n      0x00\n        /* \"#utility.yul\":1874:1877   */\n      dup4\n        /* \"#utility.yul\":1867:1871   */\n      0x1f\n        /* \"#utility.yul\":1859:1865   */\n      dup5\n        /* \"#utility.yul\":1855:1872   */\n      add\n        /* \"#utility.yul\":1851:1878   */\n      slt\n        /* \"#utility.yul\":1841:1963   */\n      tag_92\n      jumpi\n        /* \"#utility.yul\":1882:1961   */\n      tag_93\n      tag_62\n      jump\t// in\n    tag_93:\n        /* \"#utility.yul\":1841:1963   */\n    tag_92:\n        /* \"#utility.yul\":1995:2001   */\n      dup3\n        /* \"#utility.yul\":1982:2002   */\n      calldataload\n        /* \"#utility.yul\":1972:2002   */\n      swap1\n      pop\n        /* \"#utility.yul\":2025:2043   */\n      0xffffffffffffffff\n        /* \"#utility.yul\":2017:2023   */\n      dup2\n        /* \"#utility.yul\":2014:2044   */\n      gt\n        /* \"#utility.yul\":2011:2128   */\n      iszero\n      tag_94\n      jumpi\n        /* \"#utility.yul\":2047:2126   */\n      tag_95\n      tag_63\n      jump\t// in\n    tag_95:\n        /* \"#utility.yul\":2011:2128   */\n    tag_94:\n        /* \"#utility.yul\":2161:2165   */\n      0x20\n        /* \"#utility.yul\":2153:2159   */\n      dup4\n        /* \"#utility.yul\":2149:2166   */\n      add\n        /* \"#utility.yul\":2137:2166   */\n      swap2\n      pop\n        /* \"#utility.yul\":2215:2218   */\n      dup4\n        /* \"#utility.yul\":2207:2211   */\n      0x20\n        /* \"#utility.yul\":2199:2205   */\n      dup3\n        /* \"#utility.yul\":2195:2212   */\n      mul\n        /* \"#utility.yul\":2185:2193   */\n      dup4\n        /* \"#utility.yul\":2181:2213   */\n      add\n        /* \"#utility.yul\":2178:2219   */\n      gt\n        /* \"#utility.yul\":2175:2303   */\n      iszero\n      tag_96\n      jumpi\n        /* \"#utility.yul\":2222:2301   */\n      tag_97\n      tag_64\n      jump\t// in\n    tag_97:\n        /* \"#utility.yul\":2175:2303   */\n    tag_96:\n        /* \"#utility.yul\":1741:2309   */\n      swap3\n      pop\n      swap3\n      swap1\n      pop\n      jump\t// out\n        /* \"#utility.yul\":2315:2874   */\n    tag_18:\n        /* \"#utility.yul\":2401:2407   */\n      0x00\n        /* \"#utility.yul\":2409:2415   */\n      0x00\n        /* \"#utility.yul\":2458:2460   */\n      0x20\n        /* \"#utility.yul\":2446:2455   */\n      dup4\n        /* \"#utility.yul\":2437:2444   */\n      dup6\n        /* \"#utility.yul\":2433:2456   */\n      sub\n        /* \"#utility.yul\":2429:2461   */\n      slt\n        /* \"#utility.yul\":2426:2545   */\n      iszero\n      tag_99\n      jumpi\n        /* \"#utility.yul\":2464:2543   */\n      tag_100\n      tag_60\n      jump\t// in\n    tag_100:\n        /* \"#utility.yul\":2426:2545   */\n    tag_99:\n        /* \"#utility.yul\":2612:2613   */\n      0x00\n        /* \"#utility.yul\":2601:2610   */\n      dup4\n        /* \"#utility.yul\":2597:2614   */\n      add\n        /* \"#utility.yul\":2584:2615   */\n      calldataload\n        /* \"#utility.yul\":2642:2660   */\n      0xffffffffffffffff\n        /* \"#utility.yul\":2634:2640   */\n      dup2\n        /* \"#utility.yul\":2631:2661   */\n      gt\n        /* \"#utility.yul\":2628:2745   */\n      iszero\n      tag_101\n      jumpi\n        /* \"#utility.yul\":2664:2743   */\n      tag_102\n      tag_61\n      jump\t// in\n    tag_102:\n        /* \"#utility.yul\":2628:2745   */\n    tag_101:\n        /* \"#utility.yul\":2777:2857   */\n      tag_103\n        /* \"#utility.yul\":2849:2856   */\n      dup6\n        /* \"#utility.yul\":2840:2846   */\n      dup3\n        /* \"#utility.yul\":2829:2838   */\n      dup7\n        /* \"#utility.yul\":2825:2847   */\n      add\n        /* \"#utility.yul\":2777:2857   */\n      tag_65\n      jump\t// in\n    tag_103:\n        /* \"#utility.yul\":2759:2857   */\n      swap3\n      pop\n      swap3\n      pop\n        /* \"#utility.yul\":2555:2867   */\n      pop\n        /* \"#utility.yul\":2315:2874   */\n      swap3\n      pop\n      swap3\n      swap1\n      pop\n      jump\t// out\n        /* \"#utility.yul\":2880:3002   */\n    tag_66:\n        /* \"#utility.yul\":2953:2977   */\n      tag_105\n        /* \"#utility.yul\":2971:2976   */\n      dup2\n        /* \"#utility.yul\":2953:2977   */\n      tag_54\n      jump\t// in\n    tag_105:\n        /* \"#utility.yul\":2946:2951   */\n      dup2\n        /* \"#utility.yul\":2943:2978   */\n      eq\n        /* \"#utility.yul\":2933:2996   */\n      tag_106\n      jumpi\n        /* \"#utility.yul\":2992:2993   */\n      0x00\n        /* \"#utility.yul\":2989:2990   */\n      0x00\n        /* \"#utility.yul\":2982:2994   */\n      revert\n        /* \"#utility.yul\":2933:2996   */\n    tag_106:\n        /* \"#utility.yul\":2880:3002   */\n      pop\n      jump\t// out\n        /* \"#utility.yul\":3008:3147   */\n    tag_67:\n        /* \"#utility.yul\":3054:3059   */\n      0x00\n        /* \"#utility.yul\":3092:3098   */\n      dup2\n        /* \"#utility.yul\":3079:3099   */\n      calldataload\n        /* \"#utility.yul\":3070:3099   */\n      swap1\n      pop\n        /* \"#utility.yul\":3108:3141   */\n      tag_108\n        /* \"#utility.yul\":3135:3140   */\n      dup2\n        /* \"#utility.yul\":3108:3141   */\n      tag_66\n      jump\t// in\n    tag_108:\n        /* \"#utility.yul\":3008:3147   */\n      swap3\n      swap2\n      pop\n      pop\n      jump\t// out\n        /* \"#utility.yul\":3153:3482   */\n    tag_25:\n        /* \"#utility.yul\":3212:3218   */\n      0x00\n        /* \"#utility.yul\":3261:3263   */\n      0x20\n        /* \"#utility.yul\":3249:3258   */\n      dup3\n        /* \"#utility.yul\":3240:3247   */\n      dup5\n        /* \"#utility.yul\":3236:3259   */\n      sub\n        /* \"#utility.yul\":3232:3264   */\n      slt\n        /* \"#utility.yul\":3229:3348   */\n      iszero\n      tag_110\n      jumpi\n        /* \"#utility.yul\":3267:3346   */\n      tag_111\n      tag_60\n      jump\t// in\n    tag_111:\n        /* \"#utility.yul\":3229:3348   */\n    tag_110:\n        /* \"#utility.yul\":3387:3388   */\n      0x00\n        /* \"#utility.yul\":3412:3465   */\n      tag_112\n        /* \"#utility.yul\":3457:3464   */\n      dup5\n        /* \"#utility.yul\":3448:3454   */\n      dup3\n        /* \"#utility.yul\":3437:3446   */\n      dup6\n        /* \"#utility.yul\":3433:3455   */\n      add\n        /* \"#utility.yul\":3412:3465   */\n      tag_67\n      jump\t// in\n    tag_112:\n        /* \"#utility.yul\":3402:3465   */\n      swap2\n      pop\n        /* \"#utility.yul\":3358:3475   */\n      pop\n        /* \"#utility.yul\":3153:3482   */\n      swap3\n      swap2\n      pop\n      pop\n      jump\t// out\n        /* \"#utility.yul\":3488:3657   */\n    tag_68:\n        /* \"#utility.yul\":3572:3583   */\n      0x00\n        /* \"#utility.yul\":3606:3612   */\n      dup3\n        /* \"#utility.yul\":3601:3604   */\n      dup3\n        /* \"#utility.yul\":3594:3613   */\n      mstore\n        /* \"#utility.yul\":3646:3650   */\n      0x20\n        /* \"#utility.yul\":3641:3644   */\n      dup3\n        /* \"#utility.yul\":3637:3651   */\n      add\n        /* \"#utility.yul\":3622:3651   */\n      swap1\n      pop\n        /* \"#utility.yul\":3488:3657   */\n      swap3\n      swap2\n      pop\n      pop\n      jump\t// out\n        /* \"#utility.yul\":3663:3822   */\n    tag_69:\n        /* \"#utility.yul\":3803:3814   */\n      0x4e6f742061646d696e0000000000000000000000000000000000000000000000\n        /* \"#utility.yul\":3799:3800   */\n      0x00\n        /* \"#utility.yul\":3791:3797   */\n      dup3\n        /* \"#utility.yul\":3787:3801   */\n      add\n        /* \"#utility.yul\":3780:3815   */\n      mstore\n        /* \"#utility.yul\":3663:3822   */\n      pop\n      jump\t// out\n        /* \"#utility.yul\":3828:4193   */\n    tag_70:\n        /* \"#utility.yul\":3970:3973   */\n      0x00\n        /* \"#utility.yul\":3991:4057   */\n      tag_116\n        /* \"#utility.yul\":4055:4056   */\n      0x09\n        /* \"#utility.yul\":4050:4053   */\n      dup4\n        /* \"#utility.yul\":3991:4057   */\n      tag_68\n      jump\t// in\n    tag_116:\n        /* \"#utility.yul\":3984:4057   */\n      swap2\n      pop\n        /* \"#utility.yul\":4066:4159   */\n      tag_117\n        /* \"#utility.yul\":4155:4158   */\n      dup3\n        /* \"#utility.yul\":4066:4159   */\n      tag_69\n      jump\t// in\n    tag_117:\n        /* \"#utility.yul\":4184:4186   */\n      0x20\n        /* \"#utility.yul\":4179:4182   */\n      dup3\n        /* \"#utility.yul\":4175:4187   */\n      add\n        /* \"#utility.yul\":4168:4187   */\n      swap1\n      pop\n        /* \"#utility.yul\":3828:4193   */\n      swap2\n      swap1\n      pop\n      jump\t// out\n        /* \"#utility.yul\":4199:4618   */\n    tag_31:\n        /* \"#utility.yul\":4365:4369   */\n      0x00\n        /* \"#utility.yul\":4403:4405   */\n      0x20\n        /* \"#utility.yul\":4392:4401   */\n      dup3\n        /* \"#utility.yul\":4388:4406   */\n      add\n        /* \"#utility.yul\":4380:4406   */\n      swap1\n      pop\n        /* \"#utility.yul\":4452:4461   */\n      dup2\n        /* \"#utility.yul\":4446:4450   */\n      dup2\n        /* \"#utility.yul\":4442:4462   */\n      sub\n        /* \"#utility.yul\":4438:4439   */\n      0x00\n        /* \"#utility.yul\":4427:4436   */\n      dup4\n        /* \"#utility.yul\":4423:4440   */\n      add\n        /* \"#utility.yul\":4416:4463   */\n      mstore\n        /* \"#utility.yul\":4480:4611   */\n      tag_119\n        /* \"#utility.yul\":4606:4610   */\n      dup2\n        /* \"#utility.yul\":4480:4611   */\n      tag_70\n      jump\t// in\n    tag_119:\n        /* \"#utility.yul\":4472:4611   */\n      swap1\n      pop\n        /* \"#utility.yul\":4199:4618   */\n      swap2\n      swap1\n      pop\n      jump\t// out\n        /* \"#utility.yul\":4624:4804   */\n    tag_37:\n        /* \"#utility.yul\":4672:4749   */\n      0x4e487b7100000000000000000000000000000000000000000000000000000000\n        /* \"#utility.yul\":4669:4670   */\n      0x00\n        /* \"#utility.yul\":4662:4750   */\n      mstore\n        /* \"#utility.yul\":4769:4773   */\n      0x32\n        /* \"#utility.yul\":4766:4767   */\n      0x04\n        /* \"#utility.yul\":4759:4774   */\n      mstore\n        /* \"#utility.yul\":4793:4797   */\n      0x24\n        /* \"#utility.yul\":4790:4791   */\n      0x00\n        /* \"#utility.yul\":4783:4798   */\n      revert\n        /* \"#utility.yul\":4810:4990   */\n    tag_71:\n        /* \"#utility.yul\":4858:4935   */\n      0x4e487b7100000000000000000000000000000000000000000000000000000000\n        /* \"#utility.yul\":4855:4856   */\n      0x00\n        /* \"#utility.yul\":4848:4936   */\n      mstore\n        /* \"#utility.yul\":4955:4959   */\n      0x11\n        /* \"#utility.yul\":4952:4953   */\n      0x04\n        /* \"#utility.yul\":4945:4960   */\n      mstore\n        /* \"#utility.yul\":4979:4983   */\n      0x24\n        /* \"#utility.yul\":4976:4977   */\n      0x00\n        /* \"#utility.yul\":4969:4984   */\n      revert\n        /* \"#utility.yul\":4996:5406   */\n    tag_39:\n        /* \"#utility.yul\":5036:5043   */\n      0x00\n        /* \"#utility.yul\":5059:5079   */\n      tag_123\n        /* \"#utility.yul\":5077:5078   */\n      dup3\n        /* \"#utility.yul\":5059:5079   */\n      tag_54\n      jump\t// in\n    tag_123:\n        /* \"#utility.yul\":5054:5079   */\n      swap2\n      pop\n        /* \"#utility.yul\":5093:5113   */\n      tag_124\n        /* \"#utility.yul\":5111:5112   */\n      dup4\n        /* \"#utility.yul\":5093:5113   */\n      tag_54\n      jump\t// in\n    tag_124:\n        /* \"#utility.yul\":5088:5113   */\n      swap3\n      pop\n        /* \"#utility.yul\":5148:5149   */\n      dup3\n        /* \"#utility.yul\":5145:5146   */\n      dup3\n        /* \"#utility.yul\":5141:5150   */\n      mul\n        /* \"#utility.yul\":5170:5200   */\n      tag_125\n        /* \"#utility.yul\":5188:5199   */\n      dup2\n        /* \"#utility.yul\":5170:5200   */\n      tag_54\n      jump\t// in\n    tag_125:\n        /* \"#utility.yul\":5159:5200   */\n      swap2\n      pop\n        /* \"#utility.yul\":5349:5350   */\n      dup3\n        /* \"#utility.yul\":5340:5347   */\n      dup3\n        /* \"#utility.yul\":5336:5351   */\n      div\n        /* \"#utility.yul\":5333:5334   */\n      dup5\n        /* \"#utility.yul\":5330:5352   */\n      eq\n        /* \"#utility.yul\":5310:5311   */\n      dup4\n        /* \"#utility.yul\":5303:5312   */\n      iszero\n        /* \"#utility.yul\":5283:5366   */\n      or\n        /* \"#utility.yul\":5260:5399   */\n      tag_126\n      jumpi\n        /* \"#utility.yul\":5379:5397   */\n      tag_127\n      tag_71\n      jump\t// in\n    tag_127:\n        /* \"#utility.yul\":5260:5399   */\n    tag_126:\n        /* \"#utility.yul\":5044:5406   */\n      pop\n        /* \"#utility.yul\":4996:5406   */\n      swap3\n      swap2\n      pop\n      pop\n      jump\t// out\n        /* \"#utility.yul\":5412:5603   */\n    tag_51:\n        /* \"#utility.yul\":5452:5455   */\n      0x00\n        /* \"#utility.yul\":5471:5491   */\n      tag_129\n        /* \"#utility.yul\":5489:5490   */\n      dup3\n        /* \"#utility.yul\":5471:5491   */\n      tag_54\n      jump\t// in\n    tag_129:\n        /* \"#utility.yul\":5466:5491   */\n      swap2\n      pop\n        /* \"#utility.yul\":5505:5525   */\n      tag_130\n        /* \"#utility.yul\":5523:5524   */\n      dup4\n        /* \"#utility.yul\":5505:5525   */\n      tag_54\n      jump\t// in\n    tag_130:\n        /* \"#utility.yul\":5500:5525   */\n      swap3\n      pop\n        /* \"#utility.yul\":5548:5549   */\n      dup3\n        /* \"#utility.yul\":5545:5546   */\n      dup3\n        /* \"#utility.yul\":5541:5550   */\n      add\n        /* \"#utility.yul\":5534:5550   */\n      swap1\n      pop\n        /* \"#utility.yul\":5569:5572   */\n      dup1\n        /* \"#utility.yul\":5566:5567   */\n      dup3\n        /* \"#utility.yul\":5563:5573   */\n      gt\n        /* \"#utility.yul\":5560:5596   */\n      iszero\n      tag_131\n      jumpi\n        /* \"#utility.yul\":5576:5594   */\n      tag_132\n      tag_71\n      jump\t// in\n    tag_132:\n        /* \"#utility.yul\":5560:5596   */\n    tag_131:\n        /* \"#utility.yul\":5412:5603   */\n      swap3\n      swap2\n      pop\n      pop\n      jump\t// out\n\n    auxdata: 0xa26469706673582212209fe5d8f51d3f3047be66f14a855c9b0ee841d49e52ff6568e6e395d762af32b864736f6c634300081f0033\n}\n",
				"bytecode": {
					"linkReferences": {},
					"object": "60a0604052348015600e575f5ffd5b506080516106406100355f395f81816101060152818161012a015261022f01526106405ff3fe608060405234801561000f575f5ffd5b5060043610610055575f3560e01c8063059f8b16146100595780632a0acc6a14610077578063540c101814610095578063569c5f6d146100b1578063d39fa233146100cf575b5f5ffd5b6100616100ff565b60405161006e919061034a565b60405180910390f35b61007f610104565b60405161008c91906103a2565b60405180910390f35b6100af60048036038101906100aa9190610424565b610128565b005b6100b961022c565b6040516100c6919061034a565b60405180910390f35b6100e960048036038101906100e49190610499565b610313565b6040516100f6919061034a565b60405180910390f35b600281565b7f000000000000000000000000000000000000000000000000000000000000000081565b7f000000000000000000000000000000000000000000000000000000000000000073ffffffffffffffffffffffffffffffffffffffff163373ffffffffffffffffffffffffffffffffffffffff16146101b6576040517f08c379a00000000000000000000000000000000000000000000000000000000081526004016101ad9061051e565b60405180910390fd5b5f8282905090505f5f90505b81811015610226575f60028585848181106101e0576101df61053c565b5b905060200201356101f19190610596565b90505f81908060018154018082558091505060019003905f5260205f20015f90919091909150555080806001019150506101c2565b50505050565b5f7f000000000000000000000000000000000000000000000000000000000000000073ffffffffffffffffffffffffffffffffffffffff163373ffffffffffffffffffffffffffffffffffffffff16146102bb576040517f08c379a00000000000000000000000000000000000000000000000000000000081526004016102b29061051e565b60405180910390fd5b5f5f90505f5f8054905090505f5f90505b8181101561030a575f81815481106102e7576102e661053c565b5b905f5260205f200154836102fb91906105d7565b925080806001019150506102cc565b50819250505090565b5f8181548110610321575f80fd5b905f5260205f20015f915090505481565b5f819050919050565b61034481610332565b82525050565b5f60208201905061035d5f83018461033b565b92915050565b5f73ffffffffffffffffffffffffffffffffffffffff82169050919050565b5f61038c82610363565b9050919050565b61039c81610382565b82525050565b5f6020820190506103b55f830184610393565b92915050565b5f5ffd5b5f5ffd5b5f5ffd5b5f5ffd5b5f5ffd5b5f5f83601f8401126103e4576103e36103c3565b5b8235905067ffffffffffffffff811115610401576104006103c7565b5b60208301915083602082028301111561041d5761041c6103cb565b5b9250929050565b5f5f6020838503121561043a576104396103bb565b5b5f83013567ffffffffffffffff811115610457576104566103bf565b5b610463858286016103cf565b92509250509250929050565b61047881610332565b8114610482575f5ffd5b50565b5f813590506104938161046f565b92915050565b5f602082840312156104ae576104ad6103bb565b5b5f6104bb84828501610485565b91505092915050565b5f82825260208201905092915050565b7f4e6f742061646d696e00000000000000000000000000000000000000000000005f82015250565b5f6105086009836104c4565b9150610513826104d4565b602082019050919050565b5f6020820190508181035f830152610535816104fc565b9050919050565b7f4e487b71000000000000000000000000000000000000000000000000000000005f52603260045260245ffd5b7f4e487b71000000000000000000000000000000000000000000000000000000005f52601160045260245ffd5b5f6105a082610332565b91506105ab83610332565b92508282026105b981610332565b915082820484148315176105d0576105cf610569565b5b5092915050565b5f6105e182610332565b91506105ec83610332565b925082820190508082111561060457610603610569565b5b9291505056fea26469706673582212209fe5d8f51d3f3047be66f14a855c9b0ee841d49e52ff6568e6e395d762af32b864736f6c634300081f0033",
					"opcodes": "PUSH1 0xA0 PUSH1 0x40 MSTORE CALLVALUE DUP1 ISZERO PUSH1 0xE JUMPI PUSH0 PUSH0 REVERT JUMPDEST POP PUSH1 0x80 MLOAD PUSH2 0x640 PUSH2 0x35 PUSH0 CODECOPY PUSH0 DUP2 DUP2 PUSH2 0x106 ADD MSTORE DUP2 DUP2 PUSH2 0x12A ADD MSTORE PUSH2 0x22F ADD MSTORE PUSH2 0x640 PUSH0 RETURN INVALID PUSH1 0x80 PUSH1 0x40 MSTORE CALLVALUE DUP1 ISZERO PUSH2 0xF JUMPI PUSH0 PUSH0 REVERT JUMPDEST POP PUSH1 0x4 CALLDATASIZE LT PUSH2 0x55 JUMPI PUSH0 CALLDATALOAD PUSH1 0xE0 SHR DUP1 PUSH4 0x59F8B16 EQ PUSH2 0x59 JUMPI DUP1 PUSH4 0x2A0ACC6A EQ PUSH2 0x77 JUMPI DUP1 PUSH4 0x540C1018 EQ PUSH2 0x95 JUMPI DUP1 PUSH4 0x569C5F6D EQ PUSH2 0xB1 JUMPI DUP1 PUSH4 0xD39FA233 EQ PUSH2 0xCF JUMPI JUMPDEST PUSH0 PUSH0 REVERT JUMPDEST PUSH2 0x61 PUSH2 0xFF JUMP JUMPDEST PUSH1 0x40 MLOAD PUSH2 0x6E SWAP2 SWAP1 PUSH2 0x34A JUMP JUMPDEST PUSH1 0x40 MLOAD DUP1 SWAP2 SUB SWAP1 RETURN JUMPDEST PUSH2 0x7F PUSH2 0x104 JUMP JUMPDEST PUSH1 0x40 MLOAD PUSH2 0x8C SWAP2 SWAP1 PUSH2 0x3A2 JUMP JUMPDEST PUSH1 0x40 MLOAD DUP1 SWAP2 SUB SWAP1 RETURN JUMPDEST PUSH2 0xAF PUSH1 0x4 DUP1 CALLDATASIZE SUB DUP2 ADD SWAP1 PUSH2 0xAA SWAP2 SWAP1 PUSH2 0x424 JUMP JUMPDEST PUSH2 0x128 JUMP JUMPDEST STOP JUMPDEST PUSH2 0xB9 PUSH2 0x22C JUMP JUMPDEST PUSH1 0x40 MLOAD PUSH2 0xC6 SWAP2 SWAP1 PUSH2 0x34A JUMP JUMPDEST PUSH1 0x40 MLOAD DUP1 SWAP2 SUB SWAP1 RETURN JUMPDEST PUSH2 0xE9 PUSH1 0x4 DUP1 CALLDATASIZE SUB DUP2 ADD SWAP1 PUSH2 0xE4 SWAP2 SWAP1 PUSH2 0x499 JUMP JUMPDEST PUSH2 0x313 JUMP JUMPDEST PUSH1 0x40 MLOAD PUSH2 0xF6 SWAP2 SWAP1 PUSH2 0x34A JUMP JUMPDEST PUSH1 0x40 MLOAD DUP1 SWAP2 SUB SWAP1 RETURN JUMPDEST PUSH1 0x2 DUP2 JUMP JUMPDEST PUSH32 0x0 DUP2 JUMP JUMPDEST PUSH32 0x0 PUSH20 0xFFFFFFFFFFFFFFFFFFFFFFFFFFFFFFFFFFFFFFFF AND CALLER PUSH20 0xFFFFFFFFFFFFFFFFFFFFFFFFFFFFFFFFFFFFFFFF AND EQ PUSH2 0x1B6 JUMPI PUSH1 0x40 MLOAD PUSH32 0x8C379A000000000000000000000000000000000000000000000000000000000 DUP2 MSTORE PUSH1 0x4 ADD PUSH2 0x1AD SWAP1 PUSH2 0x51E JUMP JUMPDEST PUSH1 0x40 MLOAD DUP1 SWAP2 SUB SWAP1 REVERT JUMPDEST PUSH0 DUP3 DUP3 SWAP1 POP SWAP1 POP PUSH0 PUSH0 SWAP1 POP JUMPDEST DUP2 DUP2 LT ISZERO PUSH2 0x226 JUMPI PUSH0 PUSH1 0x2 DUP6 DUP6 DUP5 DUP2 DUP2 LT PUSH2 0x1E0 JUMPI PUSH2 0x1DF PUSH2 0x53C JUMP JUMPDEST JUMPDEST SWAP1 POP PUSH1 0x20 MUL ADD CALLDATALOAD PUSH2 0x1F1 SWAP2 SWAP1 PUSH2 0x596 JUMP JUMPDEST SWAP1 POP PUSH0 DUP2 SWAP1 DUP1 PUSH1 0x1 DUP2 SLOAD ADD DUP1 DUP3 SSTORE DUP1 SWAP2 POP POP PUSH1 0x1 SWAP1 SUB SWAP1 PUSH0 MSTORE PUSH1 0x20 PUSH0 KECCAK256 ADD PUSH0 SWAP1 SWAP2 SWAP1 SWAP2 SWAP1 SWAP2 POP SSTORE POP DUP1 DUP1 PUSH1 0x1 ADD SWAP2 POP POP PUSH2 0x1C2 JUMP JUMPDEST POP POP POP POP JUMP JUMPDEST PUSH0 PUSH32 0x0 PUSH20 0xFFFFFFFFFFFFFFFFFFFFFFFFFFFFFFFFFFFFFFFF AND CALLER PUSH20 0xFFFFFFFFFFFFFFFFFFFFFFFFFFFFFFFFFFFFFFFF AND EQ PUSH2 0x2BB JUMPI PUSH1 0x40 MLOAD PUSH32 0x8C379A000000000000000000000000000000000000000000000000000000000 DUP2 MSTORE PUSH1 0x4 ADD PUSH2 0x2B2 SWAP1 PUSH2 0x51E JUMP JUMPDEST PUSH1 0x40 MLOAD DUP1 SWAP2 SUB SWAP1 REVERT JUMPDEST PUSH0 PUSH0 SWAP1 POP PUSH0 PUSH0 DUP1 SLOAD SWAP1 POP SWAP1 POP PUSH0 PUSH0 SWAP1 POP JUMPDEST DUP2 DUP2 LT ISZERO PUSH2 0x30A JUMPI PUSH0 DUP2 DUP2 SLOAD DUP2 LT PUSH2 0x2E7 JUMPI PUSH2 0x2E6 PUSH2 0x53C JUMP JUMPDEST JUMPDEST SWAP1 PUSH0 MSTORE PUSH1 0x20 PUSH0 KECCAK256 ADD SLOAD DUP4 PUSH2 0x2FB SWAP2 SWAP1 PUSH2 0x5D7 JUMP JUMPDEST SWAP3 POP DUP1 DUP1 PUSH1 0x1 ADD SWAP2 POP POP PUSH2 0x2CC JUMP JUMPDEST POP DUP2 SWAP3 POP POP POP SWAP1 JUMP JUMPDEST PUSH0 DUP2 DUP2 SLOAD DUP2 LT PUSH2 0x321 JUMPI PUSH0 DUP1 REVERT JUMPDEST SWAP1 PUSH0 MSTORE PUSH1 0x20 PUSH0 KECCAK256 ADD PUSH0 SWAP2 POP SWAP1 POP SLOAD DUP2 JUMP JUMPDEST PUSH0 DUP2 SWAP1 POP SWAP2 SWAP1 POP JUMP JUMPDEST PUSH2 0x344 DUP2 PUSH2 0x332 JUMP JUMPDEST DUP3 MSTORE POP POP JUMP JUMPDEST PUSH0 PUSH1 0x20 DUP3 ADD SWAP1 POP PUSH2 0x35D PUSH0 DUP4 ADD DUP5 PUSH2 0x33B JUMP JUMPDEST SWAP3 SWAP2 POP POP JUMP JUMPDEST PUSH0 PUSH20 0xFFFFFFFFFFFFFFFFFFFFFFFFFFFFFFFFFFFFFFFF DUP3 AND SWAP1 POP SWAP2 SWAP1 POP JUMP JUMPDEST PUSH0 PUSH2 0x38C DUP3 PUSH2 0x363 JUMP JUMPDEST SWAP1 POP SWAP2 SWAP1 POP JUMP JUMPDEST PUSH2 0x39C DUP2 PUSH2 0x382 JUMP JUMPDEST DUP3 MSTORE POP POP JUMP JUMPDEST PUSH0 PUSH1 0x20 DUP3 ADD SWAP1 POP PUSH2 0x3B5 PUSH0 DUP4 ADD DUP5 PUSH2 0x393 JUMP JUMPDEST SWAP3 SWAP2 POP POP JUMP JUMPDEST PUSH0 PUSH0 REVERT JUMPDEST PUSH0 PUSH0 REVERT JUMPDEST PUSH0 PUSH0 REVERT JUMPDEST PUSH0 PUSH0 REVERT JUMPDEST PUSH0 PUSH0 REVERT JUMPDEST PUSH0 PUSH0 DUP4 PUSH1 0x1F DUP5 ADD SLT PUSH2 0x3E4 JUMPI PUSH2 0x3E3 PUSH2 0x3C3 JUMP JUMPDEST JUMPDEST DUP3 CALLDATALOAD SWAP1 POP PUSH8 0xFFFFFFFFFFFFFFFF DUP2 GT ISZERO PUSH2 0x401 JUMPI PUSH2 0x400 PUSH2 0x3C7 JUMP JUMPDEST JUMPDEST PUSH1 0x20 DUP4 ADD SWAP2 POP DUP4 PUSH1 0x20 DUP3 MUL DUP4 ADD GT ISZERO PUSH2 0x41D JUMPI PUSH2 0x41C PUSH2 0x3CB JUMP JUMPDEST JUMPDEST SWAP3 POP SWAP3 SWAP1 POP JUMP JUMPDEST PUSH0 PUSH0 PUSH1 0x20 DUP4 DUP6 SUB SLT ISZERO PUSH2 0x43A JUMPI PUSH2 0x439 PUSH2 0x3BB JUMP JUMPDEST JUMPDEST PUSH0 DUP4 ADD CALLDATALOAD PUSH8 0xFFFFFFFFFFFFFFFF DUP2 GT ISZERO PUSH2 0x457 JUMPI PUSH2 0x456 PUSH2 0x3BF JUMP JUMPDEST JUMPDEST PUSH2 0x463 DUP6 DUP3 DUP7 ADD PUSH2 0x3CF JUMP JUMPDEST SWAP3 POP SWAP3 POP POP SWAP3 POP SWAP3 SWAP1 POP JUMP JUMPDEST PUSH2 0x478 DUP2 PUSH2 0x332 JUMP JUMPDEST DUP2 EQ PUSH2 0x482 JUMPI PUSH0 PUSH0 REVERT JUMPDEST POP JUMP JUMPDEST PUSH0 DUP2 CALLDATALOAD SWAP1 POP PUSH2 0x493 DUP2 PUSH2 0x46F JUMP JUMPDEST SWAP3 SWAP2 POP POP JUMP JUMPDEST PUSH0 PUSH1 0x20 DUP3 DUP5 SUB SLT ISZERO PUSH2 0x4AE JUMPI PUSH2 0x4AD PUSH2 0x3BB JUMP JUMPDEST JUMPDEST PUSH0 PUSH2 0x4BB DUP5 DUP3 DUP6 ADD PUSH2 0x485 JUMP JUMPDEST SWAP2 POP POP SWAP3 SWAP2 POP POP JUMP JUMPDEST PUSH0 DUP3 DUP3 MSTORE PUSH1 0x20 DUP3 ADD SWAP1 POP SWAP3 SWAP2 POP POP JUMP JUMPDEST PUSH32 0x4E6F742061646D696E0000000000000000000000000000000000000000000000 PUSH0 DUP3 ADD MSTORE POP JUMP JUMPDEST PUSH0 PUSH2 0x508 PUSH1 0x9 DUP4 PUSH2 0x4C4 JUMP JUMPDEST SWAP2 POP PUSH2 0x513 DUP3 PUSH2 0x4D4 JUMP JUMPDEST PUSH1 0x20 DUP3 ADD SWAP1 POP SWAP2 SWAP1 POP JUMP JUMPDEST PUSH0 PUSH1 0x20 DUP3 ADD SWAP1 POP DUP2 DUP2 SUB PUSH0 DUP4 ADD MSTORE PUSH2 0x535 DUP2 PUSH2 0x4FC JUMP JUMPDEST SWAP1 POP SWAP2 SWAP1 POP JUMP JUMPDEST PUSH32 0x4E487B7100000000000000000000000000000000000000000000000000000000 PUSH0 MSTORE PUSH1 0x32 PUSH1 0x4 MSTORE PUSH1 0x24 PUSH0 REVERT JUMPDEST PUSH32 0x4E487B7100000000000000000000000000000000000000000000000000000000 PUSH0 MSTORE PUSH1 0x11 PUSH1 0x4 MSTORE PUSH1 0x24 PUSH0 REVERT JUMPDEST PUSH0 PUSH2 0x5A0 DUP3 PUSH2 0x332 JUMP JUMPDEST SWAP2 POP PUSH2 0x5AB DUP4 PUSH2 0x332 JUMP JUMPDEST SWAP3 POP DUP3 DUP3 MUL PUSH2 0x5B9 DUP2 PUSH2 0x332 JUMP JUMPDEST SWAP2 POP DUP3 DUP3 DIV DUP5 EQ DUP4 ISZERO OR PUSH2 0x5D0 JUMPI PUSH2 0x5CF PUSH2 0x569 JUMP JUMPDEST JUMPDEST POP SWAP3 SWAP2 POP POP JUMP JUMPDEST PUSH0 PUSH2 0x5E1 DUP3 PUSH2 0x332 JUMP JUMPDEST SWAP2 POP PUSH2 0x5EC DUP4 PUSH2 0x332 JUMP JUMPDEST SWAP3 POP DUP3 DUP3 ADD SWAP1 POP DUP1 DUP3 GT ISZERO PUSH2 0x604 JUMPI PUSH2 0x603 PUSH2 0x569 JUMP JUMPDEST JUMPDEST SWAP3 SWAP2 POP POP JUMP INVALID LOG2 PUSH5 0x6970667358 0x22 SLT KECCAK256 SWAP16 JUMPF 0xD8F5 SAR EXTCODEHASH ADDRESS SELFBALANCE 0xBE PUSH7 0xF14A855C9B0EE8 COINBASE 0xD4 SWAP15 MSTORE SELFDESTRUCT PUSH6 0x68E6E395D762 0xAF ORIGIN 0xB8 PUSH5 0x736F6C6343 STOP ADDMOD 0x1F STOP CALLER "
				},
				"gasEstimates": {
					"creation": {
						"codeDepositCost": "320000",
						"executionCost": "infinite",
						"totalCost": "infinite"
					},
					"external": {
						"ADMIN()": "infinite",
						"MULTIPLIER()": "303",
						"batchProcess(uint256[])": "infinite",
						"getSum()": "infinite",
						"numbers(uint256)": "infinite"
					}
				},
				"methodIdentifiers": {
					"ADMIN()": "2a0acc6a",
					"MULTIPLIER()": "059f8b16",
					"batchProcess(uint256[])": "540c1018",
					"getSum()": "569c5f6d",
					"numbers(uint256)": "d39fa233"
				}
			},
			"storageLayout": {
				"storage": [
					{
						"astId": 4,
						"contract": "contracts/PracticeContract.sol:PracticeContract",
						"label": "numbers",
						"offset": 0,
						"slot": "0",
						"type": "t_array(t_uint256)dyn_storage"
					}
				],
				"types": {
					"t_array(t_uint256)dyn_storage": {
						"base": "t_uint256",
						"encoding": "dynamic_array",
						"label": "uint256[]",
						"numberOfBytes": "32"
					},
					"t_uint256": {
						"encoding": "inplace",
						"label": "uint256",
						"numberOfBytes": "32"
					}
				}
			},
			"userdoc": {
				"kind": "user",
				"methods": {},
				"version": 1
			}
		}
	}
}