{
	"contracts/lesson3.2/NFTMarketplace.sol": {
		"NFTMarketplace": {
			"abi": [
				{
					"anonymous": false,
					"inputs": [
						{
							"indexed": false,
							"internalType": "uint256",
							"name": "id",
							"type": "uint256"
						},
						{
							"indexed": false,
							"internalType": "address",
							"name": "owner",
							"type": "address"
						}
					],
					"name": "NFTCreated",
					"type": "event"
				},
				{
					"anonymous": false,
					"inputs": [
						{
							"indexed": false,
							"internalType": "uint256",
							"name": "id",
							"type": "uint256"
						},
						{
							"indexed": false,
							"internalType": "uint256",
							"name": "price",
							"type": "uint256"
						}
					],
					"name": "NFTListed",
					"type": "event"
				},
				{
					"anonymous": false,
					"inputs": [
						{
							"indexed": false,
							"internalType": "uint256",
							"name": "id",
							"type": "uint256"
						},
						{
							"indexed": false,
							"internalType": "address",
							"name": "buyer",
							"type": "address"
						},
						{
							"indexed": false,
							"internalType": "uint256",
							"name": "price",
							"type": "uint256"
						}
					],
					"name": "NFTSold",
					"type": "event"
				},
				{
					"inputs": [
						{
							"internalType": "uint256",
							"name": "_id",
							"type": "uint256"
						}
					],
					"name": "buyNFT",
					"outputs": [],
					"stateMutability": "payable",
					"type": "function"
				},
				{
					"inputs": [
						{
							"internalType": "uint256",
							"name": "_id",
							"type": "uint256"
						}
					],
					"name": "delistNFT",
					"outputs": [],
					"stateMutability": "nonpayable",
					"type": "function"
				},
				{
					"inputs": [],
					"name": "getListedNFTs",
					"outputs": [
						{
							"components": [
								{
									"internalType": "uint256",
									"name": "id",
									"type": "uint256"
								},
								{
									"internalType": "address",
									"name": "owner",
									"type": "address"
								},
								{
									"internalType": "uint256",
									"name": "price",
									"type": "uint256"
								},
								{
									"internalType": "bool",
									"name": "forSale",
									"type": "bool"
								}
							],
							"internalType": "struct NFTMarketplace.NFT[]",
							"name": "",
							"type": "tuple[]"
						}
					],
					"stateMutability": "view",
					"type": "function"
				},
				{
					"inputs": [
						{
							"internalType": "uint256",
							"name": "_id",
							"type": "uint256"
						},
						{
							"internalType": "uint256",
							"name": "_price",
							"type": "uint256"
						}
					],
					"name": "listNFT",
					"outputs": [],
					"stateMutability": "nonpayable",
					"type": "function"
				},
				{
					"inputs": [],
					"name": "mintNFT",
					"outputs": [],
					"stateMutability": "nonpayable",
					"type": "function"
				},
				{
					"inputs": [
						{
							"internalType": "uint256",
							"name": "",
							"type": "uint256"
						}
					],
					"name": "nfts",
					"outputs": [
						{
							"internalType": "uint256",
							"name": "id",
							"type": "uint256"
						},
						{
							"internalType": "address",
							"name": "owner",
							"type": "address"
						},
						{
							"internalType": "uint256",
							"name": "price",
							"type": "uint256"
						},
						{
							"internalType": "bool",
							"name": "forSale",
							"type": "bool"
						}
					],
					"stateMutability": "view",
					"type": "function"
				},
				{
					"inputs": [
						{
							"internalType": "address",
							"name": "",
							"type": "address"
						},
						{
							"internalType": "uint256",
							"name": "",
							"type": "uint256"
						}
					],
					"name": "ownedNFTs",
					"outputs": [
						{
							"internalType": "uint256",
							"name": "",
							"type": "uint256"
						}
					],
					"stateMutability": "view",
					"type": "function"
				}
			],
			"devdoc": {
				"kind": "dev",
				"methods": {},
				"version": 1
			},
			"evm": {
				"assembly": "    /* \"contracts/lesson3.2/NFTMarketplace.sol\":57:2773  contract NFTMarketplace {... */\n  mstore(0x40, 0x80)\n  callvalue\n  dup1\n  iszero\n  tag_1\n  jumpi\n  revert(0x00, 0x00)\ntag_1:\n  pop\n  dataSize(sub_0)\n  dup1\n  dataOffset(sub_0)\n  0x00\n  codecopy\n  0x00\n  return\nstop\n\nsub_0: assembly {\n        /* \"contracts/lesson3.2/NFTMarketplace.sol\":57:2773  contract NFTMarketplace {... */\n      mstore(0x40, 0x80)\n      jumpi(tag_1, lt(calldatasize, 0x04))\n      shr(0xe0, calldataload(0x00))\n      dup1\n      0x265aa621\n      gt\n      tag_9\n      jumpi\n      dup1\n      0x265aa621\n      eq\n      tag_5\n      jumpi\n      dup1\n      0x51ed8288\n      eq\n      tag_6\n      jumpi\n      dup1\n      0x94383f14\n      eq\n      tag_7\n      jumpi\n      dup1\n      0xcb917b9c\n      eq\n      tag_8\n      jumpi\n      jump(tag_1)\n    tag_9:\n      dup1\n      0x012386f0\n      eq\n      tag_2\n      jumpi\n      dup1\n      0x14f710fe\n      eq\n      tag_3\n      jumpi\n      dup1\n      0x1a72b87d\n      eq\n      tag_4\n      jumpi\n    tag_1:\n      revert(0x00, 0x00)\n        /* \"contracts/lesson3.2/NFTMarketplace.sol\":2303:2771  function getListedNFTs() public view returns (NFT[] memory) {... */\n    tag_2:\n      callvalue\n      dup1\n      iszero\n      tag_10\n      jumpi\n      revert(0x00, 0x00)\n    tag_10:\n      pop\n      tag_11\n      tag_12\n      jump\t// in\n    tag_11:\n      mload(0x40)\n      tag_13\n      swap2\n      swap1\n      tag_14\n      jump\t// in\n    tag_13:\n      mload(0x40)\n      dup1\n      swap2\n      sub\n      swap1\n      return\n        /* \"contracts/lesson3.2/NFTMarketplace.sol\":556:817  function mintNFT() public {... */\n    tag_3:\n      callvalue\n      dup1\n      iszero\n      tag_15\n      jumpi\n      revert(0x00, 0x00)\n    tag_15:\n      pop\n      tag_16\n      tag_17\n      jump\t// in\n    tag_16:\n      stop\n        /* \"contracts/lesson3.2/NFTMarketplace.sol\":313:359  mapping(address => uint256[]) public ownedNFTs */\n    tag_4:\n      callvalue\n      dup1\n      iszero\n      tag_18\n      jumpi\n      revert(0x00, 0x00)\n    tag_18:\n      pop\n      tag_19\n      0x04\n      dup1\n      calldatasize\n      sub\n      dup2\n      add\n      swap1\n      tag_20\n      swap2\n      swap1\n      tag_21\n      jump\t// in\n    tag_20:\n      tag_22\n      jump\t// in\n    tag_19:\n      mload(0x40)\n      tag_23\n      swap2\n      swap1\n      tag_24\n      jump\t// in\n    tag_23:\n      mload(0x40)\n      dup1\n      swap2\n      sub\n      swap1\n      return\n        /* \"contracts/lesson3.2/NFTMarketplace.sol\":242:259  NFT[] public nfts */\n    tag_5:\n      callvalue\n      dup1\n      iszero\n      tag_25\n      jumpi\n      revert(0x00, 0x00)\n    tag_25:\n      pop\n      tag_26\n      0x04\n      dup1\n      calldatasize\n      sub\n      dup2\n      add\n      swap1\n      tag_27\n      swap2\n      swap1\n      tag_28\n      jump\t// in\n    tag_27:\n      tag_29\n      jump\t// in\n    tag_26:\n      mload(0x40)\n      tag_30\n      swap5\n      swap4\n      swap3\n      swap2\n      swap1\n      tag_31\n      jump\t// in\n    tag_30:\n      mload(0x40)\n      dup1\n      swap2\n      sub\n      swap1\n      return\n        /* \"contracts/lesson3.2/NFTMarketplace.sol\":1323:2268  function buyNFT(uint256 _id) public payable {... */\n    tag_6:\n      tag_32\n      0x04\n      dup1\n      calldatasize\n      sub\n      dup2\n      add\n      swap1\n      tag_33\n      swap2\n      swap1\n      tag_28\n      jump\t// in\n    tag_33:\n      tag_34\n      jump\t// in\n    tag_32:\n      stop\n        /* \"contracts/lesson3.2/NFTMarketplace.sol\":840:1131  function listNFT(uint256 _id, uint256 _price) public {... */\n    tag_7:\n      callvalue\n      dup1\n      iszero\n      tag_35\n      jumpi\n      revert(0x00, 0x00)\n    tag_35:\n      pop\n      tag_36\n      0x04\n      dup1\n      calldatasize\n      sub\n      dup2\n      add\n      swap1\n      tag_37\n      swap2\n      swap1\n      tag_38\n      jump\t// in\n    tag_37:\n      tag_39\n      jump\t// in\n    tag_36:\n      stop\n        /* \"contracts/lesson3.2/NFTMarketplace.sol\":1154:1300  function delistNFT(uint256 _id) public {... */\n    tag_8:\n      callvalue\n      dup1\n      iszero\n      tag_40\n      jumpi\n      revert(0x00, 0x00)\n    tag_40:\n      pop\n      tag_41\n      0x04\n      dup1\n      calldatasize\n      sub\n      dup2\n      add\n      swap1\n      tag_42\n      swap2\n      swap1\n      tag_28\n      jump\t// in\n    tag_42:\n      tag_43\n      jump\t// in\n    tag_41:\n      stop\n        /* \"contracts/lesson3.2/NFTMarketplace.sol\":2303:2771  function getListedNFTs() public view returns (NFT[] memory) {... */\n    tag_12:\n        /* \"contracts/lesson3.2/NFTMarketplace.sol\":2349:2361  NFT[] memory */\n      0x60\n        /* \"contracts/lesson3.2/NFTMarketplace.sol\":2373:2386  uint256 count */\n      0x00\n        /* \"contracts/lesson3.2/NFTMarketplace.sol\":2389:2390  0 */\n      0x00\n        /* \"contracts/lesson3.2/NFTMarketplace.sol\":2373:2390  uint256 count = 0 */\n      swap1\n      pop\n        /* \"contracts/lesson3.2/NFTMarketplace.sol\":2405:2411  uint i */\n      0x00\n        /* \"contracts/lesson3.2/NFTMarketplace.sol\":2414:2415  0 */\n      0x00\n        /* \"contracts/lesson3.2/NFTMarketplace.sol\":2405:2415  uint i = 0 */\n      swap1\n      pop\n        /* \"contracts/lesson3.2/NFTMarketplace.sol\":2400:2492  for (uint i = 0; i < nfts.length; i++) {... */\n    tag_45:\n        /* \"contracts/lesson3.2/NFTMarketplace.sol\":2421:2425  nfts */\n      0x00\n        /* \"contracts/lesson3.2/NFTMarketplace.sol\":2421:2432  nfts.length */\n      dup1\n      sload\n      swap1\n      pop\n        /* \"contracts/lesson3.2/NFTMarketplace.sol\":2417:2418  i */\n      dup2\n        /* \"contracts/lesson3.2/NFTMarketplace.sol\":2417:2432  i < nfts.length */\n      lt\n        /* \"contracts/lesson3.2/NFTMarketplace.sol\":2400:2492  for (uint i = 0; i < nfts.length; i++) {... */\n      iszero\n      tag_46\n      jumpi\n        /* \"contracts/lesson3.2/NFTMarketplace.sol\":2457:2461  nfts */\n      0x00\n        /* \"contracts/lesson3.2/NFTMarketplace.sol\":2462:2463  i */\n      dup2\n        /* \"contracts/lesson3.2/NFTMarketplace.sol\":2457:2464  nfts[i] */\n      dup2\n      sload\n      dup2\n      lt\n      tag_48\n      jumpi\n      tag_49\n      tag_50\n      jump\t// in\n    tag_49:\n    tag_48:\n      swap1\n      0x00\n      mstore\n      keccak256(0x00, 0x20)\n      swap1\n      0x04\n      mul\n      add\n        /* \"contracts/lesson3.2/NFTMarketplace.sol\":2457:2472  nfts[i].forSale */\n      0x03\n      add\n      0x00\n      swap1\n      sload\n      swap1\n      0x0100\n      exp\n      swap1\n      div\n      0xff\n      and\n        /* \"contracts/lesson3.2/NFTMarketplace.sol\":2453:2481  if (nfts[i].forSale) count++ */\n      iszero\n      tag_52\n      jumpi\n        /* \"contracts/lesson3.2/NFTMarketplace.sol\":2474:2481  count++ */\n      dup2\n      dup1\n      tag_53\n      swap1\n      tag_54\n      jump\t// in\n    tag_53:\n      swap3\n      pop\n      pop\n        /* \"contracts/lesson3.2/NFTMarketplace.sol\":2453:2481  if (nfts[i].forSale) count++ */\n    tag_52:\n        /* \"contracts/lesson3.2/NFTMarketplace.sol\":2434:2437  i++ */\n      dup1\n      dup1\n      0x01\n      add\n      swap2\n      pop\n      pop\n        /* \"contracts/lesson3.2/NFTMarketplace.sol\":2400:2492  for (uint i = 0; i < nfts.length; i++) {... */\n      jump(tag_45)\n    tag_46:\n      pop\n        /* \"contracts/lesson3.2/NFTMarketplace.sol\":2502:2521  NFT[] memory listed */\n      0x00\n        /* \"contracts/lesson3.2/NFTMarketplace.sol\":2534:2539  count */\n      dup2\n        /* \"contracts/lesson3.2/NFTMarketplace.sol\":2524:2540  new NFT[](count) */\n      0xffffffffffffffff\n      dup2\n      gt\n      iszero\n      tag_55\n      jumpi\n      tag_56\n      tag_57\n      jump\t// in\n    tag_56:\n    tag_55:\n      mload(0x40)\n      swap1\n      dup1\n      dup3\n      mstore\n      dup1\n      0x20\n      mul\n      0x20\n      add\n      dup3\n      add\n      0x40\n      mstore\n      dup1\n      iszero\n      tag_58\n      jumpi\n      dup2\n      0x20\n      add\n    tag_59:\n      tag_60\n      tag_61\n      jump\t// in\n    tag_60:\n      dup2\n      mstore\n      0x20\n      add\n      swap1\n      0x01\n      swap1\n      sub\n      swap1\n      dup2\n      tag_59\n      jumpi\n      swap1\n      pop\n    tag_58:\n      pop\n        /* \"contracts/lesson3.2/NFTMarketplace.sol\":2502:2540  NFT[] memory listed = new NFT[](count) */\n      swap1\n      pop\n        /* \"contracts/lesson3.2/NFTMarketplace.sol\":2550:2563  uint256 index */\n      0x00\n        /* \"contracts/lesson3.2/NFTMarketplace.sol\":2566:2567  0 */\n      0x00\n        /* \"contracts/lesson3.2/NFTMarketplace.sol\":2550:2567  uint256 index = 0 */\n      swap1\n      pop\n        /* \"contracts/lesson3.2/NFTMarketplace.sol\":2582:2588  uint i */\n      0x00\n        /* \"contracts/lesson3.2/NFTMarketplace.sol\":2591:2592  0 */\n      0x00\n        /* \"contracts/lesson3.2/NFTMarketplace.sol\":2582:2592  uint i = 0 */\n      swap1\n      pop\n        /* \"contracts/lesson3.2/NFTMarketplace.sol\":2577:2742  for (uint i = 0; i < nfts.length; i++) {... */\n    tag_62:\n        /* \"contracts/lesson3.2/NFTMarketplace.sol\":2598:2602  nfts */\n      0x00\n        /* \"contracts/lesson3.2/NFTMarketplace.sol\":2598:2609  nfts.length */\n      dup1\n      sload\n      swap1\n      pop\n        /* \"contracts/lesson3.2/NFTMarketplace.sol\":2594:2595  i */\n      dup2\n        /* \"contracts/lesson3.2/NFTMarketplace.sol\":2594:2609  i < nfts.length */\n      lt\n        /* \"contracts/lesson3.2/NFTMarketplace.sol\":2577:2742  for (uint i = 0; i < nfts.length; i++) {... */\n      iszero\n      tag_63\n      jumpi\n        /* \"contracts/lesson3.2/NFTMarketplace.sol\":2634:2638  nfts */\n      0x00\n        /* \"contracts/lesson3.2/NFTMarketplace.sol\":2639:2640  i */\n      dup2\n        /* \"contracts/lesson3.2/NFTMarketplace.sol\":2634:2641  nfts[i] */\n      dup2\n      sload\n      dup2\n      lt\n      tag_65\n      jumpi\n      tag_66\n      tag_50\n      jump\t// in\n    tag_66:\n    tag_65:\n      swap1\n      0x00\n      mstore\n      keccak256(0x00, 0x20)\n      swap1\n      0x04\n      mul\n      add\n        /* \"contracts/lesson3.2/NFTMarketplace.sol\":2634:2649  nfts[i].forSale */\n      0x03\n      add\n      0x00\n      swap1\n      sload\n      swap1\n      0x0100\n      exp\n      swap1\n      div\n      0xff\n      and\n        /* \"contracts/lesson3.2/NFTMarketplace.sol\":2630:2732  if (nfts[i].forSale) {... */\n      iszero\n      tag_68\n      jumpi\n        /* \"contracts/lesson3.2/NFTMarketplace.sol\":2685:2689  nfts */\n      0x00\n        /* \"contracts/lesson3.2/NFTMarketplace.sol\":2690:2691  i */\n      dup2\n        /* \"contracts/lesson3.2/NFTMarketplace.sol\":2685:2692  nfts[i] */\n      dup2\n      sload\n      dup2\n      lt\n      tag_69\n      jumpi\n      tag_70\n      tag_50\n      jump\t// in\n    tag_70:\n    tag_69:\n      swap1\n      0x00\n      mstore\n      keccak256(0x00, 0x20)\n      swap1\n      0x04\n      mul\n      add\n        /* \"contracts/lesson3.2/NFTMarketplace.sol\":2669:2692  listed[index] = nfts[i] */\n      mload(0x40)\n      dup1\n      0x80\n      add\n      0x40\n      mstore\n      swap1\n      dup2\n      0x00\n      dup3\n      add\n      sload\n      dup2\n      mstore\n      0x20\n      add\n      0x01\n      dup3\n      add\n      0x00\n      swap1\n      sload\n      swap1\n      0x0100\n      exp\n      swap1\n      div\n      0xffffffffffffffffffffffffffffffffffffffff\n      and\n      0xffffffffffffffffffffffffffffffffffffffff\n      and\n      0xffffffffffffffffffffffffffffffffffffffff\n      and\n      dup2\n      mstore\n      0x20\n      add\n      0x02\n      dup3\n      add\n      sload\n      dup2\n      mstore\n      0x20\n      add\n      0x03\n      dup3\n      add\n      0x00\n      swap1\n      sload\n      swap1\n      0x0100\n      exp\n      swap1\n      div\n      0xff\n      and\n      iszero\n      iszero\n      iszero\n      iszero\n      dup2\n      mstore\n      pop\n      pop\n        /* \"contracts/lesson3.2/NFTMarketplace.sol\":2669:2675  listed */\n      dup4\n        /* \"contracts/lesson3.2/NFTMarketplace.sol\":2676:2681  index */\n      dup4\n        /* \"contracts/lesson3.2/NFTMarketplace.sol\":2669:2682  listed[index] */\n      dup2\n      mload\n      dup2\n      lt\n      tag_72\n      jumpi\n      tag_73\n      tag_50\n      jump\t// in\n    tag_73:\n    tag_72:\n      0x20\n      mul\n      0x20\n      add\n      add\n        /* \"contracts/lesson3.2/NFTMarketplace.sol\":2669:2692  listed[index] = nfts[i] */\n      dup2\n      swap1\n      mstore\n      pop\n        /* \"contracts/lesson3.2/NFTMarketplace.sol\":2710:2717  index++ */\n      dup2\n      dup1\n      tag_74\n      swap1\n      tag_54\n      jump\t// in\n    tag_74:\n      swap3\n      pop\n      pop\n        /* \"contracts/lesson3.2/NFTMarketplace.sol\":2630:2732  if (nfts[i].forSale) {... */\n    tag_68:\n        /* \"contracts/lesson3.2/NFTMarketplace.sol\":2611:2614  i++ */\n      dup1\n      dup1\n      0x01\n      add\n      swap2\n      pop\n      pop\n        /* \"contracts/lesson3.2/NFTMarketplace.sol\":2577:2742  for (uint i = 0; i < nfts.length; i++) {... */\n      jump(tag_62)\n    tag_63:\n      pop\n        /* \"contracts/lesson3.2/NFTMarketplace.sol\":2758:2764  listed */\n      dup2\n        /* \"contracts/lesson3.2/NFTMarketplace.sol\":2751:2764  return listed */\n      swap4\n      pop\n      pop\n      pop\n      pop\n        /* \"contracts/lesson3.2/NFTMarketplace.sol\":2303:2771  function getListedNFTs() public view returns (NFT[] memory) {... */\n      swap1\n      jump\t// out\n        /* \"contracts/lesson3.2/NFTMarketplace.sol\":556:817  function mintNFT() public {... */\n    tag_17:\n        /* \"contracts/lesson3.2/NFTMarketplace.sol\":592:605  uint256 newId */\n      0x00\n        /* \"contracts/lesson3.2/NFTMarketplace.sol\":608:612  nfts */\n      0x00\n        /* \"contracts/lesson3.2/NFTMarketplace.sol\":608:619  nfts.length */\n      dup1\n      sload\n      swap1\n      pop\n        /* \"contracts/lesson3.2/NFTMarketplace.sol\":592:619  uint256 newId = nfts.length */\n      swap1\n      pop\n        /* \"contracts/lesson3.2/NFTMarketplace.sol\":629:633  nfts */\n      0x00\n        /* \"contracts/lesson3.2/NFTMarketplace.sol\":652:713  NFT({id: newId, owner: msg.sender, price: 0, forSale: false}) */\n      mload(0x40)\n      dup1\n      0x80\n      add\n      0x40\n      mstore\n      dup1\n        /* \"contracts/lesson3.2/NFTMarketplace.sol\":661:666  newId */\n      dup4\n        /* \"contracts/lesson3.2/NFTMarketplace.sol\":652:713  NFT({id: newId, owner: msg.sender, price: 0, forSale: false}) */\n      dup2\n      mstore\n      0x20\n      add\n        /* \"contracts/lesson3.2/NFTMarketplace.sol\":675:685  msg.sender */\n      caller\n        /* \"contracts/lesson3.2/NFTMarketplace.sol\":652:713  NFT({id: newId, owner: msg.sender, price: 0, forSale: false}) */\n      0xffffffffffffffffffffffffffffffffffffffff\n      and\n      dup2\n      mstore\n      0x20\n      add\n        /* \"contracts/lesson3.2/NFTMarketplace.sol\":694:695  0 */\n      0x00\n        /* \"contracts/lesson3.2/NFTMarketplace.sol\":652:713  NFT({id: newId, owner: msg.sender, price: 0, forSale: false}) */\n      dup2\n      mstore\n      0x20\n      add\n        /* \"contracts/lesson3.2/NFTMarketplace.sol\":706:711  false */\n      0x00\n        /* \"contracts/lesson3.2/NFTMarketplace.sol\":652:713  NFT({id: newId, owner: msg.sender, price: 0, forSale: false}) */\n      iszero\n      iszero\n      dup2\n      mstore\n      pop\n        /* \"contracts/lesson3.2/NFTMarketplace.sol\":629:723  nfts.push(... */\n      swap1\n      dup1\n      0x01\n      dup2\n      sload\n      add\n      dup1\n      dup3\n      sstore\n      dup1\n      swap2\n      pop\n      pop\n      0x01\n      swap1\n      sub\n      swap1\n      0x00\n      mstore\n      keccak256(0x00, 0x20)\n      swap1\n      0x04\n      mul\n      add\n      0x00\n      swap1\n      swap2\n      swap1\n      swap2\n      swap1\n      swap2\n      pop\n      0x00\n      dup3\n      add\n      mload\n      dup2\n      0x00\n      add\n      sstore\n      0x20\n      dup3\n      add\n      mload\n      dup2\n      0x01\n      add\n      exp(0x0100, 0x00)\n      dup2\n      sload\n      dup2\n      0xffffffffffffffffffffffffffffffffffffffff\n      mul\n      not\n      and\n      swap1\n      dup4\n      0xffffffffffffffffffffffffffffffffffffffff\n      and\n      mul\n      or\n      swap1\n      sstore\n      pop\n      0x40\n      dup3\n      add\n      mload\n      dup2\n      0x02\n      add\n      sstore\n      0x60\n      dup3\n      add\n      mload\n      dup2\n      0x03\n      add\n      exp(0x0100, 0x00)\n      dup2\n      sload\n      dup2\n      0xff\n      mul\n      not\n      and\n      swap1\n      dup4\n      iszero\n      iszero\n      mul\n      or\n      swap1\n      sstore\n      pop\n      pop\n      pop\n        /* \"contracts/lesson3.2/NFTMarketplace.sol\":733:742  ownedNFTs */\n      0x01\n        /* \"contracts/lesson3.2/NFTMarketplace.sol\":733:754  ownedNFTs[msg.sender] */\n      0x00\n        /* \"contracts/lesson3.2/NFTMarketplace.sol\":743:753  msg.sender */\n      caller\n        /* \"contracts/lesson3.2/NFTMarketplace.sol\":733:754  ownedNFTs[msg.sender] */\n      0xffffffffffffffffffffffffffffffffffffffff\n      and\n      0xffffffffffffffffffffffffffffffffffffffff\n      and\n      dup2\n      mstore\n      0x20\n      add\n      swap1\n      dup2\n      mstore\n      0x20\n      add\n      0x00\n      keccak256\n        /* \"contracts/lesson3.2/NFTMarketplace.sol\":760:765  newId */\n      dup2\n        /* \"contracts/lesson3.2/NFTMarketplace.sol\":733:766  ownedNFTs[msg.sender].push(newId) */\n      swap1\n      dup1\n      0x01\n      dup2\n      sload\n      add\n      dup1\n      dup3\n      sstore\n      dup1\n      swap2\n      pop\n      pop\n      0x01\n      swap1\n      sub\n      swap1\n      0x00\n      mstore\n      keccak256(0x00, 0x20)\n      add\n      0x00\n      swap1\n      swap2\n      swap1\n      swap2\n      swap1\n      swap2\n      pop\n      sstore\n        /* \"contracts/lesson3.2/NFTMarketplace.sol\":781:810  NFTCreated(newId, msg.sender) */\n      0xbe4d5028ecb11dfb1cbc0c1dd7eed270db43c11a50da18fceb823c9af57a2a78\n        /* \"contracts/lesson3.2/NFTMarketplace.sol\":792:797  newId */\n      dup2\n        /* \"contracts/lesson3.2/NFTMarketplace.sol\":799:809  msg.sender */\n      caller\n        /* \"contracts/lesson3.2/NFTMarketplace.sol\":781:810  NFTCreated(newId, msg.sender) */\n      mload(0x40)\n      tag_78\n      swap3\n      swap2\n      swap1\n      tag_79\n      jump\t// in\n    tag_78:\n      mload(0x40)\n      dup1\n      swap2\n      sub\n      swap1\n      log1\n        /* \"contracts/lesson3.2/NFTMarketplace.sol\":582:817  {... */\n      pop\n        /* \"contracts/lesson3.2/NFTMarketplace.sol\":556:817  function mintNFT() public {... */\n      jump\t// out\n        /* \"contracts/lesson3.2/NFTMarketplace.sol\":313:359  mapping(address => uint256[]) public ownedNFTs */\n    tag_22:\n      mstore(0x20, 0x01)\n      dup2\n      0x00\n      mstore\n      keccak256(0x00, 0x40)\n      dup2\n      dup2\n      sload\n      dup2\n      lt\n      tag_80\n      jumpi\n      0x00\n      dup1\n      revert\n    tag_80:\n      swap1\n      0x00\n      mstore\n      keccak256(0x00, 0x20)\n      add\n      0x00\n      swap2\n      pop\n      swap2\n      pop\n      pop\n      sload\n      dup2\n      jump\t// out\n        /* \"contracts/lesson3.2/NFTMarketplace.sol\":242:259  NFT[] public nfts */\n    tag_29:\n      0x00\n      dup2\n      dup2\n      sload\n      dup2\n      lt\n      tag_82\n      jumpi\n      0x00\n      dup1\n      revert\n    tag_82:\n      swap1\n      0x00\n      mstore\n      keccak256(0x00, 0x20)\n      swap1\n      0x04\n      mul\n      add\n      0x00\n      swap2\n      pop\n      swap1\n      pop\n      dup1\n      0x00\n      add\n      sload\n      swap1\n      dup1\n      0x01\n      add\n      0x00\n      swap1\n      sload\n      swap1\n      0x0100\n      exp\n      swap1\n      div\n      0xffffffffffffffffffffffffffffffffffffffff\n      and\n      swap1\n      dup1\n      0x02\n      add\n      sload\n      swap1\n      dup1\n      0x03\n      add\n      0x00\n      swap1\n      sload\n      swap1\n      0x0100\n      exp\n      swap1\n      div\n      0xff\n      and\n      swap1\n      pop\n      dup5\n      jump\t// out\n        /* \"contracts/lesson3.2/NFTMarketplace.sol\":1323:2268  function buyNFT(uint256 _id) public payable {... */\n    tag_34:\n        /* \"contracts/lesson3.2/NFTMarketplace.sol\":1377:1392  NFT storage nft */\n      0x00\n        /* \"contracts/lesson3.2/NFTMarketplace.sol\":1395:1399  nfts */\n      0x00\n        /* \"contracts/lesson3.2/NFTMarketplace.sol\":1400:1403  _id */\n      dup3\n        /* \"contracts/lesson3.2/NFTMarketplace.sol\":1395:1404  nfts[_id] */\n      dup2\n      sload\n      dup2\n      lt\n      tag_85\n      jumpi\n      tag_86\n      tag_50\n      jump\t// in\n    tag_86:\n    tag_85:\n      swap1\n      0x00\n      mstore\n      keccak256(0x00, 0x20)\n      swap1\n      0x04\n      mul\n      add\n        /* \"contracts/lesson3.2/NFTMarketplace.sol\":1377:1404  NFT storage nft = nfts[_id] */\n      swap1\n      pop\n        /* \"contracts/lesson3.2/NFTMarketplace.sol\":1422:1425  nft */\n      dup1\n        /* \"contracts/lesson3.2/NFTMarketplace.sol\":1422:1433  nft.forSale */\n      0x03\n      add\n      0x00\n      swap1\n      sload\n      swap1\n      0x0100\n      exp\n      swap1\n      div\n      0xff\n      and\n        /* \"contracts/lesson3.2/NFTMarketplace.sol\":1414:1454  require(nft.forSale, \"NFT not for sale\") */\n      tag_88\n      jumpi\n      mload(0x40)\n      0x08c379a000000000000000000000000000000000000000000000000000000000\n      dup2\n      mstore\n      0x04\n      add\n      tag_89\n      swap1\n      tag_90\n      jump\t// in\n    tag_89:\n      mload(0x40)\n      dup1\n      swap2\n      sub\n      swap1\n      revert\n    tag_88:\n        /* \"contracts/lesson3.2/NFTMarketplace.sol\":1485:1488  nft */\n      dup1\n        /* \"contracts/lesson3.2/NFTMarketplace.sol\":1485:1494  nft.price */\n      0x02\n      add\n      sload\n        /* \"contracts/lesson3.2/NFTMarketplace.sol\":1472:1481  msg.value */\n      callvalue\n        /* \"contracts/lesson3.2/NFTMarketplace.sol\":1472:1494  msg.value >= nft.price */\n      lt\n      iszero\n        /* \"contracts/lesson3.2/NFTMarketplace.sol\":1464:1517  require(msg.value >= nft.price, \"Insufficient funds\") */\n      tag_91\n      jumpi\n      mload(0x40)\n      0x08c379a000000000000000000000000000000000000000000000000000000000\n      dup2\n      mstore\n      0x04\n      add\n      tag_92\n      swap1\n      tag_93\n      jump\t// in\n    tag_92:\n      mload(0x40)\n      dup1\n      swap2\n      sub\n      swap1\n      revert\n    tag_91:\n        /* \"contracts/lesson3.2/NFTMarketplace.sol\":1528:1552  address payable oldOwner */\n      0x00\n        /* \"contracts/lesson3.2/NFTMarketplace.sol\":1563:1566  nft */\n      dup2\n        /* \"contracts/lesson3.2/NFTMarketplace.sol\":1563:1572  nft.owner */\n      0x01\n      add\n      0x00\n      swap1\n      sload\n      swap1\n      0x0100\n      exp\n      swap1\n      div\n      0xffffffffffffffffffffffffffffffffffffffff\n      and\n        /* \"contracts/lesson3.2/NFTMarketplace.sol\":1528:1573  address payable oldOwner = payable(nft.owner) */\n      swap1\n      pop\n        /* \"contracts/lesson3.2/NFTMarketplace.sol\":1595:1605  msg.sender */\n      caller\n        /* \"contracts/lesson3.2/NFTMarketplace.sol\":1583:1586  nft */\n      dup3\n        /* \"contracts/lesson3.2/NFTMarketplace.sol\":1583:1592  nft.owner */\n      0x01\n      add\n      0x00\n        /* \"contracts/lesson3.2/NFTMarketplace.sol\":1583:1605  nft.owner = msg.sender */\n      0x0100\n      exp\n      dup2\n      sload\n      dup2\n      0xffffffffffffffffffffffffffffffffffffffff\n      mul\n      not\n      and\n      swap1\n      dup4\n      0xffffffffffffffffffffffffffffffffffffffff\n      and\n      mul\n      or\n      swap1\n      sstore\n      pop\n        /* \"contracts/lesson3.2/NFTMarketplace.sol\":1629:1634  false */\n      0x00\n        /* \"contracts/lesson3.2/NFTMarketplace.sol\":1615:1618  nft */\n      dup3\n        /* \"contracts/lesson3.2/NFTMarketplace.sol\":1615:1626  nft.forSale */\n      0x03\n      add\n      0x00\n        /* \"contracts/lesson3.2/NFTMarketplace.sol\":1615:1634  nft.forSale = false */\n      0x0100\n      exp\n      dup2\n      sload\n      dup2\n      0xff\n      mul\n      not\n      and\n      swap1\n      dup4\n      iszero\n      iszero\n      mul\n      or\n      swap1\n      sstore\n      pop\n        /* \"contracts/lesson3.2/NFTMarketplace.sol\":1686:1692  uint i */\n      0x00\n        /* \"contracts/lesson3.2/NFTMarketplace.sol\":1695:1696  0 */\n      0x00\n        /* \"contracts/lesson3.2/NFTMarketplace.sol\":1686:1696  uint i = 0 */\n      swap1\n      pop\n        /* \"contracts/lesson3.2/NFTMarketplace.sol\":1681:2007  for (uint i = 0; i < ownedNFTs[oldOwner].length; i++) {... */\n    tag_94:\n        /* \"contracts/lesson3.2/NFTMarketplace.sol\":1702:1711  ownedNFTs */\n      0x01\n        /* \"contracts/lesson3.2/NFTMarketplace.sol\":1702:1721  ownedNFTs[oldOwner] */\n      0x00\n        /* \"contracts/lesson3.2/NFTMarketplace.sol\":1712:1720  oldOwner */\n      dup4\n        /* \"contracts/lesson3.2/NFTMarketplace.sol\":1702:1721  ownedNFTs[oldOwner] */\n      0xffffffffffffffffffffffffffffffffffffffff\n      and\n      0xffffffffffffffffffffffffffffffffffffffff\n      and\n      dup2\n      mstore\n      0x20\n      add\n      swap1\n      dup2\n      mstore\n      0x20\n      add\n      0x00\n      keccak256\n        /* \"contracts/lesson3.2/NFTMarketplace.sol\":1702:1728  ownedNFTs[oldOwner].length */\n      dup1\n      sload\n      swap1\n      pop\n        /* \"contracts/lesson3.2/NFTMarketplace.sol\":1698:1699  i */\n      dup2\n        /* \"contracts/lesson3.2/NFTMarketplace.sol\":1698:1728  i < ownedNFTs[oldOwner].length */\n      lt\n        /* \"contracts/lesson3.2/NFTMarketplace.sol\":1681:2007  for (uint i = 0; i < ownedNFTs[oldOwner].length; i++) {... */\n      iszero\n      tag_95\n      jumpi\n        /* \"contracts/lesson3.2/NFTMarketplace.sol\":1779:1782  _id */\n      dup4\n        /* \"contracts/lesson3.2/NFTMarketplace.sol\":1753:1762  ownedNFTs */\n      0x01\n        /* \"contracts/lesson3.2/NFTMarketplace.sol\":1753:1772  ownedNFTs[oldOwner] */\n      0x00\n        /* \"contracts/lesson3.2/NFTMarketplace.sol\":1763:1771  oldOwner */\n      dup5\n        /* \"contracts/lesson3.2/NFTMarketplace.sol\":1753:1772  ownedNFTs[oldOwner] */\n      0xffffffffffffffffffffffffffffffffffffffff\n      and\n      0xffffffffffffffffffffffffffffffffffffffff\n      and\n      dup2\n      mstore\n      0x20\n      add\n      swap1\n      dup2\n      mstore\n      0x20\n      add\n      0x00\n      keccak256\n        /* \"contracts/lesson3.2/NFTMarketplace.sol\":1773:1774  i */\n      dup3\n        /* \"contracts/lesson3.2/NFTMarketplace.sol\":1753:1775  ownedNFTs[oldOwner][i] */\n      dup2\n      sload\n      dup2\n      lt\n      tag_97\n      jumpi\n      tag_98\n      tag_50\n      jump\t// in\n    tag_98:\n    tag_97:\n      swap1\n      0x00\n      mstore\n      keccak256(0x00, 0x20)\n      add\n      sload\n        /* \"contracts/lesson3.2/NFTMarketplace.sol\":1753:1782  ownedNFTs[oldOwner][i] == _id */\n      sub\n        /* \"contracts/lesson3.2/NFTMarketplace.sol\":1749:1997  if (ownedNFTs[oldOwner][i] == _id) {... */\n      tag_100\n      jumpi\n        /* \"contracts/lesson3.2/NFTMarketplace.sol\":1827:1836  ownedNFTs */\n      0x01\n        /* \"contracts/lesson3.2/NFTMarketplace.sol\":1827:1846  ownedNFTs[oldOwner] */\n      0x00\n        /* \"contracts/lesson3.2/NFTMarketplace.sol\":1837:1845  oldOwner */\n      dup4\n        /* \"contracts/lesson3.2/NFTMarketplace.sol\":1827:1846  ownedNFTs[oldOwner] */\n      0xffffffffffffffffffffffffffffffffffffffff\n      and\n      0xffffffffffffffffffffffffffffffffffffffff\n      and\n      dup2\n      mstore\n      0x20\n      add\n      swap1\n      dup2\n      mstore\n      0x20\n      add\n      0x00\n      keccak256\n        /* \"contracts/lesson3.2/NFTMarketplace.sol\":1897:1898  1 */\n      0x01\n        /* \"contracts/lesson3.2/NFTMarketplace.sol\":1868:1877  ownedNFTs */\n      dup1\n        /* \"contracts/lesson3.2/NFTMarketplace.sol\":1868:1887  ownedNFTs[oldOwner] */\n      0x00\n        /* \"contracts/lesson3.2/NFTMarketplace.sol\":1878:1886  oldOwner */\n      dup6\n        /* \"contracts/lesson3.2/NFTMarketplace.sol\":1868:1887  ownedNFTs[oldOwner] */\n      0xffffffffffffffffffffffffffffffffffffffff\n      and\n      0xffffffffffffffffffffffffffffffffffffffff\n      and\n      dup2\n      mstore\n      0x20\n      add\n      swap1\n      dup2\n      mstore\n      0x20\n      add\n      0x00\n      keccak256\n        /* \"contracts/lesson3.2/NFTMarketplace.sol\":1868:1894  ownedNFTs[oldOwner].length */\n      dup1\n      sload\n      swap1\n      pop\n        /* \"contracts/lesson3.2/NFTMarketplace.sol\":1868:1898  ownedNFTs[oldOwner].length - 1 */\n      tag_101\n      swap2\n      swap1\n      tag_102\n      jump\t// in\n    tag_101:\n        /* \"contracts/lesson3.2/NFTMarketplace.sol\":1827:1916  ownedNFTs[oldOwner][... */\n      dup2\n      sload\n      dup2\n      lt\n      tag_103\n      jumpi\n      tag_104\n      tag_50\n      jump\t// in\n    tag_104:\n    tag_103:\n      swap1\n      0x00\n      mstore\n      keccak256(0x00, 0x20)\n      add\n      sload\n        /* \"contracts/lesson3.2/NFTMarketplace.sol\":1802:1811  ownedNFTs */\n      0x01\n        /* \"contracts/lesson3.2/NFTMarketplace.sol\":1802:1821  ownedNFTs[oldOwner] */\n      0x00\n        /* \"contracts/lesson3.2/NFTMarketplace.sol\":1812:1820  oldOwner */\n      dup5\n        /* \"contracts/lesson3.2/NFTMarketplace.sol\":1802:1821  ownedNFTs[oldOwner] */\n      0xffffffffffffffffffffffffffffffffffffffff\n      and\n      0xffffffffffffffffffffffffffffffffffffffff\n      and\n      dup2\n      mstore\n      0x20\n      add\n      swap1\n      dup2\n      mstore\n      0x20\n      add\n      0x00\n      keccak256\n        /* \"contracts/lesson3.2/NFTMarketplace.sol\":1822:1823  i */\n      dup3\n        /* \"contracts/lesson3.2/NFTMarketplace.sol\":1802:1824  ownedNFTs[oldOwner][i] */\n      dup2\n      sload\n      dup2\n      lt\n      tag_106\n      jumpi\n      tag_107\n      tag_50\n      jump\t// in\n    tag_107:\n    tag_106:\n      swap1\n      0x00\n      mstore\n      keccak256(0x00, 0x20)\n      add\n        /* \"contracts/lesson3.2/NFTMarketplace.sol\":1802:1916  ownedNFTs[oldOwner][i] = ownedNFTs[oldOwner][... */\n      dup2\n      swap1\n      sstore\n      pop\n        /* \"contracts/lesson3.2/NFTMarketplace.sol\":1934:1943  ownedNFTs */\n      0x01\n        /* \"contracts/lesson3.2/NFTMarketplace.sol\":1934:1953  ownedNFTs[oldOwner] */\n      0x00\n        /* \"contracts/lesson3.2/NFTMarketplace.sol\":1944:1952  oldOwner */\n      dup4\n        /* \"contracts/lesson3.2/NFTMarketplace.sol\":1934:1953  ownedNFTs[oldOwner] */\n      0xffffffffffffffffffffffffffffffffffffffff\n      and\n      0xffffffffffffffffffffffffffffffffffffffff\n      and\n      dup2\n      mstore\n      0x20\n      add\n      swap1\n      dup2\n      mstore\n      0x20\n      add\n      0x00\n      keccak256\n        /* \"contracts/lesson3.2/NFTMarketplace.sol\":1934:1959  ownedNFTs[oldOwner].pop() */\n      dup1\n      sload\n      dup1\n      tag_109\n      jumpi\n      tag_110\n      tag_111\n      jump\t// in\n    tag_110:\n    tag_109:\n      0x01\n      swap1\n      sub\n      dup2\n      dup2\n      swap1\n      0x00\n      mstore\n      keccak256(0x00, 0x20)\n      add\n      0x00\n      swap1\n      sstore\n      swap1\n      sstore\n        /* \"contracts/lesson3.2/NFTMarketplace.sol\":1977:1982  break */\n      jump(tag_95)\n        /* \"contracts/lesson3.2/NFTMarketplace.sol\":1749:1997  if (ownedNFTs[oldOwner][i] == _id) {... */\n    tag_100:\n        /* \"contracts/lesson3.2/NFTMarketplace.sol\":1730:1733  i++ */\n      dup1\n      dup1\n      0x01\n      add\n      swap2\n      pop\n      pop\n        /* \"contracts/lesson3.2/NFTMarketplace.sol\":1681:2007  for (uint i = 0; i < ownedNFTs[oldOwner].length; i++) {... */\n      jump(tag_94)\n    tag_95:\n      pop\n        /* \"contracts/lesson3.2/NFTMarketplace.sol\":2016:2025  ownedNFTs */\n      0x01\n        /* \"contracts/lesson3.2/NFTMarketplace.sol\":2016:2037  ownedNFTs[msg.sender] */\n      0x00\n        /* \"contracts/lesson3.2/NFTMarketplace.sol\":2026:2036  msg.sender */\n      caller\n        /* \"contracts/lesson3.2/NFTMarketplace.sol\":2016:2037  ownedNFTs[msg.sender] */\n      0xffffffffffffffffffffffffffffffffffffffff\n      and\n      0xffffffffffffffffffffffffffffffffffffffff\n      and\n      dup2\n      mstore\n      0x20\n      add\n      swap1\n      dup2\n      mstore\n      0x20\n      add\n      0x00\n      keccak256\n        /* \"contracts/lesson3.2/NFTMarketplace.sol\":2043:2046  _id */\n      dup4\n        /* \"contracts/lesson3.2/NFTMarketplace.sol\":2016:2047  ownedNFTs[msg.sender].push(_id) */\n      swap1\n      dup1\n      0x01\n      dup2\n      sload\n      add\n      dup1\n      dup3\n      sstore\n      dup1\n      swap2\n      pop\n      pop\n      0x01\n      swap1\n      sub\n      swap1\n      0x00\n      mstore\n      keccak256(0x00, 0x20)\n      add\n      0x00\n      swap1\n      swap2\n      swap1\n      swap2\n      swap1\n      swap2\n      pop\n      sstore\n        /* \"contracts/lesson3.2/NFTMarketplace.sol\":2107:2119  bool success */\n      0x00\n        /* \"contracts/lesson3.2/NFTMarketplace.sol\":2125:2133  oldOwner */\n      dup2\n        /* \"contracts/lesson3.2/NFTMarketplace.sol\":2125:2138  oldOwner.call */\n      0xffffffffffffffffffffffffffffffffffffffff\n      and\n        /* \"contracts/lesson3.2/NFTMarketplace.sol\":2146:2155  msg.value */\n      callvalue\n        /* \"contracts/lesson3.2/NFTMarketplace.sol\":2125:2160  oldOwner.call{value: msg.value}(\"\") */\n      mload(0x40)\n      tag_114\n      swap1\n      tag_115\n      jump\t// in\n    tag_114:\n      0x00\n      mload(0x40)\n      dup1\n      dup4\n      sub\n      dup2\n      dup6\n      dup8\n      gas\n      call\n      swap3\n      pop\n      pop\n      pop\n      returndatasize\n      dup1\n      0x00\n      dup2\n      eq\n      tag_118\n      jumpi\n      mload(0x40)\n      swap2\n      pop\n      and(add(returndatasize, 0x3f), not(0x1f))\n      dup3\n      add\n      0x40\n      mstore\n      returndatasize\n      dup3\n      mstore\n      returndatasize\n      0x00\n      0x20\n      dup5\n      add\n      returndatacopy\n      jump(tag_117)\n    tag_118:\n      0x60\n      swap2\n      pop\n    tag_117:\n      pop\n        /* \"contracts/lesson3.2/NFTMarketplace.sol\":2106:2160  (bool success, ) = oldOwner.call{value: msg.value}(\"\") */\n      pop\n      swap1\n      pop\n        /* \"contracts/lesson3.2/NFTMarketplace.sol\":2178:2185  success */\n      dup1\n        /* \"contracts/lesson3.2/NFTMarketplace.sol\":2170:2210  require(success, \"Failed to send Ether\") */\n      tag_119\n      jumpi\n      mload(0x40)\n      0x08c379a000000000000000000000000000000000000000000000000000000000\n      dup2\n      mstore\n      0x04\n      add\n      tag_120\n      swap1\n      tag_121\n      jump\t// in\n    tag_120:\n      mload(0x40)\n      dup1\n      swap2\n      sub\n      swap1\n      revert\n    tag_119:\n        /* \"contracts/lesson3.2/NFTMarketplace.sol\":2226:2261  NFTSold(_id, msg.sender, nft.price) */\n      0x6329e40c0365262ebbff5ca819385c2b9713dcaa050ed07866d72c441395699a\n        /* \"contracts/lesson3.2/NFTMarketplace.sol\":2234:2237  _id */\n      dup5\n        /* \"contracts/lesson3.2/NFTMarketplace.sol\":2239:2249  msg.sender */\n      caller\n        /* \"contracts/lesson3.2/NFTMarketplace.sol\":2251:2254  nft */\n      dup6\n        /* \"contracts/lesson3.2/NFTMarketplace.sol\":2251:2260  nft.price */\n      0x02\n      add\n      sload\n        /* \"contracts/lesson3.2/NFTMarketplace.sol\":2226:2261  NFTSold(_id, msg.sender, nft.price) */\n      mload(0x40)\n      tag_122\n      swap4\n      swap3\n      swap2\n      swap1\n      tag_123\n      jump\t// in\n    tag_122:\n      mload(0x40)\n      dup1\n      swap2\n      sub\n      swap1\n      log1\n        /* \"contracts/lesson3.2/NFTMarketplace.sol\":1367:2268  {... */\n      pop\n      pop\n      pop\n        /* \"contracts/lesson3.2/NFTMarketplace.sol\":1323:2268  function buyNFT(uint256 _id) public payable {... */\n      pop\n      jump\t// out\n        /* \"contracts/lesson3.2/NFTMarketplace.sol\":840:1131  function listNFT(uint256 _id, uint256 _price) public {... */\n    tag_39:\n        /* \"contracts/lesson3.2/NFTMarketplace.sol\":920:921  0 */\n      0x00\n        /* \"contracts/lesson3.2/NFTMarketplace.sol\":911:917  _price */\n      dup2\n        /* \"contracts/lesson3.2/NFTMarketplace.sol\":911:921  _price > 0 */\n      gt\n        /* \"contracts/lesson3.2/NFTMarketplace.sol\":903:954  require(_price > 0, \"Price must be greater than 0\") */\n      tag_125\n      jumpi\n      mload(0x40)\n      0x08c379a000000000000000000000000000000000000000000000000000000000\n      dup2\n      mstore\n      0x04\n      add\n      tag_126\n      swap1\n      tag_127\n      jump\t// in\n    tag_126:\n      mload(0x40)\n      dup1\n      swap2\n      sub\n      swap1\n      revert\n    tag_125:\n        /* \"contracts/lesson3.2/NFTMarketplace.sol\":991:1001  msg.sender */\n      caller\n        /* \"contracts/lesson3.2/NFTMarketplace.sol\":972:1001  nfts[_id].owner == msg.sender */\n      0xffffffffffffffffffffffffffffffffffffffff\n      and\n        /* \"contracts/lesson3.2/NFTMarketplace.sol\":972:976  nfts */\n      0x00\n        /* \"contracts/lesson3.2/NFTMarketplace.sol\":977:980  _id */\n      dup4\n        /* \"contracts/lesson3.2/NFTMarketplace.sol\":972:981  nfts[_id] */\n      dup2\n      sload\n      dup2\n      lt\n      tag_128\n      jumpi\n      tag_129\n      tag_50\n      jump\t// in\n    tag_129:\n    tag_128:\n      swap1\n      0x00\n      mstore\n      keccak256(0x00, 0x20)\n      swap1\n      0x04\n      mul\n      add\n        /* \"contracts/lesson3.2/NFTMarketplace.sol\":972:987  nfts[_id].owner */\n      0x01\n      add\n      0x00\n      swap1\n      sload\n      swap1\n      0x0100\n      exp\n      swap1\n      div\n      0xffffffffffffffffffffffffffffffffffffffff\n      and\n        /* \"contracts/lesson3.2/NFTMarketplace.sol\":972:1001  nfts[_id].owner == msg.sender */\n      0xffffffffffffffffffffffffffffffffffffffff\n      and\n      eq\n        /* \"contracts/lesson3.2/NFTMarketplace.sol\":964:1019  require(nfts[_id].owner == msg.sender, \"Not the owner\") */\n      tag_131\n      jumpi\n      mload(0x40)\n      0x08c379a000000000000000000000000000000000000000000000000000000000\n      dup2\n      mstore\n      0x04\n      add\n      tag_132\n      swap1\n      tag_133\n      jump\t// in\n    tag_132:\n      mload(0x40)\n      dup1\n      swap2\n      sub\n      swap1\n      revert\n    tag_131:\n        /* \"contracts/lesson3.2/NFTMarketplace.sol\":1047:1053  _price */\n      dup1\n        /* \"contracts/lesson3.2/NFTMarketplace.sol\":1029:1033  nfts */\n      0x00\n        /* \"contracts/lesson3.2/NFTMarketplace.sol\":1034:1037  _id */\n      dup4\n        /* \"contracts/lesson3.2/NFTMarketplace.sol\":1029:1038  nfts[_id] */\n      dup2\n      sload\n      dup2\n      lt\n      tag_134\n      jumpi\n      tag_135\n      tag_50\n      jump\t// in\n    tag_135:\n    tag_134:\n      swap1\n      0x00\n      mstore\n      keccak256(0x00, 0x20)\n      swap1\n      0x04\n      mul\n      add\n        /* \"contracts/lesson3.2/NFTMarketplace.sol\":1029:1044  nfts[_id].price */\n      0x02\n      add\n        /* \"contracts/lesson3.2/NFTMarketplace.sol\":1029:1053  nfts[_id].price = _price */\n      dup2\n      swap1\n      sstore\n      pop\n        /* \"contracts/lesson3.2/NFTMarketplace.sol\":1083:1087  true */\n      0x01\n        /* \"contracts/lesson3.2/NFTMarketplace.sol\":1063:1067  nfts */\n      0x00\n        /* \"contracts/lesson3.2/NFTMarketplace.sol\":1068:1071  _id */\n      dup4\n        /* \"contracts/lesson3.2/NFTMarketplace.sol\":1063:1072  nfts[_id] */\n      dup2\n      sload\n      dup2\n      lt\n      tag_137\n      jumpi\n      tag_138\n      tag_50\n      jump\t// in\n    tag_138:\n    tag_137:\n      swap1\n      0x00\n      mstore\n      keccak256(0x00, 0x20)\n      swap1\n      0x04\n      mul\n      add\n        /* \"contracts/lesson3.2/NFTMarketplace.sol\":1063:1080  nfts[_id].forSale */\n      0x03\n      add\n      0x00\n        /* \"contracts/lesson3.2/NFTMarketplace.sol\":1063:1087  nfts[_id].forSale = true */\n      0x0100\n      exp\n      dup2\n      sload\n      dup2\n      0xff\n      mul\n      not\n      and\n      swap1\n      dup4\n      iszero\n      iszero\n      mul\n      or\n      swap1\n      sstore\n      pop\n        /* \"contracts/lesson3.2/NFTMarketplace.sol\":1102:1124  NFTListed(_id, _price) */\n      0xa6cd73580a273eec6c1026108f6b63479fbaef5356dde4ff43e4b38dd187485f\n        /* \"contracts/lesson3.2/NFTMarketplace.sol\":1112:1115  _id */\n      dup3\n        /* \"contracts/lesson3.2/NFTMarketplace.sol\":1117:1123  _price */\n      dup3\n        /* \"contracts/lesson3.2/NFTMarketplace.sol\":1102:1124  NFTListed(_id, _price) */\n      mload(0x40)\n      tag_140\n      swap3\n      swap2\n      swap1\n      tag_141\n      jump\t// in\n    tag_140:\n      mload(0x40)\n      dup1\n      swap2\n      sub\n      swap1\n      log1\n        /* \"contracts/lesson3.2/NFTMarketplace.sol\":840:1131  function listNFT(uint256 _id, uint256 _price) public {... */\n      pop\n      pop\n      jump\t// out\n        /* \"contracts/lesson3.2/NFTMarketplace.sol\":1154:1300  function delistNFT(uint256 _id) public {... */\n    tag_43:\n        /* \"contracts/lesson3.2/NFTMarketplace.sol\":1230:1240  msg.sender */\n      caller\n        /* \"contracts/lesson3.2/NFTMarketplace.sol\":1211:1240  nfts[_id].owner == msg.sender */\n      0xffffffffffffffffffffffffffffffffffffffff\n      and\n        /* \"contracts/lesson3.2/NFTMarketplace.sol\":1211:1215  nfts */\n      0x00\n        /* \"contracts/lesson3.2/NFTMarketplace.sol\":1216:1219  _id */\n      dup3\n        /* \"contracts/lesson3.2/NFTMarketplace.sol\":1211:1220  nfts[_id] */\n      dup2\n      sload\n      dup2\n      lt\n      tag_143\n      jumpi\n      tag_144\n      tag_50\n      jump\t// in\n    tag_144:\n    tag_143:\n      swap1\n      0x00\n      mstore\n      keccak256(0x00, 0x20)\n      swap1\n      0x04\n      mul\n      add\n        /* \"contracts/lesson3.2/NFTMarketplace.sol\":1211:1226  nfts[_id].owner */\n      0x01\n      add\n      0x00\n      swap1\n      sload\n      swap1\n      0x0100\n      exp\n      swap1\n      div\n      0xffffffffffffffffffffffffffffffffffffffff\n      and\n        /* \"contracts/lesson3.2/NFTMarketplace.sol\":1211:1240  nfts[_id].owner == msg.sender */\n      0xffffffffffffffffffffffffffffffffffffffff\n      and\n      eq\n        /* \"contracts/lesson3.2/NFTMarketplace.sol\":1203:1258  require(nfts[_id].owner == msg.sender, \"Not the owner\") */\n      tag_146\n      jumpi\n      mload(0x40)\n      0x08c379a000000000000000000000000000000000000000000000000000000000\n      dup2\n      mstore\n      0x04\n      add\n      tag_147\n      swap1\n      tag_133\n      jump\t// in\n    tag_147:\n      mload(0x40)\n      dup1\n      swap2\n      sub\n      swap1\n      revert\n    tag_146:\n        /* \"contracts/lesson3.2/NFTMarketplace.sol\":1288:1293  false */\n      0x00\n        /* \"contracts/lesson3.2/NFTMarketplace.sol\":1268:1272  nfts */\n      0x00\n        /* \"contracts/lesson3.2/NFTMarketplace.sol\":1273:1276  _id */\n      dup3\n        /* \"contracts/lesson3.2/NFTMarketplace.sol\":1268:1277  nfts[_id] */\n      dup2\n      sload\n      dup2\n      lt\n      tag_148\n      jumpi\n      tag_149\n      tag_50\n      jump\t// in\n    tag_149:\n    tag_148:\n      swap1\n      0x00\n      mstore\n      keccak256(0x00, 0x20)\n      swap1\n      0x04\n      mul\n      add\n        /* \"contracts/lesson3.2/NFTMarketplace.sol\":1268:1285  nfts[_id].forSale */\n      0x03\n      add\n      0x00\n        /* \"contracts/lesson3.2/NFTMarketplace.sol\":1268:1293  nfts[_id].forSale = false */\n      0x0100\n      exp\n      dup2\n      sload\n      dup2\n      0xff\n      mul\n      not\n      and\n      swap1\n      dup4\n      iszero\n      iszero\n      mul\n      or\n      swap1\n      sstore\n      pop\n        /* \"contracts/lesson3.2/NFTMarketplace.sol\":1154:1300  function delistNFT(uint256 _id) public {... */\n      pop\n      jump\t// out\n    tag_61:\n      mload(0x40)\n      dup1\n      0x80\n      add\n      0x40\n      mstore\n      dup1\n      0x00\n      dup2\n      mstore\n      0x20\n      add\n      and(0xffffffffffffffffffffffffffffffffffffffff, 0x00)\n      dup2\n      mstore\n      0x20\n      add\n      0x00\n      dup2\n      mstore\n      0x20\n      add\n      iszero(iszero(0x00))\n      dup2\n      mstore\n      pop\n      swap1\n      jump\t// out\n        /* \"#utility.yul\":7:140   */\n    tag_151:\n        /* \"#utility.yul\":93:99   */\n      0x00\n        /* \"#utility.yul\":127:132   */\n      dup2\n        /* \"#utility.yul\":121:133   */\n      mload\n        /* \"#utility.yul\":111:133   */\n      swap1\n      pop\n        /* \"#utility.yul\":7:140   */\n      swap2\n      swap1\n      pop\n      jump\t// out\n        /* \"#utility.yul\":146:349   */\n    tag_152:\n        /* \"#utility.yul\":264:275   */\n      0x00\n        /* \"#utility.yul\":298:304   */\n      dup3\n        /* \"#utility.yul\":293:296   */\n      dup3\n        /* \"#utility.yul\":286:305   */\n      mstore\n        /* \"#utility.yul\":338:342   */\n      0x20\n        /* \"#utility.yul\":333:336   */\n      dup3\n        /* \"#utility.yul\":329:343   */\n      add\n        /* \"#utility.yul\":314:343   */\n      swap1\n      pop\n        /* \"#utility.yul\":146:349   */\n      swap3\n      swap2\n      pop\n      pop\n      jump\t// out\n        /* \"#utility.yul\":355:506   */\n    tag_153:\n        /* \"#utility.yul\":441:445   */\n      0x00\n        /* \"#utility.yul\":464:467   */\n      dup2\n        /* \"#utility.yul\":456:467   */\n      swap1\n      pop\n        /* \"#utility.yul\":494:498   */\n      0x20\n        /* \"#utility.yul\":489:492   */\n      dup3\n        /* \"#utility.yul\":485:499   */\n      add\n        /* \"#utility.yul\":477:499   */\n      swap1\n      pop\n        /* \"#utility.yul\":355:506   */\n      swap2\n      swap1\n      pop\n      jump\t// out\n        /* \"#utility.yul\":512:589   */\n    tag_154:\n        /* \"#utility.yul\":549:556   */\n      0x00\n        /* \"#utility.yul\":578:583   */\n      dup2\n        /* \"#utility.yul\":567:583   */\n      swap1\n      pop\n        /* \"#utility.yul\":512:589   */\n      swap2\n      swap1\n      pop\n      jump\t// out\n        /* \"#utility.yul\":595:703   */\n    tag_155:\n        /* \"#utility.yul\":672:696   */\n      tag_196\n        /* \"#utility.yul\":690:695   */\n      dup2\n        /* \"#utility.yul\":672:696   */\n      tag_154\n      jump\t// in\n    tag_196:\n        /* \"#utility.yul\":667:670   */\n      dup3\n        /* \"#utility.yul\":660:697   */\n      mstore\n        /* \"#utility.yul\":595:703   */\n      pop\n      pop\n      jump\t// out\n        /* \"#utility.yul\":709:835   */\n    tag_156:\n        /* \"#utility.yul\":746:753   */\n      0x00\n        /* \"#utility.yul\":786:828   */\n      0xffffffffffffffffffffffffffffffffffffffff\n        /* \"#utility.yul\":779:784   */\n      dup3\n        /* \"#utility.yul\":775:829   */\n      and\n        /* \"#utility.yul\":764:829   */\n      swap1\n      pop\n        /* \"#utility.yul\":709:835   */\n      swap2\n      swap1\n      pop\n      jump\t// out\n        /* \"#utility.yul\":841:937   */\n    tag_157:\n        /* \"#utility.yul\":878:885   */\n      0x00\n        /* \"#utility.yul\":907:931   */\n      tag_199\n        /* \"#utility.yul\":925:930   */\n      dup3\n        /* \"#utility.yul\":907:931   */\n      tag_156\n      jump\t// in\n    tag_199:\n        /* \"#utility.yul\":896:931   */\n      swap1\n      pop\n        /* \"#utility.yul\":841:937   */\n      swap2\n      swap1\n      pop\n      jump\t// out\n        /* \"#utility.yul\":943:1051   */\n    tag_158:\n        /* \"#utility.yul\":1020:1044   */\n      tag_201\n        /* \"#utility.yul\":1038:1043   */\n      dup2\n        /* \"#utility.yul\":1020:1044   */\n      tag_157\n      jump\t// in\n    tag_201:\n        /* \"#utility.yul\":1015:1018   */\n      dup3\n        /* \"#utility.yul\":1008:1045   */\n      mstore\n        /* \"#utility.yul\":943:1051   */\n      pop\n      pop\n      jump\t// out\n        /* \"#utility.yul\":1057:1147   */\n    tag_159:\n        /* \"#utility.yul\":1091:1098   */\n      0x00\n        /* \"#utility.yul\":1134:1139   */\n      dup2\n        /* \"#utility.yul\":1127:1140   */\n      iszero\n        /* \"#utility.yul\":1120:1141   */\n      iszero\n        /* \"#utility.yul\":1109:1141   */\n      swap1\n      pop\n        /* \"#utility.yul\":1057:1147   */\n      swap2\n      swap1\n      pop\n      jump\t// out\n        /* \"#utility.yul\":1153:1252   */\n    tag_160:\n        /* \"#utility.yul\":1224:1245   */\n      tag_204\n        /* \"#utility.yul\":1239:1244   */\n      dup2\n        /* \"#utility.yul\":1224:1245   */\n      tag_159\n      jump\t// in\n    tag_204:\n        /* \"#utility.yul\":1219:1222   */\n      dup3\n        /* \"#utility.yul\":1212:1246   */\n      mstore\n        /* \"#utility.yul\":1153:1252   */\n      pop\n      pop\n      jump\t// out\n        /* \"#utility.yul\":1320:2150   */\n    tag_161:\n        /* \"#utility.yul\":1445:1449   */\n      0x80\n        /* \"#utility.yul\":1440:1443   */\n      dup3\n        /* \"#utility.yul\":1436:1450   */\n      add\n        /* \"#utility.yul\":1530:1534   */\n      0x00\n        /* \"#utility.yul\":1523:1528   */\n      dup3\n        /* \"#utility.yul\":1519:1535   */\n      add\n        /* \"#utility.yul\":1513:1536   */\n      mload\n        /* \"#utility.yul\":1549:1612   */\n      tag_206\n        /* \"#utility.yul\":1606:1610   */\n      0x00\n        /* \"#utility.yul\":1601:1604   */\n      dup6\n        /* \"#utility.yul\":1597:1611   */\n      add\n        /* \"#utility.yul\":1583:1595   */\n      dup3\n        /* \"#utility.yul\":1549:1612   */\n      tag_155\n      jump\t// in\n    tag_206:\n        /* \"#utility.yul\":1460:1622   */\n      pop\n        /* \"#utility.yul\":1705:1709   */\n      0x20\n        /* \"#utility.yul\":1698:1703   */\n      dup3\n        /* \"#utility.yul\":1694:1710   */\n      add\n        /* \"#utility.yul\":1688:1711   */\n      mload\n        /* \"#utility.yul\":1724:1787   */\n      tag_207\n        /* \"#utility.yul\":1781:1785   */\n      0x20\n        /* \"#utility.yul\":1776:1779   */\n      dup6\n        /* \"#utility.yul\":1772:1786   */\n      add\n        /* \"#utility.yul\":1758:1770   */\n      dup3\n        /* \"#utility.yul\":1724:1787   */\n      tag_158\n      jump\t// in\n    tag_207:\n        /* \"#utility.yul\":1632:1797   */\n      pop\n        /* \"#utility.yul\":1880:1884   */\n      0x40\n        /* \"#utility.yul\":1873:1878   */\n      dup3\n        /* \"#utility.yul\":1869:1885   */\n      add\n        /* \"#utility.yul\":1863:1886   */\n      mload\n        /* \"#utility.yul\":1899:1962   */\n      tag_208\n        /* \"#utility.yul\":1956:1960   */\n      0x40\n        /* \"#utility.yul\":1951:1954   */\n      dup6\n        /* \"#utility.yul\":1947:1961   */\n      add\n        /* \"#utility.yul\":1933:1945   */\n      dup3\n        /* \"#utility.yul\":1899:1962   */\n      tag_155\n      jump\t// in\n    tag_208:\n        /* \"#utility.yul\":1807:1972   */\n      pop\n        /* \"#utility.yul\":2057:2061   */\n      0x60\n        /* \"#utility.yul\":2050:2055   */\n      dup3\n        /* \"#utility.yul\":2046:2062   */\n      add\n        /* \"#utility.yul\":2040:2063   */\n      mload\n        /* \"#utility.yul\":2076:2133   */\n      tag_209\n        /* \"#utility.yul\":2127:2131   */\n      0x60\n        /* \"#utility.yul\":2122:2125   */\n      dup6\n        /* \"#utility.yul\":2118:2132   */\n      add\n        /* \"#utility.yul\":2104:2116   */\n      dup3\n        /* \"#utility.yul\":2076:2133   */\n      tag_160\n      jump\t// in\n    tag_209:\n        /* \"#utility.yul\":1982:2143   */\n      pop\n        /* \"#utility.yul\":1414:2150   */\n      pop\n        /* \"#utility.yul\":1320:2150   */\n      pop\n      pop\n      jump\t// out\n        /* \"#utility.yul\":2156:2411   */\n    tag_162:\n        /* \"#utility.yul\":2263:2273   */\n      0x00\n        /* \"#utility.yul\":2284:2368   */\n      tag_211\n        /* \"#utility.yul\":2364:2367   */\n      dup4\n        /* \"#utility.yul\":2356:2362   */\n      dup4\n        /* \"#utility.yul\":2284:2368   */\n      tag_161\n      jump\t// in\n    tag_211:\n        /* \"#utility.yul\":2400:2404   */\n      0x80\n        /* \"#utility.yul\":2395:2398   */\n      dup4\n        /* \"#utility.yul\":2391:2405   */\n      add\n        /* \"#utility.yul\":2377:2405   */\n      swap1\n      pop\n        /* \"#utility.yul\":2156:2411   */\n      swap3\n      swap2\n      pop\n      pop\n      jump\t// out\n        /* \"#utility.yul\":2417:2549   */\n    tag_163:\n        /* \"#utility.yul\":2506:2510   */\n      0x00\n        /* \"#utility.yul\":2538:2542   */\n      0x20\n        /* \"#utility.yul\":2533:2536   */\n      dup3\n        /* \"#utility.yul\":2529:2543   */\n      add\n        /* \"#utility.yul\":2521:2543   */\n      swap1\n      pop\n        /* \"#utility.yul\":2417:2549   */\n      swap2\n      swap1\n      pop\n      jump\t// out\n        /* \"#utility.yul\":2621:3505   */\n    tag_164:\n        /* \"#utility.yul\":2778:2781   */\n      0x00\n        /* \"#utility.yul\":2807:2880   */\n      tag_214\n        /* \"#utility.yul\":2874:2879   */\n      dup3\n        /* \"#utility.yul\":2807:2880   */\n      tag_151\n      jump\t// in\n    tag_214:\n        /* \"#utility.yul\":2896:3001   */\n      tag_215\n        /* \"#utility.yul\":2994:3000   */\n      dup2\n        /* \"#utility.yul\":2989:2992   */\n      dup6\n        /* \"#utility.yul\":2896:3001   */\n      tag_152\n      jump\t// in\n    tag_215:\n        /* \"#utility.yul\":2889:3001   */\n      swap4\n      pop\n        /* \"#utility.yul\":3025:3100   */\n      tag_216\n        /* \"#utility.yul\":3094:3099   */\n      dup4\n        /* \"#utility.yul\":3025:3100   */\n      tag_153\n      jump\t// in\n    tag_216:\n        /* \"#utility.yul\":3123:3130   */\n      dup1\n        /* \"#utility.yul\":3154:3155   */\n      0x00\n        /* \"#utility.yul\":3139:3480   */\n    tag_217:\n        /* \"#utility.yul\":3164:3170   */\n      dup4\n        /* \"#utility.yul\":3161:3162   */\n      dup2\n        /* \"#utility.yul\":3158:3171   */\n      lt\n        /* \"#utility.yul\":3139:3480   */\n      iszero\n      tag_219\n      jumpi\n        /* \"#utility.yul\":3240:3246   */\n      dup2\n        /* \"#utility.yul\":3234:3247   */\n      mload\n        /* \"#utility.yul\":3267:3368   */\n      tag_220\n        /* \"#utility.yul\":3364:3367   */\n      dup9\n        /* \"#utility.yul\":3349:3362   */\n      dup3\n        /* \"#utility.yul\":3267:3368   */\n      tag_162\n      jump\t// in\n    tag_220:\n        /* \"#utility.yul\":3260:3368   */\n      swap8\n      pop\n        /* \"#utility.yul\":3391:3470   */\n      tag_221\n        /* \"#utility.yul\":3463:3469   */\n      dup4\n        /* \"#utility.yul\":3391:3470   */\n      tag_163\n      jump\t// in\n    tag_221:\n        /* \"#utility.yul\":3381:3470   */\n      swap3\n      pop\n        /* \"#utility.yul\":3199:3480   */\n      pop\n        /* \"#utility.yul\":3186:3187   */\n      0x01\n        /* \"#utility.yul\":3183:3184   */\n      dup2\n        /* \"#utility.yul\":3179:3188   */\n      add\n        /* \"#utility.yul\":3174:3188   */\n      swap1\n      pop\n        /* \"#utility.yul\":3139:3480   */\n      jump(tag_217)\n    tag_219:\n        /* \"#utility.yul\":3143:3157   */\n      pop\n        /* \"#utility.yul\":3496:3499   */\n      dup6\n        /* \"#utility.yul\":3489:3499   */\n      swap4\n      pop\n        /* \"#utility.yul\":2783:3505   */\n      pop\n      pop\n      pop\n        /* \"#utility.yul\":2621:3505   */\n      swap3\n      swap2\n      pop\n      pop\n      jump\t// out\n        /* \"#utility.yul\":3511:3960   */\n    tag_14:\n        /* \"#utility.yul\":3692:3696   */\n      0x00\n        /* \"#utility.yul\":3730:3732   */\n      0x20\n        /* \"#utility.yul\":3719:3728   */\n      dup3\n        /* \"#utility.yul\":3715:3733   */\n      add\n        /* \"#utility.yul\":3707:3733   */\n      swap1\n      pop\n        /* \"#utility.yul\":3779:3788   */\n      dup2\n        /* \"#utility.yul\":3773:3777   */\n      dup2\n        /* \"#utility.yul\":3769:3789   */\n      sub\n        /* \"#utility.yul\":3765:3766   */\n      0x00\n        /* \"#utility.yul\":3754:3763   */\n      dup4\n        /* \"#utility.yul\":3750:3767   */\n      add\n        /* \"#utility.yul\":3743:3790   */\n      mstore\n        /* \"#utility.yul\":3807:3953   */\n      tag_223\n        /* \"#utility.yul\":3948:3952   */\n      dup2\n        /* \"#utility.yul\":3939:3945   */\n      dup5\n        /* \"#utility.yul\":3807:3953   */\n      tag_164\n      jump\t// in\n    tag_223:\n        /* \"#utility.yul\":3799:3953   */\n      swap1\n      pop\n        /* \"#utility.yul\":3511:3960   */\n      swap3\n      swap2\n      pop\n      pop\n      jump\t// out\n        /* \"#utility.yul\":4047:4164   */\n    tag_166:\n        /* \"#utility.yul\":4156:4157   */\n      0x00\n        /* \"#utility.yul\":4153:4154   */\n      0x00\n        /* \"#utility.yul\":4146:4158   */\n      revert\n        /* \"#utility.yul\":4293:4415   */\n    tag_168:\n        /* \"#utility.yul\":4366:4390   */\n      tag_228\n        /* \"#utility.yul\":4384:4389   */\n      dup2\n        /* \"#utility.yul\":4366:4390   */\n      tag_157\n      jump\t// in\n    tag_228:\n        /* \"#utility.yul\":4359:4364   */\n      dup2\n        /* \"#utility.yul\":4356:4391   */\n      eq\n        /* \"#utility.yul\":4346:4409   */\n      tag_229\n      jumpi\n        /* \"#utility.yul\":4405:4406   */\n      0x00\n        /* \"#utility.yul\":4402:4403   */\n      0x00\n        /* \"#utility.yul\":4395:4407   */\n      revert\n        /* \"#utility.yul\":4346:4409   */\n    tag_229:\n        /* \"#utility.yul\":4293:4415   */\n      pop\n      jump\t// out\n        /* \"#utility.yul\":4421:4560   */\n    tag_169:\n        /* \"#utility.yul\":4467:4472   */\n      0x00\n        /* \"#utility.yul\":4505:4511   */\n      dup2\n        /* \"#utility.yul\":4492:4512   */\n      calldataload\n        /* \"#utility.yul\":4483:4512   */\n      swap1\n      pop\n        /* \"#utility.yul\":4521:4554   */\n      tag_231\n        /* \"#utility.yul\":4548:4553   */\n      dup2\n        /* \"#utility.yul\":4521:4554   */\n      tag_168\n      jump\t// in\n    tag_231:\n        /* \"#utility.yul\":4421:4560   */\n      swap3\n      swap2\n      pop\n      pop\n      jump\t// out\n        /* \"#utility.yul\":4566:4688   */\n    tag_170:\n        /* \"#utility.yul\":4639:4663   */\n      tag_233\n        /* \"#utility.yul\":4657:4662   */\n      dup2\n        /* \"#utility.yul\":4639:4663   */\n      tag_154\n      jump\t// in\n    tag_233:\n        /* \"#utility.yul\":4632:4637   */\n      dup2\n        /* \"#utility.yul\":4629:4664   */\n      eq\n        /* \"#utility.yul\":4619:4682   */\n      tag_234\n      jumpi\n        /* \"#utility.yul\":4678:4679   */\n      0x00\n        /* \"#utility.yul\":4675:4676   */\n      0x00\n        /* \"#utility.yul\":4668:4680   */\n      revert\n        /* \"#utility.yul\":4619:4682   */\n    tag_234:\n        /* \"#utility.yul\":4566:4688   */\n      pop\n      jump\t// out\n        /* \"#utility.yul\":4694:4833   */\n    tag_171:\n        /* \"#utility.yul\":4740:4745   */\n      0x00\n        /* \"#utility.yul\":4778:4784   */\n      dup2\n        /* \"#utility.yul\":4765:4785   */\n      calldataload\n        /* \"#utility.yul\":4756:4785   */\n      swap1\n      pop\n        /* \"#utility.yul\":4794:4827   */\n      tag_236\n        /* \"#utility.yul\":4821:4826   */\n      dup2\n        /* \"#utility.yul\":4794:4827   */\n      tag_170\n      jump\t// in\n    tag_236:\n        /* \"#utility.yul\":4694:4833   */\n      swap3\n      swap2\n      pop\n      pop\n      jump\t// out\n        /* \"#utility.yul\":4839:5313   */\n    tag_21:\n        /* \"#utility.yul\":4907:4913   */\n      0x00\n        /* \"#utility.yul\":4915:4921   */\n      0x00\n        /* \"#utility.yul\":4964:4966   */\n      0x40\n        /* \"#utility.yul\":4952:4961   */\n      dup4\n        /* \"#utility.yul\":4943:4950   */\n      dup6\n        /* \"#utility.yul\":4939:4962   */\n      sub\n        /* \"#utility.yul\":4935:4967   */\n      slt\n        /* \"#utility.yul\":4932:5051   */\n      iszero\n      tag_238\n      jumpi\n        /* \"#utility.yul\":4970:5049   */\n      tag_239\n      tag_166\n      jump\t// in\n    tag_239:\n        /* \"#utility.yul\":4932:5051   */\n    tag_238:\n        /* \"#utility.yul\":5090:5091   */\n      0x00\n        /* \"#utility.yul\":5115:5168   */\n      tag_240\n        /* \"#utility.yul\":5160:5167   */\n      dup6\n        /* \"#utility.yul\":5151:5157   */\n      dup3\n        /* \"#utility.yul\":5140:5149   */\n      dup7\n        /* \"#utility.yul\":5136:5158   */\n      add\n        /* \"#utility.yul\":5115:5168   */\n      tag_169\n      jump\t// in\n    tag_240:\n        /* \"#utility.yul\":5105:5168   */\n      swap3\n      pop\n        /* \"#utility.yul\":5061:5178   */\n      pop\n        /* \"#utility.yul\":5217:5219   */\n      0x20\n        /* \"#utility.yul\":5243:5296   */\n      tag_241\n        /* \"#utility.yul\":5288:5295   */\n      dup6\n        /* \"#utility.yul\":5279:5285   */\n      dup3\n        /* \"#utility.yul\":5268:5277   */\n      dup7\n        /* \"#utility.yul\":5264:5286   */\n      add\n        /* \"#utility.yul\":5243:5296   */\n      tag_171\n      jump\t// in\n    tag_241:\n        /* \"#utility.yul\":5233:5296   */\n      swap2\n      pop\n        /* \"#utility.yul\":5188:5306   */\n      pop\n        /* \"#utility.yul\":4839:5313   */\n      swap3\n      pop\n      swap3\n      swap1\n      pop\n      jump\t// out\n        /* \"#utility.yul\":5319:5437   */\n    tag_172:\n        /* \"#utility.yul\":5406:5430   */\n      tag_243\n        /* \"#utility.yul\":5424:5429   */\n      dup2\n        /* \"#utility.yul\":5406:5430   */\n      tag_154\n      jump\t// in\n    tag_243:\n        /* \"#utility.yul\":5401:5404   */\n      dup3\n        /* \"#utility.yul\":5394:5431   */\n      mstore\n        /* \"#utility.yul\":5319:5437   */\n      pop\n      pop\n      jump\t// out\n        /* \"#utility.yul\":5443:5665   */\n    tag_24:\n        /* \"#utility.yul\":5536:5540   */\n      0x00\n        /* \"#utility.yul\":5574:5576   */\n      0x20\n        /* \"#utility.yul\":5563:5572   */\n      dup3\n        /* \"#utility.yul\":5559:5577   */\n      add\n        /* \"#utility.yul\":5551:5577   */\n      swap1\n      pop\n        /* \"#utility.yul\":5587:5658   */\n      tag_245\n        /* \"#utility.yul\":5655:5656   */\n      0x00\n        /* \"#utility.yul\":5644:5653   */\n      dup4\n        /* \"#utility.yul\":5640:5657   */\n      add\n        /* \"#utility.yul\":5631:5637   */\n      dup5\n        /* \"#utility.yul\":5587:5658   */\n      tag_172\n      jump\t// in\n    tag_245:\n        /* \"#utility.yul\":5443:5665   */\n      swap3\n      swap2\n      pop\n      pop\n      jump\t// out\n        /* \"#utility.yul\":5671:6000   */\n    tag_28:\n        /* \"#utility.yul\":5730:5736   */\n      0x00\n        /* \"#utility.yul\":5779:5781   */\n      0x20\n        /* \"#utility.yul\":5767:5776   */\n      dup3\n        /* \"#utility.yul\":5758:5765   */\n      dup5\n        /* \"#utility.yul\":5754:5777   */\n      sub\n        /* \"#utility.yul\":5750:5782   */\n      slt\n        /* \"#utility.yul\":5747:5866   */\n      iszero\n      tag_247\n      jumpi\n        /* \"#utility.yul\":5785:5864   */\n      tag_248\n      tag_166\n      jump\t// in\n    tag_248:\n        /* \"#utility.yul\":5747:5866   */\n    tag_247:\n        /* \"#utility.yul\":5905:5906   */\n      0x00\n        /* \"#utility.yul\":5930:5983   */\n      tag_249\n        /* \"#utility.yul\":5975:5982   */\n      dup5\n        /* \"#utility.yul\":5966:5972   */\n      dup3\n        /* \"#utility.yul\":5955:5964   */\n      dup6\n        /* \"#utility.yul\":5951:5973   */\n      add\n        /* \"#utility.yul\":5930:5983   */\n      tag_171\n      jump\t// in\n    tag_249:\n        /* \"#utility.yul\":5920:5983   */\n      swap2\n      pop\n        /* \"#utility.yul\":5876:5993   */\n      pop\n        /* \"#utility.yul\":5671:6000   */\n      swap3\n      swap2\n      pop\n      pop\n      jump\t// out\n        /* \"#utility.yul\":6006:6124   */\n    tag_173:\n        /* \"#utility.yul\":6093:6117   */\n      tag_251\n        /* \"#utility.yul\":6111:6116   */\n      dup2\n        /* \"#utility.yul\":6093:6117   */\n      tag_157\n      jump\t// in\n    tag_251:\n        /* \"#utility.yul\":6088:6091   */\n      dup3\n        /* \"#utility.yul\":6081:6118   */\n      mstore\n        /* \"#utility.yul\":6006:6124   */\n      pop\n      pop\n      jump\t// out\n        /* \"#utility.yul\":6130:6239   */\n    tag_174:\n        /* \"#utility.yul\":6211:6232   */\n      tag_253\n        /* \"#utility.yul\":6226:6231   */\n      dup2\n        /* \"#utility.yul\":6211:6232   */\n      tag_159\n      jump\t// in\n    tag_253:\n        /* \"#utility.yul\":6206:6209   */\n      dup3\n        /* \"#utility.yul\":6199:6233   */\n      mstore\n        /* \"#utility.yul\":6130:6239   */\n      pop\n      pop\n      jump\t// out\n        /* \"#utility.yul\":6245:6786   */\n    tag_31:\n        /* \"#utility.yul\":6416:6420   */\n      0x00\n        /* \"#utility.yul\":6454:6457   */\n      0x80\n        /* \"#utility.yul\":6443:6452   */\n      dup3\n        /* \"#utility.yul\":6439:6458   */\n      add\n        /* \"#utility.yul\":6431:6458   */\n      swap1\n      pop\n        /* \"#utility.yul\":6468:6539   */\n      tag_255\n        /* \"#utility.yul\":6536:6537   */\n      0x00\n        /* \"#utility.yul\":6525:6534   */\n      dup4\n        /* \"#utility.yul\":6521:6538   */\n      add\n        /* \"#utility.yul\":6512:6518   */\n      dup8\n        /* \"#utility.yul\":6468:6539   */\n      tag_172\n      jump\t// in\n    tag_255:\n        /* \"#utility.yul\":6549:6621   */\n      tag_256\n        /* \"#utility.yul\":6617:6619   */\n      0x20\n        /* \"#utility.yul\":6606:6615   */\n      dup4\n        /* \"#utility.yul\":6602:6620   */\n      add\n        /* \"#utility.yul\":6593:6599   */\n      dup7\n        /* \"#utility.yul\":6549:6621   */\n      tag_173\n      jump\t// in\n    tag_256:\n        /* \"#utility.yul\":6631:6703   */\n      tag_257\n        /* \"#utility.yul\":6699:6701   */\n      0x40\n        /* \"#utility.yul\":6688:6697   */\n      dup4\n        /* \"#utility.yul\":6684:6702   */\n      add\n        /* \"#utility.yul\":6675:6681   */\n      dup6\n        /* \"#utility.yul\":6631:6703   */\n      tag_172\n      jump\t// in\n    tag_257:\n        /* \"#utility.yul\":6713:6779   */\n      tag_258\n        /* \"#utility.yul\":6775:6777   */\n      0x60\n        /* \"#utility.yul\":6764:6773   */\n      dup4\n        /* \"#utility.yul\":6760:6778   */\n      add\n        /* \"#utility.yul\":6751:6757   */\n      dup5\n        /* \"#utility.yul\":6713:6779   */\n      tag_174\n      jump\t// in\n    tag_258:\n        /* \"#utility.yul\":6245:6786   */\n      swap6\n      swap5\n      pop\n      pop\n      pop\n      pop\n      pop\n      jump\t// out\n        /* \"#utility.yul\":6792:7266   */\n    tag_38:\n        /* \"#utility.yul\":6860:6866   */\n      0x00\n        /* \"#utility.yul\":6868:6874   */\n      0x00\n        /* \"#utility.yul\":6917:6919   */\n      0x40\n        /* \"#utility.yul\":6905:6914   */\n      dup4\n        /* \"#utility.yul\":6896:6903   */\n      dup6\n        /* \"#utility.yul\":6892:6915   */\n      sub\n        /* \"#utility.yul\":6888:6920   */\n      slt\n        /* \"#utility.yul\":6885:7004   */\n      iszero\n      tag_260\n      jumpi\n        /* \"#utility.yul\":6923:7002   */\n      tag_261\n      tag_166\n      jump\t// in\n    tag_261:\n        /* \"#utility.yul\":6885:7004   */\n    tag_260:\n        /* \"#utility.yul\":7043:7044   */\n      0x00\n        /* \"#utility.yul\":7068:7121   */\n      tag_262\n        /* \"#utility.yul\":7113:7120   */\n      dup6\n        /* \"#utility.yul\":7104:7110   */\n      dup3\n        /* \"#utility.yul\":7093:7102   */\n      dup7\n        /* \"#utility.yul\":7089:7111   */\n      add\n        /* \"#utility.yul\":7068:7121   */\n      tag_171\n      jump\t// in\n    tag_262:\n        /* \"#utility.yul\":7058:7121   */\n      swap3\n      pop\n        /* \"#utility.yul\":7014:7131   */\n      pop\n        /* \"#utility.yul\":7170:7172   */\n      0x20\n        /* \"#utility.yul\":7196:7249   */\n      tag_263\n        /* \"#utility.yul\":7241:7248   */\n      dup6\n        /* \"#utility.yul\":7232:7238   */\n      dup3\n        /* \"#utility.yul\":7221:7230   */\n      dup7\n        /* \"#utility.yul\":7217:7239   */\n      add\n        /* \"#utility.yul\":7196:7249   */\n      tag_171\n      jump\t// in\n    tag_263:\n        /* \"#utility.yul\":7186:7249   */\n      swap2\n      pop\n        /* \"#utility.yul\":7141:7259   */\n      pop\n        /* \"#utility.yul\":6792:7266   */\n      swap3\n      pop\n      swap3\n      swap1\n      pop\n      jump\t// out\n        /* \"#utility.yul\":7272:7452   */\n    tag_50:\n        /* \"#utility.yul\":7320:7397   */\n      0x4e487b7100000000000000000000000000000000000000000000000000000000\n        /* \"#utility.yul\":7317:7318   */\n      0x00\n        /* \"#utility.yul\":7310:7398   */\n      mstore\n        /* \"#utility.yul\":7417:7421   */\n      0x32\n        /* \"#utility.yul\":7414:7415   */\n      0x04\n        /* \"#utility.yul\":7407:7422   */\n      mstore\n        /* \"#utility.yul\":7441:7445   */\n      0x24\n        /* \"#utility.yul\":7438:7439   */\n      0x00\n        /* \"#utility.yul\":7431:7446   */\n      revert\n        /* \"#utility.yul\":7458:7638   */\n    tag_175:\n        /* \"#utility.yul\":7506:7583   */\n      0x4e487b7100000000000000000000000000000000000000000000000000000000\n        /* \"#utility.yul\":7503:7504   */\n      0x00\n        /* \"#utility.yul\":7496:7584   */\n      mstore\n        /* \"#utility.yul\":7603:7607   */\n      0x11\n        /* \"#utility.yul\":7600:7601   */\n      0x04\n        /* \"#utility.yul\":7593:7608   */\n      mstore\n        /* \"#utility.yul\":7627:7631   */\n      0x24\n        /* \"#utility.yul\":7624:7625   */\n      0x00\n        /* \"#utility.yul\":7617:7632   */\n      revert\n        /* \"#utility.yul\":7644:7877   */\n    tag_54:\n        /* \"#utility.yul\":7683:7686   */\n      0x00\n        /* \"#utility.yul\":7706:7730   */\n      tag_267\n        /* \"#utility.yul\":7724:7729   */\n      dup3\n        /* \"#utility.yul\":7706:7730   */\n      tag_154\n      jump\t// in\n    tag_267:\n        /* \"#utility.yul\":7697:7730   */\n      swap2\n      pop\n        /* \"#utility.yul\":7752:7818   */\n      0xffffffffffffffffffffffffffffffffffffffffffffffffffffffffffffffff\n        /* \"#utility.yul\":7745:7750   */\n      dup3\n        /* \"#utility.yul\":7742:7819   */\n      sub\n        /* \"#utility.yul\":7739:7842   */\n      tag_268\n      jumpi\n        /* \"#utility.yul\":7822:7840   */\n      tag_269\n      tag_175\n      jump\t// in\n    tag_269:\n        /* \"#utility.yul\":7739:7842   */\n    tag_268:\n        /* \"#utility.yul\":7869:7870   */\n      0x01\n        /* \"#utility.yul\":7862:7867   */\n      dup3\n        /* \"#utility.yul\":7858:7871   */\n      add\n        /* \"#utility.yul\":7851:7871   */\n      swap1\n      pop\n        /* \"#utility.yul\":7644:7877   */\n      swap2\n      swap1\n      pop\n      jump\t// out\n        /* \"#utility.yul\":7883:8063   */\n    tag_57:\n        /* \"#utility.yul\":7931:8008   */\n      0x4e487b7100000000000000000000000000000000000000000000000000000000\n        /* \"#utility.yul\":7928:7929   */\n      0x00\n        /* \"#utility.yul\":7921:8009   */\n      mstore\n        /* \"#utility.yul\":8028:8032   */\n      0x41\n        /* \"#utility.yul\":8025:8026   */\n      0x04\n        /* \"#utility.yul\":8018:8033   */\n      mstore\n        /* \"#utility.yul\":8052:8056   */\n      0x24\n        /* \"#utility.yul\":8049:8050   */\n      0x00\n        /* \"#utility.yul\":8042:8057   */\n      revert\n        /* \"#utility.yul\":8069:8401   */\n    tag_79:\n        /* \"#utility.yul\":8190:8194   */\n      0x00\n        /* \"#utility.yul\":8228:8230   */\n      0x40\n        /* \"#utility.yul\":8217:8226   */\n      dup3\n        /* \"#utility.yul\":8213:8231   */\n      add\n        /* \"#utility.yul\":8205:8231   */\n      swap1\n      pop\n        /* \"#utility.yul\":8241:8312   */\n      tag_272\n        /* \"#utility.yul\":8309:8310   */\n      0x00\n        /* \"#utility.yul\":8298:8307   */\n      dup4\n        /* \"#utility.yul\":8294:8311   */\n      add\n        /* \"#utility.yul\":8285:8291   */\n      dup6\n        /* \"#utility.yul\":8241:8312   */\n      tag_172\n      jump\t// in\n    tag_272:\n        /* \"#utility.yul\":8322:8394   */\n      tag_273\n        /* \"#utility.yul\":8390:8392   */\n      0x20\n        /* \"#utility.yul\":8379:8388   */\n      dup4\n        /* \"#utility.yul\":8375:8393   */\n      add\n        /* \"#utility.yul\":8366:8372   */\n      dup5\n        /* \"#utility.yul\":8322:8394   */\n      tag_173\n      jump\t// in\n    tag_273:\n        /* \"#utility.yul\":8069:8401   */\n      swap4\n      swap3\n      pop\n      pop\n      pop\n      jump\t// out\n        /* \"#utility.yul\":8407:8576   */\n    tag_176:\n        /* \"#utility.yul\":8491:8502   */\n      0x00\n        /* \"#utility.yul\":8525:8531   */\n      dup3\n        /* \"#utility.yul\":8520:8523   */\n      dup3\n        /* \"#utility.yul\":8513:8532   */\n      mstore\n        /* \"#utility.yul\":8565:8569   */\n      0x20\n        /* \"#utility.yul\":8560:8563   */\n      dup3\n        /* \"#utility.yul\":8556:8570   */\n      add\n        /* \"#utility.yul\":8541:8570   */\n      swap1\n      pop\n        /* \"#utility.yul\":8407:8576   */\n      swap3\n      swap2\n      pop\n      pop\n      jump\t// out\n        /* \"#utility.yul\":8582:8748   */\n    tag_177:\n        /* \"#utility.yul\":8722:8740   */\n      0x4e4654206e6f7420666f722073616c6500000000000000000000000000000000\n        /* \"#utility.yul\":8718:8719   */\n      0x00\n        /* \"#utility.yul\":8710:8716   */\n      dup3\n        /* \"#utility.yul\":8706:8720   */\n      add\n        /* \"#utility.yul\":8699:8741   */\n      mstore\n        /* \"#utility.yul\":8582:8748   */\n      pop\n      jump\t// out\n        /* \"#utility.yul\":8754:9120   */\n    tag_178:\n        /* \"#utility.yul\":8896:8899   */\n      0x00\n        /* \"#utility.yul\":8917:8984   */\n      tag_277\n        /* \"#utility.yul\":8981:8983   */\n      0x10\n        /* \"#utility.yul\":8976:8979   */\n      dup4\n        /* \"#utility.yul\":8917:8984   */\n      tag_176\n      jump\t// in\n    tag_277:\n        /* \"#utility.yul\":8910:8984   */\n      swap2\n      pop\n        /* \"#utility.yul\":8993:9086   */\n      tag_278\n        /* \"#utility.yul\":9082:9085   */\n      dup3\n        /* \"#utility.yul\":8993:9086   */\n      tag_177\n      jump\t// in\n    tag_278:\n        /* \"#utility.yul\":9111:9113   */\n      0x20\n        /* \"#utility.yul\":9106:9109   */\n      dup3\n        /* \"#utility.yul\":9102:9114   */\n      add\n        /* \"#utility.yul\":9095:9114   */\n      swap1\n      pop\n        /* \"#utility.yul\":8754:9120   */\n      swap2\n      swap1\n      pop\n      jump\t// out\n        /* \"#utility.yul\":9126:9545   */\n    tag_90:\n        /* \"#utility.yul\":9292:9296   */\n      0x00\n        /* \"#utility.yul\":9330:9332   */\n      0x20\n        /* \"#utility.yul\":9319:9328   */\n      dup3\n        /* \"#utility.yul\":9315:9333   */\n      add\n        /* \"#utility.yul\":9307:9333   */\n      swap1\n      pop\n        /* \"#utility.yul\":9379:9388   */\n      dup2\n        /* \"#utility.yul\":9373:9377   */\n      dup2\n        /* \"#utility.yul\":9369:9389   */\n      sub\n        /* \"#utility.yul\":9365:9366   */\n      0x00\n        /* \"#utility.yul\":9354:9363   */\n      dup4\n        /* \"#utility.yul\":9350:9367   */\n      add\n        /* \"#utility.yul\":9343:9390   */\n      mstore\n        /* \"#utility.yul\":9407:9538   */\n      tag_280\n        /* \"#utility.yul\":9533:9537   */\n      dup2\n        /* \"#utility.yul\":9407:9538   */\n      tag_178\n      jump\t// in\n    tag_280:\n        /* \"#utility.yul\":9399:9538   */\n      swap1\n      pop\n        /* \"#utility.yul\":9126:9545   */\n      swap2\n      swap1\n      pop\n      jump\t// out\n        /* \"#utility.yul\":9551:9719   */\n    tag_179:\n        /* \"#utility.yul\":9691:9711   */\n      0x496e73756666696369656e742066756e64730000000000000000000000000000\n        /* \"#utility.yul\":9687:9688   */\n      0x00\n        /* \"#utility.yul\":9679:9685   */\n      dup3\n        /* \"#utility.yul\":9675:9689   */\n      add\n        /* \"#utility.yul\":9668:9712   */\n      mstore\n        /* \"#utility.yul\":9551:9719   */\n      pop\n      jump\t// out\n        /* \"#utility.yul\":9725:10091   */\n    tag_180:\n        /* \"#utility.yul\":9867:9870   */\n      0x00\n        /* \"#utility.yul\":9888:9955   */\n      tag_283\n        /* \"#utility.yul\":9952:9954   */\n      0x12\n        /* \"#utility.yul\":9947:9950   */\n      dup4\n        /* \"#utility.yul\":9888:9955   */\n      tag_176\n      jump\t// in\n    tag_283:\n        /* \"#utility.yul\":9881:9955   */\n      swap2\n      pop\n        /* \"#utility.yul\":9964:10057   */\n      tag_284\n        /* \"#utility.yul\":10053:10056   */\n      dup3\n        /* \"#utility.yul\":9964:10057   */\n      tag_179\n      jump\t// in\n    tag_284:\n        /* \"#utility.yul\":10082:10084   */\n      0x20\n        /* \"#utility.yul\":10077:10080   */\n      dup3\n        /* \"#utility.yul\":10073:10085   */\n      add\n        /* \"#utility.yul\":10066:10085   */\n      swap1\n      pop\n        /* \"#utility.yul\":9725:10091   */\n      swap2\n      swap1\n      pop\n      jump\t// out\n        /* \"#utility.yul\":10097:10516   */\n    tag_93:\n        /* \"#utility.yul\":10263:10267   */\n      0x00\n        /* \"#utility.yul\":10301:10303   */\n      0x20\n        /* \"#utility.yul\":10290:10299   */\n      dup3\n        /* \"#utility.yul\":10286:10304   */\n      add\n        /* \"#utility.yul\":10278:10304   */\n      swap1\n      pop\n        /* \"#utility.yul\":10350:10359   */\n      dup2\n        /* \"#utility.yul\":10344:10348   */\n      dup2\n        /* \"#utility.yul\":10340:10360   */\n      sub\n        /* \"#utility.yul\":10336:10337   */\n      0x00\n        /* \"#utility.yul\":10325:10334   */\n      dup4\n        /* \"#utility.yul\":10321:10338   */\n      add\n        /* \"#utility.yul\":10314:10361   */\n      mstore\n        /* \"#utility.yul\":10378:10509   */\n      tag_286\n        /* \"#utility.yul\":10504:10508   */\n      dup2\n        /* \"#utility.yul\":10378:10509   */\n      tag_180\n      jump\t// in\n    tag_286:\n        /* \"#utility.yul\":10370:10509   */\n      swap1\n      pop\n        /* \"#utility.yul\":10097:10516   */\n      swap2\n      swap1\n      pop\n      jump\t// out\n        /* \"#utility.yul\":10522:10716   */\n    tag_102:\n        /* \"#utility.yul\":10562:10566   */\n      0x00\n        /* \"#utility.yul\":10582:10602   */\n      tag_288\n        /* \"#utility.yul\":10600:10601   */\n      dup3\n        /* \"#utility.yul\":10582:10602   */\n      tag_154\n      jump\t// in\n    tag_288:\n        /* \"#utility.yul\":10577:10602   */\n      swap2\n      pop\n        /* \"#utility.yul\":10616:10636   */\n      tag_289\n        /* \"#utility.yul\":10634:10635   */\n      dup4\n        /* \"#utility.yul\":10616:10636   */\n      tag_154\n      jump\t// in\n    tag_289:\n        /* \"#utility.yul\":10611:10636   */\n      swap3\n      pop\n        /* \"#utility.yul\":10660:10661   */\n      dup3\n        /* \"#utility.yul\":10657:10658   */\n      dup3\n        /* \"#utility.yul\":10653:10662   */\n      sub\n        /* \"#utility.yul\":10645:10662   */\n      swap1\n      pop\n        /* \"#utility.yul\":10684:10685   */\n      dup2\n        /* \"#utility.yul\":10678:10682   */\n      dup2\n        /* \"#utility.yul\":10675:10686   */\n      gt\n        /* \"#utility.yul\":10672:10709   */\n      iszero\n      tag_290\n      jumpi\n        /* \"#utility.yul\":10689:10707   */\n      tag_291\n      tag_175\n      jump\t// in\n    tag_291:\n        /* \"#utility.yul\":10672:10709   */\n    tag_290:\n        /* \"#utility.yul\":10522:10716   */\n      swap3\n      swap2\n      pop\n      pop\n      jump\t// out\n        /* \"#utility.yul\":10722:10902   */\n    tag_111:\n        /* \"#utility.yul\":10770:10847   */\n      0x4e487b7100000000000000000000000000000000000000000000000000000000\n        /* \"#utility.yul\":10767:10768   */\n      0x00\n        /* \"#utility.yul\":10760:10848   */\n      mstore\n        /* \"#utility.yul\":10867:10871   */\n      0x31\n        /* \"#utility.yul\":10864:10865   */\n      0x04\n        /* \"#utility.yul\":10857:10872   */\n      mstore\n        /* \"#utility.yul\":10891:10895   */\n      0x24\n        /* \"#utility.yul\":10888:10889   */\n      0x00\n        /* \"#utility.yul\":10881:10896   */\n      revert\n        /* \"#utility.yul\":10908:11055   */\n    tag_181:\n        /* \"#utility.yul\":11009:11020   */\n      0x00\n        /* \"#utility.yul\":11046:11049   */\n      dup2\n        /* \"#utility.yul\":11031:11049   */\n      swap1\n      pop\n        /* \"#utility.yul\":10908:11055   */\n      swap3\n      swap2\n      pop\n      pop\n      jump\t// out\n        /* \"#utility.yul\":11061:11175   */\n    tag_182:\n      pop\n      jump\t// out\n        /* \"#utility.yul\":11181:11579   */\n    tag_183:\n        /* \"#utility.yul\":11340:11343   */\n      0x00\n        /* \"#utility.yul\":11361:11444   */\n      tag_296\n        /* \"#utility.yul\":11442:11443   */\n      0x00\n        /* \"#utility.yul\":11437:11440   */\n      dup4\n        /* \"#utility.yul\":11361:11444   */\n      tag_181\n      jump\t// in\n    tag_296:\n        /* \"#utility.yul\":11354:11444   */\n      swap2\n      pop\n        /* \"#utility.yul\":11453:11546   */\n      tag_297\n        /* \"#utility.yul\":11542:11545   */\n      dup3\n        /* \"#utility.yul\":11453:11546   */\n      tag_182\n      jump\t// in\n    tag_297:\n        /* \"#utility.yul\":11571:11572   */\n      0x00\n        /* \"#utility.yul\":11566:11569   */\n      dup3\n        /* \"#utility.yul\":11562:11573   */\n      add\n        /* \"#utility.yul\":11555:11573   */\n      swap1\n      pop\n        /* \"#utility.yul\":11181:11579   */\n      swap2\n      swap1\n      pop\n      jump\t// out\n        /* \"#utility.yul\":11585:11964   */\n    tag_115:\n        /* \"#utility.yul\":11769:11772   */\n      0x00\n        /* \"#utility.yul\":11791:11938   */\n      tag_299\n        /* \"#utility.yul\":11934:11937   */\n      dup3\n        /* \"#utility.yul\":11791:11938   */\n      tag_183\n      jump\t// in\n    tag_299:\n        /* \"#utility.yul\":11784:11938   */\n      swap2\n      pop\n        /* \"#utility.yul\":11955:11958   */\n      dup2\n        /* \"#utility.yul\":11948:11958   */\n      swap1\n      pop\n        /* \"#utility.yul\":11585:11964   */\n      swap2\n      swap1\n      pop\n      jump\t// out\n        /* \"#utility.yul\":11970:12140   */\n    tag_184:\n        /* \"#utility.yul\":12110:12132   */\n      0x4661696c656420746f2073656e64204574686572000000000000000000000000\n        /* \"#utility.yul\":12106:12107   */\n      0x00\n        /* \"#utility.yul\":12098:12104   */\n      dup3\n        /* \"#utility.yul\":12094:12108   */\n      add\n        /* \"#utility.yul\":12087:12133   */\n      mstore\n        /* \"#utility.yul\":11970:12140   */\n      pop\n      jump\t// out\n        /* \"#utility.yul\":12146:12512   */\n    tag_185:\n        /* \"#utility.yul\":12288:12291   */\n      0x00\n        /* \"#utility.yul\":12309:12376   */\n      tag_302\n        /* \"#utility.yul\":12373:12375   */\n      0x14\n        /* \"#utility.yul\":12368:12371   */\n      dup4\n        /* \"#utility.yul\":12309:12376   */\n      tag_176\n      jump\t// in\n    tag_302:\n        /* \"#utility.yul\":12302:12376   */\n      swap2\n      pop\n        /* \"#utility.yul\":12385:12478   */\n      tag_303\n        /* \"#utility.yul\":12474:12477   */\n      dup3\n        /* \"#utility.yul\":12385:12478   */\n      tag_184\n      jump\t// in\n    tag_303:\n        /* \"#utility.yul\":12503:12505   */\n      0x20\n        /* \"#utility.yul\":12498:12501   */\n      dup3\n        /* \"#utility.yul\":12494:12506   */\n      add\n        /* \"#utility.yul\":12487:12506   */\n      swap1\n      pop\n        /* \"#utility.yul\":12146:12512   */\n      swap2\n      swap1\n      pop\n      jump\t// out\n        /* \"#utility.yul\":12518:12937   */\n    tag_121:\n        /* \"#utility.yul\":12684:12688   */\n      0x00\n        /* \"#utility.yul\":12722:12724   */\n      0x20\n        /* \"#utility.yul\":12711:12720   */\n      dup3\n        /* \"#utility.yul\":12707:12725   */\n      add\n        /* \"#utility.yul\":12699:12725   */\n      swap1\n      pop\n        /* \"#utility.yul\":12771:12780   */\n      dup2\n        /* \"#utility.yul\":12765:12769   */\n      dup2\n        /* \"#utility.yul\":12761:12781   */\n      sub\n        /* \"#utility.yul\":12757:12758   */\n      0x00\n        /* \"#utility.yul\":12746:12755   */\n      dup4\n        /* \"#utility.yul\":12742:12759   */\n      add\n        /* \"#utility.yul\":12735:12782   */\n      mstore\n        /* \"#utility.yul\":12799:12930   */\n      tag_305\n        /* \"#utility.yul\":12925:12929   */\n      dup2\n        /* \"#utility.yul\":12799:12930   */\n      tag_185\n      jump\t// in\n    tag_305:\n        /* \"#utility.yul\":12791:12930   */\n      swap1\n      pop\n        /* \"#utility.yul\":12518:12937   */\n      swap2\n      swap1\n      pop\n      jump\t// out\n        /* \"#utility.yul\":12943:13385   */\n    tag_123:\n        /* \"#utility.yul\":13092:13096   */\n      0x00\n        /* \"#utility.yul\":13130:13132   */\n      0x60\n        /* \"#utility.yul\":13119:13128   */\n      dup3\n        /* \"#utility.yul\":13115:13133   */\n      add\n        /* \"#utility.yul\":13107:13133   */\n      swap1\n      pop\n        /* \"#utility.yul\":13143:13214   */\n      tag_307\n        /* \"#utility.yul\":13211:13212   */\n      0x00\n        /* \"#utility.yul\":13200:13209   */\n      dup4\n        /* \"#utility.yul\":13196:13213   */\n      add\n        /* \"#utility.yul\":13187:13193   */\n      dup7\n        /* \"#utility.yul\":13143:13214   */\n      tag_172\n      jump\t// in\n    tag_307:\n        /* \"#utility.yul\":13224:13296   */\n      tag_308\n        /* \"#utility.yul\":13292:13294   */\n      0x20\n        /* \"#utility.yul\":13281:13290   */\n      dup4\n        /* \"#utility.yul\":13277:13295   */\n      add\n        /* \"#utility.yul\":13268:13274   */\n      dup6\n        /* \"#utility.yul\":13224:13296   */\n      tag_173\n      jump\t// in\n    tag_308:\n        /* \"#utility.yul\":13306:13378   */\n      tag_309\n        /* \"#utility.yul\":13374:13376   */\n      0x40\n        /* \"#utility.yul\":13363:13372   */\n      dup4\n        /* \"#utility.yul\":13359:13377   */\n      add\n        /* \"#utility.yul\":13350:13356   */\n      dup5\n        /* \"#utility.yul\":13306:13378   */\n      tag_172\n      jump\t// in\n    tag_309:\n        /* \"#utility.yul\":12943:13385   */\n      swap5\n      swap4\n      pop\n      pop\n      pop\n      pop\n      jump\t// out\n        /* \"#utility.yul\":13391:13569   */\n    tag_186:\n        /* \"#utility.yul\":13531:13561   */\n      0x5072696365206d7573742062652067726561746572207468616e203000000000\n        /* \"#utility.yul\":13527:13528   */\n      0x00\n        /* \"#utility.yul\":13519:13525   */\n      dup3\n        /* \"#utility.yul\":13515:13529   */\n      add\n        /* \"#utility.yul\":13508:13562   */\n      mstore\n        /* \"#utility.yul\":13391:13569   */\n      pop\n      jump\t// out\n        /* \"#utility.yul\":13575:13941   */\n    tag_187:\n        /* \"#utility.yul\":13717:13720   */\n      0x00\n        /* \"#utility.yul\":13738:13805   */\n      tag_312\n        /* \"#utility.yul\":13802:13804   */\n      0x1c\n        /* \"#utility.yul\":13797:13800   */\n      dup4\n        /* \"#utility.yul\":13738:13805   */\n      tag_176\n      jump\t// in\n    tag_312:\n        /* \"#utility.yul\":13731:13805   */\n      swap2\n      pop\n        /* \"#utility.yul\":13814:13907   */\n      tag_313\n        /* \"#utility.yul\":13903:13906   */\n      dup3\n        /* \"#utility.yul\":13814:13907   */\n      tag_186\n      jump\t// in\n    tag_313:\n        /* \"#utility.yul\":13932:13934   */\n      0x20\n        /* \"#utility.yul\":13927:13930   */\n      dup3\n        /* \"#utility.yul\":13923:13935   */\n      add\n        /* \"#utility.yul\":13916:13935   */\n      swap1\n      pop\n        /* \"#utility.yul\":13575:13941   */\n      swap2\n      swap1\n      pop\n      jump\t// out\n        /* \"#utility.yul\":13947:14366   */\n    tag_127:\n        /* \"#utility.yul\":14113:14117   */\n      0x00\n        /* \"#utility.yul\":14151:14153   */\n      0x20\n        /* \"#utility.yul\":14140:14149   */\n      dup3\n        /* \"#utility.yul\":14136:14154   */\n      add\n        /* \"#utility.yul\":14128:14154   */\n      swap1\n      pop\n        /* \"#utility.yul\":14200:14209   */\n      dup2\n        /* \"#utility.yul\":14194:14198   */\n      dup2\n        /* \"#utility.yul\":14190:14210   */\n      sub\n        /* \"#utility.yul\":14186:14187   */\n      0x00\n        /* \"#utility.yul\":14175:14184   */\n      dup4\n        /* \"#utility.yul\":14171:14188   */\n      add\n        /* \"#utility.yul\":14164:14211   */\n      mstore\n        /* \"#utility.yul\":14228:14359   */\n      tag_315\n        /* \"#utility.yul\":14354:14358   */\n      dup2\n        /* \"#utility.yul\":14228:14359   */\n      tag_187\n      jump\t// in\n    tag_315:\n        /* \"#utility.yul\":14220:14359   */\n      swap1\n      pop\n        /* \"#utility.yul\":13947:14366   */\n      swap2\n      swap1\n      pop\n      jump\t// out\n        /* \"#utility.yul\":14372:14535   */\n    tag_188:\n        /* \"#utility.yul\":14512:14527   */\n      0x4e6f7420746865206f776e657200000000000000000000000000000000000000\n        /* \"#utility.yul\":14508:14509   */\n      0x00\n        /* \"#utility.yul\":14500:14506   */\n      dup3\n        /* \"#utility.yul\":14496:14510   */\n      add\n        /* \"#utility.yul\":14489:14528   */\n      mstore\n        /* \"#utility.yul\":14372:14535   */\n      pop\n      jump\t// out\n        /* \"#utility.yul\":14541:14907   */\n    tag_189:\n        /* \"#utility.yul\":14683:14686   */\n      0x00\n        /* \"#utility.yul\":14704:14771   */\n      tag_318\n        /* \"#utility.yul\":14768:14770   */\n      0x0d\n        /* \"#utility.yul\":14763:14766   */\n      dup4\n        /* \"#utility.yul\":14704:14771   */\n      tag_176\n      jump\t// in\n    tag_318:\n        /* \"#utility.yul\":14697:14771   */\n      swap2\n      pop\n        /* \"#utility.yul\":14780:14873   */\n      tag_319\n        /* \"#utility.yul\":14869:14872   */\n      dup3\n        /* \"#utility.yul\":14780:14873   */\n      tag_188\n      jump\t// in\n    tag_319:\n        /* \"#utility.yul\":14898:14900   */\n      0x20\n        /* \"#utility.yul\":14893:14896   */\n      dup3\n        /* \"#utility.yul\":14889:14901   */\n      add\n        /* \"#utility.yul\":14882:14901   */\n      swap1\n      pop\n        /* \"#utility.yul\":14541:14907   */\n      swap2\n      swap1\n      pop\n      jump\t// out\n        /* \"#utility.yul\":14913:15332   */\n    tag_133:\n        /* \"#utility.yul\":15079:15083   */\n      0x00\n        /* \"#utility.yul\":15117:15119   */\n      0x20\n        /* \"#utility.yul\":15106:15115   */\n      dup3\n        /* \"#utility.yul\":15102:15120   */\n      add\n        /* \"#utility.yul\":15094:15120   */\n      swap1\n      pop\n        /* \"#utility.yul\":15166:15175   */\n      dup2\n        /* \"#utility.yul\":15160:15164   */\n      dup2\n        /* \"#utility.yul\":15156:15176   */\n      sub\n        /* \"#utility.yul\":15152:15153   */\n      0x00\n        /* \"#utility.yul\":15141:15150   */\n      dup4\n        /* \"#utility.yul\":15137:15154   */\n      add\n        /* \"#utility.yul\":15130:15177   */\n      mstore\n        /* \"#utility.yul\":15194:15325   */\n      tag_321\n        /* \"#utility.yul\":15320:15324   */\n      dup2\n        /* \"#utility.yul\":15194:15325   */\n      tag_189\n      jump\t// in\n    tag_321:\n        /* \"#utility.yul\":15186:15325   */\n      swap1\n      pop\n        /* \"#utility.yul\":14913:15332   */\n      swap2\n      swap1\n      pop\n      jump\t// out\n        /* \"#utility.yul\":15338:15670   */\n    tag_141:\n        /* \"#utility.yul\":15459:15463   */\n      0x00\n        /* \"#utility.yul\":15497:15499   */\n      0x40\n        /* \"#utility.yul\":15486:15495   */\n      dup3\n        /* \"#utility.yul\":15482:15500   */\n      add\n        /* \"#utility.yul\":15474:15500   */\n      swap1\n      pop\n        /* \"#utility.yul\":15510:15581   */\n      tag_323\n        /* \"#utility.yul\":15578:15579   */\n      0x00\n        /* \"#utility.yul\":15567:15576   */\n      dup4\n        /* \"#utility.yul\":15563:15580   */\n      add\n        /* \"#utility.yul\":15554:15560   */\n      dup6\n        /* \"#utility.yul\":15510:15581   */\n      tag_172\n      jump\t// in\n    tag_323:\n        /* \"#utility.yul\":15591:15663   */\n      tag_324\n        /* \"#utility.yul\":15659:15661   */\n      0x20\n        /* \"#utility.yul\":15648:15657   */\n      dup4\n        /* \"#utility.yul\":15644:15662   */\n      add\n        /* \"#utility.yul\":15635:15641   */\n      dup5\n        /* \"#utility.yul\":15591:15663   */\n      tag_172\n      jump\t// in\n    tag_324:\n        /* \"#utility.yul\":15338:15670   */\n      swap4\n      swap3\n      pop\n      pop\n      pop\n      jump\t// out\n\n    auxdata: 0xa264697066735822122097ab585b3faed229308a4f96765ad66b56629c92636003d35dfef2136d302ec864736f6c634300081f0033\n}\n",
				"bytecode": {
					"linkReferences": {},
					"object": "6080604052348015600e575f5ffd5b506114518061001c5f395ff3fe60806040526004361061006f575f3560e01c8063265aa6211161004d578063265aa621146100ef57806351ed82881461012e57806394383f141461014a578063cb917b9c146101725761006f565b8063012386f01461007357806314f710fe1461009d5780631a72b87d146100b3575b5f5ffd5b34801561007e575f5ffd5b5061008761019a565b6040516100949190610e69565b60405180910390f35b3480156100a8575f5ffd5b506100b1610392565b005b3480156100be575f5ffd5b506100d960048036038101906100d49190610ee1565b610510565b6040516100e69190610f2e565b60405180910390f35b3480156100fa575f5ffd5b5061011560048036038101906101109190610f47565b61053b565b6040516101259493929190610f90565b60405180910390f35b61014860048036038101906101439190610f47565b6105a0565b005b348015610155575f5ffd5b50610170600480360381019061016b9190610fd3565b610a47565b005b34801561017d575f5ffd5b5061019860048036038101906101939190610f47565b610bd6565b005b60605f5f90505f5f90505b5f80549050811015610201575f81815481106101c4576101c3611011565b5b905f5260205f2090600402016003015f9054906101000a900460ff16156101f45781806101f09061106b565b9250505b80806001019150506101a5565b505f8167ffffffffffffffff81111561021d5761021c6110b2565b5b60405190808252806020026020018201604052801561025657816020015b610243610cc1565b81526020019060019003908161023b5790505b5090505f5f90505f5f90505b5f80549050811015610388575f818154811061028157610280611011565b5b905f5260205f2090600402016003015f9054906101000a900460ff161561037b575f81815481106102b5576102b4611011565b5b905f5260205f2090600402016040518060800160405290815f8201548152602001600182015f9054906101000a900473ffffffffffffffffffffffffffffffffffffffff1673ffffffffffffffffffffffffffffffffffffffff1673ffffffffffffffffffffffffffffffffffffffff16815260200160028201548152602001600382015f9054906101000a900460ff16151515158152505083838151811061036157610360611011565b5b602002602001018190525081806103779061106b565b9250505b8080600101915050610262565b5081935050505090565b5f5f8054905090505f60405180608001604052808381526020013373ffffffffffffffffffffffffffffffffffffffff1681526020015f81526020015f1515815250908060018154018082558091505060019003905f5260205f2090600402015f909190919091505f820151815f01556020820151816001015f6101000a81548173ffffffffffffffffffffffffffffffffffffffff021916908373ffffffffffffffffffffffffffffffffffffffff160217905550604082015181600201556060820151816003015f6101000a81548160ff021916908315150217905550505060015f3373ffffffffffffffffffffffffffffffffffffffff1673ffffffffffffffffffffffffffffffffffffffff1681526020019081526020015f2081908060018154018082558091505060019003905f5260205f20015f90919091909150557fbe4d5028ecb11dfb1cbc0c1dd7eed270db43c11a50da18fceb823c9af57a2a7881336040516105059291906110df565b60405180910390a150565b6001602052815f5260405f208181548110610529575f80fd5b905f5260205f20015f91509150505481565b5f8181548110610549575f80fd5b905f5260205f2090600402015f91509050805f015490806001015f9054906101000a900473ffffffffffffffffffffffffffffffffffffffff1690806002015490806003015f9054906101000a900460ff16905084565b5f5f82815481106105b4576105b3611011565b5b905f5260205f2090600402019050806003015f9054906101000a900460ff16610612576040517f08c379a000000000000000000000000000000000000000000000000000000000815260040161060990611160565b60405180910390fd5b8060020154341015610659576040517f08c379a0000000000000000000000000000000000000000000000000000000008152600401610650906111c8565b60405180910390fd5b5f816001015f9054906101000a900473ffffffffffffffffffffffffffffffffffffffff16905033826001015f6101000a81548173ffffffffffffffffffffffffffffffffffffffff021916908373ffffffffffffffffffffffffffffffffffffffff1602179055505f826003015f6101000a81548160ff0219169083151502179055505f5f90505b60015f8373ffffffffffffffffffffffffffffffffffffffff1673ffffffffffffffffffffffffffffffffffffffff1681526020019081526020015f20805490508110156108f8578360015f8473ffffffffffffffffffffffffffffffffffffffff1673ffffffffffffffffffffffffffffffffffffffff1681526020019081526020015f20828154811061077a57610779611011565b5b905f5260205f200154036108eb5760015f8373ffffffffffffffffffffffffffffffffffffffff1673ffffffffffffffffffffffffffffffffffffffff1681526020019081526020015f206001805f8573ffffffffffffffffffffffffffffffffffffffff1673ffffffffffffffffffffffffffffffffffffffff1681526020019081526020015f208054905061081191906111e6565b8154811061082257610821611011565b5b905f5260205f20015460015f8473ffffffffffffffffffffffffffffffffffffffff1673ffffffffffffffffffffffffffffffffffffffff1681526020019081526020015f20828154811061087a57610879611011565b5b905f5260205f20018190555060015f8373ffffffffffffffffffffffffffffffffffffffff1673ffffffffffffffffffffffffffffffffffffffff1681526020019081526020015f208054806108d3576108d2611219565b5b600190038181905f5260205f20015f905590556108f8565b80806001019150506106e2565b5060015f3373ffffffffffffffffffffffffffffffffffffffff1673ffffffffffffffffffffffffffffffffffffffff1681526020019081526020015f2083908060018154018082558091505060019003905f5260205f20015f90919091909150555f8173ffffffffffffffffffffffffffffffffffffffff163460405161097f90611273565b5f6040518083038185875af1925050503d805f81146109b9576040519150601f19603f3d011682016040523d82523d5f602084013e6109be565b606091505b5050905080610a02576040517f08c379a00000000000000000000000000000000000000000000000000000000081526004016109f9906112d1565b60405180910390fd5b7f6329e40c0365262ebbff5ca819385c2b9713dcaa050ed07866d72c441395699a84338560020154604051610a39939291906112ef565b60405180910390a150505050565b5f8111610a89576040517f08c379a0000000000000000000000000000000000000000000000000000000008152600401610a809061136e565b60405180910390fd5b3373ffffffffffffffffffffffffffffffffffffffff165f8381548110610ab357610ab2611011565b5b905f5260205f2090600402016001015f9054906101000a900473ffffffffffffffffffffffffffffffffffffffff1673ffffffffffffffffffffffffffffffffffffffff1614610b38576040517f08c379a0000000000000000000000000000000000000000000000000000000008152600401610b2f906113d6565b60405180910390fd5b805f8381548110610b4c57610b4b611011565b5b905f5260205f2090600402016002018190555060015f8381548110610b7457610b73611011565b5b905f5260205f2090600402016003015f6101000a81548160ff0219169083151502179055507fa6cd73580a273eec6c1026108f6b63479fbaef5356dde4ff43e4b38dd187485f8282604051610bca9291906113f4565b60405180910390a15050565b3373ffffffffffffffffffffffffffffffffffffffff165f8281548110610c0057610bff611011565b5b905f5260205f2090600402016001015f9054906101000a900473ffffffffffffffffffffffffffffffffffffffff1673ffffffffffffffffffffffffffffffffffffffff1614610c85576040517f08c379a0000000000000000000000000000000000000000000000000000000008152600401610c7c906113d6565b60405180910390fd5b5f5f8281548110610c9957610c98611011565b5b905f5260205f2090600402016003015f6101000a81548160ff02191690831515021790555050565b60405180608001604052805f81526020015f73ffffffffffffffffffffffffffffffffffffffff1681526020015f81526020015f151581525090565b5f81519050919050565b5f82825260208201905092915050565b5f819050602082019050919050565b5f819050919050565b610d3881610d26565b82525050565b5f73ffffffffffffffffffffffffffffffffffffffff82169050919050565b5f610d6782610d3e565b9050919050565b610d7781610d5d565b82525050565b5f8115159050919050565b610d9181610d7d565b82525050565b608082015f820151610dab5f850182610d2f565b506020820151610dbe6020850182610d6e565b506040820151610dd16040850182610d2f565b506060820151610de46060850182610d88565b50505050565b5f610df58383610d97565b60808301905092915050565b5f602082019050919050565b5f610e1782610cfd565b610e218185610d07565b9350610e2c83610d17565b805f5b83811015610e5c578151610e438882610dea565b9750610e4e83610e01565b925050600181019050610e2f565b5085935050505092915050565b5f6020820190508181035f830152610e818184610e0d565b905092915050565b5f5ffd5b610e9681610d5d565b8114610ea0575f5ffd5b50565b5f81359050610eb181610e8d565b92915050565b610ec081610d26565b8114610eca575f5ffd5b50565b5f81359050610edb81610eb7565b92915050565b5f5f60408385031215610ef757610ef6610e89565b5b5f610f0485828601610ea3565b9250506020610f1585828601610ecd565b9150509250929050565b610f2881610d26565b82525050565b5f602082019050610f415f830184610f1f565b92915050565b5f60208284031215610f5c57610f5b610e89565b5b5f610f6984828501610ecd565b91505092915050565b610f7b81610d5d565b82525050565b610f8a81610d7d565b82525050565b5f608082019050610fa35f830187610f1f565b610fb06020830186610f72565b610fbd6040830185610f1f565b610fca6060830184610f81565b95945050505050565b5f5f60408385031215610fe957610fe8610e89565b5b5f610ff685828601610ecd565b925050602061100785828601610ecd565b9150509250929050565b7f4e487b71000000000000000000000000000000000000000000000000000000005f52603260045260245ffd5b7f4e487b71000000000000000000000000000000000000000000000000000000005f52601160045260245ffd5b5f61107582610d26565b91507fffffffffffffffffffffffffffffffffffffffffffffffffffffffffffffffff82036110a7576110a661103e565b5b600182019050919050565b7f4e487b71000000000000000000000000000000000000000000000000000000005f52604160045260245ffd5b5f6040820190506110f25f830185610f1f565b6110ff6020830184610f72565b9392505050565b5f82825260208201905092915050565b7f4e4654206e6f7420666f722073616c65000000000000000000000000000000005f82015250565b5f61114a601083611106565b915061115582611116565b602082019050919050565b5f6020820190508181035f8301526111778161113e565b9050919050565b7f496e73756666696369656e742066756e647300000000000000000000000000005f82015250565b5f6111b2601283611106565b91506111bd8261117e565b602082019050919050565b5f6020820190508181035f8301526111df816111a6565b9050919050565b5f6111f082610d26565b91506111fb83610d26565b92508282039050818111156112135761121261103e565b5b92915050565b7f4e487b71000000000000000000000000000000000000000000000000000000005f52603160045260245ffd5b5f81905092915050565b50565b5f61125e5f83611246565b915061126982611250565b5f82019050919050565b5f61127d82611253565b9150819050919050565b7f4661696c656420746f2073656e642045746865720000000000000000000000005f82015250565b5f6112bb601483611106565b91506112c682611287565b602082019050919050565b5f6020820190508181035f8301526112e8816112af565b9050919050565b5f6060820190506113025f830186610f1f565b61130f6020830185610f72565b61131c6040830184610f1f565b949350505050565b7f5072696365206d7573742062652067726561746572207468616e2030000000005f82015250565b5f611358601c83611106565b915061136382611324565b602082019050919050565b5f6020820190508181035f8301526113858161134c565b9050919050565b7f4e6f7420746865206f776e6572000000000000000000000000000000000000005f82015250565b5f6113c0600d83611106565b91506113cb8261138c565b602082019050919050565b5f6020820190508181035f8301526113ed816113b4565b9050919050565b5f6040820190506114075f830185610f1f565b6114146020830184610f1f565b939250505056fea264697066735822122097ab585b3faed229308a4f96765ad66b56629c92636003d35dfef2136d302ec864736f6c634300081f0033",
					"opcodes": "PUSH1 0x80 PUSH1 0x40 MSTORE CALLVALUE DUP1 ISZERO PUSH1 0xE JUMPI PUSH0 PUSH0 REVERT JUMPDEST POP PUSH2 0x1451 DUP1 PUSH2 0x1C PUSH0 CODECOPY PUSH0 RETURN INVALID PUSH1 0x80 PUSH1 0x40 MSTORE PUSH1 0x4 CALLDATASIZE LT PUSH2 0x6F JUMPI PUSH0 CALLDATALOAD PUSH1 0xE0 SHR DUP1 PUSH4 0x265AA621 GT PUSH2 0x4D JUMPI DUP1 PUSH4 0x265AA621 EQ PUSH2 0xEF JUMPI DUP1 PUSH4 0x51ED8288 EQ PUSH2 0x12E JUMPI DUP1 PUSH4 0x94383F14 EQ PUSH2 0x14A JUMPI DUP1 PUSH4 0xCB917B9C EQ PUSH2 0x172 JUMPI PUSH2 0x6F JUMP JUMPDEST DUP1 PUSH4 0x12386F0 EQ PUSH2 0x73 JUMPI DUP1 PUSH4 0x14F710FE EQ PUSH2 0x9D JUMPI DUP1 PUSH4 0x1A72B87D EQ PUSH2 0xB3 JUMPI JUMPDEST PUSH0 PUSH0 REVERT JUMPDEST CALLVALUE DUP1 ISZERO PUSH2 0x7E JUMPI PUSH0 PUSH0 REVERT JUMPDEST POP PUSH2 0x87 PUSH2 0x19A JUMP JUMPDEST PUSH1 0x40 MLOAD PUSH2 0x94 SWAP2 SWAP1 PUSH2 0xE69 JUMP JUMPDEST PUSH1 0x40 MLOAD DUP1 SWAP2 SUB SWAP1 RETURN JUMPDEST CALLVALUE DUP1 ISZERO PUSH2 0xA8 JUMPI PUSH0 PUSH0 REVERT JUMPDEST POP PUSH2 0xB1 PUSH2 0x392 JUMP JUMPDEST STOP JUMPDEST CALLVALUE DUP1 ISZERO PUSH2 0xBE JUMPI PUSH0 PUSH0 REVERT JUMPDEST POP PUSH2 0xD9 PUSH1 0x4 DUP1 CALLDATASIZE SUB DUP2 ADD SWAP1 PUSH2 0xD4 SWAP2 SWAP1 PUSH2 0xEE1 JUMP JUMPDEST PUSH2 0x510 JUMP JUMPDEST PUSH1 0x40 MLOAD PUSH2 0xE6 SWAP2 SWAP1 PUSH2 0xF2E JUMP JUMPDEST PUSH1 0x40 MLOAD DUP1 SWAP2 SUB SWAP1 RETURN JUMPDEST CALLVALUE DUP1 ISZERO PUSH2 0xFA JUMPI PUSH0 PUSH0 REVERT JUMPDEST POP PUSH2 0x115 PUSH1 0x4 DUP1 CALLDATASIZE SUB DUP2 ADD SWAP1 PUSH2 0x110 SWAP2 SWAP1 PUSH2 0xF47 JUMP JUMPDEST PUSH2 0x53B JUMP JUMPDEST PUSH1 0x40 MLOAD PUSH2 0x125 SWAP5 SWAP4 SWAP3 SWAP2 SWAP1 PUSH2 0xF90 JUMP JUMPDEST PUSH1 0x40 MLOAD DUP1 SWAP2 SUB SWAP1 RETURN JUMPDEST PUSH2 0x148 PUSH1 0x4 DUP1 CALLDATASIZE SUB DUP2 ADD SWAP1 PUSH2 0x143 SWAP2 SWAP1 PUSH2 0xF47 JUMP JUMPDEST PUSH2 0x5A0 JUMP JUMPDEST STOP JUMPDEST CALLVALUE DUP1 ISZERO PUSH2 0x155 JUMPI PUSH0 PUSH0 REVERT JUMPDEST POP PUSH2 0x170 PUSH1 0x4 DUP1 CALLDATASIZE SUB DUP2 ADD SWAP1 PUSH2 0x16B SWAP2 SWAP1 PUSH2 0xFD3 JUMP JUMPDEST PUSH2 0xA47 JUMP JUMPDEST STOP JUMPDEST CALLVALUE DUP1 ISZERO PUSH2 0x17D JUMPI PUSH0 PUSH0 REVERT JUMPDEST POP PUSH2 0x198 PUSH1 0x4 DUP1 CALLDATASIZE SUB DUP2 ADD SWAP1 PUSH2 0x193 SWAP2 SWAP1 PUSH2 0xF47 JUMP JUMPDEST PUSH2 0xBD6 JUMP JUMPDEST STOP JUMPDEST PUSH1 0x60 PUSH0 PUSH0 SWAP1 POP PUSH0 PUSH0 SWAP1 POP JUMPDEST PUSH0 DUP1 SLOAD SWAP1 POP DUP2 LT ISZERO PUSH2 0x201 JUMPI PUSH0 DUP2 DUP2 SLOAD DUP2 LT PUSH2 0x1C4 JUMPI PUSH2 0x1C3 PUSH2 0x1011 JUMP JUMPDEST JUMPDEST SWAP1 PUSH0 MSTORE PUSH1 0x20 PUSH0 KECCAK256 SWAP1 PUSH1 0x4 MUL ADD PUSH1 0x3 ADD PUSH0 SWAP1 SLOAD SWAP1 PUSH2 0x100 EXP SWAP1 DIV PUSH1 0xFF AND ISZERO PUSH2 0x1F4 JUMPI DUP2 DUP1 PUSH2 0x1F0 SWAP1 PUSH2 0x106B JUMP JUMPDEST SWAP3 POP POP JUMPDEST DUP1 DUP1 PUSH1 0x1 ADD SWAP2 POP POP PUSH2 0x1A5 JUMP JUMPDEST POP PUSH0 DUP2 PUSH8 0xFFFFFFFFFFFFFFFF DUP2 GT ISZERO PUSH2 0x21D JUMPI PUSH2 0x21C PUSH2 0x10B2 JUMP JUMPDEST JUMPDEST PUSH1 0x40 MLOAD SWAP1 DUP1 DUP3 MSTORE DUP1 PUSH1 0x20 MUL PUSH1 0x20 ADD DUP3 ADD PUSH1 0x40 MSTORE DUP1 ISZERO PUSH2 0x256 JUMPI DUP2 PUSH1 0x20 ADD JUMPDEST PUSH2 0x243 PUSH2 0xCC1 JUMP JUMPDEST DUP2 MSTORE PUSH1 0x20 ADD SWAP1 PUSH1 0x1 SWAP1 SUB SWAP1 DUP2 PUSH2 0x23B JUMPI SWAP1 POP JUMPDEST POP SWAP1 POP PUSH0 PUSH0 SWAP1 POP PUSH0 PUSH0 SWAP1 POP JUMPDEST PUSH0 DUP1 SLOAD SWAP1 POP DUP2 LT ISZERO PUSH2 0x388 JUMPI PUSH0 DUP2 DUP2 SLOAD DUP2 LT PUSH2 0x281 JUMPI PUSH2 0x280 PUSH2 0x1011 JUMP JUMPDEST JUMPDEST SWAP1 PUSH0 MSTORE PUSH1 0x20 PUSH0 KECCAK256 SWAP1 PUSH1 0x4 MUL ADD PUSH1 0x3 ADD PUSH0 SWAP1 SLOAD SWAP1 PUSH2 0x100 EXP SWAP1 DIV PUSH1 0xFF AND ISZERO PUSH2 0x37B JUMPI PUSH0 DUP2 DUP2 SLOAD DUP2 LT PUSH2 0x2B5 JUMPI PUSH2 0x2B4 PUSH2 0x1011 JUMP JUMPDEST JUMPDEST SWAP1 PUSH0 MSTORE PUSH1 0x20 PUSH0 KECCAK256 SWAP1 PUSH1 0x4 MUL ADD PUSH1 0x40 MLOAD DUP1 PUSH1 0x80 ADD PUSH1 0x40 MSTORE SWAP1 DUP2 PUSH0 DUP3 ADD SLOAD DUP2 MSTORE PUSH1 0x20 ADD PUSH1 0x1 DUP3 ADD PUSH0 SWAP1 SLOAD SWAP1 PUSH2 0x100 EXP SWAP1 DIV PUSH20 0xFFFFFFFFFFFFFFFFFFFFFFFFFFFFFFFFFFFFFFFF AND PUSH20 0xFFFFFFFFFFFFFFFFFFFFFFFFFFFFFFFFFFFFFFFF AND PUSH20 0xFFFFFFFFFFFFFFFFFFFFFFFFFFFFFFFFFFFFFFFF AND DUP2 MSTORE PUSH1 0x20 ADD PUSH1 0x2 DUP3 ADD SLOAD DUP2 MSTORE PUSH1 0x20 ADD PUSH1 0x3 DUP3 ADD PUSH0 SWAP1 SLOAD SWAP1 PUSH2 0x100 EXP SWAP1 DIV PUSH1 0xFF AND ISZERO ISZERO ISZERO ISZERO DUP2 MSTORE POP POP DUP4 DUP4 DUP2 MLOAD DUP2 LT PUSH2 0x361 JUMPI PUSH2 0x360 PUSH2 0x1011 JUMP JUMPDEST JUMPDEST PUSH1 0x20 MUL PUSH1 0x20 ADD ADD DUP2 SWAP1 MSTORE POP DUP2 DUP1 PUSH2 0x377 SWAP1 PUSH2 0x106B JUMP JUMPDEST SWAP3 POP POP JUMPDEST DUP1 DUP1 PUSH1 0x1 ADD SWAP2 POP POP PUSH2 0x262 JUMP JUMPDEST POP DUP2 SWAP4 POP POP POP POP SWAP1 JUMP JUMPDEST PUSH0 PUSH0 DUP1 SLOAD SWAP1 POP SWAP1 POP PUSH0 PUSH1 0x40 MLOAD DUP1 PUSH1 0x80 ADD PUSH1 0x40 MSTORE DUP1 DUP4 DUP2 MSTORE PUSH1 0x20 ADD CALLER PUSH20 0xFFFFFFFFFFFFFFFFFFFFFFFFFFFFFFFFFFFFFFFF AND DUP2 MSTORE PUSH1 0x20 ADD PUSH0 DUP2 MSTORE PUSH1 0x20 ADD PUSH0 ISZERO ISZERO DUP2 MSTORE POP SWAP1 DUP1 PUSH1 0x1 DUP2 SLOAD ADD DUP1 DUP3 SSTORE DUP1 SWAP2 POP POP PUSH1 0x1 SWAP1 SUB SWAP1 PUSH0 MSTORE PUSH1 0x20 PUSH0 KECCAK256 SWAP1 PUSH1 0x4 MUL ADD PUSH0 SWAP1 SWAP2 SWAP1 SWAP2 SWAP1 SWAP2 POP PUSH0 DUP3 ADD MLOAD DUP2 PUSH0 ADD SSTORE PUSH1 0x20 DUP3 ADD MLOAD DUP2 PUSH1 0x1 ADD PUSH0 PUSH2 0x100 EXP DUP2 SLOAD DUP2 PUSH20 0xFFFFFFFFFFFFFFFFFFFFFFFFFFFFFFFFFFFFFFFF MUL NOT AND SWAP1 DUP4 PUSH20 0xFFFFFFFFFFFFFFFFFFFFFFFFFFFFFFFFFFFFFFFF AND MUL OR SWAP1 SSTORE POP PUSH1 0x40 DUP3 ADD MLOAD DUP2 PUSH1 0x2 ADD SSTORE PUSH1 0x60 DUP3 ADD MLOAD DUP2 PUSH1 0x3 ADD PUSH0 PUSH2 0x100 EXP DUP2 SLOAD DUP2 PUSH1 0xFF MUL NOT AND SWAP1 DUP4 ISZERO ISZERO MUL OR SWAP1 SSTORE POP POP POP PUSH1 0x1 PUSH0 CALLER PUSH20 0xFFFFFFFFFFFFFFFFFFFFFFFFFFFFFFFFFFFFFFFF AND PUSH20 0xFFFFFFFFFFFFFFFFFFFFFFFFFFFFFFFFFFFFFFFF AND DUP2 MSTORE PUSH1 0x20 ADD SWAP1 DUP2 MSTORE PUSH1 0x20 ADD PUSH0 KECCAK256 DUP2 SWAP1 DUP1 PUSH1 0x1 DUP2 SLOAD ADD DUP1 DUP3 SSTORE DUP1 SWAP2 POP POP PUSH1 0x1 SWAP1 SUB SWAP1 PUSH0 MSTORE PUSH1 0x20 PUSH0 KECCAK256 ADD PUSH0 SWAP1 SWAP2 SWAP1 SWAP2 SWAP1 SWAP2 POP SSTORE PUSH32 0xBE4D5028ECB11DFB1CBC0C1DD7EED270DB43C11A50DA18FCEB823C9AF57A2A78 DUP2 CALLER PUSH1 0x40 MLOAD PUSH2 0x505 SWAP3 SWAP2 SWAP1 PUSH2 0x10DF JUMP JUMPDEST PUSH1 0x40 MLOAD DUP1 SWAP2 SUB SWAP1 LOG1 POP JUMP JUMPDEST PUSH1 0x1 PUSH1 0x20 MSTORE DUP2 PUSH0 MSTORE PUSH1 0x40 PUSH0 KECCAK256 DUP2 DUP2 SLOAD DUP2 LT PUSH2 0x529 JUMPI PUSH0 DUP1 REVERT JUMPDEST SWAP1 PUSH0 MSTORE PUSH1 0x20 PUSH0 KECCAK256 ADD PUSH0 SWAP2 POP SWAP2 POP POP SLOAD DUP2 JUMP JUMPDEST PUSH0 DUP2 DUP2 SLOAD DUP2 LT PUSH2 0x549 JUMPI PUSH0 DUP1 REVERT JUMPDEST SWAP1 PUSH0 MSTORE PUSH1 0x20 PUSH0 KECCAK256 SWAP1 PUSH1 0x4 MUL ADD PUSH0 SWAP2 POP SWAP1 POP DUP1 PUSH0 ADD SLOAD SWAP1 DUP1 PUSH1 0x1 ADD PUSH0 SWAP1 SLOAD SWAP1 PUSH2 0x100 EXP SWAP1 DIV PUSH20 0xFFFFFFFFFFFFFFFFFFFFFFFFFFFFFFFFFFFFFFFF AND SWAP1 DUP1 PUSH1 0x2 ADD SLOAD SWAP1 DUP1 PUSH1 0x3 ADD PUSH0 SWAP1 SLOAD SWAP1 PUSH2 0x100 EXP SWAP1 DIV PUSH1 0xFF AND SWAP1 POP DUP5 JUMP JUMPDEST PUSH0 PUSH0 DUP3 DUP2 SLOAD DUP2 LT PUSH2 0x5B4 JUMPI PUSH2 0x5B3 PUSH2 0x1011 JUMP JUMPDEST JUMPDEST SWAP1 PUSH0 MSTORE PUSH1 0x20 PUSH0 KECCAK256 SWAP1 PUSH1 0x4 MUL ADD SWAP1 POP DUP1 PUSH1 0x3 ADD PUSH0 SWAP1 SLOAD SWAP1 PUSH2 0x100 EXP SWAP1 DIV PUSH1 0xFF AND PUSH2 0x612 JUMPI PUSH1 0x40 MLOAD PUSH32 0x8C379A000000000000000000000000000000000000000000000000000000000 DUP2 MSTORE PUSH1 0x4 ADD PUSH2 0x609 SWAP1 PUSH2 0x1160 JUMP JUMPDEST PUSH1 0x40 MLOAD DUP1 SWAP2 SUB SWAP1 REVERT JUMPDEST DUP1 PUSH1 0x2 ADD SLOAD CALLVALUE LT ISZERO PUSH2 0x659 JUMPI PUSH1 0x40 MLOAD PUSH32 0x8C379A000000000000000000000000000000000000000000000000000000000 DUP2 MSTORE PUSH1 0x4 ADD PUSH2 0x650 SWAP1 PUSH2 0x11C8 JUMP JUMPDEST PUSH1 0x40 MLOAD DUP1 SWAP2 SUB SWAP1 REVERT JUMPDEST PUSH0 DUP2 PUSH1 0x1 ADD PUSH0 SWAP1 SLOAD SWAP1 PUSH2 0x100 EXP SWAP1 DIV PUSH20 0xFFFFFFFFFFFFFFFFFFFFFFFFFFFFFFFFFFFFFFFF AND SWAP1 POP CALLER DUP3 PUSH1 0x1 ADD PUSH0 PUSH2 0x100 EXP DUP2 SLOAD DUP2 PUSH20 0xFFFFFFFFFFFFFFFFFFFFFFFFFFFFFFFFFFFFFFFF MUL NOT AND SWAP1 DUP4 PUSH20 0xFFFFFFFFFFFFFFFFFFFFFFFFFFFFFFFFFFFFFFFF AND MUL OR SWAP1 SSTORE POP PUSH0 DUP3 PUSH1 0x3 ADD PUSH0 PUSH2 0x100 EXP DUP2 SLOAD DUP2 PUSH1 0xFF MUL NOT AND SWAP1 DUP4 ISZERO ISZERO MUL OR SWAP1 SSTORE POP PUSH0 PUSH0 SWAP1 POP JUMPDEST PUSH1 0x1 PUSH0 DUP4 PUSH20 0xFFFFFFFFFFFFFFFFFFFFFFFFFFFFFFFFFFFFFFFF AND PUSH20 0xFFFFFFFFFFFFFFFFFFFFFFFFFFFFFFFFFFFFFFFF AND DUP2 MSTORE PUSH1 0x20 ADD SWAP1 DUP2 MSTORE PUSH1 0x20 ADD PUSH0 KECCAK256 DUP1 SLOAD SWAP1 POP DUP2 LT ISZERO PUSH2 0x8F8 JUMPI DUP4 PUSH1 0x1 PUSH0 DUP5 PUSH20 0xFFFFFFFFFFFFFFFFFFFFFFFFFFFFFFFFFFFFFFFF AND PUSH20 0xFFFFFFFFFFFFFFFFFFFFFFFFFFFFFFFFFFFFFFFF AND DUP2 MSTORE PUSH1 0x20 ADD SWAP1 DUP2 MSTORE PUSH1 0x20 ADD PUSH0 KECCAK256 DUP3 DUP2 SLOAD DUP2 LT PUSH2 0x77A JUMPI PUSH2 0x779 PUSH2 0x1011 JUMP JUMPDEST JUMPDEST SWAP1 PUSH0 MSTORE PUSH1 0x20 PUSH0 KECCAK256 ADD SLOAD SUB PUSH2 0x8EB JUMPI PUSH1 0x1 PUSH0 DUP4 PUSH20 0xFFFFFFFFFFFFFFFFFFFFFFFFFFFFFFFFFFFFFFFF AND PUSH20 0xFFFFFFFFFFFFFFFFFFFFFFFFFFFFFFFFFFFFFFFF AND DUP2 MSTORE PUSH1 0x20 ADD SWAP1 DUP2 MSTORE PUSH1 0x20 ADD PUSH0 KECCAK256 PUSH1 0x1 DUP1 PUSH0 DUP6 PUSH20 0xFFFFFFFFFFFFFFFFFFFFFFFFFFFFFFFFFFFFFFFF AND PUSH20 0xFFFFFFFFFFFFFFFFFFFFFFFFFFFFFFFFFFFFFFFF AND DUP2 MSTORE PUSH1 0x20 ADD SWAP1 DUP2 MSTORE PUSH1 0x20 ADD PUSH0 KECCAK256 DUP1 SLOAD SWAP1 POP PUSH2 0x811 SWAP2 SWAP1 PUSH2 0x11E6 JUMP JUMPDEST DUP2 SLOAD DUP2 LT PUSH2 0x822 JUMPI PUSH2 0x821 PUSH2 0x1011 JUMP JUMPDEST JUMPDEST SWAP1 PUSH0 MSTORE PUSH1 0x20 PUSH0 KECCAK256 ADD SLOAD PUSH1 0x1 PUSH0 DUP5 PUSH20 0xFFFFFFFFFFFFFFFFFFFFFFFFFFFFFFFFFFFFFFFF AND PUSH20 0xFFFFFFFFFFFFFFFFFFFFFFFFFFFFFFFFFFFFFFFF AND DUP2 MSTORE PUSH1 0x20 ADD SWAP1 DUP2 MSTORE PUSH1 0x20 ADD PUSH0 KECCAK256 DUP3 DUP2 SLOAD DUP2 LT PUSH2 0x87A JUMPI PUSH2 0x879 PUSH2 0x1011 JUMP JUMPDEST JUMPDEST SWAP1 PUSH0 MSTORE PUSH1 0x20 PUSH0 KECCAK256 ADD DUP2 SWAP1 SSTORE POP PUSH1 0x1 PUSH0 DUP4 PUSH20 0xFFFFFFFFFFFFFFFFFFFFFFFFFFFFFFFFFFFFFFFF AND PUSH20 0xFFFFFFFFFFFFFFFFFFFFFFFFFFFFFFFFFFFFFFFF AND DUP2 MSTORE PUSH1 0x20 ADD SWAP1 DUP2 MSTORE PUSH1 0x20 ADD PUSH0 KECCAK256 DUP1 SLOAD DUP1 PUSH2 0x8D3 JUMPI PUSH2 0x8D2 PUSH2 0x1219 JUMP JUMPDEST JUMPDEST PUSH1 0x1 SWAP1 SUB DUP2 DUP2 SWAP1 PUSH0 MSTORE PUSH1 0x20 PUSH0 KECCAK256 ADD PUSH0 SWAP1 SSTORE SWAP1 SSTORE PUSH2 0x8F8 JUMP JUMPDEST DUP1 DUP1 PUSH1 0x1 ADD SWAP2 POP POP PUSH2 0x6E2 JUMP JUMPDEST POP PUSH1 0x1 PUSH0 CALLER PUSH20 0xFFFFFFFFFFFFFFFFFFFFFFFFFFFFFFFFFFFFFFFF AND PUSH20 0xFFFFFFFFFFFFFFFFFFFFFFFFFFFFFFFFFFFFFFFF AND DUP2 MSTORE PUSH1 0x20 ADD SWAP1 DUP2 MSTORE PUSH1 0x20 ADD PUSH0 KECCAK256 DUP4 SWAP1 DUP1 PUSH1 0x1 DUP2 SLOAD ADD DUP1 DUP3 SSTORE DUP1 SWAP2 POP POP PUSH1 0x1 SWAP1 SUB SWAP1 PUSH0 MSTORE PUSH1 0x20 PUSH0 KECCAK256 ADD PUSH0 SWAP1 SWAP2 SWAP1 SWAP2 SWAP1 SWAP2 POP SSTORE PUSH0 DUP2 PUSH20 0xFFFFFFFFFFFFFFFFFFFFFFFFFFFFFFFFFFFFFFFF AND CALLVALUE PUSH1 0x40 MLOAD PUSH2 0x97F SWAP1 PUSH2 0x1273 JUMP JUMPDEST PUSH0 PUSH1 0x40 MLOAD DUP1 DUP4 SUB DUP2 DUP6 DUP8 GAS CALL SWAP3 POP POP POP RETURNDATASIZE DUP1 PUSH0 DUP2 EQ PUSH2 0x9B9 JUMPI PUSH1 0x40 MLOAD SWAP2 POP PUSH1 0x1F NOT PUSH1 0x3F RETURNDATASIZE ADD AND DUP3 ADD PUSH1 0x40 MSTORE RETURNDATASIZE DUP3 MSTORE RETURNDATASIZE PUSH0 PUSH1 0x20 DUP5 ADD RETURNDATACOPY PUSH2 0x9BE JUMP JUMPDEST PUSH1 0x60 SWAP2 POP JUMPDEST POP POP SWAP1 POP DUP1 PUSH2 0xA02 JUMPI PUSH1 0x40 MLOAD PUSH32 0x8C379A000000000000000000000000000000000000000000000000000000000 DUP2 MSTORE PUSH1 0x4 ADD PUSH2 0x9F9 SWAP1 PUSH2 0x12D1 JUMP JUMPDEST PUSH1 0x40 MLOAD DUP1 SWAP2 SUB SWAP1 REVERT JUMPDEST PUSH32 0x6329E40C0365262EBBFF5CA819385C2B9713DCAA050ED07866D72C441395699A DUP5 CALLER DUP6 PUSH1 0x2 ADD SLOAD PUSH1 0x40 MLOAD PUSH2 0xA39 SWAP4 SWAP3 SWAP2 SWAP1 PUSH2 0x12EF JUMP JUMPDEST PUSH1 0x40 MLOAD DUP1 SWAP2 SUB SWAP1 LOG1 POP POP POP POP JUMP JUMPDEST PUSH0 DUP2 GT PUSH2 0xA89 JUMPI PUSH1 0x40 MLOAD PUSH32 0x8C379A000000000000000000000000000000000000000000000000000000000 DUP2 MSTORE PUSH1 0x4 ADD PUSH2 0xA80 SWAP1 PUSH2 0x136E JUMP JUMPDEST PUSH1 0x40 MLOAD DUP1 SWAP2 SUB SWAP1 REVERT JUMPDEST CALLER PUSH20 0xFFFFFFFFFFFFFFFFFFFFFFFFFFFFFFFFFFFFFFFF AND PUSH0 DUP4 DUP2 SLOAD DUP2 LT PUSH2 0xAB3 JUMPI PUSH2 0xAB2 PUSH2 0x1011 JUMP JUMPDEST JUMPDEST SWAP1 PUSH0 MSTORE PUSH1 0x20 PUSH0 KECCAK256 SWAP1 PUSH1 0x4 MUL ADD PUSH1 0x1 ADD PUSH0 SWAP1 SLOAD SWAP1 PUSH2 0x100 EXP SWAP1 DIV PUSH20 0xFFFFFFFFFFFFFFFFFFFFFFFFFFFFFFFFFFFFFFFF AND PUSH20 0xFFFFFFFFFFFFFFFFFFFFFFFFFFFFFFFFFFFFFFFF AND EQ PUSH2 0xB38 JUMPI PUSH1 0x40 MLOAD PUSH32 0x8C379A000000000000000000000000000000000000000000000000000000000 DUP2 MSTORE PUSH1 0x4 ADD PUSH2 0xB2F SWAP1 PUSH2 0x13D6 JUMP JUMPDEST PUSH1 0x40 MLOAD DUP1 SWAP2 SUB SWAP1 REVERT JUMPDEST DUP1 PUSH0 DUP4 DUP2 SLOAD DUP2 LT PUSH2 0xB4C JUMPI PUSH2 0xB4B PUSH2 0x1011 JUMP JUMPDEST JUMPDEST SWAP1 PUSH0 MSTORE PUSH1 0x20 PUSH0 KECCAK256 SWAP1 PUSH1 0x4 MUL ADD PUSH1 0x2 ADD DUP2 SWAP1 SSTORE POP PUSH1 0x1 PUSH0 DUP4 DUP2 SLOAD DUP2 LT PUSH2 0xB74 JUMPI PUSH2 0xB73 PUSH2 0x1011 JUMP JUMPDEST JUMPDEST SWAP1 PUSH0 MSTORE PUSH1 0x20 PUSH0 KECCAK256 SWAP1 PUSH1 0x4 MUL ADD PUSH1 0x3 ADD PUSH0 PUSH2 0x100 EXP DUP2 SLOAD DUP2 PUSH1 0xFF MUL NOT AND SWAP1 DUP4 ISZERO ISZERO MUL OR SWAP1 SSTORE POP PUSH32 0xA6CD73580A273EEC6C1026108F6B63479FBAEF5356DDE4FF43E4B38DD187485F DUP3 DUP3 PUSH1 0x40 MLOAD PUSH2 0xBCA SWAP3 SWAP2 SWAP1 PUSH2 0x13F4 JUMP JUMPDEST PUSH1 0x40 MLOAD DUP1 SWAP2 SUB SWAP1 LOG1 POP POP JUMP JUMPDEST CALLER PUSH20 0xFFFFFFFFFFFFFFFFFFFFFFFFFFFFFFFFFFFFFFFF AND PUSH0 DUP3 DUP2 SLOAD DUP2 LT PUSH2 0xC00 JUMPI PUSH2 0xBFF PUSH2 0x1011 JUMP JUMPDEST JUMPDEST SWAP1 PUSH0 MSTORE PUSH1 0x20 PUSH0 KECCAK256 SWAP1 PUSH1 0x4 MUL ADD PUSH1 0x1 ADD PUSH0 SWAP1 SLOAD SWAP1 PUSH2 0x100 EXP SWAP1 DIV PUSH20 0xFFFFFFFFFFFFFFFFFFFFFFFFFFFFFFFFFFFFFFFF AND PUSH20 0xFFFFFFFFFFFFFFFFFFFFFFFFFFFFFFFFFFFFFFFF AND EQ PUSH2 0xC85 JUMPI PUSH1 0x40 MLOAD PUSH32 0x8C379A000000000000000000000000000000000000000000000000000000000 DUP2 MSTORE PUSH1 0x4 ADD PUSH2 0xC7C SWAP1 PUSH2 0x13D6 JUMP JUMPDEST PUSH1 0x40 MLOAD DUP1 SWAP2 SUB SWAP1 REVERT JUMPDEST PUSH0 PUSH0 DUP3 DUP2 SLOAD DUP2 LT PUSH2 0xC99 JUMPI PUSH2 0xC98 PUSH2 0x1011 JUMP JUMPDEST JUMPDEST SWAP1 PUSH0 MSTORE PUSH1 0x20 PUSH0 KECCAK256 SWAP1 PUSH1 0x4 MUL ADD PUSH1 0x3 ADD PUSH0 PUSH2 0x100 EXP DUP2 SLOAD DUP2 PUSH1 0xFF MUL NOT AND SWAP1 DUP4 ISZERO ISZERO MUL OR SWAP1 SSTORE POP POP JUMP JUMPDEST PUSH1 0x40 MLOAD DUP1 PUSH1 0x80 ADD PUSH1 0x40 MSTORE DUP1 PUSH0 DUP2 MSTORE PUSH1 0x20 ADD PUSH0 PUSH20 0xFFFFFFFFFFFFFFFFFFFFFFFFFFFFFFFFFFFFFFFF AND DUP2 MSTORE PUSH1 0x20 ADD PUSH0 DUP2 MSTORE PUSH1 0x20 ADD PUSH0 ISZERO ISZERO DUP2 MSTORE POP SWAP1 JUMP JUMPDEST PUSH0 DUP2 MLOAD SWAP1 POP SWAP2 SWAP1 POP JUMP JUMPDEST PUSH0 DUP3 DUP3 MSTORE PUSH1 0x20 DUP3 ADD SWAP1 POP SWAP3 SWAP2 POP POP JUMP JUMPDEST PUSH0 DUP2 SWAP1 POP PUSH1 0x20 DUP3 ADD SWAP1 POP SWAP2 SWAP1 POP JUMP JUMPDEST PUSH0 DUP2 SWAP1 POP SWAP2 SWAP1 POP JUMP JUMPDEST PUSH2 0xD38 DUP2 PUSH2 0xD26 JUMP JUMPDEST DUP3 MSTORE POP POP JUMP JUMPDEST PUSH0 PUSH20 0xFFFFFFFFFFFFFFFFFFFFFFFFFFFFFFFFFFFFFFFF DUP3 AND SWAP1 POP SWAP2 SWAP1 POP JUMP JUMPDEST PUSH0 PUSH2 0xD67 DUP3 PUSH2 0xD3E JUMP JUMPDEST SWAP1 POP SWAP2 SWAP1 POP JUMP JUMPDEST PUSH2 0xD77 DUP2 PUSH2 0xD5D JUMP JUMPDEST DUP3 MSTORE POP POP JUMP JUMPDEST PUSH0 DUP2 ISZERO ISZERO SWAP1 POP SWAP2 SWAP1 POP JUMP JUMPDEST PUSH2 0xD91 DUP2 PUSH2 0xD7D JUMP JUMPDEST DUP3 MSTORE POP POP JUMP JUMPDEST PUSH1 0x80 DUP3 ADD PUSH0 DUP3 ADD MLOAD PUSH2 0xDAB PUSH0 DUP6 ADD DUP3 PUSH2 0xD2F JUMP JUMPDEST POP PUSH1 0x20 DUP3 ADD MLOAD PUSH2 0xDBE PUSH1 0x20 DUP6 ADD DUP3 PUSH2 0xD6E JUMP JUMPDEST POP PUSH1 0x40 DUP3 ADD MLOAD PUSH2 0xDD1 PUSH1 0x40 DUP6 ADD DUP3 PUSH2 0xD2F JUMP JUMPDEST POP PUSH1 0x60 DUP3 ADD MLOAD PUSH2 0xDE4 PUSH1 0x60 DUP6 ADD DUP3 PUSH2 0xD88 JUMP JUMPDEST POP POP POP POP JUMP JUMPDEST PUSH0 PUSH2 0xDF5 DUP4 DUP4 PUSH2 0xD97 JUMP JUMPDEST PUSH1 0x80 DUP4 ADD SWAP1 POP SWAP3 SWAP2 POP POP JUMP JUMPDEST PUSH0 PUSH1 0x20 DUP3 ADD SWAP1 POP SWAP2 SWAP1 POP JUMP JUMPDEST PUSH0 PUSH2 0xE17 DUP3 PUSH2 0xCFD JUMP JUMPDEST PUSH2 0xE21 DUP2 DUP6 PUSH2 0xD07 JUMP JUMPDEST SWAP4 POP PUSH2 0xE2C DUP4 PUSH2 0xD17 JUMP JUMPDEST DUP1 PUSH0 JUMPDEST DUP4 DUP2 LT ISZERO PUSH2 0xE5C JUMPI DUP2 MLOAD PUSH2 0xE43 DUP9 DUP3 PUSH2 0xDEA JUMP JUMPDEST SWAP8 POP PUSH2 0xE4E DUP4 PUSH2 0xE01 JUMP JUMPDEST SWAP3 POP POP PUSH1 0x1 DUP2 ADD SWAP1 POP PUSH2 0xE2F JUMP JUMPDEST POP DUP6 SWAP4 POP POP POP POP SWAP3 SWAP2 POP POP JUMP JUMPDEST PUSH0 PUSH1 0x20 DUP3 ADD SWAP1 POP DUP2 DUP2 SUB PUSH0 DUP4 ADD MSTORE PUSH2 0xE81 DUP2 DUP5 PUSH2 0xE0D JUMP JUMPDEST SWAP1 POP SWAP3 SWAP2 POP POP JUMP JUMPDEST PUSH0 PUSH0 REVERT JUMPDEST PUSH2 0xE96 DUP2 PUSH2 0xD5D JUMP JUMPDEST DUP2 EQ PUSH2 0xEA0 JUMPI PUSH0 PUSH0 REVERT JUMPDEST POP JUMP JUMPDEST PUSH0 DUP2 CALLDATALOAD SWAP1 POP PUSH2 0xEB1 DUP2 PUSH2 0xE8D JUMP JUMPDEST SWAP3 SWAP2 POP POP JUMP JUMPDEST PUSH2 0xEC0 DUP2 PUSH2 0xD26 JUMP JUMPDEST DUP2 EQ PUSH2 0xECA JUMPI PUSH0 PUSH0 REVERT JUMPDEST POP JUMP JUMPDEST PUSH0 DUP2 CALLDATALOAD SWAP1 POP PUSH2 0xEDB DUP2 PUSH2 0xEB7 JUMP JUMPDEST SWAP3 SWAP2 POP POP JUMP JUMPDEST PUSH0 PUSH0 PUSH1 0x40 DUP4 DUP6 SUB SLT ISZERO PUSH2 0xEF7 JUMPI PUSH2 0xEF6 PUSH2 0xE89 JUMP JUMPDEST JUMPDEST PUSH0 PUSH2 0xF04 DUP6 DUP3 DUP7 ADD PUSH2 0xEA3 JUMP JUMPDEST SWAP3 POP POP PUSH1 0x20 PUSH2 0xF15 DUP6 DUP3 DUP7 ADD PUSH2 0xECD JUMP JUMPDEST SWAP2 POP POP SWAP3 POP SWAP3 SWAP1 POP JUMP JUMPDEST PUSH2 0xF28 DUP2 PUSH2 0xD26 JUMP JUMPDEST DUP3 MSTORE POP POP JUMP JUMPDEST PUSH0 PUSH1 0x20 DUP3 ADD SWAP1 POP PUSH2 0xF41 PUSH0 DUP4 ADD DUP5 PUSH2 0xF1F JUMP JUMPDEST SWAP3 SWAP2 POP POP JUMP JUMPDEST PUSH0 PUSH1 0x20 DUP3 DUP5 SUB SLT ISZERO PUSH2 0xF5C JUMPI PUSH2 0xF5B PUSH2 0xE89 JUMP JUMPDEST JUMPDEST PUSH0 PUSH2 0xF69 DUP5 DUP3 DUP6 ADD PUSH2 0xECD JUMP JUMPDEST SWAP2 POP POP SWAP3 SWAP2 POP POP JUMP JUMPDEST PUSH2 0xF7B DUP2 PUSH2 0xD5D JUMP JUMPDEST DUP3 MSTORE POP POP JUMP JUMPDEST PUSH2 0xF8A DUP2 PUSH2 0xD7D JUMP JUMPDEST DUP3 MSTORE POP POP JUMP JUMPDEST PUSH0 PUSH1 0x80 DUP3 ADD SWAP1 POP PUSH2 0xFA3 PUSH0 DUP4 ADD DUP8 PUSH2 0xF1F JUMP JUMPDEST PUSH2 0xFB0 PUSH1 0x20 DUP4 ADD DUP7 PUSH2 0xF72 JUMP JUMPDEST PUSH2 0xFBD PUSH1 0x40 DUP4 ADD DUP6 PUSH2 0xF1F JUMP JUMPDEST PUSH2 0xFCA PUSH1 0x60 DUP4 ADD DUP5 PUSH2 0xF81 JUMP JUMPDEST SWAP6 SWAP5 POP POP POP POP POP JUMP JUMPDEST PUSH0 PUSH0 PUSH1 0x40 DUP4 DUP6 SUB SLT ISZERO PUSH2 0xFE9 JUMPI PUSH2 0xFE8 PUSH2 0xE89 JUMP JUMPDEST JUMPDEST PUSH0 PUSH2 0xFF6 DUP6 DUP3 DUP7 ADD PUSH2 0xECD JUMP JUMPDEST SWAP3 POP POP PUSH1 0x20 PUSH2 0x1007 DUP6 DUP3 DUP7 ADD PUSH2 0xECD JUMP JUMPDEST SWAP2 POP POP SWAP3 POP SWAP3 SWAP1 POP JUMP JUMPDEST PUSH32 0x4E487B7100000000000000000000000000000000000000000000000000000000 PUSH0 MSTORE PUSH1 0x32 PUSH1 0x4 MSTORE PUSH1 0x24 PUSH0 REVERT JUMPDEST PUSH32 0x4E487B7100000000000000000000000000000000000000000000000000000000 PUSH0 MSTORE PUSH1 0x11 PUSH1 0x4 MSTORE PUSH1 0x24 PUSH0 REVERT JUMPDEST PUSH0 PUSH2 0x1075 DUP3 PUSH2 0xD26 JUMP JUMPDEST SWAP2 POP PUSH32 0xFFFFFFFFFFFFFFFFFFFFFFFFFFFFFFFFFFFFFFFFFFFFFFFFFFFFFFFFFFFFFFFF DUP3 SUB PUSH2 0x10A7 JUMPI PUSH2 0x10A6 PUSH2 0x103E JUMP JUMPDEST JUMPDEST PUSH1 0x1 DUP3 ADD SWAP1 POP SWAP2 SWAP1 POP JUMP JUMPDEST PUSH32 0x4E487B7100000000000000000000000000000000000000000000000000000000 PUSH0 MSTORE PUSH1 0x41 PUSH1 0x4 MSTORE PUSH1 0x24 PUSH0 REVERT JUMPDEST PUSH0 PUSH1 0x40 DUP3 ADD SWAP1 POP PUSH2 0x10F2 PUSH0 DUP4 ADD DUP6 PUSH2 0xF1F JUMP JUMPDEST PUSH2 0x10FF PUSH1 0x20 DUP4 ADD DUP5 PUSH2 0xF72 JUMP JUMPDEST SWAP4 SWAP3 POP POP POP JUMP JUMPDEST PUSH0 DUP3 DUP3 MSTORE PUSH1 0x20 DUP3 ADD SWAP1 POP SWAP3 SWAP2 POP POP JUMP JUMPDEST PUSH32 0x4E4654206E6F7420666F722073616C6500000000000000000000000000000000 PUSH0 DUP3 ADD MSTORE POP JUMP JUMPDEST PUSH0 PUSH2 0x114A PUSH1 0x10 DUP4 PUSH2 0x1106 JUMP JUMPDEST SWAP2 POP PUSH2 0x1155 DUP3 PUSH2 0x1116 JUMP JUMPDEST PUSH1 0x20 DUP3 ADD SWAP1 POP SWAP2 SWAP1 POP JUMP JUMPDEST PUSH0 PUSH1 0x20 DUP3 ADD SWAP1 POP DUP2 DUP2 SUB PUSH0 DUP4 ADD MSTORE PUSH2 0x1177 DUP2 PUSH2 0x113E JUMP JUMPDEST SWAP1 POP SWAP2 SWAP1 POP JUMP JUMPDEST PUSH32 0x496E73756666696369656E742066756E64730000000000000000000000000000 PUSH0 DUP3 ADD MSTORE POP JUMP JUMPDEST PUSH0 PUSH2 0x11B2 PUSH1 0x12 DUP4 PUSH2 0x1106 JUMP JUMPDEST SWAP2 POP PUSH2 0x11BD DUP3 PUSH2 0x117E JUMP JUMPDEST PUSH1 0x20 DUP3 ADD SWAP1 POP SWAP2 SWAP1 POP JUMP JUMPDEST PUSH0 PUSH1 0x20 DUP3 ADD SWAP1 POP DUP2 DUP2 SUB PUSH0 DUP4 ADD MSTORE PUSH2 0x11DF DUP2 PUSH2 0x11A6 JUMP JUMPDEST SWAP1 POP SWAP2 SWAP1 POP JUMP JUMPDEST PUSH0 PUSH2 0x11F0 DUP3 PUSH2 0xD26 JUMP JUMPDEST SWAP2 POP PUSH2 0x11FB DUP4 PUSH2 0xD26 JUMP JUMPDEST SWAP3 POP DUP3 DUP3 SUB SWAP1 POP DUP2 DUP2 GT ISZERO PUSH2 0x1213 JUMPI PUSH2 0x1212 PUSH2 0x103E JUMP JUMPDEST JUMPDEST SWAP3 SWAP2 POP POP JUMP JUMPDEST PUSH32 0x4E487B7100000000000000000000000000000000000000000000000000000000 PUSH0 MSTORE PUSH1 0x31 PUSH1 0x4 MSTORE PUSH1 0x24 PUSH0 REVERT JUMPDEST PUSH0 DUP2 SWAP1 POP SWAP3 SWAP2 POP POP JUMP JUMPDEST POP JUMP JUMPDEST PUSH0 PUSH2 0x125E PUSH0 DUP4 PUSH2 0x1246 JUMP JUMPDEST SWAP2 POP PUSH2 0x1269 DUP3 PUSH2 0x1250 JUMP JUMPDEST PUSH0 DUP3 ADD SWAP1 POP SWAP2 SWAP1 POP JUMP JUMPDEST PUSH0 PUSH2 0x127D DUP3 PUSH2 0x1253 JUMP JUMPDEST SWAP2 POP DUP2 SWAP1 POP SWAP2 SWAP1 POP JUMP JUMPDEST PUSH32 0x4661696C656420746F2073656E64204574686572000000000000000000000000 PUSH0 DUP3 ADD MSTORE POP JUMP JUMPDEST PUSH0 PUSH2 0x12BB PUSH1 0x14 DUP4 PUSH2 0x1106 JUMP JUMPDEST SWAP2 POP PUSH2 0x12C6 DUP3 PUSH2 0x1287 JUMP JUMPDEST PUSH1 0x20 DUP3 ADD SWAP1 POP SWAP2 SWAP1 POP JUMP JUMPDEST PUSH0 PUSH1 0x20 DUP3 ADD SWAP1 POP DUP2 DUP2 SUB PUSH0 DUP4 ADD MSTORE PUSH2 0x12E8 DUP2 PUSH2 0x12AF JUMP JUMPDEST SWAP1 POP SWAP2 SWAP1 POP JUMP JUMPDEST PUSH0 PUSH1 0x60 DUP3 ADD SWAP1 POP PUSH2 0x1302 PUSH0 DUP4 ADD DUP7 PUSH2 0xF1F JUMP JUMPDEST PUSH2 0x130F PUSH1 0x20 DUP4 ADD DUP6 PUSH2 0xF72 JUMP JUMPDEST PUSH2 0x131C PUSH1 0x40 DUP4 ADD DUP5 PUSH2 0xF1F JUMP JUMPDEST SWAP5 SWAP4 POP POP POP POP JUMP JUMPDEST PUSH32 0x5072696365206D7573742062652067726561746572207468616E203000000000 PUSH0 DUP3 ADD MSTORE POP JUMP JUMPDEST PUSH0 PUSH2 0x1358 PUSH1 0x1C DUP4 PUSH2 0x1106 JUMP JUMPDEST SWAP2 POP PUSH2 0x1363 DUP3 PUSH2 0x1324 JUMP JUMPDEST PUSH1 0x20 DUP3 ADD SWAP1 POP SWAP2 SWAP1 POP JUMP JUMPDEST PUSH0 PUSH1 0x20 DUP3 ADD SWAP1 POP DUP2 DUP2 SUB PUSH0 DUP4 ADD MSTORE PUSH2 0x1385 DUP2 PUSH2 0x134C JUMP JUMPDEST SWAP1 POP SWAP2 SWAP1 POP JUMP JUMPDEST PUSH32 0x4E6F7420746865206F776E657200000000000000000000000000000000000000 PUSH0 DUP3 ADD MSTORE POP JUMP JUMPDEST PUSH0 PUSH2 0x13C0 PUSH1 0xD DUP4 PUSH2 0x1106 JUMP JUMPDEST SWAP2 POP PUSH2 0x13CB DUP3 PUSH2 0x138C JUMP JUMPDEST PUSH1 0x20 DUP3 ADD SWAP1 POP SWAP2 SWAP1 POP JUMP JUMPDEST PUSH0 PUSH1 0x20 DUP3 ADD SWAP1 POP DUP2 DUP2 SUB PUSH0 DUP4 ADD MSTORE PUSH2 0x13ED DUP2 PUSH2 0x13B4 JUMP JUMPDEST SWAP1 POP SWAP2 SWAP1 POP JUMP JUMPDEST PUSH0 PUSH1 0x40 DUP3 ADD SWAP1 POP PUSH2 0x1407 PUSH0 DUP4 ADD DUP6 PUSH2 0xF1F JUMP JUMPDEST PUSH2 0x1414 PUSH1 0x20 DUP4 ADD DUP5 PUSH2 0xF1F JUMP JUMPDEST SWAP4 SWAP3 POP POP POP JUMP INVALID LOG2 PUSH5 0x6970667358 0x22 SLT KECCAK256 SWAP8 0xAB PC JUMPDEST EXTCODEHASH 0xAE 0xD2 0x29 ADDRESS DUP11 0x4F SWAP7 PUSH23 0x5AD66B56629C92636003D35DFEF2136D302EC864736F6C PUSH4 0x4300081F STOP CALLER "
				},
				"gasEstimates": {
					"creation": {
						"codeDepositCost": "1040200",
						"executionCost": "1078",
						"totalCost": "1041278"
					},
					"external": {
						"buyNFT(uint256)": "infinite",
						"delistNFT(uint256)": "31289",
						"getListedNFTs()": "infinite",
						"listNFT(uint256,uint256)": "infinite",
						"mintNFT()": "150519",
						"nfts(uint256)": "infinite",
						"ownedNFTs(address,uint256)": "infinite"
					}
				},
				"methodIdentifiers": {
					"buyNFT(uint256)": "51ed8288",
					"delistNFT(uint256)": "cb917b9c",
					"getListedNFTs()": "012386f0",
					"listNFT(uint256,uint256)": "94383f14",
					"mintNFT()": "14f710fe",
					"nfts(uint256)": "265aa621",
					"ownedNFTs(address,uint256)": "1a72b87d"
				}
			},
			"storageLayout": {
				"storage": [
					{
						"astId": 14,
						"contract": "contracts/lesson3.2/NFTMarketplace.sol:NFTMarketplace",
						"label": "nfts",
						"offset": 0,
						"slot": "0",
						"type": "t_array(t_struct(NFT)10_storage)dyn_storage"
					},
					{
						"astId": 19,
						"contract": "contracts/lesson3.2/NFTMarketplace.sol:NFTMarketplace",
						"label": "ownedNFTs",
						"offset": 0,
						"slot": "1",
						"type": "t_mapping(t_address,t_array(t_uint256)dyn_storage)"
					}
				],
				"types": {
					"t_address": {
						"encoding": "inplace",
						"label": "address",
						"numberOfBytes": "20"
					},
					"t_array(t_struct(NFT)10_storage)dyn_storage": {
						"base": "t_struct(NFT)10_storage",
						"encoding": "dynamic_array",
						"label": "struct NFTMarketplace.NFT[]",
						"numberOfBytes": "32"
					},
					"t_array(t_uint256)dyn_storage": {
						"base": "t_uint256",
						"encoding": "dynamic_array",
						"label": "uint256[]",
						"numberOfBytes": "32"
					},
					"t_bool": {
						"encoding": "inplace",
						"label": "bool",
						"numberOfBytes": "1"
					},
					"t_mapping(t_address,t_array(t_uint256)dyn_storage)": {
						"encoding": "mapping",
						"key": "t_address",
						"label": "mapping(address => uint256[])",
						"numberOfBytes": "32",
						"value": "t_array(t_uint256)dyn_storage"
					},
					"t_struct(NFT)10_storage": {
						"encoding": "inplace",
						"label": "struct NFTMarketplace.NFT",
						"members": [
							{
								"astId": 3,
								"contract": "contracts/lesson3.2/NFTMarketplace.sol:NFTMarketplace",
								"label": "id",
								"offset": 0,
								"slot": "0",
								"type": "t_uint256"
							},
							{
								"astId": 5,
								"contract": "contracts/lesson3.2/NFTMarketplace.sol:NFTMarketplace",
								"label": "owner",
								"offset": 0,
								"slot": "1",
								"type": "t_address"
							},
							{
								"astId": 7,
								"contract": "contracts/lesson3.2/NFTMarketplace.sol:NFTMarketplace",
								"label": "price",
								"offset": 0,
								"slot": "2",
								"type": "t_uint256"
							},
							{
								"astId": 9,
								"contract": "contracts/lesson3.2/NFTMarketplace.sol:NFTMarketplace",
								"label": "forSale",
								"offset": 0,
								"slot": "3",
								"type": "t_bool"
							}
						],
						"numberOfBytes": "128"
					},
					"t_uint256": {
						"encoding": "inplace",
						"label": "uint256",
						"numberOfBytes": "32"
					}
				}
			},
			"userdoc": {
				"kind": "user",
				"methods": {},
				"version": 1
			}
		}
	}
}