{
	"contracts/lesson7.1/OrderSystem.sol": {
		"OrderSystem": {
			"abi": [
				{
					"anonymous": false,
					"inputs": [
						{
							"indexed": true,
							"internalType": "uint256",
							"name": "orderId",
							"type": "uint256"
						},
						{
							"indexed": true,
							"internalType": "address",
							"name": "cancelledBy",
							"type": "address"
						},
						{
							"indexed": false,
							"internalType": "string",
							"name": "reason",
							"type": "string"
						},
						{
							"indexed": false,
							"internalType": "uint256",
							"name": "timestamp",
							"type": "uint256"
						}
					],
					"name": "OrderCancelled",
					"type": "event"
				},
				{
					"anonymous": false,
					"inputs": [
						{
							"indexed": true,
							"internalType": "uint256",
							"name": "orderId",
							"type": "uint256"
						},
						{
							"indexed": true,
							"internalType": "address",
							"name": "buyer",
							"type": "address"
						},
						{
							"indexed": false,
							"internalType": "uint256",
							"name": "timestamp",
							"type": "uint256"
						}
					],
					"name": "OrderCompleted",
					"type": "event"
				},
				{
					"anonymous": false,
					"inputs": [
						{
							"indexed": true,
							"internalType": "uint256",
							"name": "orderId",
							"type": "uint256"
						},
						{
							"indexed": true,
							"internalType": "address",
							"name": "buyer",
							"type": "address"
						},
						{
							"indexed": false,
							"internalType": "uint256",
							"name": "amount",
							"type": "uint256"
						},
						{
							"indexed": false,
							"internalType": "uint256",
							"name": "timestamp",
							"type": "uint256"
						}
					],
					"name": "OrderCreated",
					"type": "event"
				},
				{
					"anonymous": false,
					"inputs": [
						{
							"indexed": true,
							"internalType": "uint256",
							"name": "orderId",
							"type": "uint256"
						},
						{
							"indexed": true,
							"internalType": "address",
							"name": "buyer",
							"type": "address"
						},
						{
							"indexed": false,
							"internalType": "uint256",
							"name": "amount",
							"type": "uint256"
						},
						{
							"indexed": false,
							"internalType": "uint256",
							"name": "timestamp",
							"type": "uint256"
						}
					],
					"name": "OrderPaid",
					"type": "event"
				},
				{
					"anonymous": false,
					"inputs": [
						{
							"indexed": true,
							"internalType": "uint256",
							"name": "orderId",
							"type": "uint256"
						},
						{
							"indexed": false,
							"internalType": "uint256",
							"name": "timestamp",
							"type": "uint256"
						}
					],
					"name": "OrderShipped",
					"type": "event"
				},
				{
					"inputs": [
						{
							"internalType": "uint256",
							"name": "orderId",
							"type": "uint256"
						},
						{
							"internalType": "string",
							"name": "reason",
							"type": "string"
						}
					],
					"name": "cancelOrder",
					"outputs": [],
					"stateMutability": "nonpayable",
					"type": "function"
				},
				{
					"inputs": [
						{
							"internalType": "uint256",
							"name": "orderId",
							"type": "uint256"
						}
					],
					"name": "completeOrder",
					"outputs": [],
					"stateMutability": "nonpayable",
					"type": "function"
				},
				{
					"inputs": [],
					"name": "createOrder",
					"outputs": [
						{
							"internalType": "uint256",
							"name": "",
							"type": "uint256"
						}
					],
					"stateMutability": "payable",
					"type": "function"
				},
				{
					"inputs": [],
					"name": "orderCount",
					"outputs": [
						{
							"internalType": "uint256",
							"name": "",
							"type": "uint256"
						}
					],
					"stateMutability": "view",
					"type": "function"
				},
				{
					"inputs": [
						{
							"internalType": "uint256",
							"name": "",
							"type": "uint256"
						}
					],
					"name": "orders",
					"outputs": [
						{
							"internalType": "address",
							"name": "buyer",
							"type": "address"
						},
						{
							"internalType": "uint256",
							"name": "amount",
							"type": "uint256"
						},
						{
							"internalType": "enum OrderSystem.OrderStatus",
							"name": "status",
							"type": "uint8"
						},
						{
							"internalType": "uint256",
							"name": "createdAt",
							"type": "uint256"
						}
					],
					"stateMutability": "view",
					"type": "function"
				},
				{
					"inputs": [
						{
							"internalType": "uint256",
							"name": "orderId",
							"type": "uint256"
						}
					],
					"name": "payOrder",
					"outputs": [],
					"stateMutability": "nonpayable",
					"type": "function"
				},
				{
					"inputs": [
						{
							"internalType": "uint256",
							"name": "orderId",
							"type": "uint256"
						}
					],
					"name": "shipOrder",
					"outputs": [],
					"stateMutability": "nonpayable",
					"type": "function"
				}
			],
			"devdoc": {
				"kind": "dev",
				"methods": {},
				"version": 1
			},
			"evm": {
				"assembly": "    /* \"contracts/lesson7.1/OrderSystem.sol\":58:3776  contract OrderSystem {... */\n  mstore(0x40, 0x80)\n  callvalue\n  dup1\n  iszero\n  tag_1\n  jumpi\n  revert(0x00, 0x00)\ntag_1:\n  pop\n  dataSize(sub_0)\n  dup1\n  dataOffset(sub_0)\n  0x00\n  codecopy\n  0x00\n  return\nstop\n\nsub_0: assembly {\n        /* \"contracts/lesson7.1/OrderSystem.sol\":58:3776  contract OrderSystem {... */\n      mstore(0x40, 0x80)\n      jumpi(tag_1, lt(calldatasize, 0x04))\n      shr(0xe0, calldataload(0x00))\n      dup1\n      0x6512e6ec\n      gt\n      tag_9\n      jumpi\n      dup1\n      0x6512e6ec\n      eq\n      tag_5\n      jumpi\n      dup1\n      0xa85c38ef\n      eq\n      tag_6\n      jumpi\n      dup1\n      0xad7e2181\n      eq\n      tag_7\n      jumpi\n      dup1\n      0xb6adaaff\n      eq\n      tag_8\n      jumpi\n      jump(tag_1)\n    tag_9:\n      dup1\n      0x194c302c\n      eq\n      tag_2\n      jumpi\n      dup1\n      0x2453ffa8\n      eq\n      tag_3\n      jumpi\n      dup1\n      0x2a685d3c\n      eq\n      tag_4\n      jumpi\n    tag_1:\n      revert(0x00, 0x00)\n        /* \"contracts/lesson7.1/OrderSystem.sol\":2266:2610  function shipOrder(uint256 orderId) public {... */\n    tag_2:\n      callvalue\n      dup1\n      iszero\n      tag_10\n      jumpi\n      revert(0x00, 0x00)\n    tag_10:\n      pop\n      tag_11\n      0x04\n      dup1\n      calldatasize\n      sub\n      dup2\n      add\n      swap1\n      tag_12\n      swap2\n      swap1\n      tag_13\n      jump\t// in\n    tag_12:\n      tag_14\n      jump\t// in\n    tag_11:\n      stop\n        /* \"contracts/lesson7.1/OrderSystem.sol\":337:362  uint256 public orderCount */\n    tag_3:\n      callvalue\n      dup1\n      iszero\n      tag_15\n      jumpi\n      revert(0x00, 0x00)\n    tag_15:\n      pop\n      tag_16\n      tag_17\n      jump\t// in\n    tag_16:\n      mload(0x40)\n      tag_18\n      swap2\n      swap1\n      tag_19\n      jump\t// in\n    tag_18:\n      mload(0x40)\n      dup1\n      swap2\n      sub\n      swap1\n      return\n        /* \"contracts/lesson7.1/OrderSystem.sol\":1761:2194  function payOrder(uint256 orderId) public {... */\n    tag_4:\n      callvalue\n      dup1\n      iszero\n      tag_20\n      jumpi\n      revert(0x00, 0x00)\n    tag_20:\n      pop\n      tag_21\n      0x04\n      dup1\n      calldatasize\n      sub\n      dup2\n      add\n      swap1\n      tag_22\n      swap2\n      swap1\n      tag_13\n      jump\t// in\n    tag_22:\n      tag_23\n      jump\t// in\n    tag_21:\n      stop\n        /* \"contracts/lesson7.1/OrderSystem.sol\":1200:1731  function createOrder() public payable returns (uint256) {... */\n    tag_5:\n      tag_24\n      tag_25\n      jump\t// in\n    tag_24:\n      mload(0x40)\n      tag_26\n      swap2\n      swap1\n      tag_19\n      jump\t// in\n    tag_26:\n      mload(0x40)\n      dup1\n      swap2\n      sub\n      swap1\n      return\n        /* \"contracts/lesson7.1/OrderSystem.sol\":292:331  mapping(uint256 => Order) public orders */\n    tag_6:\n      callvalue\n      dup1\n      iszero\n      tag_27\n      jumpi\n      revert(0x00, 0x00)\n    tag_27:\n      pop\n      tag_28\n      0x04\n      dup1\n      calldatasize\n      sub\n      dup2\n      add\n      swap1\n      tag_29\n      swap2\n      swap1\n      tag_13\n      jump\t// in\n    tag_29:\n      tag_30\n      jump\t// in\n    tag_28:\n      mload(0x40)\n      tag_31\n      swap5\n      swap4\n      swap3\n      swap2\n      swap1\n      tag_32\n      jump\t// in\n    tag_31:\n      mload(0x40)\n      dup1\n      swap2\n      sub\n      swap1\n      return\n        /* \"contracts/lesson7.1/OrderSystem.sol\":3101:3774  function cancelOrder(uint256 orderId, string memory reason) public {... */\n    tag_7:\n      callvalue\n      dup1\n      iszero\n      tag_33\n      jumpi\n      revert(0x00, 0x00)\n    tag_33:\n      pop\n      tag_34\n      0x04\n      dup1\n      calldatasize\n      sub\n      dup2\n      add\n      swap1\n      tag_35\n      swap2\n      swap1\n      tag_36\n      jump\t// in\n    tag_35:\n      tag_37\n      jump\t// in\n    tag_34:\n      stop\n        /* \"contracts/lesson7.1/OrderSystem.sol\":2640:3071  function completeOrder(uint256 orderId) public {... */\n    tag_8:\n      callvalue\n      dup1\n      iszero\n      tag_38\n      jumpi\n      revert(0x00, 0x00)\n    tag_38:\n      pop\n      tag_39\n      0x04\n      dup1\n      calldatasize\n      sub\n      dup2\n      add\n      swap1\n      tag_40\n      swap2\n      swap1\n      tag_13\n      jump\t// in\n    tag_40:\n      tag_41\n      jump\t// in\n    tag_39:\n      stop\n        /* \"contracts/lesson7.1/OrderSystem.sol\":2266:2610  function shipOrder(uint256 orderId) public {... */\n    tag_14:\n        /* \"contracts/lesson7.1/OrderSystem.sol\":2319:2338  Order storage order */\n      0x00\n        /* \"contracts/lesson7.1/OrderSystem.sol\":2341:2347  orders */\n      0x00\n        /* \"contracts/lesson7.1/OrderSystem.sol\":2341:2356  orders[orderId] */\n      0x00\n        /* \"contracts/lesson7.1/OrderSystem.sol\":2348:2355  orderId */\n      dup4\n        /* \"contracts/lesson7.1/OrderSystem.sol\":2341:2356  orders[orderId] */\n      dup2\n      mstore\n      0x20\n      add\n      swap1\n      dup2\n      mstore\n      0x20\n      add\n      0x00\n      keccak256\n        /* \"contracts/lesson7.1/OrderSystem.sol\":2319:2356  Order storage order = orders[orderId] */\n      swap1\n      pop\n        /* \"contracts/lesson7.1/OrderSystem.sol\":2399:2415  OrderStatus.Paid */\n      0x01\n        /* \"contracts/lesson7.1/OrderSystem.sol\":2383:2415  order.status == OrderStatus.Paid */\n      0x04\n      dup2\n      gt\n      iszero\n      tag_43\n      jumpi\n      tag_44\n      tag_45\n      jump\t// in\n    tag_44:\n    tag_43:\n        /* \"contracts/lesson7.1/OrderSystem.sol\":2383:2388  order */\n      dup2\n        /* \"contracts/lesson7.1/OrderSystem.sol\":2383:2395  order.status */\n      0x02\n      add\n      0x00\n      swap1\n      sload\n      swap1\n      0x0100\n      exp\n      swap1\n      div\n      0xff\n      and\n        /* \"contracts/lesson7.1/OrderSystem.sol\":2383:2415  order.status == OrderStatus.Paid */\n      0x04\n      dup2\n      gt\n      iszero\n      tag_46\n      jumpi\n      tag_47\n      tag_45\n      jump\t// in\n    tag_47:\n    tag_46:\n      eq\n        /* \"contracts/lesson7.1/OrderSystem.sol\":2375:2434  require(order.status == OrderStatus.Paid, \"Order not paid\") */\n      tag_48\n      jumpi\n      mload(0x40)\n      0x08c379a000000000000000000000000000000000000000000000000000000000\n      dup2\n      mstore\n      0x04\n      add\n      tag_49\n      swap1\n      tag_50\n      jump\t// in\n    tag_49:\n      mload(0x40)\n      dup1\n      swap2\n      sub\n      swap1\n      revert\n    tag_48:\n        /* \"contracts/lesson7.1/OrderSystem.sol\":2492:2511  OrderStatus.Shipped */\n      0x02\n        /* \"contracts/lesson7.1/OrderSystem.sol\":2477:2482  order */\n      dup2\n        /* \"contracts/lesson7.1/OrderSystem.sol\":2477:2489  order.status */\n      0x02\n      add\n      0x00\n        /* \"contracts/lesson7.1/OrderSystem.sol\":2477:2511  order.status = OrderStatus.Shipped */\n      0x0100\n      exp\n      dup2\n      sload\n      dup2\n      0xff\n      mul\n      not\n      and\n      swap1\n      dup4\n      0x04\n      dup2\n      gt\n      iszero\n      tag_51\n      jumpi\n      tag_52\n      tag_45\n      jump\t// in\n    tag_52:\n    tag_51:\n      mul\n      or\n      swap1\n      sstore\n      pop\n        /* \"contracts/lesson7.1/OrderSystem.sol\":2578:2585  orderId */\n      dup2\n        /* \"contracts/lesson7.1/OrderSystem.sol\":2565:2603  OrderShipped(orderId, block.timestamp) */\n      0xd293cce49277a4dadc0edc7a4a30f89cb1d3bffcf9f52380f4f52525243ad7f9\n        /* \"contracts/lesson7.1/OrderSystem.sol\":2587:2602  block.timestamp */\n      timestamp\n        /* \"contracts/lesson7.1/OrderSystem.sol\":2565:2603  OrderShipped(orderId, block.timestamp) */\n      mload(0x40)\n      tag_53\n      swap2\n      swap1\n      tag_19\n      jump\t// in\n    tag_53:\n      mload(0x40)\n      dup1\n      swap2\n      sub\n      swap1\n      log2\n        /* \"contracts/lesson7.1/OrderSystem.sol\":2309:2610  {... */\n      pop\n        /* \"contracts/lesson7.1/OrderSystem.sol\":2266:2610  function shipOrder(uint256 orderId) public {... */\n      pop\n      jump\t// out\n        /* \"contracts/lesson7.1/OrderSystem.sol\":337:362  uint256 public orderCount */\n    tag_17:\n      sload(0x01)\n      dup2\n      jump\t// out\n        /* \"contracts/lesson7.1/OrderSystem.sol\":1761:2194  function payOrder(uint256 orderId) public {... */\n    tag_23:\n        /* \"contracts/lesson7.1/OrderSystem.sol\":1813:1832  Order storage order */\n      0x00\n        /* \"contracts/lesson7.1/OrderSystem.sol\":1835:1841  orders */\n      0x00\n        /* \"contracts/lesson7.1/OrderSystem.sol\":1835:1850  orders[orderId] */\n      0x00\n        /* \"contracts/lesson7.1/OrderSystem.sol\":1842:1849  orderId */\n      dup4\n        /* \"contracts/lesson7.1/OrderSystem.sol\":1835:1850  orders[orderId] */\n      dup2\n      mstore\n      0x20\n      add\n      swap1\n      dup2\n      mstore\n      0x20\n      add\n      0x00\n      keccak256\n        /* \"contracts/lesson7.1/OrderSystem.sol\":1813:1850  Order storage order = orders[orderId] */\n      swap1\n      pop\n        /* \"contracts/lesson7.1/OrderSystem.sol\":1892:1902  msg.sender */\n      caller\n        /* \"contracts/lesson7.1/OrderSystem.sol\":1877:1902  order.buyer == msg.sender */\n      0xffffffffffffffffffffffffffffffffffffffff\n      and\n        /* \"contracts/lesson7.1/OrderSystem.sol\":1877:1882  order */\n      dup2\n        /* \"contracts/lesson7.1/OrderSystem.sol\":1877:1888  order.buyer */\n      0x00\n      add\n      0x00\n      swap1\n      sload\n      swap1\n      0x0100\n      exp\n      swap1\n      div\n      0xffffffffffffffffffffffffffffffffffffffff\n      and\n        /* \"contracts/lesson7.1/OrderSystem.sol\":1877:1902  order.buyer == msg.sender */\n      0xffffffffffffffffffffffffffffffffffffffff\n      and\n      eq\n        /* \"contracts/lesson7.1/OrderSystem.sol\":1869:1920  require(order.buyer == msg.sender, \"Not the buyer\") */\n      tag_55\n      jumpi\n      mload(0x40)\n      0x08c379a000000000000000000000000000000000000000000000000000000000\n      dup2\n      mstore\n      0x04\n      add\n      tag_56\n      swap1\n      tag_57\n      jump\t// in\n    tag_56:\n      mload(0x40)\n      dup1\n      swap2\n      sub\n      swap1\n      revert\n    tag_55:\n        /* \"contracts/lesson7.1/OrderSystem.sol\":1954:1973  OrderStatus.Created */\n      0x00\n        /* \"contracts/lesson7.1/OrderSystem.sol\":1938:1973  order.status == OrderStatus.Created */\n      0x04\n      dup2\n      gt\n      iszero\n      tag_58\n      jumpi\n      tag_59\n      tag_45\n      jump\t// in\n    tag_59:\n    tag_58:\n        /* \"contracts/lesson7.1/OrderSystem.sol\":1938:1943  order */\n      dup2\n        /* \"contracts/lesson7.1/OrderSystem.sol\":1938:1950  order.status */\n      0x02\n      add\n      0x00\n      swap1\n      sload\n      swap1\n      0x0100\n      exp\n      swap1\n      div\n      0xff\n      and\n        /* \"contracts/lesson7.1/OrderSystem.sol\":1938:1973  order.status == OrderStatus.Created */\n      0x04\n      dup2\n      gt\n      iszero\n      tag_60\n      jumpi\n      tag_61\n      tag_45\n      jump\t// in\n    tag_61:\n    tag_60:\n      eq\n        /* \"contracts/lesson7.1/OrderSystem.sol\":1930:1998  require(order.status == OrderStatus.Created, \"Invalid order status\") */\n      tag_62\n      jumpi\n      mload(0x40)\n      0x08c379a000000000000000000000000000000000000000000000000000000000\n      dup2\n      mstore\n      0x04\n      add\n      tag_63\n      swap1\n      tag_64\n      jump\t// in\n    tag_63:\n      mload(0x40)\n      dup1\n      swap2\n      sub\n      swap1\n      revert\n    tag_62:\n        /* \"contracts/lesson7.1/OrderSystem.sol\":2056:2072  OrderStatus.Paid */\n      0x01\n        /* \"contracts/lesson7.1/OrderSystem.sol\":2041:2046  order */\n      dup2\n        /* \"contracts/lesson7.1/OrderSystem.sol\":2041:2053  order.status */\n      0x02\n      add\n      0x00\n        /* \"contracts/lesson7.1/OrderSystem.sol\":2041:2072  order.status = OrderStatus.Paid */\n      0x0100\n      exp\n      dup2\n      sload\n      dup2\n      0xff\n      mul\n      not\n      and\n      swap1\n      dup4\n      0x04\n      dup2\n      gt\n      iszero\n      tag_65\n      jumpi\n      tag_66\n      tag_45\n      jump\t// in\n    tag_66:\n    tag_65:\n      mul\n      or\n      swap1\n      sstore\n      pop\n        /* \"contracts/lesson7.1/OrderSystem.sol\":2145:2155  msg.sender */\n      caller\n        /* \"contracts/lesson7.1/OrderSystem.sol\":2126:2187  OrderPaid(orderId, msg.sender, order.amount, block.timestamp) */\n      0xffffffffffffffffffffffffffffffffffffffff\n      and\n        /* \"contracts/lesson7.1/OrderSystem.sol\":2136:2143  orderId */\n      dup3\n        /* \"contracts/lesson7.1/OrderSystem.sol\":2126:2187  OrderPaid(orderId, msg.sender, order.amount, block.timestamp) */\n      0x1a9df17bc46d3a01929944669671ff9da8906ec5d59a9d0495ecb656c7673b62\n        /* \"contracts/lesson7.1/OrderSystem.sol\":2157:2162  order */\n      dup4\n        /* \"contracts/lesson7.1/OrderSystem.sol\":2157:2169  order.amount */\n      0x01\n      add\n      sload\n        /* \"contracts/lesson7.1/OrderSystem.sol\":2171:2186  block.timestamp */\n      timestamp\n        /* \"contracts/lesson7.1/OrderSystem.sol\":2126:2187  OrderPaid(orderId, msg.sender, order.amount, block.timestamp) */\n      mload(0x40)\n      tag_67\n      swap3\n      swap2\n      swap1\n      tag_68\n      jump\t// in\n    tag_67:\n      mload(0x40)\n      dup1\n      swap2\n      sub\n      swap1\n      log3\n        /* \"contracts/lesson7.1/OrderSystem.sol\":1803:2194  {... */\n      pop\n        /* \"contracts/lesson7.1/OrderSystem.sol\":1761:2194  function payOrder(uint256 orderId) public {... */\n      pop\n      jump\t// out\n        /* \"contracts/lesson7.1/OrderSystem.sol\":1200:1731  function createOrder() public payable returns (uint256) {... */\n    tag_25:\n        /* \"contracts/lesson7.1/OrderSystem.sol\":1247:1254  uint256 */\n      0x00\n        /* \"contracts/lesson7.1/OrderSystem.sol\":1286:1287  0 */\n      0x00\n        /* \"contracts/lesson7.1/OrderSystem.sol\":1274:1283  msg.value */\n      callvalue\n        /* \"contracts/lesson7.1/OrderSystem.sol\":1274:1287  msg.value > 0 */\n      gt\n        /* \"contracts/lesson7.1/OrderSystem.sol\":1266:1324  require(msg.value > 0, \"Amount must be greater than zero\") */\n      tag_70\n      jumpi\n      mload(0x40)\n      0x08c379a000000000000000000000000000000000000000000000000000000000\n      dup2\n      mstore\n      0x04\n      add\n      tag_71\n      swap1\n      tag_72\n      jump\t// in\n    tag_71:\n      mload(0x40)\n      dup1\n      swap2\n      sub\n      swap1\n      revert\n    tag_70:\n        /* \"contracts/lesson7.1/OrderSystem.sol\":1343:1358  uint256 orderId */\n      0x00\n        /* \"contracts/lesson7.1/OrderSystem.sol\":1361:1371  orderCount */\n      0x01\n      0x00\n        /* \"contracts/lesson7.1/OrderSystem.sol\":1361:1373  orderCount++ */\n      dup2\n      sload\n      dup1\n      swap3\n      swap2\n      swap1\n      tag_73\n      swap1\n      tag_74\n      jump\t// in\n    tag_73:\n      swap2\n      swap1\n      pop\n      sstore\n        /* \"contracts/lesson7.1/OrderSystem.sol\":1343:1373  uint256 orderId = orderCount++ */\n      swap1\n      pop\n        /* \"contracts/lesson7.1/OrderSystem.sol\":1410:1570  Order({... */\n      mload(0x40)\n      dup1\n      0x80\n      add\n      0x40\n      mstore\n      dup1\n        /* \"contracts/lesson7.1/OrderSystem.sol\":1437:1447  msg.sender */\n      caller\n        /* \"contracts/lesson7.1/OrderSystem.sol\":1410:1570  Order({... */\n      0xffffffffffffffffffffffffffffffffffffffff\n      and\n      dup2\n      mstore\n      0x20\n      add\n        /* \"contracts/lesson7.1/OrderSystem.sol\":1469:1478  msg.value */\n      callvalue\n        /* \"contracts/lesson7.1/OrderSystem.sol\":1410:1570  Order({... */\n      dup2\n      mstore\n      0x20\n      add\n        /* \"contracts/lesson7.1/OrderSystem.sol\":1500:1519  OrderStatus.Created */\n      0x00\n        /* \"contracts/lesson7.1/OrderSystem.sol\":1410:1570  Order({... */\n      0x04\n      dup2\n      gt\n      iszero\n      tag_75\n      jumpi\n      tag_76\n      tag_45\n      jump\t// in\n    tag_76:\n    tag_75:\n      dup2\n      mstore\n      0x20\n      add\n        /* \"contracts/lesson7.1/OrderSystem.sol\":1544:1559  block.timestamp */\n      timestamp\n        /* \"contracts/lesson7.1/OrderSystem.sol\":1410:1570  Order({... */\n      dup2\n      mstore\n      pop\n        /* \"contracts/lesson7.1/OrderSystem.sol\":1392:1398  orders */\n      0x00\n        /* \"contracts/lesson7.1/OrderSystem.sol\":1392:1407  orders[orderId] */\n      0x00\n        /* \"contracts/lesson7.1/OrderSystem.sol\":1399:1406  orderId */\n      dup4\n        /* \"contracts/lesson7.1/OrderSystem.sol\":1392:1407  orders[orderId] */\n      dup2\n      mstore\n      0x20\n      add\n      swap1\n      dup2\n      mstore\n      0x20\n      add\n      0x00\n      keccak256\n        /* \"contracts/lesson7.1/OrderSystem.sol\":1392:1570  orders[orderId] = Order({... */\n      0x00\n      dup3\n      add\n      mload\n      dup2\n      0x00\n      add\n      exp(0x0100, 0x00)\n      dup2\n      sload\n      dup2\n      0xffffffffffffffffffffffffffffffffffffffff\n      mul\n      not\n      and\n      swap1\n      dup4\n      0xffffffffffffffffffffffffffffffffffffffff\n      and\n      mul\n      or\n      swap1\n      sstore\n      pop\n      0x20\n      dup3\n      add\n      mload\n      dup2\n      0x01\n      add\n      sstore\n      0x40\n      dup3\n      add\n      mload\n      dup2\n      0x02\n      add\n      exp(0x0100, 0x00)\n      dup2\n      sload\n      dup2\n      0xff\n      mul\n      not\n      and\n      swap1\n      dup4\n      0x04\n      dup2\n      gt\n      iszero\n      tag_77\n      jumpi\n      tag_78\n      tag_45\n      jump\t// in\n    tag_78:\n    tag_77:\n      mul\n      or\n      swap1\n      sstore\n      pop\n      0x60\n      dup3\n      add\n      mload\n      dup2\n      0x03\n      add\n      sstore\n      swap1\n      pop\n      pop\n        /* \"contracts/lesson7.1/OrderSystem.sol\":1652:1662  msg.sender */\n      caller\n        /* \"contracts/lesson7.1/OrderSystem.sol\":1630:1691  OrderCreated(orderId, msg.sender, msg.value, block.timestamp) */\n      0xffffffffffffffffffffffffffffffffffffffff\n      and\n        /* \"contracts/lesson7.1/OrderSystem.sol\":1643:1650  orderId */\n      dup2\n        /* \"contracts/lesson7.1/OrderSystem.sol\":1630:1691  OrderCreated(orderId, msg.sender, msg.value, block.timestamp) */\n      0xf7c110a6973307f2bc91245c2c06344ada13add2c1741e83ac5c0bb332bc85d5\n        /* \"contracts/lesson7.1/OrderSystem.sol\":1664:1673  msg.value */\n      callvalue\n        /* \"contracts/lesson7.1/OrderSystem.sol\":1675:1690  block.timestamp */\n      timestamp\n        /* \"contracts/lesson7.1/OrderSystem.sol\":1630:1691  OrderCreated(orderId, msg.sender, msg.value, block.timestamp) */\n      mload(0x40)\n      tag_79\n      swap3\n      swap2\n      swap1\n      tag_68\n      jump\t// in\n    tag_79:\n      mload(0x40)\n      dup1\n      swap2\n      sub\n      swap1\n      log3\n        /* \"contracts/lesson7.1/OrderSystem.sol\":1717:1724  orderId */\n      dup1\n        /* \"contracts/lesson7.1/OrderSystem.sol\":1710:1724  return orderId */\n      swap2\n      pop\n      pop\n        /* \"contracts/lesson7.1/OrderSystem.sol\":1200:1731  function createOrder() public payable returns (uint256) {... */\n      swap1\n      jump\t// out\n        /* \"contracts/lesson7.1/OrderSystem.sol\":292:331  mapping(uint256 => Order) public orders */\n    tag_30:\n      mstore(0x20, 0x00)\n      dup1\n      0x00\n      mstore\n      keccak256(0x00, 0x40)\n      0x00\n      swap2\n      pop\n      swap1\n      pop\n      dup1\n      0x00\n      add\n      0x00\n      swap1\n      sload\n      swap1\n      0x0100\n      exp\n      swap1\n      div\n      0xffffffffffffffffffffffffffffffffffffffff\n      and\n      swap1\n      dup1\n      0x01\n      add\n      sload\n      swap1\n      dup1\n      0x02\n      add\n      0x00\n      swap1\n      sload\n      swap1\n      0x0100\n      exp\n      swap1\n      div\n      0xff\n      and\n      swap1\n      dup1\n      0x03\n      add\n      sload\n      swap1\n      pop\n      dup5\n      jump\t// out\n        /* \"contracts/lesson7.1/OrderSystem.sol\":3101:3774  function cancelOrder(uint256 orderId, string memory reason) public {... */\n    tag_37:\n        /* \"contracts/lesson7.1/OrderSystem.sol\":3178:3197  Order storage order */\n      0x00\n        /* \"contracts/lesson7.1/OrderSystem.sol\":3200:3206  orders */\n      0x00\n        /* \"contracts/lesson7.1/OrderSystem.sol\":3200:3215  orders[orderId] */\n      0x00\n        /* \"contracts/lesson7.1/OrderSystem.sol\":3207:3214  orderId */\n      dup5\n        /* \"contracts/lesson7.1/OrderSystem.sol\":3200:3215  orders[orderId] */\n      dup2\n      mstore\n      0x20\n      add\n      swap1\n      dup2\n      mstore\n      0x20\n      add\n      0x00\n      keccak256\n        /* \"contracts/lesson7.1/OrderSystem.sol\":3178:3215  Order storage order = orders[orderId] */\n      swap1\n      pop\n        /* \"contracts/lesson7.1/OrderSystem.sol\":3257:3267  msg.sender */\n      caller\n        /* \"contracts/lesson7.1/OrderSystem.sol\":3242:3267  order.buyer == msg.sender */\n      0xffffffffffffffffffffffffffffffffffffffff\n      and\n        /* \"contracts/lesson7.1/OrderSystem.sol\":3242:3247  order */\n      dup2\n        /* \"contracts/lesson7.1/OrderSystem.sol\":3242:3253  order.buyer */\n      0x00\n      add\n      0x00\n      swap1\n      sload\n      swap1\n      0x0100\n      exp\n      swap1\n      div\n      0xffffffffffffffffffffffffffffffffffffffff\n      and\n        /* \"contracts/lesson7.1/OrderSystem.sol\":3242:3267  order.buyer == msg.sender */\n      0xffffffffffffffffffffffffffffffffffffffff\n      and\n      eq\n        /* \"contracts/lesson7.1/OrderSystem.sol\":3234:3285  require(order.buyer == msg.sender, \"Not the buyer\") */\n      tag_81\n      jumpi\n      mload(0x40)\n      0x08c379a000000000000000000000000000000000000000000000000000000000\n      dup2\n      mstore\n      0x04\n      add\n      tag_82\n      swap1\n      tag_57\n      jump\t// in\n    tag_82:\n      mload(0x40)\n      dup1\n      swap2\n      sub\n      swap1\n      revert\n    tag_81:\n        /* \"contracts/lesson7.1/OrderSystem.sol\":3332:3351  OrderStatus.Created */\n      0x00\n        /* \"contracts/lesson7.1/OrderSystem.sol\":3316:3351  order.status == OrderStatus.Created */\n      0x04\n      dup2\n      gt\n      iszero\n      tag_83\n      jumpi\n      tag_84\n      tag_45\n      jump\t// in\n    tag_84:\n    tag_83:\n        /* \"contracts/lesson7.1/OrderSystem.sol\":3316:3321  order */\n      dup2\n        /* \"contracts/lesson7.1/OrderSystem.sol\":3316:3328  order.status */\n      0x02\n      add\n      0x00\n      swap1\n      sload\n      swap1\n      0x0100\n      exp\n      swap1\n      div\n      0xff\n      and\n        /* \"contracts/lesson7.1/OrderSystem.sol\":3316:3351  order.status == OrderStatus.Created */\n      0x04\n      dup2\n      gt\n      iszero\n      tag_85\n      jumpi\n      tag_86\n      tag_45\n      jump\t// in\n    tag_86:\n    tag_85:\n      eq\n        /* \"contracts/lesson7.1/OrderSystem.sol\":3316:3387  order.status == OrderStatus.Created || order.status == OrderStatus.Paid */\n      dup1\n      tag_87\n      jumpi\n      pop\n        /* \"contracts/lesson7.1/OrderSystem.sol\":3371:3387  OrderStatus.Paid */\n      0x01\n        /* \"contracts/lesson7.1/OrderSystem.sol\":3355:3387  order.status == OrderStatus.Paid */\n      0x04\n      dup2\n      gt\n      iszero\n      tag_88\n      jumpi\n      tag_89\n      tag_45\n      jump\t// in\n    tag_89:\n    tag_88:\n        /* \"contracts/lesson7.1/OrderSystem.sol\":3355:3360  order */\n      dup2\n        /* \"contracts/lesson7.1/OrderSystem.sol\":3355:3367  order.status */\n      0x02\n      add\n      0x00\n      swap1\n      sload\n      swap1\n      0x0100\n      exp\n      swap1\n      div\n      0xff\n      and\n        /* \"contracts/lesson7.1/OrderSystem.sol\":3355:3387  order.status == OrderStatus.Paid */\n      0x04\n      dup2\n      gt\n      iszero\n      tag_90\n      jumpi\n      tag_91\n      tag_45\n      jump\t// in\n    tag_91:\n    tag_90:\n      eq\n        /* \"contracts/lesson7.1/OrderSystem.sol\":3316:3387  order.status == OrderStatus.Created || order.status == OrderStatus.Paid */\n    tag_87:\n        /* \"contracts/lesson7.1/OrderSystem.sol\":3295:3432  require(... */\n      tag_92\n      jumpi\n      mload(0x40)\n      0x08c379a000000000000000000000000000000000000000000000000000000000\n      dup2\n      mstore\n      0x04\n      add\n      tag_93\n      swap1\n      tag_94\n      jump\t// in\n    tag_93:\n      mload(0x40)\n      dup1\n      swap2\n      sub\n      swap1\n      revert\n    tag_92:\n        /* \"contracts/lesson7.1/OrderSystem.sol\":3490:3511  OrderStatus.Cancelled */\n      0x04\n        /* \"contracts/lesson7.1/OrderSystem.sol\":3475:3480  order */\n      dup2\n        /* \"contracts/lesson7.1/OrderSystem.sol\":3475:3487  order.status */\n      0x02\n      add\n      0x00\n        /* \"contracts/lesson7.1/OrderSystem.sol\":3475:3511  order.status = OrderStatus.Cancelled */\n      0x0100\n      exp\n      dup2\n      sload\n      dup2\n      0xff\n      mul\n      not\n      and\n      swap1\n      dup4\n      0x04\n      dup2\n      gt\n      iszero\n      tag_95\n      jumpi\n      tag_96\n      tag_45\n      jump\t// in\n    tag_96:\n    tag_95:\n      mul\n      or\n      swap1\n      sstore\n      pop\n        /* \"contracts/lesson7.1/OrderSystem.sol\":3568:3584  OrderStatus.Paid */\n      0x01\n        /* \"contracts/lesson7.1/OrderSystem.sol\":3552:3584  order.status == OrderStatus.Paid */\n      0x04\n      dup2\n      gt\n      iszero\n      tag_97\n      jumpi\n      tag_98\n      tag_45\n      jump\t// in\n    tag_98:\n    tag_97:\n        /* \"contracts/lesson7.1/OrderSystem.sol\":3552:3557  order */\n      dup2\n        /* \"contracts/lesson7.1/OrderSystem.sol\":3552:3564  order.status */\n      0x02\n      add\n      0x00\n      swap1\n      sload\n      swap1\n      0x0100\n      exp\n      swap1\n      div\n      0xff\n      and\n        /* \"contracts/lesson7.1/OrderSystem.sol\":3552:3584  order.status == OrderStatus.Paid */\n      0x04\n      dup2\n      gt\n      iszero\n      tag_99\n      jumpi\n      tag_100\n      tag_45\n      jump\t// in\n    tag_100:\n    tag_99:\n      sub\n        /* \"contracts/lesson7.1/OrderSystem.sol\":3548:3654  if (order.status == OrderStatus.Paid) {... */\n      tag_101\n      jumpi\n        /* \"contracts/lesson7.1/OrderSystem.sol\":3608:3613  order */\n      dup1\n        /* \"contracts/lesson7.1/OrderSystem.sol\":3608:3619  order.buyer */\n      0x00\n      add\n      0x00\n      swap1\n      sload\n      swap1\n      0x0100\n      exp\n      swap1\n      div\n      0xffffffffffffffffffffffffffffffffffffffff\n      and\n        /* \"contracts/lesson7.1/OrderSystem.sol\":3600:3629  payable(order.buyer).transfer */\n      0xffffffffffffffffffffffffffffffffffffffff\n      and\n        /* \"contracts/lesson7.1/OrderSystem.sol\":3600:3643  payable(order.buyer).transfer(order.amount) */\n      0x08fc\n        /* \"contracts/lesson7.1/OrderSystem.sol\":3630:3635  order */\n      dup3\n        /* \"contracts/lesson7.1/OrderSystem.sol\":3630:3642  order.amount */\n      0x01\n      add\n      sload\n        /* \"contracts/lesson7.1/OrderSystem.sol\":3600:3643  payable(order.buyer).transfer(order.amount) */\n      swap1\n      dup2\n      iszero\n      mul\n      swap1\n      mload(0x40)\n      0x00\n      mload(0x40)\n      dup1\n      dup4\n      sub\n      dup2\n      dup6\n      dup9\n      dup9\n      call\n      swap4\n      pop\n      pop\n      pop\n      pop\n      iszero\n      dup1\n      iszero\n      tag_103\n      jumpi\n      returndatacopy(0x00, 0x00, returndatasize)\n      revert(0x00, returndatasize)\n    tag_103:\n      pop\n        /* \"contracts/lesson7.1/OrderSystem.sol\":3548:3654  if (order.status == OrderStatus.Paid) {... */\n    tag_101:\n        /* \"contracts/lesson7.1/OrderSystem.sol\":3731:3741  msg.sender */\n      caller\n        /* \"contracts/lesson7.1/OrderSystem.sol\":3707:3767  OrderCancelled(orderId, msg.sender, reason, block.timestamp) */\n      0xffffffffffffffffffffffffffffffffffffffff\n      and\n        /* \"contracts/lesson7.1/OrderSystem.sol\":3722:3729  orderId */\n      dup4\n        /* \"contracts/lesson7.1/OrderSystem.sol\":3707:3767  OrderCancelled(orderId, msg.sender, reason, block.timestamp) */\n      0xdc86692145cc5cd06412f3270c48a27f4c084eb81fbf8a70c5913f4c88326156\n        /* \"contracts/lesson7.1/OrderSystem.sol\":3743:3749  reason */\n      dup5\n        /* \"contracts/lesson7.1/OrderSystem.sol\":3751:3766  block.timestamp */\n      timestamp\n        /* \"contracts/lesson7.1/OrderSystem.sol\":3707:3767  OrderCancelled(orderId, msg.sender, reason, block.timestamp) */\n      mload(0x40)\n      tag_104\n      swap3\n      swap2\n      swap1\n      tag_105\n      jump\t// in\n    tag_104:\n      mload(0x40)\n      dup1\n      swap2\n      sub\n      swap1\n      log3\n        /* \"contracts/lesson7.1/OrderSystem.sol\":3168:3774  {... */\n      pop\n        /* \"contracts/lesson7.1/OrderSystem.sol\":3101:3774  function cancelOrder(uint256 orderId, string memory reason) public {... */\n      pop\n      pop\n      jump\t// out\n        /* \"contracts/lesson7.1/OrderSystem.sol\":2640:3071  function completeOrder(uint256 orderId) public {... */\n    tag_41:\n        /* \"contracts/lesson7.1/OrderSystem.sol\":2697:2716  Order storage order */\n      0x00\n        /* \"contracts/lesson7.1/OrderSystem.sol\":2719:2725  orders */\n      0x00\n        /* \"contracts/lesson7.1/OrderSystem.sol\":2719:2734  orders[orderId] */\n      0x00\n        /* \"contracts/lesson7.1/OrderSystem.sol\":2726:2733  orderId */\n      dup4\n        /* \"contracts/lesson7.1/OrderSystem.sol\":2719:2734  orders[orderId] */\n      dup2\n      mstore\n      0x20\n      add\n      swap1\n      dup2\n      mstore\n      0x20\n      add\n      0x00\n      keccak256\n        /* \"contracts/lesson7.1/OrderSystem.sol\":2697:2734  Order storage order = orders[orderId] */\n      swap1\n      pop\n        /* \"contracts/lesson7.1/OrderSystem.sol\":2776:2786  msg.sender */\n      caller\n        /* \"contracts/lesson7.1/OrderSystem.sol\":2761:2786  order.buyer == msg.sender */\n      0xffffffffffffffffffffffffffffffffffffffff\n      and\n        /* \"contracts/lesson7.1/OrderSystem.sol\":2761:2766  order */\n      dup2\n        /* \"contracts/lesson7.1/OrderSystem.sol\":2761:2772  order.buyer */\n      0x00\n      add\n      0x00\n      swap1\n      sload\n      swap1\n      0x0100\n      exp\n      swap1\n      div\n      0xffffffffffffffffffffffffffffffffffffffff\n      and\n        /* \"contracts/lesson7.1/OrderSystem.sol\":2761:2786  order.buyer == msg.sender */\n      0xffffffffffffffffffffffffffffffffffffffff\n      and\n      eq\n        /* \"contracts/lesson7.1/OrderSystem.sol\":2753:2804  require(order.buyer == msg.sender, \"Not the buyer\") */\n      tag_107\n      jumpi\n      mload(0x40)\n      0x08c379a000000000000000000000000000000000000000000000000000000000\n      dup2\n      mstore\n      0x04\n      add\n      tag_108\n      swap1\n      tag_57\n      jump\t// in\n    tag_108:\n      mload(0x40)\n      dup1\n      swap2\n      sub\n      swap1\n      revert\n    tag_107:\n        /* \"contracts/lesson7.1/OrderSystem.sol\":2838:2857  OrderStatus.Shipped */\n      0x02\n        /* \"contracts/lesson7.1/OrderSystem.sol\":2822:2857  order.status == OrderStatus.Shipped */\n      0x04\n      dup2\n      gt\n      iszero\n      tag_109\n      jumpi\n      tag_110\n      tag_45\n      jump\t// in\n    tag_110:\n    tag_109:\n        /* \"contracts/lesson7.1/OrderSystem.sol\":2822:2827  order */\n      dup2\n        /* \"contracts/lesson7.1/OrderSystem.sol\":2822:2834  order.status */\n      0x02\n      add\n      0x00\n      swap1\n      sload\n      swap1\n      0x0100\n      exp\n      swap1\n      div\n      0xff\n      and\n        /* \"contracts/lesson7.1/OrderSystem.sol\":2822:2857  order.status == OrderStatus.Shipped */\n      0x04\n      dup2\n      gt\n      iszero\n      tag_111\n      jumpi\n      tag_112\n      tag_45\n      jump\t// in\n    tag_112:\n    tag_111:\n      eq\n        /* \"contracts/lesson7.1/OrderSystem.sol\":2814:2879  require(order.status == OrderStatus.Shipped, \"Order not shipped\") */\n      tag_113\n      jumpi\n      mload(0x40)\n      0x08c379a000000000000000000000000000000000000000000000000000000000\n      dup2\n      mstore\n      0x04\n      add\n      tag_114\n      swap1\n      tag_115\n      jump\t// in\n    tag_114:\n      mload(0x40)\n      dup1\n      swap2\n      sub\n      swap1\n      revert\n    tag_113:\n        /* \"contracts/lesson7.1/OrderSystem.sol\":2937:2958  OrderStatus.Completed */\n      0x03\n        /* \"contracts/lesson7.1/OrderSystem.sol\":2922:2927  order */\n      dup2\n        /* \"contracts/lesson7.1/OrderSystem.sol\":2922:2934  order.status */\n      0x02\n      add\n      0x00\n        /* \"contracts/lesson7.1/OrderSystem.sol\":2922:2958  order.status = OrderStatus.Completed */\n      0x0100\n      exp\n      dup2\n      sload\n      dup2\n      0xff\n      mul\n      not\n      and\n      swap1\n      dup4\n      0x04\n      dup2\n      gt\n      iszero\n      tag_116\n      jumpi\n      tag_117\n      tag_45\n      jump\t// in\n    tag_117:\n    tag_116:\n      mul\n      or\n      swap1\n      sstore\n      pop\n        /* \"contracts/lesson7.1/OrderSystem.sol\":3036:3046  msg.sender */\n      caller\n        /* \"contracts/lesson7.1/OrderSystem.sol\":3012:3064  OrderCompleted(orderId, msg.sender, block.timestamp) */\n      0xffffffffffffffffffffffffffffffffffffffff\n      and\n        /* \"contracts/lesson7.1/OrderSystem.sol\":3027:3034  orderId */\n      dup3\n        /* \"contracts/lesson7.1/OrderSystem.sol\":3012:3064  OrderCompleted(orderId, msg.sender, block.timestamp) */\n      0xe542d9ced06ebf48c00dc3567a112897fa34963ecc9a6ebf2beba9bc70f56894\n        /* \"contracts/lesson7.1/OrderSystem.sol\":3048:3063  block.timestamp */\n      timestamp\n        /* \"contracts/lesson7.1/OrderSystem.sol\":3012:3064  OrderCompleted(orderId, msg.sender, block.timestamp) */\n      mload(0x40)\n      tag_118\n      swap2\n      swap1\n      tag_19\n      jump\t// in\n    tag_118:\n      mload(0x40)\n      dup1\n      swap2\n      sub\n      swap1\n      log3\n        /* \"contracts/lesson7.1/OrderSystem.sol\":2687:3071  {... */\n      pop\n        /* \"contracts/lesson7.1/OrderSystem.sol\":2640:3071  function completeOrder(uint256 orderId) public {... */\n      pop\n      jump\t// out\n        /* \"#utility.yul\":7:82   */\n    tag_119:\n        /* \"#utility.yul\":40:46   */\n      0x00\n        /* \"#utility.yul\":73:75   */\n      0x40\n        /* \"#utility.yul\":67:76   */\n      mload\n        /* \"#utility.yul\":57:76   */\n      swap1\n      pop\n        /* \"#utility.yul\":7:82   */\n      swap1\n      jump\t// out\n        /* \"#utility.yul\":88:205   */\n    tag_120:\n        /* \"#utility.yul\":197:198   */\n      0x00\n        /* \"#utility.yul\":194:195   */\n      0x00\n        /* \"#utility.yul\":187:199   */\n      revert\n        /* \"#utility.yul\":211:328   */\n    tag_121:\n        /* \"#utility.yul\":320:321   */\n      0x00\n        /* \"#utility.yul\":317:318   */\n      0x00\n        /* \"#utility.yul\":310:322   */\n      revert\n        /* \"#utility.yul\":334:411   */\n    tag_122:\n        /* \"#utility.yul\":371:378   */\n      0x00\n        /* \"#utility.yul\":400:405   */\n      dup2\n        /* \"#utility.yul\":389:405   */\n      swap1\n      pop\n        /* \"#utility.yul\":334:411   */\n      swap2\n      swap1\n      pop\n      jump\t// out\n        /* \"#utility.yul\":417:539   */\n    tag_123:\n        /* \"#utility.yul\":490:514   */\n      tag_166\n        /* \"#utility.yul\":508:513   */\n      dup2\n        /* \"#utility.yul\":490:514   */\n      tag_122\n      jump\t// in\n    tag_166:\n        /* \"#utility.yul\":483:488   */\n      dup2\n        /* \"#utility.yul\":480:515   */\n      eq\n        /* \"#utility.yul\":470:533   */\n      tag_167\n      jumpi\n        /* \"#utility.yul\":529:530   */\n      0x00\n        /* \"#utility.yul\":526:527   */\n      0x00\n        /* \"#utility.yul\":519:531   */\n      revert\n        /* \"#utility.yul\":470:533   */\n    tag_167:\n        /* \"#utility.yul\":417:539   */\n      pop\n      jump\t// out\n        /* \"#utility.yul\":545:684   */\n    tag_124:\n        /* \"#utility.yul\":591:596   */\n      0x00\n        /* \"#utility.yul\":629:635   */\n      dup2\n        /* \"#utility.yul\":616:636   */\n      calldataload\n        /* \"#utility.yul\":607:636   */\n      swap1\n      pop\n        /* \"#utility.yul\":645:678   */\n      tag_169\n        /* \"#utility.yul\":672:677   */\n      dup2\n        /* \"#utility.yul\":645:678   */\n      tag_123\n      jump\t// in\n    tag_169:\n        /* \"#utility.yul\":545:684   */\n      swap3\n      swap2\n      pop\n      pop\n      jump\t// out\n        /* \"#utility.yul\":690:1019   */\n    tag_13:\n        /* \"#utility.yul\":749:755   */\n      0x00\n        /* \"#utility.yul\":798:800   */\n      0x20\n        /* \"#utility.yul\":786:795   */\n      dup3\n        /* \"#utility.yul\":777:784   */\n      dup5\n        /* \"#utility.yul\":773:796   */\n      sub\n        /* \"#utility.yul\":769:801   */\n      slt\n        /* \"#utility.yul\":766:885   */\n      iszero\n      tag_171\n      jumpi\n        /* \"#utility.yul\":804:883   */\n      tag_172\n      tag_120\n      jump\t// in\n    tag_172:\n        /* \"#utility.yul\":766:885   */\n    tag_171:\n        /* \"#utility.yul\":924:925   */\n      0x00\n        /* \"#utility.yul\":949:1002   */\n      tag_173\n        /* \"#utility.yul\":994:1001   */\n      dup5\n        /* \"#utility.yul\":985:991   */\n      dup3\n        /* \"#utility.yul\":974:983   */\n      dup6\n        /* \"#utility.yul\":970:992   */\n      add\n        /* \"#utility.yul\":949:1002   */\n      tag_124\n      jump\t// in\n    tag_173:\n        /* \"#utility.yul\":939:1002   */\n      swap2\n      pop\n        /* \"#utility.yul\":895:1012   */\n      pop\n        /* \"#utility.yul\":690:1019   */\n      swap3\n      swap2\n      pop\n      pop\n      jump\t// out\n        /* \"#utility.yul\":1025:1143   */\n    tag_125:\n        /* \"#utility.yul\":1112:1136   */\n      tag_175\n        /* \"#utility.yul\":1130:1135   */\n      dup2\n        /* \"#utility.yul\":1112:1136   */\n      tag_122\n      jump\t// in\n    tag_175:\n        /* \"#utility.yul\":1107:1110   */\n      dup3\n        /* \"#utility.yul\":1100:1137   */\n      mstore\n        /* \"#utility.yul\":1025:1143   */\n      pop\n      pop\n      jump\t// out\n        /* \"#utility.yul\":1149:1371   */\n    tag_19:\n        /* \"#utility.yul\":1242:1246   */\n      0x00\n        /* \"#utility.yul\":1280:1282   */\n      0x20\n        /* \"#utility.yul\":1269:1278   */\n      dup3\n        /* \"#utility.yul\":1265:1283   */\n      add\n        /* \"#utility.yul\":1257:1283   */\n      swap1\n      pop\n        /* \"#utility.yul\":1293:1364   */\n      tag_177\n        /* \"#utility.yul\":1361:1362   */\n      0x00\n        /* \"#utility.yul\":1350:1359   */\n      dup4\n        /* \"#utility.yul\":1346:1363   */\n      add\n        /* \"#utility.yul\":1337:1343   */\n      dup5\n        /* \"#utility.yul\":1293:1364   */\n      tag_125\n      jump\t// in\n    tag_177:\n        /* \"#utility.yul\":1149:1371   */\n      swap3\n      swap2\n      pop\n      pop\n      jump\t// out\n        /* \"#utility.yul\":1377:1503   */\n    tag_126:\n        /* \"#utility.yul\":1414:1421   */\n      0x00\n        /* \"#utility.yul\":1454:1496   */\n      0xffffffffffffffffffffffffffffffffffffffff\n        /* \"#utility.yul\":1447:1452   */\n      dup3\n        /* \"#utility.yul\":1443:1497   */\n      and\n        /* \"#utility.yul\":1432:1497   */\n      swap1\n      pop\n        /* \"#utility.yul\":1377:1503   */\n      swap2\n      swap1\n      pop\n      jump\t// out\n        /* \"#utility.yul\":1509:1605   */\n    tag_127:\n        /* \"#utility.yul\":1546:1553   */\n      0x00\n        /* \"#utility.yul\":1575:1599   */\n      tag_180\n        /* \"#utility.yul\":1593:1598   */\n      dup3\n        /* \"#utility.yul\":1575:1599   */\n      tag_126\n      jump\t// in\n    tag_180:\n        /* \"#utility.yul\":1564:1599   */\n      swap1\n      pop\n        /* \"#utility.yul\":1509:1605   */\n      swap2\n      swap1\n      pop\n      jump\t// out\n        /* \"#utility.yul\":1611:1729   */\n    tag_128:\n        /* \"#utility.yul\":1698:1722   */\n      tag_182\n        /* \"#utility.yul\":1716:1721   */\n      dup2\n        /* \"#utility.yul\":1698:1722   */\n      tag_127\n      jump\t// in\n    tag_182:\n        /* \"#utility.yul\":1693:1696   */\n      dup3\n        /* \"#utility.yul\":1686:1723   */\n      mstore\n        /* \"#utility.yul\":1611:1729   */\n      pop\n      pop\n      jump\t// out\n        /* \"#utility.yul\":1735:1915   */\n    tag_45:\n        /* \"#utility.yul\":1783:1860   */\n      0x4e487b7100000000000000000000000000000000000000000000000000000000\n        /* \"#utility.yul\":1780:1781   */\n      0x00\n        /* \"#utility.yul\":1773:1861   */\n      mstore\n        /* \"#utility.yul\":1880:1884   */\n      0x21\n        /* \"#utility.yul\":1877:1878   */\n      0x04\n        /* \"#utility.yul\":1870:1885   */\n      mstore\n        /* \"#utility.yul\":1904:1908   */\n      0x24\n        /* \"#utility.yul\":1901:1902   */\n      0x00\n        /* \"#utility.yul\":1894:1909   */\n      revert\n        /* \"#utility.yul\":1921:2039   */\n    tag_129:\n        /* \"#utility.yul\":2007:2008   */\n      0x05\n        /* \"#utility.yul\":2000:2005   */\n      dup2\n        /* \"#utility.yul\":1997:2009   */\n      lt\n        /* \"#utility.yul\":1987:2033   */\n      tag_185\n      jumpi\n        /* \"#utility.yul\":2013:2031   */\n      tag_186\n      tag_45\n      jump\t// in\n    tag_186:\n        /* \"#utility.yul\":1987:2033   */\n    tag_185:\n        /* \"#utility.yul\":1921:2039   */\n      pop\n      jump\t// out\n        /* \"#utility.yul\":2045:2182   */\n    tag_130:\n        /* \"#utility.yul\":2095:2102   */\n      0x00\n        /* \"#utility.yul\":2124:2129   */\n      dup2\n        /* \"#utility.yul\":2113:2129   */\n      swap1\n      pop\n        /* \"#utility.yul\":2130:2176   */\n      tag_188\n        /* \"#utility.yul\":2170:2175   */\n      dup3\n        /* \"#utility.yul\":2130:2176   */\n      tag_129\n      jump\t// in\n    tag_188:\n        /* \"#utility.yul\":2045:2182   */\n      swap2\n      swap1\n      pop\n      jump\t// out\n        /* \"#utility.yul\":2188:2325   */\n    tag_131:\n        /* \"#utility.yul\":2249:2258   */\n      0x00\n        /* \"#utility.yul\":2282:2319   */\n      tag_190\n        /* \"#utility.yul\":2313:2318   */\n      dup3\n        /* \"#utility.yul\":2282:2319   */\n      tag_130\n      jump\t// in\n    tag_190:\n        /* \"#utility.yul\":2269:2319   */\n      swap1\n      pop\n        /* \"#utility.yul\":2188:2325   */\n      swap2\n      swap1\n      pop\n      jump\t// out\n        /* \"#utility.yul\":2331:2484   */\n    tag_132:\n        /* \"#utility.yul\":2429:2477   */\n      tag_192\n        /* \"#utility.yul\":2471:2476   */\n      dup2\n        /* \"#utility.yul\":2429:2477   */\n      tag_131\n      jump\t// in\n    tag_192:\n        /* \"#utility.yul\":2424:2427   */\n      dup3\n        /* \"#utility.yul\":2417:2478   */\n      mstore\n        /* \"#utility.yul\":2331:2484   */\n      pop\n      pop\n      jump\t// out\n        /* \"#utility.yul\":2490:3065   */\n    tag_32:\n        /* \"#utility.yul\":2678:2682   */\n      0x00\n        /* \"#utility.yul\":2716:2719   */\n      0x80\n        /* \"#utility.yul\":2705:2714   */\n      dup3\n        /* \"#utility.yul\":2701:2720   */\n      add\n        /* \"#utility.yul\":2693:2720   */\n      swap1\n      pop\n        /* \"#utility.yul\":2730:2801   */\n      tag_194\n        /* \"#utility.yul\":2798:2799   */\n      0x00\n        /* \"#utility.yul\":2787:2796   */\n      dup4\n        /* \"#utility.yul\":2783:2800   */\n      add\n        /* \"#utility.yul\":2774:2780   */\n      dup8\n        /* \"#utility.yul\":2730:2801   */\n      tag_128\n      jump\t// in\n    tag_194:\n        /* \"#utility.yul\":2811:2883   */\n      tag_195\n        /* \"#utility.yul\":2879:2881   */\n      0x20\n        /* \"#utility.yul\":2868:2877   */\n      dup4\n        /* \"#utility.yul\":2864:2882   */\n      add\n        /* \"#utility.yul\":2855:2861   */\n      dup7\n        /* \"#utility.yul\":2811:2883   */\n      tag_125\n      jump\t// in\n    tag_195:\n        /* \"#utility.yul\":2893:2976   */\n      tag_196\n        /* \"#utility.yul\":2972:2974   */\n      0x40\n        /* \"#utility.yul\":2961:2970   */\n      dup4\n        /* \"#utility.yul\":2957:2975   */\n      add\n        /* \"#utility.yul\":2948:2954   */\n      dup6\n        /* \"#utility.yul\":2893:2976   */\n      tag_132\n      jump\t// in\n    tag_196:\n        /* \"#utility.yul\":2986:3058   */\n      tag_197\n        /* \"#utility.yul\":3054:3056   */\n      0x60\n        /* \"#utility.yul\":3043:3052   */\n      dup4\n        /* \"#utility.yul\":3039:3057   */\n      add\n        /* \"#utility.yul\":3030:3036   */\n      dup5\n        /* \"#utility.yul\":2986:3058   */\n      tag_125\n      jump\t// in\n    tag_197:\n        /* \"#utility.yul\":2490:3065   */\n      swap6\n      swap5\n      pop\n      pop\n      pop\n      pop\n      pop\n      jump\t// out\n        /* \"#utility.yul\":3071:3188   */\n    tag_133:\n        /* \"#utility.yul\":3180:3181   */\n      0x00\n        /* \"#utility.yul\":3177:3178   */\n      0x00\n        /* \"#utility.yul\":3170:3182   */\n      revert\n        /* \"#utility.yul\":3194:3311   */\n    tag_134:\n        /* \"#utility.yul\":3303:3304   */\n      0x00\n        /* \"#utility.yul\":3300:3301   */\n      0x00\n        /* \"#utility.yul\":3293:3305   */\n      revert\n        /* \"#utility.yul\":3317:3419   */\n    tag_135:\n        /* \"#utility.yul\":3358:3364   */\n      0x00\n        /* \"#utility.yul\":3409:3411   */\n      0x1f\n        /* \"#utility.yul\":3405:3412   */\n      not\n        /* \"#utility.yul\":3400:3402   */\n      0x1f\n        /* \"#utility.yul\":3393:3398   */\n      dup4\n        /* \"#utility.yul\":3389:3403   */\n      add\n        /* \"#utility.yul\":3385:3413   */\n      and\n        /* \"#utility.yul\":3375:3413   */\n      swap1\n      pop\n        /* \"#utility.yul\":3317:3419   */\n      swap2\n      swap1\n      pop\n      jump\t// out\n        /* \"#utility.yul\":3425:3605   */\n    tag_136:\n        /* \"#utility.yul\":3473:3550   */\n      0x4e487b7100000000000000000000000000000000000000000000000000000000\n        /* \"#utility.yul\":3470:3471   */\n      0x00\n        /* \"#utility.yul\":3463:3551   */\n      mstore\n        /* \"#utility.yul\":3570:3574   */\n      0x41\n        /* \"#utility.yul\":3567:3568   */\n      0x04\n        /* \"#utility.yul\":3560:3575   */\n      mstore\n        /* \"#utility.yul\":3594:3598   */\n      0x24\n        /* \"#utility.yul\":3591:3592   */\n      0x00\n        /* \"#utility.yul\":3584:3599   */\n      revert\n        /* \"#utility.yul\":3611:3892   */\n    tag_137:\n        /* \"#utility.yul\":3694:3721   */\n      tag_203\n        /* \"#utility.yul\":3716:3720   */\n      dup3\n        /* \"#utility.yul\":3694:3721   */\n      tag_135\n      jump\t// in\n    tag_203:\n        /* \"#utility.yul\":3686:3692   */\n      dup2\n        /* \"#utility.yul\":3682:3722   */\n      add\n        /* \"#utility.yul\":3824:3830   */\n      dup2\n        /* \"#utility.yul\":3812:3822   */\n      dup2\n        /* \"#utility.yul\":3809:3831   */\n      lt\n        /* \"#utility.yul\":3788:3806   */\n      0xffffffffffffffff\n        /* \"#utility.yul\":3776:3786   */\n      dup3\n        /* \"#utility.yul\":3773:3807   */\n      gt\n        /* \"#utility.yul\":3770:3832   */\n      or\n        /* \"#utility.yul\":3767:3855   */\n      iszero\n      tag_204\n      jumpi\n        /* \"#utility.yul\":3835:3853   */\n      tag_205\n      tag_136\n      jump\t// in\n    tag_205:\n        /* \"#utility.yul\":3767:3855   */\n    tag_204:\n        /* \"#utility.yul\":3875:3885   */\n      dup1\n        /* \"#utility.yul\":3871:3873   */\n      0x40\n        /* \"#utility.yul\":3864:3886   */\n      mstore\n        /* \"#utility.yul\":3654:3892   */\n      pop\n        /* \"#utility.yul\":3611:3892   */\n      pop\n      pop\n      jump\t// out\n        /* \"#utility.yul\":3898:4027   */\n    tag_138:\n        /* \"#utility.yul\":3932:3938   */\n      0x00\n        /* \"#utility.yul\":3959:3979   */\n      tag_207\n      tag_119\n      jump\t// in\n    tag_207:\n        /* \"#utility.yul\":3949:3979   */\n      swap1\n      pop\n        /* \"#utility.yul\":3988:4021   */\n      tag_208\n        /* \"#utility.yul\":4016:4020   */\n      dup3\n        /* \"#utility.yul\":4008:4014   */\n      dup3\n        /* \"#utility.yul\":3988:4021   */\n      tag_137\n      jump\t// in\n    tag_208:\n        /* \"#utility.yul\":3898:4027   */\n      swap2\n      swap1\n      pop\n      jump\t// out\n        /* \"#utility.yul\":4033:4341   */\n    tag_139:\n        /* \"#utility.yul\":4095:4099   */\n      0x00\n        /* \"#utility.yul\":4185:4203   */\n      0xffffffffffffffff\n        /* \"#utility.yul\":4177:4183   */\n      dup3\n        /* \"#utility.yul\":4174:4204   */\n      gt\n        /* \"#utility.yul\":4171:4227   */\n      iszero\n      tag_210\n      jumpi\n        /* \"#utility.yul\":4207:4225   */\n      tag_211\n      tag_136\n      jump\t// in\n    tag_211:\n        /* \"#utility.yul\":4171:4227   */\n    tag_210:\n        /* \"#utility.yul\":4245:4274   */\n      tag_212\n        /* \"#utility.yul\":4267:4273   */\n      dup3\n        /* \"#utility.yul\":4245:4274   */\n      tag_135\n      jump\t// in\n    tag_212:\n        /* \"#utility.yul\":4237:4274   */\n      swap1\n      pop\n        /* \"#utility.yul\":4329:4333   */\n      0x20\n        /* \"#utility.yul\":4323:4327   */\n      dup2\n        /* \"#utility.yul\":4319:4334   */\n      add\n        /* \"#utility.yul\":4311:4334   */\n      swap1\n      pop\n        /* \"#utility.yul\":4033:4341   */\n      swap2\n      swap1\n      pop\n      jump\t// out\n        /* \"#utility.yul\":4347:4495   */\n    tag_140:\n        /* \"#utility.yul\":4445:4451   */\n      dup3\n        /* \"#utility.yul\":4440:4443   */\n      dup2\n        /* \"#utility.yul\":4435:4438   */\n      dup4\n        /* \"#utility.yul\":4422:4452   */\n      calldatacopy\n        /* \"#utility.yul\":4486:4487   */\n      0x00\n        /* \"#utility.yul\":4477:4483   */\n      dup4\n        /* \"#utility.yul\":4472:4475   */\n      dup4\n        /* \"#utility.yul\":4468:4484   */\n      add\n        /* \"#utility.yul\":4461:4488   */\n      mstore\n        /* \"#utility.yul\":4347:4495   */\n      pop\n      pop\n      pop\n      jump\t// out\n        /* \"#utility.yul\":4501:4926   */\n    tag_141:\n        /* \"#utility.yul\":4579:4584   */\n      0x00\n        /* \"#utility.yul\":4604:4670   */\n      tag_215\n        /* \"#utility.yul\":4620:4669   */\n      tag_216\n        /* \"#utility.yul\":4662:4668   */\n      dup5\n        /* \"#utility.yul\":4620:4669   */\n      tag_139\n      jump\t// in\n    tag_216:\n        /* \"#utility.yul\":4604:4670   */\n      tag_138\n      jump\t// in\n    tag_215:\n        /* \"#utility.yul\":4595:4670   */\n      swap1\n      pop\n        /* \"#utility.yul\":4693:4699   */\n      dup3\n        /* \"#utility.yul\":4686:4691   */\n      dup2\n        /* \"#utility.yul\":4679:4700   */\n      mstore\n        /* \"#utility.yul\":4731:4735   */\n      0x20\n        /* \"#utility.yul\":4724:4729   */\n      dup2\n        /* \"#utility.yul\":4720:4736   */\n      add\n        /* \"#utility.yul\":4769:4772   */\n      dup5\n        /* \"#utility.yul\":4760:4766   */\n      dup5\n        /* \"#utility.yul\":4755:4758   */\n      dup5\n        /* \"#utility.yul\":4751:4767   */\n      add\n        /* \"#utility.yul\":4748:4773   */\n      gt\n        /* \"#utility.yul\":4745:4857   */\n      iszero\n      tag_217\n      jumpi\n        /* \"#utility.yul\":4776:4855   */\n      tag_218\n      tag_134\n      jump\t// in\n    tag_218:\n        /* \"#utility.yul\":4745:4857   */\n    tag_217:\n        /* \"#utility.yul\":4866:4920   */\n      tag_219\n        /* \"#utility.yul\":4913:4919   */\n      dup5\n        /* \"#utility.yul\":4908:4911   */\n      dup3\n        /* \"#utility.yul\":4903:4906   */\n      dup6\n        /* \"#utility.yul\":4866:4920   */\n      tag_140\n      jump\t// in\n    tag_219:\n        /* \"#utility.yul\":4585:4926   */\n      pop\n        /* \"#utility.yul\":4501:4926   */\n      swap4\n      swap3\n      pop\n      pop\n      pop\n      jump\t// out\n        /* \"#utility.yul\":4946:5286   */\n    tag_142:\n        /* \"#utility.yul\":5002:5007   */\n      0x00\n        /* \"#utility.yul\":5051:5054   */\n      dup3\n        /* \"#utility.yul\":5044:5048   */\n      0x1f\n        /* \"#utility.yul\":5036:5042   */\n      dup4\n        /* \"#utility.yul\":5032:5049   */\n      add\n        /* \"#utility.yul\":5028:5055   */\n      slt\n        /* \"#utility.yul\":5018:5140   */\n      tag_221\n      jumpi\n        /* \"#utility.yul\":5059:5138   */\n      tag_222\n      tag_133\n      jump\t// in\n    tag_222:\n        /* \"#utility.yul\":5018:5140   */\n    tag_221:\n        /* \"#utility.yul\":5176:5182   */\n      dup2\n        /* \"#utility.yul\":5163:5183   */\n      calldataload\n        /* \"#utility.yul\":5201:5280   */\n      tag_223\n        /* \"#utility.yul\":5276:5279   */\n      dup5\n        /* \"#utility.yul\":5268:5274   */\n      dup3\n        /* \"#utility.yul\":5261:5265   */\n      0x20\n        /* \"#utility.yul\":5253:5259   */\n      dup7\n        /* \"#utility.yul\":5249:5266   */\n      add\n        /* \"#utility.yul\":5201:5280   */\n      tag_141\n      jump\t// in\n    tag_223:\n        /* \"#utility.yul\":5192:5280   */\n      swap2\n      pop\n        /* \"#utility.yul\":5008:5286   */\n      pop\n        /* \"#utility.yul\":4946:5286   */\n      swap3\n      swap2\n      pop\n      pop\n      jump\t// out\n        /* \"#utility.yul\":5292:5946   */\n    tag_36:\n        /* \"#utility.yul\":5370:5376   */\n      0x00\n        /* \"#utility.yul\":5378:5384   */\n      0x00\n        /* \"#utility.yul\":5427:5429   */\n      0x40\n        /* \"#utility.yul\":5415:5424   */\n      dup4\n        /* \"#utility.yul\":5406:5413   */\n      dup6\n        /* \"#utility.yul\":5402:5425   */\n      sub\n        /* \"#utility.yul\":5398:5430   */\n      slt\n        /* \"#utility.yul\":5395:5514   */\n      iszero\n      tag_225\n      jumpi\n        /* \"#utility.yul\":5433:5512   */\n      tag_226\n      tag_120\n      jump\t// in\n    tag_226:\n        /* \"#utility.yul\":5395:5514   */\n    tag_225:\n        /* \"#utility.yul\":5553:5554   */\n      0x00\n        /* \"#utility.yul\":5578:5631   */\n      tag_227\n        /* \"#utility.yul\":5623:5630   */\n      dup6\n        /* \"#utility.yul\":5614:5620   */\n      dup3\n        /* \"#utility.yul\":5603:5612   */\n      dup7\n        /* \"#utility.yul\":5599:5621   */\n      add\n        /* \"#utility.yul\":5578:5631   */\n      tag_124\n      jump\t// in\n    tag_227:\n        /* \"#utility.yul\":5568:5631   */\n      swap3\n      pop\n        /* \"#utility.yul\":5524:5641   */\n      pop\n        /* \"#utility.yul\":5708:5710   */\n      0x20\n        /* \"#utility.yul\":5697:5706   */\n      dup4\n        /* \"#utility.yul\":5693:5711   */\n      add\n        /* \"#utility.yul\":5680:5712   */\n      calldataload\n        /* \"#utility.yul\":5739:5757   */\n      0xffffffffffffffff\n        /* \"#utility.yul\":5731:5737   */\n      dup2\n        /* \"#utility.yul\":5728:5758   */\n      gt\n        /* \"#utility.yul\":5725:5842   */\n      iszero\n      tag_228\n      jumpi\n        /* \"#utility.yul\":5761:5840   */\n      tag_229\n      tag_121\n      jump\t// in\n    tag_229:\n        /* \"#utility.yul\":5725:5842   */\n    tag_228:\n        /* \"#utility.yul\":5866:5929   */\n      tag_230\n        /* \"#utility.yul\":5921:5928   */\n      dup6\n        /* \"#utility.yul\":5912:5918   */\n      dup3\n        /* \"#utility.yul\":5901:5910   */\n      dup7\n        /* \"#utility.yul\":5897:5919   */\n      add\n        /* \"#utility.yul\":5866:5929   */\n      tag_142\n      jump\t// in\n    tag_230:\n        /* \"#utility.yul\":5856:5929   */\n      swap2\n      pop\n        /* \"#utility.yul\":5651:5939   */\n      pop\n        /* \"#utility.yul\":5292:5946   */\n      swap3\n      pop\n      swap3\n      swap1\n      pop\n      jump\t// out\n        /* \"#utility.yul\":5952:6121   */\n    tag_143:\n        /* \"#utility.yul\":6036:6047   */\n      0x00\n        /* \"#utility.yul\":6070:6076   */\n      dup3\n        /* \"#utility.yul\":6065:6068   */\n      dup3\n        /* \"#utility.yul\":6058:6077   */\n      mstore\n        /* \"#utility.yul\":6110:6114   */\n      0x20\n        /* \"#utility.yul\":6105:6108   */\n      dup3\n        /* \"#utility.yul\":6101:6115   */\n      add\n        /* \"#utility.yul\":6086:6115   */\n      swap1\n      pop\n        /* \"#utility.yul\":5952:6121   */\n      swap3\n      swap2\n      pop\n      pop\n      jump\t// out\n        /* \"#utility.yul\":6127:6291   */\n    tag_144:\n        /* \"#utility.yul\":6267:6283   */\n      0x4f72646572206e6f742070616964000000000000000000000000000000000000\n        /* \"#utility.yul\":6263:6264   */\n      0x00\n        /* \"#utility.yul\":6255:6261   */\n      dup3\n        /* \"#utility.yul\":6251:6265   */\n      add\n        /* \"#utility.yul\":6244:6284   */\n      mstore\n        /* \"#utility.yul\":6127:6291   */\n      pop\n      jump\t// out\n        /* \"#utility.yul\":6297:6663   */\n    tag_145:\n        /* \"#utility.yul\":6439:6442   */\n      0x00\n        /* \"#utility.yul\":6460:6527   */\n      tag_234\n        /* \"#utility.yul\":6524:6526   */\n      0x0e\n        /* \"#utility.yul\":6519:6522   */\n      dup4\n        /* \"#utility.yul\":6460:6527   */\n      tag_143\n      jump\t// in\n    tag_234:\n        /* \"#utility.yul\":6453:6527   */\n      swap2\n      pop\n        /* \"#utility.yul\":6536:6629   */\n      tag_235\n        /* \"#utility.yul\":6625:6628   */\n      dup3\n        /* \"#utility.yul\":6536:6629   */\n      tag_144\n      jump\t// in\n    tag_235:\n        /* \"#utility.yul\":6654:6656   */\n      0x20\n        /* \"#utility.yul\":6649:6652   */\n      dup3\n        /* \"#utility.yul\":6645:6657   */\n      add\n        /* \"#utility.yul\":6638:6657   */\n      swap1\n      pop\n        /* \"#utility.yul\":6297:6663   */\n      swap2\n      swap1\n      pop\n      jump\t// out\n        /* \"#utility.yul\":6669:7088   */\n    tag_50:\n        /* \"#utility.yul\":6835:6839   */\n      0x00\n        /* \"#utility.yul\":6873:6875   */\n      0x20\n        /* \"#utility.yul\":6862:6871   */\n      dup3\n        /* \"#utility.yul\":6858:6876   */\n      add\n        /* \"#utility.yul\":6850:6876   */\n      swap1\n      pop\n        /* \"#utility.yul\":6922:6931   */\n      dup2\n        /* \"#utility.yul\":6916:6920   */\n      dup2\n        /* \"#utility.yul\":6912:6932   */\n      sub\n        /* \"#utility.yul\":6908:6909   */\n      0x00\n        /* \"#utility.yul\":6897:6906   */\n      dup4\n        /* \"#utility.yul\":6893:6910   */\n      add\n        /* \"#utility.yul\":6886:6933   */\n      mstore\n        /* \"#utility.yul\":6950:7081   */\n      tag_237\n        /* \"#utility.yul\":7076:7080   */\n      dup2\n        /* \"#utility.yul\":6950:7081   */\n      tag_145\n      jump\t// in\n    tag_237:\n        /* \"#utility.yul\":6942:7081   */\n      swap1\n      pop\n        /* \"#utility.yul\":6669:7088   */\n      swap2\n      swap1\n      pop\n      jump\t// out\n        /* \"#utility.yul\":7094:7257   */\n    tag_146:\n        /* \"#utility.yul\":7234:7249   */\n      0x4e6f742074686520627579657200000000000000000000000000000000000000\n        /* \"#utility.yul\":7230:7231   */\n      0x00\n        /* \"#utility.yul\":7222:7228   */\n      dup3\n        /* \"#utility.yul\":7218:7232   */\n      add\n        /* \"#utility.yul\":7211:7250   */\n      mstore\n        /* \"#utility.yul\":7094:7257   */\n      pop\n      jump\t// out\n        /* \"#utility.yul\":7263:7629   */\n    tag_147:\n        /* \"#utility.yul\":7405:7408   */\n      0x00\n        /* \"#utility.yul\":7426:7493   */\n      tag_240\n        /* \"#utility.yul\":7490:7492   */\n      0x0d\n        /* \"#utility.yul\":7485:7488   */\n      dup4\n        /* \"#utility.yul\":7426:7493   */\n      tag_143\n      jump\t// in\n    tag_240:\n        /* \"#utility.yul\":7419:7493   */\n      swap2\n      pop\n        /* \"#utility.yul\":7502:7595   */\n      tag_241\n        /* \"#utility.yul\":7591:7594   */\n      dup3\n        /* \"#utility.yul\":7502:7595   */\n      tag_146\n      jump\t// in\n    tag_241:\n        /* \"#utility.yul\":7620:7622   */\n      0x20\n        /* \"#utility.yul\":7615:7618   */\n      dup3\n        /* \"#utility.yul\":7611:7623   */\n      add\n        /* \"#utility.yul\":7604:7623   */\n      swap1\n      pop\n        /* \"#utility.yul\":7263:7629   */\n      swap2\n      swap1\n      pop\n      jump\t// out\n        /* \"#utility.yul\":7635:8054   */\n    tag_57:\n        /* \"#utility.yul\":7801:7805   */\n      0x00\n        /* \"#utility.yul\":7839:7841   */\n      0x20\n        /* \"#utility.yul\":7828:7837   */\n      dup3\n        /* \"#utility.yul\":7824:7842   */\n      add\n        /* \"#utility.yul\":7816:7842   */\n      swap1\n      pop\n        /* \"#utility.yul\":7888:7897   */\n      dup2\n        /* \"#utility.yul\":7882:7886   */\n      dup2\n        /* \"#utility.yul\":7878:7898   */\n      sub\n        /* \"#utility.yul\":7874:7875   */\n      0x00\n        /* \"#utility.yul\":7863:7872   */\n      dup4\n        /* \"#utility.yul\":7859:7876   */\n      add\n        /* \"#utility.yul\":7852:7899   */\n      mstore\n        /* \"#utility.yul\":7916:8047   */\n      tag_243\n        /* \"#utility.yul\":8042:8046   */\n      dup2\n        /* \"#utility.yul\":7916:8047   */\n      tag_147\n      jump\t// in\n    tag_243:\n        /* \"#utility.yul\":7908:8047   */\n      swap1\n      pop\n        /* \"#utility.yul\":7635:8054   */\n      swap2\n      swap1\n      pop\n      jump\t// out\n        /* \"#utility.yul\":8060:8230   */\n    tag_148:\n        /* \"#utility.yul\":8200:8222   */\n      0x496e76616c6964206f7264657220737461747573000000000000000000000000\n        /* \"#utility.yul\":8196:8197   */\n      0x00\n        /* \"#utility.yul\":8188:8194   */\n      dup3\n        /* \"#utility.yul\":8184:8198   */\n      add\n        /* \"#utility.yul\":8177:8223   */\n      mstore\n        /* \"#utility.yul\":8060:8230   */\n      pop\n      jump\t// out\n        /* \"#utility.yul\":8236:8602   */\n    tag_149:\n        /* \"#utility.yul\":8378:8381   */\n      0x00\n        /* \"#utility.yul\":8399:8466   */\n      tag_246\n        /* \"#utility.yul\":8463:8465   */\n      0x14\n        /* \"#utility.yul\":8458:8461   */\n      dup4\n        /* \"#utility.yul\":8399:8466   */\n      tag_143\n      jump\t// in\n    tag_246:\n        /* \"#utility.yul\":8392:8466   */\n      swap2\n      pop\n        /* \"#utility.yul\":8475:8568   */\n      tag_247\n        /* \"#utility.yul\":8564:8567   */\n      dup3\n        /* \"#utility.yul\":8475:8568   */\n      tag_148\n      jump\t// in\n    tag_247:\n        /* \"#utility.yul\":8593:8595   */\n      0x20\n        /* \"#utility.yul\":8588:8591   */\n      dup3\n        /* \"#utility.yul\":8584:8596   */\n      add\n        /* \"#utility.yul\":8577:8596   */\n      swap1\n      pop\n        /* \"#utility.yul\":8236:8602   */\n      swap2\n      swap1\n      pop\n      jump\t// out\n        /* \"#utility.yul\":8608:9027   */\n    tag_64:\n        /* \"#utility.yul\":8774:8778   */\n      0x00\n        /* \"#utility.yul\":8812:8814   */\n      0x20\n        /* \"#utility.yul\":8801:8810   */\n      dup3\n        /* \"#utility.yul\":8797:8815   */\n      add\n        /* \"#utility.yul\":8789:8815   */\n      swap1\n      pop\n        /* \"#utility.yul\":8861:8870   */\n      dup2\n        /* \"#utility.yul\":8855:8859   */\n      dup2\n        /* \"#utility.yul\":8851:8871   */\n      sub\n        /* \"#utility.yul\":8847:8848   */\n      0x00\n        /* \"#utility.yul\":8836:8845   */\n      dup4\n        /* \"#utility.yul\":8832:8849   */\n      add\n        /* \"#utility.yul\":8825:8872   */\n      mstore\n        /* \"#utility.yul\":8889:9020   */\n      tag_249\n        /* \"#utility.yul\":9015:9019   */\n      dup2\n        /* \"#utility.yul\":8889:9020   */\n      tag_149\n      jump\t// in\n    tag_249:\n        /* \"#utility.yul\":8881:9020   */\n      swap1\n      pop\n        /* \"#utility.yul\":8608:9027   */\n      swap2\n      swap1\n      pop\n      jump\t// out\n        /* \"#utility.yul\":9033:9365   */\n    tag_68:\n        /* \"#utility.yul\":9154:9158   */\n      0x00\n        /* \"#utility.yul\":9192:9194   */\n      0x40\n        /* \"#utility.yul\":9181:9190   */\n      dup3\n        /* \"#utility.yul\":9177:9195   */\n      add\n        /* \"#utility.yul\":9169:9195   */\n      swap1\n      pop\n        /* \"#utility.yul\":9205:9276   */\n      tag_251\n        /* \"#utility.yul\":9273:9274   */\n      0x00\n        /* \"#utility.yul\":9262:9271   */\n      dup4\n        /* \"#utility.yul\":9258:9275   */\n      add\n        /* \"#utility.yul\":9249:9255   */\n      dup6\n        /* \"#utility.yul\":9205:9276   */\n      tag_125\n      jump\t// in\n    tag_251:\n        /* \"#utility.yul\":9286:9358   */\n      tag_252\n        /* \"#utility.yul\":9354:9356   */\n      0x20\n        /* \"#utility.yul\":9343:9352   */\n      dup4\n        /* \"#utility.yul\":9339:9357   */\n      add\n        /* \"#utility.yul\":9330:9336   */\n      dup5\n        /* \"#utility.yul\":9286:9358   */\n      tag_125\n      jump\t// in\n    tag_252:\n        /* \"#utility.yul\":9033:9365   */\n      swap4\n      swap3\n      pop\n      pop\n      pop\n      jump\t// out\n        /* \"#utility.yul\":9371:9553   */\n    tag_150:\n        /* \"#utility.yul\":9511:9545   */\n      0x416d6f756e74206d7573742062652067726561746572207468616e207a65726f\n        /* \"#utility.yul\":9507:9508   */\n      0x00\n        /* \"#utility.yul\":9499:9505   */\n      dup3\n        /* \"#utility.yul\":9495:9509   */\n      add\n        /* \"#utility.yul\":9488:9546   */\n      mstore\n        /* \"#utility.yul\":9371:9553   */\n      pop\n      jump\t// out\n        /* \"#utility.yul\":9559:9925   */\n    tag_151:\n        /* \"#utility.yul\":9701:9704   */\n      0x00\n        /* \"#utility.yul\":9722:9789   */\n      tag_255\n        /* \"#utility.yul\":9786:9788   */\n      0x20\n        /* \"#utility.yul\":9781:9784   */\n      dup4\n        /* \"#utility.yul\":9722:9789   */\n      tag_143\n      jump\t// in\n    tag_255:\n        /* \"#utility.yul\":9715:9789   */\n      swap2\n      pop\n        /* \"#utility.yul\":9798:9891   */\n      tag_256\n        /* \"#utility.yul\":9887:9890   */\n      dup3\n        /* \"#utility.yul\":9798:9891   */\n      tag_150\n      jump\t// in\n    tag_256:\n        /* \"#utility.yul\":9916:9918   */\n      0x20\n        /* \"#utility.yul\":9911:9914   */\n      dup3\n        /* \"#utility.yul\":9907:9919   */\n      add\n        /* \"#utility.yul\":9900:9919   */\n      swap1\n      pop\n        /* \"#utility.yul\":9559:9925   */\n      swap2\n      swap1\n      pop\n      jump\t// out\n        /* \"#utility.yul\":9931:10350   */\n    tag_72:\n        /* \"#utility.yul\":10097:10101   */\n      0x00\n        /* \"#utility.yul\":10135:10137   */\n      0x20\n        /* \"#utility.yul\":10124:10133   */\n      dup3\n        /* \"#utility.yul\":10120:10138   */\n      add\n        /* \"#utility.yul\":10112:10138   */\n      swap1\n      pop\n        /* \"#utility.yul\":10184:10193   */\n      dup2\n        /* \"#utility.yul\":10178:10182   */\n      dup2\n        /* \"#utility.yul\":10174:10194   */\n      sub\n        /* \"#utility.yul\":10170:10171   */\n      0x00\n        /* \"#utility.yul\":10159:10168   */\n      dup4\n        /* \"#utility.yul\":10155:10172   */\n      add\n        /* \"#utility.yul\":10148:10195   */\n      mstore\n        /* \"#utility.yul\":10212:10343   */\n      tag_258\n        /* \"#utility.yul\":10338:10342   */\n      dup2\n        /* \"#utility.yul\":10212:10343   */\n      tag_151\n      jump\t// in\n    tag_258:\n        /* \"#utility.yul\":10204:10343   */\n      swap1\n      pop\n        /* \"#utility.yul\":9931:10350   */\n      swap2\n      swap1\n      pop\n      jump\t// out\n        /* \"#utility.yul\":10356:10536   */\n    tag_152:\n        /* \"#utility.yul\":10404:10481   */\n      0x4e487b7100000000000000000000000000000000000000000000000000000000\n        /* \"#utility.yul\":10401:10402   */\n      0x00\n        /* \"#utility.yul\":10394:10482   */\n      mstore\n        /* \"#utility.yul\":10501:10505   */\n      0x11\n        /* \"#utility.yul\":10498:10499   */\n      0x04\n        /* \"#utility.yul\":10491:10506   */\n      mstore\n        /* \"#utility.yul\":10525:10529   */\n      0x24\n        /* \"#utility.yul\":10522:10523   */\n      0x00\n        /* \"#utility.yul\":10515:10530   */\n      revert\n        /* \"#utility.yul\":10542:10775   */\n    tag_74:\n        /* \"#utility.yul\":10581:10584   */\n      0x00\n        /* \"#utility.yul\":10604:10628   */\n      tag_261\n        /* \"#utility.yul\":10622:10627   */\n      dup3\n        /* \"#utility.yul\":10604:10628   */\n      tag_122\n      jump\t// in\n    tag_261:\n        /* \"#utility.yul\":10595:10628   */\n      swap2\n      pop\n        /* \"#utility.yul\":10650:10716   */\n      0xffffffffffffffffffffffffffffffffffffffffffffffffffffffffffffffff\n        /* \"#utility.yul\":10643:10648   */\n      dup3\n        /* \"#utility.yul\":10640:10717   */\n      sub\n        /* \"#utility.yul\":10637:10740   */\n      tag_262\n      jumpi\n        /* \"#utility.yul\":10720:10738   */\n      tag_263\n      tag_152\n      jump\t// in\n    tag_263:\n        /* \"#utility.yul\":10637:10740   */\n    tag_262:\n        /* \"#utility.yul\":10767:10768   */\n      0x01\n        /* \"#utility.yul\":10760:10765   */\n      dup3\n        /* \"#utility.yul\":10756:10769   */\n      add\n        /* \"#utility.yul\":10749:10769   */\n      swap1\n      pop\n        /* \"#utility.yul\":10542:10775   */\n      swap2\n      swap1\n      pop\n      jump\t// out\n        /* \"#utility.yul\":10781:10950   */\n    tag_153:\n        /* \"#utility.yul\":10921:10942   */\n      0x43616e6e6f742063616e63656c206f7264657200000000000000000000000000\n        /* \"#utility.yul\":10917:10918   */\n      0x00\n        /* \"#utility.yul\":10909:10915   */\n      dup3\n        /* \"#utility.yul\":10905:10919   */\n      add\n        /* \"#utility.yul\":10898:10943   */\n      mstore\n        /* \"#utility.yul\":10781:10950   */\n      pop\n      jump\t// out\n        /* \"#utility.yul\":10956:11322   */\n    tag_154:\n        /* \"#utility.yul\":11098:11101   */\n      0x00\n        /* \"#utility.yul\":11119:11186   */\n      tag_266\n        /* \"#utility.yul\":11183:11185   */\n      0x13\n        /* \"#utility.yul\":11178:11181   */\n      dup4\n        /* \"#utility.yul\":11119:11186   */\n      tag_143\n      jump\t// in\n    tag_266:\n        /* \"#utility.yul\":11112:11186   */\n      swap2\n      pop\n        /* \"#utility.yul\":11195:11288   */\n      tag_267\n        /* \"#utility.yul\":11284:11287   */\n      dup3\n        /* \"#utility.yul\":11195:11288   */\n      tag_153\n      jump\t// in\n    tag_267:\n        /* \"#utility.yul\":11313:11315   */\n      0x20\n        /* \"#utility.yul\":11308:11311   */\n      dup3\n        /* \"#utility.yul\":11304:11316   */\n      add\n        /* \"#utility.yul\":11297:11316   */\n      swap1\n      pop\n        /* \"#utility.yul\":10956:11322   */\n      swap2\n      swap1\n      pop\n      jump\t// out\n        /* \"#utility.yul\":11328:11747   */\n    tag_94:\n        /* \"#utility.yul\":11494:11498   */\n      0x00\n        /* \"#utility.yul\":11532:11534   */\n      0x20\n        /* \"#utility.yul\":11521:11530   */\n      dup3\n        /* \"#utility.yul\":11517:11535   */\n      add\n        /* \"#utility.yul\":11509:11535   */\n      swap1\n      pop\n        /* \"#utility.yul\":11581:11590   */\n      dup2\n        /* \"#utility.yul\":11575:11579   */\n      dup2\n        /* \"#utility.yul\":11571:11591   */\n      sub\n        /* \"#utility.yul\":11567:11568   */\n      0x00\n        /* \"#utility.yul\":11556:11565   */\n      dup4\n        /* \"#utility.yul\":11552:11569   */\n      add\n        /* \"#utility.yul\":11545:11592   */\n      mstore\n        /* \"#utility.yul\":11609:11740   */\n      tag_269\n        /* \"#utility.yul\":11735:11739   */\n      dup2\n        /* \"#utility.yul\":11609:11740   */\n      tag_154\n      jump\t// in\n    tag_269:\n        /* \"#utility.yul\":11601:11740   */\n      swap1\n      pop\n        /* \"#utility.yul\":11328:11747   */\n      swap2\n      swap1\n      pop\n      jump\t// out\n        /* \"#utility.yul\":11753:11852   */\n    tag_155:\n        /* \"#utility.yul\":11805:11811   */\n      0x00\n        /* \"#utility.yul\":11839:11844   */\n      dup2\n        /* \"#utility.yul\":11833:11845   */\n      mload\n        /* \"#utility.yul\":11823:11845   */\n      swap1\n      pop\n        /* \"#utility.yul\":11753:11852   */\n      swap2\n      swap1\n      pop\n      jump\t// out\n        /* \"#utility.yul\":11858:11997   */\n    tag_156:\n        /* \"#utility.yul\":11947:11953   */\n      dup3\n        /* \"#utility.yul\":11942:11945   */\n      dup2\n        /* \"#utility.yul\":11937:11940   */\n      dup4\n        /* \"#utility.yul\":11931:11954   */\n      mcopy\n        /* \"#utility.yul\":11988:11989   */\n      0x00\n        /* \"#utility.yul\":11979:11985   */\n      dup4\n        /* \"#utility.yul\":11974:11977   */\n      dup4\n        /* \"#utility.yul\":11970:11986   */\n      add\n        /* \"#utility.yul\":11963:11990   */\n      mstore\n        /* \"#utility.yul\":11858:11997   */\n      pop\n      pop\n      pop\n      jump\t// out\n        /* \"#utility.yul\":12003:12380   */\n    tag_157:\n        /* \"#utility.yul\":12091:12094   */\n      0x00\n        /* \"#utility.yul\":12119:12158   */\n      tag_273\n        /* \"#utility.yul\":12152:12157   */\n      dup3\n        /* \"#utility.yul\":12119:12158   */\n      tag_155\n      jump\t// in\n    tag_273:\n        /* \"#utility.yul\":12174:12245   */\n      tag_274\n        /* \"#utility.yul\":12238:12244   */\n      dup2\n        /* \"#utility.yul\":12233:12236   */\n      dup6\n        /* \"#utility.yul\":12174:12245   */\n      tag_143\n      jump\t// in\n    tag_274:\n        /* \"#utility.yul\":12167:12245   */\n      swap4\n      pop\n        /* \"#utility.yul\":12254:12319   */\n      tag_275\n        /* \"#utility.yul\":12312:12318   */\n      dup2\n        /* \"#utility.yul\":12307:12310   */\n      dup6\n        /* \"#utility.yul\":12300:12304   */\n      0x20\n        /* \"#utility.yul\":12293:12298   */\n      dup7\n        /* \"#utility.yul\":12289:12305   */\n      add\n        /* \"#utility.yul\":12254:12319   */\n      tag_156\n      jump\t// in\n    tag_275:\n        /* \"#utility.yul\":12344:12373   */\n      tag_276\n        /* \"#utility.yul\":12366:12372   */\n      dup2\n        /* \"#utility.yul\":12344:12373   */\n      tag_135\n      jump\t// in\n    tag_276:\n        /* \"#utility.yul\":12339:12342   */\n      dup5\n        /* \"#utility.yul\":12335:12374   */\n      add\n        /* \"#utility.yul\":12328:12374   */\n      swap2\n      pop\n        /* \"#utility.yul\":12095:12380   */\n      pop\n        /* \"#utility.yul\":12003:12380   */\n      swap3\n      swap2\n      pop\n      pop\n      jump\t// out\n        /* \"#utility.yul\":12386:12809   */\n    tag_105:\n        /* \"#utility.yul\":12527:12531   */\n      0x00\n        /* \"#utility.yul\":12565:12567   */\n      0x40\n        /* \"#utility.yul\":12554:12563   */\n      dup3\n        /* \"#utility.yul\":12550:12568   */\n      add\n        /* \"#utility.yul\":12542:12568   */\n      swap1\n      pop\n        /* \"#utility.yul\":12614:12623   */\n      dup2\n        /* \"#utility.yul\":12608:12612   */\n      dup2\n        /* \"#utility.yul\":12604:12624   */\n      sub\n        /* \"#utility.yul\":12600:12601   */\n      0x00\n        /* \"#utility.yul\":12589:12598   */\n      dup4\n        /* \"#utility.yul\":12585:12602   */\n      add\n        /* \"#utility.yul\":12578:12625   */\n      mstore\n        /* \"#utility.yul\":12642:12720   */\n      tag_278\n        /* \"#utility.yul\":12715:12719   */\n      dup2\n        /* \"#utility.yul\":12706:12712   */\n      dup6\n        /* \"#utility.yul\":12642:12720   */\n      tag_157\n      jump\t// in\n    tag_278:\n        /* \"#utility.yul\":12634:12720   */\n      swap1\n      pop\n        /* \"#utility.yul\":12730:12802   */\n      tag_279\n        /* \"#utility.yul\":12798:12800   */\n      0x20\n        /* \"#utility.yul\":12787:12796   */\n      dup4\n        /* \"#utility.yul\":12783:12801   */\n      add\n        /* \"#utility.yul\":12774:12780   */\n      dup5\n        /* \"#utility.yul\":12730:12802   */\n      tag_125\n      jump\t// in\n    tag_279:\n        /* \"#utility.yul\":12386:12809   */\n      swap4\n      swap3\n      pop\n      pop\n      pop\n      jump\t// out\n        /* \"#utility.yul\":12815:12982   */\n    tag_158:\n        /* \"#utility.yul\":12955:12974   */\n      0x4f72646572206e6f742073686970706564000000000000000000000000000000\n        /* \"#utility.yul\":12951:12952   */\n      0x00\n        /* \"#utility.yul\":12943:12949   */\n      dup3\n        /* \"#utility.yul\":12939:12953   */\n      add\n        /* \"#utility.yul\":12932:12975   */\n      mstore\n        /* \"#utility.yul\":12815:12982   */\n      pop\n      jump\t// out\n        /* \"#utility.yul\":12988:13354   */\n    tag_159:\n        /* \"#utility.yul\":13130:13133   */\n      0x00\n        /* \"#utility.yul\":13151:13218   */\n      tag_282\n        /* \"#utility.yul\":13215:13217   */\n      0x11\n        /* \"#utility.yul\":13210:13213   */\n      dup4\n        /* \"#utility.yul\":13151:13218   */\n      tag_143\n      jump\t// in\n    tag_282:\n        /* \"#utility.yul\":13144:13218   */\n      swap2\n      pop\n        /* \"#utility.yul\":13227:13320   */\n      tag_283\n        /* \"#utility.yul\":13316:13319   */\n      dup3\n        /* \"#utility.yul\":13227:13320   */\n      tag_158\n      jump\t// in\n    tag_283:\n        /* \"#utility.yul\":13345:13347   */\n      0x20\n        /* \"#utility.yul\":13340:13343   */\n      dup3\n        /* \"#utility.yul\":13336:13348   */\n      add\n        /* \"#utility.yul\":13329:13348   */\n      swap1\n      pop\n        /* \"#utility.yul\":12988:13354   */\n      swap2\n      swap1\n      pop\n      jump\t// out\n        /* \"#utility.yul\":13360:13779   */\n    tag_115:\n        /* \"#utility.yul\":13526:13530   */\n      0x00\n        /* \"#utility.yul\":13564:13566   */\n      0x20\n        /* \"#utility.yul\":13553:13562   */\n      dup3\n        /* \"#utility.yul\":13549:13567   */\n      add\n        /* \"#utility.yul\":13541:13567   */\n      swap1\n      pop\n        /* \"#utility.yul\":13613:13622   */\n      dup2\n        /* \"#utility.yul\":13607:13611   */\n      dup2\n        /* \"#utility.yul\":13603:13623   */\n      sub\n        /* \"#utility.yul\":13599:13600   */\n      0x00\n        /* \"#utility.yul\":13588:13597   */\n      dup4\n        /* \"#utility.yul\":13584:13601   */\n      add\n        /* \"#utility.yul\":13577:13624   */\n      mstore\n        /* \"#utility.yul\":13641:13772   */\n      tag_285\n        /* \"#utility.yul\":13767:13771   */\n      dup2\n        /* \"#utility.yul\":13641:13772   */\n      tag_159\n      jump\t// in\n    tag_285:\n        /* \"#utility.yul\":13633:13772   */\n      swap1\n      pop\n        /* \"#utility.yul\":13360:13779   */\n      swap2\n      swap1\n      pop\n      jump\t// out\n\n    auxdata: 0xa26469706673582212202c0b8fa0773256c4bd65b8a3c06cf8e5ab6c0ccbe90dddbac705f9b88b52a3f664736f6c634300081f0033\n}\n",
				"bytecode": {
					"linkReferences": {},
					"object": "6080604052348015600e575f5ffd5b506111288061001c5f395ff3fe60806040526004361061006f575f3560e01c80636512e6ec1161004d5780636512e6ec146100ed578063a85c38ef1461010b578063ad7e21811461014a578063b6adaaff146101725761006f565b8063194c302c146100735780632453ffa81461009b5780632a685d3c146100c5575b5f5ffd5b34801561007e575f5ffd5b5061009960048036038101906100949190610a7b565b61019a565b005b3480156100a6575f5ffd5b506100af61028c565b6040516100bc9190610ab5565b60405180910390f35b3480156100d0575f5ffd5b506100eb60048036038101906100e69190610a7b565b610292565b005b6100f5610430565b6040516101029190610ab5565b60405180910390f35b348015610116575f5ffd5b50610131600480360381019061012c9190610a7b565b6105c7565b6040516101419493929190610b80565b60405180910390f35b348015610155575f5ffd5b50610170600480360381019061016b9190610cff565b61061d565b005b34801561017d575f5ffd5b5061019860048036038101906101939190610a7b565b61089e565b005b5f5f5f8381526020019081526020015f209050600160048111156101c1576101c0610b0d565b5b816002015f9054906101000a900460ff1660048111156101e4576101e3610b0d565b5b14610224576040517f08c379a000000000000000000000000000000000000000000000000000000000815260040161021b90610db3565b60405180910390fd5b6002816002015f6101000a81548160ff0219169083600481111561024b5761024a610b0d565b5b0217905550817fd293cce49277a4dadc0edc7a4a30f89cb1d3bffcf9f52380f4f52525243ad7f9426040516102809190610ab5565b60405180910390a25050565b60015481565b5f5f5f8381526020019081526020015f2090503373ffffffffffffffffffffffffffffffffffffffff16815f015f9054906101000a900473ffffffffffffffffffffffffffffffffffffffff1673ffffffffffffffffffffffffffffffffffffffff1614610335576040517f08c379a000000000000000000000000000000000000000000000000000000000815260040161032c90610e1b565b60405180910390fd5b5f600481111561034857610347610b0d565b5b816002015f9054906101000a900460ff16600481111561036b5761036a610b0d565b5b146103ab576040517f08c379a00000000000000000000000000000000000000000000000000000000081526004016103a290610e83565b60405180910390fd5b6001816002015f6101000a81548160ff021916908360048111156103d2576103d1610b0d565b5b02179055503373ffffffffffffffffffffffffffffffffffffffff16827f1a9df17bc46d3a01929944669671ff9da8906ec5d59a9d0495ecb656c7673b62836001015442604051610424929190610ea1565b60405180910390a35050565b5f5f3411610473576040517f08c379a000000000000000000000000000000000000000000000000000000000815260040161046a90610f12565b60405180910390fd5b5f60015f81548092919061048690610f5d565b91905055905060405180608001604052803373ffffffffffffffffffffffffffffffffffffffff1681526020013481526020015f60048111156104cc576104cb610b0d565b5b8152602001428152505f5f8381526020019081526020015f205f820151815f015f6101000a81548173ffffffffffffffffffffffffffffffffffffffff021916908373ffffffffffffffffffffffffffffffffffffffff160217905550602082015181600101556040820151816002015f6101000a81548160ff0219169083600481111561055d5761055c610b0d565b5b0217905550606082015181600301559050503373ffffffffffffffffffffffffffffffffffffffff16817ff7c110a6973307f2bc91245c2c06344ada13add2c1741e83ac5c0bb332bc85d534426040516105b8929190610ea1565b60405180910390a38091505090565b5f602052805f5260405f205f91509050805f015f9054906101000a900473ffffffffffffffffffffffffffffffffffffffff1690806001015490806002015f9054906101000a900460ff16908060030154905084565b5f5f5f8481526020019081526020015f2090503373ffffffffffffffffffffffffffffffffffffffff16815f015f9054906101000a900473ffffffffffffffffffffffffffffffffffffffff1673ffffffffffffffffffffffffffffffffffffffff16146106c0576040517f08c379a00000000000000000000000000000000000000000000000000000000081526004016106b790610e1b565b60405180910390fd5b5f60048111156106d3576106d2610b0d565b5b816002015f9054906101000a900460ff1660048111156106f6576106f5610b0d565b5b148061073657506001600481111561071157610710610b0d565b5b816002015f9054906101000a900460ff16600481111561073457610733610b0d565b5b145b610775576040517f08c379a000000000000000000000000000000000000000000000000000000000815260040161076c90610fee565b60405180910390fd5b6004816002015f6101000a81548160ff0219169083600481111561079c5761079b610b0d565b5b0217905550600160048111156107b5576107b4610b0d565b5b816002015f9054906101000a900460ff1660048111156107d8576107d7610b0d565b5b0361084857805f015f9054906101000a900473ffffffffffffffffffffffffffffffffffffffff1673ffffffffffffffffffffffffffffffffffffffff166108fc826001015490811502906040515f60405180830381858888f19350505050158015610846573d5f5f3e3d5ffd5b505b3373ffffffffffffffffffffffffffffffffffffffff16837fdc86692145cc5cd06412f3270c48a27f4c084eb81fbf8a70c5913f4c88326156844260405161089192919061105c565b60405180910390a3505050565b5f5f5f8381526020019081526020015f2090503373ffffffffffffffffffffffffffffffffffffffff16815f015f9054906101000a900473ffffffffffffffffffffffffffffffffffffffff1673ffffffffffffffffffffffffffffffffffffffff1614610941576040517f08c379a000000000000000000000000000000000000000000000000000000000815260040161093890610e1b565b60405180910390fd5b6002600481111561095557610954610b0d565b5b816002015f9054906101000a900460ff16600481111561097857610977610b0d565b5b146109b8576040517f08c379a00000000000000000000000000000000000000000000000000000000081526004016109af906110d4565b60405180910390fd5b6003816002015f6101000a81548160ff021916908360048111156109df576109de610b0d565b5b02179055503373ffffffffffffffffffffffffffffffffffffffff16827fe542d9ced06ebf48c00dc3567a112897fa34963ecc9a6ebf2beba9bc70f5689442604051610a2b9190610ab5565b60405180910390a35050565b5f604051905090565b5f5ffd5b5f5ffd5b5f819050919050565b610a5a81610a48565b8114610a64575f5ffd5b50565b5f81359050610a7581610a51565b92915050565b5f60208284031215610a9057610a8f610a40565b5b5f610a9d84828501610a67565b91505092915050565b610aaf81610a48565b82525050565b5f602082019050610ac85f830184610aa6565b92915050565b5f73ffffffffffffffffffffffffffffffffffffffff82169050919050565b5f610af782610ace565b9050919050565b610b0781610aed565b82525050565b7f4e487b71000000000000000000000000000000000000000000000000000000005f52602160045260245ffd5b60058110610b4b57610b4a610b0d565b5b50565b5f819050610b5b82610b3a565b919050565b5f610b6a82610b4e565b9050919050565b610b7a81610b60565b82525050565b5f608082019050610b935f830187610afe565b610ba06020830186610aa6565b610bad6040830185610b71565b610bba6060830184610aa6565b95945050505050565b5f5ffd5b5f5ffd5b5f601f19601f8301169050919050565b7f4e487b71000000000000000000000000000000000000000000000000000000005f52604160045260245ffd5b610c1182610bcb565b810181811067ffffffffffffffff82111715610c3057610c2f610bdb565b5b80604052505050565b5f610c42610a37565b9050610c4e8282610c08565b919050565b5f67ffffffffffffffff821115610c6d57610c6c610bdb565b5b610c7682610bcb565b9050602081019050919050565b828183375f83830152505050565b5f610ca3610c9e84610c53565b610c39565b905082815260208101848484011115610cbf57610cbe610bc7565b5b610cca848285610c83565b509392505050565b5f82601f830112610ce657610ce5610bc3565b5b8135610cf6848260208601610c91565b91505092915050565b5f5f60408385031215610d1557610d14610a40565b5b5f610d2285828601610a67565b925050602083013567ffffffffffffffff811115610d4357610d42610a44565b5b610d4f85828601610cd2565b9150509250929050565b5f82825260208201905092915050565b7f4f72646572206e6f7420706169640000000000000000000000000000000000005f82015250565b5f610d9d600e83610d59565b9150610da882610d69565b602082019050919050565b5f6020820190508181035f830152610dca81610d91565b9050919050565b7f4e6f7420746865206275796572000000000000000000000000000000000000005f82015250565b5f610e05600d83610d59565b9150610e1082610dd1565b602082019050919050565b5f6020820190508181035f830152610e3281610df9565b9050919050565b7f496e76616c6964206f72646572207374617475730000000000000000000000005f82015250565b5f610e6d601483610d59565b9150610e7882610e39565b602082019050919050565b5f6020820190508181035f830152610e9a81610e61565b9050919050565b5f604082019050610eb45f830185610aa6565b610ec16020830184610aa6565b9392505050565b7f416d6f756e74206d7573742062652067726561746572207468616e207a65726f5f82015250565b5f610efc602083610d59565b9150610f0782610ec8565b602082019050919050565b5f6020820190508181035f830152610f2981610ef0565b9050919050565b7f4e487b71000000000000000000000000000000000000000000000000000000005f52601160045260245ffd5b5f610f6782610a48565b91507fffffffffffffffffffffffffffffffffffffffffffffffffffffffffffffffff8203610f9957610f98610f30565b5b600182019050919050565b7f43616e6e6f742063616e63656c206f72646572000000000000000000000000005f82015250565b5f610fd8601383610d59565b9150610fe382610fa4565b602082019050919050565b5f6020820190508181035f83015261100581610fcc565b9050919050565b5f81519050919050565b8281835e5f83830152505050565b5f61102e8261100c565b6110388185610d59565b9350611048818560208601611016565b61105181610bcb565b840191505092915050565b5f6040820190508181035f8301526110748185611024565b90506110836020830184610aa6565b9392505050565b7f4f72646572206e6f7420736869707065640000000000000000000000000000005f82015250565b5f6110be601183610d59565b91506110c98261108a565b602082019050919050565b5f6020820190508181035f8301526110eb816110b2565b905091905056fea26469706673582212202c0b8fa0773256c4bd65b8a3c06cf8e5ab6c0ccbe90dddbac705f9b88b52a3f664736f6c634300081f0033",
					"opcodes": "PUSH1 0x80 PUSH1 0x40 MSTORE CALLVALUE DUP1 ISZERO PUSH1 0xE JUMPI PUSH0 PUSH0 REVERT JUMPDEST POP PUSH2 0x1128 DUP1 PUSH2 0x1C PUSH0 CODECOPY PUSH0 RETURN INVALID PUSH1 0x80 PUSH1 0x40 MSTORE PUSH1 0x4 CALLDATASIZE LT PUSH2 0x6F JUMPI PUSH0 CALLDATALOAD PUSH1 0xE0 SHR DUP1 PUSH4 0x6512E6EC GT PUSH2 0x4D JUMPI DUP1 PUSH4 0x6512E6EC EQ PUSH2 0xED JUMPI DUP1 PUSH4 0xA85C38EF EQ PUSH2 0x10B JUMPI DUP1 PUSH4 0xAD7E2181 EQ PUSH2 0x14A JUMPI DUP1 PUSH4 0xB6ADAAFF EQ PUSH2 0x172 JUMPI PUSH2 0x6F JUMP JUMPDEST DUP1 PUSH4 0x194C302C EQ PUSH2 0x73 JUMPI DUP1 PUSH4 0x2453FFA8 EQ PUSH2 0x9B JUMPI DUP1 PUSH4 0x2A685D3C EQ PUSH2 0xC5 JUMPI JUMPDEST PUSH0 PUSH0 REVERT JUMPDEST CALLVALUE DUP1 ISZERO PUSH2 0x7E JUMPI PUSH0 PUSH0 REVERT JUMPDEST POP PUSH2 0x99 PUSH1 0x4 DUP1 CALLDATASIZE SUB DUP2 ADD SWAP1 PUSH2 0x94 SWAP2 SWAP1 PUSH2 0xA7B JUMP JUMPDEST PUSH2 0x19A JUMP JUMPDEST STOP JUMPDEST CALLVALUE DUP1 ISZERO PUSH2 0xA6 JUMPI PUSH0 PUSH0 REVERT JUMPDEST POP PUSH2 0xAF PUSH2 0x28C JUMP JUMPDEST PUSH1 0x40 MLOAD PUSH2 0xBC SWAP2 SWAP1 PUSH2 0xAB5 JUMP JUMPDEST PUSH1 0x40 MLOAD DUP1 SWAP2 SUB SWAP1 RETURN JUMPDEST CALLVALUE DUP1 ISZERO PUSH2 0xD0 JUMPI PUSH0 PUSH0 REVERT JUMPDEST POP PUSH2 0xEB PUSH1 0x4 DUP1 CALLDATASIZE SUB DUP2 ADD SWAP1 PUSH2 0xE6 SWAP2 SWAP1 PUSH2 0xA7B JUMP JUMPDEST PUSH2 0x292 JUMP JUMPDEST STOP JUMPDEST PUSH2 0xF5 PUSH2 0x430 JUMP JUMPDEST PUSH1 0x40 MLOAD PUSH2 0x102 SWAP2 SWAP1 PUSH2 0xAB5 JUMP JUMPDEST PUSH1 0x40 MLOAD DUP1 SWAP2 SUB SWAP1 RETURN JUMPDEST CALLVALUE DUP1 ISZERO PUSH2 0x116 JUMPI PUSH0 PUSH0 REVERT JUMPDEST POP PUSH2 0x131 PUSH1 0x4 DUP1 CALLDATASIZE SUB DUP2 ADD SWAP1 PUSH2 0x12C SWAP2 SWAP1 PUSH2 0xA7B JUMP JUMPDEST PUSH2 0x5C7 JUMP JUMPDEST PUSH1 0x40 MLOAD PUSH2 0x141 SWAP5 SWAP4 SWAP3 SWAP2 SWAP1 PUSH2 0xB80 JUMP JUMPDEST PUSH1 0x40 MLOAD DUP1 SWAP2 SUB SWAP1 RETURN JUMPDEST CALLVALUE DUP1 ISZERO PUSH2 0x155 JUMPI PUSH0 PUSH0 REVERT JUMPDEST POP PUSH2 0x170 PUSH1 0x4 DUP1 CALLDATASIZE SUB DUP2 ADD SWAP1 PUSH2 0x16B SWAP2 SWAP1 PUSH2 0xCFF JUMP JUMPDEST PUSH2 0x61D JUMP JUMPDEST STOP JUMPDEST CALLVALUE DUP1 ISZERO PUSH2 0x17D JUMPI PUSH0 PUSH0 REVERT JUMPDEST POP PUSH2 0x198 PUSH1 0x4 DUP1 CALLDATASIZE SUB DUP2 ADD SWAP1 PUSH2 0x193 SWAP2 SWAP1 PUSH2 0xA7B JUMP JUMPDEST PUSH2 0x89E JUMP JUMPDEST STOP JUMPDEST PUSH0 PUSH0 PUSH0 DUP4 DUP2 MSTORE PUSH1 0x20 ADD SWAP1 DUP2 MSTORE PUSH1 0x20 ADD PUSH0 KECCAK256 SWAP1 POP PUSH1 0x1 PUSH1 0x4 DUP2 GT ISZERO PUSH2 0x1C1 JUMPI PUSH2 0x1C0 PUSH2 0xB0D JUMP JUMPDEST JUMPDEST DUP2 PUSH1 0x2 ADD PUSH0 SWAP1 SLOAD SWAP1 PUSH2 0x100 EXP SWAP1 DIV PUSH1 0xFF AND PUSH1 0x4 DUP2 GT ISZERO PUSH2 0x1E4 JUMPI PUSH2 0x1E3 PUSH2 0xB0D JUMP JUMPDEST JUMPDEST EQ PUSH2 0x224 JUMPI PUSH1 0x40 MLOAD PUSH32 0x8C379A000000000000000000000000000000000000000000000000000000000 DUP2 MSTORE PUSH1 0x4 ADD PUSH2 0x21B SWAP1 PUSH2 0xDB3 JUMP JUMPDEST PUSH1 0x40 MLOAD DUP1 SWAP2 SUB SWAP1 REVERT JUMPDEST PUSH1 0x2 DUP2 PUSH1 0x2 ADD PUSH0 PUSH2 0x100 EXP DUP2 SLOAD DUP2 PUSH1 0xFF MUL NOT AND SWAP1 DUP4 PUSH1 0x4 DUP2 GT ISZERO PUSH2 0x24B JUMPI PUSH2 0x24A PUSH2 0xB0D JUMP JUMPDEST JUMPDEST MUL OR SWAP1 SSTORE POP DUP2 PUSH32 0xD293CCE49277A4DADC0EDC7A4A30F89CB1D3BFFCF9F52380F4F52525243AD7F9 TIMESTAMP PUSH1 0x40 MLOAD PUSH2 0x280 SWAP2 SWAP1 PUSH2 0xAB5 JUMP JUMPDEST PUSH1 0x40 MLOAD DUP1 SWAP2 SUB SWAP1 LOG2 POP POP JUMP JUMPDEST PUSH1 0x1 SLOAD DUP2 JUMP JUMPDEST PUSH0 PUSH0 PUSH0 DUP4 DUP2 MSTORE PUSH1 0x20 ADD SWAP1 DUP2 MSTORE PUSH1 0x20 ADD PUSH0 KECCAK256 SWAP1 POP CALLER PUSH20 0xFFFFFFFFFFFFFFFFFFFFFFFFFFFFFFFFFFFFFFFF AND DUP2 PUSH0 ADD PUSH0 SWAP1 SLOAD SWAP1 PUSH2 0x100 EXP SWAP1 DIV PUSH20 0xFFFFFFFFFFFFFFFFFFFFFFFFFFFFFFFFFFFFFFFF AND PUSH20 0xFFFFFFFFFFFFFFFFFFFFFFFFFFFFFFFFFFFFFFFF AND EQ PUSH2 0x335 JUMPI PUSH1 0x40 MLOAD PUSH32 0x8C379A000000000000000000000000000000000000000000000000000000000 DUP2 MSTORE PUSH1 0x4 ADD PUSH2 0x32C SWAP1 PUSH2 0xE1B JUMP JUMPDEST PUSH1 0x40 MLOAD DUP1 SWAP2 SUB SWAP1 REVERT JUMPDEST PUSH0 PUSH1 0x4 DUP2 GT ISZERO PUSH2 0x348 JUMPI PUSH2 0x347 PUSH2 0xB0D JUMP JUMPDEST JUMPDEST DUP2 PUSH1 0x2 ADD PUSH0 SWAP1 SLOAD SWAP1 PUSH2 0x100 EXP SWAP1 DIV PUSH1 0xFF AND PUSH1 0x4 DUP2 GT ISZERO PUSH2 0x36B JUMPI PUSH2 0x36A PUSH2 0xB0D JUMP JUMPDEST JUMPDEST EQ PUSH2 0x3AB JUMPI PUSH1 0x40 MLOAD PUSH32 0x8C379A000000000000000000000000000000000000000000000000000000000 DUP2 MSTORE PUSH1 0x4 ADD PUSH2 0x3A2 SWAP1 PUSH2 0xE83 JUMP JUMPDEST PUSH1 0x40 MLOAD DUP1 SWAP2 SUB SWAP1 REVERT JUMPDEST PUSH1 0x1 DUP2 PUSH1 0x2 ADD PUSH0 PUSH2 0x100 EXP DUP2 SLOAD DUP2 PUSH1 0xFF MUL NOT AND SWAP1 DUP4 PUSH1 0x4 DUP2 GT ISZERO PUSH2 0x3D2 JUMPI PUSH2 0x3D1 PUSH2 0xB0D JUMP JUMPDEST JUMPDEST MUL OR SWAP1 SSTORE POP CALLER PUSH20 0xFFFFFFFFFFFFFFFFFFFFFFFFFFFFFFFFFFFFFFFF AND DUP3 PUSH32 0x1A9DF17BC46D3A01929944669671FF9DA8906EC5D59A9D0495ECB656C7673B62 DUP4 PUSH1 0x1 ADD SLOAD TIMESTAMP PUSH1 0x40 MLOAD PUSH2 0x424 SWAP3 SWAP2 SWAP1 PUSH2 0xEA1 JUMP JUMPDEST PUSH1 0x40 MLOAD DUP1 SWAP2 SUB SWAP1 LOG3 POP POP JUMP JUMPDEST PUSH0 PUSH0 CALLVALUE GT PUSH2 0x473 JUMPI PUSH1 0x40 MLOAD PUSH32 0x8C379A000000000000000000000000000000000000000000000000000000000 DUP2 MSTORE PUSH1 0x4 ADD PUSH2 0x46A SWAP1 PUSH2 0xF12 JUMP JUMPDEST PUSH1 0x40 MLOAD DUP1 SWAP2 SUB SWAP1 REVERT JUMPDEST PUSH0 PUSH1 0x1 PUSH0 DUP2 SLOAD DUP1 SWAP3 SWAP2 SWAP1 PUSH2 0x486 SWAP1 PUSH2 0xF5D JUMP JUMPDEST SWAP2 SWAP1 POP SSTORE SWAP1 POP PUSH1 0x40 MLOAD DUP1 PUSH1 0x80 ADD PUSH1 0x40 MSTORE DUP1 CALLER PUSH20 0xFFFFFFFFFFFFFFFFFFFFFFFFFFFFFFFFFFFFFFFF AND DUP2 MSTORE PUSH1 0x20 ADD CALLVALUE DUP2 MSTORE PUSH1 0x20 ADD PUSH0 PUSH1 0x4 DUP2 GT ISZERO PUSH2 0x4CC JUMPI PUSH2 0x4CB PUSH2 0xB0D JUMP JUMPDEST JUMPDEST DUP2 MSTORE PUSH1 0x20 ADD TIMESTAMP DUP2 MSTORE POP PUSH0 PUSH0 DUP4 DUP2 MSTORE PUSH1 0x20 ADD SWAP1 DUP2 MSTORE PUSH1 0x20 ADD PUSH0 KECCAK256 PUSH0 DUP3 ADD MLOAD DUP2 PUSH0 ADD PUSH0 PUSH2 0x100 EXP DUP2 SLOAD DUP2 PUSH20 0xFFFFFFFFFFFFFFFFFFFFFFFFFFFFFFFFFFFFFFFF MUL NOT AND SWAP1 DUP4 PUSH20 0xFFFFFFFFFFFFFFFFFFFFFFFFFFFFFFFFFFFFFFFF AND MUL OR SWAP1 SSTORE POP PUSH1 0x20 DUP3 ADD MLOAD DUP2 PUSH1 0x1 ADD SSTORE PUSH1 0x40 DUP3 ADD MLOAD DUP2 PUSH1 0x2 ADD PUSH0 PUSH2 0x100 EXP DUP2 SLOAD DUP2 PUSH1 0xFF MUL NOT AND SWAP1 DUP4 PUSH1 0x4 DUP2 GT ISZERO PUSH2 0x55D JUMPI PUSH2 0x55C PUSH2 0xB0D JUMP JUMPDEST JUMPDEST MUL OR SWAP1 SSTORE POP PUSH1 0x60 DUP3 ADD MLOAD DUP2 PUSH1 0x3 ADD SSTORE SWAP1 POP POP CALLER PUSH20 0xFFFFFFFFFFFFFFFFFFFFFFFFFFFFFFFFFFFFFFFF AND DUP2 PUSH32 0xF7C110A6973307F2BC91245C2C06344ADA13ADD2C1741E83AC5C0BB332BC85D5 CALLVALUE TIMESTAMP PUSH1 0x40 MLOAD PUSH2 0x5B8 SWAP3 SWAP2 SWAP1 PUSH2 0xEA1 JUMP JUMPDEST PUSH1 0x40 MLOAD DUP1 SWAP2 SUB SWAP1 LOG3 DUP1 SWAP2 POP POP SWAP1 JUMP JUMPDEST PUSH0 PUSH1 0x20 MSTORE DUP1 PUSH0 MSTORE PUSH1 0x40 PUSH0 KECCAK256 PUSH0 SWAP2 POP SWAP1 POP DUP1 PUSH0 ADD PUSH0 SWAP1 SLOAD SWAP1 PUSH2 0x100 EXP SWAP1 DIV PUSH20 0xFFFFFFFFFFFFFFFFFFFFFFFFFFFFFFFFFFFFFFFF AND SWAP1 DUP1 PUSH1 0x1 ADD SLOAD SWAP1 DUP1 PUSH1 0x2 ADD PUSH0 SWAP1 SLOAD SWAP1 PUSH2 0x100 EXP SWAP1 DIV PUSH1 0xFF AND SWAP1 DUP1 PUSH1 0x3 ADD SLOAD SWAP1 POP DUP5 JUMP JUMPDEST PUSH0 PUSH0 PUSH0 DUP5 DUP2 MSTORE PUSH1 0x20 ADD SWAP1 DUP2 MSTORE PUSH1 0x20 ADD PUSH0 KECCAK256 SWAP1 POP CALLER PUSH20 0xFFFFFFFFFFFFFFFFFFFFFFFFFFFFFFFFFFFFFFFF AND DUP2 PUSH0 ADD PUSH0 SWAP1 SLOAD SWAP1 PUSH2 0x100 EXP SWAP1 DIV PUSH20 0xFFFFFFFFFFFFFFFFFFFFFFFFFFFFFFFFFFFFFFFF AND PUSH20 0xFFFFFFFFFFFFFFFFFFFFFFFFFFFFFFFFFFFFFFFF AND EQ PUSH2 0x6C0 JUMPI PUSH1 0x40 MLOAD PUSH32 0x8C379A000000000000000000000000000000000000000000000000000000000 DUP2 MSTORE PUSH1 0x4 ADD PUSH2 0x6B7 SWAP1 PUSH2 0xE1B JUMP JUMPDEST PUSH1 0x40 MLOAD DUP1 SWAP2 SUB SWAP1 REVERT JUMPDEST PUSH0 PUSH1 0x4 DUP2 GT ISZERO PUSH2 0x6D3 JUMPI PUSH2 0x6D2 PUSH2 0xB0D JUMP JUMPDEST JUMPDEST DUP2 PUSH1 0x2 ADD PUSH0 SWAP1 SLOAD SWAP1 PUSH2 0x100 EXP SWAP1 DIV PUSH1 0xFF AND PUSH1 0x4 DUP2 GT ISZERO PUSH2 0x6F6 JUMPI PUSH2 0x6F5 PUSH2 0xB0D JUMP JUMPDEST JUMPDEST EQ DUP1 PUSH2 0x736 JUMPI POP PUSH1 0x1 PUSH1 0x4 DUP2 GT ISZERO PUSH2 0x711 JUMPI PUSH2 0x710 PUSH2 0xB0D JUMP JUMPDEST JUMPDEST DUP2 PUSH1 0x2 ADD PUSH0 SWAP1 SLOAD SWAP1 PUSH2 0x100 EXP SWAP1 DIV PUSH1 0xFF AND PUSH1 0x4 DUP2 GT ISZERO PUSH2 0x734 JUMPI PUSH2 0x733 PUSH2 0xB0D JUMP JUMPDEST JUMPDEST EQ JUMPDEST PUSH2 0x775 JUMPI PUSH1 0x40 MLOAD PUSH32 0x8C379A000000000000000000000000000000000000000000000000000000000 DUP2 MSTORE PUSH1 0x4 ADD PUSH2 0x76C SWAP1 PUSH2 0xFEE JUMP JUMPDEST PUSH1 0x40 MLOAD DUP1 SWAP2 SUB SWAP1 REVERT JUMPDEST PUSH1 0x4 DUP2 PUSH1 0x2 ADD PUSH0 PUSH2 0x100 EXP DUP2 SLOAD DUP2 PUSH1 0xFF MUL NOT AND SWAP1 DUP4 PUSH1 0x4 DUP2 GT ISZERO PUSH2 0x79C JUMPI PUSH2 0x79B PUSH2 0xB0D JUMP JUMPDEST JUMPDEST MUL OR SWAP1 SSTORE POP PUSH1 0x1 PUSH1 0x4 DUP2 GT ISZERO PUSH2 0x7B5 JUMPI PUSH2 0x7B4 PUSH2 0xB0D JUMP JUMPDEST JUMPDEST DUP2 PUSH1 0x2 ADD PUSH0 SWAP1 SLOAD SWAP1 PUSH2 0x100 EXP SWAP1 DIV PUSH1 0xFF AND PUSH1 0x4 DUP2 GT ISZERO PUSH2 0x7D8 JUMPI PUSH2 0x7D7 PUSH2 0xB0D JUMP JUMPDEST JUMPDEST SUB PUSH2 0x848 JUMPI DUP1 PUSH0 ADD PUSH0 SWAP1 SLOAD SWAP1 PUSH2 0x100 EXP SWAP1 DIV PUSH20 0xFFFFFFFFFFFFFFFFFFFFFFFFFFFFFFFFFFFFFFFF AND PUSH20 0xFFFFFFFFFFFFFFFFFFFFFFFFFFFFFFFFFFFFFFFF AND PUSH2 0x8FC DUP3 PUSH1 0x1 ADD SLOAD SWAP1 DUP2 ISZERO MUL SWAP1 PUSH1 0x40 MLOAD PUSH0 PUSH1 0x40 MLOAD DUP1 DUP4 SUB DUP2 DUP6 DUP9 DUP9 CALL SWAP4 POP POP POP POP ISZERO DUP1 ISZERO PUSH2 0x846 JUMPI RETURNDATASIZE PUSH0 PUSH0 RETURNDATACOPY RETURNDATASIZE PUSH0 REVERT JUMPDEST POP JUMPDEST CALLER PUSH20 0xFFFFFFFFFFFFFFFFFFFFFFFFFFFFFFFFFFFFFFFF AND DUP4 PUSH32 0xDC86692145CC5CD06412F3270C48A27F4C084EB81FBF8A70C5913F4C88326156 DUP5 TIMESTAMP PUSH1 0x40 MLOAD PUSH2 0x891 SWAP3 SWAP2 SWAP1 PUSH2 0x105C JUMP JUMPDEST PUSH1 0x40 MLOAD DUP1 SWAP2 SUB SWAP1 LOG3 POP POP POP JUMP JUMPDEST PUSH0 PUSH0 PUSH0 DUP4 DUP2 MSTORE PUSH1 0x20 ADD SWAP1 DUP2 MSTORE PUSH1 0x20 ADD PUSH0 KECCAK256 SWAP1 POP CALLER PUSH20 0xFFFFFFFFFFFFFFFFFFFFFFFFFFFFFFFFFFFFFFFF AND DUP2 PUSH0 ADD PUSH0 SWAP1 SLOAD SWAP1 PUSH2 0x100 EXP SWAP1 DIV PUSH20 0xFFFFFFFFFFFFFFFFFFFFFFFFFFFFFFFFFFFFFFFF AND PUSH20 0xFFFFFFFFFFFFFFFFFFFFFFFFFFFFFFFFFFFFFFFF AND EQ PUSH2 0x941 JUMPI PUSH1 0x40 MLOAD PUSH32 0x8C379A000000000000000000000000000000000000000000000000000000000 DUP2 MSTORE PUSH1 0x4 ADD PUSH2 0x938 SWAP1 PUSH2 0xE1B JUMP JUMPDEST PUSH1 0x40 MLOAD DUP1 SWAP2 SUB SWAP1 REVERT JUMPDEST PUSH1 0x2 PUSH1 0x4 DUP2 GT ISZERO PUSH2 0x955 JUMPI PUSH2 0x954 PUSH2 0xB0D JUMP JUMPDEST JUMPDEST DUP2 PUSH1 0x2 ADD PUSH0 SWAP1 SLOAD SWAP1 PUSH2 0x100 EXP SWAP1 DIV PUSH1 0xFF AND PUSH1 0x4 DUP2 GT ISZERO PUSH2 0x978 JUMPI PUSH2 0x977 PUSH2 0xB0D JUMP JUMPDEST JUMPDEST EQ PUSH2 0x9B8 JUMPI PUSH1 0x40 MLOAD PUSH32 0x8C379A000000000000000000000000000000000000000000000000000000000 DUP2 MSTORE PUSH1 0x4 ADD PUSH2 0x9AF SWAP1 PUSH2 0x10D4 JUMP JUMPDEST PUSH1 0x40 MLOAD DUP1 SWAP2 SUB SWAP1 REVERT JUMPDEST PUSH1 0x3 DUP2 PUSH1 0x2 ADD PUSH0 PUSH2 0x100 EXP DUP2 SLOAD DUP2 PUSH1 0xFF MUL NOT AND SWAP1 DUP4 PUSH1 0x4 DUP2 GT ISZERO PUSH2 0x9DF JUMPI PUSH2 0x9DE PUSH2 0xB0D JUMP JUMPDEST JUMPDEST MUL OR SWAP1 SSTORE POP CALLER PUSH20 0xFFFFFFFFFFFFFFFFFFFFFFFFFFFFFFFFFFFFFFFF AND DUP3 PUSH32 0xE542D9CED06EBF48C00DC3567A112897FA34963ECC9A6EBF2BEBA9BC70F56894 TIMESTAMP PUSH1 0x40 MLOAD PUSH2 0xA2B SWAP2 SWAP1 PUSH2 0xAB5 JUMP JUMPDEST PUSH1 0x40 MLOAD DUP1 SWAP2 SUB SWAP1 LOG3 POP POP JUMP JUMPDEST PUSH0 PUSH1 0x40 MLOAD SWAP1 POP SWAP1 JUMP JUMPDEST PUSH0 PUSH0 REVERT JUMPDEST PUSH0 PUSH0 REVERT JUMPDEST PUSH0 DUP2 SWAP1 POP SWAP2 SWAP1 POP JUMP JUMPDEST PUSH2 0xA5A DUP2 PUSH2 0xA48 JUMP JUMPDEST DUP2 EQ PUSH2 0xA64 JUMPI PUSH0 PUSH0 REVERT JUMPDEST POP JUMP JUMPDEST PUSH0 DUP2 CALLDATALOAD SWAP1 POP PUSH2 0xA75 DUP2 PUSH2 0xA51 JUMP JUMPDEST SWAP3 SWAP2 POP POP JUMP JUMPDEST PUSH0 PUSH1 0x20 DUP3 DUP5 SUB SLT ISZERO PUSH2 0xA90 JUMPI PUSH2 0xA8F PUSH2 0xA40 JUMP JUMPDEST JUMPDEST PUSH0 PUSH2 0xA9D DUP5 DUP3 DUP6 ADD PUSH2 0xA67 JUMP JUMPDEST SWAP2 POP POP SWAP3 SWAP2 POP POP JUMP JUMPDEST PUSH2 0xAAF DUP2 PUSH2 0xA48 JUMP JUMPDEST DUP3 MSTORE POP POP JUMP JUMPDEST PUSH0 PUSH1 0x20 DUP3 ADD SWAP1 POP PUSH2 0xAC8 PUSH0 DUP4 ADD DUP5 PUSH2 0xAA6 JUMP JUMPDEST SWAP3 SWAP2 POP POP JUMP JUMPDEST PUSH0 PUSH20 0xFFFFFFFFFFFFFFFFFFFFFFFFFFFFFFFFFFFFFFFF DUP3 AND SWAP1 POP SWAP2 SWAP1 POP JUMP JUMPDEST PUSH0 PUSH2 0xAF7 DUP3 PUSH2 0xACE JUMP JUMPDEST SWAP1 POP SWAP2 SWAP1 POP JUMP JUMPDEST PUSH2 0xB07 DUP2 PUSH2 0xAED JUMP JUMPDEST DUP3 MSTORE POP POP JUMP JUMPDEST PUSH32 0x4E487B7100000000000000000000000000000000000000000000000000000000 PUSH0 MSTORE PUSH1 0x21 PUSH1 0x4 MSTORE PUSH1 0x24 PUSH0 REVERT JUMPDEST PUSH1 0x5 DUP2 LT PUSH2 0xB4B JUMPI PUSH2 0xB4A PUSH2 0xB0D JUMP JUMPDEST JUMPDEST POP JUMP JUMPDEST PUSH0 DUP2 SWAP1 POP PUSH2 0xB5B DUP3 PUSH2 0xB3A JUMP JUMPDEST SWAP2 SWAP1 POP JUMP JUMPDEST PUSH0 PUSH2 0xB6A DUP3 PUSH2 0xB4E JUMP JUMPDEST SWAP1 POP SWAP2 SWAP1 POP JUMP JUMPDEST PUSH2 0xB7A DUP2 PUSH2 0xB60 JUMP JUMPDEST DUP3 MSTORE POP POP JUMP JUMPDEST PUSH0 PUSH1 0x80 DUP3 ADD SWAP1 POP PUSH2 0xB93 PUSH0 DUP4 ADD DUP8 PUSH2 0xAFE JUMP JUMPDEST PUSH2 0xBA0 PUSH1 0x20 DUP4 ADD DUP7 PUSH2 0xAA6 JUMP JUMPDEST PUSH2 0xBAD PUSH1 0x40 DUP4 ADD DUP6 PUSH2 0xB71 JUMP JUMPDEST PUSH2 0xBBA PUSH1 0x60 DUP4 ADD DUP5 PUSH2 0xAA6 JUMP JUMPDEST SWAP6 SWAP5 POP POP POP POP POP JUMP JUMPDEST PUSH0 PUSH0 REVERT JUMPDEST PUSH0 PUSH0 REVERT JUMPDEST PUSH0 PUSH1 0x1F NOT PUSH1 0x1F DUP4 ADD AND SWAP1 POP SWAP2 SWAP1 POP JUMP JUMPDEST PUSH32 0x4E487B7100000000000000000000000000000000000000000000000000000000 PUSH0 MSTORE PUSH1 0x41 PUSH1 0x4 MSTORE PUSH1 0x24 PUSH0 REVERT JUMPDEST PUSH2 0xC11 DUP3 PUSH2 0xBCB JUMP JUMPDEST DUP2 ADD DUP2 DUP2 LT PUSH8 0xFFFFFFFFFFFFFFFF DUP3 GT OR ISZERO PUSH2 0xC30 JUMPI PUSH2 0xC2F PUSH2 0xBDB JUMP JUMPDEST JUMPDEST DUP1 PUSH1 0x40 MSTORE POP POP POP JUMP JUMPDEST PUSH0 PUSH2 0xC42 PUSH2 0xA37 JUMP JUMPDEST SWAP1 POP PUSH2 0xC4E DUP3 DUP3 PUSH2 0xC08 JUMP JUMPDEST SWAP2 SWAP1 POP JUMP JUMPDEST PUSH0 PUSH8 0xFFFFFFFFFFFFFFFF DUP3 GT ISZERO PUSH2 0xC6D JUMPI PUSH2 0xC6C PUSH2 0xBDB JUMP JUMPDEST JUMPDEST PUSH2 0xC76 DUP3 PUSH2 0xBCB JUMP JUMPDEST SWAP1 POP PUSH1 0x20 DUP2 ADD SWAP1 POP SWAP2 SWAP1 POP JUMP JUMPDEST DUP3 DUP2 DUP4 CALLDATACOPY PUSH0 DUP4 DUP4 ADD MSTORE POP POP POP JUMP JUMPDEST PUSH0 PUSH2 0xCA3 PUSH2 0xC9E DUP5 PUSH2 0xC53 JUMP JUMPDEST PUSH2 0xC39 JUMP JUMPDEST SWAP1 POP DUP3 DUP2 MSTORE PUSH1 0x20 DUP2 ADD DUP5 DUP5 DUP5 ADD GT ISZERO PUSH2 0xCBF JUMPI PUSH2 0xCBE PUSH2 0xBC7 JUMP JUMPDEST JUMPDEST PUSH2 0xCCA DUP5 DUP3 DUP6 PUSH2 0xC83 JUMP JUMPDEST POP SWAP4 SWAP3 POP POP POP JUMP JUMPDEST PUSH0 DUP3 PUSH1 0x1F DUP4 ADD SLT PUSH2 0xCE6 JUMPI PUSH2 0xCE5 PUSH2 0xBC3 JUMP JUMPDEST JUMPDEST DUP2 CALLDATALOAD PUSH2 0xCF6 DUP5 DUP3 PUSH1 0x20 DUP7 ADD PUSH2 0xC91 JUMP JUMPDEST SWAP2 POP POP SWAP3 SWAP2 POP POP JUMP JUMPDEST PUSH0 PUSH0 PUSH1 0x40 DUP4 DUP6 SUB SLT ISZERO PUSH2 0xD15 JUMPI PUSH2 0xD14 PUSH2 0xA40 JUMP JUMPDEST JUMPDEST PUSH0 PUSH2 0xD22 DUP6 DUP3 DUP7 ADD PUSH2 0xA67 JUMP JUMPDEST SWAP3 POP POP PUSH1 0x20 DUP4 ADD CALLDATALOAD PUSH8 0xFFFFFFFFFFFFFFFF DUP2 GT ISZERO PUSH2 0xD43 JUMPI PUSH2 0xD42 PUSH2 0xA44 JUMP JUMPDEST JUMPDEST PUSH2 0xD4F DUP6 DUP3 DUP7 ADD PUSH2 0xCD2 JUMP JUMPDEST SWAP2 POP POP SWAP3 POP SWAP3 SWAP1 POP JUMP JUMPDEST PUSH0 DUP3 DUP3 MSTORE PUSH1 0x20 DUP3 ADD SWAP1 POP SWAP3 SWAP2 POP POP JUMP JUMPDEST PUSH32 0x4F72646572206E6F742070616964000000000000000000000000000000000000 PUSH0 DUP3 ADD MSTORE POP JUMP JUMPDEST PUSH0 PUSH2 0xD9D PUSH1 0xE DUP4 PUSH2 0xD59 JUMP JUMPDEST SWAP2 POP PUSH2 0xDA8 DUP3 PUSH2 0xD69 JUMP JUMPDEST PUSH1 0x20 DUP3 ADD SWAP1 POP SWAP2 SWAP1 POP JUMP JUMPDEST PUSH0 PUSH1 0x20 DUP3 ADD SWAP1 POP DUP2 DUP2 SUB PUSH0 DUP4 ADD MSTORE PUSH2 0xDCA DUP2 PUSH2 0xD91 JUMP JUMPDEST SWAP1 POP SWAP2 SWAP1 POP JUMP JUMPDEST PUSH32 0x4E6F742074686520627579657200000000000000000000000000000000000000 PUSH0 DUP3 ADD MSTORE POP JUMP JUMPDEST PUSH0 PUSH2 0xE05 PUSH1 0xD DUP4 PUSH2 0xD59 JUMP JUMPDEST SWAP2 POP PUSH2 0xE10 DUP3 PUSH2 0xDD1 JUMP JUMPDEST PUSH1 0x20 DUP3 ADD SWAP1 POP SWAP2 SWAP1 POP JUMP JUMPDEST PUSH0 PUSH1 0x20 DUP3 ADD SWAP1 POP DUP2 DUP2 SUB PUSH0 DUP4 ADD MSTORE PUSH2 0xE32 DUP2 PUSH2 0xDF9 JUMP JUMPDEST SWAP1 POP SWAP2 SWAP1 POP JUMP JUMPDEST PUSH32 0x496E76616C6964206F7264657220737461747573000000000000000000000000 PUSH0 DUP3 ADD MSTORE POP JUMP JUMPDEST PUSH0 PUSH2 0xE6D PUSH1 0x14 DUP4 PUSH2 0xD59 JUMP JUMPDEST SWAP2 POP PUSH2 0xE78 DUP3 PUSH2 0xE39 JUMP JUMPDEST PUSH1 0x20 DUP3 ADD SWAP1 POP SWAP2 SWAP1 POP JUMP JUMPDEST PUSH0 PUSH1 0x20 DUP3 ADD SWAP1 POP DUP2 DUP2 SUB PUSH0 DUP4 ADD MSTORE PUSH2 0xE9A DUP2 PUSH2 0xE61 JUMP JUMPDEST SWAP1 POP SWAP2 SWAP1 POP JUMP JUMPDEST PUSH0 PUSH1 0x40 DUP3 ADD SWAP1 POP PUSH2 0xEB4 PUSH0 DUP4 ADD DUP6 PUSH2 0xAA6 JUMP JUMPDEST PUSH2 0xEC1 PUSH1 0x20 DUP4 ADD DUP5 PUSH2 0xAA6 JUMP JUMPDEST SWAP4 SWAP3 POP POP POP JUMP JUMPDEST PUSH32 0x416D6F756E74206D7573742062652067726561746572207468616E207A65726F PUSH0 DUP3 ADD MSTORE POP JUMP JUMPDEST PUSH0 PUSH2 0xEFC PUSH1 0x20 DUP4 PUSH2 0xD59 JUMP JUMPDEST SWAP2 POP PUSH2 0xF07 DUP3 PUSH2 0xEC8 JUMP JUMPDEST PUSH1 0x20 DUP3 ADD SWAP1 POP SWAP2 SWAP1 POP JUMP JUMPDEST PUSH0 PUSH1 0x20 DUP3 ADD SWAP1 POP DUP2 DUP2 SUB PUSH0 DUP4 ADD MSTORE PUSH2 0xF29 DUP2 PUSH2 0xEF0 JUMP JUMPDEST SWAP1 POP SWAP2 SWAP1 POP JUMP JUMPDEST PUSH32 0x4E487B7100000000000000000000000000000000000000000000000000000000 PUSH0 MSTORE PUSH1 0x11 PUSH1 0x4 MSTORE PUSH1 0x24 PUSH0 REVERT JUMPDEST PUSH0 PUSH2 0xF67 DUP3 PUSH2 0xA48 JUMP JUMPDEST SWAP2 POP PUSH32 0xFFFFFFFFFFFFFFFFFFFFFFFFFFFFFFFFFFFFFFFFFFFFFFFFFFFFFFFFFFFFFFFF DUP3 SUB PUSH2 0xF99 JUMPI PUSH2 0xF98 PUSH2 0xF30 JUMP JUMPDEST JUMPDEST PUSH1 0x1 DUP3 ADD SWAP1 POP SWAP2 SWAP1 POP JUMP JUMPDEST PUSH32 0x43616E6E6F742063616E63656C206F7264657200000000000000000000000000 PUSH0 DUP3 ADD MSTORE POP JUMP JUMPDEST PUSH0 PUSH2 0xFD8 PUSH1 0x13 DUP4 PUSH2 0xD59 JUMP JUMPDEST SWAP2 POP PUSH2 0xFE3 DUP3 PUSH2 0xFA4 JUMP JUMPDEST PUSH1 0x20 DUP3 ADD SWAP1 POP SWAP2 SWAP1 POP JUMP JUMPDEST PUSH0 PUSH1 0x20 DUP3 ADD SWAP1 POP DUP2 DUP2 SUB PUSH0 DUP4 ADD MSTORE PUSH2 0x1005 DUP2 PUSH2 0xFCC JUMP JUMPDEST SWAP1 POP SWAP2 SWAP1 POP JUMP JUMPDEST PUSH0 DUP2 MLOAD SWAP1 POP SWAP2 SWAP1 POP JUMP JUMPDEST DUP3 DUP2 DUP4 MCOPY PUSH0 DUP4 DUP4 ADD MSTORE POP POP POP JUMP JUMPDEST PUSH0 PUSH2 0x102E DUP3 PUSH2 0x100C JUMP JUMPDEST PUSH2 0x1038 DUP2 DUP6 PUSH2 0xD59 JUMP JUMPDEST SWAP4 POP PUSH2 0x1048 DUP2 DUP6 PUSH1 0x20 DUP7 ADD PUSH2 0x1016 JUMP JUMPDEST PUSH2 0x1051 DUP2 PUSH2 0xBCB JUMP JUMPDEST DUP5 ADD SWAP2 POP POP SWAP3 SWAP2 POP POP JUMP JUMPDEST PUSH0 PUSH1 0x40 DUP3 ADD SWAP1 POP DUP2 DUP2 SUB PUSH0 DUP4 ADD MSTORE PUSH2 0x1074 DUP2 DUP6 PUSH2 0x1024 JUMP JUMPDEST SWAP1 POP PUSH2 0x1083 PUSH1 0x20 DUP4 ADD DUP5 PUSH2 0xAA6 JUMP JUMPDEST SWAP4 SWAP3 POP POP POP JUMP JUMPDEST PUSH32 0x4F72646572206E6F742073686970706564000000000000000000000000000000 PUSH0 DUP3 ADD MSTORE POP JUMP JUMPDEST PUSH0 PUSH2 0x10BE PUSH1 0x11 DUP4 PUSH2 0xD59 JUMP JUMPDEST SWAP2 POP PUSH2 0x10C9 DUP3 PUSH2 0x108A JUMP JUMPDEST PUSH1 0x20 DUP3 ADD SWAP1 POP SWAP2 SWAP1 POP JUMP JUMPDEST PUSH0 PUSH1 0x20 DUP3 ADD SWAP1 POP DUP2 DUP2 SUB PUSH0 DUP4 ADD MSTORE PUSH2 0x10EB DUP2 PUSH2 0x10B2 JUMP JUMPDEST SWAP1 POP SWAP2 SWAP1 POP JUMP INVALID LOG2 PUSH5 0x6970667358 0x22 SLT KECCAK256 0x2C SIGNEXTEND DUP16 LOG0 PUSH24 0x3256C4BD65B8A3C06CF8E5AB6C0CCBE90DDDBAC705F9B88B MSTORE LOG3 0xF6 PUSH5 0x736F6C6343 STOP ADDMOD 0x1F STOP CALLER "
				},
				"gasEstimates": {
					"creation": {
						"codeDepositCost": "878400",
						"executionCost": "914",
						"totalCost": "879314"
					},
					"external": {
						"cancelOrder(uint256,string)": "infinite",
						"completeOrder(uint256)": "infinite",
						"createOrder()": "infinite",
						"orderCount()": "2448",
						"orders(uint256)": "infinite",
						"payOrder(uint256)": "infinite",
						"shipOrder(uint256)": "infinite"
					}
				},
				"methodIdentifiers": {
					"cancelOrder(uint256,string)": "ad7e2181",
					"completeOrder(uint256)": "b6adaaff",
					"createOrder()": "6512e6ec",
					"orderCount()": "2453ffa8",
					"orders(uint256)": "a85c38ef",
					"payOrder(uint256)": "2a685d3c",
					"shipOrder(uint256)": "194c302c"
				}
			},
			"storageLayout": {
				"storage": [
					{
						"astId": 22,
						"contract": "contracts/lesson7.1/OrderSystem.sol:OrderSystem",
						"label": "orders",
						"offset": 0,
						"slot": "0",
						"type": "t_mapping(t_uint256,t_struct(Order)17_storage)"
					},
					{
						"astId": 24,
						"contract": "contracts/lesson7.1/OrderSystem.sol:OrderSystem",
						"label": "orderCount",
						"offset": 0,
						"slot": "1",
						"type": "t_uint256"
					}
				],
				"types": {
					"t_address": {
						"encoding": "inplace",
						"label": "address",
						"numberOfBytes": "20"
					},
					"t_enum(OrderStatus)7": {
						"encoding": "inplace",
						"label": "enum OrderSystem.OrderStatus",
						"numberOfBytes": "1"
					},
					"t_mapping(t_uint256,t_struct(Order)17_storage)": {
						"encoding": "mapping",
						"key": "t_uint256",
						"label": "mapping(uint256 => struct OrderSystem.Order)",
						"numberOfBytes": "32",
						"value": "t_struct(Order)17_storage"
					},
					"t_struct(Order)17_storage": {
						"encoding": "inplace",
						"label": "struct OrderSystem.Order",
						"members": [
							{
								"astId": 9,
								"contract": "contracts/lesson7.1/OrderSystem.sol:OrderSystem",
								"label": "buyer",
								"offset": 0,
								"slot": "0",
								"type": "t_address"
							},
							{
								"astId": 11,
								"contract": "contracts/lesson7.1/OrderSystem.sol:OrderSystem",
								"label": "amount",
								"offset": 0,
								"slot": "1",
								"type": "t_uint256"
							},
							{
								"astId": 14,
								"contract": "contracts/lesson7.1/OrderSystem.sol:OrderSystem",
								"label": "status",
								"offset": 0,
								"slot": "2",
								"type": "t_enum(OrderStatus)7"
							},
							{
								"astId": 16,
								"contract": "contracts/lesson7.1/OrderSystem.sol:OrderSystem",
								"label": "createdAt",
								"offset": 0,
								"slot": "3",
								"type": "t_uint256"
							}
						],
						"numberOfBytes": "128"
					},
					"t_uint256": {
						"encoding": "inplace",
						"label": "uint256",
						"numberOfBytes": "32"
					}
				}
			},
			"userdoc": {
				"kind": "user",
				"methods": {},
				"version": 1
			}
		}
	}
}