{
	"contracts/lesson7.2/Crowdfunding.sol": {
		"Crowdfunding": {
			"abi": [
				{
					"inputs": [
						{
							"internalType": "uint256",
							"name": "_goal",
							"type": "uint256"
						},
						{
							"internalType": "uint256",
							"name": "_duration",
							"type": "uint256"
						}
					],
					"stateMutability": "nonpayable",
					"type": "constructor"
				},
				{
					"inputs": [
						{
							"internalType": "address",
							"name": "contributor",
							"type": "address"
						}
					],
					"name": "AlreadyRefunded",
					"type": "error"
				},
				{
					"inputs": [],
					"name": "CampaignAlreadyEnded",
					"type": "error"
				},
				{
					"inputs": [],
					"name": "CampaignNotActive",
					"type": "error"
				},
				{
					"inputs": [],
					"name": "GoalAlreadyReached",
					"type": "error"
				},
				{
					"inputs": [
						{
							"internalType": "uint256",
							"name": "current",
							"type": "uint256"
						},
						{
							"internalType": "uint256",
							"name": "goal",
							"type": "uint256"
						}
					],
					"name": "GoalNotReached",
					"type": "error"
				},
				{
					"inputs": [
						{
							"internalType": "uint256",
							"name": "amount",
							"type": "uint256"
						}
					],
					"name": "InvalidAmount",
					"type": "error"
				},
				{
					"inputs": [
						{
							"internalType": "address",
							"name": "caller",
							"type": "address"
						}
					],
					"name": "Unauthorized",
					"type": "error"
				},
				{
					"inputs": [],
					"name": "WithdrawalFailed",
					"type": "error"
				},
				{
					"anonymous": false,
					"inputs": [
						{
							"indexed": true,
							"internalType": "address",
							"name": "contributor",
							"type": "address"
						},
						{
							"indexed": false,
							"internalType": "uint256",
							"name": "amount",
							"type": "uint256"
						}
					],
					"name": "Contribution",
					"type": "event"
				},
				{
					"anonymous": false,
					"inputs": [
						{
							"indexed": false,
							"internalType": "uint256",
							"name": "totalAmount",
							"type": "uint256"
						}
					],
					"name": "GoalReached",
					"type": "event"
				},
				{
					"anonymous": false,
					"inputs": [
						{
							"indexed": true,
							"internalType": "address",
							"name": "contributor",
							"type": "address"
						},
						{
							"indexed": false,
							"internalType": "uint256",
							"name": "amount",
							"type": "uint256"
						}
					],
					"name": "Refund",
					"type": "event"
				},
				{
					"anonymous": false,
					"inputs": [
						{
							"indexed": true,
							"internalType": "address",
							"name": "contributor",
							"type": "address"
						},
						{
							"indexed": false,
							"internalType": "uint256",
							"name": "amount",
							"type": "uint256"
						},
						{
							"indexed": false,
							"internalType": "string",
							"name": "reason",
							"type": "string"
						}
					],
					"name": "RefundFailed",
					"type": "event"
				},
				{
					"anonymous": false,
					"inputs": [
						{
							"indexed": true,
							"internalType": "address",
							"name": "owner",
							"type": "address"
						},
						{
							"indexed": false,
							"internalType": "uint256",
							"name": "amount",
							"type": "uint256"
						}
					],
					"name": "Withdrawal",
					"type": "event"
				},
				{
					"inputs": [
						{
							"internalType": "address[]",
							"name": "contributors",
							"type": "address[]"
						}
					],
					"name": "batchRefund",
					"outputs": [],
					"stateMutability": "nonpayable",
					"type": "function"
				},
				{
					"inputs": [],
					"name": "contribute",
					"outputs": [],
					"stateMutability": "payable",
					"type": "function"
				},
				{
					"inputs": [
						{
							"internalType": "address",
							"name": "",
							"type": "address"
						}
					],
					"name": "contributions",
					"outputs": [
						{
							"internalType": "uint256",
							"name": "",
							"type": "uint256"
						}
					],
					"stateMutability": "view",
					"type": "function"
				},
				{
					"inputs": [],
					"name": "deadline",
					"outputs": [
						{
							"internalType": "uint256",
							"name": "",
							"type": "uint256"
						}
					],
					"stateMutability": "view",
					"type": "function"
				},
				{
					"inputs": [],
					"name": "endCampaign",
					"outputs": [],
					"stateMutability": "nonpayable",
					"type": "function"
				},
				{
					"inputs": [],
					"name": "ended",
					"outputs": [
						{
							"internalType": "bool",
							"name": "",
							"type": "bool"
						}
					],
					"stateMutability": "view",
					"type": "function"
				},
				{
					"inputs": [],
					"name": "goal",
					"outputs": [
						{
							"internalType": "uint256",
							"name": "",
							"type": "uint256"
						}
					],
					"stateMutability": "view",
					"type": "function"
				},
				{
					"inputs": [],
					"name": "goalReached",
					"outputs": [
						{
							"internalType": "bool",
							"name": "",
							"type": "bool"
						}
					],
					"stateMutability": "view",
					"type": "function"
				},
				{
					"inputs": [],
					"name": "owner",
					"outputs": [
						{
							"internalType": "address",
							"name": "",
							"type": "address"
						}
					],
					"stateMutability": "view",
					"type": "function"
				},
				{
					"inputs": [],
					"name": "refund",
					"outputs": [],
					"stateMutability": "nonpayable",
					"type": "function"
				},
				{
					"inputs": [
						{
							"internalType": "address",
							"name": "",
							"type": "address"
						}
					],
					"name": "refunded",
					"outputs": [
						{
							"internalType": "bool",
							"name": "",
							"type": "bool"
						}
					],
					"stateMutability": "view",
					"type": "function"
				},
				{
					"inputs": [],
					"name": "timeLeft",
					"outputs": [
						{
							"internalType": "uint256",
							"name": "",
							"type": "uint256"
						}
					],
					"stateMutability": "view",
					"type": "function"
				},
				{
					"inputs": [],
					"name": "totalRaised",
					"outputs": [
						{
							"internalType": "uint256",
							"name": "",
							"type": "uint256"
						}
					],
					"stateMutability": "view",
					"type": "function"
				},
				{
					"inputs": [],
					"name": "withdraw",
					"outputs": [],
					"stateMutability": "nonpayable",
					"type": "function"
				}
			],
			"devdoc": {
				"kind": "dev",
				"methods": {},
				"version": 1
			},
			"evm": {
				"assembly": "    /* \"contracts/lesson7.2/Crowdfunding.sol\":58:5734  contract Crowdfunding {... */\n  mstore(0x40, 0x80)\n    /* \"contracts/lesson7.2/Crowdfunding.sol\":1527:1811  constructor(uint256 _goal, uint256 _duration) {... */\n  callvalue\n  dup1\n  iszero\n  tag_1\n  jumpi\n  revert(0x00, 0x00)\ntag_1:\n  pop\n  mload(0x40)\n  sub(codesize, bytecodeSize)\n  dup1\n  bytecodeSize\n  dup4\n  codecopy\n  dup2\n  dup2\n  add\n  0x40\n  mstore\n  dup2\n  add\n  swap1\n  tag_2\n  swap2\n  swap1\n  tag_3\n  jump\t// in\ntag_2:\n    /* \"contracts/lesson7.2/Crowdfunding.sol\":1599:1600  0 */\n  0x00\n    /* \"contracts/lesson7.2/Crowdfunding.sol\":1591:1596  _goal */\n  dup3\n    /* \"contracts/lesson7.2/Crowdfunding.sol\":1591:1600  _goal > 0 */\n  gt\n    /* \"contracts/lesson7.2/Crowdfunding.sol\":1583:1637  require(_goal > 0, unicode\"目标金额必须大于0\") */\n  tag_6\n  jumpi\n  mload(0x40)\n  0x08c379a000000000000000000000000000000000000000000000000000000000\n  dup2\n  mstore\n  0x04\n  add\n  tag_7\n  swap1\n  tag_8\n  jump\t// in\ntag_7:\n  mload(0x40)\n  dup1\n  swap2\n  sub\n  swap1\n  revert\ntag_6:\n    /* \"contracts/lesson7.2/Crowdfunding.sol\":1667:1668  0 */\n  0x00\n    /* \"contracts/lesson7.2/Crowdfunding.sol\":1655:1664  _duration */\n  dup2\n    /* \"contracts/lesson7.2/Crowdfunding.sol\":1655:1668  _duration > 0 */\n  gt\n    /* \"contracts/lesson7.2/Crowdfunding.sol\":1647:1705  require(_duration > 0, unicode\"持续时间必须大于0\") */\n  tag_9\n  jumpi\n  mload(0x40)\n  0x08c379a000000000000000000000000000000000000000000000000000000000\n  dup2\n  mstore\n  0x04\n  add\n  tag_10\n  swap1\n  tag_11\n  jump\t// in\ntag_10:\n  mload(0x40)\n  dup1\n  swap2\n  sub\n  swap1\n  revert\ntag_9:\n    /* \"contracts/lesson7.2/Crowdfunding.sol\":1724:1734  msg.sender */\n  caller\n    /* \"contracts/lesson7.2/Crowdfunding.sol\":1716:1721  owner */\n  0x00\n  0x00\n    /* \"contracts/lesson7.2/Crowdfunding.sol\":1716:1734  owner = msg.sender */\n  0x0100\n  exp\n  dup2\n  sload\n  dup2\n  0xffffffffffffffffffffffffffffffffffffffff\n  mul\n  not\n  and\n  swap1\n  dup4\n  0xffffffffffffffffffffffffffffffffffffffff\n  and\n  mul\n  or\n  swap1\n  sstore\n  pop\n    /* \"contracts/lesson7.2/Crowdfunding.sol\":1751:1756  _goal */\n  dup2\n    /* \"contracts/lesson7.2/Crowdfunding.sol\":1744:1748  goal */\n  0x01\n    /* \"contracts/lesson7.2/Crowdfunding.sol\":1744:1756  goal = _goal */\n  dup2\n  swap1\n  sstore\n  pop\n    /* \"contracts/lesson7.2/Crowdfunding.sol\":1795:1804  _duration */\n  dup1\n    /* \"contracts/lesson7.2/Crowdfunding.sol\":1777:1792  block.timestamp */\n  timestamp\n    /* \"contracts/lesson7.2/Crowdfunding.sol\":1777:1804  block.timestamp + _duration */\n  tag_12\n  swap2\n  swap1\n  tag_13\n  jump\t// in\ntag_12:\n    /* \"contracts/lesson7.2/Crowdfunding.sol\":1766:1774  deadline */\n  0x02\n    /* \"contracts/lesson7.2/Crowdfunding.sol\":1766:1804  deadline = block.timestamp + _duration */\n  dup2\n  swap1\n  sstore\n  pop\n    /* \"contracts/lesson7.2/Crowdfunding.sol\":1527:1811  constructor(uint256 _goal, uint256 _duration) {... */\n  pop\n  pop\n    /* \"contracts/lesson7.2/Crowdfunding.sol\":58:5734  contract Crowdfunding {... */\n  jump(tag_14)\n    /* \"#utility.yul\":88:205   */\ntag_16:\n    /* \"#utility.yul\":197:198   */\n  0x00\n    /* \"#utility.yul\":194:195   */\n  0x00\n    /* \"#utility.yul\":187:199   */\n  revert\n    /* \"#utility.yul\":334:411   */\ntag_18:\n    /* \"#utility.yul\":371:378   */\n  0x00\n    /* \"#utility.yul\":400:405   */\n  dup2\n    /* \"#utility.yul\":389:405   */\n  swap1\n  pop\n    /* \"#utility.yul\":334:411   */\n  swap2\n  swap1\n  pop\n  jump\t// out\n    /* \"#utility.yul\":417:539   */\ntag_19:\n    /* \"#utility.yul\":490:514   */\n  tag_33\n    /* \"#utility.yul\":508:513   */\n  dup2\n    /* \"#utility.yul\":490:514   */\n  tag_18\n  jump\t// in\ntag_33:\n    /* \"#utility.yul\":483:488   */\n  dup2\n    /* \"#utility.yul\":480:515   */\n  eq\n    /* \"#utility.yul\":470:533   */\n  tag_34\n  jumpi\n    /* \"#utility.yul\":529:530   */\n  0x00\n    /* \"#utility.yul\":526:527   */\n  0x00\n    /* \"#utility.yul\":519:531   */\n  revert\n    /* \"#utility.yul\":470:533   */\ntag_34:\n    /* \"#utility.yul\":417:539   */\n  pop\n  jump\t// out\n    /* \"#utility.yul\":545:688   */\ntag_20:\n    /* \"#utility.yul\":602:607   */\n  0x00\n    /* \"#utility.yul\":633:639   */\n  dup2\n    /* \"#utility.yul\":627:640   */\n  mload\n    /* \"#utility.yul\":618:640   */\n  swap1\n  pop\n    /* \"#utility.yul\":649:682   */\n  tag_36\n    /* \"#utility.yul\":676:681   */\n  dup2\n    /* \"#utility.yul\":649:682   */\n  tag_19\n  jump\t// in\ntag_36:\n    /* \"#utility.yul\":545:688   */\n  swap3\n  swap2\n  pop\n  pop\n  jump\t// out\n    /* \"#utility.yul\":694:1201   */\ntag_3:\n    /* \"#utility.yul\":773:779   */\n  0x00\n    /* \"#utility.yul\":781:787   */\n  0x00\n    /* \"#utility.yul\":830:832   */\n  0x40\n    /* \"#utility.yul\":818:827   */\n  dup4\n    /* \"#utility.yul\":809:816   */\n  dup6\n    /* \"#utility.yul\":805:828   */\n  sub\n    /* \"#utility.yul\":801:833   */\n  slt\n    /* \"#utility.yul\":798:917   */\n  iszero\n  tag_38\n  jumpi\n    /* \"#utility.yul\":836:915   */\n  tag_39\n  tag_16\n  jump\t// in\ntag_39:\n    /* \"#utility.yul\":798:917   */\ntag_38:\n    /* \"#utility.yul\":956:957   */\n  0x00\n    /* \"#utility.yul\":981:1045   */\n  tag_40\n    /* \"#utility.yul\":1037:1044   */\n  dup6\n    /* \"#utility.yul\":1028:1034   */\n  dup3\n    /* \"#utility.yul\":1017:1026   */\n  dup7\n    /* \"#utility.yul\":1013:1035   */\n  add\n    /* \"#utility.yul\":981:1045   */\n  tag_20\n  jump\t// in\ntag_40:\n    /* \"#utility.yul\":971:1045   */\n  swap3\n  pop\n    /* \"#utility.yul\":927:1055   */\n  pop\n    /* \"#utility.yul\":1094:1096   */\n  0x20\n    /* \"#utility.yul\":1120:1184   */\n  tag_41\n    /* \"#utility.yul\":1176:1183   */\n  dup6\n    /* \"#utility.yul\":1167:1173   */\n  dup3\n    /* \"#utility.yul\":1156:1165   */\n  dup7\n    /* \"#utility.yul\":1152:1174   */\n  add\n    /* \"#utility.yul\":1120:1184   */\n  tag_20\n  jump\t// in\ntag_41:\n    /* \"#utility.yul\":1110:1184   */\n  swap2\n  pop\n    /* \"#utility.yul\":1065:1194   */\n  pop\n    /* \"#utility.yul\":694:1201   */\n  swap3\n  pop\n  swap3\n  swap1\n  pop\n  jump\t// out\n    /* \"#utility.yul\":1207:1376   */\ntag_21:\n    /* \"#utility.yul\":1291:1302   */\n  0x00\n    /* \"#utility.yul\":1325:1331   */\n  dup3\n    /* \"#utility.yul\":1320:1323   */\n  dup3\n    /* \"#utility.yul\":1313:1332   */\n  mstore\n    /* \"#utility.yul\":1365:1369   */\n  0x20\n    /* \"#utility.yul\":1360:1363   */\n  dup3\n    /* \"#utility.yul\":1356:1370   */\n  add\n    /* \"#utility.yul\":1341:1370   */\n  swap1\n  pop\n    /* \"#utility.yul\":1207:1376   */\n  swap3\n  swap2\n  pop\n  pop\n  jump\t// out\n    /* \"#utility.yul\":1382:1596   */\ntag_22:\n    /* \"#utility.yul\":1522:1588   */\n  0xe79baee6a087e98791e9a29de5bf85e9a1bbe5a4a7e4ba8e3000000000000000\n    /* \"#utility.yul\":1518:1519   */\n  0x00\n    /* \"#utility.yul\":1510:1516   */\n  dup3\n    /* \"#utility.yul\":1506:1520   */\n  add\n    /* \"#utility.yul\":1499:1589   */\n  mstore\n    /* \"#utility.yul\":1382:1596   */\n  pop\n  jump\t// out\n    /* \"#utility.yul\":1602:1968   */\ntag_23:\n    /* \"#utility.yul\":1744:1747   */\n  0x00\n    /* \"#utility.yul\":1765:1832   */\n  tag_45\n    /* \"#utility.yul\":1829:1831   */\n  0x19\n    /* \"#utility.yul\":1824:1827   */\n  dup4\n    /* \"#utility.yul\":1765:1832   */\n  tag_21\n  jump\t// in\ntag_45:\n    /* \"#utility.yul\":1758:1832   */\n  swap2\n  pop\n    /* \"#utility.yul\":1841:1934   */\n  tag_46\n    /* \"#utility.yul\":1930:1933   */\n  dup3\n    /* \"#utility.yul\":1841:1934   */\n  tag_22\n  jump\t// in\ntag_46:\n    /* \"#utility.yul\":1959:1961   */\n  0x20\n    /* \"#utility.yul\":1954:1957   */\n  dup3\n    /* \"#utility.yul\":1950:1962   */\n  add\n    /* \"#utility.yul\":1943:1962   */\n  swap1\n  pop\n    /* \"#utility.yul\":1602:1968   */\n  swap2\n  swap1\n  pop\n  jump\t// out\n    /* \"#utility.yul\":1974:2393   */\ntag_8:\n    /* \"#utility.yul\":2140:2144   */\n  0x00\n    /* \"#utility.yul\":2178:2180   */\n  0x20\n    /* \"#utility.yul\":2167:2176   */\n  dup3\n    /* \"#utility.yul\":2163:2181   */\n  add\n    /* \"#utility.yul\":2155:2181   */\n  swap1\n  pop\n    /* \"#utility.yul\":2227:2236   */\n  dup2\n    /* \"#utility.yul\":2221:2225   */\n  dup2\n    /* \"#utility.yul\":2217:2237   */\n  sub\n    /* \"#utility.yul\":2213:2214   */\n  0x00\n    /* \"#utility.yul\":2202:2211   */\n  dup4\n    /* \"#utility.yul\":2198:2215   */\n  add\n    /* \"#utility.yul\":2191:2238   */\n  mstore\n    /* \"#utility.yul\":2255:2386   */\n  tag_48\n    /* \"#utility.yul\":2381:2385   */\n  dup2\n    /* \"#utility.yul\":2255:2386   */\n  tag_23\n  jump\t// in\ntag_48:\n    /* \"#utility.yul\":2247:2386   */\n  swap1\n  pop\n    /* \"#utility.yul\":1974:2393   */\n  swap2\n  swap1\n  pop\n  jump\t// out\n    /* \"#utility.yul\":2399:2613   */\ntag_24:\n    /* \"#utility.yul\":2539:2605   */\n  0xe68c81e7bbade697b6e997b4e5bf85e9a1bbe5a4a7e4ba8e3000000000000000\n    /* \"#utility.yul\":2535:2536   */\n  0x00\n    /* \"#utility.yul\":2527:2533   */\n  dup3\n    /* \"#utility.yul\":2523:2537   */\n  add\n    /* \"#utility.yul\":2516:2606   */\n  mstore\n    /* \"#utility.yul\":2399:2613   */\n  pop\n  jump\t// out\n    /* \"#utility.yul\":2619:2985   */\ntag_25:\n    /* \"#utility.yul\":2761:2764   */\n  0x00\n    /* \"#utility.yul\":2782:2849   */\n  tag_51\n    /* \"#utility.yul\":2846:2848   */\n  0x19\n    /* \"#utility.yul\":2841:2844   */\n  dup4\n    /* \"#utility.yul\":2782:2849   */\n  tag_21\n  jump\t// in\ntag_51:\n    /* \"#utility.yul\":2775:2849   */\n  swap2\n  pop\n    /* \"#utility.yul\":2858:2951   */\n  tag_52\n    /* \"#utility.yul\":2947:2950   */\n  dup3\n    /* \"#utility.yul\":2858:2951   */\n  tag_24\n  jump\t// in\ntag_52:\n    /* \"#utility.yul\":2976:2978   */\n  0x20\n    /* \"#utility.yul\":2971:2974   */\n  dup3\n    /* \"#utility.yul\":2967:2979   */\n  add\n    /* \"#utility.yul\":2960:2979   */\n  swap1\n  pop\n    /* \"#utility.yul\":2619:2985   */\n  swap2\n  swap1\n  pop\n  jump\t// out\n    /* \"#utility.yul\":2991:3410   */\ntag_11:\n    /* \"#utility.yul\":3157:3161   */\n  0x00\n    /* \"#utility.yul\":3195:3197   */\n  0x20\n    /* \"#utility.yul\":3184:3193   */\n  dup3\n    /* \"#utility.yul\":3180:3198   */\n  add\n    /* \"#utility.yul\":3172:3198   */\n  swap1\n  pop\n    /* \"#utility.yul\":3244:3253   */\n  dup2\n    /* \"#utility.yul\":3238:3242   */\n  dup2\n    /* \"#utility.yul\":3234:3254   */\n  sub\n    /* \"#utility.yul\":3230:3231   */\n  0x00\n    /* \"#utility.yul\":3219:3228   */\n  dup4\n    /* \"#utility.yul\":3215:3232   */\n  add\n    /* \"#utility.yul\":3208:3255   */\n  mstore\n    /* \"#utility.yul\":3272:3403   */\n  tag_54\n    /* \"#utility.yul\":3398:3402   */\n  dup2\n    /* \"#utility.yul\":3272:3403   */\n  tag_25\n  jump\t// in\ntag_54:\n    /* \"#utility.yul\":3264:3403   */\n  swap1\n  pop\n    /* \"#utility.yul\":2991:3410   */\n  swap2\n  swap1\n  pop\n  jump\t// out\n    /* \"#utility.yul\":3416:3596   */\ntag_26:\n    /* \"#utility.yul\":3464:3541   */\n  0x4e487b7100000000000000000000000000000000000000000000000000000000\n    /* \"#utility.yul\":3461:3462   */\n  0x00\n    /* \"#utility.yul\":3454:3542   */\n  mstore\n    /* \"#utility.yul\":3561:3565   */\n  0x11\n    /* \"#utility.yul\":3558:3559   */\n  0x04\n    /* \"#utility.yul\":3551:3566   */\n  mstore\n    /* \"#utility.yul\":3585:3589   */\n  0x24\n    /* \"#utility.yul\":3582:3583   */\n  0x00\n    /* \"#utility.yul\":3575:3590   */\n  revert\n    /* \"#utility.yul\":3602:3793   */\ntag_13:\n    /* \"#utility.yul\":3642:3645   */\n  0x00\n    /* \"#utility.yul\":3661:3681   */\n  tag_57\n    /* \"#utility.yul\":3679:3680   */\n  dup3\n    /* \"#utility.yul\":3661:3681   */\n  tag_18\n  jump\t// in\ntag_57:\n    /* \"#utility.yul\":3656:3681   */\n  swap2\n  pop\n    /* \"#utility.yul\":3695:3715   */\n  tag_58\n    /* \"#utility.yul\":3713:3714   */\n  dup4\n    /* \"#utility.yul\":3695:3715   */\n  tag_18\n  jump\t// in\ntag_58:\n    /* \"#utility.yul\":3690:3715   */\n  swap3\n  pop\n    /* \"#utility.yul\":3738:3739   */\n  dup3\n    /* \"#utility.yul\":3735:3736   */\n  dup3\n    /* \"#utility.yul\":3731:3740   */\n  add\n    /* \"#utility.yul\":3724:3740   */\n  swap1\n  pop\n    /* \"#utility.yul\":3759:3762   */\n  dup1\n    /* \"#utility.yul\":3756:3757   */\n  dup3\n    /* \"#utility.yul\":3753:3763   */\n  gt\n    /* \"#utility.yul\":3750:3786   */\n  iszero\n  tag_59\n  jumpi\n    /* \"#utility.yul\":3766:3784   */\n  tag_60\n  tag_26\n  jump\t// in\ntag_60:\n    /* \"#utility.yul\":3750:3786   */\ntag_59:\n    /* \"#utility.yul\":3602:3793   */\n  swap3\n  swap2\n  pop\n  pop\n  jump\t// out\n    /* \"contracts/lesson7.2/Crowdfunding.sol\":58:5734  contract Crowdfunding {... */\ntag_14:\n  dataSize(sub_0)\n  dup1\n  dataOffset(sub_0)\n  0x00\n  codecopy\n  0x00\n  return\nstop\n\nsub_0: assembly {\n        /* \"contracts/lesson7.2/Crowdfunding.sol\":58:5734  contract Crowdfunding {... */\n      mstore(0x40, 0x80)\n      jumpi(tag_1, lt(calldatasize, 0x04))\n      shr(0xe0, calldataload(0x00))\n      dup1\n      0x71aac7f9\n      gt\n      tag_16\n      jumpi\n      dup1\n      0xc033a490\n      gt\n      tag_17\n      jumpi\n      dup1\n      0xc033a490\n      eq\n      tag_12\n      jumpi\n      dup1\n      0xc5c4744c\n      eq\n      tag_13\n      jumpi\n      dup1\n      0xd7bb99ba\n      eq\n      tag_14\n      jumpi\n      dup1\n      0xfff96005\n      eq\n      tag_15\n      jumpi\n      jump(tag_1)\n    tag_17:\n      dup1\n      0x71aac7f9\n      eq\n      tag_9\n      jumpi\n      dup1\n      0x7d3d6522\n      eq\n      tag_10\n      jumpi\n      dup1\n      0x8da5cb5b\n      eq\n      tag_11\n      jumpi\n      jump(tag_1)\n    tag_16:\n      dup1\n      0x3ccfd60b\n      gt\n      tag_18\n      jumpi\n      dup1\n      0x3ccfd60b\n      eq\n      tag_5\n      jumpi\n      dup1\n      0x40193883\n      eq\n      tag_6\n      jumpi\n      dup1\n      0x42e94c90\n      eq\n      tag_7\n      jumpi\n      dup1\n      0x590e1ae3\n      eq\n      tag_8\n      jumpi\n      jump(tag_1)\n    tag_18:\n      dup1\n      0x12fa6feb\n      eq\n      tag_2\n      jumpi\n      dup1\n      0x1300a6d1\n      eq\n      tag_3\n      jumpi\n      dup1\n      0x29dcb0cf\n      eq\n      tag_4\n      jumpi\n    tag_1:\n      revert(0x00, 0x00)\n        /* \"contracts/lesson7.2/Crowdfunding.sol\":609:626  bool public ended */\n    tag_2:\n      callvalue\n      dup1\n      iszero\n      tag_19\n      jumpi\n      revert(0x00, 0x00)\n    tag_19:\n      pop\n      tag_20\n      tag_21\n      jump\t// in\n    tag_20:\n      mload(0x40)\n      tag_22\n      swap2\n      swap1\n      tag_23\n      jump\t// in\n    tag_22:\n      mload(0x40)\n      dup1\n      swap2\n      sub\n      swap1\n      return\n        /* \"contracts/lesson7.2/Crowdfunding.sol\":5557:5732  function timeLeft() public view returns (uint256) {... */\n    tag_3:\n      callvalue\n      dup1\n      iszero\n      tag_24\n      jumpi\n      revert(0x00, 0x00)\n    tag_24:\n      pop\n      tag_25\n      tag_26\n      jump\t// in\n    tag_25:\n      mload(0x40)\n      tag_27\n      swap2\n      swap1\n      tag_28\n      jump\t// in\n    tag_27:\n      mload(0x40)\n      dup1\n      swap2\n      sub\n      swap1\n      return\n        /* \"contracts/lesson7.2/Crowdfunding.sol\":548:571  uint256 public deadline */\n    tag_4:\n      callvalue\n      dup1\n      iszero\n      tag_29\n      jumpi\n      revert(0x00, 0x00)\n    tag_29:\n      pop\n      tag_30\n      tag_31\n      jump\t// in\n    tag_30:\n      mload(0x40)\n      tag_32\n      swap2\n      swap1\n      tag_28\n      jump\t// in\n    tag_32:\n      mload(0x40)\n      dup1\n      swap2\n      sub\n      swap1\n      return\n        /* \"contracts/lesson7.2/Crowdfunding.sol\":2874:3475  function withdraw() public onlyOwner {... */\n    tag_5:\n      callvalue\n      dup1\n      iszero\n      tag_33\n      jumpi\n      revert(0x00, 0x00)\n    tag_33:\n      pop\n      tag_34\n      tag_35\n      jump\t// in\n    tag_34:\n      stop\n        /* \"contracts/lesson7.2/Crowdfunding.sol\":523:542  uint256 public goal */\n    tag_6:\n      callvalue\n      dup1\n      iszero\n      tag_36\n      jumpi\n      revert(0x00, 0x00)\n    tag_36:\n      pop\n      tag_37\n      tag_38\n      jump\t// in\n    tag_37:\n      mload(0x40)\n      tag_39\n      swap2\n      swap1\n      tag_28\n      jump\t// in\n    tag_39:\n      mload(0x40)\n      dup1\n      swap2\n      sub\n      swap1\n      return\n        /* \"contracts/lesson7.2/Crowdfunding.sol\":662:710  mapping(address => uint256) public contributions */\n    tag_7:\n      callvalue\n      dup1\n      iszero\n      tag_40\n      jumpi\n      revert(0x00, 0x00)\n    tag_40:\n      pop\n      tag_41\n      0x04\n      dup1\n      calldatasize\n      sub\n      dup2\n      add\n      swap1\n      tag_42\n      swap2\n      swap1\n      tag_43\n      jump\t// in\n    tag_42:\n      tag_44\n      jump\t// in\n    tag_41:\n      mload(0x40)\n      tag_45\n      swap2\n      swap1\n      tag_28\n      jump\t// in\n    tag_45:\n      mload(0x40)\n      dup1\n      swap2\n      sub\n      swap1\n      return\n        /* \"contracts/lesson7.2/Crowdfunding.sol\":3543:4306  function refund() public {... */\n    tag_8:\n      callvalue\n      dup1\n      iszero\n      tag_46\n      jumpi\n      revert(0x00, 0x00)\n    tag_46:\n      pop\n      tag_47\n      tag_48\n      jump\t// in\n    tag_47:\n      stop\n        /* \"contracts/lesson7.2/Crowdfunding.sol\":2497:2788  function endCampaign() public {... */\n    tag_9:\n      callvalue\n      dup1\n      iszero\n      tag_49\n      jumpi\n      revert(0x00, 0x00)\n    tag_49:\n      pop\n      tag_50\n      tag_51\n      jump\t// in\n    tag_50:\n      stop\n        /* \"contracts/lesson7.2/Crowdfunding.sol\":632:655  bool public goalReached */\n    tag_10:\n      callvalue\n      dup1\n      iszero\n      tag_52\n      jumpi\n      revert(0x00, 0x00)\n    tag_52:\n      pop\n      tag_53\n      tag_54\n      jump\t// in\n    tag_53:\n      mload(0x40)\n      tag_55\n      swap2\n      swap1\n      tag_23\n      jump\t// in\n    tag_55:\n      mload(0x40)\n      dup1\n      swap2\n      sub\n      swap1\n      return\n        /* \"contracts/lesson7.2/Crowdfunding.sol\":497:517  address public owner */\n    tag_11:\n      callvalue\n      dup1\n      iszero\n      tag_56\n      jumpi\n      revert(0x00, 0x00)\n    tag_56:\n      pop\n      tag_57\n      tag_58\n      jump\t// in\n    tag_57:\n      mload(0x40)\n      tag_59\n      swap2\n      swap1\n      tag_60\n      jump\t// in\n    tag_59:\n      mload(0x40)\n      dup1\n      swap2\n      sub\n      swap1\n      return\n        /* \"contracts/lesson7.2/Crowdfunding.sol\":716:756  mapping(address => bool) public refunded */\n    tag_12:\n      callvalue\n      dup1\n      iszero\n      tag_61\n      jumpi\n      revert(0x00, 0x00)\n    tag_61:\n      pop\n      tag_62\n      0x04\n      dup1\n      calldatasize\n      sub\n      dup2\n      add\n      swap1\n      tag_63\n      swap2\n      swap1\n      tag_43\n      jump\t// in\n    tag_63:\n      tag_64\n      jump\t// in\n    tag_62:\n      mload(0x40)\n      tag_65\n      swap2\n      swap1\n      tag_23\n      jump\t// in\n    tag_65:\n      mload(0x40)\n      dup1\n      swap2\n      sub\n      swap1\n      return\n        /* \"contracts/lesson7.2/Crowdfunding.sol\":577:603  uint256 public totalRaised */\n    tag_13:\n      callvalue\n      dup1\n      iszero\n      tag_66\n      jumpi\n      revert(0x00, 0x00)\n    tag_66:\n      pop\n      tag_67\n      tag_68\n      jump\t// in\n    tag_67:\n      mload(0x40)\n      tag_69\n      swap2\n      swap1\n      tag_28\n      jump\t// in\n    tag_69:\n      mload(0x40)\n      dup1\n      swap2\n      sub\n      swap1\n      return\n        /* \"contracts/lesson7.2/Crowdfunding.sol\":1908:2447  function contribute() public payable campaignActive {... */\n    tag_14:\n      tag_70\n      tag_71\n      jump\t// in\n    tag_70:\n      stop\n        /* \"contracts/lesson7.2/Crowdfunding.sol\":4395:5501  function batchRefund(address[] memory contributors) public onlyOwner {... */\n    tag_15:\n      callvalue\n      dup1\n      iszero\n      tag_72\n      jumpi\n      revert(0x00, 0x00)\n    tag_72:\n      pop\n      tag_73\n      0x04\n      dup1\n      calldatasize\n      sub\n      dup2\n      add\n      swap1\n      tag_74\n      swap2\n      swap1\n      tag_75\n      jump\t// in\n    tag_74:\n      tag_76\n      jump\t// in\n    tag_73:\n      stop\n        /* \"contracts/lesson7.2/Crowdfunding.sol\":609:626  bool public ended */\n    tag_21:\n      0x04\n      0x00\n      swap1\n      sload\n      swap1\n      0x0100\n      exp\n      swap1\n      div\n      0xff\n      and\n      dup2\n      jump\t// out\n        /* \"contracts/lesson7.2/Crowdfunding.sol\":5557:5732  function timeLeft() public view returns (uint256) {... */\n    tag_26:\n        /* \"contracts/lesson7.2/Crowdfunding.sol\":5598:5605  uint256 */\n      0x00\n        /* \"contracts/lesson7.2/Crowdfunding.sol\":5640:5648  deadline */\n      sload(0x02)\n        /* \"contracts/lesson7.2/Crowdfunding.sol\":5621:5636  block.timestamp */\n      timestamp\n        /* \"contracts/lesson7.2/Crowdfunding.sol\":5621:5648  block.timestamp >= deadline */\n      lt\n        /* \"contracts/lesson7.2/Crowdfunding.sol\":5617:5683  if (block.timestamp >= deadline) {... */\n      tag_78\n      jumpi\n        /* \"contracts/lesson7.2/Crowdfunding.sol\":5671:5672  0 */\n      0x00\n        /* \"contracts/lesson7.2/Crowdfunding.sol\":5664:5672  return 0 */\n      swap1\n      pop\n      jump(tag_77)\n        /* \"contracts/lesson7.2/Crowdfunding.sol\":5617:5683  if (block.timestamp >= deadline) {... */\n    tag_78:\n        /* \"contracts/lesson7.2/Crowdfunding.sol\":5710:5725  block.timestamp */\n      timestamp\n        /* \"contracts/lesson7.2/Crowdfunding.sol\":5699:5707  deadline */\n      sload(0x02)\n        /* \"contracts/lesson7.2/Crowdfunding.sol\":5699:5725  deadline - block.timestamp */\n      tag_79\n      swap2\n      swap1\n      tag_80\n      jump\t// in\n    tag_79:\n        /* \"contracts/lesson7.2/Crowdfunding.sol\":5692:5725  return deadline - block.timestamp */\n      swap1\n      pop\n        /* \"contracts/lesson7.2/Crowdfunding.sol\":5557:5732  function timeLeft() public view returns (uint256) {... */\n    tag_77:\n      swap1\n      jump\t// out\n        /* \"contracts/lesson7.2/Crowdfunding.sol\":548:571  uint256 public deadline */\n    tag_31:\n      sload(0x02)\n      dup2\n      jump\t// out\n        /* \"contracts/lesson7.2/Crowdfunding.sol\":2874:3475  function withdraw() public onlyOwner {... */\n    tag_35:\n        /* \"contracts/lesson7.2/Crowdfunding.sol\":1249:1254  owner */\n      0x00\n      0x00\n      swap1\n      sload\n      swap1\n      0x0100\n      exp\n      swap1\n      div\n      0xffffffffffffffffffffffffffffffffffffffff\n      and\n        /* \"contracts/lesson7.2/Crowdfunding.sol\":1235:1254  msg.sender != owner */\n      0xffffffffffffffffffffffffffffffffffffffff\n      and\n        /* \"contracts/lesson7.2/Crowdfunding.sol\":1235:1245  msg.sender */\n      caller\n        /* \"contracts/lesson7.2/Crowdfunding.sol\":1235:1254  msg.sender != owner */\n      0xffffffffffffffffffffffffffffffffffffffff\n      and\n      eq\n        /* \"contracts/lesson7.2/Crowdfunding.sol\":1231:1287  if (msg.sender != owner) revert Unauthorized(msg.sender) */\n      tag_82\n      jumpi\n        /* \"contracts/lesson7.2/Crowdfunding.sol\":1276:1286  msg.sender */\n      caller\n        /* \"contracts/lesson7.2/Crowdfunding.sol\":1263:1287  Unauthorized(msg.sender) */\n      mload(0x40)\n      0x8e4a23d600000000000000000000000000000000000000000000000000000000\n      dup2\n      mstore\n      0x04\n      add\n      tag_83\n      swap2\n      swap1\n      tag_60\n      jump\t// in\n    tag_83:\n      mload(0x40)\n      dup1\n      swap2\n      sub\n      swap1\n      revert\n        /* \"contracts/lesson7.2/Crowdfunding.sol\":1231:1287  if (msg.sender != owner) revert Unauthorized(msg.sender) */\n    tag_82:\n        /* \"contracts/lesson7.2/Crowdfunding.sol\":2950:2955  ended */\n      0x04\n      0x00\n      swap1\n      sload\n      swap1\n      0x0100\n      exp\n      swap1\n      div\n      0xff\n      and\n        /* \"contracts/lesson7.2/Crowdfunding.sol\":2942:2985  require(ended, unicode\"众筹尚未结束\") */\n      tag_85\n      jumpi\n      mload(0x40)\n      0x08c379a000000000000000000000000000000000000000000000000000000000\n      dup2\n      mstore\n      0x04\n      add\n      tag_86\n      swap1\n      tag_87\n      jump\t// in\n    tag_86:\n      mload(0x40)\n      dup1\n      swap2\n      sub\n      swap1\n      revert\n    tag_85:\n        /* \"contracts/lesson7.2/Crowdfunding.sol\":3000:3011  goalReached */\n      0x04\n      0x01\n      swap1\n      sload\n      swap1\n      0x0100\n      exp\n      swap1\n      div\n      0xff\n      and\n        /* \"contracts/lesson7.2/Crowdfunding.sol\":2995:3053  if (!goalReached) revert GoalNotReached(totalRaised, goal) */\n      tag_88\n      jumpi\n        /* \"contracts/lesson7.2/Crowdfunding.sol\":3035:3046  totalRaised */\n      sload(0x03)\n        /* \"contracts/lesson7.2/Crowdfunding.sol\":3048:3052  goal */\n      sload(0x01)\n        /* \"contracts/lesson7.2/Crowdfunding.sol\":3020:3053  GoalNotReached(totalRaised, goal) */\n      mload(0x40)\n      0x29f0233400000000000000000000000000000000000000000000000000000000\n      dup2\n      mstore\n      0x04\n      add\n      tag_89\n      swap3\n      swap2\n      swap1\n      tag_90\n      jump\t// in\n    tag_89:\n      mload(0x40)\n      dup1\n      swap2\n      sub\n      swap1\n      revert\n        /* \"contracts/lesson7.2/Crowdfunding.sol\":2995:3053  if (!goalReached) revert GoalNotReached(totalRaised, goal) */\n    tag_88:\n        /* \"contracts/lesson7.2/Crowdfunding.sol\":3064:3078  uint256 amount */\n      0x00\n        /* \"contracts/lesson7.2/Crowdfunding.sol\":3081:3102  address(this).balance */\n      selfbalance\n        /* \"contracts/lesson7.2/Crowdfunding.sol\":3064:3102  uint256 amount = address(this).balance */\n      swap1\n      pop\n        /* \"contracts/lesson7.2/Crowdfunding.sol\":3129:3130  0 */\n      0x00\n        /* \"contracts/lesson7.2/Crowdfunding.sol\":3120:3126  amount */\n      dup2\n        /* \"contracts/lesson7.2/Crowdfunding.sol\":3120:3130  amount > 0 */\n      gt\n        /* \"contracts/lesson7.2/Crowdfunding.sol\":3112:3166  require(amount > 0, unicode\"没有可提取的资金\") */\n      tag_91\n      jumpi\n      mload(0x40)\n      0x08c379a000000000000000000000000000000000000000000000000000000000\n      dup2\n      mstore\n      0x04\n      add\n      tag_92\n      swap1\n      tag_93\n      jump\t// in\n    tag_92:\n      mload(0x40)\n      dup1\n      swap2\n      sub\n      swap1\n      revert\n    tag_91:\n        /* \"contracts/lesson7.2/Crowdfunding.sol\":3331:3343  bool success */\n      0x00\n        /* \"contracts/lesson7.2/Crowdfunding.sol\":3349:3354  owner */\n      0x00\n      0x00\n      swap1\n      sload\n      swap1\n      0x0100\n      exp\n      swap1\n      div\n      0xffffffffffffffffffffffffffffffffffffffff\n      and\n        /* \"contracts/lesson7.2/Crowdfunding.sol\":3349:3359  owner.call */\n      0xffffffffffffffffffffffffffffffffffffffff\n      and\n        /* \"contracts/lesson7.2/Crowdfunding.sol\":3367:3373  amount */\n      dup3\n        /* \"contracts/lesson7.2/Crowdfunding.sol\":3349:3378  owner.call{value: amount}(\"\") */\n      mload(0x40)\n      tag_94\n      swap1\n      tag_95\n      jump\t// in\n    tag_94:\n      0x00\n      mload(0x40)\n      dup1\n      dup4\n      sub\n      dup2\n      dup6\n      dup8\n      gas\n      call\n      swap3\n      pop\n      pop\n      pop\n      returndatasize\n      dup1\n      0x00\n      dup2\n      eq\n      tag_98\n      jumpi\n      mload(0x40)\n      swap2\n      pop\n      and(add(returndatasize, 0x3f), not(0x1f))\n      dup3\n      add\n      0x40\n      mstore\n      returndatasize\n      dup3\n      mstore\n      returndatasize\n      0x00\n      0x20\n      dup5\n      add\n      returndatacopy\n      jump(tag_97)\n    tag_98:\n      0x60\n      swap2\n      pop\n    tag_97:\n      pop\n        /* \"contracts/lesson7.2/Crowdfunding.sol\":3330:3378  (bool success, ) = owner.call{value: amount}(\"\") */\n      pop\n      swap1\n      pop\n        /* \"contracts/lesson7.2/Crowdfunding.sol\":3393:3400  success */\n      dup1\n        /* \"contracts/lesson7.2/Crowdfunding.sol\":3388:3427  if (!success) revert WithdrawalFailed() */\n      tag_99\n      jumpi\n        /* \"contracts/lesson7.2/Crowdfunding.sol\":3409:3427  WithdrawalFailed() */\n      mload(0x40)\n      0x27fcd9d100000000000000000000000000000000000000000000000000000000\n      dup2\n      mstore\n      0x04\n      add\n      mload(0x40)\n      dup1\n      swap2\n      sub\n      swap1\n      revert\n        /* \"contracts/lesson7.2/Crowdfunding.sol\":3388:3427  if (!success) revert WithdrawalFailed() */\n    tag_99:\n        /* \"contracts/lesson7.2/Crowdfunding.sol\":3454:3459  owner */\n      0x00\n      0x00\n      swap1\n      sload\n      swap1\n      0x0100\n      exp\n      swap1\n      div\n      0xffffffffffffffffffffffffffffffffffffffff\n      and\n        /* \"contracts/lesson7.2/Crowdfunding.sol\":3443:3468  Withdrawal(owner, amount) */\n      0xffffffffffffffffffffffffffffffffffffffff\n      and\n      0x7fcf532c15f0a6db0bd6d0e038bea71d30d808c7d98cb3bf7268a95bf5081b65\n        /* \"contracts/lesson7.2/Crowdfunding.sol\":3461:3467  amount */\n      dup4\n        /* \"contracts/lesson7.2/Crowdfunding.sol\":3443:3468  Withdrawal(owner, amount) */\n      mload(0x40)\n      tag_100\n      swap2\n      swap1\n      tag_28\n      jump\t// in\n    tag_100:\n      mload(0x40)\n      dup1\n      swap2\n      sub\n      swap1\n      log2\n        /* \"contracts/lesson7.2/Crowdfunding.sol\":2911:3475  {... */\n      pop\n      pop\n        /* \"contracts/lesson7.2/Crowdfunding.sol\":2874:3475  function withdraw() public onlyOwner {... */\n      jump\t// out\n        /* \"contracts/lesson7.2/Crowdfunding.sol\":523:542  uint256 public goal */\n    tag_38:\n      sload(0x01)\n      dup2\n      jump\t// out\n        /* \"contracts/lesson7.2/Crowdfunding.sol\":662:710  mapping(address => uint256) public contributions */\n    tag_44:\n      mstore(0x20, 0x05)\n      dup1\n      0x00\n      mstore\n      keccak256(0x00, 0x40)\n      0x00\n      swap2\n      pop\n      swap1\n      pop\n      sload\n      dup2\n      jump\t// out\n        /* \"contracts/lesson7.2/Crowdfunding.sol\":3543:4306  function refund() public {... */\n    tag_48:\n        /* \"contracts/lesson7.2/Crowdfunding.sol\":3607:3612  ended */\n      0x04\n      0x00\n      swap1\n      sload\n      swap1\n      0x0100\n      exp\n      swap1\n      div\n      0xff\n      and\n        /* \"contracts/lesson7.2/Crowdfunding.sol\":3599:3642  require(ended, unicode\"众筹尚未结束\") */\n      tag_102\n      jumpi\n      mload(0x40)\n      0x08c379a000000000000000000000000000000000000000000000000000000000\n      dup2\n      mstore\n      0x04\n      add\n      tag_103\n      swap1\n      tag_87\n      jump\t// in\n    tag_103:\n      mload(0x40)\n      dup1\n      swap2\n      sub\n      swap1\n      revert\n    tag_102:\n        /* \"contracts/lesson7.2/Crowdfunding.sol\":3656:3667  goalReached */\n      0x04\n      0x01\n      swap1\n      sload\n      swap1\n      0x0100\n      exp\n      swap1\n      div\n      0xff\n      and\n        /* \"contracts/lesson7.2/Crowdfunding.sol\":3652:3696  if (goalReached) revert GoalAlreadyReached() */\n      iszero\n      tag_104\n      jumpi\n        /* \"contracts/lesson7.2/Crowdfunding.sol\":3676:3696  GoalAlreadyReached() */\n      mload(0x40)\n      0x8cb8251e00000000000000000000000000000000000000000000000000000000\n      dup2\n      mstore\n      0x04\n      add\n      mload(0x40)\n      dup1\n      swap2\n      sub\n      swap1\n      revert\n        /* \"contracts/lesson7.2/Crowdfunding.sol\":3652:3696  if (goalReached) revert GoalAlreadyReached() */\n    tag_104:\n        /* \"contracts/lesson7.2/Crowdfunding.sol\":3707:3721  uint256 amount */\n      0x00\n        /* \"contracts/lesson7.2/Crowdfunding.sol\":3724:3737  contributions */\n      0x05\n        /* \"contracts/lesson7.2/Crowdfunding.sol\":3724:3749  contributions[msg.sender] */\n      0x00\n        /* \"contracts/lesson7.2/Crowdfunding.sol\":3738:3748  msg.sender */\n      caller\n        /* \"contracts/lesson7.2/Crowdfunding.sol\":3724:3749  contributions[msg.sender] */\n      0xffffffffffffffffffffffffffffffffffffffff\n      and\n      0xffffffffffffffffffffffffffffffffffffffff\n      and\n      dup2\n      mstore\n      0x20\n      add\n      swap1\n      dup2\n      mstore\n      0x20\n      add\n      0x00\n      keccak256\n      sload\n        /* \"contracts/lesson7.2/Crowdfunding.sol\":3707:3749  uint256 amount = contributions[msg.sender] */\n      swap1\n      pop\n        /* \"contracts/lesson7.2/Crowdfunding.sol\":3776:3777  0 */\n      0x00\n        /* \"contracts/lesson7.2/Crowdfunding.sol\":3767:3773  amount */\n      dup2\n        /* \"contracts/lesson7.2/Crowdfunding.sol\":3767:3777  amount > 0 */\n      gt\n        /* \"contracts/lesson7.2/Crowdfunding.sol\":3759:3801  require(amount > 0, unicode\"没有贡献\") */\n      tag_105\n      jumpi\n      mload(0x40)\n      0x08c379a000000000000000000000000000000000000000000000000000000000\n      dup2\n      mstore\n      0x04\n      add\n      tag_106\n      swap1\n      tag_107\n      jump\t// in\n    tag_106:\n      mload(0x40)\n      dup1\n      swap2\n      sub\n      swap1\n      revert\n    tag_105:\n        /* \"contracts/lesson7.2/Crowdfunding.sol\":3816:3824  refunded */\n      0x06\n        /* \"contracts/lesson7.2/Crowdfunding.sol\":3816:3836  refunded[msg.sender] */\n      0x00\n        /* \"contracts/lesson7.2/Crowdfunding.sol\":3825:3835  msg.sender */\n      caller\n        /* \"contracts/lesson7.2/Crowdfunding.sol\":3816:3836  refunded[msg.sender] */\n      0xffffffffffffffffffffffffffffffffffffffff\n      and\n      0xffffffffffffffffffffffffffffffffffffffff\n      and\n      dup2\n      mstore\n      0x20\n      add\n      swap1\n      dup2\n      mstore\n      0x20\n      add\n      0x00\n      keccak256\n      0x00\n      swap1\n      sload\n      swap1\n      0x0100\n      exp\n      swap1\n      div\n      0xff\n      and\n        /* \"contracts/lesson7.2/Crowdfunding.sol\":3812:3872  if (refunded[msg.sender]) revert AlreadyRefunded(msg.sender) */\n      iszero\n      tag_108\n      jumpi\n        /* \"contracts/lesson7.2/Crowdfunding.sol\":3861:3871  msg.sender */\n      caller\n        /* \"contracts/lesson7.2/Crowdfunding.sol\":3845:3872  AlreadyRefunded(msg.sender) */\n      mload(0x40)\n      0x086735f500000000000000000000000000000000000000000000000000000000\n      dup2\n      mstore\n      0x04\n      add\n      tag_109\n      swap2\n      swap1\n      tag_60\n      jump\t// in\n    tag_109:\n      mload(0x40)\n      dup1\n      swap2\n      sub\n      swap1\n      revert\n        /* \"contracts/lesson7.2/Crowdfunding.sol\":3812:3872  if (refunded[msg.sender]) revert AlreadyRefunded(msg.sender) */\n    tag_108:\n        /* \"contracts/lesson7.2/Crowdfunding.sol\":3947:3948  0 */\n      0x00\n        /* \"contracts/lesson7.2/Crowdfunding.sol\":3919:3932  contributions */\n      0x05\n        /* \"contracts/lesson7.2/Crowdfunding.sol\":3919:3944  contributions[msg.sender] */\n      0x00\n        /* \"contracts/lesson7.2/Crowdfunding.sol\":3933:3943  msg.sender */\n      caller\n        /* \"contracts/lesson7.2/Crowdfunding.sol\":3919:3944  contributions[msg.sender] */\n      0xffffffffffffffffffffffffffffffffffffffff\n      and\n      0xffffffffffffffffffffffffffffffffffffffff\n      and\n      dup2\n      mstore\n      0x20\n      add\n      swap1\n      dup2\n      mstore\n      0x20\n      add\n      0x00\n      keccak256\n        /* \"contracts/lesson7.2/Crowdfunding.sol\":3919:3948  contributions[msg.sender] = 0 */\n      dup2\n      swap1\n      sstore\n      pop\n        /* \"contracts/lesson7.2/Crowdfunding.sol\":3981:3985  true */\n      0x01\n        /* \"contracts/lesson7.2/Crowdfunding.sol\":3958:3966  refunded */\n      0x06\n        /* \"contracts/lesson7.2/Crowdfunding.sol\":3958:3978  refunded[msg.sender] */\n      0x00\n        /* \"contracts/lesson7.2/Crowdfunding.sol\":3967:3977  msg.sender */\n      caller\n        /* \"contracts/lesson7.2/Crowdfunding.sol\":3958:3978  refunded[msg.sender] */\n      0xffffffffffffffffffffffffffffffffffffffff\n      and\n      0xffffffffffffffffffffffffffffffffffffffff\n      and\n      dup2\n      mstore\n      0x20\n      add\n      swap1\n      dup2\n      mstore\n      0x20\n      add\n      0x00\n      keccak256\n      0x00\n        /* \"contracts/lesson7.2/Crowdfunding.sol\":3958:3985  refunded[msg.sender] = true */\n      0x0100\n      exp\n      dup2\n      sload\n      dup2\n      0xff\n      mul\n      not\n      and\n      swap1\n      dup4\n      iszero\n      iszero\n      mul\n      or\n      swap1\n      sstore\n      pop\n        /* \"contracts/lesson7.2/Crowdfunding.sol\":4032:4044  bool success */\n      0x00\n        /* \"contracts/lesson7.2/Crowdfunding.sol\":4050:4060  msg.sender */\n      caller\n        /* \"contracts/lesson7.2/Crowdfunding.sol\":4050:4065  msg.sender.call */\n      0xffffffffffffffffffffffffffffffffffffffff\n      and\n        /* \"contracts/lesson7.2/Crowdfunding.sol\":4073:4079  amount */\n      dup3\n        /* \"contracts/lesson7.2/Crowdfunding.sol\":4050:4084  msg.sender.call{value: amount}(\"\") */\n      mload(0x40)\n      tag_110\n      swap1\n      tag_95\n      jump\t// in\n    tag_110:\n      0x00\n      mload(0x40)\n      dup1\n      dup4\n      sub\n      dup2\n      dup6\n      dup8\n      gas\n      call\n      swap3\n      pop\n      pop\n      pop\n      returndatasize\n      dup1\n      0x00\n      dup2\n      eq\n      tag_113\n      jumpi\n      mload(0x40)\n      swap2\n      pop\n      and(add(returndatasize, 0x3f), not(0x1f))\n      dup3\n      add\n      0x40\n      mstore\n      returndatasize\n      dup3\n      mstore\n      returndatasize\n      0x00\n      0x20\n      dup5\n      add\n      returndatacopy\n      jump(tag_112)\n    tag_113:\n      0x60\n      swap2\n      pop\n    tag_112:\n      pop\n        /* \"contracts/lesson7.2/Crowdfunding.sol\":4031:4084  (bool success, ) = msg.sender.call{value: amount}(\"\") */\n      pop\n      swap1\n      pop\n        /* \"contracts/lesson7.2/Crowdfunding.sol\":4099:4106  success */\n      dup1\n        /* \"contracts/lesson7.2/Crowdfunding.sol\":4094:4258  if (!success) {... */\n      tag_114\n      jumpi\n        /* \"contracts/lesson7.2/Crowdfunding.sol\":4199:4205  amount */\n      dup2\n        /* \"contracts/lesson7.2/Crowdfunding.sol\":4171:4184  contributions */\n      0x05\n        /* \"contracts/lesson7.2/Crowdfunding.sol\":4171:4196  contributions[msg.sender] */\n      0x00\n        /* \"contracts/lesson7.2/Crowdfunding.sol\":4185:4195  msg.sender */\n      caller\n        /* \"contracts/lesson7.2/Crowdfunding.sol\":4171:4196  contributions[msg.sender] */\n      0xffffffffffffffffffffffffffffffffffffffff\n      and\n      0xffffffffffffffffffffffffffffffffffffffff\n      and\n      dup2\n      mstore\n      0x20\n      add\n      swap1\n      dup2\n      mstore\n      0x20\n      add\n      0x00\n      keccak256\n        /* \"contracts/lesson7.2/Crowdfunding.sol\":4171:4205  contributions[msg.sender] = amount */\n      dup2\n      swap1\n      sstore\n      pop\n        /* \"contracts/lesson7.2/Crowdfunding.sol\":4242:4247  false */\n      0x00\n        /* \"contracts/lesson7.2/Crowdfunding.sol\":4219:4227  refunded */\n      0x06\n        /* \"contracts/lesson7.2/Crowdfunding.sol\":4219:4239  refunded[msg.sender] */\n      0x00\n        /* \"contracts/lesson7.2/Crowdfunding.sol\":4228:4238  msg.sender */\n      caller\n        /* \"contracts/lesson7.2/Crowdfunding.sol\":4219:4239  refunded[msg.sender] */\n      0xffffffffffffffffffffffffffffffffffffffff\n      and\n      0xffffffffffffffffffffffffffffffffffffffff\n      and\n      dup2\n      mstore\n      0x20\n      add\n      swap1\n      dup2\n      mstore\n      0x20\n      add\n      0x00\n      keccak256\n      0x00\n        /* \"contracts/lesson7.2/Crowdfunding.sol\":4219:4247  refunded[msg.sender] = false */\n      0x0100\n      exp\n      dup2\n      sload\n      dup2\n      0xff\n      mul\n      not\n      and\n      swap1\n      dup4\n      iszero\n      iszero\n      mul\n      or\n      swap1\n      sstore\n      pop\n        /* \"contracts/lesson7.2/Crowdfunding.sol\":4094:4258  if (!success) {... */\n    tag_114:\n        /* \"contracts/lesson7.2/Crowdfunding.sol\":4280:4290  msg.sender */\n      caller\n        /* \"contracts/lesson7.2/Crowdfunding.sol\":4273:4299  Refund(msg.sender, amount) */\n      0xffffffffffffffffffffffffffffffffffffffff\n      and\n      0xbb28353e4598c3b9199101a66e0989549b659a59a54d2c27fbb183f1932c8e6d\n        /* \"contracts/lesson7.2/Crowdfunding.sol\":4292:4298  amount */\n      dup4\n        /* \"contracts/lesson7.2/Crowdfunding.sol\":4273:4299  Refund(msg.sender, amount) */\n      mload(0x40)\n      tag_115\n      swap2\n      swap1\n      tag_28\n      jump\t// in\n    tag_115:\n      mload(0x40)\n      dup1\n      swap2\n      sub\n      swap1\n      log2\n        /* \"contracts/lesson7.2/Crowdfunding.sol\":3568:4306  {... */\n      pop\n      pop\n        /* \"contracts/lesson7.2/Crowdfunding.sol\":3543:4306  function refund() public {... */\n      jump\t// out\n        /* \"contracts/lesson7.2/Crowdfunding.sol\":2497:2788  function endCampaign() public {... */\n    tag_51:\n        /* \"contracts/lesson7.2/Crowdfunding.sol\":2588:2596  deadline */\n      sload(0x02)\n        /* \"contracts/lesson7.2/Crowdfunding.sol\":2569:2584  block.timestamp */\n      timestamp\n        /* \"contracts/lesson7.2/Crowdfunding.sol\":2569:2596  block.timestamp >= deadline */\n      lt\n      iszero\n        /* \"contracts/lesson7.2/Crowdfunding.sol\":2561:2626  require(block.timestamp >= deadline, unicode\"众筹尚未结束\") */\n      tag_117\n      jumpi\n      mload(0x40)\n      0x08c379a000000000000000000000000000000000000000000000000000000000\n      dup2\n      mstore\n      0x04\n      add\n      tag_118\n      swap1\n      tag_87\n      jump\t// in\n    tag_118:\n      mload(0x40)\n      dup1\n      swap2\n      sub\n      swap1\n      revert\n    tag_117:\n        /* \"contracts/lesson7.2/Crowdfunding.sol\":2645:2650  ended */\n      0x04\n      0x00\n      swap1\n      sload\n      swap1\n      0x0100\n      exp\n      swap1\n      div\n      0xff\n      and\n        /* \"contracts/lesson7.2/Crowdfunding.sol\":2644:2650  !ended */\n      iszero\n        /* \"contracts/lesson7.2/Crowdfunding.sol\":2636:2680  require(!ended, unicode\"众筹已经结束\") */\n      tag_119\n      jumpi\n      mload(0x40)\n      0x08c379a000000000000000000000000000000000000000000000000000000000\n      dup2\n      mstore\n      0x04\n      add\n      tag_120\n      swap1\n      tag_121\n      jump\t// in\n    tag_120:\n      mload(0x40)\n      dup1\n      swap2\n      sub\n      swap1\n      revert\n    tag_119:\n        /* \"contracts/lesson7.2/Crowdfunding.sol\":2699:2703  true */\n      0x01\n        /* \"contracts/lesson7.2/Crowdfunding.sol\":2691:2696  ended */\n      0x04\n      0x00\n        /* \"contracts/lesson7.2/Crowdfunding.sol\":2691:2703  ended = true */\n      0x0100\n      exp\n      dup2\n      sload\n      dup2\n      0xff\n      mul\n      not\n      and\n      swap1\n      dup4\n      iszero\n      iszero\n      mul\n      or\n      swap1\n      sstore\n      pop\n        /* \"contracts/lesson7.2/Crowdfunding.sol\":2733:2737  goal */\n      sload(0x01)\n        /* \"contracts/lesson7.2/Crowdfunding.sol\":2718:2729  totalRaised */\n      sload(0x03)\n        /* \"contracts/lesson7.2/Crowdfunding.sol\":2718:2737  totalRaised >= goal */\n      lt\n        /* \"contracts/lesson7.2/Crowdfunding.sol\":2714:2782  if (totalRaised >= goal) {... */\n      tag_122\n      jumpi\n        /* \"contracts/lesson7.2/Crowdfunding.sol\":2767:2771  true */\n      0x01\n        /* \"contracts/lesson7.2/Crowdfunding.sol\":2753:2764  goalReached */\n      0x04\n      0x01\n        /* \"contracts/lesson7.2/Crowdfunding.sol\":2753:2771  goalReached = true */\n      0x0100\n      exp\n      dup2\n      sload\n      dup2\n      0xff\n      mul\n      not\n      and\n      swap1\n      dup4\n      iszero\n      iszero\n      mul\n      or\n      swap1\n      sstore\n      pop\n        /* \"contracts/lesson7.2/Crowdfunding.sol\":2714:2782  if (totalRaised >= goal) {... */\n    tag_122:\n        /* \"contracts/lesson7.2/Crowdfunding.sol\":2497:2788  function endCampaign() public {... */\n      jump\t// out\n        /* \"contracts/lesson7.2/Crowdfunding.sol\":632:655  bool public goalReached */\n    tag_54:\n      0x04\n      0x01\n      swap1\n      sload\n      swap1\n      0x0100\n      exp\n      swap1\n      div\n      0xff\n      and\n      dup2\n      jump\t// out\n        /* \"contracts/lesson7.2/Crowdfunding.sol\":497:517  address public owner */\n    tag_58:\n      0x00\n      0x00\n      swap1\n      sload\n      swap1\n      0x0100\n      exp\n      swap1\n      div\n      0xffffffffffffffffffffffffffffffffffffffff\n      and\n      dup2\n      jump\t// out\n        /* \"contracts/lesson7.2/Crowdfunding.sol\":716:756  mapping(address => bool) public refunded */\n    tag_64:\n      mstore(0x20, 0x06)\n      dup1\n      0x00\n      mstore\n      keccak256(0x00, 0x40)\n      0x00\n      swap2\n      pop\n      sload\n      swap1\n      0x0100\n      exp\n      swap1\n      div\n      0xff\n      and\n      dup2\n      jump\t// out\n        /* \"contracts/lesson7.2/Crowdfunding.sol\":577:603  uint256 public totalRaised */\n    tag_68:\n      sload(0x03)\n      dup2\n      jump\t// out\n        /* \"contracts/lesson7.2/Crowdfunding.sol\":1908:2447  function contribute() public payable campaignActive {... */\n    tag_71:\n        /* \"contracts/lesson7.2/Crowdfunding.sol\":1351:1356  ended */\n      0x04\n      0x00\n      swap1\n      sload\n      swap1\n      0x0100\n      exp\n      swap1\n      div\n      0xff\n      and\n        /* \"contracts/lesson7.2/Crowdfunding.sol\":1347:1387  if (ended) revert CampaignAlreadyEnded() */\n      iszero\n      tag_124\n      jumpi\n        /* \"contracts/lesson7.2/Crowdfunding.sol\":1365:1387  CampaignAlreadyEnded() */\n      mload(0x40)\n      0x287e67e700000000000000000000000000000000000000000000000000000000\n      dup2\n      mstore\n      0x04\n      add\n      mload(0x40)\n      dup1\n      swap2\n      sub\n      swap1\n      revert\n        /* \"contracts/lesson7.2/Crowdfunding.sol\":1347:1387  if (ended) revert CampaignAlreadyEnded() */\n    tag_124:\n        /* \"contracts/lesson7.2/Crowdfunding.sol\":1420:1428  deadline */\n      sload(0x02)\n        /* \"contracts/lesson7.2/Crowdfunding.sol\":1401:1416  block.timestamp */\n      timestamp\n        /* \"contracts/lesson7.2/Crowdfunding.sol\":1401:1428  block.timestamp >= deadline */\n      lt\n        /* \"contracts/lesson7.2/Crowdfunding.sol\":1397:1456  if (block.timestamp >= deadline) revert CampaignNotActive() */\n      tag_125\n      jumpi\n        /* \"contracts/lesson7.2/Crowdfunding.sol\":1437:1456  CampaignNotActive() */\n      mload(0x40)\n      0x433528b600000000000000000000000000000000000000000000000000000000\n      dup2\n      mstore\n      0x04\n      add\n      mload(0x40)\n      dup1\n      swap2\n      sub\n      swap1\n      revert\n        /* \"contracts/lesson7.2/Crowdfunding.sol\":1397:1456  if (block.timestamp >= deadline) revert CampaignNotActive() */\n    tag_125:\n        /* \"contracts/lesson7.2/Crowdfunding.sol\":2022:2023  0 */\n      0x00\n        /* \"contracts/lesson7.2/Crowdfunding.sol\":2009:2018  msg.value */\n      callvalue\n        /* \"contracts/lesson7.2/Crowdfunding.sol\":2009:2023  msg.value == 0 */\n      sub\n        /* \"contracts/lesson7.2/Crowdfunding.sol\":2005:2056  if (msg.value == 0) revert InvalidAmount(msg.value) */\n      tag_127\n      jumpi\n        /* \"contracts/lesson7.2/Crowdfunding.sol\":2046:2055  msg.value */\n      callvalue\n        /* \"contracts/lesson7.2/Crowdfunding.sol\":2032:2056  InvalidAmount(msg.value) */\n      mload(0x40)\n      0x3728b83d00000000000000000000000000000000000000000000000000000000\n      dup2\n      mstore\n      0x04\n      add\n      tag_128\n      swap2\n      swap1\n      tag_28\n      jump\t// in\n    tag_128:\n      mload(0x40)\n      dup1\n      swap2\n      sub\n      swap1\n      revert\n        /* \"contracts/lesson7.2/Crowdfunding.sol\":2005:2056  if (msg.value == 0) revert InvalidAmount(msg.value) */\n    tag_127:\n        /* \"contracts/lesson7.2/Crowdfunding.sol\":2132:2141  msg.value */\n      callvalue\n        /* \"contracts/lesson7.2/Crowdfunding.sol\":2103:2116  contributions */\n      0x05\n        /* \"contracts/lesson7.2/Crowdfunding.sol\":2103:2128  contributions[msg.sender] */\n      0x00\n        /* \"contracts/lesson7.2/Crowdfunding.sol\":2117:2127  msg.sender */\n      caller\n        /* \"contracts/lesson7.2/Crowdfunding.sol\":2103:2128  contributions[msg.sender] */\n      0xffffffffffffffffffffffffffffffffffffffff\n      and\n      0xffffffffffffffffffffffffffffffffffffffff\n      and\n      dup2\n      mstore\n      0x20\n      add\n      swap1\n      dup2\n      mstore\n      0x20\n      add\n      0x00\n      keccak256\n      0x00\n        /* \"contracts/lesson7.2/Crowdfunding.sol\":2103:2141  contributions[msg.sender] += msg.value */\n      dup3\n      dup3\n      sload\n      tag_129\n      swap2\n      swap1\n      tag_130\n      jump\t// in\n    tag_129:\n      swap3\n      pop\n      pop\n      dup2\n      swap1\n      sstore\n      pop\n        /* \"contracts/lesson7.2/Crowdfunding.sol\":2166:2175  msg.value */\n      callvalue\n        /* \"contracts/lesson7.2/Crowdfunding.sol\":2151:2162  totalRaised */\n      0x03\n      0x00\n        /* \"contracts/lesson7.2/Crowdfunding.sol\":2151:2175  totalRaised += msg.value */\n      dup3\n      dup3\n      sload\n      tag_131\n      swap2\n      swap1\n      tag_130\n      jump\t// in\n    tag_131:\n      swap3\n      pop\n      pop\n      dup2\n      swap1\n      sstore\n      pop\n        /* \"contracts/lesson7.2/Crowdfunding.sol\":2227:2238  goalReached */\n      0x04\n      0x01\n      swap1\n      sload\n      swap1\n      0x0100\n      exp\n      swap1\n      div\n      0xff\n      and\n        /* \"contracts/lesson7.2/Crowdfunding.sol\":2226:2238  !goalReached */\n      iszero\n        /* \"contracts/lesson7.2/Crowdfunding.sol\":2226:2261  !goalReached && totalRaised >= goal */\n      dup1\n      iszero\n      tag_132\n      jumpi\n      pop\n        /* \"contracts/lesson7.2/Crowdfunding.sol\":2257:2261  goal */\n      sload(0x01)\n        /* \"contracts/lesson7.2/Crowdfunding.sol\":2242:2253  totalRaised */\n      sload(0x03)\n        /* \"contracts/lesson7.2/Crowdfunding.sol\":2242:2261  totalRaised >= goal */\n      lt\n      iszero\n        /* \"contracts/lesson7.2/Crowdfunding.sol\":2226:2261  !goalReached && totalRaised >= goal */\n    tag_132:\n        /* \"contracts/lesson7.2/Crowdfunding.sol\":2222:2349  if (!goalReached && totalRaised >= goal) {... */\n      iszero\n      tag_133\n      jumpi\n        /* \"contracts/lesson7.2/Crowdfunding.sol\":2291:2295  true */\n      0x01\n        /* \"contracts/lesson7.2/Crowdfunding.sol\":2277:2288  goalReached */\n      0x04\n      0x01\n        /* \"contracts/lesson7.2/Crowdfunding.sol\":2277:2295  goalReached = true */\n      0x0100\n      exp\n      dup2\n      sload\n      dup2\n      0xff\n      mul\n      not\n      and\n      swap1\n      dup4\n      iszero\n      iszero\n      mul\n      or\n      swap1\n      sstore\n      pop\n        /* \"contracts/lesson7.2/Crowdfunding.sol\":2314:2338  GoalReached(totalRaised) */\n      0xfbfd8ab7c24300fa9888cd721c8565a7da56759384781283684dcf7c7c4a846b\n        /* \"contracts/lesson7.2/Crowdfunding.sol\":2326:2337  totalRaised */\n      sload(0x03)\n        /* \"contracts/lesson7.2/Crowdfunding.sol\":2314:2338  GoalReached(totalRaised) */\n      mload(0x40)\n      tag_134\n      swap2\n      swap1\n      tag_28\n      jump\t// in\n    tag_134:\n      mload(0x40)\n      dup1\n      swap2\n      sub\n      swap1\n      log1\n        /* \"contracts/lesson7.2/Crowdfunding.sol\":2222:2349  if (!goalReached && totalRaised >= goal) {... */\n    tag_133:\n        /* \"contracts/lesson7.2/Crowdfunding.sol\":2418:2428  msg.sender */\n      caller\n        /* \"contracts/lesson7.2/Crowdfunding.sol\":2405:2440  Contribution(msg.sender, msg.value) */\n      0xffffffffffffffffffffffffffffffffffffffff\n      and\n      0x4d154d4aae216bed6d0926db77c00df2b57c6b5ba4eee05775de20facede3a7b\n        /* \"contracts/lesson7.2/Crowdfunding.sol\":2430:2439  msg.value */\n      callvalue\n        /* \"contracts/lesson7.2/Crowdfunding.sol\":2405:2440  Contribution(msg.sender, msg.value) */\n      mload(0x40)\n      tag_135\n      swap2\n      swap1\n      tag_28\n      jump\t// in\n    tag_135:\n      mload(0x40)\n      dup1\n      swap2\n      sub\n      swap1\n      log2\n        /* \"contracts/lesson7.2/Crowdfunding.sol\":1908:2447  function contribute() public payable campaignActive {... */\n      jump\t// out\n        /* \"contracts/lesson7.2/Crowdfunding.sol\":4395:5501  function batchRefund(address[] memory contributors) public onlyOwner {... */\n    tag_76:\n        /* \"contracts/lesson7.2/Crowdfunding.sol\":1249:1254  owner */\n      0x00\n      0x00\n      swap1\n      sload\n      swap1\n      0x0100\n      exp\n      swap1\n      div\n      0xffffffffffffffffffffffffffffffffffffffff\n      and\n        /* \"contracts/lesson7.2/Crowdfunding.sol\":1235:1254  msg.sender != owner */\n      0xffffffffffffffffffffffffffffffffffffffff\n      and\n        /* \"contracts/lesson7.2/Crowdfunding.sol\":1235:1245  msg.sender */\n      caller\n        /* \"contracts/lesson7.2/Crowdfunding.sol\":1235:1254  msg.sender != owner */\n      0xffffffffffffffffffffffffffffffffffffffff\n      and\n      eq\n        /* \"contracts/lesson7.2/Crowdfunding.sol\":1231:1287  if (msg.sender != owner) revert Unauthorized(msg.sender) */\n      tag_137\n      jumpi\n        /* \"contracts/lesson7.2/Crowdfunding.sol\":1276:1286  msg.sender */\n      caller\n        /* \"contracts/lesson7.2/Crowdfunding.sol\":1263:1287  Unauthorized(msg.sender) */\n      mload(0x40)\n      0x8e4a23d600000000000000000000000000000000000000000000000000000000\n      dup2\n      mstore\n      0x04\n      add\n      tag_138\n      swap2\n      swap1\n      tag_60\n      jump\t// in\n    tag_138:\n      mload(0x40)\n      dup1\n      swap2\n      sub\n      swap1\n      revert\n        /* \"contracts/lesson7.2/Crowdfunding.sol\":1231:1287  if (msg.sender != owner) revert Unauthorized(msg.sender) */\n    tag_137:\n        /* \"contracts/lesson7.2/Crowdfunding.sol\":4482:4487  ended */\n      0x04\n      0x00\n      swap1\n      sload\n      swap1\n      0x0100\n      exp\n      swap1\n      div\n      0xff\n      and\n        /* \"contracts/lesson7.2/Crowdfunding.sol\":4474:4517  require(ended, unicode\"众筹尚未结束\") */\n      tag_140\n      jumpi\n      mload(0x40)\n      0x08c379a000000000000000000000000000000000000000000000000000000000\n      dup2\n      mstore\n      0x04\n      add\n      tag_141\n      swap1\n      tag_87\n      jump\t// in\n    tag_141:\n      mload(0x40)\n      dup1\n      swap2\n      sub\n      swap1\n      revert\n    tag_140:\n        /* \"contracts/lesson7.2/Crowdfunding.sol\":4536:4547  goalReached */\n      0x04\n      0x01\n      swap1\n      sload\n      swap1\n      0x0100\n      exp\n      swap1\n      div\n      0xff\n      and\n        /* \"contracts/lesson7.2/Crowdfunding.sol\":4535:4547  !goalReached */\n      iszero\n        /* \"contracts/lesson7.2/Crowdfunding.sol\":4527:4589  require(!goalReached, unicode\"目标已达成，不能退款\") */\n      tag_142\n      jumpi\n      mload(0x40)\n      0x08c379a000000000000000000000000000000000000000000000000000000000\n      dup2\n      mstore\n      0x04\n      add\n      tag_143\n      swap1\n      tag_144\n      jump\t// in\n    tag_143:\n      mload(0x40)\n      dup1\n      swap2\n      sub\n      swap1\n      revert\n    tag_142:\n        /* \"contracts/lesson7.2/Crowdfunding.sol\":4605:4614  uint256 i */\n      0x00\n        /* \"contracts/lesson7.2/Crowdfunding.sol\":4617:4618  0 */\n      0x00\n        /* \"contracts/lesson7.2/Crowdfunding.sol\":4605:4618  uint256 i = 0 */\n      swap1\n      pop\n        /* \"contracts/lesson7.2/Crowdfunding.sol\":4600:5495  for (uint256 i = 0; i < contributors.length; i++) {... */\n    tag_145:\n        /* \"contracts/lesson7.2/Crowdfunding.sol\":4624:4636  contributors */\n      dup2\n        /* \"contracts/lesson7.2/Crowdfunding.sol\":4624:4643  contributors.length */\n      mload\n        /* \"contracts/lesson7.2/Crowdfunding.sol\":4620:4621  i */\n      dup2\n        /* \"contracts/lesson7.2/Crowdfunding.sol\":4620:4643  i < contributors.length */\n      lt\n        /* \"contracts/lesson7.2/Crowdfunding.sol\":4600:5495  for (uint256 i = 0; i < contributors.length; i++) {... */\n      iszero\n      tag_146\n      jumpi\n        /* \"contracts/lesson7.2/Crowdfunding.sol\":4664:4683  address contributor */\n      0x00\n        /* \"contracts/lesson7.2/Crowdfunding.sol\":4686:4698  contributors */\n      dup3\n        /* \"contracts/lesson7.2/Crowdfunding.sol\":4699:4700  i */\n      dup3\n        /* \"contracts/lesson7.2/Crowdfunding.sol\":4686:4701  contributors[i] */\n      dup2\n      mload\n      dup2\n      lt\n      tag_148\n      jumpi\n      tag_149\n      tag_150\n      jump\t// in\n    tag_149:\n    tag_148:\n      0x20\n      mul\n      0x20\n      add\n      add\n      mload\n        /* \"contracts/lesson7.2/Crowdfunding.sol\":4664:4701  address contributor = contributors[i] */\n      swap1\n      pop\n        /* \"contracts/lesson7.2/Crowdfunding.sol\":4715:4729  uint256 amount */\n      0x00\n        /* \"contracts/lesson7.2/Crowdfunding.sol\":4732:4745  contributions */\n      0x05\n        /* \"contracts/lesson7.2/Crowdfunding.sol\":4732:4758  contributions[contributor] */\n      0x00\n        /* \"contracts/lesson7.2/Crowdfunding.sol\":4746:4757  contributor */\n      dup4\n        /* \"contracts/lesson7.2/Crowdfunding.sol\":4732:4758  contributions[contributor] */\n      0xffffffffffffffffffffffffffffffffffffffff\n      and\n      0xffffffffffffffffffffffffffffffffffffffff\n      and\n      dup2\n      mstore\n      0x20\n      add\n      swap1\n      dup2\n      mstore\n      0x20\n      add\n      0x00\n      keccak256\n      sload\n        /* \"contracts/lesson7.2/Crowdfunding.sol\":4715:4758  uint256 amount = contributions[contributor] */\n      swap1\n      pop\n        /* \"contracts/lesson7.2/Crowdfunding.sol\":4787:4788  0 */\n      0x00\n        /* \"contracts/lesson7.2/Crowdfunding.sol\":4777:4783  amount */\n      dup2\n        /* \"contracts/lesson7.2/Crowdfunding.sol\":4777:4788  amount == 0 */\n      eq\n        /* \"contracts/lesson7.2/Crowdfunding.sol\":4777:4813  amount == 0 || refunded[contributor] */\n      dup1\n      tag_151\n      jumpi\n      pop\n        /* \"contracts/lesson7.2/Crowdfunding.sol\":4792:4800  refunded */\n      0x06\n        /* \"contracts/lesson7.2/Crowdfunding.sol\":4792:4813  refunded[contributor] */\n      0x00\n        /* \"contracts/lesson7.2/Crowdfunding.sol\":4801:4812  contributor */\n      dup4\n        /* \"contracts/lesson7.2/Crowdfunding.sol\":4792:4813  refunded[contributor] */\n      0xffffffffffffffffffffffffffffffffffffffff\n      and\n      0xffffffffffffffffffffffffffffffffffffffff\n      and\n      dup2\n      mstore\n      0x20\n      add\n      swap1\n      dup2\n      mstore\n      0x20\n      add\n      0x00\n      keccak256\n      0x00\n      swap1\n      sload\n      swap1\n      0x0100\n      exp\n      swap1\n      div\n      0xff\n      and\n        /* \"contracts/lesson7.2/Crowdfunding.sol\":4777:4813  amount == 0 || refunded[contributor] */\n    tag_151:\n        /* \"contracts/lesson7.2/Crowdfunding.sol\":4773:4899  if (amount == 0 || refunded[contributor]) {... */\n      iszero\n      tag_152\n      jumpi\n        /* \"contracts/lesson7.2/Crowdfunding.sol\":4833:4841  continue */\n      pop\n      pop\n      jump(tag_147)\n        /* \"contracts/lesson7.2/Crowdfunding.sol\":4773:4899  if (amount == 0 || refunded[contributor]) {... */\n    tag_152:\n        /* \"contracts/lesson7.2/Crowdfunding.sol\":4970:4971  0 */\n      0x00\n        /* \"contracts/lesson7.2/Crowdfunding.sol\":4941:4954  contributions */\n      0x05\n        /* \"contracts/lesson7.2/Crowdfunding.sol\":4941:4967  contributions[contributor] */\n      0x00\n        /* \"contracts/lesson7.2/Crowdfunding.sol\":4955:4966  contributor */\n      dup5\n        /* \"contracts/lesson7.2/Crowdfunding.sol\":4941:4967  contributions[contributor] */\n      0xffffffffffffffffffffffffffffffffffffffff\n      and\n      0xffffffffffffffffffffffffffffffffffffffff\n      and\n      dup2\n      mstore\n      0x20\n      add\n      swap1\n      dup2\n      mstore\n      0x20\n      add\n      0x00\n      keccak256\n        /* \"contracts/lesson7.2/Crowdfunding.sol\":4941:4971  contributions[contributor] = 0 */\n      dup2\n      swap1\n      sstore\n      pop\n        /* \"contracts/lesson7.2/Crowdfunding.sol\":5009:5013  true */\n      0x01\n        /* \"contracts/lesson7.2/Crowdfunding.sol\":4985:4993  refunded */\n      0x06\n        /* \"contracts/lesson7.2/Crowdfunding.sol\":4985:5006  refunded[contributor] */\n      0x00\n        /* \"contracts/lesson7.2/Crowdfunding.sol\":4994:5005  contributor */\n      dup5\n        /* \"contracts/lesson7.2/Crowdfunding.sol\":4985:5006  refunded[contributor] */\n      0xffffffffffffffffffffffffffffffffffffffff\n      and\n      0xffffffffffffffffffffffffffffffffffffffff\n      and\n      dup2\n      mstore\n      0x20\n      add\n      swap1\n      dup2\n      mstore\n      0x20\n      add\n      0x00\n      keccak256\n      0x00\n        /* \"contracts/lesson7.2/Crowdfunding.sol\":4985:5013  refunded[contributor] = true */\n      0x0100\n      exp\n      dup2\n      sload\n      dup2\n      0xff\n      mul\n      not\n      and\n      swap1\n      dup4\n      iszero\n      iszero\n      mul\n      or\n      swap1\n      sstore\n      pop\n        /* \"contracts/lesson7.2/Crowdfunding.sol\":5087:5099  bool success */\n      0x00\n        /* \"contracts/lesson7.2/Crowdfunding.sol\":5105:5116  contributor */\n      dup3\n        /* \"contracts/lesson7.2/Crowdfunding.sol\":5105:5121  contributor.call */\n      0xffffffffffffffffffffffffffffffffffffffff\n      and\n        /* \"contracts/lesson7.2/Crowdfunding.sol\":5129:5135  amount */\n      dup3\n        /* \"contracts/lesson7.2/Crowdfunding.sol\":5105:5140  contributor.call{value: amount}(\"\") */\n      mload(0x40)\n      tag_153\n      swap1\n      tag_95\n      jump\t// in\n    tag_153:\n      0x00\n      mload(0x40)\n      dup1\n      dup4\n      sub\n      dup2\n      dup6\n      dup8\n      gas\n      call\n      swap3\n      pop\n      pop\n      pop\n      returndatasize\n      dup1\n      0x00\n      dup2\n      eq\n      tag_156\n      jumpi\n      mload(0x40)\n      swap2\n      pop\n      and(add(returndatasize, 0x3f), not(0x1f))\n      dup3\n      add\n      0x40\n      mstore\n      returndatasize\n      dup3\n      mstore\n      returndatasize\n      0x00\n      0x20\n      dup5\n      add\n      returndatacopy\n      jump(tag_155)\n    tag_156:\n      0x60\n      swap2\n      pop\n    tag_155:\n      pop\n        /* \"contracts/lesson7.2/Crowdfunding.sol\":5086:5140  (bool success, ) = contributor.call{value: amount}(\"\") */\n      pop\n      swap1\n      pop\n        /* \"contracts/lesson7.2/Crowdfunding.sol\":5159:5166  success */\n      dup1\n        /* \"contracts/lesson7.2/Crowdfunding.sol\":5155:5485  if (success) {... */\n      iszero\n      tag_157\n      jumpi\n        /* \"contracts/lesson7.2/Crowdfunding.sol\":5198:5209  contributor */\n      dup3\n        /* \"contracts/lesson7.2/Crowdfunding.sol\":5191:5218  Refund(contributor, amount) */\n      0xffffffffffffffffffffffffffffffffffffffff\n      and\n      0xbb28353e4598c3b9199101a66e0989549b659a59a54d2c27fbb183f1932c8e6d\n        /* \"contracts/lesson7.2/Crowdfunding.sol\":5211:5217  amount */\n      dup4\n        /* \"contracts/lesson7.2/Crowdfunding.sol\":5191:5218  Refund(contributor, amount) */\n      mload(0x40)\n      tag_158\n      swap2\n      swap1\n      tag_28\n      jump\t// in\n    tag_158:\n      mload(0x40)\n      dup1\n      swap2\n      sub\n      swap1\n      log2\n        /* \"contracts/lesson7.2/Crowdfunding.sol\":5155:5485  if (success) {... */\n      jump(tag_159)\n    tag_157:\n        /* \"contracts/lesson7.2/Crowdfunding.sol\":5342:5348  amount */\n      dup2\n        /* \"contracts/lesson7.2/Crowdfunding.sol\":5313:5326  contributions */\n      0x05\n        /* \"contracts/lesson7.2/Crowdfunding.sol\":5313:5339  contributions[contributor] */\n      0x00\n        /* \"contracts/lesson7.2/Crowdfunding.sol\":5327:5338  contributor */\n      dup6\n        /* \"contracts/lesson7.2/Crowdfunding.sol\":5313:5339  contributions[contributor] */\n      0xffffffffffffffffffffffffffffffffffffffff\n      and\n      0xffffffffffffffffffffffffffffffffffffffff\n      and\n      dup2\n      mstore\n      0x20\n      add\n      swap1\n      dup2\n      mstore\n      0x20\n      add\n      0x00\n      keccak256\n        /* \"contracts/lesson7.2/Crowdfunding.sol\":5313:5348  contributions[contributor] = amount */\n      dup2\n      swap1\n      sstore\n      pop\n        /* \"contracts/lesson7.2/Crowdfunding.sol\":5390:5395  false */\n      0x00\n        /* \"contracts/lesson7.2/Crowdfunding.sol\":5366:5374  refunded */\n      0x06\n        /* \"contracts/lesson7.2/Crowdfunding.sol\":5366:5387  refunded[contributor] */\n      0x00\n        /* \"contracts/lesson7.2/Crowdfunding.sol\":5375:5386  contributor */\n      dup6\n        /* \"contracts/lesson7.2/Crowdfunding.sol\":5366:5387  refunded[contributor] */\n      0xffffffffffffffffffffffffffffffffffffffff\n      and\n      0xffffffffffffffffffffffffffffffffffffffff\n      and\n      dup2\n      mstore\n      0x20\n      add\n      swap1\n      dup2\n      mstore\n      0x20\n      add\n      0x00\n      keccak256\n      0x00\n        /* \"contracts/lesson7.2/Crowdfunding.sol\":5366:5395  refunded[contributor] = false */\n      0x0100\n      exp\n      dup2\n      sload\n      dup2\n      0xff\n      mul\n      not\n      and\n      swap1\n      dup4\n      iszero\n      iszero\n      mul\n      or\n      swap1\n      sstore\n      pop\n        /* \"contracts/lesson7.2/Crowdfunding.sol\":5431:5442  contributor */\n      dup3\n        /* \"contracts/lesson7.2/Crowdfunding.sol\":5418:5470  RefundFailed(contributor, amount, \"Transfer failed\") */\n      0xffffffffffffffffffffffffffffffffffffffff\n      and\n      0x1469dedbe97a634ed62eda0e28633c10e232f4d2ae037854efce50d9c7bb74a5\n        /* \"contracts/lesson7.2/Crowdfunding.sol\":5444:5450  amount */\n      dup4\n        /* \"contracts/lesson7.2/Crowdfunding.sol\":5418:5470  RefundFailed(contributor, amount, \"Transfer failed\") */\n      mload(0x40)\n      tag_160\n      swap2\n      swap1\n      tag_161\n      jump\t// in\n    tag_160:\n      mload(0x40)\n      dup1\n      swap2\n      sub\n      swap1\n      log2\n        /* \"contracts/lesson7.2/Crowdfunding.sol\":5155:5485  if (success) {... */\n    tag_159:\n        /* \"contracts/lesson7.2/Crowdfunding.sol\":4650:5495  {... */\n      pop\n      pop\n      pop\n        /* \"contracts/lesson7.2/Crowdfunding.sol\":4600:5495  for (uint256 i = 0; i < contributors.length; i++) {... */\n    tag_147:\n        /* \"contracts/lesson7.2/Crowdfunding.sol\":4645:4648  i++ */\n      dup1\n      dup1\n      0x01\n      add\n      swap2\n      pop\n      pop\n        /* \"contracts/lesson7.2/Crowdfunding.sol\":4600:5495  for (uint256 i = 0; i < contributors.length; i++) {... */\n      jump(tag_145)\n    tag_146:\n      pop\n        /* \"contracts/lesson7.2/Crowdfunding.sol\":4395:5501  function batchRefund(address[] memory contributors) public onlyOwner {... */\n      pop\n      jump\t// out\n        /* \"#utility.yul\":7:97   */\n    tag_162:\n        /* \"#utility.yul\":41:48   */\n      0x00\n        /* \"#utility.yul\":84:89   */\n      dup2\n        /* \"#utility.yul\":77:90   */\n      iszero\n        /* \"#utility.yul\":70:91   */\n      iszero\n        /* \"#utility.yul\":59:91   */\n      swap1\n      pop\n        /* \"#utility.yul\":7:97   */\n      swap2\n      swap1\n      pop\n      jump\t// out\n        /* \"#utility.yul\":103:212   */\n    tag_163:\n        /* \"#utility.yul\":184:205   */\n      tag_203\n        /* \"#utility.yul\":199:204   */\n      dup2\n        /* \"#utility.yul\":184:205   */\n      tag_162\n      jump\t// in\n    tag_203:\n        /* \"#utility.yul\":179:182   */\n      dup3\n        /* \"#utility.yul\":172:206   */\n      mstore\n        /* \"#utility.yul\":103:212   */\n      pop\n      pop\n      jump\t// out\n        /* \"#utility.yul\":218:428   */\n    tag_23:\n        /* \"#utility.yul\":305:309   */\n      0x00\n        /* \"#utility.yul\":343:345   */\n      0x20\n        /* \"#utility.yul\":332:341   */\n      dup3\n        /* \"#utility.yul\":328:346   */\n      add\n        /* \"#utility.yul\":320:346   */\n      swap1\n      pop\n        /* \"#utility.yul\":356:421   */\n      tag_205\n        /* \"#utility.yul\":418:419   */\n      0x00\n        /* \"#utility.yul\":407:416   */\n      dup4\n        /* \"#utility.yul\":403:420   */\n      add\n        /* \"#utility.yul\":394:400   */\n      dup5\n        /* \"#utility.yul\":356:421   */\n      tag_163\n      jump\t// in\n    tag_205:\n        /* \"#utility.yul\":218:428   */\n      swap3\n      swap2\n      pop\n      pop\n      jump\t// out\n        /* \"#utility.yul\":434:511   */\n    tag_164:\n        /* \"#utility.yul\":471:478   */\n      0x00\n        /* \"#utility.yul\":500:505   */\n      dup2\n        /* \"#utility.yul\":489:505   */\n      swap1\n      pop\n        /* \"#utility.yul\":434:511   */\n      swap2\n      swap1\n      pop\n      jump\t// out\n        /* \"#utility.yul\":517:635   */\n    tag_165:\n        /* \"#utility.yul\":604:628   */\n      tag_208\n        /* \"#utility.yul\":622:627   */\n      dup2\n        /* \"#utility.yul\":604:628   */\n      tag_164\n      jump\t// in\n    tag_208:\n        /* \"#utility.yul\":599:602   */\n      dup3\n        /* \"#utility.yul\":592:629   */\n      mstore\n        /* \"#utility.yul\":517:635   */\n      pop\n      pop\n      jump\t// out\n        /* \"#utility.yul\":641:863   */\n    tag_28:\n        /* \"#utility.yul\":734:738   */\n      0x00\n        /* \"#utility.yul\":772:774   */\n      0x20\n        /* \"#utility.yul\":761:770   */\n      dup3\n        /* \"#utility.yul\":757:775   */\n      add\n        /* \"#utility.yul\":749:775   */\n      swap1\n      pop\n        /* \"#utility.yul\":785:856   */\n      tag_210\n        /* \"#utility.yul\":853:854   */\n      0x00\n        /* \"#utility.yul\":842:851   */\n      dup4\n        /* \"#utility.yul\":838:855   */\n      add\n        /* \"#utility.yul\":829:835   */\n      dup5\n        /* \"#utility.yul\":785:856   */\n      tag_165\n      jump\t// in\n    tag_210:\n        /* \"#utility.yul\":641:863   */\n      swap3\n      swap2\n      pop\n      pop\n      jump\t// out\n        /* \"#utility.yul\":869:944   */\n    tag_166:\n        /* \"#utility.yul\":902:908   */\n      0x00\n        /* \"#utility.yul\":935:937   */\n      0x40\n        /* \"#utility.yul\":929:938   */\n      mload\n        /* \"#utility.yul\":919:938   */\n      swap1\n      pop\n        /* \"#utility.yul\":869:944   */\n      swap1\n      jump\t// out\n        /* \"#utility.yul\":950:1067   */\n    tag_167:\n        /* \"#utility.yul\":1059:1060   */\n      0x00\n        /* \"#utility.yul\":1056:1057   */\n      0x00\n        /* \"#utility.yul\":1049:1061   */\n      revert\n        /* \"#utility.yul\":1073:1190   */\n    tag_168:\n        /* \"#utility.yul\":1182:1183   */\n      0x00\n        /* \"#utility.yul\":1179:1180   */\n      0x00\n        /* \"#utility.yul\":1172:1184   */\n      revert\n        /* \"#utility.yul\":1196:1322   */\n    tag_169:\n        /* \"#utility.yul\":1233:1240   */\n      0x00\n        /* \"#utility.yul\":1273:1315   */\n      0xffffffffffffffffffffffffffffffffffffffff\n        /* \"#utility.yul\":1266:1271   */\n      dup3\n        /* \"#utility.yul\":1262:1316   */\n      and\n        /* \"#utility.yul\":1251:1316   */\n      swap1\n      pop\n        /* \"#utility.yul\":1196:1322   */\n      swap2\n      swap1\n      pop\n      jump\t// out\n        /* \"#utility.yul\":1328:1424   */\n    tag_170:\n        /* \"#utility.yul\":1365:1372   */\n      0x00\n        /* \"#utility.yul\":1394:1418   */\n      tag_216\n        /* \"#utility.yul\":1412:1417   */\n      dup3\n        /* \"#utility.yul\":1394:1418   */\n      tag_169\n      jump\t// in\n    tag_216:\n        /* \"#utility.yul\":1383:1418   */\n      swap1\n      pop\n        /* \"#utility.yul\":1328:1424   */\n      swap2\n      swap1\n      pop\n      jump\t// out\n        /* \"#utility.yul\":1430:1552   */\n    tag_171:\n        /* \"#utility.yul\":1503:1527   */\n      tag_218\n        /* \"#utility.yul\":1521:1526   */\n      dup2\n        /* \"#utility.yul\":1503:1527   */\n      tag_170\n      jump\t// in\n    tag_218:\n        /* \"#utility.yul\":1496:1501   */\n      dup2\n        /* \"#utility.yul\":1493:1528   */\n      eq\n        /* \"#utility.yul\":1483:1546   */\n      tag_219\n      jumpi\n        /* \"#utility.yul\":1542:1543   */\n      0x00\n        /* \"#utility.yul\":1539:1540   */\n      0x00\n        /* \"#utility.yul\":1532:1544   */\n      revert\n        /* \"#utility.yul\":1483:1546   */\n    tag_219:\n        /* \"#utility.yul\":1430:1552   */\n      pop\n      jump\t// out\n        /* \"#utility.yul\":1558:1697   */\n    tag_172:\n        /* \"#utility.yul\":1604:1609   */\n      0x00\n        /* \"#utility.yul\":1642:1648   */\n      dup2\n        /* \"#utility.yul\":1629:1649   */\n      calldataload\n        /* \"#utility.yul\":1620:1649   */\n      swap1\n      pop\n        /* \"#utility.yul\":1658:1691   */\n      tag_221\n        /* \"#utility.yul\":1685:1690   */\n      dup2\n        /* \"#utility.yul\":1658:1691   */\n      tag_171\n      jump\t// in\n    tag_221:\n        /* \"#utility.yul\":1558:1697   */\n      swap3\n      swap2\n      pop\n      pop\n      jump\t// out\n        /* \"#utility.yul\":1703:2032   */\n    tag_43:\n        /* \"#utility.yul\":1762:1768   */\n      0x00\n        /* \"#utility.yul\":1811:1813   */\n      0x20\n        /* \"#utility.yul\":1799:1808   */\n      dup3\n        /* \"#utility.yul\":1790:1797   */\n      dup5\n        /* \"#utility.yul\":1786:1809   */\n      sub\n        /* \"#utility.yul\":1782:1814   */\n      slt\n        /* \"#utility.yul\":1779:1898   */\n      iszero\n      tag_223\n      jumpi\n        /* \"#utility.yul\":1817:1896   */\n      tag_224\n      tag_167\n      jump\t// in\n    tag_224:\n        /* \"#utility.yul\":1779:1898   */\n    tag_223:\n        /* \"#utility.yul\":1937:1938   */\n      0x00\n        /* \"#utility.yul\":1962:2015   */\n      tag_225\n        /* \"#utility.yul\":2007:2014   */\n      dup5\n        /* \"#utility.yul\":1998:2004   */\n      dup3\n        /* \"#utility.yul\":1987:1996   */\n      dup6\n        /* \"#utility.yul\":1983:2005   */\n      add\n        /* \"#utility.yul\":1962:2015   */\n      tag_172\n      jump\t// in\n    tag_225:\n        /* \"#utility.yul\":1952:2015   */\n      swap2\n      pop\n        /* \"#utility.yul\":1908:2025   */\n      pop\n        /* \"#utility.yul\":1703:2032   */\n      swap3\n      swap2\n      pop\n      pop\n      jump\t// out\n        /* \"#utility.yul\":2038:2156   */\n    tag_173:\n        /* \"#utility.yul\":2125:2149   */\n      tag_227\n        /* \"#utility.yul\":2143:2148   */\n      dup2\n        /* \"#utility.yul\":2125:2149   */\n      tag_170\n      jump\t// in\n    tag_227:\n        /* \"#utility.yul\":2120:2123   */\n      dup3\n        /* \"#utility.yul\":2113:2150   */\n      mstore\n        /* \"#utility.yul\":2038:2156   */\n      pop\n      pop\n      jump\t// out\n        /* \"#utility.yul\":2162:2384   */\n    tag_60:\n        /* \"#utility.yul\":2255:2259   */\n      0x00\n        /* \"#utility.yul\":2293:2295   */\n      0x20\n        /* \"#utility.yul\":2282:2291   */\n      dup3\n        /* \"#utility.yul\":2278:2296   */\n      add\n        /* \"#utility.yul\":2270:2296   */\n      swap1\n      pop\n        /* \"#utility.yul\":2306:2377   */\n      tag_229\n        /* \"#utility.yul\":2374:2375   */\n      0x00\n        /* \"#utility.yul\":2363:2372   */\n      dup4\n        /* \"#utility.yul\":2359:2376   */\n      add\n        /* \"#utility.yul\":2350:2356   */\n      dup5\n        /* \"#utility.yul\":2306:2377   */\n      tag_173\n      jump\t// in\n    tag_229:\n        /* \"#utility.yul\":2162:2384   */\n      swap3\n      swap2\n      pop\n      pop\n      jump\t// out\n        /* \"#utility.yul\":2390:2507   */\n    tag_174:\n        /* \"#utility.yul\":2499:2500   */\n      0x00\n        /* \"#utility.yul\":2496:2497   */\n      0x00\n        /* \"#utility.yul\":2489:2501   */\n      revert\n        /* \"#utility.yul\":2513:2615   */\n    tag_175:\n        /* \"#utility.yul\":2554:2560   */\n      0x00\n        /* \"#utility.yul\":2605:2607   */\n      0x1f\n        /* \"#utility.yul\":2601:2608   */\n      not\n        /* \"#utility.yul\":2596:2598   */\n      0x1f\n        /* \"#utility.yul\":2589:2594   */\n      dup4\n        /* \"#utility.yul\":2585:2599   */\n      add\n        /* \"#utility.yul\":2581:2609   */\n      and\n        /* \"#utility.yul\":2571:2609   */\n      swap1\n      pop\n        /* \"#utility.yul\":2513:2615   */\n      swap2\n      swap1\n      pop\n      jump\t// out\n        /* \"#utility.yul\":2621:2801   */\n    tag_176:\n        /* \"#utility.yul\":2669:2746   */\n      0x4e487b7100000000000000000000000000000000000000000000000000000000\n        /* \"#utility.yul\":2666:2667   */\n      0x00\n        /* \"#utility.yul\":2659:2747   */\n      mstore\n        /* \"#utility.yul\":2766:2770   */\n      0x41\n        /* \"#utility.yul\":2763:2764   */\n      0x04\n        /* \"#utility.yul\":2756:2771   */\n      mstore\n        /* \"#utility.yul\":2790:2794   */\n      0x24\n        /* \"#utility.yul\":2787:2788   */\n      0x00\n        /* \"#utility.yul\":2780:2795   */\n      revert\n        /* \"#utility.yul\":2807:3088   */\n    tag_177:\n        /* \"#utility.yul\":2890:2917   */\n      tag_234\n        /* \"#utility.yul\":2912:2916   */\n      dup3\n        /* \"#utility.yul\":2890:2917   */\n      tag_175\n      jump\t// in\n    tag_234:\n        /* \"#utility.yul\":2882:2888   */\n      dup2\n        /* \"#utility.yul\":2878:2918   */\n      add\n        /* \"#utility.yul\":3020:3026   */\n      dup2\n        /* \"#utility.yul\":3008:3018   */\n      dup2\n        /* \"#utility.yul\":3005:3027   */\n      lt\n        /* \"#utility.yul\":2984:3002   */\n      0xffffffffffffffff\n        /* \"#utility.yul\":2972:2982   */\n      dup3\n        /* \"#utility.yul\":2969:3003   */\n      gt\n        /* \"#utility.yul\":2966:3028   */\n      or\n        /* \"#utility.yul\":2963:3051   */\n      iszero\n      tag_235\n      jumpi\n        /* \"#utility.yul\":3031:3049   */\n      tag_236\n      tag_176\n      jump\t// in\n    tag_236:\n        /* \"#utility.yul\":2963:3051   */\n    tag_235:\n        /* \"#utility.yul\":3071:3081   */\n      dup1\n        /* \"#utility.yul\":3067:3069   */\n      0x40\n        /* \"#utility.yul\":3060:3082   */\n      mstore\n        /* \"#utility.yul\":2850:3088   */\n      pop\n        /* \"#utility.yul\":2807:3088   */\n      pop\n      pop\n      jump\t// out\n        /* \"#utility.yul\":3094:3223   */\n    tag_178:\n        /* \"#utility.yul\":3128:3134   */\n      0x00\n        /* \"#utility.yul\":3155:3175   */\n      tag_238\n      tag_166\n      jump\t// in\n    tag_238:\n        /* \"#utility.yul\":3145:3175   */\n      swap1\n      pop\n        /* \"#utility.yul\":3184:3217   */\n      tag_239\n        /* \"#utility.yul\":3212:3216   */\n      dup3\n        /* \"#utility.yul\":3204:3210   */\n      dup3\n        /* \"#utility.yul\":3184:3217   */\n      tag_177\n      jump\t// in\n    tag_239:\n        /* \"#utility.yul\":3094:3223   */\n      swap2\n      swap1\n      pop\n      jump\t// out\n        /* \"#utility.yul\":3229:3540   */\n    tag_179:\n        /* \"#utility.yul\":3306:3310   */\n      0x00\n        /* \"#utility.yul\":3396:3414   */\n      0xffffffffffffffff\n        /* \"#utility.yul\":3388:3394   */\n      dup3\n        /* \"#utility.yul\":3385:3415   */\n      gt\n        /* \"#utility.yul\":3382:3438   */\n      iszero\n      tag_241\n      jumpi\n        /* \"#utility.yul\":3418:3436   */\n      tag_242\n      tag_176\n      jump\t// in\n    tag_242:\n        /* \"#utility.yul\":3382:3438   */\n    tag_241:\n        /* \"#utility.yul\":3468:3472   */\n      0x20\n        /* \"#utility.yul\":3460:3466   */\n      dup3\n        /* \"#utility.yul\":3456:3473   */\n      mul\n        /* \"#utility.yul\":3448:3473   */\n      swap1\n      pop\n        /* \"#utility.yul\":3528:3532   */\n      0x20\n        /* \"#utility.yul\":3522:3526   */\n      dup2\n        /* \"#utility.yul\":3518:3533   */\n      add\n        /* \"#utility.yul\":3510:3533   */\n      swap1\n      pop\n        /* \"#utility.yul\":3229:3540   */\n      swap2\n      swap1\n      pop\n      jump\t// out\n        /* \"#utility.yul\":3546:3663   */\n    tag_180:\n        /* \"#utility.yul\":3655:3656   */\n      0x00\n        /* \"#utility.yul\":3652:3653   */\n      0x00\n        /* \"#utility.yul\":3645:3657   */\n      revert\n        /* \"#utility.yul\":3686:4396   */\n    tag_181:\n        /* \"#utility.yul\":3782:3787   */\n      0x00\n        /* \"#utility.yul\":3807:3888   */\n      tag_245\n        /* \"#utility.yul\":3823:3887   */\n      tag_246\n        /* \"#utility.yul\":3880:3886   */\n      dup5\n        /* \"#utility.yul\":3823:3887   */\n      tag_179\n      jump\t// in\n    tag_246:\n        /* \"#utility.yul\":3807:3888   */\n      tag_178\n      jump\t// in\n    tag_245:\n        /* \"#utility.yul\":3798:3888   */\n      swap1\n      pop\n        /* \"#utility.yul\":3908:3913   */\n      dup1\n        /* \"#utility.yul\":3937:3943   */\n      dup4\n        /* \"#utility.yul\":3930:3935   */\n      dup3\n        /* \"#utility.yul\":3923:3944   */\n      mstore\n        /* \"#utility.yul\":3971:3975   */\n      0x20\n        /* \"#utility.yul\":3964:3969   */\n      dup3\n        /* \"#utility.yul\":3960:3976   */\n      add\n        /* \"#utility.yul\":3953:3976   */\n      swap1\n      pop\n        /* \"#utility.yul\":4024:4028   */\n      0x20\n        /* \"#utility.yul\":4016:4022   */\n      dup5\n        /* \"#utility.yul\":4012:4029   */\n      mul\n        /* \"#utility.yul\":4004:4010   */\n      dup4\n        /* \"#utility.yul\":4000:4030   */\n      add\n        /* \"#utility.yul\":4053:4056   */\n      dup6\n        /* \"#utility.yul\":4045:4051   */\n      dup2\n        /* \"#utility.yul\":4042:4057   */\n      gt\n        /* \"#utility.yul\":4039:4161   */\n      iszero\n      tag_247\n      jumpi\n        /* \"#utility.yul\":4072:4151   */\n      tag_248\n      tag_180\n      jump\t// in\n    tag_248:\n        /* \"#utility.yul\":4039:4161   */\n    tag_247:\n        /* \"#utility.yul\":4187:4193   */\n      dup4\n        /* \"#utility.yul\":4170:4390   */\n    tag_249:\n        /* \"#utility.yul\":4204:4210   */\n      dup2\n        /* \"#utility.yul\":4199:4202   */\n      dup2\n        /* \"#utility.yul\":4196:4211   */\n      lt\n        /* \"#utility.yul\":4170:4390   */\n      iszero\n      tag_251\n      jumpi\n        /* \"#utility.yul\":4279:4282   */\n      dup1\n        /* \"#utility.yul\":4308:4345   */\n      tag_252\n        /* \"#utility.yul\":4341:4344   */\n      dup9\n        /* \"#utility.yul\":4329:4339   */\n      dup3\n        /* \"#utility.yul\":4308:4345   */\n      tag_172\n      jump\t// in\n    tag_252:\n        /* \"#utility.yul\":4303:4306   */\n      dup5\n        /* \"#utility.yul\":4296:4346   */\n      mstore\n        /* \"#utility.yul\":4375:4379   */\n      0x20\n        /* \"#utility.yul\":4370:4373   */\n      dup5\n        /* \"#utility.yul\":4366:4380   */\n      add\n        /* \"#utility.yul\":4359:4380   */\n      swap4\n      pop\n        /* \"#utility.yul\":4246:4390   */\n      pop\n        /* \"#utility.yul\":4230:4234   */\n      0x20\n        /* \"#utility.yul\":4225:4228   */\n      dup2\n        /* \"#utility.yul\":4221:4235   */\n      add\n        /* \"#utility.yul\":4214:4235   */\n      swap1\n      pop\n        /* \"#utility.yul\":4170:4390   */\n      jump(tag_249)\n    tag_251:\n        /* \"#utility.yul\":4174:4195   */\n      pop\n        /* \"#utility.yul\":3788:4396   */\n      pop\n      pop\n        /* \"#utility.yul\":3686:4396   */\n      swap4\n      swap3\n      pop\n      pop\n      pop\n      jump\t// out\n        /* \"#utility.yul\":4419:4789   */\n    tag_182:\n        /* \"#utility.yul\":4490:4495   */\n      0x00\n        /* \"#utility.yul\":4539:4542   */\n      dup3\n        /* \"#utility.yul\":4532:4536   */\n      0x1f\n        /* \"#utility.yul\":4524:4530   */\n      dup4\n        /* \"#utility.yul\":4520:4537   */\n      add\n        /* \"#utility.yul\":4516:4543   */\n      slt\n        /* \"#utility.yul\":4506:4628   */\n      tag_254\n      jumpi\n        /* \"#utility.yul\":4547:4626   */\n      tag_255\n      tag_174\n      jump\t// in\n    tag_255:\n        /* \"#utility.yul\":4506:4628   */\n    tag_254:\n        /* \"#utility.yul\":4664:4670   */\n      dup2\n        /* \"#utility.yul\":4651:4671   */\n      calldataload\n        /* \"#utility.yul\":4689:4783   */\n      tag_256\n        /* \"#utility.yul\":4779:4782   */\n      dup5\n        /* \"#utility.yul\":4771:4777   */\n      dup3\n        /* \"#utility.yul\":4764:4768   */\n      0x20\n        /* \"#utility.yul\":4756:4762   */\n      dup7\n        /* \"#utility.yul\":4752:4769   */\n      add\n        /* \"#utility.yul\":4689:4783   */\n      tag_181\n      jump\t// in\n    tag_256:\n        /* \"#utility.yul\":4680:4783   */\n      swap2\n      pop\n        /* \"#utility.yul\":4496:4789   */\n      pop\n        /* \"#utility.yul\":4419:4789   */\n      swap3\n      swap2\n      pop\n      pop\n      jump\t// out\n        /* \"#utility.yul\":4795:5334   */\n    tag_75:\n        /* \"#utility.yul\":4879:4885   */\n      0x00\n        /* \"#utility.yul\":4928:4930   */\n      0x20\n        /* \"#utility.yul\":4916:4925   */\n      dup3\n        /* \"#utility.yul\":4907:4914   */\n      dup5\n        /* \"#utility.yul\":4903:4926   */\n      sub\n        /* \"#utility.yul\":4899:4931   */\n      slt\n        /* \"#utility.yul\":4896:5015   */\n      iszero\n      tag_258\n      jumpi\n        /* \"#utility.yul\":4934:5013   */\n      tag_259\n      tag_167\n      jump\t// in\n    tag_259:\n        /* \"#utility.yul\":4896:5015   */\n    tag_258:\n        /* \"#utility.yul\":5082:5083   */\n      0x00\n        /* \"#utility.yul\":5071:5080   */\n      dup3\n        /* \"#utility.yul\":5067:5084   */\n      add\n        /* \"#utility.yul\":5054:5085   */\n      calldataload\n        /* \"#utility.yul\":5112:5130   */\n      0xffffffffffffffff\n        /* \"#utility.yul\":5104:5110   */\n      dup2\n        /* \"#utility.yul\":5101:5131   */\n      gt\n        /* \"#utility.yul\":5098:5215   */\n      iszero\n      tag_260\n      jumpi\n        /* \"#utility.yul\":5134:5213   */\n      tag_261\n      tag_168\n      jump\t// in\n    tag_261:\n        /* \"#utility.yul\":5098:5215   */\n    tag_260:\n        /* \"#utility.yul\":5239:5317   */\n      tag_262\n        /* \"#utility.yul\":5309:5316   */\n      dup5\n        /* \"#utility.yul\":5300:5306   */\n      dup3\n        /* \"#utility.yul\":5289:5298   */\n      dup6\n        /* \"#utility.yul\":5285:5307   */\n      add\n        /* \"#utility.yul\":5239:5317   */\n      tag_182\n      jump\t// in\n    tag_262:\n        /* \"#utility.yul\":5229:5317   */\n      swap2\n      pop\n        /* \"#utility.yul\":5025:5327   */\n      pop\n        /* \"#utility.yul\":4795:5334   */\n      swap3\n      swap2\n      pop\n      pop\n      jump\t// out\n        /* \"#utility.yul\":5340:5520   */\n    tag_183:\n        /* \"#utility.yul\":5388:5465   */\n      0x4e487b7100000000000000000000000000000000000000000000000000000000\n        /* \"#utility.yul\":5385:5386   */\n      0x00\n        /* \"#utility.yul\":5378:5466   */\n      mstore\n        /* \"#utility.yul\":5485:5489   */\n      0x11\n        /* \"#utility.yul\":5482:5483   */\n      0x04\n        /* \"#utility.yul\":5475:5490   */\n      mstore\n        /* \"#utility.yul\":5509:5513   */\n      0x24\n        /* \"#utility.yul\":5506:5507   */\n      0x00\n        /* \"#utility.yul\":5499:5514   */\n      revert\n        /* \"#utility.yul\":5526:5720   */\n    tag_80:\n        /* \"#utility.yul\":5566:5570   */\n      0x00\n        /* \"#utility.yul\":5586:5606   */\n      tag_265\n        /* \"#utility.yul\":5604:5605   */\n      dup3\n        /* \"#utility.yul\":5586:5606   */\n      tag_164\n      jump\t// in\n    tag_265:\n        /* \"#utility.yul\":5581:5606   */\n      swap2\n      pop\n        /* \"#utility.yul\":5620:5640   */\n      tag_266\n        /* \"#utility.yul\":5638:5639   */\n      dup4\n        /* \"#utility.yul\":5620:5640   */\n      tag_164\n      jump\t// in\n    tag_266:\n        /* \"#utility.yul\":5615:5640   */\n      swap3\n      pop\n        /* \"#utility.yul\":5664:5665   */\n      dup3\n        /* \"#utility.yul\":5661:5662   */\n      dup3\n        /* \"#utility.yul\":5657:5666   */\n      sub\n        /* \"#utility.yul\":5649:5666   */\n      swap1\n      pop\n        /* \"#utility.yul\":5688:5689   */\n      dup2\n        /* \"#utility.yul\":5682:5686   */\n      dup2\n        /* \"#utility.yul\":5679:5690   */\n      gt\n        /* \"#utility.yul\":5676:5713   */\n      iszero\n      tag_267\n      jumpi\n        /* \"#utility.yul\":5693:5711   */\n      tag_268\n      tag_183\n      jump\t// in\n    tag_268:\n        /* \"#utility.yul\":5676:5713   */\n    tag_267:\n        /* \"#utility.yul\":5526:5720   */\n      swap3\n      swap2\n      pop\n      pop\n      jump\t// out\n        /* \"#utility.yul\":5726:5895   */\n    tag_184:\n        /* \"#utility.yul\":5810:5821   */\n      0x00\n        /* \"#utility.yul\":5844:5850   */\n      dup3\n        /* \"#utility.yul\":5839:5842   */\n      dup3\n        /* \"#utility.yul\":5832:5851   */\n      mstore\n        /* \"#utility.yul\":5884:5888   */\n      0x20\n        /* \"#utility.yul\":5879:5882   */\n      dup3\n        /* \"#utility.yul\":5875:5889   */\n      add\n        /* \"#utility.yul\":5860:5889   */\n      swap1\n      pop\n        /* \"#utility.yul\":5726:5895   */\n      swap3\n      swap2\n      pop\n      pop\n      jump\t// out\n        /* \"#utility.yul\":5901:6115   */\n    tag_185:\n        /* \"#utility.yul\":6041:6107   */\n      0xe4bc97e7adb9e5b09ae69caae7bb93e69d9f0000000000000000000000000000\n        /* \"#utility.yul\":6037:6038   */\n      0x00\n        /* \"#utility.yul\":6029:6035   */\n      dup3\n        /* \"#utility.yul\":6025:6039   */\n      add\n        /* \"#utility.yul\":6018:6108   */\n      mstore\n        /* \"#utility.yul\":5901:6115   */\n      pop\n      jump\t// out\n        /* \"#utility.yul\":6121:6487   */\n    tag_186:\n        /* \"#utility.yul\":6263:6266   */\n      0x00\n        /* \"#utility.yul\":6284:6351   */\n      tag_272\n        /* \"#utility.yul\":6348:6350   */\n      0x12\n        /* \"#utility.yul\":6343:6346   */\n      dup4\n        /* \"#utility.yul\":6284:6351   */\n      tag_184\n      jump\t// in\n    tag_272:\n        /* \"#utility.yul\":6277:6351   */\n      swap2\n      pop\n        /* \"#utility.yul\":6360:6453   */\n      tag_273\n        /* \"#utility.yul\":6449:6452   */\n      dup3\n        /* \"#utility.yul\":6360:6453   */\n      tag_185\n      jump\t// in\n    tag_273:\n        /* \"#utility.yul\":6478:6480   */\n      0x20\n        /* \"#utility.yul\":6473:6476   */\n      dup3\n        /* \"#utility.yul\":6469:6481   */\n      add\n        /* \"#utility.yul\":6462:6481   */\n      swap1\n      pop\n        /* \"#utility.yul\":6121:6487   */\n      swap2\n      swap1\n      pop\n      jump\t// out\n        /* \"#utility.yul\":6493:6912   */\n    tag_87:\n        /* \"#utility.yul\":6659:6663   */\n      0x00\n        /* \"#utility.yul\":6697:6699   */\n      0x20\n        /* \"#utility.yul\":6686:6695   */\n      dup3\n        /* \"#utility.yul\":6682:6700   */\n      add\n        /* \"#utility.yul\":6674:6700   */\n      swap1\n      pop\n        /* \"#utility.yul\":6746:6755   */\n      dup2\n        /* \"#utility.yul\":6740:6744   */\n      dup2\n        /* \"#utility.yul\":6736:6756   */\n      sub\n        /* \"#utility.yul\":6732:6733   */\n      0x00\n        /* \"#utility.yul\":6721:6730   */\n      dup4\n        /* \"#utility.yul\":6717:6734   */\n      add\n        /* \"#utility.yul\":6710:6757   */\n      mstore\n        /* \"#utility.yul\":6774:6905   */\n      tag_275\n        /* \"#utility.yul\":6900:6904   */\n      dup2\n        /* \"#utility.yul\":6774:6905   */\n      tag_186\n      jump\t// in\n    tag_275:\n        /* \"#utility.yul\":6766:6905   */\n      swap1\n      pop\n        /* \"#utility.yul\":6493:6912   */\n      swap2\n      swap1\n      pop\n      jump\t// out\n        /* \"#utility.yul\":6918:7250   */\n    tag_90:\n        /* \"#utility.yul\":7039:7043   */\n      0x00\n        /* \"#utility.yul\":7077:7079   */\n      0x40\n        /* \"#utility.yul\":7066:7075   */\n      dup3\n        /* \"#utility.yul\":7062:7080   */\n      add\n        /* \"#utility.yul\":7054:7080   */\n      swap1\n      pop\n        /* \"#utility.yul\":7090:7161   */\n      tag_277\n        /* \"#utility.yul\":7158:7159   */\n      0x00\n        /* \"#utility.yul\":7147:7156   */\n      dup4\n        /* \"#utility.yul\":7143:7160   */\n      add\n        /* \"#utility.yul\":7134:7140   */\n      dup6\n        /* \"#utility.yul\":7090:7161   */\n      tag_165\n      jump\t// in\n    tag_277:\n        /* \"#utility.yul\":7171:7243   */\n      tag_278\n        /* \"#utility.yul\":7239:7241   */\n      0x20\n        /* \"#utility.yul\":7228:7237   */\n      dup4\n        /* \"#utility.yul\":7224:7242   */\n      add\n        /* \"#utility.yul\":7215:7221   */\n      dup5\n        /* \"#utility.yul\":7171:7243   */\n      tag_165\n      jump\t// in\n    tag_278:\n        /* \"#utility.yul\":6918:7250   */\n      swap4\n      swap3\n      pop\n      pop\n      pop\n      jump\t// out\n        /* \"#utility.yul\":7256:7470   */\n    tag_187:\n        /* \"#utility.yul\":7396:7462   */\n      0xe6b2a1e69c89e58fafe68f90e58f96e79a84e8b584e987910000000000000000\n        /* \"#utility.yul\":7392:7393   */\n      0x00\n        /* \"#utility.yul\":7384:7390   */\n      dup3\n        /* \"#utility.yul\":7380:7394   */\n      add\n        /* \"#utility.yul\":7373:7463   */\n      mstore\n        /* \"#utility.yul\":7256:7470   */\n      pop\n      jump\t// out\n        /* \"#utility.yul\":7476:7842   */\n    tag_188:\n        /* \"#utility.yul\":7618:7621   */\n      0x00\n        /* \"#utility.yul\":7639:7706   */\n      tag_281\n        /* \"#utility.yul\":7703:7705   */\n      0x18\n        /* \"#utility.yul\":7698:7701   */\n      dup4\n        /* \"#utility.yul\":7639:7706   */\n      tag_184\n      jump\t// in\n    tag_281:\n        /* \"#utility.yul\":7632:7706   */\n      swap2\n      pop\n        /* \"#utility.yul\":7715:7808   */\n      tag_282\n        /* \"#utility.yul\":7804:7807   */\n      dup3\n        /* \"#utility.yul\":7715:7808   */\n      tag_187\n      jump\t// in\n    tag_282:\n        /* \"#utility.yul\":7833:7835   */\n      0x20\n        /* \"#utility.yul\":7828:7831   */\n      dup3\n        /* \"#utility.yul\":7824:7836   */\n      add\n        /* \"#utility.yul\":7817:7836   */\n      swap1\n      pop\n        /* \"#utility.yul\":7476:7842   */\n      swap2\n      swap1\n      pop\n      jump\t// out\n        /* \"#utility.yul\":7848:8267   */\n    tag_93:\n        /* \"#utility.yul\":8014:8018   */\n      0x00\n        /* \"#utility.yul\":8052:8054   */\n      0x20\n        /* \"#utility.yul\":8041:8050   */\n      dup3\n        /* \"#utility.yul\":8037:8055   */\n      add\n        /* \"#utility.yul\":8029:8055   */\n      swap1\n      pop\n        /* \"#utility.yul\":8101:8110   */\n      dup2\n        /* \"#utility.yul\":8095:8099   */\n      dup2\n        /* \"#utility.yul\":8091:8111   */\n      sub\n        /* \"#utility.yul\":8087:8088   */\n      0x00\n        /* \"#utility.yul\":8076:8085   */\n      dup4\n        /* \"#utility.yul\":8072:8089   */\n      add\n        /* \"#utility.yul\":8065:8112   */\n      mstore\n        /* \"#utility.yul\":8129:8260   */\n      tag_284\n        /* \"#utility.yul\":8255:8259   */\n      dup2\n        /* \"#utility.yul\":8129:8260   */\n      tag_188\n      jump\t// in\n    tag_284:\n        /* \"#utility.yul\":8121:8260   */\n      swap1\n      pop\n        /* \"#utility.yul\":7848:8267   */\n      swap2\n      swap1\n      pop\n      jump\t// out\n        /* \"#utility.yul\":8273:8420   */\n    tag_189:\n        /* \"#utility.yul\":8374:8385   */\n      0x00\n        /* \"#utility.yul\":8411:8414   */\n      dup2\n        /* \"#utility.yul\":8396:8414   */\n      swap1\n      pop\n        /* \"#utility.yul\":8273:8420   */\n      swap3\n      swap2\n      pop\n      pop\n      jump\t// out\n        /* \"#utility.yul\":8426:8540   */\n    tag_190:\n      pop\n      jump\t// out\n        /* \"#utility.yul\":8546:8944   */\n    tag_191:\n        /* \"#utility.yul\":8705:8708   */\n      0x00\n        /* \"#utility.yul\":8726:8809   */\n      tag_288\n        /* \"#utility.yul\":8807:8808   */\n      0x00\n        /* \"#utility.yul\":8802:8805   */\n      dup4\n        /* \"#utility.yul\":8726:8809   */\n      tag_189\n      jump\t// in\n    tag_288:\n        /* \"#utility.yul\":8719:8809   */\n      swap2\n      pop\n        /* \"#utility.yul\":8818:8911   */\n      tag_289\n        /* \"#utility.yul\":8907:8910   */\n      dup3\n        /* \"#utility.yul\":8818:8911   */\n      tag_190\n      jump\t// in\n    tag_289:\n        /* \"#utility.yul\":8936:8937   */\n      0x00\n        /* \"#utility.yul\":8931:8934   */\n      dup3\n        /* \"#utility.yul\":8927:8938   */\n      add\n        /* \"#utility.yul\":8920:8938   */\n      swap1\n      pop\n        /* \"#utility.yul\":8546:8944   */\n      swap2\n      swap1\n      pop\n      jump\t// out\n        /* \"#utility.yul\":8950:9329   */\n    tag_95:\n        /* \"#utility.yul\":9134:9137   */\n      0x00\n        /* \"#utility.yul\":9156:9303   */\n      tag_291\n        /* \"#utility.yul\":9299:9302   */\n      dup3\n        /* \"#utility.yul\":9156:9303   */\n      tag_191\n      jump\t// in\n    tag_291:\n        /* \"#utility.yul\":9149:9303   */\n      swap2\n      pop\n        /* \"#utility.yul\":9320:9323   */\n      dup2\n        /* \"#utility.yul\":9313:9323   */\n      swap1\n      pop\n        /* \"#utility.yul\":8950:9329   */\n      swap2\n      swap1\n      pop\n      jump\t// out\n        /* \"#utility.yul\":9335:9549   */\n    tag_192:\n        /* \"#utility.yul\":9475:9541   */\n      0xe6b2a1e69c89e8b4a1e78cae0000000000000000000000000000000000000000\n        /* \"#utility.yul\":9471:9472   */\n      0x00\n        /* \"#utility.yul\":9463:9469   */\n      dup3\n        /* \"#utility.yul\":9459:9473   */\n      add\n        /* \"#utility.yul\":9452:9542   */\n      mstore\n        /* \"#utility.yul\":9335:9549   */\n      pop\n      jump\t// out\n        /* \"#utility.yul\":9555:9921   */\n    tag_193:\n        /* \"#utility.yul\":9697:9700   */\n      0x00\n        /* \"#utility.yul\":9718:9785   */\n      tag_294\n        /* \"#utility.yul\":9782:9784   */\n      0x0c\n        /* \"#utility.yul\":9777:9780   */\n      dup4\n        /* \"#utility.yul\":9718:9785   */\n      tag_184\n      jump\t// in\n    tag_294:\n        /* \"#utility.yul\":9711:9785   */\n      swap2\n      pop\n        /* \"#utility.yul\":9794:9887   */\n      tag_295\n        /* \"#utility.yul\":9883:9886   */\n      dup3\n        /* \"#utility.yul\":9794:9887   */\n      tag_192\n      jump\t// in\n    tag_295:\n        /* \"#utility.yul\":9912:9914   */\n      0x20\n        /* \"#utility.yul\":9907:9910   */\n      dup3\n        /* \"#utility.yul\":9903:9915   */\n      add\n        /* \"#utility.yul\":9896:9915   */\n      swap1\n      pop\n        /* \"#utility.yul\":9555:9921   */\n      swap2\n      swap1\n      pop\n      jump\t// out\n        /* \"#utility.yul\":9927:10346   */\n    tag_107:\n        /* \"#utility.yul\":10093:10097   */\n      0x00\n        /* \"#utility.yul\":10131:10133   */\n      0x20\n        /* \"#utility.yul\":10120:10129   */\n      dup3\n        /* \"#utility.yul\":10116:10134   */\n      add\n        /* \"#utility.yul\":10108:10134   */\n      swap1\n      pop\n        /* \"#utility.yul\":10180:10189   */\n      dup2\n        /* \"#utility.yul\":10174:10178   */\n      dup2\n        /* \"#utility.yul\":10170:10190   */\n      sub\n        /* \"#utility.yul\":10166:10167   */\n      0x00\n        /* \"#utility.yul\":10155:10164   */\n      dup4\n        /* \"#utility.yul\":10151:10168   */\n      add\n        /* \"#utility.yul\":10144:10191   */\n      mstore\n        /* \"#utility.yul\":10208:10339   */\n      tag_297\n        /* \"#utility.yul\":10334:10338   */\n      dup2\n        /* \"#utility.yul\":10208:10339   */\n      tag_193\n      jump\t// in\n    tag_297:\n        /* \"#utility.yul\":10200:10339   */\n      swap1\n      pop\n        /* \"#utility.yul\":9927:10346   */\n      swap2\n      swap1\n      pop\n      jump\t// out\n        /* \"#utility.yul\":10352:10566   */\n    tag_194:\n        /* \"#utility.yul\":10492:10558   */\n      0xe4bc97e7adb9e5b7b2e7bb8fe7bb93e69d9f0000000000000000000000000000\n        /* \"#utility.yul\":10488:10489   */\n      0x00\n        /* \"#utility.yul\":10480:10486   */\n      dup3\n        /* \"#utility.yul\":10476:10490   */\n      add\n        /* \"#utility.yul\":10469:10559   */\n      mstore\n        /* \"#utility.yul\":10352:10566   */\n      pop\n      jump\t// out\n        /* \"#utility.yul\":10572:10938   */\n    tag_195:\n        /* \"#utility.yul\":10714:10717   */\n      0x00\n        /* \"#utility.yul\":10735:10802   */\n      tag_300\n        /* \"#utility.yul\":10799:10801   */\n      0x12\n        /* \"#utility.yul\":10794:10797   */\n      dup4\n        /* \"#utility.yul\":10735:10802   */\n      tag_184\n      jump\t// in\n    tag_300:\n        /* \"#utility.yul\":10728:10802   */\n      swap2\n      pop\n        /* \"#utility.yul\":10811:10904   */\n      tag_301\n        /* \"#utility.yul\":10900:10903   */\n      dup3\n        /* \"#utility.yul\":10811:10904   */\n      tag_194\n      jump\t// in\n    tag_301:\n        /* \"#utility.yul\":10929:10931   */\n      0x20\n        /* \"#utility.yul\":10924:10927   */\n      dup3\n        /* \"#utility.yul\":10920:10932   */\n      add\n        /* \"#utility.yul\":10913:10932   */\n      swap1\n      pop\n        /* \"#utility.yul\":10572:10938   */\n      swap2\n      swap1\n      pop\n      jump\t// out\n        /* \"#utility.yul\":10944:11363   */\n    tag_121:\n        /* \"#utility.yul\":11110:11114   */\n      0x00\n        /* \"#utility.yul\":11148:11150   */\n      0x20\n        /* \"#utility.yul\":11137:11146   */\n      dup3\n        /* \"#utility.yul\":11133:11151   */\n      add\n        /* \"#utility.yul\":11125:11151   */\n      swap1\n      pop\n        /* \"#utility.yul\":11197:11206   */\n      dup2\n        /* \"#utility.yul\":11191:11195   */\n      dup2\n        /* \"#utility.yul\":11187:11207   */\n      sub\n        /* \"#utility.yul\":11183:11184   */\n      0x00\n        /* \"#utility.yul\":11172:11181   */\n      dup4\n        /* \"#utility.yul\":11168:11185   */\n      add\n        /* \"#utility.yul\":11161:11208   */\n      mstore\n        /* \"#utility.yul\":11225:11356   */\n      tag_303\n        /* \"#utility.yul\":11351:11355   */\n      dup2\n        /* \"#utility.yul\":11225:11356   */\n      tag_195\n      jump\t// in\n    tag_303:\n        /* \"#utility.yul\":11217:11356   */\n      swap1\n      pop\n        /* \"#utility.yul\":10944:11363   */\n      swap2\n      swap1\n      pop\n      jump\t// out\n        /* \"#utility.yul\":11369:11560   */\n    tag_130:\n        /* \"#utility.yul\":11409:11412   */\n      0x00\n        /* \"#utility.yul\":11428:11448   */\n      tag_305\n        /* \"#utility.yul\":11446:11447   */\n      dup3\n        /* \"#utility.yul\":11428:11448   */\n      tag_164\n      jump\t// in\n    tag_305:\n        /* \"#utility.yul\":11423:11448   */\n      swap2\n      pop\n        /* \"#utility.yul\":11462:11482   */\n      tag_306\n        /* \"#utility.yul\":11480:11481   */\n      dup4\n        /* \"#utility.yul\":11462:11482   */\n      tag_164\n      jump\t// in\n    tag_306:\n        /* \"#utility.yul\":11457:11482   */\n      swap3\n      pop\n        /* \"#utility.yul\":11505:11506   */\n      dup3\n        /* \"#utility.yul\":11502:11503   */\n      dup3\n        /* \"#utility.yul\":11498:11507   */\n      add\n        /* \"#utility.yul\":11491:11507   */\n      swap1\n      pop\n        /* \"#utility.yul\":11526:11529   */\n      dup1\n        /* \"#utility.yul\":11523:11524   */\n      dup3\n        /* \"#utility.yul\":11520:11530   */\n      gt\n        /* \"#utility.yul\":11517:11553   */\n      iszero\n      tag_307\n      jumpi\n        /* \"#utility.yul\":11533:11551   */\n      tag_308\n      tag_183\n      jump\t// in\n    tag_308:\n        /* \"#utility.yul\":11517:11553   */\n    tag_307:\n        /* \"#utility.yul\":11369:11560   */\n      swap3\n      swap2\n      pop\n      pop\n      jump\t// out\n        /* \"#utility.yul\":11566:11780   */\n    tag_196:\n        /* \"#utility.yul\":11706:11772   */\n      0xe79baee6a087e5b7b2e8bebee68890efbc8ce4b88de883bde98080e6acbe0000\n        /* \"#utility.yul\":11702:11703   */\n      0x00\n        /* \"#utility.yul\":11694:11700   */\n      dup3\n        /* \"#utility.yul\":11690:11704   */\n      add\n        /* \"#utility.yul\":11683:11773   */\n      mstore\n        /* \"#utility.yul\":11566:11780   */\n      pop\n      jump\t// out\n        /* \"#utility.yul\":11786:12152   */\n    tag_197:\n        /* \"#utility.yul\":11928:11931   */\n      0x00\n        /* \"#utility.yul\":11949:12016   */\n      tag_311\n        /* \"#utility.yul\":12013:12015   */\n      0x1e\n        /* \"#utility.yul\":12008:12011   */\n      dup4\n        /* \"#utility.yul\":11949:12016   */\n      tag_184\n      jump\t// in\n    tag_311:\n        /* \"#utility.yul\":11942:12016   */\n      swap2\n      pop\n        /* \"#utility.yul\":12025:12118   */\n      tag_312\n        /* \"#utility.yul\":12114:12117   */\n      dup3\n        /* \"#utility.yul\":12025:12118   */\n      tag_196\n      jump\t// in\n    tag_312:\n        /* \"#utility.yul\":12143:12145   */\n      0x20\n        /* \"#utility.yul\":12138:12141   */\n      dup3\n        /* \"#utility.yul\":12134:12146   */\n      add\n        /* \"#utility.yul\":12127:12146   */\n      swap1\n      pop\n        /* \"#utility.yul\":11786:12152   */\n      swap2\n      swap1\n      pop\n      jump\t// out\n        /* \"#utility.yul\":12158:12577   */\n    tag_144:\n        /* \"#utility.yul\":12324:12328   */\n      0x00\n        /* \"#utility.yul\":12362:12364   */\n      0x20\n        /* \"#utility.yul\":12351:12360   */\n      dup3\n        /* \"#utility.yul\":12347:12365   */\n      add\n        /* \"#utility.yul\":12339:12365   */\n      swap1\n      pop\n        /* \"#utility.yul\":12411:12420   */\n      dup2\n        /* \"#utility.yul\":12405:12409   */\n      dup2\n        /* \"#utility.yul\":12401:12421   */\n      sub\n        /* \"#utility.yul\":12397:12398   */\n      0x00\n        /* \"#utility.yul\":12386:12395   */\n      dup4\n        /* \"#utility.yul\":12382:12399   */\n      add\n        /* \"#utility.yul\":12375:12422   */\n      mstore\n        /* \"#utility.yul\":12439:12570   */\n      tag_314\n        /* \"#utility.yul\":12565:12569   */\n      dup2\n        /* \"#utility.yul\":12439:12570   */\n      tag_197\n      jump\t// in\n    tag_314:\n        /* \"#utility.yul\":12431:12570   */\n      swap1\n      pop\n        /* \"#utility.yul\":12158:12577   */\n      swap2\n      swap1\n      pop\n      jump\t// out\n        /* \"#utility.yul\":12583:12763   */\n    tag_150:\n        /* \"#utility.yul\":12631:12708   */\n      0x4e487b7100000000000000000000000000000000000000000000000000000000\n        /* \"#utility.yul\":12628:12629   */\n      0x00\n        /* \"#utility.yul\":12621:12709   */\n      mstore\n        /* \"#utility.yul\":12728:12732   */\n      0x32\n        /* \"#utility.yul\":12725:12726   */\n      0x04\n        /* \"#utility.yul\":12718:12733   */\n      mstore\n        /* \"#utility.yul\":12752:12756   */\n      0x24\n        /* \"#utility.yul\":12749:12750   */\n      0x00\n        /* \"#utility.yul\":12742:12757   */\n      revert\n        /* \"#utility.yul\":12769:12934   */\n    tag_198:\n        /* \"#utility.yul\":12909:12926   */\n      0x5472616e73666572206661696c65640000000000000000000000000000000000\n        /* \"#utility.yul\":12905:12906   */\n      0x00\n        /* \"#utility.yul\":12897:12903   */\n      dup3\n        /* \"#utility.yul\":12893:12907   */\n      add\n        /* \"#utility.yul\":12886:12927   */\n      mstore\n        /* \"#utility.yul\":12769:12934   */\n      pop\n      jump\t// out\n        /* \"#utility.yul\":12940:13306   */\n    tag_199:\n        /* \"#utility.yul\":13082:13085   */\n      0x00\n        /* \"#utility.yul\":13103:13170   */\n      tag_318\n        /* \"#utility.yul\":13167:13169   */\n      0x0f\n        /* \"#utility.yul\":13162:13165   */\n      dup4\n        /* \"#utility.yul\":13103:13170   */\n      tag_184\n      jump\t// in\n    tag_318:\n        /* \"#utility.yul\":13096:13170   */\n      swap2\n      pop\n        /* \"#utility.yul\":13179:13272   */\n      tag_319\n        /* \"#utility.yul\":13268:13271   */\n      dup3\n        /* \"#utility.yul\":13179:13272   */\n      tag_198\n      jump\t// in\n    tag_319:\n        /* \"#utility.yul\":13297:13299   */\n      0x20\n        /* \"#utility.yul\":13292:13295   */\n      dup3\n        /* \"#utility.yul\":13288:13300   */\n      add\n        /* \"#utility.yul\":13281:13300   */\n      swap1\n      pop\n        /* \"#utility.yul\":12940:13306   */\n      swap2\n      swap1\n      pop\n      jump\t// out\n        /* \"#utility.yul\":13312:13841   */\n    tag_161:\n        /* \"#utility.yul\":13506:13510   */\n      0x00\n        /* \"#utility.yul\":13544:13546   */\n      0x40\n        /* \"#utility.yul\":13533:13542   */\n      dup3\n        /* \"#utility.yul\":13529:13547   */\n      add\n        /* \"#utility.yul\":13521:13547   */\n      swap1\n      pop\n        /* \"#utility.yul\":13557:13628   */\n      tag_321\n        /* \"#utility.yul\":13625:13626   */\n      0x00\n        /* \"#utility.yul\":13614:13623   */\n      dup4\n        /* \"#utility.yul\":13610:13627   */\n      add\n        /* \"#utility.yul\":13601:13607   */\n      dup5\n        /* \"#utility.yul\":13557:13628   */\n      tag_165\n      jump\t// in\n    tag_321:\n        /* \"#utility.yul\":13675:13684   */\n      dup2\n        /* \"#utility.yul\":13669:13673   */\n      dup2\n        /* \"#utility.yul\":13665:13685   */\n      sub\n        /* \"#utility.yul\":13660:13662   */\n      0x20\n        /* \"#utility.yul\":13649:13658   */\n      dup4\n        /* \"#utility.yul\":13645:13663   */\n      add\n        /* \"#utility.yul\":13638:13686   */\n      mstore\n        /* \"#utility.yul\":13703:13834   */\n      tag_322\n        /* \"#utility.yul\":13829:13833   */\n      dup2\n        /* \"#utility.yul\":13703:13834   */\n      tag_199\n      jump\t// in\n    tag_322:\n        /* \"#utility.yul\":13695:13834   */\n      swap1\n      pop\n        /* \"#utility.yul\":13312:13841   */\n      swap3\n      swap2\n      pop\n      pop\n      jump\t// out\n\n    auxdata: 0xa26469706673582212207e60e0a0ea940ec127fa0bba64fa0c65ca9803d553904ae5e5cce18627f8f3e264736f6c634300081f0033\n}\n",
				"bytecode": {
					"linkReferences": {},
					"object": "608060405234801561000f575f5ffd5b50604051611a7c380380611a7c8339818101604052810190610031919061014b565b5f8211610073576040517f08c379a000000000000000000000000000000000000000000000000000000000815260040161006a906101e3565b60405180910390fd5b5f81116100b5576040517f08c379a00000000000000000000000000000000000000000000000000000000081526004016100ac9061024b565b60405180910390fd5b335f5f6101000a81548173ffffffffffffffffffffffffffffffffffffffff021916908373ffffffffffffffffffffffffffffffffffffffff1602179055508160018190555080426101079190610296565b60028190555050506102c9565b5f5ffd5b5f819050919050565b61012a81610118565b8114610134575f5ffd5b50565b5f8151905061014581610121565b92915050565b5f5f6040838503121561016157610160610114565b5b5f61016e85828601610137565b925050602061017f85828601610137565b9150509250929050565b5f82825260208201905092915050565b7fe79baee6a087e98791e9a29de5bf85e9a1bbe5a4a7e4ba8e30000000000000005f82015250565b5f6101cd601983610189565b91506101d882610199565b602082019050919050565b5f6020820190508181035f8301526101fa816101c1565b9050919050565b7fe68c81e7bbade697b6e997b4e5bf85e9a1bbe5a4a7e4ba8e30000000000000005f82015250565b5f610235601983610189565b915061024082610201565b602082019050919050565b5f6020820190508181035f83015261026281610229565b9050919050565b7f4e487b71000000000000000000000000000000000000000000000000000000005f52601160045260245ffd5b5f6102a082610118565b91506102ab83610118565b92508282019050808211156102c3576102c2610269565b5b92915050565b6117a6806102d65f395ff3fe6080604052600436106100dc575f3560e01c806371aac7f91161007e578063c033a49011610058578063c033a4901461025a578063c5c4744c14610296578063d7bb99ba146102c0578063fff96005146102ca576100dc565b806371aac7f9146101f05780637d3d6522146102065780638da5cb5b14610230576100dc565b80633ccfd60b116100ba5780633ccfd60b1461015e578063401938831461017457806342e94c901461019e578063590e1ae3146101da576100dc565b806312fa6feb146100e05780631300a6d11461010a57806329dcb0cf14610134575b5f5ffd5b3480156100eb575f5ffd5b506100f46102f2565b604051610101919061111b565b60405180910390f35b348015610115575f5ffd5b5061011e610304565b60405161012b919061114c565b60405180910390f35b34801561013f575f5ffd5b5061014861032a565b604051610155919061114c565b60405180910390f35b348015610169575f5ffd5b50610172610330565b005b34801561017f575f5ffd5b506101886105dc565b604051610195919061114c565b60405180910390f35b3480156101a9575f5ffd5b506101c460048036038101906101bf91906111d0565b6105e2565b6040516101d1919061114c565b60405180910390f35b3480156101e5575f5ffd5b506101ee6105f7565b005b3480156101fb575f5ffd5b50610204610988565b005b348015610211575f5ffd5b5061021a610a5f565b604051610227919061111b565b60405180910390f35b34801561023b575f5ffd5b50610244610a72565b604051610251919061120a565b60405180910390f35b348015610265575f5ffd5b50610280600480360381019061027b91906111d0565b610a96565b60405161028d919061111b565b60405180910390f35b3480156102a1575f5ffd5b506102aa610ab3565b6040516102b7919061114c565b60405180910390f35b6102c8610ab9565b005b3480156102d5575f5ffd5b506102f060048036038101906102eb9190611373565b610cb4565b005b60045f9054906101000a900460ff1681565b5f6002544210610316575f9050610327565b4260025461032491906113e7565b90505b90565b60025481565b5f5f9054906101000a900473ffffffffffffffffffffffffffffffffffffffff1673ffffffffffffffffffffffffffffffffffffffff163373ffffffffffffffffffffffffffffffffffffffff16146103c057336040517f8e4a23d60000000000000000000000000000000000000000000000000000000081526004016103b7919061120a565b60405180910390fd5b60045f9054906101000a900460ff1661040e576040517f08c379a000000000000000000000000000000000000000000000000000000000815260040161040590611474565b60405180910390fd5b600460019054906101000a900460ff16610465576003546001546040517f29f0233400000000000000000000000000000000000000000000000000000000815260040161045c929190611492565b60405180910390fd5b5f4790505f81116104ab576040517f08c379a00000000000000000000000000000000000000000000000000000000081526004016104a290611503565b60405180910390fd5b5f5f5f9054906101000a900473ffffffffffffffffffffffffffffffffffffffff1673ffffffffffffffffffffffffffffffffffffffff16826040516104f09061154e565b5f6040518083038185875af1925050503d805f811461052a576040519150601f19603f3d011682016040523d82523d5f602084013e61052f565b606091505b505090508061056a576040517f27fcd9d100000000000000000000000000000000000000000000000000000000815260040160405180910390fd5b5f5f9054906101000a900473ffffffffffffffffffffffffffffffffffffffff1673ffffffffffffffffffffffffffffffffffffffff167f7fcf532c15f0a6db0bd6d0e038bea71d30d808c7d98cb3bf7268a95bf5081b65836040516105d0919061114c565b60405180910390a25050565b60015481565b6005602052805f5260405f205f915090505481565b60045f9054906101000a900460ff16610645576040517f08c379a000000000000000000000000000000000000000000000000000000000815260040161063c90611474565b60405180910390fd5b600460019054906101000a900460ff161561068c576040517f8cb8251e00000000000000000000000000000000000000000000000000000000815260040160405180910390fd5b5f60055f3373ffffffffffffffffffffffffffffffffffffffff1673ffffffffffffffffffffffffffffffffffffffff1681526020019081526020015f205490505f811161070f576040517f08c379a0000000000000000000000000000000000000000000000000000000008152600401610706906115ac565b60405180910390fd5b60065f3373ffffffffffffffffffffffffffffffffffffffff1673ffffffffffffffffffffffffffffffffffffffff1681526020019081526020015f205f9054906101000a900460ff161561079b57336040517f086735f5000000000000000000000000000000000000000000000000000000008152600401610792919061120a565b60405180910390fd5b5f60055f3373ffffffffffffffffffffffffffffffffffffffff1673ffffffffffffffffffffffffffffffffffffffff1681526020019081526020015f2081905550600160065f3373ffffffffffffffffffffffffffffffffffffffff1673ffffffffffffffffffffffffffffffffffffffff1681526020019081526020015f205f6101000a81548160ff0219169083151502179055505f3373ffffffffffffffffffffffffffffffffffffffff16826040516108579061154e565b5f6040518083038185875af1925050503d805f8114610891576040519150601f19603f3d011682016040523d82523d5f602084013e610896565b606091505b5050905080610936578160055f3373ffffffffffffffffffffffffffffffffffffffff1673ffffffffffffffffffffffffffffffffffffffff1681526020019081526020015f20819055505f60065f3373ffffffffffffffffffffffffffffffffffffffff1673ffffffffffffffffffffffffffffffffffffffff1681526020019081526020015f205f6101000a81548160ff0219169083151502179055505b3373ffffffffffffffffffffffffffffffffffffffff167fbb28353e4598c3b9199101a66e0989549b659a59a54d2c27fbb183f1932c8e6d8360405161097c919061114c565b60405180910390a25050565b6002544210156109cd576040517f08c379a00000000000000000000000000000000000000000000000000000000081526004016109c490611474565b60405180910390fd5b60045f9054906101000a900460ff1615610a1c576040517f08c379a0000000000000000000000000000000000000000000000000000000008152600401610a1390611614565b60405180910390fd5b600160045f6101000a81548160ff02191690831515021790555060015460035410610a5d576001600460016101000a81548160ff0219169083151502179055505b565b600460019054906101000a900460ff1681565b5f5f9054906101000a900473ffffffffffffffffffffffffffffffffffffffff1681565b6006602052805f5260405f205f915054906101000a900460ff1681565b60035481565b60045f9054906101000a900460ff1615610aff576040517f287e67e700000000000000000000000000000000000000000000000000000000815260040160405180910390fd5b6002544210610b3a576040517f433528b600000000000000000000000000000000000000000000000000000000815260040160405180910390fd5b5f3403610b7e57346040517f3728b83d000000000000000000000000000000000000000000000000000000008152600401610b75919061114c565b60405180910390fd5b3460055f3373ffffffffffffffffffffffffffffffffffffffff1673ffffffffffffffffffffffffffffffffffffffff1681526020019081526020015f205f828254610bca9190611632565b925050819055503460035f828254610be29190611632565b92505081905550600460019054906101000a900460ff16158015610c0a575060015460035410155b15610c64576001600460016101000a81548160ff0219169083151502179055507ffbfd8ab7c24300fa9888cd721c8565a7da56759384781283684dcf7c7c4a846b600354604051610c5b919061114c565b60405180910390a15b3373ffffffffffffffffffffffffffffffffffffffff167f4d154d4aae216bed6d0926db77c00df2b57c6b5ba4eee05775de20facede3a7b34604051610caa919061114c565b60405180910390a2565b5f5f9054906101000a900473ffffffffffffffffffffffffffffffffffffffff1673ffffffffffffffffffffffffffffffffffffffff163373ffffffffffffffffffffffffffffffffffffffff1614610d4457336040517f8e4a23d6000000000000000000000000000000000000000000000000000000008152600401610d3b919061120a565b60405180910390fd5b60045f9054906101000a900460ff16610d92576040517f08c379a0000000000000000000000000000000000000000000000000000000008152600401610d8990611474565b60405180910390fd5b600460019054906101000a900460ff1615610de2576040517f08c379a0000000000000000000000000000000000000000000000000000000008152600401610dd9906116af565b60405180910390fd5b5f5f90505b81518110156110fd575f828281518110610e0457610e036116cd565b5b602002602001015190505f60055f8373ffffffffffffffffffffffffffffffffffffffff1673ffffffffffffffffffffffffffffffffffffffff1681526020019081526020015f205490505f811480610ea3575060065f8373ffffffffffffffffffffffffffffffffffffffff1673ffffffffffffffffffffffffffffffffffffffff1681526020019081526020015f205f9054906101000a900460ff165b15610eaf5750506110f0565b5f60055f8473ffffffffffffffffffffffffffffffffffffffff1673ffffffffffffffffffffffffffffffffffffffff1681526020019081526020015f2081905550600160065f8473ffffffffffffffffffffffffffffffffffffffff1673ffffffffffffffffffffffffffffffffffffffff1681526020019081526020015f205f6101000a81548160ff0219169083151502179055505f8273ffffffffffffffffffffffffffffffffffffffff1682604051610f6b9061154e565b5f6040518083038185875af1925050503d805f8114610fa5576040519150601f19603f3d011682016040523d82523d5f602084013e610faa565b606091505b505090508015611007578273ffffffffffffffffffffffffffffffffffffffff167fbb28353e4598c3b9199101a66e0989549b659a59a54d2c27fbb183f1932c8e6d83604051610ffa919061114c565b60405180910390a26110ec565b8160055f8573ffffffffffffffffffffffffffffffffffffffff1673ffffffffffffffffffffffffffffffffffffffff1681526020019081526020015f20819055505f60065f8573ffffffffffffffffffffffffffffffffffffffff1673ffffffffffffffffffffffffffffffffffffffff1681526020019081526020015f205f6101000a81548160ff0219169083151502179055508273ffffffffffffffffffffffffffffffffffffffff167f1469dedbe97a634ed62eda0e28633c10e232f4d2ae037854efce50d9c7bb74a5836040516110e39190611744565b60405180910390a25b5050505b8080600101915050610de7565b5050565b5f8115159050919050565b61111581611101565b82525050565b5f60208201905061112e5f83018461110c565b92915050565b5f819050919050565b61114681611134565b82525050565b5f60208201905061115f5f83018461113d565b92915050565b5f604051905090565b5f5ffd5b5f5ffd5b5f73ffffffffffffffffffffffffffffffffffffffff82169050919050565b5f61119f82611176565b9050919050565b6111af81611195565b81146111b9575f5ffd5b50565b5f813590506111ca816111a6565b92915050565b5f602082840312156111e5576111e461116e565b5b5f6111f2848285016111bc565b91505092915050565b61120481611195565b82525050565b5f60208201905061121d5f8301846111fb565b92915050565b5f5ffd5b5f601f19601f8301169050919050565b7f4e487b71000000000000000000000000000000000000000000000000000000005f52604160045260245ffd5b61126d82611227565b810181811067ffffffffffffffff8211171561128c5761128b611237565b5b80604052505050565b5f61129e611165565b90506112aa8282611264565b919050565b5f67ffffffffffffffff8211156112c9576112c8611237565b5b602082029050602081019050919050565b5f5ffd5b5f6112f06112eb846112af565b611295565b90508083825260208201905060208402830185811115611313576113126112da565b5b835b8181101561133c578061132888826111bc565b845260208401935050602081019050611315565b5050509392505050565b5f82601f83011261135a57611359611223565b5b813561136a8482602086016112de565b91505092915050565b5f602082840312156113885761138761116e565b5b5f82013567ffffffffffffffff8111156113a5576113a4611172565b5b6113b184828501611346565b91505092915050565b7f4e487b71000000000000000000000000000000000000000000000000000000005f52601160045260245ffd5b5f6113f182611134565b91506113fc83611134565b9250828203905081811115611414576114136113ba565b5b92915050565b5f82825260208201905092915050565b7fe4bc97e7adb9e5b09ae69caae7bb93e69d9f00000000000000000000000000005f82015250565b5f61145e60128361141a565b91506114698261142a565b602082019050919050565b5f6020820190508181035f83015261148b81611452565b9050919050565b5f6040820190506114a55f83018561113d565b6114b2602083018461113d565b9392505050565b7fe6b2a1e69c89e58fafe68f90e58f96e79a84e8b584e9879100000000000000005f82015250565b5f6114ed60188361141a565b91506114f8826114b9565b602082019050919050565b5f6020820190508181035f83015261151a816114e1565b9050919050565b5f81905092915050565b50565b5f6115395f83611521565b91506115448261152b565b5f82019050919050565b5f6115588261152e565b9150819050919050565b7fe6b2a1e69c89e8b4a1e78cae00000000000000000000000000000000000000005f82015250565b5f611596600c8361141a565b91506115a182611562565b602082019050919050565b5f6020820190508181035f8301526115c38161158a565b9050919050565b7fe4bc97e7adb9e5b7b2e7bb8fe7bb93e69d9f00000000000000000000000000005f82015250565b5f6115fe60128361141a565b9150611609826115ca565b602082019050919050565b5f6020820190508181035f83015261162b816115f2565b9050919050565b5f61163c82611134565b915061164783611134565b925082820190508082111561165f5761165e6113ba565b5b92915050565b7fe79baee6a087e5b7b2e8bebee68890efbc8ce4b88de883bde98080e6acbe00005f82015250565b5f611699601e8361141a565b91506116a482611665565b602082019050919050565b5f6020820190508181035f8301526116c68161168d565b9050919050565b7f4e487b71000000000000000000000000000000000000000000000000000000005f52603260045260245ffd5b7f5472616e73666572206661696c656400000000000000000000000000000000005f82015250565b5f61172e600f8361141a565b9150611739826116fa565b602082019050919050565b5f6040820190506117575f83018461113d565b818103602083015261176881611722565b90509291505056fea26469706673582212207e60e0a0ea940ec127fa0bba64fa0c65ca9803d553904ae5e5cce18627f8f3e264736f6c634300081f0033",
					"opcodes": "PUSH1 0x80 PUSH1 0x40 MSTORE CALLVALUE DUP1 ISZERO PUSH2 0xF JUMPI PUSH0 PUSH0 REVERT JUMPDEST POP PUSH1 0x40 MLOAD PUSH2 0x1A7C CODESIZE SUB DUP1 PUSH2 0x1A7C DUP4 CODECOPY DUP2 DUP2 ADD PUSH1 0x40 MSTORE DUP2 ADD SWAP1 PUSH2 0x31 SWAP2 SWAP1 PUSH2 0x14B JUMP JUMPDEST PUSH0 DUP3 GT PUSH2 0x73 JUMPI PUSH1 0x40 MLOAD PUSH32 0x8C379A000000000000000000000000000000000000000000000000000000000 DUP2 MSTORE PUSH1 0x4 ADD PUSH2 0x6A SWAP1 PUSH2 0x1E3 JUMP JUMPDEST PUSH1 0x40 MLOAD DUP1 SWAP2 SUB SWAP1 REVERT JUMPDEST PUSH0 DUP2 GT PUSH2 0xB5 JUMPI PUSH1 0x40 MLOAD PUSH32 0x8C379A000000000000000000000000000000000000000000000000000000000 DUP2 MSTORE PUSH1 0x4 ADD PUSH2 0xAC SWAP1 PUSH2 0x24B JUMP JUMPDEST PUSH1 0x40 MLOAD DUP1 SWAP2 SUB SWAP1 REVERT JUMPDEST CALLER PUSH0 PUSH0 PUSH2 0x100 EXP DUP2 SLOAD DUP2 PUSH20 0xFFFFFFFFFFFFFFFFFFFFFFFFFFFFFFFFFFFFFFFF MUL NOT AND SWAP1 DUP4 PUSH20 0xFFFFFFFFFFFFFFFFFFFFFFFFFFFFFFFFFFFFFFFF AND MUL OR SWAP1 SSTORE POP DUP2 PUSH1 0x1 DUP2 SWAP1 SSTORE POP DUP1 TIMESTAMP PUSH2 0x107 SWAP2 SWAP1 PUSH2 0x296 JUMP JUMPDEST PUSH1 0x2 DUP2 SWAP1 SSTORE POP POP POP PUSH2 0x2C9 JUMP JUMPDEST PUSH0 PUSH0 REVERT JUMPDEST PUSH0 DUP2 SWAP1 POP SWAP2 SWAP1 POP JUMP JUMPDEST PUSH2 0x12A DUP2 PUSH2 0x118 JUMP JUMPDEST DUP2 EQ PUSH2 0x134 JUMPI PUSH0 PUSH0 REVERT JUMPDEST POP JUMP JUMPDEST PUSH0 DUP2 MLOAD SWAP1 POP PUSH2 0x145 DUP2 PUSH2 0x121 JUMP JUMPDEST SWAP3 SWAP2 POP POP JUMP JUMPDEST PUSH0 PUSH0 PUSH1 0x40 DUP4 DUP6 SUB SLT ISZERO PUSH2 0x161 JUMPI PUSH2 0x160 PUSH2 0x114 JUMP JUMPDEST JUMPDEST PUSH0 PUSH2 0x16E DUP6 DUP3 DUP7 ADD PUSH2 0x137 JUMP JUMPDEST SWAP3 POP POP PUSH1 0x20 PUSH2 0x17F DUP6 DUP3 DUP7 ADD PUSH2 0x137 JUMP JUMPDEST SWAP2 POP POP SWAP3 POP SWAP3 SWAP1 POP JUMP JUMPDEST PUSH0 DUP3 DUP3 MSTORE PUSH1 0x20 DUP3 ADD SWAP1 POP SWAP3 SWAP2 POP POP JUMP JUMPDEST PUSH32 0xE79BAEE6A087E98791E9A29DE5BF85E9A1BBE5A4A7E4BA8E3000000000000000 PUSH0 DUP3 ADD MSTORE POP JUMP JUMPDEST PUSH0 PUSH2 0x1CD PUSH1 0x19 DUP4 PUSH2 0x189 JUMP JUMPDEST SWAP2 POP PUSH2 0x1D8 DUP3 PUSH2 0x199 JUMP JUMPDEST PUSH1 0x20 DUP3 ADD SWAP1 POP SWAP2 SWAP1 POP JUMP JUMPDEST PUSH0 PUSH1 0x20 DUP3 ADD SWAP1 POP DUP2 DUP2 SUB PUSH0 DUP4 ADD MSTORE PUSH2 0x1FA DUP2 PUSH2 0x1C1 JUMP JUMPDEST SWAP1 POP SWAP2 SWAP1 POP JUMP JUMPDEST PUSH32 0xE68C81E7BBADE697B6E997B4E5BF85E9A1BBE5A4A7E4BA8E3000000000000000 PUSH0 DUP3 ADD MSTORE POP JUMP JUMPDEST PUSH0 PUSH2 0x235 PUSH1 0x19 DUP4 PUSH2 0x189 JUMP JUMPDEST SWAP2 POP PUSH2 0x240 DUP3 PUSH2 0x201 JUMP JUMPDEST PUSH1 0x20 DUP3 ADD SWAP1 POP SWAP2 SWAP1 POP JUMP JUMPDEST PUSH0 PUSH1 0x20 DUP3 ADD SWAP1 POP DUP2 DUP2 SUB PUSH0 DUP4 ADD MSTORE PUSH2 0x262 DUP2 PUSH2 0x229 JUMP JUMPDEST SWAP1 POP SWAP2 SWAP1 POP JUMP JUMPDEST PUSH32 0x4E487B7100000000000000000000000000000000000000000000000000000000 PUSH0 MSTORE PUSH1 0x11 PUSH1 0x4 MSTORE PUSH1 0x24 PUSH0 REVERT JUMPDEST PUSH0 PUSH2 0x2A0 DUP3 PUSH2 0x118 JUMP JUMPDEST SWAP2 POP PUSH2 0x2AB DUP4 PUSH2 0x118 JUMP JUMPDEST SWAP3 POP DUP3 DUP3 ADD SWAP1 POP DUP1 DUP3 GT ISZERO PUSH2 0x2C3 JUMPI PUSH2 0x2C2 PUSH2 0x269 JUMP JUMPDEST JUMPDEST SWAP3 SWAP2 POP POP JUMP JUMPDEST PUSH2 0x17A6 DUP1 PUSH2 0x2D6 PUSH0 CODECOPY PUSH0 RETURN INVALID PUSH1 0x80 PUSH1 0x40 MSTORE PUSH1 0x4 CALLDATASIZE LT PUSH2 0xDC JUMPI PUSH0 CALLDATALOAD PUSH1 0xE0 SHR DUP1 PUSH4 0x71AAC7F9 GT PUSH2 0x7E JUMPI DUP1 PUSH4 0xC033A490 GT PUSH2 0x58 JUMPI DUP1 PUSH4 0xC033A490 EQ PUSH2 0x25A JUMPI DUP1 PUSH4 0xC5C4744C EQ PUSH2 0x296 JUMPI DUP1 PUSH4 0xD7BB99BA EQ PUSH2 0x2C0 JUMPI DUP1 PUSH4 0xFFF96005 EQ PUSH2 0x2CA JUMPI PUSH2 0xDC JUMP JUMPDEST DUP1 PUSH4 0x71AAC7F9 EQ PUSH2 0x1F0 JUMPI DUP1 PUSH4 0x7D3D6522 EQ PUSH2 0x206 JUMPI DUP1 PUSH4 0x8DA5CB5B EQ PUSH2 0x230 JUMPI PUSH2 0xDC JUMP JUMPDEST DUP1 PUSH4 0x3CCFD60B GT PUSH2 0xBA JUMPI DUP1 PUSH4 0x3CCFD60B EQ PUSH2 0x15E JUMPI DUP1 PUSH4 0x40193883 EQ PUSH2 0x174 JUMPI DUP1 PUSH4 0x42E94C90 EQ PUSH2 0x19E JUMPI DUP1 PUSH4 0x590E1AE3 EQ PUSH2 0x1DA JUMPI PUSH2 0xDC JUMP JUMPDEST DUP1 PUSH4 0x12FA6FEB EQ PUSH2 0xE0 JUMPI DUP1 PUSH4 0x1300A6D1 EQ PUSH2 0x10A JUMPI DUP1 PUSH4 0x29DCB0CF EQ PUSH2 0x134 JUMPI JUMPDEST PUSH0 PUSH0 REVERT JUMPDEST CALLVALUE DUP1 ISZERO PUSH2 0xEB JUMPI PUSH0 PUSH0 REVERT JUMPDEST POP PUSH2 0xF4 PUSH2 0x2F2 JUMP JUMPDEST PUSH1 0x40 MLOAD PUSH2 0x101 SWAP2 SWAP1 PUSH2 0x111B JUMP JUMPDEST PUSH1 0x40 MLOAD DUP1 SWAP2 SUB SWAP1 RETURN JUMPDEST CALLVALUE DUP1 ISZERO PUSH2 0x115 JUMPI PUSH0 PUSH0 REVERT JUMPDEST POP PUSH2 0x11E PUSH2 0x304 JUMP JUMPDEST PUSH1 0x40 MLOAD PUSH2 0x12B SWAP2 SWAP1 PUSH2 0x114C JUMP JUMPDEST PUSH1 0x40 MLOAD DUP1 SWAP2 SUB SWAP1 RETURN JUMPDEST CALLVALUE DUP1 ISZERO PUSH2 0x13F JUMPI PUSH0 PUSH0 REVERT JUMPDEST POP PUSH2 0x148 PUSH2 0x32A JUMP JUMPDEST PUSH1 0x40 MLOAD PUSH2 0x155 SWAP2 SWAP1 PUSH2 0x114C JUMP JUMPDEST PUSH1 0x40 MLOAD DUP1 SWAP2 SUB SWAP1 RETURN JUMPDEST CALLVALUE DUP1 ISZERO PUSH2 0x169 JUMPI PUSH0 PUSH0 REVERT JUMPDEST POP PUSH2 0x172 PUSH2 0x330 JUMP JUMPDEST STOP JUMPDEST CALLVALUE DUP1 ISZERO PUSH2 0x17F JUMPI PUSH0 PUSH0 REVERT JUMPDEST POP PUSH2 0x188 PUSH2 0x5DC JUMP JUMPDEST PUSH1 0x40 MLOAD PUSH2 0x195 SWAP2 SWAP1 PUSH2 0x114C JUMP JUMPDEST PUSH1 0x40 MLOAD DUP1 SWAP2 SUB SWAP1 RETURN JUMPDEST CALLVALUE DUP1 ISZERO PUSH2 0x1A9 JUMPI PUSH0 PUSH0 REVERT JUMPDEST POP PUSH2 0x1C4 PUSH1 0x4 DUP1 CALLDATASIZE SUB DUP2 ADD SWAP1 PUSH2 0x1BF SWAP2 SWAP1 PUSH2 0x11D0 JUMP JUMPDEST PUSH2 0x5E2 JUMP JUMPDEST PUSH1 0x40 MLOAD PUSH2 0x1D1 SWAP2 SWAP1 PUSH2 0x114C JUMP JUMPDEST PUSH1 0x40 MLOAD DUP1 SWAP2 SUB SWAP1 RETURN JUMPDEST CALLVALUE DUP1 ISZERO PUSH2 0x1E5 JUMPI PUSH0 PUSH0 REVERT JUMPDEST POP PUSH2 0x1EE PUSH2 0x5F7 JUMP JUMPDEST STOP JUMPDEST CALLVALUE DUP1 ISZERO PUSH2 0x1FB JUMPI PUSH0 PUSH0 REVERT JUMPDEST POP PUSH2 0x204 PUSH2 0x988 JUMP JUMPDEST STOP JUMPDEST CALLVALUE DUP1 ISZERO PUSH2 0x211 JUMPI PUSH0 PUSH0 REVERT JUMPDEST POP PUSH2 0x21A PUSH2 0xA5F JUMP JUMPDEST PUSH1 0x40 MLOAD PUSH2 0x227 SWAP2 SWAP1 PUSH2 0x111B JUMP JUMPDEST PUSH1 0x40 MLOAD DUP1 SWAP2 SUB SWAP1 RETURN JUMPDEST CALLVALUE DUP1 ISZERO PUSH2 0x23B JUMPI PUSH0 PUSH0 REVERT JUMPDEST POP PUSH2 0x244 PUSH2 0xA72 JUMP JUMPDEST PUSH1 0x40 MLOAD PUSH2 0x251 SWAP2 SWAP1 PUSH2 0x120A JUMP JUMPDEST PUSH1 0x40 MLOAD DUP1 SWAP2 SUB SWAP1 RETURN JUMPDEST CALLVALUE DUP1 ISZERO PUSH2 0x265 JUMPI PUSH0 PUSH0 REVERT JUMPDEST POP PUSH2 0x280 PUSH1 0x4 DUP1 CALLDATASIZE SUB DUP2 ADD SWAP1 PUSH2 0x27B SWAP2 SWAP1 PUSH2 0x11D0 JUMP JUMPDEST PUSH2 0xA96 JUMP JUMPDEST PUSH1 0x40 MLOAD PUSH2 0x28D SWAP2 SWAP1 PUSH2 0x111B JUMP JUMPDEST PUSH1 0x40 MLOAD DUP1 SWAP2 SUB SWAP1 RETURN JUMPDEST CALLVALUE DUP1 ISZERO PUSH2 0x2A1 JUMPI PUSH0 PUSH0 REVERT JUMPDEST POP PUSH2 0x2AA PUSH2 0xAB3 JUMP JUMPDEST PUSH1 0x40 MLOAD PUSH2 0x2B7 SWAP2 SWAP1 PUSH2 0x114C JUMP JUMPDEST PUSH1 0x40 MLOAD DUP1 SWAP2 SUB SWAP1 RETURN JUMPDEST PUSH2 0x2C8 PUSH2 0xAB9 JUMP JUMPDEST STOP JUMPDEST CALLVALUE DUP1 ISZERO PUSH2 0x2D5 JUMPI PUSH0 PUSH0 REVERT JUMPDEST POP PUSH2 0x2F0 PUSH1 0x4 DUP1 CALLDATASIZE SUB DUP2 ADD SWAP1 PUSH2 0x2EB SWAP2 SWAP1 PUSH2 0x1373 JUMP JUMPDEST PUSH2 0xCB4 JUMP JUMPDEST STOP JUMPDEST PUSH1 0x4 PUSH0 SWAP1 SLOAD SWAP1 PUSH2 0x100 EXP SWAP1 DIV PUSH1 0xFF AND DUP2 JUMP JUMPDEST PUSH0 PUSH1 0x2 SLOAD TIMESTAMP LT PUSH2 0x316 JUMPI PUSH0 SWAP1 POP PUSH2 0x327 JUMP JUMPDEST TIMESTAMP PUSH1 0x2 SLOAD PUSH2 0x324 SWAP2 SWAP1 PUSH2 0x13E7 JUMP JUMPDEST SWAP1 POP JUMPDEST SWAP1 JUMP JUMPDEST PUSH1 0x2 SLOAD DUP2 JUMP JUMPDEST PUSH0 PUSH0 SWAP1 SLOAD SWAP1 PUSH2 0x100 EXP SWAP1 DIV PUSH20 0xFFFFFFFFFFFFFFFFFFFFFFFFFFFFFFFFFFFFFFFF AND PUSH20 0xFFFFFFFFFFFFFFFFFFFFFFFFFFFFFFFFFFFFFFFF AND CALLER PUSH20 0xFFFFFFFFFFFFFFFFFFFFFFFFFFFFFFFFFFFFFFFF AND EQ PUSH2 0x3C0 JUMPI CALLER PUSH1 0x40 MLOAD PUSH32 0x8E4A23D600000000000000000000000000000000000000000000000000000000 DUP2 MSTORE PUSH1 0x4 ADD PUSH2 0x3B7 SWAP2 SWAP1 PUSH2 0x120A JUMP JUMPDEST PUSH1 0x40 MLOAD DUP1 SWAP2 SUB SWAP1 REVERT JUMPDEST PUSH1 0x4 PUSH0 SWAP1 SLOAD SWAP1 PUSH2 0x100 EXP SWAP1 DIV PUSH1 0xFF AND PUSH2 0x40E JUMPI PUSH1 0x40 MLOAD PUSH32 0x8C379A000000000000000000000000000000000000000000000000000000000 DUP2 MSTORE PUSH1 0x4 ADD PUSH2 0x405 SWAP1 PUSH2 0x1474 JUMP JUMPDEST PUSH1 0x40 MLOAD DUP1 SWAP2 SUB SWAP1 REVERT JUMPDEST PUSH1 0x4 PUSH1 0x1 SWAP1 SLOAD SWAP1 PUSH2 0x100 EXP SWAP1 DIV PUSH1 0xFF AND PUSH2 0x465 JUMPI PUSH1 0x3 SLOAD PUSH1 0x1 SLOAD PUSH1 0x40 MLOAD PUSH32 0x29F0233400000000000000000000000000000000000000000000000000000000 DUP2 MSTORE PUSH1 0x4 ADD PUSH2 0x45C SWAP3 SWAP2 SWAP1 PUSH2 0x1492 JUMP JUMPDEST PUSH1 0x40 MLOAD DUP1 SWAP2 SUB SWAP1 REVERT JUMPDEST PUSH0 SELFBALANCE SWAP1 POP PUSH0 DUP2 GT PUSH2 0x4AB JUMPI PUSH1 0x40 MLOAD PUSH32 0x8C379A000000000000000000000000000000000000000000000000000000000 DUP2 MSTORE PUSH1 0x4 ADD PUSH2 0x4A2 SWAP1 PUSH2 0x1503 JUMP JUMPDEST PUSH1 0x40 MLOAD DUP1 SWAP2 SUB SWAP1 REVERT JUMPDEST PUSH0 PUSH0 PUSH0 SWAP1 SLOAD SWAP1 PUSH2 0x100 EXP SWAP1 DIV PUSH20 0xFFFFFFFFFFFFFFFFFFFFFFFFFFFFFFFFFFFFFFFF AND PUSH20 0xFFFFFFFFFFFFFFFFFFFFFFFFFFFFFFFFFFFFFFFF AND DUP3 PUSH1 0x40 MLOAD PUSH2 0x4F0 SWAP1 PUSH2 0x154E JUMP JUMPDEST PUSH0 PUSH1 0x40 MLOAD DUP1 DUP4 SUB DUP2 DUP6 DUP8 GAS CALL SWAP3 POP POP POP RETURNDATASIZE DUP1 PUSH0 DUP2 EQ PUSH2 0x52A JUMPI PUSH1 0x40 MLOAD SWAP2 POP PUSH1 0x1F NOT PUSH1 0x3F RETURNDATASIZE ADD AND DUP3 ADD PUSH1 0x40 MSTORE RETURNDATASIZE DUP3 MSTORE RETURNDATASIZE PUSH0 PUSH1 0x20 DUP5 ADD RETURNDATACOPY PUSH2 0x52F JUMP JUMPDEST PUSH1 0x60 SWAP2 POP JUMPDEST POP POP SWAP1 POP DUP1 PUSH2 0x56A JUMPI PUSH1 0x40 MLOAD PUSH32 0x27FCD9D100000000000000000000000000000000000000000000000000000000 DUP2 MSTORE PUSH1 0x4 ADD PUSH1 0x40 MLOAD DUP1 SWAP2 SUB SWAP1 REVERT JUMPDEST PUSH0 PUSH0 SWAP1 SLOAD SWAP1 PUSH2 0x100 EXP SWAP1 DIV PUSH20 0xFFFFFFFFFFFFFFFFFFFFFFFFFFFFFFFFFFFFFFFF AND PUSH20 0xFFFFFFFFFFFFFFFFFFFFFFFFFFFFFFFFFFFFFFFF AND PUSH32 0x7FCF532C15F0A6DB0BD6D0E038BEA71D30D808C7D98CB3BF7268A95BF5081B65 DUP4 PUSH1 0x40 MLOAD PUSH2 0x5D0 SWAP2 SWAP1 PUSH2 0x114C JUMP JUMPDEST PUSH1 0x40 MLOAD DUP1 SWAP2 SUB SWAP1 LOG2 POP POP JUMP JUMPDEST PUSH1 0x1 SLOAD DUP2 JUMP JUMPDEST PUSH1 0x5 PUSH1 0x20 MSTORE DUP1 PUSH0 MSTORE PUSH1 0x40 PUSH0 KECCAK256 PUSH0 SWAP2 POP SWAP1 POP SLOAD DUP2 JUMP JUMPDEST PUSH1 0x4 PUSH0 SWAP1 SLOAD SWAP1 PUSH2 0x100 EXP SWAP1 DIV PUSH1 0xFF AND PUSH2 0x645 JUMPI PUSH1 0x40 MLOAD PUSH32 0x8C379A000000000000000000000000000000000000000000000000000000000 DUP2 MSTORE PUSH1 0x4 ADD PUSH2 0x63C SWAP1 PUSH2 0x1474 JUMP JUMPDEST PUSH1 0x40 MLOAD DUP1 SWAP2 SUB SWAP1 REVERT JUMPDEST PUSH1 0x4 PUSH1 0x1 SWAP1 SLOAD SWAP1 PUSH2 0x100 EXP SWAP1 DIV PUSH1 0xFF AND ISZERO PUSH2 0x68C JUMPI PUSH1 0x40 MLOAD PUSH32 0x8CB8251E00000000000000000000000000000000000000000000000000000000 DUP2 MSTORE PUSH1 0x4 ADD PUSH1 0x40 MLOAD DUP1 SWAP2 SUB SWAP1 REVERT JUMPDEST PUSH0 PUSH1 0x5 PUSH0 CALLER PUSH20 0xFFFFFFFFFFFFFFFFFFFFFFFFFFFFFFFFFFFFFFFF AND PUSH20 0xFFFFFFFFFFFFFFFFFFFFFFFFFFFFFFFFFFFFFFFF AND DUP2 MSTORE PUSH1 0x20 ADD SWAP1 DUP2 MSTORE PUSH1 0x20 ADD PUSH0 KECCAK256 SLOAD SWAP1 POP PUSH0 DUP2 GT PUSH2 0x70F JUMPI PUSH1 0x40 MLOAD PUSH32 0x8C379A000000000000000000000000000000000000000000000000000000000 DUP2 MSTORE PUSH1 0x4 ADD PUSH2 0x706 SWAP1 PUSH2 0x15AC JUMP JUMPDEST PUSH1 0x40 MLOAD DUP1 SWAP2 SUB SWAP1 REVERT JUMPDEST PUSH1 0x6 PUSH0 CALLER PUSH20 0xFFFFFFFFFFFFFFFFFFFFFFFFFFFFFFFFFFFFFFFF AND PUSH20 0xFFFFFFFFFFFFFFFFFFFFFFFFFFFFFFFFFFFFFFFF AND DUP2 MSTORE PUSH1 0x20 ADD SWAP1 DUP2 MSTORE PUSH1 0x20 ADD PUSH0 KECCAK256 PUSH0 SWAP1 SLOAD SWAP1 PUSH2 0x100 EXP SWAP1 DIV PUSH1 0xFF AND ISZERO PUSH2 0x79B JUMPI CALLER PUSH1 0x40 MLOAD PUSH32 0x86735F500000000000000000000000000000000000000000000000000000000 DUP2 MSTORE PUSH1 0x4 ADD PUSH2 0x792 SWAP2 SWAP1 PUSH2 0x120A JUMP JUMPDEST PUSH1 0x40 MLOAD DUP1 SWAP2 SUB SWAP1 REVERT JUMPDEST PUSH0 PUSH1 0x5 PUSH0 CALLER PUSH20 0xFFFFFFFFFFFFFFFFFFFFFFFFFFFFFFFFFFFFFFFF AND PUSH20 0xFFFFFFFFFFFFFFFFFFFFFFFFFFFFFFFFFFFFFFFF AND DUP2 MSTORE PUSH1 0x20 ADD SWAP1 DUP2 MSTORE PUSH1 0x20 ADD PUSH0 KECCAK256 DUP2 SWAP1 SSTORE POP PUSH1 0x1 PUSH1 0x6 PUSH0 CALLER PUSH20 0xFFFFFFFFFFFFFFFFFFFFFFFFFFFFFFFFFFFFFFFF AND PUSH20 0xFFFFFFFFFFFFFFFFFFFFFFFFFFFFFFFFFFFFFFFF AND DUP2 MSTORE PUSH1 0x20 ADD SWAP1 DUP2 MSTORE PUSH1 0x20 ADD PUSH0 KECCAK256 PUSH0 PUSH2 0x100 EXP DUP2 SLOAD DUP2 PUSH1 0xFF MUL NOT AND SWAP1 DUP4 ISZERO ISZERO MUL OR SWAP1 SSTORE POP PUSH0 CALLER PUSH20 0xFFFFFFFFFFFFFFFFFFFFFFFFFFFFFFFFFFFFFFFF AND DUP3 PUSH1 0x40 MLOAD PUSH2 0x857 SWAP1 PUSH2 0x154E JUMP JUMPDEST PUSH0 PUSH1 0x40 MLOAD DUP1 DUP4 SUB DUP2 DUP6 DUP8 GAS CALL SWAP3 POP POP POP RETURNDATASIZE DUP1 PUSH0 DUP2 EQ PUSH2 0x891 JUMPI PUSH1 0x40 MLOAD SWAP2 POP PUSH1 0x1F NOT PUSH1 0x3F RETURNDATASIZE ADD AND DUP3 ADD PUSH1 0x40 MSTORE RETURNDATASIZE DUP3 MSTORE RETURNDATASIZE PUSH0 PUSH1 0x20 DUP5 ADD RETURNDATACOPY PUSH2 0x896 JUMP JUMPDEST PUSH1 0x60 SWAP2 POP JUMPDEST POP POP SWAP1 POP DUP1 PUSH2 0x936 JUMPI DUP2 PUSH1 0x5 PUSH0 CALLER PUSH20 0xFFFFFFFFFFFFFFFFFFFFFFFFFFFFFFFFFFFFFFFF AND PUSH20 0xFFFFFFFFFFFFFFFFFFFFFFFFFFFFFFFFFFFFFFFF AND DUP2 MSTORE PUSH1 0x20 ADD SWAP1 DUP2 MSTORE PUSH1 0x20 ADD PUSH0 KECCAK256 DUP2 SWAP1 SSTORE POP PUSH0 PUSH1 0x6 PUSH0 CALLER PUSH20 0xFFFFFFFFFFFFFFFFFFFFFFFFFFFFFFFFFFFFFFFF AND PUSH20 0xFFFFFFFFFFFFFFFFFFFFFFFFFFFFFFFFFFFFFFFF AND DUP2 MSTORE PUSH1 0x20 ADD SWAP1 DUP2 MSTORE PUSH1 0x20 ADD PUSH0 KECCAK256 PUSH0 PUSH2 0x100 EXP DUP2 SLOAD DUP2 PUSH1 0xFF MUL NOT AND SWAP1 DUP4 ISZERO ISZERO MUL OR SWAP1 SSTORE POP JUMPDEST CALLER PUSH20 0xFFFFFFFFFFFFFFFFFFFFFFFFFFFFFFFFFFFFFFFF AND PUSH32 0xBB28353E4598C3B9199101A66E0989549B659A59A54D2C27FBB183F1932C8E6D DUP4 PUSH1 0x40 MLOAD PUSH2 0x97C SWAP2 SWAP1 PUSH2 0x114C JUMP JUMPDEST PUSH1 0x40 MLOAD DUP1 SWAP2 SUB SWAP1 LOG2 POP POP JUMP JUMPDEST PUSH1 0x2 SLOAD TIMESTAMP LT ISZERO PUSH2 0x9CD JUMPI PUSH1 0x40 MLOAD PUSH32 0x8C379A000000000000000000000000000000000000000000000000000000000 DUP2 MSTORE PUSH1 0x4 ADD PUSH2 0x9C4 SWAP1 PUSH2 0x1474 JUMP JUMPDEST PUSH1 0x40 MLOAD DUP1 SWAP2 SUB SWAP1 REVERT JUMPDEST PUSH1 0x4 PUSH0 SWAP1 SLOAD SWAP1 PUSH2 0x100 EXP SWAP1 DIV PUSH1 0xFF AND ISZERO PUSH2 0xA1C JUMPI PUSH1 0x40 MLOAD PUSH32 0x8C379A000000000000000000000000000000000000000000000000000000000 DUP2 MSTORE PUSH1 0x4 ADD PUSH2 0xA13 SWAP1 PUSH2 0x1614 JUMP JUMPDEST PUSH1 0x40 MLOAD DUP1 SWAP2 SUB SWAP1 REVERT JUMPDEST PUSH1 0x1 PUSH1 0x4 PUSH0 PUSH2 0x100 EXP DUP2 SLOAD DUP2 PUSH1 0xFF MUL NOT AND SWAP1 DUP4 ISZERO ISZERO MUL OR SWAP1 SSTORE POP PUSH1 0x1 SLOAD PUSH1 0x3 SLOAD LT PUSH2 0xA5D JUMPI PUSH1 0x1 PUSH1 0x4 PUSH1 0x1 PUSH2 0x100 EXP DUP2 SLOAD DUP2 PUSH1 0xFF MUL NOT AND SWAP1 DUP4 ISZERO ISZERO MUL OR SWAP1 SSTORE POP JUMPDEST JUMP JUMPDEST PUSH1 0x4 PUSH1 0x1 SWAP1 SLOAD SWAP1 PUSH2 0x100 EXP SWAP1 DIV PUSH1 0xFF AND DUP2 JUMP JUMPDEST PUSH0 PUSH0 SWAP1 SLOAD SWAP1 PUSH2 0x100 EXP SWAP1 DIV PUSH20 0xFFFFFFFFFFFFFFFFFFFFFFFFFFFFFFFFFFFFFFFF AND DUP2 JUMP JUMPDEST PUSH1 0x6 PUSH1 0x20 MSTORE DUP1 PUSH0 MSTORE PUSH1 0x40 PUSH0 KECCAK256 PUSH0 SWAP2 POP SLOAD SWAP1 PUSH2 0x100 EXP SWAP1 DIV PUSH1 0xFF AND DUP2 JUMP JUMPDEST PUSH1 0x3 SLOAD DUP2 JUMP JUMPDEST PUSH1 0x4 PUSH0 SWAP1 SLOAD SWAP1 PUSH2 0x100 EXP SWAP1 DIV PUSH1 0xFF AND ISZERO PUSH2 0xAFF JUMPI PUSH1 0x40 MLOAD PUSH32 0x287E67E700000000000000000000000000000000000000000000000000000000 DUP2 MSTORE PUSH1 0x4 ADD PUSH1 0x40 MLOAD DUP1 SWAP2 SUB SWAP1 REVERT JUMPDEST PUSH1 0x2 SLOAD TIMESTAMP LT PUSH2 0xB3A JUMPI PUSH1 0x40 MLOAD PUSH32 0x433528B600000000000000000000000000000000000000000000000000000000 DUP2 MSTORE PUSH1 0x4 ADD PUSH1 0x40 MLOAD DUP1 SWAP2 SUB SWAP1 REVERT JUMPDEST PUSH0 CALLVALUE SUB PUSH2 0xB7E JUMPI CALLVALUE PUSH1 0x40 MLOAD PUSH32 0x3728B83D00000000000000000000000000000000000000000000000000000000 DUP2 MSTORE PUSH1 0x4 ADD PUSH2 0xB75 SWAP2 SWAP1 PUSH2 0x114C JUMP JUMPDEST PUSH1 0x40 MLOAD DUP1 SWAP2 SUB SWAP1 REVERT JUMPDEST CALLVALUE PUSH1 0x5 PUSH0 CALLER PUSH20 0xFFFFFFFFFFFFFFFFFFFFFFFFFFFFFFFFFFFFFFFF AND PUSH20 0xFFFFFFFFFFFFFFFFFFFFFFFFFFFFFFFFFFFFFFFF AND DUP2 MSTORE PUSH1 0x20 ADD SWAP1 DUP2 MSTORE PUSH1 0x20 ADD PUSH0 KECCAK256 PUSH0 DUP3 DUP3 SLOAD PUSH2 0xBCA SWAP2 SWAP1 PUSH2 0x1632 JUMP JUMPDEST SWAP3 POP POP DUP2 SWAP1 SSTORE POP CALLVALUE PUSH1 0x3 PUSH0 DUP3 DUP3 SLOAD PUSH2 0xBE2 SWAP2 SWAP1 PUSH2 0x1632 JUMP JUMPDEST SWAP3 POP POP DUP2 SWAP1 SSTORE POP PUSH1 0x4 PUSH1 0x1 SWAP1 SLOAD SWAP1 PUSH2 0x100 EXP SWAP1 DIV PUSH1 0xFF AND ISZERO DUP1 ISZERO PUSH2 0xC0A JUMPI POP PUSH1 0x1 SLOAD PUSH1 0x3 SLOAD LT ISZERO JUMPDEST ISZERO PUSH2 0xC64 JUMPI PUSH1 0x1 PUSH1 0x4 PUSH1 0x1 PUSH2 0x100 EXP DUP2 SLOAD DUP2 PUSH1 0xFF MUL NOT AND SWAP1 DUP4 ISZERO ISZERO MUL OR SWAP1 SSTORE POP PUSH32 0xFBFD8AB7C24300FA9888CD721C8565A7DA56759384781283684DCF7C7C4A846B PUSH1 0x3 SLOAD PUSH1 0x40 MLOAD PUSH2 0xC5B SWAP2 SWAP1 PUSH2 0x114C JUMP JUMPDEST PUSH1 0x40 MLOAD DUP1 SWAP2 SUB SWAP1 LOG1 JUMPDEST CALLER PUSH20 0xFFFFFFFFFFFFFFFFFFFFFFFFFFFFFFFFFFFFFFFF AND PUSH32 0x4D154D4AAE216BED6D0926DB77C00DF2B57C6B5BA4EEE05775DE20FACEDE3A7B CALLVALUE PUSH1 0x40 MLOAD PUSH2 0xCAA SWAP2 SWAP1 PUSH2 0x114C JUMP JUMPDEST PUSH1 0x40 MLOAD DUP1 SWAP2 SUB SWAP1 LOG2 JUMP JUMPDEST PUSH0 PUSH0 SWAP1 SLOAD SWAP1 PUSH2 0x100 EXP SWAP1 DIV PUSH20 0xFFFFFFFFFFFFFFFFFFFFFFFFFFFFFFFFFFFFFFFF AND PUSH20 0xFFFFFFFFFFFFFFFFFFFFFFFFFFFFFFFFFFFFFFFF AND CALLER PUSH20 0xFFFFFFFFFFFFFFFFFFFFFFFFFFFFFFFFFFFFFFFF AND EQ PUSH2 0xD44 JUMPI CALLER PUSH1 0x40 MLOAD PUSH32 0x8E4A23D600000000000000000000000000000000000000000000000000000000 DUP2 MSTORE PUSH1 0x4 ADD PUSH2 0xD3B SWAP2 SWAP1 PUSH2 0x120A JUMP JUMPDEST PUSH1 0x40 MLOAD DUP1 SWAP2 SUB SWAP1 REVERT JUMPDEST PUSH1 0x4 PUSH0 SWAP1 SLOAD SWAP1 PUSH2 0x100 EXP SWAP1 DIV PUSH1 0xFF AND PUSH2 0xD92 JUMPI PUSH1 0x40 MLOAD PUSH32 0x8C379A000000000000000000000000000000000000000000000000000000000 DUP2 MSTORE PUSH1 0x4 ADD PUSH2 0xD89 SWAP1 PUSH2 0x1474 JUMP JUMPDEST PUSH1 0x40 MLOAD DUP1 SWAP2 SUB SWAP1 REVERT JUMPDEST PUSH1 0x4 PUSH1 0x1 SWAP1 SLOAD SWAP1 PUSH2 0x100 EXP SWAP1 DIV PUSH1 0xFF AND ISZERO PUSH2 0xDE2 JUMPI PUSH1 0x40 MLOAD PUSH32 0x8C379A000000000000000000000000000000000000000000000000000000000 DUP2 MSTORE PUSH1 0x4 ADD PUSH2 0xDD9 SWAP1 PUSH2 0x16AF JUMP JUMPDEST PUSH1 0x40 MLOAD DUP1 SWAP2 SUB SWAP1 REVERT JUMPDEST PUSH0 PUSH0 SWAP1 POP JUMPDEST DUP2 MLOAD DUP2 LT ISZERO PUSH2 0x10FD JUMPI PUSH0 DUP3 DUP3 DUP2 MLOAD DUP2 LT PUSH2 0xE04 JUMPI PUSH2 0xE03 PUSH2 0x16CD JUMP JUMPDEST JUMPDEST PUSH1 0x20 MUL PUSH1 0x20 ADD ADD MLOAD SWAP1 POP PUSH0 PUSH1 0x5 PUSH0 DUP4 PUSH20 0xFFFFFFFFFFFFFFFFFFFFFFFFFFFFFFFFFFFFFFFF AND PUSH20 0xFFFFFFFFFFFFFFFFFFFFFFFFFFFFFFFFFFFFFFFF AND DUP2 MSTORE PUSH1 0x20 ADD SWAP1 DUP2 MSTORE PUSH1 0x20 ADD PUSH0 KECCAK256 SLOAD SWAP1 POP PUSH0 DUP2 EQ DUP1 PUSH2 0xEA3 JUMPI POP PUSH1 0x6 PUSH0 DUP4 PUSH20 0xFFFFFFFFFFFFFFFFFFFFFFFFFFFFFFFFFFFFFFFF AND PUSH20 0xFFFFFFFFFFFFFFFFFFFFFFFFFFFFFFFFFFFFFFFF AND DUP2 MSTORE PUSH1 0x20 ADD SWAP1 DUP2 MSTORE PUSH1 0x20 ADD PUSH0 KECCAK256 PUSH0 SWAP1 SLOAD SWAP1 PUSH2 0x100 EXP SWAP1 DIV PUSH1 0xFF AND JUMPDEST ISZERO PUSH2 0xEAF JUMPI POP POP PUSH2 0x10F0 JUMP JUMPDEST PUSH0 PUSH1 0x5 PUSH0 DUP5 PUSH20 0xFFFFFFFFFFFFFFFFFFFFFFFFFFFFFFFFFFFFFFFF AND PUSH20 0xFFFFFFFFFFFFFFFFFFFFFFFFFFFFFFFFFFFFFFFF AND DUP2 MSTORE PUSH1 0x20 ADD SWAP1 DUP2 MSTORE PUSH1 0x20 ADD PUSH0 KECCAK256 DUP2 SWAP1 SSTORE POP PUSH1 0x1 PUSH1 0x6 PUSH0 DUP5 PUSH20 0xFFFFFFFFFFFFFFFFFFFFFFFFFFFFFFFFFFFFFFFF AND PUSH20 0xFFFFFFFFFFFFFFFFFFFFFFFFFFFFFFFFFFFFFFFF AND DUP2 MSTORE PUSH1 0x20 ADD SWAP1 DUP2 MSTORE PUSH1 0x20 ADD PUSH0 KECCAK256 PUSH0 PUSH2 0x100 EXP DUP2 SLOAD DUP2 PUSH1 0xFF MUL NOT AND SWAP1 DUP4 ISZERO ISZERO MUL OR SWAP1 SSTORE POP PUSH0 DUP3 PUSH20 0xFFFFFFFFFFFFFFFFFFFFFFFFFFFFFFFFFFFFFFFF AND DUP3 PUSH1 0x40 MLOAD PUSH2 0xF6B SWAP1 PUSH2 0x154E JUMP JUMPDEST PUSH0 PUSH1 0x40 MLOAD DUP1 DUP4 SUB DUP2 DUP6 DUP8 GAS CALL SWAP3 POP POP POP RETURNDATASIZE DUP1 PUSH0 DUP2 EQ PUSH2 0xFA5 JUMPI PUSH1 0x40 MLOAD SWAP2 POP PUSH1 0x1F NOT PUSH1 0x3F RETURNDATASIZE ADD AND DUP3 ADD PUSH1 0x40 MSTORE RETURNDATASIZE DUP3 MSTORE RETURNDATASIZE PUSH0 PUSH1 0x20 DUP5 ADD RETURNDATACOPY PUSH2 0xFAA JUMP JUMPDEST PUSH1 0x60 SWAP2 POP JUMPDEST POP POP SWAP1 POP DUP1 ISZERO PUSH2 0x1007 JUMPI DUP3 PUSH20 0xFFFFFFFFFFFFFFFFFFFFFFFFFFFFFFFFFFFFFFFF AND PUSH32 0xBB28353E4598C3B9199101A66E0989549B659A59A54D2C27FBB183F1932C8E6D DUP4 PUSH1 0x40 MLOAD PUSH2 0xFFA SWAP2 SWAP1 PUSH2 0x114C JUMP JUMPDEST PUSH1 0x40 MLOAD DUP1 SWAP2 SUB SWAP1 LOG2 PUSH2 0x10EC JUMP JUMPDEST DUP2 PUSH1 0x5 PUSH0 DUP6 PUSH20 0xFFFFFFFFFFFFFFFFFFFFFFFFFFFFFFFFFFFFFFFF AND PUSH20 0xFFFFFFFFFFFFFFFFFFFFFFFFFFFFFFFFFFFFFFFF AND DUP2 MSTORE PUSH1 0x20 ADD SWAP1 DUP2 MSTORE PUSH1 0x20 ADD PUSH0 KECCAK256 DUP2 SWAP1 SSTORE POP PUSH0 PUSH1 0x6 PUSH0 DUP6 PUSH20 0xFFFFFFFFFFFFFFFFFFFFFFFFFFFFFFFFFFFFFFFF AND PUSH20 0xFFFFFFFFFFFFFFFFFFFFFFFFFFFFFFFFFFFFFFFF AND DUP2 MSTORE PUSH1 0x20 ADD SWAP1 DUP2 MSTORE PUSH1 0x20 ADD PUSH0 KECCAK256 PUSH0 PUSH2 0x100 EXP DUP2 SLOAD DUP2 PUSH1 0xFF MUL NOT AND SWAP1 DUP4 ISZERO ISZERO MUL OR SWAP1 SSTORE POP DUP3 PUSH20 0xFFFFFFFFFFFFFFFFFFFFFFFFFFFFFFFFFFFFFFFF AND PUSH32 0x1469DEDBE97A634ED62EDA0E28633C10E232F4D2AE037854EFCE50D9C7BB74A5 DUP4 PUSH1 0x40 MLOAD PUSH2 0x10E3 SWAP2 SWAP1 PUSH2 0x1744 JUMP JUMPDEST PUSH1 0x40 MLOAD DUP1 SWAP2 SUB SWAP1 LOG2 JUMPDEST POP POP POP JUMPDEST DUP1 DUP1 PUSH1 0x1 ADD SWAP2 POP POP PUSH2 0xDE7 JUMP JUMPDEST POP POP JUMP JUMPDEST PUSH0 DUP2 ISZERO ISZERO SWAP1 POP SWAP2 SWAP1 POP JUMP JUMPDEST PUSH2 0x1115 DUP2 PUSH2 0x1101 JUMP JUMPDEST DUP3 MSTORE POP POP JUMP JUMPDEST PUSH0 PUSH1 0x20 DUP3 ADD SWAP1 POP PUSH2 0x112E PUSH0 DUP4 ADD DUP5 PUSH2 0x110C JUMP JUMPDEST SWAP3 SWAP2 POP POP JUMP JUMPDEST PUSH0 DUP2 SWAP1 POP SWAP2 SWAP1 POP JUMP JUMPDEST PUSH2 0x1146 DUP2 PUSH2 0x1134 JUMP JUMPDEST DUP3 MSTORE POP POP JUMP JUMPDEST PUSH0 PUSH1 0x20 DUP3 ADD SWAP1 POP PUSH2 0x115F PUSH0 DUP4 ADD DUP5 PUSH2 0x113D JUMP JUMPDEST SWAP3 SWAP2 POP POP JUMP JUMPDEST PUSH0 PUSH1 0x40 MLOAD SWAP1 POP SWAP1 JUMP JUMPDEST PUSH0 PUSH0 REVERT JUMPDEST PUSH0 PUSH0 REVERT JUMPDEST PUSH0 PUSH20 0xFFFFFFFFFFFFFFFFFFFFFFFFFFFFFFFFFFFFFFFF DUP3 AND SWAP1 POP SWAP2 SWAP1 POP JUMP JUMPDEST PUSH0 PUSH2 0x119F DUP3 PUSH2 0x1176 JUMP JUMPDEST SWAP1 POP SWAP2 SWAP1 POP JUMP JUMPDEST PUSH2 0x11AF DUP2 PUSH2 0x1195 JUMP JUMPDEST DUP2 EQ PUSH2 0x11B9 JUMPI PUSH0 PUSH0 REVERT JUMPDEST POP JUMP JUMPDEST PUSH0 DUP2 CALLDATALOAD SWAP1 POP PUSH2 0x11CA DUP2 PUSH2 0x11A6 JUMP JUMPDEST SWAP3 SWAP2 POP POP JUMP JUMPDEST PUSH0 PUSH1 0x20 DUP3 DUP5 SUB SLT ISZERO PUSH2 0x11E5 JUMPI PUSH2 0x11E4 PUSH2 0x116E JUMP JUMPDEST JUMPDEST PUSH0 PUSH2 0x11F2 DUP5 DUP3 DUP6 ADD PUSH2 0x11BC JUMP JUMPDEST SWAP2 POP POP SWAP3 SWAP2 POP POP JUMP JUMPDEST PUSH2 0x1204 DUP2 PUSH2 0x1195 JUMP JUMPDEST DUP3 MSTORE POP POP JUMP JUMPDEST PUSH0 PUSH1 0x20 DUP3 ADD SWAP1 POP PUSH2 0x121D PUSH0 DUP4 ADD DUP5 PUSH2 0x11FB JUMP JUMPDEST SWAP3 SWAP2 POP POP JUMP JUMPDEST PUSH0 PUSH0 REVERT JUMPDEST PUSH0 PUSH1 0x1F NOT PUSH1 0x1F DUP4 ADD AND SWAP1 POP SWAP2 SWAP1 POP JUMP JUMPDEST PUSH32 0x4E487B7100000000000000000000000000000000000000000000000000000000 PUSH0 MSTORE PUSH1 0x41 PUSH1 0x4 MSTORE PUSH1 0x24 PUSH0 REVERT JUMPDEST PUSH2 0x126D DUP3 PUSH2 0x1227 JUMP JUMPDEST DUP2 ADD DUP2 DUP2 LT PUSH8 0xFFFFFFFFFFFFFFFF DUP3 GT OR ISZERO PUSH2 0x128C JUMPI PUSH2 0x128B PUSH2 0x1237 JUMP JUMPDEST JUMPDEST DUP1 PUSH1 0x40 MSTORE POP POP POP JUMP JUMPDEST PUSH0 PUSH2 0x129E PUSH2 0x1165 JUMP JUMPDEST SWAP1 POP PUSH2 0x12AA DUP3 DUP3 PUSH2 0x1264 JUMP JUMPDEST SWAP2 SWAP1 POP JUMP JUMPDEST PUSH0 PUSH8 0xFFFFFFFFFFFFFFFF DUP3 GT ISZERO PUSH2 0x12C9 JUMPI PUSH2 0x12C8 PUSH2 0x1237 JUMP JUMPDEST JUMPDEST PUSH1 0x20 DUP3 MUL SWAP1 POP PUSH1 0x20 DUP2 ADD SWAP1 POP SWAP2 SWAP1 POP JUMP JUMPDEST PUSH0 PUSH0 REVERT JUMPDEST PUSH0 PUSH2 0x12F0 PUSH2 0x12EB DUP5 PUSH2 0x12AF JUMP JUMPDEST PUSH2 0x1295 JUMP JUMPDEST SWAP1 POP DUP1 DUP4 DUP3 MSTORE PUSH1 0x20 DUP3 ADD SWAP1 POP PUSH1 0x20 DUP5 MUL DUP4 ADD DUP6 DUP2 GT ISZERO PUSH2 0x1313 JUMPI PUSH2 0x1312 PUSH2 0x12DA JUMP JUMPDEST JUMPDEST DUP4 JUMPDEST DUP2 DUP2 LT ISZERO PUSH2 0x133C JUMPI DUP1 PUSH2 0x1328 DUP9 DUP3 PUSH2 0x11BC JUMP JUMPDEST DUP5 MSTORE PUSH1 0x20 DUP5 ADD SWAP4 POP POP PUSH1 0x20 DUP2 ADD SWAP1 POP PUSH2 0x1315 JUMP JUMPDEST POP POP POP SWAP4 SWAP3 POP POP POP JUMP JUMPDEST PUSH0 DUP3 PUSH1 0x1F DUP4 ADD SLT PUSH2 0x135A JUMPI PUSH2 0x1359 PUSH2 0x1223 JUMP JUMPDEST JUMPDEST DUP2 CALLDATALOAD PUSH2 0x136A DUP5 DUP3 PUSH1 0x20 DUP7 ADD PUSH2 0x12DE JUMP JUMPDEST SWAP2 POP POP SWAP3 SWAP2 POP POP JUMP JUMPDEST PUSH0 PUSH1 0x20 DUP3 DUP5 SUB SLT ISZERO PUSH2 0x1388 JUMPI PUSH2 0x1387 PUSH2 0x116E JUMP JUMPDEST JUMPDEST PUSH0 DUP3 ADD CALLDATALOAD PUSH8 0xFFFFFFFFFFFFFFFF DUP2 GT ISZERO PUSH2 0x13A5 JUMPI PUSH2 0x13A4 PUSH2 0x1172 JUMP JUMPDEST JUMPDEST PUSH2 0x13B1 DUP5 DUP3 DUP6 ADD PUSH2 0x1346 JUMP JUMPDEST SWAP2 POP POP SWAP3 SWAP2 POP POP JUMP JUMPDEST PUSH32 0x4E487B7100000000000000000000000000000000000000000000000000000000 PUSH0 MSTORE PUSH1 0x11 PUSH1 0x4 MSTORE PUSH1 0x24 PUSH0 REVERT JUMPDEST PUSH0 PUSH2 0x13F1 DUP3 PUSH2 0x1134 JUMP JUMPDEST SWAP2 POP PUSH2 0x13FC DUP4 PUSH2 0x1134 JUMP JUMPDEST SWAP3 POP DUP3 DUP3 SUB SWAP1 POP DUP2 DUP2 GT ISZERO PUSH2 0x1414 JUMPI PUSH2 0x1413 PUSH2 0x13BA JUMP JUMPDEST JUMPDEST SWAP3 SWAP2 POP POP JUMP JUMPDEST PUSH0 DUP3 DUP3 MSTORE PUSH1 0x20 DUP3 ADD SWAP1 POP SWAP3 SWAP2 POP POP JUMP JUMPDEST PUSH32 0xE4BC97E7ADB9E5B09AE69CAAE7BB93E69D9F0000000000000000000000000000 PUSH0 DUP3 ADD MSTORE POP JUMP JUMPDEST PUSH0 PUSH2 0x145E PUSH1 0x12 DUP4 PUSH2 0x141A JUMP JUMPDEST SWAP2 POP PUSH2 0x1469 DUP3 PUSH2 0x142A JUMP JUMPDEST PUSH1 0x20 DUP3 ADD SWAP1 POP SWAP2 SWAP1 POP JUMP JUMPDEST PUSH0 PUSH1 0x20 DUP3 ADD SWAP1 POP DUP2 DUP2 SUB PUSH0 DUP4 ADD MSTORE PUSH2 0x148B DUP2 PUSH2 0x1452 JUMP JUMPDEST SWAP1 POP SWAP2 SWAP1 POP JUMP JUMPDEST PUSH0 PUSH1 0x40 DUP3 ADD SWAP1 POP PUSH2 0x14A5 PUSH0 DUP4 ADD DUP6 PUSH2 0x113D JUMP JUMPDEST PUSH2 0x14B2 PUSH1 0x20 DUP4 ADD DUP5 PUSH2 0x113D JUMP JUMPDEST SWAP4 SWAP3 POP POP POP JUMP JUMPDEST PUSH32 0xE6B2A1E69C89E58FAFE68F90E58F96E79A84E8B584E987910000000000000000 PUSH0 DUP3 ADD MSTORE POP JUMP JUMPDEST PUSH0 PUSH2 0x14ED PUSH1 0x18 DUP4 PUSH2 0x141A JUMP JUMPDEST SWAP2 POP PUSH2 0x14F8 DUP3 PUSH2 0x14B9 JUMP JUMPDEST PUSH1 0x20 DUP3 ADD SWAP1 POP SWAP2 SWAP1 POP JUMP JUMPDEST PUSH0 PUSH1 0x20 DUP3 ADD SWAP1 POP DUP2 DUP2 SUB PUSH0 DUP4 ADD MSTORE PUSH2 0x151A DUP2 PUSH2 0x14E1 JUMP JUMPDEST SWAP1 POP SWAP2 SWAP1 POP JUMP JUMPDEST PUSH0 DUP2 SWAP1 POP SWAP3 SWAP2 POP POP JUMP JUMPDEST POP JUMP JUMPDEST PUSH0 PUSH2 0x1539 PUSH0 DUP4 PUSH2 0x1521 JUMP JUMPDEST SWAP2 POP PUSH2 0x1544 DUP3 PUSH2 0x152B JUMP JUMPDEST PUSH0 DUP3 ADD SWAP1 POP SWAP2 SWAP1 POP JUMP JUMPDEST PUSH0 PUSH2 0x1558 DUP3 PUSH2 0x152E JUMP JUMPDEST SWAP2 POP DUP2 SWAP1 POP SWAP2 SWAP1 POP JUMP JUMPDEST PUSH32 0xE6B2A1E69C89E8B4A1E78CAE0000000000000000000000000000000000000000 PUSH0 DUP3 ADD MSTORE POP JUMP JUMPDEST PUSH0 PUSH2 0x1596 PUSH1 0xC DUP4 PUSH2 0x141A JUMP JUMPDEST SWAP2 POP PUSH2 0x15A1 DUP3 PUSH2 0x1562 JUMP JUMPDEST PUSH1 0x20 DUP3 ADD SWAP1 POP SWAP2 SWAP1 POP JUMP JUMPDEST PUSH0 PUSH1 0x20 DUP3 ADD SWAP1 POP DUP2 DUP2 SUB PUSH0 DUP4 ADD MSTORE PUSH2 0x15C3 DUP2 PUSH2 0x158A JUMP JUMPDEST SWAP1 POP SWAP2 SWAP1 POP JUMP JUMPDEST PUSH32 0xE4BC97E7ADB9E5B7B2E7BB8FE7BB93E69D9F0000000000000000000000000000 PUSH0 DUP3 ADD MSTORE POP JUMP JUMPDEST PUSH0 PUSH2 0x15FE PUSH1 0x12 DUP4 PUSH2 0x141A JUMP JUMPDEST SWAP2 POP PUSH2 0x1609 DUP3 PUSH2 0x15CA JUMP JUMPDEST PUSH1 0x20 DUP3 ADD SWAP1 POP SWAP2 SWAP1 POP JUMP JUMPDEST PUSH0 PUSH1 0x20 DUP3 ADD SWAP1 POP DUP2 DUP2 SUB PUSH0 DUP4 ADD MSTORE PUSH2 0x162B DUP2 PUSH2 0x15F2 JUMP JUMPDEST SWAP1 POP SWAP2 SWAP1 POP JUMP JUMPDEST PUSH0 PUSH2 0x163C DUP3 PUSH2 0x1134 JUMP JUMPDEST SWAP2 POP PUSH2 0x1647 DUP4 PUSH2 0x1134 JUMP JUMPDEST SWAP3 POP DUP3 DUP3 ADD SWAP1 POP DUP1 DUP3 GT ISZERO PUSH2 0x165F JUMPI PUSH2 0x165E PUSH2 0x13BA JUMP JUMPDEST JUMPDEST SWAP3 SWAP2 POP POP JUMP JUMPDEST PUSH32 0xE79BAEE6A087E5B7B2E8BEBEE68890EFBC8CE4B88DE883BDE98080E6ACBE0000 PUSH0 DUP3 ADD MSTORE POP JUMP JUMPDEST PUSH0 PUSH2 0x1699 PUSH1 0x1E DUP4 PUSH2 0x141A JUMP JUMPDEST SWAP2 POP PUSH2 0x16A4 DUP3 PUSH2 0x1665 JUMP JUMPDEST PUSH1 0x20 DUP3 ADD SWAP1 POP SWAP2 SWAP1 POP JUMP JUMPDEST PUSH0 PUSH1 0x20 DUP3 ADD SWAP1 POP DUP2 DUP2 SUB PUSH0 DUP4 ADD MSTORE PUSH2 0x16C6 DUP2 PUSH2 0x168D JUMP JUMPDEST SWAP1 POP SWAP2 SWAP1 POP JUMP JUMPDEST PUSH32 0x4E487B7100000000000000000000000000000000000000000000000000000000 PUSH0 MSTORE PUSH1 0x32 PUSH1 0x4 MSTORE PUSH1 0x24 PUSH0 REVERT JUMPDEST PUSH32 0x5472616E73666572206661696C65640000000000000000000000000000000000 PUSH0 DUP3 ADD MSTORE POP JUMP JUMPDEST PUSH0 PUSH2 0x172E PUSH1 0xF DUP4 PUSH2 0x141A JUMP JUMPDEST SWAP2 POP PUSH2 0x1739 DUP3 PUSH2 0x16FA JUMP JUMPDEST PUSH1 0x20 DUP3 ADD SWAP1 POP SWAP2 SWAP1 POP JUMP JUMPDEST PUSH0 PUSH1 0x40 DUP3 ADD SWAP1 POP PUSH2 0x1757 PUSH0 DUP4 ADD DUP5 PUSH2 0x113D JUMP JUMPDEST DUP2 DUP2 SUB PUSH1 0x20 DUP4 ADD MSTORE PUSH2 0x1768 DUP2 PUSH2 0x1722 JUMP JUMPDEST SWAP1 POP SWAP3 SWAP2 POP POP JUMP INVALID LOG2 PUSH5 0x6970667358 0x22 SLT KECCAK256 PUSH31 0x60E0A0EA940EC127FA0BBA64FA0C65CA9803D553904AE5E5CCE18627F8F3E2 PUSH5 0x736F6C6343 STOP ADDMOD 0x1F STOP CALLER "
				},
				"gasEstimates": {
					"creation": {
						"codeDepositCost": "1210800",
						"executionCost": "infinite",
						"totalCost": "infinite"
					},
					"external": {
						"batchRefund(address[])": "infinite",
						"contribute()": "infinite",
						"contributions(address)": "2869",
						"deadline()": "2493",
						"endCampaign()": "57252",
						"ended()": "2490",
						"goal()": "2470",
						"goalReached()": "2562",
						"owner()": "2574",
						"refund()": "infinite",
						"refunded(address)": "2855",
						"timeLeft()": "infinite",
						"totalRaised()": "2469",
						"withdraw()": "infinite"
					}
				},
				"methodIdentifiers": {
					"batchRefund(address[])": "fff96005",
					"contribute()": "d7bb99ba",
					"contributions(address)": "42e94c90",
					"deadline()": "29dcb0cf",
					"endCampaign()": "71aac7f9",
					"ended()": "12fa6feb",
					"goal()": "40193883",
					"goalReached()": "7d3d6522",
					"owner()": "8da5cb5b",
					"refund()": "590e1ae3",
					"refunded(address)": "c033a490",
					"timeLeft()": "1300a6d1",
					"totalRaised()": "c5c4744c",
					"withdraw()": "3ccfd60b"
				}
			},
			"storageLayout": {
				"storage": [
					{
						"astId": 29,
						"contract": "contracts/lesson7.2/Crowdfunding.sol:Crowdfunding",
						"label": "owner",
						"offset": 0,
						"slot": "0",
						"type": "t_address"
					},
					{
						"astId": 31,
						"contract": "contracts/lesson7.2/Crowdfunding.sol:Crowdfunding",
						"label": "goal",
						"offset": 0,
						"slot": "1",
						"type": "t_uint256"
					},
					{
						"astId": 33,
						"contract": "contracts/lesson7.2/Crowdfunding.sol:Crowdfunding",
						"label": "deadline",
						"offset": 0,
						"slot": "2",
						"type": "t_uint256"
					},
					{
						"astId": 35,
						"contract": "contracts/lesson7.2/Crowdfunding.sol:Crowdfunding",
						"label": "totalRaised",
						"offset": 0,
						"slot": "3",
						"type": "t_uint256"
					},
					{
						"astId": 37,
						"contract": "contracts/lesson7.2/Crowdfunding.sol:Crowdfunding",
						"label": "ended",
						"offset": 0,
						"slot": "4",
						"type": "t_bool"
					},
					{
						"astId": 39,
						"contract": "contracts/lesson7.2/Crowdfunding.sol:Crowdfunding",
						"label": "goalReached",
						"offset": 1,
						"slot": "4",
						"type": "t_bool"
					},
					{
						"astId": 43,
						"contract": "contracts/lesson7.2/Crowdfunding.sol:Crowdfunding",
						"label": "contributions",
						"offset": 0,
						"slot": "5",
						"type": "t_mapping(t_address,t_uint256)"
					},
					{
						"astId": 47,
						"contract": "contracts/lesson7.2/Crowdfunding.sol:Crowdfunding",
						"label": "refunded",
						"offset": 0,
						"slot": "6",
						"type": "t_mapping(t_address,t_bool)"
					}
				],
				"types": {
					"t_address": {
						"encoding": "inplace",
						"label": "address",
						"numberOfBytes": "20"
					},
					"t_bool": {
						"encoding": "inplace",
						"label": "bool",
						"numberOfBytes": "1"
					},
					"t_mapping(t_address,t_bool)": {
						"encoding": "mapping",
						"key": "t_address",
						"label": "mapping(address => bool)",
						"numberOfBytes": "32",
						"value": "t_bool"
					},
					"t_mapping(t_address,t_uint256)": {
						"encoding": "mapping",
						"key": "t_address",
						"label": "mapping(address => uint256)",
						"numberOfBytes": "32",
						"value": "t_uint256"
					},
					"t_uint256": {
						"encoding": "inplace",
						"label": "uint256",
						"numberOfBytes": "32"
					}
				}
			},
			"userdoc": {
				"kind": "user",
				"methods": {
					"batchRefund(address[])": {
						"notice": "批量退款（仅所有者，用于紧急情况）"
					},
					"contribute()": {
						"notice": "贡献资金"
					},
					"endCampaign()": {
						"notice": "结束众筹"
					},
					"refund()": {
						"notice": "退款（目标未达成时）"
					},
					"timeLeft()": {
						"notice": "查询剩余时间"
					},
					"withdraw()": {
						"notice": "提取资金（仅所有者，目标达成后）"
					}
				},
				"version": 1
			}
		}
	}
}