{
	"contracts/lesson7.2/IERC20.sol": {
		"TokenSwap": {
			"abi": [
				{
					"anonymous": false,
					"inputs": [
						{
							"indexed": true,
							"internalType": "address",
							"name": "user",
							"type": "address"
						},
						{
							"indexed": false,
							"internalType": "string",
							"name": "reason",
							"type": "string"
						}
					],
					"name": "SwapFailed",
					"type": "event"
				},
				{
					"anonymous": false,
					"inputs": [
						{
							"indexed": true,
							"internalType": "address",
							"name": "user",
							"type": "address"
						},
						{
							"indexed": false,
							"internalType": "bytes",
							"name": "errorData",
							"type": "bytes"
						}
					],
					"name": "SwapFailedCustom",
					"type": "event"
				},
				{
					"anonymous": false,
					"inputs": [
						{
							"indexed": true,
							"internalType": "address",
							"name": "user",
							"type": "address"
						},
						{
							"indexed": false,
							"internalType": "uint256",
							"name": "errorCode",
							"type": "uint256"
						}
					],
					"name": "SwapFailedPanic",
					"type": "event"
				},
				{
					"anonymous": false,
					"inputs": [
						{
							"indexed": true,
							"internalType": "address",
							"name": "user",
							"type": "address"
						},
						{
							"indexed": false,
							"internalType": "address",
							"name": "tokenIn",
							"type": "address"
						},
						{
							"indexed": false,
							"internalType": "address",
							"name": "tokenOut",
							"type": "address"
						},
						{
							"indexed": false,
							"internalType": "uint256",
							"name": "amountIn",
							"type": "uint256"
						},
						{
							"indexed": false,
							"internalType": "uint256",
							"name": "amountOut",
							"type": "uint256"
						}
					],
					"name": "SwapSuccess",
					"type": "event"
				},
				{
					"inputs": [
						{
							"internalType": "address",
							"name": "tokenIn",
							"type": "address"
						},
						{
							"internalType": "address",
							"name": "tokenOut",
							"type": "address"
						},
						{
							"internalType": "uint256",
							"name": "amountIn",
							"type": "uint256"
						},
						{
							"internalType": "uint256",
							"name": "amountOut",
							"type": "uint256"
						}
					],
					"name": "swap",
					"outputs": [
						{
							"internalType": "bool",
							"name": "",
							"type": "bool"
						}
					],
					"stateMutability": "nonpayable",
					"type": "function"
				}
			],
			"devdoc": {
				"kind": "dev",
				"methods": {},
				"version": 1
			},
			"evm": {
				"assembly": "    /* \"contracts/lesson7.2/IERC20.sol\":278:3028  contract TokenSwap {... */\n  mstore(0x40, 0x80)\n  callvalue\n  dup1\n  iszero\n  tag_1\n  jumpi\n  revert(0x00, 0x00)\ntag_1:\n  pop\n  dataSize(sub_0)\n  dup1\n  dataOffset(sub_0)\n  0x00\n  codecopy\n  0x00\n  return\nstop\n\nsub_0: assembly {\n        /* \"contracts/lesson7.2/IERC20.sol\":278:3028  contract TokenSwap {... */\n      mstore(0x40, 0x80)\n      callvalue\n      dup1\n      iszero\n      tag_1\n      jumpi\n      revert(0x00, 0x00)\n    tag_1:\n      pop\n      jumpi(tag_2, lt(calldatasize, 0x04))\n      shr(0xe0, calldataload(0x00))\n      dup1\n      0xfe029156\n      eq\n      tag_3\n      jumpi\n    tag_2:\n      revert(0x00, 0x00)\n        /* \"contracts/lesson7.2/IERC20.sol\":705:3026  function swap(... */\n    tag_3:\n      tag_4\n      0x04\n      dup1\n      calldatasize\n      sub\n      dup2\n      add\n      swap1\n      tag_5\n      swap2\n      swap1\n      tag_6\n      jump\t// in\n    tag_5:\n      tag_7\n      jump\t// in\n    tag_4:\n      mload(0x40)\n      tag_8\n      swap2\n      swap1\n      tag_9\n      jump\t// in\n    tag_8:\n      mload(0x40)\n      dup1\n      swap2\n      sub\n      swap1\n      return\n    tag_7:\n        /* \"contracts/lesson7.2/IERC20.sol\":845:849  bool */\n      0x00\n        /* \"contracts/lesson7.2/IERC20.sol\":928:935  tokenIn */\n      dup5\n        /* \"contracts/lesson7.2/IERC20.sol\":921:949  IERC20(tokenIn).transferFrom */\n      0xffffffffffffffffffffffffffffffffffffffff\n      and\n      0x23b872dd\n        /* \"contracts/lesson7.2/IERC20.sol\":950:960  msg.sender */\n      caller\n        /* \"contracts/lesson7.2/IERC20.sol\":970:974  this */\n      address\n        /* \"contracts/lesson7.2/IERC20.sol\":977:985  amountIn */\n      dup7\n        /* \"contracts/lesson7.2/IERC20.sol\":921:986  IERC20(tokenIn).transferFrom(msg.sender, address(this), amountIn) */\n      mload(0x40)\n      dup5\n      0xffffffff\n      and\n      0xe0\n      shl\n      dup2\n      mstore\n      0x04\n      add\n      tag_11\n      swap4\n      swap3\n      swap2\n      swap1\n      tag_12\n      jump\t// in\n    tag_11:\n      0x20\n      mload(0x40)\n      dup1\n      dup4\n      sub\n      dup2\n      0x00\n      dup8\n      gas\n      call\n      swap3\n      pop\n      pop\n      pop\n      dup1\n      iszero\n      tag_13\n      jumpi\n      pop\n      mload(0x40)\n      returndatasize\n      not(0x1f)\n      0x1f\n      dup3\n      add\n      and\n      dup3\n      add\n      dup1\n      0x40\n      mstore\n      pop\n      dup2\n      add\n      swap1\n      tag_14\n      swap2\n      swap1\n      tag_15\n      jump\t// in\n    tag_14:\n      0x01\n    tag_13:\n        /* \"contracts/lesson7.2/IERC20.sol\":905:3020  try... */\n      tag_16\n      jumpi\n      tag_20\n      tag_21\n      jump\t// in\n    tag_20:\n      dup1\n      0x08c379a0\n      sub\n      tag_19\n      jumpi\n      pop\n      tag_22\n      tag_23\n      jump\t// in\n    tag_22:\n      dup1\n      tag_24\n      jumpi\n      pop\n      jump(tag_18)\n    tag_24:\n        /* \"contracts/lesson7.2/IERC20.sol\":2714:2724  msg.sender */\n      caller\n        /* \"contracts/lesson7.2/IERC20.sol\":2703:2733  SwapFailed(msg.sender, reason) */\n      0xffffffffffffffffffffffffffffffffffffffff\n      and\n      0xf305e21acf35a21221f1b76b9e78963d5c903e3a27a3a1e533a289eada598613\n        /* \"contracts/lesson7.2/IERC20.sol\":2726:2732  reason */\n      dup3\n        /* \"contracts/lesson7.2/IERC20.sol\":2703:2733  SwapFailed(msg.sender, reason) */\n      mload(0x40)\n      tag_25\n      swap2\n      swap1\n      tag_26\n      jump\t// in\n    tag_25:\n      mload(0x40)\n      dup1\n      swap2\n      sub\n      swap1\n      log2\n        /* \"contracts/lesson7.2/IERC20.sol\":2754:2759  false */\n      0x00\n        /* \"contracts/lesson7.2/IERC20.sol\":2747:2759  return false */\n      swap2\n      pop\n      pop\n      jump(tag_10)\n        /* \"contracts/lesson7.2/IERC20.sol\":905:3020  try... */\n    tag_19:\n      0x4e487b71\n      sub\n      tag_18\n      jumpi\n      tag_27\n      tag_28\n      jump\t// in\n    tag_27:\n      swap1\n      tag_29\n      jumpi\n      pop\n      jump(tag_18)\n    tag_29:\n        /* \"contracts/lesson7.2/IERC20.sol\":2834:2844  msg.sender */\n      caller\n        /* \"contracts/lesson7.2/IERC20.sol\":2818:2856  SwapFailedPanic(msg.sender, errorCode) */\n      0xffffffffffffffffffffffffffffffffffffffff\n      and\n      0xc0e029f16b52c5d021f36243700461768b7e1a6245cf67db6ed43b4b6c74b46a\n        /* \"contracts/lesson7.2/IERC20.sol\":2846:2855  errorCode */\n      dup3\n        /* \"contracts/lesson7.2/IERC20.sol\":2818:2856  SwapFailedPanic(msg.sender, errorCode) */\n      mload(0x40)\n      tag_30\n      swap2\n      swap1\n      tag_31\n      jump\t// in\n    tag_30:\n      mload(0x40)\n      dup1\n      swap2\n      sub\n      swap1\n      log2\n        /* \"contracts/lesson7.2/IERC20.sol\":2877:2882  false */\n      0x00\n        /* \"contracts/lesson7.2/IERC20.sol\":2870:2882  return false */\n      swap2\n      pop\n      pop\n      jump(tag_10)\n        /* \"contracts/lesson7.2/IERC20.sol\":905:3020  try... */\n    tag_18:\n      returndatasize\n      dup1\n      0x00\n      dup2\n      eq\n      tag_33\n      jumpi\n      mload(0x40)\n      swap2\n      pop\n      and(add(returndatasize, 0x3f), not(0x1f))\n      dup3\n      add\n      0x40\n      mstore\n      returndatasize\n      dup3\n      mstore\n      returndatasize\n      0x00\n      0x20\n      dup5\n      add\n      returndatacopy\n      jump(tag_32)\n    tag_33:\n      0x60\n      swap2\n      pop\n    tag_32:\n      pop\n        /* \"contracts/lesson7.2/IERC20.sol\":2961:2971  msg.sender */\n      caller\n        /* \"contracts/lesson7.2/IERC20.sol\":2944:2983  SwapFailedCustom(msg.sender, errorData) */\n      0xffffffffffffffffffffffffffffffffffffffff\n      and\n      0x473c659d673c43f9806b263f85bc98124dce6ecea5f0fb55d8ee643fdf8bb807\n        /* \"contracts/lesson7.2/IERC20.sol\":2973:2982  errorData */\n      dup3\n        /* \"contracts/lesson7.2/IERC20.sol\":2944:2983  SwapFailedCustom(msg.sender, errorData) */\n      mload(0x40)\n      tag_34\n      swap2\n      swap1\n      tag_35\n      jump\t// in\n    tag_34:\n      mload(0x40)\n      dup1\n      swap2\n      sub\n      swap1\n      log2\n        /* \"contracts/lesson7.2/IERC20.sol\":3004:3009  false */\n      0x00\n        /* \"contracts/lesson7.2/IERC20.sol\":2997:3009  return false */\n      swap2\n      pop\n      pop\n      jump(tag_10)\n        /* \"contracts/lesson7.2/IERC20.sol\":905:3020  try... */\n    tag_16:\n        /* \"contracts/lesson7.2/IERC20.sol\":1037:1044  success */\n      dup1\n        /* \"contracts/lesson7.2/IERC20.sol\":1032:1167  if (!success) {... */\n      tag_37\n      jumpi\n        /* \"contracts/lesson7.2/IERC20.sol\":1080:1090  msg.sender */\n      caller\n        /* \"contracts/lesson7.2/IERC20.sol\":1069:1122  SwapFailed(msg.sender, \"TransferFrom returned false\") */\n      0xffffffffffffffffffffffffffffffffffffffff\n      and\n      0xf305e21acf35a21221f1b76b9e78963d5c903e3a27a3a1e533a289eada598613\n      mload(0x40)\n      tag_38\n      swap1\n      tag_39\n      jump\t// in\n    tag_38:\n      mload(0x40)\n      dup1\n      swap2\n      sub\n      swap1\n      log2\n        /* \"contracts/lesson7.2/IERC20.sol\":1147:1152  false */\n      0x00\n        /* \"contracts/lesson7.2/IERC20.sol\":1140:1152  return false */\n      swap2\n      pop\n      pop\n      jump(tag_10)\n        /* \"contracts/lesson7.2/IERC20.sol\":1032:1167  if (!success) {... */\n    tag_37:\n        /* \"contracts/lesson7.2/IERC20.sol\":1241:1249  tokenOut */\n      dup5\n        /* \"contracts/lesson7.2/IERC20.sol\":1234:1259  IERC20(tokenOut).transfer */\n      0xffffffffffffffffffffffffffffffffffffffff\n      and\n      0xa9059cbb\n        /* \"contracts/lesson7.2/IERC20.sol\":1260:1270  msg.sender */\n      caller\n        /* \"contracts/lesson7.2/IERC20.sol\":1272:1281  amountOut */\n      dup6\n        /* \"contracts/lesson7.2/IERC20.sol\":1234:1282  IERC20(tokenOut).transfer(msg.sender, amountOut) */\n      mload(0x40)\n      dup4\n      0xffffffff\n      and\n      0xe0\n      shl\n      dup2\n      mstore\n      0x04\n      add\n      tag_40\n      swap3\n      swap2\n      swap1\n      tag_41\n      jump\t// in\n    tag_40:\n      0x20\n      mload(0x40)\n      dup1\n      dup4\n      sub\n      dup2\n      0x00\n      dup8\n      gas\n      call\n      swap3\n      pop\n      pop\n      pop\n      dup1\n      iszero\n      tag_42\n      jumpi\n      pop\n      mload(0x40)\n      returndatasize\n      not(0x1f)\n      0x1f\n      dup3\n      add\n      and\n      dup3\n      add\n      dup1\n      0x40\n      mstore\n      pop\n      dup2\n      add\n      swap1\n      tag_43\n      swap2\n      swap1\n      tag_15\n      jump\t// in\n    tag_43:\n      0x01\n    tag_42:\n        /* \"contracts/lesson7.2/IERC20.sol\":1230:2639  try IERC20(tokenOut).transfer(msg.sender, amountOut) returns (... */\n      tag_44\n      jumpi\n      tag_48\n      tag_21\n      jump\t// in\n    tag_48:\n      dup1\n      0x08c379a0\n      sub\n      tag_47\n      jumpi\n      pop\n      tag_49\n      tag_23\n      jump\t// in\n    tag_49:\n      dup1\n      tag_50\n      jumpi\n      pop\n      jump(tag_46)\n    tag_50:\n        /* \"contracts/lesson7.2/IERC20.sol\":1987:1994  tokenIn */\n      dup7\n        /* \"contracts/lesson7.2/IERC20.sol\":1980:2004  IERC20(tokenIn).transfer */\n      0xffffffffffffffffffffffffffffffffffffffff\n      and\n      0xa9059cbb\n        /* \"contracts/lesson7.2/IERC20.sol\":2005:2015  msg.sender */\n      caller\n        /* \"contracts/lesson7.2/IERC20.sol\":2017:2025  amountIn */\n      dup8\n        /* \"contracts/lesson7.2/IERC20.sol\":1980:2026  IERC20(tokenIn).transfer(msg.sender, amountIn) */\n      mload(0x40)\n      dup4\n      0xffffffff\n      and\n      0xe0\n      shl\n      dup2\n      mstore\n      0x04\n      add\n      tag_51\n      swap3\n      swap2\n      swap1\n      tag_41\n      jump\t// in\n    tag_51:\n      0x20\n      mload(0x40)\n      dup1\n      dup4\n      sub\n      dup2\n      0x00\n      dup8\n      gas\n      call\n      iszero\n      dup1\n      iszero\n      tag_53\n      jumpi\n      returndatacopy(0x00, 0x00, returndatasize)\n      revert(0x00, returndatasize)\n    tag_53:\n      pop\n      pop\n      pop\n      pop\n      mload(0x40)\n      returndatasize\n      not(0x1f)\n      0x1f\n      dup3\n      add\n      and\n      dup3\n      add\n      dup1\n      0x40\n      mstore\n      pop\n      dup2\n      add\n      swap1\n      tag_54\n      swap2\n      swap1\n      tag_15\n      jump\t// in\n    tag_54:\n      pop\n        /* \"contracts/lesson7.2/IERC20.sol\":2060:2070  msg.sender */\n      caller\n        /* \"contracts/lesson7.2/IERC20.sol\":2049:2079  SwapFailed(msg.sender, reason) */\n      0xffffffffffffffffffffffffffffffffffffffff\n      and\n      0xf305e21acf35a21221f1b76b9e78963d5c903e3a27a3a1e533a289eada598613\n        /* \"contracts/lesson7.2/IERC20.sol\":2072:2078  reason */\n      dup3\n        /* \"contracts/lesson7.2/IERC20.sol\":2049:2079  SwapFailed(msg.sender, reason) */\n      mload(0x40)\n      tag_55\n      swap2\n      swap1\n      tag_26\n      jump\t// in\n    tag_55:\n      mload(0x40)\n      dup1\n      swap2\n      sub\n      swap1\n      log2\n        /* \"contracts/lesson7.2/IERC20.sol\":2104:2109  false */\n      0x00\n        /* \"contracts/lesson7.2/IERC20.sol\":2097:2109  return false */\n      swap3\n      pop\n      pop\n      pop\n      jump(tag_10)\n        /* \"contracts/lesson7.2/IERC20.sol\":1230:2639  try IERC20(tokenOut).transfer(msg.sender, amountOut) returns (... */\n    tag_47:\n      0x4e487b71\n      sub\n      tag_46\n      jumpi\n      tag_56\n      tag_28\n      jump\t// in\n    tag_56:\n      swap1\n      tag_57\n      jumpi\n      pop\n      jump(tag_46)\n    tag_57:\n        /* \"contracts/lesson7.2/IERC20.sol\":2231:2238  tokenIn */\n      dup7\n        /* \"contracts/lesson7.2/IERC20.sol\":2224:2248  IERC20(tokenIn).transfer */\n      0xffffffffffffffffffffffffffffffffffffffff\n      and\n      0xa9059cbb\n        /* \"contracts/lesson7.2/IERC20.sol\":2249:2259  msg.sender */\n      caller\n        /* \"contracts/lesson7.2/IERC20.sol\":2261:2269  amountIn */\n      dup8\n        /* \"contracts/lesson7.2/IERC20.sol\":2224:2270  IERC20(tokenIn).transfer(msg.sender, amountIn) */\n      mload(0x40)\n      dup4\n      0xffffffff\n      and\n      0xe0\n      shl\n      dup2\n      mstore\n      0x04\n      add\n      tag_58\n      swap3\n      swap2\n      swap1\n      tag_41\n      jump\t// in\n    tag_58:\n      0x20\n      mload(0x40)\n      dup1\n      dup4\n      sub\n      dup2\n      0x00\n      dup8\n      gas\n      call\n      iszero\n      dup1\n      iszero\n      tag_60\n      jumpi\n      returndatacopy(0x00, 0x00, returndatasize)\n      revert(0x00, returndatasize)\n    tag_60:\n      pop\n      pop\n      pop\n      pop\n      mload(0x40)\n      returndatasize\n      not(0x1f)\n      0x1f\n      dup3\n      add\n      and\n      dup3\n      add\n      dup1\n      0x40\n      mstore\n      pop\n      dup2\n      add\n      swap1\n      tag_61\n      swap2\n      swap1\n      tag_15\n      jump\t// in\n    tag_61:\n      pop\n        /* \"contracts/lesson7.2/IERC20.sol\":2309:2319  msg.sender */\n      caller\n        /* \"contracts/lesson7.2/IERC20.sol\":2293:2331  SwapFailedPanic(msg.sender, errorCode) */\n      0xffffffffffffffffffffffffffffffffffffffff\n      and\n      0xc0e029f16b52c5d021f36243700461768b7e1a6245cf67db6ed43b4b6c74b46a\n        /* \"contracts/lesson7.2/IERC20.sol\":2321:2330  errorCode */\n      dup3\n        /* \"contracts/lesson7.2/IERC20.sol\":2293:2331  SwapFailedPanic(msg.sender, errorCode) */\n      mload(0x40)\n      tag_62\n      swap2\n      swap1\n      tag_31\n      jump\t// in\n    tag_62:\n      mload(0x40)\n      dup1\n      swap2\n      sub\n      swap1\n      log2\n        /* \"contracts/lesson7.2/IERC20.sol\":2356:2361  false */\n      0x00\n        /* \"contracts/lesson7.2/IERC20.sol\":2349:2361  return false */\n      swap3\n      pop\n      pop\n      pop\n      jump(tag_10)\n        /* \"contracts/lesson7.2/IERC20.sol\":1230:2639  try IERC20(tokenOut).transfer(msg.sender, amountOut) returns (... */\n    tag_46:\n      returndatasize\n      dup1\n      0x00\n      dup2\n      eq\n      tag_64\n      jumpi\n      mload(0x40)\n      swap2\n      pop\n      and(add(returndatasize, 0x3f), not(0x1f))\n      dup3\n      add\n      0x40\n      mstore\n      returndatasize\n      dup3\n      mstore\n      returndatasize\n      0x00\n      0x20\n      dup5\n      add\n      returndatacopy\n      jump(tag_63)\n    tag_64:\n      0x60\n      swap2\n      pop\n    tag_63:\n      pop\n        /* \"contracts/lesson7.2/IERC20.sol\":2493:2500  tokenIn */\n      dup7\n        /* \"contracts/lesson7.2/IERC20.sol\":2486:2510  IERC20(tokenIn).transfer */\n      0xffffffffffffffffffffffffffffffffffffffff\n      and\n      0xa9059cbb\n        /* \"contracts/lesson7.2/IERC20.sol\":2511:2521  msg.sender */\n      caller\n        /* \"contracts/lesson7.2/IERC20.sol\":2523:2531  amountIn */\n      dup8\n        /* \"contracts/lesson7.2/IERC20.sol\":2486:2532  IERC20(tokenIn).transfer(msg.sender, amountIn) */\n      mload(0x40)\n      dup4\n      0xffffffff\n      and\n      0xe0\n      shl\n      dup2\n      mstore\n      0x04\n      add\n      tag_65\n      swap3\n      swap2\n      swap1\n      tag_41\n      jump\t// in\n    tag_65:\n      0x20\n      mload(0x40)\n      dup1\n      dup4\n      sub\n      dup2\n      0x00\n      dup8\n      gas\n      call\n      iszero\n      dup1\n      iszero\n      tag_67\n      jumpi\n      returndatacopy(0x00, 0x00, returndatasize)\n      revert(0x00, returndatasize)\n    tag_67:\n      pop\n      pop\n      pop\n      pop\n      mload(0x40)\n      returndatasize\n      not(0x1f)\n      0x1f\n      dup3\n      add\n      and\n      dup3\n      add\n      dup1\n      0x40\n      mstore\n      pop\n      dup2\n      add\n      swap1\n      tag_68\n      swap2\n      swap1\n      tag_15\n      jump\t// in\n    tag_68:\n      pop\n        /* \"contracts/lesson7.2/IERC20.sol\":2572:2582  msg.sender */\n      caller\n        /* \"contracts/lesson7.2/IERC20.sol\":2555:2594  SwapFailedCustom(msg.sender, errorData) */\n      0xffffffffffffffffffffffffffffffffffffffff\n      and\n      0x473c659d673c43f9806b263f85bc98124dce6ecea5f0fb55d8ee643fdf8bb807\n        /* \"contracts/lesson7.2/IERC20.sol\":2584:2593  errorData */\n      dup3\n        /* \"contracts/lesson7.2/IERC20.sol\":2555:2594  SwapFailedCustom(msg.sender, errorData) */\n      mload(0x40)\n      tag_69\n      swap2\n      swap1\n      tag_35\n      jump\t// in\n    tag_69:\n      mload(0x40)\n      dup1\n      swap2\n      sub\n      swap1\n      log2\n        /* \"contracts/lesson7.2/IERC20.sol\":2619:2624  false */\n      0x00\n        /* \"contracts/lesson7.2/IERC20.sol\":2612:2624  return false */\n      swap3\n      pop\n      pop\n      pop\n      jump(tag_10)\n        /* \"contracts/lesson7.2/IERC20.sol\":1230:2639  try IERC20(tokenOut).transfer(msg.sender, amountOut) returns (... */\n    tag_44:\n        /* \"contracts/lesson7.2/IERC20.sol\":1360:1368  success2 */\n      dup1\n        /* \"contracts/lesson7.2/IERC20.sol\":1355:1625  if (!success2) {... */\n      tag_71\n      jumpi\n        /* \"contracts/lesson7.2/IERC20.sol\":1457:1464  tokenIn */\n      dup7\n        /* \"contracts/lesson7.2/IERC20.sol\":1450:1474  IERC20(tokenIn).transfer */\n      0xffffffffffffffffffffffffffffffffffffffff\n      and\n      0xa9059cbb\n        /* \"contracts/lesson7.2/IERC20.sol\":1475:1485  msg.sender */\n      caller\n        /* \"contracts/lesson7.2/IERC20.sol\":1487:1495  amountIn */\n      dup8\n        /* \"contracts/lesson7.2/IERC20.sol\":1450:1496  IERC20(tokenIn).transfer(msg.sender, amountIn) */\n      mload(0x40)\n      dup4\n      0xffffffff\n      and\n      0xe0\n      shl\n      dup2\n      mstore\n      0x04\n      add\n      tag_72\n      swap3\n      swap2\n      swap1\n      tag_41\n      jump\t// in\n    tag_72:\n      0x20\n      mload(0x40)\n      dup1\n      dup4\n      sub\n      dup2\n      0x00\n      dup8\n      gas\n      call\n      iszero\n      dup1\n      iszero\n      tag_74\n      jumpi\n      returndatacopy(0x00, 0x00, returndatasize)\n      revert(0x00, returndatasize)\n    tag_74:\n      pop\n      pop\n      pop\n      pop\n      mload(0x40)\n      returndatasize\n      not(0x1f)\n      0x1f\n      dup3\n      add\n      and\n      dup3\n      add\n      dup1\n      0x40\n      mstore\n      pop\n      dup2\n      add\n      swap1\n      tag_75\n      swap2\n      swap1\n      tag_15\n      jump\t// in\n    tag_75:\n      pop\n        /* \"contracts/lesson7.2/IERC20.sol\":1534:1544  msg.sender */\n      caller\n        /* \"contracts/lesson7.2/IERC20.sol\":1523:1572  SwapFailed(msg.sender, \"Transfer returned false\") */\n      0xffffffffffffffffffffffffffffffffffffffff\n      and\n      0xf305e21acf35a21221f1b76b9e78963d5c903e3a27a3a1e533a289eada598613\n      mload(0x40)\n      tag_76\n      swap1\n      tag_77\n      jump\t// in\n    tag_76:\n      mload(0x40)\n      dup1\n      swap2\n      sub\n      swap1\n      log2\n        /* \"contracts/lesson7.2/IERC20.sol\":1601:1606  false */\n      0x00\n        /* \"contracts/lesson7.2/IERC20.sol\":1594:1606  return false */\n      swap3\n      pop\n      pop\n      pop\n      jump(tag_10)\n        /* \"contracts/lesson7.2/IERC20.sol\":1355:1625  if (!success2) {... */\n    tag_71:\n        /* \"contracts/lesson7.2/IERC20.sol\":1681:1691  msg.sender */\n      caller\n        /* \"contracts/lesson7.2/IERC20.sol\":1648:1829  SwapSuccess(... */\n      0xffffffffffffffffffffffffffffffffffffffff\n      and\n      0xa735fb6bfc88d40598b51c9b5d88dd545bcfc7404c6825d5cde5e1a82379394e\n        /* \"contracts/lesson7.2/IERC20.sol\":1713:1720  tokenIn */\n      dup9\n        /* \"contracts/lesson7.2/IERC20.sol\":1742:1750  tokenOut */\n      dup9\n        /* \"contracts/lesson7.2/IERC20.sol\":1772:1780  amountIn */\n      dup9\n        /* \"contracts/lesson7.2/IERC20.sol\":1802:1811  amountOut */\n      dup9\n        /* \"contracts/lesson7.2/IERC20.sol\":1648:1829  SwapSuccess(... */\n      mload(0x40)\n      tag_78\n      swap5\n      swap4\n      swap3\n      swap2\n      swap1\n      tag_79\n      jump\t// in\n    tag_78:\n      mload(0x40)\n      dup1\n      swap2\n      sub\n      swap1\n      log2\n        /* \"contracts/lesson7.2/IERC20.sol\":1854:1858  true */\n      0x01\n        /* \"contracts/lesson7.2/IERC20.sol\":1847:1858  return true */\n      swap3\n      pop\n      pop\n      pop\n        /* \"contracts/lesson7.2/IERC20.sol\":705:3026  function swap(... */\n    tag_10:\n      swap5\n      swap4\n      pop\n      pop\n      pop\n      pop\n      jump\t// out\n        /* \"#utility.yul\":7:82   */\n    tag_80:\n        /* \"#utility.yul\":40:46   */\n      0x00\n        /* \"#utility.yul\":73:75   */\n      0x40\n        /* \"#utility.yul\":67:76   */\n      mload\n        /* \"#utility.yul\":57:76   */\n      swap1\n      pop\n        /* \"#utility.yul\":7:82   */\n      swap1\n      jump\t// out\n        /* \"#utility.yul\":88:205   */\n    tag_81:\n        /* \"#utility.yul\":197:198   */\n      0x00\n        /* \"#utility.yul\":194:195   */\n      0x00\n        /* \"#utility.yul\":187:199   */\n      revert\n        /* \"#utility.yul\":334:460   */\n    tag_83:\n        /* \"#utility.yul\":371:378   */\n      0x00\n        /* \"#utility.yul\":411:453   */\n      0xffffffffffffffffffffffffffffffffffffffff\n        /* \"#utility.yul\":404:409   */\n      dup3\n        /* \"#utility.yul\":400:454   */\n      and\n        /* \"#utility.yul\":389:454   */\n      swap1\n      pop\n        /* \"#utility.yul\":334:460   */\n      swap2\n      swap1\n      pop\n      jump\t// out\n        /* \"#utility.yul\":466:562   */\n    tag_84:\n        /* \"#utility.yul\":503:510   */\n      0x00\n        /* \"#utility.yul\":532:556   */\n      tag_117\n        /* \"#utility.yul\":550:555   */\n      dup3\n        /* \"#utility.yul\":532:556   */\n      tag_83\n      jump\t// in\n    tag_117:\n        /* \"#utility.yul\":521:556   */\n      swap1\n      pop\n        /* \"#utility.yul\":466:562   */\n      swap2\n      swap1\n      pop\n      jump\t// out\n        /* \"#utility.yul\":568:690   */\n    tag_85:\n        /* \"#utility.yul\":641:665   */\n      tag_119\n        /* \"#utility.yul\":659:664   */\n      dup2\n        /* \"#utility.yul\":641:665   */\n      tag_84\n      jump\t// in\n    tag_119:\n        /* \"#utility.yul\":634:639   */\n      dup2\n        /* \"#utility.yul\":631:666   */\n      eq\n        /* \"#utility.yul\":621:684   */\n      tag_120\n      jumpi\n        /* \"#utility.yul\":680:681   */\n      0x00\n        /* \"#utility.yul\":677:678   */\n      0x00\n        /* \"#utility.yul\":670:682   */\n      revert\n        /* \"#utility.yul\":621:684   */\n    tag_120:\n        /* \"#utility.yul\":568:690   */\n      pop\n      jump\t// out\n        /* \"#utility.yul\":696:835   */\n    tag_86:\n        /* \"#utility.yul\":742:747   */\n      0x00\n        /* \"#utility.yul\":780:786   */\n      dup2\n        /* \"#utility.yul\":767:787   */\n      calldataload\n        /* \"#utility.yul\":758:787   */\n      swap1\n      pop\n        /* \"#utility.yul\":796:829   */\n      tag_122\n        /* \"#utility.yul\":823:828   */\n      dup2\n        /* \"#utility.yul\":796:829   */\n      tag_85\n      jump\t// in\n    tag_122:\n        /* \"#utility.yul\":696:835   */\n      swap3\n      swap2\n      pop\n      pop\n      jump\t// out\n        /* \"#utility.yul\":841:918   */\n    tag_87:\n        /* \"#utility.yul\":878:885   */\n      0x00\n        /* \"#utility.yul\":907:912   */\n      dup2\n        /* \"#utility.yul\":896:912   */\n      swap1\n      pop\n        /* \"#utility.yul\":841:918   */\n      swap2\n      swap1\n      pop\n      jump\t// out\n        /* \"#utility.yul\":924:1046   */\n    tag_88:\n        /* \"#utility.yul\":997:1021   */\n      tag_125\n        /* \"#utility.yul\":1015:1020   */\n      dup2\n        /* \"#utility.yul\":997:1021   */\n      tag_87\n      jump\t// in\n    tag_125:\n        /* \"#utility.yul\":990:995   */\n      dup2\n        /* \"#utility.yul\":987:1022   */\n      eq\n        /* \"#utility.yul\":977:1040   */\n      tag_126\n      jumpi\n        /* \"#utility.yul\":1036:1037   */\n      0x00\n        /* \"#utility.yul\":1033:1034   */\n      0x00\n        /* \"#utility.yul\":1026:1038   */\n      revert\n        /* \"#utility.yul\":977:1040   */\n    tag_126:\n        /* \"#utility.yul\":924:1046   */\n      pop\n      jump\t// out\n        /* \"#utility.yul\":1052:1191   */\n    tag_89:\n        /* \"#utility.yul\":1098:1103   */\n      0x00\n        /* \"#utility.yul\":1136:1142   */\n      dup2\n        /* \"#utility.yul\":1123:1143   */\n      calldataload\n        /* \"#utility.yul\":1114:1143   */\n      swap1\n      pop\n        /* \"#utility.yul\":1152:1185   */\n      tag_128\n        /* \"#utility.yul\":1179:1184   */\n      dup2\n        /* \"#utility.yul\":1152:1185   */\n      tag_88\n      jump\t// in\n    tag_128:\n        /* \"#utility.yul\":1052:1191   */\n      swap3\n      swap2\n      pop\n      pop\n      jump\t// out\n        /* \"#utility.yul\":1197:1962   */\n    tag_6:\n        /* \"#utility.yul\":1283:1289   */\n      0x00\n        /* \"#utility.yul\":1291:1297   */\n      0x00\n        /* \"#utility.yul\":1299:1305   */\n      0x00\n        /* \"#utility.yul\":1307:1313   */\n      0x00\n        /* \"#utility.yul\":1356:1359   */\n      0x80\n        /* \"#utility.yul\":1344:1353   */\n      dup6\n        /* \"#utility.yul\":1335:1342   */\n      dup8\n        /* \"#utility.yul\":1331:1354   */\n      sub\n        /* \"#utility.yul\":1327:1360   */\n      slt\n        /* \"#utility.yul\":1324:1444   */\n      iszero\n      tag_130\n      jumpi\n        /* \"#utility.yul\":1363:1442   */\n      tag_131\n      tag_81\n      jump\t// in\n    tag_131:\n        /* \"#utility.yul\":1324:1444   */\n    tag_130:\n        /* \"#utility.yul\":1483:1484   */\n      0x00\n        /* \"#utility.yul\":1508:1561   */\n      tag_132\n        /* \"#utility.yul\":1553:1560   */\n      dup8\n        /* \"#utility.yul\":1544:1550   */\n      dup3\n        /* \"#utility.yul\":1533:1542   */\n      dup9\n        /* \"#utility.yul\":1529:1551   */\n      add\n        /* \"#utility.yul\":1508:1561   */\n      tag_86\n      jump\t// in\n    tag_132:\n        /* \"#utility.yul\":1498:1561   */\n      swap5\n      pop\n        /* \"#utility.yul\":1454:1571   */\n      pop\n        /* \"#utility.yul\":1610:1612   */\n      0x20\n        /* \"#utility.yul\":1636:1689   */\n      tag_133\n        /* \"#utility.yul\":1681:1688   */\n      dup8\n        /* \"#utility.yul\":1672:1678   */\n      dup3\n        /* \"#utility.yul\":1661:1670   */\n      dup9\n        /* \"#utility.yul\":1657:1679   */\n      add\n        /* \"#utility.yul\":1636:1689   */\n      tag_86\n      jump\t// in\n    tag_133:\n        /* \"#utility.yul\":1626:1689   */\n      swap4\n      pop\n        /* \"#utility.yul\":1581:1699   */\n      pop\n        /* \"#utility.yul\":1738:1740   */\n      0x40\n        /* \"#utility.yul\":1764:1817   */\n      tag_134\n        /* \"#utility.yul\":1809:1816   */\n      dup8\n        /* \"#utility.yul\":1800:1806   */\n      dup3\n        /* \"#utility.yul\":1789:1798   */\n      dup9\n        /* \"#utility.yul\":1785:1807   */\n      add\n        /* \"#utility.yul\":1764:1817   */\n      tag_89\n      jump\t// in\n    tag_134:\n        /* \"#utility.yul\":1754:1817   */\n      swap3\n      pop\n        /* \"#utility.yul\":1709:1827   */\n      pop\n        /* \"#utility.yul\":1866:1868   */\n      0x60\n        /* \"#utility.yul\":1892:1945   */\n      tag_135\n        /* \"#utility.yul\":1937:1944   */\n      dup8\n        /* \"#utility.yul\":1928:1934   */\n      dup3\n        /* \"#utility.yul\":1917:1926   */\n      dup9\n        /* \"#utility.yul\":1913:1935   */\n      add\n        /* \"#utility.yul\":1892:1945   */\n      tag_89\n      jump\t// in\n    tag_135:\n        /* \"#utility.yul\":1882:1945   */\n      swap2\n      pop\n        /* \"#utility.yul\":1837:1955   */\n      pop\n        /* \"#utility.yul\":1197:1962   */\n      swap3\n      swap6\n      swap2\n      swap5\n      pop\n      swap3\n      pop\n      jump\t// out\n        /* \"#utility.yul\":1968:2058   */\n    tag_90:\n        /* \"#utility.yul\":2002:2009   */\n      0x00\n        /* \"#utility.yul\":2045:2050   */\n      dup2\n        /* \"#utility.yul\":2038:2051   */\n      iszero\n        /* \"#utility.yul\":2031:2052   */\n      iszero\n        /* \"#utility.yul\":2020:2052   */\n      swap1\n      pop\n        /* \"#utility.yul\":1968:2058   */\n      swap2\n      swap1\n      pop\n      jump\t// out\n        /* \"#utility.yul\":2064:2173   */\n    tag_91:\n        /* \"#utility.yul\":2145:2166   */\n      tag_138\n        /* \"#utility.yul\":2160:2165   */\n      dup2\n        /* \"#utility.yul\":2145:2166   */\n      tag_90\n      jump\t// in\n    tag_138:\n        /* \"#utility.yul\":2140:2143   */\n      dup3\n        /* \"#utility.yul\":2133:2167   */\n      mstore\n        /* \"#utility.yul\":2064:2173   */\n      pop\n      pop\n      jump\t// out\n        /* \"#utility.yul\":2179:2389   */\n    tag_9:\n        /* \"#utility.yul\":2266:2270   */\n      0x00\n        /* \"#utility.yul\":2304:2306   */\n      0x20\n        /* \"#utility.yul\":2293:2302   */\n      dup3\n        /* \"#utility.yul\":2289:2307   */\n      add\n        /* \"#utility.yul\":2281:2307   */\n      swap1\n      pop\n        /* \"#utility.yul\":2317:2382   */\n      tag_140\n        /* \"#utility.yul\":2379:2380   */\n      0x00\n        /* \"#utility.yul\":2368:2377   */\n      dup4\n        /* \"#utility.yul\":2364:2381   */\n      add\n        /* \"#utility.yul\":2355:2361   */\n      dup5\n        /* \"#utility.yul\":2317:2382   */\n      tag_91\n      jump\t// in\n    tag_140:\n        /* \"#utility.yul\":2179:2389   */\n      swap3\n      swap2\n      pop\n      pop\n      jump\t// out\n        /* \"#utility.yul\":2395:2513   */\n    tag_92:\n        /* \"#utility.yul\":2482:2506   */\n      tag_142\n        /* \"#utility.yul\":2500:2505   */\n      dup2\n        /* \"#utility.yul\":2482:2506   */\n      tag_84\n      jump\t// in\n    tag_142:\n        /* \"#utility.yul\":2477:2480   */\n      dup3\n        /* \"#utility.yul\":2470:2507   */\n      mstore\n        /* \"#utility.yul\":2395:2513   */\n      pop\n      pop\n      jump\t// out\n        /* \"#utility.yul\":2519:2637   */\n    tag_93:\n        /* \"#utility.yul\":2606:2630   */\n      tag_144\n        /* \"#utility.yul\":2624:2629   */\n      dup2\n        /* \"#utility.yul\":2606:2630   */\n      tag_87\n      jump\t// in\n    tag_144:\n        /* \"#utility.yul\":2601:2604   */\n      dup3\n        /* \"#utility.yul\":2594:2631   */\n      mstore\n        /* \"#utility.yul\":2519:2637   */\n      pop\n      pop\n      jump\t// out\n        /* \"#utility.yul\":2643:3085   */\n    tag_12:\n        /* \"#utility.yul\":2792:2796   */\n      0x00\n        /* \"#utility.yul\":2830:2832   */\n      0x60\n        /* \"#utility.yul\":2819:2828   */\n      dup3\n        /* \"#utility.yul\":2815:2833   */\n      add\n        /* \"#utility.yul\":2807:2833   */\n      swap1\n      pop\n        /* \"#utility.yul\":2843:2914   */\n      tag_146\n        /* \"#utility.yul\":2911:2912   */\n      0x00\n        /* \"#utility.yul\":2900:2909   */\n      dup4\n        /* \"#utility.yul\":2896:2913   */\n      add\n        /* \"#utility.yul\":2887:2893   */\n      dup7\n        /* \"#utility.yul\":2843:2914   */\n      tag_92\n      jump\t// in\n    tag_146:\n        /* \"#utility.yul\":2924:2996   */\n      tag_147\n        /* \"#utility.yul\":2992:2994   */\n      0x20\n        /* \"#utility.yul\":2981:2990   */\n      dup4\n        /* \"#utility.yul\":2977:2995   */\n      add\n        /* \"#utility.yul\":2968:2974   */\n      dup6\n        /* \"#utility.yul\":2924:2996   */\n      tag_92\n      jump\t// in\n    tag_147:\n        /* \"#utility.yul\":3006:3078   */\n      tag_148\n        /* \"#utility.yul\":3074:3076   */\n      0x40\n        /* \"#utility.yul\":3063:3072   */\n      dup4\n        /* \"#utility.yul\":3059:3077   */\n      add\n        /* \"#utility.yul\":3050:3056   */\n      dup5\n        /* \"#utility.yul\":3006:3078   */\n      tag_93\n      jump\t// in\n    tag_148:\n        /* \"#utility.yul\":2643:3085   */\n      swap5\n      swap4\n      pop\n      pop\n      pop\n      pop\n      jump\t// out\n        /* \"#utility.yul\":3091:3207   */\n    tag_94:\n        /* \"#utility.yul\":3161:3182   */\n      tag_150\n        /* \"#utility.yul\":3176:3181   */\n      dup2\n        /* \"#utility.yul\":3161:3182   */\n      tag_90\n      jump\t// in\n    tag_150:\n        /* \"#utility.yul\":3154:3159   */\n      dup2\n        /* \"#utility.yul\":3151:3183   */\n      eq\n        /* \"#utility.yul\":3141:3201   */\n      tag_151\n      jumpi\n        /* \"#utility.yul\":3197:3198   */\n      0x00\n        /* \"#utility.yul\":3194:3195   */\n      0x00\n        /* \"#utility.yul\":3187:3199   */\n      revert\n        /* \"#utility.yul\":3141:3201   */\n    tag_151:\n        /* \"#utility.yul\":3091:3207   */\n      pop\n      jump\t// out\n        /* \"#utility.yul\":3213:3350   */\n    tag_95:\n        /* \"#utility.yul\":3267:3272   */\n      0x00\n        /* \"#utility.yul\":3298:3304   */\n      dup2\n        /* \"#utility.yul\":3292:3305   */\n      mload\n        /* \"#utility.yul\":3283:3305   */\n      swap1\n      pop\n        /* \"#utility.yul\":3314:3344   */\n      tag_153\n        /* \"#utility.yul\":3338:3343   */\n      dup2\n        /* \"#utility.yul\":3314:3344   */\n      tag_94\n      jump\t// in\n    tag_153:\n        /* \"#utility.yul\":3213:3350   */\n      swap3\n      swap2\n      pop\n      pop\n      jump\t// out\n        /* \"#utility.yul\":3356:3701   */\n    tag_15:\n        /* \"#utility.yul\":3423:3429   */\n      0x00\n        /* \"#utility.yul\":3472:3474   */\n      0x20\n        /* \"#utility.yul\":3460:3469   */\n      dup3\n        /* \"#utility.yul\":3451:3458   */\n      dup5\n        /* \"#utility.yul\":3447:3470   */\n      sub\n        /* \"#utility.yul\":3443:3475   */\n      slt\n        /* \"#utility.yul\":3440:3559   */\n      iszero\n      tag_155\n      jumpi\n        /* \"#utility.yul\":3478:3557   */\n      tag_156\n      tag_81\n      jump\t// in\n    tag_156:\n        /* \"#utility.yul\":3440:3559   */\n    tag_155:\n        /* \"#utility.yul\":3598:3599   */\n      0x00\n        /* \"#utility.yul\":3623:3684   */\n      tag_157\n        /* \"#utility.yul\":3676:3683   */\n      dup5\n        /* \"#utility.yul\":3667:3673   */\n      dup3\n        /* \"#utility.yul\":3656:3665   */\n      dup6\n        /* \"#utility.yul\":3652:3674   */\n      add\n        /* \"#utility.yul\":3623:3684   */\n      tag_95\n      jump\t// in\n    tag_157:\n        /* \"#utility.yul\":3613:3684   */\n      swap2\n      pop\n        /* \"#utility.yul\":3569:3694   */\n      pop\n        /* \"#utility.yul\":3356:3701   */\n      swap3\n      swap2\n      pop\n      pop\n      jump\t// out\n        /* \"#utility.yul\":3707:3813   */\n    tag_96:\n        /* \"#utility.yul\":3751:3759   */\n      0x00\n        /* \"#utility.yul\":3800:3805   */\n      dup2\n        /* \"#utility.yul\":3795:3798   */\n      0xe0\n        /* \"#utility.yul\":3791:3806   */\n      shr\n        /* \"#utility.yul\":3770:3806   */\n      swap1\n      pop\n        /* \"#utility.yul\":3707:3813   */\n      swap2\n      swap1\n      pop\n      jump\t// out\n        /* \"#utility.yul\":3819:4002   */\n    tag_21:\n        /* \"#utility.yul\":3854:3857   */\n      0x00\n        /* \"#utility.yul\":3892:3893   */\n      0x03\n        /* \"#utility.yul\":3874:3890   */\n      returndatasize\n        /* \"#utility.yul\":3871:3894   */\n      gt\n        /* \"#utility.yul\":3868:3996   */\n      iszero\n      tag_160\n      jumpi\n        /* \"#utility.yul\":3930:3931   */\n      0x04\n        /* \"#utility.yul\":3927:3928   */\n      0x00\n        /* \"#utility.yul\":3924:3925   */\n      0x00\n        /* \"#utility.yul\":3909:3932   */\n      returndatacopy\n        /* \"#utility.yul\":3952:3986   */\n      tag_161\n        /* \"#utility.yul\":3983:3984   */\n      0x00\n        /* \"#utility.yul\":3977:3985   */\n      mload\n        /* \"#utility.yul\":3952:3986   */\n      tag_96\n      jump\t// in\n    tag_161:\n        /* \"#utility.yul\":3945:3986   */\n      swap1\n      pop\n        /* \"#utility.yul\":3868:3996   */\n    tag_160:\n        /* \"#utility.yul\":3819:4002   */\n      swap1\n      jump\t// out\n        /* \"#utility.yul\":4008:4110   */\n    tag_97:\n        /* \"#utility.yul\":4049:4055   */\n      0x00\n        /* \"#utility.yul\":4100:4102   */\n      0x1f\n        /* \"#utility.yul\":4096:4103   */\n      not\n        /* \"#utility.yul\":4091:4093   */\n      0x1f\n        /* \"#utility.yul\":4084:4089   */\n      dup4\n        /* \"#utility.yul\":4080:4094   */\n      add\n        /* \"#utility.yul\":4076:4104   */\n      and\n        /* \"#utility.yul\":4066:4104   */\n      swap1\n      pop\n        /* \"#utility.yul\":4008:4110   */\n      swap2\n      swap1\n      pop\n      jump\t// out\n        /* \"#utility.yul\":4116:4296   */\n    tag_98:\n        /* \"#utility.yul\":4164:4241   */\n      0x4e487b7100000000000000000000000000000000000000000000000000000000\n        /* \"#utility.yul\":4161:4162   */\n      0x00\n        /* \"#utility.yul\":4154:4242   */\n      mstore\n        /* \"#utility.yul\":4261:4265   */\n      0x41\n        /* \"#utility.yul\":4258:4259   */\n      0x04\n        /* \"#utility.yul\":4251:4266   */\n      mstore\n        /* \"#utility.yul\":4285:4289   */\n      0x24\n        /* \"#utility.yul\":4282:4283   */\n      0x00\n        /* \"#utility.yul\":4275:4290   */\n      revert\n        /* \"#utility.yul\":4302:4583   */\n    tag_99:\n        /* \"#utility.yul\":4385:4412   */\n      tag_165\n        /* \"#utility.yul\":4407:4411   */\n      dup3\n        /* \"#utility.yul\":4385:4412   */\n      tag_97\n      jump\t// in\n    tag_165:\n        /* \"#utility.yul\":4377:4383   */\n      dup2\n        /* \"#utility.yul\":4373:4413   */\n      add\n        /* \"#utility.yul\":4515:4521   */\n      dup2\n        /* \"#utility.yul\":4503:4513   */\n      dup2\n        /* \"#utility.yul\":4500:4522   */\n      lt\n        /* \"#utility.yul\":4479:4497   */\n      0xffffffffffffffff\n        /* \"#utility.yul\":4467:4477   */\n      dup3\n        /* \"#utility.yul\":4464:4498   */\n      gt\n        /* \"#utility.yul\":4461:4523   */\n      or\n        /* \"#utility.yul\":4458:4546   */\n      iszero\n      tag_166\n      jumpi\n        /* \"#utility.yul\":4526:4544   */\n      tag_167\n      tag_98\n      jump\t// in\n    tag_167:\n        /* \"#utility.yul\":4458:4546   */\n    tag_166:\n        /* \"#utility.yul\":4566:4576   */\n      dup1\n        /* \"#utility.yul\":4562:4564   */\n      0x40\n        /* \"#utility.yul\":4555:4577   */\n      mstore\n        /* \"#utility.yul\":4345:4583   */\n      pop\n        /* \"#utility.yul\":4302:4583   */\n      pop\n      pop\n      jump\t// out\n        /* \"#utility.yul\":4589:5300   */\n    tag_23:\n        /* \"#utility.yul\":4628:4631   */\n      0x00\n        /* \"#utility.yul\":4666:4670   */\n      0x44\n        /* \"#utility.yul\":4648:4664   */\n      returndatasize\n        /* \"#utility.yul\":4645:4671   */\n      lt\n        /* \"#utility.yul\":4674:4679   */\n      tag_168\n        /* \"#utility.yul\":4642:4681   */\n      jumpi\n        /* \"#utility.yul\":4703:4723   */\n      tag_170\n      tag_80\n      jump\t// in\n    tag_170:\n        /* \"#utility.yul\":4778:4779   */\n      0x04\n        /* \"#utility.yul\":4760:4776   */\n      returndatasize\n        /* \"#utility.yul\":4756:4780   */\n      sub\n        /* \"#utility.yul\":4753:4754   */\n      0x04\n        /* \"#utility.yul\":4747:4751   */\n      dup3\n        /* \"#utility.yul\":4732:4781   */\n      returndatacopy\n        /* \"#utility.yul\":4811:4815   */\n      dup1\n        /* \"#utility.yul\":4805:4816   */\n      mload\n        /* \"#utility.yul\":4910:4926   */\n      returndatasize\n        /* \"#utility.yul\":4903:4907   */\n      0x24\n        /* \"#utility.yul\":4895:4901   */\n      dup3\n        /* \"#utility.yul\":4891:4908   */\n      add\n        /* \"#utility.yul\":4888:4927   */\n      gt\n        /* \"#utility.yul\":4855:4873   */\n      0xffffffffffffffff\n        /* \"#utility.yul\":4847:4853   */\n      dup3\n        /* \"#utility.yul\":4844:4874   */\n      gt\n        /* \"#utility.yul\":4828:4941   */\n      or\n        /* \"#utility.yul\":4825:4971   */\n      iszero\n      tag_171\n      jumpi\n        /* \"#utility.yul\":4956:4961   */\n      pop\n      pop\n      jump(tag_168)\n        /* \"#utility.yul\":4825:4971   */\n    tag_171:\n        /* \"#utility.yul\":5002:5008   */\n      dup1\n        /* \"#utility.yul\":4996:5000   */\n      dup3\n        /* \"#utility.yul\":4992:5009   */\n      add\n        /* \"#utility.yul\":5038:5041   */\n      dup1\n        /* \"#utility.yul\":5032:5042   */\n      mload\n        /* \"#utility.yul\":5065:5083   */\n      0xffffffffffffffff\n        /* \"#utility.yul\":5057:5063   */\n      dup2\n        /* \"#utility.yul\":5054:5084   */\n      gt\n        /* \"#utility.yul\":5051:5094   */\n      iszero\n      tag_172\n      jumpi\n        /* \"#utility.yul\":5087:5092   */\n      pop\n      pop\n      pop\n      pop\n      jump(tag_168)\n        /* \"#utility.yul\":5051:5094   */\n    tag_172:\n        /* \"#utility.yul\":5135:5141   */\n      dup1\n        /* \"#utility.yul\":5128:5132   */\n      0x20\n        /* \"#utility.yul\":5123:5126   */\n      dup4\n        /* \"#utility.yul\":5119:5133   */\n      add\n        /* \"#utility.yul\":5115:5142   */\n      add\n        /* \"#utility.yul\":5194:5195   */\n      0x04\n        /* \"#utility.yul\":5176:5192   */\n      returndatasize\n        /* \"#utility.yul\":5172:5196   */\n      sub\n        /* \"#utility.yul\":5166:5170   */\n      dup6\n        /* \"#utility.yul\":5162:5197   */\n      add\n        /* \"#utility.yul\":5157:5160   */\n      dup2\n        /* \"#utility.yul\":5154:5198   */\n      gt\n        /* \"#utility.yul\":5151:5208   */\n      iszero\n      tag_173\n      jumpi\n        /* \"#utility.yul\":5201:5206   */\n      pop\n      pop\n      pop\n      pop\n      pop\n      jump(tag_168)\n        /* \"#utility.yul\":5151:5208   */\n    tag_173:\n        /* \"#utility.yul\":5218:5275   */\n      tag_174\n        /* \"#utility.yul\":5266:5272   */\n      dup3\n        /* \"#utility.yul\":5260:5264   */\n      0x20\n        /* \"#utility.yul\":5256:5273   */\n      add\n        /* \"#utility.yul\":5248:5254   */\n      dup6\n        /* \"#utility.yul\":5244:5274   */\n      add\n        /* \"#utility.yul\":5238:5242   */\n      dup7\n        /* \"#utility.yul\":5218:5275   */\n      tag_99\n      jump\t// in\n    tag_174:\n        /* \"#utility.yul\":5291:5294   */\n      dup3\n        /* \"#utility.yul\":5284:5294   */\n      swap6\n      pop\n        /* \"#utility.yul\":4632:5300   */\n      pop\n      pop\n      pop\n      pop\n      pop\n        /* \"#utility.yul\":4589:5300   */\n    tag_168:\n      swap1\n      jump\t// out\n        /* \"#utility.yul\":5306:5405   */\n    tag_100:\n        /* \"#utility.yul\":5358:5364   */\n      0x00\n        /* \"#utility.yul\":5392:5397   */\n      dup2\n        /* \"#utility.yul\":5386:5398   */\n      mload\n        /* \"#utility.yul\":5376:5398   */\n      swap1\n      pop\n        /* \"#utility.yul\":5306:5405   */\n      swap2\n      swap1\n      pop\n      jump\t// out\n        /* \"#utility.yul\":5411:5580   */\n    tag_101:\n        /* \"#utility.yul\":5495:5506   */\n      0x00\n        /* \"#utility.yul\":5529:5535   */\n      dup3\n        /* \"#utility.yul\":5524:5527   */\n      dup3\n        /* \"#utility.yul\":5517:5536   */\n      mstore\n        /* \"#utility.yul\":5569:5573   */\n      0x20\n        /* \"#utility.yul\":5564:5567   */\n      dup3\n        /* \"#utility.yul\":5560:5574   */\n      add\n        /* \"#utility.yul\":5545:5574   */\n      swap1\n      pop\n        /* \"#utility.yul\":5411:5580   */\n      swap3\n      swap2\n      pop\n      pop\n      jump\t// out\n        /* \"#utility.yul\":5586:5725   */\n    tag_102:\n        /* \"#utility.yul\":5675:5681   */\n      dup3\n        /* \"#utility.yul\":5670:5673   */\n      dup2\n        /* \"#utility.yul\":5665:5668   */\n      dup4\n        /* \"#utility.yul\":5659:5682   */\n      mcopy\n        /* \"#utility.yul\":5716:5717   */\n      0x00\n        /* \"#utility.yul\":5707:5713   */\n      dup4\n        /* \"#utility.yul\":5702:5705   */\n      dup4\n        /* \"#utility.yul\":5698:5714   */\n      add\n        /* \"#utility.yul\":5691:5718   */\n      mstore\n        /* \"#utility.yul\":5586:5725   */\n      pop\n      pop\n      pop\n      jump\t// out\n        /* \"#utility.yul\":5731:6108   */\n    tag_103:\n        /* \"#utility.yul\":5819:5822   */\n      0x00\n        /* \"#utility.yul\":5847:5886   */\n      tag_179\n        /* \"#utility.yul\":5880:5885   */\n      dup3\n        /* \"#utility.yul\":5847:5886   */\n      tag_100\n      jump\t// in\n    tag_179:\n        /* \"#utility.yul\":5902:5973   */\n      tag_180\n        /* \"#utility.yul\":5966:5972   */\n      dup2\n        /* \"#utility.yul\":5961:5964   */\n      dup6\n        /* \"#utility.yul\":5902:5973   */\n      tag_101\n      jump\t// in\n    tag_180:\n        /* \"#utility.yul\":5895:5973   */\n      swap4\n      pop\n        /* \"#utility.yul\":5982:6047   */\n      tag_181\n        /* \"#utility.yul\":6040:6046   */\n      dup2\n        /* \"#utility.yul\":6035:6038   */\n      dup6\n        /* \"#utility.yul\":6028:6032   */\n      0x20\n        /* \"#utility.yul\":6021:6026   */\n      dup7\n        /* \"#utility.yul\":6017:6033   */\n      add\n        /* \"#utility.yul\":5982:6047   */\n      tag_102\n      jump\t// in\n    tag_181:\n        /* \"#utility.yul\":6072:6101   */\n      tag_182\n        /* \"#utility.yul\":6094:6100   */\n      dup2\n        /* \"#utility.yul\":6072:6101   */\n      tag_97\n      jump\t// in\n    tag_182:\n        /* \"#utility.yul\":6067:6070   */\n      dup5\n        /* \"#utility.yul\":6063:6102   */\n      add\n        /* \"#utility.yul\":6056:6102   */\n      swap2\n      pop\n        /* \"#utility.yul\":5823:6108   */\n      pop\n        /* \"#utility.yul\":5731:6108   */\n      swap3\n      swap2\n      pop\n      pop\n      jump\t// out\n        /* \"#utility.yul\":6114:6427   */\n    tag_26:\n        /* \"#utility.yul\":6227:6231   */\n      0x00\n        /* \"#utility.yul\":6265:6267   */\n      0x20\n        /* \"#utility.yul\":6254:6263   */\n      dup3\n        /* \"#utility.yul\":6250:6268   */\n      add\n        /* \"#utility.yul\":6242:6268   */\n      swap1\n      pop\n        /* \"#utility.yul\":6314:6323   */\n      dup2\n        /* \"#utility.yul\":6308:6312   */\n      dup2\n        /* \"#utility.yul\":6304:6324   */\n      sub\n        /* \"#utility.yul\":6300:6301   */\n      0x00\n        /* \"#utility.yul\":6289:6298   */\n      dup4\n        /* \"#utility.yul\":6285:6302   */\n      add\n        /* \"#utility.yul\":6278:6325   */\n      mstore\n        /* \"#utility.yul\":6342:6420   */\n      tag_184\n        /* \"#utility.yul\":6415:6419   */\n      dup2\n        /* \"#utility.yul\":6406:6412   */\n      dup5\n        /* \"#utility.yul\":6342:6420   */\n      tag_103\n      jump\t// in\n    tag_184:\n        /* \"#utility.yul\":6334:6420   */\n      swap1\n      pop\n        /* \"#utility.yul\":6114:6427   */\n      swap3\n      swap2\n      pop\n      pop\n      jump\t// out\n        /* \"#utility.yul\":6433:6633   */\n    tag_28:\n        /* \"#utility.yul\":6469:6476   */\n      0x00\n        /* \"#utility.yul\":6478:6482   */\n      0x00\n        /* \"#utility.yul\":6517:6521   */\n      0x23\n        /* \"#utility.yul\":6499:6515   */\n      returndatasize\n        /* \"#utility.yul\":6496:6522   */\n      gt\n        /* \"#utility.yul\":6493:6627   */\n      iszero\n      tag_186\n      jumpi\n        /* \"#utility.yul\":6558:6562   */\n      0x20\n        /* \"#utility.yul\":6555:6556   */\n      0x04\n        /* \"#utility.yul\":6552:6553   */\n      0x00\n        /* \"#utility.yul\":6537:6563   */\n      returndatacopy\n        /* \"#utility.yul\":6587:6588   */\n      0x01\n        /* \"#utility.yul\":6576:6588   */\n      swap2\n      pop\n        /* \"#utility.yul\":6615:6616   */\n      0x00\n        /* \"#utility.yul\":6609:6617   */\n      mload\n        /* \"#utility.yul\":6601:6617   */\n      swap1\n      pop\n        /* \"#utility.yul\":6493:6627   */\n    tag_186:\n        /* \"#utility.yul\":6433:6633   */\n      swap1\n      swap2\n      jump\t// out\n        /* \"#utility.yul\":6639:6861   */\n    tag_31:\n        /* \"#utility.yul\":6732:6736   */\n      0x00\n        /* \"#utility.yul\":6770:6772   */\n      0x20\n        /* \"#utility.yul\":6759:6768   */\n      dup3\n        /* \"#utility.yul\":6755:6773   */\n      add\n        /* \"#utility.yul\":6747:6773   */\n      swap1\n      pop\n        /* \"#utility.yul\":6783:6854   */\n      tag_188\n        /* \"#utility.yul\":6851:6852   */\n      0x00\n        /* \"#utility.yul\":6840:6849   */\n      dup4\n        /* \"#utility.yul\":6836:6853   */\n      add\n        /* \"#utility.yul\":6827:6833   */\n      dup5\n        /* \"#utility.yul\":6783:6854   */\n      tag_93\n      jump\t// in\n    tag_188:\n        /* \"#utility.yul\":6639:6861   */\n      swap3\n      swap2\n      pop\n      pop\n      jump\t// out\n        /* \"#utility.yul\":6867:6965   */\n    tag_104:\n        /* \"#utility.yul\":6918:6924   */\n      0x00\n        /* \"#utility.yul\":6952:6957   */\n      dup2\n        /* \"#utility.yul\":6946:6958   */\n      mload\n        /* \"#utility.yul\":6936:6958   */\n      swap1\n      pop\n        /* \"#utility.yul\":6867:6965   */\n      swap2\n      swap1\n      pop\n      jump\t// out\n        /* \"#utility.yul\":6971:7139   */\n    tag_105:\n        /* \"#utility.yul\":7054:7065   */\n      0x00\n        /* \"#utility.yul\":7088:7094   */\n      dup3\n        /* \"#utility.yul\":7083:7086   */\n      dup3\n        /* \"#utility.yul\":7076:7095   */\n      mstore\n        /* \"#utility.yul\":7128:7132   */\n      0x20\n        /* \"#utility.yul\":7123:7126   */\n      dup3\n        /* \"#utility.yul\":7119:7133   */\n      add\n        /* \"#utility.yul\":7104:7133   */\n      swap1\n      pop\n        /* \"#utility.yul\":6971:7139   */\n      swap3\n      swap2\n      pop\n      pop\n      jump\t// out\n        /* \"#utility.yul\":7145:7518   */\n    tag_106:\n        /* \"#utility.yul\":7231:7234   */\n      0x00\n        /* \"#utility.yul\":7259:7297   */\n      tag_192\n        /* \"#utility.yul\":7291:7296   */\n      dup3\n        /* \"#utility.yul\":7259:7297   */\n      tag_104\n      jump\t// in\n    tag_192:\n        /* \"#utility.yul\":7313:7383   */\n      tag_193\n        /* \"#utility.yul\":7376:7382   */\n      dup2\n        /* \"#utility.yul\":7371:7374   */\n      dup6\n        /* \"#utility.yul\":7313:7383   */\n      tag_105\n      jump\t// in\n    tag_193:\n        /* \"#utility.yul\":7306:7383   */\n      swap4\n      pop\n        /* \"#utility.yul\":7392:7457   */\n      tag_194\n        /* \"#utility.yul\":7450:7456   */\n      dup2\n        /* \"#utility.yul\":7445:7448   */\n      dup6\n        /* \"#utility.yul\":7438:7442   */\n      0x20\n        /* \"#utility.yul\":7431:7436   */\n      dup7\n        /* \"#utility.yul\":7427:7443   */\n      add\n        /* \"#utility.yul\":7392:7457   */\n      tag_102\n      jump\t// in\n    tag_194:\n        /* \"#utility.yul\":7482:7511   */\n      tag_195\n        /* \"#utility.yul\":7504:7510   */\n      dup2\n        /* \"#utility.yul\":7482:7511   */\n      tag_97\n      jump\t// in\n    tag_195:\n        /* \"#utility.yul\":7477:7480   */\n      dup5\n        /* \"#utility.yul\":7473:7512   */\n      add\n        /* \"#utility.yul\":7466:7512   */\n      swap2\n      pop\n        /* \"#utility.yul\":7235:7518   */\n      pop\n        /* \"#utility.yul\":7145:7518   */\n      swap3\n      swap2\n      pop\n      pop\n      jump\t// out\n        /* \"#utility.yul\":7524:7833   */\n    tag_35:\n        /* \"#utility.yul\":7635:7639   */\n      0x00\n        /* \"#utility.yul\":7673:7675   */\n      0x20\n        /* \"#utility.yul\":7662:7671   */\n      dup3\n        /* \"#utility.yul\":7658:7676   */\n      add\n        /* \"#utility.yul\":7650:7676   */\n      swap1\n      pop\n        /* \"#utility.yul\":7722:7731   */\n      dup2\n        /* \"#utility.yul\":7716:7720   */\n      dup2\n        /* \"#utility.yul\":7712:7732   */\n      sub\n        /* \"#utility.yul\":7708:7709   */\n      0x00\n        /* \"#utility.yul\":7697:7706   */\n      dup4\n        /* \"#utility.yul\":7693:7710   */\n      add\n        /* \"#utility.yul\":7686:7733   */\n      mstore\n        /* \"#utility.yul\":7750:7826   */\n      tag_197\n        /* \"#utility.yul\":7821:7825   */\n      dup2\n        /* \"#utility.yul\":7812:7818   */\n      dup5\n        /* \"#utility.yul\":7750:7826   */\n      tag_106\n      jump\t// in\n    tag_197:\n        /* \"#utility.yul\":7742:7826   */\n      swap1\n      pop\n        /* \"#utility.yul\":7524:7833   */\n      swap3\n      swap2\n      pop\n      pop\n      jump\t// out\n        /* \"#utility.yul\":7839:8016   */\n    tag_107:\n        /* \"#utility.yul\":7979:8008   */\n      0x5472616e7366657246726f6d2072657475726e65642066616c73650000000000\n        /* \"#utility.yul\":7975:7976   */\n      0x00\n        /* \"#utility.yul\":7967:7973   */\n      dup3\n        /* \"#utility.yul\":7963:7977   */\n      add\n        /* \"#utility.yul\":7956:8009   */\n      mstore\n        /* \"#utility.yul\":7839:8016   */\n      pop\n      jump\t// out\n        /* \"#utility.yul\":8022:8388   */\n    tag_108:\n        /* \"#utility.yul\":8164:8167   */\n      0x00\n        /* \"#utility.yul\":8185:8252   */\n      tag_200\n        /* \"#utility.yul\":8249:8251   */\n      0x1b\n        /* \"#utility.yul\":8244:8247   */\n      dup4\n        /* \"#utility.yul\":8185:8252   */\n      tag_101\n      jump\t// in\n    tag_200:\n        /* \"#utility.yul\":8178:8252   */\n      swap2\n      pop\n        /* \"#utility.yul\":8261:8354   */\n      tag_201\n        /* \"#utility.yul\":8350:8353   */\n      dup3\n        /* \"#utility.yul\":8261:8354   */\n      tag_107\n      jump\t// in\n    tag_201:\n        /* \"#utility.yul\":8379:8381   */\n      0x20\n        /* \"#utility.yul\":8374:8377   */\n      dup3\n        /* \"#utility.yul\":8370:8382   */\n      add\n        /* \"#utility.yul\":8363:8382   */\n      swap1\n      pop\n        /* \"#utility.yul\":8022:8388   */\n      swap2\n      swap1\n      pop\n      jump\t// out\n        /* \"#utility.yul\":8394:8813   */\n    tag_39:\n        /* \"#utility.yul\":8560:8564   */\n      0x00\n        /* \"#utility.yul\":8598:8600   */\n      0x20\n        /* \"#utility.yul\":8587:8596   */\n      dup3\n        /* \"#utility.yul\":8583:8601   */\n      add\n        /* \"#utility.yul\":8575:8601   */\n      swap1\n      pop\n        /* \"#utility.yul\":8647:8656   */\n      dup2\n        /* \"#utility.yul\":8641:8645   */\n      dup2\n        /* \"#utility.yul\":8637:8657   */\n      sub\n        /* \"#utility.yul\":8633:8634   */\n      0x00\n        /* \"#utility.yul\":8622:8631   */\n      dup4\n        /* \"#utility.yul\":8618:8635   */\n      add\n        /* \"#utility.yul\":8611:8658   */\n      mstore\n        /* \"#utility.yul\":8675:8806   */\n      tag_203\n        /* \"#utility.yul\":8801:8805   */\n      dup2\n        /* \"#utility.yul\":8675:8806   */\n      tag_108\n      jump\t// in\n    tag_203:\n        /* \"#utility.yul\":8667:8806   */\n      swap1\n      pop\n        /* \"#utility.yul\":8394:8813   */\n      swap2\n      swap1\n      pop\n      jump\t// out\n        /* \"#utility.yul\":8819:9151   */\n    tag_41:\n        /* \"#utility.yul\":8940:8944   */\n      0x00\n        /* \"#utility.yul\":8978:8980   */\n      0x40\n        /* \"#utility.yul\":8967:8976   */\n      dup3\n        /* \"#utility.yul\":8963:8981   */\n      add\n        /* \"#utility.yul\":8955:8981   */\n      swap1\n      pop\n        /* \"#utility.yul\":8991:9062   */\n      tag_205\n        /* \"#utility.yul\":9059:9060   */\n      0x00\n        /* \"#utility.yul\":9048:9057   */\n      dup4\n        /* \"#utility.yul\":9044:9061   */\n      add\n        /* \"#utility.yul\":9035:9041   */\n      dup6\n        /* \"#utility.yul\":8991:9062   */\n      tag_92\n      jump\t// in\n    tag_205:\n        /* \"#utility.yul\":9072:9144   */\n      tag_206\n        /* \"#utility.yul\":9140:9142   */\n      0x20\n        /* \"#utility.yul\":9129:9138   */\n      dup4\n        /* \"#utility.yul\":9125:9143   */\n      add\n        /* \"#utility.yul\":9116:9122   */\n      dup5\n        /* \"#utility.yul\":9072:9144   */\n      tag_93\n      jump\t// in\n    tag_206:\n        /* \"#utility.yul\":8819:9151   */\n      swap4\n      swap3\n      pop\n      pop\n      pop\n      jump\t// out\n        /* \"#utility.yul\":9157:9330   */\n    tag_109:\n        /* \"#utility.yul\":9297:9322   */\n      0x5472616e736665722072657475726e65642066616c7365000000000000000000\n        /* \"#utility.yul\":9293:9294   */\n      0x00\n        /* \"#utility.yul\":9285:9291   */\n      dup3\n        /* \"#utility.yul\":9281:9295   */\n      add\n        /* \"#utility.yul\":9274:9323   */\n      mstore\n        /* \"#utility.yul\":9157:9330   */\n      pop\n      jump\t// out\n        /* \"#utility.yul\":9336:9702   */\n    tag_110:\n        /* \"#utility.yul\":9478:9481   */\n      0x00\n        /* \"#utility.yul\":9499:9566   */\n      tag_209\n        /* \"#utility.yul\":9563:9565   */\n      0x17\n        /* \"#utility.yul\":9558:9561   */\n      dup4\n        /* \"#utility.yul\":9499:9566   */\n      tag_101\n      jump\t// in\n    tag_209:\n        /* \"#utility.yul\":9492:9566   */\n      swap2\n      pop\n        /* \"#utility.yul\":9575:9668   */\n      tag_210\n        /* \"#utility.yul\":9664:9667   */\n      dup3\n        /* \"#utility.yul\":9575:9668   */\n      tag_109\n      jump\t// in\n    tag_210:\n        /* \"#utility.yul\":9693:9695   */\n      0x20\n        /* \"#utility.yul\":9688:9691   */\n      dup3\n        /* \"#utility.yul\":9684:9696   */\n      add\n        /* \"#utility.yul\":9677:9696   */\n      swap1\n      pop\n        /* \"#utility.yul\":9336:9702   */\n      swap2\n      swap1\n      pop\n      jump\t// out\n        /* \"#utility.yul\":9708:10127   */\n    tag_77:\n        /* \"#utility.yul\":9874:9878   */\n      0x00\n        /* \"#utility.yul\":9912:9914   */\n      0x20\n        /* \"#utility.yul\":9901:9910   */\n      dup3\n        /* \"#utility.yul\":9897:9915   */\n      add\n        /* \"#utility.yul\":9889:9915   */\n      swap1\n      pop\n        /* \"#utility.yul\":9961:9970   */\n      dup2\n        /* \"#utility.yul\":9955:9959   */\n      dup2\n        /* \"#utility.yul\":9951:9971   */\n      sub\n        /* \"#utility.yul\":9947:9948   */\n      0x00\n        /* \"#utility.yul\":9936:9945   */\n      dup4\n        /* \"#utility.yul\":9932:9949   */\n      add\n        /* \"#utility.yul\":9925:9972   */\n      mstore\n        /* \"#utility.yul\":9989:10120   */\n      tag_212\n        /* \"#utility.yul\":10115:10119   */\n      dup2\n        /* \"#utility.yul\":9989:10120   */\n      tag_110\n      jump\t// in\n    tag_212:\n        /* \"#utility.yul\":9981:10120   */\n      swap1\n      pop\n        /* \"#utility.yul\":9708:10127   */\n      swap2\n      swap1\n      pop\n      jump\t// out\n        /* \"#utility.yul\":10133:10686   */\n    tag_79:\n        /* \"#utility.yul\":10310:10314   */\n      0x00\n        /* \"#utility.yul\":10348:10351   */\n      0x80\n        /* \"#utility.yul\":10337:10346   */\n      dup3\n        /* \"#utility.yul\":10333:10352   */\n      add\n        /* \"#utility.yul\":10325:10352   */\n      swap1\n      pop\n        /* \"#utility.yul\":10362:10433   */\n      tag_214\n        /* \"#utility.yul\":10430:10431   */\n      0x00\n        /* \"#utility.yul\":10419:10428   */\n      dup4\n        /* \"#utility.yul\":10415:10432   */\n      add\n        /* \"#utility.yul\":10406:10412   */\n      dup8\n        /* \"#utility.yul\":10362:10433   */\n      tag_92\n      jump\t// in\n    tag_214:\n        /* \"#utility.yul\":10443:10515   */\n      tag_215\n        /* \"#utility.yul\":10511:10513   */\n      0x20\n        /* \"#utility.yul\":10500:10509   */\n      dup4\n        /* \"#utility.yul\":10496:10514   */\n      add\n        /* \"#utility.yul\":10487:10493   */\n      dup7\n        /* \"#utility.yul\":10443:10515   */\n      tag_92\n      jump\t// in\n    tag_215:\n        /* \"#utility.yul\":10525:10597   */\n      tag_216\n        /* \"#utility.yul\":10593:10595   */\n      0x40\n        /* \"#utility.yul\":10582:10591   */\n      dup4\n        /* \"#utility.yul\":10578:10596   */\n      add\n        /* \"#utility.yul\":10569:10575   */\n      dup6\n        /* \"#utility.yul\":10525:10597   */\n      tag_93\n      jump\t// in\n    tag_216:\n        /* \"#utility.yul\":10607:10679   */\n      tag_217\n        /* \"#utility.yul\":10675:10677   */\n      0x60\n        /* \"#utility.yul\":10664:10673   */\n      dup4\n        /* \"#utility.yul\":10660:10678   */\n      add\n        /* \"#utility.yul\":10651:10657   */\n      dup5\n        /* \"#utility.yul\":10607:10679   */\n      tag_93\n      jump\t// in\n    tag_217:\n        /* \"#utility.yul\":10133:10686   */\n      swap6\n      swap5\n      pop\n      pop\n      pop\n      pop\n      pop\n      jump\t// out\n\n    auxdata: 0xa2646970667358221220363b51a40659a33a014dc1a0846d494b000cb6b8204ba7e7dcaf86c7fb78a44c64736f6c634300081f0033\n}\n",
				"bytecode": {
					"linkReferences": {},
					"object": "6080604052348015600e575f5ffd5b50610ceb8061001c5f395ff3fe608060405234801561000f575f5ffd5b5060043610610029575f3560e01c8063fe0291561461002d575b5f5ffd5b610047600480360381019061004291906107eb565b61005d565b6040516100549190610869565b60405180910390f35b5f8473ffffffffffffffffffffffffffffffffffffffff166323b872dd3330866040518463ffffffff1660e01b815260040161009b939291906108a0565b6020604051808303815f875af19250505080156100d657506040513d601f19601f820116820180604052508101906100d391906108ff565b60015b610253576100e2610936565b806308c379a00361015857506100f66109c3565b8061010157506101cc565b3373ffffffffffffffffffffffffffffffffffffffff167ff305e21acf35a21221f1b76b9e78963d5c903e3a27a3a1e533a289eada598613826040516101479190610ab2565b60405180910390a25f915050610749565b634e487b71036101cc5761016a610ad2565b9061017557506101cc565b3373ffffffffffffffffffffffffffffffffffffffff167fc0e029f16b52c5d021f36243700461768b7e1a6245cf67db6ed43b4b6c74b46a826040516101bb9190610af0565b60405180910390a25f915050610749565b3d805f81146101f6576040519150601f19603f3d011682016040523d82523d5f602084013e6101fb565b606091505b503373ffffffffffffffffffffffffffffffffffffffff167f473c659d673c43f9806b263f85bc98124dce6ecea5f0fb55d8ee643fdf8bb807826040516102429190610b5b565b60405180910390a25f915050610749565b806102ad573373ffffffffffffffffffffffffffffffffffffffff167ff305e21acf35a21221f1b76b9e78963d5c903e3a27a3a1e533a289eada59861360405161029c90610bc5565b60405180910390a25f915050610749565b8473ffffffffffffffffffffffffffffffffffffffff1663a9059cbb33856040518363ffffffff1660e01b81526004016102e8929190610be3565b6020604051808303815f875af192505050801561032357506040513d601f19601f8201168201806040525081019061032091906108ff565b60015b6106175761032f610936565b806308c379a00361042257506103436109c3565b8061034e5750610513565b8673ffffffffffffffffffffffffffffffffffffffff1663a9059cbb33876040518363ffffffff1660e01b8152600401610389929190610be3565b6020604051808303815f875af11580156103a5573d5f5f3e3d5ffd5b505050506040513d601f19601f820116820180604052508101906103c991906108ff565b503373ffffffffffffffffffffffffffffffffffffffff167ff305e21acf35a21221f1b76b9e78963d5c903e3a27a3a1e533a289eada598613826040516104109190610ab2565b60405180910390a25f92505050610749565b634e487b710361051357610434610ad2565b9061043f5750610513565b8673ffffffffffffffffffffffffffffffffffffffff1663a9059cbb33876040518363ffffffff1660e01b815260040161047a929190610be3565b6020604051808303815f875af1158015610496573d5f5f3e3d5ffd5b505050506040513d601f19601f820116820180604052508101906104ba91906108ff565b503373ffffffffffffffffffffffffffffffffffffffff167fc0e029f16b52c5d021f36243700461768b7e1a6245cf67db6ed43b4b6c74b46a826040516105019190610af0565b60405180910390a25f92505050610749565b3d805f811461053d576040519150601f19603f3d011682016040523d82523d5f602084013e610542565b606091505b508673ffffffffffffffffffffffffffffffffffffffff1663a9059cbb33876040518363ffffffff1660e01b815260040161057e929190610be3565b6020604051808303815f875af115801561059a573d5f5f3e3d5ffd5b505050506040513d601f19601f820116820180604052508101906105be91906108ff565b503373ffffffffffffffffffffffffffffffffffffffff167f473c659d673c43f9806b263f85bc98124dce6ecea5f0fb55d8ee643fdf8bb807826040516106059190610b5b565b60405180910390a25f92505050610749565b806106ee578673ffffffffffffffffffffffffffffffffffffffff1663a9059cbb33876040518363ffffffff1660e01b8152600401610657929190610be3565b6020604051808303815f875af1158015610673573d5f5f3e3d5ffd5b505050506040513d601f19601f8201168201806040525081019061069791906108ff565b503373ffffffffffffffffffffffffffffffffffffffff167ff305e21acf35a21221f1b76b9e78963d5c903e3a27a3a1e533a289eada5986136040516106dc90610c54565b60405180910390a25f92505050610749565b3373ffffffffffffffffffffffffffffffffffffffff167fa735fb6bfc88d40598b51c9b5d88dd545bcfc7404c6825d5cde5e1a82379394e8888888860405161073a9493929190610c72565b60405180910390a26001925050505b949350505050565b5f604051905090565b5f5ffd5b5f73ffffffffffffffffffffffffffffffffffffffff82169050919050565b5f6107878261075e565b9050919050565b6107978161077d565b81146107a1575f5ffd5b50565b5f813590506107b28161078e565b92915050565b5f819050919050565b6107ca816107b8565b81146107d4575f5ffd5b50565b5f813590506107e5816107c1565b92915050565b5f5f5f5f608085870312156108035761080261075a565b5b5f610810878288016107a4565b9450506020610821878288016107a4565b9350506040610832878288016107d7565b9250506060610843878288016107d7565b91505092959194509250565b5f8115159050919050565b6108638161084f565b82525050565b5f60208201905061087c5f83018461085a565b92915050565b61088b8161077d565b82525050565b61089a816107b8565b82525050565b5f6060820190506108b35f830186610882565b6108c06020830185610882565b6108cd6040830184610891565b949350505050565b6108de8161084f565b81146108e8575f5ffd5b50565b5f815190506108f9816108d5565b92915050565b5f602082840312156109145761091361075a565b5b5f610921848285016108eb565b91505092915050565b5f8160e01c9050919050565b5f60033d11156109525760045f5f3e61094f5f5161092a565b90505b90565b5f601f19601f8301169050919050565b7f4e487b71000000000000000000000000000000000000000000000000000000005f52604160045260245ffd5b61099b82610955565b810181811067ffffffffffffffff821117156109ba576109b9610965565b5b80604052505050565b5f60443d10610a4f576109d4610751565b60043d036004823e80513d602482011167ffffffffffffffff821117156109fc575050610a4f565b808201805167ffffffffffffffff811115610a1a5750505050610a4f565b80602083010160043d038501811115610a37575050505050610a4f565b610a4682602001850186610992565b82955050505050505b90565b5f81519050919050565b5f82825260208201905092915050565b8281835e5f83830152505050565b5f610a8482610a52565b610a8e8185610a5c565b9350610a9e818560208601610a6c565b610aa781610955565b840191505092915050565b5f6020820190508181035f830152610aca8184610a7a565b905092915050565b5f5f60233d1115610aec57602060045f3e600191505f5190505b9091565b5f602082019050610b035f830184610891565b92915050565b5f81519050919050565b5f82825260208201905092915050565b5f610b2d82610b09565b610b378185610b13565b9350610b47818560208601610a6c565b610b5081610955565b840191505092915050565b5f6020820190508181035f830152610b738184610b23565b905092915050565b7f5472616e7366657246726f6d2072657475726e65642066616c736500000000005f82015250565b5f610baf601b83610a5c565b9150610bba82610b7b565b602082019050919050565b5f6020820190508181035f830152610bdc81610ba3565b9050919050565b5f604082019050610bf65f830185610882565b610c036020830184610891565b9392505050565b7f5472616e736665722072657475726e65642066616c73650000000000000000005f82015250565b5f610c3e601783610a5c565b9150610c4982610c0a565b602082019050919050565b5f6020820190508181035f830152610c6b81610c32565b9050919050565b5f608082019050610c855f830187610882565b610c926020830186610882565b610c9f6040830185610891565b610cac6060830184610891565b9594505050505056fea2646970667358221220363b51a40659a33a014dc1a0846d494b000cb6b8204ba7e7dcaf86c7fb78a44c64736f6c634300081f0033",
					"opcodes": "PUSH1 0x80 PUSH1 0x40 MSTORE CALLVALUE DUP1 ISZERO PUSH1 0xE JUMPI PUSH0 PUSH0 REVERT JUMPDEST POP PUSH2 0xCEB DUP1 PUSH2 0x1C PUSH0 CODECOPY PUSH0 RETURN INVALID PUSH1 0x80 PUSH1 0x40 MSTORE CALLVALUE DUP1 ISZERO PUSH2 0xF JUMPI PUSH0 PUSH0 REVERT JUMPDEST POP PUSH1 0x4 CALLDATASIZE LT PUSH2 0x29 JUMPI PUSH0 CALLDATALOAD PUSH1 0xE0 SHR DUP1 PUSH4 0xFE029156 EQ PUSH2 0x2D JUMPI JUMPDEST PUSH0 PUSH0 REVERT JUMPDEST PUSH2 0x47 PUSH1 0x4 DUP1 CALLDATASIZE SUB DUP2 ADD SWAP1 PUSH2 0x42 SWAP2 SWAP1 PUSH2 0x7EB JUMP JUMPDEST PUSH2 0x5D JUMP JUMPDEST PUSH1 0x40 MLOAD PUSH2 0x54 SWAP2 SWAP1 PUSH2 0x869 JUMP JUMPDEST PUSH1 0x40 MLOAD DUP1 SWAP2 SUB SWAP1 RETURN JUMPDEST PUSH0 DUP5 PUSH20 0xFFFFFFFFFFFFFFFFFFFFFFFFFFFFFFFFFFFFFFFF AND PUSH4 0x23B872DD CALLER ADDRESS DUP7 PUSH1 0x40 MLOAD DUP5 PUSH4 0xFFFFFFFF AND PUSH1 0xE0 SHL DUP2 MSTORE PUSH1 0x4 ADD PUSH2 0x9B SWAP4 SWAP3 SWAP2 SWAP1 PUSH2 0x8A0 JUMP JUMPDEST PUSH1 0x20 PUSH1 0x40 MLOAD DUP1 DUP4 SUB DUP2 PUSH0 DUP8 GAS CALL SWAP3 POP POP POP DUP1 ISZERO PUSH2 0xD6 JUMPI POP PUSH1 0x40 MLOAD RETURNDATASIZE PUSH1 0x1F NOT PUSH1 0x1F DUP3 ADD AND DUP3 ADD DUP1 PUSH1 0x40 MSTORE POP DUP2 ADD SWAP1 PUSH2 0xD3 SWAP2 SWAP1 PUSH2 0x8FF JUMP JUMPDEST PUSH1 0x1 JUMPDEST PUSH2 0x253 JUMPI PUSH2 0xE2 PUSH2 0x936 JUMP JUMPDEST DUP1 PUSH4 0x8C379A0 SUB PUSH2 0x158 JUMPI POP PUSH2 0xF6 PUSH2 0x9C3 JUMP JUMPDEST DUP1 PUSH2 0x101 JUMPI POP PUSH2 0x1CC JUMP JUMPDEST CALLER PUSH20 0xFFFFFFFFFFFFFFFFFFFFFFFFFFFFFFFFFFFFFFFF AND PUSH32 0xF305E21ACF35A21221F1B76B9E78963D5C903E3A27A3A1E533A289EADA598613 DUP3 PUSH1 0x40 MLOAD PUSH2 0x147 SWAP2 SWAP1 PUSH2 0xAB2 JUMP JUMPDEST PUSH1 0x40 MLOAD DUP1 SWAP2 SUB SWAP1 LOG2 PUSH0 SWAP2 POP POP PUSH2 0x749 JUMP JUMPDEST PUSH4 0x4E487B71 SUB PUSH2 0x1CC JUMPI PUSH2 0x16A PUSH2 0xAD2 JUMP JUMPDEST SWAP1 PUSH2 0x175 JUMPI POP PUSH2 0x1CC JUMP JUMPDEST CALLER PUSH20 0xFFFFFFFFFFFFFFFFFFFFFFFFFFFFFFFFFFFFFFFF AND PUSH32 0xC0E029F16B52C5D021F36243700461768B7E1A6245CF67DB6ED43B4B6C74B46A DUP3 PUSH1 0x40 MLOAD PUSH2 0x1BB SWAP2 SWAP1 PUSH2 0xAF0 JUMP JUMPDEST PUSH1 0x40 MLOAD DUP1 SWAP2 SUB SWAP1 LOG2 PUSH0 SWAP2 POP POP PUSH2 0x749 JUMP JUMPDEST RETURNDATASIZE DUP1 PUSH0 DUP2 EQ PUSH2 0x1F6 JUMPI PUSH1 0x40 MLOAD SWAP2 POP PUSH1 0x1F NOT PUSH1 0x3F RETURNDATASIZE ADD AND DUP3 ADD PUSH1 0x40 MSTORE RETURNDATASIZE DUP3 MSTORE RETURNDATASIZE PUSH0 PUSH1 0x20 DUP5 ADD RETURNDATACOPY PUSH2 0x1FB JUMP JUMPDEST PUSH1 0x60 SWAP2 POP JUMPDEST POP CALLER PUSH20 0xFFFFFFFFFFFFFFFFFFFFFFFFFFFFFFFFFFFFFFFF AND PUSH32 0x473C659D673C43F9806B263F85BC98124DCE6ECEA5F0FB55D8EE643FDF8BB807 DUP3 PUSH1 0x40 MLOAD PUSH2 0x242 SWAP2 SWAP1 PUSH2 0xB5B JUMP JUMPDEST PUSH1 0x40 MLOAD DUP1 SWAP2 SUB SWAP1 LOG2 PUSH0 SWAP2 POP POP PUSH2 0x749 JUMP JUMPDEST DUP1 PUSH2 0x2AD JUMPI CALLER PUSH20 0xFFFFFFFFFFFFFFFFFFFFFFFFFFFFFFFFFFFFFFFF AND PUSH32 0xF305E21ACF35A21221F1B76B9E78963D5C903E3A27A3A1E533A289EADA598613 PUSH1 0x40 MLOAD PUSH2 0x29C SWAP1 PUSH2 0xBC5 JUMP JUMPDEST PUSH1 0x40 MLOAD DUP1 SWAP2 SUB SWAP1 LOG2 PUSH0 SWAP2 POP POP PUSH2 0x749 JUMP JUMPDEST DUP5 PUSH20 0xFFFFFFFFFFFFFFFFFFFFFFFFFFFFFFFFFFFFFFFF AND PUSH4 0xA9059CBB CALLER DUP6 PUSH1 0x40 MLOAD DUP4 PUSH4 0xFFFFFFFF AND PUSH1 0xE0 SHL DUP2 MSTORE PUSH1 0x4 ADD PUSH2 0x2E8 SWAP3 SWAP2 SWAP1 PUSH2 0xBE3 JUMP JUMPDEST PUSH1 0x20 PUSH1 0x40 MLOAD DUP1 DUP4 SUB DUP2 PUSH0 DUP8 GAS CALL SWAP3 POP POP POP DUP1 ISZERO PUSH2 0x323 JUMPI POP PUSH1 0x40 MLOAD RETURNDATASIZE PUSH1 0x1F NOT PUSH1 0x1F DUP3 ADD AND DUP3 ADD DUP1 PUSH1 0x40 MSTORE POP DUP2 ADD SWAP1 PUSH2 0x320 SWAP2 SWAP1 PUSH2 0x8FF JUMP JUMPDEST PUSH1 0x1 JUMPDEST PUSH2 0x617 JUMPI PUSH2 0x32F PUSH2 0x936 JUMP JUMPDEST DUP1 PUSH4 0x8C379A0 SUB PUSH2 0x422 JUMPI POP PUSH2 0x343 PUSH2 0x9C3 JUMP JUMPDEST DUP1 PUSH2 0x34E JUMPI POP PUSH2 0x513 JUMP JUMPDEST DUP7 PUSH20 0xFFFFFFFFFFFFFFFFFFFFFFFFFFFFFFFFFFFFFFFF AND PUSH4 0xA9059CBB CALLER DUP8 PUSH1 0x40 MLOAD DUP4 PUSH4 0xFFFFFFFF AND PUSH1 0xE0 SHL DUP2 MSTORE PUSH1 0x4 ADD PUSH2 0x389 SWAP3 SWAP2 SWAP1 PUSH2 0xBE3 JUMP JUMPDEST PUSH1 0x20 PUSH1 0x40 MLOAD DUP1 DUP4 SUB DUP2 PUSH0 DUP8 GAS CALL ISZERO DUP1 ISZERO PUSH2 0x3A5 JUMPI RETURNDATASIZE PUSH0 PUSH0 RETURNDATACOPY RETURNDATASIZE PUSH0 REVERT JUMPDEST POP POP POP POP PUSH1 0x40 MLOAD RETURNDATASIZE PUSH1 0x1F NOT PUSH1 0x1F DUP3 ADD AND DUP3 ADD DUP1 PUSH1 0x40 MSTORE POP DUP2 ADD SWAP1 PUSH2 0x3C9 SWAP2 SWAP1 PUSH2 0x8FF JUMP JUMPDEST POP CALLER PUSH20 0xFFFFFFFFFFFFFFFFFFFFFFFFFFFFFFFFFFFFFFFF AND PUSH32 0xF305E21ACF35A21221F1B76B9E78963D5C903E3A27A3A1E533A289EADA598613 DUP3 PUSH1 0x40 MLOAD PUSH2 0x410 SWAP2 SWAP1 PUSH2 0xAB2 JUMP JUMPDEST PUSH1 0x40 MLOAD DUP1 SWAP2 SUB SWAP1 LOG2 PUSH0 SWAP3 POP POP POP PUSH2 0x749 JUMP JUMPDEST PUSH4 0x4E487B71 SUB PUSH2 0x513 JUMPI PUSH2 0x434 PUSH2 0xAD2 JUMP JUMPDEST SWAP1 PUSH2 0x43F JUMPI POP PUSH2 0x513 JUMP JUMPDEST DUP7 PUSH20 0xFFFFFFFFFFFFFFFFFFFFFFFFFFFFFFFFFFFFFFFF AND PUSH4 0xA9059CBB CALLER DUP8 PUSH1 0x40 MLOAD DUP4 PUSH4 0xFFFFFFFF AND PUSH1 0xE0 SHL DUP2 MSTORE PUSH1 0x4 ADD PUSH2 0x47A SWAP3 SWAP2 SWAP1 PUSH2 0xBE3 JUMP JUMPDEST PUSH1 0x20 PUSH1 0x40 MLOAD DUP1 DUP4 SUB DUP2 PUSH0 DUP8 GAS CALL ISZERO DUP1 ISZERO PUSH2 0x496 JUMPI RETURNDATASIZE PUSH0 PUSH0 RETURNDATACOPY RETURNDATASIZE PUSH0 REVERT JUMPDEST POP POP POP POP PUSH1 0x40 MLOAD RETURNDATASIZE PUSH1 0x1F NOT PUSH1 0x1F DUP3 ADD AND DUP3 ADD DUP1 PUSH1 0x40 MSTORE POP DUP2 ADD SWAP1 PUSH2 0x4BA SWAP2 SWAP1 PUSH2 0x8FF JUMP JUMPDEST POP CALLER PUSH20 0xFFFFFFFFFFFFFFFFFFFFFFFFFFFFFFFFFFFFFFFF AND PUSH32 0xC0E029F16B52C5D021F36243700461768B7E1A6245CF67DB6ED43B4B6C74B46A DUP3 PUSH1 0x40 MLOAD PUSH2 0x501 SWAP2 SWAP1 PUSH2 0xAF0 JUMP JUMPDEST PUSH1 0x40 MLOAD DUP1 SWAP2 SUB SWAP1 LOG2 PUSH0 SWAP3 POP POP POP PUSH2 0x749 JUMP JUMPDEST RETURNDATASIZE DUP1 PUSH0 DUP2 EQ PUSH2 0x53D JUMPI PUSH1 0x40 MLOAD SWAP2 POP PUSH1 0x1F NOT PUSH1 0x3F RETURNDATASIZE ADD AND DUP3 ADD PUSH1 0x40 MSTORE RETURNDATASIZE DUP3 MSTORE RETURNDATASIZE PUSH0 PUSH1 0x20 DUP5 ADD RETURNDATACOPY PUSH2 0x542 JUMP JUMPDEST PUSH1 0x60 SWAP2 POP JUMPDEST POP DUP7 PUSH20 0xFFFFFFFFFFFFFFFFFFFFFFFFFFFFFFFFFFFFFFFF AND PUSH4 0xA9059CBB CALLER DUP8 PUSH1 0x40 MLOAD DUP4 PUSH4 0xFFFFFFFF AND PUSH1 0xE0 SHL DUP2 MSTORE PUSH1 0x4 ADD PUSH2 0x57E SWAP3 SWAP2 SWAP1 PUSH2 0xBE3 JUMP JUMPDEST PUSH1 0x20 PUSH1 0x40 MLOAD DUP1 DUP4 SUB DUP2 PUSH0 DUP8 GAS CALL ISZERO DUP1 ISZERO PUSH2 0x59A JUMPI RETURNDATASIZE PUSH0 PUSH0 RETURNDATACOPY RETURNDATASIZE PUSH0 REVERT JUMPDEST POP POP POP POP PUSH1 0x40 MLOAD RETURNDATASIZE PUSH1 0x1F NOT PUSH1 0x1F DUP3 ADD AND DUP3 ADD DUP1 PUSH1 0x40 MSTORE POP DUP2 ADD SWAP1 PUSH2 0x5BE SWAP2 SWAP1 PUSH2 0x8FF JUMP JUMPDEST POP CALLER PUSH20 0xFFFFFFFFFFFFFFFFFFFFFFFFFFFFFFFFFFFFFFFF AND PUSH32 0x473C659D673C43F9806B263F85BC98124DCE6ECEA5F0FB55D8EE643FDF8BB807 DUP3 PUSH1 0x40 MLOAD PUSH2 0x605 SWAP2 SWAP1 PUSH2 0xB5B JUMP JUMPDEST PUSH1 0x40 MLOAD DUP1 SWAP2 SUB SWAP1 LOG2 PUSH0 SWAP3 POP POP POP PUSH2 0x749 JUMP JUMPDEST DUP1 PUSH2 0x6EE JUMPI DUP7 PUSH20 0xFFFFFFFFFFFFFFFFFFFFFFFFFFFFFFFFFFFFFFFF AND PUSH4 0xA9059CBB CALLER DUP8 PUSH1 0x40 MLOAD DUP4 PUSH4 0xFFFFFFFF AND PUSH1 0xE0 SHL DUP2 MSTORE PUSH1 0x4 ADD PUSH2 0x657 SWAP3 SWAP2 SWAP1 PUSH2 0xBE3 JUMP JUMPDEST PUSH1 0x20 PUSH1 0x40 MLOAD DUP1 DUP4 SUB DUP2 PUSH0 DUP8 GAS CALL ISZERO DUP1 ISZERO PUSH2 0x673 JUMPI RETURNDATASIZE PUSH0 PUSH0 RETURNDATACOPY RETURNDATASIZE PUSH0 REVERT JUMPDEST POP POP POP POP PUSH1 0x40 MLOAD RETURNDATASIZE PUSH1 0x1F NOT PUSH1 0x1F DUP3 ADD AND DUP3 ADD DUP1 PUSH1 0x40 MSTORE POP DUP2 ADD SWAP1 PUSH2 0x697 SWAP2 SWAP1 PUSH2 0x8FF JUMP JUMPDEST POP CALLER PUSH20 0xFFFFFFFFFFFFFFFFFFFFFFFFFFFFFFFFFFFFFFFF AND PUSH32 0xF305E21ACF35A21221F1B76B9E78963D5C903E3A27A3A1E533A289EADA598613 PUSH1 0x40 MLOAD PUSH2 0x6DC SWAP1 PUSH2 0xC54 JUMP JUMPDEST PUSH1 0x40 MLOAD DUP1 SWAP2 SUB SWAP1 LOG2 PUSH0 SWAP3 POP POP POP PUSH2 0x749 JUMP JUMPDEST CALLER PUSH20 0xFFFFFFFFFFFFFFFFFFFFFFFFFFFFFFFFFFFFFFFF AND PUSH32 0xA735FB6BFC88D40598B51C9B5D88DD545BCFC7404C6825D5CDE5E1A82379394E DUP9 DUP9 DUP9 DUP9 PUSH1 0x40 MLOAD PUSH2 0x73A SWAP5 SWAP4 SWAP3 SWAP2 SWAP1 PUSH2 0xC72 JUMP JUMPDEST PUSH1 0x40 MLOAD DUP1 SWAP2 SUB SWAP1 LOG2 PUSH1 0x1 SWAP3 POP POP POP JUMPDEST SWAP5 SWAP4 POP POP POP POP JUMP JUMPDEST PUSH0 PUSH1 0x40 MLOAD SWAP1 POP SWAP1 JUMP JUMPDEST PUSH0 PUSH0 REVERT JUMPDEST PUSH0 PUSH20 0xFFFFFFFFFFFFFFFFFFFFFFFFFFFFFFFFFFFFFFFF DUP3 AND SWAP1 POP SWAP2 SWAP1 POP JUMP JUMPDEST PUSH0 PUSH2 0x787 DUP3 PUSH2 0x75E JUMP JUMPDEST SWAP1 POP SWAP2 SWAP1 POP JUMP JUMPDEST PUSH2 0x797 DUP2 PUSH2 0x77D JUMP JUMPDEST DUP2 EQ PUSH2 0x7A1 JUMPI PUSH0 PUSH0 REVERT JUMPDEST POP JUMP JUMPDEST PUSH0 DUP2 CALLDATALOAD SWAP1 POP PUSH2 0x7B2 DUP2 PUSH2 0x78E JUMP JUMPDEST SWAP3 SWAP2 POP POP JUMP JUMPDEST PUSH0 DUP2 SWAP1 POP SWAP2 SWAP1 POP JUMP JUMPDEST PUSH2 0x7CA DUP2 PUSH2 0x7B8 JUMP JUMPDEST DUP2 EQ PUSH2 0x7D4 JUMPI PUSH0 PUSH0 REVERT JUMPDEST POP JUMP JUMPDEST PUSH0 DUP2 CALLDATALOAD SWAP1 POP PUSH2 0x7E5 DUP2 PUSH2 0x7C1 JUMP JUMPDEST SWAP3 SWAP2 POP POP JUMP JUMPDEST PUSH0 PUSH0 PUSH0 PUSH0 PUSH1 0x80 DUP6 DUP8 SUB SLT ISZERO PUSH2 0x803 JUMPI PUSH2 0x802 PUSH2 0x75A JUMP JUMPDEST JUMPDEST PUSH0 PUSH2 0x810 DUP8 DUP3 DUP9 ADD PUSH2 0x7A4 JUMP JUMPDEST SWAP5 POP POP PUSH1 0x20 PUSH2 0x821 DUP8 DUP3 DUP9 ADD PUSH2 0x7A4 JUMP JUMPDEST SWAP4 POP POP PUSH1 0x40 PUSH2 0x832 DUP8 DUP3 DUP9 ADD PUSH2 0x7D7 JUMP JUMPDEST SWAP3 POP POP PUSH1 0x60 PUSH2 0x843 DUP8 DUP3 DUP9 ADD PUSH2 0x7D7 JUMP JUMPDEST SWAP2 POP POP SWAP3 SWAP6 SWAP2 SWAP5 POP SWAP3 POP JUMP JUMPDEST PUSH0 DUP2 ISZERO ISZERO SWAP1 POP SWAP2 SWAP1 POP JUMP JUMPDEST PUSH2 0x863 DUP2 PUSH2 0x84F JUMP JUMPDEST DUP3 MSTORE POP POP JUMP JUMPDEST PUSH0 PUSH1 0x20 DUP3 ADD SWAP1 POP PUSH2 0x87C PUSH0 DUP4 ADD DUP5 PUSH2 0x85A JUMP JUMPDEST SWAP3 SWAP2 POP POP JUMP JUMPDEST PUSH2 0x88B DUP2 PUSH2 0x77D JUMP JUMPDEST DUP3 MSTORE POP POP JUMP JUMPDEST PUSH2 0x89A DUP2 PUSH2 0x7B8 JUMP JUMPDEST DUP3 MSTORE POP POP JUMP JUMPDEST PUSH0 PUSH1 0x60 DUP3 ADD SWAP1 POP PUSH2 0x8B3 PUSH0 DUP4 ADD DUP7 PUSH2 0x882 JUMP JUMPDEST PUSH2 0x8C0 PUSH1 0x20 DUP4 ADD DUP6 PUSH2 0x882 JUMP JUMPDEST PUSH2 0x8CD PUSH1 0x40 DUP4 ADD DUP5 PUSH2 0x891 JUMP JUMPDEST SWAP5 SWAP4 POP POP POP POP JUMP JUMPDEST PUSH2 0x8DE DUP2 PUSH2 0x84F JUMP JUMPDEST DUP2 EQ PUSH2 0x8E8 JUMPI PUSH0 PUSH0 REVERT JUMPDEST POP JUMP JUMPDEST PUSH0 DUP2 MLOAD SWAP1 POP PUSH2 0x8F9 DUP2 PUSH2 0x8D5 JUMP JUMPDEST SWAP3 SWAP2 POP POP JUMP JUMPDEST PUSH0 PUSH1 0x20 DUP3 DUP5 SUB SLT ISZERO PUSH2 0x914 JUMPI PUSH2 0x913 PUSH2 0x75A JUMP JUMPDEST JUMPDEST PUSH0 PUSH2 0x921 DUP5 DUP3 DUP6 ADD PUSH2 0x8EB JUMP JUMPDEST SWAP2 POP POP SWAP3 SWAP2 POP POP JUMP JUMPDEST PUSH0 DUP2 PUSH1 0xE0 SHR SWAP1 POP SWAP2 SWAP1 POP JUMP JUMPDEST PUSH0 PUSH1 0x3 RETURNDATASIZE GT ISZERO PUSH2 0x952 JUMPI PUSH1 0x4 PUSH0 PUSH0 RETURNDATACOPY PUSH2 0x94F PUSH0 MLOAD PUSH2 0x92A JUMP JUMPDEST SWAP1 POP JUMPDEST SWAP1 JUMP JUMPDEST PUSH0 PUSH1 0x1F NOT PUSH1 0x1F DUP4 ADD AND SWAP1 POP SWAP2 SWAP1 POP JUMP JUMPDEST PUSH32 0x4E487B7100000000000000000000000000000000000000000000000000000000 PUSH0 MSTORE PUSH1 0x41 PUSH1 0x4 MSTORE PUSH1 0x24 PUSH0 REVERT JUMPDEST PUSH2 0x99B DUP3 PUSH2 0x955 JUMP JUMPDEST DUP2 ADD DUP2 DUP2 LT PUSH8 0xFFFFFFFFFFFFFFFF DUP3 GT OR ISZERO PUSH2 0x9BA JUMPI PUSH2 0x9B9 PUSH2 0x965 JUMP JUMPDEST JUMPDEST DUP1 PUSH1 0x40 MSTORE POP POP POP JUMP JUMPDEST PUSH0 PUSH1 0x44 RETURNDATASIZE LT PUSH2 0xA4F JUMPI PUSH2 0x9D4 PUSH2 0x751 JUMP JUMPDEST PUSH1 0x4 RETURNDATASIZE SUB PUSH1 0x4 DUP3 RETURNDATACOPY DUP1 MLOAD RETURNDATASIZE PUSH1 0x24 DUP3 ADD GT PUSH8 0xFFFFFFFFFFFFFFFF DUP3 GT OR ISZERO PUSH2 0x9FC JUMPI POP POP PUSH2 0xA4F JUMP JUMPDEST DUP1 DUP3 ADD DUP1 MLOAD PUSH8 0xFFFFFFFFFFFFFFFF DUP2 GT ISZERO PUSH2 0xA1A JUMPI POP POP POP POP PUSH2 0xA4F JUMP JUMPDEST DUP1 PUSH1 0x20 DUP4 ADD ADD PUSH1 0x4 RETURNDATASIZE SUB DUP6 ADD DUP2 GT ISZERO PUSH2 0xA37 JUMPI POP POP POP POP POP PUSH2 0xA4F JUMP JUMPDEST PUSH2 0xA46 DUP3 PUSH1 0x20 ADD DUP6 ADD DUP7 PUSH2 0x992 JUMP JUMPDEST DUP3 SWAP6 POP POP POP POP POP POP JUMPDEST SWAP1 JUMP JUMPDEST PUSH0 DUP2 MLOAD SWAP1 POP SWAP2 SWAP1 POP JUMP JUMPDEST PUSH0 DUP3 DUP3 MSTORE PUSH1 0x20 DUP3 ADD SWAP1 POP SWAP3 SWAP2 POP POP JUMP JUMPDEST DUP3 DUP2 DUP4 MCOPY PUSH0 DUP4 DUP4 ADD MSTORE POP POP POP JUMP JUMPDEST PUSH0 PUSH2 0xA84 DUP3 PUSH2 0xA52 JUMP JUMPDEST PUSH2 0xA8E DUP2 DUP6 PUSH2 0xA5C JUMP JUMPDEST SWAP4 POP PUSH2 0xA9E DUP2 DUP6 PUSH1 0x20 DUP7 ADD PUSH2 0xA6C JUMP JUMPDEST PUSH2 0xAA7 DUP2 PUSH2 0x955 JUMP JUMPDEST DUP5 ADD SWAP2 POP POP SWAP3 SWAP2 POP POP JUMP JUMPDEST PUSH0 PUSH1 0x20 DUP3 ADD SWAP1 POP DUP2 DUP2 SUB PUSH0 DUP4 ADD MSTORE PUSH2 0xACA DUP2 DUP5 PUSH2 0xA7A JUMP JUMPDEST SWAP1 POP SWAP3 SWAP2 POP POP JUMP JUMPDEST PUSH0 PUSH0 PUSH1 0x23 RETURNDATASIZE GT ISZERO PUSH2 0xAEC JUMPI PUSH1 0x20 PUSH1 0x4 PUSH0 RETURNDATACOPY PUSH1 0x1 SWAP2 POP PUSH0 MLOAD SWAP1 POP JUMPDEST SWAP1 SWAP2 JUMP JUMPDEST PUSH0 PUSH1 0x20 DUP3 ADD SWAP1 POP PUSH2 0xB03 PUSH0 DUP4 ADD DUP5 PUSH2 0x891 JUMP JUMPDEST SWAP3 SWAP2 POP POP JUMP JUMPDEST PUSH0 DUP2 MLOAD SWAP1 POP SWAP2 SWAP1 POP JUMP JUMPDEST PUSH0 DUP3 DUP3 MSTORE PUSH1 0x20 DUP3 ADD SWAP1 POP SWAP3 SWAP2 POP POP JUMP JUMPDEST PUSH0 PUSH2 0xB2D DUP3 PUSH2 0xB09 JUMP JUMPDEST PUSH2 0xB37 DUP2 DUP6 PUSH2 0xB13 JUMP JUMPDEST SWAP4 POP PUSH2 0xB47 DUP2 DUP6 PUSH1 0x20 DUP7 ADD PUSH2 0xA6C JUMP JUMPDEST PUSH2 0xB50 DUP2 PUSH2 0x955 JUMP JUMPDEST DUP5 ADD SWAP2 POP POP SWAP3 SWAP2 POP POP JUMP JUMPDEST PUSH0 PUSH1 0x20 DUP3 ADD SWAP1 POP DUP2 DUP2 SUB PUSH0 DUP4 ADD MSTORE PUSH2 0xB73 DUP2 DUP5 PUSH2 0xB23 JUMP JUMPDEST SWAP1 POP SWAP3 SWAP2 POP POP JUMP JUMPDEST PUSH32 0x5472616E7366657246726F6D2072657475726E65642066616C73650000000000 PUSH0 DUP3 ADD MSTORE POP JUMP JUMPDEST PUSH0 PUSH2 0xBAF PUSH1 0x1B DUP4 PUSH2 0xA5C JUMP JUMPDEST SWAP2 POP PUSH2 0xBBA DUP3 PUSH2 0xB7B JUMP JUMPDEST PUSH1 0x20 DUP3 ADD SWAP1 POP SWAP2 SWAP1 POP JUMP JUMPDEST PUSH0 PUSH1 0x20 DUP3 ADD SWAP1 POP DUP2 DUP2 SUB PUSH0 DUP4 ADD MSTORE PUSH2 0xBDC DUP2 PUSH2 0xBA3 JUMP JUMPDEST SWAP1 POP SWAP2 SWAP1 POP JUMP JUMPDEST PUSH0 PUSH1 0x40 DUP3 ADD SWAP1 POP PUSH2 0xBF6 PUSH0 DUP4 ADD DUP6 PUSH2 0x882 JUMP JUMPDEST PUSH2 0xC03 PUSH1 0x20 DUP4 ADD DUP5 PUSH2 0x891 JUMP JUMPDEST SWAP4 SWAP3 POP POP POP JUMP JUMPDEST PUSH32 0x5472616E736665722072657475726E65642066616C7365000000000000000000 PUSH0 DUP3 ADD MSTORE POP JUMP JUMPDEST PUSH0 PUSH2 0xC3E PUSH1 0x17 DUP4 PUSH2 0xA5C JUMP JUMPDEST SWAP2 POP PUSH2 0xC49 DUP3 PUSH2 0xC0A JUMP JUMPDEST PUSH1 0x20 DUP3 ADD SWAP1 POP SWAP2 SWAP1 POP JUMP JUMPDEST PUSH0 PUSH1 0x20 DUP3 ADD SWAP1 POP DUP2 DUP2 SUB PUSH0 DUP4 ADD MSTORE PUSH2 0xC6B DUP2 PUSH2 0xC32 JUMP JUMPDEST SWAP1 POP SWAP2 SWAP1 POP JUMP JUMPDEST PUSH0 PUSH1 0x80 DUP3 ADD SWAP1 POP PUSH2 0xC85 PUSH0 DUP4 ADD DUP8 PUSH2 0x882 JUMP JUMPDEST PUSH2 0xC92 PUSH1 0x20 DUP4 ADD DUP7 PUSH2 0x882 JUMP JUMPDEST PUSH2 0xC9F PUSH1 0x40 DUP4 ADD DUP6 PUSH2 0x891 JUMP JUMPDEST PUSH2 0xCAC PUSH1 0x60 DUP4 ADD DUP5 PUSH2 0x891 JUMP JUMPDEST SWAP6 SWAP5 POP POP POP POP POP JUMP INVALID LOG2 PUSH5 0x6970667358 0x22 SLT KECCAK256 CALLDATASIZE EXTCODESIZE MLOAD LOG4 MOD MSIZE LOG3 GASPRICE ADD 0x4D 0xC1 LOG0 DUP5 PUSH14 0x494B000CB6B8204BA7E7DCAF86C7 EXTSTATICCALL PUSH25 0xA44C64736F6C634300081F0033000000000000000000000000 "
				},
				"gasEstimates": {
					"creation": {
						"codeDepositCost": "661400",
						"executionCost": "694",
						"totalCost": "662094"
					},
					"external": {
						"swap(address,address,uint256,uint256)": "infinite"
					}
				},
				"methodIdentifiers": {
					"swap(address,address,uint256,uint256)": "fe029156"
				}
			},
			"storageLayout": {
				"storage": [],
				"types": null
			},
			"userdoc": {
				"kind": "user",
				"methods": {
					"swap(address,address,uint256,uint256)": {
						"notice": "交换代币"
					}
				},
				"version": 1
			}
		}
	}
}