{
	"contracts/lesson6.2/Whitelist.sol": {
		"Whitelist": {
			"abi": [
				{
					"inputs": [
						{
							"internalType": "address",
							"name": "account",
							"type": "address"
						}
					],
					"name": "addToWhitelist",
					"outputs": [],
					"stateMutability": "nonpayable",
					"type": "function"
				},
				{
					"inputs": [],
					"name": "getWhitelistSize",
					"outputs": [
						{
							"internalType": "uint256",
							"name": "",
							"type": "uint256"
						}
					],
					"stateMutability": "view",
					"type": "function"
				},
				{
					"inputs": [
						{
							"internalType": "address",
							"name": "account",
							"type": "address"
						}
					],
					"name": "isWhitelisted",
					"outputs": [
						{
							"internalType": "bool",
							"name": "",
							"type": "bool"
						}
					],
					"stateMutability": "view",
					"type": "function"
				},
				{
					"inputs": [
						{
							"internalType": "address",
							"name": "account",
							"type": "address"
						}
					],
					"name": "removeFromWhitelist",
					"outputs": [],
					"stateMutability": "nonpayable",
					"type": "function"
				}
			],
			"devdoc": {
				"kind": "dev",
				"methods": {},
				"version": 1
			},
			"evm": {
				"assembly": "    /* \"contracts/lesson6.2/Whitelist.sol\":1483:2071  contract Whitelist {... */\n  mstore(0x40, 0x80)\n  callvalue\n  dup1\n  iszero\n  tag_1\n  jumpi\n  revert(0x00, 0x00)\ntag_1:\n  pop\n  dataSize(sub_0)\n  dup1\n  dataOffset(sub_0)\n  0x00\n  codecopy\n  0x00\n  return\nstop\n\nsub_0: assembly {\n        /* \"contracts/lesson6.2/Whitelist.sol\":1483:2071  contract Whitelist {... */\n      mstore(0x40, 0x80)\n      callvalue\n      dup1\n      iszero\n      tag_1\n      jumpi\n      revert(0x00, 0x00)\n    tag_1:\n      pop\n      jumpi(tag_2, lt(calldatasize, 0x04))\n      shr(0xe0, calldataload(0x00))\n      dup1\n      0x3af32abf\n      eq\n      tag_3\n      jumpi\n      dup1\n      0x8ab1d681\n      eq\n      tag_4\n      jumpi\n      dup1\n      0x99db89b5\n      eq\n      tag_5\n      jumpi\n      dup1\n      0xe43252d7\n      eq\n      tag_6\n      jumpi\n    tag_2:\n      revert(0x00, 0x00)\n        /* \"contracts/lesson6.2/Whitelist.sol\":1845:1963  function isWhitelisted(address account) public view returns (bool) {... */\n    tag_3:\n      tag_7\n      0x04\n      dup1\n      calldatasize\n      sub\n      dup2\n      add\n      swap1\n      tag_8\n      swap2\n      swap1\n      tag_9\n      jump\t// in\n    tag_8:\n      tag_10\n      jump\t// in\n    tag_7:\n      mload(0x40)\n      tag_11\n      swap2\n      swap1\n      tag_12\n      jump\t// in\n    tag_11:\n      mload(0x40)\n      dup1\n      swap2\n      sub\n      swap1\n      return\n        /* \"contracts/lesson6.2/Whitelist.sol\":1715:1839  function removeFromWhitelist(address account) public {... */\n    tag_4:\n      tag_13\n      0x04\n      dup1\n      calldatasize\n      sub\n      dup2\n      add\n      swap1\n      tag_14\n      swap2\n      swap1\n      tag_9\n      jump\t// in\n    tag_14:\n      tag_15\n      jump\t// in\n    tag_13:\n      stop\n        /* \"contracts/lesson6.2/Whitelist.sol\":1969:2069  function getWhitelistSize() public view returns (uint256) {... */\n    tag_5:\n      tag_16\n      tag_17\n      jump\t// in\n    tag_16:\n      mload(0x40)\n      tag_18\n      swap2\n      swap1\n      tag_19\n      jump\t// in\n    tag_18:\n      mload(0x40)\n      dup1\n      swap2\n      sub\n      swap1\n      return\n        /* \"contracts/lesson6.2/Whitelist.sol\":1589:1709  function addToWhitelist(address account) public {... */\n    tag_6:\n      tag_20\n      0x04\n      dup1\n      calldatasize\n      sub\n      dup2\n      add\n      swap1\n      tag_21\n      swap2\n      swap1\n      tag_9\n      jump\t// in\n    tag_21:\n      tag_22\n      jump\t// in\n    tag_20:\n      stop\n        /* \"contracts/lesson6.2/Whitelist.sol\":1845:1963  function isWhitelisted(address account) public view returns (bool) {... */\n    tag_10:\n        /* \"contracts/lesson6.2/Whitelist.sol\":1906:1910  bool */\n      0x00\n        /* \"contracts/lesson6.2/Whitelist.sol\":1929:1956  whitelist.contains(account) */\n      tag_24\n        /* \"contracts/lesson6.2/Whitelist.sol\":1948:1955  account */\n      dup3\n        /* \"contracts/lesson6.2/Whitelist.sol\":1929:1938  whitelist */\n      0x00\n        /* \"contracts/lesson6.2/Whitelist.sol\":1929:1947  whitelist.contains */\n      tag_25\n      swap1\n        /* \"contracts/lesson6.2/Whitelist.sol\":1929:1956  whitelist.contains(account) */\n      swap2\n      swap1\n      0xffffffff\n      and\n      jump\t// in\n    tag_24:\n        /* \"contracts/lesson6.2/Whitelist.sol\":1922:1956  return whitelist.contains(account) */\n      swap1\n      pop\n        /* \"contracts/lesson6.2/Whitelist.sol\":1845:1963  function isWhitelisted(address account) public view returns (bool) {... */\n      swap2\n      swap1\n      pop\n      jump\t// out\n        /* \"contracts/lesson6.2/Whitelist.sol\":1715:1839  function removeFromWhitelist(address account) public {... */\n    tag_15:\n        /* \"contracts/lesson6.2/Whitelist.sol\":1786:1811  whitelist.remove(account) */\n      tag_27\n        /* \"contracts/lesson6.2/Whitelist.sol\":1803:1810  account */\n      dup2\n        /* \"contracts/lesson6.2/Whitelist.sol\":1786:1795  whitelist */\n      0x00\n        /* \"contracts/lesson6.2/Whitelist.sol\":1786:1802  whitelist.remove */\n      tag_28\n      swap1\n        /* \"contracts/lesson6.2/Whitelist.sol\":1786:1811  whitelist.remove(account) */\n      swap2\n      swap1\n      0xffffffff\n      and\n      jump\t// in\n    tag_27:\n        /* \"contracts/lesson6.2/Whitelist.sol\":1778:1832  require(whitelist.remove(account), \"Not in whitelist\") */\n      tag_29\n      jumpi\n      mload(0x40)\n      0x08c379a000000000000000000000000000000000000000000000000000000000\n      dup2\n      mstore\n      0x04\n      add\n      tag_30\n      swap1\n      tag_31\n      jump\t// in\n    tag_30:\n      mload(0x40)\n      dup1\n      swap2\n      sub\n      swap1\n      revert\n    tag_29:\n        /* \"contracts/lesson6.2/Whitelist.sol\":1715:1839  function removeFromWhitelist(address account) public {... */\n      pop\n      jump\t// out\n        /* \"contracts/lesson6.2/Whitelist.sol\":1969:2069  function getWhitelistSize() public view returns (uint256) {... */\n    tag_17:\n        /* \"contracts/lesson6.2/Whitelist.sol\":2018:2025  uint256 */\n      0x00\n        /* \"contracts/lesson6.2/Whitelist.sol\":2044:2062  whitelist.length() */\n      tag_33\n        /* \"contracts/lesson6.2/Whitelist.sol\":2044:2053  whitelist */\n      0x00\n        /* \"contracts/lesson6.2/Whitelist.sol\":2044:2060  whitelist.length */\n      tag_34\n        /* \"contracts/lesson6.2/Whitelist.sol\":2044:2062  whitelist.length() */\n      jump\t// in\n    tag_33:\n        /* \"contracts/lesson6.2/Whitelist.sol\":2037:2062  return whitelist.length() */\n      swap1\n      pop\n        /* \"contracts/lesson6.2/Whitelist.sol\":1969:2069  function getWhitelistSize() public view returns (uint256) {... */\n      swap1\n      jump\t// out\n        /* \"contracts/lesson6.2/Whitelist.sol\":1589:1709  function addToWhitelist(address account) public {... */\n    tag_22:\n        /* \"contracts/lesson6.2/Whitelist.sol\":1655:1677  whitelist.add(account) */\n      tag_36\n        /* \"contracts/lesson6.2/Whitelist.sol\":1669:1676  account */\n      dup2\n        /* \"contracts/lesson6.2/Whitelist.sol\":1655:1664  whitelist */\n      0x00\n        /* \"contracts/lesson6.2/Whitelist.sol\":1655:1668  whitelist.add */\n      tag_37\n      swap1\n        /* \"contracts/lesson6.2/Whitelist.sol\":1655:1677  whitelist.add(account) */\n      swap2\n      swap1\n      0xffffffff\n      and\n      jump\t// in\n    tag_36:\n        /* \"contracts/lesson6.2/Whitelist.sol\":1647:1702  require(whitelist.add(account), \"Already in whitelist\") */\n      tag_38\n      jumpi\n      mload(0x40)\n      0x08c379a000000000000000000000000000000000000000000000000000000000\n      dup2\n      mstore\n      0x04\n      add\n      tag_39\n      swap1\n      tag_40\n      jump\t// in\n    tag_39:\n      mload(0x40)\n      dup1\n      swap2\n      sub\n      swap1\n      revert\n    tag_38:\n        /* \"contracts/lesson6.2/Whitelist.sol\":1589:1709  function addToWhitelist(address account) public {... */\n      pop\n      jump\t// out\n        /* \"contracts/lesson6.2/Whitelist.sol\":1007:1155  function contains(... */\n    tag_25:\n        /* \"contracts/lesson6.2/Whitelist.sol\":1102:1106  bool */\n      0x00\n        /* \"contracts/lesson6.2/Whitelist.sol\":1147:1148  0 */\n      0x00\n        /* \"contracts/lesson6.2/Whitelist.sol\":1125:1128  set */\n      dup4\n        /* \"contracts/lesson6.2/Whitelist.sol\":1125:1136  set.indexes */\n      0x01\n      add\n        /* \"contracts/lesson6.2/Whitelist.sol\":1125:1143  set.indexes[value] */\n      0x00\n        /* \"contracts/lesson6.2/Whitelist.sol\":1137:1142  value */\n      dup5\n        /* \"contracts/lesson6.2/Whitelist.sol\":1125:1143  set.indexes[value] */\n      0xffffffffffffffffffffffffffffffffffffffff\n      and\n      0xffffffffffffffffffffffffffffffffffffffff\n      and\n      dup2\n      mstore\n      0x20\n      add\n      swap1\n      dup2\n      mstore\n      0x20\n      add\n      0x00\n      keccak256\n      sload\n        /* \"contracts/lesson6.2/Whitelist.sol\":1125:1148  set.indexes[value] != 0 */\n      eq\n      iszero\n        /* \"contracts/lesson6.2/Whitelist.sol\":1118:1148  return set.indexes[value] != 0 */\n      swap1\n      pop\n        /* \"contracts/lesson6.2/Whitelist.sol\":1007:1155  function contains(... */\n      swap3\n      swap2\n      pop\n      pop\n      jump\t// out\n        /* \"contracts/lesson6.2/Whitelist.sol\":433:1001  function remove(Set storage set, address value) internal returns (bool) {... */\n    tag_28:\n        /* \"contracts/lesson6.2/Whitelist.sol\":499:503  bool */\n      0x00\n        /* \"contracts/lesson6.2/Whitelist.sol\":515:528  uint256 index */\n      0x00\n        /* \"contracts/lesson6.2/Whitelist.sol\":531:534  set */\n      dup4\n        /* \"contracts/lesson6.2/Whitelist.sol\":531:542  set.indexes */\n      0x01\n      add\n        /* \"contracts/lesson6.2/Whitelist.sol\":531:549  set.indexes[value] */\n      0x00\n        /* \"contracts/lesson6.2/Whitelist.sol\":543:548  value */\n      dup5\n        /* \"contracts/lesson6.2/Whitelist.sol\":531:549  set.indexes[value] */\n      0xffffffffffffffffffffffffffffffffffffffff\n      and\n      0xffffffffffffffffffffffffffffffffffffffff\n      and\n      dup2\n      mstore\n      0x20\n      add\n      swap1\n      dup2\n      mstore\n      0x20\n      add\n      0x00\n      keccak256\n      sload\n        /* \"contracts/lesson6.2/Whitelist.sol\":515:549  uint256 index = set.indexes[value] */\n      swap1\n      pop\n        /* \"contracts/lesson6.2/Whitelist.sol\":573:574  0 */\n      0x00\n        /* \"contracts/lesson6.2/Whitelist.sol\":564:569  index */\n      dup2\n        /* \"contracts/lesson6.2/Whitelist.sol\":564:574  index == 0 */\n      sub\n        /* \"contracts/lesson6.2/Whitelist.sol\":560:613  if (index == 0) {... */\n      tag_43\n      jumpi\n        /* \"contracts/lesson6.2/Whitelist.sol\":597:602  false */\n      0x00\n        /* \"contracts/lesson6.2/Whitelist.sol\":590:602  return false */\n      swap2\n      pop\n      pop\n      jump(tag_42)\n        /* \"contracts/lesson6.2/Whitelist.sol\":560:613  if (index == 0) {... */\n    tag_43:\n        /* \"contracts/lesson6.2/Whitelist.sol\":623:644  uint256 toDeleteIndex */\n      0x00\n        /* \"contracts/lesson6.2/Whitelist.sol\":655:656  1 */\n      0x01\n        /* \"contracts/lesson6.2/Whitelist.sol\":647:652  index */\n      dup3\n        /* \"contracts/lesson6.2/Whitelist.sol\":647:656  index - 1 */\n      tag_44\n      swap2\n      swap1\n      tag_45\n      jump\t// in\n    tag_44:\n        /* \"contracts/lesson6.2/Whitelist.sol\":623:656  uint256 toDeleteIndex = index - 1 */\n      swap1\n      pop\n        /* \"contracts/lesson6.2/Whitelist.sol\":666:683  uint256 lastIndex */\n      0x00\n        /* \"contracts/lesson6.2/Whitelist.sol\":706:707  1 */\n      0x01\n        /* \"contracts/lesson6.2/Whitelist.sol\":686:689  set */\n      dup7\n        /* \"contracts/lesson6.2/Whitelist.sol\":686:696  set.values */\n      0x00\n      add\n        /* \"contracts/lesson6.2/Whitelist.sol\":686:703  set.values.length */\n      dup1\n      sload\n      swap1\n      pop\n        /* \"contracts/lesson6.2/Whitelist.sol\":686:707  set.values.length - 1 */\n      tag_46\n      swap2\n      swap1\n      tag_45\n      jump\t// in\n    tag_46:\n        /* \"contracts/lesson6.2/Whitelist.sol\":666:707  uint256 lastIndex = set.values.length - 1 */\n      swap1\n      pop\n        /* \"contracts/lesson6.2/Whitelist.sol\":739:748  lastIndex */\n      dup1\n        /* \"contracts/lesson6.2/Whitelist.sol\":722:735  toDeleteIndex */\n      dup3\n        /* \"contracts/lesson6.2/Whitelist.sol\":722:748  toDeleteIndex != lastIndex */\n      eq\n        /* \"contracts/lesson6.2/Whitelist.sol\":718:911  if (toDeleteIndex != lastIndex) {... */\n      tag_47\n      jumpi\n        /* \"contracts/lesson6.2/Whitelist.sol\":764:781  address lastValue */\n      0x00\n        /* \"contracts/lesson6.2/Whitelist.sol\":784:787  set */\n      dup7\n        /* \"contracts/lesson6.2/Whitelist.sol\":784:794  set.values */\n      0x00\n      add\n        /* \"contracts/lesson6.2/Whitelist.sol\":795:804  lastIndex */\n      dup3\n        /* \"contracts/lesson6.2/Whitelist.sol\":784:805  set.values[lastIndex] */\n      dup2\n      sload\n      dup2\n      lt\n      tag_48\n      jumpi\n      tag_49\n      tag_50\n      jump\t// in\n    tag_49:\n    tag_48:\n      swap1\n      0x00\n      mstore\n      keccak256(0x00, 0x20)\n      add\n      0x00\n      swap1\n      sload\n      swap1\n      0x0100\n      exp\n      swap1\n      div\n      0xffffffffffffffffffffffffffffffffffffffff\n      and\n        /* \"contracts/lesson6.2/Whitelist.sol\":764:805  address lastValue = set.values[lastIndex] */\n      swap1\n      pop\n        /* \"contracts/lesson6.2/Whitelist.sol\":847:856  lastValue */\n      dup1\n        /* \"contracts/lesson6.2/Whitelist.sol\":819:822  set */\n      dup8\n        /* \"contracts/lesson6.2/Whitelist.sol\":819:829  set.values */\n      0x00\n      add\n        /* \"contracts/lesson6.2/Whitelist.sol\":830:843  toDeleteIndex */\n      dup5\n        /* \"contracts/lesson6.2/Whitelist.sol\":819:844  set.values[toDeleteIndex] */\n      dup2\n      sload\n      dup2\n      lt\n      tag_52\n      jumpi\n      tag_53\n      tag_50\n      jump\t// in\n    tag_53:\n    tag_52:\n      swap1\n      0x00\n      mstore\n      keccak256(0x00, 0x20)\n      add\n      0x00\n        /* \"contracts/lesson6.2/Whitelist.sol\":819:856  set.values[toDeleteIndex] = lastValue */\n      0x0100\n      exp\n      dup2\n      sload\n      dup2\n      0xffffffffffffffffffffffffffffffffffffffff\n      mul\n      not\n      and\n      swap1\n      dup4\n      0xffffffffffffffffffffffffffffffffffffffff\n      and\n      mul\n      or\n      swap1\n      sstore\n      pop\n        /* \"contracts/lesson6.2/Whitelist.sol\":895:900  index */\n      dup4\n        /* \"contracts/lesson6.2/Whitelist.sol\":870:873  set */\n      dup8\n        /* \"contracts/lesson6.2/Whitelist.sol\":870:881  set.indexes */\n      0x01\n      add\n        /* \"contracts/lesson6.2/Whitelist.sol\":870:892  set.indexes[lastValue] */\n      0x00\n        /* \"contracts/lesson6.2/Whitelist.sol\":882:891  lastValue */\n      dup4\n        /* \"contracts/lesson6.2/Whitelist.sol\":870:892  set.indexes[lastValue] */\n      0xffffffffffffffffffffffffffffffffffffffff\n      and\n      0xffffffffffffffffffffffffffffffffffffffff\n      and\n      dup2\n      mstore\n      0x20\n      add\n      swap1\n      dup2\n      mstore\n      0x20\n      add\n      0x00\n      keccak256\n        /* \"contracts/lesson6.2/Whitelist.sol\":870:900  set.indexes[lastValue] = index */\n      dup2\n      swap1\n      sstore\n      pop\n        /* \"contracts/lesson6.2/Whitelist.sol\":750:911  {... */\n      pop\n        /* \"contracts/lesson6.2/Whitelist.sol\":718:911  if (toDeleteIndex != lastIndex) {... */\n    tag_47:\n        /* \"contracts/lesson6.2/Whitelist.sol\":921:924  set */\n      dup6\n        /* \"contracts/lesson6.2/Whitelist.sol\":921:931  set.values */\n      0x00\n      add\n        /* \"contracts/lesson6.2/Whitelist.sol\":921:937  set.values.pop() */\n      dup1\n      sload\n      dup1\n      tag_55\n      jumpi\n      tag_56\n      tag_57\n      jump\t// in\n    tag_56:\n    tag_55:\n      0x01\n      swap1\n      sub\n      dup2\n      dup2\n      swap1\n      0x00\n      mstore\n      keccak256(0x00, 0x20)\n      add\n      exp(0x0100, 0x00)\n      dup2\n      sload\n      swap1\n      0xffffffffffffffffffffffffffffffffffffffff\n      mul\n      not\n      and\n      swap1\n      sstore\n      swap1\n      sstore\n        /* \"contracts/lesson6.2/Whitelist.sol\":954:957  set */\n      dup6\n        /* \"contracts/lesson6.2/Whitelist.sol\":954:965  set.indexes */\n      0x01\n      add\n        /* \"contracts/lesson6.2/Whitelist.sol\":954:972  set.indexes[value] */\n      0x00\n        /* \"contracts/lesson6.2/Whitelist.sol\":966:971  value */\n      dup7\n        /* \"contracts/lesson6.2/Whitelist.sol\":954:972  set.indexes[value] */\n      0xffffffffffffffffffffffffffffffffffffffff\n      and\n      0xffffffffffffffffffffffffffffffffffffffff\n      and\n      dup2\n      mstore\n      0x20\n      add\n      swap1\n      dup2\n      mstore\n      0x20\n      add\n      0x00\n      keccak256\n        /* \"contracts/lesson6.2/Whitelist.sol\":947:972  delete set.indexes[value] */\n      0x00\n      swap1\n      sstore\n        /* \"contracts/lesson6.2/Whitelist.sol\":990:994  true */\n      0x01\n        /* \"contracts/lesson6.2/Whitelist.sol\":983:994  return true */\n      swap4\n      pop\n      pop\n      pop\n      pop\n        /* \"contracts/lesson6.2/Whitelist.sol\":433:1001  function remove(Set storage set, address value) internal returns (bool) {... */\n    tag_42:\n      swap3\n      swap2\n      pop\n      pop\n      jump\t// out\n        /* \"contracts/lesson6.2/Whitelist.sol\":1161:1267  function length(Set storage set) internal view returns (uint256) {... */\n    tag_34:\n        /* \"contracts/lesson6.2/Whitelist.sol\":1217:1224  uint256 */\n      0x00\n        /* \"contracts/lesson6.2/Whitelist.sol\":1243:1246  set */\n      dup2\n        /* \"contracts/lesson6.2/Whitelist.sol\":1243:1253  set.values */\n      0x00\n      add\n        /* \"contracts/lesson6.2/Whitelist.sol\":1243:1260  set.values.length */\n      dup1\n      sload\n      swap1\n      pop\n        /* \"contracts/lesson6.2/Whitelist.sol\":1236:1260  return set.values.length */\n      swap1\n      pop\n        /* \"contracts/lesson6.2/Whitelist.sol\":1161:1267  function length(Set storage set) internal view returns (uint256) {... */\n      swap2\n      swap1\n      pop\n      jump\t// out\n        /* \"contracts/lesson6.2/Whitelist.sol\":177:427  function add(Set storage set, address value) internal returns (bool) {... */\n    tag_37:\n        /* \"contracts/lesson6.2/Whitelist.sol\":240:244  bool */\n      0x00\n        /* \"contracts/lesson6.2/Whitelist.sol\":260:280  contains(set, value) */\n      tag_61\n        /* \"contracts/lesson6.2/Whitelist.sol\":269:272  set */\n      dup4\n        /* \"contracts/lesson6.2/Whitelist.sol\":274:279  value */\n      dup4\n        /* \"contracts/lesson6.2/Whitelist.sol\":260:268  contains */\n      tag_25\n        /* \"contracts/lesson6.2/Whitelist.sol\":260:280  contains(set, value) */\n      jump\t// in\n    tag_61:\n        /* \"contracts/lesson6.2/Whitelist.sol\":256:319  if (contains(set, value)) {... */\n      iszero\n      tag_62\n      jumpi\n        /* \"contracts/lesson6.2/Whitelist.sol\":303:308  false */\n      0x00\n        /* \"contracts/lesson6.2/Whitelist.sol\":296:308  return false */\n      swap1\n      pop\n      jump(tag_60)\n        /* \"contracts/lesson6.2/Whitelist.sol\":256:319  if (contains(set, value)) {... */\n    tag_62:\n        /* \"contracts/lesson6.2/Whitelist.sol\":329:332  set */\n      dup3\n        /* \"contracts/lesson6.2/Whitelist.sol\":329:339  set.values */\n      0x00\n      add\n        /* \"contracts/lesson6.2/Whitelist.sol\":345:350  value */\n      dup3\n        /* \"contracts/lesson6.2/Whitelist.sol\":329:351  set.values.push(value) */\n      swap1\n      dup1\n      0x01\n      dup2\n      sload\n      add\n      dup1\n      dup3\n      sstore\n      dup1\n      swap2\n      pop\n      pop\n      0x01\n      swap1\n      sub\n      swap1\n      0x00\n      mstore\n      keccak256(0x00, 0x20)\n      add\n      0x00\n      swap1\n      swap2\n      swap1\n      swap2\n      swap1\n      swap2\n      0x0100\n      exp\n      dup2\n      sload\n      dup2\n      0xffffffffffffffffffffffffffffffffffffffff\n      mul\n      not\n      and\n      swap1\n      dup4\n      0xffffffffffffffffffffffffffffffffffffffff\n      and\n      mul\n      or\n      swap1\n      sstore\n      pop\n        /* \"contracts/lesson6.2/Whitelist.sol\":382:385  set */\n      dup3\n        /* \"contracts/lesson6.2/Whitelist.sol\":382:392  set.values */\n      0x00\n      add\n        /* \"contracts/lesson6.2/Whitelist.sol\":382:399  set.values.length */\n      dup1\n      sload\n      swap1\n      pop\n        /* \"contracts/lesson6.2/Whitelist.sol\":361:364  set */\n      dup4\n        /* \"contracts/lesson6.2/Whitelist.sol\":361:372  set.indexes */\n      0x01\n      add\n        /* \"contracts/lesson6.2/Whitelist.sol\":361:379  set.indexes[value] */\n      0x00\n        /* \"contracts/lesson6.2/Whitelist.sol\":373:378  value */\n      dup5\n        /* \"contracts/lesson6.2/Whitelist.sol\":361:379  set.indexes[value] */\n      0xffffffffffffffffffffffffffffffffffffffff\n      and\n      0xffffffffffffffffffffffffffffffffffffffff\n      and\n      dup2\n      mstore\n      0x20\n      add\n      swap1\n      dup2\n      mstore\n      0x20\n      add\n      0x00\n      keccak256\n        /* \"contracts/lesson6.2/Whitelist.sol\":361:399  set.indexes[value] = set.values.length */\n      dup2\n      swap1\n      sstore\n      pop\n        /* \"contracts/lesson6.2/Whitelist.sol\":416:420  true */\n      0x01\n        /* \"contracts/lesson6.2/Whitelist.sol\":409:420  return true */\n      swap1\n      pop\n        /* \"contracts/lesson6.2/Whitelist.sol\":177:427  function add(Set storage set, address value) internal returns (bool) {... */\n    tag_60:\n      swap3\n      swap2\n      pop\n      pop\n      jump\t// out\n        /* \"#utility.yul\":88:205   */\n    tag_65:\n        /* \"#utility.yul\":197:198   */\n      0x00\n        /* \"#utility.yul\":194:195   */\n      0x00\n        /* \"#utility.yul\":187:199   */\n      revert\n        /* \"#utility.yul\":334:460   */\n    tag_67:\n        /* \"#utility.yul\":371:378   */\n      0x00\n        /* \"#utility.yul\":411:453   */\n      0xffffffffffffffffffffffffffffffffffffffff\n        /* \"#utility.yul\":404:409   */\n      dup3\n        /* \"#utility.yul\":400:454   */\n      and\n        /* \"#utility.yul\":389:454   */\n      swap1\n      pop\n        /* \"#utility.yul\":334:460   */\n      swap2\n      swap1\n      pop\n      jump\t// out\n        /* \"#utility.yul\":466:562   */\n    tag_68:\n        /* \"#utility.yul\":503:510   */\n      0x00\n        /* \"#utility.yul\":532:556   */\n      tag_87\n        /* \"#utility.yul\":550:555   */\n      dup3\n        /* \"#utility.yul\":532:556   */\n      tag_67\n      jump\t// in\n    tag_87:\n        /* \"#utility.yul\":521:556   */\n      swap1\n      pop\n        /* \"#utility.yul\":466:562   */\n      swap2\n      swap1\n      pop\n      jump\t// out\n        /* \"#utility.yul\":568:690   */\n    tag_69:\n        /* \"#utility.yul\":641:665   */\n      tag_89\n        /* \"#utility.yul\":659:664   */\n      dup2\n        /* \"#utility.yul\":641:665   */\n      tag_68\n      jump\t// in\n    tag_89:\n        /* \"#utility.yul\":634:639   */\n      dup2\n        /* \"#utility.yul\":631:666   */\n      eq\n        /* \"#utility.yul\":621:684   */\n      tag_90\n      jumpi\n        /* \"#utility.yul\":680:681   */\n      0x00\n        /* \"#utility.yul\":677:678   */\n      0x00\n        /* \"#utility.yul\":670:682   */\n      revert\n        /* \"#utility.yul\":621:684   */\n    tag_90:\n        /* \"#utility.yul\":568:690   */\n      pop\n      jump\t// out\n        /* \"#utility.yul\":696:835   */\n    tag_70:\n        /* \"#utility.yul\":742:747   */\n      0x00\n        /* \"#utility.yul\":780:786   */\n      dup2\n        /* \"#utility.yul\":767:787   */\n      calldataload\n        /* \"#utility.yul\":758:787   */\n      swap1\n      pop\n        /* \"#utility.yul\":796:829   */\n      tag_92\n        /* \"#utility.yul\":823:828   */\n      dup2\n        /* \"#utility.yul\":796:829   */\n      tag_69\n      jump\t// in\n    tag_92:\n        /* \"#utility.yul\":696:835   */\n      swap3\n      swap2\n      pop\n      pop\n      jump\t// out\n        /* \"#utility.yul\":841:1170   */\n    tag_9:\n        /* \"#utility.yul\":900:906   */\n      0x00\n        /* \"#utility.yul\":949:951   */\n      0x20\n        /* \"#utility.yul\":937:946   */\n      dup3\n        /* \"#utility.yul\":928:935   */\n      dup5\n        /* \"#utility.yul\":924:947   */\n      sub\n        /* \"#utility.yul\":920:952   */\n      slt\n        /* \"#utility.yul\":917:1036   */\n      iszero\n      tag_94\n      jumpi\n        /* \"#utility.yul\":955:1034   */\n      tag_95\n      tag_65\n      jump\t// in\n    tag_95:\n        /* \"#utility.yul\":917:1036   */\n    tag_94:\n        /* \"#utility.yul\":1075:1076   */\n      0x00\n        /* \"#utility.yul\":1100:1153   */\n      tag_96\n        /* \"#utility.yul\":1145:1152   */\n      dup5\n        /* \"#utility.yul\":1136:1142   */\n      dup3\n        /* \"#utility.yul\":1125:1134   */\n      dup6\n        /* \"#utility.yul\":1121:1143   */\n      add\n        /* \"#utility.yul\":1100:1153   */\n      tag_70\n      jump\t// in\n    tag_96:\n        /* \"#utility.yul\":1090:1153   */\n      swap2\n      pop\n        /* \"#utility.yul\":1046:1163   */\n      pop\n        /* \"#utility.yul\":841:1170   */\n      swap3\n      swap2\n      pop\n      pop\n      jump\t// out\n        /* \"#utility.yul\":1176:1266   */\n    tag_71:\n        /* \"#utility.yul\":1210:1217   */\n      0x00\n        /* \"#utility.yul\":1253:1258   */\n      dup2\n        /* \"#utility.yul\":1246:1259   */\n      iszero\n        /* \"#utility.yul\":1239:1260   */\n      iszero\n        /* \"#utility.yul\":1228:1260   */\n      swap1\n      pop\n        /* \"#utility.yul\":1176:1266   */\n      swap2\n      swap1\n      pop\n      jump\t// out\n        /* \"#utility.yul\":1272:1381   */\n    tag_72:\n        /* \"#utility.yul\":1353:1374   */\n      tag_99\n        /* \"#utility.yul\":1368:1373   */\n      dup2\n        /* \"#utility.yul\":1353:1374   */\n      tag_71\n      jump\t// in\n    tag_99:\n        /* \"#utility.yul\":1348:1351   */\n      dup3\n        /* \"#utility.yul\":1341:1375   */\n      mstore\n        /* \"#utility.yul\":1272:1381   */\n      pop\n      pop\n      jump\t// out\n        /* \"#utility.yul\":1387:1597   */\n    tag_12:\n        /* \"#utility.yul\":1474:1478   */\n      0x00\n        /* \"#utility.yul\":1512:1514   */\n      0x20\n        /* \"#utility.yul\":1501:1510   */\n      dup3\n        /* \"#utility.yul\":1497:1515   */\n      add\n        /* \"#utility.yul\":1489:1515   */\n      swap1\n      pop\n        /* \"#utility.yul\":1525:1590   */\n      tag_101\n        /* \"#utility.yul\":1587:1588   */\n      0x00\n        /* \"#utility.yul\":1576:1585   */\n      dup4\n        /* \"#utility.yul\":1572:1589   */\n      add\n        /* \"#utility.yul\":1563:1569   */\n      dup5\n        /* \"#utility.yul\":1525:1590   */\n      tag_72\n      jump\t// in\n    tag_101:\n        /* \"#utility.yul\":1387:1597   */\n      swap3\n      swap2\n      pop\n      pop\n      jump\t// out\n        /* \"#utility.yul\":1603:1680   */\n    tag_73:\n        /* \"#utility.yul\":1640:1647   */\n      0x00\n        /* \"#utility.yul\":1669:1674   */\n      dup2\n        /* \"#utility.yul\":1658:1674   */\n      swap1\n      pop\n        /* \"#utility.yul\":1603:1680   */\n      swap2\n      swap1\n      pop\n      jump\t// out\n        /* \"#utility.yul\":1686:1804   */\n    tag_74:\n        /* \"#utility.yul\":1773:1797   */\n      tag_104\n        /* \"#utility.yul\":1791:1796   */\n      dup2\n        /* \"#utility.yul\":1773:1797   */\n      tag_73\n      jump\t// in\n    tag_104:\n        /* \"#utility.yul\":1768:1771   */\n      dup3\n        /* \"#utility.yul\":1761:1798   */\n      mstore\n        /* \"#utility.yul\":1686:1804   */\n      pop\n      pop\n      jump\t// out\n        /* \"#utility.yul\":1810:2032   */\n    tag_19:\n        /* \"#utility.yul\":1903:1907   */\n      0x00\n        /* \"#utility.yul\":1941:1943   */\n      0x20\n        /* \"#utility.yul\":1930:1939   */\n      dup3\n        /* \"#utility.yul\":1926:1944   */\n      add\n        /* \"#utility.yul\":1918:1944   */\n      swap1\n      pop\n        /* \"#utility.yul\":1954:2025   */\n      tag_106\n        /* \"#utility.yul\":2022:2023   */\n      0x00\n        /* \"#utility.yul\":2011:2020   */\n      dup4\n        /* \"#utility.yul\":2007:2024   */\n      add\n        /* \"#utility.yul\":1998:2004   */\n      dup5\n        /* \"#utility.yul\":1954:2025   */\n      tag_74\n      jump\t// in\n    tag_106:\n        /* \"#utility.yul\":1810:2032   */\n      swap3\n      swap2\n      pop\n      pop\n      jump\t// out\n        /* \"#utility.yul\":2038:2207   */\n    tag_75:\n        /* \"#utility.yul\":2122:2133   */\n      0x00\n        /* \"#utility.yul\":2156:2162   */\n      dup3\n        /* \"#utility.yul\":2151:2154   */\n      dup3\n        /* \"#utility.yul\":2144:2163   */\n      mstore\n        /* \"#utility.yul\":2196:2200   */\n      0x20\n        /* \"#utility.yul\":2191:2194   */\n      dup3\n        /* \"#utility.yul\":2187:2201   */\n      add\n        /* \"#utility.yul\":2172:2201   */\n      swap1\n      pop\n        /* \"#utility.yul\":2038:2207   */\n      swap3\n      swap2\n      pop\n      pop\n      jump\t// out\n        /* \"#utility.yul\":2213:2379   */\n    tag_76:\n        /* \"#utility.yul\":2353:2371   */\n      0x4e6f7420696e2077686974656c69737400000000000000000000000000000000\n        /* \"#utility.yul\":2349:2350   */\n      0x00\n        /* \"#utility.yul\":2341:2347   */\n      dup3\n        /* \"#utility.yul\":2337:2351   */\n      add\n        /* \"#utility.yul\":2330:2372   */\n      mstore\n        /* \"#utility.yul\":2213:2379   */\n      pop\n      jump\t// out\n        /* \"#utility.yul\":2385:2751   */\n    tag_77:\n        /* \"#utility.yul\":2527:2530   */\n      0x00\n        /* \"#utility.yul\":2548:2615   */\n      tag_110\n        /* \"#utility.yul\":2612:2614   */\n      0x10\n        /* \"#utility.yul\":2607:2610   */\n      dup4\n        /* \"#utility.yul\":2548:2615   */\n      tag_75\n      jump\t// in\n    tag_110:\n        /* \"#utility.yul\":2541:2615   */\n      swap2\n      pop\n        /* \"#utility.yul\":2624:2717   */\n      tag_111\n        /* \"#utility.yul\":2713:2716   */\n      dup3\n        /* \"#utility.yul\":2624:2717   */\n      tag_76\n      jump\t// in\n    tag_111:\n        /* \"#utility.yul\":2742:2744   */\n      0x20\n        /* \"#utility.yul\":2737:2740   */\n      dup3\n        /* \"#utility.yul\":2733:2745   */\n      add\n        /* \"#utility.yul\":2726:2745   */\n      swap1\n      pop\n        /* \"#utility.yul\":2385:2751   */\n      swap2\n      swap1\n      pop\n      jump\t// out\n        /* \"#utility.yul\":2757:3176   */\n    tag_31:\n        /* \"#utility.yul\":2923:2927   */\n      0x00\n        /* \"#utility.yul\":2961:2963   */\n      0x20\n        /* \"#utility.yul\":2950:2959   */\n      dup3\n        /* \"#utility.yul\":2946:2964   */\n      add\n        /* \"#utility.yul\":2938:2964   */\n      swap1\n      pop\n        /* \"#utility.yul\":3010:3019   */\n      dup2\n        /* \"#utility.yul\":3004:3008   */\n      dup2\n        /* \"#utility.yul\":3000:3020   */\n      sub\n        /* \"#utility.yul\":2996:2997   */\n      0x00\n        /* \"#utility.yul\":2985:2994   */\n      dup4\n        /* \"#utility.yul\":2981:2998   */\n      add\n        /* \"#utility.yul\":2974:3021   */\n      mstore\n        /* \"#utility.yul\":3038:3169   */\n      tag_113\n        /* \"#utility.yul\":3164:3168   */\n      dup2\n        /* \"#utility.yul\":3038:3169   */\n      tag_77\n      jump\t// in\n    tag_113:\n        /* \"#utility.yul\":3030:3169   */\n      swap1\n      pop\n        /* \"#utility.yul\":2757:3176   */\n      swap2\n      swap1\n      pop\n      jump\t// out\n        /* \"#utility.yul\":3182:3352   */\n    tag_78:\n        /* \"#utility.yul\":3322:3344   */\n      0x416c726561647920696e2077686974656c697374000000000000000000000000\n        /* \"#utility.yul\":3318:3319   */\n      0x00\n        /* \"#utility.yul\":3310:3316   */\n      dup3\n        /* \"#utility.yul\":3306:3320   */\n      add\n        /* \"#utility.yul\":3299:3345   */\n      mstore\n        /* \"#utility.yul\":3182:3352   */\n      pop\n      jump\t// out\n        /* \"#utility.yul\":3358:3724   */\n    tag_79:\n        /* \"#utility.yul\":3500:3503   */\n      0x00\n        /* \"#utility.yul\":3521:3588   */\n      tag_116\n        /* \"#utility.yul\":3585:3587   */\n      0x14\n        /* \"#utility.yul\":3580:3583   */\n      dup4\n        /* \"#utility.yul\":3521:3588   */\n      tag_75\n      jump\t// in\n    tag_116:\n        /* \"#utility.yul\":3514:3588   */\n      swap2\n      pop\n        /* \"#utility.yul\":3597:3690   */\n      tag_117\n        /* \"#utility.yul\":3686:3689   */\n      dup3\n        /* \"#utility.yul\":3597:3690   */\n      tag_78\n      jump\t// in\n    tag_117:\n        /* \"#utility.yul\":3715:3717   */\n      0x20\n        /* \"#utility.yul\":3710:3713   */\n      dup3\n        /* \"#utility.yul\":3706:3718   */\n      add\n        /* \"#utility.yul\":3699:3718   */\n      swap1\n      pop\n        /* \"#utility.yul\":3358:3724   */\n      swap2\n      swap1\n      pop\n      jump\t// out\n        /* \"#utility.yul\":3730:4149   */\n    tag_40:\n        /* \"#utility.yul\":3896:3900   */\n      0x00\n        /* \"#utility.yul\":3934:3936   */\n      0x20\n        /* \"#utility.yul\":3923:3932   */\n      dup3\n        /* \"#utility.yul\":3919:3937   */\n      add\n        /* \"#utility.yul\":3911:3937   */\n      swap1\n      pop\n        /* \"#utility.yul\":3983:3992   */\n      dup2\n        /* \"#utility.yul\":3977:3981   */\n      dup2\n        /* \"#utility.yul\":3973:3993   */\n      sub\n        /* \"#utility.yul\":3969:3970   */\n      0x00\n        /* \"#utility.yul\":3958:3967   */\n      dup4\n        /* \"#utility.yul\":3954:3971   */\n      add\n        /* \"#utility.yul\":3947:3994   */\n      mstore\n        /* \"#utility.yul\":4011:4142   */\n      tag_119\n        /* \"#utility.yul\":4137:4141   */\n      dup2\n        /* \"#utility.yul\":4011:4142   */\n      tag_79\n      jump\t// in\n    tag_119:\n        /* \"#utility.yul\":4003:4142   */\n      swap1\n      pop\n        /* \"#utility.yul\":3730:4149   */\n      swap2\n      swap1\n      pop\n      jump\t// out\n        /* \"#utility.yul\":4155:4335   */\n    tag_80:\n        /* \"#utility.yul\":4203:4280   */\n      0x4e487b7100000000000000000000000000000000000000000000000000000000\n        /* \"#utility.yul\":4200:4201   */\n      0x00\n        /* \"#utility.yul\":4193:4281   */\n      mstore\n        /* \"#utility.yul\":4300:4304   */\n      0x11\n        /* \"#utility.yul\":4297:4298   */\n      0x04\n        /* \"#utility.yul\":4290:4305   */\n      mstore\n        /* \"#utility.yul\":4324:4328   */\n      0x24\n        /* \"#utility.yul\":4321:4322   */\n      0x00\n        /* \"#utility.yul\":4314:4329   */\n      revert\n        /* \"#utility.yul\":4341:4535   */\n    tag_45:\n        /* \"#utility.yul\":4381:4385   */\n      0x00\n        /* \"#utility.yul\":4401:4421   */\n      tag_122\n        /* \"#utility.yul\":4419:4420   */\n      dup3\n        /* \"#utility.yul\":4401:4421   */\n      tag_73\n      jump\t// in\n    tag_122:\n        /* \"#utility.yul\":4396:4421   */\n      swap2\n      pop\n        /* \"#utility.yul\":4435:4455   */\n      tag_123\n        /* \"#utility.yul\":4453:4454   */\n      dup4\n        /* \"#utility.yul\":4435:4455   */\n      tag_73\n      jump\t// in\n    tag_123:\n        /* \"#utility.yul\":4430:4455   */\n      swap3\n      pop\n        /* \"#utility.yul\":4479:4480   */\n      dup3\n        /* \"#utility.yul\":4476:4477   */\n      dup3\n        /* \"#utility.yul\":4472:4481   */\n      sub\n        /* \"#utility.yul\":4464:4481   */\n      swap1\n      pop\n        /* \"#utility.yul\":4503:4504   */\n      dup2\n        /* \"#utility.yul\":4497:4501   */\n      dup2\n        /* \"#utility.yul\":4494:4505   */\n      gt\n        /* \"#utility.yul\":4491:4528   */\n      iszero\n      tag_124\n      jumpi\n        /* \"#utility.yul\":4508:4526   */\n      tag_125\n      tag_80\n      jump\t// in\n    tag_125:\n        /* \"#utility.yul\":4491:4528   */\n    tag_124:\n        /* \"#utility.yul\":4341:4535   */\n      swap3\n      swap2\n      pop\n      pop\n      jump\t// out\n        /* \"#utility.yul\":4541:4721   */\n    tag_50:\n        /* \"#utility.yul\":4589:4666   */\n      0x4e487b7100000000000000000000000000000000000000000000000000000000\n        /* \"#utility.yul\":4586:4587   */\n      0x00\n        /* \"#utility.yul\":4579:4667   */\n      mstore\n        /* \"#utility.yul\":4686:4690   */\n      0x32\n        /* \"#utility.yul\":4683:4684   */\n      0x04\n        /* \"#utility.yul\":4676:4691   */\n      mstore\n        /* \"#utility.yul\":4710:4714   */\n      0x24\n        /* \"#utility.yul\":4707:4708   */\n      0x00\n        /* \"#utility.yul\":4700:4715   */\n      revert\n        /* \"#utility.yul\":4727:4907   */\n    tag_57:\n        /* \"#utility.yul\":4775:4852   */\n      0x4e487b7100000000000000000000000000000000000000000000000000000000\n        /* \"#utility.yul\":4772:4773   */\n      0x00\n        /* \"#utility.yul\":4765:4853   */\n      mstore\n        /* \"#utility.yul\":4872:4876   */\n      0x31\n        /* \"#utility.yul\":4869:4870   */\n      0x04\n        /* \"#utility.yul\":4862:4877   */\n      mstore\n        /* \"#utility.yul\":4896:4900   */\n      0x24\n        /* \"#utility.yul\":4893:4894   */\n      0x00\n        /* \"#utility.yul\":4886:4901   */\n      revert\n\n    auxdata: 0xa26469706673582212201864be15730d562ecd5a7b09edd2d3cb0330a6e69047bd49ef4830c82cf866d264736f6c634300081f0033\n}\n",
				"bytecode": {
					"linkReferences": {},
					"object": "6080604052348015600e575f5ffd5b506107858061001c5f395ff3fe608060405234801561000f575f5ffd5b506004361061004a575f3560e01c80633af32abf1461004e5780638ab1d6811461007e57806399db89b51461009a578063e43252d7146100b8575b5f5ffd5b61006860048036038101906100639190610526565b6100d4565b604051610075919061056b565b60405180910390f35b61009860048036038101906100939190610526565b6100ef565b005b6100a2610144565b6040516100af919061059c565b60405180910390f35b6100d260048036038101906100cd9190610526565b610153565b005b5f6100e8825f6101a890919063ffffffff16565b9050919050565b610102815f6101f490919063ffffffff16565b610141576040517f08c379a00000000000000000000000000000000000000000000000000000000081526004016101389061060f565b60405180910390fd5b50565b5f61014e5f6103eb565b905090565b610166815f6103fa90919063ffffffff16565b6101a5576040517f08c379a000000000000000000000000000000000000000000000000000000000815260040161019c90610677565b60405180910390fd5b50565b5f5f836001015f8473ffffffffffffffffffffffffffffffffffffffff1673ffffffffffffffffffffffffffffffffffffffff1681526020019081526020015f20541415905092915050565b5f5f836001015f8473ffffffffffffffffffffffffffffffffffffffff1673ffffffffffffffffffffffffffffffffffffffff1681526020019081526020015f205490505f8103610248575f9150506103e5565b5f60018261025691906106c2565b90505f6001865f018054905061026c91906106c2565b9050808214610356575f865f01828154811061028b5761028a6106f5565b5b905f5260205f20015f9054906101000a900473ffffffffffffffffffffffffffffffffffffffff16905080875f0184815481106102cb576102ca6106f5565b5b905f5260205f20015f6101000a81548173ffffffffffffffffffffffffffffffffffffffff021916908373ffffffffffffffffffffffffffffffffffffffff16021790555083876001015f8373ffffffffffffffffffffffffffffffffffffffff1673ffffffffffffffffffffffffffffffffffffffff1681526020019081526020015f2081905550505b855f0180548061036957610368610722565b5b600190038181905f5260205f20015f6101000a81549073ffffffffffffffffffffffffffffffffffffffff02191690559055856001015f8673ffffffffffffffffffffffffffffffffffffffff1673ffffffffffffffffffffffffffffffffffffffff1681526020019081526020015f205f9055600193505050505b92915050565b5f815f01805490509050919050565b5f61040583836101a8565b15610412575f90506104c2565b825f0182908060018154018082558091505060019003905f5260205f20015f9091909190916101000a81548173ffffffffffffffffffffffffffffffffffffffff021916908373ffffffffffffffffffffffffffffffffffffffff160217905550825f0180549050836001015f8473ffffffffffffffffffffffffffffffffffffffff1673ffffffffffffffffffffffffffffffffffffffff1681526020019081526020015f2081905550600190505b92915050565b5f5ffd5b5f73ffffffffffffffffffffffffffffffffffffffff82169050919050565b5f6104f5826104cc565b9050919050565b610505816104eb565b811461050f575f5ffd5b50565b5f81359050610520816104fc565b92915050565b5f6020828403121561053b5761053a6104c8565b5b5f61054884828501610512565b91505092915050565b5f8115159050919050565b61056581610551565b82525050565b5f60208201905061057e5f83018461055c565b92915050565b5f819050919050565b61059681610584565b82525050565b5f6020820190506105af5f83018461058d565b92915050565b5f82825260208201905092915050565b7f4e6f7420696e2077686974656c697374000000000000000000000000000000005f82015250565b5f6105f96010836105b5565b9150610604826105c5565b602082019050919050565b5f6020820190508181035f830152610626816105ed565b9050919050565b7f416c726561647920696e2077686974656c6973740000000000000000000000005f82015250565b5f6106616014836105b5565b915061066c8261062d565b602082019050919050565b5f6020820190508181035f83015261068e81610655565b9050919050565b7f4e487b71000000000000000000000000000000000000000000000000000000005f52601160045260245ffd5b5f6106cc82610584565b91506106d783610584565b92508282039050818111156106ef576106ee610695565b5b92915050565b7f4e487b71000000000000000000000000000000000000000000000000000000005f52603260045260245ffd5b7f4e487b71000000000000000000000000000000000000000000000000000000005f52603160045260245ffdfea26469706673582212201864be15730d562ecd5a7b09edd2d3cb0330a6e69047bd49ef4830c82cf866d264736f6c634300081f0033",
					"opcodes": "PUSH1 0x80 PUSH1 0x40 MSTORE CALLVALUE DUP1 ISZERO PUSH1 0xE JUMPI PUSH0 PUSH0 REVERT JUMPDEST POP PUSH2 0x785 DUP1 PUSH2 0x1C PUSH0 CODECOPY PUSH0 RETURN INVALID PUSH1 0x80 PUSH1 0x40 MSTORE CALLVALUE DUP1 ISZERO PUSH2 0xF JUMPI PUSH0 PUSH0 REVERT JUMPDEST POP PUSH1 0x4 CALLDATASIZE LT PUSH2 0x4A JUMPI PUSH0 CALLDATALOAD PUSH1 0xE0 SHR DUP1 PUSH4 0x3AF32ABF EQ PUSH2 0x4E JUMPI DUP1 PUSH4 0x8AB1D681 EQ PUSH2 0x7E JUMPI DUP1 PUSH4 0x99DB89B5 EQ PUSH2 0x9A JUMPI DUP1 PUSH4 0xE43252D7 EQ PUSH2 0xB8 JUMPI JUMPDEST PUSH0 PUSH0 REVERT JUMPDEST PUSH2 0x68 PUSH1 0x4 DUP1 CALLDATASIZE SUB DUP2 ADD SWAP1 PUSH2 0x63 SWAP2 SWAP1 PUSH2 0x526 JUMP JUMPDEST PUSH2 0xD4 JUMP JUMPDEST PUSH1 0x40 MLOAD PUSH2 0x75 SWAP2 SWAP1 PUSH2 0x56B JUMP JUMPDEST PUSH1 0x40 MLOAD DUP1 SWAP2 SUB SWAP1 RETURN JUMPDEST PUSH2 0x98 PUSH1 0x4 DUP1 CALLDATASIZE SUB DUP2 ADD SWAP1 PUSH2 0x93 SWAP2 SWAP1 PUSH2 0x526 JUMP JUMPDEST PUSH2 0xEF JUMP JUMPDEST STOP JUMPDEST PUSH2 0xA2 PUSH2 0x144 JUMP JUMPDEST PUSH1 0x40 MLOAD PUSH2 0xAF SWAP2 SWAP1 PUSH2 0x59C JUMP JUMPDEST PUSH1 0x40 MLOAD DUP1 SWAP2 SUB SWAP1 RETURN JUMPDEST PUSH2 0xD2 PUSH1 0x4 DUP1 CALLDATASIZE SUB DUP2 ADD SWAP1 PUSH2 0xCD SWAP2 SWAP1 PUSH2 0x526 JUMP JUMPDEST PUSH2 0x153 JUMP JUMPDEST STOP JUMPDEST PUSH0 PUSH2 0xE8 DUP3 PUSH0 PUSH2 0x1A8 SWAP1 SWAP2 SWAP1 PUSH4 0xFFFFFFFF AND JUMP JUMPDEST SWAP1 POP SWAP2 SWAP1 POP JUMP JUMPDEST PUSH2 0x102 DUP2 PUSH0 PUSH2 0x1F4 SWAP1 SWAP2 SWAP1 PUSH4 0xFFFFFFFF AND JUMP JUMPDEST PUSH2 0x141 JUMPI PUSH1 0x40 MLOAD PUSH32 0x8C379A000000000000000000000000000000000000000000000000000000000 DUP2 MSTORE PUSH1 0x4 ADD PUSH2 0x138 SWAP1 PUSH2 0x60F JUMP JUMPDEST PUSH1 0x40 MLOAD DUP1 SWAP2 SUB SWAP1 REVERT JUMPDEST POP JUMP JUMPDEST PUSH0 PUSH2 0x14E PUSH0 PUSH2 0x3EB JUMP JUMPDEST SWAP1 POP SWAP1 JUMP JUMPDEST PUSH2 0x166 DUP2 PUSH0 PUSH2 0x3FA SWAP1 SWAP2 SWAP1 PUSH4 0xFFFFFFFF AND JUMP JUMPDEST PUSH2 0x1A5 JUMPI PUSH1 0x40 MLOAD PUSH32 0x8C379A000000000000000000000000000000000000000000000000000000000 DUP2 MSTORE PUSH1 0x4 ADD PUSH2 0x19C SWAP1 PUSH2 0x677 JUMP JUMPDEST PUSH1 0x40 MLOAD DUP1 SWAP2 SUB SWAP1 REVERT JUMPDEST POP JUMP JUMPDEST PUSH0 PUSH0 DUP4 PUSH1 0x1 ADD PUSH0 DUP5 PUSH20 0xFFFFFFFFFFFFFFFFFFFFFFFFFFFFFFFFFFFFFFFF AND PUSH20 0xFFFFFFFFFFFFFFFFFFFFFFFFFFFFFFFFFFFFFFFF AND DUP2 MSTORE PUSH1 0x20 ADD SWAP1 DUP2 MSTORE PUSH1 0x20 ADD PUSH0 KECCAK256 SLOAD EQ ISZERO SWAP1 POP SWAP3 SWAP2 POP POP JUMP JUMPDEST PUSH0 PUSH0 DUP4 PUSH1 0x1 ADD PUSH0 DUP5 PUSH20 0xFFFFFFFFFFFFFFFFFFFFFFFFFFFFFFFFFFFFFFFF AND PUSH20 0xFFFFFFFFFFFFFFFFFFFFFFFFFFFFFFFFFFFFFFFF AND DUP2 MSTORE PUSH1 0x20 ADD SWAP1 DUP2 MSTORE PUSH1 0x20 ADD PUSH0 KECCAK256 SLOAD SWAP1 POP PUSH0 DUP2 SUB PUSH2 0x248 JUMPI PUSH0 SWAP2 POP POP PUSH2 0x3E5 JUMP JUMPDEST PUSH0 PUSH1 0x1 DUP3 PUSH2 0x256 SWAP2 SWAP1 PUSH2 0x6C2 JUMP JUMPDEST SWAP1 POP PUSH0 PUSH1 0x1 DUP7 PUSH0 ADD DUP1 SLOAD SWAP1 POP PUSH2 0x26C SWAP2 SWAP1 PUSH2 0x6C2 JUMP JUMPDEST SWAP1 POP DUP1 DUP3 EQ PUSH2 0x356 JUMPI PUSH0 DUP7 PUSH0 ADD DUP3 DUP2 SLOAD DUP2 LT PUSH2 0x28B JUMPI PUSH2 0x28A PUSH2 0x6F5 JUMP JUMPDEST JUMPDEST SWAP1 PUSH0 MSTORE PUSH1 0x20 PUSH0 KECCAK256 ADD PUSH0 SWAP1 SLOAD SWAP1 PUSH2 0x100 EXP SWAP1 DIV PUSH20 0xFFFFFFFFFFFFFFFFFFFFFFFFFFFFFFFFFFFFFFFF AND SWAP1 POP DUP1 DUP8 PUSH0 ADD DUP5 DUP2 SLOAD DUP2 LT PUSH2 0x2CB JUMPI PUSH2 0x2CA PUSH2 0x6F5 JUMP JUMPDEST JUMPDEST SWAP1 PUSH0 MSTORE PUSH1 0x20 PUSH0 KECCAK256 ADD PUSH0 PUSH2 0x100 EXP DUP2 SLOAD DUP2 PUSH20 0xFFFFFFFFFFFFFFFFFFFFFFFFFFFFFFFFFFFFFFFF MUL NOT AND SWAP1 DUP4 PUSH20 0xFFFFFFFFFFFFFFFFFFFFFFFFFFFFFFFFFFFFFFFF AND MUL OR SWAP1 SSTORE POP DUP4 DUP8 PUSH1 0x1 ADD PUSH0 DUP4 PUSH20 0xFFFFFFFFFFFFFFFFFFFFFFFFFFFFFFFFFFFFFFFF AND PUSH20 0xFFFFFFFFFFFFFFFFFFFFFFFFFFFFFFFFFFFFFFFF AND DUP2 MSTORE PUSH1 0x20 ADD SWAP1 DUP2 MSTORE PUSH1 0x20 ADD PUSH0 KECCAK256 DUP2 SWAP1 SSTORE POP POP JUMPDEST DUP6 PUSH0 ADD DUP1 SLOAD DUP1 PUSH2 0x369 JUMPI PUSH2 0x368 PUSH2 0x722 JUMP JUMPDEST JUMPDEST PUSH1 0x1 SWAP1 SUB DUP2 DUP2 SWAP1 PUSH0 MSTORE PUSH1 0x20 PUSH0 KECCAK256 ADD PUSH0 PUSH2 0x100 EXP DUP2 SLOAD SWAP1 PUSH20 0xFFFFFFFFFFFFFFFFFFFFFFFFFFFFFFFFFFFFFFFF MUL NOT AND SWAP1 SSTORE SWAP1 SSTORE DUP6 PUSH1 0x1 ADD PUSH0 DUP7 PUSH20 0xFFFFFFFFFFFFFFFFFFFFFFFFFFFFFFFFFFFFFFFF AND PUSH20 0xFFFFFFFFFFFFFFFFFFFFFFFFFFFFFFFFFFFFFFFF AND DUP2 MSTORE PUSH1 0x20 ADD SWAP1 DUP2 MSTORE PUSH1 0x20 ADD PUSH0 KECCAK256 PUSH0 SWAP1 SSTORE PUSH1 0x1 SWAP4 POP POP POP POP JUMPDEST SWAP3 SWAP2 POP POP JUMP JUMPDEST PUSH0 DUP2 PUSH0 ADD DUP1 SLOAD SWAP1 POP SWAP1 POP SWAP2 SWAP1 POP JUMP JUMPDEST PUSH0 PUSH2 0x405 DUP4 DUP4 PUSH2 0x1A8 JUMP JUMPDEST ISZERO PUSH2 0x412 JUMPI PUSH0 SWAP1 POP PUSH2 0x4C2 JUMP JUMPDEST DUP3 PUSH0 ADD DUP3 SWAP1 DUP1 PUSH1 0x1 DUP2 SLOAD ADD DUP1 DUP3 SSTORE DUP1 SWAP2 POP POP PUSH1 0x1 SWAP1 SUB SWAP1 PUSH0 MSTORE PUSH1 0x20 PUSH0 KECCAK256 ADD PUSH0 SWAP1 SWAP2 SWAP1 SWAP2 SWAP1 SWAP2 PUSH2 0x100 EXP DUP2 SLOAD DUP2 PUSH20 0xFFFFFFFFFFFFFFFFFFFFFFFFFFFFFFFFFFFFFFFF MUL NOT AND SWAP1 DUP4 PUSH20 0xFFFFFFFFFFFFFFFFFFFFFFFFFFFFFFFFFFFFFFFF AND MUL OR SWAP1 SSTORE POP DUP3 PUSH0 ADD DUP1 SLOAD SWAP1 POP DUP4 PUSH1 0x1 ADD PUSH0 DUP5 PUSH20 0xFFFFFFFFFFFFFFFFFFFFFFFFFFFFFFFFFFFFFFFF AND PUSH20 0xFFFFFFFFFFFFFFFFFFFFFFFFFFFFFFFFFFFFFFFF AND DUP2 MSTORE PUSH1 0x20 ADD SWAP1 DUP2 MSTORE PUSH1 0x20 ADD PUSH0 KECCAK256 DUP2 SWAP1 SSTORE POP PUSH1 0x1 SWAP1 POP JUMPDEST SWAP3 SWAP2 POP POP JUMP JUMPDEST PUSH0 PUSH0 REVERT JUMPDEST PUSH0 PUSH20 0xFFFFFFFFFFFFFFFFFFFFFFFFFFFFFFFFFFFFFFFF DUP3 AND SWAP1 POP SWAP2 SWAP1 POP JUMP JUMPDEST PUSH0 PUSH2 0x4F5 DUP3 PUSH2 0x4CC JUMP JUMPDEST SWAP1 POP SWAP2 SWAP1 POP JUMP JUMPDEST PUSH2 0x505 DUP2 PUSH2 0x4EB JUMP JUMPDEST DUP2 EQ PUSH2 0x50F JUMPI PUSH0 PUSH0 REVERT JUMPDEST POP JUMP JUMPDEST PUSH0 DUP2 CALLDATALOAD SWAP1 POP PUSH2 0x520 DUP2 PUSH2 0x4FC JUMP JUMPDEST SWAP3 SWAP2 POP POP JUMP JUMPDEST PUSH0 PUSH1 0x20 DUP3 DUP5 SUB SLT ISZERO PUSH2 0x53B JUMPI PUSH2 0x53A PUSH2 0x4C8 JUMP JUMPDEST JUMPDEST PUSH0 PUSH2 0x548 DUP5 DUP3 DUP6 ADD PUSH2 0x512 JUMP JUMPDEST SWAP2 POP POP SWAP3 SWAP2 POP POP JUMP JUMPDEST PUSH0 DUP2 ISZERO ISZERO SWAP1 POP SWAP2 SWAP1 POP JUMP JUMPDEST PUSH2 0x565 DUP2 PUSH2 0x551 JUMP JUMPDEST DUP3 MSTORE POP POP JUMP JUMPDEST PUSH0 PUSH1 0x20 DUP3 ADD SWAP1 POP PUSH2 0x57E PUSH0 DUP4 ADD DUP5 PUSH2 0x55C JUMP JUMPDEST SWAP3 SWAP2 POP POP JUMP JUMPDEST PUSH0 DUP2 SWAP1 POP SWAP2 SWAP1 POP JUMP JUMPDEST PUSH2 0x596 DUP2 PUSH2 0x584 JUMP JUMPDEST DUP3 MSTORE POP POP JUMP JUMPDEST PUSH0 PUSH1 0x20 DUP3 ADD SWAP1 POP PUSH2 0x5AF PUSH0 DUP4 ADD DUP5 PUSH2 0x58D JUMP JUMPDEST SWAP3 SWAP2 POP POP JUMP JUMPDEST PUSH0 DUP3 DUP3 MSTORE PUSH1 0x20 DUP3 ADD SWAP1 POP SWAP3 SWAP2 POP POP JUMP JUMPDEST PUSH32 0x4E6F7420696E2077686974656C69737400000000000000000000000000000000 PUSH0 DUP3 ADD MSTORE POP JUMP JUMPDEST PUSH0 PUSH2 0x5F9 PUSH1 0x10 DUP4 PUSH2 0x5B5 JUMP JUMPDEST SWAP2 POP PUSH2 0x604 DUP3 PUSH2 0x5C5 JUMP JUMPDEST PUSH1 0x20 DUP3 ADD SWAP1 POP SWAP2 SWAP1 POP JUMP JUMPDEST PUSH0 PUSH1 0x20 DUP3 ADD SWAP1 POP DUP2 DUP2 SUB PUSH0 DUP4 ADD MSTORE PUSH2 0x626 DUP2 PUSH2 0x5ED JUMP JUMPDEST SWAP1 POP SWAP2 SWAP1 POP JUMP JUMPDEST PUSH32 0x416C726561647920696E2077686974656C697374000000000000000000000000 PUSH0 DUP3 ADD MSTORE POP JUMP JUMPDEST PUSH0 PUSH2 0x661 PUSH1 0x14 DUP4 PUSH2 0x5B5 JUMP JUMPDEST SWAP2 POP PUSH2 0x66C DUP3 PUSH2 0x62D JUMP JUMPDEST PUSH1 0x20 DUP3 ADD SWAP1 POP SWAP2 SWAP1 POP JUMP JUMPDEST PUSH0 PUSH1 0x20 DUP3 ADD SWAP1 POP DUP2 DUP2 SUB PUSH0 DUP4 ADD MSTORE PUSH2 0x68E DUP2 PUSH2 0x655 JUMP JUMPDEST SWAP1 POP SWAP2 SWAP1 POP JUMP JUMPDEST PUSH32 0x4E487B7100000000000000000000000000000000000000000000000000000000 PUSH0 MSTORE PUSH1 0x11 PUSH1 0x4 MSTORE PUSH1 0x24 PUSH0 REVERT JUMPDEST PUSH0 PUSH2 0x6CC DUP3 PUSH2 0x584 JUMP JUMPDEST SWAP2 POP PUSH2 0x6D7 DUP4 PUSH2 0x584 JUMP JUMPDEST SWAP3 POP DUP3 DUP3 SUB SWAP1 POP DUP2 DUP2 GT ISZERO PUSH2 0x6EF JUMPI PUSH2 0x6EE PUSH2 0x695 JUMP JUMPDEST JUMPDEST SWAP3 SWAP2 POP POP JUMP JUMPDEST PUSH32 0x4E487B7100000000000000000000000000000000000000000000000000000000 PUSH0 MSTORE PUSH1 0x32 PUSH1 0x4 MSTORE PUSH1 0x24 PUSH0 REVERT JUMPDEST PUSH32 0x4E487B7100000000000000000000000000000000000000000000000000000000 PUSH0 MSTORE PUSH1 0x31 PUSH1 0x4 MSTORE PUSH1 0x24 PUSH0 REVERT INVALID LOG2 PUSH5 0x6970667358 0x22 SLT KECCAK256 XOR PUSH5 0xBE15730D56 0x2E 0xCD GAS PUSH28 0x9EDD2D3CB0330A6E69047BD49EF4830C82CF866D264736F6C634300 ADDMOD 0x1F STOP CALLER "
				},
				"gasEstimates": {
					"creation": {
						"codeDepositCost": "385000",
						"executionCost": "422",
						"totalCost": "385422"
					},
					"external": {
						"addToWhitelist(address)": "infinite",
						"getWhitelistSize()": "2508",
						"isWhitelisted(address)": "infinite",
						"removeFromWhitelist(address)": "infinite"
					}
				},
				"methodIdentifiers": {
					"addToWhitelist(address)": "e43252d7",
					"getWhitelistSize()": "99db89b5",
					"isWhitelisted(address)": "3af32abf",
					"removeFromWhitelist(address)": "8ab1d681"
				}
			},
			"storageLayout": {
				"storage": [
					{
						"astId": 194,
						"contract": "contracts/lesson6.2/Whitelist.sol:Whitelist",
						"label": "whitelist",
						"offset": 0,
						"slot": "0",
						"type": "t_struct(Set)9_storage"
					}
				],
				"types": {
					"t_address": {
						"encoding": "inplace",
						"label": "address",
						"numberOfBytes": "20"
					},
					"t_array(t_address)dyn_storage": {
						"base": "t_address",
						"encoding": "dynamic_array",
						"label": "address[]",
						"numberOfBytes": "32"
					},
					"t_mapping(t_address,t_uint256)": {
						"encoding": "mapping",
						"key": "t_address",
						"label": "mapping(address => uint256)",
						"numberOfBytes": "32",
						"value": "t_uint256"
					},
					"t_struct(Set)9_storage": {
						"encoding": "inplace",
						"label": "struct AddressSet.Set",
						"members": [
							{
								"astId": 4,
								"contract": "contracts/lesson6.2/Whitelist.sol:Whitelist",
								"label": "values",
								"offset": 0,
								"slot": "0",
								"type": "t_array(t_address)dyn_storage"
							},
							{
								"astId": 8,
								"contract": "contracts/lesson6.2/Whitelist.sol:Whitelist",
								"label": "indexes",
								"offset": 0,
								"slot": "1",
								"type": "t_mapping(t_address,t_uint256)"
							}
						],
						"numberOfBytes": "64"
					},
					"t_uint256": {
						"encoding": "inplace",
						"label": "uint256",
						"numberOfBytes": "32"
					}
				}
			},
			"userdoc": {
				"kind": "user",
				"methods": {},
				"version": 1
			}
		}
	}
}