{
	"contracts/lesson3.2/VotingSystem.sol": {
		"VotingSystem": {
			"abi": [
				{
					"anonymous": false,
					"inputs": [
						{
							"indexed": true,
							"internalType": "uint256",
							"name": "proposalId",
							"type": "uint256"
						},
						{
							"indexed": false,
							"internalType": "string",
							"name": "description",
							"type": "string"
						}
					],
					"name": "ProposalCreated",
					"type": "event"
				},
				{
					"anonymous": false,
					"inputs": [
						{
							"indexed": true,
							"internalType": "uint256",
							"name": "proposalId",
							"type": "uint256"
						},
						{
							"indexed": true,
							"internalType": "address",
							"name": "voter",
							"type": "address"
						}
					],
					"name": "Voted",
					"type": "event"
				},
				{
					"inputs": [
						{
							"internalType": "string",
							"name": "description",
							"type": "string"
						},
						{
							"internalType": "uint256",
							"name": "duration",
							"type": "uint256"
						}
					],
					"name": "createProposal",
					"outputs": [
						{
							"internalType": "uint256",
							"name": "",
							"type": "uint256"
						}
					],
					"stateMutability": "nonpayable",
					"type": "function"
				},
				{
					"inputs": [
						{
							"internalType": "uint256",
							"name": "proposalId",
							"type": "uint256"
						}
					],
					"name": "getProposalInfo",
					"outputs": [
						{
							"internalType": "string",
							"name": "description",
							"type": "string"
						},
						{
							"internalType": "uint256",
							"name": "voteCount",
							"type": "uint256"
						},
						{
							"internalType": "uint256",
							"name": "deadline",
							"type": "uint256"
						},
						{
							"internalType": "bool",
							"name": "executed",
							"type": "bool"
						}
					],
					"stateMutability": "view",
					"type": "function"
				},
				{
					"inputs": [],
					"name": "getWinningProposal",
					"outputs": [
						{
							"internalType": "uint256",
							"name": "winningProposalId",
							"type": "uint256"
						}
					],
					"stateMutability": "view",
					"type": "function"
				},
				{
					"inputs": [
						{
							"internalType": "uint256",
							"name": "proposalId",
							"type": "uint256"
						},
						{
							"internalType": "address",
							"name": "voter",
							"type": "address"
						}
					],
					"name": "hasVoted",
					"outputs": [
						{
							"internalType": "bool",
							"name": "",
							"type": "bool"
						}
					],
					"stateMutability": "view",
					"type": "function"
				},
				{
					"inputs": [],
					"name": "proposalCount",
					"outputs": [
						{
							"internalType": "uint256",
							"name": "",
							"type": "uint256"
						}
					],
					"stateMutability": "view",
					"type": "function"
				},
				{
					"inputs": [
						{
							"internalType": "uint256",
							"name": "",
							"type": "uint256"
						}
					],
					"name": "proposals",
					"outputs": [
						{
							"internalType": "string",
							"name": "description",
							"type": "string"
						},
						{
							"internalType": "uint256",
							"name": "voteCount",
							"type": "uint256"
						},
						{
							"internalType": "uint256",
							"name": "deadline",
							"type": "uint256"
						},
						{
							"internalType": "bool",
							"name": "executed",
							"type": "bool"
						}
					],
					"stateMutability": "view",
					"type": "function"
				},
				{
					"inputs": [
						{
							"internalType": "uint256",
							"name": "proposalId",
							"type": "uint256"
						}
					],
					"name": "vote",
					"outputs": [],
					"stateMutability": "nonpayable",
					"type": "function"
				}
			],
			"devdoc": {
				"kind": "dev",
				"methods": {},
				"version": 1
			},
			"evm": {
				"assembly": "    /* \"contracts/lesson3.2/VotingSystem.sol\":221:2734  contract VotingSystem {... */\n  mstore(0x40, 0x80)\n  callvalue\n  dup1\n  iszero\n  tag_1\n  jumpi\n  revert(0x00, 0x00)\ntag_1:\n  pop\n  dataSize(sub_0)\n  dup1\n  dataOffset(sub_0)\n  0x00\n  codecopy\n  0x00\n  return\nstop\n\nsub_0: assembly {\n        /* \"contracts/lesson3.2/VotingSystem.sol\":221:2734  contract VotingSystem {... */\n      mstore(0x40, 0x80)\n      callvalue\n      dup1\n      iszero\n      tag_1\n      jumpi\n      revert(0x00, 0x00)\n    tag_1:\n      pop\n      jumpi(tag_2, lt(calldatasize, 0x04))\n      shr(0xe0, calldataload(0x00))\n      dup1\n      0x43859632\n      gt\n      tag_10\n      jumpi\n      dup1\n      0x43859632\n      eq\n      tag_6\n      jumpi\n      dup1\n      0xa5134620\n      eq\n      tag_7\n      jumpi\n      dup1\n      0xbc903cb8\n      eq\n      tag_8\n      jumpi\n      dup1\n      0xda35c664\n      eq\n      tag_9\n      jumpi\n      jump(tag_2)\n    tag_10:\n      dup1\n      0x0121b93f\n      eq\n      tag_3\n      jumpi\n      dup1\n      0x013cf08b\n      eq\n      tag_4\n      jumpi\n      dup1\n      0x35facf78\n      eq\n      tag_5\n      jumpi\n    tag_2:\n      revert(0x00, 0x00)\n        /* \"contracts/lesson3.2/VotingSystem.sol\":1236:1638  function vote(uint256 proposalId) public {... */\n    tag_3:\n      tag_11\n      0x04\n      dup1\n      calldatasize\n      sub\n      dup2\n      add\n      swap1\n      tag_12\n      swap2\n      swap1\n      tag_13\n      jump\t// in\n    tag_12:\n      tag_14\n      jump\t// in\n    tag_11:\n      stop\n        /* \"contracts/lesson3.2/VotingSystem.sol\":423:468  mapping(uint256 => Proposal) public proposals */\n    tag_4:\n      tag_15\n      0x04\n      dup1\n      calldatasize\n      sub\n      dup2\n      add\n      swap1\n      tag_16\n      swap2\n      swap1\n      tag_13\n      jump\t// in\n    tag_16:\n      tag_17\n      jump\t// in\n    tag_15:\n      mload(0x40)\n      tag_18\n      swap5\n      swap4\n      swap3\n      swap2\n      swap1\n      tag_19\n      jump\t// in\n    tag_18:\n      mload(0x40)\n      dup1\n      swap2\n      sub\n      swap1\n      return\n        /* \"contracts/lesson3.2/VotingSystem.sol\":653:1230  function createProposal(... */\n    tag_5:\n      tag_20\n      0x04\n      dup1\n      calldatasize\n      sub\n      dup2\n      add\n      swap1\n      tag_21\n      swap2\n      swap1\n      tag_22\n      jump\t// in\n    tag_21:\n      tag_23\n      jump\t// in\n    tag_20:\n      mload(0x40)\n      tag_24\n      swap2\n      swap1\n      tag_25\n      jump\t// in\n    tag_24:\n      mload(0x40)\n      dup1\n      swap2\n      sub\n      swap1\n      return\n        /* \"contracts/lesson3.2/VotingSystem.sol\":1644:1877  function hasVoted(... */\n    tag_6:\n      tag_26\n      0x04\n      dup1\n      calldatasize\n      sub\n      dup2\n      add\n      swap1\n      tag_27\n      swap2\n      swap1\n      tag_28\n      jump\t// in\n    tag_27:\n      tag_29\n      jump\t// in\n    tag_26:\n      mload(0x40)\n      tag_30\n      swap2\n      swap1\n      tag_31\n      jump\t// in\n    tag_30:\n      mload(0x40)\n      dup1\n      swap2\n      sub\n      swap1\n      return\n        /* \"contracts/lesson3.2/VotingSystem.sol\":2334:2732  function getWinningProposal()... */\n    tag_7:\n      tag_32\n      tag_33\n      jump\t// in\n    tag_32:\n      mload(0x40)\n      tag_34\n      swap2\n      swap1\n      tag_25\n      jump\t// in\n    tag_34:\n      mload(0x40)\n      dup1\n      swap2\n      sub\n      swap1\n      return\n        /* \"contracts/lesson3.2/VotingSystem.sol\":1883:2328  function getProposalInfo(... */\n    tag_8:\n      tag_35\n      0x04\n      dup1\n      calldatasize\n      sub\n      dup2\n      add\n      swap1\n      tag_36\n      swap2\n      swap1\n      tag_13\n      jump\t// in\n    tag_36:\n      tag_37\n      jump\t// in\n    tag_35:\n      mload(0x40)\n      tag_38\n      swap5\n      swap4\n      swap3\n      swap2\n      swap1\n      tag_19\n      jump\t// in\n    tag_38:\n      mload(0x40)\n      dup1\n      swap2\n      sub\n      swap1\n      return\n        /* \"contracts/lesson3.2/VotingSystem.sol\":474:502  uint256 public proposalCount */\n    tag_9:\n      tag_39\n      tag_40\n      jump\t// in\n    tag_39:\n      mload(0x40)\n      tag_41\n      swap2\n      swap1\n      tag_25\n      jump\t// in\n    tag_41:\n      mload(0x40)\n      dup1\n      swap2\n      sub\n      swap1\n      return\n        /* \"contracts/lesson3.2/VotingSystem.sol\":1236:1638  function vote(uint256 proposalId) public {... */\n    tag_14:\n        /* \"contracts/lesson3.2/VotingSystem.sol\":1308:1321  proposalCount */\n      sload(0x01)\n        /* \"contracts/lesson3.2/VotingSystem.sol\":1295:1305  proposalId */\n      dup2\n        /* \"contracts/lesson3.2/VotingSystem.sol\":1295:1321  proposalId < proposalCount */\n      lt\n        /* \"contracts/lesson3.2/VotingSystem.sol\":1287:1349  require(proposalId < proposalCount, \"Proposal does not exist\") */\n      tag_43\n      jumpi\n      mload(0x40)\n      0x08c379a000000000000000000000000000000000000000000000000000000000\n      dup2\n      mstore\n      0x04\n      add\n      tag_44\n      swap1\n      tag_45\n      jump\t// in\n    tag_44:\n      mload(0x40)\n      dup1\n      swap2\n      sub\n      swap1\n      revert\n    tag_43:\n        /* \"contracts/lesson3.2/VotingSystem.sol\":1359:1377  Proposal storage p */\n      0x00\n        /* \"contracts/lesson3.2/VotingSystem.sol\":1380:1389  proposals */\n      0x00\n        /* \"contracts/lesson3.2/VotingSystem.sol\":1380:1401  proposals[proposalId] */\n      0x00\n        /* \"contracts/lesson3.2/VotingSystem.sol\":1390:1400  proposalId */\n      dup4\n        /* \"contracts/lesson3.2/VotingSystem.sol\":1380:1401  proposals[proposalId] */\n      dup2\n      mstore\n      0x20\n      add\n      swap1\n      dup2\n      mstore\n      0x20\n      add\n      0x00\n      keccak256\n        /* \"contracts/lesson3.2/VotingSystem.sol\":1359:1401  Proposal storage p = proposals[proposalId] */\n      swap1\n      pop\n        /* \"contracts/lesson3.2/VotingSystem.sol\":1438:1439  p */\n      dup1\n        /* \"contracts/lesson3.2/VotingSystem.sol\":1438:1448  p.deadline */\n      0x02\n      add\n      sload\n        /* \"contracts/lesson3.2/VotingSystem.sol\":1420:1435  block.timestamp */\n      timestamp\n        /* \"contracts/lesson3.2/VotingSystem.sol\":1420:1448  block.timestamp < p.deadline */\n      lt\n        /* \"contracts/lesson3.2/VotingSystem.sol\":1412:1469  require(block.timestamp < p.deadline, \"Voting has ended\") */\n      tag_46\n      jumpi\n      mload(0x40)\n      0x08c379a000000000000000000000000000000000000000000000000000000000\n      dup2\n      mstore\n      0x04\n      add\n      tag_47\n      swap1\n      tag_48\n      jump\t// in\n    tag_47:\n      mload(0x40)\n      dup1\n      swap2\n      sub\n      swap1\n      revert\n    tag_46:\n        /* \"contracts/lesson3.2/VotingSystem.sol\":1488:1489  p */\n      dup1\n        /* \"contracts/lesson3.2/VotingSystem.sol\":1488:1496  p.voters */\n      0x04\n      add\n        /* \"contracts/lesson3.2/VotingSystem.sol\":1488:1508  p.voters[msg.sender] */\n      0x00\n        /* \"contracts/lesson3.2/VotingSystem.sol\":1497:1507  msg.sender */\n      caller\n        /* \"contracts/lesson3.2/VotingSystem.sol\":1488:1508  p.voters[msg.sender] */\n      0xffffffffffffffffffffffffffffffffffffffff\n      and\n      0xffffffffffffffffffffffffffffffffffffffff\n      and\n      dup2\n      mstore\n      0x20\n      add\n      swap1\n      dup2\n      mstore\n      0x20\n      add\n      0x00\n      keccak256\n      0x00\n      swap1\n      sload\n      swap1\n      0x0100\n      exp\n      swap1\n      div\n      0xff\n      and\n        /* \"contracts/lesson3.2/VotingSystem.sol\":1487:1508  !p.voters[msg.sender] */\n      iszero\n        /* \"contracts/lesson3.2/VotingSystem.sol\":1479:1526  require(!p.voters[msg.sender], \"Already voted\") */\n      tag_49\n      jumpi\n      mload(0x40)\n      0x08c379a000000000000000000000000000000000000000000000000000000000\n      dup2\n      mstore\n      0x04\n      add\n      tag_50\n      swap1\n      tag_51\n      jump\t// in\n    tag_50:\n      mload(0x40)\n      dup1\n      swap2\n      sub\n      swap1\n      revert\n    tag_49:\n        /* \"contracts/lesson3.2/VotingSystem.sol\":1560:1564  true */\n      0x01\n        /* \"contracts/lesson3.2/VotingSystem.sol\":1537:1538  p */\n      dup2\n        /* \"contracts/lesson3.2/VotingSystem.sol\":1537:1545  p.voters */\n      0x04\n      add\n        /* \"contracts/lesson3.2/VotingSystem.sol\":1537:1557  p.voters[msg.sender] */\n      0x00\n        /* \"contracts/lesson3.2/VotingSystem.sol\":1546:1556  msg.sender */\n      caller\n        /* \"contracts/lesson3.2/VotingSystem.sol\":1537:1557  p.voters[msg.sender] */\n      0xffffffffffffffffffffffffffffffffffffffff\n      and\n      0xffffffffffffffffffffffffffffffffffffffff\n      and\n      dup2\n      mstore\n      0x20\n      add\n      swap1\n      dup2\n      mstore\n      0x20\n      add\n      0x00\n      keccak256\n      0x00\n        /* \"contracts/lesson3.2/VotingSystem.sol\":1537:1564  p.voters[msg.sender] = true */\n      0x0100\n      exp\n      dup2\n      sload\n      dup2\n      0xff\n      mul\n      not\n      and\n      swap1\n      dup4\n      iszero\n      iszero\n      mul\n      or\n      swap1\n      sstore\n      pop\n        /* \"contracts/lesson3.2/VotingSystem.sol\":1574:1575  p */\n      dup1\n        /* \"contracts/lesson3.2/VotingSystem.sol\":1574:1585  p.voteCount */\n      0x01\n      add\n      0x00\n        /* \"contracts/lesson3.2/VotingSystem.sol\":1574:1587  p.voteCount++ */\n      dup2\n      sload\n      dup1\n      swap3\n      swap2\n      swap1\n      tag_52\n      swap1\n      tag_53\n      jump\t// in\n    tag_52:\n      swap2\n      swap1\n      pop\n      sstore\n      pop\n        /* \"contracts/lesson3.2/VotingSystem.sol\":1620:1630  msg.sender */\n      caller\n        /* \"contracts/lesson3.2/VotingSystem.sol\":1602:1631  Voted(proposalId, msg.sender) */\n      0xffffffffffffffffffffffffffffffffffffffff\n      and\n        /* \"contracts/lesson3.2/VotingSystem.sol\":1608:1618  proposalId */\n      dup3\n        /* \"contracts/lesson3.2/VotingSystem.sol\":1602:1631  Voted(proposalId, msg.sender) */\n      0x030b0f8dcd86a031eddb071f91882edeac8173663ba775713b677b42b51be44b\n      mload(0x40)\n      mload(0x40)\n      dup1\n      swap2\n      sub\n      swap1\n      log3\n        /* \"contracts/lesson3.2/VotingSystem.sol\":1277:1638  {... */\n      pop\n        /* \"contracts/lesson3.2/VotingSystem.sol\":1236:1638  function vote(uint256 proposalId) public {... */\n      pop\n      jump\t// out\n        /* \"contracts/lesson3.2/VotingSystem.sol\":423:468  mapping(uint256 => Proposal) public proposals */\n    tag_17:\n      mstore(0x20, 0x00)\n      dup1\n      0x00\n      mstore\n      keccak256(0x00, 0x40)\n      0x00\n      swap2\n      pop\n      swap1\n      pop\n      dup1\n      0x00\n      add\n      dup1\n      sload\n      tag_54\n      swap1\n      tag_55\n      jump\t// in\n    tag_54:\n      dup1\n      0x1f\n      add\n      0x20\n      dup1\n      swap2\n      div\n      mul\n      0x20\n      add\n      mload(0x40)\n      swap1\n      dup2\n      add\n      0x40\n      mstore\n      dup1\n      swap3\n      swap2\n      swap1\n      dup2\n      dup2\n      mstore\n      0x20\n      add\n      dup3\n      dup1\n      sload\n      tag_56\n      swap1\n      tag_55\n      jump\t// in\n    tag_56:\n      dup1\n      iszero\n      tag_57\n      jumpi\n      dup1\n      0x1f\n      lt\n      tag_58\n      jumpi\n      0x0100\n      dup1\n      dup4\n      sload\n      div\n      mul\n      dup4\n      mstore\n      swap2\n      0x20\n      add\n      swap2\n      jump(tag_57)\n    tag_58:\n      dup3\n      add\n      swap2\n      swap1\n      0x00\n      mstore\n      keccak256(0x00, 0x20)\n      swap1\n    tag_59:\n      dup2\n      sload\n      dup2\n      mstore\n      swap1\n      0x01\n      add\n      swap1\n      0x20\n      add\n      dup1\n      dup4\n      gt\n      tag_59\n      jumpi\n      dup3\n      swap1\n      sub\n      0x1f\n      and\n      dup3\n      add\n      swap2\n    tag_57:\n      pop\n      pop\n      pop\n      pop\n      pop\n      swap1\n      dup1\n      0x01\n      add\n      sload\n      swap1\n      dup1\n      0x02\n      add\n      sload\n      swap1\n      dup1\n      0x03\n      add\n      0x00\n      swap1\n      sload\n      swap1\n      0x0100\n      exp\n      swap1\n      div\n      0xff\n      and\n      swap1\n      pop\n      dup5\n      jump\t// out\n        /* \"contracts/lesson3.2/VotingSystem.sol\":653:1230  function createProposal(... */\n    tag_23:\n        /* \"contracts/lesson3.2/VotingSystem.sol\":760:767  uint256 */\n      0x00\n        /* \"contracts/lesson3.2/VotingSystem.sol\":815:816  0 */\n      0x00\n        /* \"contracts/lesson3.2/VotingSystem.sol\":793:804  description */\n      dup4\n        /* \"contracts/lesson3.2/VotingSystem.sol\":787:812  bytes(description).length */\n      mload\n        /* \"contracts/lesson3.2/VotingSystem.sol\":787:816  bytes(description).length > 0 */\n      gt\n        /* \"contracts/lesson3.2/VotingSystem.sol\":779:841  require(bytes(description).length > 0, \"Description required\") */\n      tag_61\n      jumpi\n      mload(0x40)\n      0x08c379a000000000000000000000000000000000000000000000000000000000\n      dup2\n      mstore\n      0x04\n      add\n      tag_62\n      swap1\n      tag_63\n      jump\t// in\n    tag_62:\n      mload(0x40)\n      dup1\n      swap2\n      sub\n      swap1\n      revert\n    tag_61:\n        /* \"contracts/lesson3.2/VotingSystem.sol\":870:871  0 */\n      0x00\n        /* \"contracts/lesson3.2/VotingSystem.sol\":859:867  duration */\n      dup3\n        /* \"contracts/lesson3.2/VotingSystem.sol\":859:871  duration > 0 */\n      gt\n        /* \"contracts/lesson3.2/VotingSystem.sol\":851:901  require(duration > 0, \"Duration must be positive\") */\n      tag_64\n      jumpi\n      mload(0x40)\n      0x08c379a000000000000000000000000000000000000000000000000000000000\n      dup2\n      mstore\n      0x04\n      add\n      tag_65\n      swap1\n      tag_66\n      jump\t// in\n    tag_65:\n      mload(0x40)\n      dup1\n      swap2\n      sub\n      swap1\n      revert\n    tag_64:\n        /* \"contracts/lesson3.2/VotingSystem.sol\":912:930  uint256 proposalId */\n      0x00\n        /* \"contracts/lesson3.2/VotingSystem.sol\":933:946  proposalCount */\n      0x01\n      0x00\n        /* \"contracts/lesson3.2/VotingSystem.sol\":933:948  proposalCount++ */\n      dup2\n      sload\n      dup1\n      swap3\n      swap2\n      swap1\n      tag_67\n      swap1\n      tag_53\n      jump\t// in\n    tag_67:\n      swap2\n      swap1\n      pop\n      sstore\n        /* \"contracts/lesson3.2/VotingSystem.sol\":912:948  uint256 proposalId = proposalCount++ */\n      swap1\n      pop\n        /* \"contracts/lesson3.2/VotingSystem.sol\":959:977  Proposal storage p */\n      0x00\n        /* \"contracts/lesson3.2/VotingSystem.sol\":980:989  proposals */\n      0x00\n        /* \"contracts/lesson3.2/VotingSystem.sol\":980:1001  proposals[proposalId] */\n      0x00\n        /* \"contracts/lesson3.2/VotingSystem.sol\":990:1000  proposalId */\n      dup4\n        /* \"contracts/lesson3.2/VotingSystem.sol\":980:1001  proposals[proposalId] */\n      dup2\n      mstore\n      0x20\n      add\n      swap1\n      dup2\n      mstore\n      0x20\n      add\n      0x00\n      keccak256\n        /* \"contracts/lesson3.2/VotingSystem.sol\":959:1001  Proposal storage p = proposals[proposalId] */\n      swap1\n      pop\n        /* \"contracts/lesson3.2/VotingSystem.sol\":1027:1038  description */\n      dup5\n        /* \"contracts/lesson3.2/VotingSystem.sol\":1011:1012  p */\n      dup2\n        /* \"contracts/lesson3.2/VotingSystem.sol\":1011:1024  p.description */\n      0x00\n      add\n        /* \"contracts/lesson3.2/VotingSystem.sol\":1011:1038  p.description = description */\n      swap1\n      dup2\n      tag_68\n      swap2\n      swap1\n      tag_69\n      jump\t// in\n    tag_68:\n      pop\n        /* \"contracts/lesson3.2/VotingSystem.sol\":1062:1063  0 */\n      0x00\n        /* \"contracts/lesson3.2/VotingSystem.sol\":1048:1049  p */\n      dup2\n        /* \"contracts/lesson3.2/VotingSystem.sol\":1048:1059  p.voteCount */\n      0x01\n      add\n        /* \"contracts/lesson3.2/VotingSystem.sol\":1048:1063  p.voteCount = 0 */\n      dup2\n      swap1\n      sstore\n      pop\n        /* \"contracts/lesson3.2/VotingSystem.sol\":1104:1112  duration */\n      dup4\n        /* \"contracts/lesson3.2/VotingSystem.sol\":1086:1101  block.timestamp */\n      timestamp\n        /* \"contracts/lesson3.2/VotingSystem.sol\":1086:1112  block.timestamp + duration */\n      tag_70\n      swap2\n      swap1\n      tag_71\n      jump\t// in\n    tag_70:\n        /* \"contracts/lesson3.2/VotingSystem.sol\":1073:1074  p */\n      dup2\n        /* \"contracts/lesson3.2/VotingSystem.sol\":1073:1083  p.deadline */\n      0x02\n      add\n        /* \"contracts/lesson3.2/VotingSystem.sol\":1073:1112  p.deadline = block.timestamp + duration */\n      dup2\n      swap1\n      sstore\n      pop\n        /* \"contracts/lesson3.2/VotingSystem.sol\":1135:1140  false */\n      0x00\n        /* \"contracts/lesson3.2/VotingSystem.sol\":1122:1123  p */\n      dup2\n        /* \"contracts/lesson3.2/VotingSystem.sol\":1122:1132  p.executed */\n      0x03\n      add\n      0x00\n        /* \"contracts/lesson3.2/VotingSystem.sol\":1122:1140  p.executed = false */\n      0x0100\n      exp\n      dup2\n      sload\n      dup2\n      0xff\n      mul\n      not\n      and\n      swap1\n      dup4\n      iszero\n      iszero\n      mul\n      or\n      swap1\n      sstore\n      pop\n        /* \"contracts/lesson3.2/VotingSystem.sol\":1172:1182  proposalId */\n      dup2\n        /* \"contracts/lesson3.2/VotingSystem.sol\":1156:1196  ProposalCreated(proposalId, description) */\n      0x9c770c289ab5bf7e57cb1d23c8ceae993aea46eb64847072fd3d78ca60d3e432\n        /* \"contracts/lesson3.2/VotingSystem.sol\":1184:1195  description */\n      dup7\n        /* \"contracts/lesson3.2/VotingSystem.sol\":1156:1196  ProposalCreated(proposalId, description) */\n      mload(0x40)\n      tag_72\n      swap2\n      swap1\n      tag_73\n      jump\t// in\n    tag_72:\n      mload(0x40)\n      dup1\n      swap2\n      sub\n      swap1\n      log2\n        /* \"contracts/lesson3.2/VotingSystem.sol\":1213:1223  proposalId */\n      dup2\n        /* \"contracts/lesson3.2/VotingSystem.sol\":1206:1223  return proposalId */\n      swap3\n      pop\n      pop\n      pop\n        /* \"contracts/lesson3.2/VotingSystem.sol\":653:1230  function createProposal(... */\n      swap3\n      swap2\n      pop\n      pop\n      jump\t// out\n        /* \"contracts/lesson3.2/VotingSystem.sol\":1644:1877  function hasVoted(... */\n    tag_29:\n        /* \"contracts/lesson3.2/VotingSystem.sol\":1740:1744  bool */\n      0x00\n        /* \"contracts/lesson3.2/VotingSystem.sol\":1777:1790  proposalCount */\n      sload(0x01)\n        /* \"contracts/lesson3.2/VotingSystem.sol\":1764:1774  proposalId */\n      dup4\n        /* \"contracts/lesson3.2/VotingSystem.sol\":1764:1790  proposalId < proposalCount */\n      lt\n        /* \"contracts/lesson3.2/VotingSystem.sol\":1756:1818  require(proposalId < proposalCount, \"Proposal does not exist\") */\n      tag_75\n      jumpi\n      mload(0x40)\n      0x08c379a000000000000000000000000000000000000000000000000000000000\n      dup2\n      mstore\n      0x04\n      add\n      tag_76\n      swap1\n      tag_45\n      jump\t// in\n    tag_76:\n      mload(0x40)\n      dup1\n      swap2\n      sub\n      swap1\n      revert\n    tag_75:\n        /* \"contracts/lesson3.2/VotingSystem.sol\":1835:1844  proposals */\n      0x00\n        /* \"contracts/lesson3.2/VotingSystem.sol\":1835:1856  proposals[proposalId] */\n      0x00\n        /* \"contracts/lesson3.2/VotingSystem.sol\":1845:1855  proposalId */\n      dup5\n        /* \"contracts/lesson3.2/VotingSystem.sol\":1835:1856  proposals[proposalId] */\n      dup2\n      mstore\n      0x20\n      add\n      swap1\n      dup2\n      mstore\n      0x20\n      add\n      0x00\n      keccak256\n        /* \"contracts/lesson3.2/VotingSystem.sol\":1835:1863  proposals[proposalId].voters */\n      0x04\n      add\n        /* \"contracts/lesson3.2/VotingSystem.sol\":1835:1870  proposals[proposalId].voters[voter] */\n      0x00\n        /* \"contracts/lesson3.2/VotingSystem.sol\":1864:1869  voter */\n      dup4\n        /* \"contracts/lesson3.2/VotingSystem.sol\":1835:1870  proposals[proposalId].voters[voter] */\n      0xffffffffffffffffffffffffffffffffffffffff\n      and\n      0xffffffffffffffffffffffffffffffffffffffff\n      and\n      dup2\n      mstore\n      0x20\n      add\n      swap1\n      dup2\n      mstore\n      0x20\n      add\n      0x00\n      keccak256\n      0x00\n      swap1\n      sload\n      swap1\n      0x0100\n      exp\n      swap1\n      div\n      0xff\n      and\n        /* \"contracts/lesson3.2/VotingSystem.sol\":1828:1870  return proposals[proposalId].voters[voter] */\n      swap1\n      pop\n        /* \"contracts/lesson3.2/VotingSystem.sol\":1644:1877  function hasVoted(... */\n      swap3\n      swap2\n      pop\n      pop\n      jump\t// out\n        /* \"contracts/lesson3.2/VotingSystem.sol\":2334:2732  function getWinningProposal()... */\n    tag_33:\n        /* \"contracts/lesson3.2/VotingSystem.sol\":2409:2434  uint256 winningProposalId */\n      0x00\n        /* \"contracts/lesson3.2/VotingSystem.sol\":2450:2466  uint256 maxVotes */\n      0x00\n        /* \"contracts/lesson3.2/VotingSystem.sol\":2469:2470  0 */\n      0x00\n        /* \"contracts/lesson3.2/VotingSystem.sol\":2450:2470  uint256 maxVotes = 0 */\n      swap1\n      pop\n        /* \"contracts/lesson3.2/VotingSystem.sol\":2485:2494  uint256 i */\n      0x00\n        /* \"contracts/lesson3.2/VotingSystem.sol\":2497:2498  0 */\n      0x00\n        /* \"contracts/lesson3.2/VotingSystem.sol\":2485:2498  uint256 i = 0 */\n      swap1\n      pop\n        /* \"contracts/lesson3.2/VotingSystem.sol\":2480:2692  for (uint256 i = 0; i < proposalCount; i++) {... */\n    tag_78:\n        /* \"contracts/lesson3.2/VotingSystem.sol\":2504:2517  proposalCount */\n      sload(0x01)\n        /* \"contracts/lesson3.2/VotingSystem.sol\":2500:2501  i */\n      dup2\n        /* \"contracts/lesson3.2/VotingSystem.sol\":2500:2517  i < proposalCount */\n      lt\n        /* \"contracts/lesson3.2/VotingSystem.sol\":2480:2692  for (uint256 i = 0; i < proposalCount; i++) {... */\n      iszero\n      tag_79\n      jumpi\n        /* \"contracts/lesson3.2/VotingSystem.sol\":2567:2575  maxVotes */\n      dup2\n        /* \"contracts/lesson3.2/VotingSystem.sol\":2542:2551  proposals */\n      0x00\n        /* \"contracts/lesson3.2/VotingSystem.sol\":2542:2554  proposals[i] */\n      0x00\n        /* \"contracts/lesson3.2/VotingSystem.sol\":2552:2553  i */\n      dup4\n        /* \"contracts/lesson3.2/VotingSystem.sol\":2542:2554  proposals[i] */\n      dup2\n      mstore\n      0x20\n      add\n      swap1\n      dup2\n      mstore\n      0x20\n      add\n      0x00\n      keccak256\n        /* \"contracts/lesson3.2/VotingSystem.sol\":2542:2564  proposals[i].voteCount */\n      0x01\n      add\n      sload\n        /* \"contracts/lesson3.2/VotingSystem.sol\":2542:2575  proposals[i].voteCount > maxVotes */\n      gt\n        /* \"contracts/lesson3.2/VotingSystem.sol\":2538:2682  if (proposals[i].voteCount > maxVotes) {... */\n      iszero\n      tag_81\n      jumpi\n        /* \"contracts/lesson3.2/VotingSystem.sol\":2606:2615  proposals */\n      0x00\n        /* \"contracts/lesson3.2/VotingSystem.sol\":2606:2618  proposals[i] */\n      0x00\n        /* \"contracts/lesson3.2/VotingSystem.sol\":2616:2617  i */\n      dup3\n        /* \"contracts/lesson3.2/VotingSystem.sol\":2606:2618  proposals[i] */\n      dup2\n      mstore\n      0x20\n      add\n      swap1\n      dup2\n      mstore\n      0x20\n      add\n      0x00\n      keccak256\n        /* \"contracts/lesson3.2/VotingSystem.sol\":2606:2628  proposals[i].voteCount */\n      0x01\n      add\n      sload\n        /* \"contracts/lesson3.2/VotingSystem.sol\":2595:2628  maxVotes = proposals[i].voteCount */\n      swap2\n      pop\n        /* \"contracts/lesson3.2/VotingSystem.sol\":2666:2667  i */\n      dup1\n        /* \"contracts/lesson3.2/VotingSystem.sol\":2646:2667  winningProposalId = i */\n      swap3\n      pop\n        /* \"contracts/lesson3.2/VotingSystem.sol\":2538:2682  if (proposals[i].voteCount > maxVotes) {... */\n    tag_81:\n        /* \"contracts/lesson3.2/VotingSystem.sol\":2519:2522  i++ */\n      dup1\n      dup1\n      0x01\n      add\n      swap2\n      pop\n      pop\n        /* \"contracts/lesson3.2/VotingSystem.sol\":2480:2692  for (uint256 i = 0; i < proposalCount; i++) {... */\n      jump(tag_78)\n    tag_79:\n      pop\n        /* \"contracts/lesson3.2/VotingSystem.sol\":2701:2725  return winningProposalId */\n      pop\n        /* \"contracts/lesson3.2/VotingSystem.sol\":2334:2732  function getWinningProposal()... */\n      swap1\n      jump\t// out\n        /* \"contracts/lesson3.2/VotingSystem.sol\":1883:2328  function getProposalInfo(... */\n    tag_37:\n        /* \"contracts/lesson3.2/VotingSystem.sol\":2000:2025  string memory description */\n      0x60\n        /* \"contracts/lesson3.2/VotingSystem.sol\":2039:2056  uint256 voteCount */\n      0x00\n        /* \"contracts/lesson3.2/VotingSystem.sol\":2070:2086  uint256 deadline */\n      0x00\n        /* \"contracts/lesson3.2/VotingSystem.sol\":2100:2113  bool executed */\n      0x00\n        /* \"contracts/lesson3.2/VotingSystem.sol\":2159:2172  proposalCount */\n      sload(0x01)\n        /* \"contracts/lesson3.2/VotingSystem.sol\":2146:2156  proposalId */\n      dup6\n        /* \"contracts/lesson3.2/VotingSystem.sol\":2146:2172  proposalId < proposalCount */\n      lt\n        /* \"contracts/lesson3.2/VotingSystem.sol\":2138:2200  require(proposalId < proposalCount, \"Proposal does not exist\") */\n      tag_83\n      jumpi\n      mload(0x40)\n      0x08c379a000000000000000000000000000000000000000000000000000000000\n      dup2\n      mstore\n      0x04\n      add\n      tag_84\n      swap1\n      tag_45\n      jump\t// in\n    tag_84:\n      mload(0x40)\n      dup1\n      swap2\n      sub\n      swap1\n      revert\n    tag_83:\n        /* \"contracts/lesson3.2/VotingSystem.sol\":2210:2228  Proposal storage p */\n      0x00\n        /* \"contracts/lesson3.2/VotingSystem.sol\":2231:2240  proposals */\n      0x00\n        /* \"contracts/lesson3.2/VotingSystem.sol\":2231:2252  proposals[proposalId] */\n      0x00\n        /* \"contracts/lesson3.2/VotingSystem.sol\":2241:2251  proposalId */\n      dup8\n        /* \"contracts/lesson3.2/VotingSystem.sol\":2231:2252  proposals[proposalId] */\n      dup2\n      mstore\n      0x20\n      add\n      swap1\n      dup2\n      mstore\n      0x20\n      add\n      0x00\n      keccak256\n        /* \"contracts/lesson3.2/VotingSystem.sol\":2210:2252  Proposal storage p = proposals[proposalId] */\n      swap1\n      pop\n        /* \"contracts/lesson3.2/VotingSystem.sol\":2270:2271  p */\n      dup1\n        /* \"contracts/lesson3.2/VotingSystem.sol\":2270:2283  p.description */\n      0x00\n      add\n        /* \"contracts/lesson3.2/VotingSystem.sol\":2285:2286  p */\n      dup2\n        /* \"contracts/lesson3.2/VotingSystem.sol\":2285:2296  p.voteCount */\n      0x01\n      add\n      sload\n        /* \"contracts/lesson3.2/VotingSystem.sol\":2298:2299  p */\n      dup3\n        /* \"contracts/lesson3.2/VotingSystem.sol\":2298:2308  p.deadline */\n      0x02\n      add\n      sload\n        /* \"contracts/lesson3.2/VotingSystem.sol\":2310:2311  p */\n      dup4\n        /* \"contracts/lesson3.2/VotingSystem.sol\":2310:2320  p.executed */\n      0x03\n      add\n      0x00\n      swap1\n      sload\n      swap1\n      0x0100\n      exp\n      swap1\n      div\n      0xff\n      and\n        /* \"contracts/lesson3.2/VotingSystem.sol\":2262:2321  return (p.description, p.voteCount, p.deadline, p.executed) */\n      dup4\n      dup1\n      sload\n      tag_85\n      swap1\n      tag_55\n      jump\t// in\n    tag_85:\n      dup1\n      0x1f\n      add\n      0x20\n      dup1\n      swap2\n      div\n      mul\n      0x20\n      add\n      mload(0x40)\n      swap1\n      dup2\n      add\n      0x40\n      mstore\n      dup1\n      swap3\n      swap2\n      swap1\n      dup2\n      dup2\n      mstore\n      0x20\n      add\n      dup3\n      dup1\n      sload\n      tag_86\n      swap1\n      tag_55\n      jump\t// in\n    tag_86:\n      dup1\n      iszero\n      tag_87\n      jumpi\n      dup1\n      0x1f\n      lt\n      tag_88\n      jumpi\n      0x0100\n      dup1\n      dup4\n      sload\n      div\n      mul\n      dup4\n      mstore\n      swap2\n      0x20\n      add\n      swap2\n      jump(tag_87)\n    tag_88:\n      dup3\n      add\n      swap2\n      swap1\n      0x00\n      mstore\n      keccak256(0x00, 0x20)\n      swap1\n    tag_89:\n      dup2\n      sload\n      dup2\n      mstore\n      swap1\n      0x01\n      add\n      swap1\n      0x20\n      add\n      dup1\n      dup4\n      gt\n      tag_89\n      jumpi\n      dup3\n      swap1\n      sub\n      0x1f\n      and\n      dup3\n      add\n      swap2\n    tag_87:\n      pop\n      pop\n      pop\n      pop\n      pop\n      swap4\n      pop\n      swap5\n      pop\n      swap5\n      pop\n      swap5\n      pop\n      swap5\n      pop\n      pop\n        /* \"contracts/lesson3.2/VotingSystem.sol\":1883:2328  function getProposalInfo(... */\n      swap2\n      swap4\n      pop\n      swap2\n      swap4\n      jump\t// out\n        /* \"contracts/lesson3.2/VotingSystem.sol\":474:502  uint256 public proposalCount */\n    tag_40:\n      sload(0x01)\n      dup2\n      jump\t// out\n        /* \"#utility.yul\":7:82   */\n    tag_90:\n        /* \"#utility.yul\":40:46   */\n      0x00\n        /* \"#utility.yul\":73:75   */\n      0x40\n        /* \"#utility.yul\":67:76   */\n      mload\n        /* \"#utility.yul\":57:76   */\n      swap1\n      pop\n        /* \"#utility.yul\":7:82   */\n      swap1\n      jump\t// out\n        /* \"#utility.yul\":88:205   */\n    tag_91:\n        /* \"#utility.yul\":197:198   */\n      0x00\n        /* \"#utility.yul\":194:195   */\n      0x00\n        /* \"#utility.yul\":187:199   */\n      revert\n        /* \"#utility.yul\":211:328   */\n    tag_92:\n        /* \"#utility.yul\":320:321   */\n      0x00\n        /* \"#utility.yul\":317:318   */\n      0x00\n        /* \"#utility.yul\":310:322   */\n      revert\n        /* \"#utility.yul\":334:411   */\n    tag_93:\n        /* \"#utility.yul\":371:378   */\n      0x00\n        /* \"#utility.yul\":400:405   */\n      dup2\n        /* \"#utility.yul\":389:405   */\n      swap1\n      pop\n        /* \"#utility.yul\":334:411   */\n      swap2\n      swap1\n      pop\n      jump\t// out\n        /* \"#utility.yul\":417:539   */\n    tag_94:\n        /* \"#utility.yul\":490:514   */\n      tag_150\n        /* \"#utility.yul\":508:513   */\n      dup2\n        /* \"#utility.yul\":490:514   */\n      tag_93\n      jump\t// in\n    tag_150:\n        /* \"#utility.yul\":483:488   */\n      dup2\n        /* \"#utility.yul\":480:515   */\n      eq\n        /* \"#utility.yul\":470:533   */\n      tag_151\n      jumpi\n        /* \"#utility.yul\":529:530   */\n      0x00\n        /* \"#utility.yul\":526:527   */\n      0x00\n        /* \"#utility.yul\":519:531   */\n      revert\n        /* \"#utility.yul\":470:533   */\n    tag_151:\n        /* \"#utility.yul\":417:539   */\n      pop\n      jump\t// out\n        /* \"#utility.yul\":545:684   */\n    tag_95:\n        /* \"#utility.yul\":591:596   */\n      0x00\n        /* \"#utility.yul\":629:635   */\n      dup2\n        /* \"#utility.yul\":616:636   */\n      calldataload\n        /* \"#utility.yul\":607:636   */\n      swap1\n      pop\n        /* \"#utility.yul\":645:678   */\n      tag_153\n        /* \"#utility.yul\":672:677   */\n      dup2\n        /* \"#utility.yul\":645:678   */\n      tag_94\n      jump\t// in\n    tag_153:\n        /* \"#utility.yul\":545:684   */\n      swap3\n      swap2\n      pop\n      pop\n      jump\t// out\n        /* \"#utility.yul\":690:1019   */\n    tag_13:\n        /* \"#utility.yul\":749:755   */\n      0x00\n        /* \"#utility.yul\":798:800   */\n      0x20\n        /* \"#utility.yul\":786:795   */\n      dup3\n        /* \"#utility.yul\":777:784   */\n      dup5\n        /* \"#utility.yul\":773:796   */\n      sub\n        /* \"#utility.yul\":769:801   */\n      slt\n        /* \"#utility.yul\":766:885   */\n      iszero\n      tag_155\n      jumpi\n        /* \"#utility.yul\":804:883   */\n      tag_156\n      tag_91\n      jump\t// in\n    tag_156:\n        /* \"#utility.yul\":766:885   */\n    tag_155:\n        /* \"#utility.yul\":924:925   */\n      0x00\n        /* \"#utility.yul\":949:1002   */\n      tag_157\n        /* \"#utility.yul\":994:1001   */\n      dup5\n        /* \"#utility.yul\":985:991   */\n      dup3\n        /* \"#utility.yul\":974:983   */\n      dup6\n        /* \"#utility.yul\":970:992   */\n      add\n        /* \"#utility.yul\":949:1002   */\n      tag_95\n      jump\t// in\n    tag_157:\n        /* \"#utility.yul\":939:1002   */\n      swap2\n      pop\n        /* \"#utility.yul\":895:1012   */\n      pop\n        /* \"#utility.yul\":690:1019   */\n      swap3\n      swap2\n      pop\n      pop\n      jump\t// out\n        /* \"#utility.yul\":1025:1124   */\n    tag_96:\n        /* \"#utility.yul\":1077:1083   */\n      0x00\n        /* \"#utility.yul\":1111:1116   */\n      dup2\n        /* \"#utility.yul\":1105:1117   */\n      mload\n        /* \"#utility.yul\":1095:1117   */\n      swap1\n      pop\n        /* \"#utility.yul\":1025:1124   */\n      swap2\n      swap1\n      pop\n      jump\t// out\n        /* \"#utility.yul\":1130:1299   */\n    tag_97:\n        /* \"#utility.yul\":1214:1225   */\n      0x00\n        /* \"#utility.yul\":1248:1254   */\n      dup3\n        /* \"#utility.yul\":1243:1246   */\n      dup3\n        /* \"#utility.yul\":1236:1255   */\n      mstore\n        /* \"#utility.yul\":1288:1292   */\n      0x20\n        /* \"#utility.yul\":1283:1286   */\n      dup3\n        /* \"#utility.yul\":1279:1293   */\n      add\n        /* \"#utility.yul\":1264:1293   */\n      swap1\n      pop\n        /* \"#utility.yul\":1130:1299   */\n      swap3\n      swap2\n      pop\n      pop\n      jump\t// out\n        /* \"#utility.yul\":1305:1444   */\n    tag_98:\n        /* \"#utility.yul\":1394:1400   */\n      dup3\n        /* \"#utility.yul\":1389:1392   */\n      dup2\n        /* \"#utility.yul\":1384:1387   */\n      dup4\n        /* \"#utility.yul\":1378:1401   */\n      mcopy\n        /* \"#utility.yul\":1435:1436   */\n      0x00\n        /* \"#utility.yul\":1426:1432   */\n      dup4\n        /* \"#utility.yul\":1421:1424   */\n      dup4\n        /* \"#utility.yul\":1417:1433   */\n      add\n        /* \"#utility.yul\":1410:1437   */\n      mstore\n        /* \"#utility.yul\":1305:1444   */\n      pop\n      pop\n      pop\n      jump\t// out\n        /* \"#utility.yul\":1450:1552   */\n    tag_99:\n        /* \"#utility.yul\":1491:1497   */\n      0x00\n        /* \"#utility.yul\":1542:1544   */\n      0x1f\n        /* \"#utility.yul\":1538:1545   */\n      not\n        /* \"#utility.yul\":1533:1535   */\n      0x1f\n        /* \"#utility.yul\":1526:1531   */\n      dup4\n        /* \"#utility.yul\":1522:1536   */\n      add\n        /* \"#utility.yul\":1518:1546   */\n      and\n        /* \"#utility.yul\":1508:1546   */\n      swap1\n      pop\n        /* \"#utility.yul\":1450:1552   */\n      swap2\n      swap1\n      pop\n      jump\t// out\n        /* \"#utility.yul\":1558:1935   */\n    tag_100:\n        /* \"#utility.yul\":1646:1649   */\n      0x00\n        /* \"#utility.yul\":1674:1713   */\n      tag_163\n        /* \"#utility.yul\":1707:1712   */\n      dup3\n        /* \"#utility.yul\":1674:1713   */\n      tag_96\n      jump\t// in\n    tag_163:\n        /* \"#utility.yul\":1729:1800   */\n      tag_164\n        /* \"#utility.yul\":1793:1799   */\n      dup2\n        /* \"#utility.yul\":1788:1791   */\n      dup6\n        /* \"#utility.yul\":1729:1800   */\n      tag_97\n      jump\t// in\n    tag_164:\n        /* \"#utility.yul\":1722:1800   */\n      swap4\n      pop\n        /* \"#utility.yul\":1809:1874   */\n      tag_165\n        /* \"#utility.yul\":1867:1873   */\n      dup2\n        /* \"#utility.yul\":1862:1865   */\n      dup6\n        /* \"#utility.yul\":1855:1859   */\n      0x20\n        /* \"#utility.yul\":1848:1853   */\n      dup7\n        /* \"#utility.yul\":1844:1860   */\n      add\n        /* \"#utility.yul\":1809:1874   */\n      tag_98\n      jump\t// in\n    tag_165:\n        /* \"#utility.yul\":1899:1928   */\n      tag_166\n        /* \"#utility.yul\":1921:1927   */\n      dup2\n        /* \"#utility.yul\":1899:1928   */\n      tag_99\n      jump\t// in\n    tag_166:\n        /* \"#utility.yul\":1894:1897   */\n      dup5\n        /* \"#utility.yul\":1890:1929   */\n      add\n        /* \"#utility.yul\":1883:1929   */\n      swap2\n      pop\n        /* \"#utility.yul\":1650:1935   */\n      pop\n        /* \"#utility.yul\":1558:1935   */\n      swap3\n      swap2\n      pop\n      pop\n      jump\t// out\n        /* \"#utility.yul\":1941:2059   */\n    tag_101:\n        /* \"#utility.yul\":2028:2052   */\n      tag_168\n        /* \"#utility.yul\":2046:2051   */\n      dup2\n        /* \"#utility.yul\":2028:2052   */\n      tag_93\n      jump\t// in\n    tag_168:\n        /* \"#utility.yul\":2023:2026   */\n      dup3\n        /* \"#utility.yul\":2016:2053   */\n      mstore\n        /* \"#utility.yul\":1941:2059   */\n      pop\n      pop\n      jump\t// out\n        /* \"#utility.yul\":2065:2155   */\n    tag_102:\n        /* \"#utility.yul\":2099:2106   */\n      0x00\n        /* \"#utility.yul\":2142:2147   */\n      dup2\n        /* \"#utility.yul\":2135:2148   */\n      iszero\n        /* \"#utility.yul\":2128:2149   */\n      iszero\n        /* \"#utility.yul\":2117:2149   */\n      swap1\n      pop\n        /* \"#utility.yul\":2065:2155   */\n      swap2\n      swap1\n      pop\n      jump\t// out\n        /* \"#utility.yul\":2161:2270   */\n    tag_103:\n        /* \"#utility.yul\":2242:2263   */\n      tag_171\n        /* \"#utility.yul\":2257:2262   */\n      dup2\n        /* \"#utility.yul\":2242:2263   */\n      tag_102\n      jump\t// in\n    tag_171:\n        /* \"#utility.yul\":2237:2240   */\n      dup3\n        /* \"#utility.yul\":2230:2264   */\n      mstore\n        /* \"#utility.yul\":2161:2270   */\n      pop\n      pop\n      jump\t// out\n        /* \"#utility.yul\":2276:2908   */\n    tag_19:\n        /* \"#utility.yul\":2467:2471   */\n      0x00\n        /* \"#utility.yul\":2505:2508   */\n      0x80\n        /* \"#utility.yul\":2494:2503   */\n      dup3\n        /* \"#utility.yul\":2490:2509   */\n      add\n        /* \"#utility.yul\":2482:2509   */\n      swap1\n      pop\n        /* \"#utility.yul\":2555:2564   */\n      dup2\n        /* \"#utility.yul\":2549:2553   */\n      dup2\n        /* \"#utility.yul\":2545:2565   */\n      sub\n        /* \"#utility.yul\":2541:2542   */\n      0x00\n        /* \"#utility.yul\":2530:2539   */\n      dup4\n        /* \"#utility.yul\":2526:2543   */\n      add\n        /* \"#utility.yul\":2519:2566   */\n      mstore\n        /* \"#utility.yul\":2583:2661   */\n      tag_173\n        /* \"#utility.yul\":2656:2660   */\n      dup2\n        /* \"#utility.yul\":2647:2653   */\n      dup8\n        /* \"#utility.yul\":2583:2661   */\n      tag_100\n      jump\t// in\n    tag_173:\n        /* \"#utility.yul\":2575:2661   */\n      swap1\n      pop\n        /* \"#utility.yul\":2671:2743   */\n      tag_174\n        /* \"#utility.yul\":2739:2741   */\n      0x20\n        /* \"#utility.yul\":2728:2737   */\n      dup4\n        /* \"#utility.yul\":2724:2742   */\n      add\n        /* \"#utility.yul\":2715:2721   */\n      dup7\n        /* \"#utility.yul\":2671:2743   */\n      tag_101\n      jump\t// in\n    tag_174:\n        /* \"#utility.yul\":2753:2825   */\n      tag_175\n        /* \"#utility.yul\":2821:2823   */\n      0x40\n        /* \"#utility.yul\":2810:2819   */\n      dup4\n        /* \"#utility.yul\":2806:2824   */\n      add\n        /* \"#utility.yul\":2797:2803   */\n      dup6\n        /* \"#utility.yul\":2753:2825   */\n      tag_101\n      jump\t// in\n    tag_175:\n        /* \"#utility.yul\":2835:2901   */\n      tag_176\n        /* \"#utility.yul\":2897:2899   */\n      0x60\n        /* \"#utility.yul\":2886:2895   */\n      dup4\n        /* \"#utility.yul\":2882:2900   */\n      add\n        /* \"#utility.yul\":2873:2879   */\n      dup5\n        /* \"#utility.yul\":2835:2901   */\n      tag_103\n      jump\t// in\n    tag_176:\n        /* \"#utility.yul\":2276:2908   */\n      swap6\n      swap5\n      pop\n      pop\n      pop\n      pop\n      pop\n      jump\t// out\n        /* \"#utility.yul\":2914:3031   */\n    tag_104:\n        /* \"#utility.yul\":3023:3024   */\n      0x00\n        /* \"#utility.yul\":3020:3021   */\n      0x00\n        /* \"#utility.yul\":3013:3025   */\n      revert\n        /* \"#utility.yul\":3037:3154   */\n    tag_105:\n        /* \"#utility.yul\":3146:3147   */\n      0x00\n        /* \"#utility.yul\":3143:3144   */\n      0x00\n        /* \"#utility.yul\":3136:3148   */\n      revert\n        /* \"#utility.yul\":3160:3340   */\n    tag_106:\n        /* \"#utility.yul\":3208:3285   */\n      0x4e487b7100000000000000000000000000000000000000000000000000000000\n        /* \"#utility.yul\":3205:3206   */\n      0x00\n        /* \"#utility.yul\":3198:3286   */\n      mstore\n        /* \"#utility.yul\":3305:3309   */\n      0x41\n        /* \"#utility.yul\":3302:3303   */\n      0x04\n        /* \"#utility.yul\":3295:3310   */\n      mstore\n        /* \"#utility.yul\":3329:3333   */\n      0x24\n        /* \"#utility.yul\":3326:3327   */\n      0x00\n        /* \"#utility.yul\":3319:3334   */\n      revert\n        /* \"#utility.yul\":3346:3627   */\n    tag_107:\n        /* \"#utility.yul\":3429:3456   */\n      tag_181\n        /* \"#utility.yul\":3451:3455   */\n      dup3\n        /* \"#utility.yul\":3429:3456   */\n      tag_99\n      jump\t// in\n    tag_181:\n        /* \"#utility.yul\":3421:3427   */\n      dup2\n        /* \"#utility.yul\":3417:3457   */\n      add\n        /* \"#utility.yul\":3559:3565   */\n      dup2\n        /* \"#utility.yul\":3547:3557   */\n      dup2\n        /* \"#utility.yul\":3544:3566   */\n      lt\n        /* \"#utility.yul\":3523:3541   */\n      0xffffffffffffffff\n        /* \"#utility.yul\":3511:3521   */\n      dup3\n        /* \"#utility.yul\":3508:3542   */\n      gt\n        /* \"#utility.yul\":3505:3567   */\n      or\n        /* \"#utility.yul\":3502:3590   */\n      iszero\n      tag_182\n      jumpi\n        /* \"#utility.yul\":3570:3588   */\n      tag_183\n      tag_106\n      jump\t// in\n    tag_183:\n        /* \"#utility.yul\":3502:3590   */\n    tag_182:\n        /* \"#utility.yul\":3610:3620   */\n      dup1\n        /* \"#utility.yul\":3606:3608   */\n      0x40\n        /* \"#utility.yul\":3599:3621   */\n      mstore\n        /* \"#utility.yul\":3389:3627   */\n      pop\n        /* \"#utility.yul\":3346:3627   */\n      pop\n      pop\n      jump\t// out\n        /* \"#utility.yul\":3633:3762   */\n    tag_108:\n        /* \"#utility.yul\":3667:3673   */\n      0x00\n        /* \"#utility.yul\":3694:3714   */\n      tag_185\n      tag_90\n      jump\t// in\n    tag_185:\n        /* \"#utility.yul\":3684:3714   */\n      swap1\n      pop\n        /* \"#utility.yul\":3723:3756   */\n      tag_186\n        /* \"#utility.yul\":3751:3755   */\n      dup3\n        /* \"#utility.yul\":3743:3749   */\n      dup3\n        /* \"#utility.yul\":3723:3756   */\n      tag_107\n      jump\t// in\n    tag_186:\n        /* \"#utility.yul\":3633:3762   */\n      swap2\n      swap1\n      pop\n      jump\t// out\n        /* \"#utility.yul\":3768:4076   */\n    tag_109:\n        /* \"#utility.yul\":3830:3834   */\n      0x00\n        /* \"#utility.yul\":3920:3938   */\n      0xffffffffffffffff\n        /* \"#utility.yul\":3912:3918   */\n      dup3\n        /* \"#utility.yul\":3909:3939   */\n      gt\n        /* \"#utility.yul\":3906:3962   */\n      iszero\n      tag_188\n      jumpi\n        /* \"#utility.yul\":3942:3960   */\n      tag_189\n      tag_106\n      jump\t// in\n    tag_189:\n        /* \"#utility.yul\":3906:3962   */\n    tag_188:\n        /* \"#utility.yul\":3980:4009   */\n      tag_190\n        /* \"#utility.yul\":4002:4008   */\n      dup3\n        /* \"#utility.yul\":3980:4009   */\n      tag_99\n      jump\t// in\n    tag_190:\n        /* \"#utility.yul\":3972:4009   */\n      swap1\n      pop\n        /* \"#utility.yul\":4064:4068   */\n      0x20\n        /* \"#utility.yul\":4058:4062   */\n      dup2\n        /* \"#utility.yul\":4054:4069   */\n      add\n        /* \"#utility.yul\":4046:4069   */\n      swap1\n      pop\n        /* \"#utility.yul\":3768:4076   */\n      swap2\n      swap1\n      pop\n      jump\t// out\n        /* \"#utility.yul\":4082:4230   */\n    tag_110:\n        /* \"#utility.yul\":4180:4186   */\n      dup3\n        /* \"#utility.yul\":4175:4178   */\n      dup2\n        /* \"#utility.yul\":4170:4173   */\n      dup4\n        /* \"#utility.yul\":4157:4187   */\n      calldatacopy\n        /* \"#utility.yul\":4221:4222   */\n      0x00\n        /* \"#utility.yul\":4212:4218   */\n      dup4\n        /* \"#utility.yul\":4207:4210   */\n      dup4\n        /* \"#utility.yul\":4203:4219   */\n      add\n        /* \"#utility.yul\":4196:4223   */\n      mstore\n        /* \"#utility.yul\":4082:4230   */\n      pop\n      pop\n      pop\n      jump\t// out\n        /* \"#utility.yul\":4236:4661   */\n    tag_111:\n        /* \"#utility.yul\":4314:4319   */\n      0x00\n        /* \"#utility.yul\":4339:4405   */\n      tag_193\n        /* \"#utility.yul\":4355:4404   */\n      tag_194\n        /* \"#utility.yul\":4397:4403   */\n      dup5\n        /* \"#utility.yul\":4355:4404   */\n      tag_109\n      jump\t// in\n    tag_194:\n        /* \"#utility.yul\":4339:4405   */\n      tag_108\n      jump\t// in\n    tag_193:\n        /* \"#utility.yul\":4330:4405   */\n      swap1\n      pop\n        /* \"#utility.yul\":4428:4434   */\n      dup3\n        /* \"#utility.yul\":4421:4426   */\n      dup2\n        /* \"#utility.yul\":4414:4435   */\n      mstore\n        /* \"#utility.yul\":4466:4470   */\n      0x20\n        /* \"#utility.yul\":4459:4464   */\n      dup2\n        /* \"#utility.yul\":4455:4471   */\n      add\n        /* \"#utility.yul\":4504:4507   */\n      dup5\n        /* \"#utility.yul\":4495:4501   */\n      dup5\n        /* \"#utility.yul\":4490:4493   */\n      dup5\n        /* \"#utility.yul\":4486:4502   */\n      add\n        /* \"#utility.yul\":4483:4508   */\n      gt\n        /* \"#utility.yul\":4480:4592   */\n      iszero\n      tag_195\n      jumpi\n        /* \"#utility.yul\":4511:4590   */\n      tag_196\n      tag_105\n      jump\t// in\n    tag_196:\n        /* \"#utility.yul\":4480:4592   */\n    tag_195:\n        /* \"#utility.yul\":4601:4655   */\n      tag_197\n        /* \"#utility.yul\":4648:4654   */\n      dup5\n        /* \"#utility.yul\":4643:4646   */\n      dup3\n        /* \"#utility.yul\":4638:4641   */\n      dup6\n        /* \"#utility.yul\":4601:4655   */\n      tag_110\n      jump\t// in\n    tag_197:\n        /* \"#utility.yul\":4320:4661   */\n      pop\n        /* \"#utility.yul\":4236:4661   */\n      swap4\n      swap3\n      pop\n      pop\n      pop\n      jump\t// out\n        /* \"#utility.yul\":4681:5021   */\n    tag_112:\n        /* \"#utility.yul\":4737:4742   */\n      0x00\n        /* \"#utility.yul\":4786:4789   */\n      dup3\n        /* \"#utility.yul\":4779:4783   */\n      0x1f\n        /* \"#utility.yul\":4771:4777   */\n      dup4\n        /* \"#utility.yul\":4767:4784   */\n      add\n        /* \"#utility.yul\":4763:4790   */\n      slt\n        /* \"#utility.yul\":4753:4875   */\n      tag_199\n      jumpi\n        /* \"#utility.yul\":4794:4873   */\n      tag_200\n      tag_104\n      jump\t// in\n    tag_200:\n        /* \"#utility.yul\":4753:4875   */\n    tag_199:\n        /* \"#utility.yul\":4911:4917   */\n      dup2\n        /* \"#utility.yul\":4898:4918   */\n      calldataload\n        /* \"#utility.yul\":4936:5015   */\n      tag_201\n        /* \"#utility.yul\":5011:5014   */\n      dup5\n        /* \"#utility.yul\":5003:5009   */\n      dup3\n        /* \"#utility.yul\":4996:5000   */\n      0x20\n        /* \"#utility.yul\":4988:4994   */\n      dup7\n        /* \"#utility.yul\":4984:5001   */\n      add\n        /* \"#utility.yul\":4936:5015   */\n      tag_111\n      jump\t// in\n    tag_201:\n        /* \"#utility.yul\":4927:5015   */\n      swap2\n      pop\n        /* \"#utility.yul\":4743:5021   */\n      pop\n        /* \"#utility.yul\":4681:5021   */\n      swap3\n      swap2\n      pop\n      pop\n      jump\t// out\n        /* \"#utility.yul\":5027:5681   */\n    tag_22:\n        /* \"#utility.yul\":5105:5111   */\n      0x00\n        /* \"#utility.yul\":5113:5119   */\n      0x00\n        /* \"#utility.yul\":5162:5164   */\n      0x40\n        /* \"#utility.yul\":5150:5159   */\n      dup4\n        /* \"#utility.yul\":5141:5148   */\n      dup6\n        /* \"#utility.yul\":5137:5160   */\n      sub\n        /* \"#utility.yul\":5133:5165   */\n      slt\n        /* \"#utility.yul\":5130:5249   */\n      iszero\n      tag_203\n      jumpi\n        /* \"#utility.yul\":5168:5247   */\n      tag_204\n      tag_91\n      jump\t// in\n    tag_204:\n        /* \"#utility.yul\":5130:5249   */\n    tag_203:\n        /* \"#utility.yul\":5316:5317   */\n      0x00\n        /* \"#utility.yul\":5305:5314   */\n      dup4\n        /* \"#utility.yul\":5301:5318   */\n      add\n        /* \"#utility.yul\":5288:5319   */\n      calldataload\n        /* \"#utility.yul\":5346:5364   */\n      0xffffffffffffffff\n        /* \"#utility.yul\":5338:5344   */\n      dup2\n        /* \"#utility.yul\":5335:5365   */\n      gt\n        /* \"#utility.yul\":5332:5449   */\n      iszero\n      tag_205\n      jumpi\n        /* \"#utility.yul\":5368:5447   */\n      tag_206\n      tag_92\n      jump\t// in\n    tag_206:\n        /* \"#utility.yul\":5332:5449   */\n    tag_205:\n        /* \"#utility.yul\":5473:5536   */\n      tag_207\n        /* \"#utility.yul\":5528:5535   */\n      dup6\n        /* \"#utility.yul\":5519:5525   */\n      dup3\n        /* \"#utility.yul\":5508:5517   */\n      dup7\n        /* \"#utility.yul\":5504:5526   */\n      add\n        /* \"#utility.yul\":5473:5536   */\n      tag_112\n      jump\t// in\n    tag_207:\n        /* \"#utility.yul\":5463:5536   */\n      swap3\n      pop\n        /* \"#utility.yul\":5259:5546   */\n      pop\n        /* \"#utility.yul\":5585:5587   */\n      0x20\n        /* \"#utility.yul\":5611:5664   */\n      tag_208\n        /* \"#utility.yul\":5656:5663   */\n      dup6\n        /* \"#utility.yul\":5647:5653   */\n      dup3\n        /* \"#utility.yul\":5636:5645   */\n      dup7\n        /* \"#utility.yul\":5632:5654   */\n      add\n        /* \"#utility.yul\":5611:5664   */\n      tag_95\n      jump\t// in\n    tag_208:\n        /* \"#utility.yul\":5601:5664   */\n      swap2\n      pop\n        /* \"#utility.yul\":5556:5674   */\n      pop\n        /* \"#utility.yul\":5027:5681   */\n      swap3\n      pop\n      swap3\n      swap1\n      pop\n      jump\t// out\n        /* \"#utility.yul\":5687:5909   */\n    tag_25:\n        /* \"#utility.yul\":5780:5784   */\n      0x00\n        /* \"#utility.yul\":5818:5820   */\n      0x20\n        /* \"#utility.yul\":5807:5816   */\n      dup3\n        /* \"#utility.yul\":5803:5821   */\n      add\n        /* \"#utility.yul\":5795:5821   */\n      swap1\n      pop\n        /* \"#utility.yul\":5831:5902   */\n      tag_210\n        /* \"#utility.yul\":5899:5900   */\n      0x00\n        /* \"#utility.yul\":5888:5897   */\n      dup4\n        /* \"#utility.yul\":5884:5901   */\n      add\n        /* \"#utility.yul\":5875:5881   */\n      dup5\n        /* \"#utility.yul\":5831:5902   */\n      tag_101\n      jump\t// in\n    tag_210:\n        /* \"#utility.yul\":5687:5909   */\n      swap3\n      swap2\n      pop\n      pop\n      jump\t// out\n        /* \"#utility.yul\":5915:6041   */\n    tag_113:\n        /* \"#utility.yul\":5952:5959   */\n      0x00\n        /* \"#utility.yul\":5992:6034   */\n      0xffffffffffffffffffffffffffffffffffffffff\n        /* \"#utility.yul\":5985:5990   */\n      dup3\n        /* \"#utility.yul\":5981:6035   */\n      and\n        /* \"#utility.yul\":5970:6035   */\n      swap1\n      pop\n        /* \"#utility.yul\":5915:6041   */\n      swap2\n      swap1\n      pop\n      jump\t// out\n        /* \"#utility.yul\":6047:6143   */\n    tag_114:\n        /* \"#utility.yul\":6084:6091   */\n      0x00\n        /* \"#utility.yul\":6113:6137   */\n      tag_213\n        /* \"#utility.yul\":6131:6136   */\n      dup3\n        /* \"#utility.yul\":6113:6137   */\n      tag_113\n      jump\t// in\n    tag_213:\n        /* \"#utility.yul\":6102:6137   */\n      swap1\n      pop\n        /* \"#utility.yul\":6047:6143   */\n      swap2\n      swap1\n      pop\n      jump\t// out\n        /* \"#utility.yul\":6149:6271   */\n    tag_115:\n        /* \"#utility.yul\":6222:6246   */\n      tag_215\n        /* \"#utility.yul\":6240:6245   */\n      dup2\n        /* \"#utility.yul\":6222:6246   */\n      tag_114\n      jump\t// in\n    tag_215:\n        /* \"#utility.yul\":6215:6220   */\n      dup2\n        /* \"#utility.yul\":6212:6247   */\n      eq\n        /* \"#utility.yul\":6202:6265   */\n      tag_216\n      jumpi\n        /* \"#utility.yul\":6261:6262   */\n      0x00\n        /* \"#utility.yul\":6258:6259   */\n      0x00\n        /* \"#utility.yul\":6251:6263   */\n      revert\n        /* \"#utility.yul\":6202:6265   */\n    tag_216:\n        /* \"#utility.yul\":6149:6271   */\n      pop\n      jump\t// out\n        /* \"#utility.yul\":6277:6416   */\n    tag_116:\n        /* \"#utility.yul\":6323:6328   */\n      0x00\n        /* \"#utility.yul\":6361:6367   */\n      dup2\n        /* \"#utility.yul\":6348:6368   */\n      calldataload\n        /* \"#utility.yul\":6339:6368   */\n      swap1\n      pop\n        /* \"#utility.yul\":6377:6410   */\n      tag_218\n        /* \"#utility.yul\":6404:6409   */\n      dup2\n        /* \"#utility.yul\":6377:6410   */\n      tag_115\n      jump\t// in\n    tag_218:\n        /* \"#utility.yul\":6277:6416   */\n      swap3\n      swap2\n      pop\n      pop\n      jump\t// out\n        /* \"#utility.yul\":6422:6896   */\n    tag_28:\n        /* \"#utility.yul\":6490:6496   */\n      0x00\n        /* \"#utility.yul\":6498:6504   */\n      0x00\n        /* \"#utility.yul\":6547:6549   */\n      0x40\n        /* \"#utility.yul\":6535:6544   */\n      dup4\n        /* \"#utility.yul\":6526:6533   */\n      dup6\n        /* \"#utility.yul\":6522:6545   */\n      sub\n        /* \"#utility.yul\":6518:6550   */\n      slt\n        /* \"#utility.yul\":6515:6634   */\n      iszero\n      tag_220\n      jumpi\n        /* \"#utility.yul\":6553:6632   */\n      tag_221\n      tag_91\n      jump\t// in\n    tag_221:\n        /* \"#utility.yul\":6515:6634   */\n    tag_220:\n        /* \"#utility.yul\":6673:6674   */\n      0x00\n        /* \"#utility.yul\":6698:6751   */\n      tag_222\n        /* \"#utility.yul\":6743:6750   */\n      dup6\n        /* \"#utility.yul\":6734:6740   */\n      dup3\n        /* \"#utility.yul\":6723:6732   */\n      dup7\n        /* \"#utility.yul\":6719:6741   */\n      add\n        /* \"#utility.yul\":6698:6751   */\n      tag_95\n      jump\t// in\n    tag_222:\n        /* \"#utility.yul\":6688:6751   */\n      swap3\n      pop\n        /* \"#utility.yul\":6644:6761   */\n      pop\n        /* \"#utility.yul\":6800:6802   */\n      0x20\n        /* \"#utility.yul\":6826:6879   */\n      tag_223\n        /* \"#utility.yul\":6871:6878   */\n      dup6\n        /* \"#utility.yul\":6862:6868   */\n      dup3\n        /* \"#utility.yul\":6851:6860   */\n      dup7\n        /* \"#utility.yul\":6847:6869   */\n      add\n        /* \"#utility.yul\":6826:6879   */\n      tag_116\n      jump\t// in\n    tag_223:\n        /* \"#utility.yul\":6816:6879   */\n      swap2\n      pop\n        /* \"#utility.yul\":6771:6889   */\n      pop\n        /* \"#utility.yul\":6422:6896   */\n      swap3\n      pop\n      swap3\n      swap1\n      pop\n      jump\t// out\n        /* \"#utility.yul\":6902:7112   */\n    tag_31:\n        /* \"#utility.yul\":6989:6993   */\n      0x00\n        /* \"#utility.yul\":7027:7029   */\n      0x20\n        /* \"#utility.yul\":7016:7025   */\n      dup3\n        /* \"#utility.yul\":7012:7030   */\n      add\n        /* \"#utility.yul\":7004:7030   */\n      swap1\n      pop\n        /* \"#utility.yul\":7040:7105   */\n      tag_225\n        /* \"#utility.yul\":7102:7103   */\n      0x00\n        /* \"#utility.yul\":7091:7100   */\n      dup4\n        /* \"#utility.yul\":7087:7104   */\n      add\n        /* \"#utility.yul\":7078:7084   */\n      dup5\n        /* \"#utility.yul\":7040:7105   */\n      tag_103\n      jump\t// in\n    tag_225:\n        /* \"#utility.yul\":6902:7112   */\n      swap3\n      swap2\n      pop\n      pop\n      jump\t// out\n        /* \"#utility.yul\":7118:7291   */\n    tag_117:\n        /* \"#utility.yul\":7258:7283   */\n      0x50726f706f73616c20646f6573206e6f74206578697374000000000000000000\n        /* \"#utility.yul\":7254:7255   */\n      0x00\n        /* \"#utility.yul\":7246:7252   */\n      dup3\n        /* \"#utility.yul\":7242:7256   */\n      add\n        /* \"#utility.yul\":7235:7284   */\n      mstore\n        /* \"#utility.yul\":7118:7291   */\n      pop\n      jump\t// out\n        /* \"#utility.yul\":7297:7663   */\n    tag_118:\n        /* \"#utility.yul\":7439:7442   */\n      0x00\n        /* \"#utility.yul\":7460:7527   */\n      tag_228\n        /* \"#utility.yul\":7524:7526   */\n      0x17\n        /* \"#utility.yul\":7519:7522   */\n      dup4\n        /* \"#utility.yul\":7460:7527   */\n      tag_97\n      jump\t// in\n    tag_228:\n        /* \"#utility.yul\":7453:7527   */\n      swap2\n      pop\n        /* \"#utility.yul\":7536:7629   */\n      tag_229\n        /* \"#utility.yul\":7625:7628   */\n      dup3\n        /* \"#utility.yul\":7536:7629   */\n      tag_117\n      jump\t// in\n    tag_229:\n        /* \"#utility.yul\":7654:7656   */\n      0x20\n        /* \"#utility.yul\":7649:7652   */\n      dup3\n        /* \"#utility.yul\":7645:7657   */\n      add\n        /* \"#utility.yul\":7638:7657   */\n      swap1\n      pop\n        /* \"#utility.yul\":7297:7663   */\n      swap2\n      swap1\n      pop\n      jump\t// out\n        /* \"#utility.yul\":7669:8088   */\n    tag_45:\n        /* \"#utility.yul\":7835:7839   */\n      0x00\n        /* \"#utility.yul\":7873:7875   */\n      0x20\n        /* \"#utility.yul\":7862:7871   */\n      dup3\n        /* \"#utility.yul\":7858:7876   */\n      add\n        /* \"#utility.yul\":7850:7876   */\n      swap1\n      pop\n        /* \"#utility.yul\":7922:7931   */\n      dup2\n        /* \"#utility.yul\":7916:7920   */\n      dup2\n        /* \"#utility.yul\":7912:7932   */\n      sub\n        /* \"#utility.yul\":7908:7909   */\n      0x00\n        /* \"#utility.yul\":7897:7906   */\n      dup4\n        /* \"#utility.yul\":7893:7910   */\n      add\n        /* \"#utility.yul\":7886:7933   */\n      mstore\n        /* \"#utility.yul\":7950:8081   */\n      tag_231\n        /* \"#utility.yul\":8076:8080   */\n      dup2\n        /* \"#utility.yul\":7950:8081   */\n      tag_118\n      jump\t// in\n    tag_231:\n        /* \"#utility.yul\":7942:8081   */\n      swap1\n      pop\n        /* \"#utility.yul\":7669:8088   */\n      swap2\n      swap1\n      pop\n      jump\t// out\n        /* \"#utility.yul\":8094:8260   */\n    tag_119:\n        /* \"#utility.yul\":8234:8252   */\n      0x566f74696e672068617320656e64656400000000000000000000000000000000\n        /* \"#utility.yul\":8230:8231   */\n      0x00\n        /* \"#utility.yul\":8222:8228   */\n      dup3\n        /* \"#utility.yul\":8218:8232   */\n      add\n        /* \"#utility.yul\":8211:8253   */\n      mstore\n        /* \"#utility.yul\":8094:8260   */\n      pop\n      jump\t// out\n        /* \"#utility.yul\":8266:8632   */\n    tag_120:\n        /* \"#utility.yul\":8408:8411   */\n      0x00\n        /* \"#utility.yul\":8429:8496   */\n      tag_234\n        /* \"#utility.yul\":8493:8495   */\n      0x10\n        /* \"#utility.yul\":8488:8491   */\n      dup4\n        /* \"#utility.yul\":8429:8496   */\n      tag_97\n      jump\t// in\n    tag_234:\n        /* \"#utility.yul\":8422:8496   */\n      swap2\n      pop\n        /* \"#utility.yul\":8505:8598   */\n      tag_235\n        /* \"#utility.yul\":8594:8597   */\n      dup3\n        /* \"#utility.yul\":8505:8598   */\n      tag_119\n      jump\t// in\n    tag_235:\n        /* \"#utility.yul\":8623:8625   */\n      0x20\n        /* \"#utility.yul\":8618:8621   */\n      dup3\n        /* \"#utility.yul\":8614:8626   */\n      add\n        /* \"#utility.yul\":8607:8626   */\n      swap1\n      pop\n        /* \"#utility.yul\":8266:8632   */\n      swap2\n      swap1\n      pop\n      jump\t// out\n        /* \"#utility.yul\":8638:9057   */\n    tag_48:\n        /* \"#utility.yul\":8804:8808   */\n      0x00\n        /* \"#utility.yul\":8842:8844   */\n      0x20\n        /* \"#utility.yul\":8831:8840   */\n      dup3\n        /* \"#utility.yul\":8827:8845   */\n      add\n        /* \"#utility.yul\":8819:8845   */\n      swap1\n      pop\n        /* \"#utility.yul\":8891:8900   */\n      dup2\n        /* \"#utility.yul\":8885:8889   */\n      dup2\n        /* \"#utility.yul\":8881:8901   */\n      sub\n        /* \"#utility.yul\":8877:8878   */\n      0x00\n        /* \"#utility.yul\":8866:8875   */\n      dup4\n        /* \"#utility.yul\":8862:8879   */\n      add\n        /* \"#utility.yul\":8855:8902   */\n      mstore\n        /* \"#utility.yul\":8919:9050   */\n      tag_237\n        /* \"#utility.yul\":9045:9049   */\n      dup2\n        /* \"#utility.yul\":8919:9050   */\n      tag_120\n      jump\t// in\n    tag_237:\n        /* \"#utility.yul\":8911:9050   */\n      swap1\n      pop\n        /* \"#utility.yul\":8638:9057   */\n      swap2\n      swap1\n      pop\n      jump\t// out\n        /* \"#utility.yul\":9063:9226   */\n    tag_121:\n        /* \"#utility.yul\":9203:9218   */\n      0x416c726561647920766f74656400000000000000000000000000000000000000\n        /* \"#utility.yul\":9199:9200   */\n      0x00\n        /* \"#utility.yul\":9191:9197   */\n      dup3\n        /* \"#utility.yul\":9187:9201   */\n      add\n        /* \"#utility.yul\":9180:9219   */\n      mstore\n        /* \"#utility.yul\":9063:9226   */\n      pop\n      jump\t// out\n        /* \"#utility.yul\":9232:9598   */\n    tag_122:\n        /* \"#utility.yul\":9374:9377   */\n      0x00\n        /* \"#utility.yul\":9395:9462   */\n      tag_240\n        /* \"#utility.yul\":9459:9461   */\n      0x0d\n        /* \"#utility.yul\":9454:9457   */\n      dup4\n        /* \"#utility.yul\":9395:9462   */\n      tag_97\n      jump\t// in\n    tag_240:\n        /* \"#utility.yul\":9388:9462   */\n      swap2\n      pop\n        /* \"#utility.yul\":9471:9564   */\n      tag_241\n        /* \"#utility.yul\":9560:9563   */\n      dup3\n        /* \"#utility.yul\":9471:9564   */\n      tag_121\n      jump\t// in\n    tag_241:\n        /* \"#utility.yul\":9589:9591   */\n      0x20\n        /* \"#utility.yul\":9584:9587   */\n      dup3\n        /* \"#utility.yul\":9580:9592   */\n      add\n        /* \"#utility.yul\":9573:9592   */\n      swap1\n      pop\n        /* \"#utility.yul\":9232:9598   */\n      swap2\n      swap1\n      pop\n      jump\t// out\n        /* \"#utility.yul\":9604:10023   */\n    tag_51:\n        /* \"#utility.yul\":9770:9774   */\n      0x00\n        /* \"#utility.yul\":9808:9810   */\n      0x20\n        /* \"#utility.yul\":9797:9806   */\n      dup3\n        /* \"#utility.yul\":9793:9811   */\n      add\n        /* \"#utility.yul\":9785:9811   */\n      swap1\n      pop\n        /* \"#utility.yul\":9857:9866   */\n      dup2\n        /* \"#utility.yul\":9851:9855   */\n      dup2\n        /* \"#utility.yul\":9847:9867   */\n      sub\n        /* \"#utility.yul\":9843:9844   */\n      0x00\n        /* \"#utility.yul\":9832:9841   */\n      dup4\n        /* \"#utility.yul\":9828:9845   */\n      add\n        /* \"#utility.yul\":9821:9868   */\n      mstore\n        /* \"#utility.yul\":9885:10016   */\n      tag_243\n        /* \"#utility.yul\":10011:10015   */\n      dup2\n        /* \"#utility.yul\":9885:10016   */\n      tag_122\n      jump\t// in\n    tag_243:\n        /* \"#utility.yul\":9877:10016   */\n      swap1\n      pop\n        /* \"#utility.yul\":9604:10023   */\n      swap2\n      swap1\n      pop\n      jump\t// out\n        /* \"#utility.yul\":10029:10209   */\n    tag_123:\n        /* \"#utility.yul\":10077:10154   */\n      0x4e487b7100000000000000000000000000000000000000000000000000000000\n        /* \"#utility.yul\":10074:10075   */\n      0x00\n        /* \"#utility.yul\":10067:10155   */\n      mstore\n        /* \"#utility.yul\":10174:10178   */\n      0x11\n        /* \"#utility.yul\":10171:10172   */\n      0x04\n        /* \"#utility.yul\":10164:10179   */\n      mstore\n        /* \"#utility.yul\":10198:10202   */\n      0x24\n        /* \"#utility.yul\":10195:10196   */\n      0x00\n        /* \"#utility.yul\":10188:10203   */\n      revert\n        /* \"#utility.yul\":10215:10448   */\n    tag_53:\n        /* \"#utility.yul\":10254:10257   */\n      0x00\n        /* \"#utility.yul\":10277:10301   */\n      tag_246\n        /* \"#utility.yul\":10295:10300   */\n      dup3\n        /* \"#utility.yul\":10277:10301   */\n      tag_93\n      jump\t// in\n    tag_246:\n        /* \"#utility.yul\":10268:10301   */\n      swap2\n      pop\n        /* \"#utility.yul\":10323:10389   */\n      0xffffffffffffffffffffffffffffffffffffffffffffffffffffffffffffffff\n        /* \"#utility.yul\":10316:10321   */\n      dup3\n        /* \"#utility.yul\":10313:10390   */\n      sub\n        /* \"#utility.yul\":10310:10413   */\n      tag_247\n      jumpi\n        /* \"#utility.yul\":10393:10411   */\n      tag_248\n      tag_123\n      jump\t// in\n    tag_248:\n        /* \"#utility.yul\":10310:10413   */\n    tag_247:\n        /* \"#utility.yul\":10440:10441   */\n      0x01\n        /* \"#utility.yul\":10433:10438   */\n      dup3\n        /* \"#utility.yul\":10429:10442   */\n      add\n        /* \"#utility.yul\":10422:10442   */\n      swap1\n      pop\n        /* \"#utility.yul\":10215:10448   */\n      swap2\n      swap1\n      pop\n      jump\t// out\n        /* \"#utility.yul\":10454:10634   */\n    tag_124:\n        /* \"#utility.yul\":10502:10579   */\n      0x4e487b7100000000000000000000000000000000000000000000000000000000\n        /* \"#utility.yul\":10499:10500   */\n      0x00\n        /* \"#utility.yul\":10492:10580   */\n      mstore\n        /* \"#utility.yul\":10599:10603   */\n      0x22\n        /* \"#utility.yul\":10596:10597   */\n      0x04\n        /* \"#utility.yul\":10589:10604   */\n      mstore\n        /* \"#utility.yul\":10623:10627   */\n      0x24\n        /* \"#utility.yul\":10620:10621   */\n      0x00\n        /* \"#utility.yul\":10613:10628   */\n      revert\n        /* \"#utility.yul\":10640:10960   */\n    tag_55:\n        /* \"#utility.yul\":10684:10690   */\n      0x00\n        /* \"#utility.yul\":10721:10722   */\n      0x02\n        /* \"#utility.yul\":10715:10719   */\n      dup3\n        /* \"#utility.yul\":10711:10723   */\n      div\n        /* \"#utility.yul\":10701:10723   */\n      swap1\n      pop\n        /* \"#utility.yul\":10768:10769   */\n      0x01\n        /* \"#utility.yul\":10762:10766   */\n      dup3\n        /* \"#utility.yul\":10758:10770   */\n      and\n        /* \"#utility.yul\":10789:10807   */\n      dup1\n        /* \"#utility.yul\":10779:10860   */\n      tag_251\n      jumpi\n        /* \"#utility.yul\":10845:10849   */\n      0x7f\n        /* \"#utility.yul\":10837:10843   */\n      dup3\n        /* \"#utility.yul\":10833:10850   */\n      and\n        /* \"#utility.yul\":10823:10850   */\n      swap2\n      pop\n        /* \"#utility.yul\":10779:10860   */\n    tag_251:\n        /* \"#utility.yul\":10907:10909   */\n      0x20\n        /* \"#utility.yul\":10899:10905   */\n      dup3\n        /* \"#utility.yul\":10896:10910   */\n      lt\n        /* \"#utility.yul\":10876:10894   */\n      dup2\n        /* \"#utility.yul\":10873:10911   */\n      sub\n        /* \"#utility.yul\":10870:10954   */\n      tag_252\n      jumpi\n        /* \"#utility.yul\":10926:10944   */\n      tag_253\n      tag_124\n      jump\t// in\n    tag_253:\n        /* \"#utility.yul\":10870:10954   */\n    tag_252:\n        /* \"#utility.yul\":10691:10960   */\n      pop\n        /* \"#utility.yul\":10640:10960   */\n      swap2\n      swap1\n      pop\n      jump\t// out\n        /* \"#utility.yul\":10966:11136   */\n    tag_125:\n        /* \"#utility.yul\":11106:11128   */\n      0x4465736372697074696f6e207265717569726564000000000000000000000000\n        /* \"#utility.yul\":11102:11103   */\n      0x00\n        /* \"#utility.yul\":11094:11100   */\n      dup3\n        /* \"#utility.yul\":11090:11104   */\n      add\n        /* \"#utility.yul\":11083:11129   */\n      mstore\n        /* \"#utility.yul\":10966:11136   */\n      pop\n      jump\t// out\n        /* \"#utility.yul\":11142:11508   */\n    tag_126:\n        /* \"#utility.yul\":11284:11287   */\n      0x00\n        /* \"#utility.yul\":11305:11372   */\n      tag_256\n        /* \"#utility.yul\":11369:11371   */\n      0x14\n        /* \"#utility.yul\":11364:11367   */\n      dup4\n        /* \"#utility.yul\":11305:11372   */\n      tag_97\n      jump\t// in\n    tag_256:\n        /* \"#utility.yul\":11298:11372   */\n      swap2\n      pop\n        /* \"#utility.yul\":11381:11474   */\n      tag_257\n        /* \"#utility.yul\":11470:11473   */\n      dup3\n        /* \"#utility.yul\":11381:11474   */\n      tag_125\n      jump\t// in\n    tag_257:\n        /* \"#utility.yul\":11499:11501   */\n      0x20\n        /* \"#utility.yul\":11494:11497   */\n      dup3\n        /* \"#utility.yul\":11490:11502   */\n      add\n        /* \"#utility.yul\":11483:11502   */\n      swap1\n      pop\n        /* \"#utility.yul\":11142:11508   */\n      swap2\n      swap1\n      pop\n      jump\t// out\n        /* \"#utility.yul\":11514:11933   */\n    tag_63:\n        /* \"#utility.yul\":11680:11684   */\n      0x00\n        /* \"#utility.yul\":11718:11720   */\n      0x20\n        /* \"#utility.yul\":11707:11716   */\n      dup3\n        /* \"#utility.yul\":11703:11721   */\n      add\n        /* \"#utility.yul\":11695:11721   */\n      swap1\n      pop\n        /* \"#utility.yul\":11767:11776   */\n      dup2\n        /* \"#utility.yul\":11761:11765   */\n      dup2\n        /* \"#utility.yul\":11757:11777   */\n      sub\n        /* \"#utility.yul\":11753:11754   */\n      0x00\n        /* \"#utility.yul\":11742:11751   */\n      dup4\n        /* \"#utility.yul\":11738:11755   */\n      add\n        /* \"#utility.yul\":11731:11778   */\n      mstore\n        /* \"#utility.yul\":11795:11926   */\n      tag_259\n        /* \"#utility.yul\":11921:11925   */\n      dup2\n        /* \"#utility.yul\":11795:11926   */\n      tag_126\n      jump\t// in\n    tag_259:\n        /* \"#utility.yul\":11787:11926   */\n      swap1\n      pop\n        /* \"#utility.yul\":11514:11933   */\n      swap2\n      swap1\n      pop\n      jump\t// out\n        /* \"#utility.yul\":11939:12114   */\n    tag_127:\n        /* \"#utility.yul\":12079:12106   */\n      0x4475726174696f6e206d75737420626520706f73697469766500000000000000\n        /* \"#utility.yul\":12075:12076   */\n      0x00\n        /* \"#utility.yul\":12067:12073   */\n      dup3\n        /* \"#utility.yul\":12063:12077   */\n      add\n        /* \"#utility.yul\":12056:12107   */\n      mstore\n        /* \"#utility.yul\":11939:12114   */\n      pop\n      jump\t// out\n        /* \"#utility.yul\":12120:12486   */\n    tag_128:\n        /* \"#utility.yul\":12262:12265   */\n      0x00\n        /* \"#utility.yul\":12283:12350   */\n      tag_262\n        /* \"#utility.yul\":12347:12349   */\n      0x19\n        /* \"#utility.yul\":12342:12345   */\n      dup4\n        /* \"#utility.yul\":12283:12350   */\n      tag_97\n      jump\t// in\n    tag_262:\n        /* \"#utility.yul\":12276:12350   */\n      swap2\n      pop\n        /* \"#utility.yul\":12359:12452   */\n      tag_263\n        /* \"#utility.yul\":12448:12451   */\n      dup3\n        /* \"#utility.yul\":12359:12452   */\n      tag_127\n      jump\t// in\n    tag_263:\n        /* \"#utility.yul\":12477:12479   */\n      0x20\n        /* \"#utility.yul\":12472:12475   */\n      dup3\n        /* \"#utility.yul\":12468:12480   */\n      add\n        /* \"#utility.yul\":12461:12480   */\n      swap1\n      pop\n        /* \"#utility.yul\":12120:12486   */\n      swap2\n      swap1\n      pop\n      jump\t// out\n        /* \"#utility.yul\":12492:12911   */\n    tag_66:\n        /* \"#utility.yul\":12658:12662   */\n      0x00\n        /* \"#utility.yul\":12696:12698   */\n      0x20\n        /* \"#utility.yul\":12685:12694   */\n      dup3\n        /* \"#utility.yul\":12681:12699   */\n      add\n        /* \"#utility.yul\":12673:12699   */\n      swap1\n      pop\n        /* \"#utility.yul\":12745:12754   */\n      dup2\n        /* \"#utility.yul\":12739:12743   */\n      dup2\n        /* \"#utility.yul\":12735:12755   */\n      sub\n        /* \"#utility.yul\":12731:12732   */\n      0x00\n        /* \"#utility.yul\":12720:12729   */\n      dup4\n        /* \"#utility.yul\":12716:12733   */\n      add\n        /* \"#utility.yul\":12709:12756   */\n      mstore\n        /* \"#utility.yul\":12773:12904   */\n      tag_265\n        /* \"#utility.yul\":12899:12903   */\n      dup2\n        /* \"#utility.yul\":12773:12904   */\n      tag_128\n      jump\t// in\n    tag_265:\n        /* \"#utility.yul\":12765:12904   */\n      swap1\n      pop\n        /* \"#utility.yul\":12492:12911   */\n      swap2\n      swap1\n      pop\n      jump\t// out\n        /* \"#utility.yul\":12917:13058   */\n    tag_129:\n        /* \"#utility.yul\":12966:12970   */\n      0x00\n        /* \"#utility.yul\":12989:12992   */\n      dup2\n        /* \"#utility.yul\":12981:12992   */\n      swap1\n      pop\n        /* \"#utility.yul\":13012:13015   */\n      dup2\n        /* \"#utility.yul\":13009:13010   */\n      0x00\n        /* \"#utility.yul\":13002:13016   */\n      mstore\n        /* \"#utility.yul\":13046:13050   */\n      0x20\n        /* \"#utility.yul\":13043:13044   */\n      0x00\n        /* \"#utility.yul\":13033:13051   */\n      keccak256\n        /* \"#utility.yul\":13025:13051   */\n      swap1\n      pop\n        /* \"#utility.yul\":12917:13058   */\n      swap2\n      swap1\n      pop\n      jump\t// out\n        /* \"#utility.yul\":13064:13157   */\n    tag_130:\n        /* \"#utility.yul\":13101:13107   */\n      0x00\n        /* \"#utility.yul\":13148:13150   */\n      0x20\n        /* \"#utility.yul\":13143:13145   */\n      0x1f\n        /* \"#utility.yul\":13136:13141   */\n      dup4\n        /* \"#utility.yul\":13132:13146   */\n      add\n        /* \"#utility.yul\":13128:13151   */\n      div\n        /* \"#utility.yul\":13118:13151   */\n      swap1\n      pop\n        /* \"#utility.yul\":13064:13157   */\n      swap2\n      swap1\n      pop\n      jump\t// out\n        /* \"#utility.yul\":13163:13270   */\n    tag_131:\n        /* \"#utility.yul\":13207:13215   */\n      0x00\n        /* \"#utility.yul\":13257:13262   */\n      dup3\n        /* \"#utility.yul\":13251:13255   */\n      dup3\n        /* \"#utility.yul\":13247:13263   */\n      shl\n        /* \"#utility.yul\":13226:13263   */\n      swap1\n      pop\n        /* \"#utility.yul\":13163:13270   */\n      swap3\n      swap2\n      pop\n      pop\n      jump\t// out\n        /* \"#utility.yul\":13276:13669   */\n    tag_132:\n        /* \"#utility.yul\":13345:13351   */\n      0x00\n        /* \"#utility.yul\":13395:13396   */\n      0x08\n        /* \"#utility.yul\":13383:13393   */\n      dup4\n        /* \"#utility.yul\":13379:13397   */\n      mul\n        /* \"#utility.yul\":13418:13515   */\n      tag_270\n        /* \"#utility.yul\":13448:13514   */\n      0xffffffffffffffffffffffffffffffffffffffffffffffffffffffffffffffff\n        /* \"#utility.yul\":13437:13446   */\n      dup3\n        /* \"#utility.yul\":13418:13515   */\n      tag_131\n      jump\t// in\n    tag_270:\n        /* \"#utility.yul\":13536:13575   */\n      tag_271\n        /* \"#utility.yul\":13566:13574   */\n      dup7\n        /* \"#utility.yul\":13555:13564   */\n      dup4\n        /* \"#utility.yul\":13536:13575   */\n      tag_131\n      jump\t// in\n    tag_271:\n        /* \"#utility.yul\":13524:13575   */\n      swap6\n      pop\n        /* \"#utility.yul\":13608:13612   */\n      dup1\n        /* \"#utility.yul\":13604:13613   */\n      not\n        /* \"#utility.yul\":13597:13602   */\n      dup5\n        /* \"#utility.yul\":13593:13614   */\n      and\n        /* \"#utility.yul\":13584:13614   */\n      swap4\n      pop\n        /* \"#utility.yul\":13657:13661   */\n      dup1\n        /* \"#utility.yul\":13647:13655   */\n      dup7\n        /* \"#utility.yul\":13643:13662   */\n      and\n        /* \"#utility.yul\":13636:13641   */\n      dup5\n        /* \"#utility.yul\":13633:13663   */\n      or\n        /* \"#utility.yul\":13623:13663   */\n      swap3\n      pop\n        /* \"#utility.yul\":13352:13669   */\n      pop\n      pop\n        /* \"#utility.yul\":13276:13669   */\n      swap4\n      swap3\n      pop\n      pop\n      pop\n      jump\t// out\n        /* \"#utility.yul\":13675:13735   */\n    tag_133:\n        /* \"#utility.yul\":13703:13706   */\n      0x00\n        /* \"#utility.yul\":13724:13729   */\n      dup2\n        /* \"#utility.yul\":13717:13729   */\n      swap1\n      pop\n        /* \"#utility.yul\":13675:13735   */\n      swap2\n      swap1\n      pop\n      jump\t// out\n        /* \"#utility.yul\":13741:13883   */\n    tag_134:\n        /* \"#utility.yul\":13791:13800   */\n      0x00\n        /* \"#utility.yul\":13824:13877   */\n      tag_274\n        /* \"#utility.yul\":13842:13876   */\n      tag_275\n        /* \"#utility.yul\":13851:13875   */\n      tag_276\n        /* \"#utility.yul\":13869:13874   */\n      dup5\n        /* \"#utility.yul\":13851:13875   */\n      tag_93\n      jump\t// in\n    tag_276:\n        /* \"#utility.yul\":13842:13876   */\n      tag_133\n      jump\t// in\n    tag_275:\n        /* \"#utility.yul\":13824:13877   */\n      tag_93\n      jump\t// in\n    tag_274:\n        /* \"#utility.yul\":13811:13877   */\n      swap1\n      pop\n        /* \"#utility.yul\":13741:13883   */\n      swap2\n      swap1\n      pop\n      jump\t// out\n        /* \"#utility.yul\":13889:13964   */\n    tag_135:\n        /* \"#utility.yul\":13932:13935   */\n      0x00\n        /* \"#utility.yul\":13953:13958   */\n      dup2\n        /* \"#utility.yul\":13946:13958   */\n      swap1\n      pop\n        /* \"#utility.yul\":13889:13964   */\n      swap2\n      swap1\n      pop\n      jump\t// out\n        /* \"#utility.yul\":13970:14239   */\n    tag_136:\n        /* \"#utility.yul\":14080:14119   */\n      tag_279\n        /* \"#utility.yul\":14111:14118   */\n      dup4\n        /* \"#utility.yul\":14080:14119   */\n      tag_134\n      jump\t// in\n    tag_279:\n        /* \"#utility.yul\":14141:14232   */\n      tag_280\n        /* \"#utility.yul\":14190:14231   */\n      tag_281\n        /* \"#utility.yul\":14214:14230   */\n      dup3\n        /* \"#utility.yul\":14190:14231   */\n      tag_135\n      jump\t// in\n    tag_281:\n        /* \"#utility.yul\":14182:14188   */\n      dup5\n        /* \"#utility.yul\":14175:14179   */\n      dup5\n        /* \"#utility.yul\":14169:14180   */\n      sload\n        /* \"#utility.yul\":14141:14232   */\n      tag_132\n      jump\t// in\n    tag_280:\n        /* \"#utility.yul\":14135:14139   */\n      dup3\n        /* \"#utility.yul\":14128:14233   */\n      sstore\n        /* \"#utility.yul\":14046:14239   */\n      pop\n        /* \"#utility.yul\":13970:14239   */\n      pop\n      pop\n      pop\n      jump\t// out\n        /* \"#utility.yul\":14245:14318   */\n    tag_137:\n        /* \"#utility.yul\":14290:14293   */\n      0x00\n        /* \"#utility.yul\":14311:14312   */\n      0x00\n        /* \"#utility.yul\":14304:14312   */\n      swap1\n      pop\n        /* \"#utility.yul\":14245:14318   */\n      swap1\n      jump\t// out\n        /* \"#utility.yul\":14324:14513   */\n    tag_138:\n        /* \"#utility.yul\":14401:14433   */\n      tag_284\n      tag_137\n      jump\t// in\n    tag_284:\n        /* \"#utility.yul\":14442:14507   */\n      tag_285\n        /* \"#utility.yul\":14500:14506   */\n      dup2\n        /* \"#utility.yul\":14492:14498   */\n      dup5\n        /* \"#utility.yul\":14486:14490   */\n      dup5\n        /* \"#utility.yul\":14442:14507   */\n      tag_136\n      jump\t// in\n    tag_285:\n        /* \"#utility.yul\":14377:14513   */\n      pop\n        /* \"#utility.yul\":14324:14513   */\n      pop\n      pop\n      jump\t// out\n        /* \"#utility.yul\":14519:14705   */\n    tag_139:\n        /* \"#utility.yul\":14579:14699   */\n    tag_287:\n        /* \"#utility.yul\":14596:14599   */\n      dup2\n        /* \"#utility.yul\":14589:14594   */\n      dup2\n        /* \"#utility.yul\":14586:14600   */\n      lt\n        /* \"#utility.yul\":14579:14699   */\n      iszero\n      tag_289\n      jumpi\n        /* \"#utility.yul\":14650:14689   */\n      tag_290\n        /* \"#utility.yul\":14687:14688   */\n      0x00\n        /* \"#utility.yul\":14680:14685   */\n      dup3\n        /* \"#utility.yul\":14650:14689   */\n      tag_138\n      jump\t// in\n    tag_290:\n        /* \"#utility.yul\":14623:14624   */\n      0x01\n        /* \"#utility.yul\":14616:14621   */\n      dup2\n        /* \"#utility.yul\":14612:14625   */\n      add\n        /* \"#utility.yul\":14603:14625   */\n      swap1\n      pop\n        /* \"#utility.yul\":14579:14699   */\n      jump(tag_287)\n    tag_289:\n        /* \"#utility.yul\":14519:14705   */\n      pop\n      pop\n      jump\t// out\n        /* \"#utility.yul\":14711:15254   */\n    tag_140:\n        /* \"#utility.yul\":14812:14814   */\n      0x1f\n        /* \"#utility.yul\":14807:14810   */\n      dup3\n        /* \"#utility.yul\":14804:14815   */\n      gt\n        /* \"#utility.yul\":14801:15247   */\n      iszero\n      tag_292\n      jumpi\n        /* \"#utility.yul\":14846:14884   */\n      tag_293\n        /* \"#utility.yul\":14878:14883   */\n      dup2\n        /* \"#utility.yul\":14846:14884   */\n      tag_129\n      jump\t// in\n    tag_293:\n        /* \"#utility.yul\":14930:14959   */\n      tag_294\n        /* \"#utility.yul\":14948:14958   */\n      dup5\n        /* \"#utility.yul\":14930:14959   */\n      tag_130\n      jump\t// in\n    tag_294:\n        /* \"#utility.yul\":14920:14928   */\n      dup2\n        /* \"#utility.yul\":14916:14960   */\n      add\n        /* \"#utility.yul\":15113:15115   */\n      0x20\n        /* \"#utility.yul\":15101:15111   */\n      dup6\n        /* \"#utility.yul\":15098:15116   */\n      lt\n        /* \"#utility.yul\":15095:15144   */\n      iszero\n      tag_295\n      jumpi\n        /* \"#utility.yul\":15134:15142   */\n      dup2\n        /* \"#utility.yul\":15119:15142   */\n      swap1\n      pop\n        /* \"#utility.yul\":15095:15144   */\n    tag_295:\n        /* \"#utility.yul\":15157:15237   */\n      tag_296\n        /* \"#utility.yul\":15213:15235   */\n      tag_297\n        /* \"#utility.yul\":15231:15234   */\n      dup6\n        /* \"#utility.yul\":15213:15235   */\n      tag_130\n      jump\t// in\n    tag_297:\n        /* \"#utility.yul\":15203:15211   */\n      dup4\n        /* \"#utility.yul\":15199:15236   */\n      add\n        /* \"#utility.yul\":15186:15197   */\n      dup3\n        /* \"#utility.yul\":15157:15237   */\n      tag_139\n      jump\t// in\n    tag_296:\n        /* \"#utility.yul\":14816:15247   */\n      pop\n      pop\n        /* \"#utility.yul\":14801:15247   */\n    tag_292:\n        /* \"#utility.yul\":14711:15254   */\n      pop\n      pop\n      pop\n      jump\t// out\n        /* \"#utility.yul\":15260:15377   */\n    tag_141:\n        /* \"#utility.yul\":15314:15322   */\n      0x00\n        /* \"#utility.yul\":15364:15369   */\n      dup3\n        /* \"#utility.yul\":15358:15362   */\n      dup3\n        /* \"#utility.yul\":15354:15370   */\n      shr\n        /* \"#utility.yul\":15333:15370   */\n      swap1\n      pop\n        /* \"#utility.yul\":15260:15377   */\n      swap3\n      swap2\n      pop\n      pop\n      jump\t// out\n        /* \"#utility.yul\":15383:15552   */\n    tag_142:\n        /* \"#utility.yul\":15427:15433   */\n      0x00\n        /* \"#utility.yul\":15460:15511   */\n      tag_300\n        /* \"#utility.yul\":15508:15509   */\n      0x00\n        /* \"#utility.yul\":15504:15510   */\n      not\n        /* \"#utility.yul\":15496:15501   */\n      dup5\n        /* \"#utility.yul\":15493:15494   */\n      0x08\n        /* \"#utility.yul\":15489:15502   */\n      mul\n        /* \"#utility.yul\":15460:15511   */\n      tag_141\n      jump\t// in\n    tag_300:\n        /* \"#utility.yul\":15456:15512   */\n      not\n        /* \"#utility.yul\":15541:15545   */\n      dup1\n        /* \"#utility.yul\":15535:15539   */\n      dup4\n        /* \"#utility.yul\":15531:15546   */\n      and\n        /* \"#utility.yul\":15521:15546   */\n      swap2\n      pop\n        /* \"#utility.yul\":15434:15552   */\n      pop\n        /* \"#utility.yul\":15383:15552   */\n      swap3\n      swap2\n      pop\n      pop\n      jump\t// out\n        /* \"#utility.yul\":15557:15852   */\n    tag_143:\n        /* \"#utility.yul\":15633:15637   */\n      0x00\n        /* \"#utility.yul\":15779:15808   */\n      tag_302\n        /* \"#utility.yul\":15804:15807   */\n      dup4\n        /* \"#utility.yul\":15798:15802   */\n      dup4\n        /* \"#utility.yul\":15779:15808   */\n      tag_142\n      jump\t// in\n    tag_302:\n        /* \"#utility.yul\":15771:15808   */\n      swap2\n      pop\n        /* \"#utility.yul\":15841:15844   */\n      dup3\n        /* \"#utility.yul\":15838:15839   */\n      0x02\n        /* \"#utility.yul\":15834:15845   */\n      mul\n        /* \"#utility.yul\":15828:15832   */\n      dup3\n        /* \"#utility.yul\":15825:15846   */\n      or\n        /* \"#utility.yul\":15817:15846   */\n      swap1\n      pop\n        /* \"#utility.yul\":15557:15852   */\n      swap3\n      swap2\n      pop\n      pop\n      jump\t// out\n        /* \"#utility.yul\":15857:17252   */\n    tag_69:\n        /* \"#utility.yul\":15974:16011   */\n      tag_304\n        /* \"#utility.yul\":16007:16010   */\n      dup3\n        /* \"#utility.yul\":15974:16011   */\n      tag_96\n      jump\t// in\n    tag_304:\n        /* \"#utility.yul\":16076:16094   */\n      0xffffffffffffffff\n        /* \"#utility.yul\":16068:16074   */\n      dup2\n        /* \"#utility.yul\":16065:16095   */\n      gt\n        /* \"#utility.yul\":16062:16118   */\n      iszero\n      tag_305\n      jumpi\n        /* \"#utility.yul\":16098:16116   */\n      tag_306\n      tag_106\n      jump\t// in\n    tag_306:\n        /* \"#utility.yul\":16062:16118   */\n    tag_305:\n        /* \"#utility.yul\":16142:16180   */\n      tag_307\n        /* \"#utility.yul\":16174:16178   */\n      dup3\n        /* \"#utility.yul\":16168:16179   */\n      sload\n        /* \"#utility.yul\":16142:16180   */\n      tag_55\n      jump\t// in\n    tag_307:\n        /* \"#utility.yul\":16227:16294   */\n      tag_308\n        /* \"#utility.yul\":16287:16293   */\n      dup3\n        /* \"#utility.yul\":16279:16285   */\n      dup3\n        /* \"#utility.yul\":16273:16277   */\n      dup6\n        /* \"#utility.yul\":16227:16294   */\n      tag_140\n      jump\t// in\n    tag_308:\n        /* \"#utility.yul\":16321:16322   */\n      0x00\n        /* \"#utility.yul\":16345:16349   */\n      0x20\n        /* \"#utility.yul\":16332:16349   */\n      swap1\n      pop\n        /* \"#utility.yul\":16377:16379   */\n      0x1f\n        /* \"#utility.yul\":16369:16375   */\n      dup4\n        /* \"#utility.yul\":16366:16380   */\n      gt\n        /* \"#utility.yul\":16394:16395   */\n      0x01\n        /* \"#utility.yul\":16389:17007   */\n      dup2\n      eq\n      tag_310\n      jumpi\n        /* \"#utility.yul\":17051:17052   */\n      0x00\n        /* \"#utility.yul\":17068:17074   */\n      dup5\n        /* \"#utility.yul\":17065:17142   */\n      iszero\n      tag_311\n      jumpi\n        /* \"#utility.yul\":17117:17126   */\n      dup3\n        /* \"#utility.yul\":17112:17115   */\n      dup8\n        /* \"#utility.yul\":17108:17127   */\n      add\n        /* \"#utility.yul\":17102:17128   */\n      mload\n        /* \"#utility.yul\":17093:17128   */\n      swap1\n      pop\n        /* \"#utility.yul\":17065:17142   */\n    tag_311:\n        /* \"#utility.yul\":17168:17235   */\n      tag_312\n        /* \"#utility.yul\":17228:17234   */\n      dup6\n        /* \"#utility.yul\":17221:17226   */\n      dup3\n        /* \"#utility.yul\":17168:17235   */\n      tag_143\n      jump\t// in\n    tag_312:\n        /* \"#utility.yul\":17162:17166   */\n      dup7\n        /* \"#utility.yul\":17155:17236   */\n      sstore\n        /* \"#utility.yul\":17024:17246   */\n      pop\n        /* \"#utility.yul\":16359:17246   */\n      jump(tag_309)\n        /* \"#utility.yul\":16389:17007   */\n    tag_310:\n        /* \"#utility.yul\":16441:16445   */\n      0x1f\n        /* \"#utility.yul\":16437:16446   */\n      not\n        /* \"#utility.yul\":16429:16435   */\n      dup5\n        /* \"#utility.yul\":16425:16447   */\n      and\n        /* \"#utility.yul\":16475:16512   */\n      tag_313\n        /* \"#utility.yul\":16507:16511   */\n      dup7\n        /* \"#utility.yul\":16475:16512   */\n      tag_129\n      jump\t// in\n    tag_313:\n        /* \"#utility.yul\":16534:16535   */\n      0x00\n        /* \"#utility.yul\":16548:16756   */\n    tag_314:\n        /* \"#utility.yul\":16562:16569   */\n      dup3\n        /* \"#utility.yul\":16559:16560   */\n      dup2\n        /* \"#utility.yul\":16556:16570   */\n      lt\n        /* \"#utility.yul\":16548:16756   */\n      iszero\n      tag_316\n      jumpi\n        /* \"#utility.yul\":16641:16650   */\n      dup5\n        /* \"#utility.yul\":16636:16639   */\n      dup10\n        /* \"#utility.yul\":16632:16651   */\n      add\n        /* \"#utility.yul\":16626:16652   */\n      mload\n        /* \"#utility.yul\":16618:16624   */\n      dup3\n        /* \"#utility.yul\":16611:16653   */\n      sstore\n        /* \"#utility.yul\":16692:16693   */\n      0x01\n        /* \"#utility.yul\":16684:16690   */\n      dup3\n        /* \"#utility.yul\":16680:16694   */\n      add\n        /* \"#utility.yul\":16670:16694   */\n      swap2\n      pop\n        /* \"#utility.yul\":16739:16741   */\n      0x20\n        /* \"#utility.yul\":16728:16737   */\n      dup6\n        /* \"#utility.yul\":16724:16742   */\n      add\n        /* \"#utility.yul\":16711:16742   */\n      swap5\n      pop\n        /* \"#utility.yul\":16585:16589   */\n      0x20\n        /* \"#utility.yul\":16582:16583   */\n      dup2\n        /* \"#utility.yul\":16578:16590   */\n      add\n        /* \"#utility.yul\":16573:16590   */\n      swap1\n      pop\n        /* \"#utility.yul\":16548:16756   */\n      jump(tag_314)\n    tag_316:\n        /* \"#utility.yul\":16784:16790   */\n      dup7\n        /* \"#utility.yul\":16775:16782   */\n      dup4\n        /* \"#utility.yul\":16772:16791   */\n      lt\n        /* \"#utility.yul\":16769:16948   */\n      iszero\n      tag_317\n      jumpi\n        /* \"#utility.yul\":16842:16851   */\n      dup5\n        /* \"#utility.yul\":16837:16840   */\n      dup10\n        /* \"#utility.yul\":16833:16852   */\n      add\n        /* \"#utility.yul\":16827:16853   */\n      mload\n        /* \"#utility.yul\":16885:16933   */\n      tag_318\n        /* \"#utility.yul\":16927:16931   */\n      0x1f\n        /* \"#utility.yul\":16919:16925   */\n      dup10\n        /* \"#utility.yul\":16915:16932   */\n      and\n        /* \"#utility.yul\":16904:16913   */\n      dup3\n        /* \"#utility.yul\":16885:16933   */\n      tag_142\n      jump\t// in\n    tag_318:\n        /* \"#utility.yul\":16877:16883   */\n      dup4\n        /* \"#utility.yul\":16870:16934   */\n      sstore\n        /* \"#utility.yul\":16792:16948   */\n      pop\n        /* \"#utility.yul\":16769:16948   */\n    tag_317:\n        /* \"#utility.yul\":16994:16995   */\n      0x01\n        /* \"#utility.yul\":16990:16991   */\n      0x02\n        /* \"#utility.yul\":16982:16988   */\n      dup9\n        /* \"#utility.yul\":16978:16992   */\n      mul\n        /* \"#utility.yul\":16974:16996   */\n      add\n        /* \"#utility.yul\":16968:16972   */\n      dup9\n        /* \"#utility.yul\":16961:16997   */\n      sstore\n        /* \"#utility.yul\":16396:17007   */\n      pop\n      pop\n      pop\n        /* \"#utility.yul\":16359:17246   */\n    tag_309:\n      pop\n        /* \"#utility.yul\":15949:17252   */\n      pop\n      pop\n      pop\n        /* \"#utility.yul\":15857:17252   */\n      pop\n      pop\n      jump\t// out\n        /* \"#utility.yul\":17258:17449   */\n    tag_71:\n        /* \"#utility.yul\":17298:17301   */\n      0x00\n        /* \"#utility.yul\":17317:17337   */\n      tag_320\n        /* \"#utility.yul\":17335:17336   */\n      dup3\n        /* \"#utility.yul\":17317:17337   */\n      tag_93\n      jump\t// in\n    tag_320:\n        /* \"#utility.yul\":17312:17337   */\n      swap2\n      pop\n        /* \"#utility.yul\":17351:17371   */\n      tag_321\n        /* \"#utility.yul\":17369:17370   */\n      dup4\n        /* \"#utility.yul\":17351:17371   */\n      tag_93\n      jump\t// in\n    tag_321:\n        /* \"#utility.yul\":17346:17371   */\n      swap3\n      pop\n        /* \"#utility.yul\":17394:17395   */\n      dup3\n        /* \"#utility.yul\":17391:17392   */\n      dup3\n        /* \"#utility.yul\":17387:17396   */\n      add\n        /* \"#utility.yul\":17380:17396   */\n      swap1\n      pop\n        /* \"#utility.yul\":17415:17418   */\n      dup1\n        /* \"#utility.yul\":17412:17413   */\n      dup3\n        /* \"#utility.yul\":17409:17419   */\n      gt\n        /* \"#utility.yul\":17406:17442   */\n      iszero\n      tag_322\n      jumpi\n        /* \"#utility.yul\":17422:17440   */\n      tag_323\n      tag_123\n      jump\t// in\n    tag_323:\n        /* \"#utility.yul\":17406:17442   */\n    tag_322:\n        /* \"#utility.yul\":17258:17449   */\n      swap3\n      swap2\n      pop\n      pop\n      jump\t// out\n        /* \"#utility.yul\":17455:17768   */\n    tag_73:\n        /* \"#utility.yul\":17568:17572   */\n      0x00\n        /* \"#utility.yul\":17606:17608   */\n      0x20\n        /* \"#utility.yul\":17595:17604   */\n      dup3\n        /* \"#utility.yul\":17591:17609   */\n      add\n        /* \"#utility.yul\":17583:17609   */\n      swap1\n      pop\n        /* \"#utility.yul\":17655:17664   */\n      dup2\n        /* \"#utility.yul\":17649:17653   */\n      dup2\n        /* \"#utility.yul\":17645:17665   */\n      sub\n        /* \"#utility.yul\":17641:17642   */\n      0x00\n        /* \"#utility.yul\":17630:17639   */\n      dup4\n        /* \"#utility.yul\":17626:17643   */\n      add\n        /* \"#utility.yul\":17619:17666   */\n      mstore\n        /* \"#utility.yul\":17683:17761   */\n      tag_325\n        /* \"#utility.yul\":17756:17760   */\n      dup2\n        /* \"#utility.yul\":17747:17753   */\n      dup5\n        /* \"#utility.yul\":17683:17761   */\n      tag_100\n      jump\t// in\n    tag_325:\n        /* \"#utility.yul\":17675:17761   */\n      swap1\n      pop\n        /* \"#utility.yul\":17455:17768   */\n      swap3\n      swap2\n      pop\n      pop\n      jump\t// out\n\n    auxdata: 0xa26469706673582212209a1f97debe72c1f04d48f75fe5198fd5fdb891a2de4ff039d7a5a754d64d98af64736f6c634300081f0033\n}\n",
				"bytecode": {
					"linkReferences": {},
					"object": "6080604052348015600e575f5ffd5b506111098061001c5f395ff3fe608060405234801561000f575f5ffd5b506004361061007b575f3560e01c8063438596321161005957806343859632146100fe578063a51346201461012e578063bc903cb81461014c578063da35c6641461017f5761007b565b80630121b93f1461007f578063013cf08b1461009b57806335facf78146100ce575b5f5ffd5b610099600480360381019061009491906107da565b61019d565b005b6100b560048036038101906100b091906107da565b61037e565b6040516100c5949392919061089e565b60405180910390f35b6100e860048036038101906100e39190610a14565b61043b565b6040516100f59190610a6e565b60405180910390f35b61011860048036038101906101139190610ae1565b610579565b6040516101259190610b1f565b60405180910390f35b610136610621565b6040516101439190610a6e565b60405180910390f35b610166600480360381019061016191906107da565b61067c565b604051610176949392919061089e565b60405180910390f35b610187610790565b6040516101949190610a6e565b60405180910390f35b60015481106101e1576040517f08c379a00000000000000000000000000000000000000000000000000000000081526004016101d890610b82565b60405180910390fd5b5f5f5f8381526020019081526020015f2090508060020154421061023a576040517f08c379a000000000000000000000000000000000000000000000000000000000815260040161023190610bea565b60405180910390fd5b806004015f3373ffffffffffffffffffffffffffffffffffffffff1673ffffffffffffffffffffffffffffffffffffffff1681526020019081526020015f205f9054906101000a900460ff16156102c6576040517f08c379a00000000000000000000000000000000000000000000000000000000081526004016102bd90610c52565b60405180910390fd5b6001816004015f3373ffffffffffffffffffffffffffffffffffffffff1673ffffffffffffffffffffffffffffffffffffffff1681526020019081526020015f205f6101000a81548160ff021916908315150217905550806001015f81548092919061033190610c9d565b91905055503373ffffffffffffffffffffffffffffffffffffffff16827f030b0f8dcd86a031eddb071f91882edeac8173663ba775713b677b42b51be44b60405160405180910390a35050565b5f602052805f5260405f205f91509050805f01805461039c90610d11565b80601f01602080910402602001604051908101604052809291908181526020018280546103c890610d11565b80156104135780601f106103ea57610100808354040283529160200191610413565b820191905f5260205f20905b8154815290600101906020018083116103f657829003601f168201915b505050505090806001015490806002015490806003015f9054906101000a900460ff16905084565b5f5f83511161047f576040517f08c379a000000000000000000000000000000000000000000000000000000000815260040161047690610d8b565b60405180910390fd5b5f82116104c1576040517f08c379a00000000000000000000000000000000000000000000000000000000081526004016104b890610df3565b60405180910390fd5b5f60015f8154809291906104d490610c9d565b9190505590505f5f5f8381526020019081526020015f20905084815f0190816104fd9190610fb1565b505f816001018190555083426105139190611080565b81600201819055505f816003015f6101000a81548160ff021916908315150217905550817f9c770c289ab5bf7e57cb1d23c8ceae993aea46eb64847072fd3d78ca60d3e4328660405161056691906110b3565b60405180910390a2819250505092915050565b5f60015483106105be576040517f08c379a00000000000000000000000000000000000000000000000000000000081526004016105b590610b82565b60405180910390fd5b5f5f8481526020019081526020015f206004015f8373ffffffffffffffffffffffffffffffffffffffff1673ffffffffffffffffffffffffffffffffffffffff1681526020019081526020015f205f9054906101000a900460ff16905092915050565b5f5f5f90505f5f90505b60015481101561067757815f5f8381526020019081526020015f2060010154111561066a575f5f8281526020019081526020015f206001015491508092505b808060010191505061062b565b505090565b60605f5f5f60015485106106c5576040517f08c379a00000000000000000000000000000000000000000000000000000000081526004016106bc90610b82565b60405180910390fd5b5f5f5f8781526020019081526020015f209050805f0181600101548260020154836003015f9054906101000a900460ff1683805461070290610d11565b80601f016020809104026020016040519081016040528092919081815260200182805461072e90610d11565b80156107795780601f1061075057610100808354040283529160200191610779565b820191905f5260205f20905b81548152906001019060200180831161075c57829003601f168201915b505050505093509450945094509450509193509193565b60015481565b5f604051905090565b5f5ffd5b5f5ffd5b5f819050919050565b6107b9816107a7565b81146107c3575f5ffd5b50565b5f813590506107d4816107b0565b92915050565b5f602082840312156107ef576107ee61079f565b5b5f6107fc848285016107c6565b91505092915050565b5f81519050919050565b5f82825260208201905092915050565b8281835e5f83830152505050565b5f601f19601f8301169050919050565b5f61084782610805565b610851818561080f565b935061086181856020860161081f565b61086a8161082d565b840191505092915050565b61087e816107a7565b82525050565b5f8115159050919050565b61089881610884565b82525050565b5f6080820190508181035f8301526108b6818761083d565b90506108c56020830186610875565b6108d26040830185610875565b6108df606083018461088f565b95945050505050565b5f5ffd5b5f5ffd5b7f4e487b71000000000000000000000000000000000000000000000000000000005f52604160045260245ffd5b6109268261082d565b810181811067ffffffffffffffff82111715610945576109446108f0565b5b80604052505050565b5f610957610796565b9050610963828261091d565b919050565b5f67ffffffffffffffff821115610982576109816108f0565b5b61098b8261082d565b9050602081019050919050565b828183375f83830152505050565b5f6109b86109b384610968565b61094e565b9050828152602081018484840111156109d4576109d36108ec565b5b6109df848285610998565b509392505050565b5f82601f8301126109fb576109fa6108e8565b5b8135610a0b8482602086016109a6565b91505092915050565b5f5f60408385031215610a2a57610a2961079f565b5b5f83013567ffffffffffffffff811115610a4757610a466107a3565b5b610a53858286016109e7565b9250506020610a64858286016107c6565b9150509250929050565b5f602082019050610a815f830184610875565b92915050565b5f73ffffffffffffffffffffffffffffffffffffffff82169050919050565b5f610ab082610a87565b9050919050565b610ac081610aa6565b8114610aca575f5ffd5b50565b5f81359050610adb81610ab7565b92915050565b5f5f60408385031215610af757610af661079f565b5b5f610b04858286016107c6565b9250506020610b1585828601610acd565b9150509250929050565b5f602082019050610b325f83018461088f565b92915050565b7f50726f706f73616c20646f6573206e6f742065786973740000000000000000005f82015250565b5f610b6c60178361080f565b9150610b7782610b38565b602082019050919050565b5f6020820190508181035f830152610b9981610b60565b9050919050565b7f566f74696e672068617320656e646564000000000000000000000000000000005f82015250565b5f610bd460108361080f565b9150610bdf82610ba0565b602082019050919050565b5f6020820190508181035f830152610c0181610bc8565b9050919050565b7f416c726561647920766f746564000000000000000000000000000000000000005f82015250565b5f610c3c600d8361080f565b9150610c4782610c08565b602082019050919050565b5f6020820190508181035f830152610c6981610c30565b9050919050565b7f4e487b71000000000000000000000000000000000000000000000000000000005f52601160045260245ffd5b5f610ca7826107a7565b91507fffffffffffffffffffffffffffffffffffffffffffffffffffffffffffffffff8203610cd957610cd8610c70565b5b600182019050919050565b7f4e487b71000000000000000000000000000000000000000000000000000000005f52602260045260245ffd5b5f6002820490506001821680610d2857607f821691505b602082108103610d3b57610d3a610ce4565b5b50919050565b7f4465736372697074696f6e2072657175697265640000000000000000000000005f82015250565b5f610d7560148361080f565b9150610d8082610d41565b602082019050919050565b5f6020820190508181035f830152610da281610d69565b9050919050565b7f4475726174696f6e206d75737420626520706f736974697665000000000000005f82015250565b5f610ddd60198361080f565b9150610de882610da9565b602082019050919050565b5f6020820190508181035f830152610e0a81610dd1565b9050919050565b5f819050815f5260205f209050919050565b5f6020601f8301049050919050565b5f82821b905092915050565b5f60088302610e6d7fffffffffffffffffffffffffffffffffffffffffffffffffffffffffffffffff82610e32565b610e778683610e32565b95508019841693508086168417925050509392505050565b5f819050919050565b5f610eb2610ead610ea8846107a7565b610e8f565b6107a7565b9050919050565b5f819050919050565b610ecb83610e98565b610edf610ed782610eb9565b848454610e3e565b825550505050565b5f5f905090565b610ef6610ee7565b610f01818484610ec2565b505050565b5b81811015610f2457610f195f82610eee565b600181019050610f07565b5050565b601f821115610f6957610f3a81610e11565b610f4384610e23565b81016020851015610f52578190505b610f66610f5e85610e23565b830182610f06565b50505b505050565b5f82821c905092915050565b5f610f895f1984600802610f6e565b1980831691505092915050565b5f610fa18383610f7a565b9150826002028217905092915050565b610fba82610805565b67ffffffffffffffff811115610fd357610fd26108f0565b5b610fdd8254610d11565b610fe8828285610f28565b5f60209050601f831160018114611019575f8415611007578287015190505b6110118582610f96565b865550611078565b601f19841661102786610e11565b5f5b8281101561104e57848901518255600182019150602085019450602081019050611029565b8683101561106b5784890151611067601f891682610f7a565b8355505b6001600288020188555050505b505050505050565b5f61108a826107a7565b9150611095836107a7565b92508282019050808211156110ad576110ac610c70565b5b92915050565b5f6020820190508181035f8301526110cb818461083d565b90509291505056fea26469706673582212209a1f97debe72c1f04d48f75fe5198fd5fdb891a2de4ff039d7a5a754d64d98af64736f6c634300081f0033",
					"opcodes": "PUSH1 0x80 PUSH1 0x40 MSTORE CALLVALUE DUP1 ISZERO PUSH1 0xE JUMPI PUSH0 PUSH0 REVERT JUMPDEST POP PUSH2 0x1109 DUP1 PUSH2 0x1C PUSH0 CODECOPY PUSH0 RETURN INVALID PUSH1 0x80 PUSH1 0x40 MSTORE CALLVALUE DUP1 ISZERO PUSH2 0xF JUMPI PUSH0 PUSH0 REVERT JUMPDEST POP PUSH1 0x4 CALLDATASIZE LT PUSH2 0x7B JUMPI PUSH0 CALLDATALOAD PUSH1 0xE0 SHR DUP1 PUSH4 0x43859632 GT PUSH2 0x59 JUMPI DUP1 PUSH4 0x43859632 EQ PUSH2 0xFE JUMPI DUP1 PUSH4 0xA5134620 EQ PUSH2 0x12E JUMPI DUP1 PUSH4 0xBC903CB8 EQ PUSH2 0x14C JUMPI DUP1 PUSH4 0xDA35C664 EQ PUSH2 0x17F JUMPI PUSH2 0x7B JUMP JUMPDEST DUP1 PUSH4 0x121B93F EQ PUSH2 0x7F JUMPI DUP1 PUSH4 0x13CF08B EQ PUSH2 0x9B JUMPI DUP1 PUSH4 0x35FACF78 EQ PUSH2 0xCE JUMPI JUMPDEST PUSH0 PUSH0 REVERT JUMPDEST PUSH2 0x99 PUSH1 0x4 DUP1 CALLDATASIZE SUB DUP2 ADD SWAP1 PUSH2 0x94 SWAP2 SWAP1 PUSH2 0x7DA JUMP JUMPDEST PUSH2 0x19D JUMP JUMPDEST STOP JUMPDEST PUSH2 0xB5 PUSH1 0x4 DUP1 CALLDATASIZE SUB DUP2 ADD SWAP1 PUSH2 0xB0 SWAP2 SWAP1 PUSH2 0x7DA JUMP JUMPDEST PUSH2 0x37E JUMP JUMPDEST PUSH1 0x40 MLOAD PUSH2 0xC5 SWAP5 SWAP4 SWAP3 SWAP2 SWAP1 PUSH2 0x89E JUMP JUMPDEST PUSH1 0x40 MLOAD DUP1 SWAP2 SUB SWAP1 RETURN JUMPDEST PUSH2 0xE8 PUSH1 0x4 DUP1 CALLDATASIZE SUB DUP2 ADD SWAP1 PUSH2 0xE3 SWAP2 SWAP1 PUSH2 0xA14 JUMP JUMPDEST PUSH2 0x43B JUMP JUMPDEST PUSH1 0x40 MLOAD PUSH2 0xF5 SWAP2 SWAP1 PUSH2 0xA6E JUMP JUMPDEST PUSH1 0x40 MLOAD DUP1 SWAP2 SUB SWAP1 RETURN JUMPDEST PUSH2 0x118 PUSH1 0x4 DUP1 CALLDATASIZE SUB DUP2 ADD SWAP1 PUSH2 0x113 SWAP2 SWAP1 PUSH2 0xAE1 JUMP JUMPDEST PUSH2 0x579 JUMP JUMPDEST PUSH1 0x40 MLOAD PUSH2 0x125 SWAP2 SWAP1 PUSH2 0xB1F JUMP JUMPDEST PUSH1 0x40 MLOAD DUP1 SWAP2 SUB SWAP1 RETURN JUMPDEST PUSH2 0x136 PUSH2 0x621 JUMP JUMPDEST PUSH1 0x40 MLOAD PUSH2 0x143 SWAP2 SWAP1 PUSH2 0xA6E JUMP JUMPDEST PUSH1 0x40 MLOAD DUP1 SWAP2 SUB SWAP1 RETURN JUMPDEST PUSH2 0x166 PUSH1 0x4 DUP1 CALLDATASIZE SUB DUP2 ADD SWAP1 PUSH2 0x161 SWAP2 SWAP1 PUSH2 0x7DA JUMP JUMPDEST PUSH2 0x67C JUMP JUMPDEST PUSH1 0x40 MLOAD PUSH2 0x176 SWAP5 SWAP4 SWAP3 SWAP2 SWAP1 PUSH2 0x89E JUMP JUMPDEST PUSH1 0x40 MLOAD DUP1 SWAP2 SUB SWAP1 RETURN JUMPDEST PUSH2 0x187 PUSH2 0x790 JUMP JUMPDEST PUSH1 0x40 MLOAD PUSH2 0x194 SWAP2 SWAP1 PUSH2 0xA6E JUMP JUMPDEST PUSH1 0x40 MLOAD DUP1 SWAP2 SUB SWAP1 RETURN JUMPDEST PUSH1 0x1 SLOAD DUP2 LT PUSH2 0x1E1 JUMPI PUSH1 0x40 MLOAD PUSH32 0x8C379A000000000000000000000000000000000000000000000000000000000 DUP2 MSTORE PUSH1 0x4 ADD PUSH2 0x1D8 SWAP1 PUSH2 0xB82 JUMP JUMPDEST PUSH1 0x40 MLOAD DUP1 SWAP2 SUB SWAP1 REVERT JUMPDEST PUSH0 PUSH0 PUSH0 DUP4 DUP2 MSTORE PUSH1 0x20 ADD SWAP1 DUP2 MSTORE PUSH1 0x20 ADD PUSH0 KECCAK256 SWAP1 POP DUP1 PUSH1 0x2 ADD SLOAD TIMESTAMP LT PUSH2 0x23A JUMPI PUSH1 0x40 MLOAD PUSH32 0x8C379A000000000000000000000000000000000000000000000000000000000 DUP2 MSTORE PUSH1 0x4 ADD PUSH2 0x231 SWAP1 PUSH2 0xBEA JUMP JUMPDEST PUSH1 0x40 MLOAD DUP1 SWAP2 SUB SWAP1 REVERT JUMPDEST DUP1 PUSH1 0x4 ADD PUSH0 CALLER PUSH20 0xFFFFFFFFFFFFFFFFFFFFFFFFFFFFFFFFFFFFFFFF AND PUSH20 0xFFFFFFFFFFFFFFFFFFFFFFFFFFFFFFFFFFFFFFFF AND DUP2 MSTORE PUSH1 0x20 ADD SWAP1 DUP2 MSTORE PUSH1 0x20 ADD PUSH0 KECCAK256 PUSH0 SWAP1 SLOAD SWAP1 PUSH2 0x100 EXP SWAP1 DIV PUSH1 0xFF AND ISZERO PUSH2 0x2C6 JUMPI PUSH1 0x40 MLOAD PUSH32 0x8C379A000000000000000000000000000000000000000000000000000000000 DUP2 MSTORE PUSH1 0x4 ADD PUSH2 0x2BD SWAP1 PUSH2 0xC52 JUMP JUMPDEST PUSH1 0x40 MLOAD DUP1 SWAP2 SUB SWAP1 REVERT JUMPDEST PUSH1 0x1 DUP2 PUSH1 0x4 ADD PUSH0 CALLER PUSH20 0xFFFFFFFFFFFFFFFFFFFFFFFFFFFFFFFFFFFFFFFF AND PUSH20 0xFFFFFFFFFFFFFFFFFFFFFFFFFFFFFFFFFFFFFFFF AND DUP2 MSTORE PUSH1 0x20 ADD SWAP1 DUP2 MSTORE PUSH1 0x20 ADD PUSH0 KECCAK256 PUSH0 PUSH2 0x100 EXP DUP2 SLOAD DUP2 PUSH1 0xFF MUL NOT AND SWAP1 DUP4 ISZERO ISZERO MUL OR SWAP1 SSTORE POP DUP1 PUSH1 0x1 ADD PUSH0 DUP2 SLOAD DUP1 SWAP3 SWAP2 SWAP1 PUSH2 0x331 SWAP1 PUSH2 0xC9D JUMP JUMPDEST SWAP2 SWAP1 POP SSTORE POP CALLER PUSH20 0xFFFFFFFFFFFFFFFFFFFFFFFFFFFFFFFFFFFFFFFF AND DUP3 PUSH32 0x30B0F8DCD86A031EDDB071F91882EDEAC8173663BA775713B677B42B51BE44B PUSH1 0x40 MLOAD PUSH1 0x40 MLOAD DUP1 SWAP2 SUB SWAP1 LOG3 POP POP JUMP JUMPDEST PUSH0 PUSH1 0x20 MSTORE DUP1 PUSH0 MSTORE PUSH1 0x40 PUSH0 KECCAK256 PUSH0 SWAP2 POP SWAP1 POP DUP1 PUSH0 ADD DUP1 SLOAD PUSH2 0x39C SWAP1 PUSH2 0xD11 JUMP JUMPDEST DUP1 PUSH1 0x1F ADD PUSH1 0x20 DUP1 SWAP2 DIV MUL PUSH1 0x20 ADD PUSH1 0x40 MLOAD SWAP1 DUP2 ADD PUSH1 0x40 MSTORE DUP1 SWAP3 SWAP2 SWAP1 DUP2 DUP2 MSTORE PUSH1 0x20 ADD DUP3 DUP1 SLOAD PUSH2 0x3C8 SWAP1 PUSH2 0xD11 JUMP JUMPDEST DUP1 ISZERO PUSH2 0x413 JUMPI DUP1 PUSH1 0x1F LT PUSH2 0x3EA JUMPI PUSH2 0x100 DUP1 DUP4 SLOAD DIV MUL DUP4 MSTORE SWAP2 PUSH1 0x20 ADD SWAP2 PUSH2 0x413 JUMP JUMPDEST DUP3 ADD SWAP2 SWAP1 PUSH0 MSTORE PUSH1 0x20 PUSH0 KECCAK256 SWAP1 JUMPDEST DUP2 SLOAD DUP2 MSTORE SWAP1 PUSH1 0x1 ADD SWAP1 PUSH1 0x20 ADD DUP1 DUP4 GT PUSH2 0x3F6 JUMPI DUP3 SWAP1 SUB PUSH1 0x1F AND DUP3 ADD SWAP2 JUMPDEST POP POP POP POP POP SWAP1 DUP1 PUSH1 0x1 ADD SLOAD SWAP1 DUP1 PUSH1 0x2 ADD SLOAD SWAP1 DUP1 PUSH1 0x3 ADD PUSH0 SWAP1 SLOAD SWAP1 PUSH2 0x100 EXP SWAP1 DIV PUSH1 0xFF AND SWAP1 POP DUP5 JUMP JUMPDEST PUSH0 PUSH0 DUP4 MLOAD GT PUSH2 0x47F JUMPI PUSH1 0x40 MLOAD PUSH32 0x8C379A000000000000000000000000000000000000000000000000000000000 DUP2 MSTORE PUSH1 0x4 ADD PUSH2 0x476 SWAP1 PUSH2 0xD8B JUMP JUMPDEST PUSH1 0x40 MLOAD DUP1 SWAP2 SUB SWAP1 REVERT JUMPDEST PUSH0 DUP3 GT PUSH2 0x4C1 JUMPI PUSH1 0x40 MLOAD PUSH32 0x8C379A000000000000000000000000000000000000000000000000000000000 DUP2 MSTORE PUSH1 0x4 ADD PUSH2 0x4B8 SWAP1 PUSH2 0xDF3 JUMP JUMPDEST PUSH1 0x40 MLOAD DUP1 SWAP2 SUB SWAP1 REVERT JUMPDEST PUSH0 PUSH1 0x1 PUSH0 DUP2 SLOAD DUP1 SWAP3 SWAP2 SWAP1 PUSH2 0x4D4 SWAP1 PUSH2 0xC9D JUMP JUMPDEST SWAP2 SWAP1 POP SSTORE SWAP1 POP PUSH0 PUSH0 PUSH0 DUP4 DUP2 MSTORE PUSH1 0x20 ADD SWAP1 DUP2 MSTORE PUSH1 0x20 ADD PUSH0 KECCAK256 SWAP1 POP DUP5 DUP2 PUSH0 ADD SWAP1 DUP2 PUSH2 0x4FD SWAP2 SWAP1 PUSH2 0xFB1 JUMP JUMPDEST POP PUSH0 DUP2 PUSH1 0x1 ADD DUP2 SWAP1 SSTORE POP DUP4 TIMESTAMP PUSH2 0x513 SWAP2 SWAP1 PUSH2 0x1080 JUMP JUMPDEST DUP2 PUSH1 0x2 ADD DUP2 SWAP1 SSTORE POP PUSH0 DUP2 PUSH1 0x3 ADD PUSH0 PUSH2 0x100 EXP DUP2 SLOAD DUP2 PUSH1 0xFF MUL NOT AND SWAP1 DUP4 ISZERO ISZERO MUL OR SWAP1 SSTORE POP DUP2 PUSH32 0x9C770C289AB5BF7E57CB1D23C8CEAE993AEA46EB64847072FD3D78CA60D3E432 DUP7 PUSH1 0x40 MLOAD PUSH2 0x566 SWAP2 SWAP1 PUSH2 0x10B3 JUMP JUMPDEST PUSH1 0x40 MLOAD DUP1 SWAP2 SUB SWAP1 LOG2 DUP2 SWAP3 POP POP POP SWAP3 SWAP2 POP POP JUMP JUMPDEST PUSH0 PUSH1 0x1 SLOAD DUP4 LT PUSH2 0x5BE JUMPI PUSH1 0x40 MLOAD PUSH32 0x8C379A000000000000000000000000000000000000000000000000000000000 DUP2 MSTORE PUSH1 0x4 ADD PUSH2 0x5B5 SWAP1 PUSH2 0xB82 JUMP JUMPDEST PUSH1 0x40 MLOAD DUP1 SWAP2 SUB SWAP1 REVERT JUMPDEST PUSH0 PUSH0 DUP5 DUP2 MSTORE PUSH1 0x20 ADD SWAP1 DUP2 MSTORE PUSH1 0x20 ADD PUSH0 KECCAK256 PUSH1 0x4 ADD PUSH0 DUP4 PUSH20 0xFFFFFFFFFFFFFFFFFFFFFFFFFFFFFFFFFFFFFFFF AND PUSH20 0xFFFFFFFFFFFFFFFFFFFFFFFFFFFFFFFFFFFFFFFF AND DUP2 MSTORE PUSH1 0x20 ADD SWAP1 DUP2 MSTORE PUSH1 0x20 ADD PUSH0 KECCAK256 PUSH0 SWAP1 SLOAD SWAP1 PUSH2 0x100 EXP SWAP1 DIV PUSH1 0xFF AND SWAP1 POP SWAP3 SWAP2 POP POP JUMP JUMPDEST PUSH0 PUSH0 PUSH0 SWAP1 POP PUSH0 PUSH0 SWAP1 POP JUMPDEST PUSH1 0x1 SLOAD DUP2 LT ISZERO PUSH2 0x677 JUMPI DUP2 PUSH0 PUSH0 DUP4 DUP2 MSTORE PUSH1 0x20 ADD SWAP1 DUP2 MSTORE PUSH1 0x20 ADD PUSH0 KECCAK256 PUSH1 0x1 ADD SLOAD GT ISZERO PUSH2 0x66A JUMPI PUSH0 PUSH0 DUP3 DUP2 MSTORE PUSH1 0x20 ADD SWAP1 DUP2 MSTORE PUSH1 0x20 ADD PUSH0 KECCAK256 PUSH1 0x1 ADD SLOAD SWAP2 POP DUP1 SWAP3 POP JUMPDEST DUP1 DUP1 PUSH1 0x1 ADD SWAP2 POP POP PUSH2 0x62B JUMP JUMPDEST POP POP SWAP1 JUMP JUMPDEST PUSH1 0x60 PUSH0 PUSH0 PUSH0 PUSH1 0x1 SLOAD DUP6 LT PUSH2 0x6C5 JUMPI PUSH1 0x40 MLOAD PUSH32 0x8C379A000000000000000000000000000000000000000000000000000000000 DUP2 MSTORE PUSH1 0x4 ADD PUSH2 0x6BC SWAP1 PUSH2 0xB82 JUMP JUMPDEST PUSH1 0x40 MLOAD DUP1 SWAP2 SUB SWAP1 REVERT JUMPDEST PUSH0 PUSH0 PUSH0 DUP8 DUP2 MSTORE PUSH1 0x20 ADD SWAP1 DUP2 MSTORE PUSH1 0x20 ADD PUSH0 KECCAK256 SWAP1 POP DUP1 PUSH0 ADD DUP2 PUSH1 0x1 ADD SLOAD DUP3 PUSH1 0x2 ADD SLOAD DUP4 PUSH1 0x3 ADD PUSH0 SWAP1 SLOAD SWAP1 PUSH2 0x100 EXP SWAP1 DIV PUSH1 0xFF AND DUP4 DUP1 SLOAD PUSH2 0x702 SWAP1 PUSH2 0xD11 JUMP JUMPDEST DUP1 PUSH1 0x1F ADD PUSH1 0x20 DUP1 SWAP2 DIV MUL PUSH1 0x20 ADD PUSH1 0x40 MLOAD SWAP1 DUP2 ADD PUSH1 0x40 MSTORE DUP1 SWAP3 SWAP2 SWAP1 DUP2 DUP2 MSTORE PUSH1 0x20 ADD DUP3 DUP1 SLOAD PUSH2 0x72E SWAP1 PUSH2 0xD11 JUMP JUMPDEST DUP1 ISZERO PUSH2 0x779 JUMPI DUP1 PUSH1 0x1F LT PUSH2 0x750 JUMPI PUSH2 0x100 DUP1 DUP4 SLOAD DIV MUL DUP4 MSTORE SWAP2 PUSH1 0x20 ADD SWAP2 PUSH2 0x779 JUMP JUMPDEST DUP3 ADD SWAP2 SWAP1 PUSH0 MSTORE PUSH1 0x20 PUSH0 KECCAK256 SWAP1 JUMPDEST DUP2 SLOAD DUP2 MSTORE SWAP1 PUSH1 0x1 ADD SWAP1 PUSH1 0x20 ADD DUP1 DUP4 GT PUSH2 0x75C JUMPI DUP3 SWAP1 SUB PUSH1 0x1F AND DUP3 ADD SWAP2 JUMPDEST POP POP POP POP POP SWAP4 POP SWAP5 POP SWAP5 POP SWAP5 POP SWAP5 POP POP SWAP2 SWAP4 POP SWAP2 SWAP4 JUMP JUMPDEST PUSH1 0x1 SLOAD DUP2 JUMP JUMPDEST PUSH0 PUSH1 0x40 MLOAD SWAP1 POP SWAP1 JUMP JUMPDEST PUSH0 PUSH0 REVERT JUMPDEST PUSH0 PUSH0 REVERT JUMPDEST PUSH0 DUP2 SWAP1 POP SWAP2 SWAP1 POP JUMP JUMPDEST PUSH2 0x7B9 DUP2 PUSH2 0x7A7 JUMP JUMPDEST DUP2 EQ PUSH2 0x7C3 JUMPI PUSH0 PUSH0 REVERT JUMPDEST POP JUMP JUMPDEST PUSH0 DUP2 CALLDATALOAD SWAP1 POP PUSH2 0x7D4 DUP2 PUSH2 0x7B0 JUMP JUMPDEST SWAP3 SWAP2 POP POP JUMP JUMPDEST PUSH0 PUSH1 0x20 DUP3 DUP5 SUB SLT ISZERO PUSH2 0x7EF JUMPI PUSH2 0x7EE PUSH2 0x79F JUMP JUMPDEST JUMPDEST PUSH0 PUSH2 0x7FC DUP5 DUP3 DUP6 ADD PUSH2 0x7C6 JUMP JUMPDEST SWAP2 POP POP SWAP3 SWAP2 POP POP JUMP JUMPDEST PUSH0 DUP2 MLOAD SWAP1 POP SWAP2 SWAP1 POP JUMP JUMPDEST PUSH0 DUP3 DUP3 MSTORE PUSH1 0x20 DUP3 ADD SWAP1 POP SWAP3 SWAP2 POP POP JUMP JUMPDEST DUP3 DUP2 DUP4 MCOPY PUSH0 DUP4 DUP4 ADD MSTORE POP POP POP JUMP JUMPDEST PUSH0 PUSH1 0x1F NOT PUSH1 0x1F DUP4 ADD AND SWAP1 POP SWAP2 SWAP1 POP JUMP JUMPDEST PUSH0 PUSH2 0x847 DUP3 PUSH2 0x805 JUMP JUMPDEST PUSH2 0x851 DUP2 DUP6 PUSH2 0x80F JUMP JUMPDEST SWAP4 POP PUSH2 0x861 DUP2 DUP6 PUSH1 0x20 DUP7 ADD PUSH2 0x81F JUMP JUMPDEST PUSH2 0x86A DUP2 PUSH2 0x82D JUMP JUMPDEST DUP5 ADD SWAP2 POP POP SWAP3 SWAP2 POP POP JUMP JUMPDEST PUSH2 0x87E DUP2 PUSH2 0x7A7 JUMP JUMPDEST DUP3 MSTORE POP POP JUMP JUMPDEST PUSH0 DUP2 ISZERO ISZERO SWAP1 POP SWAP2 SWAP1 POP JUMP JUMPDEST PUSH2 0x898 DUP2 PUSH2 0x884 JUMP JUMPDEST DUP3 MSTORE POP POP JUMP JUMPDEST PUSH0 PUSH1 0x80 DUP3 ADD SWAP1 POP DUP2 DUP2 SUB PUSH0 DUP4 ADD MSTORE PUSH2 0x8B6 DUP2 DUP8 PUSH2 0x83D JUMP JUMPDEST SWAP1 POP PUSH2 0x8C5 PUSH1 0x20 DUP4 ADD DUP7 PUSH2 0x875 JUMP JUMPDEST PUSH2 0x8D2 PUSH1 0x40 DUP4 ADD DUP6 PUSH2 0x875 JUMP JUMPDEST PUSH2 0x8DF PUSH1 0x60 DUP4 ADD DUP5 PUSH2 0x88F JUMP JUMPDEST SWAP6 SWAP5 POP POP POP POP POP JUMP JUMPDEST PUSH0 PUSH0 REVERT JUMPDEST PUSH0 PUSH0 REVERT JUMPDEST PUSH32 0x4E487B7100000000000000000000000000000000000000000000000000000000 PUSH0 MSTORE PUSH1 0x41 PUSH1 0x4 MSTORE PUSH1 0x24 PUSH0 REVERT JUMPDEST PUSH2 0x926 DUP3 PUSH2 0x82D JUMP JUMPDEST DUP2 ADD DUP2 DUP2 LT PUSH8 0xFFFFFFFFFFFFFFFF DUP3 GT OR ISZERO PUSH2 0x945 JUMPI PUSH2 0x944 PUSH2 0x8F0 JUMP JUMPDEST JUMPDEST DUP1 PUSH1 0x40 MSTORE POP POP POP JUMP JUMPDEST PUSH0 PUSH2 0x957 PUSH2 0x796 JUMP JUMPDEST SWAP1 POP PUSH2 0x963 DUP3 DUP3 PUSH2 0x91D JUMP JUMPDEST SWAP2 SWAP1 POP JUMP JUMPDEST PUSH0 PUSH8 0xFFFFFFFFFFFFFFFF DUP3 GT ISZERO PUSH2 0x982 JUMPI PUSH2 0x981 PUSH2 0x8F0 JUMP JUMPDEST JUMPDEST PUSH2 0x98B DUP3 PUSH2 0x82D JUMP JUMPDEST SWAP1 POP PUSH1 0x20 DUP2 ADD SWAP1 POP SWAP2 SWAP1 POP JUMP JUMPDEST DUP3 DUP2 DUP4 CALLDATACOPY PUSH0 DUP4 DUP4 ADD MSTORE POP POP POP JUMP JUMPDEST PUSH0 PUSH2 0x9B8 PUSH2 0x9B3 DUP5 PUSH2 0x968 JUMP JUMPDEST PUSH2 0x94E JUMP JUMPDEST SWAP1 POP DUP3 DUP2 MSTORE PUSH1 0x20 DUP2 ADD DUP5 DUP5 DUP5 ADD GT ISZERO PUSH2 0x9D4 JUMPI PUSH2 0x9D3 PUSH2 0x8EC JUMP JUMPDEST JUMPDEST PUSH2 0x9DF DUP5 DUP3 DUP6 PUSH2 0x998 JUMP JUMPDEST POP SWAP4 SWAP3 POP POP POP JUMP JUMPDEST PUSH0 DUP3 PUSH1 0x1F DUP4 ADD SLT PUSH2 0x9FB JUMPI PUSH2 0x9FA PUSH2 0x8E8 JUMP JUMPDEST JUMPDEST DUP2 CALLDATALOAD PUSH2 0xA0B DUP5 DUP3 PUSH1 0x20 DUP7 ADD PUSH2 0x9A6 JUMP JUMPDEST SWAP2 POP POP SWAP3 SWAP2 POP POP JUMP JUMPDEST PUSH0 PUSH0 PUSH1 0x40 DUP4 DUP6 SUB SLT ISZERO PUSH2 0xA2A JUMPI PUSH2 0xA29 PUSH2 0x79F JUMP JUMPDEST JUMPDEST PUSH0 DUP4 ADD CALLDATALOAD PUSH8 0xFFFFFFFFFFFFFFFF DUP2 GT ISZERO PUSH2 0xA47 JUMPI PUSH2 0xA46 PUSH2 0x7A3 JUMP JUMPDEST JUMPDEST PUSH2 0xA53 DUP6 DUP3 DUP7 ADD PUSH2 0x9E7 JUMP JUMPDEST SWAP3 POP POP PUSH1 0x20 PUSH2 0xA64 DUP6 DUP3 DUP7 ADD PUSH2 0x7C6 JUMP JUMPDEST SWAP2 POP POP SWAP3 POP SWAP3 SWAP1 POP JUMP JUMPDEST PUSH0 PUSH1 0x20 DUP3 ADD SWAP1 POP PUSH2 0xA81 PUSH0 DUP4 ADD DUP5 PUSH2 0x875 JUMP JUMPDEST SWAP3 SWAP2 POP POP JUMP JUMPDEST PUSH0 PUSH20 0xFFFFFFFFFFFFFFFFFFFFFFFFFFFFFFFFFFFFFFFF DUP3 AND SWAP1 POP SWAP2 SWAP1 POP JUMP JUMPDEST PUSH0 PUSH2 0xAB0 DUP3 PUSH2 0xA87 JUMP JUMPDEST SWAP1 POP SWAP2 SWAP1 POP JUMP JUMPDEST PUSH2 0xAC0 DUP2 PUSH2 0xAA6 JUMP JUMPDEST DUP2 EQ PUSH2 0xACA JUMPI PUSH0 PUSH0 REVERT JUMPDEST POP JUMP JUMPDEST PUSH0 DUP2 CALLDATALOAD SWAP1 POP PUSH2 0xADB DUP2 PUSH2 0xAB7 JUMP JUMPDEST SWAP3 SWAP2 POP POP JUMP JUMPDEST PUSH0 PUSH0 PUSH1 0x40 DUP4 DUP6 SUB SLT ISZERO PUSH2 0xAF7 JUMPI PUSH2 0xAF6 PUSH2 0x79F JUMP JUMPDEST JUMPDEST PUSH0 PUSH2 0xB04 DUP6 DUP3 DUP7 ADD PUSH2 0x7C6 JUMP JUMPDEST SWAP3 POP POP PUSH1 0x20 PUSH2 0xB15 DUP6 DUP3 DUP7 ADD PUSH2 0xACD JUMP JUMPDEST SWAP2 POP POP SWAP3 POP SWAP3 SWAP1 POP JUMP JUMPDEST PUSH0 PUSH1 0x20 DUP3 ADD SWAP1 POP PUSH2 0xB32 PUSH0 DUP4 ADD DUP5 PUSH2 0x88F JUMP JUMPDEST SWAP3 SWAP2 POP POP JUMP JUMPDEST PUSH32 0x50726F706F73616C20646F6573206E6F74206578697374000000000000000000 PUSH0 DUP3 ADD MSTORE POP JUMP JUMPDEST PUSH0 PUSH2 0xB6C PUSH1 0x17 DUP4 PUSH2 0x80F JUMP JUMPDEST SWAP2 POP PUSH2 0xB77 DUP3 PUSH2 0xB38 JUMP JUMPDEST PUSH1 0x20 DUP3 ADD SWAP1 POP SWAP2 SWAP1 POP JUMP JUMPDEST PUSH0 PUSH1 0x20 DUP3 ADD SWAP1 POP DUP2 DUP2 SUB PUSH0 DUP4 ADD MSTORE PUSH2 0xB99 DUP2 PUSH2 0xB60 JUMP JUMPDEST SWAP1 POP SWAP2 SWAP1 POP JUMP JUMPDEST PUSH32 0x566F74696E672068617320656E64656400000000000000000000000000000000 PUSH0 DUP3 ADD MSTORE POP JUMP JUMPDEST PUSH0 PUSH2 0xBD4 PUSH1 0x10 DUP4 PUSH2 0x80F JUMP JUMPDEST SWAP2 POP PUSH2 0xBDF DUP3 PUSH2 0xBA0 JUMP JUMPDEST PUSH1 0x20 DUP3 ADD SWAP1 POP SWAP2 SWAP1 POP JUMP JUMPDEST PUSH0 PUSH1 0x20 DUP3 ADD SWAP1 POP DUP2 DUP2 SUB PUSH0 DUP4 ADD MSTORE PUSH2 0xC01 DUP2 PUSH2 0xBC8 JUMP JUMPDEST SWAP1 POP SWAP2 SWAP1 POP JUMP JUMPDEST PUSH32 0x416C726561647920766F74656400000000000000000000000000000000000000 PUSH0 DUP3 ADD MSTORE POP JUMP JUMPDEST PUSH0 PUSH2 0xC3C PUSH1 0xD DUP4 PUSH2 0x80F JUMP JUMPDEST SWAP2 POP PUSH2 0xC47 DUP3 PUSH2 0xC08 JUMP JUMPDEST PUSH1 0x20 DUP3 ADD SWAP1 POP SWAP2 SWAP1 POP JUMP JUMPDEST PUSH0 PUSH1 0x20 DUP3 ADD SWAP1 POP DUP2 DUP2 SUB PUSH0 DUP4 ADD MSTORE PUSH2 0xC69 DUP2 PUSH2 0xC30 JUMP JUMPDEST SWAP1 POP SWAP2 SWAP1 POP JUMP JUMPDEST PUSH32 0x4E487B7100000000000000000000000000000000000000000000000000000000 PUSH0 MSTORE PUSH1 0x11 PUSH1 0x4 MSTORE PUSH1 0x24 PUSH0 REVERT JUMPDEST PUSH0 PUSH2 0xCA7 DUP3 PUSH2 0x7A7 JUMP JUMPDEST SWAP2 POP PUSH32 0xFFFFFFFFFFFFFFFFFFFFFFFFFFFFFFFFFFFFFFFFFFFFFFFFFFFFFFFFFFFFFFFF DUP3 SUB PUSH2 0xCD9 JUMPI PUSH2 0xCD8 PUSH2 0xC70 JUMP JUMPDEST JUMPDEST PUSH1 0x1 DUP3 ADD SWAP1 POP SWAP2 SWAP1 POP JUMP JUMPDEST PUSH32 0x4E487B7100000000000000000000000000000000000000000000000000000000 PUSH0 MSTORE PUSH1 0x22 PUSH1 0x4 MSTORE PUSH1 0x24 PUSH0 REVERT JUMPDEST PUSH0 PUSH1 0x2 DUP3 DIV SWAP1 POP PUSH1 0x1 DUP3 AND DUP1 PUSH2 0xD28 JUMPI PUSH1 0x7F DUP3 AND SWAP2 POP JUMPDEST PUSH1 0x20 DUP3 LT DUP2 SUB PUSH2 0xD3B JUMPI PUSH2 0xD3A PUSH2 0xCE4 JUMP JUMPDEST JUMPDEST POP SWAP2 SWAP1 POP JUMP JUMPDEST PUSH32 0x4465736372697074696F6E207265717569726564000000000000000000000000 PUSH0 DUP3 ADD MSTORE POP JUMP JUMPDEST PUSH0 PUSH2 0xD75 PUSH1 0x14 DUP4 PUSH2 0x80F JUMP JUMPDEST SWAP2 POP PUSH2 0xD80 DUP3 PUSH2 0xD41 JUMP JUMPDEST PUSH1 0x20 DUP3 ADD SWAP1 POP SWAP2 SWAP1 POP JUMP JUMPDEST PUSH0 PUSH1 0x20 DUP3 ADD SWAP1 POP DUP2 DUP2 SUB PUSH0 DUP4 ADD MSTORE PUSH2 0xDA2 DUP2 PUSH2 0xD69 JUMP JUMPDEST SWAP1 POP SWAP2 SWAP1 POP JUMP JUMPDEST PUSH32 0x4475726174696F6E206D75737420626520706F73697469766500000000000000 PUSH0 DUP3 ADD MSTORE POP JUMP JUMPDEST PUSH0 PUSH2 0xDDD PUSH1 0x19 DUP4 PUSH2 0x80F JUMP JUMPDEST SWAP2 POP PUSH2 0xDE8 DUP3 PUSH2 0xDA9 JUMP JUMPDEST PUSH1 0x20 DUP3 ADD SWAP1 POP SWAP2 SWAP1 POP JUMP JUMPDEST PUSH0 PUSH1 0x20 DUP3 ADD SWAP1 POP DUP2 DUP2 SUB PUSH0 DUP4 ADD MSTORE PUSH2 0xE0A DUP2 PUSH2 0xDD1 JUMP JUMPDEST SWAP1 POP SWAP2 SWAP1 POP JUMP JUMPDEST PUSH0 DUP2 SWAP1 POP DUP2 PUSH0 MSTORE PUSH1 0x20 PUSH0 KECCAK256 SWAP1 POP SWAP2 SWAP1 POP JUMP JUMPDEST PUSH0 PUSH1 0x20 PUSH1 0x1F DUP4 ADD DIV SWAP1 POP SWAP2 SWAP1 POP JUMP JUMPDEST PUSH0 DUP3 DUP3 SHL SWAP1 POP SWAP3 SWAP2 POP POP JUMP JUMPDEST PUSH0 PUSH1 0x8 DUP4 MUL PUSH2 0xE6D PUSH32 0xFFFFFFFFFFFFFFFFFFFFFFFFFFFFFFFFFFFFFFFFFFFFFFFFFFFFFFFFFFFFFFFF DUP3 PUSH2 0xE32 JUMP JUMPDEST PUSH2 0xE77 DUP7 DUP4 PUSH2 0xE32 JUMP JUMPDEST SWAP6 POP DUP1 NOT DUP5 AND SWAP4 POP DUP1 DUP7 AND DUP5 OR SWAP3 POP POP POP SWAP4 SWAP3 POP POP POP JUMP JUMPDEST PUSH0 DUP2 SWAP1 POP SWAP2 SWAP1 POP JUMP JUMPDEST PUSH0 PUSH2 0xEB2 PUSH2 0xEAD PUSH2 0xEA8 DUP5 PUSH2 0x7A7 JUMP JUMPDEST PUSH2 0xE8F JUMP JUMPDEST PUSH2 0x7A7 JUMP JUMPDEST SWAP1 POP SWAP2 SWAP1 POP JUMP JUMPDEST PUSH0 DUP2 SWAP1 POP SWAP2 SWAP1 POP JUMP JUMPDEST PUSH2 0xECB DUP4 PUSH2 0xE98 JUMP JUMPDEST PUSH2 0xEDF PUSH2 0xED7 DUP3 PUSH2 0xEB9 JUMP JUMPDEST DUP5 DUP5 SLOAD PUSH2 0xE3E JUMP JUMPDEST DUP3 SSTORE POP POP POP POP JUMP JUMPDEST PUSH0 PUSH0 SWAP1 POP SWAP1 JUMP JUMPDEST PUSH2 0xEF6 PUSH2 0xEE7 JUMP JUMPDEST PUSH2 0xF01 DUP2 DUP5 DUP5 PUSH2 0xEC2 JUMP JUMPDEST POP POP POP JUMP JUMPDEST JUMPDEST DUP2 DUP2 LT ISZERO PUSH2 0xF24 JUMPI PUSH2 0xF19 PUSH0 DUP3 PUSH2 0xEEE JUMP JUMPDEST PUSH1 0x1 DUP2 ADD SWAP1 POP PUSH2 0xF07 JUMP JUMPDEST POP POP JUMP JUMPDEST PUSH1 0x1F DUP3 GT ISZERO PUSH2 0xF69 JUMPI PUSH2 0xF3A DUP2 PUSH2 0xE11 JUMP JUMPDEST PUSH2 0xF43 DUP5 PUSH2 0xE23 JUMP JUMPDEST DUP2 ADD PUSH1 0x20 DUP6 LT ISZERO PUSH2 0xF52 JUMPI DUP2 SWAP1 POP JUMPDEST PUSH2 0xF66 PUSH2 0xF5E DUP6 PUSH2 0xE23 JUMP JUMPDEST DUP4 ADD DUP3 PUSH2 0xF06 JUMP JUMPDEST POP POP JUMPDEST POP POP POP JUMP JUMPDEST PUSH0 DUP3 DUP3 SHR SWAP1 POP SWAP3 SWAP2 POP POP JUMP JUMPDEST PUSH0 PUSH2 0xF89 PUSH0 NOT DUP5 PUSH1 0x8 MUL PUSH2 0xF6E JUMP JUMPDEST NOT DUP1 DUP4 AND SWAP2 POP POP SWAP3 SWAP2 POP POP JUMP JUMPDEST PUSH0 PUSH2 0xFA1 DUP4 DUP4 PUSH2 0xF7A JUMP JUMPDEST SWAP2 POP DUP3 PUSH1 0x2 MUL DUP3 OR SWAP1 POP SWAP3 SWAP2 POP POP JUMP JUMPDEST PUSH2 0xFBA DUP3 PUSH2 0x805 JUMP JUMPDEST PUSH8 0xFFFFFFFFFFFFFFFF DUP2 GT ISZERO PUSH2 0xFD3 JUMPI PUSH2 0xFD2 PUSH2 0x8F0 JUMP JUMPDEST JUMPDEST PUSH2 0xFDD DUP3 SLOAD PUSH2 0xD11 JUMP JUMPDEST PUSH2 0xFE8 DUP3 DUP3 DUP6 PUSH2 0xF28 JUMP JUMPDEST PUSH0 PUSH1 0x20 SWAP1 POP PUSH1 0x1F DUP4 GT PUSH1 0x1 DUP2 EQ PUSH2 0x1019 JUMPI PUSH0 DUP5 ISZERO PUSH2 0x1007 JUMPI DUP3 DUP8 ADD MLOAD SWAP1 POP JUMPDEST PUSH2 0x1011 DUP6 DUP3 PUSH2 0xF96 JUMP JUMPDEST DUP7 SSTORE POP PUSH2 0x1078 JUMP JUMPDEST PUSH1 0x1F NOT DUP5 AND PUSH2 0x1027 DUP7 PUSH2 0xE11 JUMP JUMPDEST PUSH0 JUMPDEST DUP3 DUP2 LT ISZERO PUSH2 0x104E JUMPI DUP5 DUP10 ADD MLOAD DUP3 SSTORE PUSH1 0x1 DUP3 ADD SWAP2 POP PUSH1 0x20 DUP6 ADD SWAP5 POP PUSH1 0x20 DUP2 ADD SWAP1 POP PUSH2 0x1029 JUMP JUMPDEST DUP7 DUP4 LT ISZERO PUSH2 0x106B JUMPI DUP5 DUP10 ADD MLOAD PUSH2 0x1067 PUSH1 0x1F DUP10 AND DUP3 PUSH2 0xF7A JUMP JUMPDEST DUP4 SSTORE POP JUMPDEST PUSH1 0x1 PUSH1 0x2 DUP9 MUL ADD DUP9 SSTORE POP POP POP JUMPDEST POP POP POP POP POP POP JUMP JUMPDEST PUSH0 PUSH2 0x108A DUP3 PUSH2 0x7A7 JUMP JUMPDEST SWAP2 POP PUSH2 0x1095 DUP4 PUSH2 0x7A7 JUMP JUMPDEST SWAP3 POP DUP3 DUP3 ADD SWAP1 POP DUP1 DUP3 GT ISZERO PUSH2 0x10AD JUMPI PUSH2 0x10AC PUSH2 0xC70 JUMP JUMPDEST JUMPDEST SWAP3 SWAP2 POP POP JUMP JUMPDEST PUSH0 PUSH1 0x20 DUP3 ADD SWAP1 POP DUP2 DUP2 SUB PUSH0 DUP4 ADD MSTORE PUSH2 0x10CB DUP2 DUP5 PUSH2 0x83D JUMP JUMPDEST SWAP1 POP SWAP3 SWAP2 POP POP JUMP INVALID LOG2 PUSH5 0x6970667358 0x22 SLT KECCAK256 SWAP11 0x1F SWAP8 0xDE 0xBE PUSH19 0xC1F04D48F75FE5198FD5FDB891A2DE4FF039D7 0xA5 0xA7 SLOAD 0xD6 0x4D SWAP9 0xAF PUSH5 0x736F6C6343 STOP ADDMOD 0x1F STOP CALLER "
				},
				"gasEstimates": {
					"creation": {
						"codeDepositCost": "872200",
						"executionCost": "907",
						"totalCost": "873107"
					},
					"external": {
						"createProposal(string,uint256)": "infinite",
						"getProposalInfo(uint256)": "infinite",
						"getWinningProposal()": "infinite",
						"hasVoted(uint256,address)": "5244",
						"proposalCount()": "2491",
						"proposals(uint256)": "infinite",
						"vote(uint256)": "infinite"
					}
				},
				"methodIdentifiers": {
					"createProposal(string,uint256)": "35facf78",
					"getProposalInfo(uint256)": "bc903cb8",
					"getWinningProposal()": "a5134620",
					"hasVoted(uint256,address)": "43859632",
					"proposalCount()": "da35c664",
					"proposals(uint256)": "013cf08b",
					"vote(uint256)": "0121b93f"
				}
			},
			"storageLayout": {
				"storage": [
					{
						"astId": 19,
						"contract": "contracts/lesson3.2/VotingSystem.sol:VotingSystem",
						"label": "proposals",
						"offset": 0,
						"slot": "0",
						"type": "t_mapping(t_uint256,t_struct(Proposal)14_storage)"
					},
					{
						"astId": 21,
						"contract": "contracts/lesson3.2/VotingSystem.sol:VotingSystem",
						"label": "proposalCount",
						"offset": 0,
						"slot": "1",
						"type": "t_uint256"
					}
				],
				"types": {
					"t_address": {
						"encoding": "inplace",
						"label": "address",
						"numberOfBytes": "20"
					},
					"t_bool": {
						"encoding": "inplace",
						"label": "bool",
						"numberOfBytes": "1"
					},
					"t_mapping(t_address,t_bool)": {
						"encoding": "mapping",
						"key": "t_address",
						"label": "mapping(address => bool)",
						"numberOfBytes": "32",
						"value": "t_bool"
					},
					"t_mapping(t_uint256,t_struct(Proposal)14_storage)": {
						"encoding": "mapping",
						"key": "t_uint256",
						"label": "mapping(uint256 => struct VotingSystem.Proposal)",
						"numberOfBytes": "32",
						"value": "t_struct(Proposal)14_storage"
					},
					"t_string_storage": {
						"encoding": "bytes",
						"label": "string",
						"numberOfBytes": "32"
					},
					"t_struct(Proposal)14_storage": {
						"encoding": "inplace",
						"label": "struct VotingSystem.Proposal",
						"members": [
							{
								"astId": 3,
								"contract": "contracts/lesson3.2/VotingSystem.sol:VotingSystem",
								"label": "description",
								"offset": 0,
								"slot": "0",
								"type": "t_string_storage"
							},
							{
								"astId": 5,
								"contract": "contracts/lesson3.2/VotingSystem.sol:VotingSystem",
								"label": "voteCount",
								"offset": 0,
								"slot": "1",
								"type": "t_uint256"
							},
							{
								"astId": 7,
								"contract": "contracts/lesson3.2/VotingSystem.sol:VotingSystem",
								"label": "deadline",
								"offset": 0,
								"slot": "2",
								"type": "t_uint256"
							},
							{
								"astId": 9,
								"contract": "contracts/lesson3.2/VotingSystem.sol:VotingSystem",
								"label": "executed",
								"offset": 0,
								"slot": "3",
								"type": "t_bool"
							},
							{
								"astId": 13,
								"contract": "contracts/lesson3.2/VotingSystem.sol:VotingSystem",
								"label": "voters",
								"offset": 0,
								"slot": "4",
								"type": "t_mapping(t_address,t_bool)"
							}
						],
						"numberOfBytes": "160"
					},
					"t_uint256": {
						"encoding": "inplace",
						"label": "uint256",
						"numberOfBytes": "32"
					}
				}
			},
			"userdoc": {
				"kind": "user",
				"methods": {},
				"version": 1
			}
		}
	}
}