{
	"contracts/lesson3.1/TodoList.sol": {
		"TodoList": {
			"abi": [
				{
					"anonymous": false,
					"inputs": [
						{
							"indexed": true,
							"internalType": "address",
							"name": "user",
							"type": "address"
						},
						{
							"indexed": false,
							"internalType": "uint256",
							"name": "index",
							"type": "uint256"
						},
						{
							"indexed": false,
							"internalType": "string",
							"name": "task",
							"type": "string"
						}
					],
					"name": "TodoAdded",
					"type": "event"
				},
				{
					"anonymous": false,
					"inputs": [
						{
							"indexed": true,
							"internalType": "address",
							"name": "user",
							"type": "address"
						},
						{
							"indexed": false,
							"internalType": "uint256",
							"name": "index",
							"type": "uint256"
						}
					],
					"name": "TodoCompleted",
					"type": "event"
				},
				{
					"anonymous": false,
					"inputs": [
						{
							"indexed": true,
							"internalType": "address",
							"name": "user",
							"type": "address"
						},
						{
							"indexed": false,
							"internalType": "uint256",
							"name": "index",
							"type": "uint256"
						}
					],
					"name": "TodoDeleted",
					"type": "event"
				},
				{
					"inputs": [],
					"name": "MAX_TODOS",
					"outputs": [
						{
							"internalType": "uint256",
							"name": "",
							"type": "uint256"
						}
					],
					"stateMutability": "view",
					"type": "function"
				},
				{
					"inputs": [
						{
							"internalType": "string",
							"name": "task",
							"type": "string"
						}
					],
					"name": "addTodo",
					"outputs": [],
					"stateMutability": "nonpayable",
					"type": "function"
				},
				{
					"inputs": [
						{
							"internalType": "uint256",
							"name": "index",
							"type": "uint256"
						}
					],
					"name": "completeTodo",
					"outputs": [],
					"stateMutability": "nonpayable",
					"type": "function"
				},
				{
					"inputs": [
						{
							"internalType": "uint256",
							"name": "index",
							"type": "uint256"
						}
					],
					"name": "deleteTodo",
					"outputs": [],
					"stateMutability": "nonpayable",
					"type": "function"
				},
				{
					"inputs": [],
					"name": "getAllTodos",
					"outputs": [
						{
							"components": [
								{
									"internalType": "string",
									"name": "task",
									"type": "string"
								},
								{
									"internalType": "bool",
									"name": "completed",
									"type": "bool"
								},
								{
									"internalType": "uint256",
									"name": "timestamp",
									"type": "uint256"
								}
							],
							"internalType": "struct TodoList.Todo[]",
							"name": "",
							"type": "tuple[]"
						}
					],
					"stateMutability": "view",
					"type": "function"
				},
				{
					"inputs": [],
					"name": "getCompletedTodos",
					"outputs": [
						{
							"components": [
								{
									"internalType": "string",
									"name": "task",
									"type": "string"
								},
								{
									"internalType": "bool",
									"name": "completed",
									"type": "bool"
								},
								{
									"internalType": "uint256",
									"name": "timestamp",
									"type": "uint256"
								}
							],
							"internalType": "struct TodoList.Todo[]",
							"name": "",
							"type": "tuple[]"
						}
					],
					"stateMutability": "view",
					"type": "function"
				},
				{
					"inputs": [],
					"name": "getPendingTodos",
					"outputs": [
						{
							"components": [
								{
									"internalType": "string",
									"name": "task",
									"type": "string"
								},
								{
									"internalType": "bool",
									"name": "completed",
									"type": "bool"
								},
								{
									"internalType": "uint256",
									"name": "timestamp",
									"type": "uint256"
								}
							],
							"internalType": "struct TodoList.Todo[]",
							"name": "",
							"type": "tuple[]"
						}
					],
					"stateMutability": "view",
					"type": "function"
				},
				{
					"inputs": [],
					"name": "getTodoCount",
					"outputs": [
						{
							"internalType": "uint256",
							"name": "",
							"type": "uint256"
						}
					],
					"stateMutability": "view",
					"type": "function"
				}
			],
			"devdoc": {
				"kind": "dev",
				"methods": {},
				"version": 1
			},
			"evm": {
				"assembly": "    /* \"contracts/lesson3.1/TodoList.sol\":57:3579  contract TodoList {... */\n  mstore(0x40, 0x80)\n  callvalue\n  dup1\n  iszero\n  tag_1\n  jumpi\n  revert(0x00, 0x00)\ntag_1:\n  pop\n  dataSize(sub_0)\n  dup1\n  dataOffset(sub_0)\n  0x00\n  codecopy\n  0x00\n  return\nstop\n\nsub_0: assembly {\n        /* \"contracts/lesson3.1/TodoList.sol\":57:3579  contract TodoList {... */\n      mstore(0x40, 0x80)\n      callvalue\n      dup1\n      iszero\n      tag_1\n      jumpi\n      revert(0x00, 0x00)\n    tag_1:\n      pop\n      jumpi(tag_2, lt(calldatasize, 0x04))\n      shr(0xe0, calldataload(0x00))\n      dup1\n      0x95ffebf5\n      gt\n      tag_11\n      jumpi\n      dup1\n      0x95ffebf5\n      eq\n      tag_7\n      jumpi\n      dup1\n      0xce2bd5d5\n      eq\n      tag_8\n      jumpi\n      dup1\n      0xd7ba3d0a\n      eq\n      tag_9\n      jumpi\n      dup1\n      0xf141b153\n      eq\n      tag_10\n      jumpi\n      jump(tag_2)\n    tag_11:\n      dup1\n      0x104a7cd8\n      eq\n      tag_3\n      jumpi\n      dup1\n      0x10d41e82\n      eq\n      tag_4\n      jumpi\n      dup1\n      0x20fe2144\n      eq\n      tag_5\n      jumpi\n      dup1\n      0x6e3c6738\n      eq\n      tag_6\n      jumpi\n    tag_2:\n      revert(0x00, 0x00)\n        /* \"contracts/lesson3.1/TodoList.sol\":2019:2122  function getTodoCount() public view returns (uint) {... */\n    tag_3:\n      tag_12\n      tag_13\n      jump\t// in\n    tag_12:\n      mload(0x40)\n      tag_14\n      swap2\n      swap1\n      tag_15\n      jump\t// in\n    tag_14:\n      mload(0x40)\n      dup1\n      swap2\n      sub\n      swap1\n      return\n        /* \"contracts/lesson3.1/TodoList.sol\":2929:3577  function getCompletedTodos() public view returns (Todo[] memory) {... */\n    tag_4:\n      tag_16\n      tag_17\n      jump\t// in\n    tag_16:\n      mload(0x40)\n      tag_18\n      swap2\n      swap1\n      tag_19\n      jump\t// in\n    tag_18:\n      mload(0x40)\n      dup1\n      swap2\n      sub\n      swap1\n      return\n        /* \"contracts/lesson3.1/TodoList.sol\":1055:1371  function completeTodo(uint index) public {... */\n    tag_5:\n      tag_20\n      0x04\n      dup1\n      calldatasize\n      sub\n      dup2\n      add\n      swap1\n      tag_21\n      swap2\n      swap1\n      tag_22\n      jump\t// in\n    tag_21:\n      tag_23\n      jump\t// in\n    tag_20:\n      stop\n        /* \"contracts/lesson3.1/TodoList.sol\":1431:1843  function deleteTodo(uint index) public {... */\n    tag_6:\n      tag_24\n      0x04\n      dup1\n      calldatasize\n      sub\n      dup2\n      add\n      swap1\n      tag_25\n      swap2\n      swap1\n      tag_22\n      jump\t// in\n    tag_25:\n      tag_26\n      jump\t// in\n    tag_24:\n      stop\n        /* \"contracts/lesson3.1/TodoList.sol\":523:1022  function addTodo(string memory task) public {... */\n    tag_7:\n      tag_27\n      0x04\n      dup1\n      calldatasize\n      sub\n      dup2\n      add\n      swap1\n      tag_28\n      swap2\n      swap1\n      tag_29\n      jump\t// in\n    tag_28:\n      tag_30\n      jump\t// in\n    tag_27:\n      stop\n        /* \"contracts/lesson3.1/TodoList.sol\":1879:1983  function getAllTodos() public view returns (Todo[] memory) {... */\n    tag_8:\n      tag_31\n      tag_32\n      jump\t// in\n    tag_31:\n      mload(0x40)\n      tag_33\n      swap2\n      swap1\n      tag_19\n      jump\t// in\n    tag_33:\n      mload(0x40)\n      dup1\n      swap2\n      sub\n      swap1\n      return\n        /* \"contracts/lesson3.1/TodoList.sol\":2164:2887  function getPendingTodos() public view returns (Todo[] memory) {... */\n    tag_9:\n      tag_34\n      tag_35\n      jump\t// in\n    tag_34:\n      mload(0x40)\n      tag_36\n      swap2\n      swap1\n      tag_19\n      jump\t// in\n    tag_36:\n      mload(0x40)\n      dup1\n      swap2\n      sub\n      swap1\n      return\n        /* \"contracts/lesson3.1/TodoList.sol\":267:303  uint public constant MAX_TODOS = 100 */\n    tag_10:\n      tag_37\n      tag_38\n      jump\t// in\n    tag_37:\n      mload(0x40)\n      tag_39\n      swap2\n      swap1\n      tag_15\n      jump\t// in\n    tag_39:\n      mload(0x40)\n      dup1\n      swap2\n      sub\n      swap1\n      return\n        /* \"contracts/lesson3.1/TodoList.sol\":2019:2122  function getTodoCount() public view returns (uint) {... */\n    tag_13:\n        /* \"contracts/lesson3.1/TodoList.sol\":2064:2068  uint */\n      0x00\n        /* \"contracts/lesson3.1/TodoList.sol\":2087:2096  userTodos */\n      0x00\n        /* \"contracts/lesson3.1/TodoList.sol\":2087:2108  userTodos[msg.sender] */\n      0x00\n        /* \"contracts/lesson3.1/TodoList.sol\":2097:2107  msg.sender */\n      caller\n        /* \"contracts/lesson3.1/TodoList.sol\":2087:2108  userTodos[msg.sender] */\n      0xffffffffffffffffffffffffffffffffffffffff\n      and\n      0xffffffffffffffffffffffffffffffffffffffff\n      and\n      dup2\n      mstore\n      0x20\n      add\n      swap1\n      dup2\n      mstore\n      0x20\n      add\n      0x00\n      keccak256\n        /* \"contracts/lesson3.1/TodoList.sol\":2087:2115  userTodos[msg.sender].length */\n      dup1\n      sload\n      swap1\n      pop\n        /* \"contracts/lesson3.1/TodoList.sol\":2080:2115  return userTodos[msg.sender].length */\n      swap1\n      pop\n        /* \"contracts/lesson3.1/TodoList.sol\":2019:2122  function getTodoCount() public view returns (uint) {... */\n      swap1\n      jump\t// out\n        /* \"contracts/lesson3.1/TodoList.sol\":2929:3577  function getCompletedTodos() public view returns (Todo[] memory) {... */\n    tag_17:\n        /* \"contracts/lesson3.1/TodoList.sol\":2979:2992  Todo[] memory */\n      0x60\n        /* \"contracts/lesson3.1/TodoList.sol\":3004:3026  Todo[] memory allTodos */\n      0x00\n        /* \"contracts/lesson3.1/TodoList.sol\":3029:3038  userTodos */\n      0x00\n        /* \"contracts/lesson3.1/TodoList.sol\":3029:3050  userTodos[msg.sender] */\n      0x00\n        /* \"contracts/lesson3.1/TodoList.sol\":3039:3049  msg.sender */\n      caller\n        /* \"contracts/lesson3.1/TodoList.sol\":3029:3050  userTodos[msg.sender] */\n      0xffffffffffffffffffffffffffffffffffffffff\n      and\n      0xffffffffffffffffffffffffffffffffffffffff\n      and\n      dup2\n      mstore\n      0x20\n      add\n      swap1\n      dup2\n      mstore\n      0x20\n      add\n      0x00\n      keccak256\n        /* \"contracts/lesson3.1/TodoList.sol\":3004:3050  Todo[] memory allTodos = userTodos[msg.sender] */\n      dup1\n      sload\n      dup1\n      0x20\n      mul\n      0x20\n      add\n      mload(0x40)\n      swap1\n      dup2\n      add\n      0x40\n      mstore\n      dup1\n      swap3\n      swap2\n      swap1\n      dup2\n      dup2\n      mstore\n      0x20\n      add\n      0x00\n      swap1\n    tag_42:\n      dup3\n      dup3\n      lt\n      iszero\n      tag_43\n      jumpi\n      dup4\n      dup3\n      swap1\n      0x00\n      mstore\n      keccak256(0x00, 0x20)\n      swap1\n      0x03\n      mul\n      add\n      mload(0x40)\n      dup1\n      0x60\n      add\n      0x40\n      mstore\n      swap1\n      dup2\n      0x00\n      dup3\n      add\n      dup1\n      sload\n      tag_45\n      swap1\n      tag_46\n      jump\t// in\n    tag_45:\n      dup1\n      0x1f\n      add\n      0x20\n      dup1\n      swap2\n      div\n      mul\n      0x20\n      add\n      mload(0x40)\n      swap1\n      dup2\n      add\n      0x40\n      mstore\n      dup1\n      swap3\n      swap2\n      swap1\n      dup2\n      dup2\n      mstore\n      0x20\n      add\n      dup3\n      dup1\n      sload\n      tag_47\n      swap1\n      tag_46\n      jump\t// in\n    tag_47:\n      dup1\n      iszero\n      tag_48\n      jumpi\n      dup1\n      0x1f\n      lt\n      tag_49\n      jumpi\n      0x0100\n      dup1\n      dup4\n      sload\n      div\n      mul\n      dup4\n      mstore\n      swap2\n      0x20\n      add\n      swap2\n      jump(tag_48)\n    tag_49:\n      dup3\n      add\n      swap2\n      swap1\n      0x00\n      mstore\n      keccak256(0x00, 0x20)\n      swap1\n    tag_50:\n      dup2\n      sload\n      dup2\n      mstore\n      swap1\n      0x01\n      add\n      swap1\n      0x20\n      add\n      dup1\n      dup4\n      gt\n      tag_50\n      jumpi\n      dup3\n      swap1\n      sub\n      0x1f\n      and\n      dup3\n      add\n      swap2\n    tag_48:\n      pop\n      pop\n      pop\n      pop\n      pop\n      dup2\n      mstore\n      0x20\n      add\n      0x01\n      dup3\n      add\n      0x00\n      swap1\n      sload\n      swap1\n      0x0100\n      exp\n      swap1\n      div\n      0xff\n      and\n      iszero\n      iszero\n      iszero\n      iszero\n      dup2\n      mstore\n      0x20\n      add\n      0x02\n      dup3\n      add\n      sload\n      dup2\n      mstore\n      pop\n      pop\n      dup2\n      mstore\n      0x20\n      add\n      swap1\n      0x01\n      add\n      swap1\n      jump(tag_42)\n    tag_43:\n      pop\n      pop\n      pop\n      pop\n      swap1\n      pop\n        /* \"contracts/lesson3.1/TodoList.sol\":3060:3079  uint completedCount */\n      0x00\n        /* \"contracts/lesson3.1/TodoList.sol\":3082:3083  0 */\n      0x00\n        /* \"contracts/lesson3.1/TodoList.sol\":3060:3083  uint completedCount = 0 */\n      swap1\n      pop\n        /* \"contracts/lesson3.1/TodoList.sol\":3106:3112  uint i */\n      0x00\n        /* \"contracts/lesson3.1/TodoList.sol\":3115:3116  0 */\n      0x00\n        /* \"contracts/lesson3.1/TodoList.sol\":3106:3116  uint i = 0 */\n      swap1\n      pop\n        /* \"contracts/lesson3.1/TodoList.sol\":3102:3243  for(uint i = 0; i < allTodos.length; i++) {... */\n    tag_51:\n        /* \"contracts/lesson3.1/TodoList.sol\":3122:3130  allTodos */\n      dup3\n        /* \"contracts/lesson3.1/TodoList.sol\":3122:3137  allTodos.length */\n      mload\n        /* \"contracts/lesson3.1/TodoList.sol\":3118:3119  i */\n      dup2\n        /* \"contracts/lesson3.1/TodoList.sol\":3118:3137  i < allTodos.length */\n      lt\n        /* \"contracts/lesson3.1/TodoList.sol\":3102:3243  for(uint i = 0; i < allTodos.length; i++) {... */\n      iszero\n      tag_52\n      jumpi\n        /* \"contracts/lesson3.1/TodoList.sol\":3161:3169  allTodos */\n      dup3\n        /* \"contracts/lesson3.1/TodoList.sol\":3170:3171  i */\n      dup2\n        /* \"contracts/lesson3.1/TodoList.sol\":3161:3172  allTodos[i] */\n      dup2\n      mload\n      dup2\n      lt\n      tag_54\n      jumpi\n      tag_55\n      tag_56\n      jump\t// in\n    tag_55:\n    tag_54:\n      0x20\n      mul\n      0x20\n      add\n      add\n      mload\n        /* \"contracts/lesson3.1/TodoList.sol\":3161:3182  allTodos[i].completed */\n      0x20\n      add\n      mload\n        /* \"contracts/lesson3.1/TodoList.sol\":3158:3233  if(allTodos[i].completed) {... */\n      iszero\n      tag_57\n      jumpi\n        /* \"contracts/lesson3.1/TodoList.sol\":3202:3218  completedCount++ */\n      dup2\n      dup1\n      tag_58\n      swap1\n      tag_59\n      jump\t// in\n    tag_58:\n      swap3\n      pop\n      pop\n        /* \"contracts/lesson3.1/TodoList.sol\":3158:3233  if(allTodos[i].completed) {... */\n    tag_57:\n        /* \"contracts/lesson3.1/TodoList.sol\":3139:3142  i++ */\n      dup1\n      dup1\n      0x01\n      add\n      swap2\n      pop\n      pop\n        /* \"contracts/lesson3.1/TodoList.sol\":3102:3243  for(uint i = 0; i < allTodos.length; i++) {... */\n      jump(tag_51)\n    tag_52:\n      pop\n        /* \"contracts/lesson3.1/TodoList.sol\":3261:3284  Todo[] memory completed */\n      0x00\n        /* \"contracts/lesson3.1/TodoList.sol\":3298:3312  completedCount */\n      dup2\n        /* \"contracts/lesson3.1/TodoList.sol\":3287:3313  new Todo[](completedCount) */\n      0xffffffffffffffff\n      dup2\n      gt\n      iszero\n      tag_60\n      jumpi\n      tag_61\n      tag_62\n      jump\t// in\n    tag_61:\n    tag_60:\n      mload(0x40)\n      swap1\n      dup1\n      dup3\n      mstore\n      dup1\n      0x20\n      mul\n      0x20\n      add\n      dup3\n      add\n      0x40\n      mstore\n      dup1\n      iszero\n      tag_63\n      jumpi\n      dup2\n      0x20\n      add\n    tag_64:\n      tag_65\n      tag_66\n      jump\t// in\n    tag_65:\n      dup2\n      mstore\n      0x20\n      add\n      swap1\n      0x01\n      swap1\n      sub\n      swap1\n      dup2\n      tag_64\n      jumpi\n      swap1\n      pop\n    tag_63:\n      pop\n        /* \"contracts/lesson3.1/TodoList.sol\":3261:3313  Todo[] memory completed = new Todo[](completedCount) */\n      swap1\n      pop\n        /* \"contracts/lesson3.1/TodoList.sol\":3323:3333  uint index */\n      0x00\n        /* \"contracts/lesson3.1/TodoList.sol\":3336:3337  0 */\n      0x00\n        /* \"contracts/lesson3.1/TodoList.sol\":3323:3337  uint index = 0 */\n      swap1\n      pop\n        /* \"contracts/lesson3.1/TodoList.sol\":3360:3366  uint i */\n      0x00\n        /* \"contracts/lesson3.1/TodoList.sol\":3369:3370  0 */\n      0x00\n        /* \"contracts/lesson3.1/TodoList.sol\":3360:3370  uint i = 0 */\n      swap1\n      pop\n        /* \"contracts/lesson3.1/TodoList.sol\":3356:3536  for(uint i = 0; i < allTodos.length; i++) {... */\n    tag_67:\n        /* \"contracts/lesson3.1/TodoList.sol\":3376:3384  allTodos */\n      dup5\n        /* \"contracts/lesson3.1/TodoList.sol\":3376:3391  allTodos.length */\n      mload\n        /* \"contracts/lesson3.1/TodoList.sol\":3372:3373  i */\n      dup2\n        /* \"contracts/lesson3.1/TodoList.sol\":3372:3391  i < allTodos.length */\n      lt\n        /* \"contracts/lesson3.1/TodoList.sol\":3356:3536  for(uint i = 0; i < allTodos.length; i++) {... */\n      iszero\n      tag_68\n      jumpi\n        /* \"contracts/lesson3.1/TodoList.sol\":3415:3423  allTodos */\n      dup5\n        /* \"contracts/lesson3.1/TodoList.sol\":3424:3425  i */\n      dup2\n        /* \"contracts/lesson3.1/TodoList.sol\":3415:3426  allTodos[i] */\n      dup2\n      mload\n      dup2\n      lt\n      tag_70\n      jumpi\n      tag_71\n      tag_56\n      jump\t// in\n    tag_71:\n    tag_70:\n      0x20\n      mul\n      0x20\n      add\n      add\n      mload\n        /* \"contracts/lesson3.1/TodoList.sol\":3415:3436  allTodos[i].completed */\n      0x20\n      add\n      mload\n        /* \"contracts/lesson3.1/TodoList.sol\":3412:3526  if(allTodos[i].completed) {... */\n      iszero\n      tag_72\n      jumpi\n        /* \"contracts/lesson3.1/TodoList.sol\":3475:3483  allTodos */\n      dup5\n        /* \"contracts/lesson3.1/TodoList.sol\":3484:3485  i */\n      dup2\n        /* \"contracts/lesson3.1/TodoList.sol\":3475:3486  allTodos[i] */\n      dup2\n      mload\n      dup2\n      lt\n      tag_73\n      jumpi\n      tag_74\n      tag_56\n      jump\t// in\n    tag_74:\n    tag_73:\n      0x20\n      mul\n      0x20\n      add\n      add\n      mload\n        /* \"contracts/lesson3.1/TodoList.sol\":3456:3465  completed */\n      dup4\n        /* \"contracts/lesson3.1/TodoList.sol\":3466:3471  index */\n      dup4\n        /* \"contracts/lesson3.1/TodoList.sol\":3456:3472  completed[index] */\n      dup2\n      mload\n      dup2\n      lt\n      tag_75\n      jumpi\n      tag_76\n      tag_56\n      jump\t// in\n    tag_76:\n    tag_75:\n      0x20\n      mul\n      0x20\n      add\n      add\n        /* \"contracts/lesson3.1/TodoList.sol\":3456:3486  completed[index] = allTodos[i] */\n      dup2\n      swap1\n      mstore\n      pop\n        /* \"contracts/lesson3.1/TodoList.sol\":3504:3511  index++ */\n      dup2\n      dup1\n      tag_77\n      swap1\n      tag_59\n      jump\t// in\n    tag_77:\n      swap3\n      pop\n      pop\n        /* \"contracts/lesson3.1/TodoList.sol\":3412:3526  if(allTodos[i].completed) {... */\n    tag_72:\n        /* \"contracts/lesson3.1/TodoList.sol\":3393:3396  i++ */\n      dup1\n      dup1\n      0x01\n      add\n      swap2\n      pop\n      pop\n        /* \"contracts/lesson3.1/TodoList.sol\":3356:3536  for(uint i = 0; i < allTodos.length; i++) {... */\n      jump(tag_67)\n    tag_68:\n      pop\n        /* \"contracts/lesson3.1/TodoList.sol\":3561:3570  completed */\n      dup2\n        /* \"contracts/lesson3.1/TodoList.sol\":3554:3570  return completed */\n      swap5\n      pop\n      pop\n      pop\n      pop\n      pop\n        /* \"contracts/lesson3.1/TodoList.sol\":2929:3577  function getCompletedTodos() public view returns (Todo[] memory) {... */\n      swap1\n      jump\t// out\n        /* \"contracts/lesson3.1/TodoList.sol\":1055:1371  function completeTodo(uint index) public {... */\n    tag_23:\n        /* \"contracts/lesson3.1/TodoList.sol\":1122:1131  userTodos */\n      0x00\n        /* \"contracts/lesson3.1/TodoList.sol\":1122:1143  userTodos[msg.sender] */\n      0x00\n        /* \"contracts/lesson3.1/TodoList.sol\":1132:1142  msg.sender */\n      caller\n        /* \"contracts/lesson3.1/TodoList.sol\":1122:1143  userTodos[msg.sender] */\n      0xffffffffffffffffffffffffffffffffffffffff\n      and\n      0xffffffffffffffffffffffffffffffffffffffff\n      and\n      dup2\n      mstore\n      0x20\n      add\n      swap1\n      dup2\n      mstore\n      0x20\n      add\n      0x00\n      keccak256\n        /* \"contracts/lesson3.1/TodoList.sol\":1122:1150  userTodos[msg.sender].length */\n      dup1\n      sload\n      swap1\n      pop\n        /* \"contracts/lesson3.1/TodoList.sol\":1114:1119  index */\n      dup2\n        /* \"contracts/lesson3.1/TodoList.sol\":1114:1150  index < userTodos[msg.sender].length */\n      lt\n        /* \"contracts/lesson3.1/TodoList.sol\":1106:1174  require(index < userTodos[msg.sender].length, \"Index out of bounds\") */\n      tag_79\n      jumpi\n      mload(0x40)\n      0x08c379a000000000000000000000000000000000000000000000000000000000\n      dup2\n      mstore\n      0x04\n      add\n      tag_80\n      swap1\n      tag_81\n      jump\t// in\n    tag_80:\n      mload(0x40)\n      dup1\n      swap2\n      sub\n      swap1\n      revert\n    tag_79:\n        /* \"contracts/lesson3.1/TodoList.sol\":1193:1202  userTodos */\n      0x00\n        /* \"contracts/lesson3.1/TodoList.sol\":1193:1214  userTodos[msg.sender] */\n      0x00\n        /* \"contracts/lesson3.1/TodoList.sol\":1203:1213  msg.sender */\n      caller\n        /* \"contracts/lesson3.1/TodoList.sol\":1193:1214  userTodos[msg.sender] */\n      0xffffffffffffffffffffffffffffffffffffffff\n      and\n      0xffffffffffffffffffffffffffffffffffffffff\n      and\n      dup2\n      mstore\n      0x20\n      add\n      swap1\n      dup2\n      mstore\n      0x20\n      add\n      0x00\n      keccak256\n        /* \"contracts/lesson3.1/TodoList.sol\":1215:1220  index */\n      dup2\n        /* \"contracts/lesson3.1/TodoList.sol\":1193:1221  userTodos[msg.sender][index] */\n      dup2\n      sload\n      dup2\n      lt\n      tag_82\n      jumpi\n      tag_83\n      tag_56\n      jump\t// in\n    tag_83:\n    tag_82:\n      swap1\n      0x00\n      mstore\n      keccak256(0x00, 0x20)\n      swap1\n      0x03\n      mul\n      add\n        /* \"contracts/lesson3.1/TodoList.sol\":1193:1231  userTodos[msg.sender][index].completed */\n      0x01\n      add\n      0x00\n      swap1\n      sload\n      swap1\n      0x0100\n      exp\n      swap1\n      div\n      0xff\n      and\n        /* \"contracts/lesson3.1/TodoList.sol\":1192:1231  !userTodos[msg.sender][index].completed */\n      iszero\n        /* \"contracts/lesson3.1/TodoList.sol\":1184:1253  require(!userTodos[msg.sender][index].completed, \"Already completed\") */\n      tag_85\n      jumpi\n      mload(0x40)\n      0x08c379a000000000000000000000000000000000000000000000000000000000\n      dup2\n      mstore\n      0x04\n      add\n      tag_86\n      swap1\n      tag_87\n      jump\t// in\n    tag_86:\n      mload(0x40)\n      dup1\n      swap2\n      sub\n      swap1\n      revert\n    tag_85:\n        /* \"contracts/lesson3.1/TodoList.sol\":1313:1317  true */\n      0x01\n        /* \"contracts/lesson3.1/TodoList.sol\":1272:1281  userTodos */\n      0x00\n        /* \"contracts/lesson3.1/TodoList.sol\":1272:1293  userTodos[msg.sender] */\n      0x00\n        /* \"contracts/lesson3.1/TodoList.sol\":1282:1292  msg.sender */\n      caller\n        /* \"contracts/lesson3.1/TodoList.sol\":1272:1293  userTodos[msg.sender] */\n      0xffffffffffffffffffffffffffffffffffffffff\n      and\n      0xffffffffffffffffffffffffffffffffffffffff\n      and\n      dup2\n      mstore\n      0x20\n      add\n      swap1\n      dup2\n      mstore\n      0x20\n      add\n      0x00\n      keccak256\n        /* \"contracts/lesson3.1/TodoList.sol\":1294:1299  index */\n      dup3\n        /* \"contracts/lesson3.1/TodoList.sol\":1272:1300  userTodos[msg.sender][index] */\n      dup2\n      sload\n      dup2\n      lt\n      tag_88\n      jumpi\n      tag_89\n      tag_56\n      jump\t// in\n    tag_89:\n    tag_88:\n      swap1\n      0x00\n      mstore\n      keccak256(0x00, 0x20)\n      swap1\n      0x03\n      mul\n      add\n        /* \"contracts/lesson3.1/TodoList.sol\":1272:1310  userTodos[msg.sender][index].completed */\n      0x01\n      add\n      0x00\n        /* \"contracts/lesson3.1/TodoList.sol\":1272:1317  userTodos[msg.sender][index].completed = true */\n      0x0100\n      exp\n      dup2\n      sload\n      dup2\n      0xff\n      mul\n      not\n      and\n      swap1\n      dup4\n      iszero\n      iszero\n      mul\n      or\n      swap1\n      sstore\n      pop\n        /* \"contracts/lesson3.1/TodoList.sol\":1346:1356  msg.sender */\n      caller\n        /* \"contracts/lesson3.1/TodoList.sol\":1332:1364  TodoCompleted(msg.sender, index) */\n      0xffffffffffffffffffffffffffffffffffffffff\n      and\n      0x67ded622a190b565ce61203d9279a5c28931773c0919bf91ce964f6cd909e9b4\n        /* \"contracts/lesson3.1/TodoList.sol\":1358:1363  index */\n      dup3\n        /* \"contracts/lesson3.1/TodoList.sol\":1332:1364  TodoCompleted(msg.sender, index) */\n      mload(0x40)\n      tag_91\n      swap2\n      swap1\n      tag_15\n      jump\t// in\n    tag_91:\n      mload(0x40)\n      dup1\n      swap2\n      sub\n      swap1\n      log2\n        /* \"contracts/lesson3.1/TodoList.sol\":1055:1371  function completeTodo(uint index) public {... */\n      pop\n      jump\t// out\n        /* \"contracts/lesson3.1/TodoList.sol\":1431:1843  function deleteTodo(uint index) public {... */\n    tag_26:\n        /* \"contracts/lesson3.1/TodoList.sol\":1496:1505  userTodos */\n      0x00\n        /* \"contracts/lesson3.1/TodoList.sol\":1496:1517  userTodos[msg.sender] */\n      0x00\n        /* \"contracts/lesson3.1/TodoList.sol\":1506:1516  msg.sender */\n      caller\n        /* \"contracts/lesson3.1/TodoList.sol\":1496:1517  userTodos[msg.sender] */\n      0xffffffffffffffffffffffffffffffffffffffff\n      and\n      0xffffffffffffffffffffffffffffffffffffffff\n      and\n      dup2\n      mstore\n      0x20\n      add\n      swap1\n      dup2\n      mstore\n      0x20\n      add\n      0x00\n      keccak256\n        /* \"contracts/lesson3.1/TodoList.sol\":1496:1524  userTodos[msg.sender].length */\n      dup1\n      sload\n      swap1\n      pop\n        /* \"contracts/lesson3.1/TodoList.sol\":1488:1493  index */\n      dup2\n        /* \"contracts/lesson3.1/TodoList.sol\":1488:1524  index < userTodos[msg.sender].length */\n      lt\n        /* \"contracts/lesson3.1/TodoList.sol\":1480:1548  require(index < userTodos[msg.sender].length, \"Index out of bounds\") */\n      tag_93\n      jumpi\n      mload(0x40)\n      0x08c379a000000000000000000000000000000000000000000000000000000000\n      dup2\n      mstore\n      0x04\n      add\n      tag_94\n      swap1\n      tag_81\n      jump\t// in\n    tag_94:\n      mload(0x40)\n      dup1\n      swap2\n      sub\n      swap1\n      revert\n    tag_93:\n        /* \"contracts/lesson3.1/TodoList.sol\":1567:1581  uint lastIndex */\n      0x00\n        /* \"contracts/lesson3.1/TodoList.sol\":1615:1616  1 */\n      0x01\n        /* \"contracts/lesson3.1/TodoList.sol\":1584:1593  userTodos */\n      0x00\n        /* \"contracts/lesson3.1/TodoList.sol\":1584:1605  userTodos[msg.sender] */\n      0x00\n        /* \"contracts/lesson3.1/TodoList.sol\":1594:1604  msg.sender */\n      caller\n        /* \"contracts/lesson3.1/TodoList.sol\":1584:1605  userTodos[msg.sender] */\n      0xffffffffffffffffffffffffffffffffffffffff\n      and\n      0xffffffffffffffffffffffffffffffffffffffff\n      and\n      dup2\n      mstore\n      0x20\n      add\n      swap1\n      dup2\n      mstore\n      0x20\n      add\n      0x00\n      keccak256\n        /* \"contracts/lesson3.1/TodoList.sol\":1584:1612  userTodos[msg.sender].length */\n      dup1\n      sload\n      swap1\n      pop\n        /* \"contracts/lesson3.1/TodoList.sol\":1584:1616  userTodos[msg.sender].length - 1 */\n      tag_95\n      swap2\n      swap1\n      tag_96\n      jump\t// in\n    tag_95:\n        /* \"contracts/lesson3.1/TodoList.sol\":1567:1616  uint lastIndex = userTodos[msg.sender].length - 1 */\n      swap1\n      pop\n        /* \"contracts/lesson3.1/TodoList.sol\":1647:1656  lastIndex */\n      dup1\n        /* \"contracts/lesson3.1/TodoList.sol\":1638:1643  index */\n      dup3\n        /* \"contracts/lesson3.1/TodoList.sol\":1638:1656  index != lastIndex */\n      eq\n        /* \"contracts/lesson3.1/TodoList.sol\":1635:1746  if(index != lastIndex) {... */\n      tag_97\n      jumpi\n        /* \"contracts/lesson3.1/TodoList.sol\":1703:1712  userTodos */\n      0x00\n        /* \"contracts/lesson3.1/TodoList.sol\":1703:1724  userTodos[msg.sender] */\n      0x00\n        /* \"contracts/lesson3.1/TodoList.sol\":1713:1723  msg.sender */\n      caller\n        /* \"contracts/lesson3.1/TodoList.sol\":1703:1724  userTodos[msg.sender] */\n      0xffffffffffffffffffffffffffffffffffffffff\n      and\n      0xffffffffffffffffffffffffffffffffffffffff\n      and\n      dup2\n      mstore\n      0x20\n      add\n      swap1\n      dup2\n      mstore\n      0x20\n      add\n      0x00\n      keccak256\n        /* \"contracts/lesson3.1/TodoList.sol\":1725:1734  lastIndex */\n      dup2\n        /* \"contracts/lesson3.1/TodoList.sol\":1703:1735  userTodos[msg.sender][lastIndex] */\n      dup2\n      sload\n      dup2\n      lt\n      tag_98\n      jumpi\n      tag_99\n      tag_56\n      jump\t// in\n    tag_99:\n    tag_98:\n      swap1\n      0x00\n      mstore\n      keccak256(0x00, 0x20)\n      swap1\n      0x03\n      mul\n      add\n        /* \"contracts/lesson3.1/TodoList.sol\":1672:1681  userTodos */\n      0x00\n        /* \"contracts/lesson3.1/TodoList.sol\":1672:1693  userTodos[msg.sender] */\n      0x00\n        /* \"contracts/lesson3.1/TodoList.sol\":1682:1692  msg.sender */\n      caller\n        /* \"contracts/lesson3.1/TodoList.sol\":1672:1693  userTodos[msg.sender] */\n      0xffffffffffffffffffffffffffffffffffffffff\n      and\n      0xffffffffffffffffffffffffffffffffffffffff\n      and\n      dup2\n      mstore\n      0x20\n      add\n      swap1\n      dup2\n      mstore\n      0x20\n      add\n      0x00\n      keccak256\n        /* \"contracts/lesson3.1/TodoList.sol\":1694:1699  index */\n      dup4\n        /* \"contracts/lesson3.1/TodoList.sol\":1672:1700  userTodos[msg.sender][index] */\n      dup2\n      sload\n      dup2\n      lt\n      tag_101\n      jumpi\n      tag_102\n      tag_56\n      jump\t// in\n    tag_102:\n    tag_101:\n      swap1\n      0x00\n      mstore\n      keccak256(0x00, 0x20)\n      swap1\n      0x03\n      mul\n      add\n        /* \"contracts/lesson3.1/TodoList.sol\":1672:1735  userTodos[msg.sender][index] = userTodos[msg.sender][lastIndex] */\n      0x00\n      dup3\n      add\n      dup2\n      0x00\n      add\n      swap1\n      dup2\n      tag_104\n      swap2\n      swap1\n      tag_105\n      jump\t// in\n    tag_104:\n      pop\n      0x01\n      dup3\n      add\n      0x00\n      swap1\n      sload\n      swap1\n      0x0100\n      exp\n      swap1\n      div\n      0xff\n      and\n      dup2\n      0x01\n      add\n      exp(0x0100, 0x00)\n      dup2\n      sload\n      dup2\n      0xff\n      mul\n      not\n      and\n      swap1\n      dup4\n      iszero\n      iszero\n      mul\n      or\n      swap1\n      sstore\n      pop\n      0x02\n      dup3\n      add\n      sload\n      dup2\n      0x02\n      add\n      sstore\n      swap1\n      pop\n      pop\n        /* \"contracts/lesson3.1/TodoList.sol\":1635:1746  if(index != lastIndex) {... */\n    tag_97:\n        /* \"contracts/lesson3.1/TodoList.sol\":1764:1773  userTodos */\n      0x00\n        /* \"contracts/lesson3.1/TodoList.sol\":1764:1785  userTodos[msg.sender] */\n      0x00\n        /* \"contracts/lesson3.1/TodoList.sol\":1774:1784  msg.sender */\n      caller\n        /* \"contracts/lesson3.1/TodoList.sol\":1764:1785  userTodos[msg.sender] */\n      0xffffffffffffffffffffffffffffffffffffffff\n      and\n      0xffffffffffffffffffffffffffffffffffffffff\n      and\n      dup2\n      mstore\n      0x20\n      add\n      swap1\n      dup2\n      mstore\n      0x20\n      add\n      0x00\n      keccak256\n        /* \"contracts/lesson3.1/TodoList.sol\":1764:1791  userTodos[msg.sender].pop() */\n      dup1\n      sload\n      dup1\n      tag_106\n      jumpi\n      tag_107\n      tag_108\n      jump\t// in\n    tag_107:\n    tag_106:\n      0x01\n      swap1\n      sub\n      dup2\n      dup2\n      swap1\n      0x00\n      mstore\n      keccak256(0x00, 0x20)\n      swap1\n      0x03\n      mul\n      add\n      0x00\n      0x00\n      dup3\n      add\n      0x00\n      tag_110\n      swap2\n      swap1\n      tag_111\n      jump\t// in\n    tag_110:\n      0x01\n      dup3\n      add\n      exp(0x0100, 0x00)\n      dup2\n      sload\n      swap1\n      0xff\n      mul\n      not\n      and\n      swap1\n      sstore\n      0x02\n      dup3\n      add\n      0x00\n      swap1\n      sstore\n      pop\n      pop\n      swap1\n      sstore\n        /* \"contracts/lesson3.1/TodoList.sol\":1818:1828  msg.sender */\n      caller\n        /* \"contracts/lesson3.1/TodoList.sol\":1806:1836  TodoDeleted(msg.sender, index) */\n      0xffffffffffffffffffffffffffffffffffffffff\n      and\n      0x24d84cd6bd5cc33dafa556a214e7d9e1b4fccca98b3e7d1413909e4710f02ff3\n        /* \"contracts/lesson3.1/TodoList.sol\":1830:1835  index */\n      dup4\n        /* \"contracts/lesson3.1/TodoList.sol\":1806:1836  TodoDeleted(msg.sender, index) */\n      mload(0x40)\n      tag_112\n      swap2\n      swap1\n      tag_15\n      jump\t// in\n    tag_112:\n      mload(0x40)\n      dup1\n      swap2\n      sub\n      swap1\n      log2\n        /* \"contracts/lesson3.1/TodoList.sol\":1470:1843  {... */\n      pop\n        /* \"contracts/lesson3.1/TodoList.sol\":1431:1843  function deleteTodo(uint index) public {... */\n      pop\n      jump\t// out\n        /* \"contracts/lesson3.1/TodoList.sol\":523:1022  function addTodo(string memory task) public {... */\n    tag_30:\n        /* \"contracts/lesson3.1/TodoList.sol\":606:607  0 */\n      0x00\n        /* \"contracts/lesson3.1/TodoList.sol\":591:595  task */\n      dup2\n        /* \"contracts/lesson3.1/TodoList.sol\":585:603  bytes(task).length */\n      mload\n        /* \"contracts/lesson3.1/TodoList.sol\":585:607  bytes(task).length > 0 */\n      gt\n        /* \"contracts/lesson3.1/TodoList.sol\":577:632  require(bytes(task).length > 0, \"Task cannot be empty\") */\n      tag_114\n      jumpi\n      mload(0x40)\n      0x08c379a000000000000000000000000000000000000000000000000000000000\n      dup2\n      mstore\n      0x04\n      add\n      tag_115\n      swap1\n      tag_116\n      jump\t// in\n    tag_115:\n      mload(0x40)\n      dup1\n      swap2\n      sub\n      swap1\n      revert\n    tag_114:\n        /* \"contracts/lesson3.1/TodoList.sol\":672:675  200 */\n      0xc8\n        /* \"contracts/lesson3.1/TodoList.sol\":656:660  task */\n      dup2\n        /* \"contracts/lesson3.1/TodoList.sol\":650:668  bytes(task).length */\n      mload\n        /* \"contracts/lesson3.1/TodoList.sol\":650:675  bytes(task).length <= 200 */\n      gt\n      iszero\n        /* \"contracts/lesson3.1/TodoList.sol\":642:693  require(bytes(task).length <= 200, \"Task too long\") */\n      tag_117\n      jumpi\n      mload(0x40)\n      0x08c379a000000000000000000000000000000000000000000000000000000000\n      dup2\n      mstore\n      0x04\n      add\n      tag_118\n      swap1\n      tag_119\n      jump\t// in\n    tag_118:\n      mload(0x40)\n      dup1\n      swap2\n      sub\n      swap1\n      revert\n    tag_117:\n        /* \"contracts/lesson3.1/TodoList.sol\":300:303  100 */\n      0x64\n        /* \"contracts/lesson3.1/TodoList.sol\":711:720  userTodos */\n      0x00\n        /* \"contracts/lesson3.1/TodoList.sol\":711:732  userTodos[msg.sender] */\n      0x00\n        /* \"contracts/lesson3.1/TodoList.sol\":721:731  msg.sender */\n      caller\n        /* \"contracts/lesson3.1/TodoList.sol\":711:732  userTodos[msg.sender] */\n      0xffffffffffffffffffffffffffffffffffffffff\n      and\n      0xffffffffffffffffffffffffffffffffffffffff\n      and\n      dup2\n      mstore\n      0x20\n      add\n      swap1\n      dup2\n      mstore\n      0x20\n      add\n      0x00\n      keccak256\n        /* \"contracts/lesson3.1/TodoList.sol\":711:739  userTodos[msg.sender].length */\n      dup1\n      sload\n      swap1\n      pop\n        /* \"contracts/lesson3.1/TodoList.sol\":711:751  userTodos[msg.sender].length < MAX_TODOS */\n      lt\n        /* \"contracts/lesson3.1/TodoList.sol\":703:773  require(userTodos[msg.sender].length < MAX_TODOS, \"Todo list is full\") */\n      tag_120\n      jumpi\n      mload(0x40)\n      0x08c379a000000000000000000000000000000000000000000000000000000000\n      dup2\n      mstore\n      0x04\n      add\n      tag_121\n      swap1\n      tag_122\n      jump\t// in\n    tag_121:\n      mload(0x40)\n      dup1\n      swap2\n      sub\n      swap1\n      revert\n    tag_120:\n        /* \"contracts/lesson3.1/TodoList.sol\":792:801  userTodos */\n      0x00\n        /* \"contracts/lesson3.1/TodoList.sol\":792:813  userTodos[msg.sender] */\n      0x00\n        /* \"contracts/lesson3.1/TodoList.sol\":802:812  msg.sender */\n      caller\n        /* \"contracts/lesson3.1/TodoList.sol\":792:813  userTodos[msg.sender] */\n      0xffffffffffffffffffffffffffffffffffffffff\n      and\n      0xffffffffffffffffffffffffffffffffffffffff\n      and\n      dup2\n      mstore\n      0x20\n      add\n      swap1\n      dup2\n      mstore\n      0x20\n      add\n      0x00\n      keccak256\n        /* \"contracts/lesson3.1/TodoList.sol\":819:929  Todo({... */\n      mload(0x40)\n      dup1\n      0x60\n      add\n      0x40\n      mstore\n      dup1\n        /* \"contracts/lesson3.1/TodoList.sol\":844:848  task */\n      dup4\n        /* \"contracts/lesson3.1/TodoList.sol\":819:929  Todo({... */\n      dup2\n      mstore\n      0x20\n      add\n        /* \"contracts/lesson3.1/TodoList.sol\":873:878  false */\n      0x00\n        /* \"contracts/lesson3.1/TodoList.sol\":819:929  Todo({... */\n      iszero\n      iszero\n      dup2\n      mstore\n      0x20\n      add\n        /* \"contracts/lesson3.1/TodoList.sol\":903:918  block.timestamp */\n      timestamp\n        /* \"contracts/lesson3.1/TodoList.sol\":819:929  Todo({... */\n      dup2\n      mstore\n      pop\n        /* \"contracts/lesson3.1/TodoList.sol\":792:930  userTodos[msg.sender].push(Todo({... */\n      swap1\n      dup1\n      0x01\n      dup2\n      sload\n      add\n      dup1\n      dup3\n      sstore\n      dup1\n      swap2\n      pop\n      pop\n      0x01\n      swap1\n      sub\n      swap1\n      0x00\n      mstore\n      keccak256(0x00, 0x20)\n      swap1\n      0x03\n      mul\n      add\n      0x00\n      swap1\n      swap2\n      swap1\n      swap2\n      swap1\n      swap2\n      pop\n      0x00\n      dup3\n      add\n      mload\n      dup2\n      0x00\n      add\n      swap1\n      dup2\n      tag_124\n      swap2\n      swap1\n      tag_125\n      jump\t// in\n    tag_124:\n      pop\n      0x20\n      dup3\n      add\n      mload\n      dup2\n      0x01\n      add\n      exp(0x0100, 0x00)\n      dup2\n      sload\n      dup2\n      0xff\n      mul\n      not\n      and\n      swap1\n      dup4\n      iszero\n      iszero\n      mul\n      or\n      swap1\n      sstore\n      pop\n      0x40\n      dup3\n      add\n      mload\n      dup2\n      0x02\n      add\n      sstore\n      pop\n      pop\n        /* \"contracts/lesson3.1/TodoList.sol\":964:974  msg.sender */\n      caller\n        /* \"contracts/lesson3.1/TodoList.sol\":954:1015  TodoAdded(msg.sender, userTodos[msg.sender].length - 1, task) */\n      0xffffffffffffffffffffffffffffffffffffffff\n      and\n      0x1d7303a9da3d6d58ee2b1b1a7d6676848e0b02914499b48678bb7dff079a0150\n        /* \"contracts/lesson3.1/TodoList.sol\":1007:1008  1 */\n      0x01\n        /* \"contracts/lesson3.1/TodoList.sol\":976:985  userTodos */\n      0x00\n        /* \"contracts/lesson3.1/TodoList.sol\":976:997  userTodos[msg.sender] */\n      0x00\n        /* \"contracts/lesson3.1/TodoList.sol\":986:996  msg.sender */\n      caller\n        /* \"contracts/lesson3.1/TodoList.sol\":976:997  userTodos[msg.sender] */\n      0xffffffffffffffffffffffffffffffffffffffff\n      and\n      0xffffffffffffffffffffffffffffffffffffffff\n      and\n      dup2\n      mstore\n      0x20\n      add\n      swap1\n      dup2\n      mstore\n      0x20\n      add\n      0x00\n      keccak256\n        /* \"contracts/lesson3.1/TodoList.sol\":976:1004  userTodos[msg.sender].length */\n      dup1\n      sload\n      swap1\n      pop\n        /* \"contracts/lesson3.1/TodoList.sol\":976:1008  userTodos[msg.sender].length - 1 */\n      tag_126\n      swap2\n      swap1\n      tag_96\n      jump\t// in\n    tag_126:\n        /* \"contracts/lesson3.1/TodoList.sol\":1010:1014  task */\n      dup4\n        /* \"contracts/lesson3.1/TodoList.sol\":954:1015  TodoAdded(msg.sender, userTodos[msg.sender].length - 1, task) */\n      mload(0x40)\n      tag_127\n      swap3\n      swap2\n      swap1\n      tag_128\n      jump\t// in\n    tag_127:\n      mload(0x40)\n      dup1\n      swap2\n      sub\n      swap1\n      log2\n        /* \"contracts/lesson3.1/TodoList.sol\":523:1022  function addTodo(string memory task) public {... */\n      pop\n      jump\t// out\n        /* \"contracts/lesson3.1/TodoList.sol\":1879:1983  function getAllTodos() public view returns (Todo[] memory) {... */\n    tag_32:\n        /* \"contracts/lesson3.1/TodoList.sol\":1923:1936  Todo[] memory */\n      0x60\n        /* \"contracts/lesson3.1/TodoList.sol\":1955:1964  userTodos */\n      0x00\n        /* \"contracts/lesson3.1/TodoList.sol\":1955:1976  userTodos[msg.sender] */\n      0x00\n        /* \"contracts/lesson3.1/TodoList.sol\":1965:1975  msg.sender */\n      caller\n        /* \"contracts/lesson3.1/TodoList.sol\":1955:1976  userTodos[msg.sender] */\n      0xffffffffffffffffffffffffffffffffffffffff\n      and\n      0xffffffffffffffffffffffffffffffffffffffff\n      and\n      dup2\n      mstore\n      0x20\n      add\n      swap1\n      dup2\n      mstore\n      0x20\n      add\n      0x00\n      keccak256\n        /* \"contracts/lesson3.1/TodoList.sol\":1948:1976  return userTodos[msg.sender] */\n      dup1\n      sload\n      dup1\n      0x20\n      mul\n      0x20\n      add\n      mload(0x40)\n      swap1\n      dup2\n      add\n      0x40\n      mstore\n      dup1\n      swap3\n      swap2\n      swap1\n      dup2\n      dup2\n      mstore\n      0x20\n      add\n      0x00\n      swap1\n    tag_130:\n      dup3\n      dup3\n      lt\n      iszero\n      tag_131\n      jumpi\n      dup4\n      dup3\n      swap1\n      0x00\n      mstore\n      keccak256(0x00, 0x20)\n      swap1\n      0x03\n      mul\n      add\n      mload(0x40)\n      dup1\n      0x60\n      add\n      0x40\n      mstore\n      swap1\n      dup2\n      0x00\n      dup3\n      add\n      dup1\n      sload\n      tag_133\n      swap1\n      tag_46\n      jump\t// in\n    tag_133:\n      dup1\n      0x1f\n      add\n      0x20\n      dup1\n      swap2\n      div\n      mul\n      0x20\n      add\n      mload(0x40)\n      swap1\n      dup2\n      add\n      0x40\n      mstore\n      dup1\n      swap3\n      swap2\n      swap1\n      dup2\n      dup2\n      mstore\n      0x20\n      add\n      dup3\n      dup1\n      sload\n      tag_134\n      swap1\n      tag_46\n      jump\t// in\n    tag_134:\n      dup1\n      iszero\n      tag_135\n      jumpi\n      dup1\n      0x1f\n      lt\n      tag_136\n      jumpi\n      0x0100\n      dup1\n      dup4\n      sload\n      div\n      mul\n      dup4\n      mstore\n      swap2\n      0x20\n      add\n      swap2\n      jump(tag_135)\n    tag_136:\n      dup3\n      add\n      swap2\n      swap1\n      0x00\n      mstore\n      keccak256(0x00, 0x20)\n      swap1\n    tag_137:\n      dup2\n      sload\n      dup2\n      mstore\n      swap1\n      0x01\n      add\n      swap1\n      0x20\n      add\n      dup1\n      dup4\n      gt\n      tag_137\n      jumpi\n      dup3\n      swap1\n      sub\n      0x1f\n      and\n      dup3\n      add\n      swap2\n    tag_135:\n      pop\n      pop\n      pop\n      pop\n      pop\n      dup2\n      mstore\n      0x20\n      add\n      0x01\n      dup3\n      add\n      0x00\n      swap1\n      sload\n      swap1\n      0x0100\n      exp\n      swap1\n      div\n      0xff\n      and\n      iszero\n      iszero\n      iszero\n      iszero\n      dup2\n      mstore\n      0x20\n      add\n      0x02\n      dup3\n      add\n      sload\n      dup2\n      mstore\n      pop\n      pop\n      dup2\n      mstore\n      0x20\n      add\n      swap1\n      0x01\n      add\n      swap1\n      jump(tag_130)\n    tag_131:\n      pop\n      pop\n      pop\n      pop\n      swap1\n      pop\n        /* \"contracts/lesson3.1/TodoList.sol\":1879:1983  function getAllTodos() public view returns (Todo[] memory) {... */\n      swap1\n      jump\t// out\n        /* \"contracts/lesson3.1/TodoList.sol\":2164:2887  function getPendingTodos() public view returns (Todo[] memory) {... */\n    tag_35:\n        /* \"contracts/lesson3.1/TodoList.sol\":2212:2225  Todo[] memory */\n      0x60\n        /* \"contracts/lesson3.1/TodoList.sol\":2237:2259  Todo[] memory allTodos */\n      0x00\n        /* \"contracts/lesson3.1/TodoList.sol\":2262:2271  userTodos */\n      0x00\n        /* \"contracts/lesson3.1/TodoList.sol\":2262:2283  userTodos[msg.sender] */\n      0x00\n        /* \"contracts/lesson3.1/TodoList.sol\":2272:2282  msg.sender */\n      caller\n        /* \"contracts/lesson3.1/TodoList.sol\":2262:2283  userTodos[msg.sender] */\n      0xffffffffffffffffffffffffffffffffffffffff\n      and\n      0xffffffffffffffffffffffffffffffffffffffff\n      and\n      dup2\n      mstore\n      0x20\n      add\n      swap1\n      dup2\n      mstore\n      0x20\n      add\n      0x00\n      keccak256\n        /* \"contracts/lesson3.1/TodoList.sol\":2237:2283  Todo[] memory allTodos = userTodos[msg.sender] */\n      dup1\n      sload\n      dup1\n      0x20\n      mul\n      0x20\n      add\n      mload(0x40)\n      swap1\n      dup2\n      add\n      0x40\n      mstore\n      dup1\n      swap3\n      swap2\n      swap1\n      dup2\n      dup2\n      mstore\n      0x20\n      add\n      0x00\n      swap1\n    tag_139:\n      dup3\n      dup3\n      lt\n      iszero\n      tag_140\n      jumpi\n      dup4\n      dup3\n      swap1\n      0x00\n      mstore\n      keccak256(0x00, 0x20)\n      swap1\n      0x03\n      mul\n      add\n      mload(0x40)\n      dup1\n      0x60\n      add\n      0x40\n      mstore\n      swap1\n      dup2\n      0x00\n      dup3\n      add\n      dup1\n      sload\n      tag_142\n      swap1\n      tag_46\n      jump\t// in\n    tag_142:\n      dup1\n      0x1f\n      add\n      0x20\n      dup1\n      swap2\n      div\n      mul\n      0x20\n      add\n      mload(0x40)\n      swap1\n      dup2\n      add\n      0x40\n      mstore\n      dup1\n      swap3\n      swap2\n      swap1\n      dup2\n      dup2\n      mstore\n      0x20\n      add\n      dup3\n      dup1\n      sload\n      tag_143\n      swap1\n      tag_46\n      jump\t// in\n    tag_143:\n      dup1\n      iszero\n      tag_144\n      jumpi\n      dup1\n      0x1f\n      lt\n      tag_145\n      jumpi\n      0x0100\n      dup1\n      dup4\n      sload\n      div\n      mul\n      dup4\n      mstore\n      swap2\n      0x20\n      add\n      swap2\n      jump(tag_144)\n    tag_145:\n      dup3\n      add\n      swap2\n      swap1\n      0x00\n      mstore\n      keccak256(0x00, 0x20)\n      swap1\n    tag_146:\n      dup2\n      sload\n      dup2\n      mstore\n      swap1\n      0x01\n      add\n      swap1\n      0x20\n      add\n      dup1\n      dup4\n      gt\n      tag_146\n      jumpi\n      dup3\n      swap1\n      sub\n      0x1f\n      and\n      dup3\n      add\n      swap2\n    tag_144:\n      pop\n      pop\n      pop\n      pop\n      pop\n      dup2\n      mstore\n      0x20\n      add\n      0x01\n      dup3\n      add\n      0x00\n      swap1\n      sload\n      swap1\n      0x0100\n      exp\n      swap1\n      div\n      0xff\n      and\n      iszero\n      iszero\n      iszero\n      iszero\n      dup2\n      mstore\n      0x20\n      add\n      0x02\n      dup3\n      add\n      sload\n      dup2\n      mstore\n      pop\n      pop\n      dup2\n      mstore\n      0x20\n      add\n      swap1\n      0x01\n      add\n      swap1\n      jump(tag_139)\n    tag_140:\n      pop\n      pop\n      pop\n      pop\n      swap1\n      pop\n        /* \"contracts/lesson3.1/TodoList.sol\":2293:2310  uint pendingCount */\n      0x00\n        /* \"contracts/lesson3.1/TodoList.sol\":2313:2314  0 */\n      0x00\n        /* \"contracts/lesson3.1/TodoList.sol\":2293:2314  uint pendingCount = 0 */\n      swap1\n      pop\n        /* \"contracts/lesson3.1/TodoList.sol\":2370:2376  uint i */\n      0x00\n        /* \"contracts/lesson3.1/TodoList.sol\":2379:2380  0 */\n      0x00\n        /* \"contracts/lesson3.1/TodoList.sol\":2370:2380  uint i = 0 */\n      swap1\n      pop\n        /* \"contracts/lesson3.1/TodoList.sol\":2366:2506  for(uint i = 0; i < allTodos.length; i++) {... */\n    tag_147:\n        /* \"contracts/lesson3.1/TodoList.sol\":2386:2394  allTodos */\n      dup3\n        /* \"contracts/lesson3.1/TodoList.sol\":2386:2401  allTodos.length */\n      mload\n        /* \"contracts/lesson3.1/TodoList.sol\":2382:2383  i */\n      dup2\n        /* \"contracts/lesson3.1/TodoList.sol\":2382:2401  i < allTodos.length */\n      lt\n        /* \"contracts/lesson3.1/TodoList.sol\":2366:2506  for(uint i = 0; i < allTodos.length; i++) {... */\n      iszero\n      tag_148\n      jumpi\n        /* \"contracts/lesson3.1/TodoList.sol\":2426:2434  allTodos */\n      dup3\n        /* \"contracts/lesson3.1/TodoList.sol\":2435:2436  i */\n      dup2\n        /* \"contracts/lesson3.1/TodoList.sol\":2426:2437  allTodos[i] */\n      dup2\n      mload\n      dup2\n      lt\n      tag_150\n      jumpi\n      tag_151\n      tag_56\n      jump\t// in\n    tag_151:\n    tag_150:\n      0x20\n      mul\n      0x20\n      add\n      add\n      mload\n        /* \"contracts/lesson3.1/TodoList.sol\":2426:2447  allTodos[i].completed */\n      0x20\n      add\n      mload\n        /* \"contracts/lesson3.1/TodoList.sol\":2422:2496  if(!allTodos[i].completed) {... */\n      tag_152\n      jumpi\n        /* \"contracts/lesson3.1/TodoList.sol\":2467:2481  pendingCount++ */\n      dup2\n      dup1\n      tag_153\n      swap1\n      tag_59\n      jump\t// in\n    tag_153:\n      swap3\n      pop\n      pop\n        /* \"contracts/lesson3.1/TodoList.sol\":2422:2496  if(!allTodos[i].completed) {... */\n    tag_152:\n        /* \"contracts/lesson3.1/TodoList.sol\":2403:2406  i++ */\n      dup1\n      dup1\n      0x01\n      add\n      swap2\n      pop\n      pop\n        /* \"contracts/lesson3.1/TodoList.sol\":2366:2506  for(uint i = 0; i < allTodos.length; i++) {... */\n      jump(tag_147)\n    tag_148:\n      pop\n        /* \"contracts/lesson3.1/TodoList.sol\":2554:2575  Todo[] memory pending */\n      0x00\n        /* \"contracts/lesson3.1/TodoList.sol\":2589:2601  pendingCount */\n      dup2\n        /* \"contracts/lesson3.1/TodoList.sol\":2578:2602  new Todo[](pendingCount) */\n      0xffffffffffffffff\n      dup2\n      gt\n      iszero\n      tag_154\n      jumpi\n      tag_155\n      tag_62\n      jump\t// in\n    tag_155:\n    tag_154:\n      mload(0x40)\n      swap1\n      dup1\n      dup3\n      mstore\n      dup1\n      0x20\n      mul\n      0x20\n      add\n      dup3\n      add\n      0x40\n      mstore\n      dup1\n      iszero\n      tag_156\n      jumpi\n      dup2\n      0x20\n      add\n    tag_157:\n      tag_158\n      tag_66\n      jump\t// in\n    tag_158:\n      dup2\n      mstore\n      0x20\n      add\n      swap1\n      0x01\n      swap1\n      sub\n      swap1\n      dup2\n      tag_157\n      jumpi\n      swap1\n      pop\n    tag_156:\n      pop\n        /* \"contracts/lesson3.1/TodoList.sol\":2554:2602  Todo[] memory pending = new Todo[](pendingCount) */\n      swap1\n      pop\n        /* \"contracts/lesson3.1/TodoList.sol\":2612:2622  uint index */\n      0x00\n        /* \"contracts/lesson3.1/TodoList.sol\":2625:2626  0 */\n      0x00\n        /* \"contracts/lesson3.1/TodoList.sol\":2612:2626  uint index = 0 */\n      swap1\n      pop\n        /* \"contracts/lesson3.1/TodoList.sol\":2673:2679  uint i */\n      0x00\n        /* \"contracts/lesson3.1/TodoList.sol\":2682:2683  0 */\n      0x00\n        /* \"contracts/lesson3.1/TodoList.sol\":2673:2683  uint i = 0 */\n      swap1\n      pop\n        /* \"contracts/lesson3.1/TodoList.sol\":2669:2848  for(uint i = 0; i < allTodos.length; i++) {... */\n    tag_159:\n        /* \"contracts/lesson3.1/TodoList.sol\":2689:2697  allTodos */\n      dup5\n        /* \"contracts/lesson3.1/TodoList.sol\":2689:2704  allTodos.length */\n      mload\n        /* \"contracts/lesson3.1/TodoList.sol\":2685:2686  i */\n      dup2\n        /* \"contracts/lesson3.1/TodoList.sol\":2685:2704  i < allTodos.length */\n      lt\n        /* \"contracts/lesson3.1/TodoList.sol\":2669:2848  for(uint i = 0; i < allTodos.length; i++) {... */\n      iszero\n      tag_160\n      jumpi\n        /* \"contracts/lesson3.1/TodoList.sol\":2729:2737  allTodos */\n      dup5\n        /* \"contracts/lesson3.1/TodoList.sol\":2738:2739  i */\n      dup2\n        /* \"contracts/lesson3.1/TodoList.sol\":2729:2740  allTodos[i] */\n      dup2\n      mload\n      dup2\n      lt\n      tag_162\n      jumpi\n      tag_163\n      tag_56\n      jump\t// in\n    tag_163:\n    tag_162:\n      0x20\n      mul\n      0x20\n      add\n      add\n      mload\n        /* \"contracts/lesson3.1/TodoList.sol\":2729:2750  allTodos[i].completed */\n      0x20\n      add\n      mload\n        /* \"contracts/lesson3.1/TodoList.sol\":2725:2838  if(!allTodos[i].completed) {... */\n      tag_164\n      jumpi\n        /* \"contracts/lesson3.1/TodoList.sol\":2787:2795  allTodos */\n      dup5\n        /* \"contracts/lesson3.1/TodoList.sol\":2796:2797  i */\n      dup2\n        /* \"contracts/lesson3.1/TodoList.sol\":2787:2798  allTodos[i] */\n      dup2\n      mload\n      dup2\n      lt\n      tag_165\n      jumpi\n      tag_166\n      tag_56\n      jump\t// in\n    tag_166:\n    tag_165:\n      0x20\n      mul\n      0x20\n      add\n      add\n      mload\n        /* \"contracts/lesson3.1/TodoList.sol\":2770:2777  pending */\n      dup4\n        /* \"contracts/lesson3.1/TodoList.sol\":2778:2783  index */\n      dup4\n        /* \"contracts/lesson3.1/TodoList.sol\":2770:2784  pending[index] */\n      dup2\n      mload\n      dup2\n      lt\n      tag_167\n      jumpi\n      tag_168\n      tag_56\n      jump\t// in\n    tag_168:\n    tag_167:\n      0x20\n      mul\n      0x20\n      add\n      add\n        /* \"contracts/lesson3.1/TodoList.sol\":2770:2798  pending[index] = allTodos[i] */\n      dup2\n      swap1\n      mstore\n      pop\n        /* \"contracts/lesson3.1/TodoList.sol\":2816:2823  index++ */\n      dup2\n      dup1\n      tag_169\n      swap1\n      tag_59\n      jump\t// in\n    tag_169:\n      swap3\n      pop\n      pop\n        /* \"contracts/lesson3.1/TodoList.sol\":2725:2838  if(!allTodos[i].completed) {... */\n    tag_164:\n        /* \"contracts/lesson3.1/TodoList.sol\":2706:2709  i++ */\n      dup1\n      dup1\n      0x01\n      add\n      swap2\n      pop\n      pop\n        /* \"contracts/lesson3.1/TodoList.sol\":2669:2848  for(uint i = 0; i < allTodos.length; i++) {... */\n      jump(tag_159)\n    tag_160:\n      pop\n        /* \"contracts/lesson3.1/TodoList.sol\":2873:2880  pending */\n      dup2\n        /* \"contracts/lesson3.1/TodoList.sol\":2866:2880  return pending */\n      swap5\n      pop\n      pop\n      pop\n      pop\n      pop\n        /* \"contracts/lesson3.1/TodoList.sol\":2164:2887  function getPendingTodos() public view returns (Todo[] memory) {... */\n      swap1\n      jump\t// out\n        /* \"contracts/lesson3.1/TodoList.sol\":267:303  uint public constant MAX_TODOS = 100 */\n    tag_38:\n        /* \"contracts/lesson3.1/TodoList.sol\":300:303  100 */\n      0x64\n        /* \"contracts/lesson3.1/TodoList.sol\":267:303  uint public constant MAX_TODOS = 100 */\n      dup2\n      jump\t// out\n    tag_66:\n      mload(0x40)\n      dup1\n      0x60\n      add\n      0x40\n      mstore\n      dup1\n      0x60\n      dup2\n      mstore\n      0x20\n      add\n      iszero(iszero(0x00))\n      dup2\n      mstore\n      0x20\n      add\n      0x00\n      dup2\n      mstore\n      pop\n      swap1\n      jump\t// out\n    tag_111:\n      pop\n      dup1\n      sload\n      tag_170\n      swap1\n      tag_46\n      jump\t// in\n    tag_170:\n      0x00\n      dup3\n      sstore\n      dup1\n      0x1f\n      lt\n      tag_172\n      jumpi\n      pop\n      jump(tag_171)\n    tag_172:\n      0x1f\n      add\n      0x20\n      swap1\n      div\n      swap1\n      0x00\n      mstore\n      keccak256(0x00, 0x20)\n      swap1\n      dup2\n      add\n      swap1\n      tag_173\n      swap2\n      swap1\n      tag_174\n      jump\t// in\n    tag_173:\n    tag_171:\n      pop\n      jump\t// out\n    tag_174:\n    tag_175:\n      dup1\n      dup3\n      gt\n      iszero\n      tag_176\n      jumpi\n      0x00\n      dup2\n      0x00\n      swap1\n      sstore\n      pop\n      0x01\n      add\n      jump(tag_175)\n    tag_176:\n      pop\n      swap1\n      jump\t// out\n        /* \"#utility.yul\":7:84   */\n    tag_177:\n        /* \"#utility.yul\":44:51   */\n      0x00\n        /* \"#utility.yul\":73:78   */\n      dup2\n        /* \"#utility.yul\":62:78   */\n      swap1\n      pop\n        /* \"#utility.yul\":7:84   */\n      swap2\n      swap1\n      pop\n      jump\t// out\n        /* \"#utility.yul\":90:208   */\n    tag_178:\n        /* \"#utility.yul\":177:201   */\n      tag_240\n        /* \"#utility.yul\":195:200   */\n      dup2\n        /* \"#utility.yul\":177:201   */\n      tag_177\n      jump\t// in\n    tag_240:\n        /* \"#utility.yul\":172:175   */\n      dup3\n        /* \"#utility.yul\":165:202   */\n      mstore\n        /* \"#utility.yul\":90:208   */\n      pop\n      pop\n      jump\t// out\n        /* \"#utility.yul\":214:436   */\n    tag_15:\n        /* \"#utility.yul\":307:311   */\n      0x00\n        /* \"#utility.yul\":345:347   */\n      0x20\n        /* \"#utility.yul\":334:343   */\n      dup3\n        /* \"#utility.yul\":330:348   */\n      add\n        /* \"#utility.yul\":322:348   */\n      swap1\n      pop\n        /* \"#utility.yul\":358:429   */\n      tag_242\n        /* \"#utility.yul\":426:427   */\n      0x00\n        /* \"#utility.yul\":415:424   */\n      dup4\n        /* \"#utility.yul\":411:428   */\n      add\n        /* \"#utility.yul\":402:408   */\n      dup5\n        /* \"#utility.yul\":358:429   */\n      tag_178\n      jump\t// in\n    tag_242:\n        /* \"#utility.yul\":214:436   */\n      swap3\n      swap2\n      pop\n      pop\n      jump\t// out\n        /* \"#utility.yul\":442:575   */\n    tag_179:\n        /* \"#utility.yul\":528:534   */\n      0x00\n        /* \"#utility.yul\":562:567   */\n      dup2\n        /* \"#utility.yul\":556:568   */\n      mload\n        /* \"#utility.yul\":546:568   */\n      swap1\n      pop\n        /* \"#utility.yul\":442:575   */\n      swap2\n      swap1\n      pop\n      jump\t// out\n        /* \"#utility.yul\":581:784   */\n    tag_180:\n        /* \"#utility.yul\":699:710   */\n      0x00\n        /* \"#utility.yul\":733:739   */\n      dup3\n        /* \"#utility.yul\":728:731   */\n      dup3\n        /* \"#utility.yul\":721:740   */\n      mstore\n        /* \"#utility.yul\":773:777   */\n      0x20\n        /* \"#utility.yul\":768:771   */\n      dup3\n        /* \"#utility.yul\":764:778   */\n      add\n        /* \"#utility.yul\":749:778   */\n      swap1\n      pop\n        /* \"#utility.yul\":581:784   */\n      swap3\n      swap2\n      pop\n      pop\n      jump\t// out\n        /* \"#utility.yul\":790:941   */\n    tag_181:\n        /* \"#utility.yul\":876:880   */\n      0x00\n        /* \"#utility.yul\":899:902   */\n      dup2\n        /* \"#utility.yul\":891:902   */\n      swap1\n      pop\n        /* \"#utility.yul\":929:933   */\n      0x20\n        /* \"#utility.yul\":924:927   */\n      dup3\n        /* \"#utility.yul\":920:934   */\n      add\n        /* \"#utility.yul\":912:934   */\n      swap1\n      pop\n        /* \"#utility.yul\":790:941   */\n      swap2\n      swap1\n      pop\n      jump\t// out\n        /* \"#utility.yul\":947:1046   */\n    tag_182:\n        /* \"#utility.yul\":999:1005   */\n      0x00\n        /* \"#utility.yul\":1033:1038   */\n      dup2\n        /* \"#utility.yul\":1027:1039   */\n      mload\n        /* \"#utility.yul\":1017:1039   */\n      swap1\n      pop\n        /* \"#utility.yul\":947:1046   */\n      swap2\n      swap1\n      pop\n      jump\t// out\n        /* \"#utility.yul\":1052:1211   */\n    tag_183:\n        /* \"#utility.yul\":1126:1137   */\n      0x00\n        /* \"#utility.yul\":1160:1166   */\n      dup3\n        /* \"#utility.yul\":1155:1158   */\n      dup3\n        /* \"#utility.yul\":1148:1167   */\n      mstore\n        /* \"#utility.yul\":1200:1204   */\n      0x20\n        /* \"#utility.yul\":1195:1198   */\n      dup3\n        /* \"#utility.yul\":1191:1205   */\n      add\n        /* \"#utility.yul\":1176:1205   */\n      swap1\n      pop\n        /* \"#utility.yul\":1052:1211   */\n      swap3\n      swap2\n      pop\n      pop\n      jump\t// out\n        /* \"#utility.yul\":1217:1356   */\n    tag_184:\n        /* \"#utility.yul\":1306:1312   */\n      dup3\n        /* \"#utility.yul\":1301:1304   */\n      dup2\n        /* \"#utility.yul\":1296:1299   */\n      dup4\n        /* \"#utility.yul\":1290:1313   */\n      mcopy\n        /* \"#utility.yul\":1347:1348   */\n      0x00\n        /* \"#utility.yul\":1338:1344   */\n      dup4\n        /* \"#utility.yul\":1333:1336   */\n      dup4\n        /* \"#utility.yul\":1329:1345   */\n      add\n        /* \"#utility.yul\":1322:1349   */\n      mstore\n        /* \"#utility.yul\":1217:1356   */\n      pop\n      pop\n      pop\n      jump\t// out\n        /* \"#utility.yul\":1362:1464   */\n    tag_185:\n        /* \"#utility.yul\":1403:1409   */\n      0x00\n        /* \"#utility.yul\":1454:1456   */\n      0x1f\n        /* \"#utility.yul\":1450:1457   */\n      not\n        /* \"#utility.yul\":1445:1447   */\n      0x1f\n        /* \"#utility.yul\":1438:1443   */\n      dup4\n        /* \"#utility.yul\":1434:1448   */\n      add\n        /* \"#utility.yul\":1430:1458   */\n      and\n        /* \"#utility.yul\":1420:1458   */\n      swap1\n      pop\n        /* \"#utility.yul\":1362:1464   */\n      swap2\n      swap1\n      pop\n      jump\t// out\n        /* \"#utility.yul\":1470:1827   */\n    tag_186:\n        /* \"#utility.yul\":1548:1551   */\n      0x00\n        /* \"#utility.yul\":1576:1615   */\n      tag_251\n        /* \"#utility.yul\":1609:1614   */\n      dup3\n        /* \"#utility.yul\":1576:1615   */\n      tag_182\n      jump\t// in\n    tag_251:\n        /* \"#utility.yul\":1631:1692   */\n      tag_252\n        /* \"#utility.yul\":1685:1691   */\n      dup2\n        /* \"#utility.yul\":1680:1683   */\n      dup6\n        /* \"#utility.yul\":1631:1692   */\n      tag_183\n      jump\t// in\n    tag_252:\n        /* \"#utility.yul\":1624:1692   */\n      swap4\n      pop\n        /* \"#utility.yul\":1701:1766   */\n      tag_253\n        /* \"#utility.yul\":1759:1765   */\n      dup2\n        /* \"#utility.yul\":1754:1757   */\n      dup6\n        /* \"#utility.yul\":1747:1751   */\n      0x20\n        /* \"#utility.yul\":1740:1745   */\n      dup7\n        /* \"#utility.yul\":1736:1752   */\n      add\n        /* \"#utility.yul\":1701:1766   */\n      tag_184\n      jump\t// in\n    tag_253:\n        /* \"#utility.yul\":1791:1820   */\n      tag_254\n        /* \"#utility.yul\":1813:1819   */\n      dup2\n        /* \"#utility.yul\":1791:1820   */\n      tag_185\n      jump\t// in\n    tag_254:\n        /* \"#utility.yul\":1786:1789   */\n      dup5\n        /* \"#utility.yul\":1782:1821   */\n      add\n        /* \"#utility.yul\":1775:1821   */\n      swap2\n      pop\n        /* \"#utility.yul\":1552:1827   */\n      pop\n        /* \"#utility.yul\":1470:1827   */\n      swap3\n      swap2\n      pop\n      pop\n      jump\t// out\n        /* \"#utility.yul\":1833:1923   */\n    tag_187:\n        /* \"#utility.yul\":1867:1874   */\n      0x00\n        /* \"#utility.yul\":1910:1915   */\n      dup2\n        /* \"#utility.yul\":1903:1916   */\n      iszero\n        /* \"#utility.yul\":1896:1917   */\n      iszero\n        /* \"#utility.yul\":1885:1917   */\n      swap1\n      pop\n        /* \"#utility.yul\":1833:1923   */\n      swap2\n      swap1\n      pop\n      jump\t// out\n        /* \"#utility.yul\":1929:2028   */\n    tag_188:\n        /* \"#utility.yul\":2000:2021   */\n      tag_257\n        /* \"#utility.yul\":2015:2020   */\n      dup2\n        /* \"#utility.yul\":2000:2021   */\n      tag_187\n      jump\t// in\n    tag_257:\n        /* \"#utility.yul\":1995:1998   */\n      dup3\n        /* \"#utility.yul\":1988:2022   */\n      mstore\n        /* \"#utility.yul\":1929:2028   */\n      pop\n      pop\n      jump\t// out\n        /* \"#utility.yul\":2034:2142   */\n    tag_189:\n        /* \"#utility.yul\":2111:2135   */\n      tag_259\n        /* \"#utility.yul\":2129:2134   */\n      dup2\n        /* \"#utility.yul\":2111:2135   */\n      tag_177\n      jump\t// in\n    tag_259:\n        /* \"#utility.yul\":2106:2109   */\n      dup3\n        /* \"#utility.yul\":2099:2136   */\n      mstore\n        /* \"#utility.yul\":2034:2142   */\n      pop\n      pop\n      jump\t// out\n        /* \"#utility.yul\":2200:2962   */\n    tag_190:\n        /* \"#utility.yul\":2297:2300   */\n      0x00\n        /* \"#utility.yul\":2333:2337   */\n      0x60\n        /* \"#utility.yul\":2328:2331   */\n      dup4\n        /* \"#utility.yul\":2324:2338   */\n      add\n        /* \"#utility.yul\":2420:2424   */\n      0x00\n        /* \"#utility.yul\":2413:2418   */\n      dup4\n        /* \"#utility.yul\":2409:2425   */\n      add\n        /* \"#utility.yul\":2403:2426   */\n      mload\n        /* \"#utility.yul\":2473:2476   */\n      dup5\n        /* \"#utility.yul\":2467:2471   */\n      dup3\n        /* \"#utility.yul\":2463:2477   */\n      sub\n        /* \"#utility.yul\":2456:2460   */\n      0x00\n        /* \"#utility.yul\":2451:2454   */\n      dup7\n        /* \"#utility.yul\":2447:2461   */\n      add\n        /* \"#utility.yul\":2440:2478   */\n      mstore\n        /* \"#utility.yul\":2499:2572   */\n      tag_261\n        /* \"#utility.yul\":2567:2571   */\n      dup3\n        /* \"#utility.yul\":2553:2565   */\n      dup3\n        /* \"#utility.yul\":2499:2572   */\n      tag_186\n      jump\t// in\n    tag_261:\n        /* \"#utility.yul\":2491:2572   */\n      swap2\n      pop\n        /* \"#utility.yul\":2348:2583   */\n      pop\n        /* \"#utility.yul\":2670:2674   */\n      0x20\n        /* \"#utility.yul\":2663:2668   */\n      dup4\n        /* \"#utility.yul\":2659:2675   */\n      add\n        /* \"#utility.yul\":2653:2676   */\n      mload\n        /* \"#utility.yul\":2689:2746   */\n      tag_262\n        /* \"#utility.yul\":2740:2744   */\n      0x20\n        /* \"#utility.yul\":2735:2738   */\n      dup7\n        /* \"#utility.yul\":2731:2745   */\n      add\n        /* \"#utility.yul\":2717:2729   */\n      dup3\n        /* \"#utility.yul\":2689:2746   */\n      tag_188\n      jump\t// in\n    tag_262:\n        /* \"#utility.yul\":2593:2756   */\n      pop\n        /* \"#utility.yul\":2843:2847   */\n      0x40\n        /* \"#utility.yul\":2836:2841   */\n      dup4\n        /* \"#utility.yul\":2832:2848   */\n      add\n        /* \"#utility.yul\":2826:2849   */\n      mload\n        /* \"#utility.yul\":2862:2925   */\n      tag_263\n        /* \"#utility.yul\":2919:2923   */\n      0x40\n        /* \"#utility.yul\":2914:2917   */\n      dup7\n        /* \"#utility.yul\":2910:2924   */\n      add\n        /* \"#utility.yul\":2896:2908   */\n      dup3\n        /* \"#utility.yul\":2862:2925   */\n      tag_189\n      jump\t// in\n    tag_263:\n        /* \"#utility.yul\":2766:2935   */\n      pop\n        /* \"#utility.yul\":2952:2956   */\n      dup1\n        /* \"#utility.yul\":2945:2956   */\n      swap2\n      pop\n        /* \"#utility.yul\":2302:2962   */\n      pop\n        /* \"#utility.yul\":2200:2962   */\n      swap3\n      swap2\n      pop\n      pop\n      jump\t// out\n        /* \"#utility.yul\":2968:3200   */\n    tag_191:\n        /* \"#utility.yul\":3075:3085   */\n      0x00\n        /* \"#utility.yul\":3110:3194   */\n      tag_265\n        /* \"#utility.yul\":3190:3193   */\n      dup4\n        /* \"#utility.yul\":3182:3188   */\n      dup4\n        /* \"#utility.yul\":3110:3194   */\n      tag_190\n      jump\t// in\n    tag_265:\n        /* \"#utility.yul\":3096:3194   */\n      swap1\n      pop\n        /* \"#utility.yul\":2968:3200   */\n      swap3\n      swap2\n      pop\n      pop\n      jump\t// out\n        /* \"#utility.yul\":3206:3338   */\n    tag_192:\n        /* \"#utility.yul\":3295:3299   */\n      0x00\n        /* \"#utility.yul\":3327:3331   */\n      0x20\n        /* \"#utility.yul\":3322:3325   */\n      dup3\n        /* \"#utility.yul\":3318:3332   */\n      add\n        /* \"#utility.yul\":3310:3332   */\n      swap1\n      pop\n        /* \"#utility.yul\":3206:3338   */\n      swap2\n      swap1\n      pop\n      jump\t// out\n        /* \"#utility.yul\":3400:4463   */\n    tag_193:\n        /* \"#utility.yul\":3557:3560   */\n      0x00\n        /* \"#utility.yul\":3586:3659   */\n      tag_268\n        /* \"#utility.yul\":3653:3658   */\n      dup3\n        /* \"#utility.yul\":3586:3659   */\n      tag_179\n      jump\t// in\n    tag_268:\n        /* \"#utility.yul\":3675:3780   */\n      tag_269\n        /* \"#utility.yul\":3773:3779   */\n      dup2\n        /* \"#utility.yul\":3768:3771   */\n      dup6\n        /* \"#utility.yul\":3675:3780   */\n      tag_180\n      jump\t// in\n    tag_269:\n        /* \"#utility.yul\":3668:3780   */\n      swap4\n      pop\n        /* \"#utility.yul\":3806:3809   */\n      dup4\n        /* \"#utility.yul\":3851:3855   */\n      0x20\n        /* \"#utility.yul\":3843:3849   */\n      dup3\n        /* \"#utility.yul\":3839:3856   */\n      mul\n        /* \"#utility.yul\":3834:3837   */\n      dup6\n        /* \"#utility.yul\":3830:3857   */\n      add\n        /* \"#utility.yul\":3881:3956   */\n      tag_270\n        /* \"#utility.yul\":3950:3955   */\n      dup6\n        /* \"#utility.yul\":3881:3956   */\n      tag_181\n      jump\t// in\n    tag_270:\n        /* \"#utility.yul\":3979:3986   */\n      dup1\n        /* \"#utility.yul\":4010:4011   */\n      0x00\n        /* \"#utility.yul\":3995:4418   */\n    tag_271:\n        /* \"#utility.yul\":4020:4026   */\n      dup6\n        /* \"#utility.yul\":4017:4018   */\n      dup2\n        /* \"#utility.yul\":4014:4027   */\n      lt\n        /* \"#utility.yul\":3995:4418   */\n      iszero\n      tag_273\n      jumpi\n        /* \"#utility.yul\":4091:4100   */\n      dup5\n        /* \"#utility.yul\":4085:4089   */\n      dup5\n        /* \"#utility.yul\":4081:4101   */\n      sub\n        /* \"#utility.yul\":4076:4079   */\n      dup10\n        /* \"#utility.yul\":4069:4102   */\n      mstore\n        /* \"#utility.yul\":4142:4148   */\n      dup2\n        /* \"#utility.yul\":4136:4149   */\n      mload\n        /* \"#utility.yul\":4170:4272   */\n      tag_274\n        /* \"#utility.yul\":4267:4271   */\n      dup6\n        /* \"#utility.yul\":4252:4265   */\n      dup3\n        /* \"#utility.yul\":4170:4272   */\n      tag_191\n      jump\t// in\n    tag_274:\n        /* \"#utility.yul\":4162:4272   */\n      swap5\n      pop\n        /* \"#utility.yul\":4295:4374   */\n      tag_275\n        /* \"#utility.yul\":4367:4373   */\n      dup4\n        /* \"#utility.yul\":4295:4374   */\n      tag_192\n      jump\t// in\n    tag_275:\n        /* \"#utility.yul\":4285:4374   */\n      swap3\n      pop\n        /* \"#utility.yul\":4403:4407   */\n      0x20\n        /* \"#utility.yul\":4398:4401   */\n      dup11\n        /* \"#utility.yul\":4394:4408   */\n      add\n        /* \"#utility.yul\":4387:4408   */\n      swap10\n      pop\n        /* \"#utility.yul\":4055:4418   */\n      pop\n        /* \"#utility.yul\":4042:4043   */\n      0x01\n        /* \"#utility.yul\":4039:4040   */\n      dup2\n        /* \"#utility.yul\":4035:4044   */\n      add\n        /* \"#utility.yul\":4030:4044   */\n      swap1\n      pop\n        /* \"#utility.yul\":3995:4418   */\n      jump(tag_271)\n    tag_273:\n        /* \"#utility.yul\":3999:4013   */\n      pop\n        /* \"#utility.yul\":4434:4438   */\n      dup3\n        /* \"#utility.yul\":4427:4438   */\n      swap8\n      pop\n        /* \"#utility.yul\":4454:4457   */\n      dup8\n        /* \"#utility.yul\":4447:4457   */\n      swap6\n      pop\n        /* \"#utility.yul\":3562:4463   */\n      pop\n      pop\n      pop\n      pop\n      pop\n        /* \"#utility.yul\":3400:4463   */\n      swap3\n      swap2\n      pop\n      pop\n      jump\t// out\n        /* \"#utility.yul\":4469:4918   */\n    tag_19:\n        /* \"#utility.yul\":4650:4654   */\n      0x00\n        /* \"#utility.yul\":4688:4690   */\n      0x20\n        /* \"#utility.yul\":4677:4686   */\n      dup3\n        /* \"#utility.yul\":4673:4691   */\n      add\n        /* \"#utility.yul\":4665:4691   */\n      swap1\n      pop\n        /* \"#utility.yul\":4737:4746   */\n      dup2\n        /* \"#utility.yul\":4731:4735   */\n      dup2\n        /* \"#utility.yul\":4727:4747   */\n      sub\n        /* \"#utility.yul\":4723:4724   */\n      0x00\n        /* \"#utility.yul\":4712:4721   */\n      dup4\n        /* \"#utility.yul\":4708:4725   */\n      add\n        /* \"#utility.yul\":4701:4748   */\n      mstore\n        /* \"#utility.yul\":4765:4911   */\n      tag_277\n        /* \"#utility.yul\":4906:4910   */\n      dup2\n        /* \"#utility.yul\":4897:4903   */\n      dup5\n        /* \"#utility.yul\":4765:4911   */\n      tag_193\n      jump\t// in\n    tag_277:\n        /* \"#utility.yul\":4757:4911   */\n      swap1\n      pop\n        /* \"#utility.yul\":4469:4918   */\n      swap3\n      swap2\n      pop\n      pop\n      jump\t// out\n        /* \"#utility.yul\":4924:4999   */\n    tag_194:\n        /* \"#utility.yul\":4957:4963   */\n      0x00\n        /* \"#utility.yul\":4990:4992   */\n      0x40\n        /* \"#utility.yul\":4984:4993   */\n      mload\n        /* \"#utility.yul\":4974:4993   */\n      swap1\n      pop\n        /* \"#utility.yul\":4924:4999   */\n      swap1\n      jump\t// out\n        /* \"#utility.yul\":5005:5122   */\n    tag_195:\n        /* \"#utility.yul\":5114:5115   */\n      0x00\n        /* \"#utility.yul\":5111:5112   */\n      0x00\n        /* \"#utility.yul\":5104:5116   */\n      revert\n        /* \"#utility.yul\":5128:5245   */\n    tag_196:\n        /* \"#utility.yul\":5237:5238   */\n      0x00\n        /* \"#utility.yul\":5234:5235   */\n      0x00\n        /* \"#utility.yul\":5227:5239   */\n      revert\n        /* \"#utility.yul\":5251:5373   */\n    tag_197:\n        /* \"#utility.yul\":5324:5348   */\n      tag_282\n        /* \"#utility.yul\":5342:5347   */\n      dup2\n        /* \"#utility.yul\":5324:5348   */\n      tag_177\n      jump\t// in\n    tag_282:\n        /* \"#utility.yul\":5317:5322   */\n      dup2\n        /* \"#utility.yul\":5314:5349   */\n      eq\n        /* \"#utility.yul\":5304:5367   */\n      tag_283\n      jumpi\n        /* \"#utility.yul\":5363:5364   */\n      0x00\n        /* \"#utility.yul\":5360:5361   */\n      0x00\n        /* \"#utility.yul\":5353:5365   */\n      revert\n        /* \"#utility.yul\":5304:5367   */\n    tag_283:\n        /* \"#utility.yul\":5251:5373   */\n      pop\n      jump\t// out\n        /* \"#utility.yul\":5379:5518   */\n    tag_198:\n        /* \"#utility.yul\":5425:5430   */\n      0x00\n        /* \"#utility.yul\":5463:5469   */\n      dup2\n        /* \"#utility.yul\":5450:5470   */\n      calldataload\n        /* \"#utility.yul\":5441:5470   */\n      swap1\n      pop\n        /* \"#utility.yul\":5479:5512   */\n      tag_285\n        /* \"#utility.yul\":5506:5511   */\n      dup2\n        /* \"#utility.yul\":5479:5512   */\n      tag_197\n      jump\t// in\n    tag_285:\n        /* \"#utility.yul\":5379:5518   */\n      swap3\n      swap2\n      pop\n      pop\n      jump\t// out\n        /* \"#utility.yul\":5524:5853   */\n    tag_22:\n        /* \"#utility.yul\":5583:5589   */\n      0x00\n        /* \"#utility.yul\":5632:5634   */\n      0x20\n        /* \"#utility.yul\":5620:5629   */\n      dup3\n        /* \"#utility.yul\":5611:5618   */\n      dup5\n        /* \"#utility.yul\":5607:5630   */\n      sub\n        /* \"#utility.yul\":5603:5635   */\n      slt\n        /* \"#utility.yul\":5600:5719   */\n      iszero\n      tag_287\n      jumpi\n        /* \"#utility.yul\":5638:5717   */\n      tag_288\n      tag_195\n      jump\t// in\n    tag_288:\n        /* \"#utility.yul\":5600:5719   */\n    tag_287:\n        /* \"#utility.yul\":5758:5759   */\n      0x00\n        /* \"#utility.yul\":5783:5836   */\n      tag_289\n        /* \"#utility.yul\":5828:5835   */\n      dup5\n        /* \"#utility.yul\":5819:5825   */\n      dup3\n        /* \"#utility.yul\":5808:5817   */\n      dup6\n        /* \"#utility.yul\":5804:5826   */\n      add\n        /* \"#utility.yul\":5783:5836   */\n      tag_198\n      jump\t// in\n    tag_289:\n        /* \"#utility.yul\":5773:5836   */\n      swap2\n      pop\n        /* \"#utility.yul\":5729:5846   */\n      pop\n        /* \"#utility.yul\":5524:5853   */\n      swap3\n      swap2\n      pop\n      pop\n      jump\t// out\n        /* \"#utility.yul\":5859:5976   */\n    tag_199:\n        /* \"#utility.yul\":5968:5969   */\n      0x00\n        /* \"#utility.yul\":5965:5966   */\n      0x00\n        /* \"#utility.yul\":5958:5970   */\n      revert\n        /* \"#utility.yul\":5982:6099   */\n    tag_200:\n        /* \"#utility.yul\":6091:6092   */\n      0x00\n        /* \"#utility.yul\":6088:6089   */\n      0x00\n        /* \"#utility.yul\":6081:6093   */\n      revert\n        /* \"#utility.yul\":6105:6285   */\n    tag_62:\n        /* \"#utility.yul\":6153:6230   */\n      0x4e487b7100000000000000000000000000000000000000000000000000000000\n        /* \"#utility.yul\":6150:6151   */\n      0x00\n        /* \"#utility.yul\":6143:6231   */\n      mstore\n        /* \"#utility.yul\":6250:6254   */\n      0x41\n        /* \"#utility.yul\":6247:6248   */\n      0x04\n        /* \"#utility.yul\":6240:6255   */\n      mstore\n        /* \"#utility.yul\":6274:6278   */\n      0x24\n        /* \"#utility.yul\":6271:6272   */\n      0x00\n        /* \"#utility.yul\":6264:6279   */\n      revert\n        /* \"#utility.yul\":6291:6572   */\n    tag_201:\n        /* \"#utility.yul\":6374:6401   */\n      tag_294\n        /* \"#utility.yul\":6396:6400   */\n      dup3\n        /* \"#utility.yul\":6374:6401   */\n      tag_185\n      jump\t// in\n    tag_294:\n        /* \"#utility.yul\":6366:6372   */\n      dup2\n        /* \"#utility.yul\":6362:6402   */\n      add\n        /* \"#utility.yul\":6504:6510   */\n      dup2\n        /* \"#utility.yul\":6492:6502   */\n      dup2\n        /* \"#utility.yul\":6489:6511   */\n      lt\n        /* \"#utility.yul\":6468:6486   */\n      0xffffffffffffffff\n        /* \"#utility.yul\":6456:6466   */\n      dup3\n        /* \"#utility.yul\":6453:6487   */\n      gt\n        /* \"#utility.yul\":6450:6512   */\n      or\n        /* \"#utility.yul\":6447:6535   */\n      iszero\n      tag_295\n      jumpi\n        /* \"#utility.yul\":6515:6533   */\n      tag_296\n      tag_62\n      jump\t// in\n    tag_296:\n        /* \"#utility.yul\":6447:6535   */\n    tag_295:\n        /* \"#utility.yul\":6555:6565   */\n      dup1\n        /* \"#utility.yul\":6551:6553   */\n      0x40\n        /* \"#utility.yul\":6544:6566   */\n      mstore\n        /* \"#utility.yul\":6334:6572   */\n      pop\n        /* \"#utility.yul\":6291:6572   */\n      pop\n      pop\n      jump\t// out\n        /* \"#utility.yul\":6578:6707   */\n    tag_202:\n        /* \"#utility.yul\":6612:6618   */\n      0x00\n        /* \"#utility.yul\":6639:6659   */\n      tag_298\n      tag_194\n      jump\t// in\n    tag_298:\n        /* \"#utility.yul\":6629:6659   */\n      swap1\n      pop\n        /* \"#utility.yul\":6668:6701   */\n      tag_299\n        /* \"#utility.yul\":6696:6700   */\n      dup3\n        /* \"#utility.yul\":6688:6694   */\n      dup3\n        /* \"#utility.yul\":6668:6701   */\n      tag_201\n      jump\t// in\n    tag_299:\n        /* \"#utility.yul\":6578:6707   */\n      swap2\n      swap1\n      pop\n      jump\t// out\n        /* \"#utility.yul\":6713:7021   */\n    tag_203:\n        /* \"#utility.yul\":6775:6779   */\n      0x00\n        /* \"#utility.yul\":6865:6883   */\n      0xffffffffffffffff\n        /* \"#utility.yul\":6857:6863   */\n      dup3\n        /* \"#utility.yul\":6854:6884   */\n      gt\n        /* \"#utility.yul\":6851:6907   */\n      iszero\n      tag_301\n      jumpi\n        /* \"#utility.yul\":6887:6905   */\n      tag_302\n      tag_62\n      jump\t// in\n    tag_302:\n        /* \"#utility.yul\":6851:6907   */\n    tag_301:\n        /* \"#utility.yul\":6925:6954   */\n      tag_303\n        /* \"#utility.yul\":6947:6953   */\n      dup3\n        /* \"#utility.yul\":6925:6954   */\n      tag_185\n      jump\t// in\n    tag_303:\n        /* \"#utility.yul\":6917:6954   */\n      swap1\n      pop\n        /* \"#utility.yul\":7009:7013   */\n      0x20\n        /* \"#utility.yul\":7003:7007   */\n      dup2\n        /* \"#utility.yul\":6999:7014   */\n      add\n        /* \"#utility.yul\":6991:7014   */\n      swap1\n      pop\n        /* \"#utility.yul\":6713:7021   */\n      swap2\n      swap1\n      pop\n      jump\t// out\n        /* \"#utility.yul\":7027:7175   */\n    tag_204:\n        /* \"#utility.yul\":7125:7131   */\n      dup3\n        /* \"#utility.yul\":7120:7123   */\n      dup2\n        /* \"#utility.yul\":7115:7118   */\n      dup4\n        /* \"#utility.yul\":7102:7132   */\n      calldatacopy\n        /* \"#utility.yul\":7166:7167   */\n      0x00\n        /* \"#utility.yul\":7157:7163   */\n      dup4\n        /* \"#utility.yul\":7152:7155   */\n      dup4\n        /* \"#utility.yul\":7148:7164   */\n      add\n        /* \"#utility.yul\":7141:7168   */\n      mstore\n        /* \"#utility.yul\":7027:7175   */\n      pop\n      pop\n      pop\n      jump\t// out\n        /* \"#utility.yul\":7181:7606   */\n    tag_205:\n        /* \"#utility.yul\":7259:7264   */\n      0x00\n        /* \"#utility.yul\":7284:7350   */\n      tag_306\n        /* \"#utility.yul\":7300:7349   */\n      tag_307\n        /* \"#utility.yul\":7342:7348   */\n      dup5\n        /* \"#utility.yul\":7300:7349   */\n      tag_203\n      jump\t// in\n    tag_307:\n        /* \"#utility.yul\":7284:7350   */\n      tag_202\n      jump\t// in\n    tag_306:\n        /* \"#utility.yul\":7275:7350   */\n      swap1\n      pop\n        /* \"#utility.yul\":7373:7379   */\n      dup3\n        /* \"#utility.yul\":7366:7371   */\n      dup2\n        /* \"#utility.yul\":7359:7380   */\n      mstore\n        /* \"#utility.yul\":7411:7415   */\n      0x20\n        /* \"#utility.yul\":7404:7409   */\n      dup2\n        /* \"#utility.yul\":7400:7416   */\n      add\n        /* \"#utility.yul\":7449:7452   */\n      dup5\n        /* \"#utility.yul\":7440:7446   */\n      dup5\n        /* \"#utility.yul\":7435:7438   */\n      dup5\n        /* \"#utility.yul\":7431:7447   */\n      add\n        /* \"#utility.yul\":7428:7453   */\n      gt\n        /* \"#utility.yul\":7425:7537   */\n      iszero\n      tag_308\n      jumpi\n        /* \"#utility.yul\":7456:7535   */\n      tag_309\n      tag_200\n      jump\t// in\n    tag_309:\n        /* \"#utility.yul\":7425:7537   */\n    tag_308:\n        /* \"#utility.yul\":7546:7600   */\n      tag_310\n        /* \"#utility.yul\":7593:7599   */\n      dup5\n        /* \"#utility.yul\":7588:7591   */\n      dup3\n        /* \"#utility.yul\":7583:7586   */\n      dup6\n        /* \"#utility.yul\":7546:7600   */\n      tag_204\n      jump\t// in\n    tag_310:\n        /* \"#utility.yul\":7265:7606   */\n      pop\n        /* \"#utility.yul\":7181:7606   */\n      swap4\n      swap3\n      pop\n      pop\n      pop\n      jump\t// out\n        /* \"#utility.yul\":7626:7966   */\n    tag_206:\n        /* \"#utility.yul\":7682:7687   */\n      0x00\n        /* \"#utility.yul\":7731:7734   */\n      dup3\n        /* \"#utility.yul\":7724:7728   */\n      0x1f\n        /* \"#utility.yul\":7716:7722   */\n      dup4\n        /* \"#utility.yul\":7712:7729   */\n      add\n        /* \"#utility.yul\":7708:7735   */\n      slt\n        /* \"#utility.yul\":7698:7820   */\n      tag_312\n      jumpi\n        /* \"#utility.yul\":7739:7818   */\n      tag_313\n      tag_199\n      jump\t// in\n    tag_313:\n        /* \"#utility.yul\":7698:7820   */\n    tag_312:\n        /* \"#utility.yul\":7856:7862   */\n      dup2\n        /* \"#utility.yul\":7843:7863   */\n      calldataload\n        /* \"#utility.yul\":7881:7960   */\n      tag_314\n        /* \"#utility.yul\":7956:7959   */\n      dup5\n        /* \"#utility.yul\":7948:7954   */\n      dup3\n        /* \"#utility.yul\":7941:7945   */\n      0x20\n        /* \"#utility.yul\":7933:7939   */\n      dup7\n        /* \"#utility.yul\":7929:7946   */\n      add\n        /* \"#utility.yul\":7881:7960   */\n      tag_205\n      jump\t// in\n    tag_314:\n        /* \"#utility.yul\":7872:7960   */\n      swap2\n      pop\n        /* \"#utility.yul\":7688:7966   */\n      pop\n        /* \"#utility.yul\":7626:7966   */\n      swap3\n      swap2\n      pop\n      pop\n      jump\t// out\n        /* \"#utility.yul\":7972:8481   */\n    tag_29:\n        /* \"#utility.yul\":8041:8047   */\n      0x00\n        /* \"#utility.yul\":8090:8092   */\n      0x20\n        /* \"#utility.yul\":8078:8087   */\n      dup3\n        /* \"#utility.yul\":8069:8076   */\n      dup5\n        /* \"#utility.yul\":8065:8088   */\n      sub\n        /* \"#utility.yul\":8061:8093   */\n      slt\n        /* \"#utility.yul\":8058:8177   */\n      iszero\n      tag_316\n      jumpi\n        /* \"#utility.yul\":8096:8175   */\n      tag_317\n      tag_195\n      jump\t// in\n    tag_317:\n        /* \"#utility.yul\":8058:8177   */\n    tag_316:\n        /* \"#utility.yul\":8244:8245   */\n      0x00\n        /* \"#utility.yul\":8233:8242   */\n      dup3\n        /* \"#utility.yul\":8229:8246   */\n      add\n        /* \"#utility.yul\":8216:8247   */\n      calldataload\n        /* \"#utility.yul\":8274:8292   */\n      0xffffffffffffffff\n        /* \"#utility.yul\":8266:8272   */\n      dup2\n        /* \"#utility.yul\":8263:8293   */\n      gt\n        /* \"#utility.yul\":8260:8377   */\n      iszero\n      tag_318\n      jumpi\n        /* \"#utility.yul\":8296:8375   */\n      tag_319\n      tag_196\n      jump\t// in\n    tag_319:\n        /* \"#utility.yul\":8260:8377   */\n    tag_318:\n        /* \"#utility.yul\":8401:8464   */\n      tag_320\n        /* \"#utility.yul\":8456:8463   */\n      dup5\n        /* \"#utility.yul\":8447:8453   */\n      dup3\n        /* \"#utility.yul\":8436:8445   */\n      dup6\n        /* \"#utility.yul\":8432:8454   */\n      add\n        /* \"#utility.yul\":8401:8464   */\n      tag_206\n      jump\t// in\n    tag_320:\n        /* \"#utility.yul\":8391:8464   */\n      swap2\n      pop\n        /* \"#utility.yul\":8187:8474   */\n      pop\n        /* \"#utility.yul\":7972:8481   */\n      swap3\n      swap2\n      pop\n      pop\n      jump\t// out\n        /* \"#utility.yul\":8487:8667   */\n    tag_207:\n        /* \"#utility.yul\":8535:8612   */\n      0x4e487b7100000000000000000000000000000000000000000000000000000000\n        /* \"#utility.yul\":8532:8533   */\n      0x00\n        /* \"#utility.yul\":8525:8613   */\n      mstore\n        /* \"#utility.yul\":8632:8636   */\n      0x22\n        /* \"#utility.yul\":8629:8630   */\n      0x04\n        /* \"#utility.yul\":8622:8637   */\n      mstore\n        /* \"#utility.yul\":8656:8660   */\n      0x24\n        /* \"#utility.yul\":8653:8654   */\n      0x00\n        /* \"#utility.yul\":8646:8661   */\n      revert\n        /* \"#utility.yul\":8673:8993   */\n    tag_46:\n        /* \"#utility.yul\":8717:8723   */\n      0x00\n        /* \"#utility.yul\":8754:8755   */\n      0x02\n        /* \"#utility.yul\":8748:8752   */\n      dup3\n        /* \"#utility.yul\":8744:8756   */\n      div\n        /* \"#utility.yul\":8734:8756   */\n      swap1\n      pop\n        /* \"#utility.yul\":8801:8802   */\n      0x01\n        /* \"#utility.yul\":8795:8799   */\n      dup3\n        /* \"#utility.yul\":8791:8803   */\n      and\n        /* \"#utility.yul\":8822:8840   */\n      dup1\n        /* \"#utility.yul\":8812:8893   */\n      tag_323\n      jumpi\n        /* \"#utility.yul\":8878:8882   */\n      0x7f\n        /* \"#utility.yul\":8870:8876   */\n      dup3\n        /* \"#utility.yul\":8866:8883   */\n      and\n        /* \"#utility.yul\":8856:8883   */\n      swap2\n      pop\n        /* \"#utility.yul\":8812:8893   */\n    tag_323:\n        /* \"#utility.yul\":8940:8942   */\n      0x20\n        /* \"#utility.yul\":8932:8938   */\n      dup3\n        /* \"#utility.yul\":8929:8943   */\n      lt\n        /* \"#utility.yul\":8909:8927   */\n      dup2\n        /* \"#utility.yul\":8906:8944   */\n      sub\n        /* \"#utility.yul\":8903:8987   */\n      tag_324\n      jumpi\n        /* \"#utility.yul\":8959:8977   */\n      tag_325\n      tag_207\n      jump\t// in\n    tag_325:\n        /* \"#utility.yul\":8903:8987   */\n    tag_324:\n        /* \"#utility.yul\":8724:8993   */\n      pop\n        /* \"#utility.yul\":8673:8993   */\n      swap2\n      swap1\n      pop\n      jump\t// out\n        /* \"#utility.yul\":8999:9179   */\n    tag_56:\n        /* \"#utility.yul\":9047:9124   */\n      0x4e487b7100000000000000000000000000000000000000000000000000000000\n        /* \"#utility.yul\":9044:9045   */\n      0x00\n        /* \"#utility.yul\":9037:9125   */\n      mstore\n        /* \"#utility.yul\":9144:9148   */\n      0x32\n        /* \"#utility.yul\":9141:9142   */\n      0x04\n        /* \"#utility.yul\":9134:9149   */\n      mstore\n        /* \"#utility.yul\":9168:9172   */\n      0x24\n        /* \"#utility.yul\":9165:9166   */\n      0x00\n        /* \"#utility.yul\":9158:9173   */\n      revert\n        /* \"#utility.yul\":9185:9365   */\n    tag_208:\n        /* \"#utility.yul\":9233:9310   */\n      0x4e487b7100000000000000000000000000000000000000000000000000000000\n        /* \"#utility.yul\":9230:9231   */\n      0x00\n        /* \"#utility.yul\":9223:9311   */\n      mstore\n        /* \"#utility.yul\":9330:9334   */\n      0x11\n        /* \"#utility.yul\":9327:9328   */\n      0x04\n        /* \"#utility.yul\":9320:9335   */\n      mstore\n        /* \"#utility.yul\":9354:9358   */\n      0x24\n        /* \"#utility.yul\":9351:9352   */\n      0x00\n        /* \"#utility.yul\":9344:9359   */\n      revert\n        /* \"#utility.yul\":9371:9604   */\n    tag_59:\n        /* \"#utility.yul\":9410:9413   */\n      0x00\n        /* \"#utility.yul\":9433:9457   */\n      tag_329\n        /* \"#utility.yul\":9451:9456   */\n      dup3\n        /* \"#utility.yul\":9433:9457   */\n      tag_177\n      jump\t// in\n    tag_329:\n        /* \"#utility.yul\":9424:9457   */\n      swap2\n      pop\n        /* \"#utility.yul\":9479:9545   */\n      0xffffffffffffffffffffffffffffffffffffffffffffffffffffffffffffffff\n        /* \"#utility.yul\":9472:9477   */\n      dup3\n        /* \"#utility.yul\":9469:9546   */\n      sub\n        /* \"#utility.yul\":9466:9569   */\n      tag_330\n      jumpi\n        /* \"#utility.yul\":9549:9567   */\n      tag_331\n      tag_208\n      jump\t// in\n    tag_331:\n        /* \"#utility.yul\":9466:9569   */\n    tag_330:\n        /* \"#utility.yul\":9596:9597   */\n      0x01\n        /* \"#utility.yul\":9589:9594   */\n      dup3\n        /* \"#utility.yul\":9585:9598   */\n      add\n        /* \"#utility.yul\":9578:9598   */\n      swap1\n      pop\n        /* \"#utility.yul\":9371:9604   */\n      swap2\n      swap1\n      pop\n      jump\t// out\n        /* \"#utility.yul\":9610:9779   */\n    tag_209:\n        /* \"#utility.yul\":9694:9705   */\n      0x00\n        /* \"#utility.yul\":9728:9734   */\n      dup3\n        /* \"#utility.yul\":9723:9726   */\n      dup3\n        /* \"#utility.yul\":9716:9735   */\n      mstore\n        /* \"#utility.yul\":9768:9772   */\n      0x20\n        /* \"#utility.yul\":9763:9766   */\n      dup3\n        /* \"#utility.yul\":9759:9773   */\n      add\n        /* \"#utility.yul\":9744:9773   */\n      swap1\n      pop\n        /* \"#utility.yul\":9610:9779   */\n      swap3\n      swap2\n      pop\n      pop\n      jump\t// out\n        /* \"#utility.yul\":9785:9954   */\n    tag_210:\n        /* \"#utility.yul\":9925:9946   */\n      0x496e646578206f7574206f6620626f756e647300000000000000000000000000\n        /* \"#utility.yul\":9921:9922   */\n      0x00\n        /* \"#utility.yul\":9913:9919   */\n      dup3\n        /* \"#utility.yul\":9909:9923   */\n      add\n        /* \"#utility.yul\":9902:9947   */\n      mstore\n        /* \"#utility.yul\":9785:9954   */\n      pop\n      jump\t// out\n        /* \"#utility.yul\":9960:10326   */\n    tag_211:\n        /* \"#utility.yul\":10102:10105   */\n      0x00\n        /* \"#utility.yul\":10123:10190   */\n      tag_335\n        /* \"#utility.yul\":10187:10189   */\n      0x13\n        /* \"#utility.yul\":10182:10185   */\n      dup4\n        /* \"#utility.yul\":10123:10190   */\n      tag_209\n      jump\t// in\n    tag_335:\n        /* \"#utility.yul\":10116:10190   */\n      swap2\n      pop\n        /* \"#utility.yul\":10199:10292   */\n      tag_336\n        /* \"#utility.yul\":10288:10291   */\n      dup3\n        /* \"#utility.yul\":10199:10292   */\n      tag_210\n      jump\t// in\n    tag_336:\n        /* \"#utility.yul\":10317:10319   */\n      0x20\n        /* \"#utility.yul\":10312:10315   */\n      dup3\n        /* \"#utility.yul\":10308:10320   */\n      add\n        /* \"#utility.yul\":10301:10320   */\n      swap1\n      pop\n        /* \"#utility.yul\":9960:10326   */\n      swap2\n      swap1\n      pop\n      jump\t// out\n        /* \"#utility.yul\":10332:10751   */\n    tag_81:\n        /* \"#utility.yul\":10498:10502   */\n      0x00\n        /* \"#utility.yul\":10536:10538   */\n      0x20\n        /* \"#utility.yul\":10525:10534   */\n      dup3\n        /* \"#utility.yul\":10521:10539   */\n      add\n        /* \"#utility.yul\":10513:10539   */\n      swap1\n      pop\n        /* \"#utility.yul\":10585:10594   */\n      dup2\n        /* \"#utility.yul\":10579:10583   */\n      dup2\n        /* \"#utility.yul\":10575:10595   */\n      sub\n        /* \"#utility.yul\":10571:10572   */\n      0x00\n        /* \"#utility.yul\":10560:10569   */\n      dup4\n        /* \"#utility.yul\":10556:10573   */\n      add\n        /* \"#utility.yul\":10549:10596   */\n      mstore\n        /* \"#utility.yul\":10613:10744   */\n      tag_338\n        /* \"#utility.yul\":10739:10743   */\n      dup2\n        /* \"#utility.yul\":10613:10744   */\n      tag_211\n      jump\t// in\n    tag_338:\n        /* \"#utility.yul\":10605:10744   */\n      swap1\n      pop\n        /* \"#utility.yul\":10332:10751   */\n      swap2\n      swap1\n      pop\n      jump\t// out\n        /* \"#utility.yul\":10757:10924   */\n    tag_212:\n        /* \"#utility.yul\":10897:10916   */\n      0x416c726561647920636f6d706c65746564000000000000000000000000000000\n        /* \"#utility.yul\":10893:10894   */\n      0x00\n        /* \"#utility.yul\":10885:10891   */\n      dup3\n        /* \"#utility.yul\":10881:10895   */\n      add\n        /* \"#utility.yul\":10874:10917   */\n      mstore\n        /* \"#utility.yul\":10757:10924   */\n      pop\n      jump\t// out\n        /* \"#utility.yul\":10930:11296   */\n    tag_213:\n        /* \"#utility.yul\":11072:11075   */\n      0x00\n        /* \"#utility.yul\":11093:11160   */\n      tag_341\n        /* \"#utility.yul\":11157:11159   */\n      0x11\n        /* \"#utility.yul\":11152:11155   */\n      dup4\n        /* \"#utility.yul\":11093:11160   */\n      tag_209\n      jump\t// in\n    tag_341:\n        /* \"#utility.yul\":11086:11160   */\n      swap2\n      pop\n        /* \"#utility.yul\":11169:11262   */\n      tag_342\n        /* \"#utility.yul\":11258:11261   */\n      dup3\n        /* \"#utility.yul\":11169:11262   */\n      tag_212\n      jump\t// in\n    tag_342:\n        /* \"#utility.yul\":11287:11289   */\n      0x20\n        /* \"#utility.yul\":11282:11285   */\n      dup3\n        /* \"#utility.yul\":11278:11290   */\n      add\n        /* \"#utility.yul\":11271:11290   */\n      swap1\n      pop\n        /* \"#utility.yul\":10930:11296   */\n      swap2\n      swap1\n      pop\n      jump\t// out\n        /* \"#utility.yul\":11302:11721   */\n    tag_87:\n        /* \"#utility.yul\":11468:11472   */\n      0x00\n        /* \"#utility.yul\":11506:11508   */\n      0x20\n        /* \"#utility.yul\":11495:11504   */\n      dup3\n        /* \"#utility.yul\":11491:11509   */\n      add\n        /* \"#utility.yul\":11483:11509   */\n      swap1\n      pop\n        /* \"#utility.yul\":11555:11564   */\n      dup2\n        /* \"#utility.yul\":11549:11553   */\n      dup2\n        /* \"#utility.yul\":11545:11565   */\n      sub\n        /* \"#utility.yul\":11541:11542   */\n      0x00\n        /* \"#utility.yul\":11530:11539   */\n      dup4\n        /* \"#utility.yul\":11526:11543   */\n      add\n        /* \"#utility.yul\":11519:11566   */\n      mstore\n        /* \"#utility.yul\":11583:11714   */\n      tag_344\n        /* \"#utility.yul\":11709:11713   */\n      dup2\n        /* \"#utility.yul\":11583:11714   */\n      tag_213\n      jump\t// in\n    tag_344:\n        /* \"#utility.yul\":11575:11714   */\n      swap1\n      pop\n        /* \"#utility.yul\":11302:11721   */\n      swap2\n      swap1\n      pop\n      jump\t// out\n        /* \"#utility.yul\":11727:11921   */\n    tag_96:\n        /* \"#utility.yul\":11767:11771   */\n      0x00\n        /* \"#utility.yul\":11787:11807   */\n      tag_346\n        /* \"#utility.yul\":11805:11806   */\n      dup3\n        /* \"#utility.yul\":11787:11807   */\n      tag_177\n      jump\t// in\n    tag_346:\n        /* \"#utility.yul\":11782:11807   */\n      swap2\n      pop\n        /* \"#utility.yul\":11821:11841   */\n      tag_347\n        /* \"#utility.yul\":11839:11840   */\n      dup4\n        /* \"#utility.yul\":11821:11841   */\n      tag_177\n      jump\t// in\n    tag_347:\n        /* \"#utility.yul\":11816:11841   */\n      swap3\n      pop\n        /* \"#utility.yul\":11865:11866   */\n      dup3\n        /* \"#utility.yul\":11862:11863   */\n      dup3\n        /* \"#utility.yul\":11858:11867   */\n      sub\n        /* \"#utility.yul\":11850:11867   */\n      swap1\n      pop\n        /* \"#utility.yul\":11889:11890   */\n      dup2\n        /* \"#utility.yul\":11883:11887   */\n      dup2\n        /* \"#utility.yul\":11880:11891   */\n      gt\n        /* \"#utility.yul\":11877:11914   */\n      iszero\n      tag_348\n      jumpi\n        /* \"#utility.yul\":11894:11912   */\n      tag_349\n      tag_208\n      jump\t// in\n    tag_349:\n        /* \"#utility.yul\":11877:11914   */\n    tag_348:\n        /* \"#utility.yul\":11727:11921   */\n      swap3\n      swap2\n      pop\n      pop\n      jump\t// out\n        /* \"#utility.yul\":11927:12076   */\n    tag_214:\n        /* \"#utility.yul\":11976:11982   */\n      0x00\n        /* \"#utility.yul\":12010:12015   */\n      dup2\n        /* \"#utility.yul\":12004:12016   */\n      sload\n        /* \"#utility.yul\":11994:12016   */\n      swap1\n      pop\n        /* \"#utility.yul\":12036:12069   */\n      tag_351\n        /* \"#utility.yul\":12062:12068   */\n      dup2\n        /* \"#utility.yul\":12036:12069   */\n      tag_46\n      jump\t// in\n    tag_351:\n        /* \"#utility.yul\":12026:12069   */\n      swap1\n      pop\n        /* \"#utility.yul\":11927:12076   */\n      swap2\n      swap1\n      pop\n      jump\t// out\n        /* \"#utility.yul\":12082:12223   */\n    tag_215:\n        /* \"#utility.yul\":12131:12135   */\n      0x00\n        /* \"#utility.yul\":12154:12157   */\n      dup2\n        /* \"#utility.yul\":12146:12157   */\n      swap1\n      pop\n        /* \"#utility.yul\":12177:12180   */\n      dup2\n        /* \"#utility.yul\":12174:12175   */\n      0x00\n        /* \"#utility.yul\":12167:12181   */\n      mstore\n        /* \"#utility.yul\":12211:12215   */\n      0x20\n        /* \"#utility.yul\":12208:12209   */\n      0x00\n        /* \"#utility.yul\":12198:12216   */\n      keccak256\n        /* \"#utility.yul\":12190:12216   */\n      swap1\n      pop\n        /* \"#utility.yul\":12082:12223   */\n      swap2\n      swap1\n      pop\n      jump\t// out\n        /* \"#utility.yul\":12229:12322   */\n    tag_216:\n        /* \"#utility.yul\":12266:12272   */\n      0x00\n        /* \"#utility.yul\":12313:12315   */\n      0x20\n        /* \"#utility.yul\":12308:12310   */\n      0x1f\n        /* \"#utility.yul\":12301:12306   */\n      dup4\n        /* \"#utility.yul\":12297:12311   */\n      add\n        /* \"#utility.yul\":12293:12316   */\n      div\n        /* \"#utility.yul\":12283:12316   */\n      swap1\n      pop\n        /* \"#utility.yul\":12229:12322   */\n      swap2\n      swap1\n      pop\n      jump\t// out\n        /* \"#utility.yul\":12328:12435   */\n    tag_217:\n        /* \"#utility.yul\":12372:12380   */\n      0x00\n        /* \"#utility.yul\":12422:12427   */\n      dup3\n        /* \"#utility.yul\":12416:12420   */\n      dup3\n        /* \"#utility.yul\":12412:12428   */\n      shl\n        /* \"#utility.yul\":12391:12428   */\n      swap1\n      pop\n        /* \"#utility.yul\":12328:12435   */\n      swap3\n      swap2\n      pop\n      pop\n      jump\t// out\n        /* \"#utility.yul\":12441:12834   */\n    tag_218:\n        /* \"#utility.yul\":12510:12516   */\n      0x00\n        /* \"#utility.yul\":12560:12561   */\n      0x08\n        /* \"#utility.yul\":12548:12558   */\n      dup4\n        /* \"#utility.yul\":12544:12562   */\n      mul\n        /* \"#utility.yul\":12583:12680   */\n      tag_356\n        /* \"#utility.yul\":12613:12679   */\n      0xffffffffffffffffffffffffffffffffffffffffffffffffffffffffffffffff\n        /* \"#utility.yul\":12602:12611   */\n      dup3\n        /* \"#utility.yul\":12583:12680   */\n      tag_217\n      jump\t// in\n    tag_356:\n        /* \"#utility.yul\":12701:12740   */\n      tag_357\n        /* \"#utility.yul\":12731:12739   */\n      dup7\n        /* \"#utility.yul\":12720:12729   */\n      dup4\n        /* \"#utility.yul\":12701:12740   */\n      tag_217\n      jump\t// in\n    tag_357:\n        /* \"#utility.yul\":12689:12740   */\n      swap6\n      pop\n        /* \"#utility.yul\":12773:12777   */\n      dup1\n        /* \"#utility.yul\":12769:12778   */\n      not\n        /* \"#utility.yul\":12762:12767   */\n      dup5\n        /* \"#utility.yul\":12758:12779   */\n      and\n        /* \"#utility.yul\":12749:12779   */\n      swap4\n      pop\n        /* \"#utility.yul\":12822:12826   */\n      dup1\n        /* \"#utility.yul\":12812:12820   */\n      dup7\n        /* \"#utility.yul\":12808:12827   */\n      and\n        /* \"#utility.yul\":12801:12806   */\n      dup5\n        /* \"#utility.yul\":12798:12828   */\n      or\n        /* \"#utility.yul\":12788:12828   */\n      swap3\n      pop\n        /* \"#utility.yul\":12517:12834   */\n      pop\n      pop\n        /* \"#utility.yul\":12441:12834   */\n      swap4\n      swap3\n      pop\n      pop\n      pop\n      jump\t// out\n        /* \"#utility.yul\":12840:12900   */\n    tag_219:\n        /* \"#utility.yul\":12868:12871   */\n      0x00\n        /* \"#utility.yul\":12889:12894   */\n      dup2\n        /* \"#utility.yul\":12882:12894   */\n      swap1\n      pop\n        /* \"#utility.yul\":12840:12900   */\n      swap2\n      swap1\n      pop\n      jump\t// out\n        /* \"#utility.yul\":12906:13048   */\n    tag_220:\n        /* \"#utility.yul\":12956:12965   */\n      0x00\n        /* \"#utility.yul\":12989:13042   */\n      tag_360\n        /* \"#utility.yul\":13007:13041   */\n      tag_361\n        /* \"#utility.yul\":13016:13040   */\n      tag_362\n        /* \"#utility.yul\":13034:13039   */\n      dup5\n        /* \"#utility.yul\":13016:13040   */\n      tag_177\n      jump\t// in\n    tag_362:\n        /* \"#utility.yul\":13007:13041   */\n      tag_219\n      jump\t// in\n    tag_361:\n        /* \"#utility.yul\":12989:13042   */\n      tag_177\n      jump\t// in\n    tag_360:\n        /* \"#utility.yul\":12976:13042   */\n      swap1\n      pop\n        /* \"#utility.yul\":12906:13048   */\n      swap2\n      swap1\n      pop\n      jump\t// out\n        /* \"#utility.yul\":13054:13129   */\n    tag_221:\n        /* \"#utility.yul\":13097:13100   */\n      0x00\n        /* \"#utility.yul\":13118:13123   */\n      dup2\n        /* \"#utility.yul\":13111:13123   */\n      swap1\n      pop\n        /* \"#utility.yul\":13054:13129   */\n      swap2\n      swap1\n      pop\n      jump\t// out\n        /* \"#utility.yul\":13135:13404   */\n    tag_222:\n        /* \"#utility.yul\":13245:13284   */\n      tag_365\n        /* \"#utility.yul\":13276:13283   */\n      dup4\n        /* \"#utility.yul\":13245:13284   */\n      tag_220\n      jump\t// in\n    tag_365:\n        /* \"#utility.yul\":13306:13397   */\n      tag_366\n        /* \"#utility.yul\":13355:13396   */\n      tag_367\n        /* \"#utility.yul\":13379:13395   */\n      dup3\n        /* \"#utility.yul\":13355:13396   */\n      tag_221\n      jump\t// in\n    tag_367:\n        /* \"#utility.yul\":13347:13353   */\n      dup5\n        /* \"#utility.yul\":13340:13344   */\n      dup5\n        /* \"#utility.yul\":13334:13345   */\n      sload\n        /* \"#utility.yul\":13306:13397   */\n      tag_218\n      jump\t// in\n    tag_366:\n        /* \"#utility.yul\":13300:13304   */\n      dup3\n        /* \"#utility.yul\":13293:13398   */\n      sstore\n        /* \"#utility.yul\":13211:13404   */\n      pop\n        /* \"#utility.yul\":13135:13404   */\n      pop\n      pop\n      pop\n      jump\t// out\n        /* \"#utility.yul\":13410:13483   */\n    tag_223:\n        /* \"#utility.yul\":13455:13458   */\n      0x00\n        /* \"#utility.yul\":13476:13477   */\n      0x00\n        /* \"#utility.yul\":13469:13477   */\n      swap1\n      pop\n        /* \"#utility.yul\":13410:13483   */\n      swap1\n      jump\t// out\n        /* \"#utility.yul\":13489:13678   */\n    tag_224:\n        /* \"#utility.yul\":13566:13598   */\n      tag_370\n      tag_223\n      jump\t// in\n    tag_370:\n        /* \"#utility.yul\":13607:13672   */\n      tag_371\n        /* \"#utility.yul\":13665:13671   */\n      dup2\n        /* \"#utility.yul\":13657:13663   */\n      dup5\n        /* \"#utility.yul\":13651:13655   */\n      dup5\n        /* \"#utility.yul\":13607:13672   */\n      tag_222\n      jump\t// in\n    tag_371:\n        /* \"#utility.yul\":13542:13678   */\n      pop\n        /* \"#utility.yul\":13489:13678   */\n      pop\n      pop\n      jump\t// out\n        /* \"#utility.yul\":13684:13870   */\n    tag_225:\n        /* \"#utility.yul\":13744:13864   */\n    tag_373:\n        /* \"#utility.yul\":13761:13764   */\n      dup2\n        /* \"#utility.yul\":13754:13759   */\n      dup2\n        /* \"#utility.yul\":13751:13765   */\n      lt\n        /* \"#utility.yul\":13744:13864   */\n      iszero\n      tag_375\n      jumpi\n        /* \"#utility.yul\":13815:13854   */\n      tag_376\n        /* \"#utility.yul\":13852:13853   */\n      0x00\n        /* \"#utility.yul\":13845:13850   */\n      dup3\n        /* \"#utility.yul\":13815:13854   */\n      tag_224\n      jump\t// in\n    tag_376:\n        /* \"#utility.yul\":13788:13789   */\n      0x01\n        /* \"#utility.yul\":13781:13786   */\n      dup2\n        /* \"#utility.yul\":13777:13790   */\n      add\n        /* \"#utility.yul\":13768:13790   */\n      swap1\n      pop\n        /* \"#utility.yul\":13744:13864   */\n      jump(tag_373)\n    tag_375:\n        /* \"#utility.yul\":13684:13870   */\n      pop\n      pop\n      jump\t// out\n        /* \"#utility.yul\":13876:14419   */\n    tag_226:\n        /* \"#utility.yul\":13977:13979   */\n      0x1f\n        /* \"#utility.yul\":13972:13975   */\n      dup3\n        /* \"#utility.yul\":13969:13980   */\n      gt\n        /* \"#utility.yul\":13966:14412   */\n      iszero\n      tag_378\n      jumpi\n        /* \"#utility.yul\":14011:14049   */\n      tag_379\n        /* \"#utility.yul\":14043:14048   */\n      dup2\n        /* \"#utility.yul\":14011:14049   */\n      tag_215\n      jump\t// in\n    tag_379:\n        /* \"#utility.yul\":14095:14124   */\n      tag_380\n        /* \"#utility.yul\":14113:14123   */\n      dup5\n        /* \"#utility.yul\":14095:14124   */\n      tag_216\n      jump\t// in\n    tag_380:\n        /* \"#utility.yul\":14085:14093   */\n      dup2\n        /* \"#utility.yul\":14081:14125   */\n      add\n        /* \"#utility.yul\":14278:14280   */\n      0x20\n        /* \"#utility.yul\":14266:14276   */\n      dup6\n        /* \"#utility.yul\":14263:14281   */\n      lt\n        /* \"#utility.yul\":14260:14309   */\n      iszero\n      tag_381\n      jumpi\n        /* \"#utility.yul\":14299:14307   */\n      dup2\n        /* \"#utility.yul\":14284:14307   */\n      swap1\n      pop\n        /* \"#utility.yul\":14260:14309   */\n    tag_381:\n        /* \"#utility.yul\":14322:14402   */\n      tag_382\n        /* \"#utility.yul\":14378:14400   */\n      tag_383\n        /* \"#utility.yul\":14396:14399   */\n      dup6\n        /* \"#utility.yul\":14378:14400   */\n      tag_216\n      jump\t// in\n    tag_383:\n        /* \"#utility.yul\":14368:14376   */\n      dup4\n        /* \"#utility.yul\":14364:14401   */\n      add\n        /* \"#utility.yul\":14351:14362   */\n      dup3\n        /* \"#utility.yul\":14322:14402   */\n      tag_225\n      jump\t// in\n    tag_382:\n        /* \"#utility.yul\":13981:14412   */\n      pop\n      pop\n        /* \"#utility.yul\":13966:14412   */\n    tag_378:\n        /* \"#utility.yul\":13876:14419   */\n      pop\n      pop\n      pop\n      jump\t// out\n        /* \"#utility.yul\":14425:14542   */\n    tag_227:\n        /* \"#utility.yul\":14479:14487   */\n      0x00\n        /* \"#utility.yul\":14529:14534   */\n      dup3\n        /* \"#utility.yul\":14523:14527   */\n      dup3\n        /* \"#utility.yul\":14519:14535   */\n      shr\n        /* \"#utility.yul\":14498:14535   */\n      swap1\n      pop\n        /* \"#utility.yul\":14425:14542   */\n      swap3\n      swap2\n      pop\n      pop\n      jump\t// out\n        /* \"#utility.yul\":14548:14717   */\n    tag_228:\n        /* \"#utility.yul\":14592:14598   */\n      0x00\n        /* \"#utility.yul\":14625:14676   */\n      tag_386\n        /* \"#utility.yul\":14673:14674   */\n      0x00\n        /* \"#utility.yul\":14669:14675   */\n      not\n        /* \"#utility.yul\":14661:14666   */\n      dup5\n        /* \"#utility.yul\":14658:14659   */\n      0x08\n        /* \"#utility.yul\":14654:14667   */\n      mul\n        /* \"#utility.yul\":14625:14676   */\n      tag_227\n      jump\t// in\n    tag_386:\n        /* \"#utility.yul\":14621:14677   */\n      not\n        /* \"#utility.yul\":14706:14710   */\n      dup1\n        /* \"#utility.yul\":14700:14704   */\n      dup4\n        /* \"#utility.yul\":14696:14711   */\n      and\n        /* \"#utility.yul\":14686:14711   */\n      swap2\n      pop\n        /* \"#utility.yul\":14599:14717   */\n      pop\n        /* \"#utility.yul\":14548:14717   */\n      swap3\n      swap2\n      pop\n      pop\n      jump\t// out\n        /* \"#utility.yul\":14722:15017   */\n    tag_229:\n        /* \"#utility.yul\":14798:14802   */\n      0x00\n        /* \"#utility.yul\":14944:14973   */\n      tag_388\n        /* \"#utility.yul\":14969:14972   */\n      dup4\n        /* \"#utility.yul\":14963:14967   */\n      dup4\n        /* \"#utility.yul\":14944:14973   */\n      tag_228\n      jump\t// in\n    tag_388:\n        /* \"#utility.yul\":14936:14973   */\n      swap2\n      pop\n        /* \"#utility.yul\":15006:15009   */\n      dup3\n        /* \"#utility.yul\":15003:15004   */\n      0x02\n        /* \"#utility.yul\":14999:15010   */\n      mul\n        /* \"#utility.yul\":14993:14997   */\n      dup3\n        /* \"#utility.yul\":14990:15011   */\n      or\n        /* \"#utility.yul\":14982:15011   */\n      swap1\n      pop\n        /* \"#utility.yul\":14722:15017   */\n      swap3\n      swap2\n      pop\n      pop\n      jump\t// out\n        /* \"#utility.yul\":15022:16473   */\n    tag_105:\n        /* \"#utility.yul\":15133:15136   */\n      dup2\n        /* \"#utility.yul\":15127:15131   */\n      dup2\n        /* \"#utility.yul\":15124:15137   */\n      sub\n        /* \"#utility.yul\":15121:15147   */\n      tag_390\n      jumpi\n        /* \"#utility.yul\":15140:15145   */\n      pop\n      pop\n      jump(tag_389)\n        /* \"#utility.yul\":15121:15147   */\n    tag_390:\n        /* \"#utility.yul\":15171:15205   */\n      tag_391\n        /* \"#utility.yul\":15201:15204   */\n      dup3\n        /* \"#utility.yul\":15171:15205   */\n      tag_214\n      jump\t// in\n    tag_391:\n        /* \"#utility.yul\":15270:15288   */\n      0xffffffffffffffff\n        /* \"#utility.yul\":15262:15268   */\n      dup2\n        /* \"#utility.yul\":15259:15289   */\n      gt\n        /* \"#utility.yul\":15256:15312   */\n      iszero\n      tag_392\n      jumpi\n        /* \"#utility.yul\":15292:15310   */\n      tag_393\n      tag_62\n      jump\t// in\n    tag_393:\n        /* \"#utility.yul\":15256:15312   */\n    tag_392:\n        /* \"#utility.yul\":15336:15374   */\n      tag_394\n        /* \"#utility.yul\":15368:15372   */\n      dup3\n        /* \"#utility.yul\":15362:15373   */\n      sload\n        /* \"#utility.yul\":15336:15374   */\n      tag_46\n      jump\t// in\n    tag_394:\n        /* \"#utility.yul\":15421:15488   */\n      tag_395\n        /* \"#utility.yul\":15481:15487   */\n      dup3\n        /* \"#utility.yul\":15473:15479   */\n      dup3\n        /* \"#utility.yul\":15467:15471   */\n      dup6\n        /* \"#utility.yul\":15421:15488   */\n      tag_226\n      jump\t// in\n    tag_395:\n        /* \"#utility.yul\":15515:15516   */\n      0x00\n        /* \"#utility.yul\":15544:15546   */\n      0x1f\n        /* \"#utility.yul\":15536:15542   */\n      dup4\n        /* \"#utility.yul\":15533:15547   */\n      gt\n        /* \"#utility.yul\":15561:15562   */\n      0x01\n        /* \"#utility.yul\":15556:16228   */\n      dup2\n      eq\n      tag_397\n      jumpi\n        /* \"#utility.yul\":16272:16273   */\n      0x00\n        /* \"#utility.yul\":16289:16295   */\n      dup5\n        /* \"#utility.yul\":16286:16363   */\n      iszero\n      tag_398\n      jumpi\n        /* \"#utility.yul\":16338:16347   */\n      dup3\n        /* \"#utility.yul\":16333:16336   */\n      dup8\n        /* \"#utility.yul\":16329:16348   */\n      add\n        /* \"#utility.yul\":16323:16349   */\n      sload\n        /* \"#utility.yul\":16314:16349   */\n      swap1\n      pop\n        /* \"#utility.yul\":16286:16363   */\n    tag_398:\n        /* \"#utility.yul\":16389:16456   */\n      tag_399\n        /* \"#utility.yul\":16449:16455   */\n      dup6\n        /* \"#utility.yul\":16442:16447   */\n      dup3\n        /* \"#utility.yul\":16389:16456   */\n      tag_229\n      jump\t// in\n    tag_399:\n        /* \"#utility.yul\":16383:16387   */\n      dup7\n        /* \"#utility.yul\":16376:16457   */\n      sstore\n        /* \"#utility.yul\":16245:16467   */\n      pop\n        /* \"#utility.yul\":15526:16467   */\n      jump(tag_396)\n        /* \"#utility.yul\":15556:16228   */\n    tag_397:\n        /* \"#utility.yul\":15608:15612   */\n      0x1f\n        /* \"#utility.yul\":15604:15613   */\n      not\n        /* \"#utility.yul\":15596:15602   */\n      dup5\n        /* \"#utility.yul\":15592:15614   */\n      and\n        /* \"#utility.yul\":15634:15670   */\n      tag_400\n        /* \"#utility.yul\":15666:15669   */\n      dup8\n        /* \"#utility.yul\":15634:15670   */\n      tag_215\n      jump\t// in\n    tag_400:\n        /* \"#utility.yul\":15627:15670   */\n      swap7\n      pop\n        /* \"#utility.yul\":15697:15734   */\n      tag_401\n        /* \"#utility.yul\":15729:15733   */\n      dup7\n        /* \"#utility.yul\":15697:15734   */\n      tag_215\n      jump\t// in\n    tag_401:\n        /* \"#utility.yul\":15756:15757   */\n      0x00\n        /* \"#utility.yul\":15770:15977   */\n    tag_402:\n        /* \"#utility.yul\":15784:15791   */\n      dup3\n        /* \"#utility.yul\":15781:15782   */\n      dup2\n        /* \"#utility.yul\":15778:15792   */\n      lt\n        /* \"#utility.yul\":15770:15977   */\n      iszero\n      tag_404\n      jumpi\n        /* \"#utility.yul\":15863:15872   */\n      dup5\n        /* \"#utility.yul\":15858:15861   */\n      dup10\n        /* \"#utility.yul\":15854:15873   */\n      add\n        /* \"#utility.yul\":15848:15874   */\n      sload\n        /* \"#utility.yul\":15840:15846   */\n      dup3\n        /* \"#utility.yul\":15833:15875   */\n      sstore\n        /* \"#utility.yul\":15914:15915   */\n      0x01\n        /* \"#utility.yul\":15906:15912   */\n      dup3\n        /* \"#utility.yul\":15902:15916   */\n      add\n        /* \"#utility.yul\":15892:15916   */\n      swap2\n      pop\n        /* \"#utility.yul\":15961:15962   */\n      0x01\n        /* \"#utility.yul\":15950:15959   */\n      dup6\n        /* \"#utility.yul\":15946:15963   */\n      add\n        /* \"#utility.yul\":15933:15963   */\n      swap5\n      pop\n        /* \"#utility.yul\":15807:15811   */\n      0x20\n        /* \"#utility.yul\":15804:15805   */\n      dup2\n        /* \"#utility.yul\":15800:15812   */\n      add\n        /* \"#utility.yul\":15795:15812   */\n      swap1\n      pop\n        /* \"#utility.yul\":15770:15977   */\n      jump(tag_402)\n    tag_404:\n        /* \"#utility.yul\":16005:16011   */\n      dup7\n        /* \"#utility.yul\":15996:16003   */\n      dup4\n        /* \"#utility.yul\":15993:16012   */\n      lt\n        /* \"#utility.yul\":15990:16169   */\n      iszero\n      tag_405\n      jumpi\n        /* \"#utility.yul\":16063:16072   */\n      dup5\n        /* \"#utility.yul\":16058:16061   */\n      dup10\n        /* \"#utility.yul\":16054:16073   */\n      add\n        /* \"#utility.yul\":16048:16074   */\n      sload\n        /* \"#utility.yul\":16106:16154   */\n      tag_406\n        /* \"#utility.yul\":16148:16152   */\n      0x1f\n        /* \"#utility.yul\":16140:16146   */\n      dup10\n        /* \"#utility.yul\":16136:16153   */\n      and\n        /* \"#utility.yul\":16125:16134   */\n      dup3\n        /* \"#utility.yul\":16106:16154   */\n      tag_228\n      jump\t// in\n    tag_406:\n        /* \"#utility.yul\":16098:16104   */\n      dup4\n        /* \"#utility.yul\":16091:16155   */\n      sstore\n        /* \"#utility.yul\":16013:16169   */\n      pop\n        /* \"#utility.yul\":15990:16169   */\n    tag_405:\n        /* \"#utility.yul\":16215:16216   */\n      0x01\n        /* \"#utility.yul\":16211:16212   */\n      0x02\n        /* \"#utility.yul\":16203:16209   */\n      dup9\n        /* \"#utility.yul\":16199:16213   */\n      mul\n        /* \"#utility.yul\":16195:16217   */\n      add\n        /* \"#utility.yul\":16189:16193   */\n      dup9\n        /* \"#utility.yul\":16182:16218   */\n      sstore\n        /* \"#utility.yul\":15563:16228   */\n      pop\n      pop\n      pop\n        /* \"#utility.yul\":15526:16467   */\n    tag_396:\n      pop\n        /* \"#utility.yul\":15111:16473   */\n      pop\n      pop\n      pop\n        /* \"#utility.yul\":15022:16473   */\n      pop\n      pop\n    tag_389:\n      jump\t// out\n        /* \"#utility.yul\":16479:16659   */\n    tag_108:\n        /* \"#utility.yul\":16527:16604   */\n      0x4e487b7100000000000000000000000000000000000000000000000000000000\n        /* \"#utility.yul\":16524:16525   */\n      0x00\n        /* \"#utility.yul\":16517:16605   */\n      mstore\n        /* \"#utility.yul\":16624:16628   */\n      0x31\n        /* \"#utility.yul\":16621:16622   */\n      0x04\n        /* \"#utility.yul\":16614:16629   */\n      mstore\n        /* \"#utility.yul\":16648:16652   */\n      0x24\n        /* \"#utility.yul\":16645:16646   */\n      0x00\n        /* \"#utility.yul\":16638:16653   */\n      revert\n        /* \"#utility.yul\":16665:16835   */\n    tag_230:\n        /* \"#utility.yul\":16805:16827   */\n      0x5461736b2063616e6e6f7420626520656d707479000000000000000000000000\n        /* \"#utility.yul\":16801:16802   */\n      0x00\n        /* \"#utility.yul\":16793:16799   */\n      dup3\n        /* \"#utility.yul\":16789:16803   */\n      add\n        /* \"#utility.yul\":16782:16828   */\n      mstore\n        /* \"#utility.yul\":16665:16835   */\n      pop\n      jump\t// out\n        /* \"#utility.yul\":16841:17207   */\n    tag_231:\n        /* \"#utility.yul\":16983:16986   */\n      0x00\n        /* \"#utility.yul\":17004:17071   */\n      tag_410\n        /* \"#utility.yul\":17068:17070   */\n      0x14\n        /* \"#utility.yul\":17063:17066   */\n      dup4\n        /* \"#utility.yul\":17004:17071   */\n      tag_209\n      jump\t// in\n    tag_410:\n        /* \"#utility.yul\":16997:17071   */\n      swap2\n      pop\n        /* \"#utility.yul\":17080:17173   */\n      tag_411\n        /* \"#utility.yul\":17169:17172   */\n      dup3\n        /* \"#utility.yul\":17080:17173   */\n      tag_230\n      jump\t// in\n    tag_411:\n        /* \"#utility.yul\":17198:17200   */\n      0x20\n        /* \"#utility.yul\":17193:17196   */\n      dup3\n        /* \"#utility.yul\":17189:17201   */\n      add\n        /* \"#utility.yul\":17182:17201   */\n      swap1\n      pop\n        /* \"#utility.yul\":16841:17207   */\n      swap2\n      swap1\n      pop\n      jump\t// out\n        /* \"#utility.yul\":17213:17632   */\n    tag_116:\n        /* \"#utility.yul\":17379:17383   */\n      0x00\n        /* \"#utility.yul\":17417:17419   */\n      0x20\n        /* \"#utility.yul\":17406:17415   */\n      dup3\n        /* \"#utility.yul\":17402:17420   */\n      add\n        /* \"#utility.yul\":17394:17420   */\n      swap1\n      pop\n        /* \"#utility.yul\":17466:17475   */\n      dup2\n        /* \"#utility.yul\":17460:17464   */\n      dup2\n        /* \"#utility.yul\":17456:17476   */\n      sub\n        /* \"#utility.yul\":17452:17453   */\n      0x00\n        /* \"#utility.yul\":17441:17450   */\n      dup4\n        /* \"#utility.yul\":17437:17454   */\n      add\n        /* \"#utility.yul\":17430:17477   */\n      mstore\n        /* \"#utility.yul\":17494:17625   */\n      tag_413\n        /* \"#utility.yul\":17620:17624   */\n      dup2\n        /* \"#utility.yul\":17494:17625   */\n      tag_231\n      jump\t// in\n    tag_413:\n        /* \"#utility.yul\":17486:17625   */\n      swap1\n      pop\n        /* \"#utility.yul\":17213:17632   */\n      swap2\n      swap1\n      pop\n      jump\t// out\n        /* \"#utility.yul\":17638:17801   */\n    tag_232:\n        /* \"#utility.yul\":17778:17793   */\n      0x5461736b20746f6f206c6f6e6700000000000000000000000000000000000000\n        /* \"#utility.yul\":17774:17775   */\n      0x00\n        /* \"#utility.yul\":17766:17772   */\n      dup3\n        /* \"#utility.yul\":17762:17776   */\n      add\n        /* \"#utility.yul\":17755:17794   */\n      mstore\n        /* \"#utility.yul\":17638:17801   */\n      pop\n      jump\t// out\n        /* \"#utility.yul\":17807:18173   */\n    tag_233:\n        /* \"#utility.yul\":17949:17952   */\n      0x00\n        /* \"#utility.yul\":17970:18037   */\n      tag_416\n        /* \"#utility.yul\":18034:18036   */\n      0x0d\n        /* \"#utility.yul\":18029:18032   */\n      dup4\n        /* \"#utility.yul\":17970:18037   */\n      tag_209\n      jump\t// in\n    tag_416:\n        /* \"#utility.yul\":17963:18037   */\n      swap2\n      pop\n        /* \"#utility.yul\":18046:18139   */\n      tag_417\n        /* \"#utility.yul\":18135:18138   */\n      dup3\n        /* \"#utility.yul\":18046:18139   */\n      tag_232\n      jump\t// in\n    tag_417:\n        /* \"#utility.yul\":18164:18166   */\n      0x20\n        /* \"#utility.yul\":18159:18162   */\n      dup3\n        /* \"#utility.yul\":18155:18167   */\n      add\n        /* \"#utility.yul\":18148:18167   */\n      swap1\n      pop\n        /* \"#utility.yul\":17807:18173   */\n      swap2\n      swap1\n      pop\n      jump\t// out\n        /* \"#utility.yul\":18179:18598   */\n    tag_119:\n        /* \"#utility.yul\":18345:18349   */\n      0x00\n        /* \"#utility.yul\":18383:18385   */\n      0x20\n        /* \"#utility.yul\":18372:18381   */\n      dup3\n        /* \"#utility.yul\":18368:18386   */\n      add\n        /* \"#utility.yul\":18360:18386   */\n      swap1\n      pop\n        /* \"#utility.yul\":18432:18441   */\n      dup2\n        /* \"#utility.yul\":18426:18430   */\n      dup2\n        /* \"#utility.yul\":18422:18442   */\n      sub\n        /* \"#utility.yul\":18418:18419   */\n      0x00\n        /* \"#utility.yul\":18407:18416   */\n      dup4\n        /* \"#utility.yul\":18403:18420   */\n      add\n        /* \"#utility.yul\":18396:18443   */\n      mstore\n        /* \"#utility.yul\":18460:18591   */\n      tag_419\n        /* \"#utility.yul\":18586:18590   */\n      dup2\n        /* \"#utility.yul\":18460:18591   */\n      tag_233\n      jump\t// in\n    tag_419:\n        /* \"#utility.yul\":18452:18591   */\n      swap1\n      pop\n        /* \"#utility.yul\":18179:18598   */\n      swap2\n      swap1\n      pop\n      jump\t// out\n        /* \"#utility.yul\":18604:18771   */\n    tag_234:\n        /* \"#utility.yul\":18744:18763   */\n      0x546f646f206c6973742069732066756c6c000000000000000000000000000000\n        /* \"#utility.yul\":18740:18741   */\n      0x00\n        /* \"#utility.yul\":18732:18738   */\n      dup3\n        /* \"#utility.yul\":18728:18742   */\n      add\n        /* \"#utility.yul\":18721:18764   */\n      mstore\n        /* \"#utility.yul\":18604:18771   */\n      pop\n      jump\t// out\n        /* \"#utility.yul\":18777:19143   */\n    tag_235:\n        /* \"#utility.yul\":18919:18922   */\n      0x00\n        /* \"#utility.yul\":18940:19007   */\n      tag_422\n        /* \"#utility.yul\":19004:19006   */\n      0x11\n        /* \"#utility.yul\":18999:19002   */\n      dup4\n        /* \"#utility.yul\":18940:19007   */\n      tag_209\n      jump\t// in\n    tag_422:\n        /* \"#utility.yul\":18933:19007   */\n      swap2\n      pop\n        /* \"#utility.yul\":19016:19109   */\n      tag_423\n        /* \"#utility.yul\":19105:19108   */\n      dup3\n        /* \"#utility.yul\":19016:19109   */\n      tag_234\n      jump\t// in\n    tag_423:\n        /* \"#utility.yul\":19134:19136   */\n      0x20\n        /* \"#utility.yul\":19129:19132   */\n      dup3\n        /* \"#utility.yul\":19125:19137   */\n      add\n        /* \"#utility.yul\":19118:19137   */\n      swap1\n      pop\n        /* \"#utility.yul\":18777:19143   */\n      swap2\n      swap1\n      pop\n      jump\t// out\n        /* \"#utility.yul\":19149:19568   */\n    tag_122:\n        /* \"#utility.yul\":19315:19319   */\n      0x00\n        /* \"#utility.yul\":19353:19355   */\n      0x20\n        /* \"#utility.yul\":19342:19351   */\n      dup3\n        /* \"#utility.yul\":19338:19356   */\n      add\n        /* \"#utility.yul\":19330:19356   */\n      swap1\n      pop\n        /* \"#utility.yul\":19402:19411   */\n      dup2\n        /* \"#utility.yul\":19396:19400   */\n      dup2\n        /* \"#utility.yul\":19392:19412   */\n      sub\n        /* \"#utility.yul\":19388:19389   */\n      0x00\n        /* \"#utility.yul\":19377:19386   */\n      dup4\n        /* \"#utility.yul\":19373:19390   */\n      add\n        /* \"#utility.yul\":19366:19413   */\n      mstore\n        /* \"#utility.yul\":19430:19561   */\n      tag_425\n        /* \"#utility.yul\":19556:19560   */\n      dup2\n        /* \"#utility.yul\":19430:19561   */\n      tag_235\n      jump\t// in\n    tag_425:\n        /* \"#utility.yul\":19422:19561   */\n      swap1\n      pop\n        /* \"#utility.yul\":19149:19568   */\n      swap2\n      swap1\n      pop\n      jump\t// out\n        /* \"#utility.yul\":19574:20969   */\n    tag_125:\n        /* \"#utility.yul\":19691:19728   */\n      tag_427\n        /* \"#utility.yul\":19724:19727   */\n      dup3\n        /* \"#utility.yul\":19691:19728   */\n      tag_182\n      jump\t// in\n    tag_427:\n        /* \"#utility.yul\":19793:19811   */\n      0xffffffffffffffff\n        /* \"#utility.yul\":19785:19791   */\n      dup2\n        /* \"#utility.yul\":19782:19812   */\n      gt\n        /* \"#utility.yul\":19779:19835   */\n      iszero\n      tag_428\n      jumpi\n        /* \"#utility.yul\":19815:19833   */\n      tag_429\n      tag_62\n      jump\t// in\n    tag_429:\n        /* \"#utility.yul\":19779:19835   */\n    tag_428:\n        /* \"#utility.yul\":19859:19897   */\n      tag_430\n        /* \"#utility.yul\":19891:19895   */\n      dup3\n        /* \"#utility.yul\":19885:19896   */\n      sload\n        /* \"#utility.yul\":19859:19897   */\n      tag_46\n      jump\t// in\n    tag_430:\n        /* \"#utility.yul\":19944:20011   */\n      tag_431\n        /* \"#utility.yul\":20004:20010   */\n      dup3\n        /* \"#utility.yul\":19996:20002   */\n      dup3\n        /* \"#utility.yul\":19990:19994   */\n      dup6\n        /* \"#utility.yul\":19944:20011   */\n      tag_226\n      jump\t// in\n    tag_431:\n        /* \"#utility.yul\":20038:20039   */\n      0x00\n        /* \"#utility.yul\":20062:20066   */\n      0x20\n        /* \"#utility.yul\":20049:20066   */\n      swap1\n      pop\n        /* \"#utility.yul\":20094:20096   */\n      0x1f\n        /* \"#utility.yul\":20086:20092   */\n      dup4\n        /* \"#utility.yul\":20083:20097   */\n      gt\n        /* \"#utility.yul\":20111:20112   */\n      0x01\n        /* \"#utility.yul\":20106:20724   */\n      dup2\n      eq\n      tag_433\n      jumpi\n        /* \"#utility.yul\":20768:20769   */\n      0x00\n        /* \"#utility.yul\":20785:20791   */\n      dup5\n        /* \"#utility.yul\":20782:20859   */\n      iszero\n      tag_434\n      jumpi\n        /* \"#utility.yul\":20834:20843   */\n      dup3\n        /* \"#utility.yul\":20829:20832   */\n      dup8\n        /* \"#utility.yul\":20825:20844   */\n      add\n        /* \"#utility.yul\":20819:20845   */\n      mload\n        /* \"#utility.yul\":20810:20845   */\n      swap1\n      pop\n        /* \"#utility.yul\":20782:20859   */\n    tag_434:\n        /* \"#utility.yul\":20885:20952   */\n      tag_435\n        /* \"#utility.yul\":20945:20951   */\n      dup6\n        /* \"#utility.yul\":20938:20943   */\n      dup3\n        /* \"#utility.yul\":20885:20952   */\n      tag_229\n      jump\t// in\n    tag_435:\n        /* \"#utility.yul\":20879:20883   */\n      dup7\n        /* \"#utility.yul\":20872:20953   */\n      sstore\n        /* \"#utility.yul\":20741:20963   */\n      pop\n        /* \"#utility.yul\":20076:20963   */\n      jump(tag_432)\n        /* \"#utility.yul\":20106:20724   */\n    tag_433:\n        /* \"#utility.yul\":20158:20162   */\n      0x1f\n        /* \"#utility.yul\":20154:20163   */\n      not\n        /* \"#utility.yul\":20146:20152   */\n      dup5\n        /* \"#utility.yul\":20142:20164   */\n      and\n        /* \"#utility.yul\":20192:20229   */\n      tag_436\n        /* \"#utility.yul\":20224:20228   */\n      dup7\n        /* \"#utility.yul\":20192:20229   */\n      tag_215\n      jump\t// in\n    tag_436:\n        /* \"#utility.yul\":20251:20252   */\n      0x00\n        /* \"#utility.yul\":20265:20473   */\n    tag_437:\n        /* \"#utility.yul\":20279:20286   */\n      dup3\n        /* \"#utility.yul\":20276:20277   */\n      dup2\n        /* \"#utility.yul\":20273:20287   */\n      lt\n        /* \"#utility.yul\":20265:20473   */\n      iszero\n      tag_439\n      jumpi\n        /* \"#utility.yul\":20358:20367   */\n      dup5\n        /* \"#utility.yul\":20353:20356   */\n      dup10\n        /* \"#utility.yul\":20349:20368   */\n      add\n        /* \"#utility.yul\":20343:20369   */\n      mload\n        /* \"#utility.yul\":20335:20341   */\n      dup3\n        /* \"#utility.yul\":20328:20370   */\n      sstore\n        /* \"#utility.yul\":20409:20410   */\n      0x01\n        /* \"#utility.yul\":20401:20407   */\n      dup3\n        /* \"#utility.yul\":20397:20411   */\n      add\n        /* \"#utility.yul\":20387:20411   */\n      swap2\n      pop\n        /* \"#utility.yul\":20456:20458   */\n      0x20\n        /* \"#utility.yul\":20445:20454   */\n      dup6\n        /* \"#utility.yul\":20441:20459   */\n      add\n        /* \"#utility.yul\":20428:20459   */\n      swap5\n      pop\n        /* \"#utility.yul\":20302:20306   */\n      0x20\n        /* \"#utility.yul\":20299:20300   */\n      dup2\n        /* \"#utility.yul\":20295:20307   */\n      add\n        /* \"#utility.yul\":20290:20307   */\n      swap1\n      pop\n        /* \"#utility.yul\":20265:20473   */\n      jump(tag_437)\n    tag_439:\n        /* \"#utility.yul\":20501:20507   */\n      dup7\n        /* \"#utility.yul\":20492:20499   */\n      dup4\n        /* \"#utility.yul\":20489:20508   */\n      lt\n        /* \"#utility.yul\":20486:20665   */\n      iszero\n      tag_440\n      jumpi\n        /* \"#utility.yul\":20559:20568   */\n      dup5\n        /* \"#utility.yul\":20554:20557   */\n      dup10\n        /* \"#utility.yul\":20550:20569   */\n      add\n        /* \"#utility.yul\":20544:20570   */\n      mload\n        /* \"#utility.yul\":20602:20650   */\n      tag_441\n        /* \"#utility.yul\":20644:20648   */\n      0x1f\n        /* \"#utility.yul\":20636:20642   */\n      dup10\n        /* \"#utility.yul\":20632:20649   */\n      and\n        /* \"#utility.yul\":20621:20630   */\n      dup3\n        /* \"#utility.yul\":20602:20650   */\n      tag_228\n      jump\t// in\n    tag_441:\n        /* \"#utility.yul\":20594:20600   */\n      dup4\n        /* \"#utility.yul\":20587:20651   */\n      sstore\n        /* \"#utility.yul\":20509:20665   */\n      pop\n        /* \"#utility.yul\":20486:20665   */\n    tag_440:\n        /* \"#utility.yul\":20711:20712   */\n      0x01\n        /* \"#utility.yul\":20707:20708   */\n      0x02\n        /* \"#utility.yul\":20699:20705   */\n      dup9\n        /* \"#utility.yul\":20695:20709   */\n      mul\n        /* \"#utility.yul\":20691:20713   */\n      add\n        /* \"#utility.yul\":20685:20689   */\n      dup9\n        /* \"#utility.yul\":20678:20714   */\n      sstore\n        /* \"#utility.yul\":20113:20724   */\n      pop\n      pop\n      pop\n        /* \"#utility.yul\":20076:20963   */\n    tag_432:\n      pop\n        /* \"#utility.yul\":19666:20969   */\n      pop\n      pop\n      pop\n        /* \"#utility.yul\":19574:20969   */\n      pop\n      pop\n      jump\t// out\n        /* \"#utility.yul\":20975:21352   */\n    tag_236:\n        /* \"#utility.yul\":21063:21066   */\n      0x00\n        /* \"#utility.yul\":21091:21130   */\n      tag_443\n        /* \"#utility.yul\":21124:21129   */\n      dup3\n        /* \"#utility.yul\":21091:21130   */\n      tag_182\n      jump\t// in\n    tag_443:\n        /* \"#utility.yul\":21146:21217   */\n      tag_444\n        /* \"#utility.yul\":21210:21216   */\n      dup2\n        /* \"#utility.yul\":21205:21208   */\n      dup6\n        /* \"#utility.yul\":21146:21217   */\n      tag_209\n      jump\t// in\n    tag_444:\n        /* \"#utility.yul\":21139:21217   */\n      swap4\n      pop\n        /* \"#utility.yul\":21226:21291   */\n      tag_445\n        /* \"#utility.yul\":21284:21290   */\n      dup2\n        /* \"#utility.yul\":21279:21282   */\n      dup6\n        /* \"#utility.yul\":21272:21276   */\n      0x20\n        /* \"#utility.yul\":21265:21270   */\n      dup7\n        /* \"#utility.yul\":21261:21277   */\n      add\n        /* \"#utility.yul\":21226:21291   */\n      tag_184\n      jump\t// in\n    tag_445:\n        /* \"#utility.yul\":21316:21345   */\n      tag_446\n        /* \"#utility.yul\":21338:21344   */\n      dup2\n        /* \"#utility.yul\":21316:21345   */\n      tag_185\n      jump\t// in\n    tag_446:\n        /* \"#utility.yul\":21311:21314   */\n      dup5\n        /* \"#utility.yul\":21307:21346   */\n      add\n        /* \"#utility.yul\":21300:21346   */\n      swap2\n      pop\n        /* \"#utility.yul\":21067:21352   */\n      pop\n        /* \"#utility.yul\":20975:21352   */\n      swap3\n      swap2\n      pop\n      pop\n      jump\t// out\n        /* \"#utility.yul\":21358:21781   */\n    tag_128:\n        /* \"#utility.yul\":21499:21503   */\n      0x00\n        /* \"#utility.yul\":21537:21539   */\n      0x40\n        /* \"#utility.yul\":21526:21535   */\n      dup3\n        /* \"#utility.yul\":21522:21540   */\n      add\n        /* \"#utility.yul\":21514:21540   */\n      swap1\n      pop\n        /* \"#utility.yul\":21550:21621   */\n      tag_448\n        /* \"#utility.yul\":21618:21619   */\n      0x00\n        /* \"#utility.yul\":21607:21616   */\n      dup4\n        /* \"#utility.yul\":21603:21620   */\n      add\n        /* \"#utility.yul\":21594:21600   */\n      dup6\n        /* \"#utility.yul\":21550:21621   */\n      tag_178\n      jump\t// in\n    tag_448:\n        /* \"#utility.yul\":21668:21677   */\n      dup2\n        /* \"#utility.yul\":21662:21666   */\n      dup2\n        /* \"#utility.yul\":21658:21678   */\n      sub\n        /* \"#utility.yul\":21653:21655   */\n      0x20\n        /* \"#utility.yul\":21642:21651   */\n      dup4\n        /* \"#utility.yul\":21638:21656   */\n      add\n        /* \"#utility.yul\":21631:21679   */\n      mstore\n        /* \"#utility.yul\":21696:21774   */\n      tag_449\n        /* \"#utility.yul\":21769:21773   */\n      dup2\n        /* \"#utility.yul\":21760:21766   */\n      dup5\n        /* \"#utility.yul\":21696:21774   */\n      tag_236\n      jump\t// in\n    tag_449:\n        /* \"#utility.yul\":21688:21774   */\n      swap1\n      pop\n        /* \"#utility.yul\":21358:21781   */\n      swap4\n      swap3\n      pop\n      pop\n      pop\n      jump\t// out\n\n    auxdata: 0xa26469706673582212205c123aae8f353e3e635772a3e849666f2b778667c0ce5db9e5a256da3c2515c164736f6c634300081f0033\n}\n",
				"bytecode": {
					"linkReferences": {},
					"object": "6080604052348015600e575f5ffd5b50611ade8061001c5f395ff3fe608060405234801561000f575f5ffd5b5060043610610086575f3560e01c806395ffebf51161005957806395ffebf5146100fe578063ce2bd5d51461011a578063d7ba3d0a14610138578063f141b1531461015657610086565b8063104a7cd81461008a57806310d41e82146100a857806320fe2144146100c65780636e3c6738146100e2575b5f5ffd5b610092610174565b60405161009f9190610fb0565b60405180910390f35b6100b06101ba565b6040516100bd919061116a565b60405180910390f35b6100e060048036038101906100db91906111c5565b610441565b005b6100fc60048036038101906100f791906111c5565b610632565b005b6101186004803603810190610113919061131c565b6108e6565b005b610122610b4c565b60405161012f919061116a565b60405180910390f35b610140610c95565b60405161014d919061116a565b60405180910390f35b61015e610f1a565b60405161016b9190610fb0565b60405180910390f35b5f5f5f3373ffffffffffffffffffffffffffffffffffffffff1673ffffffffffffffffffffffffffffffffffffffff1681526020019081526020015f2080549050905090565b60605f5f5f3373ffffffffffffffffffffffffffffffffffffffff1673ffffffffffffffffffffffffffffffffffffffff1681526020019081526020015f20805480602002602001604051908101604052809291908181526020015f905b828210156102fb578382905f5260205f2090600302016040518060600160405290815f8201805461024890611390565b80601f016020809104026020016040519081016040528092919081815260200182805461027490611390565b80156102bf5780601f10610296576101008083540402835291602001916102bf565b820191905f5260205f20905b8154815290600101906020018083116102a257829003601f168201915b50505050508152602001600182015f9054906101000a900460ff1615151515815260200160028201548152505081526020019060010190610218565b5050505090505f5f90505f5f90505b825181101561035357828181518110610326576103256113c0565b5b602002602001015160200151156103465781806103429061141a565b9250505b808060010191505061030a565b505f8167ffffffffffffffff81111561036f5761036e6111f8565b5b6040519080825280602002602001820160405280156103a857816020015b610395610f1f565b81526020019060019003908161038d5790505b5090505f5f90505f5f90505b8451811015610436578481815181106103d0576103cf6113c0565b5b60200260200101516020015115610429578481815181106103f4576103f36113c0565b5b602002602001015183838151811061040f5761040e6113c0565b5b602002602001018190525081806104259061141a565b9250505b80806001019150506103b4565b508194505050505090565b5f5f3373ffffffffffffffffffffffffffffffffffffffff1673ffffffffffffffffffffffffffffffffffffffff1681526020019081526020015f208054905081106104c2576040517f08c379a00000000000000000000000000000000000000000000000000000000081526004016104b9906114bb565b60405180910390fd5b5f5f3373ffffffffffffffffffffffffffffffffffffffff1673ffffffffffffffffffffffffffffffffffffffff1681526020019081526020015f2081815481106105105761050f6113c0565b5b905f5260205f2090600302016001015f9054906101000a900460ff161561056c576040517f08c379a000000000000000000000000000000000000000000000000000000000815260040161056390611523565b60405180910390fd5b60015f5f3373ffffffffffffffffffffffffffffffffffffffff1673ffffffffffffffffffffffffffffffffffffffff1681526020019081526020015f2082815481106105bc576105bb6113c0565b5b905f5260205f2090600302016001015f6101000a81548160ff0219169083151502179055503373ffffffffffffffffffffffffffffffffffffffff167f67ded622a190b565ce61203d9279a5c28931773c0919bf91ce964f6cd909e9b4826040516106279190610fb0565b60405180910390a250565b5f5f3373ffffffffffffffffffffffffffffffffffffffff1673ffffffffffffffffffffffffffffffffffffffff1681526020019081526020015f208054905081106106b3576040517f08c379a00000000000000000000000000000000000000000000000000000000081526004016106aa906114bb565b60405180910390fd5b5f60015f5f3373ffffffffffffffffffffffffffffffffffffffff1673ffffffffffffffffffffffffffffffffffffffff1681526020019081526020015f20805490506107009190611541565b9050808214610809575f5f3373ffffffffffffffffffffffffffffffffffffffff1673ffffffffffffffffffffffffffffffffffffffff1681526020019081526020015f208181548110610757576107566113c0565b5b905f5260205f2090600302015f5f3373ffffffffffffffffffffffffffffffffffffffff1673ffffffffffffffffffffffffffffffffffffffff1681526020019081526020015f2083815481106107b1576107b06113c0565b5b905f5260205f2090600302015f8201815f0190816107cf9190611729565b50600182015f9054906101000a900460ff16816001015f6101000a81548160ff021916908315150217905550600282015481600201559050505b5f5f3373ffffffffffffffffffffffffffffffffffffffff1673ffffffffffffffffffffffffffffffffffffffff1681526020019081526020015f208054806108555761085461180e565b5b600190038181905f5260205f2090600302015f5f82015f6108769190610f40565b600182015f6101000a81549060ff0219169055600282015f9055505090553373ffffffffffffffffffffffffffffffffffffffff167f24d84cd6bd5cc33dafa556a214e7d9e1b4fccca98b3e7d1413909e4710f02ff3836040516108da9190610fb0565b60405180910390a25050565b5f815111610929576040517f08c379a000000000000000000000000000000000000000000000000000000000815260040161092090611885565b60405180910390fd5b60c88151111561096e576040517f08c379a0000000000000000000000000000000000000000000000000000000008152600401610965906118ed565b60405180910390fd5b60645f5f3373ffffffffffffffffffffffffffffffffffffffff1673ffffffffffffffffffffffffffffffffffffffff1681526020019081526020015f2080549050106109f0576040517f08c379a00000000000000000000000000000000000000000000000000000000081526004016109e790611955565b60405180910390fd5b5f5f3373ffffffffffffffffffffffffffffffffffffffff1673ffffffffffffffffffffffffffffffffffffffff1681526020019081526020015f2060405180606001604052808381526020015f1515815260200142815250908060018154018082558091505060019003905f5260205f2090600302015f909190919091505f820151815f019081610a829190611973565b506020820151816001015f6101000a81548160ff0219169083151502179055506040820151816002015550503373ffffffffffffffffffffffffffffffffffffffff167f1d7303a9da3d6d58ee2b1b1a7d6676848e0b02914499b48678bb7dff079a015060015f5f3373ffffffffffffffffffffffffffffffffffffffff1673ffffffffffffffffffffffffffffffffffffffff1681526020019081526020015f2080549050610b329190611541565b83604051610b41929190611a7a565b60405180910390a250565b60605f5f3373ffffffffffffffffffffffffffffffffffffffff1673ffffffffffffffffffffffffffffffffffffffff1681526020019081526020015f20805480602002602001604051908101604052809291908181526020015f905b82821015610c8c578382905f5260205f2090600302016040518060600160405290815f82018054610bd990611390565b80601f0160208091040260200160405190810160405280929190818152602001828054610c0590611390565b8015610c505780601f10610c2757610100808354040283529160200191610c50565b820191905f5260205f20905b815481529060010190602001808311610c3357829003601f168201915b50505050508152602001600182015f9054906101000a900460ff1615151515815260200160028201548152505081526020019060010190610ba9565b50505050905090565b60605f5f5f3373ffffffffffffffffffffffffffffffffffffffff1673ffffffffffffffffffffffffffffffffffffffff1681526020019081526020015f20805480602002602001604051908101604052809291908181526020015f905b82821015610dd6578382905f5260205f2090600302016040518060600160405290815f82018054610d2390611390565b80601f0160208091040260200160405190810160405280929190818152602001828054610d4f90611390565b8015610d9a5780601f10610d7157610100808354040283529160200191610d9a565b820191905f5260205f20905b815481529060010190602001808311610d7d57829003601f168201915b50505050508152602001600182015f9054906101000a900460ff1615151515815260200160028201548152505081526020019060010190610cf3565b5050505090505f5f90505f5f90505b8251811015610e2d57828181518110610e0157610e006113c0565b5b602002602001015160200151610e20578180610e1c9061141a565b9250505b8080600101915050610de5565b505f8167ffffffffffffffff811115610e4957610e486111f8565b5b604051908082528060200260200182016040528015610e8257816020015b610e6f610f1f565b815260200190600190039081610e675790505b5090505f5f90505f5f90505b8451811015610f0f57848181518110610eaa57610ea96113c0565b5b602002602001015160200151610f0257848181518110610ecd57610ecc6113c0565b5b6020026020010151838381518110610ee857610ee76113c0565b5b60200260200101819052508180610efe9061141a565b9250505b8080600101915050610e8e565b508194505050505090565b606481565b6040518060600160405280606081526020015f151581526020015f81525090565b508054610f4c90611390565b5f825580601f10610f5d5750610f7a565b601f0160209004905f5260205f2090810190610f799190610f7d565b5b50565b5b80821115610f94575f815f905550600101610f7e565b5090565b5f819050919050565b610faa81610f98565b82525050565b5f602082019050610fc35f830184610fa1565b92915050565b5f81519050919050565b5f82825260208201905092915050565b5f819050602082019050919050565b5f81519050919050565b5f82825260208201905092915050565b8281835e5f83830152505050565b5f601f19601f8301169050919050565b5f61103482610ff2565b61103e8185610ffc565b935061104e81856020860161100c565b6110578161101a565b840191505092915050565b5f8115159050919050565b61107681611062565b82525050565b61108581610f98565b82525050565b5f606083015f8301518482035f8601526110a5828261102a565b91505060208301516110ba602086018261106d565b5060408301516110cd604086018261107c565b508091505092915050565b5f6110e3838361108b565b905092915050565b5f602082019050919050565b5f61110182610fc9565b61110b8185610fd3565b93508360208202850161111d85610fe3565b805f5b85811015611158578484038952815161113985826110d8565b9450611144836110eb565b925060208a01995050600181019050611120565b50829750879550505050505092915050565b5f6020820190508181035f83015261118281846110f7565b905092915050565b5f604051905090565b5f5ffd5b5f5ffd5b6111a481610f98565b81146111ae575f5ffd5b50565b5f813590506111bf8161119b565b92915050565b5f602082840312156111da576111d9611193565b5b5f6111e7848285016111b1565b91505092915050565b5f5ffd5b5f5ffd5b7f4e487b71000000000000000000000000000000000000000000000000000000005f52604160045260245ffd5b61122e8261101a565b810181811067ffffffffffffffff8211171561124d5761124c6111f8565b5b80604052505050565b5f61125f61118a565b905061126b8282611225565b919050565b5f67ffffffffffffffff82111561128a576112896111f8565b5b6112938261101a565b9050602081019050919050565b828183375f83830152505050565b5f6112c06112bb84611270565b611256565b9050828152602081018484840111156112dc576112db6111f4565b5b6112e78482856112a0565b509392505050565b5f82601f830112611303576113026111f0565b5b81356113138482602086016112ae565b91505092915050565b5f6020828403121561133157611330611193565b5b5f82013567ffffffffffffffff81111561134e5761134d611197565b5b61135a848285016112ef565b91505092915050565b7f4e487b71000000000000000000000000000000000000000000000000000000005f52602260045260245ffd5b5f60028204905060018216806113a757607f821691505b6020821081036113ba576113b9611363565b5b50919050565b7f4e487b71000000000000000000000000000000000000000000000000000000005f52603260045260245ffd5b7f4e487b71000000000000000000000000000000000000000000000000000000005f52601160045260245ffd5b5f61142482610f98565b91507fffffffffffffffffffffffffffffffffffffffffffffffffffffffffffffffff8203611456576114556113ed565b5b600182019050919050565b5f82825260208201905092915050565b7f496e646578206f7574206f6620626f756e6473000000000000000000000000005f82015250565b5f6114a5601383611461565b91506114b082611471565b602082019050919050565b5f6020820190508181035f8301526114d281611499565b9050919050565b7f416c726561647920636f6d706c657465640000000000000000000000000000005f82015250565b5f61150d601183611461565b9150611518826114d9565b602082019050919050565b5f6020820190508181035f83015261153a81611501565b9050919050565b5f61154b82610f98565b915061155683610f98565b925082820390508181111561156e5761156d6113ed565b5b92915050565b5f8154905061158281611390565b9050919050565b5f819050815f5260205f209050919050565b5f6020601f8301049050919050565b5f82821b905092915050565b5f600883026115e57fffffffffffffffffffffffffffffffffffffffffffffffffffffffffffffffff826115aa565b6115ef86836115aa565b95508019841693508086168417925050509392505050565b5f819050919050565b5f61162a61162561162084610f98565b611607565b610f98565b9050919050565b5f819050919050565b61164383611610565b61165761164f82611631565b8484546115b6565b825550505050565b5f5f905090565b61166e61165f565b61167981848461163a565b505050565b5b8181101561169c576116915f82611666565b60018101905061167f565b5050565b601f8211156116e1576116b281611589565b6116bb8461159b565b810160208510156116ca578190505b6116de6116d68561159b565b83018261167e565b50505b505050565b5f82821c905092915050565b5f6117015f19846008026116e6565b1980831691505092915050565b5f61171983836116f2565b9150826002028217905092915050565b81810361173757505061180c565b61174082611574565b67ffffffffffffffff811115611759576117586111f8565b5b6117638254611390565b61176e8282856116a0565b5f601f83116001811461179b575f8415611789578287015490505b611793858261170e565b865550611805565b601f1984166117a987611589565b96506117b486611589565b5f5b828110156117db578489015482556001820191506001850194506020810190506117b6565b868310156117f857848901546117f4601f8916826116f2565b8355505b6001600288020188555050505b5050505050505b565b7f4e487b71000000000000000000000000000000000000000000000000000000005f52603160045260245ffd5b7f5461736b2063616e6e6f7420626520656d7074790000000000000000000000005f82015250565b5f61186f601483611461565b915061187a8261183b565b602082019050919050565b5f6020820190508181035f83015261189c81611863565b9050919050565b7f5461736b20746f6f206c6f6e67000000000000000000000000000000000000005f82015250565b5f6118d7600d83611461565b91506118e2826118a3565b602082019050919050565b5f6020820190508181035f830152611904816118cb565b9050919050565b7f546f646f206c6973742069732066756c6c0000000000000000000000000000005f82015250565b5f61193f601183611461565b915061194a8261190b565b602082019050919050565b5f6020820190508181035f83015261196c81611933565b9050919050565b61197c82610ff2565b67ffffffffffffffff811115611995576119946111f8565b5b61199f8254611390565b6119aa8282856116a0565b5f60209050601f8311600181146119db575f84156119c9578287015190505b6119d3858261170e565b865550611a3a565b601f1984166119e986611589565b5f5b82811015611a10578489015182556001820191506020850194506020810190506119eb565b86831015611a2d5784890151611a29601f8916826116f2565b8355505b6001600288020188555050505b505050505050565b5f611a4c82610ff2565b611a568185611461565b9350611a6681856020860161100c565b611a6f8161101a565b840191505092915050565b5f604082019050611a8d5f830185610fa1565b8181036020830152611a9f8184611a42565b9050939250505056fea26469706673582212205c123aae8f353e3e635772a3e849666f2b778667c0ce5db9e5a256da3c2515c164736f6c634300081f0033",
					"opcodes": "PUSH1 0x80 PUSH1 0x40 MSTORE CALLVALUE DUP1 ISZERO PUSH1 0xE JUMPI PUSH0 PUSH0 REVERT JUMPDEST POP PUSH2 0x1ADE DUP1 PUSH2 0x1C PUSH0 CODECOPY PUSH0 RETURN INVALID PUSH1 0x80 PUSH1 0x40 MSTORE CALLVALUE DUP1 ISZERO PUSH2 0xF JUMPI PUSH0 PUSH0 REVERT JUMPDEST POP PUSH1 0x4 CALLDATASIZE LT PUSH2 0x86 JUMPI PUSH0 CALLDATALOAD PUSH1 0xE0 SHR DUP1 PUSH4 0x95FFEBF5 GT PUSH2 0x59 JUMPI DUP1 PUSH4 0x95FFEBF5 EQ PUSH2 0xFE JUMPI DUP1 PUSH4 0xCE2BD5D5 EQ PUSH2 0x11A JUMPI DUP1 PUSH4 0xD7BA3D0A EQ PUSH2 0x138 JUMPI DUP1 PUSH4 0xF141B153 EQ PUSH2 0x156 JUMPI PUSH2 0x86 JUMP JUMPDEST DUP1 PUSH4 0x104A7CD8 EQ PUSH2 0x8A JUMPI DUP1 PUSH4 0x10D41E82 EQ PUSH2 0xA8 JUMPI DUP1 PUSH4 0x20FE2144 EQ PUSH2 0xC6 JUMPI DUP1 PUSH4 0x6E3C6738 EQ PUSH2 0xE2 JUMPI JUMPDEST PUSH0 PUSH0 REVERT JUMPDEST PUSH2 0x92 PUSH2 0x174 JUMP JUMPDEST PUSH1 0x40 MLOAD PUSH2 0x9F SWAP2 SWAP1 PUSH2 0xFB0 JUMP JUMPDEST PUSH1 0x40 MLOAD DUP1 SWAP2 SUB SWAP1 RETURN JUMPDEST PUSH2 0xB0 PUSH2 0x1BA JUMP JUMPDEST PUSH1 0x40 MLOAD PUSH2 0xBD SWAP2 SWAP1 PUSH2 0x116A JUMP JUMPDEST PUSH1 0x40 MLOAD DUP1 SWAP2 SUB SWAP1 RETURN JUMPDEST PUSH2 0xE0 PUSH1 0x4 DUP1 CALLDATASIZE SUB DUP2 ADD SWAP1 PUSH2 0xDB SWAP2 SWAP1 PUSH2 0x11C5 JUMP JUMPDEST PUSH2 0x441 JUMP JUMPDEST STOP JUMPDEST PUSH2 0xFC PUSH1 0x4 DUP1 CALLDATASIZE SUB DUP2 ADD SWAP1 PUSH2 0xF7 SWAP2 SWAP1 PUSH2 0x11C5 JUMP JUMPDEST PUSH2 0x632 JUMP JUMPDEST STOP JUMPDEST PUSH2 0x118 PUSH1 0x4 DUP1 CALLDATASIZE SUB DUP2 ADD SWAP1 PUSH2 0x113 SWAP2 SWAP1 PUSH2 0x131C JUMP JUMPDEST PUSH2 0x8E6 JUMP JUMPDEST STOP JUMPDEST PUSH2 0x122 PUSH2 0xB4C JUMP JUMPDEST PUSH1 0x40 MLOAD PUSH2 0x12F SWAP2 SWAP1 PUSH2 0x116A JUMP JUMPDEST PUSH1 0x40 MLOAD DUP1 SWAP2 SUB SWAP1 RETURN JUMPDEST PUSH2 0x140 PUSH2 0xC95 JUMP JUMPDEST PUSH1 0x40 MLOAD PUSH2 0x14D SWAP2 SWAP1 PUSH2 0x116A JUMP JUMPDEST PUSH1 0x40 MLOAD DUP1 SWAP2 SUB SWAP1 RETURN JUMPDEST PUSH2 0x15E PUSH2 0xF1A JUMP JUMPDEST PUSH1 0x40 MLOAD PUSH2 0x16B SWAP2 SWAP1 PUSH2 0xFB0 JUMP JUMPDEST PUSH1 0x40 MLOAD DUP1 SWAP2 SUB SWAP1 RETURN JUMPDEST PUSH0 PUSH0 PUSH0 CALLER PUSH20 0xFFFFFFFFFFFFFFFFFFFFFFFFFFFFFFFFFFFFFFFF AND PUSH20 0xFFFFFFFFFFFFFFFFFFFFFFFFFFFFFFFFFFFFFFFF AND DUP2 MSTORE PUSH1 0x20 ADD SWAP1 DUP2 MSTORE PUSH1 0x20 ADD PUSH0 KECCAK256 DUP1 SLOAD SWAP1 POP SWAP1 POP SWAP1 JUMP JUMPDEST PUSH1 0x60 PUSH0 PUSH0 PUSH0 CALLER PUSH20 0xFFFFFFFFFFFFFFFFFFFFFFFFFFFFFFFFFFFFFFFF AND PUSH20 0xFFFFFFFFFFFFFFFFFFFFFFFFFFFFFFFFFFFFFFFF AND DUP2 MSTORE PUSH1 0x20 ADD SWAP1 DUP2 MSTORE PUSH1 0x20 ADD PUSH0 KECCAK256 DUP1 SLOAD DUP1 PUSH1 0x20 MUL PUSH1 0x20 ADD PUSH1 0x40 MLOAD SWAP1 DUP2 ADD PUSH1 0x40 MSTORE DUP1 SWAP3 SWAP2 SWAP1 DUP2 DUP2 MSTORE PUSH1 0x20 ADD PUSH0 SWAP1 JUMPDEST DUP3 DUP3 LT ISZERO PUSH2 0x2FB JUMPI DUP4 DUP3 SWAP1 PUSH0 MSTORE PUSH1 0x20 PUSH0 KECCAK256 SWAP1 PUSH1 0x3 MUL ADD PUSH1 0x40 MLOAD DUP1 PUSH1 0x60 ADD PUSH1 0x40 MSTORE SWAP1 DUP2 PUSH0 DUP3 ADD DUP1 SLOAD PUSH2 0x248 SWAP1 PUSH2 0x1390 JUMP JUMPDEST DUP1 PUSH1 0x1F ADD PUSH1 0x20 DUP1 SWAP2 DIV MUL PUSH1 0x20 ADD PUSH1 0x40 MLOAD SWAP1 DUP2 ADD PUSH1 0x40 MSTORE DUP1 SWAP3 SWAP2 SWAP1 DUP2 DUP2 MSTORE PUSH1 0x20 ADD DUP3 DUP1 SLOAD PUSH2 0x274 SWAP1 PUSH2 0x1390 JUMP JUMPDEST DUP1 ISZERO PUSH2 0x2BF JUMPI DUP1 PUSH1 0x1F LT PUSH2 0x296 JUMPI PUSH2 0x100 DUP1 DUP4 SLOAD DIV MUL DUP4 MSTORE SWAP2 PUSH1 0x20 ADD SWAP2 PUSH2 0x2BF JUMP JUMPDEST DUP3 ADD SWAP2 SWAP1 PUSH0 MSTORE PUSH1 0x20 PUSH0 KECCAK256 SWAP1 JUMPDEST DUP2 SLOAD DUP2 MSTORE SWAP1 PUSH1 0x1 ADD SWAP1 PUSH1 0x20 ADD DUP1 DUP4 GT PUSH2 0x2A2 JUMPI DUP3 SWAP1 SUB PUSH1 0x1F AND DUP3 ADD SWAP2 JUMPDEST POP POP POP POP POP DUP2 MSTORE PUSH1 0x20 ADD PUSH1 0x1 DUP3 ADD PUSH0 SWAP1 SLOAD SWAP1 PUSH2 0x100 EXP SWAP1 DIV PUSH1 0xFF AND ISZERO ISZERO ISZERO ISZERO DUP2 MSTORE PUSH1 0x20 ADD PUSH1 0x2 DUP3 ADD SLOAD DUP2 MSTORE POP POP DUP2 MSTORE PUSH1 0x20 ADD SWAP1 PUSH1 0x1 ADD SWAP1 PUSH2 0x218 JUMP JUMPDEST POP POP POP POP SWAP1 POP PUSH0 PUSH0 SWAP1 POP PUSH0 PUSH0 SWAP1 POP JUMPDEST DUP3 MLOAD DUP2 LT ISZERO PUSH2 0x353 JUMPI DUP3 DUP2 DUP2 MLOAD DUP2 LT PUSH2 0x326 JUMPI PUSH2 0x325 PUSH2 0x13C0 JUMP JUMPDEST JUMPDEST PUSH1 0x20 MUL PUSH1 0x20 ADD ADD MLOAD PUSH1 0x20 ADD MLOAD ISZERO PUSH2 0x346 JUMPI DUP2 DUP1 PUSH2 0x342 SWAP1 PUSH2 0x141A JUMP JUMPDEST SWAP3 POP POP JUMPDEST DUP1 DUP1 PUSH1 0x1 ADD SWAP2 POP POP PUSH2 0x30A JUMP JUMPDEST POP PUSH0 DUP2 PUSH8 0xFFFFFFFFFFFFFFFF DUP2 GT ISZERO PUSH2 0x36F JUMPI PUSH2 0x36E PUSH2 0x11F8 JUMP JUMPDEST JUMPDEST PUSH1 0x40 MLOAD SWAP1 DUP1 DUP3 MSTORE DUP1 PUSH1 0x20 MUL PUSH1 0x20 ADD DUP3 ADD PUSH1 0x40 MSTORE DUP1 ISZERO PUSH2 0x3A8 JUMPI DUP2 PUSH1 0x20 ADD JUMPDEST PUSH2 0x395 PUSH2 0xF1F JUMP JUMPDEST DUP2 MSTORE PUSH1 0x20 ADD SWAP1 PUSH1 0x1 SWAP1 SUB SWAP1 DUP2 PUSH2 0x38D JUMPI SWAP1 POP JUMPDEST POP SWAP1 POP PUSH0 PUSH0 SWAP1 POP PUSH0 PUSH0 SWAP1 POP JUMPDEST DUP5 MLOAD DUP2 LT ISZERO PUSH2 0x436 JUMPI DUP5 DUP2 DUP2 MLOAD DUP2 LT PUSH2 0x3D0 JUMPI PUSH2 0x3CF PUSH2 0x13C0 JUMP JUMPDEST JUMPDEST PUSH1 0x20 MUL PUSH1 0x20 ADD ADD MLOAD PUSH1 0x20 ADD MLOAD ISZERO PUSH2 0x429 JUMPI DUP5 DUP2 DUP2 MLOAD DUP2 LT PUSH2 0x3F4 JUMPI PUSH2 0x3F3 PUSH2 0x13C0 JUMP JUMPDEST JUMPDEST PUSH1 0x20 MUL PUSH1 0x20 ADD ADD MLOAD DUP4 DUP4 DUP2 MLOAD DUP2 LT PUSH2 0x40F JUMPI PUSH2 0x40E PUSH2 0x13C0 JUMP JUMPDEST JUMPDEST PUSH1 0x20 MUL PUSH1 0x20 ADD ADD DUP2 SWAP1 MSTORE POP DUP2 DUP1 PUSH2 0x425 SWAP1 PUSH2 0x141A JUMP JUMPDEST SWAP3 POP POP JUMPDEST DUP1 DUP1 PUSH1 0x1 ADD SWAP2 POP POP PUSH2 0x3B4 JUMP JUMPDEST POP DUP2 SWAP5 POP POP POP POP POP SWAP1 JUMP JUMPDEST PUSH0 PUSH0 CALLER PUSH20 0xFFFFFFFFFFFFFFFFFFFFFFFFFFFFFFFFFFFFFFFF AND PUSH20 0xFFFFFFFFFFFFFFFFFFFFFFFFFFFFFFFFFFFFFFFF AND DUP2 MSTORE PUSH1 0x20 ADD SWAP1 DUP2 MSTORE PUSH1 0x20 ADD PUSH0 KECCAK256 DUP1 SLOAD SWAP1 POP DUP2 LT PUSH2 0x4C2 JUMPI PUSH1 0x40 MLOAD PUSH32 0x8C379A000000000000000000000000000000000000000000000000000000000 DUP2 MSTORE PUSH1 0x4 ADD PUSH2 0x4B9 SWAP1 PUSH2 0x14BB JUMP JUMPDEST PUSH1 0x40 MLOAD DUP1 SWAP2 SUB SWAP1 REVERT JUMPDEST PUSH0 PUSH0 CALLER PUSH20 0xFFFFFFFFFFFFFFFFFFFFFFFFFFFFFFFFFFFFFFFF AND PUSH20 0xFFFFFFFFFFFFFFFFFFFFFFFFFFFFFFFFFFFFFFFF AND DUP2 MSTORE PUSH1 0x20 ADD SWAP1 DUP2 MSTORE PUSH1 0x20 ADD PUSH0 KECCAK256 DUP2 DUP2 SLOAD DUP2 LT PUSH2 0x510 JUMPI PUSH2 0x50F PUSH2 0x13C0 JUMP JUMPDEST JUMPDEST SWAP1 PUSH0 MSTORE PUSH1 0x20 PUSH0 KECCAK256 SWAP1 PUSH1 0x3 MUL ADD PUSH1 0x1 ADD PUSH0 SWAP1 SLOAD SWAP1 PUSH2 0x100 EXP SWAP1 DIV PUSH1 0xFF AND ISZERO PUSH2 0x56C JUMPI PUSH1 0x40 MLOAD PUSH32 0x8C379A000000000000000000000000000000000000000000000000000000000 DUP2 MSTORE PUSH1 0x4 ADD PUSH2 0x563 SWAP1 PUSH2 0x1523 JUMP JUMPDEST PUSH1 0x40 MLOAD DUP1 SWAP2 SUB SWAP1 REVERT JUMPDEST PUSH1 0x1 PUSH0 PUSH0 CALLER PUSH20 0xFFFFFFFFFFFFFFFFFFFFFFFFFFFFFFFFFFFFFFFF AND PUSH20 0xFFFFFFFFFFFFFFFFFFFFFFFFFFFFFFFFFFFFFFFF AND DUP2 MSTORE PUSH1 0x20 ADD SWAP1 DUP2 MSTORE PUSH1 0x20 ADD PUSH0 KECCAK256 DUP3 DUP2 SLOAD DUP2 LT PUSH2 0x5BC JUMPI PUSH2 0x5BB PUSH2 0x13C0 JUMP JUMPDEST JUMPDEST SWAP1 PUSH0 MSTORE PUSH1 0x20 PUSH0 KECCAK256 SWAP1 PUSH1 0x3 MUL ADD PUSH1 0x1 ADD PUSH0 PUSH2 0x100 EXP DUP2 SLOAD DUP2 PUSH1 0xFF MUL NOT AND SWAP1 DUP4 ISZERO ISZERO MUL OR SWAP1 SSTORE POP CALLER PUSH20 0xFFFFFFFFFFFFFFFFFFFFFFFFFFFFFFFFFFFFFFFF AND PUSH32 0x67DED622A190B565CE61203D9279A5C28931773C0919BF91CE964F6CD909E9B4 DUP3 PUSH1 0x40 MLOAD PUSH2 0x627 SWAP2 SWAP1 PUSH2 0xFB0 JUMP JUMPDEST PUSH1 0x40 MLOAD DUP1 SWAP2 SUB SWAP1 LOG2 POP JUMP JUMPDEST PUSH0 PUSH0 CALLER PUSH20 0xFFFFFFFFFFFFFFFFFFFFFFFFFFFFFFFFFFFFFFFF AND PUSH20 0xFFFFFFFFFFFFFFFFFFFFFFFFFFFFFFFFFFFFFFFF AND DUP2 MSTORE PUSH1 0x20 ADD SWAP1 DUP2 MSTORE PUSH1 0x20 ADD PUSH0 KECCAK256 DUP1 SLOAD SWAP1 POP DUP2 LT PUSH2 0x6B3 JUMPI PUSH1 0x40 MLOAD PUSH32 0x8C379A000000000000000000000000000000000000000000000000000000000 DUP2 MSTORE PUSH1 0x4 ADD PUSH2 0x6AA SWAP1 PUSH2 0x14BB JUMP JUMPDEST PUSH1 0x40 MLOAD DUP1 SWAP2 SUB SWAP1 REVERT JUMPDEST PUSH0 PUSH1 0x1 PUSH0 PUSH0 CALLER PUSH20 0xFFFFFFFFFFFFFFFFFFFFFFFFFFFFFFFFFFFFFFFF AND PUSH20 0xFFFFFFFFFFFFFFFFFFFFFFFFFFFFFFFFFFFFFFFF AND DUP2 MSTORE PUSH1 0x20 ADD SWAP1 DUP2 MSTORE PUSH1 0x20 ADD PUSH0 KECCAK256 DUP1 SLOAD SWAP1 POP PUSH2 0x700 SWAP2 SWAP1 PUSH2 0x1541 JUMP JUMPDEST SWAP1 POP DUP1 DUP3 EQ PUSH2 0x809 JUMPI PUSH0 PUSH0 CALLER PUSH20 0xFFFFFFFFFFFFFFFFFFFFFFFFFFFFFFFFFFFFFFFF AND PUSH20 0xFFFFFFFFFFFFFFFFFFFFFFFFFFFFFFFFFFFFFFFF AND DUP2 MSTORE PUSH1 0x20 ADD SWAP1 DUP2 MSTORE PUSH1 0x20 ADD PUSH0 KECCAK256 DUP2 DUP2 SLOAD DUP2 LT PUSH2 0x757 JUMPI PUSH2 0x756 PUSH2 0x13C0 JUMP JUMPDEST JUMPDEST SWAP1 PUSH0 MSTORE PUSH1 0x20 PUSH0 KECCAK256 SWAP1 PUSH1 0x3 MUL ADD PUSH0 PUSH0 CALLER PUSH20 0xFFFFFFFFFFFFFFFFFFFFFFFFFFFFFFFFFFFFFFFF AND PUSH20 0xFFFFFFFFFFFFFFFFFFFFFFFFFFFFFFFFFFFFFFFF AND DUP2 MSTORE PUSH1 0x20 ADD SWAP1 DUP2 MSTORE PUSH1 0x20 ADD PUSH0 KECCAK256 DUP4 DUP2 SLOAD DUP2 LT PUSH2 0x7B1 JUMPI PUSH2 0x7B0 PUSH2 0x13C0 JUMP JUMPDEST JUMPDEST SWAP1 PUSH0 MSTORE PUSH1 0x20 PUSH0 KECCAK256 SWAP1 PUSH1 0x3 MUL ADD PUSH0 DUP3 ADD DUP2 PUSH0 ADD SWAP1 DUP2 PUSH2 0x7CF SWAP2 SWAP1 PUSH2 0x1729 JUMP JUMPDEST POP PUSH1 0x1 DUP3 ADD PUSH0 SWAP1 SLOAD SWAP1 PUSH2 0x100 EXP SWAP1 DIV PUSH1 0xFF AND DUP2 PUSH1 0x1 ADD PUSH0 PUSH2 0x100 EXP DUP2 SLOAD DUP2 PUSH1 0xFF MUL NOT AND SWAP1 DUP4 ISZERO ISZERO MUL OR SWAP1 SSTORE POP PUSH1 0x2 DUP3 ADD SLOAD DUP2 PUSH1 0x2 ADD SSTORE SWAP1 POP POP JUMPDEST PUSH0 PUSH0 CALLER PUSH20 0xFFFFFFFFFFFFFFFFFFFFFFFFFFFFFFFFFFFFFFFF AND PUSH20 0xFFFFFFFFFFFFFFFFFFFFFFFFFFFFFFFFFFFFFFFF AND DUP2 MSTORE PUSH1 0x20 ADD SWAP1 DUP2 MSTORE PUSH1 0x20 ADD PUSH0 KECCAK256 DUP1 SLOAD DUP1 PUSH2 0x855 JUMPI PUSH2 0x854 PUSH2 0x180E JUMP JUMPDEST JUMPDEST PUSH1 0x1 SWAP1 SUB DUP2 DUP2 SWAP1 PUSH0 MSTORE PUSH1 0x20 PUSH0 KECCAK256 SWAP1 PUSH1 0x3 MUL ADD PUSH0 PUSH0 DUP3 ADD PUSH0 PUSH2 0x876 SWAP2 SWAP1 PUSH2 0xF40 JUMP JUMPDEST PUSH1 0x1 DUP3 ADD PUSH0 PUSH2 0x100 EXP DUP2 SLOAD SWAP1 PUSH1 0xFF MUL NOT AND SWAP1 SSTORE PUSH1 0x2 DUP3 ADD PUSH0 SWAP1 SSTORE POP POP SWAP1 SSTORE CALLER PUSH20 0xFFFFFFFFFFFFFFFFFFFFFFFFFFFFFFFFFFFFFFFF AND PUSH32 0x24D84CD6BD5CC33DAFA556A214E7D9E1B4FCCCA98B3E7D1413909E4710F02FF3 DUP4 PUSH1 0x40 MLOAD PUSH2 0x8DA SWAP2 SWAP1 PUSH2 0xFB0 JUMP JUMPDEST PUSH1 0x40 MLOAD DUP1 SWAP2 SUB SWAP1 LOG2 POP POP JUMP JUMPDEST PUSH0 DUP2 MLOAD GT PUSH2 0x929 JUMPI PUSH1 0x40 MLOAD PUSH32 0x8C379A000000000000000000000000000000000000000000000000000000000 DUP2 MSTORE PUSH1 0x4 ADD PUSH2 0x920 SWAP1 PUSH2 0x1885 JUMP JUMPDEST PUSH1 0x40 MLOAD DUP1 SWAP2 SUB SWAP1 REVERT JUMPDEST PUSH1 0xC8 DUP2 MLOAD GT ISZERO PUSH2 0x96E JUMPI PUSH1 0x40 MLOAD PUSH32 0x8C379A000000000000000000000000000000000000000000000000000000000 DUP2 MSTORE PUSH1 0x4 ADD PUSH2 0x965 SWAP1 PUSH2 0x18ED JUMP JUMPDEST PUSH1 0x40 MLOAD DUP1 SWAP2 SUB SWAP1 REVERT JUMPDEST PUSH1 0x64 PUSH0 PUSH0 CALLER PUSH20 0xFFFFFFFFFFFFFFFFFFFFFFFFFFFFFFFFFFFFFFFF AND PUSH20 0xFFFFFFFFFFFFFFFFFFFFFFFFFFFFFFFFFFFFFFFF AND DUP2 MSTORE PUSH1 0x20 ADD SWAP1 DUP2 MSTORE PUSH1 0x20 ADD PUSH0 KECCAK256 DUP1 SLOAD SWAP1 POP LT PUSH2 0x9F0 JUMPI PUSH1 0x40 MLOAD PUSH32 0x8C379A000000000000000000000000000000000000000000000000000000000 DUP2 MSTORE PUSH1 0x4 ADD PUSH2 0x9E7 SWAP1 PUSH2 0x1955 JUMP JUMPDEST PUSH1 0x40 MLOAD DUP1 SWAP2 SUB SWAP1 REVERT JUMPDEST PUSH0 PUSH0 CALLER PUSH20 0xFFFFFFFFFFFFFFFFFFFFFFFFFFFFFFFFFFFFFFFF AND PUSH20 0xFFFFFFFFFFFFFFFFFFFFFFFFFFFFFFFFFFFFFFFF AND DUP2 MSTORE PUSH1 0x20 ADD SWAP1 DUP2 MSTORE PUSH1 0x20 ADD PUSH0 KECCAK256 PUSH1 0x40 MLOAD DUP1 PUSH1 0x60 ADD PUSH1 0x40 MSTORE DUP1 DUP4 DUP2 MSTORE PUSH1 0x20 ADD PUSH0 ISZERO ISZERO DUP2 MSTORE PUSH1 0x20 ADD TIMESTAMP DUP2 MSTORE POP SWAP1 DUP1 PUSH1 0x1 DUP2 SLOAD ADD DUP1 DUP3 SSTORE DUP1 SWAP2 POP POP PUSH1 0x1 SWAP1 SUB SWAP1 PUSH0 MSTORE PUSH1 0x20 PUSH0 KECCAK256 SWAP1 PUSH1 0x3 MUL ADD PUSH0 SWAP1 SWAP2 SWAP1 SWAP2 SWAP1 SWAP2 POP PUSH0 DUP3 ADD MLOAD DUP2 PUSH0 ADD SWAP1 DUP2 PUSH2 0xA82 SWAP2 SWAP1 PUSH2 0x1973 JUMP JUMPDEST POP PUSH1 0x20 DUP3 ADD MLOAD DUP2 PUSH1 0x1 ADD PUSH0 PUSH2 0x100 EXP DUP2 SLOAD DUP2 PUSH1 0xFF MUL NOT AND SWAP1 DUP4 ISZERO ISZERO MUL OR SWAP1 SSTORE POP PUSH1 0x40 DUP3 ADD MLOAD DUP2 PUSH1 0x2 ADD SSTORE POP POP CALLER PUSH20 0xFFFFFFFFFFFFFFFFFFFFFFFFFFFFFFFFFFFFFFFF AND PUSH32 0x1D7303A9DA3D6D58EE2B1B1A7D6676848E0B02914499B48678BB7DFF079A0150 PUSH1 0x1 PUSH0 PUSH0 CALLER PUSH20 0xFFFFFFFFFFFFFFFFFFFFFFFFFFFFFFFFFFFFFFFF AND PUSH20 0xFFFFFFFFFFFFFFFFFFFFFFFFFFFFFFFFFFFFFFFF AND DUP2 MSTORE PUSH1 0x20 ADD SWAP1 DUP2 MSTORE PUSH1 0x20 ADD PUSH0 KECCAK256 DUP1 SLOAD SWAP1 POP PUSH2 0xB32 SWAP2 SWAP1 PUSH2 0x1541 JUMP JUMPDEST DUP4 PUSH1 0x40 MLOAD PUSH2 0xB41 SWAP3 SWAP2 SWAP1 PUSH2 0x1A7A JUMP JUMPDEST PUSH1 0x40 MLOAD DUP1 SWAP2 SUB SWAP1 LOG2 POP JUMP JUMPDEST PUSH1 0x60 PUSH0 PUSH0 CALLER PUSH20 0xFFFFFFFFFFFFFFFFFFFFFFFFFFFFFFFFFFFFFFFF AND PUSH20 0xFFFFFFFFFFFFFFFFFFFFFFFFFFFFFFFFFFFFFFFF AND DUP2 MSTORE PUSH1 0x20 ADD SWAP1 DUP2 MSTORE PUSH1 0x20 ADD PUSH0 KECCAK256 DUP1 SLOAD DUP1 PUSH1 0x20 MUL PUSH1 0x20 ADD PUSH1 0x40 MLOAD SWAP1 DUP2 ADD PUSH1 0x40 MSTORE DUP1 SWAP3 SWAP2 SWAP1 DUP2 DUP2 MSTORE PUSH1 0x20 ADD PUSH0 SWAP1 JUMPDEST DUP3 DUP3 LT ISZERO PUSH2 0xC8C JUMPI DUP4 DUP3 SWAP1 PUSH0 MSTORE PUSH1 0x20 PUSH0 KECCAK256 SWAP1 PUSH1 0x3 MUL ADD PUSH1 0x40 MLOAD DUP1 PUSH1 0x60 ADD PUSH1 0x40 MSTORE SWAP1 DUP2 PUSH0 DUP3 ADD DUP1 SLOAD PUSH2 0xBD9 SWAP1 PUSH2 0x1390 JUMP JUMPDEST DUP1 PUSH1 0x1F ADD PUSH1 0x20 DUP1 SWAP2 DIV MUL PUSH1 0x20 ADD PUSH1 0x40 MLOAD SWAP1 DUP2 ADD PUSH1 0x40 MSTORE DUP1 SWAP3 SWAP2 SWAP1 DUP2 DUP2 MSTORE PUSH1 0x20 ADD DUP3 DUP1 SLOAD PUSH2 0xC05 SWAP1 PUSH2 0x1390 JUMP JUMPDEST DUP1 ISZERO PUSH2 0xC50 JUMPI DUP1 PUSH1 0x1F LT PUSH2 0xC27 JUMPI PUSH2 0x100 DUP1 DUP4 SLOAD DIV MUL DUP4 MSTORE SWAP2 PUSH1 0x20 ADD SWAP2 PUSH2 0xC50 JUMP JUMPDEST DUP3 ADD SWAP2 SWAP1 PUSH0 MSTORE PUSH1 0x20 PUSH0 KECCAK256 SWAP1 JUMPDEST DUP2 SLOAD DUP2 MSTORE SWAP1 PUSH1 0x1 ADD SWAP1 PUSH1 0x20 ADD DUP1 DUP4 GT PUSH2 0xC33 JUMPI DUP3 SWAP1 SUB PUSH1 0x1F AND DUP3 ADD SWAP2 JUMPDEST POP POP POP POP POP DUP2 MSTORE PUSH1 0x20 ADD PUSH1 0x1 DUP3 ADD PUSH0 SWAP1 SLOAD SWAP1 PUSH2 0x100 EXP SWAP1 DIV PUSH1 0xFF AND ISZERO ISZERO ISZERO ISZERO DUP2 MSTORE PUSH1 0x20 ADD PUSH1 0x2 DUP3 ADD SLOAD DUP2 MSTORE POP POP DUP2 MSTORE PUSH1 0x20 ADD SWAP1 PUSH1 0x1 ADD SWAP1 PUSH2 0xBA9 JUMP JUMPDEST POP POP POP POP SWAP1 POP SWAP1 JUMP JUMPDEST PUSH1 0x60 PUSH0 PUSH0 PUSH0 CALLER PUSH20 0xFFFFFFFFFFFFFFFFFFFFFFFFFFFFFFFFFFFFFFFF AND PUSH20 0xFFFFFFFFFFFFFFFFFFFFFFFFFFFFFFFFFFFFFFFF AND DUP2 MSTORE PUSH1 0x20 ADD SWAP1 DUP2 MSTORE PUSH1 0x20 ADD PUSH0 KECCAK256 DUP1 SLOAD DUP1 PUSH1 0x20 MUL PUSH1 0x20 ADD PUSH1 0x40 MLOAD SWAP1 DUP2 ADD PUSH1 0x40 MSTORE DUP1 SWAP3 SWAP2 SWAP1 DUP2 DUP2 MSTORE PUSH1 0x20 ADD PUSH0 SWAP1 JUMPDEST DUP3 DUP3 LT ISZERO PUSH2 0xDD6 JUMPI DUP4 DUP3 SWAP1 PUSH0 MSTORE PUSH1 0x20 PUSH0 KECCAK256 SWAP1 PUSH1 0x3 MUL ADD PUSH1 0x40 MLOAD DUP1 PUSH1 0x60 ADD PUSH1 0x40 MSTORE SWAP1 DUP2 PUSH0 DUP3 ADD DUP1 SLOAD PUSH2 0xD23 SWAP1 PUSH2 0x1390 JUMP JUMPDEST DUP1 PUSH1 0x1F ADD PUSH1 0x20 DUP1 SWAP2 DIV MUL PUSH1 0x20 ADD PUSH1 0x40 MLOAD SWAP1 DUP2 ADD PUSH1 0x40 MSTORE DUP1 SWAP3 SWAP2 SWAP1 DUP2 DUP2 MSTORE PUSH1 0x20 ADD DUP3 DUP1 SLOAD PUSH2 0xD4F SWAP1 PUSH2 0x1390 JUMP JUMPDEST DUP1 ISZERO PUSH2 0xD9A JUMPI DUP1 PUSH1 0x1F LT PUSH2 0xD71 JUMPI PUSH2 0x100 DUP1 DUP4 SLOAD DIV MUL DUP4 MSTORE SWAP2 PUSH1 0x20 ADD SWAP2 PUSH2 0xD9A JUMP JUMPDEST DUP3 ADD SWAP2 SWAP1 PUSH0 MSTORE PUSH1 0x20 PUSH0 KECCAK256 SWAP1 JUMPDEST DUP2 SLOAD DUP2 MSTORE SWAP1 PUSH1 0x1 ADD SWAP1 PUSH1 0x20 ADD DUP1 DUP4 GT PUSH2 0xD7D JUMPI DUP3 SWAP1 SUB PUSH1 0x1F AND DUP3 ADD SWAP2 JUMPDEST POP POP POP POP POP DUP2 MSTORE PUSH1 0x20 ADD PUSH1 0x1 DUP3 ADD PUSH0 SWAP1 SLOAD SWAP1 PUSH2 0x100 EXP SWAP1 DIV PUSH1 0xFF AND ISZERO ISZERO ISZERO ISZERO DUP2 MSTORE PUSH1 0x20 ADD PUSH1 0x2 DUP3 ADD SLOAD DUP2 MSTORE POP POP DUP2 MSTORE PUSH1 0x20 ADD SWAP1 PUSH1 0x1 ADD SWAP1 PUSH2 0xCF3 JUMP JUMPDEST POP POP POP POP SWAP1 POP PUSH0 PUSH0 SWAP1 POP PUSH0 PUSH0 SWAP1 POP JUMPDEST DUP3 MLOAD DUP2 LT ISZERO PUSH2 0xE2D JUMPI DUP3 DUP2 DUP2 MLOAD DUP2 LT PUSH2 0xE01 JUMPI PUSH2 0xE00 PUSH2 0x13C0 JUMP JUMPDEST JUMPDEST PUSH1 0x20 MUL PUSH1 0x20 ADD ADD MLOAD PUSH1 0x20 ADD MLOAD PUSH2 0xE20 JUMPI DUP2 DUP1 PUSH2 0xE1C SWAP1 PUSH2 0x141A JUMP JUMPDEST SWAP3 POP POP JUMPDEST DUP1 DUP1 PUSH1 0x1 ADD SWAP2 POP POP PUSH2 0xDE5 JUMP JUMPDEST POP PUSH0 DUP2 PUSH8 0xFFFFFFFFFFFFFFFF DUP2 GT ISZERO PUSH2 0xE49 JUMPI PUSH2 0xE48 PUSH2 0x11F8 JUMP JUMPDEST JUMPDEST PUSH1 0x40 MLOAD SWAP1 DUP1 DUP3 MSTORE DUP1 PUSH1 0x20 MUL PUSH1 0x20 ADD DUP3 ADD PUSH1 0x40 MSTORE DUP1 ISZERO PUSH2 0xE82 JUMPI DUP2 PUSH1 0x20 ADD JUMPDEST PUSH2 0xE6F PUSH2 0xF1F JUMP JUMPDEST DUP2 MSTORE PUSH1 0x20 ADD SWAP1 PUSH1 0x1 SWAP1 SUB SWAP1 DUP2 PUSH2 0xE67 JUMPI SWAP1 POP JUMPDEST POP SWAP1 POP PUSH0 PUSH0 SWAP1 POP PUSH0 PUSH0 SWAP1 POP JUMPDEST DUP5 MLOAD DUP2 LT ISZERO PUSH2 0xF0F JUMPI DUP5 DUP2 DUP2 MLOAD DUP2 LT PUSH2 0xEAA JUMPI PUSH2 0xEA9 PUSH2 0x13C0 JUMP JUMPDEST JUMPDEST PUSH1 0x20 MUL PUSH1 0x20 ADD ADD MLOAD PUSH1 0x20 ADD MLOAD PUSH2 0xF02 JUMPI DUP5 DUP2 DUP2 MLOAD DUP2 LT PUSH2 0xECD JUMPI PUSH2 0xECC PUSH2 0x13C0 JUMP JUMPDEST JUMPDEST PUSH1 0x20 MUL PUSH1 0x20 ADD ADD MLOAD DUP4 DUP4 DUP2 MLOAD DUP2 LT PUSH2 0xEE8 JUMPI PUSH2 0xEE7 PUSH2 0x13C0 JUMP JUMPDEST JUMPDEST PUSH1 0x20 MUL PUSH1 0x20 ADD ADD DUP2 SWAP1 MSTORE POP DUP2 DUP1 PUSH2 0xEFE SWAP1 PUSH2 0x141A JUMP JUMPDEST SWAP3 POP POP JUMPDEST DUP1 DUP1 PUSH1 0x1 ADD SWAP2 POP POP PUSH2 0xE8E JUMP JUMPDEST POP DUP2 SWAP5 POP POP POP POP POP SWAP1 JUMP JUMPDEST PUSH1 0x64 DUP2 JUMP JUMPDEST PUSH1 0x40 MLOAD DUP1 PUSH1 0x60 ADD PUSH1 0x40 MSTORE DUP1 PUSH1 0x60 DUP2 MSTORE PUSH1 0x20 ADD PUSH0 ISZERO ISZERO DUP2 MSTORE PUSH1 0x20 ADD PUSH0 DUP2 MSTORE POP SWAP1 JUMP JUMPDEST POP DUP1 SLOAD PUSH2 0xF4C SWAP1 PUSH2 0x1390 JUMP JUMPDEST PUSH0 DUP3 SSTORE DUP1 PUSH1 0x1F LT PUSH2 0xF5D JUMPI POP PUSH2 0xF7A JUMP JUMPDEST PUSH1 0x1F ADD PUSH1 0x20 SWAP1 DIV SWAP1 PUSH0 MSTORE PUSH1 0x20 PUSH0 KECCAK256 SWAP1 DUP2 ADD SWAP1 PUSH2 0xF79 SWAP2 SWAP1 PUSH2 0xF7D JUMP JUMPDEST JUMPDEST POP JUMP JUMPDEST JUMPDEST DUP1 DUP3 GT ISZERO PUSH2 0xF94 JUMPI PUSH0 DUP2 PUSH0 SWAP1 SSTORE POP PUSH1 0x1 ADD PUSH2 0xF7E JUMP JUMPDEST POP SWAP1 JUMP JUMPDEST PUSH0 DUP2 SWAP1 POP SWAP2 SWAP1 POP JUMP JUMPDEST PUSH2 0xFAA DUP2 PUSH2 0xF98 JUMP JUMPDEST DUP3 MSTORE POP POP JUMP JUMPDEST PUSH0 PUSH1 0x20 DUP3 ADD SWAP1 POP PUSH2 0xFC3 PUSH0 DUP4 ADD DUP5 PUSH2 0xFA1 JUMP JUMPDEST SWAP3 SWAP2 POP POP JUMP JUMPDEST PUSH0 DUP2 MLOAD SWAP1 POP SWAP2 SWAP1 POP JUMP JUMPDEST PUSH0 DUP3 DUP3 MSTORE PUSH1 0x20 DUP3 ADD SWAP1 POP SWAP3 SWAP2 POP POP JUMP JUMPDEST PUSH0 DUP2 SWAP1 POP PUSH1 0x20 DUP3 ADD SWAP1 POP SWAP2 SWAP1 POP JUMP JUMPDEST PUSH0 DUP2 MLOAD SWAP1 POP SWAP2 SWAP1 POP JUMP JUMPDEST PUSH0 DUP3 DUP3 MSTORE PUSH1 0x20 DUP3 ADD SWAP1 POP SWAP3 SWAP2 POP POP JUMP JUMPDEST DUP3 DUP2 DUP4 MCOPY PUSH0 DUP4 DUP4 ADD MSTORE POP POP POP JUMP JUMPDEST PUSH0 PUSH1 0x1F NOT PUSH1 0x1F DUP4 ADD AND SWAP1 POP SWAP2 SWAP1 POP JUMP JUMPDEST PUSH0 PUSH2 0x1034 DUP3 PUSH2 0xFF2 JUMP JUMPDEST PUSH2 0x103E DUP2 DUP6 PUSH2 0xFFC JUMP JUMPDEST SWAP4 POP PUSH2 0x104E DUP2 DUP6 PUSH1 0x20 DUP7 ADD PUSH2 0x100C JUMP JUMPDEST PUSH2 0x1057 DUP2 PUSH2 0x101A JUMP JUMPDEST DUP5 ADD SWAP2 POP POP SWAP3 SWAP2 POP POP JUMP JUMPDEST PUSH0 DUP2 ISZERO ISZERO SWAP1 POP SWAP2 SWAP1 POP JUMP JUMPDEST PUSH2 0x1076 DUP2 PUSH2 0x1062 JUMP JUMPDEST DUP3 MSTORE POP POP JUMP JUMPDEST PUSH2 0x1085 DUP2 PUSH2 0xF98 JUMP JUMPDEST DUP3 MSTORE POP POP JUMP JUMPDEST PUSH0 PUSH1 0x60 DUP4 ADD PUSH0 DUP4 ADD MLOAD DUP5 DUP3 SUB PUSH0 DUP7 ADD MSTORE PUSH2 0x10A5 DUP3 DUP3 PUSH2 0x102A JUMP JUMPDEST SWAP2 POP POP PUSH1 0x20 DUP4 ADD MLOAD PUSH2 0x10BA PUSH1 0x20 DUP7 ADD DUP3 PUSH2 0x106D JUMP JUMPDEST POP PUSH1 0x40 DUP4 ADD MLOAD PUSH2 0x10CD PUSH1 0x40 DUP7 ADD DUP3 PUSH2 0x107C JUMP JUMPDEST POP DUP1 SWAP2 POP POP SWAP3 SWAP2 POP POP JUMP JUMPDEST PUSH0 PUSH2 0x10E3 DUP4 DUP4 PUSH2 0x108B JUMP JUMPDEST SWAP1 POP SWAP3 SWAP2 POP POP JUMP JUMPDEST PUSH0 PUSH1 0x20 DUP3 ADD SWAP1 POP SWAP2 SWAP1 POP JUMP JUMPDEST PUSH0 PUSH2 0x1101 DUP3 PUSH2 0xFC9 JUMP JUMPDEST PUSH2 0x110B DUP2 DUP6 PUSH2 0xFD3 JUMP JUMPDEST SWAP4 POP DUP4 PUSH1 0x20 DUP3 MUL DUP6 ADD PUSH2 0x111D DUP6 PUSH2 0xFE3 JUMP JUMPDEST DUP1 PUSH0 JUMPDEST DUP6 DUP2 LT ISZERO PUSH2 0x1158 JUMPI DUP5 DUP5 SUB DUP10 MSTORE DUP2 MLOAD PUSH2 0x1139 DUP6 DUP3 PUSH2 0x10D8 JUMP JUMPDEST SWAP5 POP PUSH2 0x1144 DUP4 PUSH2 0x10EB JUMP JUMPDEST SWAP3 POP PUSH1 0x20 DUP11 ADD SWAP10 POP POP PUSH1 0x1 DUP2 ADD SWAP1 POP PUSH2 0x1120 JUMP JUMPDEST POP DUP3 SWAP8 POP DUP8 SWAP6 POP POP POP POP POP POP SWAP3 SWAP2 POP POP JUMP JUMPDEST PUSH0 PUSH1 0x20 DUP3 ADD SWAP1 POP DUP2 DUP2 SUB PUSH0 DUP4 ADD MSTORE PUSH2 0x1182 DUP2 DUP5 PUSH2 0x10F7 JUMP JUMPDEST SWAP1 POP SWAP3 SWAP2 POP POP JUMP JUMPDEST PUSH0 PUSH1 0x40 MLOAD SWAP1 POP SWAP1 JUMP JUMPDEST PUSH0 PUSH0 REVERT JUMPDEST PUSH0 PUSH0 REVERT JUMPDEST PUSH2 0x11A4 DUP2 PUSH2 0xF98 JUMP JUMPDEST DUP2 EQ PUSH2 0x11AE JUMPI PUSH0 PUSH0 REVERT JUMPDEST POP JUMP JUMPDEST PUSH0 DUP2 CALLDATALOAD SWAP1 POP PUSH2 0x11BF DUP2 PUSH2 0x119B JUMP JUMPDEST SWAP3 SWAP2 POP POP JUMP JUMPDEST PUSH0 PUSH1 0x20 DUP3 DUP5 SUB SLT ISZERO PUSH2 0x11DA JUMPI PUSH2 0x11D9 PUSH2 0x1193 JUMP JUMPDEST JUMPDEST PUSH0 PUSH2 0x11E7 DUP5 DUP3 DUP6 ADD PUSH2 0x11B1 JUMP JUMPDEST SWAP2 POP POP SWAP3 SWAP2 POP POP JUMP JUMPDEST PUSH0 PUSH0 REVERT JUMPDEST PUSH0 PUSH0 REVERT JUMPDEST PUSH32 0x4E487B7100000000000000000000000000000000000000000000000000000000 PUSH0 MSTORE PUSH1 0x41 PUSH1 0x4 MSTORE PUSH1 0x24 PUSH0 REVERT JUMPDEST PUSH2 0x122E DUP3 PUSH2 0x101A JUMP JUMPDEST DUP2 ADD DUP2 DUP2 LT PUSH8 0xFFFFFFFFFFFFFFFF DUP3 GT OR ISZERO PUSH2 0x124D JUMPI PUSH2 0x124C PUSH2 0x11F8 JUMP JUMPDEST JUMPDEST DUP1 PUSH1 0x40 MSTORE POP POP POP JUMP JUMPDEST PUSH0 PUSH2 0x125F PUSH2 0x118A JUMP JUMPDEST SWAP1 POP PUSH2 0x126B DUP3 DUP3 PUSH2 0x1225 JUMP JUMPDEST SWAP2 SWAP1 POP JUMP JUMPDEST PUSH0 PUSH8 0xFFFFFFFFFFFFFFFF DUP3 GT ISZERO PUSH2 0x128A JUMPI PUSH2 0x1289 PUSH2 0x11F8 JUMP JUMPDEST JUMPDEST PUSH2 0x1293 DUP3 PUSH2 0x101A JUMP JUMPDEST SWAP1 POP PUSH1 0x20 DUP2 ADD SWAP1 POP SWAP2 SWAP1 POP JUMP JUMPDEST DUP3 DUP2 DUP4 CALLDATACOPY PUSH0 DUP4 DUP4 ADD MSTORE POP POP POP JUMP JUMPDEST PUSH0 PUSH2 0x12C0 PUSH2 0x12BB DUP5 PUSH2 0x1270 JUMP JUMPDEST PUSH2 0x1256 JUMP JUMPDEST SWAP1 POP DUP3 DUP2 MSTORE PUSH1 0x20 DUP2 ADD DUP5 DUP5 DUP5 ADD GT ISZERO PUSH2 0x12DC JUMPI PUSH2 0x12DB PUSH2 0x11F4 JUMP JUMPDEST JUMPDEST PUSH2 0x12E7 DUP5 DUP3 DUP6 PUSH2 0x12A0 JUMP JUMPDEST POP SWAP4 SWAP3 POP POP POP JUMP JUMPDEST PUSH0 DUP3 PUSH1 0x1F DUP4 ADD SLT PUSH2 0x1303 JUMPI PUSH2 0x1302 PUSH2 0x11F0 JUMP JUMPDEST JUMPDEST DUP2 CALLDATALOAD PUSH2 0x1313 DUP5 DUP3 PUSH1 0x20 DUP7 ADD PUSH2 0x12AE JUMP JUMPDEST SWAP2 POP POP SWAP3 SWAP2 POP POP JUMP JUMPDEST PUSH0 PUSH1 0x20 DUP3 DUP5 SUB SLT ISZERO PUSH2 0x1331 JUMPI PUSH2 0x1330 PUSH2 0x1193 JUMP JUMPDEST JUMPDEST PUSH0 DUP3 ADD CALLDATALOAD PUSH8 0xFFFFFFFFFFFFFFFF DUP2 GT ISZERO PUSH2 0x134E JUMPI PUSH2 0x134D PUSH2 0x1197 JUMP JUMPDEST JUMPDEST PUSH2 0x135A DUP5 DUP3 DUP6 ADD PUSH2 0x12EF JUMP JUMPDEST SWAP2 POP POP SWAP3 SWAP2 POP POP JUMP JUMPDEST PUSH32 0x4E487B7100000000000000000000000000000000000000000000000000000000 PUSH0 MSTORE PUSH1 0x22 PUSH1 0x4 MSTORE PUSH1 0x24 PUSH0 REVERT JUMPDEST PUSH0 PUSH1 0x2 DUP3 DIV SWAP1 POP PUSH1 0x1 DUP3 AND DUP1 PUSH2 0x13A7 JUMPI PUSH1 0x7F DUP3 AND SWAP2 POP JUMPDEST PUSH1 0x20 DUP3 LT DUP2 SUB PUSH2 0x13BA JUMPI PUSH2 0x13B9 PUSH2 0x1363 JUMP JUMPDEST JUMPDEST POP SWAP2 SWAP1 POP JUMP JUMPDEST PUSH32 0x4E487B7100000000000000000000000000000000000000000000000000000000 PUSH0 MSTORE PUSH1 0x32 PUSH1 0x4 MSTORE PUSH1 0x24 PUSH0 REVERT JUMPDEST PUSH32 0x4E487B7100000000000000000000000000000000000000000000000000000000 PUSH0 MSTORE PUSH1 0x11 PUSH1 0x4 MSTORE PUSH1 0x24 PUSH0 REVERT JUMPDEST PUSH0 PUSH2 0x1424 DUP3 PUSH2 0xF98 JUMP JUMPDEST SWAP2 POP PUSH32 0xFFFFFFFFFFFFFFFFFFFFFFFFFFFFFFFFFFFFFFFFFFFFFFFFFFFFFFFFFFFFFFFF DUP3 SUB PUSH2 0x1456 JUMPI PUSH2 0x1455 PUSH2 0x13ED JUMP JUMPDEST JUMPDEST PUSH1 0x1 DUP3 ADD SWAP1 POP SWAP2 SWAP1 POP JUMP JUMPDEST PUSH0 DUP3 DUP3 MSTORE PUSH1 0x20 DUP3 ADD SWAP1 POP SWAP3 SWAP2 POP POP JUMP JUMPDEST PUSH32 0x496E646578206F7574206F6620626F756E647300000000000000000000000000 PUSH0 DUP3 ADD MSTORE POP JUMP JUMPDEST PUSH0 PUSH2 0x14A5 PUSH1 0x13 DUP4 PUSH2 0x1461 JUMP JUMPDEST SWAP2 POP PUSH2 0x14B0 DUP3 PUSH2 0x1471 JUMP JUMPDEST PUSH1 0x20 DUP3 ADD SWAP1 POP SWAP2 SWAP1 POP JUMP JUMPDEST PUSH0 PUSH1 0x20 DUP3 ADD SWAP1 POP DUP2 DUP2 SUB PUSH0 DUP4 ADD MSTORE PUSH2 0x14D2 DUP2 PUSH2 0x1499 JUMP JUMPDEST SWAP1 POP SWAP2 SWAP1 POP JUMP JUMPDEST PUSH32 0x416C726561647920636F6D706C65746564000000000000000000000000000000 PUSH0 DUP3 ADD MSTORE POP JUMP JUMPDEST PUSH0 PUSH2 0x150D PUSH1 0x11 DUP4 PUSH2 0x1461 JUMP JUMPDEST SWAP2 POP PUSH2 0x1518 DUP3 PUSH2 0x14D9 JUMP JUMPDEST PUSH1 0x20 DUP3 ADD SWAP1 POP SWAP2 SWAP1 POP JUMP JUMPDEST PUSH0 PUSH1 0x20 DUP3 ADD SWAP1 POP DUP2 DUP2 SUB PUSH0 DUP4 ADD MSTORE PUSH2 0x153A DUP2 PUSH2 0x1501 JUMP JUMPDEST SWAP1 POP SWAP2 SWAP1 POP JUMP JUMPDEST PUSH0 PUSH2 0x154B DUP3 PUSH2 0xF98 JUMP JUMPDEST SWAP2 POP PUSH2 0x1556 DUP4 PUSH2 0xF98 JUMP JUMPDEST SWAP3 POP DUP3 DUP3 SUB SWAP1 POP DUP2 DUP2 GT ISZERO PUSH2 0x156E JUMPI PUSH2 0x156D PUSH2 0x13ED JUMP JUMPDEST JUMPDEST SWAP3 SWAP2 POP POP JUMP JUMPDEST PUSH0 DUP2 SLOAD SWAP1 POP PUSH2 0x1582 DUP2 PUSH2 0x1390 JUMP JUMPDEST SWAP1 POP SWAP2 SWAP1 POP JUMP JUMPDEST PUSH0 DUP2 SWAP1 POP DUP2 PUSH0 MSTORE PUSH1 0x20 PUSH0 KECCAK256 SWAP1 POP SWAP2 SWAP1 POP JUMP JUMPDEST PUSH0 PUSH1 0x20 PUSH1 0x1F DUP4 ADD DIV SWAP1 POP SWAP2 SWAP1 POP JUMP JUMPDEST PUSH0 DUP3 DUP3 SHL SWAP1 POP SWAP3 SWAP2 POP POP JUMP JUMPDEST PUSH0 PUSH1 0x8 DUP4 MUL PUSH2 0x15E5 PUSH32 0xFFFFFFFFFFFFFFFFFFFFFFFFFFFFFFFFFFFFFFFFFFFFFFFFFFFFFFFFFFFFFFFF DUP3 PUSH2 0x15AA JUMP JUMPDEST PUSH2 0x15EF DUP7 DUP4 PUSH2 0x15AA JUMP JUMPDEST SWAP6 POP DUP1 NOT DUP5 AND SWAP4 POP DUP1 DUP7 AND DUP5 OR SWAP3 POP POP POP SWAP4 SWAP3 POP POP POP JUMP JUMPDEST PUSH0 DUP2 SWAP1 POP SWAP2 SWAP1 POP JUMP JUMPDEST PUSH0 PUSH2 0x162A PUSH2 0x1625 PUSH2 0x1620 DUP5 PUSH2 0xF98 JUMP JUMPDEST PUSH2 0x1607 JUMP JUMPDEST PUSH2 0xF98 JUMP JUMPDEST SWAP1 POP SWAP2 SWAP1 POP JUMP JUMPDEST PUSH0 DUP2 SWAP1 POP SWAP2 SWAP1 POP JUMP JUMPDEST PUSH2 0x1643 DUP4 PUSH2 0x1610 JUMP JUMPDEST PUSH2 0x1657 PUSH2 0x164F DUP3 PUSH2 0x1631 JUMP JUMPDEST DUP5 DUP5 SLOAD PUSH2 0x15B6 JUMP JUMPDEST DUP3 SSTORE POP POP POP POP JUMP JUMPDEST PUSH0 PUSH0 SWAP1 POP SWAP1 JUMP JUMPDEST PUSH2 0x166E PUSH2 0x165F JUMP JUMPDEST PUSH2 0x1679 DUP2 DUP5 DUP5 PUSH2 0x163A JUMP JUMPDEST POP POP POP JUMP JUMPDEST JUMPDEST DUP2 DUP2 LT ISZERO PUSH2 0x169C JUMPI PUSH2 0x1691 PUSH0 DUP3 PUSH2 0x1666 JUMP JUMPDEST PUSH1 0x1 DUP2 ADD SWAP1 POP PUSH2 0x167F JUMP JUMPDEST POP POP JUMP JUMPDEST PUSH1 0x1F DUP3 GT ISZERO PUSH2 0x16E1 JUMPI PUSH2 0x16B2 DUP2 PUSH2 0x1589 JUMP JUMPDEST PUSH2 0x16BB DUP5 PUSH2 0x159B JUMP JUMPDEST DUP2 ADD PUSH1 0x20 DUP6 LT ISZERO PUSH2 0x16CA JUMPI DUP2 SWAP1 POP JUMPDEST PUSH2 0x16DE PUSH2 0x16D6 DUP6 PUSH2 0x159B JUMP JUMPDEST DUP4 ADD DUP3 PUSH2 0x167E JUMP JUMPDEST POP POP JUMPDEST POP POP POP JUMP JUMPDEST PUSH0 DUP3 DUP3 SHR SWAP1 POP SWAP3 SWAP2 POP POP JUMP JUMPDEST PUSH0 PUSH2 0x1701 PUSH0 NOT DUP5 PUSH1 0x8 MUL PUSH2 0x16E6 JUMP JUMPDEST NOT DUP1 DUP4 AND SWAP2 POP POP SWAP3 SWAP2 POP POP JUMP JUMPDEST PUSH0 PUSH2 0x1719 DUP4 DUP4 PUSH2 0x16F2 JUMP JUMPDEST SWAP2 POP DUP3 PUSH1 0x2 MUL DUP3 OR SWAP1 POP SWAP3 SWAP2 POP POP JUMP JUMPDEST DUP2 DUP2 SUB PUSH2 0x1737 JUMPI POP POP PUSH2 0x180C JUMP JUMPDEST PUSH2 0x1740 DUP3 PUSH2 0x1574 JUMP JUMPDEST PUSH8 0xFFFFFFFFFFFFFFFF DUP2 GT ISZERO PUSH2 0x1759 JUMPI PUSH2 0x1758 PUSH2 0x11F8 JUMP JUMPDEST JUMPDEST PUSH2 0x1763 DUP3 SLOAD PUSH2 0x1390 JUMP JUMPDEST PUSH2 0x176E DUP3 DUP3 DUP6 PUSH2 0x16A0 JUMP JUMPDEST PUSH0 PUSH1 0x1F DUP4 GT PUSH1 0x1 DUP2 EQ PUSH2 0x179B JUMPI PUSH0 DUP5 ISZERO PUSH2 0x1789 JUMPI DUP3 DUP8 ADD SLOAD SWAP1 POP JUMPDEST PUSH2 0x1793 DUP6 DUP3 PUSH2 0x170E JUMP JUMPDEST DUP7 SSTORE POP PUSH2 0x1805 JUMP JUMPDEST PUSH1 0x1F NOT DUP5 AND PUSH2 0x17A9 DUP8 PUSH2 0x1589 JUMP JUMPDEST SWAP7 POP PUSH2 0x17B4 DUP7 PUSH2 0x1589 JUMP JUMPDEST PUSH0 JUMPDEST DUP3 DUP2 LT ISZERO PUSH2 0x17DB JUMPI DUP5 DUP10 ADD SLOAD DUP3 SSTORE PUSH1 0x1 DUP3 ADD SWAP2 POP PUSH1 0x1 DUP6 ADD SWAP5 POP PUSH1 0x20 DUP2 ADD SWAP1 POP PUSH2 0x17B6 JUMP JUMPDEST DUP7 DUP4 LT ISZERO PUSH2 0x17F8 JUMPI DUP5 DUP10 ADD SLOAD PUSH2 0x17F4 PUSH1 0x1F DUP10 AND DUP3 PUSH2 0x16F2 JUMP JUMPDEST DUP4 SSTORE POP JUMPDEST PUSH1 0x1 PUSH1 0x2 DUP9 MUL ADD DUP9 SSTORE POP POP POP JUMPDEST POP POP POP POP POP POP JUMPDEST JUMP JUMPDEST PUSH32 0x4E487B7100000000000000000000000000000000000000000000000000000000 PUSH0 MSTORE PUSH1 0x31 PUSH1 0x4 MSTORE PUSH1 0x24 PUSH0 REVERT JUMPDEST PUSH32 0x5461736B2063616E6E6F7420626520656D707479000000000000000000000000 PUSH0 DUP3 ADD MSTORE POP JUMP JUMPDEST PUSH0 PUSH2 0x186F PUSH1 0x14 DUP4 PUSH2 0x1461 JUMP JUMPDEST SWAP2 POP PUSH2 0x187A DUP3 PUSH2 0x183B JUMP JUMPDEST PUSH1 0x20 DUP3 ADD SWAP1 POP SWAP2 SWAP1 POP JUMP JUMPDEST PUSH0 PUSH1 0x20 DUP3 ADD SWAP1 POP DUP2 DUP2 SUB PUSH0 DUP4 ADD MSTORE PUSH2 0x189C DUP2 PUSH2 0x1863 JUMP JUMPDEST SWAP1 POP SWAP2 SWAP1 POP JUMP JUMPDEST PUSH32 0x5461736B20746F6F206C6F6E6700000000000000000000000000000000000000 PUSH0 DUP3 ADD MSTORE POP JUMP JUMPDEST PUSH0 PUSH2 0x18D7 PUSH1 0xD DUP4 PUSH2 0x1461 JUMP JUMPDEST SWAP2 POP PUSH2 0x18E2 DUP3 PUSH2 0x18A3 JUMP JUMPDEST PUSH1 0x20 DUP3 ADD SWAP1 POP SWAP2 SWAP1 POP JUMP JUMPDEST PUSH0 PUSH1 0x20 DUP3 ADD SWAP1 POP DUP2 DUP2 SUB PUSH0 DUP4 ADD MSTORE PUSH2 0x1904 DUP2 PUSH2 0x18CB JUMP JUMPDEST SWAP1 POP SWAP2 SWAP1 POP JUMP JUMPDEST PUSH32 0x546F646F206C6973742069732066756C6C000000000000000000000000000000 PUSH0 DUP3 ADD MSTORE POP JUMP JUMPDEST PUSH0 PUSH2 0x193F PUSH1 0x11 DUP4 PUSH2 0x1461 JUMP JUMPDEST SWAP2 POP PUSH2 0x194A DUP3 PUSH2 0x190B JUMP JUMPDEST PUSH1 0x20 DUP3 ADD SWAP1 POP SWAP2 SWAP1 POP JUMP JUMPDEST PUSH0 PUSH1 0x20 DUP3 ADD SWAP1 POP DUP2 DUP2 SUB PUSH0 DUP4 ADD MSTORE PUSH2 0x196C DUP2 PUSH2 0x1933 JUMP JUMPDEST SWAP1 POP SWAP2 SWAP1 POP JUMP JUMPDEST PUSH2 0x197C DUP3 PUSH2 0xFF2 JUMP JUMPDEST PUSH8 0xFFFFFFFFFFFFFFFF DUP2 GT ISZERO PUSH2 0x1995 JUMPI PUSH2 0x1994 PUSH2 0x11F8 JUMP JUMPDEST JUMPDEST PUSH2 0x199F DUP3 SLOAD PUSH2 0x1390 JUMP JUMPDEST PUSH2 0x19AA DUP3 DUP3 DUP6 PUSH2 0x16A0 JUMP JUMPDEST PUSH0 PUSH1 0x20 SWAP1 POP PUSH1 0x1F DUP4 GT PUSH1 0x1 DUP2 EQ PUSH2 0x19DB JUMPI PUSH0 DUP5 ISZERO PUSH2 0x19C9 JUMPI DUP3 DUP8 ADD MLOAD SWAP1 POP JUMPDEST PUSH2 0x19D3 DUP6 DUP3 PUSH2 0x170E JUMP JUMPDEST DUP7 SSTORE POP PUSH2 0x1A3A JUMP JUMPDEST PUSH1 0x1F NOT DUP5 AND PUSH2 0x19E9 DUP7 PUSH2 0x1589 JUMP JUMPDEST PUSH0 JUMPDEST DUP3 DUP2 LT ISZERO PUSH2 0x1A10 JUMPI DUP5 DUP10 ADD MLOAD DUP3 SSTORE PUSH1 0x1 DUP3 ADD SWAP2 POP PUSH1 0x20 DUP6 ADD SWAP5 POP PUSH1 0x20 DUP2 ADD SWAP1 POP PUSH2 0x19EB JUMP JUMPDEST DUP7 DUP4 LT ISZERO PUSH2 0x1A2D JUMPI DUP5 DUP10 ADD MLOAD PUSH2 0x1A29 PUSH1 0x1F DUP10 AND DUP3 PUSH2 0x16F2 JUMP JUMPDEST DUP4 SSTORE POP JUMPDEST PUSH1 0x1 PUSH1 0x2 DUP9 MUL ADD DUP9 SSTORE POP POP POP JUMPDEST POP POP POP POP POP POP JUMP JUMPDEST PUSH0 PUSH2 0x1A4C DUP3 PUSH2 0xFF2 JUMP JUMPDEST PUSH2 0x1A56 DUP2 DUP6 PUSH2 0x1461 JUMP JUMPDEST SWAP4 POP PUSH2 0x1A66 DUP2 DUP6 PUSH1 0x20 DUP7 ADD PUSH2 0x100C JUMP JUMPDEST PUSH2 0x1A6F DUP2 PUSH2 0x101A JUMP JUMPDEST DUP5 ADD SWAP2 POP POP SWAP3 SWAP2 POP POP JUMP JUMPDEST PUSH0 PUSH1 0x40 DUP3 ADD SWAP1 POP PUSH2 0x1A8D PUSH0 DUP4 ADD DUP6 PUSH2 0xFA1 JUMP JUMPDEST DUP2 DUP2 SUB PUSH1 0x20 DUP4 ADD MSTORE PUSH2 0x1A9F DUP2 DUP5 PUSH2 0x1A42 JUMP JUMPDEST SWAP1 POP SWAP4 SWAP3 POP POP POP JUMP INVALID LOG2 PUSH5 0x6970667358 0x22 SLT KECCAK256 TLOAD SLT GASPRICE 0xAE DUP16 CALLDATALOAD RETURNDATACOPY RETURNDATACOPY PUSH4 0x5772A3E8 BLOBHASH PUSH7 0x6F2B778667C0CE TSTORE 0xB9 JUMPF 0xA256 0xDA EXTCODECOPY 0x25 ISZERO 0xC1 PUSH5 0x736F6C6343 STOP ADDMOD 0x1F STOP CALLER "
				},
				"gasEstimates": {
					"creation": {
						"codeDepositCost": "1375600",
						"executionCost": "1429",
						"totalCost": "1377029"
					},
					"external": {
						"MAX_TODOS()": "391",
						"addTodo(string)": "infinite",
						"completeTodo(uint256)": "infinite",
						"deleteTodo(uint256)": "infinite",
						"getAllTodos()": "infinite",
						"getCompletedTodos()": "infinite",
						"getPendingTodos()": "infinite",
						"getTodoCount()": "2527"
					}
				},
				"methodIdentifiers": {
					"MAX_TODOS()": "f141b153",
					"addTodo(string)": "95ffebf5",
					"completeTodo(uint256)": "20fe2144",
					"deleteTodo(uint256)": "6e3c6738",
					"getAllTodos()": "ce2bd5d5",
					"getCompletedTodos()": "10d41e82",
					"getPendingTodos()": "d7ba3d0a",
					"getTodoCount()": "104a7cd8"
				}
			},
			"storageLayout": {
				"storage": [
					{
						"astId": 14,
						"contract": "contracts/lesson3.1/TodoList.sol:TodoList",
						"label": "userTodos",
						"offset": 0,
						"slot": "0",
						"type": "t_mapping(t_address,t_array(t_struct(Todo)8_storage)dyn_storage)"
					}
				],
				"types": {
					"t_address": {
						"encoding": "inplace",
						"label": "address",
						"numberOfBytes": "20"
					},
					"t_array(t_struct(Todo)8_storage)dyn_storage": {
						"base": "t_struct(Todo)8_storage",
						"encoding": "dynamic_array",
						"label": "struct TodoList.Todo[]",
						"numberOfBytes": "32"
					},
					"t_bool": {
						"encoding": "inplace",
						"label": "bool",
						"numberOfBytes": "1"
					},
					"t_mapping(t_address,t_array(t_struct(Todo)8_storage)dyn_storage)": {
						"encoding": "mapping",
						"key": "t_address",
						"label": "mapping(address => struct TodoList.Todo[])",
						"numberOfBytes": "32",
						"value": "t_array(t_struct(Todo)8_storage)dyn_storage"
					},
					"t_string_storage": {
						"encoding": "bytes",
						"label": "string",
						"numberOfBytes": "32"
					},
					"t_struct(Todo)8_storage": {
						"encoding": "inplace",
						"label": "struct TodoList.Todo",
						"members": [
							{
								"astId": 3,
								"contract": "contracts/lesson3.1/TodoList.sol:TodoList",
								"label": "task",
								"offset": 0,
								"slot": "0",
								"type": "t_string_storage"
							},
							{
								"astId": 5,
								"contract": "contracts/lesson3.1/TodoList.sol:TodoList",
								"label": "completed",
								"offset": 0,
								"slot": "1",
								"type": "t_bool"
							},
							{
								"astId": 7,
								"contract": "contracts/lesson3.1/TodoList.sol:TodoList",
								"label": "timestamp",
								"offset": 0,
								"slot": "2",
								"type": "t_uint256"
							}
						],
						"numberOfBytes": "96"
					},
					"t_uint256": {
						"encoding": "inplace",
						"label": "uint256",
						"numberOfBytes": "32"
					}
				}
			},
			"userdoc": {
				"kind": "user",
				"methods": {},
				"version": 1
			}
		}
	}
}