{
	"contracts/lesson3.1/UnoptimizedCode.sol": {
		"UnoptimizedCode": {
			"abi": [
				{
					"inputs": [
						{
							"internalType": "uint256",
							"name": "",
							"type": "uint256"
						}
					],
					"name": "data",
					"outputs": [
						{
							"internalType": "uint256",
							"name": "",
							"type": "uint256"
						}
					],
					"stateMutability": "view",
					"type": "function"
				},
				{
					"inputs": [
						{
							"internalType": "uint256[]",
							"name": "values",
							"type": "uint256[]"
						}
					],
					"name": "process",
					"outputs": [],
					"stateMutability": "nonpayable",
					"type": "function"
				}
			],
			"devdoc": {
				"kind": "dev",
				"methods": {},
				"version": 1
			},
			"evm": {
				"assembly": "    /* \"contracts/lesson3.1/UnoptimizedCode.sol\":57:854  contract UnoptimizedCode {... */\n  mstore(0x40, 0x80)\n  callvalue\n  dup1\n  iszero\n  tag_1\n  jumpi\n  revert(0x00, 0x00)\ntag_1:\n  pop\n  dataSize(sub_0)\n  dup1\n  dataOffset(sub_0)\n  0x00\n  codecopy\n  0x00\n  return\nstop\n\nsub_0: assembly {\n        /* \"contracts/lesson3.1/UnoptimizedCode.sol\":57:854  contract UnoptimizedCode {... */\n      mstore(0x40, 0x80)\n      callvalue\n      dup1\n      iszero\n      tag_1\n      jumpi\n      revert(0x00, 0x00)\n    tag_1:\n      pop\n      jumpi(tag_2, lt(calldatasize, 0x04))\n      shr(0xe0, calldataload(0x00))\n      dup1\n      0xe2744a81\n      eq\n      tag_3\n      jumpi\n      dup1\n      0xf0ba8440\n      eq\n      tag_4\n      jumpi\n    tag_2:\n      revert(0x00, 0x00)\n        /* \"contracts/lesson3.1/UnoptimizedCode.sol\":113:852  function process(uint[] calldata values) external {... */\n    tag_3:\n      tag_5\n      0x04\n      dup1\n      calldatasize\n      sub\n      dup2\n      add\n      swap1\n      tag_6\n      swap2\n      swap1\n      tag_7\n      jump\t// in\n    tag_6:\n      tag_8\n      jump\t// in\n    tag_5:\n      stop\n        /* \"contracts/lesson3.1/UnoptimizedCode.sol\":88:106  uint[] public data */\n    tag_4:\n      tag_9\n      0x04\n      dup1\n      calldatasize\n      sub\n      dup2\n      add\n      swap1\n      tag_10\n      swap2\n      swap1\n      tag_11\n      jump\t// in\n    tag_10:\n      tag_12\n      jump\t// in\n    tag_9:\n      mload(0x40)\n      tag_13\n      swap2\n      swap1\n      tag_14\n      jump\t// in\n    tag_13:\n      mload(0x40)\n      dup1\n      swap2\n      sub\n      swap1\n      return\n        /* \"contracts/lesson3.1/UnoptimizedCode.sol\":113:852  function process(uint[] calldata values) external {... */\n    tag_8:\n        /* \"contracts/lesson3.1/UnoptimizedCode.sol\":173:181  uint len */\n      0x00\n        /* \"contracts/lesson3.1/UnoptimizedCode.sol\":184:190  values */\n      dup3\n      dup3\n        /* \"contracts/lesson3.1/UnoptimizedCode.sol\":184:197  values.length */\n      swap1\n      pop\n        /* \"contracts/lesson3.1/UnoptimizedCode.sol\":173:197  uint len = values.length */\n      swap1\n      pop\n        /* \"contracts/lesson3.1/UnoptimizedCode.sol\":207:222  uint currentLen */\n      0x00\n        /* \"contracts/lesson3.1/UnoptimizedCode.sol\":225:229  data */\n      0x00\n        /* \"contracts/lesson3.1/UnoptimizedCode.sol\":225:236  data.length */\n      dup1\n      sload\n      swap1\n      pop\n        /* \"contracts/lesson3.1/UnoptimizedCode.sol\":207:236  uint currentLen = data.length */\n      swap1\n      pop\n        /* \"contracts/lesson3.1/UnoptimizedCode.sol\":246:256  uint count */\n      0x00\n        /* \"contracts/lesson3.1/UnoptimizedCode.sol\":259:260  0 */\n      0x00\n        /* \"contracts/lesson3.1/UnoptimizedCode.sol\":246:260  uint count = 0 */\n      swap1\n      pop\n        /* \"contracts/lesson3.1/UnoptimizedCode.sol\":276:282  uint i */\n      0x00\n        /* \"contracts/lesson3.1/UnoptimizedCode.sol\":285:286  0 */\n      0x00\n        /* \"contracts/lesson3.1/UnoptimizedCode.sol\":276:286  uint i = 0 */\n      swap1\n      pop\n        /* \"contracts/lesson3.1/UnoptimizedCode.sol\":271:386  for (uint i = 0; i < len; i++) {... */\n    tag_16:\n        /* \"contracts/lesson3.1/UnoptimizedCode.sol\":292:295  len */\n      dup4\n        /* \"contracts/lesson3.1/UnoptimizedCode.sol\":288:289  i */\n      dup2\n        /* \"contracts/lesson3.1/UnoptimizedCode.sol\":288:295  i < len */\n      lt\n        /* \"contracts/lesson3.1/UnoptimizedCode.sol\":271:386  for (uint i = 0; i < len; i++) {... */\n      iszero\n      tag_17\n      jumpi\n        /* \"contracts/lesson3.1/UnoptimizedCode.sol\":332:334  10 */\n      0x0a\n        /* \"contracts/lesson3.1/UnoptimizedCode.sol\":320:326  values */\n      dup7\n      dup7\n        /* \"contracts/lesson3.1/UnoptimizedCode.sol\":327:328  i */\n      dup4\n        /* \"contracts/lesson3.1/UnoptimizedCode.sol\":320:329  values[i] */\n      dup2\n      dup2\n      lt\n      tag_19\n      jumpi\n      tag_20\n      tag_21\n      jump\t// in\n    tag_20:\n    tag_19:\n      swap1\n      pop\n      0x20\n      mul\n      add\n      calldataload\n        /* \"contracts/lesson3.1/UnoptimizedCode.sol\":320:334  values[i] > 10 */\n      gt\n        /* \"contracts/lesson3.1/UnoptimizedCode.sol\":316:376  if (values[i] > 10) {... */\n      iszero\n      tag_22\n      jumpi\n        /* \"contracts/lesson3.1/UnoptimizedCode.sol\":354:361  count++ */\n      dup2\n      dup1\n      tag_23\n      swap1\n      tag_24\n      jump\t// in\n    tag_23:\n      swap3\n      pop\n      pop\n        /* \"contracts/lesson3.1/UnoptimizedCode.sol\":316:376  if (values[i] > 10) {... */\n    tag_22:\n        /* \"contracts/lesson3.1/UnoptimizedCode.sol\":297:300  i++ */\n      dup1\n      dup1\n      0x01\n      add\n      swap2\n      pop\n      pop\n        /* \"contracts/lesson3.1/UnoptimizedCode.sol\":271:386  for (uint i = 0; i < len; i++) {... */\n      jump(tag_16)\n    tag_17:\n      pop\n        /* \"contracts/lesson3.1/UnoptimizedCode.sol\":408:409  0 */\n      0x00\n        /* \"contracts/lesson3.1/UnoptimizedCode.sol\":400:405  count */\n      dup2\n        /* \"contracts/lesson3.1/UnoptimizedCode.sol\":400:409  count > 0 */\n      gt\n        /* \"contracts/lesson3.1/UnoptimizedCode.sol\":396:846  if (count > 0) {... */\n      iszero\n      tag_25\n      jumpi\n        /* \"contracts/lesson3.1/UnoptimizedCode.sol\":425:436  uint newLen */\n      0x00\n        /* \"contracts/lesson3.1/UnoptimizedCode.sol\":452:457  count */\n      dup2\n        /* \"contracts/lesson3.1/UnoptimizedCode.sol\":439:449  currentLen */\n      dup4\n        /* \"contracts/lesson3.1/UnoptimizedCode.sol\":439:457  currentLen + count */\n      tag_26\n      swap2\n      swap1\n      tag_27\n      jump\t// in\n    tag_26:\n        /* \"contracts/lesson3.1/UnoptimizedCode.sol\":425:457  uint newLen = currentLen + count */\n      swap1\n      pop\n        /* \"contracts/lesson3.1/UnoptimizedCode.sol\":588:594  newLen */\n      dup1\n        /* \"contracts/lesson3.1/UnoptimizedCode.sol\":584:585  0 */\n      0x00\n        /* \"contracts/lesson3.1/UnoptimizedCode.sol\":573:582  data.slot */\n      0x00\n        /* \"contracts/lesson3.1/UnoptimizedCode.sol\":569:586  add(data.slot, 0) */\n      add\n        /* \"contracts/lesson3.1/UnoptimizedCode.sol\":562:595  sstore(add(data.slot, 0), newLen) */\n      sstore\n        /* \"contracts/lesson3.1/UnoptimizedCode.sol\":623:633  uint index */\n      0x00\n        /* \"contracts/lesson3.1/UnoptimizedCode.sol\":636:646  currentLen */\n      dup4\n        /* \"contracts/lesson3.1/UnoptimizedCode.sol\":623:646  uint index = currentLen */\n      swap1\n      pop\n        /* \"contracts/lesson3.1/UnoptimizedCode.sol\":665:671  uint i */\n      0x00\n        /* \"contracts/lesson3.1/UnoptimizedCode.sol\":674:675  0 */\n      0x00\n        /* \"contracts/lesson3.1/UnoptimizedCode.sol\":665:675  uint i = 0 */\n      swap1\n      pop\n        /* \"contracts/lesson3.1/UnoptimizedCode.sol\":660:836  for (uint i = 0; i < len; i++) {... */\n    tag_28:\n        /* \"contracts/lesson3.1/UnoptimizedCode.sol\":681:684  len */\n      dup6\n        /* \"contracts/lesson3.1/UnoptimizedCode.sol\":677:678  i */\n      dup2\n        /* \"contracts/lesson3.1/UnoptimizedCode.sol\":677:684  i < len */\n      lt\n        /* \"contracts/lesson3.1/UnoptimizedCode.sol\":660:836  for (uint i = 0; i < len; i++) {... */\n      iszero\n      tag_29\n      jumpi\n        /* \"contracts/lesson3.1/UnoptimizedCode.sol\":725:727  10 */\n      0x0a\n        /* \"contracts/lesson3.1/UnoptimizedCode.sol\":713:719  values */\n      dup9\n      dup9\n        /* \"contracts/lesson3.1/UnoptimizedCode.sol\":720:721  i */\n      dup4\n        /* \"contracts/lesson3.1/UnoptimizedCode.sol\":713:722  values[i] */\n      dup2\n      dup2\n      lt\n      tag_31\n      jumpi\n      tag_32\n      tag_21\n      jump\t// in\n    tag_32:\n    tag_31:\n      swap1\n      pop\n      0x20\n      mul\n      add\n      calldataload\n        /* \"contracts/lesson3.1/UnoptimizedCode.sol\":713:727  values[i] > 10 */\n      gt\n        /* \"contracts/lesson3.1/UnoptimizedCode.sol\":709:822  if (values[i] > 10) {... */\n      iszero\n      tag_33\n      jumpi\n        /* \"contracts/lesson3.1/UnoptimizedCode.sol\":765:771  values */\n      dup8\n      dup8\n        /* \"contracts/lesson3.1/UnoptimizedCode.sol\":772:773  i */\n      dup3\n        /* \"contracts/lesson3.1/UnoptimizedCode.sol\":765:774  values[i] */\n      dup2\n      dup2\n      lt\n      tag_34\n      jumpi\n      tag_35\n      tag_21\n      jump\t// in\n    tag_35:\n    tag_34:\n      swap1\n      pop\n      0x20\n      mul\n      add\n      calldataload\n        /* \"contracts/lesson3.1/UnoptimizedCode.sol\":751:755  data */\n      0x00\n        /* \"contracts/lesson3.1/UnoptimizedCode.sol\":756:761  index */\n      dup4\n        /* \"contracts/lesson3.1/UnoptimizedCode.sol\":751:762  data[index] */\n      dup2\n      sload\n      dup2\n      lt\n      tag_36\n      jumpi\n      tag_37\n      tag_21\n      jump\t// in\n    tag_37:\n    tag_36:\n      swap1\n      0x00\n      mstore\n      keccak256(0x00, 0x20)\n      add\n        /* \"contracts/lesson3.1/UnoptimizedCode.sol\":751:774  data[index] = values[i] */\n      dup2\n      swap1\n      sstore\n      pop\n        /* \"contracts/lesson3.1/UnoptimizedCode.sol\":796:803  index++ */\n      dup2\n      dup1\n      tag_39\n      swap1\n      tag_24\n      jump\t// in\n    tag_39:\n      swap3\n      pop\n      pop\n        /* \"contracts/lesson3.1/UnoptimizedCode.sol\":709:822  if (values[i] > 10) {... */\n    tag_33:\n        /* \"contracts/lesson3.1/UnoptimizedCode.sol\":686:689  i++ */\n      dup1\n      dup1\n      0x01\n      add\n      swap2\n      pop\n      pop\n        /* \"contracts/lesson3.1/UnoptimizedCode.sol\":660:836  for (uint i = 0; i < len; i++) {... */\n      jump(tag_28)\n    tag_29:\n      pop\n        /* \"contracts/lesson3.1/UnoptimizedCode.sol\":411:846  {... */\n      pop\n      pop\n        /* \"contracts/lesson3.1/UnoptimizedCode.sol\":396:846  if (count > 0) {... */\n    tag_25:\n        /* \"contracts/lesson3.1/UnoptimizedCode.sol\":163:852  {... */\n      pop\n      pop\n      pop\n        /* \"contracts/lesson3.1/UnoptimizedCode.sol\":113:852  function process(uint[] calldata values) external {... */\n      pop\n      pop\n      jump\t// out\n        /* \"contracts/lesson3.1/UnoptimizedCode.sol\":88:106  uint[] public data */\n    tag_12:\n      0x00\n      dup2\n      dup2\n      sload\n      dup2\n      lt\n      tag_40\n      jumpi\n      0x00\n      dup1\n      revert\n    tag_40:\n      swap1\n      0x00\n      mstore\n      keccak256(0x00, 0x20)\n      add\n      0x00\n      swap2\n      pop\n      swap1\n      pop\n      sload\n      dup2\n      jump\t// out\n        /* \"#utility.yul\":88:205   */\n    tag_43:\n        /* \"#utility.yul\":197:198   */\n      0x00\n        /* \"#utility.yul\":194:195   */\n      0x00\n        /* \"#utility.yul\":187:199   */\n      revert\n        /* \"#utility.yul\":211:328   */\n    tag_44:\n        /* \"#utility.yul\":320:321   */\n      0x00\n        /* \"#utility.yul\":317:318   */\n      0x00\n        /* \"#utility.yul\":310:322   */\n      revert\n        /* \"#utility.yul\":334:451   */\n    tag_45:\n        /* \"#utility.yul\":443:444   */\n      0x00\n        /* \"#utility.yul\":440:441   */\n      0x00\n        /* \"#utility.yul\":433:445   */\n      revert\n        /* \"#utility.yul\":457:574   */\n    tag_46:\n        /* \"#utility.yul\":566:567   */\n      0x00\n        /* \"#utility.yul\":563:564   */\n      0x00\n        /* \"#utility.yul\":556:568   */\n      revert\n        /* \"#utility.yul\":580:697   */\n    tag_47:\n        /* \"#utility.yul\":689:690   */\n      0x00\n        /* \"#utility.yul\":686:687   */\n      0x00\n        /* \"#utility.yul\":679:691   */\n      revert\n        /* \"#utility.yul\":720:1288   */\n    tag_48:\n        /* \"#utility.yul\":793:801   */\n      0x00\n        /* \"#utility.yul\":803:809   */\n      0x00\n        /* \"#utility.yul\":853:856   */\n      dup4\n        /* \"#utility.yul\":846:850   */\n      0x1f\n        /* \"#utility.yul\":838:844   */\n      dup5\n        /* \"#utility.yul\":834:851   */\n      add\n        /* \"#utility.yul\":830:857   */\n      slt\n        /* \"#utility.yul\":820:942   */\n      tag_62\n      jumpi\n        /* \"#utility.yul\":861:940   */\n      tag_63\n      tag_45\n      jump\t// in\n    tag_63:\n        /* \"#utility.yul\":820:942   */\n    tag_62:\n        /* \"#utility.yul\":974:980   */\n      dup3\n        /* \"#utility.yul\":961:981   */\n      calldataload\n        /* \"#utility.yul\":951:981   */\n      swap1\n      pop\n        /* \"#utility.yul\":1004:1022   */\n      0xffffffffffffffff\n        /* \"#utility.yul\":996:1002   */\n      dup2\n        /* \"#utility.yul\":993:1023   */\n      gt\n        /* \"#utility.yul\":990:1107   */\n      iszero\n      tag_64\n      jumpi\n        /* \"#utility.yul\":1026:1105   */\n      tag_65\n      tag_46\n      jump\t// in\n    tag_65:\n        /* \"#utility.yul\":990:1107   */\n    tag_64:\n        /* \"#utility.yul\":1140:1144   */\n      0x20\n        /* \"#utility.yul\":1132:1138   */\n      dup4\n        /* \"#utility.yul\":1128:1145   */\n      add\n        /* \"#utility.yul\":1116:1145   */\n      swap2\n      pop\n        /* \"#utility.yul\":1194:1197   */\n      dup4\n        /* \"#utility.yul\":1186:1190   */\n      0x20\n        /* \"#utility.yul\":1178:1184   */\n      dup3\n        /* \"#utility.yul\":1174:1191   */\n      mul\n        /* \"#utility.yul\":1164:1172   */\n      dup4\n        /* \"#utility.yul\":1160:1192   */\n      add\n        /* \"#utility.yul\":1157:1198   */\n      gt\n        /* \"#utility.yul\":1154:1282   */\n      iszero\n      tag_66\n      jumpi\n        /* \"#utility.yul\":1201:1280   */\n      tag_67\n      tag_47\n      jump\t// in\n    tag_67:\n        /* \"#utility.yul\":1154:1282   */\n    tag_66:\n        /* \"#utility.yul\":720:1288   */\n      swap3\n      pop\n      swap3\n      swap1\n      pop\n      jump\t// out\n        /* \"#utility.yul\":1294:1853   */\n    tag_7:\n        /* \"#utility.yul\":1380:1386   */\n      0x00\n        /* \"#utility.yul\":1388:1394   */\n      0x00\n        /* \"#utility.yul\":1437:1439   */\n      0x20\n        /* \"#utility.yul\":1425:1434   */\n      dup4\n        /* \"#utility.yul\":1416:1423   */\n      dup6\n        /* \"#utility.yul\":1412:1435   */\n      sub\n        /* \"#utility.yul\":1408:1440   */\n      slt\n        /* \"#utility.yul\":1405:1524   */\n      iszero\n      tag_69\n      jumpi\n        /* \"#utility.yul\":1443:1522   */\n      tag_70\n      tag_43\n      jump\t// in\n    tag_70:\n        /* \"#utility.yul\":1405:1524   */\n    tag_69:\n        /* \"#utility.yul\":1591:1592   */\n      0x00\n        /* \"#utility.yul\":1580:1589   */\n      dup4\n        /* \"#utility.yul\":1576:1593   */\n      add\n        /* \"#utility.yul\":1563:1594   */\n      calldataload\n        /* \"#utility.yul\":1621:1639   */\n      0xffffffffffffffff\n        /* \"#utility.yul\":1613:1619   */\n      dup2\n        /* \"#utility.yul\":1610:1640   */\n      gt\n        /* \"#utility.yul\":1607:1724   */\n      iszero\n      tag_71\n      jumpi\n        /* \"#utility.yul\":1643:1722   */\n      tag_72\n      tag_44\n      jump\t// in\n    tag_72:\n        /* \"#utility.yul\":1607:1724   */\n    tag_71:\n        /* \"#utility.yul\":1756:1836   */\n      tag_73\n        /* \"#utility.yul\":1828:1835   */\n      dup6\n        /* \"#utility.yul\":1819:1825   */\n      dup3\n        /* \"#utility.yul\":1808:1817   */\n      dup7\n        /* \"#utility.yul\":1804:1826   */\n      add\n        /* \"#utility.yul\":1756:1836   */\n      tag_48\n      jump\t// in\n    tag_73:\n        /* \"#utility.yul\":1738:1836   */\n      swap3\n      pop\n      swap3\n      pop\n        /* \"#utility.yul\":1534:1846   */\n      pop\n        /* \"#utility.yul\":1294:1853   */\n      swap3\n      pop\n      swap3\n      swap1\n      pop\n      jump\t// out\n        /* \"#utility.yul\":1859:1936   */\n    tag_49:\n        /* \"#utility.yul\":1896:1903   */\n      0x00\n        /* \"#utility.yul\":1925:1930   */\n      dup2\n        /* \"#utility.yul\":1914:1930   */\n      swap1\n      pop\n        /* \"#utility.yul\":1859:1936   */\n      swap2\n      swap1\n      pop\n      jump\t// out\n        /* \"#utility.yul\":1942:2064   */\n    tag_50:\n        /* \"#utility.yul\":2015:2039   */\n      tag_76\n        /* \"#utility.yul\":2033:2038   */\n      dup2\n        /* \"#utility.yul\":2015:2039   */\n      tag_49\n      jump\t// in\n    tag_76:\n        /* \"#utility.yul\":2008:2013   */\n      dup2\n        /* \"#utility.yul\":2005:2040   */\n      eq\n        /* \"#utility.yul\":1995:2058   */\n      tag_77\n      jumpi\n        /* \"#utility.yul\":2054:2055   */\n      0x00\n        /* \"#utility.yul\":2051:2052   */\n      0x00\n        /* \"#utility.yul\":2044:2056   */\n      revert\n        /* \"#utility.yul\":1995:2058   */\n    tag_77:\n        /* \"#utility.yul\":1942:2064   */\n      pop\n      jump\t// out\n        /* \"#utility.yul\":2070:2209   */\n    tag_51:\n        /* \"#utility.yul\":2116:2121   */\n      0x00\n        /* \"#utility.yul\":2154:2160   */\n      dup2\n        /* \"#utility.yul\":2141:2161   */\n      calldataload\n        /* \"#utility.yul\":2132:2161   */\n      swap1\n      pop\n        /* \"#utility.yul\":2170:2203   */\n      tag_79\n        /* \"#utility.yul\":2197:2202   */\n      dup2\n        /* \"#utility.yul\":2170:2203   */\n      tag_50\n      jump\t// in\n    tag_79:\n        /* \"#utility.yul\":2070:2209   */\n      swap3\n      swap2\n      pop\n      pop\n      jump\t// out\n        /* \"#utility.yul\":2215:2544   */\n    tag_11:\n        /* \"#utility.yul\":2274:2280   */\n      0x00\n        /* \"#utility.yul\":2323:2325   */\n      0x20\n        /* \"#utility.yul\":2311:2320   */\n      dup3\n        /* \"#utility.yul\":2302:2309   */\n      dup5\n        /* \"#utility.yul\":2298:2321   */\n      sub\n        /* \"#utility.yul\":2294:2326   */\n      slt\n        /* \"#utility.yul\":2291:2410   */\n      iszero\n      tag_81\n      jumpi\n        /* \"#utility.yul\":2329:2408   */\n      tag_82\n      tag_43\n      jump\t// in\n    tag_82:\n        /* \"#utility.yul\":2291:2410   */\n    tag_81:\n        /* \"#utility.yul\":2449:2450   */\n      0x00\n        /* \"#utility.yul\":2474:2527   */\n      tag_83\n        /* \"#utility.yul\":2519:2526   */\n      dup5\n        /* \"#utility.yul\":2510:2516   */\n      dup3\n        /* \"#utility.yul\":2499:2508   */\n      dup6\n        /* \"#utility.yul\":2495:2517   */\n      add\n        /* \"#utility.yul\":2474:2527   */\n      tag_51\n      jump\t// in\n    tag_83:\n        /* \"#utility.yul\":2464:2527   */\n      swap2\n      pop\n        /* \"#utility.yul\":2420:2537   */\n      pop\n        /* \"#utility.yul\":2215:2544   */\n      swap3\n      swap2\n      pop\n      pop\n      jump\t// out\n        /* \"#utility.yul\":2550:2668   */\n    tag_52:\n        /* \"#utility.yul\":2637:2661   */\n      tag_85\n        /* \"#utility.yul\":2655:2660   */\n      dup2\n        /* \"#utility.yul\":2637:2661   */\n      tag_49\n      jump\t// in\n    tag_85:\n        /* \"#utility.yul\":2632:2635   */\n      dup3\n        /* \"#utility.yul\":2625:2662   */\n      mstore\n        /* \"#utility.yul\":2550:2668   */\n      pop\n      pop\n      jump\t// out\n        /* \"#utility.yul\":2674:2896   */\n    tag_14:\n        /* \"#utility.yul\":2767:2771   */\n      0x00\n        /* \"#utility.yul\":2805:2807   */\n      0x20\n        /* \"#utility.yul\":2794:2803   */\n      dup3\n        /* \"#utility.yul\":2790:2808   */\n      add\n        /* \"#utility.yul\":2782:2808   */\n      swap1\n      pop\n        /* \"#utility.yul\":2818:2889   */\n      tag_87\n        /* \"#utility.yul\":2886:2887   */\n      0x00\n        /* \"#utility.yul\":2875:2884   */\n      dup4\n        /* \"#utility.yul\":2871:2888   */\n      add\n        /* \"#utility.yul\":2862:2868   */\n      dup5\n        /* \"#utility.yul\":2818:2889   */\n      tag_52\n      jump\t// in\n    tag_87:\n        /* \"#utility.yul\":2674:2896   */\n      swap3\n      swap2\n      pop\n      pop\n      jump\t// out\n        /* \"#utility.yul\":2902:3082   */\n    tag_21:\n        /* \"#utility.yul\":2950:3027   */\n      0x4e487b7100000000000000000000000000000000000000000000000000000000\n        /* \"#utility.yul\":2947:2948   */\n      0x00\n        /* \"#utility.yul\":2940:3028   */\n      mstore\n        /* \"#utility.yul\":3047:3051   */\n      0x32\n        /* \"#utility.yul\":3044:3045   */\n      0x04\n        /* \"#utility.yul\":3037:3052   */\n      mstore\n        /* \"#utility.yul\":3071:3075   */\n      0x24\n        /* \"#utility.yul\":3068:3069   */\n      0x00\n        /* \"#utility.yul\":3061:3076   */\n      revert\n        /* \"#utility.yul\":3088:3268   */\n    tag_53:\n        /* \"#utility.yul\":3136:3213   */\n      0x4e487b7100000000000000000000000000000000000000000000000000000000\n        /* \"#utility.yul\":3133:3134   */\n      0x00\n        /* \"#utility.yul\":3126:3214   */\n      mstore\n        /* \"#utility.yul\":3233:3237   */\n      0x11\n        /* \"#utility.yul\":3230:3231   */\n      0x04\n        /* \"#utility.yul\":3223:3238   */\n      mstore\n        /* \"#utility.yul\":3257:3261   */\n      0x24\n        /* \"#utility.yul\":3254:3255   */\n      0x00\n        /* \"#utility.yul\":3247:3262   */\n      revert\n        /* \"#utility.yul\":3274:3507   */\n    tag_24:\n        /* \"#utility.yul\":3313:3316   */\n      0x00\n        /* \"#utility.yul\":3336:3360   */\n      tag_91\n        /* \"#utility.yul\":3354:3359   */\n      dup3\n        /* \"#utility.yul\":3336:3360   */\n      tag_49\n      jump\t// in\n    tag_91:\n        /* \"#utility.yul\":3327:3360   */\n      swap2\n      pop\n        /* \"#utility.yul\":3382:3448   */\n      0xffffffffffffffffffffffffffffffffffffffffffffffffffffffffffffffff\n        /* \"#utility.yul\":3375:3380   */\n      dup3\n        /* \"#utility.yul\":3372:3449   */\n      sub\n        /* \"#utility.yul\":3369:3472   */\n      tag_92\n      jumpi\n        /* \"#utility.yul\":3452:3470   */\n      tag_93\n      tag_53\n      jump\t// in\n    tag_93:\n        /* \"#utility.yul\":3369:3472   */\n    tag_92:\n        /* \"#utility.yul\":3499:3500   */\n      0x01\n        /* \"#utility.yul\":3492:3497   */\n      dup3\n        /* \"#utility.yul\":3488:3501   */\n      add\n        /* \"#utility.yul\":3481:3501   */\n      swap1\n      pop\n        /* \"#utility.yul\":3274:3507   */\n      swap2\n      swap1\n      pop\n      jump\t// out\n        /* \"#utility.yul\":3513:3704   */\n    tag_27:\n        /* \"#utility.yul\":3553:3556   */\n      0x00\n        /* \"#utility.yul\":3572:3592   */\n      tag_95\n        /* \"#utility.yul\":3590:3591   */\n      dup3\n        /* \"#utility.yul\":3572:3592   */\n      tag_49\n      jump\t// in\n    tag_95:\n        /* \"#utility.yul\":3567:3592   */\n      swap2\n      pop\n        /* \"#utility.yul\":3606:3626   */\n      tag_96\n        /* \"#utility.yul\":3624:3625   */\n      dup4\n        /* \"#utility.yul\":3606:3626   */\n      tag_49\n      jump\t// in\n    tag_96:\n        /* \"#utility.yul\":3601:3626   */\n      swap3\n      pop\n        /* \"#utility.yul\":3649:3650   */\n      dup3\n        /* \"#utility.yul\":3646:3647   */\n      dup3\n        /* \"#utility.yul\":3642:3651   */\n      add\n        /* \"#utility.yul\":3635:3651   */\n      swap1\n      pop\n        /* \"#utility.yul\":3670:3673   */\n      dup1\n        /* \"#utility.yul\":3667:3668   */\n      dup3\n        /* \"#utility.yul\":3664:3674   */\n      gt\n        /* \"#utility.yul\":3661:3697   */\n      iszero\n      tag_97\n      jumpi\n        /* \"#utility.yul\":3677:3695   */\n      tag_98\n      tag_53\n      jump\t// in\n    tag_98:\n        /* \"#utility.yul\":3661:3697   */\n    tag_97:\n        /* \"#utility.yul\":3513:3704   */\n      swap3\n      swap2\n      pop\n      pop\n      jump\t// out\n\n    auxdata: 0xa2646970667358221220508f0b4d5656b9c7fe334f3a277b7243f21ebf95c3f84fbb7130e9a4571fe9b164736f6c634300081f0033\n}\n",
				"bytecode": {
					"linkReferences": {},
					"object": "6080604052348015600e575f5ffd5b506103f58061001c5f395ff3fe608060405234801561000f575f5ffd5b5060043610610034575f3560e01c8063e2744a8114610038578063f0ba844014610054575b5f5ffd5b610052600480360381019061004d919061021a565b610084565b005b61006e60048036038101906100699190610298565b610192565b60405161007b91906102d2565b60405180910390f35b5f8282905090505f5f8054905090505f5f90505f5f90505b838110156100e257600a8686838181106100b9576100b86102eb565b5b9050602002013511156100d55781806100d190610345565b9250505b808060010191505061009c565b505f81111561018b575f81836100f8919061038c565b9050805f5f01555f8390505f5f90505b8581101561018757600a888883818110610125576101246102eb565b5b90506020020135111561017a57878782818110610145576101446102eb565b5b905060200201355f838154811061015f5761015e6102eb565b5b905f5260205f200181905550818061017690610345565b9250505b8080600101915050610108565b5050505b5050505050565b5f81815481106101a0575f80fd5b905f5260205f20015f915090505481565b5f5ffd5b5f5ffd5b5f5ffd5b5f5ffd5b5f5ffd5b5f5f83601f8401126101da576101d96101b9565b5b8235905067ffffffffffffffff8111156101f7576101f66101bd565b5b602083019150836020820283011115610213576102126101c1565b5b9250929050565b5f5f602083850312156102305761022f6101b1565b5b5f83013567ffffffffffffffff81111561024d5761024c6101b5565b5b610259858286016101c5565b92509250509250929050565b5f819050919050565b61027781610265565b8114610281575f5ffd5b50565b5f813590506102928161026e565b92915050565b5f602082840312156102ad576102ac6101b1565b5b5f6102ba84828501610284565b91505092915050565b6102cc81610265565b82525050565b5f6020820190506102e55f8301846102c3565b92915050565b7f4e487b71000000000000000000000000000000000000000000000000000000005f52603260045260245ffd5b7f4e487b71000000000000000000000000000000000000000000000000000000005f52601160045260245ffd5b5f61034f82610265565b91507fffffffffffffffffffffffffffffffffffffffffffffffffffffffffffffffff820361038157610380610318565b5b600182019050919050565b5f61039682610265565b91506103a183610265565b92508282019050808211156103b9576103b8610318565b5b9291505056fea2646970667358221220508f0b4d5656b9c7fe334f3a277b7243f21ebf95c3f84fbb7130e9a4571fe9b164736f6c634300081f0033",
					"opcodes": "PUSH1 0x80 PUSH1 0x40 MSTORE CALLVALUE DUP1 ISZERO PUSH1 0xE JUMPI PUSH0 PUSH0 REVERT JUMPDEST POP PUSH2 0x3F5 DUP1 PUSH2 0x1C PUSH0 CODECOPY PUSH0 RETURN INVALID PUSH1 0x80 PUSH1 0x40 MSTORE CALLVALUE DUP1 ISZERO PUSH2 0xF JUMPI PUSH0 PUSH0 REVERT JUMPDEST POP PUSH1 0x4 CALLDATASIZE LT PUSH2 0x34 JUMPI PUSH0 CALLDATALOAD PUSH1 0xE0 SHR DUP1 PUSH4 0xE2744A81 EQ PUSH2 0x38 JUMPI DUP1 PUSH4 0xF0BA8440 EQ PUSH2 0x54 JUMPI JUMPDEST PUSH0 PUSH0 REVERT JUMPDEST PUSH2 0x52 PUSH1 0x4 DUP1 CALLDATASIZE SUB DUP2 ADD SWAP1 PUSH2 0x4D SWAP2 SWAP1 PUSH2 0x21A JUMP JUMPDEST PUSH2 0x84 JUMP JUMPDEST STOP JUMPDEST PUSH2 0x6E PUSH1 0x4 DUP1 CALLDATASIZE SUB DUP2 ADD SWAP1 PUSH2 0x69 SWAP2 SWAP1 PUSH2 0x298 JUMP JUMPDEST PUSH2 0x192 JUMP JUMPDEST PUSH1 0x40 MLOAD PUSH2 0x7B SWAP2 SWAP1 PUSH2 0x2D2 JUMP JUMPDEST PUSH1 0x40 MLOAD DUP1 SWAP2 SUB SWAP1 RETURN JUMPDEST PUSH0 DUP3 DUP3 SWAP1 POP SWAP1 POP PUSH0 PUSH0 DUP1 SLOAD SWAP1 POP SWAP1 POP PUSH0 PUSH0 SWAP1 POP PUSH0 PUSH0 SWAP1 POP JUMPDEST DUP4 DUP2 LT ISZERO PUSH2 0xE2 JUMPI PUSH1 0xA DUP7 DUP7 DUP4 DUP2 DUP2 LT PUSH2 0xB9 JUMPI PUSH2 0xB8 PUSH2 0x2EB JUMP JUMPDEST JUMPDEST SWAP1 POP PUSH1 0x20 MUL ADD CALLDATALOAD GT ISZERO PUSH2 0xD5 JUMPI DUP2 DUP1 PUSH2 0xD1 SWAP1 PUSH2 0x345 JUMP JUMPDEST SWAP3 POP POP JUMPDEST DUP1 DUP1 PUSH1 0x1 ADD SWAP2 POP POP PUSH2 0x9C JUMP JUMPDEST POP PUSH0 DUP2 GT ISZERO PUSH2 0x18B JUMPI PUSH0 DUP2 DUP4 PUSH2 0xF8 SWAP2 SWAP1 PUSH2 0x38C JUMP JUMPDEST SWAP1 POP DUP1 PUSH0 PUSH0 ADD SSTORE PUSH0 DUP4 SWAP1 POP PUSH0 PUSH0 SWAP1 POP JUMPDEST DUP6 DUP2 LT ISZERO PUSH2 0x187 JUMPI PUSH1 0xA DUP9 DUP9 DUP4 DUP2 DUP2 LT PUSH2 0x125 JUMPI PUSH2 0x124 PUSH2 0x2EB JUMP JUMPDEST JUMPDEST SWAP1 POP PUSH1 0x20 MUL ADD CALLDATALOAD GT ISZERO PUSH2 0x17A JUMPI DUP8 DUP8 DUP3 DUP2 DUP2 LT PUSH2 0x145 JUMPI PUSH2 0x144 PUSH2 0x2EB JUMP JUMPDEST JUMPDEST SWAP1 POP PUSH1 0x20 MUL ADD CALLDATALOAD PUSH0 DUP4 DUP2 SLOAD DUP2 LT PUSH2 0x15F JUMPI PUSH2 0x15E PUSH2 0x2EB JUMP JUMPDEST JUMPDEST SWAP1 PUSH0 MSTORE PUSH1 0x20 PUSH0 KECCAK256 ADD DUP2 SWAP1 SSTORE POP DUP2 DUP1 PUSH2 0x176 SWAP1 PUSH2 0x345 JUMP JUMPDEST SWAP3 POP POP JUMPDEST DUP1 DUP1 PUSH1 0x1 ADD SWAP2 POP POP PUSH2 0x108 JUMP JUMPDEST POP POP POP JUMPDEST POP POP POP POP POP JUMP JUMPDEST PUSH0 DUP2 DUP2 SLOAD DUP2 LT PUSH2 0x1A0 JUMPI PUSH0 DUP1 REVERT JUMPDEST SWAP1 PUSH0 MSTORE PUSH1 0x20 PUSH0 KECCAK256 ADD PUSH0 SWAP2 POP SWAP1 POP SLOAD DUP2 JUMP JUMPDEST PUSH0 PUSH0 REVERT JUMPDEST PUSH0 PUSH0 REVERT JUMPDEST PUSH0 PUSH0 REVERT JUMPDEST PUSH0 PUSH0 REVERT JUMPDEST PUSH0 PUSH0 REVERT JUMPDEST PUSH0 PUSH0 DUP4 PUSH1 0x1F DUP5 ADD SLT PUSH2 0x1DA JUMPI PUSH2 0x1D9 PUSH2 0x1B9 JUMP JUMPDEST JUMPDEST DUP3 CALLDATALOAD SWAP1 POP PUSH8 0xFFFFFFFFFFFFFFFF DUP2 GT ISZERO PUSH2 0x1F7 JUMPI PUSH2 0x1F6 PUSH2 0x1BD JUMP JUMPDEST JUMPDEST PUSH1 0x20 DUP4 ADD SWAP2 POP DUP4 PUSH1 0x20 DUP3 MUL DUP4 ADD GT ISZERO PUSH2 0x213 JUMPI PUSH2 0x212 PUSH2 0x1C1 JUMP JUMPDEST JUMPDEST SWAP3 POP SWAP3 SWAP1 POP JUMP JUMPDEST PUSH0 PUSH0 PUSH1 0x20 DUP4 DUP6 SUB SLT ISZERO PUSH2 0x230 JUMPI PUSH2 0x22F PUSH2 0x1B1 JUMP JUMPDEST JUMPDEST PUSH0 DUP4 ADD CALLDATALOAD PUSH8 0xFFFFFFFFFFFFFFFF DUP2 GT ISZERO PUSH2 0x24D JUMPI PUSH2 0x24C PUSH2 0x1B5 JUMP JUMPDEST JUMPDEST PUSH2 0x259 DUP6 DUP3 DUP7 ADD PUSH2 0x1C5 JUMP JUMPDEST SWAP3 POP SWAP3 POP POP SWAP3 POP SWAP3 SWAP1 POP JUMP JUMPDEST PUSH0 DUP2 SWAP1 POP SWAP2 SWAP1 POP JUMP JUMPDEST PUSH2 0x277 DUP2 PUSH2 0x265 JUMP JUMPDEST DUP2 EQ PUSH2 0x281 JUMPI PUSH0 PUSH0 REVERT JUMPDEST POP JUMP JUMPDEST PUSH0 DUP2 CALLDATALOAD SWAP1 POP PUSH2 0x292 DUP2 PUSH2 0x26E JUMP JUMPDEST SWAP3 SWAP2 POP POP JUMP JUMPDEST PUSH0 PUSH1 0x20 DUP3 DUP5 SUB SLT ISZERO PUSH2 0x2AD JUMPI PUSH2 0x2AC PUSH2 0x1B1 JUMP JUMPDEST JUMPDEST PUSH0 PUSH2 0x2BA DUP5 DUP3 DUP6 ADD PUSH2 0x284 JUMP JUMPDEST SWAP2 POP POP SWAP3 SWAP2 POP POP JUMP JUMPDEST PUSH2 0x2CC DUP2 PUSH2 0x265 JUMP JUMPDEST DUP3 MSTORE POP POP JUMP JUMPDEST PUSH0 PUSH1 0x20 DUP3 ADD SWAP1 POP PUSH2 0x2E5 PUSH0 DUP4 ADD DUP5 PUSH2 0x2C3 JUMP JUMPDEST SWAP3 SWAP2 POP POP JUMP JUMPDEST PUSH32 0x4E487B7100000000000000000000000000000000000000000000000000000000 PUSH0 MSTORE PUSH1 0x32 PUSH1 0x4 MSTORE PUSH1 0x24 PUSH0 REVERT JUMPDEST PUSH32 0x4E487B7100000000000000000000000000000000000000000000000000000000 PUSH0 MSTORE PUSH1 0x11 PUSH1 0x4 MSTORE PUSH1 0x24 PUSH0 REVERT JUMPDEST PUSH0 PUSH2 0x34F DUP3 PUSH2 0x265 JUMP JUMPDEST SWAP2 POP PUSH32 0xFFFFFFFFFFFFFFFFFFFFFFFFFFFFFFFFFFFFFFFFFFFFFFFFFFFFFFFFFFFFFFFF DUP3 SUB PUSH2 0x381 JUMPI PUSH2 0x380 PUSH2 0x318 JUMP JUMPDEST JUMPDEST PUSH1 0x1 DUP3 ADD SWAP1 POP SWAP2 SWAP1 POP JUMP JUMPDEST PUSH0 PUSH2 0x396 DUP3 PUSH2 0x265 JUMP JUMPDEST SWAP2 POP PUSH2 0x3A1 DUP4 PUSH2 0x265 JUMP JUMPDEST SWAP3 POP DUP3 DUP3 ADD SWAP1 POP DUP1 DUP3 GT ISZERO PUSH2 0x3B9 JUMPI PUSH2 0x3B8 PUSH2 0x318 JUMP JUMPDEST JUMPDEST SWAP3 SWAP2 POP POP JUMP INVALID LOG2 PUSH5 0x6970667358 0x22 SLT KECCAK256 POP DUP16 SIGNEXTEND 0x4D JUMP JUMP 0xB9 0xC7 INVALID CALLER 0x4F GASPRICE 0x27 PUSH28 0x7243F21EBF95C3F84FBB7130E9A4571FE9B164736F6C634300081F00 CALLER "
				},
				"gasEstimates": {
					"creation": {
						"codeDepositCost": "202600",
						"executionCost": "243",
						"totalCost": "202843"
					},
					"external": {
						"data(uint256)": "infinite",
						"process(uint256[])": "infinite"
					}
				},
				"methodIdentifiers": {
					"data(uint256)": "f0ba8440",
					"process(uint256[])": "e2744a81"
				}
			},
			"storageLayout": {
				"storage": [
					{
						"astId": 4,
						"contract": "contracts/lesson3.1/UnoptimizedCode.sol:UnoptimizedCode",
						"label": "data",
						"offset": 0,
						"slot": "0",
						"type": "t_array(t_uint256)dyn_storage"
					}
				],
				"types": {
					"t_array(t_uint256)dyn_storage": {
						"base": "t_uint256",
						"encoding": "dynamic_array",
						"label": "uint256[]",
						"numberOfBytes": "32"
					},
					"t_uint256": {
						"encoding": "inplace",
						"label": "uint256",
						"numberOfBytes": "32"
					}
				}
			},
			"userdoc": {
				"kind": "user",
				"methods": {},
				"version": 1
			}
		}
	}
}