{
	"contracts/lesson7.1/MessageBoard.sol": {
		"MessageBoard": {
			"abi": [
				{
					"anonymous": false,
					"inputs": [
						{
							"indexed": true,
							"internalType": "address",
							"name": "user",
							"type": "address"
						},
						{
							"indexed": false,
							"internalType": "string",
							"name": "message",
							"type": "string"
						},
						{
							"indexed": false,
							"internalType": "uint256",
							"name": "timestamp",
							"type": "uint256"
						}
					],
					"name": "MessagePosted",
					"type": "event"
				},
				{
					"inputs": [
						{
							"internalType": "string",
							"name": "message",
							"type": "string"
						}
					],
					"name": "postMessage",
					"outputs": [],
					"stateMutability": "nonpayable",
					"type": "function"
				}
			],
			"devdoc": {
				"kind": "dev",
				"methods": {},
				"version": 1
			},
			"evm": {
				"assembly": "    /* \"contracts/lesson7.1/MessageBoard.sol\":58:728  contract MessageBoard {... */\n  mstore(0x40, 0x80)\n  callvalue\n  dup1\n  iszero\n  tag_1\n  jumpi\n  revert(0x00, 0x00)\ntag_1:\n  pop\n  dataSize(sub_0)\n  dup1\n  dataOffset(sub_0)\n  0x00\n  codecopy\n  0x00\n  return\nstop\n\nsub_0: assembly {\n        /* \"contracts/lesson7.1/MessageBoard.sol\":58:728  contract MessageBoard {... */\n      mstore(0x40, 0x80)\n      callvalue\n      dup1\n      iszero\n      tag_1\n      jumpi\n      revert(0x00, 0x00)\n    tag_1:\n      pop\n      jumpi(tag_2, lt(calldatasize, 0x04))\n      shr(0xe0, calldataload(0x00))\n      dup1\n      0x6630f88f\n      eq\n      tag_3\n      jumpi\n    tag_2:\n      revert(0x00, 0x00)\n        /* \"contracts/lesson7.1/MessageBoard.sol\":431:726  function postMessage(string memory message) public {... */\n    tag_3:\n      tag_4\n      0x04\n      dup1\n      calldatasize\n      sub\n      dup2\n      add\n      swap1\n      tag_5\n      swap2\n      swap1\n      tag_6\n      jump\t// in\n    tag_5:\n      tag_7\n      jump\t// in\n    tag_4:\n      stop\n    tag_7:\n        /* \"contracts/lesson7.1/MessageBoard.sol\":524:525  0 */\n      0x00\n        /* \"contracts/lesson7.1/MessageBoard.sol\":506:513  message */\n      dup2\n        /* \"contracts/lesson7.1/MessageBoard.sol\":500:521  bytes(message).length */\n      mload\n        /* \"contracts/lesson7.1/MessageBoard.sol\":500:525  bytes(message).length > 0 */\n      gt\n        /* \"contracts/lesson7.1/MessageBoard.sol\":492:553  require(bytes(message).length > 0, \"Message cannot be empty\") */\n      tag_9\n      jumpi\n      mload(0x40)\n      0x08c379a000000000000000000000000000000000000000000000000000000000\n      dup2\n      mstore\n      0x04\n      add\n      tag_10\n      swap1\n      tag_11\n      jump\t// in\n    tag_10:\n      mload(0x40)\n      dup1\n      swap2\n      sub\n      swap1\n      revert\n    tag_9:\n        /* \"contracts/lesson7.1/MessageBoard.sol\":596:599  280 */\n      0x0118\n        /* \"contracts/lesson7.1/MessageBoard.sol\":577:584  message */\n      dup2\n        /* \"contracts/lesson7.1/MessageBoard.sol\":571:592  bytes(message).length */\n      mload\n        /* \"contracts/lesson7.1/MessageBoard.sol\":571:599  bytes(message).length <= 280 */\n      gt\n      iszero\n        /* \"contracts/lesson7.1/MessageBoard.sol\":563:620  require(bytes(message).length <= 280, \"Message too long\") */\n      tag_12\n      jumpi\n      mload(0x40)\n      0x08c379a000000000000000000000000000000000000000000000000000000000\n      dup2\n      mstore\n      0x04\n      add\n      tag_13\n      swap1\n      tag_14\n      jump\t// in\n    tag_13:\n      mload(0x40)\n      dup1\n      swap2\n      sub\n      swap1\n      revert\n    tag_12:\n        /* \"contracts/lesson7.1/MessageBoard.sol\":682:692  msg.sender */\n      caller\n        /* \"contracts/lesson7.1/MessageBoard.sol\":668:719  MessagePosted(msg.sender, message, block.timestamp) */\n      0xffffffffffffffffffffffffffffffffffffffff\n      and\n      0x6d334e6c56ab039764300c508e6f79891f4ddce8d92de4108c43fa1de6908a28\n        /* \"contracts/lesson7.1/MessageBoard.sol\":694:701  message */\n      dup3\n        /* \"contracts/lesson7.1/MessageBoard.sol\":703:718  block.timestamp */\n      timestamp\n        /* \"contracts/lesson7.1/MessageBoard.sol\":668:719  MessagePosted(msg.sender, message, block.timestamp) */\n      mload(0x40)\n      tag_15\n      swap3\n      swap2\n      swap1\n      tag_16\n      jump\t// in\n    tag_15:\n      mload(0x40)\n      dup1\n      swap2\n      sub\n      swap1\n      log2\n        /* \"contracts/lesson7.1/MessageBoard.sol\":431:726  function postMessage(string memory message) public {... */\n      pop\n      jump\t// out\n        /* \"#utility.yul\":7:82   */\n    tag_17:\n        /* \"#utility.yul\":40:46   */\n      0x00\n        /* \"#utility.yul\":73:75   */\n      0x40\n        /* \"#utility.yul\":67:76   */\n      mload\n        /* \"#utility.yul\":57:76   */\n      swap1\n      pop\n        /* \"#utility.yul\":7:82   */\n      swap1\n      jump\t// out\n        /* \"#utility.yul\":88:205   */\n    tag_18:\n        /* \"#utility.yul\":197:198   */\n      0x00\n        /* \"#utility.yul\":194:195   */\n      0x00\n        /* \"#utility.yul\":187:199   */\n      revert\n        /* \"#utility.yul\":211:328   */\n    tag_19:\n        /* \"#utility.yul\":320:321   */\n      0x00\n        /* \"#utility.yul\":317:318   */\n      0x00\n        /* \"#utility.yul\":310:322   */\n      revert\n        /* \"#utility.yul\":334:451   */\n    tag_20:\n        /* \"#utility.yul\":443:444   */\n      0x00\n        /* \"#utility.yul\":440:441   */\n      0x00\n        /* \"#utility.yul\":433:445   */\n      revert\n        /* \"#utility.yul\":457:574   */\n    tag_21:\n        /* \"#utility.yul\":566:567   */\n      0x00\n        /* \"#utility.yul\":563:564   */\n      0x00\n        /* \"#utility.yul\":556:568   */\n      revert\n        /* \"#utility.yul\":580:682   */\n    tag_22:\n        /* \"#utility.yul\":621:627   */\n      0x00\n        /* \"#utility.yul\":672:674   */\n      0x1f\n        /* \"#utility.yul\":668:675   */\n      not\n        /* \"#utility.yul\":663:665   */\n      0x1f\n        /* \"#utility.yul\":656:661   */\n      dup4\n        /* \"#utility.yul\":652:666   */\n      add\n        /* \"#utility.yul\":648:676   */\n      and\n        /* \"#utility.yul\":638:676   */\n      swap1\n      pop\n        /* \"#utility.yul\":580:682   */\n      swap2\n      swap1\n      pop\n      jump\t// out\n        /* \"#utility.yul\":688:868   */\n    tag_23:\n        /* \"#utility.yul\":736:813   */\n      0x4e487b7100000000000000000000000000000000000000000000000000000000\n        /* \"#utility.yul\":733:734   */\n      0x00\n        /* \"#utility.yul\":726:814   */\n      mstore\n        /* \"#utility.yul\":833:837   */\n      0x41\n        /* \"#utility.yul\":830:831   */\n      0x04\n        /* \"#utility.yul\":823:838   */\n      mstore\n        /* \"#utility.yul\":857:861   */\n      0x24\n        /* \"#utility.yul\":854:855   */\n      0x00\n        /* \"#utility.yul\":847:862   */\n      revert\n        /* \"#utility.yul\":874:1155   */\n    tag_24:\n        /* \"#utility.yul\":957:984   */\n      tag_49\n        /* \"#utility.yul\":979:983   */\n      dup3\n        /* \"#utility.yul\":957:984   */\n      tag_22\n      jump\t// in\n    tag_49:\n        /* \"#utility.yul\":949:955   */\n      dup2\n        /* \"#utility.yul\":945:985   */\n      add\n        /* \"#utility.yul\":1087:1093   */\n      dup2\n        /* \"#utility.yul\":1075:1085   */\n      dup2\n        /* \"#utility.yul\":1072:1094   */\n      lt\n        /* \"#utility.yul\":1051:1069   */\n      0xffffffffffffffff\n        /* \"#utility.yul\":1039:1049   */\n      dup3\n        /* \"#utility.yul\":1036:1070   */\n      gt\n        /* \"#utility.yul\":1033:1095   */\n      or\n        /* \"#utility.yul\":1030:1118   */\n      iszero\n      tag_50\n      jumpi\n        /* \"#utility.yul\":1098:1116   */\n      tag_51\n      tag_23\n      jump\t// in\n    tag_51:\n        /* \"#utility.yul\":1030:1118   */\n    tag_50:\n        /* \"#utility.yul\":1138:1148   */\n      dup1\n        /* \"#utility.yul\":1134:1136   */\n      0x40\n        /* \"#utility.yul\":1127:1149   */\n      mstore\n        /* \"#utility.yul\":917:1155   */\n      pop\n        /* \"#utility.yul\":874:1155   */\n      pop\n      pop\n      jump\t// out\n        /* \"#utility.yul\":1161:1290   */\n    tag_25:\n        /* \"#utility.yul\":1195:1201   */\n      0x00\n        /* \"#utility.yul\":1222:1242   */\n      tag_53\n      tag_17\n      jump\t// in\n    tag_53:\n        /* \"#utility.yul\":1212:1242   */\n      swap1\n      pop\n        /* \"#utility.yul\":1251:1284   */\n      tag_54\n        /* \"#utility.yul\":1279:1283   */\n      dup3\n        /* \"#utility.yul\":1271:1277   */\n      dup3\n        /* \"#utility.yul\":1251:1284   */\n      tag_24\n      jump\t// in\n    tag_54:\n        /* \"#utility.yul\":1161:1290   */\n      swap2\n      swap1\n      pop\n      jump\t// out\n        /* \"#utility.yul\":1296:1604   */\n    tag_26:\n        /* \"#utility.yul\":1358:1362   */\n      0x00\n        /* \"#utility.yul\":1448:1466   */\n      0xffffffffffffffff\n        /* \"#utility.yul\":1440:1446   */\n      dup3\n        /* \"#utility.yul\":1437:1467   */\n      gt\n        /* \"#utility.yul\":1434:1490   */\n      iszero\n      tag_56\n      jumpi\n        /* \"#utility.yul\":1470:1488   */\n      tag_57\n      tag_23\n      jump\t// in\n    tag_57:\n        /* \"#utility.yul\":1434:1490   */\n    tag_56:\n        /* \"#utility.yul\":1508:1537   */\n      tag_58\n        /* \"#utility.yul\":1530:1536   */\n      dup3\n        /* \"#utility.yul\":1508:1537   */\n      tag_22\n      jump\t// in\n    tag_58:\n        /* \"#utility.yul\":1500:1537   */\n      swap1\n      pop\n        /* \"#utility.yul\":1592:1596   */\n      0x20\n        /* \"#utility.yul\":1586:1590   */\n      dup2\n        /* \"#utility.yul\":1582:1597   */\n      add\n        /* \"#utility.yul\":1574:1597   */\n      swap1\n      pop\n        /* \"#utility.yul\":1296:1604   */\n      swap2\n      swap1\n      pop\n      jump\t// out\n        /* \"#utility.yul\":1610:1758   */\n    tag_27:\n        /* \"#utility.yul\":1708:1714   */\n      dup3\n        /* \"#utility.yul\":1703:1706   */\n      dup2\n        /* \"#utility.yul\":1698:1701   */\n      dup4\n        /* \"#utility.yul\":1685:1715   */\n      calldatacopy\n        /* \"#utility.yul\":1749:1750   */\n      0x00\n        /* \"#utility.yul\":1740:1746   */\n      dup4\n        /* \"#utility.yul\":1735:1738   */\n      dup4\n        /* \"#utility.yul\":1731:1747   */\n      add\n        /* \"#utility.yul\":1724:1751   */\n      mstore\n        /* \"#utility.yul\":1610:1758   */\n      pop\n      pop\n      pop\n      jump\t// out\n        /* \"#utility.yul\":1764:2189   */\n    tag_28:\n        /* \"#utility.yul\":1842:1847   */\n      0x00\n        /* \"#utility.yul\":1867:1933   */\n      tag_61\n        /* \"#utility.yul\":1883:1932   */\n      tag_62\n        /* \"#utility.yul\":1925:1931   */\n      dup5\n        /* \"#utility.yul\":1883:1932   */\n      tag_26\n      jump\t// in\n    tag_62:\n        /* \"#utility.yul\":1867:1933   */\n      tag_25\n      jump\t// in\n    tag_61:\n        /* \"#utility.yul\":1858:1933   */\n      swap1\n      pop\n        /* \"#utility.yul\":1956:1962   */\n      dup3\n        /* \"#utility.yul\":1949:1954   */\n      dup2\n        /* \"#utility.yul\":1942:1963   */\n      mstore\n        /* \"#utility.yul\":1994:1998   */\n      0x20\n        /* \"#utility.yul\":1987:1992   */\n      dup2\n        /* \"#utility.yul\":1983:1999   */\n      add\n        /* \"#utility.yul\":2032:2035   */\n      dup5\n        /* \"#utility.yul\":2023:2029   */\n      dup5\n        /* \"#utility.yul\":2018:2021   */\n      dup5\n        /* \"#utility.yul\":2014:2030   */\n      add\n        /* \"#utility.yul\":2011:2036   */\n      gt\n        /* \"#utility.yul\":2008:2120   */\n      iszero\n      tag_63\n      jumpi\n        /* \"#utility.yul\":2039:2118   */\n      tag_64\n      tag_21\n      jump\t// in\n    tag_64:\n        /* \"#utility.yul\":2008:2120   */\n    tag_63:\n        /* \"#utility.yul\":2129:2183   */\n      tag_65\n        /* \"#utility.yul\":2176:2182   */\n      dup5\n        /* \"#utility.yul\":2171:2174   */\n      dup3\n        /* \"#utility.yul\":2166:2169   */\n      dup6\n        /* \"#utility.yul\":2129:2183   */\n      tag_27\n      jump\t// in\n    tag_65:\n        /* \"#utility.yul\":1848:2189   */\n      pop\n        /* \"#utility.yul\":1764:2189   */\n      swap4\n      swap3\n      pop\n      pop\n      pop\n      jump\t// out\n        /* \"#utility.yul\":2209:2549   */\n    tag_29:\n        /* \"#utility.yul\":2265:2270   */\n      0x00\n        /* \"#utility.yul\":2314:2317   */\n      dup3\n        /* \"#utility.yul\":2307:2311   */\n      0x1f\n        /* \"#utility.yul\":2299:2305   */\n      dup4\n        /* \"#utility.yul\":2295:2312   */\n      add\n        /* \"#utility.yul\":2291:2318   */\n      slt\n        /* \"#utility.yul\":2281:2403   */\n      tag_67\n      jumpi\n        /* \"#utility.yul\":2322:2401   */\n      tag_68\n      tag_20\n      jump\t// in\n    tag_68:\n        /* \"#utility.yul\":2281:2403   */\n    tag_67:\n        /* \"#utility.yul\":2439:2445   */\n      dup2\n        /* \"#utility.yul\":2426:2446   */\n      calldataload\n        /* \"#utility.yul\":2464:2543   */\n      tag_69\n        /* \"#utility.yul\":2539:2542   */\n      dup5\n        /* \"#utility.yul\":2531:2537   */\n      dup3\n        /* \"#utility.yul\":2524:2528   */\n      0x20\n        /* \"#utility.yul\":2516:2522   */\n      dup7\n        /* \"#utility.yul\":2512:2529   */\n      add\n        /* \"#utility.yul\":2464:2543   */\n      tag_28\n      jump\t// in\n    tag_69:\n        /* \"#utility.yul\":2455:2543   */\n      swap2\n      pop\n        /* \"#utility.yul\":2271:2549   */\n      pop\n        /* \"#utility.yul\":2209:2549   */\n      swap3\n      swap2\n      pop\n      pop\n      jump\t// out\n        /* \"#utility.yul\":2555:3064   */\n    tag_6:\n        /* \"#utility.yul\":2624:2630   */\n      0x00\n        /* \"#utility.yul\":2673:2675   */\n      0x20\n        /* \"#utility.yul\":2661:2670   */\n      dup3\n        /* \"#utility.yul\":2652:2659   */\n      dup5\n        /* \"#utility.yul\":2648:2671   */\n      sub\n        /* \"#utility.yul\":2644:2676   */\n      slt\n        /* \"#utility.yul\":2641:2760   */\n      iszero\n      tag_71\n      jumpi\n        /* \"#utility.yul\":2679:2758   */\n      tag_72\n      tag_18\n      jump\t// in\n    tag_72:\n        /* \"#utility.yul\":2641:2760   */\n    tag_71:\n        /* \"#utility.yul\":2827:2828   */\n      0x00\n        /* \"#utility.yul\":2816:2825   */\n      dup3\n        /* \"#utility.yul\":2812:2829   */\n      add\n        /* \"#utility.yul\":2799:2830   */\n      calldataload\n        /* \"#utility.yul\":2857:2875   */\n      0xffffffffffffffff\n        /* \"#utility.yul\":2849:2855   */\n      dup2\n        /* \"#utility.yul\":2846:2876   */\n      gt\n        /* \"#utility.yul\":2843:2960   */\n      iszero\n      tag_73\n      jumpi\n        /* \"#utility.yul\":2879:2958   */\n      tag_74\n      tag_19\n      jump\t// in\n    tag_74:\n        /* \"#utility.yul\":2843:2960   */\n    tag_73:\n        /* \"#utility.yul\":2984:3047   */\n      tag_75\n        /* \"#utility.yul\":3039:3046   */\n      dup5\n        /* \"#utility.yul\":3030:3036   */\n      dup3\n        /* \"#utility.yul\":3019:3028   */\n      dup6\n        /* \"#utility.yul\":3015:3037   */\n      add\n        /* \"#utility.yul\":2984:3047   */\n      tag_29\n      jump\t// in\n    tag_75:\n        /* \"#utility.yul\":2974:3047   */\n      swap2\n      pop\n        /* \"#utility.yul\":2770:3057   */\n      pop\n        /* \"#utility.yul\":2555:3064   */\n      swap3\n      swap2\n      pop\n      pop\n      jump\t// out\n        /* \"#utility.yul\":3070:3239   */\n    tag_30:\n        /* \"#utility.yul\":3154:3165   */\n      0x00\n        /* \"#utility.yul\":3188:3194   */\n      dup3\n        /* \"#utility.yul\":3183:3186   */\n      dup3\n        /* \"#utility.yul\":3176:3195   */\n      mstore\n        /* \"#utility.yul\":3228:3232   */\n      0x20\n        /* \"#utility.yul\":3223:3226   */\n      dup3\n        /* \"#utility.yul\":3219:3233   */\n      add\n        /* \"#utility.yul\":3204:3233   */\n      swap1\n      pop\n        /* \"#utility.yul\":3070:3239   */\n      swap3\n      swap2\n      pop\n      pop\n      jump\t// out\n        /* \"#utility.yul\":3245:3418   */\n    tag_31:\n        /* \"#utility.yul\":3385:3410   */\n      0x4d6573736167652063616e6e6f7420626520656d707479000000000000000000\n        /* \"#utility.yul\":3381:3382   */\n      0x00\n        /* \"#utility.yul\":3373:3379   */\n      dup3\n        /* \"#utility.yul\":3369:3383   */\n      add\n        /* \"#utility.yul\":3362:3411   */\n      mstore\n        /* \"#utility.yul\":3245:3418   */\n      pop\n      jump\t// out\n        /* \"#utility.yul\":3424:3790   */\n    tag_32:\n        /* \"#utility.yul\":3566:3569   */\n      0x00\n        /* \"#utility.yul\":3587:3654   */\n      tag_79\n        /* \"#utility.yul\":3651:3653   */\n      0x17\n        /* \"#utility.yul\":3646:3649   */\n      dup4\n        /* \"#utility.yul\":3587:3654   */\n      tag_30\n      jump\t// in\n    tag_79:\n        /* \"#utility.yul\":3580:3654   */\n      swap2\n      pop\n        /* \"#utility.yul\":3663:3756   */\n      tag_80\n        /* \"#utility.yul\":3752:3755   */\n      dup3\n        /* \"#utility.yul\":3663:3756   */\n      tag_31\n      jump\t// in\n    tag_80:\n        /* \"#utility.yul\":3781:3783   */\n      0x20\n        /* \"#utility.yul\":3776:3779   */\n      dup3\n        /* \"#utility.yul\":3772:3784   */\n      add\n        /* \"#utility.yul\":3765:3784   */\n      swap1\n      pop\n        /* \"#utility.yul\":3424:3790   */\n      swap2\n      swap1\n      pop\n      jump\t// out\n        /* \"#utility.yul\":3796:4215   */\n    tag_11:\n        /* \"#utility.yul\":3962:3966   */\n      0x00\n        /* \"#utility.yul\":4000:4002   */\n      0x20\n        /* \"#utility.yul\":3989:3998   */\n      dup3\n        /* \"#utility.yul\":3985:4003   */\n      add\n        /* \"#utility.yul\":3977:4003   */\n      swap1\n      pop\n        /* \"#utility.yul\":4049:4058   */\n      dup2\n        /* \"#utility.yul\":4043:4047   */\n      dup2\n        /* \"#utility.yul\":4039:4059   */\n      sub\n        /* \"#utility.yul\":4035:4036   */\n      0x00\n        /* \"#utility.yul\":4024:4033   */\n      dup4\n        /* \"#utility.yul\":4020:4037   */\n      add\n        /* \"#utility.yul\":4013:4060   */\n      mstore\n        /* \"#utility.yul\":4077:4208   */\n      tag_82\n        /* \"#utility.yul\":4203:4207   */\n      dup2\n        /* \"#utility.yul\":4077:4208   */\n      tag_32\n      jump\t// in\n    tag_82:\n        /* \"#utility.yul\":4069:4208   */\n      swap1\n      pop\n        /* \"#utility.yul\":3796:4215   */\n      swap2\n      swap1\n      pop\n      jump\t// out\n        /* \"#utility.yul\":4221:4387   */\n    tag_33:\n        /* \"#utility.yul\":4361:4379   */\n      0x4d65737361676520746f6f206c6f6e6700000000000000000000000000000000\n        /* \"#utility.yul\":4357:4358   */\n      0x00\n        /* \"#utility.yul\":4349:4355   */\n      dup3\n        /* \"#utility.yul\":4345:4359   */\n      add\n        /* \"#utility.yul\":4338:4380   */\n      mstore\n        /* \"#utility.yul\":4221:4387   */\n      pop\n      jump\t// out\n        /* \"#utility.yul\":4393:4759   */\n    tag_34:\n        /* \"#utility.yul\":4535:4538   */\n      0x00\n        /* \"#utility.yul\":4556:4623   */\n      tag_85\n        /* \"#utility.yul\":4620:4622   */\n      0x10\n        /* \"#utility.yul\":4615:4618   */\n      dup4\n        /* \"#utility.yul\":4556:4623   */\n      tag_30\n      jump\t// in\n    tag_85:\n        /* \"#utility.yul\":4549:4623   */\n      swap2\n      pop\n        /* \"#utility.yul\":4632:4725   */\n      tag_86\n        /* \"#utility.yul\":4721:4724   */\n      dup3\n        /* \"#utility.yul\":4632:4725   */\n      tag_33\n      jump\t// in\n    tag_86:\n        /* \"#utility.yul\":4750:4752   */\n      0x20\n        /* \"#utility.yul\":4745:4748   */\n      dup3\n        /* \"#utility.yul\":4741:4753   */\n      add\n        /* \"#utility.yul\":4734:4753   */\n      swap1\n      pop\n        /* \"#utility.yul\":4393:4759   */\n      swap2\n      swap1\n      pop\n      jump\t// out\n        /* \"#utility.yul\":4765:5184   */\n    tag_14:\n        /* \"#utility.yul\":4931:4935   */\n      0x00\n        /* \"#utility.yul\":4969:4971   */\n      0x20\n        /* \"#utility.yul\":4958:4967   */\n      dup3\n        /* \"#utility.yul\":4954:4972   */\n      add\n        /* \"#utility.yul\":4946:4972   */\n      swap1\n      pop\n        /* \"#utility.yul\":5018:5027   */\n      dup2\n        /* \"#utility.yul\":5012:5016   */\n      dup2\n        /* \"#utility.yul\":5008:5028   */\n      sub\n        /* \"#utility.yul\":5004:5005   */\n      0x00\n        /* \"#utility.yul\":4993:5002   */\n      dup4\n        /* \"#utility.yul\":4989:5006   */\n      add\n        /* \"#utility.yul\":4982:5029   */\n      mstore\n        /* \"#utility.yul\":5046:5177   */\n      tag_88\n        /* \"#utility.yul\":5172:5176   */\n      dup2\n        /* \"#utility.yul\":5046:5177   */\n      tag_34\n      jump\t// in\n    tag_88:\n        /* \"#utility.yul\":5038:5177   */\n      swap1\n      pop\n        /* \"#utility.yul\":4765:5184   */\n      swap2\n      swap1\n      pop\n      jump\t// out\n        /* \"#utility.yul\":5190:5289   */\n    tag_35:\n        /* \"#utility.yul\":5242:5248   */\n      0x00\n        /* \"#utility.yul\":5276:5281   */\n      dup2\n        /* \"#utility.yul\":5270:5282   */\n      mload\n        /* \"#utility.yul\":5260:5282   */\n      swap1\n      pop\n        /* \"#utility.yul\":5190:5289   */\n      swap2\n      swap1\n      pop\n      jump\t// out\n        /* \"#utility.yul\":5295:5434   */\n    tag_36:\n        /* \"#utility.yul\":5384:5390   */\n      dup3\n        /* \"#utility.yul\":5379:5382   */\n      dup2\n        /* \"#utility.yul\":5374:5377   */\n      dup4\n        /* \"#utility.yul\":5368:5391   */\n      mcopy\n        /* \"#utility.yul\":5425:5426   */\n      0x00\n        /* \"#utility.yul\":5416:5422   */\n      dup4\n        /* \"#utility.yul\":5411:5414   */\n      dup4\n        /* \"#utility.yul\":5407:5423   */\n      add\n        /* \"#utility.yul\":5400:5427   */\n      mstore\n        /* \"#utility.yul\":5295:5434   */\n      pop\n      pop\n      pop\n      jump\t// out\n        /* \"#utility.yul\":5440:5817   */\n    tag_37:\n        /* \"#utility.yul\":5528:5531   */\n      0x00\n        /* \"#utility.yul\":5556:5595   */\n      tag_92\n        /* \"#utility.yul\":5589:5594   */\n      dup3\n        /* \"#utility.yul\":5556:5595   */\n      tag_35\n      jump\t// in\n    tag_92:\n        /* \"#utility.yul\":5611:5682   */\n      tag_93\n        /* \"#utility.yul\":5675:5681   */\n      dup2\n        /* \"#utility.yul\":5670:5673   */\n      dup6\n        /* \"#utility.yul\":5611:5682   */\n      tag_30\n      jump\t// in\n    tag_93:\n        /* \"#utility.yul\":5604:5682   */\n      swap4\n      pop\n        /* \"#utility.yul\":5691:5756   */\n      tag_94\n        /* \"#utility.yul\":5749:5755   */\n      dup2\n        /* \"#utility.yul\":5744:5747   */\n      dup6\n        /* \"#utility.yul\":5737:5741   */\n      0x20\n        /* \"#utility.yul\":5730:5735   */\n      dup7\n        /* \"#utility.yul\":5726:5742   */\n      add\n        /* \"#utility.yul\":5691:5756   */\n      tag_36\n      jump\t// in\n    tag_94:\n        /* \"#utility.yul\":5781:5810   */\n      tag_95\n        /* \"#utility.yul\":5803:5809   */\n      dup2\n        /* \"#utility.yul\":5781:5810   */\n      tag_22\n      jump\t// in\n    tag_95:\n        /* \"#utility.yul\":5776:5779   */\n      dup5\n        /* \"#utility.yul\":5772:5811   */\n      add\n        /* \"#utility.yul\":5765:5811   */\n      swap2\n      pop\n        /* \"#utility.yul\":5532:5817   */\n      pop\n        /* \"#utility.yul\":5440:5817   */\n      swap3\n      swap2\n      pop\n      pop\n      jump\t// out\n        /* \"#utility.yul\":5823:5900   */\n    tag_38:\n        /* \"#utility.yul\":5860:5867   */\n      0x00\n        /* \"#utility.yul\":5889:5894   */\n      dup2\n        /* \"#utility.yul\":5878:5894   */\n      swap1\n      pop\n        /* \"#utility.yul\":5823:5900   */\n      swap2\n      swap1\n      pop\n      jump\t// out\n        /* \"#utility.yul\":5906:6024   */\n    tag_39:\n        /* \"#utility.yul\":5993:6017   */\n      tag_98\n        /* \"#utility.yul\":6011:6016   */\n      dup2\n        /* \"#utility.yul\":5993:6017   */\n      tag_38\n      jump\t// in\n    tag_98:\n        /* \"#utility.yul\":5988:5991   */\n      dup3\n        /* \"#utility.yul\":5981:6018   */\n      mstore\n        /* \"#utility.yul\":5906:6024   */\n      pop\n      pop\n      jump\t// out\n        /* \"#utility.yul\":6030:6453   */\n    tag_16:\n        /* \"#utility.yul\":6171:6175   */\n      0x00\n        /* \"#utility.yul\":6209:6211   */\n      0x40\n        /* \"#utility.yul\":6198:6207   */\n      dup3\n        /* \"#utility.yul\":6194:6212   */\n      add\n        /* \"#utility.yul\":6186:6212   */\n      swap1\n      pop\n        /* \"#utility.yul\":6258:6267   */\n      dup2\n        /* \"#utility.yul\":6252:6256   */\n      dup2\n        /* \"#utility.yul\":6248:6268   */\n      sub\n        /* \"#utility.yul\":6244:6245   */\n      0x00\n        /* \"#utility.yul\":6233:6242   */\n      dup4\n        /* \"#utility.yul\":6229:6246   */\n      add\n        /* \"#utility.yul\":6222:6269   */\n      mstore\n        /* \"#utility.yul\":6286:6364   */\n      tag_100\n        /* \"#utility.yul\":6359:6363   */\n      dup2\n        /* \"#utility.yul\":6350:6356   */\n      dup6\n        /* \"#utility.yul\":6286:6364   */\n      tag_37\n      jump\t// in\n    tag_100:\n        /* \"#utility.yul\":6278:6364   */\n      swap1\n      pop\n        /* \"#utility.yul\":6374:6446   */\n      tag_101\n        /* \"#utility.yul\":6442:6444   */\n      0x20\n        /* \"#utility.yul\":6431:6440   */\n      dup4\n        /* \"#utility.yul\":6427:6445   */\n      add\n        /* \"#utility.yul\":6418:6424   */\n      dup5\n        /* \"#utility.yul\":6374:6446   */\n      tag_39\n      jump\t// in\n    tag_101:\n        /* \"#utility.yul\":6030:6453   */\n      swap4\n      swap3\n      pop\n      pop\n      pop\n      jump\t// out\n\n    auxdata: 0xa2646970667358221220276adee10435d3a9cb7b2bdd0bcbbc812a0d69206603963af3ce84ca7e1fc5f664736f6c634300081f0033\n}\n",
				"bytecode": {
					"linkReferences": {},
					"object": "6080604052348015600e575f5ffd5b506104658061001c5f395ff3fe608060405234801561000f575f5ffd5b5060043610610029575f3560e01c80636630f88f1461002d575b5f5ffd5b61004760048036038101906100429190610272565b610049565b005b5f81511161008c576040517f08c379a000000000000000000000000000000000000000000000000000000000815260040161008390610313565b60405180910390fd5b610118815111156100d2576040517f08c379a00000000000000000000000000000000000000000000000000000000081526004016100c99061037b565b60405180910390fd5b3373ffffffffffffffffffffffffffffffffffffffff167f6d334e6c56ab039764300c508e6f79891f4ddce8d92de4108c43fa1de6908a28824260405161011a929190610401565b60405180910390a250565b5f604051905090565b5f5ffd5b5f5ffd5b5f5ffd5b5f5ffd5b5f601f19601f8301169050919050565b7f4e487b71000000000000000000000000000000000000000000000000000000005f52604160045260245ffd5b6101848261013e565b810181811067ffffffffffffffff821117156101a3576101a261014e565b5b80604052505050565b5f6101b5610125565b90506101c1828261017b565b919050565b5f67ffffffffffffffff8211156101e0576101df61014e565b5b6101e98261013e565b9050602081019050919050565b828183375f83830152505050565b5f610216610211846101c6565b6101ac565b9050828152602081018484840111156102325761023161013a565b5b61023d8482856101f6565b509392505050565b5f82601f83011261025957610258610136565b5b8135610269848260208601610204565b91505092915050565b5f602082840312156102875761028661012e565b5b5f82013567ffffffffffffffff8111156102a4576102a3610132565b5b6102b084828501610245565b91505092915050565b5f82825260208201905092915050565b7f4d6573736167652063616e6e6f7420626520656d7074790000000000000000005f82015250565b5f6102fd6017836102b9565b9150610308826102c9565b602082019050919050565b5f6020820190508181035f83015261032a816102f1565b9050919050565b7f4d65737361676520746f6f206c6f6e67000000000000000000000000000000005f82015250565b5f6103656010836102b9565b915061037082610331565b602082019050919050565b5f6020820190508181035f83015261039281610359565b9050919050565b5f81519050919050565b8281835e5f83830152505050565b5f6103bb82610399565b6103c581856102b9565b93506103d58185602086016103a3565b6103de8161013e565b840191505092915050565b5f819050919050565b6103fb816103e9565b82525050565b5f6040820190508181035f83015261041981856103b1565b905061042860208301846103f2565b939250505056fea2646970667358221220276adee10435d3a9cb7b2bdd0bcbbc812a0d69206603963af3ce84ca7e1fc5f664736f6c634300081f0033",
					"opcodes": "PUSH1 0x80 PUSH1 0x40 MSTORE CALLVALUE DUP1 ISZERO PUSH1 0xE JUMPI PUSH0 PUSH0 REVERT JUMPDEST POP PUSH2 0x465 DUP1 PUSH2 0x1C PUSH0 CODECOPY PUSH0 RETURN INVALID PUSH1 0x80 PUSH1 0x40 MSTORE CALLVALUE DUP1 ISZERO PUSH2 0xF JUMPI PUSH0 PUSH0 REVERT JUMPDEST POP PUSH1 0x4 CALLDATASIZE LT PUSH2 0x29 JUMPI PUSH0 CALLDATALOAD PUSH1 0xE0 SHR DUP1 PUSH4 0x6630F88F EQ PUSH2 0x2D JUMPI JUMPDEST PUSH0 PUSH0 REVERT JUMPDEST PUSH2 0x47 PUSH1 0x4 DUP1 CALLDATASIZE SUB DUP2 ADD SWAP1 PUSH2 0x42 SWAP2 SWAP1 PUSH2 0x272 JUMP JUMPDEST PUSH2 0x49 JUMP JUMPDEST STOP JUMPDEST PUSH0 DUP2 MLOAD GT PUSH2 0x8C JUMPI PUSH1 0x40 MLOAD PUSH32 0x8C379A000000000000000000000000000000000000000000000000000000000 DUP2 MSTORE PUSH1 0x4 ADD PUSH2 0x83 SWAP1 PUSH2 0x313 JUMP JUMPDEST PUSH1 0x40 MLOAD DUP1 SWAP2 SUB SWAP1 REVERT JUMPDEST PUSH2 0x118 DUP2 MLOAD GT ISZERO PUSH2 0xD2 JUMPI PUSH1 0x40 MLOAD PUSH32 0x8C379A000000000000000000000000000000000000000000000000000000000 DUP2 MSTORE PUSH1 0x4 ADD PUSH2 0xC9 SWAP1 PUSH2 0x37B JUMP JUMPDEST PUSH1 0x40 MLOAD DUP1 SWAP2 SUB SWAP1 REVERT JUMPDEST CALLER PUSH20 0xFFFFFFFFFFFFFFFFFFFFFFFFFFFFFFFFFFFFFFFF AND PUSH32 0x6D334E6C56AB039764300C508E6F79891F4DDCE8D92DE4108C43FA1DE6908A28 DUP3 TIMESTAMP PUSH1 0x40 MLOAD PUSH2 0x11A SWAP3 SWAP2 SWAP1 PUSH2 0x401 JUMP JUMPDEST PUSH1 0x40 MLOAD DUP1 SWAP2 SUB SWAP1 LOG2 POP JUMP JUMPDEST PUSH0 PUSH1 0x40 MLOAD SWAP1 POP SWAP1 JUMP JUMPDEST PUSH0 PUSH0 REVERT JUMPDEST PUSH0 PUSH0 REVERT JUMPDEST PUSH0 PUSH0 REVERT JUMPDEST PUSH0 PUSH0 REVERT JUMPDEST PUSH0 PUSH1 0x1F NOT PUSH1 0x1F DUP4 ADD AND SWAP1 POP SWAP2 SWAP1 POP JUMP JUMPDEST PUSH32 0x4E487B7100000000000000000000000000000000000000000000000000000000 PUSH0 MSTORE PUSH1 0x41 PUSH1 0x4 MSTORE PUSH1 0x24 PUSH0 REVERT JUMPDEST PUSH2 0x184 DUP3 PUSH2 0x13E JUMP JUMPDEST DUP2 ADD DUP2 DUP2 LT PUSH8 0xFFFFFFFFFFFFFFFF DUP3 GT OR ISZERO PUSH2 0x1A3 JUMPI PUSH2 0x1A2 PUSH2 0x14E JUMP JUMPDEST JUMPDEST DUP1 PUSH1 0x40 MSTORE POP POP POP JUMP JUMPDEST PUSH0 PUSH2 0x1B5 PUSH2 0x125 JUMP JUMPDEST SWAP1 POP PUSH2 0x1C1 DUP3 DUP3 PUSH2 0x17B JUMP JUMPDEST SWAP2 SWAP1 POP JUMP JUMPDEST PUSH0 PUSH8 0xFFFFFFFFFFFFFFFF DUP3 GT ISZERO PUSH2 0x1E0 JUMPI PUSH2 0x1DF PUSH2 0x14E JUMP JUMPDEST JUMPDEST PUSH2 0x1E9 DUP3 PUSH2 0x13E JUMP JUMPDEST SWAP1 POP PUSH1 0x20 DUP2 ADD SWAP1 POP SWAP2 SWAP1 POP JUMP JUMPDEST DUP3 DUP2 DUP4 CALLDATACOPY PUSH0 DUP4 DUP4 ADD MSTORE POP POP POP JUMP JUMPDEST PUSH0 PUSH2 0x216 PUSH2 0x211 DUP5 PUSH2 0x1C6 JUMP JUMPDEST PUSH2 0x1AC JUMP JUMPDEST SWAP1 POP DUP3 DUP2 MSTORE PUSH1 0x20 DUP2 ADD DUP5 DUP5 DUP5 ADD GT ISZERO PUSH2 0x232 JUMPI PUSH2 0x231 PUSH2 0x13A JUMP JUMPDEST JUMPDEST PUSH2 0x23D DUP5 DUP3 DUP6 PUSH2 0x1F6 JUMP JUMPDEST POP SWAP4 SWAP3 POP POP POP JUMP JUMPDEST PUSH0 DUP3 PUSH1 0x1F DUP4 ADD SLT PUSH2 0x259 JUMPI PUSH2 0x258 PUSH2 0x136 JUMP JUMPDEST JUMPDEST DUP2 CALLDATALOAD PUSH2 0x269 DUP5 DUP3 PUSH1 0x20 DUP7 ADD PUSH2 0x204 JUMP JUMPDEST SWAP2 POP POP SWAP3 SWAP2 POP POP JUMP JUMPDEST PUSH0 PUSH1 0x20 DUP3 DUP5 SUB SLT ISZERO PUSH2 0x287 JUMPI PUSH2 0x286 PUSH2 0x12E JUMP JUMPDEST JUMPDEST PUSH0 DUP3 ADD CALLDATALOAD PUSH8 0xFFFFFFFFFFFFFFFF DUP2 GT ISZERO PUSH2 0x2A4 JUMPI PUSH2 0x2A3 PUSH2 0x132 JUMP JUMPDEST JUMPDEST PUSH2 0x2B0 DUP5 DUP3 DUP6 ADD PUSH2 0x245 JUMP JUMPDEST SWAP2 POP POP SWAP3 SWAP2 POP POP JUMP JUMPDEST PUSH0 DUP3 DUP3 MSTORE PUSH1 0x20 DUP3 ADD SWAP1 POP SWAP3 SWAP2 POP POP JUMP JUMPDEST PUSH32 0x4D6573736167652063616E6E6F7420626520656D707479000000000000000000 PUSH0 DUP3 ADD MSTORE POP JUMP JUMPDEST PUSH0 PUSH2 0x2FD PUSH1 0x17 DUP4 PUSH2 0x2B9 JUMP JUMPDEST SWAP2 POP PUSH2 0x308 DUP3 PUSH2 0x2C9 JUMP JUMPDEST PUSH1 0x20 DUP3 ADD SWAP1 POP SWAP2 SWAP1 POP JUMP JUMPDEST PUSH0 PUSH1 0x20 DUP3 ADD SWAP1 POP DUP2 DUP2 SUB PUSH0 DUP4 ADD MSTORE PUSH2 0x32A DUP2 PUSH2 0x2F1 JUMP JUMPDEST SWAP1 POP SWAP2 SWAP1 POP JUMP JUMPDEST PUSH32 0x4D65737361676520746F6F206C6F6E6700000000000000000000000000000000 PUSH0 DUP3 ADD MSTORE POP JUMP JUMPDEST PUSH0 PUSH2 0x365 PUSH1 0x10 DUP4 PUSH2 0x2B9 JUMP JUMPDEST SWAP2 POP PUSH2 0x370 DUP3 PUSH2 0x331 JUMP JUMPDEST PUSH1 0x20 DUP3 ADD SWAP1 POP SWAP2 SWAP1 POP JUMP JUMPDEST PUSH0 PUSH1 0x20 DUP3 ADD SWAP1 POP DUP2 DUP2 SUB PUSH0 DUP4 ADD MSTORE PUSH2 0x392 DUP2 PUSH2 0x359 JUMP JUMPDEST SWAP1 POP SWAP2 SWAP1 POP JUMP JUMPDEST PUSH0 DUP2 MLOAD SWAP1 POP SWAP2 SWAP1 POP JUMP JUMPDEST DUP3 DUP2 DUP4 MCOPY PUSH0 DUP4 DUP4 ADD MSTORE POP POP POP JUMP JUMPDEST PUSH0 PUSH2 0x3BB DUP3 PUSH2 0x399 JUMP JUMPDEST PUSH2 0x3C5 DUP2 DUP6 PUSH2 0x2B9 JUMP JUMPDEST SWAP4 POP PUSH2 0x3D5 DUP2 DUP6 PUSH1 0x20 DUP7 ADD PUSH2 0x3A3 JUMP JUMPDEST PUSH2 0x3DE DUP2 PUSH2 0x13E JUMP JUMPDEST DUP5 ADD SWAP2 POP POP SWAP3 SWAP2 POP POP JUMP JUMPDEST PUSH0 DUP2 SWAP1 POP SWAP2 SWAP1 POP JUMP JUMPDEST PUSH2 0x3FB DUP2 PUSH2 0x3E9 JUMP JUMPDEST DUP3 MSTORE POP POP JUMP JUMPDEST PUSH0 PUSH1 0x40 DUP3 ADD SWAP1 POP DUP2 DUP2 SUB PUSH0 DUP4 ADD MSTORE PUSH2 0x419 DUP2 DUP6 PUSH2 0x3B1 JUMP JUMPDEST SWAP1 POP PUSH2 0x428 PUSH1 0x20 DUP4 ADD DUP5 PUSH2 0x3F2 JUMP JUMPDEST SWAP4 SWAP3 POP POP POP JUMP INVALID LOG2 PUSH5 0x6970667358 0x22 SLT KECCAK256 0x27 PUSH11 0xDEE10435D3A9CB7B2BDD0B 0xCB 0xBC DUP2 0x2A 0xD PUSH10 0x206603963AF3CE84CA7E 0x1F 0xC5 0xF6 PUSH5 0x736F6C6343 STOP ADDMOD 0x1F STOP CALLER "
				},
				"gasEstimates": {
					"creation": {
						"codeDepositCost": "225000",
						"executionCost": "267",
						"totalCost": "225267"
					},
					"external": {
						"postMessage(string)": "infinite"
					}
				},
				"methodIdentifiers": {
					"postMessage(string)": "6630f88f"
				}
			},
			"storageLayout": {
				"storage": [],
				"types": null
			},
			"userdoc": {
				"kind": "user",
				"methods": {},
				"version": 1
			}
		}
	}
}