{
	"contracts/lesson3.3/MultiSigWallet.sol": {
		"MultiSigWallet": {
			"abi": [
				{
					"inputs": [
						{
							"internalType": "address[]",
							"name": "_owners",
							"type": "address[]"
						},
						{
							"internalType": "uint256",
							"name": "_requiredApprovals",
							"type": "uint256"
						}
					],
					"stateMutability": "nonpayable",
					"type": "constructor"
				},
				{
					"anonymous": false,
					"inputs": [
						{
							"indexed": true,
							"internalType": "address",
							"name": "owner",
							"type": "address"
						},
						{
							"indexed": true,
							"internalType": "uint256",
							"name": "txId",
							"type": "uint256"
						}
					],
					"name": "ApproveTransaction",
					"type": "event"
				},
				{
					"anonymous": false,
					"inputs": [
						{
							"indexed": true,
							"internalType": "address",
							"name": "sender",
							"type": "address"
						},
						{
							"indexed": false,
							"internalType": "uint256",
							"name": "amount",
							"type": "uint256"
						}
					],
					"name": "Deposit",
					"type": "event"
				},
				{
					"anonymous": false,
					"inputs": [
						{
							"indexed": true,
							"internalType": "uint256",
							"name": "txId",
							"type": "uint256"
						}
					],
					"name": "ExecuteTransaction",
					"type": "event"
				},
				{
					"anonymous": false,
					"inputs": [
						{
							"indexed": true,
							"internalType": "address",
							"name": "owner",
							"type": "address"
						},
						{
							"indexed": true,
							"internalType": "uint256",
							"name": "txId",
							"type": "uint256"
						}
					],
					"name": "RevokeApproval",
					"type": "event"
				},
				{
					"anonymous": false,
					"inputs": [
						{
							"indexed": true,
							"internalType": "uint256",
							"name": "txId",
							"type": "uint256"
						}
					],
					"name": "SubmitTransaction",
					"type": "event"
				},
				{
					"inputs": [
						{
							"internalType": "uint256",
							"name": "_txId",
							"type": "uint256"
						}
					],
					"name": "approveTransaction",
					"outputs": [],
					"stateMutability": "nonpayable",
					"type": "function"
				},
				{
					"inputs": [
						{
							"internalType": "uint256",
							"name": "",
							"type": "uint256"
						},
						{
							"internalType": "address",
							"name": "",
							"type": "address"
						}
					],
					"name": "approved",
					"outputs": [
						{
							"internalType": "bool",
							"name": "",
							"type": "bool"
						}
					],
					"stateMutability": "view",
					"type": "function"
				},
				{
					"inputs": [
						{
							"internalType": "uint256",
							"name": "_txId",
							"type": "uint256"
						}
					],
					"name": "executeTransaction",
					"outputs": [],
					"stateMutability": "nonpayable",
					"type": "function"
				},
				{
					"inputs": [
						{
							"internalType": "address",
							"name": "",
							"type": "address"
						}
					],
					"name": "isOwner",
					"outputs": [
						{
							"internalType": "bool",
							"name": "",
							"type": "bool"
						}
					],
					"stateMutability": "view",
					"type": "function"
				},
				{
					"inputs": [
						{
							"internalType": "uint256",
							"name": "",
							"type": "uint256"
						}
					],
					"name": "owners",
					"outputs": [
						{
							"internalType": "address",
							"name": "",
							"type": "address"
						}
					],
					"stateMutability": "view",
					"type": "function"
				},
				{
					"inputs": [],
					"name": "requiredApprovals",
					"outputs": [
						{
							"internalType": "uint256",
							"name": "",
							"type": "uint256"
						}
					],
					"stateMutability": "view",
					"type": "function"
				},
				{
					"inputs": [
						{
							"internalType": "address",
							"name": "_to",
							"type": "address"
						},
						{
							"internalType": "uint256",
							"name": "_value",
							"type": "uint256"
						},
						{
							"internalType": "bytes",
							"name": "_data",
							"type": "bytes"
						}
					],
					"name": "submitTransaction",
					"outputs": [],
					"stateMutability": "nonpayable",
					"type": "function"
				},
				{
					"inputs": [
						{
							"internalType": "uint256",
							"name": "",
							"type": "uint256"
						}
					],
					"name": "transactions",
					"outputs": [
						{
							"internalType": "address",
							"name": "to",
							"type": "address"
						},
						{
							"internalType": "uint256",
							"name": "value",
							"type": "uint256"
						},
						{
							"internalType": "bytes",
							"name": "data",
							"type": "bytes"
						},
						{
							"internalType": "bool",
							"name": "executed",
							"type": "bool"
						}
					],
					"stateMutability": "view",
					"type": "function"
				},
				{
					"stateMutability": "payable",
					"type": "receive"
				}
			],
			"devdoc": {
				"kind": "dev",
				"methods": {},
				"version": 1
			},
			"evm": {
				"assembly": "    /* \"contracts/lesson3.3/MultiSigWallet.sol\":57:3225  contract MultiSigWallet {... */\n  mstore(0x40, 0x80)\n    /* \"contracts/lesson3.3/MultiSigWallet.sol\":1243:1866  constructor(address[] memory _owners, uint256 _requiredApprovals) {... */\n  callvalue\n  dup1\n  iszero\n  tag_1\n  jumpi\n  revert(0x00, 0x00)\ntag_1:\n  pop\n  mload(0x40)\n  sub(codesize, bytecodeSize)\n  dup1\n  bytecodeSize\n  dup4\n  codecopy\n  dup2\n  dup2\n  add\n  0x40\n  mstore\n  dup2\n  add\n  swap1\n  tag_2\n  swap2\n  swap1\n  tag_3\n  jump\t// in\ntag_2:\n    /* \"contracts/lesson3.3/MultiSigWallet.sol\":1344:1345  0 */\n  0x00\n    /* \"contracts/lesson3.3/MultiSigWallet.sol\":1327:1334  _owners */\n  dup3\n    /* \"contracts/lesson3.3/MultiSigWallet.sol\":1327:1341  _owners.length */\n  mload\n    /* \"contracts/lesson3.3/MultiSigWallet.sol\":1327:1345  _owners.length > 0 */\n  gt\n    /* \"contracts/lesson3.3/MultiSigWallet.sol\":1319:1365  require(_owners.length > 0, \"Owners required\") */\n  tag_6\n  jumpi\n  mload(0x40)\n  0x08c379a000000000000000000000000000000000000000000000000000000000\n  dup2\n  mstore\n  0x04\n  add\n  tag_7\n  swap1\n  tag_8\n  jump\t// in\ntag_7:\n  mload(0x40)\n  dup1\n  swap2\n  sub\n  swap1\n  revert\ntag_6:\n    /* \"contracts/lesson3.3/MultiSigWallet.sol\":1417:1418  0 */\n  0x00\n    /* \"contracts/lesson3.3/MultiSigWallet.sol\":1396:1414  _requiredApprovals */\n  dup2\n    /* \"contracts/lesson3.3/MultiSigWallet.sol\":1396:1418  _requiredApprovals > 0 */\n  gt\n    /* \"contracts/lesson3.3/MultiSigWallet.sol\":1396:1458  _requiredApprovals > 0 && _requiredApprovals <= _owners.length */\n  dup1\n  iszero\n  tag_9\n  jumpi\n  pop\n    /* \"contracts/lesson3.3/MultiSigWallet.sol\":1444:1451  _owners */\n  dup2\n    /* \"contracts/lesson3.3/MultiSigWallet.sol\":1444:1458  _owners.length */\n  mload\n    /* \"contracts/lesson3.3/MultiSigWallet.sol\":1422:1440  _requiredApprovals */\n  dup2\n    /* \"contracts/lesson3.3/MultiSigWallet.sol\":1422:1458  _requiredApprovals <= _owners.length */\n  gt\n  iszero\n    /* \"contracts/lesson3.3/MultiSigWallet.sol\":1396:1458  _requiredApprovals > 0 && _requiredApprovals <= _owners.length */\ntag_9:\n    /* \"contracts/lesson3.3/MultiSigWallet.sol\":1375:1520  require(... */\n  tag_10\n  jumpi\n  mload(0x40)\n  0x08c379a000000000000000000000000000000000000000000000000000000000\n  dup2\n  mstore\n  0x04\n  add\n  tag_11\n  swap1\n  tag_12\n  jump\t// in\ntag_11:\n  mload(0x40)\n  dup1\n  swap2\n  sub\n  swap1\n  revert\ntag_10:\n    /* \"contracts/lesson3.3/MultiSigWallet.sol\":1536:1545  uint256 i */\n  0x00\n    /* \"contracts/lesson3.3/MultiSigWallet.sol\":1548:1549  0 */\n  0x00\n    /* \"contracts/lesson3.3/MultiSigWallet.sol\":1536:1549  uint256 i = 0 */\n  swap1\n  pop\n    /* \"contracts/lesson3.3/MultiSigWallet.sol\":1531:1811  for (uint256 i = 0; i < _owners.length; i++) {... */\ntag_13:\n    /* \"contracts/lesson3.3/MultiSigWallet.sol\":1555:1562  _owners */\n  dup3\n    /* \"contracts/lesson3.3/MultiSigWallet.sol\":1555:1569  _owners.length */\n  mload\n    /* \"contracts/lesson3.3/MultiSigWallet.sol\":1551:1552  i */\n  dup2\n    /* \"contracts/lesson3.3/MultiSigWallet.sol\":1551:1569  i < _owners.length */\n  lt\n    /* \"contracts/lesson3.3/MultiSigWallet.sol\":1531:1811  for (uint256 i = 0; i < _owners.length; i++) {... */\n  iszero\n  tag_14\n  jumpi\n    /* \"contracts/lesson3.3/MultiSigWallet.sol\":1590:1603  address owner */\n  0x00\n    /* \"contracts/lesson3.3/MultiSigWallet.sol\":1606:1613  _owners */\n  dup4\n    /* \"contracts/lesson3.3/MultiSigWallet.sol\":1614:1615  i */\n  dup3\n    /* \"contracts/lesson3.3/MultiSigWallet.sol\":1606:1616  _owners[i] */\n  dup2\n  mload\n  dup2\n  lt\n  tag_16\n  jumpi\n  tag_17\n  tag_18\n  jump\t// in\ntag_17:\ntag_16:\n  0x20\n  mul\n  0x20\n  add\n  add\n  mload\n    /* \"contracts/lesson3.3/MultiSigWallet.sol\":1590:1616  address owner = _owners[i] */\n  swap1\n  pop\n    /* \"contracts/lesson3.3/MultiSigWallet.sol\":1655:1656  0 */\n  0x00\n    /* \"contracts/lesson3.3/MultiSigWallet.sol\":1638:1657  owner != address(0) */\n  0xffffffffffffffffffffffffffffffffffffffff\n  and\n    /* \"contracts/lesson3.3/MultiSigWallet.sol\":1638:1643  owner */\n  dup2\n    /* \"contracts/lesson3.3/MultiSigWallet.sol\":1638:1657  owner != address(0) */\n  0xffffffffffffffffffffffffffffffffffffffff\n  and\n  sub\n    /* \"contracts/lesson3.3/MultiSigWallet.sol\":1630:1675  require(owner != address(0), \"Invalid owner\") */\n  tag_19\n  jumpi\n  mload(0x40)\n  0x08c379a000000000000000000000000000000000000000000000000000000000\n  dup2\n  mstore\n  0x04\n  add\n  tag_20\n  swap1\n  tag_21\n  jump\t// in\ntag_20:\n  mload(0x40)\n  dup1\n  swap2\n  sub\n  swap1\n  revert\ntag_19:\n    /* \"contracts/lesson3.3/MultiSigWallet.sol\":1698:1705  isOwner */\n  0x01\n    /* \"contracts/lesson3.3/MultiSigWallet.sol\":1698:1712  isOwner[owner] */\n  0x00\n    /* \"contracts/lesson3.3/MultiSigWallet.sol\":1706:1711  owner */\n  dup3\n    /* \"contracts/lesson3.3/MultiSigWallet.sol\":1698:1712  isOwner[owner] */\n  0xffffffffffffffffffffffffffffffffffffffff\n  and\n  0xffffffffffffffffffffffffffffffffffffffff\n  and\n  dup2\n  mstore\n  0x20\n  add\n  swap1\n  dup2\n  mstore\n  0x20\n  add\n  0x00\n  keccak256\n  0x00\n  swap1\n  sload\n  swap1\n  0x0100\n  exp\n  swap1\n  div\n  0xff\n  and\n    /* \"contracts/lesson3.3/MultiSigWallet.sol\":1697:1712  !isOwner[owner] */\n  iszero\n    /* \"contracts/lesson3.3/MultiSigWallet.sol\":1689:1733  require(!isOwner[owner], \"Owner not unique\") */\n  tag_22\n  jumpi\n  mload(0x40)\n  0x08c379a000000000000000000000000000000000000000000000000000000000\n  dup2\n  mstore\n  0x04\n  add\n  tag_23\n  swap1\n  tag_24\n  jump\t// in\ntag_23:\n  mload(0x40)\n  dup1\n  swap2\n  sub\n  swap1\n  revert\ntag_22:\n    /* \"contracts/lesson3.3/MultiSigWallet.sol\":1764:1768  true */\n  0x01\n    /* \"contracts/lesson3.3/MultiSigWallet.sol\":1747:1754  isOwner */\n  dup1\n    /* \"contracts/lesson3.3/MultiSigWallet.sol\":1747:1761  isOwner[owner] */\n  0x00\n    /* \"contracts/lesson3.3/MultiSigWallet.sol\":1755:1760  owner */\n  dup4\n    /* \"contracts/lesson3.3/MultiSigWallet.sol\":1747:1761  isOwner[owner] */\n  0xffffffffffffffffffffffffffffffffffffffff\n  and\n  0xffffffffffffffffffffffffffffffffffffffff\n  and\n  dup2\n  mstore\n  0x20\n  add\n  swap1\n  dup2\n  mstore\n  0x20\n  add\n  0x00\n  keccak256\n  0x00\n    /* \"contracts/lesson3.3/MultiSigWallet.sol\":1747:1768  isOwner[owner] = true */\n  0x0100\n  exp\n  dup2\n  sload\n  dup2\n  0xff\n  mul\n  not\n  and\n  swap1\n  dup4\n  iszero\n  iszero\n  mul\n  or\n  swap1\n  sstore\n  pop\n    /* \"contracts/lesson3.3/MultiSigWallet.sol\":1782:1788  owners */\n  0x00\n    /* \"contracts/lesson3.3/MultiSigWallet.sol\":1794:1799  owner */\n  dup2\n    /* \"contracts/lesson3.3/MultiSigWallet.sol\":1782:1800  owners.push(owner) */\n  swap1\n  dup1\n  0x01\n  dup2\n  sload\n  add\n  dup1\n  dup3\n  sstore\n  dup1\n  swap2\n  pop\n  pop\n  0x01\n  swap1\n  sub\n  swap1\n  0x00\n  mstore\n  keccak256(0x00, 0x20)\n  add\n  0x00\n  swap1\n  swap2\n  swap1\n  swap2\n  swap1\n  swap2\n  0x0100\n  exp\n  dup2\n  sload\n  dup2\n  0xffffffffffffffffffffffffffffffffffffffff\n  mul\n  not\n  and\n  swap1\n  dup4\n  0xffffffffffffffffffffffffffffffffffffffff\n  and\n  mul\n  or\n  swap1\n  sstore\n  pop\n    /* \"contracts/lesson3.3/MultiSigWallet.sol\":1576:1811  {... */\n  pop\n    /* \"contracts/lesson3.3/MultiSigWallet.sol\":1571:1574  i++ */\n  dup1\n  dup1\n  0x01\n  add\n  swap2\n  pop\n  pop\n    /* \"contracts/lesson3.3/MultiSigWallet.sol\":1531:1811  for (uint256 i = 0; i < _owners.length; i++) {... */\n  jump(tag_13)\ntag_14:\n  pop\n    /* \"contracts/lesson3.3/MultiSigWallet.sol\":1841:1859  _requiredApprovals */\n  dup1\n    /* \"contracts/lesson3.3/MultiSigWallet.sol\":1821:1838  requiredApprovals */\n  0x02\n    /* \"contracts/lesson3.3/MultiSigWallet.sol\":1821:1859  requiredApprovals = _requiredApprovals */\n  dup2\n  swap1\n  sstore\n  pop\n    /* \"contracts/lesson3.3/MultiSigWallet.sol\":1243:1866  constructor(address[] memory _owners, uint256 _requiredApprovals) {... */\n  pop\n  pop\n    /* \"contracts/lesson3.3/MultiSigWallet.sol\":57:3225  contract MultiSigWallet {... */\n  jump(tag_26)\n    /* \"#utility.yul\":7:82   */\ntag_27:\n    /* \"#utility.yul\":40:46   */\n  0x00\n    /* \"#utility.yul\":73:75   */\n  0x40\n    /* \"#utility.yul\":67:76   */\n  mload\n    /* \"#utility.yul\":57:76   */\n  swap1\n  pop\n    /* \"#utility.yul\":7:82   */\n  swap1\n  jump\t// out\n    /* \"#utility.yul\":88:205   */\ntag_28:\n    /* \"#utility.yul\":197:198   */\n  0x00\n    /* \"#utility.yul\":194:195   */\n  0x00\n    /* \"#utility.yul\":187:199   */\n  revert\n    /* \"#utility.yul\":211:328   */\ntag_29:\n    /* \"#utility.yul\":320:321   */\n  0x00\n    /* \"#utility.yul\":317:318   */\n  0x00\n    /* \"#utility.yul\":310:322   */\n  revert\n    /* \"#utility.yul\":334:451   */\ntag_30:\n    /* \"#utility.yul\":443:444   */\n  0x00\n    /* \"#utility.yul\":440:441   */\n  0x00\n    /* \"#utility.yul\":433:445   */\n  revert\n    /* \"#utility.yul\":457:559   */\ntag_31:\n    /* \"#utility.yul\":498:504   */\n  0x00\n    /* \"#utility.yul\":549:551   */\n  0x1f\n    /* \"#utility.yul\":545:552   */\n  not\n    /* \"#utility.yul\":540:542   */\n  0x1f\n    /* \"#utility.yul\":533:538   */\n  dup4\n    /* \"#utility.yul\":529:543   */\n  add\n    /* \"#utility.yul\":525:553   */\n  and\n    /* \"#utility.yul\":515:553   */\n  swap1\n  pop\n    /* \"#utility.yul\":457:559   */\n  swap2\n  swap1\n  pop\n  jump\t// out\n    /* \"#utility.yul\":565:745   */\ntag_32:\n    /* \"#utility.yul\":613:690   */\n  0x4e487b7100000000000000000000000000000000000000000000000000000000\n    /* \"#utility.yul\":610:611   */\n  0x00\n    /* \"#utility.yul\":603:691   */\n  mstore\n    /* \"#utility.yul\":710:714   */\n  0x41\n    /* \"#utility.yul\":707:708   */\n  0x04\n    /* \"#utility.yul\":700:715   */\n  mstore\n    /* \"#utility.yul\":734:738   */\n  0x24\n    /* \"#utility.yul\":731:732   */\n  0x00\n    /* \"#utility.yul\":724:739   */\n  revert\n    /* \"#utility.yul\":751:1032   */\ntag_33:\n    /* \"#utility.yul\":834:861   */\n  tag_63\n    /* \"#utility.yul\":856:860   */\n  dup3\n    /* \"#utility.yul\":834:861   */\n  tag_31\n  jump\t// in\ntag_63:\n    /* \"#utility.yul\":826:832   */\n  dup2\n    /* \"#utility.yul\":822:862   */\n  add\n    /* \"#utility.yul\":964:970   */\n  dup2\n    /* \"#utility.yul\":952:962   */\n  dup2\n    /* \"#utility.yul\":949:971   */\n  lt\n    /* \"#utility.yul\":928:946   */\n  0xffffffffffffffff\n    /* \"#utility.yul\":916:926   */\n  dup3\n    /* \"#utility.yul\":913:947   */\n  gt\n    /* \"#utility.yul\":910:972   */\n  or\n    /* \"#utility.yul\":907:995   */\n  iszero\n  tag_64\n  jumpi\n    /* \"#utility.yul\":975:993   */\n  tag_65\n  tag_32\n  jump\t// in\ntag_65:\n    /* \"#utility.yul\":907:995   */\ntag_64:\n    /* \"#utility.yul\":1015:1025   */\n  dup1\n    /* \"#utility.yul\":1011:1013   */\n  0x40\n    /* \"#utility.yul\":1004:1026   */\n  mstore\n    /* \"#utility.yul\":794:1032   */\n  pop\n    /* \"#utility.yul\":751:1032   */\n  pop\n  pop\n  jump\t// out\n    /* \"#utility.yul\":1038:1167   */\ntag_34:\n    /* \"#utility.yul\":1072:1078   */\n  0x00\n    /* \"#utility.yul\":1099:1119   */\n  tag_67\n  tag_27\n  jump\t// in\ntag_67:\n    /* \"#utility.yul\":1089:1119   */\n  swap1\n  pop\n    /* \"#utility.yul\":1128:1161   */\n  tag_68\n    /* \"#utility.yul\":1156:1160   */\n  dup3\n    /* \"#utility.yul\":1148:1154   */\n  dup3\n    /* \"#utility.yul\":1128:1161   */\n  tag_33\n  jump\t// in\ntag_68:\n    /* \"#utility.yul\":1038:1167   */\n  swap2\n  swap1\n  pop\n  jump\t// out\n    /* \"#utility.yul\":1173:1484   */\ntag_35:\n    /* \"#utility.yul\":1250:1254   */\n  0x00\n    /* \"#utility.yul\":1340:1358   */\n  0xffffffffffffffff\n    /* \"#utility.yul\":1332:1338   */\n  dup3\n    /* \"#utility.yul\":1329:1359   */\n  gt\n    /* \"#utility.yul\":1326:1382   */\n  iszero\n  tag_70\n  jumpi\n    /* \"#utility.yul\":1362:1380   */\n  tag_71\n  tag_32\n  jump\t// in\ntag_71:\n    /* \"#utility.yul\":1326:1382   */\ntag_70:\n    /* \"#utility.yul\":1412:1416   */\n  0x20\n    /* \"#utility.yul\":1404:1410   */\n  dup3\n    /* \"#utility.yul\":1400:1417   */\n  mul\n    /* \"#utility.yul\":1392:1417   */\n  swap1\n  pop\n    /* \"#utility.yul\":1472:1476   */\n  0x20\n    /* \"#utility.yul\":1466:1470   */\n  dup2\n    /* \"#utility.yul\":1462:1477   */\n  add\n    /* \"#utility.yul\":1454:1477   */\n  swap1\n  pop\n    /* \"#utility.yul\":1173:1484   */\n  swap2\n  swap1\n  pop\n  jump\t// out\n    /* \"#utility.yul\":1490:1607   */\ntag_36:\n    /* \"#utility.yul\":1599:1600   */\n  0x00\n    /* \"#utility.yul\":1596:1597   */\n  0x00\n    /* \"#utility.yul\":1589:1601   */\n  revert\n    /* \"#utility.yul\":1613:1739   */\ntag_37:\n    /* \"#utility.yul\":1650:1657   */\n  0x00\n    /* \"#utility.yul\":1690:1732   */\n  0xffffffffffffffffffffffffffffffffffffffff\n    /* \"#utility.yul\":1683:1688   */\n  dup3\n    /* \"#utility.yul\":1679:1733   */\n  and\n    /* \"#utility.yul\":1668:1733   */\n  swap1\n  pop\n    /* \"#utility.yul\":1613:1739   */\n  swap2\n  swap1\n  pop\n  jump\t// out\n    /* \"#utility.yul\":1745:1841   */\ntag_38:\n    /* \"#utility.yul\":1782:1789   */\n  0x00\n    /* \"#utility.yul\":1811:1835   */\n  tag_75\n    /* \"#utility.yul\":1829:1834   */\n  dup3\n    /* \"#utility.yul\":1811:1835   */\n  tag_37\n  jump\t// in\ntag_75:\n    /* \"#utility.yul\":1800:1835   */\n  swap1\n  pop\n    /* \"#utility.yul\":1745:1841   */\n  swap2\n  swap1\n  pop\n  jump\t// out\n    /* \"#utility.yul\":1847:1969   */\ntag_39:\n    /* \"#utility.yul\":1920:1944   */\n  tag_77\n    /* \"#utility.yul\":1938:1943   */\n  dup2\n    /* \"#utility.yul\":1920:1944   */\n  tag_38\n  jump\t// in\ntag_77:\n    /* \"#utility.yul\":1913:1918   */\n  dup2\n    /* \"#utility.yul\":1910:1945   */\n  eq\n    /* \"#utility.yul\":1900:1963   */\n  tag_78\n  jumpi\n    /* \"#utility.yul\":1959:1960   */\n  0x00\n    /* \"#utility.yul\":1956:1957   */\n  0x00\n    /* \"#utility.yul\":1949:1961   */\n  revert\n    /* \"#utility.yul\":1900:1963   */\ntag_78:\n    /* \"#utility.yul\":1847:1969   */\n  pop\n  jump\t// out\n    /* \"#utility.yul\":1975:2118   */\ntag_40:\n    /* \"#utility.yul\":2032:2037   */\n  0x00\n    /* \"#utility.yul\":2063:2069   */\n  dup2\n    /* \"#utility.yul\":2057:2070   */\n  mload\n    /* \"#utility.yul\":2048:2070   */\n  swap1\n  pop\n    /* \"#utility.yul\":2079:2112   */\n  tag_80\n    /* \"#utility.yul\":2106:2111   */\n  dup2\n    /* \"#utility.yul\":2079:2112   */\n  tag_39\n  jump\t// in\ntag_80:\n    /* \"#utility.yul\":1975:2118   */\n  swap3\n  swap2\n  pop\n  pop\n  jump\t// out\n    /* \"#utility.yul\":2141:2873   */\ntag_41:\n    /* \"#utility.yul\":2248:2253   */\n  0x00\n    /* \"#utility.yul\":2273:2354   */\n  tag_82\n    /* \"#utility.yul\":2289:2353   */\n  tag_83\n    /* \"#utility.yul\":2346:2352   */\n  dup5\n    /* \"#utility.yul\":2289:2353   */\n  tag_35\n  jump\t// in\ntag_83:\n    /* \"#utility.yul\":2273:2354   */\n  tag_34\n  jump\t// in\ntag_82:\n    /* \"#utility.yul\":2264:2354   */\n  swap1\n  pop\n    /* \"#utility.yul\":2374:2379   */\n  dup1\n    /* \"#utility.yul\":2403:2409   */\n  dup4\n    /* \"#utility.yul\":2396:2401   */\n  dup3\n    /* \"#utility.yul\":2389:2410   */\n  mstore\n    /* \"#utility.yul\":2437:2441   */\n  0x20\n    /* \"#utility.yul\":2430:2435   */\n  dup3\n    /* \"#utility.yul\":2426:2442   */\n  add\n    /* \"#utility.yul\":2419:2442   */\n  swap1\n  pop\n    /* \"#utility.yul\":2490:2494   */\n  0x20\n    /* \"#utility.yul\":2482:2488   */\n  dup5\n    /* \"#utility.yul\":2478:2495   */\n  mul\n    /* \"#utility.yul\":2470:2476   */\n  dup4\n    /* \"#utility.yul\":2466:2496   */\n  add\n    /* \"#utility.yul\":2519:2522   */\n  dup6\n    /* \"#utility.yul\":2511:2517   */\n  dup2\n    /* \"#utility.yul\":2508:2523   */\n  gt\n    /* \"#utility.yul\":2505:2627   */\n  iszero\n  tag_84\n  jumpi\n    /* \"#utility.yul\":2538:2617   */\n  tag_85\n  tag_36\n  jump\t// in\ntag_85:\n    /* \"#utility.yul\":2505:2627   */\ntag_84:\n    /* \"#utility.yul\":2653:2659   */\n  dup4\n    /* \"#utility.yul\":2636:2867   */\ntag_86:\n    /* \"#utility.yul\":2670:2676   */\n  dup2\n    /* \"#utility.yul\":2665:2668   */\n  dup2\n    /* \"#utility.yul\":2662:2677   */\n  lt\n    /* \"#utility.yul\":2636:2867   */\n  iszero\n  tag_88\n  jumpi\n    /* \"#utility.yul\":2745:2748   */\n  dup1\n    /* \"#utility.yul\":2774:2822   */\n  tag_89\n    /* \"#utility.yul\":2818:2821   */\n  dup9\n    /* \"#utility.yul\":2806:2816   */\n  dup3\n    /* \"#utility.yul\":2774:2822   */\n  tag_40\n  jump\t// in\ntag_89:\n    /* \"#utility.yul\":2769:2772   */\n  dup5\n    /* \"#utility.yul\":2762:2823   */\n  mstore\n    /* \"#utility.yul\":2852:2856   */\n  0x20\n    /* \"#utility.yul\":2847:2850   */\n  dup5\n    /* \"#utility.yul\":2843:2857   */\n  add\n    /* \"#utility.yul\":2836:2857   */\n  swap4\n  pop\n    /* \"#utility.yul\":2712:2867   */\n  pop\n    /* \"#utility.yul\":2696:2700   */\n  0x20\n    /* \"#utility.yul\":2691:2694   */\n  dup2\n    /* \"#utility.yul\":2687:2701   */\n  add\n    /* \"#utility.yul\":2680:2701   */\n  swap1\n  pop\n    /* \"#utility.yul\":2636:2867   */\n  jump(tag_86)\ntag_88:\n    /* \"#utility.yul\":2640:2661   */\n  pop\n    /* \"#utility.yul\":2254:2873   */\n  pop\n  pop\n    /* \"#utility.yul\":2141:2873   */\n  swap4\n  swap3\n  pop\n  pop\n  pop\n  jump\t// out\n    /* \"#utility.yul\":2896:3281   */\ntag_42:\n    /* \"#utility.yul\":2978:2983   */\n  0x00\n    /* \"#utility.yul\":3027:3030   */\n  dup3\n    /* \"#utility.yul\":3020:3024   */\n  0x1f\n    /* \"#utility.yul\":3012:3018   */\n  dup4\n    /* \"#utility.yul\":3008:3025   */\n  add\n    /* \"#utility.yul\":3004:3031   */\n  slt\n    /* \"#utility.yul\":2994:3116   */\n  tag_91\n  jumpi\n    /* \"#utility.yul\":3035:3114   */\n  tag_92\n  tag_30\n  jump\t// in\ntag_92:\n    /* \"#utility.yul\":2994:3116   */\ntag_91:\n    /* \"#utility.yul\":3145:3151   */\n  dup2\n    /* \"#utility.yul\":3139:3152   */\n  mload\n    /* \"#utility.yul\":3170:3275   */\n  tag_93\n    /* \"#utility.yul\":3271:3274   */\n  dup5\n    /* \"#utility.yul\":3263:3269   */\n  dup3\n    /* \"#utility.yul\":3256:3260   */\n  0x20\n    /* \"#utility.yul\":3248:3254   */\n  dup7\n    /* \"#utility.yul\":3244:3261   */\n  add\n    /* \"#utility.yul\":3170:3275   */\n  tag_41\n  jump\t// in\ntag_93:\n    /* \"#utility.yul\":3161:3275   */\n  swap2\n  pop\n    /* \"#utility.yul\":2984:3281   */\n  pop\n    /* \"#utility.yul\":2896:3281   */\n  swap3\n  swap2\n  pop\n  pop\n  jump\t// out\n    /* \"#utility.yul\":3287:3364   */\ntag_43:\n    /* \"#utility.yul\":3324:3331   */\n  0x00\n    /* \"#utility.yul\":3353:3358   */\n  dup2\n    /* \"#utility.yul\":3342:3358   */\n  swap1\n  pop\n    /* \"#utility.yul\":3287:3364   */\n  swap2\n  swap1\n  pop\n  jump\t// out\n    /* \"#utility.yul\":3370:3492   */\ntag_44:\n    /* \"#utility.yul\":3443:3467   */\n  tag_96\n    /* \"#utility.yul\":3461:3466   */\n  dup2\n    /* \"#utility.yul\":3443:3467   */\n  tag_43\n  jump\t// in\ntag_96:\n    /* \"#utility.yul\":3436:3441   */\n  dup2\n    /* \"#utility.yul\":3433:3468   */\n  eq\n    /* \"#utility.yul\":3423:3486   */\n  tag_97\n  jumpi\n    /* \"#utility.yul\":3482:3483   */\n  0x00\n    /* \"#utility.yul\":3479:3480   */\n  0x00\n    /* \"#utility.yul\":3472:3484   */\n  revert\n    /* \"#utility.yul\":3423:3486   */\ntag_97:\n    /* \"#utility.yul\":3370:3492   */\n  pop\n  jump\t// out\n    /* \"#utility.yul\":3498:3641   */\ntag_45:\n    /* \"#utility.yul\":3555:3560   */\n  0x00\n    /* \"#utility.yul\":3586:3592   */\n  dup2\n    /* \"#utility.yul\":3580:3593   */\n  mload\n    /* \"#utility.yul\":3571:3593   */\n  swap1\n  pop\n    /* \"#utility.yul\":3602:3635   */\n  tag_99\n    /* \"#utility.yul\":3629:3634   */\n  dup2\n    /* \"#utility.yul\":3602:3635   */\n  tag_44\n  jump\t// in\ntag_99:\n    /* \"#utility.yul\":3498:3641   */\n  swap3\n  swap2\n  pop\n  pop\n  jump\t// out\n    /* \"#utility.yul\":3647:4357   */\ntag_3:\n    /* \"#utility.yul\":3751:3757   */\n  0x00\n    /* \"#utility.yul\":3759:3765   */\n  0x00\n    /* \"#utility.yul\":3808:3810   */\n  0x40\n    /* \"#utility.yul\":3796:3805   */\n  dup4\n    /* \"#utility.yul\":3787:3794   */\n  dup6\n    /* \"#utility.yul\":3783:3806   */\n  sub\n    /* \"#utility.yul\":3779:3811   */\n  slt\n    /* \"#utility.yul\":3776:3895   */\n  iszero\n  tag_101\n  jumpi\n    /* \"#utility.yul\":3814:3893   */\n  tag_102\n  tag_28\n  jump\t// in\ntag_102:\n    /* \"#utility.yul\":3776:3895   */\ntag_101:\n    /* \"#utility.yul\":3955:3956   */\n  0x00\n    /* \"#utility.yul\":3944:3953   */\n  dup4\n    /* \"#utility.yul\":3940:3957   */\n  add\n    /* \"#utility.yul\":3934:3958   */\n  mload\n    /* \"#utility.yul\":3985:4003   */\n  0xffffffffffffffff\n    /* \"#utility.yul\":3977:3983   */\n  dup2\n    /* \"#utility.yul\":3974:4004   */\n  gt\n    /* \"#utility.yul\":3971:4088   */\n  iszero\n  tag_103\n  jumpi\n    /* \"#utility.yul\":4007:4086   */\n  tag_104\n  tag_29\n  jump\t// in\ntag_104:\n    /* \"#utility.yul\":3971:4088   */\ntag_103:\n    /* \"#utility.yul\":4112:4201   */\n  tag_105\n    /* \"#utility.yul\":4193:4200   */\n  dup6\n    /* \"#utility.yul\":4184:4190   */\n  dup3\n    /* \"#utility.yul\":4173:4182   */\n  dup7\n    /* \"#utility.yul\":4169:4191   */\n  add\n    /* \"#utility.yul\":4112:4201   */\n  tag_42\n  jump\t// in\ntag_105:\n    /* \"#utility.yul\":4102:4201   */\n  swap3\n  pop\n    /* \"#utility.yul\":3905:4211   */\n  pop\n    /* \"#utility.yul\":4250:4252   */\n  0x20\n    /* \"#utility.yul\":4276:4340   */\n  tag_106\n    /* \"#utility.yul\":4332:4339   */\n  dup6\n    /* \"#utility.yul\":4323:4329   */\n  dup3\n    /* \"#utility.yul\":4312:4321   */\n  dup7\n    /* \"#utility.yul\":4308:4330   */\n  add\n    /* \"#utility.yul\":4276:4340   */\n  tag_45\n  jump\t// in\ntag_106:\n    /* \"#utility.yul\":4266:4340   */\n  swap2\n  pop\n    /* \"#utility.yul\":4221:4350   */\n  pop\n    /* \"#utility.yul\":3647:4357   */\n  swap3\n  pop\n  swap3\n  swap1\n  pop\n  jump\t// out\n    /* \"#utility.yul\":4363:4532   */\ntag_46:\n    /* \"#utility.yul\":4447:4458   */\n  0x00\n    /* \"#utility.yul\":4481:4487   */\n  dup3\n    /* \"#utility.yul\":4476:4479   */\n  dup3\n    /* \"#utility.yul\":4469:4488   */\n  mstore\n    /* \"#utility.yul\":4521:4525   */\n  0x20\n    /* \"#utility.yul\":4516:4519   */\n  dup3\n    /* \"#utility.yul\":4512:4526   */\n  add\n    /* \"#utility.yul\":4497:4526   */\n  swap1\n  pop\n    /* \"#utility.yul\":4363:4532   */\n  swap3\n  swap2\n  pop\n  pop\n  jump\t// out\n    /* \"#utility.yul\":4538:4703   */\ntag_47:\n    /* \"#utility.yul\":4678:4695   */\n  0x4f776e6572732072657175697265640000000000000000000000000000000000\n    /* \"#utility.yul\":4674:4675   */\n  0x00\n    /* \"#utility.yul\":4666:4672   */\n  dup3\n    /* \"#utility.yul\":4662:4676   */\n  add\n    /* \"#utility.yul\":4655:4696   */\n  mstore\n    /* \"#utility.yul\":4538:4703   */\n  pop\n  jump\t// out\n    /* \"#utility.yul\":4709:5075   */\ntag_48:\n    /* \"#utility.yul\":4851:4854   */\n  0x00\n    /* \"#utility.yul\":4872:4939   */\n  tag_110\n    /* \"#utility.yul\":4936:4938   */\n  0x0f\n    /* \"#utility.yul\":4931:4934   */\n  dup4\n    /* \"#utility.yul\":4872:4939   */\n  tag_46\n  jump\t// in\ntag_110:\n    /* \"#utility.yul\":4865:4939   */\n  swap2\n  pop\n    /* \"#utility.yul\":4948:5041   */\n  tag_111\n    /* \"#utility.yul\":5037:5040   */\n  dup3\n    /* \"#utility.yul\":4948:5041   */\n  tag_47\n  jump\t// in\ntag_111:\n    /* \"#utility.yul\":5066:5068   */\n  0x20\n    /* \"#utility.yul\":5061:5064   */\n  dup3\n    /* \"#utility.yul\":5057:5069   */\n  add\n    /* \"#utility.yul\":5050:5069   */\n  swap1\n  pop\n    /* \"#utility.yul\":4709:5075   */\n  swap2\n  swap1\n  pop\n  jump\t// out\n    /* \"#utility.yul\":5081:5500   */\ntag_8:\n    /* \"#utility.yul\":5247:5251   */\n  0x00\n    /* \"#utility.yul\":5285:5287   */\n  0x20\n    /* \"#utility.yul\":5274:5283   */\n  dup3\n    /* \"#utility.yul\":5270:5288   */\n  add\n    /* \"#utility.yul\":5262:5288   */\n  swap1\n  pop\n    /* \"#utility.yul\":5334:5343   */\n  dup2\n    /* \"#utility.yul\":5328:5332   */\n  dup2\n    /* \"#utility.yul\":5324:5344   */\n  sub\n    /* \"#utility.yul\":5320:5321   */\n  0x00\n    /* \"#utility.yul\":5309:5318   */\n  dup4\n    /* \"#utility.yul\":5305:5322   */\n  add\n    /* \"#utility.yul\":5298:5345   */\n  mstore\n    /* \"#utility.yul\":5362:5493   */\n  tag_113\n    /* \"#utility.yul\":5488:5492   */\n  dup2\n    /* \"#utility.yul\":5362:5493   */\n  tag_48\n  jump\t// in\ntag_113:\n    /* \"#utility.yul\":5354:5493   */\n  swap1\n  pop\n    /* \"#utility.yul\":5081:5500   */\n  swap2\n  swap1\n  pop\n  jump\t// out\n    /* \"#utility.yul\":5506:5729   */\ntag_49:\n    /* \"#utility.yul\":5646:5680   */\n  0x496e76616c6964206e756d626572206f6620726571756972656420617070726f\n    /* \"#utility.yul\":5642:5643   */\n  0x00\n    /* \"#utility.yul\":5634:5640   */\n  dup3\n    /* \"#utility.yul\":5630:5644   */\n  add\n    /* \"#utility.yul\":5623:5681   */\n  mstore\n    /* \"#utility.yul\":5715:5721   */\n  0x76616c7300000000000000000000000000000000000000000000000000000000\n    /* \"#utility.yul\":5710:5712   */\n  0x20\n    /* \"#utility.yul\":5702:5708   */\n  dup3\n    /* \"#utility.yul\":5698:5713   */\n  add\n    /* \"#utility.yul\":5691:5722   */\n  mstore\n    /* \"#utility.yul\":5506:5729   */\n  pop\n  jump\t// out\n    /* \"#utility.yul\":5735:6101   */\ntag_50:\n    /* \"#utility.yul\":5877:5880   */\n  0x00\n    /* \"#utility.yul\":5898:5965   */\n  tag_116\n    /* \"#utility.yul\":5962:5964   */\n  0x24\n    /* \"#utility.yul\":5957:5960   */\n  dup4\n    /* \"#utility.yul\":5898:5965   */\n  tag_46\n  jump\t// in\ntag_116:\n    /* \"#utility.yul\":5891:5965   */\n  swap2\n  pop\n    /* \"#utility.yul\":5974:6067   */\n  tag_117\n    /* \"#utility.yul\":6063:6066   */\n  dup3\n    /* \"#utility.yul\":5974:6067   */\n  tag_49\n  jump\t// in\ntag_117:\n    /* \"#utility.yul\":6092:6094   */\n  0x40\n    /* \"#utility.yul\":6087:6090   */\n  dup3\n    /* \"#utility.yul\":6083:6095   */\n  add\n    /* \"#utility.yul\":6076:6095   */\n  swap1\n  pop\n    /* \"#utility.yul\":5735:6101   */\n  swap2\n  swap1\n  pop\n  jump\t// out\n    /* \"#utility.yul\":6107:6526   */\ntag_12:\n    /* \"#utility.yul\":6273:6277   */\n  0x00\n    /* \"#utility.yul\":6311:6313   */\n  0x20\n    /* \"#utility.yul\":6300:6309   */\n  dup3\n    /* \"#utility.yul\":6296:6314   */\n  add\n    /* \"#utility.yul\":6288:6314   */\n  swap1\n  pop\n    /* \"#utility.yul\":6360:6369   */\n  dup2\n    /* \"#utility.yul\":6354:6358   */\n  dup2\n    /* \"#utility.yul\":6350:6370   */\n  sub\n    /* \"#utility.yul\":6346:6347   */\n  0x00\n    /* \"#utility.yul\":6335:6344   */\n  dup4\n    /* \"#utility.yul\":6331:6348   */\n  add\n    /* \"#utility.yul\":6324:6371   */\n  mstore\n    /* \"#utility.yul\":6388:6519   */\n  tag_119\n    /* \"#utility.yul\":6514:6518   */\n  dup2\n    /* \"#utility.yul\":6388:6519   */\n  tag_50\n  jump\t// in\ntag_119:\n    /* \"#utility.yul\":6380:6519   */\n  swap1\n  pop\n    /* \"#utility.yul\":6107:6526   */\n  swap2\n  swap1\n  pop\n  jump\t// out\n    /* \"#utility.yul\":6532:6712   */\ntag_18:\n    /* \"#utility.yul\":6580:6657   */\n  0x4e487b7100000000000000000000000000000000000000000000000000000000\n    /* \"#utility.yul\":6577:6578   */\n  0x00\n    /* \"#utility.yul\":6570:6658   */\n  mstore\n    /* \"#utility.yul\":6677:6681   */\n  0x32\n    /* \"#utility.yul\":6674:6675   */\n  0x04\n    /* \"#utility.yul\":6667:6682   */\n  mstore\n    /* \"#utility.yul\":6701:6705   */\n  0x24\n    /* \"#utility.yul\":6698:6699   */\n  0x00\n    /* \"#utility.yul\":6691:6706   */\n  revert\n    /* \"#utility.yul\":6718:6881   */\ntag_51:\n    /* \"#utility.yul\":6858:6873   */\n  0x496e76616c6964206f776e657200000000000000000000000000000000000000\n    /* \"#utility.yul\":6854:6855   */\n  0x00\n    /* \"#utility.yul\":6846:6852   */\n  dup3\n    /* \"#utility.yul\":6842:6856   */\n  add\n    /* \"#utility.yul\":6835:6874   */\n  mstore\n    /* \"#utility.yul\":6718:6881   */\n  pop\n  jump\t// out\n    /* \"#utility.yul\":6887:7253   */\ntag_52:\n    /* \"#utility.yul\":7029:7032   */\n  0x00\n    /* \"#utility.yul\":7050:7117   */\n  tag_123\n    /* \"#utility.yul\":7114:7116   */\n  0x0d\n    /* \"#utility.yul\":7109:7112   */\n  dup4\n    /* \"#utility.yul\":7050:7117   */\n  tag_46\n  jump\t// in\ntag_123:\n    /* \"#utility.yul\":7043:7117   */\n  swap2\n  pop\n    /* \"#utility.yul\":7126:7219   */\n  tag_124\n    /* \"#utility.yul\":7215:7218   */\n  dup3\n    /* \"#utility.yul\":7126:7219   */\n  tag_51\n  jump\t// in\ntag_124:\n    /* \"#utility.yul\":7244:7246   */\n  0x20\n    /* \"#utility.yul\":7239:7242   */\n  dup3\n    /* \"#utility.yul\":7235:7247   */\n  add\n    /* \"#utility.yul\":7228:7247   */\n  swap1\n  pop\n    /* \"#utility.yul\":6887:7253   */\n  swap2\n  swap1\n  pop\n  jump\t// out\n    /* \"#utility.yul\":7259:7678   */\ntag_21:\n    /* \"#utility.yul\":7425:7429   */\n  0x00\n    /* \"#utility.yul\":7463:7465   */\n  0x20\n    /* \"#utility.yul\":7452:7461   */\n  dup3\n    /* \"#utility.yul\":7448:7466   */\n  add\n    /* \"#utility.yul\":7440:7466   */\n  swap1\n  pop\n    /* \"#utility.yul\":7512:7521   */\n  dup2\n    /* \"#utility.yul\":7506:7510   */\n  dup2\n    /* \"#utility.yul\":7502:7522   */\n  sub\n    /* \"#utility.yul\":7498:7499   */\n  0x00\n    /* \"#utility.yul\":7487:7496   */\n  dup4\n    /* \"#utility.yul\":7483:7500   */\n  add\n    /* \"#utility.yul\":7476:7523   */\n  mstore\n    /* \"#utility.yul\":7540:7671   */\n  tag_126\n    /* \"#utility.yul\":7666:7670   */\n  dup2\n    /* \"#utility.yul\":7540:7671   */\n  tag_52\n  jump\t// in\ntag_126:\n    /* \"#utility.yul\":7532:7671   */\n  swap1\n  pop\n    /* \"#utility.yul\":7259:7678   */\n  swap2\n  swap1\n  pop\n  jump\t// out\n    /* \"#utility.yul\":7684:7850   */\ntag_53:\n    /* \"#utility.yul\":7824:7842   */\n  0x4f776e6572206e6f7420756e6971756500000000000000000000000000000000\n    /* \"#utility.yul\":7820:7821   */\n  0x00\n    /* \"#utility.yul\":7812:7818   */\n  dup3\n    /* \"#utility.yul\":7808:7822   */\n  add\n    /* \"#utility.yul\":7801:7843   */\n  mstore\n    /* \"#utility.yul\":7684:7850   */\n  pop\n  jump\t// out\n    /* \"#utility.yul\":7856:8222   */\ntag_54:\n    /* \"#utility.yul\":7998:8001   */\n  0x00\n    /* \"#utility.yul\":8019:8086   */\n  tag_129\n    /* \"#utility.yul\":8083:8085   */\n  0x10\n    /* \"#utility.yul\":8078:8081   */\n  dup4\n    /* \"#utility.yul\":8019:8086   */\n  tag_46\n  jump\t// in\ntag_129:\n    /* \"#utility.yul\":8012:8086   */\n  swap2\n  pop\n    /* \"#utility.yul\":8095:8188   */\n  tag_130\n    /* \"#utility.yul\":8184:8187   */\n  dup3\n    /* \"#utility.yul\":8095:8188   */\n  tag_53\n  jump\t// in\ntag_130:\n    /* \"#utility.yul\":8213:8215   */\n  0x20\n    /* \"#utility.yul\":8208:8211   */\n  dup3\n    /* \"#utility.yul\":8204:8216   */\n  add\n    /* \"#utility.yul\":8197:8216   */\n  swap1\n  pop\n    /* \"#utility.yul\":7856:8222   */\n  swap2\n  swap1\n  pop\n  jump\t// out\n    /* \"#utility.yul\":8228:8647   */\ntag_24:\n    /* \"#utility.yul\":8394:8398   */\n  0x00\n    /* \"#utility.yul\":8432:8434   */\n  0x20\n    /* \"#utility.yul\":8421:8430   */\n  dup3\n    /* \"#utility.yul\":8417:8435   */\n  add\n    /* \"#utility.yul\":8409:8435   */\n  swap1\n  pop\n    /* \"#utility.yul\":8481:8490   */\n  dup2\n    /* \"#utility.yul\":8475:8479   */\n  dup2\n    /* \"#utility.yul\":8471:8491   */\n  sub\n    /* \"#utility.yul\":8467:8468   */\n  0x00\n    /* \"#utility.yul\":8456:8465   */\n  dup4\n    /* \"#utility.yul\":8452:8469   */\n  add\n    /* \"#utility.yul\":8445:8492   */\n  mstore\n    /* \"#utility.yul\":8509:8640   */\n  tag_132\n    /* \"#utility.yul\":8635:8639   */\n  dup2\n    /* \"#utility.yul\":8509:8640   */\n  tag_54\n  jump\t// in\ntag_132:\n    /* \"#utility.yul\":8501:8640   */\n  swap1\n  pop\n    /* \"#utility.yul\":8228:8647   */\n  swap2\n  swap1\n  pop\n  jump\t// out\n    /* \"contracts/lesson3.3/MultiSigWallet.sol\":57:3225  contract MultiSigWallet {... */\ntag_26:\n  dataSize(sub_0)\n  dup1\n  dataOffset(sub_0)\n  0x00\n  codecopy\n  0x00\n  return\nstop\n\nsub_0: assembly {\n        /* \"contracts/lesson3.3/MultiSigWallet.sol\":57:3225  contract MultiSigWallet {... */\n      mstore(0x40, 0x80)\n      jumpi(tag_1, lt(calldatasize, 0x04))\n      shr(0xe0, calldataload(0x00))\n      dup1\n      0x99c1aadc\n      gt\n      tag_11\n      jumpi\n      dup1\n      0x99c1aadc\n      eq\n      tag_7\n      jumpi\n      dup1\n      0x9ace38c2\n      eq\n      tag_8\n      jumpi\n      dup1\n      0xc6427474\n      eq\n      tag_9\n      jumpi\n      dup1\n      0xee22610b\n      eq\n      tag_10\n      jumpi\n      jump(tag_2)\n    tag_11:\n      dup1\n      0x025e7c27\n      eq\n      tag_3\n      jumpi\n      dup1\n      0x242232d1\n      eq\n      tag_4\n      jumpi\n      dup1\n      0x2f54bf6e\n      eq\n      tag_5\n      jumpi\n      dup1\n      0x8253951a\n      eq\n      tag_6\n      jumpi\n      jump(tag_2)\n    tag_1:\n      jumpi(tag_2, calldatasize)\n        /* \"contracts/lesson3.3/MultiSigWallet.sol\":1922:1932  msg.sender */\n      caller\n        /* \"contracts/lesson3.3/MultiSigWallet.sol\":1914:1944  Deposit(msg.sender, msg.value) */\n      0xffffffffffffffffffffffffffffffffffffffff\n      and\n      0xe1fffcc4923d04b559f4d29a8bfc6cda04eb5b0d3c460751c2402c5c5cc9109c\n        /* \"contracts/lesson3.3/MultiSigWallet.sol\":1934:1943  msg.value */\n      callvalue\n        /* \"contracts/lesson3.3/MultiSigWallet.sol\":1914:1944  Deposit(msg.sender, msg.value) */\n      mload(0x40)\n      tag_14\n      swap2\n      swap1\n      tag_15\n      jump\t// in\n    tag_14:\n      mload(0x40)\n      dup1\n      swap2\n      sub\n      swap1\n      log2\n        /* \"contracts/lesson3.3/MultiSigWallet.sol\":57:3225  contract MultiSigWallet {... */\n      stop\n    tag_2:\n      revert(0x00, 0x00)\n        /* \"contracts/lesson3.3/MultiSigWallet.sol\":514:537  address[] public owners */\n    tag_3:\n      callvalue\n      dup1\n      iszero\n      tag_16\n      jumpi\n      revert(0x00, 0x00)\n    tag_16:\n      pop\n      tag_17\n      0x04\n      dup1\n      calldatasize\n      sub\n      dup2\n      add\n      swap1\n      tag_18\n      swap2\n      swap1\n      tag_19\n      jump\t// in\n    tag_18:\n      tag_20\n      jump\t// in\n    tag_17:\n      mload(0x40)\n      tag_21\n      swap2\n      swap1\n      tag_22\n      jump\t// in\n    tag_21:\n      mload(0x40)\n      dup1\n      swap2\n      sub\n      swap1\n      return\n        /* \"contracts/lesson3.3/MultiSigWallet.sol\":2293:2524  function approveTransaction(... */\n    tag_4:\n      callvalue\n      dup1\n      iszero\n      tag_23\n      jumpi\n      revert(0x00, 0x00)\n    tag_23:\n      pop\n      tag_24\n      0x04\n      dup1\n      calldatasize\n      sub\n      dup2\n      add\n      swap1\n      tag_25\n      swap2\n      swap1\n      tag_19\n      jump\t// in\n    tag_25:\n      tag_26\n      jump\t// in\n    tag_24:\n      stop\n        /* \"contracts/lesson3.3/MultiSigWallet.sol\":543:582  mapping(address => bool) public isOwner */\n    tag_5:\n      callvalue\n      dup1\n      iszero\n      tag_27\n      jumpi\n      revert(0x00, 0x00)\n    tag_27:\n      pop\n      tag_28\n      0x04\n      dup1\n      calldatasize\n      sub\n      dup2\n      add\n      swap1\n      tag_29\n      swap2\n      swap1\n      tag_30\n      jump\t// in\n    tag_29:\n      tag_31\n      jump\t// in\n    tag_28:\n      mload(0x40)\n      tag_32\n      swap2\n      swap1\n      tag_33\n      jump\t// in\n    tag_32:\n      mload(0x40)\n      dup1\n      swap2\n      sub\n      swap1\n      return\n        /* \"contracts/lesson3.3/MultiSigWallet.sol\":665:725  mapping(uint256 => mapping(address => bool)) public approved */\n    tag_6:\n      callvalue\n      dup1\n      iszero\n      tag_34\n      jumpi\n      revert(0x00, 0x00)\n    tag_34:\n      pop\n      tag_35\n      0x04\n      dup1\n      calldatasize\n      sub\n      dup2\n      add\n      swap1\n      tag_36\n      swap2\n      swap1\n      tag_37\n      jump\t// in\n    tag_36:\n      tag_38\n      jump\t// in\n    tag_35:\n      mload(0x40)\n      tag_39\n      swap2\n      swap1\n      tag_33\n      jump\t// in\n    tag_39:\n      mload(0x40)\n      dup1\n      swap2\n      sub\n      swap1\n      return\n        /* \"contracts/lesson3.3/MultiSigWallet.sol\":588:620  uint256 public requiredApprovals */\n    tag_7:\n      callvalue\n      dup1\n      iszero\n      tag_40\n      jumpi\n      revert(0x00, 0x00)\n    tag_40:\n      pop\n      tag_41\n      tag_42\n      jump\t// in\n    tag_41:\n      mload(0x40)\n      tag_43\n      swap2\n      swap1\n      tag_15\n      jump\t// in\n    tag_43:\n      mload(0x40)\n      dup1\n      swap2\n      sub\n      swap1\n      return\n        /* \"contracts/lesson3.3/MultiSigWallet.sol\":626:659  Transaction[] public transactions */\n    tag_8:\n      callvalue\n      dup1\n      iszero\n      tag_44\n      jumpi\n      revert(0x00, 0x00)\n    tag_44:\n      pop\n      tag_45\n      0x04\n      dup1\n      calldatasize\n      sub\n      dup2\n      add\n      swap1\n      tag_46\n      swap2\n      swap1\n      tag_19\n      jump\t// in\n    tag_46:\n      tag_47\n      jump\t// in\n    tag_45:\n      mload(0x40)\n      tag_48\n      swap5\n      swap4\n      swap3\n      swap2\n      swap1\n      tag_49\n      jump\t// in\n    tag_48:\n      mload(0x40)\n      dup1\n      swap2\n      sub\n      swap1\n      return\n        /* \"contracts/lesson3.3/MultiSigWallet.sol\":1957:2287  function submitTransaction(... */\n    tag_9:\n      callvalue\n      dup1\n      iszero\n      tag_50\n      jumpi\n      revert(0x00, 0x00)\n    tag_50:\n      pop\n      tag_51\n      0x04\n      dup1\n      calldatasize\n      sub\n      dup2\n      add\n      swap1\n      tag_52\n      swap2\n      swap1\n      tag_53\n      jump\t// in\n    tag_52:\n      tag_54\n      jump\t// in\n    tag_51:\n      stop\n        /* \"contracts/lesson3.3/MultiSigWallet.sol\":2530:3223  function executeTransaction(... */\n    tag_10:\n      callvalue\n      dup1\n      iszero\n      tag_55\n      jumpi\n      revert(0x00, 0x00)\n    tag_55:\n      pop\n      tag_56\n      0x04\n      dup1\n      calldatasize\n      sub\n      dup2\n      add\n      swap1\n      tag_57\n      swap2\n      swap1\n      tag_19\n      jump\t// in\n    tag_57:\n      tag_58\n      jump\t// in\n    tag_56:\n      stop\n        /* \"contracts/lesson3.3/MultiSigWallet.sol\":514:537  address[] public owners */\n    tag_20:\n      0x00\n      dup2\n      dup2\n      sload\n      dup2\n      lt\n      tag_59\n      jumpi\n      0x00\n      dup1\n      revert\n    tag_59:\n      swap1\n      0x00\n      mstore\n      keccak256(0x00, 0x20)\n      add\n      0x00\n      swap2\n      pop\n      sload\n      swap1\n      0x0100\n      exp\n      swap1\n      div\n      0xffffffffffffffffffffffffffffffffffffffff\n      and\n      dup2\n      jump\t// out\n        /* \"contracts/lesson3.3/MultiSigWallet.sol\":2293:2524  function approveTransaction(... */\n    tag_26:\n        /* \"contracts/lesson3.3/MultiSigWallet.sol\":771:778  isOwner */\n      0x01\n        /* \"contracts/lesson3.3/MultiSigWallet.sol\":771:790  isOwner[msg.sender] */\n      0x00\n        /* \"contracts/lesson3.3/MultiSigWallet.sol\":779:789  msg.sender */\n      caller\n        /* \"contracts/lesson3.3/MultiSigWallet.sol\":771:790  isOwner[msg.sender] */\n      0xffffffffffffffffffffffffffffffffffffffff\n      and\n      0xffffffffffffffffffffffffffffffffffffffff\n      and\n      dup2\n      mstore\n      0x20\n      add\n      swap1\n      dup2\n      mstore\n      0x20\n      add\n      0x00\n      keccak256\n      0x00\n      swap1\n      sload\n      swap1\n      0x0100\n      exp\n      swap1\n      div\n      0xff\n      and\n        /* \"contracts/lesson3.3/MultiSigWallet.sol\":763:807  require(isOwner[msg.sender], \"Not an owner\") */\n      tag_62\n      jumpi\n      mload(0x40)\n      0x08c379a000000000000000000000000000000000000000000000000000000000\n      dup2\n      mstore\n      0x04\n      add\n      tag_63\n      swap1\n      tag_64\n      jump\t// in\n    tag_63:\n      mload(0x40)\n      dup1\n      swap2\n      sub\n      swap1\n      revert\n    tag_62:\n        /* \"contracts/lesson3.3/MultiSigWallet.sol\":2376:2381  _txId */\n      dup1\n        /* \"contracts/lesson3.3/MultiSigWallet.sol\":890:902  transactions */\n      0x03\n        /* \"contracts/lesson3.3/MultiSigWallet.sol\":890:909  transactions.length */\n      dup1\n      sload\n      swap1\n      pop\n        /* \"contracts/lesson3.3/MultiSigWallet.sol\":882:887  _txId */\n      dup2\n        /* \"contracts/lesson3.3/MultiSigWallet.sol\":882:909  _txId < transactions.length */\n      lt\n        /* \"contracts/lesson3.3/MultiSigWallet.sol\":874:940  require(_txId < transactions.length, \"Transaction does not exist\") */\n      tag_66\n      jumpi\n      mload(0x40)\n      0x08c379a000000000000000000000000000000000000000000000000000000000\n      dup2\n      mstore\n      0x04\n      add\n      tag_67\n      swap1\n      tag_68\n      jump\t// in\n    tag_67:\n      mload(0x40)\n      dup1\n      swap2\n      sub\n      swap1\n      revert\n    tag_66:\n        /* \"contracts/lesson3.3/MultiSigWallet.sol\":2395:2400  _txId */\n      dup2\n        /* \"contracts/lesson3.3/MultiSigWallet.sol\":1019:1031  transactions */\n      0x03\n        /* \"contracts/lesson3.3/MultiSigWallet.sol\":1032:1037  _txId */\n      dup2\n        /* \"contracts/lesson3.3/MultiSigWallet.sol\":1019:1038  transactions[_txId] */\n      dup2\n      sload\n      dup2\n      lt\n      tag_70\n      jumpi\n      tag_71\n      tag_72\n      jump\t// in\n    tag_71:\n    tag_70:\n      swap1\n      0x00\n      mstore\n      keccak256(0x00, 0x20)\n      swap1\n      0x04\n      mul\n      add\n        /* \"contracts/lesson3.3/MultiSigWallet.sol\":1019:1047  transactions[_txId].executed */\n      0x03\n      add\n      0x00\n      swap1\n      sload\n      swap1\n      0x0100\n      exp\n      swap1\n      div\n      0xff\n      and\n        /* \"contracts/lesson3.3/MultiSigWallet.sol\":1018:1047  !transactions[_txId].executed */\n      iszero\n        /* \"contracts/lesson3.3/MultiSigWallet.sol\":1010:1080  require(!transactions[_txId].executed, \"Transaction already executed\") */\n      tag_74\n      jumpi\n      mload(0x40)\n      0x08c379a000000000000000000000000000000000000000000000000000000000\n      dup2\n      mstore\n      0x04\n      add\n      tag_75\n      swap1\n      tag_76\n      jump\t// in\n    tag_75:\n      mload(0x40)\n      dup1\n      swap2\n      sub\n      swap1\n      revert\n    tag_74:\n        /* \"contracts/lesson3.3/MultiSigWallet.sol\":2414:2419  _txId */\n      dup3\n        /* \"contracts/lesson3.3/MultiSigWallet.sol\":1159:1167  approved */\n      0x04\n        /* \"contracts/lesson3.3/MultiSigWallet.sol\":1159:1174  approved[_txId] */\n      0x00\n        /* \"contracts/lesson3.3/MultiSigWallet.sol\":1168:1173  _txId */\n      dup3\n        /* \"contracts/lesson3.3/MultiSigWallet.sol\":1159:1174  approved[_txId] */\n      dup2\n      mstore\n      0x20\n      add\n      swap1\n      dup2\n      mstore\n      0x20\n      add\n      0x00\n      keccak256\n        /* \"contracts/lesson3.3/MultiSigWallet.sol\":1159:1186  approved[_txId][msg.sender] */\n      0x00\n        /* \"contracts/lesson3.3/MultiSigWallet.sol\":1175:1185  msg.sender */\n      caller\n        /* \"contracts/lesson3.3/MultiSigWallet.sol\":1159:1186  approved[_txId][msg.sender] */\n      0xffffffffffffffffffffffffffffffffffffffff\n      and\n      0xffffffffffffffffffffffffffffffffffffffff\n      and\n      dup2\n      mstore\n      0x20\n      add\n      swap1\n      dup2\n      mstore\n      0x20\n      add\n      0x00\n      keccak256\n      0x00\n      swap1\n      sload\n      swap1\n      0x0100\n      exp\n      swap1\n      div\n      0xff\n      and\n        /* \"contracts/lesson3.3/MultiSigWallet.sol\":1158:1186  !approved[_txId][msg.sender] */\n      iszero\n        /* \"contracts/lesson3.3/MultiSigWallet.sol\":1150:1219  require(!approved[_txId][msg.sender], \"Transaction already approved\") */\n      tag_78\n      jumpi\n      mload(0x40)\n      0x08c379a000000000000000000000000000000000000000000000000000000000\n      dup2\n      mstore\n      0x04\n      add\n      tag_79\n      swap1\n      tag_80\n      jump\t// in\n    tag_79:\n      mload(0x40)\n      dup1\n      swap2\n      sub\n      swap1\n      revert\n    tag_78:\n        /* \"contracts/lesson3.3/MultiSigWallet.sol\":2461:2465  true */\n      0x01\n        /* \"contracts/lesson3.3/MultiSigWallet.sol\":2431:2439  approved */\n      0x04\n        /* \"contracts/lesson3.3/MultiSigWallet.sol\":2431:2446  approved[_txId] */\n      0x00\n        /* \"contracts/lesson3.3/MultiSigWallet.sol\":2440:2445  _txId */\n      dup7\n        /* \"contracts/lesson3.3/MultiSigWallet.sol\":2431:2446  approved[_txId] */\n      dup2\n      mstore\n      0x20\n      add\n      swap1\n      dup2\n      mstore\n      0x20\n      add\n      0x00\n      keccak256\n        /* \"contracts/lesson3.3/MultiSigWallet.sol\":2431:2458  approved[_txId][msg.sender] */\n      0x00\n        /* \"contracts/lesson3.3/MultiSigWallet.sol\":2447:2457  msg.sender */\n      caller\n        /* \"contracts/lesson3.3/MultiSigWallet.sol\":2431:2458  approved[_txId][msg.sender] */\n      0xffffffffffffffffffffffffffffffffffffffff\n      and\n      0xffffffffffffffffffffffffffffffffffffffff\n      and\n      dup2\n      mstore\n      0x20\n      add\n      swap1\n      dup2\n      mstore\n      0x20\n      add\n      0x00\n      keccak256\n      0x00\n        /* \"contracts/lesson3.3/MultiSigWallet.sol\":2431:2465  approved[_txId][msg.sender] = true */\n      0x0100\n      exp\n      dup2\n      sload\n      dup2\n      0xff\n      mul\n      not\n      and\n      swap1\n      dup4\n      iszero\n      iszero\n      mul\n      or\n      swap1\n      sstore\n      pop\n        /* \"contracts/lesson3.3/MultiSigWallet.sol\":2511:2516  _txId */\n      dup4\n        /* \"contracts/lesson3.3/MultiSigWallet.sol\":2499:2509  msg.sender */\n      caller\n        /* \"contracts/lesson3.3/MultiSigWallet.sol\":2480:2517  ApproveTransaction(msg.sender, _txId) */\n      0xffffffffffffffffffffffffffffffffffffffff\n      and\n      0xfa624aadd8a0eae4ee975eae5cf13c9803b361b7fa2d832427db6207c0882193\n      mload(0x40)\n      mload(0x40)\n      dup1\n      swap2\n      sub\n      swap1\n      log3\n        /* \"contracts/lesson3.3/MultiSigWallet.sol\":1090:1091  _ */\n      pop\n        /* \"contracts/lesson3.3/MultiSigWallet.sol\":950:951  _ */\n      pop\n        /* \"contracts/lesson3.3/MultiSigWallet.sol\":817:818  _ */\n      pop\n        /* \"contracts/lesson3.3/MultiSigWallet.sol\":2293:2524  function approveTransaction(... */\n      pop\n      jump\t// out\n        /* \"contracts/lesson3.3/MultiSigWallet.sol\":543:582  mapping(address => bool) public isOwner */\n    tag_31:\n      mstore(0x20, 0x01)\n      dup1\n      0x00\n      mstore\n      keccak256(0x00, 0x40)\n      0x00\n      swap2\n      pop\n      sload\n      swap1\n      0x0100\n      exp\n      swap1\n      div\n      0xff\n      and\n      dup2\n      jump\t// out\n        /* \"contracts/lesson3.3/MultiSigWallet.sol\":665:725  mapping(uint256 => mapping(address => bool)) public approved */\n    tag_38:\n      mstore(0x20, 0x04)\n      dup2\n      0x00\n      mstore\n      mstore(0x20, keccak256(0x00, 0x40))\n      dup1\n      0x00\n      mstore\n      keccak256(0x00, 0x40)\n      0x00\n      swap2\n      pop\n      swap2\n      pop\n      swap1\n      sload\n      swap1\n      0x0100\n      exp\n      swap1\n      div\n      0xff\n      and\n      dup2\n      jump\t// out\n        /* \"contracts/lesson3.3/MultiSigWallet.sol\":588:620  uint256 public requiredApprovals */\n    tag_42:\n      sload(0x02)\n      dup2\n      jump\t// out\n        /* \"contracts/lesson3.3/MultiSigWallet.sol\":626:659  Transaction[] public transactions */\n    tag_47:\n      0x03\n      dup2\n      dup2\n      sload\n      dup2\n      lt\n      tag_82\n      jumpi\n      0x00\n      dup1\n      revert\n    tag_82:\n      swap1\n      0x00\n      mstore\n      keccak256(0x00, 0x20)\n      swap1\n      0x04\n      mul\n      add\n      0x00\n      swap2\n      pop\n      swap1\n      pop\n      dup1\n      0x00\n      add\n      0x00\n      swap1\n      sload\n      swap1\n      0x0100\n      exp\n      swap1\n      div\n      0xffffffffffffffffffffffffffffffffffffffff\n      and\n      swap1\n      dup1\n      0x01\n      add\n      sload\n      swap1\n      dup1\n      0x02\n      add\n      dup1\n      sload\n      tag_84\n      swap1\n      tag_85\n      jump\t// in\n    tag_84:\n      dup1\n      0x1f\n      add\n      0x20\n      dup1\n      swap2\n      div\n      mul\n      0x20\n      add\n      mload(0x40)\n      swap1\n      dup2\n      add\n      0x40\n      mstore\n      dup1\n      swap3\n      swap2\n      swap1\n      dup2\n      dup2\n      mstore\n      0x20\n      add\n      dup3\n      dup1\n      sload\n      tag_86\n      swap1\n      tag_85\n      jump\t// in\n    tag_86:\n      dup1\n      iszero\n      tag_87\n      jumpi\n      dup1\n      0x1f\n      lt\n      tag_88\n      jumpi\n      0x0100\n      dup1\n      dup4\n      sload\n      div\n      mul\n      dup4\n      mstore\n      swap2\n      0x20\n      add\n      swap2\n      jump(tag_87)\n    tag_88:\n      dup3\n      add\n      swap2\n      swap1\n      0x00\n      mstore\n      keccak256(0x00, 0x20)\n      swap1\n    tag_89:\n      dup2\n      sload\n      dup2\n      mstore\n      swap1\n      0x01\n      add\n      swap1\n      0x20\n      add\n      dup1\n      dup4\n      gt\n      tag_89\n      jumpi\n      dup3\n      swap1\n      sub\n      0x1f\n      and\n      dup3\n      add\n      swap2\n    tag_87:\n      pop\n      pop\n      pop\n      pop\n      pop\n      swap1\n      dup1\n      0x03\n      add\n      0x00\n      swap1\n      sload\n      swap1\n      0x0100\n      exp\n      swap1\n      div\n      0xff\n      and\n      swap1\n      pop\n      dup5\n      jump\t// out\n        /* \"contracts/lesson3.3/MultiSigWallet.sol\":1957:2287  function submitTransaction(... */\n    tag_54:\n        /* \"contracts/lesson3.3/MultiSigWallet.sol\":771:778  isOwner */\n      0x01\n        /* \"contracts/lesson3.3/MultiSigWallet.sol\":771:790  isOwner[msg.sender] */\n      0x00\n        /* \"contracts/lesson3.3/MultiSigWallet.sol\":779:789  msg.sender */\n      caller\n        /* \"contracts/lesson3.3/MultiSigWallet.sol\":771:790  isOwner[msg.sender] */\n      0xffffffffffffffffffffffffffffffffffffffff\n      and\n      0xffffffffffffffffffffffffffffffffffffffff\n      and\n      dup2\n      mstore\n      0x20\n      add\n      swap1\n      dup2\n      mstore\n      0x20\n      add\n      0x00\n      keccak256\n      0x00\n      swap1\n      sload\n      swap1\n      0x0100\n      exp\n      swap1\n      div\n      0xff\n      and\n        /* \"contracts/lesson3.3/MultiSigWallet.sol\":763:807  require(isOwner[msg.sender], \"Not an owner\") */\n      tag_91\n      jumpi\n      mload(0x40)\n      0x08c379a000000000000000000000000000000000000000000000000000000000\n      dup2\n      mstore\n      0x04\n      add\n      tag_92\n      swap1\n      tag_64\n      jump\t// in\n    tag_92:\n      mload(0x40)\n      dup1\n      swap2\n      sub\n      swap1\n      revert\n    tag_91:\n        /* \"contracts/lesson3.3/MultiSigWallet.sol\":2090:2102  uint256 txId */\n      0x00\n        /* \"contracts/lesson3.3/MultiSigWallet.sol\":2105:2117  transactions */\n      0x03\n        /* \"contracts/lesson3.3/MultiSigWallet.sol\":2105:2124  transactions.length */\n      dup1\n      sload\n      swap1\n      pop\n        /* \"contracts/lesson3.3/MultiSigWallet.sol\":2090:2124  uint256 txId = transactions.length */\n      swap1\n      pop\n        /* \"contracts/lesson3.3/MultiSigWallet.sol\":2134:2146  transactions */\n      0x03\n        /* \"contracts/lesson3.3/MultiSigWallet.sol\":2165:2232  Transaction({to: _to, value: _value, data: _data, executed: false}) */\n      mload(0x40)\n      dup1\n      0x80\n      add\n      0x40\n      mstore\n      dup1\n        /* \"contracts/lesson3.3/MultiSigWallet.sol\":2182:2185  _to */\n      dup7\n        /* \"contracts/lesson3.3/MultiSigWallet.sol\":2165:2232  Transaction({to: _to, value: _value, data: _data, executed: false}) */\n      0xffffffffffffffffffffffffffffffffffffffff\n      and\n      dup2\n      mstore\n      0x20\n      add\n        /* \"contracts/lesson3.3/MultiSigWallet.sol\":2194:2200  _value */\n      dup6\n        /* \"contracts/lesson3.3/MultiSigWallet.sol\":2165:2232  Transaction({to: _to, value: _value, data: _data, executed: false}) */\n      dup2\n      mstore\n      0x20\n      add\n        /* \"contracts/lesson3.3/MultiSigWallet.sol\":2208:2213  _data */\n      dup5\n        /* \"contracts/lesson3.3/MultiSigWallet.sol\":2165:2232  Transaction({to: _to, value: _value, data: _data, executed: false}) */\n      dup2\n      mstore\n      0x20\n      add\n        /* \"contracts/lesson3.3/MultiSigWallet.sol\":2225:2230  false */\n      0x00\n        /* \"contracts/lesson3.3/MultiSigWallet.sol\":2165:2232  Transaction({to: _to, value: _value, data: _data, executed: false}) */\n      iszero\n      iszero\n      dup2\n      mstore\n      pop\n        /* \"contracts/lesson3.3/MultiSigWallet.sol\":2134:2242  transactions.push(... */\n      swap1\n      dup1\n      0x01\n      dup2\n      sload\n      add\n      dup1\n      dup3\n      sstore\n      dup1\n      swap2\n      pop\n      pop\n      0x01\n      swap1\n      sub\n      swap1\n      0x00\n      mstore\n      keccak256(0x00, 0x20)\n      swap1\n      0x04\n      mul\n      add\n      0x00\n      swap1\n      swap2\n      swap1\n      swap2\n      swap1\n      swap2\n      pop\n      0x00\n      dup3\n      add\n      mload\n      dup2\n      0x00\n      add\n      exp(0x0100, 0x00)\n      dup2\n      sload\n      dup2\n      0xffffffffffffffffffffffffffffffffffffffff\n      mul\n      not\n      and\n      swap1\n      dup4\n      0xffffffffffffffffffffffffffffffffffffffff\n      and\n      mul\n      or\n      swap1\n      sstore\n      pop\n      0x20\n      dup3\n      add\n      mload\n      dup2\n      0x01\n      add\n      sstore\n      0x40\n      dup3\n      add\n      mload\n      dup2\n      0x02\n      add\n      swap1\n      dup2\n      tag_95\n      swap2\n      swap1\n      tag_96\n      jump\t// in\n    tag_95:\n      pop\n      0x60\n      dup3\n      add\n      mload\n      dup2\n      0x03\n      add\n      exp(0x0100, 0x00)\n      dup2\n      sload\n      dup2\n      0xff\n      mul\n      not\n      and\n      swap1\n      dup4\n      iszero\n      iszero\n      mul\n      or\n      swap1\n      sstore\n      pop\n      pop\n      pop\n        /* \"contracts/lesson3.3/MultiSigWallet.sol\":2275:2279  txId */\n      dup1\n        /* \"contracts/lesson3.3/MultiSigWallet.sol\":2257:2280  SubmitTransaction(txId) */\n      0xdce08ffd49d3e7091684341cab08a4ffba42fdb443cb0deb2c92729772f4704b\n      mload(0x40)\n      mload(0x40)\n      dup1\n      swap2\n      sub\n      swap1\n      log2\n        /* \"contracts/lesson3.3/MultiSigWallet.sol\":2080:2287  {... */\n      pop\n        /* \"contracts/lesson3.3/MultiSigWallet.sol\":1957:2287  function submitTransaction(... */\n      pop\n      pop\n      pop\n      jump\t// out\n        /* \"contracts/lesson3.3/MultiSigWallet.sol\":2530:3223  function executeTransaction(... */\n    tag_58:\n        /* \"contracts/lesson3.3/MultiSigWallet.sol\":771:778  isOwner */\n      0x01\n        /* \"contracts/lesson3.3/MultiSigWallet.sol\":771:790  isOwner[msg.sender] */\n      0x00\n        /* \"contracts/lesson3.3/MultiSigWallet.sol\":779:789  msg.sender */\n      caller\n        /* \"contracts/lesson3.3/MultiSigWallet.sol\":771:790  isOwner[msg.sender] */\n      0xffffffffffffffffffffffffffffffffffffffff\n      and\n      0xffffffffffffffffffffffffffffffffffffffff\n      and\n      dup2\n      mstore\n      0x20\n      add\n      swap1\n      dup2\n      mstore\n      0x20\n      add\n      0x00\n      keccak256\n      0x00\n      swap1\n      sload\n      swap1\n      0x0100\n      exp\n      swap1\n      div\n      0xff\n      and\n        /* \"contracts/lesson3.3/MultiSigWallet.sol\":763:807  require(isOwner[msg.sender], \"Not an owner\") */\n      tag_98\n      jumpi\n      mload(0x40)\n      0x08c379a000000000000000000000000000000000000000000000000000000000\n      dup2\n      mstore\n      0x04\n      add\n      tag_99\n      swap1\n      tag_64\n      jump\t// in\n    tag_99:\n      mload(0x40)\n      dup1\n      swap2\n      sub\n      swap1\n      revert\n    tag_98:\n        /* \"contracts/lesson3.3/MultiSigWallet.sol\":2613:2618  _txId */\n      dup1\n        /* \"contracts/lesson3.3/MultiSigWallet.sol\":890:902  transactions */\n      0x03\n        /* \"contracts/lesson3.3/MultiSigWallet.sol\":890:909  transactions.length */\n      dup1\n      sload\n      swap1\n      pop\n        /* \"contracts/lesson3.3/MultiSigWallet.sol\":882:887  _txId */\n      dup2\n        /* \"contracts/lesson3.3/MultiSigWallet.sol\":882:909  _txId < transactions.length */\n      lt\n        /* \"contracts/lesson3.3/MultiSigWallet.sol\":874:940  require(_txId < transactions.length, \"Transaction does not exist\") */\n      tag_101\n      jumpi\n      mload(0x40)\n      0x08c379a000000000000000000000000000000000000000000000000000000000\n      dup2\n      mstore\n      0x04\n      add\n      tag_102\n      swap1\n      tag_68\n      jump\t// in\n    tag_102:\n      mload(0x40)\n      dup1\n      swap2\n      sub\n      swap1\n      revert\n    tag_101:\n        /* \"contracts/lesson3.3/MultiSigWallet.sol\":2632:2637  _txId */\n      dup2\n        /* \"contracts/lesson3.3/MultiSigWallet.sol\":1019:1031  transactions */\n      0x03\n        /* \"contracts/lesson3.3/MultiSigWallet.sol\":1032:1037  _txId */\n      dup2\n        /* \"contracts/lesson3.3/MultiSigWallet.sol\":1019:1038  transactions[_txId] */\n      dup2\n      sload\n      dup2\n      lt\n      tag_104\n      jumpi\n      tag_105\n      tag_72\n      jump\t// in\n    tag_105:\n    tag_104:\n      swap1\n      0x00\n      mstore\n      keccak256(0x00, 0x20)\n      swap1\n      0x04\n      mul\n      add\n        /* \"contracts/lesson3.3/MultiSigWallet.sol\":1019:1047  transactions[_txId].executed */\n      0x03\n      add\n      0x00\n      swap1\n      sload\n      swap1\n      0x0100\n      exp\n      swap1\n      div\n      0xff\n      and\n        /* \"contracts/lesson3.3/MultiSigWallet.sol\":1018:1047  !transactions[_txId].executed */\n      iszero\n        /* \"contracts/lesson3.3/MultiSigWallet.sol\":1010:1080  require(!transactions[_txId].executed, \"Transaction already executed\") */\n      tag_107\n      jumpi\n      mload(0x40)\n      0x08c379a000000000000000000000000000000000000000000000000000000000\n      dup2\n      mstore\n      0x04\n      add\n      tag_108\n      swap1\n      tag_76\n      jump\t// in\n    tag_108:\n      mload(0x40)\n      dup1\n      swap2\n      sub\n      swap1\n      revert\n    tag_107:\n        /* \"contracts/lesson3.3/MultiSigWallet.sol\":2649:2680  Transaction storage transaction */\n      0x00\n        /* \"contracts/lesson3.3/MultiSigWallet.sol\":2683:2695  transactions */\n      0x03\n        /* \"contracts/lesson3.3/MultiSigWallet.sol\":2696:2701  _txId */\n      dup5\n        /* \"contracts/lesson3.3/MultiSigWallet.sol\":2683:2702  transactions[_txId] */\n      dup2\n      sload\n      dup2\n      lt\n      tag_110\n      jumpi\n      tag_111\n      tag_72\n      jump\t// in\n    tag_111:\n    tag_110:\n      swap1\n      0x00\n      mstore\n      keccak256(0x00, 0x20)\n      swap1\n      0x04\n      mul\n      add\n        /* \"contracts/lesson3.3/MultiSigWallet.sol\":2649:2702  Transaction storage transaction = transactions[_txId] */\n      swap1\n      pop\n        /* \"contracts/lesson3.3/MultiSigWallet.sol\":2712:2733  uint256 approvalCount */\n      0x00\n        /* \"contracts/lesson3.3/MultiSigWallet.sol\":2736:2737  0 */\n      0x00\n        /* \"contracts/lesson3.3/MultiSigWallet.sol\":2712:2737  uint256 approvalCount = 0 */\n      swap1\n      pop\n        /* \"contracts/lesson3.3/MultiSigWallet.sol\":2753:2762  uint256 i */\n      0x00\n        /* \"contracts/lesson3.3/MultiSigWallet.sol\":2765:2766  0 */\n      0x00\n        /* \"contracts/lesson3.3/MultiSigWallet.sol\":2753:2766  uint256 i = 0 */\n      swap1\n      pop\n        /* \"contracts/lesson3.3/MultiSigWallet.sol\":2748:2896  for (uint256 i = 0; i < owners.length; i++) {... */\n    tag_113:\n        /* \"contracts/lesson3.3/MultiSigWallet.sol\":2772:2778  owners */\n      0x00\n        /* \"contracts/lesson3.3/MultiSigWallet.sol\":2772:2785  owners.length */\n      dup1\n      sload\n      swap1\n      pop\n        /* \"contracts/lesson3.3/MultiSigWallet.sol\":2768:2769  i */\n      dup2\n        /* \"contracts/lesson3.3/MultiSigWallet.sol\":2768:2785  i < owners.length */\n      lt\n        /* \"contracts/lesson3.3/MultiSigWallet.sol\":2748:2896  for (uint256 i = 0; i < owners.length; i++) {... */\n      iszero\n      tag_114\n      jumpi\n        /* \"contracts/lesson3.3/MultiSigWallet.sol\":2810:2818  approved */\n      0x04\n        /* \"contracts/lesson3.3/MultiSigWallet.sol\":2810:2825  approved[_txId] */\n      0x00\n        /* \"contracts/lesson3.3/MultiSigWallet.sol\":2819:2824  _txId */\n      dup8\n        /* \"contracts/lesson3.3/MultiSigWallet.sol\":2810:2825  approved[_txId] */\n      dup2\n      mstore\n      0x20\n      add\n      swap1\n      dup2\n      mstore\n      0x20\n      add\n      0x00\n      keccak256\n        /* \"contracts/lesson3.3/MultiSigWallet.sol\":2810:2836  approved[_txId][owners[i]] */\n      0x00\n        /* \"contracts/lesson3.3/MultiSigWallet.sol\":2826:2832  owners */\n      0x00\n        /* \"contracts/lesson3.3/MultiSigWallet.sol\":2833:2834  i */\n      dup4\n        /* \"contracts/lesson3.3/MultiSigWallet.sol\":2826:2835  owners[i] */\n      dup2\n      sload\n      dup2\n      lt\n      tag_116\n      jumpi\n      tag_117\n      tag_72\n      jump\t// in\n    tag_117:\n    tag_116:\n      swap1\n      0x00\n      mstore\n      keccak256(0x00, 0x20)\n      add\n      0x00\n      swap1\n      sload\n      swap1\n      0x0100\n      exp\n      swap1\n      div\n      0xffffffffffffffffffffffffffffffffffffffff\n      and\n        /* \"contracts/lesson3.3/MultiSigWallet.sol\":2810:2836  approved[_txId][owners[i]] */\n      0xffffffffffffffffffffffffffffffffffffffff\n      and\n      0xffffffffffffffffffffffffffffffffffffffff\n      and\n      dup2\n      mstore\n      0x20\n      add\n      swap1\n      dup2\n      mstore\n      0x20\n      add\n      0x00\n      keccak256\n      0x00\n      swap1\n      sload\n      swap1\n      0x0100\n      exp\n      swap1\n      div\n      0xff\n      and\n        /* \"contracts/lesson3.3/MultiSigWallet.sol\":2806:2886  if (approved[_txId][owners[i]]) {... */\n      iszero\n      tag_119\n      jumpi\n        /* \"contracts/lesson3.3/MultiSigWallet.sol\":2856:2871  approvalCount++ */\n      dup2\n      dup1\n      tag_120\n      swap1\n      tag_121\n      jump\t// in\n    tag_120:\n      swap3\n      pop\n      pop\n        /* \"contracts/lesson3.3/MultiSigWallet.sol\":2806:2886  if (approved[_txId][owners[i]]) {... */\n    tag_119:\n        /* \"contracts/lesson3.3/MultiSigWallet.sol\":2787:2790  i++ */\n      dup1\n      dup1\n      0x01\n      add\n      swap2\n      pop\n      pop\n        /* \"contracts/lesson3.3/MultiSigWallet.sol\":2748:2896  for (uint256 i = 0; i < owners.length; i++) {... */\n      jump(tag_113)\n    tag_114:\n      pop\n        /* \"contracts/lesson3.3/MultiSigWallet.sol\":2931:2948  requiredApprovals */\n      sload(0x02)\n        /* \"contracts/lesson3.3/MultiSigWallet.sol\":2914:2927  approvalCount */\n      dup2\n        /* \"contracts/lesson3.3/MultiSigWallet.sol\":2914:2948  approvalCount >= requiredApprovals */\n      lt\n      iszero\n        /* \"contracts/lesson3.3/MultiSigWallet.sol\":2906:2975  require(approvalCount >= requiredApprovals, \"Insufficient approvals\") */\n      tag_122\n      jumpi\n      mload(0x40)\n      0x08c379a000000000000000000000000000000000000000000000000000000000\n      dup2\n      mstore\n      0x04\n      add\n      tag_123\n      swap1\n      tag_124\n      jump\t// in\n    tag_123:\n      mload(0x40)\n      dup1\n      swap2\n      sub\n      swap1\n      revert\n    tag_122:\n        /* \"contracts/lesson3.3/MultiSigWallet.sol\":3009:3013  true */\n      0x01\n        /* \"contracts/lesson3.3/MultiSigWallet.sol\":2986:2997  transaction */\n      dup3\n        /* \"contracts/lesson3.3/MultiSigWallet.sol\":2986:3006  transaction.executed */\n      0x03\n      add\n      0x00\n        /* \"contracts/lesson3.3/MultiSigWallet.sol\":2986:3013  transaction.executed = true */\n      0x0100\n      exp\n      dup2\n      sload\n      dup2\n      0xff\n      mul\n      not\n      and\n      swap1\n      dup4\n      iszero\n      iszero\n      mul\n      or\n      swap1\n      sstore\n      pop\n        /* \"contracts/lesson3.3/MultiSigWallet.sol\":3024:3036  bool success */\n      0x00\n        /* \"contracts/lesson3.3/MultiSigWallet.sol\":3042:3053  transaction */\n      dup3\n        /* \"contracts/lesson3.3/MultiSigWallet.sol\":3042:3056  transaction.to */\n      0x00\n      add\n      0x00\n      swap1\n      sload\n      swap1\n      0x0100\n      exp\n      swap1\n      div\n      0xffffffffffffffffffffffffffffffffffffffff\n      and\n        /* \"contracts/lesson3.3/MultiSigWallet.sol\":3042:3061  transaction.to.call */\n      0xffffffffffffffffffffffffffffffffffffffff\n      and\n        /* \"contracts/lesson3.3/MultiSigWallet.sol\":3069:3080  transaction */\n      dup4\n        /* \"contracts/lesson3.3/MultiSigWallet.sol\":3069:3086  transaction.value */\n      0x01\n      add\n      sload\n        /* \"contracts/lesson3.3/MultiSigWallet.sol\":3101:3112  transaction */\n      dup5\n        /* \"contracts/lesson3.3/MultiSigWallet.sol\":3101:3117  transaction.data */\n      0x02\n      add\n        /* \"contracts/lesson3.3/MultiSigWallet.sol\":3042:3127  transaction.to.call{value: transaction.value}(... */\n      mload(0x40)\n      tag_125\n      swap2\n      swap1\n      tag_126\n      jump\t// in\n    tag_125:\n      0x00\n      mload(0x40)\n      dup1\n      dup4\n      sub\n      dup2\n      dup6\n      dup8\n      gas\n      call\n      swap3\n      pop\n      pop\n      pop\n      returndatasize\n      dup1\n      0x00\n      dup2\n      eq\n      tag_129\n      jumpi\n      mload(0x40)\n      swap2\n      pop\n      and(add(returndatasize, 0x3f), not(0x1f))\n      dup3\n      add\n      0x40\n      mstore\n      returndatasize\n      dup3\n      mstore\n      returndatasize\n      0x00\n      0x20\n      dup5\n      add\n      returndatacopy\n      jump(tag_128)\n    tag_129:\n      0x60\n      swap2\n      pop\n    tag_128:\n      pop\n        /* \"contracts/lesson3.3/MultiSigWallet.sol\":3023:3127  (bool success, ) = transaction.to.call{value: transaction.value}(... */\n      pop\n      swap1\n      pop\n        /* \"contracts/lesson3.3/MultiSigWallet.sol\":3145:3152  success */\n      dup1\n        /* \"contracts/lesson3.3/MultiSigWallet.sol\":3137:3175  require(success, \"Transaction failed\") */\n      tag_130\n      jumpi\n      mload(0x40)\n      0x08c379a000000000000000000000000000000000000000000000000000000000\n      dup2\n      mstore\n      0x04\n      add\n      tag_131\n      swap1\n      tag_132\n      jump\t// in\n    tag_131:\n      mload(0x40)\n      dup1\n      swap2\n      sub\n      swap1\n      revert\n    tag_130:\n        /* \"contracts/lesson3.3/MultiSigWallet.sol\":3210:3215  _txId */\n      dup6\n        /* \"contracts/lesson3.3/MultiSigWallet.sol\":3191:3216  ExecuteTransaction(_txId) */\n      0xae30dc3f11bb6b178aafe5e7fc568fb6d87200068a944a8015c0db1b4533dbb8\n      mload(0x40)\n      mload(0x40)\n      dup1\n      swap2\n      sub\n      swap1\n      log2\n        /* \"contracts/lesson3.3/MultiSigWallet.sol\":2639:3223  {... */\n      pop\n      pop\n      pop\n        /* \"contracts/lesson3.3/MultiSigWallet.sol\":950:951  _ */\n      pop\n        /* \"contracts/lesson3.3/MultiSigWallet.sol\":817:818  _ */\n      pop\n        /* \"contracts/lesson3.3/MultiSigWallet.sol\":2530:3223  function executeTransaction(... */\n      pop\n      jump\t// out\n        /* \"#utility.yul\":7:84   */\n    tag_133:\n        /* \"#utility.yul\":44:51   */\n      0x00\n        /* \"#utility.yul\":73:78   */\n      dup2\n        /* \"#utility.yul\":62:78   */\n      swap1\n      pop\n        /* \"#utility.yul\":7:84   */\n      swap2\n      swap1\n      pop\n      jump\t// out\n        /* \"#utility.yul\":90:208   */\n    tag_134:\n        /* \"#utility.yul\":177:201   */\n      tag_196\n        /* \"#utility.yul\":195:200   */\n      dup2\n        /* \"#utility.yul\":177:201   */\n      tag_133\n      jump\t// in\n    tag_196:\n        /* \"#utility.yul\":172:175   */\n      dup3\n        /* \"#utility.yul\":165:202   */\n      mstore\n        /* \"#utility.yul\":90:208   */\n      pop\n      pop\n      jump\t// out\n        /* \"#utility.yul\":214:436   */\n    tag_15:\n        /* \"#utility.yul\":307:311   */\n      0x00\n        /* \"#utility.yul\":345:347   */\n      0x20\n        /* \"#utility.yul\":334:343   */\n      dup3\n        /* \"#utility.yul\":330:348   */\n      add\n        /* \"#utility.yul\":322:348   */\n      swap1\n      pop\n        /* \"#utility.yul\":358:429   */\n      tag_198\n        /* \"#utility.yul\":426:427   */\n      0x00\n        /* \"#utility.yul\":415:424   */\n      dup4\n        /* \"#utility.yul\":411:428   */\n      add\n        /* \"#utility.yul\":402:408   */\n      dup5\n        /* \"#utility.yul\":358:429   */\n      tag_134\n      jump\t// in\n    tag_198:\n        /* \"#utility.yul\":214:436   */\n      swap3\n      swap2\n      pop\n      pop\n      jump\t// out\n        /* \"#utility.yul\":442:517   */\n    tag_135:\n        /* \"#utility.yul\":475:481   */\n      0x00\n        /* \"#utility.yul\":508:510   */\n      0x40\n        /* \"#utility.yul\":502:511   */\n      mload\n        /* \"#utility.yul\":492:511   */\n      swap1\n      pop\n        /* \"#utility.yul\":442:517   */\n      swap1\n      jump\t// out\n        /* \"#utility.yul\":523:640   */\n    tag_136:\n        /* \"#utility.yul\":632:633   */\n      0x00\n        /* \"#utility.yul\":629:630   */\n      0x00\n        /* \"#utility.yul\":622:634   */\n      revert\n        /* \"#utility.yul\":646:763   */\n    tag_137:\n        /* \"#utility.yul\":755:756   */\n      0x00\n        /* \"#utility.yul\":752:753   */\n      0x00\n        /* \"#utility.yul\":745:757   */\n      revert\n        /* \"#utility.yul\":769:891   */\n    tag_138:\n        /* \"#utility.yul\":842:866   */\n      tag_203\n        /* \"#utility.yul\":860:865   */\n      dup2\n        /* \"#utility.yul\":842:866   */\n      tag_133\n      jump\t// in\n    tag_203:\n        /* \"#utility.yul\":835:840   */\n      dup2\n        /* \"#utility.yul\":832:867   */\n      eq\n        /* \"#utility.yul\":822:885   */\n      tag_204\n      jumpi\n        /* \"#utility.yul\":881:882   */\n      0x00\n        /* \"#utility.yul\":878:879   */\n      0x00\n        /* \"#utility.yul\":871:883   */\n      revert\n        /* \"#utility.yul\":822:885   */\n    tag_204:\n        /* \"#utility.yul\":769:891   */\n      pop\n      jump\t// out\n        /* \"#utility.yul\":897:1036   */\n    tag_139:\n        /* \"#utility.yul\":943:948   */\n      0x00\n        /* \"#utility.yul\":981:987   */\n      dup2\n        /* \"#utility.yul\":968:988   */\n      calldataload\n        /* \"#utility.yul\":959:988   */\n      swap1\n      pop\n        /* \"#utility.yul\":997:1030   */\n      tag_206\n        /* \"#utility.yul\":1024:1029   */\n      dup2\n        /* \"#utility.yul\":997:1030   */\n      tag_138\n      jump\t// in\n    tag_206:\n        /* \"#utility.yul\":897:1036   */\n      swap3\n      swap2\n      pop\n      pop\n      jump\t// out\n        /* \"#utility.yul\":1042:1371   */\n    tag_19:\n        /* \"#utility.yul\":1101:1107   */\n      0x00\n        /* \"#utility.yul\":1150:1152   */\n      0x20\n        /* \"#utility.yul\":1138:1147   */\n      dup3\n        /* \"#utility.yul\":1129:1136   */\n      dup5\n        /* \"#utility.yul\":1125:1148   */\n      sub\n        /* \"#utility.yul\":1121:1153   */\n      slt\n        /* \"#utility.yul\":1118:1237   */\n      iszero\n      tag_208\n      jumpi\n        /* \"#utility.yul\":1156:1235   */\n      tag_209\n      tag_136\n      jump\t// in\n    tag_209:\n        /* \"#utility.yul\":1118:1237   */\n    tag_208:\n        /* \"#utility.yul\":1276:1277   */\n      0x00\n        /* \"#utility.yul\":1301:1354   */\n      tag_210\n        /* \"#utility.yul\":1346:1353   */\n      dup5\n        /* \"#utility.yul\":1337:1343   */\n      dup3\n        /* \"#utility.yul\":1326:1335   */\n      dup6\n        /* \"#utility.yul\":1322:1344   */\n      add\n        /* \"#utility.yul\":1301:1354   */\n      tag_139\n      jump\t// in\n    tag_210:\n        /* \"#utility.yul\":1291:1354   */\n      swap2\n      pop\n        /* \"#utility.yul\":1247:1364   */\n      pop\n        /* \"#utility.yul\":1042:1371   */\n      swap3\n      swap2\n      pop\n      pop\n      jump\t// out\n        /* \"#utility.yul\":1377:1503   */\n    tag_140:\n        /* \"#utility.yul\":1414:1421   */\n      0x00\n        /* \"#utility.yul\":1454:1496   */\n      0xffffffffffffffffffffffffffffffffffffffff\n        /* \"#utility.yul\":1447:1452   */\n      dup3\n        /* \"#utility.yul\":1443:1497   */\n      and\n        /* \"#utility.yul\":1432:1497   */\n      swap1\n      pop\n        /* \"#utility.yul\":1377:1503   */\n      swap2\n      swap1\n      pop\n      jump\t// out\n        /* \"#utility.yul\":1509:1605   */\n    tag_141:\n        /* \"#utility.yul\":1546:1553   */\n      0x00\n        /* \"#utility.yul\":1575:1599   */\n      tag_213\n        /* \"#utility.yul\":1593:1598   */\n      dup3\n        /* \"#utility.yul\":1575:1599   */\n      tag_140\n      jump\t// in\n    tag_213:\n        /* \"#utility.yul\":1564:1599   */\n      swap1\n      pop\n        /* \"#utility.yul\":1509:1605   */\n      swap2\n      swap1\n      pop\n      jump\t// out\n        /* \"#utility.yul\":1611:1729   */\n    tag_142:\n        /* \"#utility.yul\":1698:1722   */\n      tag_215\n        /* \"#utility.yul\":1716:1721   */\n      dup2\n        /* \"#utility.yul\":1698:1722   */\n      tag_141\n      jump\t// in\n    tag_215:\n        /* \"#utility.yul\":1693:1696   */\n      dup3\n        /* \"#utility.yul\":1686:1723   */\n      mstore\n        /* \"#utility.yul\":1611:1729   */\n      pop\n      pop\n      jump\t// out\n        /* \"#utility.yul\":1735:1957   */\n    tag_22:\n        /* \"#utility.yul\":1828:1832   */\n      0x00\n        /* \"#utility.yul\":1866:1868   */\n      0x20\n        /* \"#utility.yul\":1855:1864   */\n      dup3\n        /* \"#utility.yul\":1851:1869   */\n      add\n        /* \"#utility.yul\":1843:1869   */\n      swap1\n      pop\n        /* \"#utility.yul\":1879:1950   */\n      tag_217\n        /* \"#utility.yul\":1947:1948   */\n      0x00\n        /* \"#utility.yul\":1936:1945   */\n      dup4\n        /* \"#utility.yul\":1932:1949   */\n      add\n        /* \"#utility.yul\":1923:1929   */\n      dup5\n        /* \"#utility.yul\":1879:1950   */\n      tag_142\n      jump\t// in\n    tag_217:\n        /* \"#utility.yul\":1735:1957   */\n      swap3\n      swap2\n      pop\n      pop\n      jump\t// out\n        /* \"#utility.yul\":1963:2085   */\n    tag_143:\n        /* \"#utility.yul\":2036:2060   */\n      tag_219\n        /* \"#utility.yul\":2054:2059   */\n      dup2\n        /* \"#utility.yul\":2036:2060   */\n      tag_141\n      jump\t// in\n    tag_219:\n        /* \"#utility.yul\":2029:2034   */\n      dup2\n        /* \"#utility.yul\":2026:2061   */\n      eq\n        /* \"#utility.yul\":2016:2079   */\n      tag_220\n      jumpi\n        /* \"#utility.yul\":2075:2076   */\n      0x00\n        /* \"#utility.yul\":2072:2073   */\n      0x00\n        /* \"#utility.yul\":2065:2077   */\n      revert\n        /* \"#utility.yul\":2016:2079   */\n    tag_220:\n        /* \"#utility.yul\":1963:2085   */\n      pop\n      jump\t// out\n        /* \"#utility.yul\":2091:2230   */\n    tag_144:\n        /* \"#utility.yul\":2137:2142   */\n      0x00\n        /* \"#utility.yul\":2175:2181   */\n      dup2\n        /* \"#utility.yul\":2162:2182   */\n      calldataload\n        /* \"#utility.yul\":2153:2182   */\n      swap1\n      pop\n        /* \"#utility.yul\":2191:2224   */\n      tag_222\n        /* \"#utility.yul\":2218:2223   */\n      dup2\n        /* \"#utility.yul\":2191:2224   */\n      tag_143\n      jump\t// in\n    tag_222:\n        /* \"#utility.yul\":2091:2230   */\n      swap3\n      swap2\n      pop\n      pop\n      jump\t// out\n        /* \"#utility.yul\":2236:2565   */\n    tag_30:\n        /* \"#utility.yul\":2295:2301   */\n      0x00\n        /* \"#utility.yul\":2344:2346   */\n      0x20\n        /* \"#utility.yul\":2332:2341   */\n      dup3\n        /* \"#utility.yul\":2323:2330   */\n      dup5\n        /* \"#utility.yul\":2319:2342   */\n      sub\n        /* \"#utility.yul\":2315:2347   */\n      slt\n        /* \"#utility.yul\":2312:2431   */\n      iszero\n      tag_224\n      jumpi\n        /* \"#utility.yul\":2350:2429   */\n      tag_225\n      tag_136\n      jump\t// in\n    tag_225:\n        /* \"#utility.yul\":2312:2431   */\n    tag_224:\n        /* \"#utility.yul\":2470:2471   */\n      0x00\n        /* \"#utility.yul\":2495:2548   */\n      tag_226\n        /* \"#utility.yul\":2540:2547   */\n      dup5\n        /* \"#utility.yul\":2531:2537   */\n      dup3\n        /* \"#utility.yul\":2520:2529   */\n      dup6\n        /* \"#utility.yul\":2516:2538   */\n      add\n        /* \"#utility.yul\":2495:2548   */\n      tag_144\n      jump\t// in\n    tag_226:\n        /* \"#utility.yul\":2485:2548   */\n      swap2\n      pop\n        /* \"#utility.yul\":2441:2558   */\n      pop\n        /* \"#utility.yul\":2236:2565   */\n      swap3\n      swap2\n      pop\n      pop\n      jump\t// out\n        /* \"#utility.yul\":2571:2661   */\n    tag_145:\n        /* \"#utility.yul\":2605:2612   */\n      0x00\n        /* \"#utility.yul\":2648:2653   */\n      dup2\n        /* \"#utility.yul\":2641:2654   */\n      iszero\n        /* \"#utility.yul\":2634:2655   */\n      iszero\n        /* \"#utility.yul\":2623:2655   */\n      swap1\n      pop\n        /* \"#utility.yul\":2571:2661   */\n      swap2\n      swap1\n      pop\n      jump\t// out\n        /* \"#utility.yul\":2667:2776   */\n    tag_146:\n        /* \"#utility.yul\":2748:2769   */\n      tag_229\n        /* \"#utility.yul\":2763:2768   */\n      dup2\n        /* \"#utility.yul\":2748:2769   */\n      tag_145\n      jump\t// in\n    tag_229:\n        /* \"#utility.yul\":2743:2746   */\n      dup3\n        /* \"#utility.yul\":2736:2770   */\n      mstore\n        /* \"#utility.yul\":2667:2776   */\n      pop\n      pop\n      jump\t// out\n        /* \"#utility.yul\":2782:2992   */\n    tag_33:\n        /* \"#utility.yul\":2869:2873   */\n      0x00\n        /* \"#utility.yul\":2907:2909   */\n      0x20\n        /* \"#utility.yul\":2896:2905   */\n      dup3\n        /* \"#utility.yul\":2892:2910   */\n      add\n        /* \"#utility.yul\":2884:2910   */\n      swap1\n      pop\n        /* \"#utility.yul\":2920:2985   */\n      tag_231\n        /* \"#utility.yul\":2982:2983   */\n      0x00\n        /* \"#utility.yul\":2971:2980   */\n      dup4\n        /* \"#utility.yul\":2967:2984   */\n      add\n        /* \"#utility.yul\":2958:2964   */\n      dup5\n        /* \"#utility.yul\":2920:2985   */\n      tag_146\n      jump\t// in\n    tag_231:\n        /* \"#utility.yul\":2782:2992   */\n      swap3\n      swap2\n      pop\n      pop\n      jump\t// out\n        /* \"#utility.yul\":2998:3472   */\n    tag_37:\n        /* \"#utility.yul\":3066:3072   */\n      0x00\n        /* \"#utility.yul\":3074:3080   */\n      0x00\n        /* \"#utility.yul\":3123:3125   */\n      0x40\n        /* \"#utility.yul\":3111:3120   */\n      dup4\n        /* \"#utility.yul\":3102:3109   */\n      dup6\n        /* \"#utility.yul\":3098:3121   */\n      sub\n        /* \"#utility.yul\":3094:3126   */\n      slt\n        /* \"#utility.yul\":3091:3210   */\n      iszero\n      tag_233\n      jumpi\n        /* \"#utility.yul\":3129:3208   */\n      tag_234\n      tag_136\n      jump\t// in\n    tag_234:\n        /* \"#utility.yul\":3091:3210   */\n    tag_233:\n        /* \"#utility.yul\":3249:3250   */\n      0x00\n        /* \"#utility.yul\":3274:3327   */\n      tag_235\n        /* \"#utility.yul\":3319:3326   */\n      dup6\n        /* \"#utility.yul\":3310:3316   */\n      dup3\n        /* \"#utility.yul\":3299:3308   */\n      dup7\n        /* \"#utility.yul\":3295:3317   */\n      add\n        /* \"#utility.yul\":3274:3327   */\n      tag_139\n      jump\t// in\n    tag_235:\n        /* \"#utility.yul\":3264:3327   */\n      swap3\n      pop\n        /* \"#utility.yul\":3220:3337   */\n      pop\n        /* \"#utility.yul\":3376:3378   */\n      0x20\n        /* \"#utility.yul\":3402:3455   */\n      tag_236\n        /* \"#utility.yul\":3447:3454   */\n      dup6\n        /* \"#utility.yul\":3438:3444   */\n      dup3\n        /* \"#utility.yul\":3427:3436   */\n      dup7\n        /* \"#utility.yul\":3423:3445   */\n      add\n        /* \"#utility.yul\":3402:3455   */\n      tag_144\n      jump\t// in\n    tag_236:\n        /* \"#utility.yul\":3392:3455   */\n      swap2\n      pop\n        /* \"#utility.yul\":3347:3465   */\n      pop\n        /* \"#utility.yul\":2998:3472   */\n      swap3\n      pop\n      swap3\n      swap1\n      pop\n      jump\t// out\n        /* \"#utility.yul\":3478:3576   */\n    tag_147:\n        /* \"#utility.yul\":3529:3535   */\n      0x00\n        /* \"#utility.yul\":3563:3568   */\n      dup2\n        /* \"#utility.yul\":3557:3569   */\n      mload\n        /* \"#utility.yul\":3547:3569   */\n      swap1\n      pop\n        /* \"#utility.yul\":3478:3576   */\n      swap2\n      swap1\n      pop\n      jump\t// out\n        /* \"#utility.yul\":3582:3750   */\n    tag_148:\n        /* \"#utility.yul\":3665:3676   */\n      0x00\n        /* \"#utility.yul\":3699:3705   */\n      dup3\n        /* \"#utility.yul\":3694:3697   */\n      dup3\n        /* \"#utility.yul\":3687:3706   */\n      mstore\n        /* \"#utility.yul\":3739:3743   */\n      0x20\n        /* \"#utility.yul\":3734:3737   */\n      dup3\n        /* \"#utility.yul\":3730:3744   */\n      add\n        /* \"#utility.yul\":3715:3744   */\n      swap1\n      pop\n        /* \"#utility.yul\":3582:3750   */\n      swap3\n      swap2\n      pop\n      pop\n      jump\t// out\n        /* \"#utility.yul\":3756:3895   */\n    tag_149:\n        /* \"#utility.yul\":3845:3851   */\n      dup3\n        /* \"#utility.yul\":3840:3843   */\n      dup2\n        /* \"#utility.yul\":3835:3838   */\n      dup4\n        /* \"#utility.yul\":3829:3852   */\n      mcopy\n        /* \"#utility.yul\":3886:3887   */\n      0x00\n        /* \"#utility.yul\":3877:3883   */\n      dup4\n        /* \"#utility.yul\":3872:3875   */\n      dup4\n        /* \"#utility.yul\":3868:3884   */\n      add\n        /* \"#utility.yul\":3861:3888   */\n      mstore\n        /* \"#utility.yul\":3756:3895   */\n      pop\n      pop\n      pop\n      jump\t// out\n        /* \"#utility.yul\":3901:4003   */\n    tag_150:\n        /* \"#utility.yul\":3942:3948   */\n      0x00\n        /* \"#utility.yul\":3993:3995   */\n      0x1f\n        /* \"#utility.yul\":3989:3996   */\n      not\n        /* \"#utility.yul\":3984:3986   */\n      0x1f\n        /* \"#utility.yul\":3977:3982   */\n      dup4\n        /* \"#utility.yul\":3973:3987   */\n      add\n        /* \"#utility.yul\":3969:3997   */\n      and\n        /* \"#utility.yul\":3959:3997   */\n      swap1\n      pop\n        /* \"#utility.yul\":3901:4003   */\n      swap2\n      swap1\n      pop\n      jump\t// out\n        /* \"#utility.yul\":4009:4382   */\n    tag_151:\n        /* \"#utility.yul\":4095:4098   */\n      0x00\n        /* \"#utility.yul\":4123:4161   */\n      tag_242\n        /* \"#utility.yul\":4155:4160   */\n      dup3\n        /* \"#utility.yul\":4123:4161   */\n      tag_147\n      jump\t// in\n    tag_242:\n        /* \"#utility.yul\":4177:4247   */\n      tag_243\n        /* \"#utility.yul\":4240:4246   */\n      dup2\n        /* \"#utility.yul\":4235:4238   */\n      dup6\n        /* \"#utility.yul\":4177:4247   */\n      tag_148\n      jump\t// in\n    tag_243:\n        /* \"#utility.yul\":4170:4247   */\n      swap4\n      pop\n        /* \"#utility.yul\":4256:4321   */\n      tag_244\n        /* \"#utility.yul\":4314:4320   */\n      dup2\n        /* \"#utility.yul\":4309:4312   */\n      dup6\n        /* \"#utility.yul\":4302:4306   */\n      0x20\n        /* \"#utility.yul\":4295:4300   */\n      dup7\n        /* \"#utility.yul\":4291:4307   */\n      add\n        /* \"#utility.yul\":4256:4321   */\n      tag_149\n      jump\t// in\n    tag_244:\n        /* \"#utility.yul\":4346:4375   */\n      tag_245\n        /* \"#utility.yul\":4368:4374   */\n      dup2\n        /* \"#utility.yul\":4346:4375   */\n      tag_150\n      jump\t// in\n    tag_245:\n        /* \"#utility.yul\":4341:4344   */\n      dup5\n        /* \"#utility.yul\":4337:4376   */\n      add\n        /* \"#utility.yul\":4330:4376   */\n      swap2\n      pop\n        /* \"#utility.yul\":4099:4382   */\n      pop\n        /* \"#utility.yul\":4009:4382   */\n      swap3\n      swap2\n      pop\n      pop\n      jump\t// out\n        /* \"#utility.yul\":4388:5016   */\n    tag_49:\n        /* \"#utility.yul\":4577:4581   */\n      0x00\n        /* \"#utility.yul\":4615:4618   */\n      0x80\n        /* \"#utility.yul\":4604:4613   */\n      dup3\n        /* \"#utility.yul\":4600:4619   */\n      add\n        /* \"#utility.yul\":4592:4619   */\n      swap1\n      pop\n        /* \"#utility.yul\":4629:4700   */\n      tag_247\n        /* \"#utility.yul\":4697:4698   */\n      0x00\n        /* \"#utility.yul\":4686:4695   */\n      dup4\n        /* \"#utility.yul\":4682:4699   */\n      add\n        /* \"#utility.yul\":4673:4679   */\n      dup8\n        /* \"#utility.yul\":4629:4700   */\n      tag_142\n      jump\t// in\n    tag_247:\n        /* \"#utility.yul\":4710:4782   */\n      tag_248\n        /* \"#utility.yul\":4778:4780   */\n      0x20\n        /* \"#utility.yul\":4767:4776   */\n      dup4\n        /* \"#utility.yul\":4763:4781   */\n      add\n        /* \"#utility.yul\":4754:4760   */\n      dup7\n        /* \"#utility.yul\":4710:4782   */\n      tag_134\n      jump\t// in\n    tag_248:\n        /* \"#utility.yul\":4829:4838   */\n      dup2\n        /* \"#utility.yul\":4823:4827   */\n      dup2\n        /* \"#utility.yul\":4819:4839   */\n      sub\n        /* \"#utility.yul\":4814:4816   */\n      0x40\n        /* \"#utility.yul\":4803:4812   */\n      dup4\n        /* \"#utility.yul\":4799:4817   */\n      add\n        /* \"#utility.yul\":4792:4840   */\n      mstore\n        /* \"#utility.yul\":4857:4933   */\n      tag_249\n        /* \"#utility.yul\":4928:4932   */\n      dup2\n        /* \"#utility.yul\":4919:4925   */\n      dup6\n        /* \"#utility.yul\":4857:4933   */\n      tag_151\n      jump\t// in\n    tag_249:\n        /* \"#utility.yul\":4849:4933   */\n      swap1\n      pop\n        /* \"#utility.yul\":4943:5009   */\n      tag_250\n        /* \"#utility.yul\":5005:5007   */\n      0x60\n        /* \"#utility.yul\":4994:5003   */\n      dup4\n        /* \"#utility.yul\":4990:5008   */\n      add\n        /* \"#utility.yul\":4981:4987   */\n      dup5\n        /* \"#utility.yul\":4943:5009   */\n      tag_146\n      jump\t// in\n    tag_250:\n        /* \"#utility.yul\":4388:5016   */\n      swap6\n      swap5\n      pop\n      pop\n      pop\n      pop\n      pop\n      jump\t// out\n        /* \"#utility.yul\":5022:5139   */\n    tag_152:\n        /* \"#utility.yul\":5131:5132   */\n      0x00\n        /* \"#utility.yul\":5128:5129   */\n      0x00\n        /* \"#utility.yul\":5121:5133   */\n      revert\n        /* \"#utility.yul\":5145:5262   */\n    tag_153:\n        /* \"#utility.yul\":5254:5255   */\n      0x00\n        /* \"#utility.yul\":5251:5252   */\n      0x00\n        /* \"#utility.yul\":5244:5256   */\n      revert\n        /* \"#utility.yul\":5268:5448   */\n    tag_154:\n        /* \"#utility.yul\":5316:5393   */\n      0x4e487b7100000000000000000000000000000000000000000000000000000000\n        /* \"#utility.yul\":5313:5314   */\n      0x00\n        /* \"#utility.yul\":5306:5394   */\n      mstore\n        /* \"#utility.yul\":5413:5417   */\n      0x41\n        /* \"#utility.yul\":5410:5411   */\n      0x04\n        /* \"#utility.yul\":5403:5418   */\n      mstore\n        /* \"#utility.yul\":5437:5441   */\n      0x24\n        /* \"#utility.yul\":5434:5435   */\n      0x00\n        /* \"#utility.yul\":5427:5442   */\n      revert\n        /* \"#utility.yul\":5454:5735   */\n    tag_155:\n        /* \"#utility.yul\":5537:5564   */\n      tag_255\n        /* \"#utility.yul\":5559:5563   */\n      dup3\n        /* \"#utility.yul\":5537:5564   */\n      tag_150\n      jump\t// in\n    tag_255:\n        /* \"#utility.yul\":5529:5535   */\n      dup2\n        /* \"#utility.yul\":5525:5565   */\n      add\n        /* \"#utility.yul\":5667:5673   */\n      dup2\n        /* \"#utility.yul\":5655:5665   */\n      dup2\n        /* \"#utility.yul\":5652:5674   */\n      lt\n        /* \"#utility.yul\":5631:5649   */\n      0xffffffffffffffff\n        /* \"#utility.yul\":5619:5629   */\n      dup3\n        /* \"#utility.yul\":5616:5650   */\n      gt\n        /* \"#utility.yul\":5613:5675   */\n      or\n        /* \"#utility.yul\":5610:5698   */\n      iszero\n      tag_256\n      jumpi\n        /* \"#utility.yul\":5678:5696   */\n      tag_257\n      tag_154\n      jump\t// in\n    tag_257:\n        /* \"#utility.yul\":5610:5698   */\n    tag_256:\n        /* \"#utility.yul\":5718:5728   */\n      dup1\n        /* \"#utility.yul\":5714:5716   */\n      0x40\n        /* \"#utility.yul\":5707:5729   */\n      mstore\n        /* \"#utility.yul\":5497:5735   */\n      pop\n        /* \"#utility.yul\":5454:5735   */\n      pop\n      pop\n      jump\t// out\n        /* \"#utility.yul\":5741:5870   */\n    tag_156:\n        /* \"#utility.yul\":5775:5781   */\n      0x00\n        /* \"#utility.yul\":5802:5822   */\n      tag_259\n      tag_135\n      jump\t// in\n    tag_259:\n        /* \"#utility.yul\":5792:5822   */\n      swap1\n      pop\n        /* \"#utility.yul\":5831:5864   */\n      tag_260\n        /* \"#utility.yul\":5859:5863   */\n      dup3\n        /* \"#utility.yul\":5851:5857   */\n      dup3\n        /* \"#utility.yul\":5831:5864   */\n      tag_155\n      jump\t// in\n    tag_260:\n        /* \"#utility.yul\":5741:5870   */\n      swap2\n      swap1\n      pop\n      jump\t// out\n        /* \"#utility.yul\":5876:6183   */\n    tag_157:\n        /* \"#utility.yul\":5937:5941   */\n      0x00\n        /* \"#utility.yul\":6027:6045   */\n      0xffffffffffffffff\n        /* \"#utility.yul\":6019:6025   */\n      dup3\n        /* \"#utility.yul\":6016:6046   */\n      gt\n        /* \"#utility.yul\":6013:6069   */\n      iszero\n      tag_262\n      jumpi\n        /* \"#utility.yul\":6049:6067   */\n      tag_263\n      tag_154\n      jump\t// in\n    tag_263:\n        /* \"#utility.yul\":6013:6069   */\n    tag_262:\n        /* \"#utility.yul\":6087:6116   */\n      tag_264\n        /* \"#utility.yul\":6109:6115   */\n      dup3\n        /* \"#utility.yul\":6087:6116   */\n      tag_150\n      jump\t// in\n    tag_264:\n        /* \"#utility.yul\":6079:6116   */\n      swap1\n      pop\n        /* \"#utility.yul\":6171:6175   */\n      0x20\n        /* \"#utility.yul\":6165:6169   */\n      dup2\n        /* \"#utility.yul\":6161:6176   */\n      add\n        /* \"#utility.yul\":6153:6176   */\n      swap1\n      pop\n        /* \"#utility.yul\":5876:6183   */\n      swap2\n      swap1\n      pop\n      jump\t// out\n        /* \"#utility.yul\":6189:6337   */\n    tag_158:\n        /* \"#utility.yul\":6287:6293   */\n      dup3\n        /* \"#utility.yul\":6282:6285   */\n      dup2\n        /* \"#utility.yul\":6277:6280   */\n      dup4\n        /* \"#utility.yul\":6264:6294   */\n      calldatacopy\n        /* \"#utility.yul\":6328:6329   */\n      0x00\n        /* \"#utility.yul\":6319:6325   */\n      dup4\n        /* \"#utility.yul\":6314:6317   */\n      dup4\n        /* \"#utility.yul\":6310:6326   */\n      add\n        /* \"#utility.yul\":6303:6330   */\n      mstore\n        /* \"#utility.yul\":6189:6337   */\n      pop\n      pop\n      pop\n      jump\t// out\n        /* \"#utility.yul\":6343:6766   */\n    tag_159:\n        /* \"#utility.yul\":6420:6425   */\n      0x00\n        /* \"#utility.yul\":6445:6510   */\n      tag_267\n        /* \"#utility.yul\":6461:6509   */\n      tag_268\n        /* \"#utility.yul\":6502:6508   */\n      dup5\n        /* \"#utility.yul\":6461:6509   */\n      tag_157\n      jump\t// in\n    tag_268:\n        /* \"#utility.yul\":6445:6510   */\n      tag_156\n      jump\t// in\n    tag_267:\n        /* \"#utility.yul\":6436:6510   */\n      swap1\n      pop\n        /* \"#utility.yul\":6533:6539   */\n      dup3\n        /* \"#utility.yul\":6526:6531   */\n      dup2\n        /* \"#utility.yul\":6519:6540   */\n      mstore\n        /* \"#utility.yul\":6571:6575   */\n      0x20\n        /* \"#utility.yul\":6564:6569   */\n      dup2\n        /* \"#utility.yul\":6560:6576   */\n      add\n        /* \"#utility.yul\":6609:6612   */\n      dup5\n        /* \"#utility.yul\":6600:6606   */\n      dup5\n        /* \"#utility.yul\":6595:6598   */\n      dup5\n        /* \"#utility.yul\":6591:6607   */\n      add\n        /* \"#utility.yul\":6588:6613   */\n      gt\n        /* \"#utility.yul\":6585:6697   */\n      iszero\n      tag_269\n      jumpi\n        /* \"#utility.yul\":6616:6695   */\n      tag_270\n      tag_153\n      jump\t// in\n    tag_270:\n        /* \"#utility.yul\":6585:6697   */\n    tag_269:\n        /* \"#utility.yul\":6706:6760   */\n      tag_271\n        /* \"#utility.yul\":6753:6759   */\n      dup5\n        /* \"#utility.yul\":6748:6751   */\n      dup3\n        /* \"#utility.yul\":6743:6746   */\n      dup6\n        /* \"#utility.yul\":6706:6760   */\n      tag_158\n      jump\t// in\n    tag_271:\n        /* \"#utility.yul\":6426:6766   */\n      pop\n        /* \"#utility.yul\":6343:6766   */\n      swap4\n      swap3\n      pop\n      pop\n      pop\n      jump\t// out\n        /* \"#utility.yul\":6785:7123   */\n    tag_160:\n        /* \"#utility.yul\":6840:6845   */\n      0x00\n        /* \"#utility.yul\":6889:6892   */\n      dup3\n        /* \"#utility.yul\":6882:6886   */\n      0x1f\n        /* \"#utility.yul\":6874:6880   */\n      dup4\n        /* \"#utility.yul\":6870:6887   */\n      add\n        /* \"#utility.yul\":6866:6893   */\n      slt\n        /* \"#utility.yul\":6856:6978   */\n      tag_273\n      jumpi\n        /* \"#utility.yul\":6897:6976   */\n      tag_274\n      tag_152\n      jump\t// in\n    tag_274:\n        /* \"#utility.yul\":6856:6978   */\n    tag_273:\n        /* \"#utility.yul\":7014:7020   */\n      dup2\n        /* \"#utility.yul\":7001:7021   */\n      calldataload\n        /* \"#utility.yul\":7039:7117   */\n      tag_275\n        /* \"#utility.yul\":7113:7116   */\n      dup5\n        /* \"#utility.yul\":7105:7111   */\n      dup3\n        /* \"#utility.yul\":7098:7102   */\n      0x20\n        /* \"#utility.yul\":7090:7096   */\n      dup7\n        /* \"#utility.yul\":7086:7103   */\n      add\n        /* \"#utility.yul\":7039:7117   */\n      tag_159\n      jump\t// in\n    tag_275:\n        /* \"#utility.yul\":7030:7117   */\n      swap2\n      pop\n        /* \"#utility.yul\":6846:7123   */\n      pop\n        /* \"#utility.yul\":6785:7123   */\n      swap3\n      swap2\n      pop\n      pop\n      jump\t// out\n        /* \"#utility.yul\":7129:7926   */\n    tag_53:\n        /* \"#utility.yul\":7215:7221   */\n      0x00\n        /* \"#utility.yul\":7223:7229   */\n      0x00\n        /* \"#utility.yul\":7231:7237   */\n      0x00\n        /* \"#utility.yul\":7280:7282   */\n      0x60\n        /* \"#utility.yul\":7268:7277   */\n      dup5\n        /* \"#utility.yul\":7259:7266   */\n      dup7\n        /* \"#utility.yul\":7255:7278   */\n      sub\n        /* \"#utility.yul\":7251:7283   */\n      slt\n        /* \"#utility.yul\":7248:7367   */\n      iszero\n      tag_277\n      jumpi\n        /* \"#utility.yul\":7286:7365   */\n      tag_278\n      tag_136\n      jump\t// in\n    tag_278:\n        /* \"#utility.yul\":7248:7367   */\n    tag_277:\n        /* \"#utility.yul\":7406:7407   */\n      0x00\n        /* \"#utility.yul\":7431:7484   */\n      tag_279\n        /* \"#utility.yul\":7476:7483   */\n      dup7\n        /* \"#utility.yul\":7467:7473   */\n      dup3\n        /* \"#utility.yul\":7456:7465   */\n      dup8\n        /* \"#utility.yul\":7452:7474   */\n      add\n        /* \"#utility.yul\":7431:7484   */\n      tag_144\n      jump\t// in\n    tag_279:\n        /* \"#utility.yul\":7421:7484   */\n      swap4\n      pop\n        /* \"#utility.yul\":7377:7494   */\n      pop\n        /* \"#utility.yul\":7533:7535   */\n      0x20\n        /* \"#utility.yul\":7559:7612   */\n      tag_280\n        /* \"#utility.yul\":7604:7611   */\n      dup7\n        /* \"#utility.yul\":7595:7601   */\n      dup3\n        /* \"#utility.yul\":7584:7593   */\n      dup8\n        /* \"#utility.yul\":7580:7602   */\n      add\n        /* \"#utility.yul\":7559:7612   */\n      tag_139\n      jump\t// in\n    tag_280:\n        /* \"#utility.yul\":7549:7612   */\n      swap3\n      pop\n        /* \"#utility.yul\":7504:7622   */\n      pop\n        /* \"#utility.yul\":7689:7691   */\n      0x40\n        /* \"#utility.yul\":7678:7687   */\n      dup5\n        /* \"#utility.yul\":7674:7692   */\n      add\n        /* \"#utility.yul\":7661:7693   */\n      calldataload\n        /* \"#utility.yul\":7720:7738   */\n      0xffffffffffffffff\n        /* \"#utility.yul\":7712:7718   */\n      dup2\n        /* \"#utility.yul\":7709:7739   */\n      gt\n        /* \"#utility.yul\":7706:7823   */\n      iszero\n      tag_281\n      jumpi\n        /* \"#utility.yul\":7742:7821   */\n      tag_282\n      tag_137\n      jump\t// in\n    tag_282:\n        /* \"#utility.yul\":7706:7823   */\n    tag_281:\n        /* \"#utility.yul\":7847:7909   */\n      tag_283\n        /* \"#utility.yul\":7901:7908   */\n      dup7\n        /* \"#utility.yul\":7892:7898   */\n      dup3\n        /* \"#utility.yul\":7881:7890   */\n      dup8\n        /* \"#utility.yul\":7877:7899   */\n      add\n        /* \"#utility.yul\":7847:7909   */\n      tag_160\n      jump\t// in\n    tag_283:\n        /* \"#utility.yul\":7837:7909   */\n      swap2\n      pop\n        /* \"#utility.yul\":7632:7919   */\n      pop\n        /* \"#utility.yul\":7129:7926   */\n      swap3\n      pop\n      swap3\n      pop\n      swap3\n      jump\t// out\n        /* \"#utility.yul\":7932:8101   */\n    tag_161:\n        /* \"#utility.yul\":8016:8027   */\n      0x00\n        /* \"#utility.yul\":8050:8056   */\n      dup3\n        /* \"#utility.yul\":8045:8048   */\n      dup3\n        /* \"#utility.yul\":8038:8057   */\n      mstore\n        /* \"#utility.yul\":8090:8094   */\n      0x20\n        /* \"#utility.yul\":8085:8088   */\n      dup3\n        /* \"#utility.yul\":8081:8095   */\n      add\n        /* \"#utility.yul\":8066:8095   */\n      swap1\n      pop\n        /* \"#utility.yul\":7932:8101   */\n      swap3\n      swap2\n      pop\n      pop\n      jump\t// out\n        /* \"#utility.yul\":8107:8269   */\n    tag_162:\n        /* \"#utility.yul\":8247:8261   */\n      0x4e6f7420616e206f776e65720000000000000000000000000000000000000000\n        /* \"#utility.yul\":8243:8244   */\n      0x00\n        /* \"#utility.yul\":8235:8241   */\n      dup3\n        /* \"#utility.yul\":8231:8245   */\n      add\n        /* \"#utility.yul\":8224:8262   */\n      mstore\n        /* \"#utility.yul\":8107:8269   */\n      pop\n      jump\t// out\n        /* \"#utility.yul\":8275:8641   */\n    tag_163:\n        /* \"#utility.yul\":8417:8420   */\n      0x00\n        /* \"#utility.yul\":8438:8505   */\n      tag_287\n        /* \"#utility.yul\":8502:8504   */\n      0x0c\n        /* \"#utility.yul\":8497:8500   */\n      dup4\n        /* \"#utility.yul\":8438:8505   */\n      tag_161\n      jump\t// in\n    tag_287:\n        /* \"#utility.yul\":8431:8505   */\n      swap2\n      pop\n        /* \"#utility.yul\":8514:8607   */\n      tag_288\n        /* \"#utility.yul\":8603:8606   */\n      dup3\n        /* \"#utility.yul\":8514:8607   */\n      tag_162\n      jump\t// in\n    tag_288:\n        /* \"#utility.yul\":8632:8634   */\n      0x20\n        /* \"#utility.yul\":8627:8630   */\n      dup3\n        /* \"#utility.yul\":8623:8635   */\n      add\n        /* \"#utility.yul\":8616:8635   */\n      swap1\n      pop\n        /* \"#utility.yul\":8275:8641   */\n      swap2\n      swap1\n      pop\n      jump\t// out\n        /* \"#utility.yul\":8647:9066   */\n    tag_64:\n        /* \"#utility.yul\":8813:8817   */\n      0x00\n        /* \"#utility.yul\":8851:8853   */\n      0x20\n        /* \"#utility.yul\":8840:8849   */\n      dup3\n        /* \"#utility.yul\":8836:8854   */\n      add\n        /* \"#utility.yul\":8828:8854   */\n      swap1\n      pop\n        /* \"#utility.yul\":8900:8909   */\n      dup2\n        /* \"#utility.yul\":8894:8898   */\n      dup2\n        /* \"#utility.yul\":8890:8910   */\n      sub\n        /* \"#utility.yul\":8886:8887   */\n      0x00\n        /* \"#utility.yul\":8875:8884   */\n      dup4\n        /* \"#utility.yul\":8871:8888   */\n      add\n        /* \"#utility.yul\":8864:8911   */\n      mstore\n        /* \"#utility.yul\":8928:9059   */\n      tag_290\n        /* \"#utility.yul\":9054:9058   */\n      dup2\n        /* \"#utility.yul\":8928:9059   */\n      tag_163\n      jump\t// in\n    tag_290:\n        /* \"#utility.yul\":8920:9059   */\n      swap1\n      pop\n        /* \"#utility.yul\":8647:9066   */\n      swap2\n      swap1\n      pop\n      jump\t// out\n        /* \"#utility.yul\":9072:9248   */\n    tag_164:\n        /* \"#utility.yul\":9212:9240   */\n      0x5472616e73616374696f6e20646f6573206e6f74206578697374000000000000\n        /* \"#utility.yul\":9208:9209   */\n      0x00\n        /* \"#utility.yul\":9200:9206   */\n      dup3\n        /* \"#utility.yul\":9196:9210   */\n      add\n        /* \"#utility.yul\":9189:9241   */\n      mstore\n        /* \"#utility.yul\":9072:9248   */\n      pop\n      jump\t// out\n        /* \"#utility.yul\":9254:9620   */\n    tag_165:\n        /* \"#utility.yul\":9396:9399   */\n      0x00\n        /* \"#utility.yul\":9417:9484   */\n      tag_293\n        /* \"#utility.yul\":9481:9483   */\n      0x1a\n        /* \"#utility.yul\":9476:9479   */\n      dup4\n        /* \"#utility.yul\":9417:9484   */\n      tag_161\n      jump\t// in\n    tag_293:\n        /* \"#utility.yul\":9410:9484   */\n      swap2\n      pop\n        /* \"#utility.yul\":9493:9586   */\n      tag_294\n        /* \"#utility.yul\":9582:9585   */\n      dup3\n        /* \"#utility.yul\":9493:9586   */\n      tag_164\n      jump\t// in\n    tag_294:\n        /* \"#utility.yul\":9611:9613   */\n      0x20\n        /* \"#utility.yul\":9606:9609   */\n      dup3\n        /* \"#utility.yul\":9602:9614   */\n      add\n        /* \"#utility.yul\":9595:9614   */\n      swap1\n      pop\n        /* \"#utility.yul\":9254:9620   */\n      swap2\n      swap1\n      pop\n      jump\t// out\n        /* \"#utility.yul\":9626:10045   */\n    tag_68:\n        /* \"#utility.yul\":9792:9796   */\n      0x00\n        /* \"#utility.yul\":9830:9832   */\n      0x20\n        /* \"#utility.yul\":9819:9828   */\n      dup3\n        /* \"#utility.yul\":9815:9833   */\n      add\n        /* \"#utility.yul\":9807:9833   */\n      swap1\n      pop\n        /* \"#utility.yul\":9879:9888   */\n      dup2\n        /* \"#utility.yul\":9873:9877   */\n      dup2\n        /* \"#utility.yul\":9869:9889   */\n      sub\n        /* \"#utility.yul\":9865:9866   */\n      0x00\n        /* \"#utility.yul\":9854:9863   */\n      dup4\n        /* \"#utility.yul\":9850:9867   */\n      add\n        /* \"#utility.yul\":9843:9890   */\n      mstore\n        /* \"#utility.yul\":9907:10038   */\n      tag_296\n        /* \"#utility.yul\":10033:10037   */\n      dup2\n        /* \"#utility.yul\":9907:10038   */\n      tag_165\n      jump\t// in\n    tag_296:\n        /* \"#utility.yul\":9899:10038   */\n      swap1\n      pop\n        /* \"#utility.yul\":9626:10045   */\n      swap2\n      swap1\n      pop\n      jump\t// out\n        /* \"#utility.yul\":10051:10231   */\n    tag_72:\n        /* \"#utility.yul\":10099:10176   */\n      0x4e487b7100000000000000000000000000000000000000000000000000000000\n        /* \"#utility.yul\":10096:10097   */\n      0x00\n        /* \"#utility.yul\":10089:10177   */\n      mstore\n        /* \"#utility.yul\":10196:10200   */\n      0x32\n        /* \"#utility.yul\":10193:10194   */\n      0x04\n        /* \"#utility.yul\":10186:10201   */\n      mstore\n        /* \"#utility.yul\":10220:10224   */\n      0x24\n        /* \"#utility.yul\":10217:10218   */\n      0x00\n        /* \"#utility.yul\":10210:10225   */\n      revert\n        /* \"#utility.yul\":10237:10415   */\n    tag_166:\n        /* \"#utility.yul\":10377:10407   */\n      0x5472616e73616374696f6e20616c726561647920657865637574656400000000\n        /* \"#utility.yul\":10373:10374   */\n      0x00\n        /* \"#utility.yul\":10365:10371   */\n      dup3\n        /* \"#utility.yul\":10361:10375   */\n      add\n        /* \"#utility.yul\":10354:10408   */\n      mstore\n        /* \"#utility.yul\":10237:10415   */\n      pop\n      jump\t// out\n        /* \"#utility.yul\":10421:10787   */\n    tag_167:\n        /* \"#utility.yul\":10563:10566   */\n      0x00\n        /* \"#utility.yul\":10584:10651   */\n      tag_300\n        /* \"#utility.yul\":10648:10650   */\n      0x1c\n        /* \"#utility.yul\":10643:10646   */\n      dup4\n        /* \"#utility.yul\":10584:10651   */\n      tag_161\n      jump\t// in\n    tag_300:\n        /* \"#utility.yul\":10577:10651   */\n      swap2\n      pop\n        /* \"#utility.yul\":10660:10753   */\n      tag_301\n        /* \"#utility.yul\":10749:10752   */\n      dup3\n        /* \"#utility.yul\":10660:10753   */\n      tag_166\n      jump\t// in\n    tag_301:\n        /* \"#utility.yul\":10778:10780   */\n      0x20\n        /* \"#utility.yul\":10773:10776   */\n      dup3\n        /* \"#utility.yul\":10769:10781   */\n      add\n        /* \"#utility.yul\":10762:10781   */\n      swap1\n      pop\n        /* \"#utility.yul\":10421:10787   */\n      swap2\n      swap1\n      pop\n      jump\t// out\n        /* \"#utility.yul\":10793:11212   */\n    tag_76:\n        /* \"#utility.yul\":10959:10963   */\n      0x00\n        /* \"#utility.yul\":10997:10999   */\n      0x20\n        /* \"#utility.yul\":10986:10995   */\n      dup3\n        /* \"#utility.yul\":10982:11000   */\n      add\n        /* \"#utility.yul\":10974:11000   */\n      swap1\n      pop\n        /* \"#utility.yul\":11046:11055   */\n      dup2\n        /* \"#utility.yul\":11040:11044   */\n      dup2\n        /* \"#utility.yul\":11036:11056   */\n      sub\n        /* \"#utility.yul\":11032:11033   */\n      0x00\n        /* \"#utility.yul\":11021:11030   */\n      dup4\n        /* \"#utility.yul\":11017:11034   */\n      add\n        /* \"#utility.yul\":11010:11057   */\n      mstore\n        /* \"#utility.yul\":11074:11205   */\n      tag_303\n        /* \"#utility.yul\":11200:11204   */\n      dup2\n        /* \"#utility.yul\":11074:11205   */\n      tag_167\n      jump\t// in\n    tag_303:\n        /* \"#utility.yul\":11066:11205   */\n      swap1\n      pop\n        /* \"#utility.yul\":10793:11212   */\n      swap2\n      swap1\n      pop\n      jump\t// out\n        /* \"#utility.yul\":11218:11396   */\n    tag_168:\n        /* \"#utility.yul\":11358:11388   */\n      0x5472616e73616374696f6e20616c726561647920617070726f76656400000000\n        /* \"#utility.yul\":11354:11355   */\n      0x00\n        /* \"#utility.yul\":11346:11352   */\n      dup3\n        /* \"#utility.yul\":11342:11356   */\n      add\n        /* \"#utility.yul\":11335:11389   */\n      mstore\n        /* \"#utility.yul\":11218:11396   */\n      pop\n      jump\t// out\n        /* \"#utility.yul\":11402:11768   */\n    tag_169:\n        /* \"#utility.yul\":11544:11547   */\n      0x00\n        /* \"#utility.yul\":11565:11632   */\n      tag_306\n        /* \"#utility.yul\":11629:11631   */\n      0x1c\n        /* \"#utility.yul\":11624:11627   */\n      dup4\n        /* \"#utility.yul\":11565:11632   */\n      tag_161\n      jump\t// in\n    tag_306:\n        /* \"#utility.yul\":11558:11632   */\n      swap2\n      pop\n        /* \"#utility.yul\":11641:11734   */\n      tag_307\n        /* \"#utility.yul\":11730:11733   */\n      dup3\n        /* \"#utility.yul\":11641:11734   */\n      tag_168\n      jump\t// in\n    tag_307:\n        /* \"#utility.yul\":11759:11761   */\n      0x20\n        /* \"#utility.yul\":11754:11757   */\n      dup3\n        /* \"#utility.yul\":11750:11762   */\n      add\n        /* \"#utility.yul\":11743:11762   */\n      swap1\n      pop\n        /* \"#utility.yul\":11402:11768   */\n      swap2\n      swap1\n      pop\n      jump\t// out\n        /* \"#utility.yul\":11774:12193   */\n    tag_80:\n        /* \"#utility.yul\":11940:11944   */\n      0x00\n        /* \"#utility.yul\":11978:11980   */\n      0x20\n        /* \"#utility.yul\":11967:11976   */\n      dup3\n        /* \"#utility.yul\":11963:11981   */\n      add\n        /* \"#utility.yul\":11955:11981   */\n      swap1\n      pop\n        /* \"#utility.yul\":12027:12036   */\n      dup2\n        /* \"#utility.yul\":12021:12025   */\n      dup2\n        /* \"#utility.yul\":12017:12037   */\n      sub\n        /* \"#utility.yul\":12013:12014   */\n      0x00\n        /* \"#utility.yul\":12002:12011   */\n      dup4\n        /* \"#utility.yul\":11998:12015   */\n      add\n        /* \"#utility.yul\":11991:12038   */\n      mstore\n        /* \"#utility.yul\":12055:12186   */\n      tag_309\n        /* \"#utility.yul\":12181:12185   */\n      dup2\n        /* \"#utility.yul\":12055:12186   */\n      tag_169\n      jump\t// in\n    tag_309:\n        /* \"#utility.yul\":12047:12186   */\n      swap1\n      pop\n        /* \"#utility.yul\":11774:12193   */\n      swap2\n      swap1\n      pop\n      jump\t// out\n        /* \"#utility.yul\":12199:12379   */\n    tag_170:\n        /* \"#utility.yul\":12247:12324   */\n      0x4e487b7100000000000000000000000000000000000000000000000000000000\n        /* \"#utility.yul\":12244:12245   */\n      0x00\n        /* \"#utility.yul\":12237:12325   */\n      mstore\n        /* \"#utility.yul\":12344:12348   */\n      0x22\n        /* \"#utility.yul\":12341:12342   */\n      0x04\n        /* \"#utility.yul\":12334:12349   */\n      mstore\n        /* \"#utility.yul\":12368:12372   */\n      0x24\n        /* \"#utility.yul\":12365:12366   */\n      0x00\n        /* \"#utility.yul\":12358:12373   */\n      revert\n        /* \"#utility.yul\":12385:12705   */\n    tag_85:\n        /* \"#utility.yul\":12429:12435   */\n      0x00\n        /* \"#utility.yul\":12466:12467   */\n      0x02\n        /* \"#utility.yul\":12460:12464   */\n      dup3\n        /* \"#utility.yul\":12456:12468   */\n      div\n        /* \"#utility.yul\":12446:12468   */\n      swap1\n      pop\n        /* \"#utility.yul\":12513:12514   */\n      0x01\n        /* \"#utility.yul\":12507:12511   */\n      dup3\n        /* \"#utility.yul\":12503:12515   */\n      and\n        /* \"#utility.yul\":12534:12552   */\n      dup1\n        /* \"#utility.yul\":12524:12605   */\n      tag_312\n      jumpi\n        /* \"#utility.yul\":12590:12594   */\n      0x7f\n        /* \"#utility.yul\":12582:12588   */\n      dup3\n        /* \"#utility.yul\":12578:12595   */\n      and\n        /* \"#utility.yul\":12568:12595   */\n      swap2\n      pop\n        /* \"#utility.yul\":12524:12605   */\n    tag_312:\n        /* \"#utility.yul\":12652:12654   */\n      0x20\n        /* \"#utility.yul\":12644:12650   */\n      dup3\n        /* \"#utility.yul\":12641:12655   */\n      lt\n        /* \"#utility.yul\":12621:12639   */\n      dup2\n        /* \"#utility.yul\":12618:12656   */\n      sub\n        /* \"#utility.yul\":12615:12699   */\n      tag_313\n      jumpi\n        /* \"#utility.yul\":12671:12689   */\n      tag_314\n      tag_170\n      jump\t// in\n    tag_314:\n        /* \"#utility.yul\":12615:12699   */\n    tag_313:\n        /* \"#utility.yul\":12436:12705   */\n      pop\n        /* \"#utility.yul\":12385:12705   */\n      swap2\n      swap1\n      pop\n      jump\t// out\n        /* \"#utility.yul\":12711:12851   */\n    tag_171:\n        /* \"#utility.yul\":12759:12763   */\n      0x00\n        /* \"#utility.yul\":12782:12785   */\n      dup2\n        /* \"#utility.yul\":12774:12785   */\n      swap1\n      pop\n        /* \"#utility.yul\":12805:12808   */\n      dup2\n        /* \"#utility.yul\":12802:12803   */\n      0x00\n        /* \"#utility.yul\":12795:12809   */\n      mstore\n        /* \"#utility.yul\":12839:12843   */\n      0x20\n        /* \"#utility.yul\":12836:12837   */\n      0x00\n        /* \"#utility.yul\":12826:12844   */\n      keccak256\n        /* \"#utility.yul\":12818:12844   */\n      swap1\n      pop\n        /* \"#utility.yul\":12711:12851   */\n      swap2\n      swap1\n      pop\n      jump\t// out\n        /* \"#utility.yul\":12857:12950   */\n    tag_172:\n        /* \"#utility.yul\":12894:12900   */\n      0x00\n        /* \"#utility.yul\":12941:12943   */\n      0x20\n        /* \"#utility.yul\":12936:12938   */\n      0x1f\n        /* \"#utility.yul\":12929:12934   */\n      dup4\n        /* \"#utility.yul\":12925:12939   */\n      add\n        /* \"#utility.yul\":12921:12944   */\n      div\n        /* \"#utility.yul\":12911:12944   */\n      swap1\n      pop\n        /* \"#utility.yul\":12857:12950   */\n      swap2\n      swap1\n      pop\n      jump\t// out\n        /* \"#utility.yul\":12956:13063   */\n    tag_173:\n        /* \"#utility.yul\":13000:13008   */\n      0x00\n        /* \"#utility.yul\":13050:13055   */\n      dup3\n        /* \"#utility.yul\":13044:13048   */\n      dup3\n        /* \"#utility.yul\":13040:13056   */\n      shl\n        /* \"#utility.yul\":13019:13056   */\n      swap1\n      pop\n        /* \"#utility.yul\":12956:13063   */\n      swap3\n      swap2\n      pop\n      pop\n      jump\t// out\n        /* \"#utility.yul\":13069:13462   */\n    tag_174:\n        /* \"#utility.yul\":13138:13144   */\n      0x00\n        /* \"#utility.yul\":13188:13189   */\n      0x08\n        /* \"#utility.yul\":13176:13186   */\n      dup4\n        /* \"#utility.yul\":13172:13190   */\n      mul\n        /* \"#utility.yul\":13211:13308   */\n      tag_319\n        /* \"#utility.yul\":13241:13307   */\n      0xffffffffffffffffffffffffffffffffffffffffffffffffffffffffffffffff\n        /* \"#utility.yul\":13230:13239   */\n      dup3\n        /* \"#utility.yul\":13211:13308   */\n      tag_173\n      jump\t// in\n    tag_319:\n        /* \"#utility.yul\":13329:13368   */\n      tag_320\n        /* \"#utility.yul\":13359:13367   */\n      dup7\n        /* \"#utility.yul\":13348:13357   */\n      dup4\n        /* \"#utility.yul\":13329:13368   */\n      tag_173\n      jump\t// in\n    tag_320:\n        /* \"#utility.yul\":13317:13368   */\n      swap6\n      pop\n        /* \"#utility.yul\":13401:13405   */\n      dup1\n        /* \"#utility.yul\":13397:13406   */\n      not\n        /* \"#utility.yul\":13390:13395   */\n      dup5\n        /* \"#utility.yul\":13386:13407   */\n      and\n        /* \"#utility.yul\":13377:13407   */\n      swap4\n      pop\n        /* \"#utility.yul\":13450:13454   */\n      dup1\n        /* \"#utility.yul\":13440:13448   */\n      dup7\n        /* \"#utility.yul\":13436:13455   */\n      and\n        /* \"#utility.yul\":13429:13434   */\n      dup5\n        /* \"#utility.yul\":13426:13456   */\n      or\n        /* \"#utility.yul\":13416:13456   */\n      swap3\n      pop\n        /* \"#utility.yul\":13145:13462   */\n      pop\n      pop\n        /* \"#utility.yul\":13069:13462   */\n      swap4\n      swap3\n      pop\n      pop\n      pop\n      jump\t// out\n        /* \"#utility.yul\":13468:13528   */\n    tag_175:\n        /* \"#utility.yul\":13496:13499   */\n      0x00\n        /* \"#utility.yul\":13517:13522   */\n      dup2\n        /* \"#utility.yul\":13510:13522   */\n      swap1\n      pop\n        /* \"#utility.yul\":13468:13528   */\n      swap2\n      swap1\n      pop\n      jump\t// out\n        /* \"#utility.yul\":13534:13676   */\n    tag_176:\n        /* \"#utility.yul\":13584:13593   */\n      0x00\n        /* \"#utility.yul\":13617:13670   */\n      tag_323\n        /* \"#utility.yul\":13635:13669   */\n      tag_324\n        /* \"#utility.yul\":13644:13668   */\n      tag_325\n        /* \"#utility.yul\":13662:13667   */\n      dup5\n        /* \"#utility.yul\":13644:13668   */\n      tag_133\n      jump\t// in\n    tag_325:\n        /* \"#utility.yul\":13635:13669   */\n      tag_175\n      jump\t// in\n    tag_324:\n        /* \"#utility.yul\":13617:13670   */\n      tag_133\n      jump\t// in\n    tag_323:\n        /* \"#utility.yul\":13604:13670   */\n      swap1\n      pop\n        /* \"#utility.yul\":13534:13676   */\n      swap2\n      swap1\n      pop\n      jump\t// out\n        /* \"#utility.yul\":13682:13757   */\n    tag_177:\n        /* \"#utility.yul\":13725:13728   */\n      0x00\n        /* \"#utility.yul\":13746:13751   */\n      dup2\n        /* \"#utility.yul\":13739:13751   */\n      swap1\n      pop\n        /* \"#utility.yul\":13682:13757   */\n      swap2\n      swap1\n      pop\n      jump\t// out\n        /* \"#utility.yul\":13763:14032   */\n    tag_178:\n        /* \"#utility.yul\":13873:13912   */\n      tag_328\n        /* \"#utility.yul\":13904:13911   */\n      dup4\n        /* \"#utility.yul\":13873:13912   */\n      tag_176\n      jump\t// in\n    tag_328:\n        /* \"#utility.yul\":13934:14025   */\n      tag_329\n        /* \"#utility.yul\":13983:14024   */\n      tag_330\n        /* \"#utility.yul\":14007:14023   */\n      dup3\n        /* \"#utility.yul\":13983:14024   */\n      tag_177\n      jump\t// in\n    tag_330:\n        /* \"#utility.yul\":13975:13981   */\n      dup5\n        /* \"#utility.yul\":13968:13972   */\n      dup5\n        /* \"#utility.yul\":13962:13973   */\n      sload\n        /* \"#utility.yul\":13934:14025   */\n      tag_174\n      jump\t// in\n    tag_329:\n        /* \"#utility.yul\":13928:13932   */\n      dup3\n        /* \"#utility.yul\":13921:14026   */\n      sstore\n        /* \"#utility.yul\":13839:14032   */\n      pop\n        /* \"#utility.yul\":13763:14032   */\n      pop\n      pop\n      pop\n      jump\t// out\n        /* \"#utility.yul\":14038:14111   */\n    tag_179:\n        /* \"#utility.yul\":14083:14086   */\n      0x00\n        /* \"#utility.yul\":14104:14105   */\n      0x00\n        /* \"#utility.yul\":14097:14105   */\n      swap1\n      pop\n        /* \"#utility.yul\":14038:14111   */\n      swap1\n      jump\t// out\n        /* \"#utility.yul\":14117:14306   */\n    tag_180:\n        /* \"#utility.yul\":14194:14226   */\n      tag_333\n      tag_179\n      jump\t// in\n    tag_333:\n        /* \"#utility.yul\":14235:14300   */\n      tag_334\n        /* \"#utility.yul\":14293:14299   */\n      dup2\n        /* \"#utility.yul\":14285:14291   */\n      dup5\n        /* \"#utility.yul\":14279:14283   */\n      dup5\n        /* \"#utility.yul\":14235:14300   */\n      tag_178\n      jump\t// in\n    tag_334:\n        /* \"#utility.yul\":14170:14306   */\n      pop\n        /* \"#utility.yul\":14117:14306   */\n      pop\n      pop\n      jump\t// out\n        /* \"#utility.yul\":14312:14498   */\n    tag_181:\n        /* \"#utility.yul\":14372:14492   */\n    tag_336:\n        /* \"#utility.yul\":14389:14392   */\n      dup2\n        /* \"#utility.yul\":14382:14387   */\n      dup2\n        /* \"#utility.yul\":14379:14393   */\n      lt\n        /* \"#utility.yul\":14372:14492   */\n      iszero\n      tag_338\n      jumpi\n        /* \"#utility.yul\":14443:14482   */\n      tag_339\n        /* \"#utility.yul\":14480:14481   */\n      0x00\n        /* \"#utility.yul\":14473:14478   */\n      dup3\n        /* \"#utility.yul\":14443:14482   */\n      tag_180\n      jump\t// in\n    tag_339:\n        /* \"#utility.yul\":14416:14417   */\n      0x01\n        /* \"#utility.yul\":14409:14414   */\n      dup2\n        /* \"#utility.yul\":14405:14418   */\n      add\n        /* \"#utility.yul\":14396:14418   */\n      swap1\n      pop\n        /* \"#utility.yul\":14372:14492   */\n      jump(tag_336)\n    tag_338:\n        /* \"#utility.yul\":14312:14498   */\n      pop\n      pop\n      jump\t// out\n        /* \"#utility.yul\":14504:15045   */\n    tag_182:\n        /* \"#utility.yul\":14604:14606   */\n      0x1f\n        /* \"#utility.yul\":14599:14602   */\n      dup3\n        /* \"#utility.yul\":14596:14607   */\n      gt\n        /* \"#utility.yul\":14593:15038   */\n      iszero\n      tag_341\n      jumpi\n        /* \"#utility.yul\":14638:14675   */\n      tag_342\n        /* \"#utility.yul\":14669:14674   */\n      dup2\n        /* \"#utility.yul\":14638:14675   */\n      tag_171\n      jump\t// in\n    tag_342:\n        /* \"#utility.yul\":14721:14750   */\n      tag_343\n        /* \"#utility.yul\":14739:14749   */\n      dup5\n        /* \"#utility.yul\":14721:14750   */\n      tag_172\n      jump\t// in\n    tag_343:\n        /* \"#utility.yul\":14711:14719   */\n      dup2\n        /* \"#utility.yul\":14707:14751   */\n      add\n        /* \"#utility.yul\":14904:14906   */\n      0x20\n        /* \"#utility.yul\":14892:14902   */\n      dup6\n        /* \"#utility.yul\":14889:14907   */\n      lt\n        /* \"#utility.yul\":14886:14935   */\n      iszero\n      tag_344\n      jumpi\n        /* \"#utility.yul\":14925:14933   */\n      dup2\n        /* \"#utility.yul\":14910:14933   */\n      swap1\n      pop\n        /* \"#utility.yul\":14886:14935   */\n    tag_344:\n        /* \"#utility.yul\":14948:15028   */\n      tag_345\n        /* \"#utility.yul\":15004:15026   */\n      tag_346\n        /* \"#utility.yul\":15022:15025   */\n      dup6\n        /* \"#utility.yul\":15004:15026   */\n      tag_172\n      jump\t// in\n    tag_346:\n        /* \"#utility.yul\":14994:15002   */\n      dup4\n        /* \"#utility.yul\":14990:15027   */\n      add\n        /* \"#utility.yul\":14977:14988   */\n      dup3\n        /* \"#utility.yul\":14948:15028   */\n      tag_181\n      jump\t// in\n    tag_345:\n        /* \"#utility.yul\":14608:15038   */\n      pop\n      pop\n        /* \"#utility.yul\":14593:15038   */\n    tag_341:\n        /* \"#utility.yul\":14504:15045   */\n      pop\n      pop\n      pop\n      jump\t// out\n        /* \"#utility.yul\":15051:15168   */\n    tag_183:\n        /* \"#utility.yul\":15105:15113   */\n      0x00\n        /* \"#utility.yul\":15155:15160   */\n      dup3\n        /* \"#utility.yul\":15149:15153   */\n      dup3\n        /* \"#utility.yul\":15145:15161   */\n      shr\n        /* \"#utility.yul\":15124:15161   */\n      swap1\n      pop\n        /* \"#utility.yul\":15051:15168   */\n      swap3\n      swap2\n      pop\n      pop\n      jump\t// out\n        /* \"#utility.yul\":15174:15343   */\n    tag_184:\n        /* \"#utility.yul\":15218:15224   */\n      0x00\n        /* \"#utility.yul\":15251:15302   */\n      tag_349\n        /* \"#utility.yul\":15299:15300   */\n      0x00\n        /* \"#utility.yul\":15295:15301   */\n      not\n        /* \"#utility.yul\":15287:15292   */\n      dup5\n        /* \"#utility.yul\":15284:15285   */\n      0x08\n        /* \"#utility.yul\":15280:15293   */\n      mul\n        /* \"#utility.yul\":15251:15302   */\n      tag_183\n      jump\t// in\n    tag_349:\n        /* \"#utility.yul\":15247:15303   */\n      not\n        /* \"#utility.yul\":15332:15336   */\n      dup1\n        /* \"#utility.yul\":15326:15330   */\n      dup4\n        /* \"#utility.yul\":15322:15337   */\n      and\n        /* \"#utility.yul\":15312:15337   */\n      swap2\n      pop\n        /* \"#utility.yul\":15225:15343   */\n      pop\n        /* \"#utility.yul\":15174:15343   */\n      swap3\n      swap2\n      pop\n      pop\n      jump\t// out\n        /* \"#utility.yul\":15348:15643   */\n    tag_185:\n        /* \"#utility.yul\":15424:15428   */\n      0x00\n        /* \"#utility.yul\":15570:15599   */\n      tag_351\n        /* \"#utility.yul\":15595:15598   */\n      dup4\n        /* \"#utility.yul\":15589:15593   */\n      dup4\n        /* \"#utility.yul\":15570:15599   */\n      tag_184\n      jump\t// in\n    tag_351:\n        /* \"#utility.yul\":15562:15599   */\n      swap2\n      pop\n        /* \"#utility.yul\":15632:15635   */\n      dup3\n        /* \"#utility.yul\":15629:15630   */\n      0x02\n        /* \"#utility.yul\":15625:15636   */\n      mul\n        /* \"#utility.yul\":15619:15623   */\n      dup3\n        /* \"#utility.yul\":15616:15637   */\n      or\n        /* \"#utility.yul\":15608:15637   */\n      swap1\n      pop\n        /* \"#utility.yul\":15348:15643   */\n      swap3\n      swap2\n      pop\n      pop\n      jump\t// out\n        /* \"#utility.yul\":15648:17038   */\n    tag_96:\n        /* \"#utility.yul\":15763:15799   */\n      tag_353\n        /* \"#utility.yul\":15795:15798   */\n      dup3\n        /* \"#utility.yul\":15763:15799   */\n      tag_147\n      jump\t// in\n    tag_353:\n        /* \"#utility.yul\":15864:15882   */\n      0xffffffffffffffff\n        /* \"#utility.yul\":15856:15862   */\n      dup2\n        /* \"#utility.yul\":15853:15883   */\n      gt\n        /* \"#utility.yul\":15850:15906   */\n      iszero\n      tag_354\n      jumpi\n        /* \"#utility.yul\":15886:15904   */\n      tag_355\n      tag_154\n      jump\t// in\n    tag_355:\n        /* \"#utility.yul\":15850:15906   */\n    tag_354:\n        /* \"#utility.yul\":15930:15968   */\n      tag_356\n        /* \"#utility.yul\":15962:15966   */\n      dup3\n        /* \"#utility.yul\":15956:15967   */\n      sload\n        /* \"#utility.yul\":15930:15968   */\n      tag_85\n      jump\t// in\n    tag_356:\n        /* \"#utility.yul\":16015:16081   */\n      tag_357\n        /* \"#utility.yul\":16074:16080   */\n      dup3\n        /* \"#utility.yul\":16066:16072   */\n      dup3\n        /* \"#utility.yul\":16060:16064   */\n      dup6\n        /* \"#utility.yul\":16015:16081   */\n      tag_182\n      jump\t// in\n    tag_357:\n        /* \"#utility.yul\":16108:16109   */\n      0x00\n        /* \"#utility.yul\":16132:16136   */\n      0x20\n        /* \"#utility.yul\":16119:16136   */\n      swap1\n      pop\n        /* \"#utility.yul\":16164:16166   */\n      0x1f\n        /* \"#utility.yul\":16156:16162   */\n      dup4\n        /* \"#utility.yul\":16153:16167   */\n      gt\n        /* \"#utility.yul\":16181:16182   */\n      0x01\n        /* \"#utility.yul\":16176:16793   */\n      dup2\n      eq\n      tag_359\n      jumpi\n        /* \"#utility.yul\":16837:16838   */\n      0x00\n        /* \"#utility.yul\":16854:16860   */\n      dup5\n        /* \"#utility.yul\":16851:16928   */\n      iszero\n      tag_360\n      jumpi\n        /* \"#utility.yul\":16903:16912   */\n      dup3\n        /* \"#utility.yul\":16898:16901   */\n      dup8\n        /* \"#utility.yul\":16894:16913   */\n      add\n        /* \"#utility.yul\":16888:16914   */\n      mload\n        /* \"#utility.yul\":16879:16914   */\n      swap1\n      pop\n        /* \"#utility.yul\":16851:16928   */\n    tag_360:\n        /* \"#utility.yul\":16954:17021   */\n      tag_361\n        /* \"#utility.yul\":17014:17020   */\n      dup6\n        /* \"#utility.yul\":17007:17012   */\n      dup3\n        /* \"#utility.yul\":16954:17021   */\n      tag_185\n      jump\t// in\n    tag_361:\n        /* \"#utility.yul\":16948:16952   */\n      dup7\n        /* \"#utility.yul\":16941:17022   */\n      sstore\n        /* \"#utility.yul\":16810:17032   */\n      pop\n        /* \"#utility.yul\":16146:17032   */\n      jump(tag_358)\n        /* \"#utility.yul\":16176:16793   */\n    tag_359:\n        /* \"#utility.yul\":16228:16232   */\n      0x1f\n        /* \"#utility.yul\":16224:16233   */\n      not\n        /* \"#utility.yul\":16216:16222   */\n      dup5\n        /* \"#utility.yul\":16212:16234   */\n      and\n        /* \"#utility.yul\":16262:16298   */\n      tag_362\n        /* \"#utility.yul\":16293:16297   */\n      dup7\n        /* \"#utility.yul\":16262:16298   */\n      tag_171\n      jump\t// in\n    tag_362:\n        /* \"#utility.yul\":16320:16321   */\n      0x00\n        /* \"#utility.yul\":16334:16542   */\n    tag_363:\n        /* \"#utility.yul\":16348:16355   */\n      dup3\n        /* \"#utility.yul\":16345:16346   */\n      dup2\n        /* \"#utility.yul\":16342:16356   */\n      lt\n        /* \"#utility.yul\":16334:16542   */\n      iszero\n      tag_365\n      jumpi\n        /* \"#utility.yul\":16427:16436   */\n      dup5\n        /* \"#utility.yul\":16422:16425   */\n      dup10\n        /* \"#utility.yul\":16418:16437   */\n      add\n        /* \"#utility.yul\":16412:16438   */\n      mload\n        /* \"#utility.yul\":16404:16410   */\n      dup3\n        /* \"#utility.yul\":16397:16439   */\n      sstore\n        /* \"#utility.yul\":16478:16479   */\n      0x01\n        /* \"#utility.yul\":16470:16476   */\n      dup3\n        /* \"#utility.yul\":16466:16480   */\n      add\n        /* \"#utility.yul\":16456:16480   */\n      swap2\n      pop\n        /* \"#utility.yul\":16525:16527   */\n      0x20\n        /* \"#utility.yul\":16514:16523   */\n      dup6\n        /* \"#utility.yul\":16510:16528   */\n      add\n        /* \"#utility.yul\":16497:16528   */\n      swap5\n      pop\n        /* \"#utility.yul\":16371:16375   */\n      0x20\n        /* \"#utility.yul\":16368:16369   */\n      dup2\n        /* \"#utility.yul\":16364:16376   */\n      add\n        /* \"#utility.yul\":16359:16376   */\n      swap1\n      pop\n        /* \"#utility.yul\":16334:16542   */\n      jump(tag_363)\n    tag_365:\n        /* \"#utility.yul\":16570:16576   */\n      dup7\n        /* \"#utility.yul\":16561:16568   */\n      dup4\n        /* \"#utility.yul\":16558:16577   */\n      lt\n        /* \"#utility.yul\":16555:16734   */\n      iszero\n      tag_366\n      jumpi\n        /* \"#utility.yul\":16628:16637   */\n      dup5\n        /* \"#utility.yul\":16623:16626   */\n      dup10\n        /* \"#utility.yul\":16619:16638   */\n      add\n        /* \"#utility.yul\":16613:16639   */\n      mload\n        /* \"#utility.yul\":16671:16719   */\n      tag_367\n        /* \"#utility.yul\":16713:16717   */\n      0x1f\n        /* \"#utility.yul\":16705:16711   */\n      dup10\n        /* \"#utility.yul\":16701:16718   */\n      and\n        /* \"#utility.yul\":16690:16699   */\n      dup3\n        /* \"#utility.yul\":16671:16719   */\n      tag_184\n      jump\t// in\n    tag_367:\n        /* \"#utility.yul\":16663:16669   */\n      dup4\n        /* \"#utility.yul\":16656:16720   */\n      sstore\n        /* \"#utility.yul\":16578:16734   */\n      pop\n        /* \"#utility.yul\":16555:16734   */\n    tag_366:\n        /* \"#utility.yul\":16780:16781   */\n      0x01\n        /* \"#utility.yul\":16776:16777   */\n      0x02\n        /* \"#utility.yul\":16768:16774   */\n      dup9\n        /* \"#utility.yul\":16764:16778   */\n      mul\n        /* \"#utility.yul\":16760:16782   */\n      add\n        /* \"#utility.yul\":16754:16758   */\n      dup9\n        /* \"#utility.yul\":16747:16783   */\n      sstore\n        /* \"#utility.yul\":16183:16793   */\n      pop\n      pop\n      pop\n        /* \"#utility.yul\":16146:17032   */\n    tag_358:\n      pop\n        /* \"#utility.yul\":15738:17038   */\n      pop\n      pop\n      pop\n        /* \"#utility.yul\":15648:17038   */\n      pop\n      pop\n      jump\t// out\n        /* \"#utility.yul\":17044:17224   */\n    tag_186:\n        /* \"#utility.yul\":17092:17169   */\n      0x4e487b7100000000000000000000000000000000000000000000000000000000\n        /* \"#utility.yul\":17089:17090   */\n      0x00\n        /* \"#utility.yul\":17082:17170   */\n      mstore\n        /* \"#utility.yul\":17189:17193   */\n      0x11\n        /* \"#utility.yul\":17186:17187   */\n      0x04\n        /* \"#utility.yul\":17179:17194   */\n      mstore\n        /* \"#utility.yul\":17213:17217   */\n      0x24\n        /* \"#utility.yul\":17210:17211   */\n      0x00\n        /* \"#utility.yul\":17203:17218   */\n      revert\n        /* \"#utility.yul\":17230:17463   */\n    tag_121:\n        /* \"#utility.yul\":17269:17272   */\n      0x00\n        /* \"#utility.yul\":17292:17316   */\n      tag_370\n        /* \"#utility.yul\":17310:17315   */\n      dup3\n        /* \"#utility.yul\":17292:17316   */\n      tag_133\n      jump\t// in\n    tag_370:\n        /* \"#utility.yul\":17283:17316   */\n      swap2\n      pop\n        /* \"#utility.yul\":17338:17404   */\n      0xffffffffffffffffffffffffffffffffffffffffffffffffffffffffffffffff\n        /* \"#utility.yul\":17331:17336   */\n      dup3\n        /* \"#utility.yul\":17328:17405   */\n      sub\n        /* \"#utility.yul\":17325:17428   */\n      tag_371\n      jumpi\n        /* \"#utility.yul\":17408:17426   */\n      tag_372\n      tag_186\n      jump\t// in\n    tag_372:\n        /* \"#utility.yul\":17325:17428   */\n    tag_371:\n        /* \"#utility.yul\":17455:17456   */\n      0x01\n        /* \"#utility.yul\":17448:17453   */\n      dup3\n        /* \"#utility.yul\":17444:17457   */\n      add\n        /* \"#utility.yul\":17437:17457   */\n      swap1\n      pop\n        /* \"#utility.yul\":17230:17463   */\n      swap2\n      swap1\n      pop\n      jump\t// out\n        /* \"#utility.yul\":17469:17641   */\n    tag_187:\n        /* \"#utility.yul\":17609:17633   */\n      0x496e73756666696369656e7420617070726f76616c7300000000000000000000\n        /* \"#utility.yul\":17605:17606   */\n      0x00\n        /* \"#utility.yul\":17597:17603   */\n      dup3\n        /* \"#utility.yul\":17593:17607   */\n      add\n        /* \"#utility.yul\":17586:17634   */\n      mstore\n        /* \"#utility.yul\":17469:17641   */\n      pop\n      jump\t// out\n        /* \"#utility.yul\":17647:18013   */\n    tag_188:\n        /* \"#utility.yul\":17789:17792   */\n      0x00\n        /* \"#utility.yul\":17810:17877   */\n      tag_375\n        /* \"#utility.yul\":17874:17876   */\n      0x16\n        /* \"#utility.yul\":17869:17872   */\n      dup4\n        /* \"#utility.yul\":17810:17877   */\n      tag_161\n      jump\t// in\n    tag_375:\n        /* \"#utility.yul\":17803:17877   */\n      swap2\n      pop\n        /* \"#utility.yul\":17886:17979   */\n      tag_376\n        /* \"#utility.yul\":17975:17978   */\n      dup3\n        /* \"#utility.yul\":17886:17979   */\n      tag_187\n      jump\t// in\n    tag_376:\n        /* \"#utility.yul\":18004:18006   */\n      0x20\n        /* \"#utility.yul\":17999:18002   */\n      dup3\n        /* \"#utility.yul\":17995:18007   */\n      add\n        /* \"#utility.yul\":17988:18007   */\n      swap1\n      pop\n        /* \"#utility.yul\":17647:18013   */\n      swap2\n      swap1\n      pop\n      jump\t// out\n        /* \"#utility.yul\":18019:18438   */\n    tag_124:\n        /* \"#utility.yul\":18185:18189   */\n      0x00\n        /* \"#utility.yul\":18223:18225   */\n      0x20\n        /* \"#utility.yul\":18212:18221   */\n      dup3\n        /* \"#utility.yul\":18208:18226   */\n      add\n        /* \"#utility.yul\":18200:18226   */\n      swap1\n      pop\n        /* \"#utility.yul\":18272:18281   */\n      dup2\n        /* \"#utility.yul\":18266:18270   */\n      dup2\n        /* \"#utility.yul\":18262:18282   */\n      sub\n        /* \"#utility.yul\":18258:18259   */\n      0x00\n        /* \"#utility.yul\":18247:18256   */\n      dup4\n        /* \"#utility.yul\":18243:18260   */\n      add\n        /* \"#utility.yul\":18236:18283   */\n      mstore\n        /* \"#utility.yul\":18300:18431   */\n      tag_378\n        /* \"#utility.yul\":18426:18430   */\n      dup2\n        /* \"#utility.yul\":18300:18431   */\n      tag_188\n      jump\t// in\n    tag_378:\n        /* \"#utility.yul\":18292:18431   */\n      swap1\n      pop\n        /* \"#utility.yul\":18019:18438   */\n      swap2\n      swap1\n      pop\n      jump\t// out\n        /* \"#utility.yul\":18444:18591   */\n    tag_189:\n        /* \"#utility.yul\":18545:18556   */\n      0x00\n        /* \"#utility.yul\":18582:18585   */\n      dup2\n        /* \"#utility.yul\":18567:18585   */\n      swap1\n      pop\n        /* \"#utility.yul\":18444:18591   */\n      swap3\n      swap2\n      pop\n      pop\n      jump\t// out\n        /* \"#utility.yul\":18619:19489   */\n    tag_190:\n        /* \"#utility.yul\":18720:18723   */\n      0x00\n        /* \"#utility.yul\":18757:18762   */\n      dup2\n        /* \"#utility.yul\":18751:18763   */\n      sload\n        /* \"#utility.yul\":18786:18822   */\n      tag_381\n        /* \"#utility.yul\":18812:18821   */\n      dup2\n        /* \"#utility.yul\":18786:18822   */\n      tag_85\n      jump\t// in\n    tag_381:\n        /* \"#utility.yul\":18838:18926   */\n      tag_382\n        /* \"#utility.yul\":18919:18925   */\n      dup2\n        /* \"#utility.yul\":18914:18917   */\n      dup7\n        /* \"#utility.yul\":18838:18926   */\n      tag_189\n      jump\t// in\n    tag_382:\n        /* \"#utility.yul\":18831:18926   */\n      swap5\n      pop\n        /* \"#utility.yul\":18957:18958   */\n      0x01\n        /* \"#utility.yul\":18946:18955   */\n      dup3\n        /* \"#utility.yul\":18942:18959   */\n      and\n        /* \"#utility.yul\":18973:18974   */\n      0x00\n        /* \"#utility.yul\":18968:19134   */\n      dup2\n      eq\n      tag_384\n      jumpi\n        /* \"#utility.yul\":19148:19149   */\n      0x01\n        /* \"#utility.yul\":19143:19483   */\n      dup2\n      eq\n      tag_385\n      jumpi\n        /* \"#utility.yul\":18935:19483   */\n      jump(tag_383)\n        /* \"#utility.yul\":18968:19134   */\n    tag_384:\n        /* \"#utility.yul\":19052:19056   */\n      0xff\n        /* \"#utility.yul\":19048:19057   */\n      not\n        /* \"#utility.yul\":19037:19046   */\n      dup4\n        /* \"#utility.yul\":19033:19058   */\n      and\n        /* \"#utility.yul\":19028:19031   */\n      dup7\n        /* \"#utility.yul\":19021:19059   */\n      mstore\n        /* \"#utility.yul\":19114:19120   */\n      dup2\n        /* \"#utility.yul\":19107:19121   */\n      iszero\n        /* \"#utility.yul\":19100:19122   */\n      iszero\n        /* \"#utility.yul\":19092:19098   */\n      dup3\n        /* \"#utility.yul\":19088:19123   */\n      mul\n        /* \"#utility.yul\":19083:19086   */\n      dup7\n        /* \"#utility.yul\":19079:19124   */\n      add\n        /* \"#utility.yul\":19072:19124   */\n      swap4\n      pop\n        /* \"#utility.yul\":18968:19134   */\n      jump(tag_383)\n        /* \"#utility.yul\":19143:19483   */\n    tag_385:\n        /* \"#utility.yul\":19210:19247   */\n      tag_386\n        /* \"#utility.yul\":19241:19246   */\n      dup6\n        /* \"#utility.yul\":19210:19247   */\n      tag_171\n      jump\t// in\n    tag_386:\n        /* \"#utility.yul\":19269:19270   */\n      0x00\n        /* \"#utility.yul\":19283:19437   */\n    tag_387:\n        /* \"#utility.yul\":19297:19303   */\n      dup4\n        /* \"#utility.yul\":19294:19295   */\n      dup2\n        /* \"#utility.yul\":19291:19304   */\n      lt\n        /* \"#utility.yul\":19283:19437   */\n      iszero\n      tag_389\n      jumpi\n        /* \"#utility.yul\":19371:19378   */\n      dup2\n        /* \"#utility.yul\":19365:19379   */\n      sload\n        /* \"#utility.yul\":19361:19362   */\n      dup2\n        /* \"#utility.yul\":19356:19359   */\n      dup10\n        /* \"#utility.yul\":19352:19363   */\n      add\n        /* \"#utility.yul\":19345:19380   */\n      mstore\n        /* \"#utility.yul\":19421:19422   */\n      0x01\n        /* \"#utility.yul\":19412:19419   */\n      dup3\n        /* \"#utility.yul\":19408:19423   */\n      add\n        /* \"#utility.yul\":19397:19423   */\n      swap2\n      pop\n        /* \"#utility.yul\":19319:19323   */\n      0x20\n        /* \"#utility.yul\":19316:19317   */\n      dup2\n        /* \"#utility.yul\":19312:19324   */\n      add\n        /* \"#utility.yul\":19307:19324   */\n      swap1\n      pop\n        /* \"#utility.yul\":19283:19437   */\n      jump(tag_387)\n    tag_389:\n        /* \"#utility.yul\":19466:19472   */\n      dup4\n        /* \"#utility.yul\":19461:19464   */\n      dup9\n        /* \"#utility.yul\":19457:19473   */\n      add\n        /* \"#utility.yul\":19450:19473   */\n      swap6\n      pop\n        /* \"#utility.yul\":19150:19483   */\n      pop\n      pop\n        /* \"#utility.yul\":18935:19483   */\n    tag_383:\n      pop\n        /* \"#utility.yul\":18724:19489   */\n      pop\n      pop\n        /* \"#utility.yul\":18619:19489   */\n      swap3\n      swap2\n      pop\n      pop\n      jump\t// out\n        /* \"#utility.yul\":19495:19760   */\n    tag_126:\n        /* \"#utility.yul\":19622:19625   */\n      0x00\n        /* \"#utility.yul\":19644:19734   */\n      tag_391\n        /* \"#utility.yul\":19730:19733   */\n      dup3\n        /* \"#utility.yul\":19721:19727   */\n      dup5\n        /* \"#utility.yul\":19644:19734   */\n      tag_190\n      jump\t// in\n    tag_391:\n        /* \"#utility.yul\":19637:19734   */\n      swap2\n      pop\n        /* \"#utility.yul\":19751:19754   */\n      dup2\n        /* \"#utility.yul\":19744:19754   */\n      swap1\n      pop\n        /* \"#utility.yul\":19495:19760   */\n      swap3\n      swap2\n      pop\n      pop\n      jump\t// out\n        /* \"#utility.yul\":19766:19934   */\n    tag_191:\n        /* \"#utility.yul\":19906:19926   */\n      0x5472616e73616374696f6e206661696c65640000000000000000000000000000\n        /* \"#utility.yul\":19902:19903   */\n      0x00\n        /* \"#utility.yul\":19894:19900   */\n      dup3\n        /* \"#utility.yul\":19890:19904   */\n      add\n        /* \"#utility.yul\":19883:19927   */\n      mstore\n        /* \"#utility.yul\":19766:19934   */\n      pop\n      jump\t// out\n        /* \"#utility.yul\":19940:20306   */\n    tag_192:\n        /* \"#utility.yul\":20082:20085   */\n      0x00\n        /* \"#utility.yul\":20103:20170   */\n      tag_394\n        /* \"#utility.yul\":20167:20169   */\n      0x12\n        /* \"#utility.yul\":20162:20165   */\n      dup4\n        /* \"#utility.yul\":20103:20170   */\n      tag_161\n      jump\t// in\n    tag_394:\n        /* \"#utility.yul\":20096:20170   */\n      swap2\n      pop\n        /* \"#utility.yul\":20179:20272   */\n      tag_395\n        /* \"#utility.yul\":20268:20271   */\n      dup3\n        /* \"#utility.yul\":20179:20272   */\n      tag_191\n      jump\t// in\n    tag_395:\n        /* \"#utility.yul\":20297:20299   */\n      0x20\n        /* \"#utility.yul\":20292:20295   */\n      dup3\n        /* \"#utility.yul\":20288:20300   */\n      add\n        /* \"#utility.yul\":20281:20300   */\n      swap1\n      pop\n        /* \"#utility.yul\":19940:20306   */\n      swap2\n      swap1\n      pop\n      jump\t// out\n        /* \"#utility.yul\":20312:20731   */\n    tag_132:\n        /* \"#utility.yul\":20478:20482   */\n      0x00\n        /* \"#utility.yul\":20516:20518   */\n      0x20\n        /* \"#utility.yul\":20505:20514   */\n      dup3\n        /* \"#utility.yul\":20501:20519   */\n      add\n        /* \"#utility.yul\":20493:20519   */\n      swap1\n      pop\n        /* \"#utility.yul\":20565:20574   */\n      dup2\n        /* \"#utility.yul\":20559:20563   */\n      dup2\n        /* \"#utility.yul\":20555:20575   */\n      sub\n        /* \"#utility.yul\":20551:20552   */\n      0x00\n        /* \"#utility.yul\":20540:20549   */\n      dup4\n        /* \"#utility.yul\":20536:20553   */\n      add\n        /* \"#utility.yul\":20529:20576   */\n      mstore\n        /* \"#utility.yul\":20593:20724   */\n      tag_397\n        /* \"#utility.yul\":20719:20723   */\n      dup2\n        /* \"#utility.yul\":20593:20724   */\n      tag_192\n      jump\t// in\n    tag_397:\n        /* \"#utility.yul\":20585:20724   */\n      swap1\n      pop\n        /* \"#utility.yul\":20312:20731   */\n      swap2\n      swap1\n      pop\n      jump\t// out\n\n    auxdata: 0xa2646970667358221220ec114bd4570181f0bb6e795165def44f0ada18b39adddd715b5bc5db2df79ad164736f6c634300081f0033\n}\n",
				"bytecode": {
					"linkReferences": {},
					"object": "608060405234801561000f575f5ffd5b50604051611d85380380611d85833981810160405281019061003191906104a5565b5f825111610074576040517f08c379a000000000000000000000000000000000000000000000000000000000815260040161006b90610559565b60405180910390fd5b5f81118015610084575081518111155b6100c3576040517f08c379a00000000000000000000000000000000000000000000000000000000081526004016100ba906105e7565b60405180910390fd5b5f5f90505b82518110156102a8575f8382815181106100e5576100e4610605565b5b602002602001015190505f73ffffffffffffffffffffffffffffffffffffffff168173ffffffffffffffffffffffffffffffffffffffff160361015d576040517f08c379a00000000000000000000000000000000000000000000000000000000081526004016101549061067c565b60405180910390fd5b60015f8273ffffffffffffffffffffffffffffffffffffffff1673ffffffffffffffffffffffffffffffffffffffff1681526020019081526020015f205f9054906101000a900460ff16156101e7576040517f08c379a00000000000000000000000000000000000000000000000000000000081526004016101de906106e4565b60405180910390fd5b6001805f8373ffffffffffffffffffffffffffffffffffffffff1673ffffffffffffffffffffffffffffffffffffffff1681526020019081526020015f205f6101000a81548160ff0219169083151502179055505f81908060018154018082558091505060019003905f5260205f20015f9091909190916101000a81548173ffffffffffffffffffffffffffffffffffffffff021916908373ffffffffffffffffffffffffffffffffffffffff1602179055505080806001019150506100c8565b50806002819055505050610702565b5f604051905090565b5f5ffd5b5f5ffd5b5f5ffd5b5f601f19601f8301169050919050565b7f4e487b71000000000000000000000000000000000000000000000000000000005f52604160045260245ffd5b610312826102cc565b810181811067ffffffffffffffff82111715610331576103306102dc565b5b80604052505050565b5f6103436102b7565b905061034f8282610309565b919050565b5f67ffffffffffffffff82111561036e5761036d6102dc565b5b602082029050602081019050919050565b5f5ffd5b5f73ffffffffffffffffffffffffffffffffffffffff82169050919050565b5f6103ac82610383565b9050919050565b6103bc816103a2565b81146103c6575f5ffd5b50565b5f815190506103d7816103b3565b92915050565b5f6103ef6103ea84610354565b61033a565b905080838252602082019050602084028301858111156104125761041161037f565b5b835b8181101561043b578061042788826103c9565b845260208401935050602081019050610414565b5050509392505050565b5f82601f830112610459576104586102c8565b5b81516104698482602086016103dd565b91505092915050565b5f819050919050565b61048481610472565b811461048e575f5ffd5b50565b5f8151905061049f8161047b565b92915050565b5f5f604083850312156104bb576104ba6102c0565b5b5f83015167ffffffffffffffff8111156104d8576104d76102c4565b5b6104e485828601610445565b92505060206104f585828601610491565b9150509250929050565b5f82825260208201905092915050565b7f4f776e65727320726571756972656400000000000000000000000000000000005f82015250565b5f610543600f836104ff565b915061054e8261050f565b602082019050919050565b5f6020820190508181035f83015261057081610537565b9050919050565b7f496e76616c6964206e756d626572206f6620726571756972656420617070726f5f8201527f76616c7300000000000000000000000000000000000000000000000000000000602082015250565b5f6105d16024836104ff565b91506105dc82610577565b604082019050919050565b5f6020820190508181035f8301526105fe816105c5565b9050919050565b7f4e487b71000000000000000000000000000000000000000000000000000000005f52603260045260245ffd5b7f496e76616c6964206f776e6572000000000000000000000000000000000000005f82015250565b5f610666600d836104ff565b915061067182610632565b602082019050919050565b5f6020820190508181035f8301526106938161065a565b9050919050565b7f4f776e6572206e6f7420756e69717565000000000000000000000000000000005f82015250565b5f6106ce6010836104ff565b91506106d98261069a565b602082019050919050565b5f6020820190508181035f8301526106fb816106c2565b9050919050565b6116768061070f5f395ff3fe60806040526004361061007e575f3560e01c806399c1aadc1161004d57806399c1aadc146101b35780639ace38c2146101dd578063c64274741461021c578063ee22610b14610244576100d3565b8063025e7c27146100d7578063242232d1146101135780632f54bf6e1461013b5780638253951a14610177576100d3565b366100d3573373ffffffffffffffffffffffffffffffffffffffff167fe1fffcc4923d04b559f4d29a8bfc6cda04eb5b0d3c460751c2402c5c5cc9109c346040516100c99190610bc4565b60405180910390a2005b5f5ffd5b3480156100e2575f5ffd5b506100fd60048036038101906100f89190610c18565b61026c565b60405161010a9190610c82565b60405180910390f35b34801561011e575f5ffd5b5061013960048036038101906101349190610c18565b6102a6565b005b348015610146575f5ffd5b50610161600480360381019061015c9190610cc5565b610530565b60405161016e9190610d0a565b60405180910390f35b348015610182575f5ffd5b5061019d60048036038101906101989190610d23565b61054d565b6040516101aa9190610d0a565b60405180910390f35b3480156101be575f5ffd5b506101c7610577565b6040516101d49190610bc4565b60405180910390f35b3480156101e8575f5ffd5b5061020360048036038101906101fe9190610c18565b61057d565b6040516102139493929190610dd1565b60405180910390f35b348015610227575f5ffd5b50610242600480360381019061023d9190610f47565b610669565b005b34801561024f575f5ffd5b5061026a60048036038101906102659190610c18565b610814565b005b5f818154811061027a575f80fd5b905f5260205f20015f915054906101000a900473ffffffffffffffffffffffffffffffffffffffff1681565b60015f3373ffffffffffffffffffffffffffffffffffffffff1673ffffffffffffffffffffffffffffffffffffffff1681526020019081526020015f205f9054906101000a900460ff1661032f576040517f08c379a00000000000000000000000000000000000000000000000000000000081526004016103269061100d565b60405180910390fd5b806003805490508110610377576040517f08c379a000000000000000000000000000000000000000000000000000000000815260040161036e90611075565b60405180910390fd5b816003818154811061038c5761038b611093565b5b905f5260205f2090600402016003015f9054906101000a900460ff16156103e8576040517f08c379a00000000000000000000000000000000000000000000000000000000081526004016103df9061110a565b60405180910390fd5b8260045f8281526020019081526020015f205f3373ffffffffffffffffffffffffffffffffffffffff1673ffffffffffffffffffffffffffffffffffffffff1681526020019081526020015f205f9054906101000a900460ff1615610482576040517f08c379a000000000000000000000000000000000000000000000000000000000815260040161047990611172565b60405180910390fd5b600160045f8681526020019081526020015f205f3373ffffffffffffffffffffffffffffffffffffffff1673ffffffffffffffffffffffffffffffffffffffff1681526020019081526020015f205f6101000a81548160ff021916908315150217905550833373ffffffffffffffffffffffffffffffffffffffff167ffa624aadd8a0eae4ee975eae5cf13c9803b361b7fa2d832427db6207c088219360405160405180910390a350505050565b6001602052805f5260405f205f915054906101000a900460ff1681565b6004602052815f5260405f20602052805f5260405f205f915091509054906101000a900460ff1681565b60025481565b6003818154811061058c575f80fd5b905f5260205f2090600402015f91509050805f015f9054906101000a900473ffffffffffffffffffffffffffffffffffffffff16908060010154908060020180546105d6906111bd565b80601f0160208091040260200160405190810160405280929190818152602001828054610602906111bd565b801561064d5780601f106106245761010080835404028352916020019161064d565b820191905f5260205f20905b81548152906001019060200180831161063057829003601f168201915b505050505090806003015f9054906101000a900460ff16905084565b60015f3373ffffffffffffffffffffffffffffffffffffffff1673ffffffffffffffffffffffffffffffffffffffff1681526020019081526020015f205f9054906101000a900460ff166106f2576040517f08c379a00000000000000000000000000000000000000000000000000000000081526004016106e99061100d565b60405180910390fd5b5f6003805490509050600360405180608001604052808673ffffffffffffffffffffffffffffffffffffffff1681526020018581526020018481526020015f1515815250908060018154018082558091505060019003905f5260205f2090600402015f909190919091505f820151815f015f6101000a81548173ffffffffffffffffffffffffffffffffffffffff021916908373ffffffffffffffffffffffffffffffffffffffff1602179055506020820151816001015560408201518160020190816107bf919061138d565b506060820151816003015f6101000a81548160ff0219169083151502179055505050807fdce08ffd49d3e7091684341cab08a4ffba42fdb443cb0deb2c92729772f4704b60405160405180910390a250505050565b60015f3373ffffffffffffffffffffffffffffffffffffffff1673ffffffffffffffffffffffffffffffffffffffff1681526020019081526020015f205f9054906101000a900460ff1661089d576040517f08c379a00000000000000000000000000000000000000000000000000000000081526004016108949061100d565b60405180910390fd5b8060038054905081106108e5576040517f08c379a00000000000000000000000000000000000000000000000000000000081526004016108dc90611075565b60405180910390fd5b81600381815481106108fa576108f9611093565b5b905f5260205f2090600402016003015f9054906101000a900460ff1615610956576040517f08c379a000000000000000000000000000000000000000000000000000000000815260040161094d9061110a565b60405180910390fd5b5f6003848154811061096b5761096a611093565b5b905f5260205f20906004020190505f5f90505f5f90505b5f80549050811015610a425760045f8781526020019081526020015f205f5f83815481106109b3576109b2611093565b5b905f5260205f20015f9054906101000a900473ffffffffffffffffffffffffffffffffffffffff1673ffffffffffffffffffffffffffffffffffffffff1673ffffffffffffffffffffffffffffffffffffffff1681526020019081526020015f205f9054906101000a900460ff1615610a35578180610a3190611489565b9250505b8080600101915050610982565b50600254811015610a88576040517f08c379a0000000000000000000000000000000000000000000000000000000008152600401610a7f9061151a565b60405180910390fd5b6001826003015f6101000a81548160ff0219169083151502179055505f825f015f9054906101000a900473ffffffffffffffffffffffffffffffffffffffff1673ffffffffffffffffffffffffffffffffffffffff16836001015484600201604051610af491906115c2565b5f6040518083038185875af1925050503d805f8114610b2e576040519150601f19603f3d011682016040523d82523d5f602084013e610b33565b606091505b5050905080610b77576040517f08c379a0000000000000000000000000000000000000000000000000000000008152600401610b6e90611622565b60405180910390fd5b857fae30dc3f11bb6b178aafe5e7fc568fb6d87200068a944a8015c0db1b4533dbb860405160405180910390a2505050505050565b5f819050919050565b610bbe81610bac565b82525050565b5f602082019050610bd75f830184610bb5565b92915050565b5f604051905090565b5f5ffd5b5f5ffd5b610bf781610bac565b8114610c01575f5ffd5b50565b5f81359050610c1281610bee565b92915050565b5f60208284031215610c2d57610c2c610be6565b5b5f610c3a84828501610c04565b91505092915050565b5f73ffffffffffffffffffffffffffffffffffffffff82169050919050565b5f610c6c82610c43565b9050919050565b610c7c81610c62565b82525050565b5f602082019050610c955f830184610c73565b92915050565b610ca481610c62565b8114610cae575f5ffd5b50565b5f81359050610cbf81610c9b565b92915050565b5f60208284031215610cda57610cd9610be6565b5b5f610ce784828501610cb1565b91505092915050565b5f8115159050919050565b610d0481610cf0565b82525050565b5f602082019050610d1d5f830184610cfb565b92915050565b5f5f60408385031215610d3957610d38610be6565b5b5f610d4685828601610c04565b9250506020610d5785828601610cb1565b9150509250929050565b5f81519050919050565b5f82825260208201905092915050565b8281835e5f83830152505050565b5f601f19601f8301169050919050565b5f610da382610d61565b610dad8185610d6b565b9350610dbd818560208601610d7b565b610dc681610d89565b840191505092915050565b5f608082019050610de45f830187610c73565b610df16020830186610bb5565b8181036040830152610e038185610d99565b9050610e126060830184610cfb565b95945050505050565b5f5ffd5b5f5ffd5b7f4e487b71000000000000000000000000000000000000000000000000000000005f52604160045260245ffd5b610e5982610d89565b810181811067ffffffffffffffff82111715610e7857610e77610e23565b5b80604052505050565b5f610e8a610bdd565b9050610e968282610e50565b919050565b5f67ffffffffffffffff821115610eb557610eb4610e23565b5b610ebe82610d89565b9050602081019050919050565b828183375f83830152505050565b5f610eeb610ee684610e9b565b610e81565b905082815260208101848484011115610f0757610f06610e1f565b5b610f12848285610ecb565b509392505050565b5f82601f830112610f2e57610f2d610e1b565b5b8135610f3e848260208601610ed9565b91505092915050565b5f5f5f60608486031215610f5e57610f5d610be6565b5b5f610f6b86828701610cb1565b9350506020610f7c86828701610c04565b925050604084013567ffffffffffffffff811115610f9d57610f9c610bea565b5b610fa986828701610f1a565b9150509250925092565b5f82825260208201905092915050565b7f4e6f7420616e206f776e657200000000000000000000000000000000000000005f82015250565b5f610ff7600c83610fb3565b915061100282610fc3565b602082019050919050565b5f6020820190508181035f83015261102481610feb565b9050919050565b7f5472616e73616374696f6e20646f6573206e6f742065786973740000000000005f82015250565b5f61105f601a83610fb3565b915061106a8261102b565b602082019050919050565b5f6020820190508181035f83015261108c81611053565b9050919050565b7f4e487b71000000000000000000000000000000000000000000000000000000005f52603260045260245ffd5b7f5472616e73616374696f6e20616c7265616479206578656375746564000000005f82015250565b5f6110f4601c83610fb3565b91506110ff826110c0565b602082019050919050565b5f6020820190508181035f830152611121816110e8565b9050919050565b7f5472616e73616374696f6e20616c726561647920617070726f766564000000005f82015250565b5f61115c601c83610fb3565b915061116782611128565b602082019050919050565b5f6020820190508181035f83015261118981611150565b9050919050565b7f4e487b71000000000000000000000000000000000000000000000000000000005f52602260045260245ffd5b5f60028204905060018216806111d457607f821691505b6020821081036111e7576111e6611190565b5b50919050565b5f819050815f5260205f209050919050565b5f6020601f8301049050919050565b5f82821b905092915050565b5f600883026112497fffffffffffffffffffffffffffffffffffffffffffffffffffffffffffffffff8261120e565b611253868361120e565b95508019841693508086168417925050509392505050565b5f819050919050565b5f61128e61128961128484610bac565b61126b565b610bac565b9050919050565b5f819050919050565b6112a783611274565b6112bb6112b382611295565b84845461121a565b825550505050565b5f5f905090565b6112d26112c3565b6112dd81848461129e565b505050565b5b81811015611300576112f55f826112ca565b6001810190506112e3565b5050565b601f82111561134557611316816111ed565b61131f846111ff565b8101602085101561132e578190505b61134261133a856111ff565b8301826112e2565b50505b505050565b5f82821c905092915050565b5f6113655f198460080261134a565b1980831691505092915050565b5f61137d8383611356565b9150826002028217905092915050565b61139682610d61565b67ffffffffffffffff8111156113af576113ae610e23565b5b6113b982546111bd565b6113c4828285611304565b5f60209050601f8311600181146113f5575f84156113e3578287015190505b6113ed8582611372565b865550611454565b601f198416611403866111ed565b5f5b8281101561142a57848901518255600182019150602085019450602081019050611405565b868310156114475784890151611443601f891682611356565b8355505b6001600288020188555050505b505050505050565b7f4e487b71000000000000000000000000000000000000000000000000000000005f52601160045260245ffd5b5f61149382610bac565b91507fffffffffffffffffffffffffffffffffffffffffffffffffffffffffffffffff82036114c5576114c461145c565b5b600182019050919050565b7f496e73756666696369656e7420617070726f76616c73000000000000000000005f82015250565b5f611504601683610fb3565b915061150f826114d0565b602082019050919050565b5f6020820190508181035f830152611531816114f8565b9050919050565b5f81905092915050565b5f815461154e816111bd565b6115588186611538565b9450600182165f81146115725760018114611587576115b9565b60ff19831686528115158202860193506115b9565b611590856111ed565b5f5b838110156115b157815481890152600182019150602081019050611592565b838801955050505b50505092915050565b5f6115cd8284611542565b915081905092915050565b7f5472616e73616374696f6e206661696c656400000000000000000000000000005f82015250565b5f61160c601283610fb3565b9150611617826115d8565b602082019050919050565b5f6020820190508181035f83015261163981611600565b905091905056fea2646970667358221220ec114bd4570181f0bb6e795165def44f0ada18b39adddd715b5bc5db2df79ad164736f6c634300081f0033",
					"opcodes": "PUSH1 0x80 PUSH1 0x40 MSTORE CALLVALUE DUP1 ISZERO PUSH2 0xF JUMPI PUSH0 PUSH0 REVERT JUMPDEST POP PUSH1 0x40 MLOAD PUSH2 0x1D85 CODESIZE SUB DUP1 PUSH2 0x1D85 DUP4 CODECOPY DUP2 DUP2 ADD PUSH1 0x40 MSTORE DUP2 ADD SWAP1 PUSH2 0x31 SWAP2 SWAP1 PUSH2 0x4A5 JUMP JUMPDEST PUSH0 DUP3 MLOAD GT PUSH2 0x74 JUMPI PUSH1 0x40 MLOAD PUSH32 0x8C379A000000000000000000000000000000000000000000000000000000000 DUP2 MSTORE PUSH1 0x4 ADD PUSH2 0x6B SWAP1 PUSH2 0x559 JUMP JUMPDEST PUSH1 0x40 MLOAD DUP1 SWAP2 SUB SWAP1 REVERT JUMPDEST PUSH0 DUP2 GT DUP1 ISZERO PUSH2 0x84 JUMPI POP DUP2 MLOAD DUP2 GT ISZERO JUMPDEST PUSH2 0xC3 JUMPI PUSH1 0x40 MLOAD PUSH32 0x8C379A000000000000000000000000000000000000000000000000000000000 DUP2 MSTORE PUSH1 0x4 ADD PUSH2 0xBA SWAP1 PUSH2 0x5E7 JUMP JUMPDEST PUSH1 0x40 MLOAD DUP1 SWAP2 SUB SWAP1 REVERT JUMPDEST PUSH0 PUSH0 SWAP1 POP JUMPDEST DUP3 MLOAD DUP2 LT ISZERO PUSH2 0x2A8 JUMPI PUSH0 DUP4 DUP3 DUP2 MLOAD DUP2 LT PUSH2 0xE5 JUMPI PUSH2 0xE4 PUSH2 0x605 JUMP JUMPDEST JUMPDEST PUSH1 0x20 MUL PUSH1 0x20 ADD ADD MLOAD SWAP1 POP PUSH0 PUSH20 0xFFFFFFFFFFFFFFFFFFFFFFFFFFFFFFFFFFFFFFFF AND DUP2 PUSH20 0xFFFFFFFFFFFFFFFFFFFFFFFFFFFFFFFFFFFFFFFF AND SUB PUSH2 0x15D JUMPI PUSH1 0x40 MLOAD PUSH32 0x8C379A000000000000000000000000000000000000000000000000000000000 DUP2 MSTORE PUSH1 0x4 ADD PUSH2 0x154 SWAP1 PUSH2 0x67C JUMP JUMPDEST PUSH1 0x40 MLOAD DUP1 SWAP2 SUB SWAP1 REVERT JUMPDEST PUSH1 0x1 PUSH0 DUP3 PUSH20 0xFFFFFFFFFFFFFFFFFFFFFFFFFFFFFFFFFFFFFFFF AND PUSH20 0xFFFFFFFFFFFFFFFFFFFFFFFFFFFFFFFFFFFFFFFF AND DUP2 MSTORE PUSH1 0x20 ADD SWAP1 DUP2 MSTORE PUSH1 0x20 ADD PUSH0 KECCAK256 PUSH0 SWAP1 SLOAD SWAP1 PUSH2 0x100 EXP SWAP1 DIV PUSH1 0xFF AND ISZERO PUSH2 0x1E7 JUMPI PUSH1 0x40 MLOAD PUSH32 0x8C379A000000000000000000000000000000000000000000000000000000000 DUP2 MSTORE PUSH1 0x4 ADD PUSH2 0x1DE SWAP1 PUSH2 0x6E4 JUMP JUMPDEST PUSH1 0x40 MLOAD DUP1 SWAP2 SUB SWAP1 REVERT JUMPDEST PUSH1 0x1 DUP1 PUSH0 DUP4 PUSH20 0xFFFFFFFFFFFFFFFFFFFFFFFFFFFFFFFFFFFFFFFF AND PUSH20 0xFFFFFFFFFFFFFFFFFFFFFFFFFFFFFFFFFFFFFFFF AND DUP2 MSTORE PUSH1 0x20 ADD SWAP1 DUP2 MSTORE PUSH1 0x20 ADD PUSH0 KECCAK256 PUSH0 PUSH2 0x100 EXP DUP2 SLOAD DUP2 PUSH1 0xFF MUL NOT AND SWAP1 DUP4 ISZERO ISZERO MUL OR SWAP1 SSTORE POP PUSH0 DUP2 SWAP1 DUP1 PUSH1 0x1 DUP2 SLOAD ADD DUP1 DUP3 SSTORE DUP1 SWAP2 POP POP PUSH1 0x1 SWAP1 SUB SWAP1 PUSH0 MSTORE PUSH1 0x20 PUSH0 KECCAK256 ADD PUSH0 SWAP1 SWAP2 SWAP1 SWAP2 SWAP1 SWAP2 PUSH2 0x100 EXP DUP2 SLOAD DUP2 PUSH20 0xFFFFFFFFFFFFFFFFFFFFFFFFFFFFFFFFFFFFFFFF MUL NOT AND SWAP1 DUP4 PUSH20 0xFFFFFFFFFFFFFFFFFFFFFFFFFFFFFFFFFFFFFFFF AND MUL OR SWAP1 SSTORE POP POP DUP1 DUP1 PUSH1 0x1 ADD SWAP2 POP POP PUSH2 0xC8 JUMP JUMPDEST POP DUP1 PUSH1 0x2 DUP2 SWAP1 SSTORE POP POP POP PUSH2 0x702 JUMP JUMPDEST PUSH0 PUSH1 0x40 MLOAD SWAP1 POP SWAP1 JUMP JUMPDEST PUSH0 PUSH0 REVERT JUMPDEST PUSH0 PUSH0 REVERT JUMPDEST PUSH0 PUSH0 REVERT JUMPDEST PUSH0 PUSH1 0x1F NOT PUSH1 0x1F DUP4 ADD AND SWAP1 POP SWAP2 SWAP1 POP JUMP JUMPDEST PUSH32 0x4E487B7100000000000000000000000000000000000000000000000000000000 PUSH0 MSTORE PUSH1 0x41 PUSH1 0x4 MSTORE PUSH1 0x24 PUSH0 REVERT JUMPDEST PUSH2 0x312 DUP3 PUSH2 0x2CC JUMP JUMPDEST DUP2 ADD DUP2 DUP2 LT PUSH8 0xFFFFFFFFFFFFFFFF DUP3 GT OR ISZERO PUSH2 0x331 JUMPI PUSH2 0x330 PUSH2 0x2DC JUMP JUMPDEST JUMPDEST DUP1 PUSH1 0x40 MSTORE POP POP POP JUMP JUMPDEST PUSH0 PUSH2 0x343 PUSH2 0x2B7 JUMP JUMPDEST SWAP1 POP PUSH2 0x34F DUP3 DUP3 PUSH2 0x309 JUMP JUMPDEST SWAP2 SWAP1 POP JUMP JUMPDEST PUSH0 PUSH8 0xFFFFFFFFFFFFFFFF DUP3 GT ISZERO PUSH2 0x36E JUMPI PUSH2 0x36D PUSH2 0x2DC JUMP JUMPDEST JUMPDEST PUSH1 0x20 DUP3 MUL SWAP1 POP PUSH1 0x20 DUP2 ADD SWAP1 POP SWAP2 SWAP1 POP JUMP JUMPDEST PUSH0 PUSH0 REVERT JUMPDEST PUSH0 PUSH20 0xFFFFFFFFFFFFFFFFFFFFFFFFFFFFFFFFFFFFFFFF DUP3 AND SWAP1 POP SWAP2 SWAP1 POP JUMP JUMPDEST PUSH0 PUSH2 0x3AC DUP3 PUSH2 0x383 JUMP JUMPDEST SWAP1 POP SWAP2 SWAP1 POP JUMP JUMPDEST PUSH2 0x3BC DUP2 PUSH2 0x3A2 JUMP JUMPDEST DUP2 EQ PUSH2 0x3C6 JUMPI PUSH0 PUSH0 REVERT JUMPDEST POP JUMP JUMPDEST PUSH0 DUP2 MLOAD SWAP1 POP PUSH2 0x3D7 DUP2 PUSH2 0x3B3 JUMP JUMPDEST SWAP3 SWAP2 POP POP JUMP JUMPDEST PUSH0 PUSH2 0x3EF PUSH2 0x3EA DUP5 PUSH2 0x354 JUMP JUMPDEST PUSH2 0x33A JUMP JUMPDEST SWAP1 POP DUP1 DUP4 DUP3 MSTORE PUSH1 0x20 DUP3 ADD SWAP1 POP PUSH1 0x20 DUP5 MUL DUP4 ADD DUP6 DUP2 GT ISZERO PUSH2 0x412 JUMPI PUSH2 0x411 PUSH2 0x37F JUMP JUMPDEST JUMPDEST DUP4 JUMPDEST DUP2 DUP2 LT ISZERO PUSH2 0x43B JUMPI DUP1 PUSH2 0x427 DUP9 DUP3 PUSH2 0x3C9 JUMP JUMPDEST DUP5 MSTORE PUSH1 0x20 DUP5 ADD SWAP4 POP POP PUSH1 0x20 DUP2 ADD SWAP1 POP PUSH2 0x414 JUMP JUMPDEST POP POP POP SWAP4 SWAP3 POP POP POP JUMP JUMPDEST PUSH0 DUP3 PUSH1 0x1F DUP4 ADD SLT PUSH2 0x459 JUMPI PUSH2 0x458 PUSH2 0x2C8 JUMP JUMPDEST JUMPDEST DUP2 MLOAD PUSH2 0x469 DUP5 DUP3 PUSH1 0x20 DUP7 ADD PUSH2 0x3DD JUMP JUMPDEST SWAP2 POP POP SWAP3 SWAP2 POP POP JUMP JUMPDEST PUSH0 DUP2 SWAP1 POP SWAP2 SWAP1 POP JUMP JUMPDEST PUSH2 0x484 DUP2 PUSH2 0x472 JUMP JUMPDEST DUP2 EQ PUSH2 0x48E JUMPI PUSH0 PUSH0 REVERT JUMPDEST POP JUMP JUMPDEST PUSH0 DUP2 MLOAD SWAP1 POP PUSH2 0x49F DUP2 PUSH2 0x47B JUMP JUMPDEST SWAP3 SWAP2 POP POP JUMP JUMPDEST PUSH0 PUSH0 PUSH1 0x40 DUP4 DUP6 SUB SLT ISZERO PUSH2 0x4BB JUMPI PUSH2 0x4BA PUSH2 0x2C0 JUMP JUMPDEST JUMPDEST PUSH0 DUP4 ADD MLOAD PUSH8 0xFFFFFFFFFFFFFFFF DUP2 GT ISZERO PUSH2 0x4D8 JUMPI PUSH2 0x4D7 PUSH2 0x2C4 JUMP JUMPDEST JUMPDEST PUSH2 0x4E4 DUP6 DUP3 DUP7 ADD PUSH2 0x445 JUMP JUMPDEST SWAP3 POP POP PUSH1 0x20 PUSH2 0x4F5 DUP6 DUP3 DUP7 ADD PUSH2 0x491 JUMP JUMPDEST SWAP2 POP POP SWAP3 POP SWAP3 SWAP1 POP JUMP JUMPDEST PUSH0 DUP3 DUP3 MSTORE PUSH1 0x20 DUP3 ADD SWAP1 POP SWAP3 SWAP2 POP POP JUMP JUMPDEST PUSH32 0x4F776E6572732072657175697265640000000000000000000000000000000000 PUSH0 DUP3 ADD MSTORE POP JUMP JUMPDEST PUSH0 PUSH2 0x543 PUSH1 0xF DUP4 PUSH2 0x4FF JUMP JUMPDEST SWAP2 POP PUSH2 0x54E DUP3 PUSH2 0x50F JUMP JUMPDEST PUSH1 0x20 DUP3 ADD SWAP1 POP SWAP2 SWAP1 POP JUMP JUMPDEST PUSH0 PUSH1 0x20 DUP3 ADD SWAP1 POP DUP2 DUP2 SUB PUSH0 DUP4 ADD MSTORE PUSH2 0x570 DUP2 PUSH2 0x537 JUMP JUMPDEST SWAP1 POP SWAP2 SWAP1 POP JUMP JUMPDEST PUSH32 0x496E76616C6964206E756D626572206F6620726571756972656420617070726F PUSH0 DUP3 ADD MSTORE PUSH32 0x76616C7300000000000000000000000000000000000000000000000000000000 PUSH1 0x20 DUP3 ADD MSTORE POP JUMP JUMPDEST PUSH0 PUSH2 0x5D1 PUSH1 0x24 DUP4 PUSH2 0x4FF JUMP JUMPDEST SWAP2 POP PUSH2 0x5DC DUP3 PUSH2 0x577 JUMP JUMPDEST PUSH1 0x40 DUP3 ADD SWAP1 POP SWAP2 SWAP1 POP JUMP JUMPDEST PUSH0 PUSH1 0x20 DUP3 ADD SWAP1 POP DUP2 DUP2 SUB PUSH0 DUP4 ADD MSTORE PUSH2 0x5FE DUP2 PUSH2 0x5C5 JUMP JUMPDEST SWAP1 POP SWAP2 SWAP1 POP JUMP JUMPDEST PUSH32 0x4E487B7100000000000000000000000000000000000000000000000000000000 PUSH0 MSTORE PUSH1 0x32 PUSH1 0x4 MSTORE PUSH1 0x24 PUSH0 REVERT JUMPDEST PUSH32 0x496E76616C6964206F776E657200000000000000000000000000000000000000 PUSH0 DUP3 ADD MSTORE POP JUMP JUMPDEST PUSH0 PUSH2 0x666 PUSH1 0xD DUP4 PUSH2 0x4FF JUMP JUMPDEST SWAP2 POP PUSH2 0x671 DUP3 PUSH2 0x632 JUMP JUMPDEST PUSH1 0x20 DUP3 ADD SWAP1 POP SWAP2 SWAP1 POP JUMP JUMPDEST PUSH0 PUSH1 0x20 DUP3 ADD SWAP1 POP DUP2 DUP2 SUB PUSH0 DUP4 ADD MSTORE PUSH2 0x693 DUP2 PUSH2 0x65A JUMP JUMPDEST SWAP1 POP SWAP2 SWAP1 POP JUMP JUMPDEST PUSH32 0x4F776E6572206E6F7420756E6971756500000000000000000000000000000000 PUSH0 DUP3 ADD MSTORE POP JUMP JUMPDEST PUSH0 PUSH2 0x6CE PUSH1 0x10 DUP4 PUSH2 0x4FF JUMP JUMPDEST SWAP2 POP PUSH2 0x6D9 DUP3 PUSH2 0x69A JUMP JUMPDEST PUSH1 0x20 DUP3 ADD SWAP1 POP SWAP2 SWAP1 POP JUMP JUMPDEST PUSH0 PUSH1 0x20 DUP3 ADD SWAP1 POP DUP2 DUP2 SUB PUSH0 DUP4 ADD MSTORE PUSH2 0x6FB DUP2 PUSH2 0x6C2 JUMP JUMPDEST SWAP1 POP SWAP2 SWAP1 POP JUMP JUMPDEST PUSH2 0x1676 DUP1 PUSH2 0x70F PUSH0 CODECOPY PUSH0 RETURN INVALID PUSH1 0x80 PUSH1 0x40 MSTORE PUSH1 0x4 CALLDATASIZE LT PUSH2 0x7E JUMPI PUSH0 CALLDATALOAD PUSH1 0xE0 SHR DUP1 PUSH4 0x99C1AADC GT PUSH2 0x4D JUMPI DUP1 PUSH4 0x99C1AADC EQ PUSH2 0x1B3 JUMPI DUP1 PUSH4 0x9ACE38C2 EQ PUSH2 0x1DD JUMPI DUP1 PUSH4 0xC6427474 EQ PUSH2 0x21C JUMPI DUP1 PUSH4 0xEE22610B EQ PUSH2 0x244 JUMPI PUSH2 0xD3 JUMP JUMPDEST DUP1 PUSH4 0x25E7C27 EQ PUSH2 0xD7 JUMPI DUP1 PUSH4 0x242232D1 EQ PUSH2 0x113 JUMPI DUP1 PUSH4 0x2F54BF6E EQ PUSH2 0x13B JUMPI DUP1 PUSH4 0x8253951A EQ PUSH2 0x177 JUMPI PUSH2 0xD3 JUMP JUMPDEST CALLDATASIZE PUSH2 0xD3 JUMPI CALLER PUSH20 0xFFFFFFFFFFFFFFFFFFFFFFFFFFFFFFFFFFFFFFFF AND PUSH32 0xE1FFFCC4923D04B559F4D29A8BFC6CDA04EB5B0D3C460751C2402C5C5CC9109C CALLVALUE PUSH1 0x40 MLOAD PUSH2 0xC9 SWAP2 SWAP1 PUSH2 0xBC4 JUMP JUMPDEST PUSH1 0x40 MLOAD DUP1 SWAP2 SUB SWAP1 LOG2 STOP JUMPDEST PUSH0 PUSH0 REVERT JUMPDEST CALLVALUE DUP1 ISZERO PUSH2 0xE2 JUMPI PUSH0 PUSH0 REVERT JUMPDEST POP PUSH2 0xFD PUSH1 0x4 DUP1 CALLDATASIZE SUB DUP2 ADD SWAP1 PUSH2 0xF8 SWAP2 SWAP1 PUSH2 0xC18 JUMP JUMPDEST PUSH2 0x26C JUMP JUMPDEST PUSH1 0x40 MLOAD PUSH2 0x10A SWAP2 SWAP1 PUSH2 0xC82 JUMP JUMPDEST PUSH1 0x40 MLOAD DUP1 SWAP2 SUB SWAP1 RETURN JUMPDEST CALLVALUE DUP1 ISZERO PUSH2 0x11E JUMPI PUSH0 PUSH0 REVERT JUMPDEST POP PUSH2 0x139 PUSH1 0x4 DUP1 CALLDATASIZE SUB DUP2 ADD SWAP1 PUSH2 0x134 SWAP2 SWAP1 PUSH2 0xC18 JUMP JUMPDEST PUSH2 0x2A6 JUMP JUMPDEST STOP JUMPDEST CALLVALUE DUP1 ISZERO PUSH2 0x146 JUMPI PUSH0 PUSH0 REVERT JUMPDEST POP PUSH2 0x161 PUSH1 0x4 DUP1 CALLDATASIZE SUB DUP2 ADD SWAP1 PUSH2 0x15C SWAP2 SWAP1 PUSH2 0xCC5 JUMP JUMPDEST PUSH2 0x530 JUMP JUMPDEST PUSH1 0x40 MLOAD PUSH2 0x16E SWAP2 SWAP1 PUSH2 0xD0A JUMP JUMPDEST PUSH1 0x40 MLOAD DUP1 SWAP2 SUB SWAP1 RETURN JUMPDEST CALLVALUE DUP1 ISZERO PUSH2 0x182 JUMPI PUSH0 PUSH0 REVERT JUMPDEST POP PUSH2 0x19D PUSH1 0x4 DUP1 CALLDATASIZE SUB DUP2 ADD SWAP1 PUSH2 0x198 SWAP2 SWAP1 PUSH2 0xD23 JUMP JUMPDEST PUSH2 0x54D JUMP JUMPDEST PUSH1 0x40 MLOAD PUSH2 0x1AA SWAP2 SWAP1 PUSH2 0xD0A JUMP JUMPDEST PUSH1 0x40 MLOAD DUP1 SWAP2 SUB SWAP1 RETURN JUMPDEST CALLVALUE DUP1 ISZERO PUSH2 0x1BE JUMPI PUSH0 PUSH0 REVERT JUMPDEST POP PUSH2 0x1C7 PUSH2 0x577 JUMP JUMPDEST PUSH1 0x40 MLOAD PUSH2 0x1D4 SWAP2 SWAP1 PUSH2 0xBC4 JUMP JUMPDEST PUSH1 0x40 MLOAD DUP1 SWAP2 SUB SWAP1 RETURN JUMPDEST CALLVALUE DUP1 ISZERO PUSH2 0x1E8 JUMPI PUSH0 PUSH0 REVERT JUMPDEST POP PUSH2 0x203 PUSH1 0x4 DUP1 CALLDATASIZE SUB DUP2 ADD SWAP1 PUSH2 0x1FE SWAP2 SWAP1 PUSH2 0xC18 JUMP JUMPDEST PUSH2 0x57D JUMP JUMPDEST PUSH1 0x40 MLOAD PUSH2 0x213 SWAP5 SWAP4 SWAP3 SWAP2 SWAP1 PUSH2 0xDD1 JUMP JUMPDEST PUSH1 0x40 MLOAD DUP1 SWAP2 SUB SWAP1 RETURN JUMPDEST CALLVALUE DUP1 ISZERO PUSH2 0x227 JUMPI PUSH0 PUSH0 REVERT JUMPDEST POP PUSH2 0x242 PUSH1 0x4 DUP1 CALLDATASIZE SUB DUP2 ADD SWAP1 PUSH2 0x23D SWAP2 SWAP1 PUSH2 0xF47 JUMP JUMPDEST PUSH2 0x669 JUMP JUMPDEST STOP JUMPDEST CALLVALUE DUP1 ISZERO PUSH2 0x24F JUMPI PUSH0 PUSH0 REVERT JUMPDEST POP PUSH2 0x26A PUSH1 0x4 DUP1 CALLDATASIZE SUB DUP2 ADD SWAP1 PUSH2 0x265 SWAP2 SWAP1 PUSH2 0xC18 JUMP JUMPDEST PUSH2 0x814 JUMP JUMPDEST STOP JUMPDEST PUSH0 DUP2 DUP2 SLOAD DUP2 LT PUSH2 0x27A JUMPI PUSH0 DUP1 REVERT JUMPDEST SWAP1 PUSH0 MSTORE PUSH1 0x20 PUSH0 KECCAK256 ADD PUSH0 SWAP2 POP SLOAD SWAP1 PUSH2 0x100 EXP SWAP1 DIV PUSH20 0xFFFFFFFFFFFFFFFFFFFFFFFFFFFFFFFFFFFFFFFF AND DUP2 JUMP JUMPDEST PUSH1 0x1 PUSH0 CALLER PUSH20 0xFFFFFFFFFFFFFFFFFFFFFFFFFFFFFFFFFFFFFFFF AND PUSH20 0xFFFFFFFFFFFFFFFFFFFFFFFFFFFFFFFFFFFFFFFF AND DUP2 MSTORE PUSH1 0x20 ADD SWAP1 DUP2 MSTORE PUSH1 0x20 ADD PUSH0 KECCAK256 PUSH0 SWAP1 SLOAD SWAP1 PUSH2 0x100 EXP SWAP1 DIV PUSH1 0xFF AND PUSH2 0x32F JUMPI PUSH1 0x40 MLOAD PUSH32 0x8C379A000000000000000000000000000000000000000000000000000000000 DUP2 MSTORE PUSH1 0x4 ADD PUSH2 0x326 SWAP1 PUSH2 0x100D JUMP JUMPDEST PUSH1 0x40 MLOAD DUP1 SWAP2 SUB SWAP1 REVERT JUMPDEST DUP1 PUSH1 0x3 DUP1 SLOAD SWAP1 POP DUP2 LT PUSH2 0x377 JUMPI PUSH1 0x40 MLOAD PUSH32 0x8C379A000000000000000000000000000000000000000000000000000000000 DUP2 MSTORE PUSH1 0x4 ADD PUSH2 0x36E SWAP1 PUSH2 0x1075 JUMP JUMPDEST PUSH1 0x40 MLOAD DUP1 SWAP2 SUB SWAP1 REVERT JUMPDEST DUP2 PUSH1 0x3 DUP2 DUP2 SLOAD DUP2 LT PUSH2 0x38C JUMPI PUSH2 0x38B PUSH2 0x1093 JUMP JUMPDEST JUMPDEST SWAP1 PUSH0 MSTORE PUSH1 0x20 PUSH0 KECCAK256 SWAP1 PUSH1 0x4 MUL ADD PUSH1 0x3 ADD PUSH0 SWAP1 SLOAD SWAP1 PUSH2 0x100 EXP SWAP1 DIV PUSH1 0xFF AND ISZERO PUSH2 0x3E8 JUMPI PUSH1 0x40 MLOAD PUSH32 0x8C379A000000000000000000000000000000000000000000000000000000000 DUP2 MSTORE PUSH1 0x4 ADD PUSH2 0x3DF SWAP1 PUSH2 0x110A JUMP JUMPDEST PUSH1 0x40 MLOAD DUP1 SWAP2 SUB SWAP1 REVERT JUMPDEST DUP3 PUSH1 0x4 PUSH0 DUP3 DUP2 MSTORE PUSH1 0x20 ADD SWAP1 DUP2 MSTORE PUSH1 0x20 ADD PUSH0 KECCAK256 PUSH0 CALLER PUSH20 0xFFFFFFFFFFFFFFFFFFFFFFFFFFFFFFFFFFFFFFFF AND PUSH20 0xFFFFFFFFFFFFFFFFFFFFFFFFFFFFFFFFFFFFFFFF AND DUP2 MSTORE PUSH1 0x20 ADD SWAP1 DUP2 MSTORE PUSH1 0x20 ADD PUSH0 KECCAK256 PUSH0 SWAP1 SLOAD SWAP1 PUSH2 0x100 EXP SWAP1 DIV PUSH1 0xFF AND ISZERO PUSH2 0x482 JUMPI PUSH1 0x40 MLOAD PUSH32 0x8C379A000000000000000000000000000000000000000000000000000000000 DUP2 MSTORE PUSH1 0x4 ADD PUSH2 0x479 SWAP1 PUSH2 0x1172 JUMP JUMPDEST PUSH1 0x40 MLOAD DUP1 SWAP2 SUB SWAP1 REVERT JUMPDEST PUSH1 0x1 PUSH1 0x4 PUSH0 DUP7 DUP2 MSTORE PUSH1 0x20 ADD SWAP1 DUP2 MSTORE PUSH1 0x20 ADD PUSH0 KECCAK256 PUSH0 CALLER PUSH20 0xFFFFFFFFFFFFFFFFFFFFFFFFFFFFFFFFFFFFFFFF AND PUSH20 0xFFFFFFFFFFFFFFFFFFFFFFFFFFFFFFFFFFFFFFFF AND DUP2 MSTORE PUSH1 0x20 ADD SWAP1 DUP2 MSTORE PUSH1 0x20 ADD PUSH0 KECCAK256 PUSH0 PUSH2 0x100 EXP DUP2 SLOAD DUP2 PUSH1 0xFF MUL NOT AND SWAP1 DUP4 ISZERO ISZERO MUL OR SWAP1 SSTORE POP DUP4 CALLER PUSH20 0xFFFFFFFFFFFFFFFFFFFFFFFFFFFFFFFFFFFFFFFF AND PUSH32 0xFA624AADD8A0EAE4EE975EAE5CF13C9803B361B7FA2D832427DB6207C0882193 PUSH1 0x40 MLOAD PUSH1 0x40 MLOAD DUP1 SWAP2 SUB SWAP1 LOG3 POP POP POP POP JUMP JUMPDEST PUSH1 0x1 PUSH1 0x20 MSTORE DUP1 PUSH0 MSTORE PUSH1 0x40 PUSH0 KECCAK256 PUSH0 SWAP2 POP SLOAD SWAP1 PUSH2 0x100 EXP SWAP1 DIV PUSH1 0xFF AND DUP2 JUMP JUMPDEST PUSH1 0x4 PUSH1 0x20 MSTORE DUP2 PUSH0 MSTORE PUSH1 0x40 PUSH0 KECCAK256 PUSH1 0x20 MSTORE DUP1 PUSH0 MSTORE PUSH1 0x40 PUSH0 KECCAK256 PUSH0 SWAP2 POP SWAP2 POP SWAP1 SLOAD SWAP1 PUSH2 0x100 EXP SWAP1 DIV PUSH1 0xFF AND DUP2 JUMP JUMPDEST PUSH1 0x2 SLOAD DUP2 JUMP JUMPDEST PUSH1 0x3 DUP2 DUP2 SLOAD DUP2 LT PUSH2 0x58C JUMPI PUSH0 DUP1 REVERT JUMPDEST SWAP1 PUSH0 MSTORE PUSH1 0x20 PUSH0 KECCAK256 SWAP1 PUSH1 0x4 MUL ADD PUSH0 SWAP2 POP SWAP1 POP DUP1 PUSH0 ADD PUSH0 SWAP1 SLOAD SWAP1 PUSH2 0x100 EXP SWAP1 DIV PUSH20 0xFFFFFFFFFFFFFFFFFFFFFFFFFFFFFFFFFFFFFFFF AND SWAP1 DUP1 PUSH1 0x1 ADD SLOAD SWAP1 DUP1 PUSH1 0x2 ADD DUP1 SLOAD PUSH2 0x5D6 SWAP1 PUSH2 0x11BD JUMP JUMPDEST DUP1 PUSH1 0x1F ADD PUSH1 0x20 DUP1 SWAP2 DIV MUL PUSH1 0x20 ADD PUSH1 0x40 MLOAD SWAP1 DUP2 ADD PUSH1 0x40 MSTORE DUP1 SWAP3 SWAP2 SWAP1 DUP2 DUP2 MSTORE PUSH1 0x20 ADD DUP3 DUP1 SLOAD PUSH2 0x602 SWAP1 PUSH2 0x11BD JUMP JUMPDEST DUP1 ISZERO PUSH2 0x64D JUMPI DUP1 PUSH1 0x1F LT PUSH2 0x624 JUMPI PUSH2 0x100 DUP1 DUP4 SLOAD DIV MUL DUP4 MSTORE SWAP2 PUSH1 0x20 ADD SWAP2 PUSH2 0x64D JUMP JUMPDEST DUP3 ADD SWAP2 SWAP1 PUSH0 MSTORE PUSH1 0x20 PUSH0 KECCAK256 SWAP1 JUMPDEST DUP2 SLOAD DUP2 MSTORE SWAP1 PUSH1 0x1 ADD SWAP1 PUSH1 0x20 ADD DUP1 DUP4 GT PUSH2 0x630 JUMPI DUP3 SWAP1 SUB PUSH1 0x1F AND DUP3 ADD SWAP2 JUMPDEST POP POP POP POP POP SWAP1 DUP1 PUSH1 0x3 ADD PUSH0 SWAP1 SLOAD SWAP1 PUSH2 0x100 EXP SWAP1 DIV PUSH1 0xFF AND SWAP1 POP DUP5 JUMP JUMPDEST PUSH1 0x1 PUSH0 CALLER PUSH20 0xFFFFFFFFFFFFFFFFFFFFFFFFFFFFFFFFFFFFFFFF AND PUSH20 0xFFFFFFFFFFFFFFFFFFFFFFFFFFFFFFFFFFFFFFFF AND DUP2 MSTORE PUSH1 0x20 ADD SWAP1 DUP2 MSTORE PUSH1 0x20 ADD PUSH0 KECCAK256 PUSH0 SWAP1 SLOAD SWAP1 PUSH2 0x100 EXP SWAP1 DIV PUSH1 0xFF AND PUSH2 0x6F2 JUMPI PUSH1 0x40 MLOAD PUSH32 0x8C379A000000000000000000000000000000000000000000000000000000000 DUP2 MSTORE PUSH1 0x4 ADD PUSH2 0x6E9 SWAP1 PUSH2 0x100D JUMP JUMPDEST PUSH1 0x40 MLOAD DUP1 SWAP2 SUB SWAP1 REVERT JUMPDEST PUSH0 PUSH1 0x3 DUP1 SLOAD SWAP1 POP SWAP1 POP PUSH1 0x3 PUSH1 0x40 MLOAD DUP1 PUSH1 0x80 ADD PUSH1 0x40 MSTORE DUP1 DUP7 PUSH20 0xFFFFFFFFFFFFFFFFFFFFFFFFFFFFFFFFFFFFFFFF AND DUP2 MSTORE PUSH1 0x20 ADD DUP6 DUP2 MSTORE PUSH1 0x20 ADD DUP5 DUP2 MSTORE PUSH1 0x20 ADD PUSH0 ISZERO ISZERO DUP2 MSTORE POP SWAP1 DUP1 PUSH1 0x1 DUP2 SLOAD ADD DUP1 DUP3 SSTORE DUP1 SWAP2 POP POP PUSH1 0x1 SWAP1 SUB SWAP1 PUSH0 MSTORE PUSH1 0x20 PUSH0 KECCAK256 SWAP1 PUSH1 0x4 MUL ADD PUSH0 SWAP1 SWAP2 SWAP1 SWAP2 SWAP1 SWAP2 POP PUSH0 DUP3 ADD MLOAD DUP2 PUSH0 ADD PUSH0 PUSH2 0x100 EXP DUP2 SLOAD DUP2 PUSH20 0xFFFFFFFFFFFFFFFFFFFFFFFFFFFFFFFFFFFFFFFF MUL NOT AND SWAP1 DUP4 PUSH20 0xFFFFFFFFFFFFFFFFFFFFFFFFFFFFFFFFFFFFFFFF AND MUL OR SWAP1 SSTORE POP PUSH1 0x20 DUP3 ADD MLOAD DUP2 PUSH1 0x1 ADD SSTORE PUSH1 0x40 DUP3 ADD MLOAD DUP2 PUSH1 0x2 ADD SWAP1 DUP2 PUSH2 0x7BF SWAP2 SWAP1 PUSH2 0x138D JUMP JUMPDEST POP PUSH1 0x60 DUP3 ADD MLOAD DUP2 PUSH1 0x3 ADD PUSH0 PUSH2 0x100 EXP DUP2 SLOAD DUP2 PUSH1 0xFF MUL NOT AND SWAP1 DUP4 ISZERO ISZERO MUL OR SWAP1 SSTORE POP POP POP DUP1 PUSH32 0xDCE08FFD49D3E7091684341CAB08A4FFBA42FDB443CB0DEB2C92729772F4704B PUSH1 0x40 MLOAD PUSH1 0x40 MLOAD DUP1 SWAP2 SUB SWAP1 LOG2 POP POP POP POP JUMP JUMPDEST PUSH1 0x1 PUSH0 CALLER PUSH20 0xFFFFFFFFFFFFFFFFFFFFFFFFFFFFFFFFFFFFFFFF AND PUSH20 0xFFFFFFFFFFFFFFFFFFFFFFFFFFFFFFFFFFFFFFFF AND DUP2 MSTORE PUSH1 0x20 ADD SWAP1 DUP2 MSTORE PUSH1 0x20 ADD PUSH0 KECCAK256 PUSH0 SWAP1 SLOAD SWAP1 PUSH2 0x100 EXP SWAP1 DIV PUSH1 0xFF AND PUSH2 0x89D JUMPI PUSH1 0x40 MLOAD PUSH32 0x8C379A000000000000000000000000000000000000000000000000000000000 DUP2 MSTORE PUSH1 0x4 ADD PUSH2 0x894 SWAP1 PUSH2 0x100D JUMP JUMPDEST PUSH1 0x40 MLOAD DUP1 SWAP2 SUB SWAP1 REVERT JUMPDEST DUP1 PUSH1 0x3 DUP1 SLOAD SWAP1 POP DUP2 LT PUSH2 0x8E5 JUMPI PUSH1 0x40 MLOAD PUSH32 0x8C379A000000000000000000000000000000000000000000000000000000000 DUP2 MSTORE PUSH1 0x4 ADD PUSH2 0x8DC SWAP1 PUSH2 0x1075 JUMP JUMPDEST PUSH1 0x40 MLOAD DUP1 SWAP2 SUB SWAP1 REVERT JUMPDEST DUP2 PUSH1 0x3 DUP2 DUP2 SLOAD DUP2 LT PUSH2 0x8FA JUMPI PUSH2 0x8F9 PUSH2 0x1093 JUMP JUMPDEST JUMPDEST SWAP1 PUSH0 MSTORE PUSH1 0x20 PUSH0 KECCAK256 SWAP1 PUSH1 0x4 MUL ADD PUSH1 0x3 ADD PUSH0 SWAP1 SLOAD SWAP1 PUSH2 0x100 EXP SWAP1 DIV PUSH1 0xFF AND ISZERO PUSH2 0x956 JUMPI PUSH1 0x40 MLOAD PUSH32 0x8C379A000000000000000000000000000000000000000000000000000000000 DUP2 MSTORE PUSH1 0x4 ADD PUSH2 0x94D SWAP1 PUSH2 0x110A JUMP JUMPDEST PUSH1 0x40 MLOAD DUP1 SWAP2 SUB SWAP1 REVERT JUMPDEST PUSH0 PUSH1 0x3 DUP5 DUP2 SLOAD DUP2 LT PUSH2 0x96B JUMPI PUSH2 0x96A PUSH2 0x1093 JUMP JUMPDEST JUMPDEST SWAP1 PUSH0 MSTORE PUSH1 0x20 PUSH0 KECCAK256 SWAP1 PUSH1 0x4 MUL ADD SWAP1 POP PUSH0 PUSH0 SWAP1 POP PUSH0 PUSH0 SWAP1 POP JUMPDEST PUSH0 DUP1 SLOAD SWAP1 POP DUP2 LT ISZERO PUSH2 0xA42 JUMPI PUSH1 0x4 PUSH0 DUP8 DUP2 MSTORE PUSH1 0x20 ADD SWAP1 DUP2 MSTORE PUSH1 0x20 ADD PUSH0 KECCAK256 PUSH0 PUSH0 DUP4 DUP2 SLOAD DUP2 LT PUSH2 0x9B3 JUMPI PUSH2 0x9B2 PUSH2 0x1093 JUMP JUMPDEST JUMPDEST SWAP1 PUSH0 MSTORE PUSH1 0x20 PUSH0 KECCAK256 ADD PUSH0 SWAP1 SLOAD SWAP1 PUSH2 0x100 EXP SWAP1 DIV PUSH20 0xFFFFFFFFFFFFFFFFFFFFFFFFFFFFFFFFFFFFFFFF AND PUSH20 0xFFFFFFFFFFFFFFFFFFFFFFFFFFFFFFFFFFFFFFFF AND PUSH20 0xFFFFFFFFFFFFFFFFFFFFFFFFFFFFFFFFFFFFFFFF AND DUP2 MSTORE PUSH1 0x20 ADD SWAP1 DUP2 MSTORE PUSH1 0x20 ADD PUSH0 KECCAK256 PUSH0 SWAP1 SLOAD SWAP1 PUSH2 0x100 EXP SWAP1 DIV PUSH1 0xFF AND ISZERO PUSH2 0xA35 JUMPI DUP2 DUP1 PUSH2 0xA31 SWAP1 PUSH2 0x1489 JUMP JUMPDEST SWAP3 POP POP JUMPDEST DUP1 DUP1 PUSH1 0x1 ADD SWAP2 POP POP PUSH2 0x982 JUMP JUMPDEST POP PUSH1 0x2 SLOAD DUP2 LT ISZERO PUSH2 0xA88 JUMPI PUSH1 0x40 MLOAD PUSH32 0x8C379A000000000000000000000000000000000000000000000000000000000 DUP2 MSTORE PUSH1 0x4 ADD PUSH2 0xA7F SWAP1 PUSH2 0x151A JUMP JUMPDEST PUSH1 0x40 MLOAD DUP1 SWAP2 SUB SWAP1 REVERT JUMPDEST PUSH1 0x1 DUP3 PUSH1 0x3 ADD PUSH0 PUSH2 0x100 EXP DUP2 SLOAD DUP2 PUSH1 0xFF MUL NOT AND SWAP1 DUP4 ISZERO ISZERO MUL OR SWAP1 SSTORE POP PUSH0 DUP3 PUSH0 ADD PUSH0 SWAP1 SLOAD SWAP1 PUSH2 0x100 EXP SWAP1 DIV PUSH20 0xFFFFFFFFFFFFFFFFFFFFFFFFFFFFFFFFFFFFFFFF AND PUSH20 0xFFFFFFFFFFFFFFFFFFFFFFFFFFFFFFFFFFFFFFFF AND DUP4 PUSH1 0x1 ADD SLOAD DUP5 PUSH1 0x2 ADD PUSH1 0x40 MLOAD PUSH2 0xAF4 SWAP2 SWAP1 PUSH2 0x15C2 JUMP JUMPDEST PUSH0 PUSH1 0x40 MLOAD DUP1 DUP4 SUB DUP2 DUP6 DUP8 GAS CALL SWAP3 POP POP POP RETURNDATASIZE DUP1 PUSH0 DUP2 EQ PUSH2 0xB2E JUMPI PUSH1 0x40 MLOAD SWAP2 POP PUSH1 0x1F NOT PUSH1 0x3F RETURNDATASIZE ADD AND DUP3 ADD PUSH1 0x40 MSTORE RETURNDATASIZE DUP3 MSTORE RETURNDATASIZE PUSH0 PUSH1 0x20 DUP5 ADD RETURNDATACOPY PUSH2 0xB33 JUMP JUMPDEST PUSH1 0x60 SWAP2 POP JUMPDEST POP POP SWAP1 POP DUP1 PUSH2 0xB77 JUMPI PUSH1 0x40 MLOAD PUSH32 0x8C379A000000000000000000000000000000000000000000000000000000000 DUP2 MSTORE PUSH1 0x4 ADD PUSH2 0xB6E SWAP1 PUSH2 0x1622 JUMP JUMPDEST PUSH1 0x40 MLOAD DUP1 SWAP2 SUB SWAP1 REVERT JUMPDEST DUP6 PUSH32 0xAE30DC3F11BB6B178AAFE5E7FC568FB6D87200068A944A8015C0DB1B4533DBB8 PUSH1 0x40 MLOAD PUSH1 0x40 MLOAD DUP1 SWAP2 SUB SWAP1 LOG2 POP POP POP POP POP POP JUMP JUMPDEST PUSH0 DUP2 SWAP1 POP SWAP2 SWAP1 POP JUMP JUMPDEST PUSH2 0xBBE DUP2 PUSH2 0xBAC JUMP JUMPDEST DUP3 MSTORE POP POP JUMP JUMPDEST PUSH0 PUSH1 0x20 DUP3 ADD SWAP1 POP PUSH2 0xBD7 PUSH0 DUP4 ADD DUP5 PUSH2 0xBB5 JUMP JUMPDEST SWAP3 SWAP2 POP POP JUMP JUMPDEST PUSH0 PUSH1 0x40 MLOAD SWAP1 POP SWAP1 JUMP JUMPDEST PUSH0 PUSH0 REVERT JUMPDEST PUSH0 PUSH0 REVERT JUMPDEST PUSH2 0xBF7 DUP2 PUSH2 0xBAC JUMP JUMPDEST DUP2 EQ PUSH2 0xC01 JUMPI PUSH0 PUSH0 REVERT JUMPDEST POP JUMP JUMPDEST PUSH0 DUP2 CALLDATALOAD SWAP1 POP PUSH2 0xC12 DUP2 PUSH2 0xBEE JUMP JUMPDEST SWAP3 SWAP2 POP POP JUMP JUMPDEST PUSH0 PUSH1 0x20 DUP3 DUP5 SUB SLT ISZERO PUSH2 0xC2D JUMPI PUSH2 0xC2C PUSH2 0xBE6 JUMP JUMPDEST JUMPDEST PUSH0 PUSH2 0xC3A DUP5 DUP3 DUP6 ADD PUSH2 0xC04 JUMP JUMPDEST SWAP2 POP POP SWAP3 SWAP2 POP POP JUMP JUMPDEST PUSH0 PUSH20 0xFFFFFFFFFFFFFFFFFFFFFFFFFFFFFFFFFFFFFFFF DUP3 AND SWAP1 POP SWAP2 SWAP1 POP JUMP JUMPDEST PUSH0 PUSH2 0xC6C DUP3 PUSH2 0xC43 JUMP JUMPDEST SWAP1 POP SWAP2 SWAP1 POP JUMP JUMPDEST PUSH2 0xC7C DUP2 PUSH2 0xC62 JUMP JUMPDEST DUP3 MSTORE POP POP JUMP JUMPDEST PUSH0 PUSH1 0x20 DUP3 ADD SWAP1 POP PUSH2 0xC95 PUSH0 DUP4 ADD DUP5 PUSH2 0xC73 JUMP JUMPDEST SWAP3 SWAP2 POP POP JUMP JUMPDEST PUSH2 0xCA4 DUP2 PUSH2 0xC62 JUMP JUMPDEST DUP2 EQ PUSH2 0xCAE JUMPI PUSH0 PUSH0 REVERT JUMPDEST POP JUMP JUMPDEST PUSH0 DUP2 CALLDATALOAD SWAP1 POP PUSH2 0xCBF DUP2 PUSH2 0xC9B JUMP JUMPDEST SWAP3 SWAP2 POP POP JUMP JUMPDEST PUSH0 PUSH1 0x20 DUP3 DUP5 SUB SLT ISZERO PUSH2 0xCDA JUMPI PUSH2 0xCD9 PUSH2 0xBE6 JUMP JUMPDEST JUMPDEST PUSH0 PUSH2 0xCE7 DUP5 DUP3 DUP6 ADD PUSH2 0xCB1 JUMP JUMPDEST SWAP2 POP POP SWAP3 SWAP2 POP POP JUMP JUMPDEST PUSH0 DUP2 ISZERO ISZERO SWAP1 POP SWAP2 SWAP1 POP JUMP JUMPDEST PUSH2 0xD04 DUP2 PUSH2 0xCF0 JUMP JUMPDEST DUP3 MSTORE POP POP JUMP JUMPDEST PUSH0 PUSH1 0x20 DUP3 ADD SWAP1 POP PUSH2 0xD1D PUSH0 DUP4 ADD DUP5 PUSH2 0xCFB JUMP JUMPDEST SWAP3 SWAP2 POP POP JUMP JUMPDEST PUSH0 PUSH0 PUSH1 0x40 DUP4 DUP6 SUB SLT ISZERO PUSH2 0xD39 JUMPI PUSH2 0xD38 PUSH2 0xBE6 JUMP JUMPDEST JUMPDEST PUSH0 PUSH2 0xD46 DUP6 DUP3 DUP7 ADD PUSH2 0xC04 JUMP JUMPDEST SWAP3 POP POP PUSH1 0x20 PUSH2 0xD57 DUP6 DUP3 DUP7 ADD PUSH2 0xCB1 JUMP JUMPDEST SWAP2 POP POP SWAP3 POP SWAP3 SWAP1 POP JUMP JUMPDEST PUSH0 DUP2 MLOAD SWAP1 POP SWAP2 SWAP1 POP JUMP JUMPDEST PUSH0 DUP3 DUP3 MSTORE PUSH1 0x20 DUP3 ADD SWAP1 POP SWAP3 SWAP2 POP POP JUMP JUMPDEST DUP3 DUP2 DUP4 MCOPY PUSH0 DUP4 DUP4 ADD MSTORE POP POP POP JUMP JUMPDEST PUSH0 PUSH1 0x1F NOT PUSH1 0x1F DUP4 ADD AND SWAP1 POP SWAP2 SWAP1 POP JUMP JUMPDEST PUSH0 PUSH2 0xDA3 DUP3 PUSH2 0xD61 JUMP JUMPDEST PUSH2 0xDAD DUP2 DUP6 PUSH2 0xD6B JUMP JUMPDEST SWAP4 POP PUSH2 0xDBD DUP2 DUP6 PUSH1 0x20 DUP7 ADD PUSH2 0xD7B JUMP JUMPDEST PUSH2 0xDC6 DUP2 PUSH2 0xD89 JUMP JUMPDEST DUP5 ADD SWAP2 POP POP SWAP3 SWAP2 POP POP JUMP JUMPDEST PUSH0 PUSH1 0x80 DUP3 ADD SWAP1 POP PUSH2 0xDE4 PUSH0 DUP4 ADD DUP8 PUSH2 0xC73 JUMP JUMPDEST PUSH2 0xDF1 PUSH1 0x20 DUP4 ADD DUP7 PUSH2 0xBB5 JUMP JUMPDEST DUP2 DUP2 SUB PUSH1 0x40 DUP4 ADD MSTORE PUSH2 0xE03 DUP2 DUP6 PUSH2 0xD99 JUMP JUMPDEST SWAP1 POP PUSH2 0xE12 PUSH1 0x60 DUP4 ADD DUP5 PUSH2 0xCFB JUMP JUMPDEST SWAP6 SWAP5 POP POP POP POP POP JUMP JUMPDEST PUSH0 PUSH0 REVERT JUMPDEST PUSH0 PUSH0 REVERT JUMPDEST PUSH32 0x4E487B7100000000000000000000000000000000000000000000000000000000 PUSH0 MSTORE PUSH1 0x41 PUSH1 0x4 MSTORE PUSH1 0x24 PUSH0 REVERT JUMPDEST PUSH2 0xE59 DUP3 PUSH2 0xD89 JUMP JUMPDEST DUP2 ADD DUP2 DUP2 LT PUSH8 0xFFFFFFFFFFFFFFFF DUP3 GT OR ISZERO PUSH2 0xE78 JUMPI PUSH2 0xE77 PUSH2 0xE23 JUMP JUMPDEST JUMPDEST DUP1 PUSH1 0x40 MSTORE POP POP POP JUMP JUMPDEST PUSH0 PUSH2 0xE8A PUSH2 0xBDD JUMP JUMPDEST SWAP1 POP PUSH2 0xE96 DUP3 DUP3 PUSH2 0xE50 JUMP JUMPDEST SWAP2 SWAP1 POP JUMP JUMPDEST PUSH0 PUSH8 0xFFFFFFFFFFFFFFFF DUP3 GT ISZERO PUSH2 0xEB5 JUMPI PUSH2 0xEB4 PUSH2 0xE23 JUMP JUMPDEST JUMPDEST PUSH2 0xEBE DUP3 PUSH2 0xD89 JUMP JUMPDEST SWAP1 POP PUSH1 0x20 DUP2 ADD SWAP1 POP SWAP2 SWAP1 POP JUMP JUMPDEST DUP3 DUP2 DUP4 CALLDATACOPY PUSH0 DUP4 DUP4 ADD MSTORE POP POP POP JUMP JUMPDEST PUSH0 PUSH2 0xEEB PUSH2 0xEE6 DUP5 PUSH2 0xE9B JUMP JUMPDEST PUSH2 0xE81 JUMP JUMPDEST SWAP1 POP DUP3 DUP2 MSTORE PUSH1 0x20 DUP2 ADD DUP5 DUP5 DUP5 ADD GT ISZERO PUSH2 0xF07 JUMPI PUSH2 0xF06 PUSH2 0xE1F JUMP JUMPDEST JUMPDEST PUSH2 0xF12 DUP5 DUP3 DUP6 PUSH2 0xECB JUMP JUMPDEST POP SWAP4 SWAP3 POP POP POP JUMP JUMPDEST PUSH0 DUP3 PUSH1 0x1F DUP4 ADD SLT PUSH2 0xF2E JUMPI PUSH2 0xF2D PUSH2 0xE1B JUMP JUMPDEST JUMPDEST DUP2 CALLDATALOAD PUSH2 0xF3E DUP5 DUP3 PUSH1 0x20 DUP7 ADD PUSH2 0xED9 JUMP JUMPDEST SWAP2 POP POP SWAP3 SWAP2 POP POP JUMP JUMPDEST PUSH0 PUSH0 PUSH0 PUSH1 0x60 DUP5 DUP7 SUB SLT ISZERO PUSH2 0xF5E JUMPI PUSH2 0xF5D PUSH2 0xBE6 JUMP JUMPDEST JUMPDEST PUSH0 PUSH2 0xF6B DUP7 DUP3 DUP8 ADD PUSH2 0xCB1 JUMP JUMPDEST SWAP4 POP POP PUSH1 0x20 PUSH2 0xF7C DUP7 DUP3 DUP8 ADD PUSH2 0xC04 JUMP JUMPDEST SWAP3 POP POP PUSH1 0x40 DUP5 ADD CALLDATALOAD PUSH8 0xFFFFFFFFFFFFFFFF DUP2 GT ISZERO PUSH2 0xF9D JUMPI PUSH2 0xF9C PUSH2 0xBEA JUMP JUMPDEST JUMPDEST PUSH2 0xFA9 DUP7 DUP3 DUP8 ADD PUSH2 0xF1A JUMP JUMPDEST SWAP2 POP POP SWAP3 POP SWAP3 POP SWAP3 JUMP JUMPDEST PUSH0 DUP3 DUP3 MSTORE PUSH1 0x20 DUP3 ADD SWAP1 POP SWAP3 SWAP2 POP POP JUMP JUMPDEST PUSH32 0x4E6F7420616E206F776E65720000000000000000000000000000000000000000 PUSH0 DUP3 ADD MSTORE POP JUMP JUMPDEST PUSH0 PUSH2 0xFF7 PUSH1 0xC DUP4 PUSH2 0xFB3 JUMP JUMPDEST SWAP2 POP PUSH2 0x1002 DUP3 PUSH2 0xFC3 JUMP JUMPDEST PUSH1 0x20 DUP3 ADD SWAP1 POP SWAP2 SWAP1 POP JUMP JUMPDEST PUSH0 PUSH1 0x20 DUP3 ADD SWAP1 POP DUP2 DUP2 SUB PUSH0 DUP4 ADD MSTORE PUSH2 0x1024 DUP2 PUSH2 0xFEB JUMP JUMPDEST SWAP1 POP SWAP2 SWAP1 POP JUMP JUMPDEST PUSH32 0x5472616E73616374696F6E20646F6573206E6F74206578697374000000000000 PUSH0 DUP3 ADD MSTORE POP JUMP JUMPDEST PUSH0 PUSH2 0x105F PUSH1 0x1A DUP4 PUSH2 0xFB3 JUMP JUMPDEST SWAP2 POP PUSH2 0x106A DUP3 PUSH2 0x102B JUMP JUMPDEST PUSH1 0x20 DUP3 ADD SWAP1 POP SWAP2 SWAP1 POP JUMP JUMPDEST PUSH0 PUSH1 0x20 DUP3 ADD SWAP1 POP DUP2 DUP2 SUB PUSH0 DUP4 ADD MSTORE PUSH2 0x108C DUP2 PUSH2 0x1053 JUMP JUMPDEST SWAP1 POP SWAP2 SWAP1 POP JUMP JUMPDEST PUSH32 0x4E487B7100000000000000000000000000000000000000000000000000000000 PUSH0 MSTORE PUSH1 0x32 PUSH1 0x4 MSTORE PUSH1 0x24 PUSH0 REVERT JUMPDEST PUSH32 0x5472616E73616374696F6E20616C726561647920657865637574656400000000 PUSH0 DUP3 ADD MSTORE POP JUMP JUMPDEST PUSH0 PUSH2 0x10F4 PUSH1 0x1C DUP4 PUSH2 0xFB3 JUMP JUMPDEST SWAP2 POP PUSH2 0x10FF DUP3 PUSH2 0x10C0 JUMP JUMPDEST PUSH1 0x20 DUP3 ADD SWAP1 POP SWAP2 SWAP1 POP JUMP JUMPDEST PUSH0 PUSH1 0x20 DUP3 ADD SWAP1 POP DUP2 DUP2 SUB PUSH0 DUP4 ADD MSTORE PUSH2 0x1121 DUP2 PUSH2 0x10E8 JUMP JUMPDEST SWAP1 POP SWAP2 SWAP1 POP JUMP JUMPDEST PUSH32 0x5472616E73616374696F6E20616C726561647920617070726F76656400000000 PUSH0 DUP3 ADD MSTORE POP JUMP JUMPDEST PUSH0 PUSH2 0x115C PUSH1 0x1C DUP4 PUSH2 0xFB3 JUMP JUMPDEST SWAP2 POP PUSH2 0x1167 DUP3 PUSH2 0x1128 JUMP JUMPDEST PUSH1 0x20 DUP3 ADD SWAP1 POP SWAP2 SWAP1 POP JUMP JUMPDEST PUSH0 PUSH1 0x20 DUP3 ADD SWAP1 POP DUP2 DUP2 SUB PUSH0 DUP4 ADD MSTORE PUSH2 0x1189 DUP2 PUSH2 0x1150 JUMP JUMPDEST SWAP1 POP SWAP2 SWAP1 POP JUMP JUMPDEST PUSH32 0x4E487B7100000000000000000000000000000000000000000000000000000000 PUSH0 MSTORE PUSH1 0x22 PUSH1 0x4 MSTORE PUSH1 0x24 PUSH0 REVERT JUMPDEST PUSH0 PUSH1 0x2 DUP3 DIV SWAP1 POP PUSH1 0x1 DUP3 AND DUP1 PUSH2 0x11D4 JUMPI PUSH1 0x7F DUP3 AND SWAP2 POP JUMPDEST PUSH1 0x20 DUP3 LT DUP2 SUB PUSH2 0x11E7 JUMPI PUSH2 0x11E6 PUSH2 0x1190 JUMP JUMPDEST JUMPDEST POP SWAP2 SWAP1 POP JUMP JUMPDEST PUSH0 DUP2 SWAP1 POP DUP2 PUSH0 MSTORE PUSH1 0x20 PUSH0 KECCAK256 SWAP1 POP SWAP2 SWAP1 POP JUMP JUMPDEST PUSH0 PUSH1 0x20 PUSH1 0x1F DUP4 ADD DIV SWAP1 POP SWAP2 SWAP1 POP JUMP JUMPDEST PUSH0 DUP3 DUP3 SHL SWAP1 POP SWAP3 SWAP2 POP POP JUMP JUMPDEST PUSH0 PUSH1 0x8 DUP4 MUL PUSH2 0x1249 PUSH32 0xFFFFFFFFFFFFFFFFFFFFFFFFFFFFFFFFFFFFFFFFFFFFFFFFFFFFFFFFFFFFFFFF DUP3 PUSH2 0x120E JUMP JUMPDEST PUSH2 0x1253 DUP7 DUP4 PUSH2 0x120E JUMP JUMPDEST SWAP6 POP DUP1 NOT DUP5 AND SWAP4 POP DUP1 DUP7 AND DUP5 OR SWAP3 POP POP POP SWAP4 SWAP3 POP POP POP JUMP JUMPDEST PUSH0 DUP2 SWAP1 POP SWAP2 SWAP1 POP JUMP JUMPDEST PUSH0 PUSH2 0x128E PUSH2 0x1289 PUSH2 0x1284 DUP5 PUSH2 0xBAC JUMP JUMPDEST PUSH2 0x126B JUMP JUMPDEST PUSH2 0xBAC JUMP JUMPDEST SWAP1 POP SWAP2 SWAP1 POP JUMP JUMPDEST PUSH0 DUP2 SWAP1 POP SWAP2 SWAP1 POP JUMP JUMPDEST PUSH2 0x12A7 DUP4 PUSH2 0x1274 JUMP JUMPDEST PUSH2 0x12BB PUSH2 0x12B3 DUP3 PUSH2 0x1295 JUMP JUMPDEST DUP5 DUP5 SLOAD PUSH2 0x121A JUMP JUMPDEST DUP3 SSTORE POP POP POP POP JUMP JUMPDEST PUSH0 PUSH0 SWAP1 POP SWAP1 JUMP JUMPDEST PUSH2 0x12D2 PUSH2 0x12C3 JUMP JUMPDEST PUSH2 0x12DD DUP2 DUP5 DUP5 PUSH2 0x129E JUMP JUMPDEST POP POP POP JUMP JUMPDEST JUMPDEST DUP2 DUP2 LT ISZERO PUSH2 0x1300 JUMPI PUSH2 0x12F5 PUSH0 DUP3 PUSH2 0x12CA JUMP JUMPDEST PUSH1 0x1 DUP2 ADD SWAP1 POP PUSH2 0x12E3 JUMP JUMPDEST POP POP JUMP JUMPDEST PUSH1 0x1F DUP3 GT ISZERO PUSH2 0x1345 JUMPI PUSH2 0x1316 DUP2 PUSH2 0x11ED JUMP JUMPDEST PUSH2 0x131F DUP5 PUSH2 0x11FF JUMP JUMPDEST DUP2 ADD PUSH1 0x20 DUP6 LT ISZERO PUSH2 0x132E JUMPI DUP2 SWAP1 POP JUMPDEST PUSH2 0x1342 PUSH2 0x133A DUP6 PUSH2 0x11FF JUMP JUMPDEST DUP4 ADD DUP3 PUSH2 0x12E2 JUMP JUMPDEST POP POP JUMPDEST POP POP POP JUMP JUMPDEST PUSH0 DUP3 DUP3 SHR SWAP1 POP SWAP3 SWAP2 POP POP JUMP JUMPDEST PUSH0 PUSH2 0x1365 PUSH0 NOT DUP5 PUSH1 0x8 MUL PUSH2 0x134A JUMP JUMPDEST NOT DUP1 DUP4 AND SWAP2 POP POP SWAP3 SWAP2 POP POP JUMP JUMPDEST PUSH0 PUSH2 0x137D DUP4 DUP4 PUSH2 0x1356 JUMP JUMPDEST SWAP2 POP DUP3 PUSH1 0x2 MUL DUP3 OR SWAP1 POP SWAP3 SWAP2 POP POP JUMP JUMPDEST PUSH2 0x1396 DUP3 PUSH2 0xD61 JUMP JUMPDEST PUSH8 0xFFFFFFFFFFFFFFFF DUP2 GT ISZERO PUSH2 0x13AF JUMPI PUSH2 0x13AE PUSH2 0xE23 JUMP JUMPDEST JUMPDEST PUSH2 0x13B9 DUP3 SLOAD PUSH2 0x11BD JUMP JUMPDEST PUSH2 0x13C4 DUP3 DUP3 DUP6 PUSH2 0x1304 JUMP JUMPDEST PUSH0 PUSH1 0x20 SWAP1 POP PUSH1 0x1F DUP4 GT PUSH1 0x1 DUP2 EQ PUSH2 0x13F5 JUMPI PUSH0 DUP5 ISZERO PUSH2 0x13E3 JUMPI DUP3 DUP8 ADD MLOAD SWAP1 POP JUMPDEST PUSH2 0x13ED DUP6 DUP3 PUSH2 0x1372 JUMP JUMPDEST DUP7 SSTORE POP PUSH2 0x1454 JUMP JUMPDEST PUSH1 0x1F NOT DUP5 AND PUSH2 0x1403 DUP7 PUSH2 0x11ED JUMP JUMPDEST PUSH0 JUMPDEST DUP3 DUP2 LT ISZERO PUSH2 0x142A JUMPI DUP5 DUP10 ADD MLOAD DUP3 SSTORE PUSH1 0x1 DUP3 ADD SWAP2 POP PUSH1 0x20 DUP6 ADD SWAP5 POP PUSH1 0x20 DUP2 ADD SWAP1 POP PUSH2 0x1405 JUMP JUMPDEST DUP7 DUP4 LT ISZERO PUSH2 0x1447 JUMPI DUP5 DUP10 ADD MLOAD PUSH2 0x1443 PUSH1 0x1F DUP10 AND DUP3 PUSH2 0x1356 JUMP JUMPDEST DUP4 SSTORE POP JUMPDEST PUSH1 0x1 PUSH1 0x2 DUP9 MUL ADD DUP9 SSTORE POP POP POP JUMPDEST POP POP POP POP POP POP JUMP JUMPDEST PUSH32 0x4E487B7100000000000000000000000000000000000000000000000000000000 PUSH0 MSTORE PUSH1 0x11 PUSH1 0x4 MSTORE PUSH1 0x24 PUSH0 REVERT JUMPDEST PUSH0 PUSH2 0x1493 DUP3 PUSH2 0xBAC JUMP JUMPDEST SWAP2 POP PUSH32 0xFFFFFFFFFFFFFFFFFFFFFFFFFFFFFFFFFFFFFFFFFFFFFFFFFFFFFFFFFFFFFFFF DUP3 SUB PUSH2 0x14C5 JUMPI PUSH2 0x14C4 PUSH2 0x145C JUMP JUMPDEST JUMPDEST PUSH1 0x1 DUP3 ADD SWAP1 POP SWAP2 SWAP1 POP JUMP JUMPDEST PUSH32 0x496E73756666696369656E7420617070726F76616C7300000000000000000000 PUSH0 DUP3 ADD MSTORE POP JUMP JUMPDEST PUSH0 PUSH2 0x1504 PUSH1 0x16 DUP4 PUSH2 0xFB3 JUMP JUMPDEST SWAP2 POP PUSH2 0x150F DUP3 PUSH2 0x14D0 JUMP JUMPDEST PUSH1 0x20 DUP3 ADD SWAP1 POP SWAP2 SWAP1 POP JUMP JUMPDEST PUSH0 PUSH1 0x20 DUP3 ADD SWAP1 POP DUP2 DUP2 SUB PUSH0 DUP4 ADD MSTORE PUSH2 0x1531 DUP2 PUSH2 0x14F8 JUMP JUMPDEST SWAP1 POP SWAP2 SWAP1 POP JUMP JUMPDEST PUSH0 DUP2 SWAP1 POP SWAP3 SWAP2 POP POP JUMP JUMPDEST PUSH0 DUP2 SLOAD PUSH2 0x154E DUP2 PUSH2 0x11BD JUMP JUMPDEST PUSH2 0x1558 DUP2 DUP7 PUSH2 0x1538 JUMP JUMPDEST SWAP5 POP PUSH1 0x1 DUP3 AND PUSH0 DUP2 EQ PUSH2 0x1572 JUMPI PUSH1 0x1 DUP2 EQ PUSH2 0x1587 JUMPI PUSH2 0x15B9 JUMP JUMPDEST PUSH1 0xFF NOT DUP4 AND DUP7 MSTORE DUP2 ISZERO ISZERO DUP3 MUL DUP7 ADD SWAP4 POP PUSH2 0x15B9 JUMP JUMPDEST PUSH2 0x1590 DUP6 PUSH2 0x11ED JUMP JUMPDEST PUSH0 JUMPDEST DUP4 DUP2 LT ISZERO PUSH2 0x15B1 JUMPI DUP2 SLOAD DUP2 DUP10 ADD MSTORE PUSH1 0x1 DUP3 ADD SWAP2 POP PUSH1 0x20 DUP2 ADD SWAP1 POP PUSH2 0x1592 JUMP JUMPDEST DUP4 DUP9 ADD SWAP6 POP POP POP JUMPDEST POP POP POP SWAP3 SWAP2 POP POP JUMP JUMPDEST PUSH0 PUSH2 0x15CD DUP3 DUP5 PUSH2 0x1542 JUMP JUMPDEST SWAP2 POP DUP2 SWAP1 POP SWAP3 SWAP2 POP POP JUMP JUMPDEST PUSH32 0x5472616E73616374696F6E206661696C65640000000000000000000000000000 PUSH0 DUP3 ADD MSTORE POP JUMP JUMPDEST PUSH0 PUSH2 0x160C PUSH1 0x12 DUP4 PUSH2 0xFB3 JUMP JUMPDEST SWAP2 POP PUSH2 0x1617 DUP3 PUSH2 0x15D8 JUMP JUMPDEST PUSH1 0x20 DUP3 ADD SWAP1 POP SWAP2 SWAP1 POP JUMP JUMPDEST PUSH0 PUSH1 0x20 DUP3 ADD SWAP1 POP DUP2 DUP2 SUB PUSH0 DUP4 ADD MSTORE PUSH2 0x1639 DUP2 PUSH2 0x1600 JUMP JUMPDEST SWAP1 POP SWAP2 SWAP1 POP JUMP INVALID LOG2 PUSH5 0x6970667358 0x22 SLT KECCAK256 EOFCREATE 0x11 0x4B 0xD4 JUMPI ADD DUP2 CREATE 0xBB PUSH15 0x795165DEF44F0ADA18B39ADDDD715B JUMPDEST 0xC5 0xDB 0x2D 0xF7 SWAP11 DATALOADN 0x6473 PUSH16 0x6C634300081F00330000000000000000 "
				},
				"gasEstimates": {
					"creation": {
						"codeDepositCost": "1150000",
						"executionCost": "infinite",
						"totalCost": "infinite"
					},
					"external": {
						"approveTransaction(uint256)": "37444",
						"approved(uint256,address)": "3137",
						"executeTransaction(uint256)": "infinite",
						"isOwner(address)": "2878",
						"owners(uint256)": "4944",
						"requiredApprovals()": "2425",
						"submitTransaction(address,uint256,bytes)": "infinite",
						"transactions(uint256)": "infinite"
					}
				},
				"methodIdentifiers": {
					"approveTransaction(uint256)": "242232d1",
					"approved(uint256,address)": "8253951a",
					"executeTransaction(uint256)": "ee22610b",
					"isOwner(address)": "2f54bf6e",
					"owners(uint256)": "025e7c27",
					"requiredApprovals()": "99c1aadc",
					"submitTransaction(address,uint256,bytes)": "c6427474",
					"transactions(uint256)": "9ace38c2"
				}
			},
			"storageLayout": {
				"storage": [
					{
						"astId": 39,
						"contract": "contracts/lesson3.3/MultiSigWallet.sol:MultiSigWallet",
						"label": "owners",
						"offset": 0,
						"slot": "0",
						"type": "t_array(t_address)dyn_storage"
					},
					{
						"astId": 43,
						"contract": "contracts/lesson3.3/MultiSigWallet.sol:MultiSigWallet",
						"label": "isOwner",
						"offset": 0,
						"slot": "1",
						"type": "t_mapping(t_address,t_bool)"
					},
					{
						"astId": 45,
						"contract": "contracts/lesson3.3/MultiSigWallet.sol:MultiSigWallet",
						"label": "requiredApprovals",
						"offset": 0,
						"slot": "2",
						"type": "t_uint256"
					},
					{
						"astId": 49,
						"contract": "contracts/lesson3.3/MultiSigWallet.sol:MultiSigWallet",
						"label": "transactions",
						"offset": 0,
						"slot": "3",
						"type": "t_array(t_struct(Transaction)36_storage)dyn_storage"
					},
					{
						"astId": 55,
						"contract": "contracts/lesson3.3/MultiSigWallet.sol:MultiSigWallet",
						"label": "approved",
						"offset": 0,
						"slot": "4",
						"type": "t_mapping(t_uint256,t_mapping(t_address,t_bool))"
					}
				],
				"types": {
					"t_address": {
						"encoding": "inplace",
						"label": "address",
						"numberOfBytes": "20"
					},
					"t_array(t_address)dyn_storage": {
						"base": "t_address",
						"encoding": "dynamic_array",
						"label": "address[]",
						"numberOfBytes": "32"
					},
					"t_array(t_struct(Transaction)36_storage)dyn_storage": {
						"base": "t_struct(Transaction)36_storage",
						"encoding": "dynamic_array",
						"label": "struct MultiSigWallet.Transaction[]",
						"numberOfBytes": "32"
					},
					"t_bool": {
						"encoding": "inplace",
						"label": "bool",
						"numberOfBytes": "1"
					},
					"t_bytes_storage": {
						"encoding": "bytes",
						"label": "bytes",
						"numberOfBytes": "32"
					},
					"t_mapping(t_address,t_bool)": {
						"encoding": "mapping",
						"key": "t_address",
						"label": "mapping(address => bool)",
						"numberOfBytes": "32",
						"value": "t_bool"
					},
					"t_mapping(t_uint256,t_mapping(t_address,t_bool))": {
						"encoding": "mapping",
						"key": "t_uint256",
						"label": "mapping(uint256 => mapping(address => bool))",
						"numberOfBytes": "32",
						"value": "t_mapping(t_address,t_bool)"
					},
					"t_struct(Transaction)36_storage": {
						"encoding": "inplace",
						"label": "struct MultiSigWallet.Transaction",
						"members": [
							{
								"astId": 29,
								"contract": "contracts/lesson3.3/MultiSigWallet.sol:MultiSigWallet",
								"label": "to",
								"offset": 0,
								"slot": "0",
								"type": "t_address"
							},
							{
								"astId": 31,
								"contract": "contracts/lesson3.3/MultiSigWallet.sol:MultiSigWallet",
								"label": "value",
								"offset": 0,
								"slot": "1",
								"type": "t_uint256"
							},
							{
								"astId": 33,
								"contract": "contracts/lesson3.3/MultiSigWallet.sol:MultiSigWallet",
								"label": "data",
								"offset": 0,
								"slot": "2",
								"type": "t_bytes_storage"
							},
							{
								"astId": 35,
								"contract": "contracts/lesson3.3/MultiSigWallet.sol:MultiSigWallet",
								"label": "executed",
								"offset": 0,
								"slot": "3",
								"type": "t_bool"
							}
						],
						"numberOfBytes": "128"
					},
					"t_uint256": {
						"encoding": "inplace",
						"label": "uint256",
						"numberOfBytes": "32"
					}
				}
			},
			"userdoc": {
				"kind": "user",
				"methods": {},
				"version": 1
			}
		}
	}
}