{
	"contracts/lesson3.3/RoleManagement.sol": {
		"RoleManagement": {
			"abi": [
				{
					"inputs": [],
					"stateMutability": "nonpayable",
					"type": "constructor"
				},
				{
					"anonymous": false,
					"inputs": [
						{
							"indexed": true,
							"internalType": "address",
							"name": "user",
							"type": "address"
						},
						{
							"indexed": false,
							"internalType": "enum RoleManagement.Role",
							"name": "role",
							"type": "uint8"
						}
					],
					"name": "RoleAssigned",
					"type": "event"
				},
				{
					"anonymous": false,
					"inputs": [
						{
							"indexed": true,
							"internalType": "address",
							"name": "user",
							"type": "address"
						}
					],
					"name": "RoleRevoked",
					"type": "event"
				},
				{
					"inputs": [
						{
							"internalType": "address",
							"name": "user",
							"type": "address"
						}
					],
					"name": "addAdmin",
					"outputs": [],
					"stateMutability": "nonpayable",
					"type": "function"
				},
				{
					"inputs": [
						{
							"internalType": "address",
							"name": "user",
							"type": "address"
						}
					],
					"name": "addUser",
					"outputs": [],
					"stateMutability": "nonpayable",
					"type": "function"
				},
				{
					"inputs": [
						{
							"internalType": "address",
							"name": "user",
							"type": "address"
						}
					],
					"name": "getRole",
					"outputs": [
						{
							"internalType": "enum RoleManagement.Role",
							"name": "",
							"type": "uint8"
						}
					],
					"stateMutability": "view",
					"type": "function"
				},
				{
					"inputs": [
						{
							"internalType": "address",
							"name": "user",
							"type": "address"
						},
						{
							"internalType": "enum RoleManagement.Role",
							"name": "role",
							"type": "uint8"
						}
					],
					"name": "hasRole",
					"outputs": [
						{
							"internalType": "bool",
							"name": "",
							"type": "bool"
						}
					],
					"stateMutability": "view",
					"type": "function"
				},
				{
					"inputs": [],
					"name": "owner",
					"outputs": [
						{
							"internalType": "address",
							"name": "",
							"type": "address"
						}
					],
					"stateMutability": "view",
					"type": "function"
				},
				{
					"inputs": [
						{
							"internalType": "address",
							"name": "user",
							"type": "address"
						}
					],
					"name": "revokeRole",
					"outputs": [],
					"stateMutability": "nonpayable",
					"type": "function"
				},
				{
					"inputs": [
						{
							"internalType": "address",
							"name": "",
							"type": "address"
						}
					],
					"name": "roles",
					"outputs": [
						{
							"internalType": "enum RoleManagement.Role",
							"name": "",
							"type": "uint8"
						}
					],
					"stateMutability": "view",
					"type": "function"
				}
			],
			"devdoc": {
				"kind": "dev",
				"methods": {},
				"version": 1
			},
			"evm": {
				"assembly": "    /* \"contracts/lesson3.3/RoleManagement.sol\":57:2120  contract RoleManagement {... */\n  mstore(0x40, 0x80)\n    /* \"contracts/lesson3.3/RoleManagement.sol\":405:546  constructor() {... */\n  callvalue\n  dup1\n  iszero\n  tag_1\n  jumpi\n  revert(0x00, 0x00)\ntag_1:\n  pop\n    /* \"contracts/lesson3.3/RoleManagement.sol\":437:447  msg.sender */\n  caller\n    /* \"contracts/lesson3.3/RoleManagement.sol\":429:434  owner */\n  0x01\n  0x00\n    /* \"contracts/lesson3.3/RoleManagement.sol\":429:447  owner = msg.sender */\n  0x0100\n  exp\n  dup2\n  sload\n  dup2\n  0xffffffffffffffffffffffffffffffffffffffff\n  mul\n  not\n  and\n  swap1\n  dup4\n  0xffffffffffffffffffffffffffffffffffffffff\n  and\n  mul\n  or\n  swap1\n  sstore\n  pop\n    /* \"contracts/lesson3.3/RoleManagement.sol\":477:487  Role.Owner */\n  0x03\n    /* \"contracts/lesson3.3/RoleManagement.sol\":457:462  roles */\n  0x00\n    /* \"contracts/lesson3.3/RoleManagement.sol\":457:474  roles[msg.sender] */\n  0x00\n    /* \"contracts/lesson3.3/RoleManagement.sol\":463:473  msg.sender */\n  caller\n    /* \"contracts/lesson3.3/RoleManagement.sol\":457:474  roles[msg.sender] */\n  0xffffffffffffffffffffffffffffffffffffffff\n  and\n  0xffffffffffffffffffffffffffffffffffffffff\n  and\n  dup2\n  mstore\n  0x20\n  add\n  swap1\n  dup2\n  mstore\n  0x20\n  add\n  0x00\n  keccak256\n  0x00\n    /* \"contracts/lesson3.3/RoleManagement.sol\":457:487  roles[msg.sender] = Role.Owner */\n  0x0100\n  exp\n  dup2\n  sload\n  dup2\n  0xff\n  mul\n  not\n  and\n  swap1\n  dup4\n  0x03\n  dup2\n  gt\n  iszero\n  tag_4\n  jumpi\n  tag_5\n  tag_6\n  jump\t// in\ntag_5:\ntag_4:\n  mul\n  or\n  swap1\n  sstore\n  pop\n    /* \"contracts/lesson3.3/RoleManagement.sol\":516:526  msg.sender */\n  caller\n    /* \"contracts/lesson3.3/RoleManagement.sol\":503:539  RoleAssigned(msg.sender, Role.Owner) */\n  0xffffffffffffffffffffffffffffffffffffffff\n  and\n  0x4ac36fa53f167ceb85964be512e01de2a3b8bdb9862f917da079deeeff689b38\n    /* \"contracts/lesson3.3/RoleManagement.sol\":528:538  Role.Owner */\n  0x03\n    /* \"contracts/lesson3.3/RoleManagement.sol\":503:539  RoleAssigned(msg.sender, Role.Owner) */\n  mload(0x40)\n  tag_7\n  swap2\n  swap1\n  tag_8\n  jump\t// in\ntag_7:\n  mload(0x40)\n  dup1\n  swap2\n  sub\n  swap1\n  log2\n    /* \"contracts/lesson3.3/RoleManagement.sol\":57:2120  contract RoleManagement {... */\n  jump(tag_9)\n    /* \"#utility.yul\":7:187   */\ntag_6:\n    /* \"#utility.yul\":55:132   */\n  0x4e487b7100000000000000000000000000000000000000000000000000000000\n    /* \"#utility.yul\":52:53   */\n  0x00\n    /* \"#utility.yul\":45:133   */\n  mstore\n    /* \"#utility.yul\":152:156   */\n  0x21\n    /* \"#utility.yul\":149:150   */\n  0x04\n    /* \"#utility.yul\":142:157   */\n  mstore\n    /* \"#utility.yul\":176:180   */\n  0x24\n    /* \"#utility.yul\":173:174   */\n  0x00\n    /* \"#utility.yul\":166:181   */\n  revert\n    /* \"#utility.yul\":193:304   */\ntag_10:\n    /* \"#utility.yul\":272:273   */\n  0x04\n    /* \"#utility.yul\":265:270   */\n  dup2\n    /* \"#utility.yul\":262:274   */\n  lt\n    /* \"#utility.yul\":252:298   */\n  tag_17\n  jumpi\n    /* \"#utility.yul\":278:296   */\n  tag_18\n  tag_6\n  jump\t// in\ntag_18:\n    /* \"#utility.yul\":252:298   */\ntag_17:\n    /* \"#utility.yul\":193:304   */\n  pop\n  jump\t// out\n    /* \"#utility.yul\":310:433   */\ntag_11:\n    /* \"#utility.yul\":353:360   */\n  0x00\n    /* \"#utility.yul\":382:387   */\n  dup2\n    /* \"#utility.yul\":371:387   */\n  swap1\n  pop\n    /* \"#utility.yul\":388:427   */\n  tag_20\n    /* \"#utility.yul\":421:426   */\n  dup3\n    /* \"#utility.yul\":388:427   */\n  tag_10\n  jump\t// in\ntag_20:\n    /* \"#utility.yul\":310:433   */\n  swap2\n  swap1\n  pop\n  jump\t// out\n    /* \"#utility.yul\":439:562   */\ntag_12:\n    /* \"#utility.yul\":493:502   */\n  0x00\n    /* \"#utility.yul\":526:556   */\n  tag_22\n    /* \"#utility.yul\":550:555   */\n  dup3\n    /* \"#utility.yul\":526:556   */\n  tag_11\n  jump\t// in\ntag_22:\n    /* \"#utility.yul\":513:556   */\n  swap1\n  pop\n    /* \"#utility.yul\":439:562   */\n  swap2\n  swap1\n  pop\n  jump\t// out\n    /* \"#utility.yul\":568:707   */\ntag_13:\n    /* \"#utility.yul\":659:700   */\n  tag_24\n    /* \"#utility.yul\":694:699   */\n  dup2\n    /* \"#utility.yul\":659:700   */\n  tag_12\n  jump\t// in\ntag_24:\n    /* \"#utility.yul\":654:657   */\n  dup3\n    /* \"#utility.yul\":647:701   */\n  mstore\n    /* \"#utility.yul\":568:707   */\n  pop\n  pop\n  jump\t// out\n    /* \"#utility.yul\":713:943   */\ntag_8:\n    /* \"#utility.yul\":810:814   */\n  0x00\n    /* \"#utility.yul\":848:850   */\n  0x20\n    /* \"#utility.yul\":837:846   */\n  dup3\n    /* \"#utility.yul\":833:851   */\n  add\n    /* \"#utility.yul\":825:851   */\n  swap1\n  pop\n    /* \"#utility.yul\":861:936   */\n  tag_26\n    /* \"#utility.yul\":933:934   */\n  0x00\n    /* \"#utility.yul\":922:931   */\n  dup4\n    /* \"#utility.yul\":918:935   */\n  add\n    /* \"#utility.yul\":909:915   */\n  dup5\n    /* \"#utility.yul\":861:936   */\n  tag_13\n  jump\t// in\ntag_26:\n    /* \"#utility.yul\":713:943   */\n  swap3\n  swap2\n  pop\n  pop\n  jump\t// out\n    /* \"contracts/lesson3.3/RoleManagement.sol\":57:2120  contract RoleManagement {... */\ntag_9:\n  dataSize(sub_0)\n  dup1\n  dataOffset(sub_0)\n  0x00\n  codecopy\n  0x00\n  return\nstop\n\nsub_0: assembly {\n        /* \"contracts/lesson3.3/RoleManagement.sol\":57:2120  contract RoleManagement {... */\n      mstore(0x40, 0x80)\n      callvalue\n      dup1\n      iszero\n      tag_1\n      jumpi\n      revert(0x00, 0x00)\n    tag_1:\n      pop\n      jumpi(tag_2, lt(calldatasize, 0x04))\n      shr(0xe0, calldataload(0x00))\n      dup1\n      0x80e52e3f\n      gt\n      tag_10\n      jumpi\n      dup1\n      0x80e52e3f\n      eq\n      tag_6\n      jumpi\n      dup1\n      0x8da5cb5b\n      eq\n      tag_7\n      jumpi\n      dup1\n      0x95a8c58d\n      eq\n      tag_8\n      jumpi\n      dup1\n      0x99374642\n      eq\n      tag_9\n      jumpi\n      jump(tag_2)\n    tag_10:\n      dup1\n      0x421b2d8b\n      eq\n      tag_3\n      jumpi\n      dup1\n      0x44276733\n      eq\n      tag_4\n      jumpi\n      dup1\n      0x70480275\n      eq\n      tag_5\n      jumpi\n    tag_2:\n      revert(0x00, 0x00)\n        /* \"contracts/lesson3.3/RoleManagement.sol\":1408:1693  function addUser(address user) public onlyAdmin {... */\n    tag_3:\n      tag_11\n      0x04\n      dup1\n      calldatasize\n      sub\n      dup2\n      add\n      swap1\n      tag_12\n      swap2\n      swap1\n      tag_13\n      jump\t// in\n    tag_12:\n      tag_14\n      jump\t// in\n    tag_11:\n      stop\n        /* \"contracts/lesson3.3/RoleManagement.sol\":1699:1816  function getRole(address user) public view returns (Role) {... */\n    tag_4:\n      tag_15\n      0x04\n      dup1\n      calldatasize\n      sub\n      dup2\n      add\n      swap1\n      tag_16\n      swap2\n      swap1\n      tag_13\n      jump\t// in\n    tag_16:\n      tag_17\n      jump\t// in\n    tag_15:\n      mload(0x40)\n      tag_18\n      swap2\n      swap1\n      tag_19\n      jump\t// in\n    tag_18:\n      mload(0x40)\n      dup1\n      swap2\n      sub\n      swap1\n      return\n        /* \"contracts/lesson3.3/RoleManagement.sol\":1111:1402  function addAdmin(address user) public onlyOwner {... */\n    tag_5:\n      tag_20\n      0x04\n      dup1\n      calldatasize\n      sub\n      dup2\n      add\n      swap1\n      tag_21\n      swap2\n      swap1\n      tag_13\n      jump\t// in\n    tag_21:\n      tag_22\n      jump\t// in\n    tag_20:\n      stop\n        /* \"contracts/lesson3.3/RoleManagement.sol\":1822:2000  function revokeRole(address user) public onlyOwner {... */\n    tag_6:\n      tag_23\n      0x04\n      dup1\n      calldatasize\n      sub\n      dup2\n      add\n      swap1\n      tag_24\n      swap2\n      swap1\n      tag_13\n      jump\t// in\n    tag_24:\n      tag_25\n      jump\t// in\n    tag_23:\n      stop\n        /* \"contracts/lesson3.3/RoleManagement.sol\":275:295  address public owner */\n    tag_7:\n      tag_26\n      tag_27\n      jump\t// in\n    tag_26:\n      mload(0x40)\n      tag_28\n      swap2\n      swap1\n      tag_29\n      jump\t// in\n    tag_28:\n      mload(0x40)\n      dup1\n      swap2\n      sub\n      swap1\n      return\n        /* \"contracts/lesson3.3/RoleManagement.sol\":2006:2118  function hasRole(address user, Role role) public view returns (bool) {... */\n    tag_8:\n      tag_30\n      0x04\n      dup1\n      calldatasize\n      sub\n      dup2\n      add\n      swap1\n      tag_31\n      swap2\n      swap1\n      tag_32\n      jump\t// in\n    tag_31:\n      tag_33\n      jump\t// in\n    tag_30:\n      mload(0x40)\n      tag_34\n      swap2\n      swap1\n      tag_35\n      jump\t// in\n    tag_34:\n      mload(0x40)\n      dup1\n      swap2\n      sub\n      swap1\n      return\n        /* \"contracts/lesson3.3/RoleManagement.sol\":231:268  mapping(address => Role) public roles */\n    tag_9:\n      tag_36\n      0x04\n      dup1\n      calldatasize\n      sub\n      dup2\n      add\n      swap1\n      tag_37\n      swap2\n      swap1\n      tag_13\n      jump\t// in\n    tag_37:\n      tag_38\n      jump\t// in\n    tag_36:\n      mload(0x40)\n      tag_39\n      swap2\n      swap1\n      tag_19\n      jump\t// in\n    tag_39:\n      mload(0x40)\n      dup1\n      swap2\n      sub\n      swap1\n      return\n        /* \"contracts/lesson3.3/RoleManagement.sol\":1408:1693  function addUser(address user) public onlyAdmin {... */\n    tag_14:\n        /* \"contracts/lesson3.3/RoleManagement.sol\":843:853  Role.Admin */\n      0x02\n        /* \"contracts/lesson3.3/RoleManagement.sol\":822:853  roles[msg.sender] == Role.Admin */\n      0x03\n      dup2\n      gt\n      iszero\n      tag_41\n      jumpi\n      tag_42\n      tag_43\n      jump\t// in\n    tag_42:\n    tag_41:\n        /* \"contracts/lesson3.3/RoleManagement.sol\":822:827  roles */\n      0x00\n        /* \"contracts/lesson3.3/RoleManagement.sol\":822:839  roles[msg.sender] */\n      0x00\n        /* \"contracts/lesson3.3/RoleManagement.sol\":828:838  msg.sender */\n      caller\n        /* \"contracts/lesson3.3/RoleManagement.sol\":822:839  roles[msg.sender] */\n      0xffffffffffffffffffffffffffffffffffffffff\n      and\n      0xffffffffffffffffffffffffffffffffffffffff\n      and\n      dup2\n      mstore\n      0x20\n      add\n      swap1\n      dup2\n      mstore\n      0x20\n      add\n      0x00\n      keccak256\n      0x00\n      swap1\n      sload\n      swap1\n      0x0100\n      exp\n      swap1\n      div\n      0xff\n      and\n        /* \"contracts/lesson3.3/RoleManagement.sol\":822:853  roles[msg.sender] == Role.Admin */\n      0x03\n      dup2\n      gt\n      iszero\n      tag_44\n      jumpi\n      tag_45\n      tag_43\n      jump\t// in\n    tag_45:\n    tag_44:\n      eq\n        /* \"contracts/lesson3.3/RoleManagement.sol\":822:888  roles[msg.sender] == Role.Admin || roles[msg.sender] == Role.Owner */\n      dup1\n      tag_46\n      jumpi\n      pop\n        /* \"contracts/lesson3.3/RoleManagement.sol\":878:888  Role.Owner */\n      0x03\n        /* \"contracts/lesson3.3/RoleManagement.sol\":857:888  roles[msg.sender] == Role.Owner */\n      dup1\n      dup2\n      gt\n      iszero\n      tag_47\n      jumpi\n      tag_48\n      tag_43\n      jump\t// in\n    tag_48:\n    tag_47:\n        /* \"contracts/lesson3.3/RoleManagement.sol\":857:862  roles */\n      0x00\n        /* \"contracts/lesson3.3/RoleManagement.sol\":857:874  roles[msg.sender] */\n      0x00\n        /* \"contracts/lesson3.3/RoleManagement.sol\":863:873  msg.sender */\n      caller\n        /* \"contracts/lesson3.3/RoleManagement.sol\":857:874  roles[msg.sender] */\n      0xffffffffffffffffffffffffffffffffffffffff\n      and\n      0xffffffffffffffffffffffffffffffffffffffff\n      and\n      dup2\n      mstore\n      0x20\n      add\n      swap1\n      dup2\n      mstore\n      0x20\n      add\n      0x00\n      keccak256\n      0x00\n      swap1\n      sload\n      swap1\n      0x0100\n      exp\n      swap1\n      div\n      0xff\n      and\n        /* \"contracts/lesson3.3/RoleManagement.sol\":857:888  roles[msg.sender] == Role.Owner */\n      0x03\n      dup2\n      gt\n      iszero\n      tag_49\n      jumpi\n      tag_50\n      tag_43\n      jump\t// in\n    tag_50:\n    tag_49:\n      eq\n        /* \"contracts/lesson3.3/RoleManagement.sol\":822:888  roles[msg.sender] == Role.Admin || roles[msg.sender] == Role.Owner */\n    tag_46:\n        /* \"contracts/lesson3.3/RoleManagement.sol\":801:942  require(... */\n      tag_51\n      jumpi\n      mload(0x40)\n      0x08c379a000000000000000000000000000000000000000000000000000000000\n      dup2\n      mstore\n      0x04\n      add\n      tag_52\n      swap1\n      tag_53\n      jump\t// in\n    tag_52:\n      mload(0x40)\n      dup1\n      swap2\n      sub\n      swap1\n      revert\n    tag_51:\n        /* \"contracts/lesson3.3/RoleManagement.sol\":1490:1491  0 */\n      0x00\n        /* \"contracts/lesson3.3/RoleManagement.sol\":1474:1492  user != address(0) */\n      0xffffffffffffffffffffffffffffffffffffffff\n      and\n        /* \"contracts/lesson3.3/RoleManagement.sol\":1474:1478  user */\n      dup2\n        /* \"contracts/lesson3.3/RoleManagement.sol\":1474:1492  user != address(0) */\n      0xffffffffffffffffffffffffffffffffffffffff\n      and\n      sub\n        /* \"contracts/lesson3.3/RoleManagement.sol\":1466:1512  require(user != address(0), \"Invalid address\") */\n      tag_55\n      jumpi\n      mload(0x40)\n      0x08c379a000000000000000000000000000000000000000000000000000000000\n      dup2\n      mstore\n      0x04\n      add\n      tag_56\n      swap1\n      tag_57\n      jump\t// in\n    tag_56:\n      mload(0x40)\n      dup1\n      swap2\n      sub\n      swap1\n      revert\n    tag_55:\n        /* \"contracts/lesson3.3/RoleManagement.sol\":1545:1554  Role.None */\n      0x00\n        /* \"contracts/lesson3.3/RoleManagement.sol\":1530:1554  roles[user] == Role.None */\n      0x03\n      dup2\n      gt\n      iszero\n      tag_58\n      jumpi\n      tag_59\n      tag_43\n      jump\t// in\n    tag_59:\n    tag_58:\n        /* \"contracts/lesson3.3/RoleManagement.sol\":1530:1535  roles */\n      0x00\n        /* \"contracts/lesson3.3/RoleManagement.sol\":1530:1541  roles[user] */\n      0x00\n        /* \"contracts/lesson3.3/RoleManagement.sol\":1536:1540  user */\n      dup4\n        /* \"contracts/lesson3.3/RoleManagement.sol\":1530:1541  roles[user] */\n      0xffffffffffffffffffffffffffffffffffffffff\n      and\n      0xffffffffffffffffffffffffffffffffffffffff\n      and\n      dup2\n      mstore\n      0x20\n      add\n      swap1\n      dup2\n      mstore\n      0x20\n      add\n      0x00\n      keccak256\n      0x00\n      swap1\n      sload\n      swap1\n      0x0100\n      exp\n      swap1\n      div\n      0xff\n      and\n        /* \"contracts/lesson3.3/RoleManagement.sol\":1530:1554  roles[user] == Role.None */\n      0x03\n      dup2\n      gt\n      iszero\n      tag_60\n      jumpi\n      tag_61\n      tag_43\n      jump\t// in\n    tag_61:\n    tag_60:\n      eq\n        /* \"contracts/lesson3.3/RoleManagement.sol\":1522:1582  require(roles[user] == Role.None, \"User already has a role\") */\n      tag_62\n      jumpi\n      mload(0x40)\n      0x08c379a000000000000000000000000000000000000000000000000000000000\n      dup2\n      mstore\n      0x04\n      add\n      tag_63\n      swap1\n      tag_64\n      jump\t// in\n    tag_63:\n      mload(0x40)\n      dup1\n      swap2\n      sub\n      swap1\n      revert\n    tag_62:\n        /* \"contracts/lesson3.3/RoleManagement.sol\":1633:1642  Role.User */\n      0x01\n        /* \"contracts/lesson3.3/RoleManagement.sol\":1619:1624  roles */\n      0x00\n        /* \"contracts/lesson3.3/RoleManagement.sol\":1619:1630  roles[user] */\n      0x00\n        /* \"contracts/lesson3.3/RoleManagement.sol\":1625:1629  user */\n      dup4\n        /* \"contracts/lesson3.3/RoleManagement.sol\":1619:1630  roles[user] */\n      0xffffffffffffffffffffffffffffffffffffffff\n      and\n      0xffffffffffffffffffffffffffffffffffffffff\n      and\n      dup2\n      mstore\n      0x20\n      add\n      swap1\n      dup2\n      mstore\n      0x20\n      add\n      0x00\n      keccak256\n      0x00\n        /* \"contracts/lesson3.3/RoleManagement.sol\":1619:1642  roles[user] = Role.User */\n      0x0100\n      exp\n      dup2\n      sload\n      dup2\n      0xff\n      mul\n      not\n      and\n      swap1\n      dup4\n      0x03\n      dup2\n      gt\n      iszero\n      tag_65\n      jumpi\n      tag_66\n      tag_43\n      jump\t// in\n    tag_66:\n    tag_65:\n      mul\n      or\n      swap1\n      sstore\n      pop\n        /* \"contracts/lesson3.3/RoleManagement.sol\":1670:1674  user */\n      dup1\n        /* \"contracts/lesson3.3/RoleManagement.sol\":1657:1686  RoleAssigned(user, Role.User) */\n      0xffffffffffffffffffffffffffffffffffffffff\n      and\n      0x4ac36fa53f167ceb85964be512e01de2a3b8bdb9862f917da079deeeff689b38\n        /* \"contracts/lesson3.3/RoleManagement.sol\":1676:1685  Role.User */\n      0x01\n        /* \"contracts/lesson3.3/RoleManagement.sol\":1657:1686  RoleAssigned(user, Role.User) */\n      mload(0x40)\n      tag_67\n      swap2\n      swap1\n      tag_19\n      jump\t// in\n    tag_67:\n      mload(0x40)\n      dup1\n      swap2\n      sub\n      swap1\n      log2\n        /* \"contracts/lesson3.3/RoleManagement.sol\":1408:1693  function addUser(address user) public onlyAdmin {... */\n      pop\n      jump\t// out\n        /* \"contracts/lesson3.3/RoleManagement.sol\":1699:1816  function getRole(address user) public view returns (Role) {... */\n    tag_17:\n        /* \"contracts/lesson3.3/RoleManagement.sol\":1751:1755  Role */\n      0x00\n        /* \"contracts/lesson3.3/RoleManagement.sol\":1798:1803  roles */\n      0x00\n        /* \"contracts/lesson3.3/RoleManagement.sol\":1798:1809  roles[user] */\n      0x00\n        /* \"contracts/lesson3.3/RoleManagement.sol\":1804:1808  user */\n      dup4\n        /* \"contracts/lesson3.3/RoleManagement.sol\":1798:1809  roles[user] */\n      0xffffffffffffffffffffffffffffffffffffffff\n      and\n      0xffffffffffffffffffffffffffffffffffffffff\n      and\n      dup2\n      mstore\n      0x20\n      add\n      swap1\n      dup2\n      mstore\n      0x20\n      add\n      0x00\n      keccak256\n      0x00\n      swap1\n      sload\n      swap1\n      0x0100\n      exp\n      swap1\n      div\n      0xff\n      and\n        /* \"contracts/lesson3.3/RoleManagement.sol\":1791:1809  return roles[user] */\n      swap1\n      pop\n        /* \"contracts/lesson3.3/RoleManagement.sol\":1699:1816  function getRole(address user) public view returns (Role) {... */\n      swap2\n      swap1\n      pop\n      jump\t// out\n        /* \"contracts/lesson3.3/RoleManagement.sol\":1111:1402  function addAdmin(address user) public onlyOwner {... */\n    tag_22:\n        /* \"contracts/lesson3.3/RoleManagement.sol\":672:682  Role.Owner */\n      0x03\n        /* \"contracts/lesson3.3/RoleManagement.sol\":651:682  roles[msg.sender] == Role.Owner */\n      dup1\n      dup2\n      gt\n      iszero\n      tag_70\n      jumpi\n      tag_71\n      tag_43\n      jump\t// in\n    tag_71:\n    tag_70:\n        /* \"contracts/lesson3.3/RoleManagement.sol\":651:656  roles */\n      0x00\n        /* \"contracts/lesson3.3/RoleManagement.sol\":651:668  roles[msg.sender] */\n      0x00\n        /* \"contracts/lesson3.3/RoleManagement.sol\":657:667  msg.sender */\n      caller\n        /* \"contracts/lesson3.3/RoleManagement.sol\":651:668  roles[msg.sender] */\n      0xffffffffffffffffffffffffffffffffffffffff\n      and\n      0xffffffffffffffffffffffffffffffffffffffff\n      and\n      dup2\n      mstore\n      0x20\n      add\n      swap1\n      dup2\n      mstore\n      0x20\n      add\n      0x00\n      keccak256\n      0x00\n      swap1\n      sload\n      swap1\n      0x0100\n      exp\n      swap1\n      div\n      0xff\n      and\n        /* \"contracts/lesson3.3/RoleManagement.sol\":651:682  roles[msg.sender] == Role.Owner */\n      0x03\n      dup2\n      gt\n      iszero\n      tag_72\n      jumpi\n      tag_73\n      tag_43\n      jump\t// in\n    tag_73:\n    tag_72:\n      eq\n        /* \"contracts/lesson3.3/RoleManagement.sol\":643:706  require(roles[msg.sender] == Role.Owner, \"Only owner can call\") */\n      tag_74\n      jumpi\n      mload(0x40)\n      0x08c379a000000000000000000000000000000000000000000000000000000000\n      dup2\n      mstore\n      0x04\n      add\n      tag_75\n      swap1\n      tag_76\n      jump\t// in\n    tag_75:\n      mload(0x40)\n      dup1\n      swap2\n      sub\n      swap1\n      revert\n    tag_74:\n        /* \"contracts/lesson3.3/RoleManagement.sol\":1194:1195  0 */\n      0x00\n        /* \"contracts/lesson3.3/RoleManagement.sol\":1178:1196  user != address(0) */\n      0xffffffffffffffffffffffffffffffffffffffff\n      and\n        /* \"contracts/lesson3.3/RoleManagement.sol\":1178:1182  user */\n      dup2\n        /* \"contracts/lesson3.3/RoleManagement.sol\":1178:1196  user != address(0) */\n      0xffffffffffffffffffffffffffffffffffffffff\n      and\n      sub\n        /* \"contracts/lesson3.3/RoleManagement.sol\":1170:1216  require(user != address(0), \"Invalid address\") */\n      tag_78\n      jumpi\n      mload(0x40)\n      0x08c379a000000000000000000000000000000000000000000000000000000000\n      dup2\n      mstore\n      0x04\n      add\n      tag_79\n      swap1\n      tag_57\n      jump\t// in\n    tag_79:\n      mload(0x40)\n      dup1\n      swap2\n      sub\n      swap1\n      revert\n    tag_78:\n        /* \"contracts/lesson3.3/RoleManagement.sol\":1249:1259  Role.Owner */\n      0x03\n        /* \"contracts/lesson3.3/RoleManagement.sol\":1234:1259  roles[user] != Role.Owner */\n      dup1\n      dup2\n      gt\n      iszero\n      tag_80\n      jumpi\n      tag_81\n      tag_43\n      jump\t// in\n    tag_81:\n    tag_80:\n        /* \"contracts/lesson3.3/RoleManagement.sol\":1234:1239  roles */\n      0x00\n        /* \"contracts/lesson3.3/RoleManagement.sol\":1234:1245  roles[user] */\n      0x00\n        /* \"contracts/lesson3.3/RoleManagement.sol\":1240:1244  user */\n      dup4\n        /* \"contracts/lesson3.3/RoleManagement.sol\":1234:1245  roles[user] */\n      0xffffffffffffffffffffffffffffffffffffffff\n      and\n      0xffffffffffffffffffffffffffffffffffffffff\n      and\n      dup2\n      mstore\n      0x20\n      add\n      swap1\n      dup2\n      mstore\n      0x20\n      add\n      0x00\n      keccak256\n      0x00\n      swap1\n      sload\n      swap1\n      0x0100\n      exp\n      swap1\n      div\n      0xff\n      and\n        /* \"contracts/lesson3.3/RoleManagement.sol\":1234:1259  roles[user] != Role.Owner */\n      0x03\n      dup2\n      gt\n      iszero\n      tag_82\n      jumpi\n      tag_83\n      tag_43\n      jump\t// in\n    tag_83:\n    tag_82:\n      sub\n        /* \"contracts/lesson3.3/RoleManagement.sol\":1226:1288  require(roles[user] != Role.Owner, \"Cannot change owner role\") */\n      tag_84\n      jumpi\n      mload(0x40)\n      0x08c379a000000000000000000000000000000000000000000000000000000000\n      dup2\n      mstore\n      0x04\n      add\n      tag_85\n      swap1\n      tag_86\n      jump\t// in\n    tag_85:\n      mload(0x40)\n      dup1\n      swap2\n      sub\n      swap1\n      revert\n    tag_84:\n        /* \"contracts/lesson3.3/RoleManagement.sol\":1340:1350  Role.Admin */\n      0x02\n        /* \"contracts/lesson3.3/RoleManagement.sol\":1326:1331  roles */\n      0x00\n        /* \"contracts/lesson3.3/RoleManagement.sol\":1326:1337  roles[user] */\n      0x00\n        /* \"contracts/lesson3.3/RoleManagement.sol\":1332:1336  user */\n      dup4\n        /* \"contracts/lesson3.3/RoleManagement.sol\":1326:1337  roles[user] */\n      0xffffffffffffffffffffffffffffffffffffffff\n      and\n      0xffffffffffffffffffffffffffffffffffffffff\n      and\n      dup2\n      mstore\n      0x20\n      add\n      swap1\n      dup2\n      mstore\n      0x20\n      add\n      0x00\n      keccak256\n      0x00\n        /* \"contracts/lesson3.3/RoleManagement.sol\":1326:1350  roles[user] = Role.Admin */\n      0x0100\n      exp\n      dup2\n      sload\n      dup2\n      0xff\n      mul\n      not\n      and\n      swap1\n      dup4\n      0x03\n      dup2\n      gt\n      iszero\n      tag_87\n      jumpi\n      tag_88\n      tag_43\n      jump\t// in\n    tag_88:\n    tag_87:\n      mul\n      or\n      swap1\n      sstore\n      pop\n        /* \"contracts/lesson3.3/RoleManagement.sol\":1378:1382  user */\n      dup1\n        /* \"contracts/lesson3.3/RoleManagement.sol\":1365:1395  RoleAssigned(user, Role.Admin) */\n      0xffffffffffffffffffffffffffffffffffffffff\n      and\n      0x4ac36fa53f167ceb85964be512e01de2a3b8bdb9862f917da079deeeff689b38\n        /* \"contracts/lesson3.3/RoleManagement.sol\":1384:1394  Role.Admin */\n      0x02\n        /* \"contracts/lesson3.3/RoleManagement.sol\":1365:1395  RoleAssigned(user, Role.Admin) */\n      mload(0x40)\n      tag_89\n      swap2\n      swap1\n      tag_19\n      jump\t// in\n    tag_89:\n      mload(0x40)\n      dup1\n      swap2\n      sub\n      swap1\n      log2\n        /* \"contracts/lesson3.3/RoleManagement.sol\":1111:1402  function addAdmin(address user) public onlyOwner {... */\n      pop\n      jump\t// out\n        /* \"contracts/lesson3.3/RoleManagement.sol\":1822:2000  function revokeRole(address user) public onlyOwner {... */\n    tag_25:\n        /* \"contracts/lesson3.3/RoleManagement.sol\":672:682  Role.Owner */\n      0x03\n        /* \"contracts/lesson3.3/RoleManagement.sol\":651:682  roles[msg.sender] == Role.Owner */\n      dup1\n      dup2\n      gt\n      iszero\n      tag_91\n      jumpi\n      tag_92\n      tag_43\n      jump\t// in\n    tag_92:\n    tag_91:\n        /* \"contracts/lesson3.3/RoleManagement.sol\":651:656  roles */\n      0x00\n        /* \"contracts/lesson3.3/RoleManagement.sol\":651:668  roles[msg.sender] */\n      0x00\n        /* \"contracts/lesson3.3/RoleManagement.sol\":657:667  msg.sender */\n      caller\n        /* \"contracts/lesson3.3/RoleManagement.sol\":651:668  roles[msg.sender] */\n      0xffffffffffffffffffffffffffffffffffffffff\n      and\n      0xffffffffffffffffffffffffffffffffffffffff\n      and\n      dup2\n      mstore\n      0x20\n      add\n      swap1\n      dup2\n      mstore\n      0x20\n      add\n      0x00\n      keccak256\n      0x00\n      swap1\n      sload\n      swap1\n      0x0100\n      exp\n      swap1\n      div\n      0xff\n      and\n        /* \"contracts/lesson3.3/RoleManagement.sol\":651:682  roles[msg.sender] == Role.Owner */\n      0x03\n      dup2\n      gt\n      iszero\n      tag_93\n      jumpi\n      tag_94\n      tag_43\n      jump\t// in\n    tag_94:\n    tag_93:\n      eq\n        /* \"contracts/lesson3.3/RoleManagement.sol\":643:706  require(roles[msg.sender] == Role.Owner, \"Only owner can call\") */\n      tag_95\n      jumpi\n      mload(0x40)\n      0x08c379a000000000000000000000000000000000000000000000000000000000\n      dup2\n      mstore\n      0x04\n      add\n      tag_96\n      swap1\n      tag_76\n      jump\t// in\n    tag_96:\n      mload(0x40)\n      dup1\n      swap2\n      sub\n      swap1\n      revert\n    tag_95:\n        /* \"contracts/lesson3.3/RoleManagement.sol\":1899:1904  owner */\n      0x01\n      0x00\n      swap1\n      sload\n      swap1\n      0x0100\n      exp\n      swap1\n      div\n      0xffffffffffffffffffffffffffffffffffffffff\n      and\n        /* \"contracts/lesson3.3/RoleManagement.sol\":1891:1904  user != owner */\n      0xffffffffffffffffffffffffffffffffffffffff\n      and\n        /* \"contracts/lesson3.3/RoleManagement.sol\":1891:1895  user */\n      dup2\n        /* \"contracts/lesson3.3/RoleManagement.sol\":1891:1904  user != owner */\n      0xffffffffffffffffffffffffffffffffffffffff\n      and\n      sub\n        /* \"contracts/lesson3.3/RoleManagement.sol\":1883:1933  require(user != owner, \"Cannot revoke owner role\") */\n      tag_98\n      jumpi\n      mload(0x40)\n      0x08c379a000000000000000000000000000000000000000000000000000000000\n      dup2\n      mstore\n      0x04\n      add\n      tag_99\n      swap1\n      tag_100\n      jump\t// in\n    tag_99:\n      mload(0x40)\n      dup1\n      swap2\n      sub\n      swap1\n      revert\n    tag_98:\n        /* \"contracts/lesson3.3/RoleManagement.sol\":1950:1955  roles */\n      0x00\n        /* \"contracts/lesson3.3/RoleManagement.sol\":1950:1961  roles[user] */\n      0x00\n        /* \"contracts/lesson3.3/RoleManagement.sol\":1956:1960  user */\n      dup3\n        /* \"contracts/lesson3.3/RoleManagement.sol\":1950:1961  roles[user] */\n      0xffffffffffffffffffffffffffffffffffffffff\n      and\n      0xffffffffffffffffffffffffffffffffffffffff\n      and\n      dup2\n      mstore\n      0x20\n      add\n      swap1\n      dup2\n      mstore\n      0x20\n      add\n      0x00\n      keccak256\n      0x00\n        /* \"contracts/lesson3.3/RoleManagement.sol\":1943:1961  delete roles[user] */\n      0x0100\n      exp\n      dup2\n      sload\n      swap1\n      0xff\n      mul\n      not\n      and\n      swap1\n      sstore\n        /* \"contracts/lesson3.3/RoleManagement.sol\":1988:1992  user */\n      dup1\n        /* \"contracts/lesson3.3/RoleManagement.sol\":1976:1993  RoleRevoked(user) */\n      0xffffffffffffffffffffffffffffffffffffffff\n      and\n      0x6107a4a5447a4208ba14e3ec240bccf0a93828124ccf501af04601031070b183\n      mload(0x40)\n      mload(0x40)\n      dup1\n      swap2\n      sub\n      swap1\n      log2\n        /* \"contracts/lesson3.3/RoleManagement.sol\":1822:2000  function revokeRole(address user) public onlyOwner {... */\n      pop\n      jump\t// out\n        /* \"contracts/lesson3.3/RoleManagement.sol\":275:295  address public owner */\n    tag_27:\n      0x01\n      0x00\n      swap1\n      sload\n      swap1\n      0x0100\n      exp\n      swap1\n      div\n      0xffffffffffffffffffffffffffffffffffffffff\n      and\n      dup2\n      jump\t// out\n        /* \"contracts/lesson3.3/RoleManagement.sol\":2006:2118  function hasRole(address user, Role role) public view returns (bool) {... */\n    tag_33:\n        /* \"contracts/lesson3.3/RoleManagement.sol\":2069:2073  bool */\n      0x00\n        /* \"contracts/lesson3.3/RoleManagement.sol\":2107:2111  role */\n      dup2\n        /* \"contracts/lesson3.3/RoleManagement.sol\":2092:2111  roles[user] == role */\n      0x03\n      dup2\n      gt\n      iszero\n      tag_102\n      jumpi\n      tag_103\n      tag_43\n      jump\t// in\n    tag_103:\n    tag_102:\n        /* \"contracts/lesson3.3/RoleManagement.sol\":2092:2097  roles */\n      0x00\n        /* \"contracts/lesson3.3/RoleManagement.sol\":2092:2103  roles[user] */\n      0x00\n        /* \"contracts/lesson3.3/RoleManagement.sol\":2098:2102  user */\n      dup6\n        /* \"contracts/lesson3.3/RoleManagement.sol\":2092:2103  roles[user] */\n      0xffffffffffffffffffffffffffffffffffffffff\n      and\n      0xffffffffffffffffffffffffffffffffffffffff\n      and\n      dup2\n      mstore\n      0x20\n      add\n      swap1\n      dup2\n      mstore\n      0x20\n      add\n      0x00\n      keccak256\n      0x00\n      swap1\n      sload\n      swap1\n      0x0100\n      exp\n      swap1\n      div\n      0xff\n      and\n        /* \"contracts/lesson3.3/RoleManagement.sol\":2092:2111  roles[user] == role */\n      0x03\n      dup2\n      gt\n      iszero\n      tag_104\n      jumpi\n      tag_105\n      tag_43\n      jump\t// in\n    tag_105:\n    tag_104:\n      eq\n        /* \"contracts/lesson3.3/RoleManagement.sol\":2085:2111  return roles[user] == role */\n      swap1\n      pop\n        /* \"contracts/lesson3.3/RoleManagement.sol\":2006:2118  function hasRole(address user, Role role) public view returns (bool) {... */\n      swap3\n      swap2\n      pop\n      pop\n      jump\t// out\n        /* \"contracts/lesson3.3/RoleManagement.sol\":231:268  mapping(address => Role) public roles */\n    tag_38:\n      mstore(0x20, 0x00)\n      dup1\n      0x00\n      mstore\n      keccak256(0x00, 0x40)\n      0x00\n      swap2\n      pop\n      sload\n      swap1\n      0x0100\n      exp\n      swap1\n      div\n      0xff\n      and\n      dup2\n      jump\t// out\n        /* \"#utility.yul\":88:205   */\n    tag_107:\n        /* \"#utility.yul\":197:198   */\n      0x00\n        /* \"#utility.yul\":194:195   */\n      0x00\n        /* \"#utility.yul\":187:199   */\n      revert\n        /* \"#utility.yul\":334:460   */\n    tag_109:\n        /* \"#utility.yul\":371:378   */\n      0x00\n        /* \"#utility.yul\":411:453   */\n      0xffffffffffffffffffffffffffffffffffffffff\n        /* \"#utility.yul\":404:409   */\n      dup3\n        /* \"#utility.yul\":400:454   */\n      and\n        /* \"#utility.yul\":389:454   */\n      swap1\n      pop\n        /* \"#utility.yul\":334:460   */\n      swap2\n      swap1\n      pop\n      jump\t// out\n        /* \"#utility.yul\":466:562   */\n    tag_110:\n        /* \"#utility.yul\":503:510   */\n      0x00\n        /* \"#utility.yul\":532:556   */\n      tag_141\n        /* \"#utility.yul\":550:555   */\n      dup3\n        /* \"#utility.yul\":532:556   */\n      tag_109\n      jump\t// in\n    tag_141:\n        /* \"#utility.yul\":521:556   */\n      swap1\n      pop\n        /* \"#utility.yul\":466:562   */\n      swap2\n      swap1\n      pop\n      jump\t// out\n        /* \"#utility.yul\":568:690   */\n    tag_111:\n        /* \"#utility.yul\":641:665   */\n      tag_143\n        /* \"#utility.yul\":659:664   */\n      dup2\n        /* \"#utility.yul\":641:665   */\n      tag_110\n      jump\t// in\n    tag_143:\n        /* \"#utility.yul\":634:639   */\n      dup2\n        /* \"#utility.yul\":631:666   */\n      eq\n        /* \"#utility.yul\":621:684   */\n      tag_144\n      jumpi\n        /* \"#utility.yul\":680:681   */\n      0x00\n        /* \"#utility.yul\":677:678   */\n      0x00\n        /* \"#utility.yul\":670:682   */\n      revert\n        /* \"#utility.yul\":621:684   */\n    tag_144:\n        /* \"#utility.yul\":568:690   */\n      pop\n      jump\t// out\n        /* \"#utility.yul\":696:835   */\n    tag_112:\n        /* \"#utility.yul\":742:747   */\n      0x00\n        /* \"#utility.yul\":780:786   */\n      dup2\n        /* \"#utility.yul\":767:787   */\n      calldataload\n        /* \"#utility.yul\":758:787   */\n      swap1\n      pop\n        /* \"#utility.yul\":796:829   */\n      tag_146\n        /* \"#utility.yul\":823:828   */\n      dup2\n        /* \"#utility.yul\":796:829   */\n      tag_111\n      jump\t// in\n    tag_146:\n        /* \"#utility.yul\":696:835   */\n      swap3\n      swap2\n      pop\n      pop\n      jump\t// out\n        /* \"#utility.yul\":841:1170   */\n    tag_13:\n        /* \"#utility.yul\":900:906   */\n      0x00\n        /* \"#utility.yul\":949:951   */\n      0x20\n        /* \"#utility.yul\":937:946   */\n      dup3\n        /* \"#utility.yul\":928:935   */\n      dup5\n        /* \"#utility.yul\":924:947   */\n      sub\n        /* \"#utility.yul\":920:952   */\n      slt\n        /* \"#utility.yul\":917:1036   */\n      iszero\n      tag_148\n      jumpi\n        /* \"#utility.yul\":955:1034   */\n      tag_149\n      tag_107\n      jump\t// in\n    tag_149:\n        /* \"#utility.yul\":917:1036   */\n    tag_148:\n        /* \"#utility.yul\":1075:1076   */\n      0x00\n        /* \"#utility.yul\":1100:1153   */\n      tag_150\n        /* \"#utility.yul\":1145:1152   */\n      dup5\n        /* \"#utility.yul\":1136:1142   */\n      dup3\n        /* \"#utility.yul\":1125:1134   */\n      dup6\n        /* \"#utility.yul\":1121:1143   */\n      add\n        /* \"#utility.yul\":1100:1153   */\n      tag_112\n      jump\t// in\n    tag_150:\n        /* \"#utility.yul\":1090:1153   */\n      swap2\n      pop\n        /* \"#utility.yul\":1046:1163   */\n      pop\n        /* \"#utility.yul\":841:1170   */\n      swap3\n      swap2\n      pop\n      pop\n      jump\t// out\n        /* \"#utility.yul\":1176:1356   */\n    tag_43:\n        /* \"#utility.yul\":1224:1301   */\n      0x4e487b7100000000000000000000000000000000000000000000000000000000\n        /* \"#utility.yul\":1221:1222   */\n      0x00\n        /* \"#utility.yul\":1214:1302   */\n      mstore\n        /* \"#utility.yul\":1321:1325   */\n      0x21\n        /* \"#utility.yul\":1318:1319   */\n      0x04\n        /* \"#utility.yul\":1311:1326   */\n      mstore\n        /* \"#utility.yul\":1345:1349   */\n      0x24\n        /* \"#utility.yul\":1342:1343   */\n      0x00\n        /* \"#utility.yul\":1335:1350   */\n      revert\n        /* \"#utility.yul\":1362:1473   */\n    tag_113:\n        /* \"#utility.yul\":1441:1442   */\n      0x04\n        /* \"#utility.yul\":1434:1439   */\n      dup2\n        /* \"#utility.yul\":1431:1443   */\n      lt\n        /* \"#utility.yul\":1421:1467   */\n      tag_153\n      jumpi\n        /* \"#utility.yul\":1447:1465   */\n      tag_154\n      tag_43\n      jump\t// in\n    tag_154:\n        /* \"#utility.yul\":1421:1467   */\n    tag_153:\n        /* \"#utility.yul\":1362:1473   */\n      pop\n      jump\t// out\n        /* \"#utility.yul\":1479:1602   */\n    tag_114:\n        /* \"#utility.yul\":1522:1529   */\n      0x00\n        /* \"#utility.yul\":1551:1556   */\n      dup2\n        /* \"#utility.yul\":1540:1556   */\n      swap1\n      pop\n        /* \"#utility.yul\":1557:1596   */\n      tag_156\n        /* \"#utility.yul\":1590:1595   */\n      dup3\n        /* \"#utility.yul\":1557:1596   */\n      tag_113\n      jump\t// in\n    tag_156:\n        /* \"#utility.yul\":1479:1602   */\n      swap2\n      swap1\n      pop\n      jump\t// out\n        /* \"#utility.yul\":1608:1731   */\n    tag_115:\n        /* \"#utility.yul\":1662:1671   */\n      0x00\n        /* \"#utility.yul\":1695:1725   */\n      tag_158\n        /* \"#utility.yul\":1719:1724   */\n      dup3\n        /* \"#utility.yul\":1695:1725   */\n      tag_114\n      jump\t// in\n    tag_158:\n        /* \"#utility.yul\":1682:1725   */\n      swap1\n      pop\n        /* \"#utility.yul\":1608:1731   */\n      swap2\n      swap1\n      pop\n      jump\t// out\n        /* \"#utility.yul\":1737:1876   */\n    tag_116:\n        /* \"#utility.yul\":1828:1869   */\n      tag_160\n        /* \"#utility.yul\":1863:1868   */\n      dup2\n        /* \"#utility.yul\":1828:1869   */\n      tag_115\n      jump\t// in\n    tag_160:\n        /* \"#utility.yul\":1823:1826   */\n      dup3\n        /* \"#utility.yul\":1816:1870   */\n      mstore\n        /* \"#utility.yul\":1737:1876   */\n      pop\n      pop\n      jump\t// out\n        /* \"#utility.yul\":1882:2112   */\n    tag_19:\n        /* \"#utility.yul\":1979:1983   */\n      0x00\n        /* \"#utility.yul\":2017:2019   */\n      0x20\n        /* \"#utility.yul\":2006:2015   */\n      dup3\n        /* \"#utility.yul\":2002:2020   */\n      add\n        /* \"#utility.yul\":1994:2020   */\n      swap1\n      pop\n        /* \"#utility.yul\":2030:2105   */\n      tag_162\n        /* \"#utility.yul\":2102:2103   */\n      0x00\n        /* \"#utility.yul\":2091:2100   */\n      dup4\n        /* \"#utility.yul\":2087:2104   */\n      add\n        /* \"#utility.yul\":2078:2084   */\n      dup5\n        /* \"#utility.yul\":2030:2105   */\n      tag_116\n      jump\t// in\n    tag_162:\n        /* \"#utility.yul\":1882:2112   */\n      swap3\n      swap2\n      pop\n      pop\n      jump\t// out\n        /* \"#utility.yul\":2118:2236   */\n    tag_117:\n        /* \"#utility.yul\":2205:2229   */\n      tag_164\n        /* \"#utility.yul\":2223:2228   */\n      dup2\n        /* \"#utility.yul\":2205:2229   */\n      tag_110\n      jump\t// in\n    tag_164:\n        /* \"#utility.yul\":2200:2203   */\n      dup3\n        /* \"#utility.yul\":2193:2230   */\n      mstore\n        /* \"#utility.yul\":2118:2236   */\n      pop\n      pop\n      jump\t// out\n        /* \"#utility.yul\":2242:2464   */\n    tag_29:\n        /* \"#utility.yul\":2335:2339   */\n      0x00\n        /* \"#utility.yul\":2373:2375   */\n      0x20\n        /* \"#utility.yul\":2362:2371   */\n      dup3\n        /* \"#utility.yul\":2358:2376   */\n      add\n        /* \"#utility.yul\":2350:2376   */\n      swap1\n      pop\n        /* \"#utility.yul\":2386:2457   */\n      tag_166\n        /* \"#utility.yul\":2454:2455   */\n      0x00\n        /* \"#utility.yul\":2443:2452   */\n      dup4\n        /* \"#utility.yul\":2439:2456   */\n      add\n        /* \"#utility.yul\":2430:2436   */\n      dup5\n        /* \"#utility.yul\":2386:2457   */\n      tag_117\n      jump\t// in\n    tag_166:\n        /* \"#utility.yul\":2242:2464   */\n      swap3\n      swap2\n      pop\n      pop\n      jump\t// out\n        /* \"#utility.yul\":2470:2575   */\n    tag_118:\n        /* \"#utility.yul\":2549:2550   */\n      0x04\n        /* \"#utility.yul\":2542:2547   */\n      dup2\n        /* \"#utility.yul\":2539:2551   */\n      lt\n        /* \"#utility.yul\":2529:2569   */\n      tag_168\n      jumpi\n        /* \"#utility.yul\":2565:2566   */\n      0x00\n        /* \"#utility.yul\":2562:2563   */\n      0x00\n        /* \"#utility.yul\":2555:2567   */\n      revert\n        /* \"#utility.yul\":2529:2569   */\n    tag_168:\n        /* \"#utility.yul\":2470:2575   */\n      pop\n      jump\t// out\n        /* \"#utility.yul\":2581:2732   */\n    tag_119:\n        /* \"#utility.yul\":2633:2638   */\n      0x00\n        /* \"#utility.yul\":2671:2677   */\n      dup2\n        /* \"#utility.yul\":2658:2678   */\n      calldataload\n        /* \"#utility.yul\":2649:2678   */\n      swap1\n      pop\n        /* \"#utility.yul\":2687:2726   */\n      tag_170\n        /* \"#utility.yul\":2720:2725   */\n      dup2\n        /* \"#utility.yul\":2687:2726   */\n      tag_118\n      jump\t// in\n    tag_170:\n        /* \"#utility.yul\":2581:2732   */\n      swap3\n      swap2\n      pop\n      pop\n      jump\t// out\n        /* \"#utility.yul\":2738:3224   */\n    tag_32:\n        /* \"#utility.yul\":2812:2818   */\n      0x00\n        /* \"#utility.yul\":2820:2826   */\n      0x00\n        /* \"#utility.yul\":2869:2871   */\n      0x40\n        /* \"#utility.yul\":2857:2866   */\n      dup4\n        /* \"#utility.yul\":2848:2855   */\n      dup6\n        /* \"#utility.yul\":2844:2867   */\n      sub\n        /* \"#utility.yul\":2840:2872   */\n      slt\n        /* \"#utility.yul\":2837:2956   */\n      iszero\n      tag_172\n      jumpi\n        /* \"#utility.yul\":2875:2954   */\n      tag_173\n      tag_107\n      jump\t// in\n    tag_173:\n        /* \"#utility.yul\":2837:2956   */\n    tag_172:\n        /* \"#utility.yul\":2995:2996   */\n      0x00\n        /* \"#utility.yul\":3020:3073   */\n      tag_174\n        /* \"#utility.yul\":3065:3072   */\n      dup6\n        /* \"#utility.yul\":3056:3062   */\n      dup3\n        /* \"#utility.yul\":3045:3054   */\n      dup7\n        /* \"#utility.yul\":3041:3063   */\n      add\n        /* \"#utility.yul\":3020:3073   */\n      tag_112\n      jump\t// in\n    tag_174:\n        /* \"#utility.yul\":3010:3073   */\n      swap3\n      pop\n        /* \"#utility.yul\":2966:3083   */\n      pop\n        /* \"#utility.yul\":3122:3124   */\n      0x20\n        /* \"#utility.yul\":3148:3207   */\n      tag_175\n        /* \"#utility.yul\":3199:3206   */\n      dup6\n        /* \"#utility.yul\":3190:3196   */\n      dup3\n        /* \"#utility.yul\":3179:3188   */\n      dup7\n        /* \"#utility.yul\":3175:3197   */\n      add\n        /* \"#utility.yul\":3148:3207   */\n      tag_119\n      jump\t// in\n    tag_175:\n        /* \"#utility.yul\":3138:3207   */\n      swap2\n      pop\n        /* \"#utility.yul\":3093:3217   */\n      pop\n        /* \"#utility.yul\":2738:3224   */\n      swap3\n      pop\n      swap3\n      swap1\n      pop\n      jump\t// out\n        /* \"#utility.yul\":3230:3320   */\n    tag_120:\n        /* \"#utility.yul\":3264:3271   */\n      0x00\n        /* \"#utility.yul\":3307:3312   */\n      dup2\n        /* \"#utility.yul\":3300:3313   */\n      iszero\n        /* \"#utility.yul\":3293:3314   */\n      iszero\n        /* \"#utility.yul\":3282:3314   */\n      swap1\n      pop\n        /* \"#utility.yul\":3230:3320   */\n      swap2\n      swap1\n      pop\n      jump\t// out\n        /* \"#utility.yul\":3326:3435   */\n    tag_121:\n        /* \"#utility.yul\":3407:3428   */\n      tag_178\n        /* \"#utility.yul\":3422:3427   */\n      dup2\n        /* \"#utility.yul\":3407:3428   */\n      tag_120\n      jump\t// in\n    tag_178:\n        /* \"#utility.yul\":3402:3405   */\n      dup3\n        /* \"#utility.yul\":3395:3429   */\n      mstore\n        /* \"#utility.yul\":3326:3435   */\n      pop\n      pop\n      jump\t// out\n        /* \"#utility.yul\":3441:3651   */\n    tag_35:\n        /* \"#utility.yul\":3528:3532   */\n      0x00\n        /* \"#utility.yul\":3566:3568   */\n      0x20\n        /* \"#utility.yul\":3555:3564   */\n      dup3\n        /* \"#utility.yul\":3551:3569   */\n      add\n        /* \"#utility.yul\":3543:3569   */\n      swap1\n      pop\n        /* \"#utility.yul\":3579:3644   */\n      tag_180\n        /* \"#utility.yul\":3641:3642   */\n      0x00\n        /* \"#utility.yul\":3630:3639   */\n      dup4\n        /* \"#utility.yul\":3626:3643   */\n      add\n        /* \"#utility.yul\":3617:3623   */\n      dup5\n        /* \"#utility.yul\":3579:3644   */\n      tag_121\n      jump\t// in\n    tag_180:\n        /* \"#utility.yul\":3441:3651   */\n      swap3\n      swap2\n      pop\n      pop\n      jump\t// out\n        /* \"#utility.yul\":3657:3826   */\n    tag_122:\n        /* \"#utility.yul\":3741:3752   */\n      0x00\n        /* \"#utility.yul\":3775:3781   */\n      dup3\n        /* \"#utility.yul\":3770:3773   */\n      dup3\n        /* \"#utility.yul\":3763:3782   */\n      mstore\n        /* \"#utility.yul\":3815:3819   */\n      0x20\n        /* \"#utility.yul\":3810:3813   */\n      dup3\n        /* \"#utility.yul\":3806:3820   */\n      add\n        /* \"#utility.yul\":3791:3820   */\n      swap1\n      pop\n        /* \"#utility.yul\":3657:3826   */\n      swap3\n      swap2\n      pop\n      pop\n      jump\t// out\n        /* \"#utility.yul\":3832:4010   */\n    tag_123:\n        /* \"#utility.yul\":3972:4002   */\n      0x4f6e6c792061646d696e206f72206f776e65722063616e2063616c6c00000000\n        /* \"#utility.yul\":3968:3969   */\n      0x00\n        /* \"#utility.yul\":3960:3966   */\n      dup3\n        /* \"#utility.yul\":3956:3970   */\n      add\n        /* \"#utility.yul\":3949:4003   */\n      mstore\n        /* \"#utility.yul\":3832:4010   */\n      pop\n      jump\t// out\n        /* \"#utility.yul\":4016:4382   */\n    tag_124:\n        /* \"#utility.yul\":4158:4161   */\n      0x00\n        /* \"#utility.yul\":4179:4246   */\n      tag_184\n        /* \"#utility.yul\":4243:4245   */\n      0x1c\n        /* \"#utility.yul\":4238:4241   */\n      dup4\n        /* \"#utility.yul\":4179:4246   */\n      tag_122\n      jump\t// in\n    tag_184:\n        /* \"#utility.yul\":4172:4246   */\n      swap2\n      pop\n        /* \"#utility.yul\":4255:4348   */\n      tag_185\n        /* \"#utility.yul\":4344:4347   */\n      dup3\n        /* \"#utility.yul\":4255:4348   */\n      tag_123\n      jump\t// in\n    tag_185:\n        /* \"#utility.yul\":4373:4375   */\n      0x20\n        /* \"#utility.yul\":4368:4371   */\n      dup3\n        /* \"#utility.yul\":4364:4376   */\n      add\n        /* \"#utility.yul\":4357:4376   */\n      swap1\n      pop\n        /* \"#utility.yul\":4016:4382   */\n      swap2\n      swap1\n      pop\n      jump\t// out\n        /* \"#utility.yul\":4388:4807   */\n    tag_53:\n        /* \"#utility.yul\":4554:4558   */\n      0x00\n        /* \"#utility.yul\":4592:4594   */\n      0x20\n        /* \"#utility.yul\":4581:4590   */\n      dup3\n        /* \"#utility.yul\":4577:4595   */\n      add\n        /* \"#utility.yul\":4569:4595   */\n      swap1\n      pop\n        /* \"#utility.yul\":4641:4650   */\n      dup2\n        /* \"#utility.yul\":4635:4639   */\n      dup2\n        /* \"#utility.yul\":4631:4651   */\n      sub\n        /* \"#utility.yul\":4627:4628   */\n      0x00\n        /* \"#utility.yul\":4616:4625   */\n      dup4\n        /* \"#utility.yul\":4612:4629   */\n      add\n        /* \"#utility.yul\":4605:4652   */\n      mstore\n        /* \"#utility.yul\":4669:4800   */\n      tag_187\n        /* \"#utility.yul\":4795:4799   */\n      dup2\n        /* \"#utility.yul\":4669:4800   */\n      tag_124\n      jump\t// in\n    tag_187:\n        /* \"#utility.yul\":4661:4800   */\n      swap1\n      pop\n        /* \"#utility.yul\":4388:4807   */\n      swap2\n      swap1\n      pop\n      jump\t// out\n        /* \"#utility.yul\":4813:4978   */\n    tag_125:\n        /* \"#utility.yul\":4953:4970   */\n      0x496e76616c696420616464726573730000000000000000000000000000000000\n        /* \"#utility.yul\":4949:4950   */\n      0x00\n        /* \"#utility.yul\":4941:4947   */\n      dup3\n        /* \"#utility.yul\":4937:4951   */\n      add\n        /* \"#utility.yul\":4930:4971   */\n      mstore\n        /* \"#utility.yul\":4813:4978   */\n      pop\n      jump\t// out\n        /* \"#utility.yul\":4984:5350   */\n    tag_126:\n        /* \"#utility.yul\":5126:5129   */\n      0x00\n        /* \"#utility.yul\":5147:5214   */\n      tag_190\n        /* \"#utility.yul\":5211:5213   */\n      0x0f\n        /* \"#utility.yul\":5206:5209   */\n      dup4\n        /* \"#utility.yul\":5147:5214   */\n      tag_122\n      jump\t// in\n    tag_190:\n        /* \"#utility.yul\":5140:5214   */\n      swap2\n      pop\n        /* \"#utility.yul\":5223:5316   */\n      tag_191\n        /* \"#utility.yul\":5312:5315   */\n      dup3\n        /* \"#utility.yul\":5223:5316   */\n      tag_125\n      jump\t// in\n    tag_191:\n        /* \"#utility.yul\":5341:5343   */\n      0x20\n        /* \"#utility.yul\":5336:5339   */\n      dup3\n        /* \"#utility.yul\":5332:5344   */\n      add\n        /* \"#utility.yul\":5325:5344   */\n      swap1\n      pop\n        /* \"#utility.yul\":4984:5350   */\n      swap2\n      swap1\n      pop\n      jump\t// out\n        /* \"#utility.yul\":5356:5775   */\n    tag_57:\n        /* \"#utility.yul\":5522:5526   */\n      0x00\n        /* \"#utility.yul\":5560:5562   */\n      0x20\n        /* \"#utility.yul\":5549:5558   */\n      dup3\n        /* \"#utility.yul\":5545:5563   */\n      add\n        /* \"#utility.yul\":5537:5563   */\n      swap1\n      pop\n        /* \"#utility.yul\":5609:5618   */\n      dup2\n        /* \"#utility.yul\":5603:5607   */\n      dup2\n        /* \"#utility.yul\":5599:5619   */\n      sub\n        /* \"#utility.yul\":5595:5596   */\n      0x00\n        /* \"#utility.yul\":5584:5593   */\n      dup4\n        /* \"#utility.yul\":5580:5597   */\n      add\n        /* \"#utility.yul\":5573:5620   */\n      mstore\n        /* \"#utility.yul\":5637:5768   */\n      tag_193\n        /* \"#utility.yul\":5763:5767   */\n      dup2\n        /* \"#utility.yul\":5637:5768   */\n      tag_126\n      jump\t// in\n    tag_193:\n        /* \"#utility.yul\":5629:5768   */\n      swap1\n      pop\n        /* \"#utility.yul\":5356:5775   */\n      swap2\n      swap1\n      pop\n      jump\t// out\n        /* \"#utility.yul\":5781:5954   */\n    tag_127:\n        /* \"#utility.yul\":5921:5946   */\n      0x5573657220616c726561647920686173206120726f6c65000000000000000000\n        /* \"#utility.yul\":5917:5918   */\n      0x00\n        /* \"#utility.yul\":5909:5915   */\n      dup3\n        /* \"#utility.yul\":5905:5919   */\n      add\n        /* \"#utility.yul\":5898:5947   */\n      mstore\n        /* \"#utility.yul\":5781:5954   */\n      pop\n      jump\t// out\n        /* \"#utility.yul\":5960:6326   */\n    tag_128:\n        /* \"#utility.yul\":6102:6105   */\n      0x00\n        /* \"#utility.yul\":6123:6190   */\n      tag_196\n        /* \"#utility.yul\":6187:6189   */\n      0x17\n        /* \"#utility.yul\":6182:6185   */\n      dup4\n        /* \"#utility.yul\":6123:6190   */\n      tag_122\n      jump\t// in\n    tag_196:\n        /* \"#utility.yul\":6116:6190   */\n      swap2\n      pop\n        /* \"#utility.yul\":6199:6292   */\n      tag_197\n        /* \"#utility.yul\":6288:6291   */\n      dup3\n        /* \"#utility.yul\":6199:6292   */\n      tag_127\n      jump\t// in\n    tag_197:\n        /* \"#utility.yul\":6317:6319   */\n      0x20\n        /* \"#utility.yul\":6312:6315   */\n      dup3\n        /* \"#utility.yul\":6308:6320   */\n      add\n        /* \"#utility.yul\":6301:6320   */\n      swap1\n      pop\n        /* \"#utility.yul\":5960:6326   */\n      swap2\n      swap1\n      pop\n      jump\t// out\n        /* \"#utility.yul\":6332:6751   */\n    tag_64:\n        /* \"#utility.yul\":6498:6502   */\n      0x00\n        /* \"#utility.yul\":6536:6538   */\n      0x20\n        /* \"#utility.yul\":6525:6534   */\n      dup3\n        /* \"#utility.yul\":6521:6539   */\n      add\n        /* \"#utility.yul\":6513:6539   */\n      swap1\n      pop\n        /* \"#utility.yul\":6585:6594   */\n      dup2\n        /* \"#utility.yul\":6579:6583   */\n      dup2\n        /* \"#utility.yul\":6575:6595   */\n      sub\n        /* \"#utility.yul\":6571:6572   */\n      0x00\n        /* \"#utility.yul\":6560:6569   */\n      dup4\n        /* \"#utility.yul\":6556:6573   */\n      add\n        /* \"#utility.yul\":6549:6596   */\n      mstore\n        /* \"#utility.yul\":6613:6744   */\n      tag_199\n        /* \"#utility.yul\":6739:6743   */\n      dup2\n        /* \"#utility.yul\":6613:6744   */\n      tag_128\n      jump\t// in\n    tag_199:\n        /* \"#utility.yul\":6605:6744   */\n      swap1\n      pop\n        /* \"#utility.yul\":6332:6751   */\n      swap2\n      swap1\n      pop\n      jump\t// out\n        /* \"#utility.yul\":6757:6926   */\n    tag_129:\n        /* \"#utility.yul\":6897:6918   */\n      0x4f6e6c79206f776e65722063616e2063616c6c00000000000000000000000000\n        /* \"#utility.yul\":6893:6894   */\n      0x00\n        /* \"#utility.yul\":6885:6891   */\n      dup3\n        /* \"#utility.yul\":6881:6895   */\n      add\n        /* \"#utility.yul\":6874:6919   */\n      mstore\n        /* \"#utility.yul\":6757:6926   */\n      pop\n      jump\t// out\n        /* \"#utility.yul\":6932:7298   */\n    tag_130:\n        /* \"#utility.yul\":7074:7077   */\n      0x00\n        /* \"#utility.yul\":7095:7162   */\n      tag_202\n        /* \"#utility.yul\":7159:7161   */\n      0x13\n        /* \"#utility.yul\":7154:7157   */\n      dup4\n        /* \"#utility.yul\":7095:7162   */\n      tag_122\n      jump\t// in\n    tag_202:\n        /* \"#utility.yul\":7088:7162   */\n      swap2\n      pop\n        /* \"#utility.yul\":7171:7264   */\n      tag_203\n        /* \"#utility.yul\":7260:7263   */\n      dup3\n        /* \"#utility.yul\":7171:7264   */\n      tag_129\n      jump\t// in\n    tag_203:\n        /* \"#utility.yul\":7289:7291   */\n      0x20\n        /* \"#utility.yul\":7284:7287   */\n      dup3\n        /* \"#utility.yul\":7280:7292   */\n      add\n        /* \"#utility.yul\":7273:7292   */\n      swap1\n      pop\n        /* \"#utility.yul\":6932:7298   */\n      swap2\n      swap1\n      pop\n      jump\t// out\n        /* \"#utility.yul\":7304:7723   */\n    tag_76:\n        /* \"#utility.yul\":7470:7474   */\n      0x00\n        /* \"#utility.yul\":7508:7510   */\n      0x20\n        /* \"#utility.yul\":7497:7506   */\n      dup3\n        /* \"#utility.yul\":7493:7511   */\n      add\n        /* \"#utility.yul\":7485:7511   */\n      swap1\n      pop\n        /* \"#utility.yul\":7557:7566   */\n      dup2\n        /* \"#utility.yul\":7551:7555   */\n      dup2\n        /* \"#utility.yul\":7547:7567   */\n      sub\n        /* \"#utility.yul\":7543:7544   */\n      0x00\n        /* \"#utility.yul\":7532:7541   */\n      dup4\n        /* \"#utility.yul\":7528:7545   */\n      add\n        /* \"#utility.yul\":7521:7568   */\n      mstore\n        /* \"#utility.yul\":7585:7716   */\n      tag_205\n        /* \"#utility.yul\":7711:7715   */\n      dup2\n        /* \"#utility.yul\":7585:7716   */\n      tag_130\n      jump\t// in\n    tag_205:\n        /* \"#utility.yul\":7577:7716   */\n      swap1\n      pop\n        /* \"#utility.yul\":7304:7723   */\n      swap2\n      swap1\n      pop\n      jump\t// out\n        /* \"#utility.yul\":7729:7903   */\n    tag_131:\n        /* \"#utility.yul\":7869:7895   */\n      0x43616e6e6f74206368616e6765206f776e657220726f6c650000000000000000\n        /* \"#utility.yul\":7865:7866   */\n      0x00\n        /* \"#utility.yul\":7857:7863   */\n      dup3\n        /* \"#utility.yul\":7853:7867   */\n      add\n        /* \"#utility.yul\":7846:7896   */\n      mstore\n        /* \"#utility.yul\":7729:7903   */\n      pop\n      jump\t// out\n        /* \"#utility.yul\":7909:8275   */\n    tag_132:\n        /* \"#utility.yul\":8051:8054   */\n      0x00\n        /* \"#utility.yul\":8072:8139   */\n      tag_208\n        /* \"#utility.yul\":8136:8138   */\n      0x18\n        /* \"#utility.yul\":8131:8134   */\n      dup4\n        /* \"#utility.yul\":8072:8139   */\n      tag_122\n      jump\t// in\n    tag_208:\n        /* \"#utility.yul\":8065:8139   */\n      swap2\n      pop\n        /* \"#utility.yul\":8148:8241   */\n      tag_209\n        /* \"#utility.yul\":8237:8240   */\n      dup3\n        /* \"#utility.yul\":8148:8241   */\n      tag_131\n      jump\t// in\n    tag_209:\n        /* \"#utility.yul\":8266:8268   */\n      0x20\n        /* \"#utility.yul\":8261:8264   */\n      dup3\n        /* \"#utility.yul\":8257:8269   */\n      add\n        /* \"#utility.yul\":8250:8269   */\n      swap1\n      pop\n        /* \"#utility.yul\":7909:8275   */\n      swap2\n      swap1\n      pop\n      jump\t// out\n        /* \"#utility.yul\":8281:8700   */\n    tag_86:\n        /* \"#utility.yul\":8447:8451   */\n      0x00\n        /* \"#utility.yul\":8485:8487   */\n      0x20\n        /* \"#utility.yul\":8474:8483   */\n      dup3\n        /* \"#utility.yul\":8470:8488   */\n      add\n        /* \"#utility.yul\":8462:8488   */\n      swap1\n      pop\n        /* \"#utility.yul\":8534:8543   */\n      dup2\n        /* \"#utility.yul\":8528:8532   */\n      dup2\n        /* \"#utility.yul\":8524:8544   */\n      sub\n        /* \"#utility.yul\":8520:8521   */\n      0x00\n        /* \"#utility.yul\":8509:8518   */\n      dup4\n        /* \"#utility.yul\":8505:8522   */\n      add\n        /* \"#utility.yul\":8498:8545   */\n      mstore\n        /* \"#utility.yul\":8562:8693   */\n      tag_211\n        /* \"#utility.yul\":8688:8692   */\n      dup2\n        /* \"#utility.yul\":8562:8693   */\n      tag_132\n      jump\t// in\n    tag_211:\n        /* \"#utility.yul\":8554:8693   */\n      swap1\n      pop\n        /* \"#utility.yul\":8281:8700   */\n      swap2\n      swap1\n      pop\n      jump\t// out\n        /* \"#utility.yul\":8706:8880   */\n    tag_133:\n        /* \"#utility.yul\":8846:8872   */\n      0x43616e6e6f74207265766f6b65206f776e657220726f6c650000000000000000\n        /* \"#utility.yul\":8842:8843   */\n      0x00\n        /* \"#utility.yul\":8834:8840   */\n      dup3\n        /* \"#utility.yul\":8830:8844   */\n      add\n        /* \"#utility.yul\":8823:8873   */\n      mstore\n        /* \"#utility.yul\":8706:8880   */\n      pop\n      jump\t// out\n        /* \"#utility.yul\":8886:9252   */\n    tag_134:\n        /* \"#utility.yul\":9028:9031   */\n      0x00\n        /* \"#utility.yul\":9049:9116   */\n      tag_214\n        /* \"#utility.yul\":9113:9115   */\n      0x18\n        /* \"#utility.yul\":9108:9111   */\n      dup4\n        /* \"#utility.yul\":9049:9116   */\n      tag_122\n      jump\t// in\n    tag_214:\n        /* \"#utility.yul\":9042:9116   */\n      swap2\n      pop\n        /* \"#utility.yul\":9125:9218   */\n      tag_215\n        /* \"#utility.yul\":9214:9217   */\n      dup3\n        /* \"#utility.yul\":9125:9218   */\n      tag_133\n      jump\t// in\n    tag_215:\n        /* \"#utility.yul\":9243:9245   */\n      0x20\n        /* \"#utility.yul\":9238:9241   */\n      dup3\n        /* \"#utility.yul\":9234:9246   */\n      add\n        /* \"#utility.yul\":9227:9246   */\n      swap1\n      pop\n        /* \"#utility.yul\":8886:9252   */\n      swap2\n      swap1\n      pop\n      jump\t// out\n        /* \"#utility.yul\":9258:9677   */\n    tag_100:\n        /* \"#utility.yul\":9424:9428   */\n      0x00\n        /* \"#utility.yul\":9462:9464   */\n      0x20\n        /* \"#utility.yul\":9451:9460   */\n      dup3\n        /* \"#utility.yul\":9447:9465   */\n      add\n        /* \"#utility.yul\":9439:9465   */\n      swap1\n      pop\n        /* \"#utility.yul\":9511:9520   */\n      dup2\n        /* \"#utility.yul\":9505:9509   */\n      dup2\n        /* \"#utility.yul\":9501:9521   */\n      sub\n        /* \"#utility.yul\":9497:9498   */\n      0x00\n        /* \"#utility.yul\":9486:9495   */\n      dup4\n        /* \"#utility.yul\":9482:9499   */\n      add\n        /* \"#utility.yul\":9475:9522   */\n      mstore\n        /* \"#utility.yul\":9539:9670   */\n      tag_217\n        /* \"#utility.yul\":9665:9669   */\n      dup2\n        /* \"#utility.yul\":9539:9670   */\n      tag_134\n      jump\t// in\n    tag_217:\n        /* \"#utility.yul\":9531:9670   */\n      swap1\n      pop\n        /* \"#utility.yul\":9258:9677   */\n      swap2\n      swap1\n      pop\n      jump\t// out\n\n    auxdata: 0xa26469706673582212207586313886b882c1db25e23337471aaf85529c8480a916433e9e9dfd98b10adb64736f6c634300081f0033\n}\n",
				"bytecode": {
					"linkReferences": {},
					"object": "608060405234801561000f575f5ffd5b503360015f6101000a81548173ffffffffffffffffffffffffffffffffffffffff021916908373ffffffffffffffffffffffffffffffffffffffff16021790555060035f5f3373ffffffffffffffffffffffffffffffffffffffff1673ffffffffffffffffffffffffffffffffffffffff1681526020019081526020015f205f6101000a81548160ff021916908360038111156100af576100ae610108565b5b02179055503373ffffffffffffffffffffffffffffffffffffffff167f4ac36fa53f167ceb85964be512e01de2a3b8bdb9862f917da079deeeff689b3860036040516100fb919061017b565b60405180910390a2610194565b7f4e487b71000000000000000000000000000000000000000000000000000000005f52602160045260245ffd5b6004811061014657610145610108565b5b50565b5f81905061015682610135565b919050565b5f61016582610149565b9050919050565b6101758161015b565b82525050565b5f60208201905061018e5f83018461016c565b92915050565b610e57806101a15f395ff3fe608060405234801561000f575f5ffd5b506004361061007b575f3560e01c806380e52e3f1161005957806380e52e3f146100e75780638da5cb5b1461010357806395a8c58d1461012157806399374642146101515761007b565b8063421b2d8b1461007f578063442767331461009b57806370480275146100cb575b5f5ffd5b61009960048036038101906100949190610a2e565b610181565b005b6100b560048036038101906100b09190610a2e565b610478565b6040516100c29190610acc565b60405180910390f35b6100e560048036038101906100e09190610a2e565b6104c9565b005b61010160048036038101906100fc9190610a2e565b610749565b005b61010b610917565b6040516101189190610af4565b60405180910390f35b61013b60048036038101906101369190610b30565b61093c565b6040516101489190610b88565b60405180910390f35b61016b60048036038101906101669190610a2e565b6109b4565b6040516101789190610acc565b60405180910390f35b6002600381111561019557610194610a59565b5b5f5f3373ffffffffffffffffffffffffffffffffffffffff1673ffffffffffffffffffffffffffffffffffffffff1681526020019081526020015f205f9054906101000a900460ff1660038111156101f0576101ef610a59565b5b1480610267575060038081111561020a57610209610a59565b5b5f5f3373ffffffffffffffffffffffffffffffffffffffff1673ffffffffffffffffffffffffffffffffffffffff1681526020019081526020015f205f9054906101000a900460ff16600381111561026557610264610a59565b5b145b6102a6576040517f08c379a000000000000000000000000000000000000000000000000000000000815260040161029d90610bfb565b60405180910390fd5b5f73ffffffffffffffffffffffffffffffffffffffff168173ffffffffffffffffffffffffffffffffffffffff1603610314576040517f08c379a000000000000000000000000000000000000000000000000000000000815260040161030b90610c63565b60405180910390fd5b5f600381111561032757610326610a59565b5b5f5f8373ffffffffffffffffffffffffffffffffffffffff1673ffffffffffffffffffffffffffffffffffffffff1681526020019081526020015f205f9054906101000a900460ff16600381111561038257610381610a59565b5b146103c2576040517f08c379a00000000000000000000000000000000000000000000000000000000081526004016103b990610ccb565b60405180910390fd5b60015f5f8373ffffffffffffffffffffffffffffffffffffffff1673ffffffffffffffffffffffffffffffffffffffff1681526020019081526020015f205f6101000a81548160ff0219169083600381111561042157610420610a59565b5b02179055508073ffffffffffffffffffffffffffffffffffffffff167f4ac36fa53f167ceb85964be512e01de2a3b8bdb9862f917da079deeeff689b38600160405161046d9190610acc565b60405180910390a250565b5f5f5f8373ffffffffffffffffffffffffffffffffffffffff1673ffffffffffffffffffffffffffffffffffffffff1681526020019081526020015f205f9054906101000a900460ff169050919050565b6003808111156104dc576104db610a59565b5b5f5f3373ffffffffffffffffffffffffffffffffffffffff1673ffffffffffffffffffffffffffffffffffffffff1681526020019081526020015f205f9054906101000a900460ff16600381111561053757610536610a59565b5b14610577576040517f08c379a000000000000000000000000000000000000000000000000000000000815260040161056e90610d33565b60405180910390fd5b5f73ffffffffffffffffffffffffffffffffffffffff168173ffffffffffffffffffffffffffffffffffffffff16036105e5576040517f08c379a00000000000000000000000000000000000000000000000000000000081526004016105dc90610c63565b60405180910390fd5b6003808111156105f8576105f7610a59565b5b5f5f8373ffffffffffffffffffffffffffffffffffffffff1673ffffffffffffffffffffffffffffffffffffffff1681526020019081526020015f205f9054906101000a900460ff16600381111561065357610652610a59565b5b03610693576040517f08c379a000000000000000000000000000000000000000000000000000000000815260040161068a90610d9b565b60405180910390fd5b60025f5f8373ffffffffffffffffffffffffffffffffffffffff1673ffffffffffffffffffffffffffffffffffffffff1681526020019081526020015f205f6101000a81548160ff021916908360038111156106f2576106f1610a59565b5b02179055508073ffffffffffffffffffffffffffffffffffffffff167f4ac36fa53f167ceb85964be512e01de2a3b8bdb9862f917da079deeeff689b38600260405161073e9190610acc565b60405180910390a250565b60038081111561075c5761075b610a59565b5b5f5f3373ffffffffffffffffffffffffffffffffffffffff1673ffffffffffffffffffffffffffffffffffffffff1681526020019081526020015f205f9054906101000a900460ff1660038111156107b7576107b6610a59565b5b146107f7576040517f08c379a00000000000000000000000000000000000000000000000000000000081526004016107ee90610d33565b60405180910390fd5b60015f9054906101000a900473ffffffffffffffffffffffffffffffffffffffff1673ffffffffffffffffffffffffffffffffffffffff168173ffffffffffffffffffffffffffffffffffffffff1603610886576040517f08c379a000000000000000000000000000000000000000000000000000000000815260040161087d90610e03565b60405180910390fd5b5f5f8273ffffffffffffffffffffffffffffffffffffffff1673ffffffffffffffffffffffffffffffffffffffff1681526020019081526020015f205f6101000a81549060ff02191690558073ffffffffffffffffffffffffffffffffffffffff167f6107a4a5447a4208ba14e3ec240bccf0a93828124ccf501af04601031070b18360405160405180910390a250565b60015f9054906101000a900473ffffffffffffffffffffffffffffffffffffffff1681565b5f8160038111156109505761094f610a59565b5b5f5f8573ffffffffffffffffffffffffffffffffffffffff1673ffffffffffffffffffffffffffffffffffffffff1681526020019081526020015f205f9054906101000a900460ff1660038111156109ab576109aa610a59565b5b14905092915050565b5f602052805f5260405f205f915054906101000a900460ff1681565b5f5ffd5b5f73ffffffffffffffffffffffffffffffffffffffff82169050919050565b5f6109fd826109d4565b9050919050565b610a0d816109f3565b8114610a17575f5ffd5b50565b5f81359050610a2881610a04565b92915050565b5f60208284031215610a4357610a426109d0565b5b5f610a5084828501610a1a565b91505092915050565b7f4e487b71000000000000000000000000000000000000000000000000000000005f52602160045260245ffd5b60048110610a9757610a96610a59565b5b50565b5f819050610aa782610a86565b919050565b5f610ab682610a9a565b9050919050565b610ac681610aac565b82525050565b5f602082019050610adf5f830184610abd565b92915050565b610aee816109f3565b82525050565b5f602082019050610b075f830184610ae5565b92915050565b60048110610b19575f5ffd5b50565b5f81359050610b2a81610b0d565b92915050565b5f5f60408385031215610b4657610b456109d0565b5b5f610b5385828601610a1a565b9250506020610b6485828601610b1c565b9150509250929050565b5f8115159050919050565b610b8281610b6e565b82525050565b5f602082019050610b9b5f830184610b79565b92915050565b5f82825260208201905092915050565b7f4f6e6c792061646d696e206f72206f776e65722063616e2063616c6c000000005f82015250565b5f610be5601c83610ba1565b9150610bf082610bb1565b602082019050919050565b5f6020820190508181035f830152610c1281610bd9565b9050919050565b7f496e76616c6964206164647265737300000000000000000000000000000000005f82015250565b5f610c4d600f83610ba1565b9150610c5882610c19565b602082019050919050565b5f6020820190508181035f830152610c7a81610c41565b9050919050565b7f5573657220616c726561647920686173206120726f6c650000000000000000005f82015250565b5f610cb5601783610ba1565b9150610cc082610c81565b602082019050919050565b5f6020820190508181035f830152610ce281610ca9565b9050919050565b7f4f6e6c79206f776e65722063616e2063616c6c000000000000000000000000005f82015250565b5f610d1d601383610ba1565b9150610d2882610ce9565b602082019050919050565b5f6020820190508181035f830152610d4a81610d11565b9050919050565b7f43616e6e6f74206368616e6765206f776e657220726f6c6500000000000000005f82015250565b5f610d85601883610ba1565b9150610d9082610d51565b602082019050919050565b5f6020820190508181035f830152610db281610d79565b9050919050565b7f43616e6e6f74207265766f6b65206f776e657220726f6c6500000000000000005f82015250565b5f610ded601883610ba1565b9150610df882610db9565b602082019050919050565b5f6020820190508181035f830152610e1a81610de1565b905091905056fea26469706673582212207586313886b882c1db25e23337471aaf85529c8480a916433e9e9dfd98b10adb64736f6c634300081f0033",
					"opcodes": "PUSH1 0x80 PUSH1 0x40 MSTORE CALLVALUE DUP1 ISZERO PUSH2 0xF JUMPI PUSH0 PUSH0 REVERT JUMPDEST POP CALLER PUSH1 0x1 PUSH0 PUSH2 0x100 EXP DUP2 SLOAD DUP2 PUSH20 0xFFFFFFFFFFFFFFFFFFFFFFFFFFFFFFFFFFFFFFFF MUL NOT AND SWAP1 DUP4 PUSH20 0xFFFFFFFFFFFFFFFFFFFFFFFFFFFFFFFFFFFFFFFF AND MUL OR SWAP1 SSTORE POP PUSH1 0x3 PUSH0 PUSH0 CALLER PUSH20 0xFFFFFFFFFFFFFFFFFFFFFFFFFFFFFFFFFFFFFFFF AND PUSH20 0xFFFFFFFFFFFFFFFFFFFFFFFFFFFFFFFFFFFFFFFF AND DUP2 MSTORE PUSH1 0x20 ADD SWAP1 DUP2 MSTORE PUSH1 0x20 ADD PUSH0 KECCAK256 PUSH0 PUSH2 0x100 EXP DUP2 SLOAD DUP2 PUSH1 0xFF MUL NOT AND SWAP1 DUP4 PUSH1 0x3 DUP2 GT ISZERO PUSH2 0xAF JUMPI PUSH2 0xAE PUSH2 0x108 JUMP JUMPDEST JUMPDEST MUL OR SWAP1 SSTORE POP CALLER PUSH20 0xFFFFFFFFFFFFFFFFFFFFFFFFFFFFFFFFFFFFFFFF AND PUSH32 0x4AC36FA53F167CEB85964BE512E01DE2A3B8BDB9862F917DA079DEEEFF689B38 PUSH1 0x3 PUSH1 0x40 MLOAD PUSH2 0xFB SWAP2 SWAP1 PUSH2 0x17B JUMP JUMPDEST PUSH1 0x40 MLOAD DUP1 SWAP2 SUB SWAP1 LOG2 PUSH2 0x194 JUMP JUMPDEST PUSH32 0x4E487B7100000000000000000000000000000000000000000000000000000000 PUSH0 MSTORE PUSH1 0x21 PUSH1 0x4 MSTORE PUSH1 0x24 PUSH0 REVERT JUMPDEST PUSH1 0x4 DUP2 LT PUSH2 0x146 JUMPI PUSH2 0x145 PUSH2 0x108 JUMP JUMPDEST JUMPDEST POP JUMP JUMPDEST PUSH0 DUP2 SWAP1 POP PUSH2 0x156 DUP3 PUSH2 0x135 JUMP JUMPDEST SWAP2 SWAP1 POP JUMP JUMPDEST PUSH0 PUSH2 0x165 DUP3 PUSH2 0x149 JUMP JUMPDEST SWAP1 POP SWAP2 SWAP1 POP JUMP JUMPDEST PUSH2 0x175 DUP2 PUSH2 0x15B JUMP JUMPDEST DUP3 MSTORE POP POP JUMP JUMPDEST PUSH0 PUSH1 0x20 DUP3 ADD SWAP1 POP PUSH2 0x18E PUSH0 DUP4 ADD DUP5 PUSH2 0x16C JUMP JUMPDEST SWAP3 SWAP2 POP POP JUMP JUMPDEST PUSH2 0xE57 DUP1 PUSH2 0x1A1 PUSH0 CODECOPY PUSH0 RETURN INVALID PUSH1 0x80 PUSH1 0x40 MSTORE CALLVALUE DUP1 ISZERO PUSH2 0xF JUMPI PUSH0 PUSH0 REVERT JUMPDEST POP PUSH1 0x4 CALLDATASIZE LT PUSH2 0x7B JUMPI PUSH0 CALLDATALOAD PUSH1 0xE0 SHR DUP1 PUSH4 0x80E52E3F GT PUSH2 0x59 JUMPI DUP1 PUSH4 0x80E52E3F EQ PUSH2 0xE7 JUMPI DUP1 PUSH4 0x8DA5CB5B EQ PUSH2 0x103 JUMPI DUP1 PUSH4 0x95A8C58D EQ PUSH2 0x121 JUMPI DUP1 PUSH4 0x99374642 EQ PUSH2 0x151 JUMPI PUSH2 0x7B JUMP JUMPDEST DUP1 PUSH4 0x421B2D8B EQ PUSH2 0x7F JUMPI DUP1 PUSH4 0x44276733 EQ PUSH2 0x9B JUMPI DUP1 PUSH4 0x70480275 EQ PUSH2 0xCB JUMPI JUMPDEST PUSH0 PUSH0 REVERT JUMPDEST PUSH2 0x99 PUSH1 0x4 DUP1 CALLDATASIZE SUB DUP2 ADD SWAP1 PUSH2 0x94 SWAP2 SWAP1 PUSH2 0xA2E JUMP JUMPDEST PUSH2 0x181 JUMP JUMPDEST STOP JUMPDEST PUSH2 0xB5 PUSH1 0x4 DUP1 CALLDATASIZE SUB DUP2 ADD SWAP1 PUSH2 0xB0 SWAP2 SWAP1 PUSH2 0xA2E JUMP JUMPDEST PUSH2 0x478 JUMP JUMPDEST PUSH1 0x40 MLOAD PUSH2 0xC2 SWAP2 SWAP1 PUSH2 0xACC JUMP JUMPDEST PUSH1 0x40 MLOAD DUP1 SWAP2 SUB SWAP1 RETURN JUMPDEST PUSH2 0xE5 PUSH1 0x4 DUP1 CALLDATASIZE SUB DUP2 ADD SWAP1 PUSH2 0xE0 SWAP2 SWAP1 PUSH2 0xA2E JUMP JUMPDEST PUSH2 0x4C9 JUMP JUMPDEST STOP JUMPDEST PUSH2 0x101 PUSH1 0x4 DUP1 CALLDATASIZE SUB DUP2 ADD SWAP1 PUSH2 0xFC SWAP2 SWAP1 PUSH2 0xA2E JUMP JUMPDEST PUSH2 0x749 JUMP JUMPDEST STOP JUMPDEST PUSH2 0x10B PUSH2 0x917 JUMP JUMPDEST PUSH1 0x40 MLOAD PUSH2 0x118 SWAP2 SWAP1 PUSH2 0xAF4 JUMP JUMPDEST PUSH1 0x40 MLOAD DUP1 SWAP2 SUB SWAP1 RETURN JUMPDEST PUSH2 0x13B PUSH1 0x4 DUP1 CALLDATASIZE SUB DUP2 ADD SWAP1 PUSH2 0x136 SWAP2 SWAP1 PUSH2 0xB30 JUMP JUMPDEST PUSH2 0x93C JUMP JUMPDEST PUSH1 0x40 MLOAD PUSH2 0x148 SWAP2 SWAP1 PUSH2 0xB88 JUMP JUMPDEST PUSH1 0x40 MLOAD DUP1 SWAP2 SUB SWAP1 RETURN JUMPDEST PUSH2 0x16B PUSH1 0x4 DUP1 CALLDATASIZE SUB DUP2 ADD SWAP1 PUSH2 0x166 SWAP2 SWAP1 PUSH2 0xA2E JUMP JUMPDEST PUSH2 0x9B4 JUMP JUMPDEST PUSH1 0x40 MLOAD PUSH2 0x178 SWAP2 SWAP1 PUSH2 0xACC JUMP JUMPDEST PUSH1 0x40 MLOAD DUP1 SWAP2 SUB SWAP1 RETURN JUMPDEST PUSH1 0x2 PUSH1 0x3 DUP2 GT ISZERO PUSH2 0x195 JUMPI PUSH2 0x194 PUSH2 0xA59 JUMP JUMPDEST JUMPDEST PUSH0 PUSH0 CALLER PUSH20 0xFFFFFFFFFFFFFFFFFFFFFFFFFFFFFFFFFFFFFFFF AND PUSH20 0xFFFFFFFFFFFFFFFFFFFFFFFFFFFFFFFFFFFFFFFF AND DUP2 MSTORE PUSH1 0x20 ADD SWAP1 DUP2 MSTORE PUSH1 0x20 ADD PUSH0 KECCAK256 PUSH0 SWAP1 SLOAD SWAP1 PUSH2 0x100 EXP SWAP1 DIV PUSH1 0xFF AND PUSH1 0x3 DUP2 GT ISZERO PUSH2 0x1F0 JUMPI PUSH2 0x1EF PUSH2 0xA59 JUMP JUMPDEST JUMPDEST EQ DUP1 PUSH2 0x267 JUMPI POP PUSH1 0x3 DUP1 DUP2 GT ISZERO PUSH2 0x20A JUMPI PUSH2 0x209 PUSH2 0xA59 JUMP JUMPDEST JUMPDEST PUSH0 PUSH0 CALLER PUSH20 0xFFFFFFFFFFFFFFFFFFFFFFFFFFFFFFFFFFFFFFFF AND PUSH20 0xFFFFFFFFFFFFFFFFFFFFFFFFFFFFFFFFFFFFFFFF AND DUP2 MSTORE PUSH1 0x20 ADD SWAP1 DUP2 MSTORE PUSH1 0x20 ADD PUSH0 KECCAK256 PUSH0 SWAP1 SLOAD SWAP1 PUSH2 0x100 EXP SWAP1 DIV PUSH1 0xFF AND PUSH1 0x3 DUP2 GT ISZERO PUSH2 0x265 JUMPI PUSH2 0x264 PUSH2 0xA59 JUMP JUMPDEST JUMPDEST EQ JUMPDEST PUSH2 0x2A6 JUMPI PUSH1 0x40 MLOAD PUSH32 0x8C379A000000000000000000000000000000000000000000000000000000000 DUP2 MSTORE PUSH1 0x4 ADD PUSH2 0x29D SWAP1 PUSH2 0xBFB JUMP JUMPDEST PUSH1 0x40 MLOAD DUP1 SWAP2 SUB SWAP1 REVERT JUMPDEST PUSH0 PUSH20 0xFFFFFFFFFFFFFFFFFFFFFFFFFFFFFFFFFFFFFFFF AND DUP2 PUSH20 0xFFFFFFFFFFFFFFFFFFFFFFFFFFFFFFFFFFFFFFFF AND SUB PUSH2 0x314 JUMPI PUSH1 0x40 MLOAD PUSH32 0x8C379A000000000000000000000000000000000000000000000000000000000 DUP2 MSTORE PUSH1 0x4 ADD PUSH2 0x30B SWAP1 PUSH2 0xC63 JUMP JUMPDEST PUSH1 0x40 MLOAD DUP1 SWAP2 SUB SWAP1 REVERT JUMPDEST PUSH0 PUSH1 0x3 DUP2 GT ISZERO PUSH2 0x327 JUMPI PUSH2 0x326 PUSH2 0xA59 JUMP JUMPDEST JUMPDEST PUSH0 PUSH0 DUP4 PUSH20 0xFFFFFFFFFFFFFFFFFFFFFFFFFFFFFFFFFFFFFFFF AND PUSH20 0xFFFFFFFFFFFFFFFFFFFFFFFFFFFFFFFFFFFFFFFF AND DUP2 MSTORE PUSH1 0x20 ADD SWAP1 DUP2 MSTORE PUSH1 0x20 ADD PUSH0 KECCAK256 PUSH0 SWAP1 SLOAD SWAP1 PUSH2 0x100 EXP SWAP1 DIV PUSH1 0xFF AND PUSH1 0x3 DUP2 GT ISZERO PUSH2 0x382 JUMPI PUSH2 0x381 PUSH2 0xA59 JUMP JUMPDEST JUMPDEST EQ PUSH2 0x3C2 JUMPI PUSH1 0x40 MLOAD PUSH32 0x8C379A000000000000000000000000000000000000000000000000000000000 DUP2 MSTORE PUSH1 0x4 ADD PUSH2 0x3B9 SWAP1 PUSH2 0xCCB JUMP JUMPDEST PUSH1 0x40 MLOAD DUP1 SWAP2 SUB SWAP1 REVERT JUMPDEST PUSH1 0x1 PUSH0 PUSH0 DUP4 PUSH20 0xFFFFFFFFFFFFFFFFFFFFFFFFFFFFFFFFFFFFFFFF AND PUSH20 0xFFFFFFFFFFFFFFFFFFFFFFFFFFFFFFFFFFFFFFFF AND DUP2 MSTORE PUSH1 0x20 ADD SWAP1 DUP2 MSTORE PUSH1 0x20 ADD PUSH0 KECCAK256 PUSH0 PUSH2 0x100 EXP DUP2 SLOAD DUP2 PUSH1 0xFF MUL NOT AND SWAP1 DUP4 PUSH1 0x3 DUP2 GT ISZERO PUSH2 0x421 JUMPI PUSH2 0x420 PUSH2 0xA59 JUMP JUMPDEST JUMPDEST MUL OR SWAP1 SSTORE POP DUP1 PUSH20 0xFFFFFFFFFFFFFFFFFFFFFFFFFFFFFFFFFFFFFFFF AND PUSH32 0x4AC36FA53F167CEB85964BE512E01DE2A3B8BDB9862F917DA079DEEEFF689B38 PUSH1 0x1 PUSH1 0x40 MLOAD PUSH2 0x46D SWAP2 SWAP1 PUSH2 0xACC JUMP JUMPDEST PUSH1 0x40 MLOAD DUP1 SWAP2 SUB SWAP1 LOG2 POP JUMP JUMPDEST PUSH0 PUSH0 PUSH0 DUP4 PUSH20 0xFFFFFFFFFFFFFFFFFFFFFFFFFFFFFFFFFFFFFFFF AND PUSH20 0xFFFFFFFFFFFFFFFFFFFFFFFFFFFFFFFFFFFFFFFF AND DUP2 MSTORE PUSH1 0x20 ADD SWAP1 DUP2 MSTORE PUSH1 0x20 ADD PUSH0 KECCAK256 PUSH0 SWAP1 SLOAD SWAP1 PUSH2 0x100 EXP SWAP1 DIV PUSH1 0xFF AND SWAP1 POP SWAP2 SWAP1 POP JUMP JUMPDEST PUSH1 0x3 DUP1 DUP2 GT ISZERO PUSH2 0x4DC JUMPI PUSH2 0x4DB PUSH2 0xA59 JUMP JUMPDEST JUMPDEST PUSH0 PUSH0 CALLER PUSH20 0xFFFFFFFFFFFFFFFFFFFFFFFFFFFFFFFFFFFFFFFF AND PUSH20 0xFFFFFFFFFFFFFFFFFFFFFFFFFFFFFFFFFFFFFFFF AND DUP2 MSTORE PUSH1 0x20 ADD SWAP1 DUP2 MSTORE PUSH1 0x20 ADD PUSH0 KECCAK256 PUSH0 SWAP1 SLOAD SWAP1 PUSH2 0x100 EXP SWAP1 DIV PUSH1 0xFF AND PUSH1 0x3 DUP2 GT ISZERO PUSH2 0x537 JUMPI PUSH2 0x536 PUSH2 0xA59 JUMP JUMPDEST JUMPDEST EQ PUSH2 0x577 JUMPI PUSH1 0x40 MLOAD PUSH32 0x8C379A000000000000000000000000000000000000000000000000000000000 DUP2 MSTORE PUSH1 0x4 ADD PUSH2 0x56E SWAP1 PUSH2 0xD33 JUMP JUMPDEST PUSH1 0x40 MLOAD DUP1 SWAP2 SUB SWAP1 REVERT JUMPDEST PUSH0 PUSH20 0xFFFFFFFFFFFFFFFFFFFFFFFFFFFFFFFFFFFFFFFF AND DUP2 PUSH20 0xFFFFFFFFFFFFFFFFFFFFFFFFFFFFFFFFFFFFFFFF AND SUB PUSH2 0x5E5 JUMPI PUSH1 0x40 MLOAD PUSH32 0x8C379A000000000000000000000000000000000000000000000000000000000 DUP2 MSTORE PUSH1 0x4 ADD PUSH2 0x5DC SWAP1 PUSH2 0xC63 JUMP JUMPDEST PUSH1 0x40 MLOAD DUP1 SWAP2 SUB SWAP1 REVERT JUMPDEST PUSH1 0x3 DUP1 DUP2 GT ISZERO PUSH2 0x5F8 JUMPI PUSH2 0x5F7 PUSH2 0xA59 JUMP JUMPDEST JUMPDEST PUSH0 PUSH0 DUP4 PUSH20 0xFFFFFFFFFFFFFFFFFFFFFFFFFFFFFFFFFFFFFFFF AND PUSH20 0xFFFFFFFFFFFFFFFFFFFFFFFFFFFFFFFFFFFFFFFF AND DUP2 MSTORE PUSH1 0x20 ADD SWAP1 DUP2 MSTORE PUSH1 0x20 ADD PUSH0 KECCAK256 PUSH0 SWAP1 SLOAD SWAP1 PUSH2 0x100 EXP SWAP1 DIV PUSH1 0xFF AND PUSH1 0x3 DUP2 GT ISZERO PUSH2 0x653 JUMPI PUSH2 0x652 PUSH2 0xA59 JUMP JUMPDEST JUMPDEST SUB PUSH2 0x693 JUMPI PUSH1 0x40 MLOAD PUSH32 0x8C379A000000000000000000000000000000000000000000000000000000000 DUP2 MSTORE PUSH1 0x4 ADD PUSH2 0x68A SWAP1 PUSH2 0xD9B JUMP JUMPDEST PUSH1 0x40 MLOAD DUP1 SWAP2 SUB SWAP1 REVERT JUMPDEST PUSH1 0x2 PUSH0 PUSH0 DUP4 PUSH20 0xFFFFFFFFFFFFFFFFFFFFFFFFFFFFFFFFFFFFFFFF AND PUSH20 0xFFFFFFFFFFFFFFFFFFFFFFFFFFFFFFFFFFFFFFFF AND DUP2 MSTORE PUSH1 0x20 ADD SWAP1 DUP2 MSTORE PUSH1 0x20 ADD PUSH0 KECCAK256 PUSH0 PUSH2 0x100 EXP DUP2 SLOAD DUP2 PUSH1 0xFF MUL NOT AND SWAP1 DUP4 PUSH1 0x3 DUP2 GT ISZERO PUSH2 0x6F2 JUMPI PUSH2 0x6F1 PUSH2 0xA59 JUMP JUMPDEST JUMPDEST MUL OR SWAP1 SSTORE POP DUP1 PUSH20 0xFFFFFFFFFFFFFFFFFFFFFFFFFFFFFFFFFFFFFFFF AND PUSH32 0x4AC36FA53F167CEB85964BE512E01DE2A3B8BDB9862F917DA079DEEEFF689B38 PUSH1 0x2 PUSH1 0x40 MLOAD PUSH2 0x73E SWAP2 SWAP1 PUSH2 0xACC JUMP JUMPDEST PUSH1 0x40 MLOAD DUP1 SWAP2 SUB SWAP1 LOG2 POP JUMP JUMPDEST PUSH1 0x3 DUP1 DUP2 GT ISZERO PUSH2 0x75C JUMPI PUSH2 0x75B PUSH2 0xA59 JUMP JUMPDEST JUMPDEST PUSH0 PUSH0 CALLER PUSH20 0xFFFFFFFFFFFFFFFFFFFFFFFFFFFFFFFFFFFFFFFF AND PUSH20 0xFFFFFFFFFFFFFFFFFFFFFFFFFFFFFFFFFFFFFFFF AND DUP2 MSTORE PUSH1 0x20 ADD SWAP1 DUP2 MSTORE PUSH1 0x20 ADD PUSH0 KECCAK256 PUSH0 SWAP1 SLOAD SWAP1 PUSH2 0x100 EXP SWAP1 DIV PUSH1 0xFF AND PUSH1 0x3 DUP2 GT ISZERO PUSH2 0x7B7 JUMPI PUSH2 0x7B6 PUSH2 0xA59 JUMP JUMPDEST JUMPDEST EQ PUSH2 0x7F7 JUMPI PUSH1 0x40 MLOAD PUSH32 0x8C379A000000000000000000000000000000000000000000000000000000000 DUP2 MSTORE PUSH1 0x4 ADD PUSH2 0x7EE SWAP1 PUSH2 0xD33 JUMP JUMPDEST PUSH1 0x40 MLOAD DUP1 SWAP2 SUB SWAP1 REVERT JUMPDEST PUSH1 0x1 PUSH0 SWAP1 SLOAD SWAP1 PUSH2 0x100 EXP SWAP1 DIV PUSH20 0xFFFFFFFFFFFFFFFFFFFFFFFFFFFFFFFFFFFFFFFF AND PUSH20 0xFFFFFFFFFFFFFFFFFFFFFFFFFFFFFFFFFFFFFFFF AND DUP2 PUSH20 0xFFFFFFFFFFFFFFFFFFFFFFFFFFFFFFFFFFFFFFFF AND SUB PUSH2 0x886 JUMPI PUSH1 0x40 MLOAD PUSH32 0x8C379A000000000000000000000000000000000000000000000000000000000 DUP2 MSTORE PUSH1 0x4 ADD PUSH2 0x87D SWAP1 PUSH2 0xE03 JUMP JUMPDEST PUSH1 0x40 MLOAD DUP1 SWAP2 SUB SWAP1 REVERT JUMPDEST PUSH0 PUSH0 DUP3 PUSH20 0xFFFFFFFFFFFFFFFFFFFFFFFFFFFFFFFFFFFFFFFF AND PUSH20 0xFFFFFFFFFFFFFFFFFFFFFFFFFFFFFFFFFFFFFFFF AND DUP2 MSTORE PUSH1 0x20 ADD SWAP1 DUP2 MSTORE PUSH1 0x20 ADD PUSH0 KECCAK256 PUSH0 PUSH2 0x100 EXP DUP2 SLOAD SWAP1 PUSH1 0xFF MUL NOT AND SWAP1 SSTORE DUP1 PUSH20 0xFFFFFFFFFFFFFFFFFFFFFFFFFFFFFFFFFFFFFFFF AND PUSH32 0x6107A4A5447A4208BA14E3EC240BCCF0A93828124CCF501AF04601031070B183 PUSH1 0x40 MLOAD PUSH1 0x40 MLOAD DUP1 SWAP2 SUB SWAP1 LOG2 POP JUMP JUMPDEST PUSH1 0x1 PUSH0 SWAP1 SLOAD SWAP1 PUSH2 0x100 EXP SWAP1 DIV PUSH20 0xFFFFFFFFFFFFFFFFFFFFFFFFFFFFFFFFFFFFFFFF AND DUP2 JUMP JUMPDEST PUSH0 DUP2 PUSH1 0x3 DUP2 GT ISZERO PUSH2 0x950 JUMPI PUSH2 0x94F PUSH2 0xA59 JUMP JUMPDEST JUMPDEST PUSH0 PUSH0 DUP6 PUSH20 0xFFFFFFFFFFFFFFFFFFFFFFFFFFFFFFFFFFFFFFFF AND PUSH20 0xFFFFFFFFFFFFFFFFFFFFFFFFFFFFFFFFFFFFFFFF AND DUP2 MSTORE PUSH1 0x20 ADD SWAP1 DUP2 MSTORE PUSH1 0x20 ADD PUSH0 KECCAK256 PUSH0 SWAP1 SLOAD SWAP1 PUSH2 0x100 EXP SWAP1 DIV PUSH1 0xFF AND PUSH1 0x3 DUP2 GT ISZERO PUSH2 0x9AB JUMPI PUSH2 0x9AA PUSH2 0xA59 JUMP JUMPDEST JUMPDEST EQ SWAP1 POP SWAP3 SWAP2 POP POP JUMP JUMPDEST PUSH0 PUSH1 0x20 MSTORE DUP1 PUSH0 MSTORE PUSH1 0x40 PUSH0 KECCAK256 PUSH0 SWAP2 POP SLOAD SWAP1 PUSH2 0x100 EXP SWAP1 DIV PUSH1 0xFF AND DUP2 JUMP JUMPDEST PUSH0 PUSH0 REVERT JUMPDEST PUSH0 PUSH20 0xFFFFFFFFFFFFFFFFFFFFFFFFFFFFFFFFFFFFFFFF DUP3 AND SWAP1 POP SWAP2 SWAP1 POP JUMP JUMPDEST PUSH0 PUSH2 0x9FD DUP3 PUSH2 0x9D4 JUMP JUMPDEST SWAP1 POP SWAP2 SWAP1 POP JUMP JUMPDEST PUSH2 0xA0D DUP2 PUSH2 0x9F3 JUMP JUMPDEST DUP2 EQ PUSH2 0xA17 JUMPI PUSH0 PUSH0 REVERT JUMPDEST POP JUMP JUMPDEST PUSH0 DUP2 CALLDATALOAD SWAP1 POP PUSH2 0xA28 DUP2 PUSH2 0xA04 JUMP JUMPDEST SWAP3 SWAP2 POP POP JUMP JUMPDEST PUSH0 PUSH1 0x20 DUP3 DUP5 SUB SLT ISZERO PUSH2 0xA43 JUMPI PUSH2 0xA42 PUSH2 0x9D0 JUMP JUMPDEST JUMPDEST PUSH0 PUSH2 0xA50 DUP5 DUP3 DUP6 ADD PUSH2 0xA1A JUMP JUMPDEST SWAP2 POP POP SWAP3 SWAP2 POP POP JUMP JUMPDEST PUSH32 0x4E487B7100000000000000000000000000000000000000000000000000000000 PUSH0 MSTORE PUSH1 0x21 PUSH1 0x4 MSTORE PUSH1 0x24 PUSH0 REVERT JUMPDEST PUSH1 0x4 DUP2 LT PUSH2 0xA97 JUMPI PUSH2 0xA96 PUSH2 0xA59 JUMP JUMPDEST JUMPDEST POP JUMP JUMPDEST PUSH0 DUP2 SWAP1 POP PUSH2 0xAA7 DUP3 PUSH2 0xA86 JUMP JUMPDEST SWAP2 SWAP1 POP JUMP JUMPDEST PUSH0 PUSH2 0xAB6 DUP3 PUSH2 0xA9A JUMP JUMPDEST SWAP1 POP SWAP2 SWAP1 POP JUMP JUMPDEST PUSH2 0xAC6 DUP2 PUSH2 0xAAC JUMP JUMPDEST DUP3 MSTORE POP POP JUMP JUMPDEST PUSH0 PUSH1 0x20 DUP3 ADD SWAP1 POP PUSH2 0xADF PUSH0 DUP4 ADD DUP5 PUSH2 0xABD JUMP JUMPDEST SWAP3 SWAP2 POP POP JUMP JUMPDEST PUSH2 0xAEE DUP2 PUSH2 0x9F3 JUMP JUMPDEST DUP3 MSTORE POP POP JUMP JUMPDEST PUSH0 PUSH1 0x20 DUP3 ADD SWAP1 POP PUSH2 0xB07 PUSH0 DUP4 ADD DUP5 PUSH2 0xAE5 JUMP JUMPDEST SWAP3 SWAP2 POP POP JUMP JUMPDEST PUSH1 0x4 DUP2 LT PUSH2 0xB19 JUMPI PUSH0 PUSH0 REVERT JUMPDEST POP JUMP JUMPDEST PUSH0 DUP2 CALLDATALOAD SWAP1 POP PUSH2 0xB2A DUP2 PUSH2 0xB0D JUMP JUMPDEST SWAP3 SWAP2 POP POP JUMP JUMPDEST PUSH0 PUSH0 PUSH1 0x40 DUP4 DUP6 SUB SLT ISZERO PUSH2 0xB46 JUMPI PUSH2 0xB45 PUSH2 0x9D0 JUMP JUMPDEST JUMPDEST PUSH0 PUSH2 0xB53 DUP6 DUP3 DUP7 ADD PUSH2 0xA1A JUMP JUMPDEST SWAP3 POP POP PUSH1 0x20 PUSH2 0xB64 DUP6 DUP3 DUP7 ADD PUSH2 0xB1C JUMP JUMPDEST SWAP2 POP POP SWAP3 POP SWAP3 SWAP1 POP JUMP JUMPDEST PUSH0 DUP2 ISZERO ISZERO SWAP1 POP SWAP2 SWAP1 POP JUMP JUMPDEST PUSH2 0xB82 DUP2 PUSH2 0xB6E JUMP JUMPDEST DUP3 MSTORE POP POP JUMP JUMPDEST PUSH0 PUSH1 0x20 DUP3 ADD SWAP1 POP PUSH2 0xB9B PUSH0 DUP4 ADD DUP5 PUSH2 0xB79 JUMP JUMPDEST SWAP3 SWAP2 POP POP JUMP JUMPDEST PUSH0 DUP3 DUP3 MSTORE PUSH1 0x20 DUP3 ADD SWAP1 POP SWAP3 SWAP2 POP POP JUMP JUMPDEST PUSH32 0x4F6E6C792061646D696E206F72206F776E65722063616E2063616C6C00000000 PUSH0 DUP3 ADD MSTORE POP JUMP JUMPDEST PUSH0 PUSH2 0xBE5 PUSH1 0x1C DUP4 PUSH2 0xBA1 JUMP JUMPDEST SWAP2 POP PUSH2 0xBF0 DUP3 PUSH2 0xBB1 JUMP JUMPDEST PUSH1 0x20 DUP3 ADD SWAP1 POP SWAP2 SWAP1 POP JUMP JUMPDEST PUSH0 PUSH1 0x20 DUP3 ADD SWAP1 POP DUP2 DUP2 SUB PUSH0 DUP4 ADD MSTORE PUSH2 0xC12 DUP2 PUSH2 0xBD9 JUMP JUMPDEST SWAP1 POP SWAP2 SWAP1 POP JUMP JUMPDEST PUSH32 0x496E76616C696420616464726573730000000000000000000000000000000000 PUSH0 DUP3 ADD MSTORE POP JUMP JUMPDEST PUSH0 PUSH2 0xC4D PUSH1 0xF DUP4 PUSH2 0xBA1 JUMP JUMPDEST SWAP2 POP PUSH2 0xC58 DUP3 PUSH2 0xC19 JUMP JUMPDEST PUSH1 0x20 DUP3 ADD SWAP1 POP SWAP2 SWAP1 POP JUMP JUMPDEST PUSH0 PUSH1 0x20 DUP3 ADD SWAP1 POP DUP2 DUP2 SUB PUSH0 DUP4 ADD MSTORE PUSH2 0xC7A DUP2 PUSH2 0xC41 JUMP JUMPDEST SWAP1 POP SWAP2 SWAP1 POP JUMP JUMPDEST PUSH32 0x5573657220616C726561647920686173206120726F6C65000000000000000000 PUSH0 DUP3 ADD MSTORE POP JUMP JUMPDEST PUSH0 PUSH2 0xCB5 PUSH1 0x17 DUP4 PUSH2 0xBA1 JUMP JUMPDEST SWAP2 POP PUSH2 0xCC0 DUP3 PUSH2 0xC81 JUMP JUMPDEST PUSH1 0x20 DUP3 ADD SWAP1 POP SWAP2 SWAP1 POP JUMP JUMPDEST PUSH0 PUSH1 0x20 DUP3 ADD SWAP1 POP DUP2 DUP2 SUB PUSH0 DUP4 ADD MSTORE PUSH2 0xCE2 DUP2 PUSH2 0xCA9 JUMP JUMPDEST SWAP1 POP SWAP2 SWAP1 POP JUMP JUMPDEST PUSH32 0x4F6E6C79206F776E65722063616E2063616C6C00000000000000000000000000 PUSH0 DUP3 ADD MSTORE POP JUMP JUMPDEST PUSH0 PUSH2 0xD1D PUSH1 0x13 DUP4 PUSH2 0xBA1 JUMP JUMPDEST SWAP2 POP PUSH2 0xD28 DUP3 PUSH2 0xCE9 JUMP JUMPDEST PUSH1 0x20 DUP3 ADD SWAP1 POP SWAP2 SWAP1 POP JUMP JUMPDEST PUSH0 PUSH1 0x20 DUP3 ADD SWAP1 POP DUP2 DUP2 SUB PUSH0 DUP4 ADD MSTORE PUSH2 0xD4A DUP2 PUSH2 0xD11 JUMP JUMPDEST SWAP1 POP SWAP2 SWAP1 POP JUMP JUMPDEST PUSH32 0x43616E6E6F74206368616E6765206F776E657220726F6C650000000000000000 PUSH0 DUP3 ADD MSTORE POP JUMP JUMPDEST PUSH0 PUSH2 0xD85 PUSH1 0x18 DUP4 PUSH2 0xBA1 JUMP JUMPDEST SWAP2 POP PUSH2 0xD90 DUP3 PUSH2 0xD51 JUMP JUMPDEST PUSH1 0x20 DUP3 ADD SWAP1 POP SWAP2 SWAP1 POP JUMP JUMPDEST PUSH0 PUSH1 0x20 DUP3 ADD SWAP1 POP DUP2 DUP2 SUB PUSH0 DUP4 ADD MSTORE PUSH2 0xDB2 DUP2 PUSH2 0xD79 JUMP JUMPDEST SWAP1 POP SWAP2 SWAP1 POP JUMP JUMPDEST PUSH32 0x43616E6E6F74207265766F6B65206F776E657220726F6C650000000000000000 PUSH0 DUP3 ADD MSTORE POP JUMP JUMPDEST PUSH0 PUSH2 0xDED PUSH1 0x18 DUP4 PUSH2 0xBA1 JUMP JUMPDEST SWAP2 POP PUSH2 0xDF8 DUP3 PUSH2 0xDB9 JUMP JUMPDEST PUSH1 0x20 DUP3 ADD SWAP1 POP SWAP2 SWAP1 POP JUMP JUMPDEST PUSH0 PUSH1 0x20 DUP3 ADD SWAP1 POP DUP2 DUP2 SUB PUSH0 DUP4 ADD MSTORE PUSH2 0xE1A DUP2 PUSH2 0xDE1 JUMP JUMPDEST SWAP1 POP SWAP2 SWAP1 POP JUMP INVALID LOG2 PUSH5 0x6970667358 0x22 SLT KECCAK256 PUSH22 0x86313886B882C1DB25E23337471AAF85529C8480A916 NUMBER RETURNDATACOPY SWAP15 SWAP14 REVERT SWAP9 0xB1 EXP 0xDB PUSH5 0x736F6C6343 STOP ADDMOD 0x1F STOP CALLER "
				},
				"gasEstimates": {
					"creation": {
						"codeDepositCost": "734200",
						"executionCost": "51072",
						"totalCost": "785272"
					},
					"external": {
						"addAdmin(address)": "31160",
						"addUser(address)": "33416",
						"getRole(address)": "2980",
						"hasRole(address,uint8)": "3099",
						"owner()": "2530",
						"revokeRole(address)": "30404",
						"roles(address)": "2986"
					}
				},
				"methodIdentifiers": {
					"addAdmin(address)": "70480275",
					"addUser(address)": "421b2d8b",
					"getRole(address)": "44276733",
					"hasRole(address,uint8)": "95a8c58d",
					"owner()": "8da5cb5b",
					"revokeRole(address)": "80e52e3f",
					"roles(address)": "99374642"
				}
			},
			"storageLayout": {
				"storage": [
					{
						"astId": 11,
						"contract": "contracts/lesson3.3/RoleManagement.sol:RoleManagement",
						"label": "roles",
						"offset": 0,
						"slot": "0",
						"type": "t_mapping(t_address,t_enum(Role)6)"
					},
					{
						"astId": 13,
						"contract": "contracts/lesson3.3/RoleManagement.sol:RoleManagement",
						"label": "owner",
						"offset": 0,
						"slot": "1",
						"type": "t_address"
					}
				],
				"types": {
					"t_address": {
						"encoding": "inplace",
						"label": "address",
						"numberOfBytes": "20"
					},
					"t_enum(Role)6": {
						"encoding": "inplace",
						"label": "enum RoleManagement.Role",
						"numberOfBytes": "1"
					},
					"t_mapping(t_address,t_enum(Role)6)": {
						"encoding": "mapping",
						"key": "t_address",
						"label": "mapping(address => enum RoleManagement.Role)",
						"numberOfBytes": "32",
						"value": "t_enum(Role)6"
					}
				}
			},
			"userdoc": {
				"kind": "user",
				"methods": {},
				"version": 1
			}
		}
	}
}