{
	"contracts/lesson3.1/SafeArrayManager.sol": {
		"SafeArrayManager": {
			"abi": [
				{
					"anonymous": false,
					"inputs": [
						{
							"indexed": false,
							"internalType": "uint256",
							"name": "value",
							"type": "uint256"
						},
						{
							"indexed": false,
							"internalType": "uint256",
							"name": "index",
							"type": "uint256"
						}
					],
					"name": "ElementAdded",
					"type": "event"
				},
				{
					"anonymous": false,
					"inputs": [
						{
							"indexed": false,
							"internalType": "uint256",
							"name": "index",
							"type": "uint256"
						},
						{
							"indexed": false,
							"internalType": "uint256",
							"name": "value",
							"type": "uint256"
						}
					],
					"name": "ElementRemoved",
					"type": "event"
				},
				{
					"inputs": [],
					"name": "MAX_SIZE",
					"outputs": [
						{
							"internalType": "uint256",
							"name": "",
							"type": "uint256"
						}
					],
					"stateMutability": "view",
					"type": "function"
				},
				{
					"inputs": [
						{
							"internalType": "uint256",
							"name": "",
							"type": "uint256"
						}
					],
					"name": "data",
					"outputs": [
						{
							"internalType": "uint256",
							"name": "",
							"type": "uint256"
						}
					],
					"stateMutability": "view",
					"type": "function"
				},
				{
					"inputs": [
						{
							"internalType": "uint256",
							"name": "value",
							"type": "uint256"
						}
					],
					"name": "findElement",
					"outputs": [
						{
							"internalType": "bool",
							"name": "",
							"type": "bool"
						},
						{
							"internalType": "uint256",
							"name": "",
							"type": "uint256"
						}
					],
					"stateMutability": "view",
					"type": "function"
				},
				{
					"inputs": [],
					"name": "getAll",
					"outputs": [
						{
							"internalType": "uint256[]",
							"name": "",
							"type": "uint256[]"
						}
					],
					"stateMutability": "view",
					"type": "function"
				},
				{
					"inputs": [],
					"name": "getLength",
					"outputs": [
						{
							"internalType": "uint256",
							"name": "",
							"type": "uint256"
						}
					],
					"stateMutability": "view",
					"type": "function"
				},
				{
					"inputs": [],
					"name": "isEmpty",
					"outputs": [
						{
							"internalType": "bool",
							"name": "",
							"type": "bool"
						}
					],
					"stateMutability": "view",
					"type": "function"
				},
				{
					"inputs": [],
					"name": "isFull",
					"outputs": [
						{
							"internalType": "bool",
							"name": "",
							"type": "bool"
						}
					],
					"stateMutability": "view",
					"type": "function"
				},
				{
					"inputs": [
						{
							"internalType": "uint256",
							"name": "index",
							"type": "uint256"
						}
					],
					"name": "removeOrdered",
					"outputs": [],
					"stateMutability": "nonpayable",
					"type": "function"
				},
				{
					"inputs": [
						{
							"internalType": "uint256",
							"name": "index",
							"type": "uint256"
						}
					],
					"name": "removeUnordered",
					"outputs": [],
					"stateMutability": "nonpayable",
					"type": "function"
				},
				{
					"inputs": [
						{
							"internalType": "uint256",
							"name": "value",
							"type": "uint256"
						}
					],
					"name": "safePush",
					"outputs": [],
					"stateMutability": "nonpayable",
					"type": "function"
				},
				{
					"inputs": [
						{
							"internalType": "uint256",
							"name": "start",
							"type": "uint256"
						},
						{
							"internalType": "uint256",
							"name": "end",
							"type": "uint256"
						}
					],
					"name": "sumRange",
					"outputs": [
						{
							"internalType": "uint256",
							"name": "",
							"type": "uint256"
						}
					],
					"stateMutability": "view",
					"type": "function"
				}
			],
			"devdoc": {
				"kind": "dev",
				"methods": {},
				"version": 1
			},
			"evm": {
				"assembly": "    /* \"contracts/lesson3.1/SafeArrayManager.sol\":57:2537  contract SafeArrayManager {... */\n  mstore(0x40, 0x80)\n  callvalue\n  dup1\n  iszero\n  tag_1\n  jumpi\n  revert(0x00, 0x00)\ntag_1:\n  pop\n  dataSize(sub_0)\n  dup1\n  dataOffset(sub_0)\n  0x00\n  codecopy\n  0x00\n  return\nstop\n\nsub_0: assembly {\n        /* \"contracts/lesson3.1/SafeArrayManager.sol\":57:2537  contract SafeArrayManager {... */\n      mstore(0x40, 0x80)\n      callvalue\n      dup1\n      iszero\n      tag_1\n      jumpi\n      revert(0x00, 0x00)\n    tag_1:\n      pop\n      jumpi(tag_2, lt(calldatasize, 0x04))\n      shr(0xe0, calldataload(0x00))\n      dup1\n      0xa214547f\n      gt\n      tag_14\n      jumpi\n      dup1\n      0xa214547f\n      eq\n      tag_8\n      jumpi\n      dup1\n      0xa6158fdb\n      eq\n      tag_9\n      jumpi\n      dup1\n      0xbabd3d9a\n      eq\n      tag_10\n      jumpi\n      dup1\n      0xbe1c766b\n      eq\n      tag_11\n      jumpi\n      dup1\n      0xe990b43d\n      eq\n      tag_12\n      jumpi\n      dup1\n      0xf0ba8440\n      eq\n      tag_13\n      jumpi\n      jump(tag_2)\n    tag_14:\n      dup1\n      0x3b3c4ec5\n      eq\n      tag_3\n      jumpi\n      dup1\n      0x3e275690\n      eq\n      tag_4\n      jumpi\n      dup1\n      0x53ed5143\n      eq\n      tag_5\n      jumpi\n      dup1\n      0x681fe70c\n      eq\n      tag_6\n      jumpi\n      dup1\n      0x8d67799e\n      eq\n      tag_7\n      jumpi\n    tag_2:\n      revert(0x00, 0x00)\n        /* \"contracts/lesson3.1/SafeArrayManager.sol\":1001:1342  function removeUnordered(uint index) public {... */\n    tag_3:\n      tag_15\n      0x04\n      dup1\n      calldatasize\n      sub\n      dup2\n      add\n      swap1\n      tag_16\n      swap2\n      swap1\n      tag_17\n      jump\t// in\n    tag_16:\n      tag_18\n      jump\t// in\n    tag_15:\n      stop\n        /* \"contracts/lesson3.1/SafeArrayManager.sol\":310:544  function safePush(uint value) public {... */\n    tag_4:\n      tag_19\n      0x04\n      dup1\n      calldatasize\n      sub\n      dup2\n      add\n      swap1\n      tag_20\n      swap2\n      swap1\n      tag_17\n      jump\t// in\n    tag_20:\n      tag_21\n      jump\t// in\n    tag_19:\n      stop\n        /* \"contracts/lesson3.1/SafeArrayManager.sol\":2124:2236  function getAll() public view returns (uint[] memory) {... */\n    tag_5:\n      tag_22\n      tag_23\n      jump\t// in\n    tag_22:\n      mload(0x40)\n      tag_24\n      swap2\n      swap1\n      tag_25\n      jump\t// in\n    tag_24:\n      mload(0x40)\n      dup1\n      swap2\n      sub\n      swap1\n      return\n        /* \"contracts/lesson3.1/SafeArrayManager.sol\":2351:2437  function isEmpty() public view returns (bool) {... */\n    tag_6:\n      tag_26\n      tag_27\n      jump\t// in\n    tag_26:\n      mload(0x40)\n      tag_28\n      swap2\n      swap1\n      tag_29\n      jump\t// in\n    tag_28:\n      mload(0x40)\n      dup1\n      swap2\n      sub\n      swap1\n      return\n        /* \"contracts/lesson3.1/SafeArrayManager.sol\":113:148  uint public constant MAX_SIZE = 100 */\n    tag_7:\n      tag_30\n      tag_31\n      jump\t// in\n    tag_30:\n      mload(0x40)\n      tag_32\n      swap2\n      swap1\n      tag_33\n      jump\t// in\n    tag_32:\n      mload(0x40)\n      dup1\n      swap2\n      sub\n      swap1\n      return\n        /* \"contracts/lesson3.1/SafeArrayManager.sol\":1371:1730  function sumRange(uint start, uint end) public view returns (uint) {... */\n    tag_8:\n      tag_34\n      0x04\n      dup1\n      calldatasize\n      sub\n      dup2\n      add\n      swap1\n      tag_35\n      swap2\n      swap1\n      tag_36\n      jump\t// in\n    tag_35:\n      tag_37\n      jump\t// in\n    tag_34:\n      mload(0x40)\n      tag_38\n      swap2\n      swap1\n      tag_33\n      jump\t// in\n    tag_38:\n      mload(0x40)\n      dup1\n      swap2\n      sub\n      swap1\n      return\n        /* \"contracts/lesson3.1/SafeArrayManager.sol\":573:972  function removeOrdered(uint index) public {... */\n    tag_9:\n      tag_39\n      0x04\n      dup1\n      calldatasize\n      sub\n      dup2\n      add\n      swap1\n      tag_40\n      swap2\n      swap1\n      tag_17\n      jump\t// in\n    tag_40:\n      tag_41\n      jump\t// in\n    tag_39:\n      stop\n        /* \"contracts/lesson3.1/SafeArrayManager.sol\":2443:2535  function isFull() public view returns (bool) {... */\n    tag_10:\n      tag_42\n      tag_43\n      jump\t// in\n    tag_42:\n      mload(0x40)\n      tag_44\n      swap2\n      swap1\n      tag_29\n      jump\t// in\n    tag_44:\n      mload(0x40)\n      dup1\n      swap2\n      sub\n      swap1\n      return\n        /* \"contracts/lesson3.1/SafeArrayManager.sol\":2262:2345  function getLength() public view returns (uint) {... */\n    tag_11:\n      tag_45\n      tag_46\n      jump\t// in\n    tag_45:\n      mload(0x40)\n      tag_47\n      swap2\n      swap1\n      tag_33\n      jump\t// in\n    tag_47:\n      mload(0x40)\n      dup1\n      swap2\n      sub\n      swap1\n      return\n        /* \"contracts/lesson3.1/SafeArrayManager.sol\":1759:2089  function findElement(uint value) public view returns (bool, uint) {... */\n    tag_12:\n      tag_48\n      0x04\n      dup1\n      calldatasize\n      sub\n      dup2\n      add\n      swap1\n      tag_49\n      swap2\n      swap1\n      tag_17\n      jump\t// in\n    tag_49:\n      tag_50\n      jump\t// in\n    tag_48:\n      mload(0x40)\n      tag_51\n      swap3\n      swap2\n      swap1\n      tag_52\n      jump\t// in\n    tag_51:\n      mload(0x40)\n      dup1\n      swap2\n      sub\n      swap1\n      return\n        /* \"contracts/lesson3.1/SafeArrayManager.sol\":89:107  uint[] public data */\n    tag_13:\n      tag_53\n      0x04\n      dup1\n      calldatasize\n      sub\n      dup2\n      add\n      swap1\n      tag_54\n      swap2\n      swap1\n      tag_17\n      jump\t// in\n    tag_54:\n      tag_55\n      jump\t// in\n    tag_53:\n      mload(0x40)\n      tag_56\n      swap2\n      swap1\n      tag_33\n      jump\t// in\n    tag_56:\n      mload(0x40)\n      dup1\n      swap2\n      sub\n      swap1\n      return\n        /* \"contracts/lesson3.1/SafeArrayManager.sol\":1001:1342  function removeUnordered(uint index) public {... */\n    tag_18:\n        /* \"contracts/lesson3.1/SafeArrayManager.sol\":1095:1099  data */\n      0x00\n        /* \"contracts/lesson3.1/SafeArrayManager.sol\":1095:1106  data.length */\n      dup1\n      sload\n      swap1\n      pop\n        /* \"contracts/lesson3.1/SafeArrayManager.sol\":1087:1092  index */\n      dup2\n        /* \"contracts/lesson3.1/SafeArrayManager.sol\":1087:1106  index < data.length */\n      lt\n        /* \"contracts/lesson3.1/SafeArrayManager.sol\":1079:1130  require(index < data.length, \"Index out of bounds\") */\n      tag_58\n      jumpi\n      mload(0x40)\n      0x08c379a000000000000000000000000000000000000000000000000000000000\n      dup2\n      mstore\n      0x04\n      add\n      tag_59\n      swap1\n      tag_60\n      jump\t// in\n    tag_59:\n      mload(0x40)\n      dup1\n      swap2\n      sub\n      swap1\n      revert\n    tag_58:\n        /* \"contracts/lesson3.1/SafeArrayManager.sol\":1173:1190  uint removedValue */\n      0x00\n        /* \"contracts/lesson3.1/SafeArrayManager.sol\":1193:1197  data */\n      0x00\n        /* \"contracts/lesson3.1/SafeArrayManager.sol\":1198:1203  index */\n      dup3\n        /* \"contracts/lesson3.1/SafeArrayManager.sol\":1193:1204  data[index] */\n      dup2\n      sload\n      dup2\n      lt\n      tag_61\n      jumpi\n      tag_62\n      tag_63\n      jump\t// in\n    tag_62:\n    tag_61:\n      swap1\n      0x00\n      mstore\n      keccak256(0x00, 0x20)\n      add\n      sload\n        /* \"contracts/lesson3.1/SafeArrayManager.sol\":1173:1204  uint removedValue = data[index] */\n      swap1\n      pop\n        /* \"contracts/lesson3.1/SafeArrayManager.sol\":1228:1232  data */\n      0x00\n        /* \"contracts/lesson3.1/SafeArrayManager.sol\":1247:1248  1 */\n      0x01\n        /* \"contracts/lesson3.1/SafeArrayManager.sol\":1233:1237  data */\n      0x00\n        /* \"contracts/lesson3.1/SafeArrayManager.sol\":1233:1244  data.length */\n      dup1\n      sload\n      swap1\n      pop\n        /* \"contracts/lesson3.1/SafeArrayManager.sol\":1233:1248  data.length - 1 */\n      tag_65\n      swap2\n      swap1\n      tag_66\n      jump\t// in\n    tag_65:\n        /* \"contracts/lesson3.1/SafeArrayManager.sol\":1228:1249  data[data.length - 1] */\n      dup2\n      sload\n      dup2\n      lt\n      tag_67\n      jumpi\n      tag_68\n      tag_63\n      jump\t// in\n    tag_68:\n    tag_67:\n      swap1\n      0x00\n      mstore\n      keccak256(0x00, 0x20)\n      add\n      sload\n        /* \"contracts/lesson3.1/SafeArrayManager.sol\":1214:1218  data */\n      0x00\n        /* \"contracts/lesson3.1/SafeArrayManager.sol\":1219:1224  index */\n      dup4\n        /* \"contracts/lesson3.1/SafeArrayManager.sol\":1214:1225  data[index] */\n      dup2\n      sload\n      dup2\n      lt\n      tag_70\n      jumpi\n      tag_71\n      tag_63\n      jump\t// in\n    tag_71:\n    tag_70:\n      swap1\n      0x00\n      mstore\n      keccak256(0x00, 0x20)\n      add\n        /* \"contracts/lesson3.1/SafeArrayManager.sol\":1214:1249  data[index] = data[data.length - 1] */\n      dup2\n      swap1\n      sstore\n      pop\n        /* \"contracts/lesson3.1/SafeArrayManager.sol\":1274:1278  data */\n      0x00\n        /* \"contracts/lesson3.1/SafeArrayManager.sol\":1274:1284  data.pop() */\n      dup1\n      sload\n      dup1\n      tag_73\n      jumpi\n      tag_74\n      tag_75\n      jump\t// in\n    tag_74:\n    tag_73:\n      0x01\n      swap1\n      sub\n      dup2\n      dup2\n      swap1\n      0x00\n      mstore\n      keccak256(0x00, 0x20)\n      add\n      0x00\n      swap1\n      sstore\n      swap1\n      sstore\n        /* \"contracts/lesson3.1/SafeArrayManager.sol\":1300:1335  ElementRemoved(index, removedValue) */\n      0xba10c01016e1ba3d916c047d943e6b907f35c5ac8d52f6d21605c3f15747863d\n        /* \"contracts/lesson3.1/SafeArrayManager.sol\":1315:1320  index */\n      dup3\n        /* \"contracts/lesson3.1/SafeArrayManager.sol\":1322:1334  removedValue */\n      dup3\n        /* \"contracts/lesson3.1/SafeArrayManager.sol\":1300:1335  ElementRemoved(index, removedValue) */\n      mload(0x40)\n      tag_77\n      swap3\n      swap2\n      swap1\n      tag_78\n      jump\t// in\n    tag_77:\n      mload(0x40)\n      dup1\n      swap2\n      sub\n      swap1\n      log1\n        /* \"contracts/lesson3.1/SafeArrayManager.sol\":1045:1342  {... */\n      pop\n        /* \"contracts/lesson3.1/SafeArrayManager.sol\":1001:1342  function removeUnordered(uint index) public {... */\n      pop\n      jump\t// out\n        /* \"contracts/lesson3.1/SafeArrayManager.sol\":310:544  function safePush(uint value) public {... */\n    tag_21:\n        /* \"contracts/lesson3.1/SafeArrayManager.sol\":145:148  100 */\n      0x64\n        /* \"contracts/lesson3.1/SafeArrayManager.sol\":395:399  data */\n      0x00\n        /* \"contracts/lesson3.1/SafeArrayManager.sol\":395:406  data.length */\n      dup1\n      sload\n      swap1\n      pop\n        /* \"contracts/lesson3.1/SafeArrayManager.sol\":395:417  data.length < MAX_SIZE */\n      lt\n        /* \"contracts/lesson3.1/SafeArrayManager.sol\":387:435  require(data.length < MAX_SIZE, \"Array is full\") */\n      tag_80\n      jumpi\n      mload(0x40)\n      0x08c379a000000000000000000000000000000000000000000000000000000000\n      dup2\n      mstore\n      0x04\n      add\n      tag_81\n      swap1\n      tag_82\n      jump\t// in\n    tag_81:\n      mload(0x40)\n      dup1\n      swap2\n      sub\n      swap1\n      revert\n    tag_80:\n        /* \"contracts/lesson3.1/SafeArrayManager.sol\":469:473  data */\n      0x00\n        /* \"contracts/lesson3.1/SafeArrayManager.sol\":479:484  value */\n      dup2\n        /* \"contracts/lesson3.1/SafeArrayManager.sol\":469:485  data.push(value) */\n      swap1\n      dup1\n      0x01\n      dup2\n      sload\n      add\n      dup1\n      dup3\n      sstore\n      dup1\n      swap2\n      pop\n      pop\n      0x01\n      swap1\n      sub\n      swap1\n      0x00\n      mstore\n      keccak256(0x00, 0x20)\n      add\n      0x00\n      swap1\n      swap2\n      swap1\n      swap2\n      swap1\n      swap2\n      pop\n      sstore\n        /* \"contracts/lesson3.1/SafeArrayManager.sol\":501:537  ElementAdded(value, data.length - 1) */\n      0xbd35ac9d9fbb5226d89e93adfa98f5001ea8e74d5a8506d7c034b868d08ace58\n        /* \"contracts/lesson3.1/SafeArrayManager.sol\":514:519  value */\n      dup2\n        /* \"contracts/lesson3.1/SafeArrayManager.sol\":535:536  1 */\n      0x01\n        /* \"contracts/lesson3.1/SafeArrayManager.sol\":521:525  data */\n      0x00\n        /* \"contracts/lesson3.1/SafeArrayManager.sol\":521:532  data.length */\n      dup1\n      sload\n      swap1\n      pop\n        /* \"contracts/lesson3.1/SafeArrayManager.sol\":521:536  data.length - 1 */\n      tag_84\n      swap2\n      swap1\n      tag_66\n      jump\t// in\n    tag_84:\n        /* \"contracts/lesson3.1/SafeArrayManager.sol\":501:537  ElementAdded(value, data.length - 1) */\n      mload(0x40)\n      tag_85\n      swap3\n      swap2\n      swap1\n      tag_78\n      jump\t// in\n    tag_85:\n      mload(0x40)\n      dup1\n      swap2\n      sub\n      swap1\n      log1\n        /* \"contracts/lesson3.1/SafeArrayManager.sol\":310:544  function safePush(uint value) public {... */\n      pop\n      jump\t// out\n        /* \"contracts/lesson3.1/SafeArrayManager.sol\":2124:2236  function getAll() public view returns (uint[] memory) {... */\n    tag_23:\n        /* \"contracts/lesson3.1/SafeArrayManager.sol\":2163:2176  uint[] memory */\n      0x60\n        /* \"contracts/lesson3.1/SafeArrayManager.sol\":2225:2229  data */\n      0x00\n        /* \"contracts/lesson3.1/SafeArrayManager.sol\":2218:2229  return data */\n      dup1\n      sload\n      dup1\n      0x20\n      mul\n      0x20\n      add\n      mload(0x40)\n      swap1\n      dup2\n      add\n      0x40\n      mstore\n      dup1\n      swap3\n      swap2\n      swap1\n      dup2\n      dup2\n      mstore\n      0x20\n      add\n      dup3\n      dup1\n      sload\n      dup1\n      iszero\n      tag_87\n      jumpi\n      0x20\n      mul\n      dup3\n      add\n      swap2\n      swap1\n      0x00\n      mstore\n      keccak256(0x00, 0x20)\n      swap1\n    tag_88:\n      dup2\n      sload\n      dup2\n      mstore\n      0x20\n      add\n      swap1\n      0x01\n      add\n      swap1\n      dup1\n      dup4\n      gt\n      tag_88\n      jumpi\n    tag_87:\n      pop\n      pop\n      pop\n      pop\n      pop\n      swap1\n      pop\n        /* \"contracts/lesson3.1/SafeArrayManager.sol\":2124:2236  function getAll() public view returns (uint[] memory) {... */\n      swap1\n      jump\t// out\n        /* \"contracts/lesson3.1/SafeArrayManager.sol\":2351:2437  function isEmpty() public view returns (bool) {... */\n    tag_27:\n        /* \"contracts/lesson3.1/SafeArrayManager.sol\":2391:2395  bool */\n      0x00\n        /* \"contracts/lesson3.1/SafeArrayManager.sol\":2429:2430  0 */\n      0x00\n        /* \"contracts/lesson3.1/SafeArrayManager.sol\":2414:2418  data */\n      0x00\n        /* \"contracts/lesson3.1/SafeArrayManager.sol\":2414:2425  data.length */\n      dup1\n      sload\n      swap1\n      pop\n        /* \"contracts/lesson3.1/SafeArrayManager.sol\":2414:2430  data.length == 0 */\n      eq\n        /* \"contracts/lesson3.1/SafeArrayManager.sol\":2407:2430  return data.length == 0 */\n      swap1\n      pop\n        /* \"contracts/lesson3.1/SafeArrayManager.sol\":2351:2437  function isEmpty() public view returns (bool) {... */\n      swap1\n      jump\t// out\n        /* \"contracts/lesson3.1/SafeArrayManager.sol\":113:148  uint public constant MAX_SIZE = 100 */\n    tag_31:\n        /* \"contracts/lesson3.1/SafeArrayManager.sol\":145:148  100 */\n      0x64\n        /* \"contracts/lesson3.1/SafeArrayManager.sol\":113:148  uint public constant MAX_SIZE = 100 */\n      dup2\n      jump\t// out\n        /* \"contracts/lesson3.1/SafeArrayManager.sol\":1371:1730  function sumRange(uint start, uint end) public view returns (uint) {... */\n    tag_37:\n        /* \"contracts/lesson3.1/SafeArrayManager.sol\":1432:1436  uint */\n      0x00\n        /* \"contracts/lesson3.1/SafeArrayManager.sol\":1488:1491  end */\n      dup2\n        /* \"contracts/lesson3.1/SafeArrayManager.sol\":1480:1485  start */\n      dup4\n        /* \"contracts/lesson3.1/SafeArrayManager.sol\":1480:1491  start < end */\n      lt\n        /* \"contracts/lesson3.1/SafeArrayManager.sol\":1472:1509  require(start < end, \"Invalid range\") */\n      tag_91\n      jumpi\n      mload(0x40)\n      0x08c379a000000000000000000000000000000000000000000000000000000000\n      dup2\n      mstore\n      0x04\n      add\n      tag_92\n      swap1\n      tag_93\n      jump\t// in\n    tag_92:\n      mload(0x40)\n      dup1\n      swap2\n      sub\n      swap1\n      revert\n    tag_91:\n        /* \"contracts/lesson3.1/SafeArrayManager.sol\":1534:1538  data */\n      0x00\n        /* \"contracts/lesson3.1/SafeArrayManager.sol\":1534:1545  data.length */\n      dup1\n      sload\n      swap1\n      pop\n        /* \"contracts/lesson3.1/SafeArrayManager.sol\":1527:1530  end */\n      dup3\n        /* \"contracts/lesson3.1/SafeArrayManager.sol\":1527:1545  end <= data.length */\n      gt\n      iszero\n        /* \"contracts/lesson3.1/SafeArrayManager.sol\":1519:1567  require(end <= data.length, \"End out of bounds\") */\n      tag_94\n      jumpi\n      mload(0x40)\n      0x08c379a000000000000000000000000000000000000000000000000000000000\n      dup2\n      mstore\n      0x04\n      add\n      tag_95\n      swap1\n      tag_96\n      jump\t// in\n    tag_95:\n      mload(0x40)\n      dup1\n      swap2\n      sub\n      swap1\n      revert\n    tag_94:\n        /* \"contracts/lesson3.1/SafeArrayManager.sol\":1602:1612  uint total */\n      0x00\n        /* \"contracts/lesson3.1/SafeArrayManager.sol\":1615:1616  0 */\n      0x00\n        /* \"contracts/lesson3.1/SafeArrayManager.sol\":1602:1616  uint total = 0 */\n      swap1\n      pop\n        /* \"contracts/lesson3.1/SafeArrayManager.sol\":1631:1637  uint i */\n      0x00\n        /* \"contracts/lesson3.1/SafeArrayManager.sol\":1640:1645  start */\n      dup5\n        /* \"contracts/lesson3.1/SafeArrayManager.sol\":1631:1645  uint i = start */\n      swap1\n      pop\n        /* \"contracts/lesson3.1/SafeArrayManager.sol\":1626:1702  for (uint i = start; i < end; i++) {... */\n    tag_97:\n        /* \"contracts/lesson3.1/SafeArrayManager.sol\":1651:1654  end */\n      dup4\n        /* \"contracts/lesson3.1/SafeArrayManager.sol\":1647:1648  i */\n      dup2\n        /* \"contracts/lesson3.1/SafeArrayManager.sol\":1647:1654  i < end */\n      lt\n        /* \"contracts/lesson3.1/SafeArrayManager.sol\":1626:1702  for (uint i = start; i < end; i++) {... */\n      iszero\n      tag_98\n      jumpi\n        /* \"contracts/lesson3.1/SafeArrayManager.sol\":1684:1688  data */\n      0x00\n        /* \"contracts/lesson3.1/SafeArrayManager.sol\":1689:1690  i */\n      dup2\n        /* \"contracts/lesson3.1/SafeArrayManager.sol\":1684:1691  data[i] */\n      dup2\n      sload\n      dup2\n      lt\n      tag_100\n      jumpi\n      tag_101\n      tag_63\n      jump\t// in\n    tag_101:\n    tag_100:\n      swap1\n      0x00\n      mstore\n      keccak256(0x00, 0x20)\n      add\n      sload\n        /* \"contracts/lesson3.1/SafeArrayManager.sol\":1675:1691  total += data[i] */\n      dup3\n      tag_103\n      swap2\n      swap1\n      tag_104\n      jump\t// in\n    tag_103:\n      swap2\n      pop\n        /* \"contracts/lesson3.1/SafeArrayManager.sol\":1656:1659  i++ */\n      dup1\n      dup1\n      0x01\n      add\n      swap2\n      pop\n      pop\n        /* \"contracts/lesson3.1/SafeArrayManager.sol\":1626:1702  for (uint i = start; i < end; i++) {... */\n      jump(tag_97)\n    tag_98:\n      pop\n        /* \"contracts/lesson3.1/SafeArrayManager.sol\":1718:1723  total */\n      dup1\n        /* \"contracts/lesson3.1/SafeArrayManager.sol\":1711:1723  return total */\n      swap2\n      pop\n      pop\n        /* \"contracts/lesson3.1/SafeArrayManager.sol\":1371:1730  function sumRange(uint start, uint end) public view returns (uint) {... */\n      swap3\n      swap2\n      pop\n      pop\n      jump\t// out\n        /* \"contracts/lesson3.1/SafeArrayManager.sol\":573:972  function removeOrdered(uint index) public {... */\n    tag_41:\n        /* \"contracts/lesson3.1/SafeArrayManager.sol\":665:669  data */\n      0x00\n        /* \"contracts/lesson3.1/SafeArrayManager.sol\":665:676  data.length */\n      dup1\n      sload\n      swap1\n      pop\n        /* \"contracts/lesson3.1/SafeArrayManager.sol\":657:662  index */\n      dup2\n        /* \"contracts/lesson3.1/SafeArrayManager.sol\":657:676  index < data.length */\n      lt\n        /* \"contracts/lesson3.1/SafeArrayManager.sol\":649:700  require(index < data.length, \"Index out of bounds\") */\n      tag_106\n      jumpi\n      mload(0x40)\n      0x08c379a000000000000000000000000000000000000000000000000000000000\n      dup2\n      mstore\n      0x04\n      add\n      tag_107\n      swap1\n      tag_60\n      jump\t// in\n    tag_107:\n      mload(0x40)\n      dup1\n      swap2\n      sub\n      swap1\n      revert\n    tag_106:\n        /* \"contracts/lesson3.1/SafeArrayManager.sol\":734:751  uint removedValue */\n      0x00\n        /* \"contracts/lesson3.1/SafeArrayManager.sol\":754:758  data */\n      0x00\n        /* \"contracts/lesson3.1/SafeArrayManager.sol\":759:764  index */\n      dup3\n        /* \"contracts/lesson3.1/SafeArrayManager.sol\":754:765  data[index] */\n      dup2\n      sload\n      dup2\n      lt\n      tag_108\n      jumpi\n      tag_109\n      tag_63\n      jump\t// in\n    tag_109:\n    tag_108:\n      swap1\n      0x00\n      mstore\n      keccak256(0x00, 0x20)\n      add\n      sload\n        /* \"contracts/lesson3.1/SafeArrayManager.sol\":734:765  uint removedValue = data[index] */\n      swap1\n      pop\n        /* \"contracts/lesson3.1/SafeArrayManager.sol\":780:786  uint i */\n      0x00\n        /* \"contracts/lesson3.1/SafeArrayManager.sol\":789:794  index */\n      dup3\n        /* \"contracts/lesson3.1/SafeArrayManager.sol\":780:794  uint i = index */\n      swap1\n      pop\n        /* \"contracts/lesson3.1/SafeArrayManager.sol\":775:868  for (uint i = index; i < data.length - 1; i++) {... */\n    tag_111:\n        /* \"contracts/lesson3.1/SafeArrayManager.sol\":814:815  1 */\n      0x01\n        /* \"contracts/lesson3.1/SafeArrayManager.sol\":800:804  data */\n      0x00\n        /* \"contracts/lesson3.1/SafeArrayManager.sol\":800:811  data.length */\n      dup1\n      sload\n      swap1\n      pop\n        /* \"contracts/lesson3.1/SafeArrayManager.sol\":800:815  data.length - 1 */\n      tag_114\n      swap2\n      swap1\n      tag_66\n      jump\t// in\n    tag_114:\n        /* \"contracts/lesson3.1/SafeArrayManager.sol\":796:797  i */\n      dup2\n        /* \"contracts/lesson3.1/SafeArrayManager.sol\":796:815  i < data.length - 1 */\n      lt\n        /* \"contracts/lesson3.1/SafeArrayManager.sol\":775:868  for (uint i = index; i < data.length - 1; i++) {... */\n      iszero\n      tag_112\n      jumpi\n        /* \"contracts/lesson3.1/SafeArrayManager.sol\":846:850  data */\n      0x00\n        /* \"contracts/lesson3.1/SafeArrayManager.sol\":855:856  1 */\n      0x01\n        /* \"contracts/lesson3.1/SafeArrayManager.sol\":851:852  i */\n      dup3\n        /* \"contracts/lesson3.1/SafeArrayManager.sol\":851:856  i + 1 */\n      tag_115\n      swap2\n      swap1\n      tag_104\n      jump\t// in\n    tag_115:\n        /* \"contracts/lesson3.1/SafeArrayManager.sol\":846:857  data[i + 1] */\n      dup2\n      sload\n      dup2\n      lt\n      tag_116\n      jumpi\n      tag_117\n      tag_63\n      jump\t// in\n    tag_117:\n    tag_116:\n      swap1\n      0x00\n      mstore\n      keccak256(0x00, 0x20)\n      add\n      sload\n        /* \"contracts/lesson3.1/SafeArrayManager.sol\":836:840  data */\n      0x00\n        /* \"contracts/lesson3.1/SafeArrayManager.sol\":841:842  i */\n      dup3\n        /* \"contracts/lesson3.1/SafeArrayManager.sol\":836:843  data[i] */\n      dup2\n      sload\n      dup2\n      lt\n      tag_119\n      jumpi\n      tag_120\n      tag_63\n      jump\t// in\n    tag_120:\n    tag_119:\n      swap1\n      0x00\n      mstore\n      keccak256(0x00, 0x20)\n      add\n        /* \"contracts/lesson3.1/SafeArrayManager.sol\":836:857  data[i] = data[i + 1] */\n      dup2\n      swap1\n      sstore\n      pop\n        /* \"contracts/lesson3.1/SafeArrayManager.sol\":817:820  i++ */\n      dup1\n      dup1\n      0x01\n      add\n      swap2\n      pop\n      pop\n        /* \"contracts/lesson3.1/SafeArrayManager.sol\":775:868  for (uint i = index; i < data.length - 1; i++) {... */\n      jump(tag_111)\n    tag_112:\n      pop\n        /* \"contracts/lesson3.1/SafeArrayManager.sol\":904:908  data */\n      0x00\n        /* \"contracts/lesson3.1/SafeArrayManager.sol\":904:914  data.pop() */\n      dup1\n      sload\n      dup1\n      tag_122\n      jumpi\n      tag_123\n      tag_75\n      jump\t// in\n    tag_123:\n    tag_122:\n      0x01\n      swap1\n      sub\n      dup2\n      dup2\n      swap1\n      0x00\n      mstore\n      keccak256(0x00, 0x20)\n      add\n      0x00\n      swap1\n      sstore\n      swap1\n      sstore\n        /* \"contracts/lesson3.1/SafeArrayManager.sol\":930:965  ElementRemoved(index, removedValue) */\n      0xba10c01016e1ba3d916c047d943e6b907f35c5ac8d52f6d21605c3f15747863d\n        /* \"contracts/lesson3.1/SafeArrayManager.sol\":945:950  index */\n      dup3\n        /* \"contracts/lesson3.1/SafeArrayManager.sol\":952:964  removedValue */\n      dup3\n        /* \"contracts/lesson3.1/SafeArrayManager.sol\":930:965  ElementRemoved(index, removedValue) */\n      mload(0x40)\n      tag_125\n      swap3\n      swap2\n      swap1\n      tag_78\n      jump\t// in\n    tag_125:\n      mload(0x40)\n      dup1\n      swap2\n      sub\n      swap1\n      log1\n        /* \"contracts/lesson3.1/SafeArrayManager.sol\":615:972  {... */\n      pop\n        /* \"contracts/lesson3.1/SafeArrayManager.sol\":573:972  function removeOrdered(uint index) public {... */\n      pop\n      jump\t// out\n        /* \"contracts/lesson3.1/SafeArrayManager.sol\":2443:2535  function isFull() public view returns (bool) {... */\n    tag_43:\n        /* \"contracts/lesson3.1/SafeArrayManager.sol\":2482:2486  bool */\n      0x00\n        /* \"contracts/lesson3.1/SafeArrayManager.sol\":145:148  100 */\n      0x64\n        /* \"contracts/lesson3.1/SafeArrayManager.sol\":2505:2509  data */\n      0x00\n        /* \"contracts/lesson3.1/SafeArrayManager.sol\":2505:2516  data.length */\n      dup1\n      sload\n      swap1\n      pop\n        /* \"contracts/lesson3.1/SafeArrayManager.sol\":2505:2528  data.length >= MAX_SIZE */\n      lt\n      iszero\n        /* \"contracts/lesson3.1/SafeArrayManager.sol\":2498:2528  return data.length >= MAX_SIZE */\n      swap1\n      pop\n        /* \"contracts/lesson3.1/SafeArrayManager.sol\":2443:2535  function isFull() public view returns (bool) {... */\n      swap1\n      jump\t// out\n        /* \"contracts/lesson3.1/SafeArrayManager.sol\":2262:2345  function getLength() public view returns (uint) {... */\n    tag_46:\n        /* \"contracts/lesson3.1/SafeArrayManager.sol\":2304:2308  uint */\n      0x00\n        /* \"contracts/lesson3.1/SafeArrayManager.sol\":2327:2331  data */\n      0x00\n        /* \"contracts/lesson3.1/SafeArrayManager.sol\":2327:2338  data.length */\n      dup1\n      sload\n      swap1\n      pop\n        /* \"contracts/lesson3.1/SafeArrayManager.sol\":2320:2338  return data.length */\n      swap1\n      pop\n        /* \"contracts/lesson3.1/SafeArrayManager.sol\":2262:2345  function getLength() public view returns (uint) {... */\n      swap1\n      jump\t// out\n        /* \"contracts/lesson3.1/SafeArrayManager.sol\":1759:2089  function findElement(uint value) public view returns (bool, uint) {... */\n    tag_50:\n        /* \"contracts/lesson3.1/SafeArrayManager.sol\":1813:1817  bool */\n      0x00\n        /* \"contracts/lesson3.1/SafeArrayManager.sol\":1819:1823  uint */\n      0x00\n        /* \"contracts/lesson3.1/SafeArrayManager.sol\":1835:1843  uint len */\n      0x00\n        /* \"contracts/lesson3.1/SafeArrayManager.sol\":1846:1850  data */\n      0x00\n        /* \"contracts/lesson3.1/SafeArrayManager.sol\":1846:1857  data.length */\n      dup1\n      sload\n      swap1\n      pop\n        /* \"contracts/lesson3.1/SafeArrayManager.sol\":1835:1857  uint len = data.length */\n      swap1\n      pop\n        /* \"contracts/lesson3.1/SafeArrayManager.sol\":1896:1902  uint i */\n      0x00\n        /* \"contracts/lesson3.1/SafeArrayManager.sol\":1905:1906  0 */\n      0x00\n        /* \"contracts/lesson3.1/SafeArrayManager.sol\":1896:1906  uint i = 0 */\n      swap1\n      pop\n        /* \"contracts/lesson3.1/SafeArrayManager.sol\":1891:2017  for (uint i = 0; i < len; i++) {... */\n    tag_129:\n        /* \"contracts/lesson3.1/SafeArrayManager.sol\":1912:1915  len */\n      dup2\n        /* \"contracts/lesson3.1/SafeArrayManager.sol\":1908:1909  i */\n      dup2\n        /* \"contracts/lesson3.1/SafeArrayManager.sol\":1908:1915  i < len */\n      lt\n        /* \"contracts/lesson3.1/SafeArrayManager.sol\":1891:2017  for (uint i = 0; i < len; i++) {... */\n      iszero\n      tag_130\n      jumpi\n        /* \"contracts/lesson3.1/SafeArrayManager.sol\":1951:1956  value */\n      dup5\n        /* \"contracts/lesson3.1/SafeArrayManager.sol\":1940:1944  data */\n      0x00\n        /* \"contracts/lesson3.1/SafeArrayManager.sol\":1945:1946  i */\n      dup3\n        /* \"contracts/lesson3.1/SafeArrayManager.sol\":1940:1947  data[i] */\n      dup2\n      sload\n      dup2\n      lt\n      tag_132\n      jumpi\n      tag_133\n      tag_63\n      jump\t// in\n    tag_133:\n    tag_132:\n      swap1\n      0x00\n      mstore\n      keccak256(0x00, 0x20)\n      add\n      sload\n        /* \"contracts/lesson3.1/SafeArrayManager.sol\":1940:1956  data[i] == value */\n      sub\n        /* \"contracts/lesson3.1/SafeArrayManager.sol\":1936:2007  if (data[i] == value) {... */\n      tag_135\n      jumpi\n        /* \"contracts/lesson3.1/SafeArrayManager.sol\":1984:1988  true */\n      0x01\n        /* \"contracts/lesson3.1/SafeArrayManager.sol\":1990:1991  i */\n      dup2\n        /* \"contracts/lesson3.1/SafeArrayManager.sol\":1976:1992  return (true, i) */\n      swap4\n      pop\n      swap4\n      pop\n      pop\n      pop\n      jump(tag_128)\n        /* \"contracts/lesson3.1/SafeArrayManager.sol\":1936:2007  if (data[i] == value) {... */\n    tag_135:\n        /* \"contracts/lesson3.1/SafeArrayManager.sol\":1917:1920  i++ */\n      dup1\n      dup1\n      0x01\n      add\n      swap2\n      pop\n      pop\n        /* \"contracts/lesson3.1/SafeArrayManager.sol\":1891:2017  for (uint i = 0; i < len; i++) {... */\n      jump(tag_129)\n    tag_130:\n      pop\n        /* \"contracts/lesson3.1/SafeArrayManager.sol\":2073:2078  false */\n      0x00\n        /* \"contracts/lesson3.1/SafeArrayManager.sol\":2080:2081  0 */\n      0x00\n        /* \"contracts/lesson3.1/SafeArrayManager.sol\":2065:2082  return (false, 0) */\n      swap3\n      pop\n      swap3\n      pop\n      pop\n        /* \"contracts/lesson3.1/SafeArrayManager.sol\":1759:2089  function findElement(uint value) public view returns (bool, uint) {... */\n    tag_128:\n      swap2\n      pop\n      swap2\n      jump\t// out\n        /* \"contracts/lesson3.1/SafeArrayManager.sol\":89:107  uint[] public data */\n    tag_55:\n      0x00\n      dup2\n      dup2\n      sload\n      dup2\n      lt\n      tag_136\n      jumpi\n      0x00\n      dup1\n      revert\n    tag_136:\n      swap1\n      0x00\n      mstore\n      keccak256(0x00, 0x20)\n      add\n      0x00\n      swap2\n      pop\n      swap1\n      pop\n      sload\n      dup2\n      jump\t// out\n        /* \"#utility.yul\":88:205   */\n    tag_139:\n        /* \"#utility.yul\":197:198   */\n      0x00\n        /* \"#utility.yul\":194:195   */\n      0x00\n        /* \"#utility.yul\":187:199   */\n      revert\n        /* \"#utility.yul\":334:411   */\n    tag_141:\n        /* \"#utility.yul\":371:378   */\n      0x00\n        /* \"#utility.yul\":400:405   */\n      dup2\n        /* \"#utility.yul\":389:405   */\n      swap1\n      pop\n        /* \"#utility.yul\":334:411   */\n      swap2\n      swap1\n      pop\n      jump\t// out\n        /* \"#utility.yul\":417:539   */\n    tag_142:\n        /* \"#utility.yul\":490:514   */\n      tag_170\n        /* \"#utility.yul\":508:513   */\n      dup2\n        /* \"#utility.yul\":490:514   */\n      tag_141\n      jump\t// in\n    tag_170:\n        /* \"#utility.yul\":483:488   */\n      dup2\n        /* \"#utility.yul\":480:515   */\n      eq\n        /* \"#utility.yul\":470:533   */\n      tag_171\n      jumpi\n        /* \"#utility.yul\":529:530   */\n      0x00\n        /* \"#utility.yul\":526:527   */\n      0x00\n        /* \"#utility.yul\":519:531   */\n      revert\n        /* \"#utility.yul\":470:533   */\n    tag_171:\n        /* \"#utility.yul\":417:539   */\n      pop\n      jump\t// out\n        /* \"#utility.yul\":545:684   */\n    tag_143:\n        /* \"#utility.yul\":591:596   */\n      0x00\n        /* \"#utility.yul\":629:635   */\n      dup2\n        /* \"#utility.yul\":616:636   */\n      calldataload\n        /* \"#utility.yul\":607:636   */\n      swap1\n      pop\n        /* \"#utility.yul\":645:678   */\n      tag_173\n        /* \"#utility.yul\":672:677   */\n      dup2\n        /* \"#utility.yul\":645:678   */\n      tag_142\n      jump\t// in\n    tag_173:\n        /* \"#utility.yul\":545:684   */\n      swap3\n      swap2\n      pop\n      pop\n      jump\t// out\n        /* \"#utility.yul\":690:1019   */\n    tag_17:\n        /* \"#utility.yul\":749:755   */\n      0x00\n        /* \"#utility.yul\":798:800   */\n      0x20\n        /* \"#utility.yul\":786:795   */\n      dup3\n        /* \"#utility.yul\":777:784   */\n      dup5\n        /* \"#utility.yul\":773:796   */\n      sub\n        /* \"#utility.yul\":769:801   */\n      slt\n        /* \"#utility.yul\":766:885   */\n      iszero\n      tag_175\n      jumpi\n        /* \"#utility.yul\":804:883   */\n      tag_176\n      tag_139\n      jump\t// in\n    tag_176:\n        /* \"#utility.yul\":766:885   */\n    tag_175:\n        /* \"#utility.yul\":924:925   */\n      0x00\n        /* \"#utility.yul\":949:1002   */\n      tag_177\n        /* \"#utility.yul\":994:1001   */\n      dup5\n        /* \"#utility.yul\":985:991   */\n      dup3\n        /* \"#utility.yul\":974:983   */\n      dup6\n        /* \"#utility.yul\":970:992   */\n      add\n        /* \"#utility.yul\":949:1002   */\n      tag_143\n      jump\t// in\n    tag_177:\n        /* \"#utility.yul\":939:1002   */\n      swap2\n      pop\n        /* \"#utility.yul\":895:1012   */\n      pop\n        /* \"#utility.yul\":690:1019   */\n      swap3\n      swap2\n      pop\n      pop\n      jump\t// out\n        /* \"#utility.yul\":1025:1139   */\n    tag_144:\n        /* \"#utility.yul\":1092:1098   */\n      0x00\n        /* \"#utility.yul\":1126:1131   */\n      dup2\n        /* \"#utility.yul\":1120:1132   */\n      mload\n        /* \"#utility.yul\":1110:1132   */\n      swap1\n      pop\n        /* \"#utility.yul\":1025:1139   */\n      swap2\n      swap1\n      pop\n      jump\t// out\n        /* \"#utility.yul\":1145:1329   */\n    tag_145:\n        /* \"#utility.yul\":1244:1255   */\n      0x00\n        /* \"#utility.yul\":1278:1284   */\n      dup3\n        /* \"#utility.yul\":1273:1276   */\n      dup3\n        /* \"#utility.yul\":1266:1285   */\n      mstore\n        /* \"#utility.yul\":1318:1322   */\n      0x20\n        /* \"#utility.yul\":1313:1316   */\n      dup3\n        /* \"#utility.yul\":1309:1323   */\n      add\n        /* \"#utility.yul\":1294:1323   */\n      swap1\n      pop\n        /* \"#utility.yul\":1145:1329   */\n      swap3\n      swap2\n      pop\n      pop\n      jump\t// out\n        /* \"#utility.yul\":1335:1467   */\n    tag_146:\n        /* \"#utility.yul\":1402:1406   */\n      0x00\n        /* \"#utility.yul\":1425:1428   */\n      dup2\n        /* \"#utility.yul\":1417:1428   */\n      swap1\n      pop\n        /* \"#utility.yul\":1455:1459   */\n      0x20\n        /* \"#utility.yul\":1450:1453   */\n      dup3\n        /* \"#utility.yul\":1446:1460   */\n      add\n        /* \"#utility.yul\":1438:1460   */\n      swap1\n      pop\n        /* \"#utility.yul\":1335:1467   */\n      swap2\n      swap1\n      pop\n      jump\t// out\n        /* \"#utility.yul\":1473:1581   */\n    tag_147:\n        /* \"#utility.yul\":1550:1574   */\n      tag_182\n        /* \"#utility.yul\":1568:1573   */\n      dup2\n        /* \"#utility.yul\":1550:1574   */\n      tag_141\n      jump\t// in\n    tag_182:\n        /* \"#utility.yul\":1545:1548   */\n      dup3\n        /* \"#utility.yul\":1538:1575   */\n      mstore\n        /* \"#utility.yul\":1473:1581   */\n      pop\n      pop\n      jump\t// out\n        /* \"#utility.yul\":1587:1766   */\n    tag_148:\n        /* \"#utility.yul\":1656:1666   */\n      0x00\n        /* \"#utility.yul\":1677:1723   */\n      tag_184\n        /* \"#utility.yul\":1719:1722   */\n      dup4\n        /* \"#utility.yul\":1711:1717   */\n      dup4\n        /* \"#utility.yul\":1677:1723   */\n      tag_147\n      jump\t// in\n    tag_184:\n        /* \"#utility.yul\":1755:1759   */\n      0x20\n        /* \"#utility.yul\":1750:1753   */\n      dup4\n        /* \"#utility.yul\":1746:1760   */\n      add\n        /* \"#utility.yul\":1732:1760   */\n      swap1\n      pop\n        /* \"#utility.yul\":1587:1766   */\n      swap3\n      swap2\n      pop\n      pop\n      jump\t// out\n        /* \"#utility.yul\":1772:1885   */\n    tag_149:\n        /* \"#utility.yul\":1842:1846   */\n      0x00\n        /* \"#utility.yul\":1874:1878   */\n      0x20\n        /* \"#utility.yul\":1869:1872   */\n      dup3\n        /* \"#utility.yul\":1865:1879   */\n      add\n        /* \"#utility.yul\":1857:1879   */\n      swap1\n      pop\n        /* \"#utility.yul\":1772:1885   */\n      swap2\n      swap1\n      pop\n      jump\t// out\n        /* \"#utility.yul\":1921:2653   */\n    tag_150:\n        /* \"#utility.yul\":2040:2043   */\n      0x00\n        /* \"#utility.yul\":2069:2123   */\n      tag_187\n        /* \"#utility.yul\":2117:2122   */\n      dup3\n        /* \"#utility.yul\":2069:2123   */\n      tag_144\n      jump\t// in\n    tag_187:\n        /* \"#utility.yul\":2139:2225   */\n      tag_188\n        /* \"#utility.yul\":2218:2224   */\n      dup2\n        /* \"#utility.yul\":2213:2216   */\n      dup6\n        /* \"#utility.yul\":2139:2225   */\n      tag_145\n      jump\t// in\n    tag_188:\n        /* \"#utility.yul\":2132:2225   */\n      swap4\n      pop\n        /* \"#utility.yul\":2249:2305   */\n      tag_189\n        /* \"#utility.yul\":2299:2304   */\n      dup4\n        /* \"#utility.yul\":2249:2305   */\n      tag_146\n      jump\t// in\n    tag_189:\n        /* \"#utility.yul\":2328:2335   */\n      dup1\n        /* \"#utility.yul\":2359:2360   */\n      0x00\n        /* \"#utility.yul\":2344:2628   */\n    tag_190:\n        /* \"#utility.yul\":2369:2375   */\n      dup4\n        /* \"#utility.yul\":2366:2367   */\n      dup2\n        /* \"#utility.yul\":2363:2376   */\n      lt\n        /* \"#utility.yul\":2344:2628   */\n      iszero\n      tag_192\n      jumpi\n        /* \"#utility.yul\":2445:2451   */\n      dup2\n        /* \"#utility.yul\":2439:2452   */\n      mload\n        /* \"#utility.yul\":2472:2535   */\n      tag_193\n        /* \"#utility.yul\":2531:2534   */\n      dup9\n        /* \"#utility.yul\":2516:2529   */\n      dup3\n        /* \"#utility.yul\":2472:2535   */\n      tag_148\n      jump\t// in\n    tag_193:\n        /* \"#utility.yul\":2465:2535   */\n      swap8\n      pop\n        /* \"#utility.yul\":2558:2618   */\n      tag_194\n        /* \"#utility.yul\":2611:2617   */\n      dup4\n        /* \"#utility.yul\":2558:2618   */\n      tag_149\n      jump\t// in\n    tag_194:\n        /* \"#utility.yul\":2548:2618   */\n      swap3\n      pop\n        /* \"#utility.yul\":2404:2628   */\n      pop\n        /* \"#utility.yul\":2391:2392   */\n      0x01\n        /* \"#utility.yul\":2388:2389   */\n      dup2\n        /* \"#utility.yul\":2384:2393   */\n      add\n        /* \"#utility.yul\":2379:2393   */\n      swap1\n      pop\n        /* \"#utility.yul\":2344:2628   */\n      jump(tag_190)\n    tag_192:\n        /* \"#utility.yul\":2348:2362   */\n      pop\n        /* \"#utility.yul\":2644:2647   */\n      dup6\n        /* \"#utility.yul\":2637:2647   */\n      swap4\n      pop\n        /* \"#utility.yul\":2045:2653   */\n      pop\n      pop\n      pop\n        /* \"#utility.yul\":1921:2653   */\n      swap3\n      swap2\n      pop\n      pop\n      jump\t// out\n        /* \"#utility.yul\":2659:3032   */\n    tag_25:\n        /* \"#utility.yul\":2802:2806   */\n      0x00\n        /* \"#utility.yul\":2840:2842   */\n      0x20\n        /* \"#utility.yul\":2829:2838   */\n      dup3\n        /* \"#utility.yul\":2825:2843   */\n      add\n        /* \"#utility.yul\":2817:2843   */\n      swap1\n      pop\n        /* \"#utility.yul\":2889:2898   */\n      dup2\n        /* \"#utility.yul\":2883:2887   */\n      dup2\n        /* \"#utility.yul\":2879:2899   */\n      sub\n        /* \"#utility.yul\":2875:2876   */\n      0x00\n        /* \"#utility.yul\":2864:2873   */\n      dup4\n        /* \"#utility.yul\":2860:2877   */\n      add\n        /* \"#utility.yul\":2853:2900   */\n      mstore\n        /* \"#utility.yul\":2917:3025   */\n      tag_196\n        /* \"#utility.yul\":3020:3024   */\n      dup2\n        /* \"#utility.yul\":3011:3017   */\n      dup5\n        /* \"#utility.yul\":2917:3025   */\n      tag_150\n      jump\t// in\n    tag_196:\n        /* \"#utility.yul\":2909:3025   */\n      swap1\n      pop\n        /* \"#utility.yul\":2659:3032   */\n      swap3\n      swap2\n      pop\n      pop\n      jump\t// out\n        /* \"#utility.yul\":3038:3128   */\n    tag_151:\n        /* \"#utility.yul\":3072:3079   */\n      0x00\n        /* \"#utility.yul\":3115:3120   */\n      dup2\n        /* \"#utility.yul\":3108:3121   */\n      iszero\n        /* \"#utility.yul\":3101:3122   */\n      iszero\n        /* \"#utility.yul\":3090:3122   */\n      swap1\n      pop\n        /* \"#utility.yul\":3038:3128   */\n      swap2\n      swap1\n      pop\n      jump\t// out\n        /* \"#utility.yul\":3134:3243   */\n    tag_152:\n        /* \"#utility.yul\":3215:3236   */\n      tag_199\n        /* \"#utility.yul\":3230:3235   */\n      dup2\n        /* \"#utility.yul\":3215:3236   */\n      tag_151\n      jump\t// in\n    tag_199:\n        /* \"#utility.yul\":3210:3213   */\n      dup3\n        /* \"#utility.yul\":3203:3237   */\n      mstore\n        /* \"#utility.yul\":3134:3243   */\n      pop\n      pop\n      jump\t// out\n        /* \"#utility.yul\":3249:3459   */\n    tag_29:\n        /* \"#utility.yul\":3336:3340   */\n      0x00\n        /* \"#utility.yul\":3374:3376   */\n      0x20\n        /* \"#utility.yul\":3363:3372   */\n      dup3\n        /* \"#utility.yul\":3359:3377   */\n      add\n        /* \"#utility.yul\":3351:3377   */\n      swap1\n      pop\n        /* \"#utility.yul\":3387:3452   */\n      tag_201\n        /* \"#utility.yul\":3449:3450   */\n      0x00\n        /* \"#utility.yul\":3438:3447   */\n      dup4\n        /* \"#utility.yul\":3434:3451   */\n      add\n        /* \"#utility.yul\":3425:3431   */\n      dup5\n        /* \"#utility.yul\":3387:3452   */\n      tag_152\n      jump\t// in\n    tag_201:\n        /* \"#utility.yul\":3249:3459   */\n      swap3\n      swap2\n      pop\n      pop\n      jump\t// out\n        /* \"#utility.yul\":3465:3583   */\n    tag_153:\n        /* \"#utility.yul\":3552:3576   */\n      tag_203\n        /* \"#utility.yul\":3570:3575   */\n      dup2\n        /* \"#utility.yul\":3552:3576   */\n      tag_141\n      jump\t// in\n    tag_203:\n        /* \"#utility.yul\":3547:3550   */\n      dup3\n        /* \"#utility.yul\":3540:3577   */\n      mstore\n        /* \"#utility.yul\":3465:3583   */\n      pop\n      pop\n      jump\t// out\n        /* \"#utility.yul\":3589:3811   */\n    tag_33:\n        /* \"#utility.yul\":3682:3686   */\n      0x00\n        /* \"#utility.yul\":3720:3722   */\n      0x20\n        /* \"#utility.yul\":3709:3718   */\n      dup3\n        /* \"#utility.yul\":3705:3723   */\n      add\n        /* \"#utility.yul\":3697:3723   */\n      swap1\n      pop\n        /* \"#utility.yul\":3733:3804   */\n      tag_205\n        /* \"#utility.yul\":3801:3802   */\n      0x00\n        /* \"#utility.yul\":3790:3799   */\n      dup4\n        /* \"#utility.yul\":3786:3803   */\n      add\n        /* \"#utility.yul\":3777:3783   */\n      dup5\n        /* \"#utility.yul\":3733:3804   */\n      tag_153\n      jump\t// in\n    tag_205:\n        /* \"#utility.yul\":3589:3811   */\n      swap3\n      swap2\n      pop\n      pop\n      jump\t// out\n        /* \"#utility.yul\":3817:4291   */\n    tag_36:\n        /* \"#utility.yul\":3885:3891   */\n      0x00\n        /* \"#utility.yul\":3893:3899   */\n      0x00\n        /* \"#utility.yul\":3942:3944   */\n      0x40\n        /* \"#utility.yul\":3930:3939   */\n      dup4\n        /* \"#utility.yul\":3921:3928   */\n      dup6\n        /* \"#utility.yul\":3917:3940   */\n      sub\n        /* \"#utility.yul\":3913:3945   */\n      slt\n        /* \"#utility.yul\":3910:4029   */\n      iszero\n      tag_207\n      jumpi\n        /* \"#utility.yul\":3948:4027   */\n      tag_208\n      tag_139\n      jump\t// in\n    tag_208:\n        /* \"#utility.yul\":3910:4029   */\n    tag_207:\n        /* \"#utility.yul\":4068:4069   */\n      0x00\n        /* \"#utility.yul\":4093:4146   */\n      tag_209\n        /* \"#utility.yul\":4138:4145   */\n      dup6\n        /* \"#utility.yul\":4129:4135   */\n      dup3\n        /* \"#utility.yul\":4118:4127   */\n      dup7\n        /* \"#utility.yul\":4114:4136   */\n      add\n        /* \"#utility.yul\":4093:4146   */\n      tag_143\n      jump\t// in\n    tag_209:\n        /* \"#utility.yul\":4083:4146   */\n      swap3\n      pop\n        /* \"#utility.yul\":4039:4156   */\n      pop\n        /* \"#utility.yul\":4195:4197   */\n      0x20\n        /* \"#utility.yul\":4221:4274   */\n      tag_210\n        /* \"#utility.yul\":4266:4273   */\n      dup6\n        /* \"#utility.yul\":4257:4263   */\n      dup3\n        /* \"#utility.yul\":4246:4255   */\n      dup7\n        /* \"#utility.yul\":4242:4264   */\n      add\n        /* \"#utility.yul\":4221:4274   */\n      tag_143\n      jump\t// in\n    tag_210:\n        /* \"#utility.yul\":4211:4274   */\n      swap2\n      pop\n        /* \"#utility.yul\":4166:4284   */\n      pop\n        /* \"#utility.yul\":3817:4291   */\n      swap3\n      pop\n      swap3\n      swap1\n      pop\n      jump\t// out\n        /* \"#utility.yul\":4297:4617   */\n    tag_52:\n        /* \"#utility.yul\":4412:4416   */\n      0x00\n        /* \"#utility.yul\":4450:4452   */\n      0x40\n        /* \"#utility.yul\":4439:4448   */\n      dup3\n        /* \"#utility.yul\":4435:4453   */\n      add\n        /* \"#utility.yul\":4427:4453   */\n      swap1\n      pop\n        /* \"#utility.yul\":4463:4528   */\n      tag_212\n        /* \"#utility.yul\":4525:4526   */\n      0x00\n        /* \"#utility.yul\":4514:4523   */\n      dup4\n        /* \"#utility.yul\":4510:4527   */\n      add\n        /* \"#utility.yul\":4501:4507   */\n      dup6\n        /* \"#utility.yul\":4463:4528   */\n      tag_152\n      jump\t// in\n    tag_212:\n        /* \"#utility.yul\":4538:4610   */\n      tag_213\n        /* \"#utility.yul\":4606:4608   */\n      0x20\n        /* \"#utility.yul\":4595:4604   */\n      dup4\n        /* \"#utility.yul\":4591:4609   */\n      add\n        /* \"#utility.yul\":4582:4588   */\n      dup5\n        /* \"#utility.yul\":4538:4610   */\n      tag_153\n      jump\t// in\n    tag_213:\n        /* \"#utility.yul\":4297:4617   */\n      swap4\n      swap3\n      pop\n      pop\n      pop\n      jump\t// out\n        /* \"#utility.yul\":4623:4792   */\n    tag_154:\n        /* \"#utility.yul\":4707:4718   */\n      0x00\n        /* \"#utility.yul\":4741:4747   */\n      dup3\n        /* \"#utility.yul\":4736:4739   */\n      dup3\n        /* \"#utility.yul\":4729:4748   */\n      mstore\n        /* \"#utility.yul\":4781:4785   */\n      0x20\n        /* \"#utility.yul\":4776:4779   */\n      dup3\n        /* \"#utility.yul\":4772:4786   */\n      add\n        /* \"#utility.yul\":4757:4786   */\n      swap1\n      pop\n        /* \"#utility.yul\":4623:4792   */\n      swap3\n      swap2\n      pop\n      pop\n      jump\t// out\n        /* \"#utility.yul\":4798:4967   */\n    tag_155:\n        /* \"#utility.yul\":4938:4959   */\n      0x496e646578206f7574206f6620626f756e647300000000000000000000000000\n        /* \"#utility.yul\":4934:4935   */\n      0x00\n        /* \"#utility.yul\":4926:4932   */\n      dup3\n        /* \"#utility.yul\":4922:4936   */\n      add\n        /* \"#utility.yul\":4915:4960   */\n      mstore\n        /* \"#utility.yul\":4798:4967   */\n      pop\n      jump\t// out\n        /* \"#utility.yul\":4973:5339   */\n    tag_156:\n        /* \"#utility.yul\":5115:5118   */\n      0x00\n        /* \"#utility.yul\":5136:5203   */\n      tag_217\n        /* \"#utility.yul\":5200:5202   */\n      0x13\n        /* \"#utility.yul\":5195:5198   */\n      dup4\n        /* \"#utility.yul\":5136:5203   */\n      tag_154\n      jump\t// in\n    tag_217:\n        /* \"#utility.yul\":5129:5203   */\n      swap2\n      pop\n        /* \"#utility.yul\":5212:5305   */\n      tag_218\n        /* \"#utility.yul\":5301:5304   */\n      dup3\n        /* \"#utility.yul\":5212:5305   */\n      tag_155\n      jump\t// in\n    tag_218:\n        /* \"#utility.yul\":5330:5332   */\n      0x20\n        /* \"#utility.yul\":5325:5328   */\n      dup3\n        /* \"#utility.yul\":5321:5333   */\n      add\n        /* \"#utility.yul\":5314:5333   */\n      swap1\n      pop\n        /* \"#utility.yul\":4973:5339   */\n      swap2\n      swap1\n      pop\n      jump\t// out\n        /* \"#utility.yul\":5345:5764   */\n    tag_60:\n        /* \"#utility.yul\":5511:5515   */\n      0x00\n        /* \"#utility.yul\":5549:5551   */\n      0x20\n        /* \"#utility.yul\":5538:5547   */\n      dup3\n        /* \"#utility.yul\":5534:5552   */\n      add\n        /* \"#utility.yul\":5526:5552   */\n      swap1\n      pop\n        /* \"#utility.yul\":5598:5607   */\n      dup2\n        /* \"#utility.yul\":5592:5596   */\n      dup2\n        /* \"#utility.yul\":5588:5608   */\n      sub\n        /* \"#utility.yul\":5584:5585   */\n      0x00\n        /* \"#utility.yul\":5573:5582   */\n      dup4\n        /* \"#utility.yul\":5569:5586   */\n      add\n        /* \"#utility.yul\":5562:5609   */\n      mstore\n        /* \"#utility.yul\":5626:5757   */\n      tag_220\n        /* \"#utility.yul\":5752:5756   */\n      dup2\n        /* \"#utility.yul\":5626:5757   */\n      tag_156\n      jump\t// in\n    tag_220:\n        /* \"#utility.yul\":5618:5757   */\n      swap1\n      pop\n        /* \"#utility.yul\":5345:5764   */\n      swap2\n      swap1\n      pop\n      jump\t// out\n        /* \"#utility.yul\":5770:5950   */\n    tag_63:\n        /* \"#utility.yul\":5818:5895   */\n      0x4e487b7100000000000000000000000000000000000000000000000000000000\n        /* \"#utility.yul\":5815:5816   */\n      0x00\n        /* \"#utility.yul\":5808:5896   */\n      mstore\n        /* \"#utility.yul\":5915:5919   */\n      0x32\n        /* \"#utility.yul\":5912:5913   */\n      0x04\n        /* \"#utility.yul\":5905:5920   */\n      mstore\n        /* \"#utility.yul\":5939:5943   */\n      0x24\n        /* \"#utility.yul\":5936:5937   */\n      0x00\n        /* \"#utility.yul\":5929:5944   */\n      revert\n        /* \"#utility.yul\":5956:6136   */\n    tag_157:\n        /* \"#utility.yul\":6004:6081   */\n      0x4e487b7100000000000000000000000000000000000000000000000000000000\n        /* \"#utility.yul\":6001:6002   */\n      0x00\n        /* \"#utility.yul\":5994:6082   */\n      mstore\n        /* \"#utility.yul\":6101:6105   */\n      0x11\n        /* \"#utility.yul\":6098:6099   */\n      0x04\n        /* \"#utility.yul\":6091:6106   */\n      mstore\n        /* \"#utility.yul\":6125:6129   */\n      0x24\n        /* \"#utility.yul\":6122:6123   */\n      0x00\n        /* \"#utility.yul\":6115:6130   */\n      revert\n        /* \"#utility.yul\":6142:6336   */\n    tag_66:\n        /* \"#utility.yul\":6182:6186   */\n      0x00\n        /* \"#utility.yul\":6202:6222   */\n      tag_224\n        /* \"#utility.yul\":6220:6221   */\n      dup3\n        /* \"#utility.yul\":6202:6222   */\n      tag_141\n      jump\t// in\n    tag_224:\n        /* \"#utility.yul\":6197:6222   */\n      swap2\n      pop\n        /* \"#utility.yul\":6236:6256   */\n      tag_225\n        /* \"#utility.yul\":6254:6255   */\n      dup4\n        /* \"#utility.yul\":6236:6256   */\n      tag_141\n      jump\t// in\n    tag_225:\n        /* \"#utility.yul\":6231:6256   */\n      swap3\n      pop\n        /* \"#utility.yul\":6280:6281   */\n      dup3\n        /* \"#utility.yul\":6277:6278   */\n      dup3\n        /* \"#utility.yul\":6273:6282   */\n      sub\n        /* \"#utility.yul\":6265:6282   */\n      swap1\n      pop\n        /* \"#utility.yul\":6304:6305   */\n      dup2\n        /* \"#utility.yul\":6298:6302   */\n      dup2\n        /* \"#utility.yul\":6295:6306   */\n      gt\n        /* \"#utility.yul\":6292:6329   */\n      iszero\n      tag_226\n      jumpi\n        /* \"#utility.yul\":6309:6327   */\n      tag_227\n      tag_157\n      jump\t// in\n    tag_227:\n        /* \"#utility.yul\":6292:6329   */\n    tag_226:\n        /* \"#utility.yul\":6142:6336   */\n      swap3\n      swap2\n      pop\n      pop\n      jump\t// out\n        /* \"#utility.yul\":6342:6522   */\n    tag_75:\n        /* \"#utility.yul\":6390:6467   */\n      0x4e487b7100000000000000000000000000000000000000000000000000000000\n        /* \"#utility.yul\":6387:6388   */\n      0x00\n        /* \"#utility.yul\":6380:6468   */\n      mstore\n        /* \"#utility.yul\":6487:6491   */\n      0x31\n        /* \"#utility.yul\":6484:6485   */\n      0x04\n        /* \"#utility.yul\":6477:6492   */\n      mstore\n        /* \"#utility.yul\":6511:6515   */\n      0x24\n        /* \"#utility.yul\":6508:6509   */\n      0x00\n        /* \"#utility.yul\":6501:6516   */\n      revert\n        /* \"#utility.yul\":6528:6860   */\n    tag_78:\n        /* \"#utility.yul\":6649:6653   */\n      0x00\n        /* \"#utility.yul\":6687:6689   */\n      0x40\n        /* \"#utility.yul\":6676:6685   */\n      dup3\n        /* \"#utility.yul\":6672:6690   */\n      add\n        /* \"#utility.yul\":6664:6690   */\n      swap1\n      pop\n        /* \"#utility.yul\":6700:6771   */\n      tag_230\n        /* \"#utility.yul\":6768:6769   */\n      0x00\n        /* \"#utility.yul\":6757:6766   */\n      dup4\n        /* \"#utility.yul\":6753:6770   */\n      add\n        /* \"#utility.yul\":6744:6750   */\n      dup6\n        /* \"#utility.yul\":6700:6771   */\n      tag_153\n      jump\t// in\n    tag_230:\n        /* \"#utility.yul\":6781:6853   */\n      tag_231\n        /* \"#utility.yul\":6849:6851   */\n      0x20\n        /* \"#utility.yul\":6838:6847   */\n      dup4\n        /* \"#utility.yul\":6834:6852   */\n      add\n        /* \"#utility.yul\":6825:6831   */\n      dup5\n        /* \"#utility.yul\":6781:6853   */\n      tag_153\n      jump\t// in\n    tag_231:\n        /* \"#utility.yul\":6528:6860   */\n      swap4\n      swap3\n      pop\n      pop\n      pop\n      jump\t// out\n        /* \"#utility.yul\":6866:7029   */\n    tag_158:\n        /* \"#utility.yul\":7006:7021   */\n      0x41727261792069732066756c6c00000000000000000000000000000000000000\n        /* \"#utility.yul\":7002:7003   */\n      0x00\n        /* \"#utility.yul\":6994:7000   */\n      dup3\n        /* \"#utility.yul\":6990:7004   */\n      add\n        /* \"#utility.yul\":6983:7022   */\n      mstore\n        /* \"#utility.yul\":6866:7029   */\n      pop\n      jump\t// out\n        /* \"#utility.yul\":7035:7401   */\n    tag_159:\n        /* \"#utility.yul\":7177:7180   */\n      0x00\n        /* \"#utility.yul\":7198:7265   */\n      tag_234\n        /* \"#utility.yul\":7262:7264   */\n      0x0d\n        /* \"#utility.yul\":7257:7260   */\n      dup4\n        /* \"#utility.yul\":7198:7265   */\n      tag_154\n      jump\t// in\n    tag_234:\n        /* \"#utility.yul\":7191:7265   */\n      swap2\n      pop\n        /* \"#utility.yul\":7274:7367   */\n      tag_235\n        /* \"#utility.yul\":7363:7366   */\n      dup3\n        /* \"#utility.yul\":7274:7367   */\n      tag_158\n      jump\t// in\n    tag_235:\n        /* \"#utility.yul\":7392:7394   */\n      0x20\n        /* \"#utility.yul\":7387:7390   */\n      dup3\n        /* \"#utility.yul\":7383:7395   */\n      add\n        /* \"#utility.yul\":7376:7395   */\n      swap1\n      pop\n        /* \"#utility.yul\":7035:7401   */\n      swap2\n      swap1\n      pop\n      jump\t// out\n        /* \"#utility.yul\":7407:7826   */\n    tag_82:\n        /* \"#utility.yul\":7573:7577   */\n      0x00\n        /* \"#utility.yul\":7611:7613   */\n      0x20\n        /* \"#utility.yul\":7600:7609   */\n      dup3\n        /* \"#utility.yul\":7596:7614   */\n      add\n        /* \"#utility.yul\":7588:7614   */\n      swap1\n      pop\n        /* \"#utility.yul\":7660:7669   */\n      dup2\n        /* \"#utility.yul\":7654:7658   */\n      dup2\n        /* \"#utility.yul\":7650:7670   */\n      sub\n        /* \"#utility.yul\":7646:7647   */\n      0x00\n        /* \"#utility.yul\":7635:7644   */\n      dup4\n        /* \"#utility.yul\":7631:7648   */\n      add\n        /* \"#utility.yul\":7624:7671   */\n      mstore\n        /* \"#utility.yul\":7688:7819   */\n      tag_237\n        /* \"#utility.yul\":7814:7818   */\n      dup2\n        /* \"#utility.yul\":7688:7819   */\n      tag_159\n      jump\t// in\n    tag_237:\n        /* \"#utility.yul\":7680:7819   */\n      swap1\n      pop\n        /* \"#utility.yul\":7407:7826   */\n      swap2\n      swap1\n      pop\n      jump\t// out\n        /* \"#utility.yul\":7832:7995   */\n    tag_160:\n        /* \"#utility.yul\":7972:7987   */\n      0x496e76616c69642072616e676500000000000000000000000000000000000000\n        /* \"#utility.yul\":7968:7969   */\n      0x00\n        /* \"#utility.yul\":7960:7966   */\n      dup3\n        /* \"#utility.yul\":7956:7970   */\n      add\n        /* \"#utility.yul\":7949:7988   */\n      mstore\n        /* \"#utility.yul\":7832:7995   */\n      pop\n      jump\t// out\n        /* \"#utility.yul\":8001:8367   */\n    tag_161:\n        /* \"#utility.yul\":8143:8146   */\n      0x00\n        /* \"#utility.yul\":8164:8231   */\n      tag_240\n        /* \"#utility.yul\":8228:8230   */\n      0x0d\n        /* \"#utility.yul\":8223:8226   */\n      dup4\n        /* \"#utility.yul\":8164:8231   */\n      tag_154\n      jump\t// in\n    tag_240:\n        /* \"#utility.yul\":8157:8231   */\n      swap2\n      pop\n        /* \"#utility.yul\":8240:8333   */\n      tag_241\n        /* \"#utility.yul\":8329:8332   */\n      dup3\n        /* \"#utility.yul\":8240:8333   */\n      tag_160\n      jump\t// in\n    tag_241:\n        /* \"#utility.yul\":8358:8360   */\n      0x20\n        /* \"#utility.yul\":8353:8356   */\n      dup3\n        /* \"#utility.yul\":8349:8361   */\n      add\n        /* \"#utility.yul\":8342:8361   */\n      swap1\n      pop\n        /* \"#utility.yul\":8001:8367   */\n      swap2\n      swap1\n      pop\n      jump\t// out\n        /* \"#utility.yul\":8373:8792   */\n    tag_93:\n        /* \"#utility.yul\":8539:8543   */\n      0x00\n        /* \"#utility.yul\":8577:8579   */\n      0x20\n        /* \"#utility.yul\":8566:8575   */\n      dup3\n        /* \"#utility.yul\":8562:8580   */\n      add\n        /* \"#utility.yul\":8554:8580   */\n      swap1\n      pop\n        /* \"#utility.yul\":8626:8635   */\n      dup2\n        /* \"#utility.yul\":8620:8624   */\n      dup2\n        /* \"#utility.yul\":8616:8636   */\n      sub\n        /* \"#utility.yul\":8612:8613   */\n      0x00\n        /* \"#utility.yul\":8601:8610   */\n      dup4\n        /* \"#utility.yul\":8597:8614   */\n      add\n        /* \"#utility.yul\":8590:8637   */\n      mstore\n        /* \"#utility.yul\":8654:8785   */\n      tag_243\n        /* \"#utility.yul\":8780:8784   */\n      dup2\n        /* \"#utility.yul\":8654:8785   */\n      tag_161\n      jump\t// in\n    tag_243:\n        /* \"#utility.yul\":8646:8785   */\n      swap1\n      pop\n        /* \"#utility.yul\":8373:8792   */\n      swap2\n      swap1\n      pop\n      jump\t// out\n        /* \"#utility.yul\":8798:8965   */\n    tag_162:\n        /* \"#utility.yul\":8938:8957   */\n      0x456e64206f7574206f6620626f756e6473000000000000000000000000000000\n        /* \"#utility.yul\":8934:8935   */\n      0x00\n        /* \"#utility.yul\":8926:8932   */\n      dup3\n        /* \"#utility.yul\":8922:8936   */\n      add\n        /* \"#utility.yul\":8915:8958   */\n      mstore\n        /* \"#utility.yul\":8798:8965   */\n      pop\n      jump\t// out\n        /* \"#utility.yul\":8971:9337   */\n    tag_163:\n        /* \"#utility.yul\":9113:9116   */\n      0x00\n        /* \"#utility.yul\":9134:9201   */\n      tag_246\n        /* \"#utility.yul\":9198:9200   */\n      0x11\n        /* \"#utility.yul\":9193:9196   */\n      dup4\n        /* \"#utility.yul\":9134:9201   */\n      tag_154\n      jump\t// in\n    tag_246:\n        /* \"#utility.yul\":9127:9201   */\n      swap2\n      pop\n        /* \"#utility.yul\":9210:9303   */\n      tag_247\n        /* \"#utility.yul\":9299:9302   */\n      dup3\n        /* \"#utility.yul\":9210:9303   */\n      tag_162\n      jump\t// in\n    tag_247:\n        /* \"#utility.yul\":9328:9330   */\n      0x20\n        /* \"#utility.yul\":9323:9326   */\n      dup3\n        /* \"#utility.yul\":9319:9331   */\n      add\n        /* \"#utility.yul\":9312:9331   */\n      swap1\n      pop\n        /* \"#utility.yul\":8971:9337   */\n      swap2\n      swap1\n      pop\n      jump\t// out\n        /* \"#utility.yul\":9343:9762   */\n    tag_96:\n        /* \"#utility.yul\":9509:9513   */\n      0x00\n        /* \"#utility.yul\":9547:9549   */\n      0x20\n        /* \"#utility.yul\":9536:9545   */\n      dup3\n        /* \"#utility.yul\":9532:9550   */\n      add\n        /* \"#utility.yul\":9524:9550   */\n      swap1\n      pop\n        /* \"#utility.yul\":9596:9605   */\n      dup2\n        /* \"#utility.yul\":9590:9594   */\n      dup2\n        /* \"#utility.yul\":9586:9606   */\n      sub\n        /* \"#utility.yul\":9582:9583   */\n      0x00\n        /* \"#utility.yul\":9571:9580   */\n      dup4\n        /* \"#utility.yul\":9567:9584   */\n      add\n        /* \"#utility.yul\":9560:9607   */\n      mstore\n        /* \"#utility.yul\":9624:9755   */\n      tag_249\n        /* \"#utility.yul\":9750:9754   */\n      dup2\n        /* \"#utility.yul\":9624:9755   */\n      tag_163\n      jump\t// in\n    tag_249:\n        /* \"#utility.yul\":9616:9755   */\n      swap1\n      pop\n        /* \"#utility.yul\":9343:9762   */\n      swap2\n      swap1\n      pop\n      jump\t// out\n        /* \"#utility.yul\":9768:9959   */\n    tag_104:\n        /* \"#utility.yul\":9808:9811   */\n      0x00\n        /* \"#utility.yul\":9827:9847   */\n      tag_251\n        /* \"#utility.yul\":9845:9846   */\n      dup3\n        /* \"#utility.yul\":9827:9847   */\n      tag_141\n      jump\t// in\n    tag_251:\n        /* \"#utility.yul\":9822:9847   */\n      swap2\n      pop\n        /* \"#utility.yul\":9861:9881   */\n      tag_252\n        /* \"#utility.yul\":9879:9880   */\n      dup4\n        /* \"#utility.yul\":9861:9881   */\n      tag_141\n      jump\t// in\n    tag_252:\n        /* \"#utility.yul\":9856:9881   */\n      swap3\n      pop\n        /* \"#utility.yul\":9904:9905   */\n      dup3\n        /* \"#utility.yul\":9901:9902   */\n      dup3\n        /* \"#utility.yul\":9897:9906   */\n      add\n        /* \"#utility.yul\":9890:9906   */\n      swap1\n      pop\n        /* \"#utility.yul\":9925:9928   */\n      dup1\n        /* \"#utility.yul\":9922:9923   */\n      dup3\n        /* \"#utility.yul\":9919:9929   */\n      gt\n        /* \"#utility.yul\":9916:9952   */\n      iszero\n      tag_253\n      jumpi\n        /* \"#utility.yul\":9932:9950   */\n      tag_254\n      tag_157\n      jump\t// in\n    tag_254:\n        /* \"#utility.yul\":9916:9952   */\n    tag_253:\n        /* \"#utility.yul\":9768:9959   */\n      swap3\n      swap2\n      pop\n      pop\n      jump\t// out\n\n    auxdata: 0xa26469706673582212201ca942688b42414a3855bb20512802ee341025070fba9caf47750ed8f549bb8d64736f6c634300081f0033\n}\n",
				"bytecode": {
					"linkReferences": {},
					"object": "6080604052348015600e575f5ffd5b50610bf88061001c5f395ff3fe608060405234801561000f575f5ffd5b50600436106100a7575f3560e01c8063a214547f1161006f578063a214547f1461013d578063a6158fdb1461016d578063babd3d9a14610189578063be1c766b146101a7578063e990b43d146101c5578063f0ba8440146101f6576100a7565b80633b3c4ec5146100ab5780633e275690146100c757806353ed5143146100e3578063681fe70c146101015780638d67799e1461011f575b5f5ffd5b6100c560048036038101906100c0919061073c565b610226565b005b6100e160048036038101906100dc919061073c565b610337565b005b6100eb6103ef565b6040516100f8919061081e565b60405180910390f35b610109610444565b6040516101169190610858565b60405180910390f35b610127610451565b6040516101349190610880565b60405180910390f35b61015760048036038101906101529190610899565b610456565b6040516101649190610880565b60405180910390f35b6101876004803603810190610182919061073c565b610532565b005b61019161066a565b60405161019e9190610858565b60405180910390f35b6101af610679565b6040516101bc9190610880565b60405180910390f35b6101df60048036038101906101da919061073c565b610684565b6040516101ed9291906108d7565b60405180910390f35b610210600480360381019061020b919061073c565b6106e6565b60405161021d9190610880565b60405180910390f35b5f80549050811061026c576040517f08c379a000000000000000000000000000000000000000000000000000000000815260040161026390610958565b60405180910390fd5b5f5f82815481106102805761027f610976565b5b905f5260205f20015490505f60015f8054905061029d91906109d0565b815481106102ae576102ad610976565b5b905f5260205f2001545f83815481106102ca576102c9610976565b5b905f5260205f2001819055505f8054806102e7576102e6610a03565b5b600190038181905f5260205f20015f905590557fba10c01016e1ba3d916c047d943e6b907f35c5ac8d52f6d21605c3f15747863d828260405161032b929190610a30565b60405180910390a15050565b60645f805490501061037e576040517f08c379a000000000000000000000000000000000000000000000000000000000815260040161037590610aa1565b60405180910390fd5b5f81908060018154018082558091505060019003905f5260205f20015f90919091909150557fbd35ac9d9fbb5226d89e93adfa98f5001ea8e74d5a8506d7c034b868d08ace588160015f805490506103d691906109d0565b6040516103e4929190610a30565b60405180910390a150565b60605f80548060200260200160405190810160405280929190818152602001828054801561043a57602002820191905f5260205f20905b815481526020019060010190808311610426575b5050505050905090565b5f5f5f8054905014905090565b606481565b5f818310610499576040517f08c379a000000000000000000000000000000000000000000000000000000000815260040161049090610b09565b60405180910390fd5b5f805490508211156104e0576040517f08c379a00000000000000000000000000000000000000000000000000000000081526004016104d790610b71565b60405180910390fd5b5f5f90505f8490505b83811015610527575f818154811061050457610503610976565b5b905f5260205f200154826105189190610b8f565b915080806001019150506104e9565b508091505092915050565b5f805490508110610578576040517f08c379a000000000000000000000000000000000000000000000000000000000815260040161056f90610958565b60405180910390fd5b5f5f828154811061058c5761058b610976565b5b905f5260205f20015490505f8290505b60015f805490506105ad91906109d0565b811015610608575f6001826105c29190610b8f565b815481106105d3576105d2610976565b5b905f5260205f2001545f82815481106105ef576105ee610976565b5b905f5260205f200181905550808060010191505061059c565b505f80548061061a57610619610a03565b5b600190038181905f5260205f20015f905590557fba10c01016e1ba3d916c047d943e6b907f35c5ac8d52f6d21605c3f15747863d828260405161065e929190610a30565b60405180910390a15050565b5f60645f805490501015905090565b5f5f80549050905090565b5f5f5f5f8054905090505f5f90505b818110156106d857845f82815481106106af576106ae610976565b5b905f5260205f200154036106cb576001819350935050506106e1565b8080600101915050610693565b505f5f92509250505b915091565b5f81815481106106f4575f80fd5b905f5260205f20015f915090505481565b5f5ffd5b5f819050919050565b61071b81610709565b8114610725575f5ffd5b50565b5f8135905061073681610712565b92915050565b5f6020828403121561075157610750610705565b5b5f61075e84828501610728565b91505092915050565b5f81519050919050565b5f82825260208201905092915050565b5f819050602082019050919050565b61079981610709565b82525050565b5f6107aa8383610790565b60208301905092915050565b5f602082019050919050565b5f6107cc82610767565b6107d68185610771565b93506107e183610781565b805f5b838110156108115781516107f8888261079f565b9750610803836107b6565b9250506001810190506107e4565b5085935050505092915050565b5f6020820190508181035f83015261083681846107c2565b905092915050565b5f8115159050919050565b6108528161083e565b82525050565b5f60208201905061086b5f830184610849565b92915050565b61087a81610709565b82525050565b5f6020820190506108935f830184610871565b92915050565b5f5f604083850312156108af576108ae610705565b5b5f6108bc85828601610728565b92505060206108cd85828601610728565b9150509250929050565b5f6040820190506108ea5f830185610849565b6108f76020830184610871565b9392505050565b5f82825260208201905092915050565b7f496e646578206f7574206f6620626f756e6473000000000000000000000000005f82015250565b5f6109426013836108fe565b915061094d8261090e565b602082019050919050565b5f6020820190508181035f83015261096f81610936565b9050919050565b7f4e487b71000000000000000000000000000000000000000000000000000000005f52603260045260245ffd5b7f4e487b71000000000000000000000000000000000000000000000000000000005f52601160045260245ffd5b5f6109da82610709565b91506109e583610709565b92508282039050818111156109fd576109fc6109a3565b5b92915050565b7f4e487b71000000000000000000000000000000000000000000000000000000005f52603160045260245ffd5b5f604082019050610a435f830185610871565b610a506020830184610871565b9392505050565b7f41727261792069732066756c6c000000000000000000000000000000000000005f82015250565b5f610a8b600d836108fe565b9150610a9682610a57565b602082019050919050565b5f6020820190508181035f830152610ab881610a7f565b9050919050565b7f496e76616c69642072616e6765000000000000000000000000000000000000005f82015250565b5f610af3600d836108fe565b9150610afe82610abf565b602082019050919050565b5f6020820190508181035f830152610b2081610ae7565b9050919050565b7f456e64206f7574206f6620626f756e64730000000000000000000000000000005f82015250565b5f610b5b6011836108fe565b9150610b6682610b27565b602082019050919050565b5f6020820190508181035f830152610b8881610b4f565b9050919050565b5f610b9982610709565b9150610ba483610709565b9250828201905080821115610bbc57610bbb6109a3565b5b9291505056fea26469706673582212201ca942688b42414a3855bb20512802ee341025070fba9caf47750ed8f549bb8d64736f6c634300081f0033",
					"opcodes": "PUSH1 0x80 PUSH1 0x40 MSTORE CALLVALUE DUP1 ISZERO PUSH1 0xE JUMPI PUSH0 PUSH0 REVERT JUMPDEST POP PUSH2 0xBF8 DUP1 PUSH2 0x1C PUSH0 CODECOPY PUSH0 RETURN INVALID PUSH1 0x80 PUSH1 0x40 MSTORE CALLVALUE DUP1 ISZERO PUSH2 0xF JUMPI PUSH0 PUSH0 REVERT JUMPDEST POP PUSH1 0x4 CALLDATASIZE LT PUSH2 0xA7 JUMPI PUSH0 CALLDATALOAD PUSH1 0xE0 SHR DUP1 PUSH4 0xA214547F GT PUSH2 0x6F JUMPI DUP1 PUSH4 0xA214547F EQ PUSH2 0x13D JUMPI DUP1 PUSH4 0xA6158FDB EQ PUSH2 0x16D JUMPI DUP1 PUSH4 0xBABD3D9A EQ PUSH2 0x189 JUMPI DUP1 PUSH4 0xBE1C766B EQ PUSH2 0x1A7 JUMPI DUP1 PUSH4 0xE990B43D EQ PUSH2 0x1C5 JUMPI DUP1 PUSH4 0xF0BA8440 EQ PUSH2 0x1F6 JUMPI PUSH2 0xA7 JUMP JUMPDEST DUP1 PUSH4 0x3B3C4EC5 EQ PUSH2 0xAB JUMPI DUP1 PUSH4 0x3E275690 EQ PUSH2 0xC7 JUMPI DUP1 PUSH4 0x53ED5143 EQ PUSH2 0xE3 JUMPI DUP1 PUSH4 0x681FE70C EQ PUSH2 0x101 JUMPI DUP1 PUSH4 0x8D67799E EQ PUSH2 0x11F JUMPI JUMPDEST PUSH0 PUSH0 REVERT JUMPDEST PUSH2 0xC5 PUSH1 0x4 DUP1 CALLDATASIZE SUB DUP2 ADD SWAP1 PUSH2 0xC0 SWAP2 SWAP1 PUSH2 0x73C JUMP JUMPDEST PUSH2 0x226 JUMP JUMPDEST STOP JUMPDEST PUSH2 0xE1 PUSH1 0x4 DUP1 CALLDATASIZE SUB DUP2 ADD SWAP1 PUSH2 0xDC SWAP2 SWAP1 PUSH2 0x73C JUMP JUMPDEST PUSH2 0x337 JUMP JUMPDEST STOP JUMPDEST PUSH2 0xEB PUSH2 0x3EF JUMP JUMPDEST PUSH1 0x40 MLOAD PUSH2 0xF8 SWAP2 SWAP1 PUSH2 0x81E JUMP JUMPDEST PUSH1 0x40 MLOAD DUP1 SWAP2 SUB SWAP1 RETURN JUMPDEST PUSH2 0x109 PUSH2 0x444 JUMP JUMPDEST PUSH1 0x40 MLOAD PUSH2 0x116 SWAP2 SWAP1 PUSH2 0x858 JUMP JUMPDEST PUSH1 0x40 MLOAD DUP1 SWAP2 SUB SWAP1 RETURN JUMPDEST PUSH2 0x127 PUSH2 0x451 JUMP JUMPDEST PUSH1 0x40 MLOAD PUSH2 0x134 SWAP2 SWAP1 PUSH2 0x880 JUMP JUMPDEST PUSH1 0x40 MLOAD DUP1 SWAP2 SUB SWAP1 RETURN JUMPDEST PUSH2 0x157 PUSH1 0x4 DUP1 CALLDATASIZE SUB DUP2 ADD SWAP1 PUSH2 0x152 SWAP2 SWAP1 PUSH2 0x899 JUMP JUMPDEST PUSH2 0x456 JUMP JUMPDEST PUSH1 0x40 MLOAD PUSH2 0x164 SWAP2 SWAP1 PUSH2 0x880 JUMP JUMPDEST PUSH1 0x40 MLOAD DUP1 SWAP2 SUB SWAP1 RETURN JUMPDEST PUSH2 0x187 PUSH1 0x4 DUP1 CALLDATASIZE SUB DUP2 ADD SWAP1 PUSH2 0x182 SWAP2 SWAP1 PUSH2 0x73C JUMP JUMPDEST PUSH2 0x532 JUMP JUMPDEST STOP JUMPDEST PUSH2 0x191 PUSH2 0x66A JUMP JUMPDEST PUSH1 0x40 MLOAD PUSH2 0x19E SWAP2 SWAP1 PUSH2 0x858 JUMP JUMPDEST PUSH1 0x40 MLOAD DUP1 SWAP2 SUB SWAP1 RETURN JUMPDEST PUSH2 0x1AF PUSH2 0x679 JUMP JUMPDEST PUSH1 0x40 MLOAD PUSH2 0x1BC SWAP2 SWAP1 PUSH2 0x880 JUMP JUMPDEST PUSH1 0x40 MLOAD DUP1 SWAP2 SUB SWAP1 RETURN JUMPDEST PUSH2 0x1DF PUSH1 0x4 DUP1 CALLDATASIZE SUB DUP2 ADD SWAP1 PUSH2 0x1DA SWAP2 SWAP1 PUSH2 0x73C JUMP JUMPDEST PUSH2 0x684 JUMP JUMPDEST PUSH1 0x40 MLOAD PUSH2 0x1ED SWAP3 SWAP2 SWAP1 PUSH2 0x8D7 JUMP JUMPDEST PUSH1 0x40 MLOAD DUP1 SWAP2 SUB SWAP1 RETURN JUMPDEST PUSH2 0x210 PUSH1 0x4 DUP1 CALLDATASIZE SUB DUP2 ADD SWAP1 PUSH2 0x20B SWAP2 SWAP1 PUSH2 0x73C JUMP JUMPDEST PUSH2 0x6E6 JUMP JUMPDEST PUSH1 0x40 MLOAD PUSH2 0x21D SWAP2 SWAP1 PUSH2 0x880 JUMP JUMPDEST PUSH1 0x40 MLOAD DUP1 SWAP2 SUB SWAP1 RETURN JUMPDEST PUSH0 DUP1 SLOAD SWAP1 POP DUP2 LT PUSH2 0x26C JUMPI PUSH1 0x40 MLOAD PUSH32 0x8C379A000000000000000000000000000000000000000000000000000000000 DUP2 MSTORE PUSH1 0x4 ADD PUSH2 0x263 SWAP1 PUSH2 0x958 JUMP JUMPDEST PUSH1 0x40 MLOAD DUP1 SWAP2 SUB SWAP1 REVERT JUMPDEST PUSH0 PUSH0 DUP3 DUP2 SLOAD DUP2 LT PUSH2 0x280 JUMPI PUSH2 0x27F PUSH2 0x976 JUMP JUMPDEST JUMPDEST SWAP1 PUSH0 MSTORE PUSH1 0x20 PUSH0 KECCAK256 ADD SLOAD SWAP1 POP PUSH0 PUSH1 0x1 PUSH0 DUP1 SLOAD SWAP1 POP PUSH2 0x29D SWAP2 SWAP1 PUSH2 0x9D0 JUMP JUMPDEST DUP2 SLOAD DUP2 LT PUSH2 0x2AE JUMPI PUSH2 0x2AD PUSH2 0x976 JUMP JUMPDEST JUMPDEST SWAP1 PUSH0 MSTORE PUSH1 0x20 PUSH0 KECCAK256 ADD SLOAD PUSH0 DUP4 DUP2 SLOAD DUP2 LT PUSH2 0x2CA JUMPI PUSH2 0x2C9 PUSH2 0x976 JUMP JUMPDEST JUMPDEST SWAP1 PUSH0 MSTORE PUSH1 0x20 PUSH0 KECCAK256 ADD DUP2 SWAP1 SSTORE POP PUSH0 DUP1 SLOAD DUP1 PUSH2 0x2E7 JUMPI PUSH2 0x2E6 PUSH2 0xA03 JUMP JUMPDEST JUMPDEST PUSH1 0x1 SWAP1 SUB DUP2 DUP2 SWAP1 PUSH0 MSTORE PUSH1 0x20 PUSH0 KECCAK256 ADD PUSH0 SWAP1 SSTORE SWAP1 SSTORE PUSH32 0xBA10C01016E1BA3D916C047D943E6B907F35C5AC8D52F6D21605C3F15747863D DUP3 DUP3 PUSH1 0x40 MLOAD PUSH2 0x32B SWAP3 SWAP2 SWAP1 PUSH2 0xA30 JUMP JUMPDEST PUSH1 0x40 MLOAD DUP1 SWAP2 SUB SWAP1 LOG1 POP POP JUMP JUMPDEST PUSH1 0x64 PUSH0 DUP1 SLOAD SWAP1 POP LT PUSH2 0x37E JUMPI PUSH1 0x40 MLOAD PUSH32 0x8C379A000000000000000000000000000000000000000000000000000000000 DUP2 MSTORE PUSH1 0x4 ADD PUSH2 0x375 SWAP1 PUSH2 0xAA1 JUMP JUMPDEST PUSH1 0x40 MLOAD DUP1 SWAP2 SUB SWAP1 REVERT JUMPDEST PUSH0 DUP2 SWAP1 DUP1 PUSH1 0x1 DUP2 SLOAD ADD DUP1 DUP3 SSTORE DUP1 SWAP2 POP POP PUSH1 0x1 SWAP1 SUB SWAP1 PUSH0 MSTORE PUSH1 0x20 PUSH0 KECCAK256 ADD PUSH0 SWAP1 SWAP2 SWAP1 SWAP2 SWAP1 SWAP2 POP SSTORE PUSH32 0xBD35AC9D9FBB5226D89E93ADFA98F5001EA8E74D5A8506D7C034B868D08ACE58 DUP2 PUSH1 0x1 PUSH0 DUP1 SLOAD SWAP1 POP PUSH2 0x3D6 SWAP2 SWAP1 PUSH2 0x9D0 JUMP JUMPDEST PUSH1 0x40 MLOAD PUSH2 0x3E4 SWAP3 SWAP2 SWAP1 PUSH2 0xA30 JUMP JUMPDEST PUSH1 0x40 MLOAD DUP1 SWAP2 SUB SWAP1 LOG1 POP JUMP JUMPDEST PUSH1 0x60 PUSH0 DUP1 SLOAD DUP1 PUSH1 0x20 MUL PUSH1 0x20 ADD PUSH1 0x40 MLOAD SWAP1 DUP2 ADD PUSH1 0x40 MSTORE DUP1 SWAP3 SWAP2 SWAP1 DUP2 DUP2 MSTORE PUSH1 0x20 ADD DUP3 DUP1 SLOAD DUP1 ISZERO PUSH2 0x43A JUMPI PUSH1 0x20 MUL DUP3 ADD SWAP2 SWAP1 PUSH0 MSTORE PUSH1 0x20 PUSH0 KECCAK256 SWAP1 JUMPDEST DUP2 SLOAD DUP2 MSTORE PUSH1 0x20 ADD SWAP1 PUSH1 0x1 ADD SWAP1 DUP1 DUP4 GT PUSH2 0x426 JUMPI JUMPDEST POP POP POP POP POP SWAP1 POP SWAP1 JUMP JUMPDEST PUSH0 PUSH0 PUSH0 DUP1 SLOAD SWAP1 POP EQ SWAP1 POP SWAP1 JUMP JUMPDEST PUSH1 0x64 DUP2 JUMP JUMPDEST PUSH0 DUP2 DUP4 LT PUSH2 0x499 JUMPI PUSH1 0x40 MLOAD PUSH32 0x8C379A000000000000000000000000000000000000000000000000000000000 DUP2 MSTORE PUSH1 0x4 ADD PUSH2 0x490 SWAP1 PUSH2 0xB09 JUMP JUMPDEST PUSH1 0x40 MLOAD DUP1 SWAP2 SUB SWAP1 REVERT JUMPDEST PUSH0 DUP1 SLOAD SWAP1 POP DUP3 GT ISZERO PUSH2 0x4E0 JUMPI PUSH1 0x40 MLOAD PUSH32 0x8C379A000000000000000000000000000000000000000000000000000000000 DUP2 MSTORE PUSH1 0x4 ADD PUSH2 0x4D7 SWAP1 PUSH2 0xB71 JUMP JUMPDEST PUSH1 0x40 MLOAD DUP1 SWAP2 SUB SWAP1 REVERT JUMPDEST PUSH0 PUSH0 SWAP1 POP PUSH0 DUP5 SWAP1 POP JUMPDEST DUP4 DUP2 LT ISZERO PUSH2 0x527 JUMPI PUSH0 DUP2 DUP2 SLOAD DUP2 LT PUSH2 0x504 JUMPI PUSH2 0x503 PUSH2 0x976 JUMP JUMPDEST JUMPDEST SWAP1 PUSH0 MSTORE PUSH1 0x20 PUSH0 KECCAK256 ADD SLOAD DUP3 PUSH2 0x518 SWAP2 SWAP1 PUSH2 0xB8F JUMP JUMPDEST SWAP2 POP DUP1 DUP1 PUSH1 0x1 ADD SWAP2 POP POP PUSH2 0x4E9 JUMP JUMPDEST POP DUP1 SWAP2 POP POP SWAP3 SWAP2 POP POP JUMP JUMPDEST PUSH0 DUP1 SLOAD SWAP1 POP DUP2 LT PUSH2 0x578 JUMPI PUSH1 0x40 MLOAD PUSH32 0x8C379A000000000000000000000000000000000000000000000000000000000 DUP2 MSTORE PUSH1 0x4 ADD PUSH2 0x56F SWAP1 PUSH2 0x958 JUMP JUMPDEST PUSH1 0x40 MLOAD DUP1 SWAP2 SUB SWAP1 REVERT JUMPDEST PUSH0 PUSH0 DUP3 DUP2 SLOAD DUP2 LT PUSH2 0x58C JUMPI PUSH2 0x58B PUSH2 0x976 JUMP JUMPDEST JUMPDEST SWAP1 PUSH0 MSTORE PUSH1 0x20 PUSH0 KECCAK256 ADD SLOAD SWAP1 POP PUSH0 DUP3 SWAP1 POP JUMPDEST PUSH1 0x1 PUSH0 DUP1 SLOAD SWAP1 POP PUSH2 0x5AD SWAP2 SWAP1 PUSH2 0x9D0 JUMP JUMPDEST DUP2 LT ISZERO PUSH2 0x608 JUMPI PUSH0 PUSH1 0x1 DUP3 PUSH2 0x5C2 SWAP2 SWAP1 PUSH2 0xB8F JUMP JUMPDEST DUP2 SLOAD DUP2 LT PUSH2 0x5D3 JUMPI PUSH2 0x5D2 PUSH2 0x976 JUMP JUMPDEST JUMPDEST SWAP1 PUSH0 MSTORE PUSH1 0x20 PUSH0 KECCAK256 ADD SLOAD PUSH0 DUP3 DUP2 SLOAD DUP2 LT PUSH2 0x5EF JUMPI PUSH2 0x5EE PUSH2 0x976 JUMP JUMPDEST JUMPDEST SWAP1 PUSH0 MSTORE PUSH1 0x20 PUSH0 KECCAK256 ADD DUP2 SWAP1 SSTORE POP DUP1 DUP1 PUSH1 0x1 ADD SWAP2 POP POP PUSH2 0x59C JUMP JUMPDEST POP PUSH0 DUP1 SLOAD DUP1 PUSH2 0x61A JUMPI PUSH2 0x619 PUSH2 0xA03 JUMP JUMPDEST JUMPDEST PUSH1 0x1 SWAP1 SUB DUP2 DUP2 SWAP1 PUSH0 MSTORE PUSH1 0x20 PUSH0 KECCAK256 ADD PUSH0 SWAP1 SSTORE SWAP1 SSTORE PUSH32 0xBA10C01016E1BA3D916C047D943E6B907F35C5AC8D52F6D21605C3F15747863D DUP3 DUP3 PUSH1 0x40 MLOAD PUSH2 0x65E SWAP3 SWAP2 SWAP1 PUSH2 0xA30 JUMP JUMPDEST PUSH1 0x40 MLOAD DUP1 SWAP2 SUB SWAP1 LOG1 POP POP JUMP JUMPDEST PUSH0 PUSH1 0x64 PUSH0 DUP1 SLOAD SWAP1 POP LT ISZERO SWAP1 POP SWAP1 JUMP JUMPDEST PUSH0 PUSH0 DUP1 SLOAD SWAP1 POP SWAP1 POP SWAP1 JUMP JUMPDEST PUSH0 PUSH0 PUSH0 PUSH0 DUP1 SLOAD SWAP1 POP SWAP1 POP PUSH0 PUSH0 SWAP1 POP JUMPDEST DUP2 DUP2 LT ISZERO PUSH2 0x6D8 JUMPI DUP5 PUSH0 DUP3 DUP2 SLOAD DUP2 LT PUSH2 0x6AF JUMPI PUSH2 0x6AE PUSH2 0x976 JUMP JUMPDEST JUMPDEST SWAP1 PUSH0 MSTORE PUSH1 0x20 PUSH0 KECCAK256 ADD SLOAD SUB PUSH2 0x6CB JUMPI PUSH1 0x1 DUP2 SWAP4 POP SWAP4 POP POP POP PUSH2 0x6E1 JUMP JUMPDEST DUP1 DUP1 PUSH1 0x1 ADD SWAP2 POP POP PUSH2 0x693 JUMP JUMPDEST POP PUSH0 PUSH0 SWAP3 POP SWAP3 POP POP JUMPDEST SWAP2 POP SWAP2 JUMP JUMPDEST PUSH0 DUP2 DUP2 SLOAD DUP2 LT PUSH2 0x6F4 JUMPI PUSH0 DUP1 REVERT JUMPDEST SWAP1 PUSH0 MSTORE PUSH1 0x20 PUSH0 KECCAK256 ADD PUSH0 SWAP2 POP SWAP1 POP SLOAD DUP2 JUMP JUMPDEST PUSH0 PUSH0 REVERT JUMPDEST PUSH0 DUP2 SWAP1 POP SWAP2 SWAP1 POP JUMP JUMPDEST PUSH2 0x71B DUP2 PUSH2 0x709 JUMP JUMPDEST DUP2 EQ PUSH2 0x725 JUMPI PUSH0 PUSH0 REVERT JUMPDEST POP JUMP JUMPDEST PUSH0 DUP2 CALLDATALOAD SWAP1 POP PUSH2 0x736 DUP2 PUSH2 0x712 JUMP JUMPDEST SWAP3 SWAP2 POP POP JUMP JUMPDEST PUSH0 PUSH1 0x20 DUP3 DUP5 SUB SLT ISZERO PUSH2 0x751 JUMPI PUSH2 0x750 PUSH2 0x705 JUMP JUMPDEST JUMPDEST PUSH0 PUSH2 0x75E DUP5 DUP3 DUP6 ADD PUSH2 0x728 JUMP JUMPDEST SWAP2 POP POP SWAP3 SWAP2 POP POP JUMP JUMPDEST PUSH0 DUP2 MLOAD SWAP1 POP SWAP2 SWAP1 POP JUMP JUMPDEST PUSH0 DUP3 DUP3 MSTORE PUSH1 0x20 DUP3 ADD SWAP1 POP SWAP3 SWAP2 POP POP JUMP JUMPDEST PUSH0 DUP2 SWAP1 POP PUSH1 0x20 DUP3 ADD SWAP1 POP SWAP2 SWAP1 POP JUMP JUMPDEST PUSH2 0x799 DUP2 PUSH2 0x709 JUMP JUMPDEST DUP3 MSTORE POP POP JUMP JUMPDEST PUSH0 PUSH2 0x7AA DUP4 DUP4 PUSH2 0x790 JUMP JUMPDEST PUSH1 0x20 DUP4 ADD SWAP1 POP SWAP3 SWAP2 POP POP JUMP JUMPDEST PUSH0 PUSH1 0x20 DUP3 ADD SWAP1 POP SWAP2 SWAP1 POP JUMP JUMPDEST PUSH0 PUSH2 0x7CC DUP3 PUSH2 0x767 JUMP JUMPDEST PUSH2 0x7D6 DUP2 DUP6 PUSH2 0x771 JUMP JUMPDEST SWAP4 POP PUSH2 0x7E1 DUP4 PUSH2 0x781 JUMP JUMPDEST DUP1 PUSH0 JUMPDEST DUP4 DUP2 LT ISZERO PUSH2 0x811 JUMPI DUP2 MLOAD PUSH2 0x7F8 DUP9 DUP3 PUSH2 0x79F JUMP JUMPDEST SWAP8 POP PUSH2 0x803 DUP4 PUSH2 0x7B6 JUMP JUMPDEST SWAP3 POP POP PUSH1 0x1 DUP2 ADD SWAP1 POP PUSH2 0x7E4 JUMP JUMPDEST POP DUP6 SWAP4 POP POP POP POP SWAP3 SWAP2 POP POP JUMP JUMPDEST PUSH0 PUSH1 0x20 DUP3 ADD SWAP1 POP DUP2 DUP2 SUB PUSH0 DUP4 ADD MSTORE PUSH2 0x836 DUP2 DUP5 PUSH2 0x7C2 JUMP JUMPDEST SWAP1 POP SWAP3 SWAP2 POP POP JUMP JUMPDEST PUSH0 DUP2 ISZERO ISZERO SWAP1 POP SWAP2 SWAP1 POP JUMP JUMPDEST PUSH2 0x852 DUP2 PUSH2 0x83E JUMP JUMPDEST DUP3 MSTORE POP POP JUMP JUMPDEST PUSH0 PUSH1 0x20 DUP3 ADD SWAP1 POP PUSH2 0x86B PUSH0 DUP4 ADD DUP5 PUSH2 0x849 JUMP JUMPDEST SWAP3 SWAP2 POP POP JUMP JUMPDEST PUSH2 0x87A DUP2 PUSH2 0x709 JUMP JUMPDEST DUP3 MSTORE POP POP JUMP JUMPDEST PUSH0 PUSH1 0x20 DUP3 ADD SWAP1 POP PUSH2 0x893 PUSH0 DUP4 ADD DUP5 PUSH2 0x871 JUMP JUMPDEST SWAP3 SWAP2 POP POP JUMP JUMPDEST PUSH0 PUSH0 PUSH1 0x40 DUP4 DUP6 SUB SLT ISZERO PUSH2 0x8AF JUMPI PUSH2 0x8AE PUSH2 0x705 JUMP JUMPDEST JUMPDEST PUSH0 PUSH2 0x8BC DUP6 DUP3 DUP7 ADD PUSH2 0x728 JUMP JUMPDEST SWAP3 POP POP PUSH1 0x20 PUSH2 0x8CD DUP6 DUP3 DUP7 ADD PUSH2 0x728 JUMP JUMPDEST SWAP2 POP POP SWAP3 POP SWAP3 SWAP1 POP JUMP JUMPDEST PUSH0 PUSH1 0x40 DUP3 ADD SWAP1 POP PUSH2 0x8EA PUSH0 DUP4 ADD DUP6 PUSH2 0x849 JUMP JUMPDEST PUSH2 0x8F7 PUSH1 0x20 DUP4 ADD DUP5 PUSH2 0x871 JUMP JUMPDEST SWAP4 SWAP3 POP POP POP JUMP JUMPDEST PUSH0 DUP3 DUP3 MSTORE PUSH1 0x20 DUP3 ADD SWAP1 POP SWAP3 SWAP2 POP POP JUMP JUMPDEST PUSH32 0x496E646578206F7574206F6620626F756E647300000000000000000000000000 PUSH0 DUP3 ADD MSTORE POP JUMP JUMPDEST PUSH0 PUSH2 0x942 PUSH1 0x13 DUP4 PUSH2 0x8FE JUMP JUMPDEST SWAP2 POP PUSH2 0x94D DUP3 PUSH2 0x90E JUMP JUMPDEST PUSH1 0x20 DUP3 ADD SWAP1 POP SWAP2 SWAP1 POP JUMP JUMPDEST PUSH0 PUSH1 0x20 DUP3 ADD SWAP1 POP DUP2 DUP2 SUB PUSH0 DUP4 ADD MSTORE PUSH2 0x96F DUP2 PUSH2 0x936 JUMP JUMPDEST SWAP1 POP SWAP2 SWAP1 POP JUMP JUMPDEST PUSH32 0x4E487B7100000000000000000000000000000000000000000000000000000000 PUSH0 MSTORE PUSH1 0x32 PUSH1 0x4 MSTORE PUSH1 0x24 PUSH0 REVERT JUMPDEST PUSH32 0x4E487B7100000000000000000000000000000000000000000000000000000000 PUSH0 MSTORE PUSH1 0x11 PUSH1 0x4 MSTORE PUSH1 0x24 PUSH0 REVERT JUMPDEST PUSH0 PUSH2 0x9DA DUP3 PUSH2 0x709 JUMP JUMPDEST SWAP2 POP PUSH2 0x9E5 DUP4 PUSH2 0x709 JUMP JUMPDEST SWAP3 POP DUP3 DUP3 SUB SWAP1 POP DUP2 DUP2 GT ISZERO PUSH2 0x9FD JUMPI PUSH2 0x9FC PUSH2 0x9A3 JUMP JUMPDEST JUMPDEST SWAP3 SWAP2 POP POP JUMP JUMPDEST PUSH32 0x4E487B7100000000000000000000000000000000000000000000000000000000 PUSH0 MSTORE PUSH1 0x31 PUSH1 0x4 MSTORE PUSH1 0x24 PUSH0 REVERT JUMPDEST PUSH0 PUSH1 0x40 DUP3 ADD SWAP1 POP PUSH2 0xA43 PUSH0 DUP4 ADD DUP6 PUSH2 0x871 JUMP JUMPDEST PUSH2 0xA50 PUSH1 0x20 DUP4 ADD DUP5 PUSH2 0x871 JUMP JUMPDEST SWAP4 SWAP3 POP POP POP JUMP JUMPDEST PUSH32 0x41727261792069732066756C6C00000000000000000000000000000000000000 PUSH0 DUP3 ADD MSTORE POP JUMP JUMPDEST PUSH0 PUSH2 0xA8B PUSH1 0xD DUP4 PUSH2 0x8FE JUMP JUMPDEST SWAP2 POP PUSH2 0xA96 DUP3 PUSH2 0xA57 JUMP JUMPDEST PUSH1 0x20 DUP3 ADD SWAP1 POP SWAP2 SWAP1 POP JUMP JUMPDEST PUSH0 PUSH1 0x20 DUP3 ADD SWAP1 POP DUP2 DUP2 SUB PUSH0 DUP4 ADD MSTORE PUSH2 0xAB8 DUP2 PUSH2 0xA7F JUMP JUMPDEST SWAP1 POP SWAP2 SWAP1 POP JUMP JUMPDEST PUSH32 0x496E76616C69642072616E676500000000000000000000000000000000000000 PUSH0 DUP3 ADD MSTORE POP JUMP JUMPDEST PUSH0 PUSH2 0xAF3 PUSH1 0xD DUP4 PUSH2 0x8FE JUMP JUMPDEST SWAP2 POP PUSH2 0xAFE DUP3 PUSH2 0xABF JUMP JUMPDEST PUSH1 0x20 DUP3 ADD SWAP1 POP SWAP2 SWAP1 POP JUMP JUMPDEST PUSH0 PUSH1 0x20 DUP3 ADD SWAP1 POP DUP2 DUP2 SUB PUSH0 DUP4 ADD MSTORE PUSH2 0xB20 DUP2 PUSH2 0xAE7 JUMP JUMPDEST SWAP1 POP SWAP2 SWAP1 POP JUMP JUMPDEST PUSH32 0x456E64206F7574206F6620626F756E6473000000000000000000000000000000 PUSH0 DUP3 ADD MSTORE POP JUMP JUMPDEST PUSH0 PUSH2 0xB5B PUSH1 0x11 DUP4 PUSH2 0x8FE JUMP JUMPDEST SWAP2 POP PUSH2 0xB66 DUP3 PUSH2 0xB27 JUMP JUMPDEST PUSH1 0x20 DUP3 ADD SWAP1 POP SWAP2 SWAP1 POP JUMP JUMPDEST PUSH0 PUSH1 0x20 DUP3 ADD SWAP1 POP DUP2 DUP2 SUB PUSH0 DUP4 ADD MSTORE PUSH2 0xB88 DUP2 PUSH2 0xB4F JUMP JUMPDEST SWAP1 POP SWAP2 SWAP1 POP JUMP JUMPDEST PUSH0 PUSH2 0xB99 DUP3 PUSH2 0x709 JUMP JUMPDEST SWAP2 POP PUSH2 0xBA4 DUP4 PUSH2 0x709 JUMP JUMPDEST SWAP3 POP DUP3 DUP3 ADD SWAP1 POP DUP1 DUP3 GT ISZERO PUSH2 0xBBC JUMPI PUSH2 0xBBB PUSH2 0x9A3 JUMP JUMPDEST JUMPDEST SWAP3 SWAP2 POP POP JUMP INVALID LOG2 PUSH5 0x6970667358 0x22 SLT KECCAK256 SHR 0xA9 TIMESTAMP PUSH9 0x8B42414A3855BB2051 0x28 MUL RETURNCONTRACT 0x34 LT 0x25 SMOD 0xF 0xBA SWAP13 0xAF SELFBALANCE PUSH22 0xED8F549BB8D64736F6C634300081F00330000000000 "
				},
				"gasEstimates": {
					"creation": {
						"codeDepositCost": "612800",
						"executionCost": "643",
						"totalCost": "613443"
					},
					"external": {
						"MAX_SIZE()": "414",
						"data(uint256)": "infinite",
						"findElement(uint256)": "infinite",
						"getAll()": "infinite",
						"getLength()": "2505",
						"isEmpty()": "2517",
						"isFull()": "2498",
						"removeOrdered(uint256)": "infinite",
						"removeUnordered(uint256)": "infinite",
						"safePush(uint256)": "infinite",
						"sumRange(uint256,uint256)": "infinite"
					}
				},
				"methodIdentifiers": {
					"MAX_SIZE()": "8d67799e",
					"data(uint256)": "f0ba8440",
					"findElement(uint256)": "e990b43d",
					"getAll()": "53ed5143",
					"getLength()": "be1c766b",
					"isEmpty()": "681fe70c",
					"isFull()": "babd3d9a",
					"removeOrdered(uint256)": "a6158fdb",
					"removeUnordered(uint256)": "3b3c4ec5",
					"safePush(uint256)": "3e275690",
					"sumRange(uint256,uint256)": "a214547f"
				}
			},
			"storageLayout": {
				"storage": [
					{
						"astId": 4,
						"contract": "contracts/lesson3.1/SafeArrayManager.sol:SafeArrayManager",
						"label": "data",
						"offset": 0,
						"slot": "0",
						"type": "t_array(t_uint256)dyn_storage"
					}
				],
				"types": {
					"t_array(t_uint256)dyn_storage": {
						"base": "t_uint256",
						"encoding": "dynamic_array",
						"label": "uint256[]",
						"numberOfBytes": "32"
					},
					"t_uint256": {
						"encoding": "inplace",
						"label": "uint256",
						"numberOfBytes": "32"
					}
				}
			},
			"userdoc": {
				"kind": "user",
				"methods": {},
				"version": 1
			}
		}
	}
}