{
	"contracts/lesson3.2/UserManagementSystem.sol": {
		"UserManagementSystem": {
			"abi": [
				{
					"anonymous": false,
					"inputs": [
						{
							"indexed": true,
							"internalType": "address",
							"name": "user",
							"type": "address"
						},
						{
							"indexed": false,
							"internalType": "uint256",
							"name": "amount",
							"type": "uint256"
						}
					],
					"name": "Deposit",
					"type": "event"
				},
				{
					"anonymous": false,
					"inputs": [
						{
							"indexed": true,
							"internalType": "address",
							"name": "user",
							"type": "address"
						},
						{
							"indexed": false,
							"internalType": "string",
							"name": "name",
							"type": "string"
						}
					],
					"name": "UserRegistered",
					"type": "event"
				},
				{
					"anonymous": false,
					"inputs": [
						{
							"indexed": true,
							"internalType": "address",
							"name": "user",
							"type": "address"
						}
					],
					"name": "UserUpdated",
					"type": "event"
				},
				{
					"inputs": [],
					"name": "MAX_USERS",
					"outputs": [
						{
							"internalType": "uint256",
							"name": "",
							"type": "uint256"
						}
					],
					"stateMutability": "view",
					"type": "function"
				},
				{
					"inputs": [],
					"name": "deposit",
					"outputs": [],
					"stateMutability": "payable",
					"type": "function"
				},
				{
					"inputs": [],
					"name": "getAllUsers",
					"outputs": [
						{
							"internalType": "address[]",
							"name": "",
							"type": "address[]"
						}
					],
					"stateMutability": "view",
					"type": "function"
				},
				{
					"inputs": [
						{
							"internalType": "address",
							"name": "user",
							"type": "address"
						}
					],
					"name": "getUserInfo",
					"outputs": [
						{
							"components": [
								{
									"internalType": "string",
									"name": "name",
									"type": "string"
								},
								{
									"internalType": "string",
									"name": "email",
									"type": "string"
								},
								{
									"internalType": "uint256",
									"name": "balance",
									"type": "uint256"
								},
								{
									"internalType": "uint256",
									"name": "registeredAt",
									"type": "uint256"
								},
								{
									"internalType": "bool",
									"name": "exists",
									"type": "bool"
								}
							],
							"internalType": "struct UserManagementSystem.User",
							"name": "",
							"type": "tuple"
						}
					],
					"stateMutability": "view",
					"type": "function"
				},
				{
					"inputs": [
						{
							"internalType": "uint256",
							"name": "start",
							"type": "uint256"
						},
						{
							"internalType": "uint256",
							"name": "end",
							"type": "uint256"
						}
					],
					"name": "getUsersByRange",
					"outputs": [
						{
							"internalType": "address[]",
							"name": "",
							"type": "address[]"
						}
					],
					"stateMutability": "view",
					"type": "function"
				},
				{
					"inputs": [
						{
							"internalType": "address",
							"name": "user",
							"type": "address"
						}
					],
					"name": "isRegistered",
					"outputs": [
						{
							"internalType": "bool",
							"name": "",
							"type": "bool"
						}
					],
					"stateMutability": "view",
					"type": "function"
				},
				{
					"inputs": [
						{
							"internalType": "string",
							"name": "name",
							"type": "string"
						},
						{
							"internalType": "string",
							"name": "email",
							"type": "string"
						}
					],
					"name": "register",
					"outputs": [],
					"stateMutability": "nonpayable",
					"type": "function"
				},
				{
					"inputs": [
						{
							"internalType": "string",
							"name": "name",
							"type": "string"
						},
						{
							"internalType": "string",
							"name": "email",
							"type": "string"
						}
					],
					"name": "updateProfile",
					"outputs": [],
					"stateMutability": "nonpayable",
					"type": "function"
				},
				{
					"inputs": [
						{
							"internalType": "uint256",
							"name": "",
							"type": "uint256"
						}
					],
					"name": "userAddresses",
					"outputs": [
						{
							"internalType": "address",
							"name": "",
							"type": "address"
						}
					],
					"stateMutability": "view",
					"type": "function"
				},
				{
					"inputs": [],
					"name": "userCount",
					"outputs": [
						{
							"internalType": "uint256",
							"name": "",
							"type": "uint256"
						}
					],
					"stateMutability": "view",
					"type": "function"
				},
				{
					"inputs": [
						{
							"internalType": "address",
							"name": "",
							"type": "address"
						}
					],
					"name": "users",
					"outputs": [
						{
							"internalType": "string",
							"name": "name",
							"type": "string"
						},
						{
							"internalType": "string",
							"name": "email",
							"type": "string"
						},
						{
							"internalType": "uint256",
							"name": "balance",
							"type": "uint256"
						},
						{
							"internalType": "uint256",
							"name": "registeredAt",
							"type": "uint256"
						},
						{
							"internalType": "bool",
							"name": "exists",
							"type": "bool"
						}
					],
					"stateMutability": "view",
					"type": "function"
				}
			],
			"devdoc": {
				"kind": "dev",
				"methods": {},
				"version": 1
			},
			"evm": {
				"assembly": "    /* \"contracts/lesson3.2/UserManagementSystem.sol\":57:2864  contract UserManagementSystem {... */\n  mstore(0x40, 0x80)\n  callvalue\n  dup1\n  iszero\n  tag_1\n  jumpi\n  revert(0x00, 0x00)\ntag_1:\n  pop\n  dataSize(sub_0)\n  dup1\n  dataOffset(sub_0)\n  0x00\n  codecopy\n  0x00\n  return\nstop\n\nsub_0: assembly {\n        /* \"contracts/lesson3.2/UserManagementSystem.sol\":57:2864  contract UserManagementSystem {... */\n      mstore(0x40, 0x80)\n      jumpi(tag_1, lt(calldatasize, 0x04))\n      shr(0xe0, calldataload(0x00))\n      dup1\n      0xc3c5a547\n      gt\n      tag_13\n      jumpi\n      dup1\n      0xc3c5a547\n      eq\n      tag_7\n      jumpi\n      dup1\n      0xc9d3cc6a\n      eq\n      tag_8\n      jumpi\n      dup1\n      0xd0e30db0\n      eq\n      tag_9\n      jumpi\n      dup1\n      0xe2842d79\n      eq\n      tag_10\n      jumpi\n      dup1\n      0xed5cd0e7\n      eq\n      tag_11\n      jumpi\n      dup1\n      0xfa6ac131\n      eq\n      tag_12\n      jumpi\n      jump(tag_1)\n    tag_13:\n      dup1\n      0x07973ccf\n      eq\n      tag_2\n      jumpi\n      dup1\n      0x3ffbd47f\n      eq\n      tag_3\n      jumpi\n      dup1\n      0x502c9bd5\n      eq\n      tag_4\n      jumpi\n      dup1\n      0x6386c1c7\n      eq\n      tag_5\n      jumpi\n      dup1\n      0xa87430ba\n      eq\n      tag_6\n      jumpi\n    tag_1:\n      revert(0x00, 0x00)\n        /* \"contracts/lesson3.2/UserManagementSystem.sol\":435:459  uint256 public userCount */\n    tag_2:\n      callvalue\n      dup1\n      iszero\n      tag_14\n      jumpi\n      revert(0x00, 0x00)\n    tag_14:\n      pop\n      tag_15\n      tag_16\n      jump\t// in\n    tag_15:\n      mload(0x40)\n      tag_17\n      swap2\n      swap1\n      tag_18\n      jump\t// in\n    tag_17:\n      mload(0x40)\n      dup1\n      swap2\n      sub\n      swap1\n      return\n        /* \"contracts/lesson3.2/UserManagementSystem.sol\":708:1469  function register(string memory name, string memory email) public {... */\n    tag_3:\n      callvalue\n      dup1\n      iszero\n      tag_19\n      jumpi\n      revert(0x00, 0x00)\n    tag_19:\n      pop\n      tag_20\n      0x04\n      dup1\n      calldatasize\n      sub\n      dup2\n      add\n      swap1\n      tag_21\n      swap2\n      swap1\n      tag_22\n      jump\t// in\n    tag_21:\n      tag_23\n      jump\t// in\n    tag_20:\n      stop\n        /* \"contracts/lesson3.2/UserManagementSystem.sol\":399:429  address[] public userAddresses */\n    tag_4:\n      callvalue\n      dup1\n      iszero\n      tag_24\n      jumpi\n      revert(0x00, 0x00)\n    tag_24:\n      pop\n      tag_25\n      0x04\n      dup1\n      calldatasize\n      sub\n      dup2\n      add\n      swap1\n      tag_26\n      swap2\n      swap1\n      tag_27\n      jump\t// in\n    tag_26:\n      tag_28\n      jump\t// in\n    tag_25:\n      mload(0x40)\n      tag_29\n      swap2\n      swap1\n      tag_30\n      jump\t// in\n    tag_29:\n      mload(0x40)\n      dup1\n      swap2\n      sub\n      swap1\n      return\n        /* \"contracts/lesson3.2/UserManagementSystem.sol\":2018:2177  function getUserInfo(address user) public view returns (User memory) {... */\n    tag_5:\n      callvalue\n      dup1\n      iszero\n      tag_31\n      jumpi\n      revert(0x00, 0x00)\n    tag_31:\n      pop\n      tag_32\n      0x04\n      dup1\n      calldatasize\n      sub\n      dup2\n      add\n      swap1\n      tag_33\n      swap2\n      swap1\n      tag_34\n      jump\t// in\n    tag_33:\n      tag_35\n      jump\t// in\n    tag_32:\n      mload(0x40)\n      tag_36\n      swap2\n      swap1\n      tag_37\n      jump\t// in\n    tag_36:\n      mload(0x40)\n      dup1\n      swap2\n      sub\n      swap1\n      return\n        /* \"contracts/lesson3.2/UserManagementSystem.sol\":356:393  mapping(address => User) public users */\n    tag_6:\n      callvalue\n      dup1\n      iszero\n      tag_38\n      jumpi\n      revert(0x00, 0x00)\n    tag_38:\n      pop\n      tag_39\n      0x04\n      dup1\n      calldatasize\n      sub\n      dup2\n      add\n      swap1\n      tag_40\n      swap2\n      swap1\n      tag_34\n      jump\t// in\n    tag_40:\n      tag_41\n      jump\t// in\n    tag_39:\n      mload(0x40)\n      tag_42\n      swap6\n      swap5\n      swap4\n      swap3\n      swap2\n      swap1\n      tag_43\n      jump\t// in\n    tag_42:\n      mload(0x40)\n      dup1\n      swap2\n      sub\n      swap1\n      return\n        /* \"contracts/lesson3.2/UserManagementSystem.sol\":2757:2862  function isRegistered(address user) public view returns (bool) {... */\n    tag_7:\n      callvalue\n      dup1\n      iszero\n      tag_44\n      jumpi\n      revert(0x00, 0x00)\n    tag_44:\n      pop\n      tag_45\n      0x04\n      dup1\n      calldatasize\n      sub\n      dup2\n      add\n      swap1\n      tag_46\n      swap2\n      swap1\n      tag_34\n      jump\t// in\n    tag_46:\n      tag_47\n      jump\t// in\n    tag_45:\n      mload(0x40)\n      tag_48\n      swap2\n      swap1\n      tag_49\n      jump\t// in\n    tag_48:\n      mload(0x40)\n      dup1\n      swap2\n      sub\n      swap1\n      return\n        /* \"contracts/lesson3.2/UserManagementSystem.sol\":1501:1760  function updateProfile(string memory name, string memory email) public {... */\n    tag_8:\n      callvalue\n      dup1\n      iszero\n      tag_50\n      jumpi\n      revert(0x00, 0x00)\n    tag_50:\n      pop\n      tag_51\n      0x04\n      dup1\n      calldatasize\n      sub\n      dup2\n      add\n      swap1\n      tag_52\n      swap2\n      swap1\n      tag_22\n      jump\t// in\n    tag_52:\n      tag_53\n      jump\t// in\n    tag_51:\n      stop\n        /* \"contracts/lesson3.2/UserManagementSystem.sol\":1766:2012  function deposit() public payable {... */\n    tag_9:\n      tag_54\n      tag_55\n      jump\t// in\n    tag_54:\n      stop\n        /* \"contracts/lesson3.2/UserManagementSystem.sol\":2183:2282  function getAllUsers() public view returns (address[] memory) {... */\n    tag_10:\n      callvalue\n      dup1\n      iszero\n      tag_56\n      jumpi\n      revert(0x00, 0x00)\n    tag_56:\n      pop\n      tag_57\n      tag_58\n      jump\t// in\n    tag_57:\n      mload(0x40)\n      tag_59\n      swap2\n      swap1\n      tag_60\n      jump\t// in\n    tag_59:\n      mload(0x40)\n      dup1\n      swap2\n      sub\n      swap1\n      return\n        /* \"contracts/lesson3.2/UserManagementSystem.sol\":2288:2751  function getUsersByRange(... */\n    tag_11:\n      callvalue\n      dup1\n      iszero\n      tag_61\n      jumpi\n      revert(0x00, 0x00)\n    tag_61:\n      pop\n      tag_62\n      0x04\n      dup1\n      calldatasize\n      sub\n      dup2\n      add\n      swap1\n      tag_63\n      swap2\n      swap1\n      tag_64\n      jump\t// in\n    tag_63:\n      tag_65\n      jump\t// in\n    tag_62:\n      mload(0x40)\n      tag_66\n      swap2\n      swap1\n      tag_60\n      jump\t// in\n    tag_66:\n      mload(0x40)\n      dup1\n      swap2\n      sub\n      swap1\n      return\n        /* \"contracts/lesson3.2/UserManagementSystem.sol\":465:505  uint256 public constant MAX_USERS = 1000 */\n    tag_12:\n      callvalue\n      dup1\n      iszero\n      tag_67\n      jumpi\n      revert(0x00, 0x00)\n    tag_67:\n      pop\n      tag_68\n      tag_69\n      jump\t// in\n    tag_68:\n      mload(0x40)\n      tag_70\n      swap2\n      swap1\n      tag_18\n      jump\t// in\n    tag_70:\n      mload(0x40)\n      dup1\n      swap2\n      sub\n      swap1\n      return\n        /* \"contracts/lesson3.2/UserManagementSystem.sol\":435:459  uint256 public userCount */\n    tag_16:\n      sload(0x02)\n      dup2\n      jump\t// out\n        /* \"contracts/lesson3.2/UserManagementSystem.sol\":708:1469  function register(string memory name, string memory email) public {... */\n    tag_23:\n        /* \"contracts/lesson3.2/UserManagementSystem.sol\":826:831  users */\n      0x00\n        /* \"contracts/lesson3.2/UserManagementSystem.sol\":826:843  users[msg.sender] */\n      0x00\n        /* \"contracts/lesson3.2/UserManagementSystem.sol\":832:842  msg.sender */\n      caller\n        /* \"contracts/lesson3.2/UserManagementSystem.sol\":826:843  users[msg.sender] */\n      0xffffffffffffffffffffffffffffffffffffffff\n      and\n      0xffffffffffffffffffffffffffffffffffffffff\n      and\n      dup2\n      mstore\n      0x20\n      add\n      swap1\n      dup2\n      mstore\n      0x20\n      add\n      0x00\n      keccak256\n        /* \"contracts/lesson3.2/UserManagementSystem.sol\":826:850  users[msg.sender].exists */\n      0x04\n      add\n      0x00\n      swap1\n      sload\n      swap1\n      0x0100\n      exp\n      swap1\n      div\n      0xff\n      and\n        /* \"contracts/lesson3.2/UserManagementSystem.sol\":825:850  !users[msg.sender].exists */\n      iszero\n        /* \"contracts/lesson3.2/UserManagementSystem.sol\":817:873  require(!users[msg.sender].exists, \"Already registered\") */\n      tag_72\n      jumpi\n      mload(0x40)\n      0x08c379a000000000000000000000000000000000000000000000000000000000\n      dup2\n      mstore\n      0x04\n      add\n      tag_73\n      swap1\n      tag_74\n      jump\t// in\n    tag_73:\n      mload(0x40)\n      dup1\n      swap2\n      sub\n      swap1\n      revert\n    tag_72:\n        /* \"contracts/lesson3.2/UserManagementSystem.sol\":501:505  1000 */\n      0x03e8\n        /* \"contracts/lesson3.2/UserManagementSystem.sol\":927:936  userCount */\n      sload(0x02)\n        /* \"contracts/lesson3.2/UserManagementSystem.sol\":927:948  userCount < MAX_USERS */\n      lt\n        /* \"contracts/lesson3.2/UserManagementSystem.sol\":919:970  require(userCount < MAX_USERS, \"Max users reached\") */\n      tag_75\n      jumpi\n      mload(0x40)\n      0x08c379a000000000000000000000000000000000000000000000000000000000\n      dup2\n      mstore\n      0x04\n      add\n      tag_76\n      swap1\n      tag_77\n      jump\t// in\n    tag_76:\n      mload(0x40)\n      dup1\n      swap2\n      sub\n      swap1\n      revert\n    tag_75:\n        /* \"contracts/lesson3.2/UserManagementSystem.sol\":1009:1010  0 */\n      0x00\n        /* \"contracts/lesson3.2/UserManagementSystem.sol\":994:998  name */\n      dup3\n        /* \"contracts/lesson3.2/UserManagementSystem.sol\":988:1006  bytes(name).length */\n      mload\n        /* \"contracts/lesson3.2/UserManagementSystem.sol\":988:1010  bytes(name).length > 0 */\n      gt\n        /* \"contracts/lesson3.2/UserManagementSystem.sol\":980:1028  require(bytes(name).length > 0, \"Name required\") */\n      tag_78\n      jumpi\n      mload(0x40)\n      0x08c379a000000000000000000000000000000000000000000000000000000000\n      dup2\n      mstore\n      0x04\n      add\n      tag_79\n      swap1\n      tag_80\n      jump\t// in\n    tag_79:\n      mload(0x40)\n      dup1\n      swap2\n      sub\n      swap1\n      revert\n    tag_78:\n        /* \"contracts/lesson3.2/UserManagementSystem.sol\":1068:1069  0 */\n      0x00\n        /* \"contracts/lesson3.2/UserManagementSystem.sol\":1052:1057  email */\n      dup2\n        /* \"contracts/lesson3.2/UserManagementSystem.sol\":1046:1065  bytes(email).length */\n      mload\n        /* \"contracts/lesson3.2/UserManagementSystem.sol\":1046:1069  bytes(email).length > 0 */\n      gt\n        /* \"contracts/lesson3.2/UserManagementSystem.sol\":1038:1088  require(bytes(email).length > 0, \"Email required\") */\n      tag_81\n      jumpi\n      mload(0x40)\n      0x08c379a000000000000000000000000000000000000000000000000000000000\n      dup2\n      mstore\n      0x04\n      add\n      tag_82\n      swap1\n      tag_83\n      jump\t// in\n    tag_82:\n      mload(0x40)\n      dup1\n      swap2\n      sub\n      swap1\n      revert\n    tag_81:\n        /* \"contracts/lesson3.2/UserManagementSystem.sol\":1143:1302  User({... */\n      mload(0x40)\n      dup1\n      0xa0\n      add\n      0x40\n      mstore\n      dup1\n        /* \"contracts/lesson3.2/UserManagementSystem.sol\":1168:1172  name */\n      dup4\n        /* \"contracts/lesson3.2/UserManagementSystem.sol\":1143:1302  User({... */\n      dup2\n      mstore\n      0x20\n      add\n        /* \"contracts/lesson3.2/UserManagementSystem.sol\":1193:1198  email */\n      dup3\n        /* \"contracts/lesson3.2/UserManagementSystem.sol\":1143:1302  User({... */\n      dup2\n      mstore\n      0x20\n      add\n        /* \"contracts/lesson3.2/UserManagementSystem.sol\":1221:1222  0 */\n      0x00\n        /* \"contracts/lesson3.2/UserManagementSystem.sol\":1143:1302  User({... */\n      dup2\n      mstore\n      0x20\n      add\n        /* \"contracts/lesson3.2/UserManagementSystem.sol\":1250:1265  block.timestamp */\n      timestamp\n        /* \"contracts/lesson3.2/UserManagementSystem.sol\":1143:1302  User({... */\n      dup2\n      mstore\n      0x20\n      add\n        /* \"contracts/lesson3.2/UserManagementSystem.sol\":1287:1291  true */\n      0x01\n        /* \"contracts/lesson3.2/UserManagementSystem.sol\":1143:1302  User({... */\n      iszero\n      iszero\n      dup2\n      mstore\n      pop\n        /* \"contracts/lesson3.2/UserManagementSystem.sol\":1123:1128  users */\n      0x00\n        /* \"contracts/lesson3.2/UserManagementSystem.sol\":1123:1140  users[msg.sender] */\n      0x00\n        /* \"contracts/lesson3.2/UserManagementSystem.sol\":1129:1139  msg.sender */\n      caller\n        /* \"contracts/lesson3.2/UserManagementSystem.sol\":1123:1140  users[msg.sender] */\n      0xffffffffffffffffffffffffffffffffffffffff\n      and\n      0xffffffffffffffffffffffffffffffffffffffff\n      and\n      dup2\n      mstore\n      0x20\n      add\n      swap1\n      dup2\n      mstore\n      0x20\n      add\n      0x00\n      keccak256\n        /* \"contracts/lesson3.2/UserManagementSystem.sol\":1123:1302  users[msg.sender] = User({... */\n      0x00\n      dup3\n      add\n      mload\n      dup2\n      0x00\n      add\n      swap1\n      dup2\n      tag_84\n      swap2\n      swap1\n      tag_85\n      jump\t// in\n    tag_84:\n      pop\n      0x20\n      dup3\n      add\n      mload\n      dup2\n      0x01\n      add\n      swap1\n      dup2\n      tag_86\n      swap2\n      swap1\n      tag_85\n      jump\t// in\n    tag_86:\n      pop\n      0x40\n      dup3\n      add\n      mload\n      dup2\n      0x02\n      add\n      sstore\n      0x60\n      dup3\n      add\n      mload\n      dup2\n      0x03\n      add\n      sstore\n      0x80\n      dup3\n      add\n      mload\n      dup2\n      0x04\n      add\n      exp(0x0100, 0x00)\n      dup2\n      sload\n      dup2\n      0xff\n      mul\n      not\n      and\n      swap1\n      dup4\n      iszero\n      iszero\n      mul\n      or\n      swap1\n      sstore\n      pop\n      swap1\n      pop\n      pop\n        /* \"contracts/lesson3.2/UserManagementSystem.sol\":1339:1352  userAddresses */\n      0x01\n        /* \"contracts/lesson3.2/UserManagementSystem.sol\":1358:1368  msg.sender */\n      caller\n        /* \"contracts/lesson3.2/UserManagementSystem.sol\":1339:1369  userAddresses.push(msg.sender) */\n      swap1\n      dup1\n      0x01\n      dup2\n      sload\n      add\n      dup1\n      dup3\n      sstore\n      dup1\n      swap2\n      pop\n      pop\n      0x01\n      swap1\n      sub\n      swap1\n      0x00\n      mstore\n      keccak256(0x00, 0x20)\n      add\n      0x00\n      swap1\n      swap2\n      swap1\n      swap2\n      swap1\n      swap2\n      0x0100\n      exp\n      dup2\n      sload\n      dup2\n      0xffffffffffffffffffffffffffffffffffffffff\n      mul\n      not\n      and\n      swap1\n      dup4\n      0xffffffffffffffffffffffffffffffffffffffff\n      and\n      mul\n      or\n      swap1\n      sstore\n      pop\n        /* \"contracts/lesson3.2/UserManagementSystem.sol\":1403:1412  userCount */\n      0x02\n      0x00\n        /* \"contracts/lesson3.2/UserManagementSystem.sol\":1403:1414  userCount++ */\n      dup2\n      sload\n      dup1\n      swap3\n      swap2\n      swap1\n      tag_88\n      swap1\n      tag_89\n      jump\t// in\n    tag_88:\n      swap2\n      swap1\n      pop\n      sstore\n      pop\n        /* \"contracts/lesson3.2/UserManagementSystem.sol\":1445:1455  msg.sender */\n      caller\n        /* \"contracts/lesson3.2/UserManagementSystem.sol\":1430:1462  UserRegistered(msg.sender, name) */\n      0xffffffffffffffffffffffffffffffffffffffff\n      and\n      0x48cac28ad4dc618e15f4c2dd5e97751182f166de97b25618318b2112aa951a2f\n        /* \"contracts/lesson3.2/UserManagementSystem.sol\":1457:1461  name */\n      dup4\n        /* \"contracts/lesson3.2/UserManagementSystem.sol\":1430:1462  UserRegistered(msg.sender, name) */\n      mload(0x40)\n      tag_90\n      swap2\n      swap1\n      tag_91\n      jump\t// in\n    tag_90:\n      mload(0x40)\n      dup1\n      swap2\n      sub\n      swap1\n      log2\n        /* \"contracts/lesson3.2/UserManagementSystem.sol\":708:1469  function register(string memory name, string memory email) public {... */\n      pop\n      pop\n      jump\t// out\n        /* \"contracts/lesson3.2/UserManagementSystem.sol\":399:429  address[] public userAddresses */\n    tag_28:\n      0x01\n      dup2\n      dup2\n      sload\n      dup2\n      lt\n      tag_92\n      jumpi\n      0x00\n      dup1\n      revert\n    tag_92:\n      swap1\n      0x00\n      mstore\n      keccak256(0x00, 0x20)\n      add\n      0x00\n      swap2\n      pop\n      sload\n      swap1\n      0x0100\n      exp\n      swap1\n      div\n      0xffffffffffffffffffffffffffffffffffffffff\n      and\n      dup2\n      jump\t// out\n        /* \"contracts/lesson3.2/UserManagementSystem.sol\":2018:2177  function getUserInfo(address user) public view returns (User memory) {... */\n    tag_35:\n        /* \"contracts/lesson3.2/UserManagementSystem.sol\":2074:2085  User memory */\n      tag_94\n      tag_95\n      jump\t// in\n    tag_94:\n        /* \"contracts/lesson3.2/UserManagementSystem.sol\":2105:2110  users */\n      0x00\n        /* \"contracts/lesson3.2/UserManagementSystem.sol\":2105:2116  users[user] */\n      0x00\n        /* \"contracts/lesson3.2/UserManagementSystem.sol\":2111:2115  user */\n      dup4\n        /* \"contracts/lesson3.2/UserManagementSystem.sol\":2105:2116  users[user] */\n      0xffffffffffffffffffffffffffffffffffffffff\n      and\n      0xffffffffffffffffffffffffffffffffffffffff\n      and\n      dup2\n      mstore\n      0x20\n      add\n      swap1\n      dup2\n      mstore\n      0x20\n      add\n      0x00\n      keccak256\n        /* \"contracts/lesson3.2/UserManagementSystem.sol\":2105:2123  users[user].exists */\n      0x04\n      add\n      0x00\n      swap1\n      sload\n      swap1\n      0x0100\n      exp\n      swap1\n      div\n      0xff\n      and\n        /* \"contracts/lesson3.2/UserManagementSystem.sol\":2097:2142  require(users[user].exists, \"User not found\") */\n      tag_97\n      jumpi\n      mload(0x40)\n      0x08c379a000000000000000000000000000000000000000000000000000000000\n      dup2\n      mstore\n      0x04\n      add\n      tag_98\n      swap1\n      tag_99\n      jump\t// in\n    tag_98:\n      mload(0x40)\n      dup1\n      swap2\n      sub\n      swap1\n      revert\n    tag_97:\n        /* \"contracts/lesson3.2/UserManagementSystem.sol\":2159:2164  users */\n      0x00\n        /* \"contracts/lesson3.2/UserManagementSystem.sol\":2159:2170  users[user] */\n      0x00\n        /* \"contracts/lesson3.2/UserManagementSystem.sol\":2165:2169  user */\n      dup4\n        /* \"contracts/lesson3.2/UserManagementSystem.sol\":2159:2170  users[user] */\n      0xffffffffffffffffffffffffffffffffffffffff\n      and\n      0xffffffffffffffffffffffffffffffffffffffff\n      and\n      dup2\n      mstore\n      0x20\n      add\n      swap1\n      dup2\n      mstore\n      0x20\n      add\n      0x00\n      keccak256\n        /* \"contracts/lesson3.2/UserManagementSystem.sol\":2152:2170  return users[user] */\n      mload(0x40)\n      dup1\n      0xa0\n      add\n      0x40\n      mstore\n      swap1\n      dup2\n      0x00\n      dup3\n      add\n      dup1\n      sload\n      tag_100\n      swap1\n      tag_101\n      jump\t// in\n    tag_100:\n      dup1\n      0x1f\n      add\n      0x20\n      dup1\n      swap2\n      div\n      mul\n      0x20\n      add\n      mload(0x40)\n      swap1\n      dup2\n      add\n      0x40\n      mstore\n      dup1\n      swap3\n      swap2\n      swap1\n      dup2\n      dup2\n      mstore\n      0x20\n      add\n      dup3\n      dup1\n      sload\n      tag_102\n      swap1\n      tag_101\n      jump\t// in\n    tag_102:\n      dup1\n      iszero\n      tag_103\n      jumpi\n      dup1\n      0x1f\n      lt\n      tag_104\n      jumpi\n      0x0100\n      dup1\n      dup4\n      sload\n      div\n      mul\n      dup4\n      mstore\n      swap2\n      0x20\n      add\n      swap2\n      jump(tag_103)\n    tag_104:\n      dup3\n      add\n      swap2\n      swap1\n      0x00\n      mstore\n      keccak256(0x00, 0x20)\n      swap1\n    tag_105:\n      dup2\n      sload\n      dup2\n      mstore\n      swap1\n      0x01\n      add\n      swap1\n      0x20\n      add\n      dup1\n      dup4\n      gt\n      tag_105\n      jumpi\n      dup3\n      swap1\n      sub\n      0x1f\n      and\n      dup3\n      add\n      swap2\n    tag_103:\n      pop\n      pop\n      pop\n      pop\n      pop\n      dup2\n      mstore\n      0x20\n      add\n      0x01\n      dup3\n      add\n      dup1\n      sload\n      tag_106\n      swap1\n      tag_101\n      jump\t// in\n    tag_106:\n      dup1\n      0x1f\n      add\n      0x20\n      dup1\n      swap2\n      div\n      mul\n      0x20\n      add\n      mload(0x40)\n      swap1\n      dup2\n      add\n      0x40\n      mstore\n      dup1\n      swap3\n      swap2\n      swap1\n      dup2\n      dup2\n      mstore\n      0x20\n      add\n      dup3\n      dup1\n      sload\n      tag_107\n      swap1\n      tag_101\n      jump\t// in\n    tag_107:\n      dup1\n      iszero\n      tag_108\n      jumpi\n      dup1\n      0x1f\n      lt\n      tag_109\n      jumpi\n      0x0100\n      dup1\n      dup4\n      sload\n      div\n      mul\n      dup4\n      mstore\n      swap2\n      0x20\n      add\n      swap2\n      jump(tag_108)\n    tag_109:\n      dup3\n      add\n      swap2\n      swap1\n      0x00\n      mstore\n      keccak256(0x00, 0x20)\n      swap1\n    tag_110:\n      dup2\n      sload\n      dup2\n      mstore\n      swap1\n      0x01\n      add\n      swap1\n      0x20\n      add\n      dup1\n      dup4\n      gt\n      tag_110\n      jumpi\n      dup3\n      swap1\n      sub\n      0x1f\n      and\n      dup3\n      add\n      swap2\n    tag_108:\n      pop\n      pop\n      pop\n      pop\n      pop\n      dup2\n      mstore\n      0x20\n      add\n      0x02\n      dup3\n      add\n      sload\n      dup2\n      mstore\n      0x20\n      add\n      0x03\n      dup3\n      add\n      sload\n      dup2\n      mstore\n      0x20\n      add\n      0x04\n      dup3\n      add\n      0x00\n      swap1\n      sload\n      swap1\n      0x0100\n      exp\n      swap1\n      div\n      0xff\n      and\n      iszero\n      iszero\n      iszero\n      iszero\n      dup2\n      mstore\n      pop\n      pop\n      swap1\n      pop\n        /* \"contracts/lesson3.2/UserManagementSystem.sol\":2018:2177  function getUserInfo(address user) public view returns (User memory) {... */\n      swap2\n      swap1\n      pop\n      jump\t// out\n        /* \"contracts/lesson3.2/UserManagementSystem.sol\":356:393  mapping(address => User) public users */\n    tag_41:\n      mstore(0x20, 0x00)\n      dup1\n      0x00\n      mstore\n      keccak256(0x00, 0x40)\n      0x00\n      swap2\n      pop\n      swap1\n      pop\n      dup1\n      0x00\n      add\n      dup1\n      sload\n      tag_111\n      swap1\n      tag_101\n      jump\t// in\n    tag_111:\n      dup1\n      0x1f\n      add\n      0x20\n      dup1\n      swap2\n      div\n      mul\n      0x20\n      add\n      mload(0x40)\n      swap1\n      dup2\n      add\n      0x40\n      mstore\n      dup1\n      swap3\n      swap2\n      swap1\n      dup2\n      dup2\n      mstore\n      0x20\n      add\n      dup3\n      dup1\n      sload\n      tag_112\n      swap1\n      tag_101\n      jump\t// in\n    tag_112:\n      dup1\n      iszero\n      tag_113\n      jumpi\n      dup1\n      0x1f\n      lt\n      tag_114\n      jumpi\n      0x0100\n      dup1\n      dup4\n      sload\n      div\n      mul\n      dup4\n      mstore\n      swap2\n      0x20\n      add\n      swap2\n      jump(tag_113)\n    tag_114:\n      dup3\n      add\n      swap2\n      swap1\n      0x00\n      mstore\n      keccak256(0x00, 0x20)\n      swap1\n    tag_115:\n      dup2\n      sload\n      dup2\n      mstore\n      swap1\n      0x01\n      add\n      swap1\n      0x20\n      add\n      dup1\n      dup4\n      gt\n      tag_115\n      jumpi\n      dup3\n      swap1\n      sub\n      0x1f\n      and\n      dup3\n      add\n      swap2\n    tag_113:\n      pop\n      pop\n      pop\n      pop\n      pop\n      swap1\n      dup1\n      0x01\n      add\n      dup1\n      sload\n      tag_116\n      swap1\n      tag_101\n      jump\t// in\n    tag_116:\n      dup1\n      0x1f\n      add\n      0x20\n      dup1\n      swap2\n      div\n      mul\n      0x20\n      add\n      mload(0x40)\n      swap1\n      dup2\n      add\n      0x40\n      mstore\n      dup1\n      swap3\n      swap2\n      swap1\n      dup2\n      dup2\n      mstore\n      0x20\n      add\n      dup3\n      dup1\n      sload\n      tag_117\n      swap1\n      tag_101\n      jump\t// in\n    tag_117:\n      dup1\n      iszero\n      tag_118\n      jumpi\n      dup1\n      0x1f\n      lt\n      tag_119\n      jumpi\n      0x0100\n      dup1\n      dup4\n      sload\n      div\n      mul\n      dup4\n      mstore\n      swap2\n      0x20\n      add\n      swap2\n      jump(tag_118)\n    tag_119:\n      dup3\n      add\n      swap2\n      swap1\n      0x00\n      mstore\n      keccak256(0x00, 0x20)\n      swap1\n    tag_120:\n      dup2\n      sload\n      dup2\n      mstore\n      swap1\n      0x01\n      add\n      swap1\n      0x20\n      add\n      dup1\n      dup4\n      gt\n      tag_120\n      jumpi\n      dup3\n      swap1\n      sub\n      0x1f\n      and\n      dup3\n      add\n      swap2\n    tag_118:\n      pop\n      pop\n      pop\n      pop\n      pop\n      swap1\n      dup1\n      0x02\n      add\n      sload\n      swap1\n      dup1\n      0x03\n      add\n      sload\n      swap1\n      dup1\n      0x04\n      add\n      0x00\n      swap1\n      sload\n      swap1\n      0x0100\n      exp\n      swap1\n      div\n      0xff\n      and\n      swap1\n      pop\n      dup6\n      jump\t// out\n        /* \"contracts/lesson3.2/UserManagementSystem.sol\":2757:2862  function isRegistered(address user) public view returns (bool) {... */\n    tag_47:\n        /* \"contracts/lesson3.2/UserManagementSystem.sol\":2814:2818  bool */\n      0x00\n        /* \"contracts/lesson3.2/UserManagementSystem.sol\":2837:2842  users */\n      0x00\n        /* \"contracts/lesson3.2/UserManagementSystem.sol\":2837:2848  users[user] */\n      0x00\n        /* \"contracts/lesson3.2/UserManagementSystem.sol\":2843:2847  user */\n      dup4\n        /* \"contracts/lesson3.2/UserManagementSystem.sol\":2837:2848  users[user] */\n      0xffffffffffffffffffffffffffffffffffffffff\n      and\n      0xffffffffffffffffffffffffffffffffffffffff\n      and\n      dup2\n      mstore\n      0x20\n      add\n      swap1\n      dup2\n      mstore\n      0x20\n      add\n      0x00\n      keccak256\n        /* \"contracts/lesson3.2/UserManagementSystem.sol\":2837:2855  users[user].exists */\n      0x04\n      add\n      0x00\n      swap1\n      sload\n      swap1\n      0x0100\n      exp\n      swap1\n      div\n      0xff\n      and\n        /* \"contracts/lesson3.2/UserManagementSystem.sol\":2830:2855  return users[user].exists */\n      swap1\n      pop\n        /* \"contracts/lesson3.2/UserManagementSystem.sol\":2757:2862  function isRegistered(address user) public view returns (bool) {... */\n      swap2\n      swap1\n      pop\n      jump\t// out\n        /* \"contracts/lesson3.2/UserManagementSystem.sol\":1501:1760  function updateProfile(string memory name, string memory email) public {... */\n    tag_53:\n        /* \"contracts/lesson3.2/UserManagementSystem.sol\":1590:1595  users */\n      0x00\n        /* \"contracts/lesson3.2/UserManagementSystem.sol\":1590:1607  users[msg.sender] */\n      0x00\n        /* \"contracts/lesson3.2/UserManagementSystem.sol\":1596:1606  msg.sender */\n      caller\n        /* \"contracts/lesson3.2/UserManagementSystem.sol\":1590:1607  users[msg.sender] */\n      0xffffffffffffffffffffffffffffffffffffffff\n      and\n      0xffffffffffffffffffffffffffffffffffffffff\n      and\n      dup2\n      mstore\n      0x20\n      add\n      swap1\n      dup2\n      mstore\n      0x20\n      add\n      0x00\n      keccak256\n        /* \"contracts/lesson3.2/UserManagementSystem.sol\":1590:1614  users[msg.sender].exists */\n      0x04\n      add\n      0x00\n      swap1\n      sload\n      swap1\n      0x0100\n      exp\n      swap1\n      div\n      0xff\n      and\n        /* \"contracts/lesson3.2/UserManagementSystem.sol\":1582:1633  require(users[msg.sender].exists, \"Not registered\") */\n      tag_123\n      jumpi\n      mload(0x40)\n      0x08c379a000000000000000000000000000000000000000000000000000000000\n      dup2\n      mstore\n      0x04\n      add\n      tag_124\n      swap1\n      tag_125\n      jump\t// in\n    tag_124:\n      mload(0x40)\n      dup1\n      swap2\n      sub\n      swap1\n      revert\n    tag_123:\n        /* \"contracts/lesson3.2/UserManagementSystem.sol\":1669:1673  name */\n      dup2\n        /* \"contracts/lesson3.2/UserManagementSystem.sol\":1644:1649  users */\n      0x00\n        /* \"contracts/lesson3.2/UserManagementSystem.sol\":1644:1661  users[msg.sender] */\n      0x00\n        /* \"contracts/lesson3.2/UserManagementSystem.sol\":1650:1660  msg.sender */\n      caller\n        /* \"contracts/lesson3.2/UserManagementSystem.sol\":1644:1661  users[msg.sender] */\n      0xffffffffffffffffffffffffffffffffffffffff\n      and\n      0xffffffffffffffffffffffffffffffffffffffff\n      and\n      dup2\n      mstore\n      0x20\n      add\n      swap1\n      dup2\n      mstore\n      0x20\n      add\n      0x00\n      keccak256\n        /* \"contracts/lesson3.2/UserManagementSystem.sol\":1644:1666  users[msg.sender].name */\n      0x00\n      add\n        /* \"contracts/lesson3.2/UserManagementSystem.sol\":1644:1673  users[msg.sender].name = name */\n      swap1\n      dup2\n      tag_126\n      swap2\n      swap1\n      tag_85\n      jump\t// in\n    tag_126:\n      pop\n        /* \"contracts/lesson3.2/UserManagementSystem.sol\":1709:1714  email */\n      dup1\n        /* \"contracts/lesson3.2/UserManagementSystem.sol\":1683:1688  users */\n      0x00\n        /* \"contracts/lesson3.2/UserManagementSystem.sol\":1683:1700  users[msg.sender] */\n      0x00\n        /* \"contracts/lesson3.2/UserManagementSystem.sol\":1689:1699  msg.sender */\n      caller\n        /* \"contracts/lesson3.2/UserManagementSystem.sol\":1683:1700  users[msg.sender] */\n      0xffffffffffffffffffffffffffffffffffffffff\n      and\n      0xffffffffffffffffffffffffffffffffffffffff\n      and\n      dup2\n      mstore\n      0x20\n      add\n      swap1\n      dup2\n      mstore\n      0x20\n      add\n      0x00\n      keccak256\n        /* \"contracts/lesson3.2/UserManagementSystem.sol\":1683:1706  users[msg.sender].email */\n      0x01\n      add\n        /* \"contracts/lesson3.2/UserManagementSystem.sol\":1683:1714  users[msg.sender].email = email */\n      swap1\n      dup2\n      tag_127\n      swap2\n      swap1\n      tag_85\n      jump\t// in\n    tag_127:\n      pop\n        /* \"contracts/lesson3.2/UserManagementSystem.sol\":1742:1752  msg.sender */\n      caller\n        /* \"contracts/lesson3.2/UserManagementSystem.sol\":1730:1753  UserUpdated(msg.sender) */\n      0xffffffffffffffffffffffffffffffffffffffff\n      and\n      0x0163b5f10e25c839f35e6f2b201b31e88e17f49e6956232de5d2e6bbae3b78b8\n      mload(0x40)\n      mload(0x40)\n      dup1\n      swap2\n      sub\n      swap1\n      log2\n        /* \"contracts/lesson3.2/UserManagementSystem.sol\":1501:1760  function updateProfile(string memory name, string memory email) public {... */\n      pop\n      pop\n      jump\t// out\n        /* \"contracts/lesson3.2/UserManagementSystem.sol\":1766:2012  function deposit() public payable {... */\n    tag_55:\n        /* \"contracts/lesson3.2/UserManagementSystem.sol\":1818:1823  users */\n      0x00\n        /* \"contracts/lesson3.2/UserManagementSystem.sol\":1818:1835  users[msg.sender] */\n      0x00\n        /* \"contracts/lesson3.2/UserManagementSystem.sol\":1824:1834  msg.sender */\n      caller\n        /* \"contracts/lesson3.2/UserManagementSystem.sol\":1818:1835  users[msg.sender] */\n      0xffffffffffffffffffffffffffffffffffffffff\n      and\n      0xffffffffffffffffffffffffffffffffffffffff\n      and\n      dup2\n      mstore\n      0x20\n      add\n      swap1\n      dup2\n      mstore\n      0x20\n      add\n      0x00\n      keccak256\n        /* \"contracts/lesson3.2/UserManagementSystem.sol\":1818:1842  users[msg.sender].exists */\n      0x04\n      add\n      0x00\n      swap1\n      sload\n      swap1\n      0x0100\n      exp\n      swap1\n      div\n      0xff\n      and\n        /* \"contracts/lesson3.2/UserManagementSystem.sol\":1810:1861  require(users[msg.sender].exists, \"Not registered\") */\n      tag_129\n      jumpi\n      mload(0x40)\n      0x08c379a000000000000000000000000000000000000000000000000000000000\n      dup2\n      mstore\n      0x04\n      add\n      tag_130\n      swap1\n      tag_125\n      jump\t// in\n    tag_130:\n      mload(0x40)\n      dup1\n      swap2\n      sub\n      swap1\n      revert\n    tag_129:\n        /* \"contracts/lesson3.2/UserManagementSystem.sol\":1891:1892  0 */\n      0x00\n        /* \"contracts/lesson3.2/UserManagementSystem.sol\":1879:1888  msg.value */\n      callvalue\n        /* \"contracts/lesson3.2/UserManagementSystem.sol\":1879:1892  msg.value > 0 */\n      gt\n        /* \"contracts/lesson3.2/UserManagementSystem.sol\":1871:1910  require(msg.value > 0, \"Must send ETH\") */\n      tag_131\n      jumpi\n      mload(0x40)\n      0x08c379a000000000000000000000000000000000000000000000000000000000\n      dup2\n      mstore\n      0x04\n      add\n      tag_132\n      swap1\n      tag_133\n      jump\t// in\n    tag_132:\n      mload(0x40)\n      dup1\n      swap2\n      sub\n      swap1\n      revert\n    tag_131:\n        /* \"contracts/lesson3.2/UserManagementSystem.sol\":1950:1959  msg.value */\n      callvalue\n        /* \"contracts/lesson3.2/UserManagementSystem.sol\":1921:1926  users */\n      0x00\n        /* \"contracts/lesson3.2/UserManagementSystem.sol\":1921:1938  users[msg.sender] */\n      0x00\n        /* \"contracts/lesson3.2/UserManagementSystem.sol\":1927:1937  msg.sender */\n      caller\n        /* \"contracts/lesson3.2/UserManagementSystem.sol\":1921:1938  users[msg.sender] */\n      0xffffffffffffffffffffffffffffffffffffffff\n      and\n      0xffffffffffffffffffffffffffffffffffffffff\n      and\n      dup2\n      mstore\n      0x20\n      add\n      swap1\n      dup2\n      mstore\n      0x20\n      add\n      0x00\n      keccak256\n        /* \"contracts/lesson3.2/UserManagementSystem.sol\":1921:1946  users[msg.sender].balance */\n      0x02\n      add\n      0x00\n        /* \"contracts/lesson3.2/UserManagementSystem.sol\":1921:1959  users[msg.sender].balance += msg.value */\n      dup3\n      dup3\n      sload\n      tag_134\n      swap2\n      swap1\n      tag_135\n      jump\t// in\n    tag_134:\n      swap3\n      pop\n      pop\n      dup2\n      swap1\n      sstore\n      pop\n        /* \"contracts/lesson3.2/UserManagementSystem.sol\":1983:1993  msg.sender */\n      caller\n        /* \"contracts/lesson3.2/UserManagementSystem.sol\":1975:2005  Deposit(msg.sender, msg.value) */\n      0xffffffffffffffffffffffffffffffffffffffff\n      and\n      0xe1fffcc4923d04b559f4d29a8bfc6cda04eb5b0d3c460751c2402c5c5cc9109c\n        /* \"contracts/lesson3.2/UserManagementSystem.sol\":1995:2004  msg.value */\n      callvalue\n        /* \"contracts/lesson3.2/UserManagementSystem.sol\":1975:2005  Deposit(msg.sender, msg.value) */\n      mload(0x40)\n      tag_136\n      swap2\n      swap1\n      tag_18\n      jump\t// in\n    tag_136:\n      mload(0x40)\n      dup1\n      swap2\n      sub\n      swap1\n      log2\n        /* \"contracts/lesson3.2/UserManagementSystem.sol\":1766:2012  function deposit() public payable {... */\n      jump\t// out\n        /* \"contracts/lesson3.2/UserManagementSystem.sol\":2183:2282  function getAllUsers() public view returns (address[] memory) {... */\n    tag_58:\n        /* \"contracts/lesson3.2/UserManagementSystem.sol\":2227:2243  address[] memory */\n      0x60\n        /* \"contracts/lesson3.2/UserManagementSystem.sol\":2262:2275  userAddresses */\n      0x01\n        /* \"contracts/lesson3.2/UserManagementSystem.sol\":2255:2275  return userAddresses */\n      dup1\n      sload\n      dup1\n      0x20\n      mul\n      0x20\n      add\n      mload(0x40)\n      swap1\n      dup2\n      add\n      0x40\n      mstore\n      dup1\n      swap3\n      swap2\n      swap1\n      dup2\n      dup2\n      mstore\n      0x20\n      add\n      dup3\n      dup1\n      sload\n      dup1\n      iszero\n      tag_138\n      jumpi\n      0x20\n      mul\n      dup3\n      add\n      swap2\n      swap1\n      0x00\n      mstore\n      keccak256(0x00, 0x20)\n      swap1\n    tag_139:\n      dup2\n      0x00\n      swap1\n      sload\n      swap1\n      0x0100\n      exp\n      swap1\n      div\n      0xffffffffffffffffffffffffffffffffffffffff\n      and\n      0xffffffffffffffffffffffffffffffffffffffff\n      and\n      dup2\n      mstore\n      0x20\n      add\n      swap1\n      0x01\n      add\n      swap1\n      dup1\n      dup4\n      gt\n      tag_139\n      jumpi\n    tag_138:\n      pop\n      pop\n      pop\n      pop\n      pop\n      swap1\n      pop\n        /* \"contracts/lesson3.2/UserManagementSystem.sol\":2183:2282  function getAllUsers() public view returns (address[] memory) {... */\n      swap1\n      jump\t// out\n        /* \"contracts/lesson3.2/UserManagementSystem.sol\":2288:2751  function getUsersByRange(... */\n    tag_65:\n        /* \"contracts/lesson3.2/UserManagementSystem.sol\":2384:2400  address[] memory */\n      0x60\n        /* \"contracts/lesson3.2/UserManagementSystem.sol\":2428:2431  end */\n      dup2\n        /* \"contracts/lesson3.2/UserManagementSystem.sol\":2420:2425  start */\n      dup4\n        /* \"contracts/lesson3.2/UserManagementSystem.sol\":2420:2431  start < end */\n      lt\n        /* \"contracts/lesson3.2/UserManagementSystem.sol\":2412:2449  require(start < end, \"Invalid range\") */\n      tag_141\n      jumpi\n      mload(0x40)\n      0x08c379a000000000000000000000000000000000000000000000000000000000\n      dup2\n      mstore\n      0x04\n      add\n      tag_142\n      swap1\n      tag_143\n      jump\t// in\n    tag_142:\n      mload(0x40)\n      dup1\n      swap2\n      sub\n      swap1\n      revert\n    tag_141:\n        /* \"contracts/lesson3.2/UserManagementSystem.sol\":2474:2487  userAddresses */\n      0x01\n        /* \"contracts/lesson3.2/UserManagementSystem.sol\":2474:2494  userAddresses.length */\n      dup1\n      sload\n      swap1\n      pop\n        /* \"contracts/lesson3.2/UserManagementSystem.sol\":2467:2470  end */\n      dup3\n        /* \"contracts/lesson3.2/UserManagementSystem.sol\":2467:2494  end <= userAddresses.length */\n      gt\n      iszero\n        /* \"contracts/lesson3.2/UserManagementSystem.sol\":2459:2516  require(end <= userAddresses.length, \"End out of bounds\") */\n      tag_144\n      jumpi\n      mload(0x40)\n      0x08c379a000000000000000000000000000000000000000000000000000000000\n      dup2\n      mstore\n      0x04\n      add\n      tag_145\n      swap1\n      tag_146\n      jump\t// in\n    tag_145:\n      mload(0x40)\n      dup1\n      swap2\n      sub\n      swap1\n      revert\n    tag_144:\n        /* \"contracts/lesson3.2/UserManagementSystem.sol\":2527:2541  uint256 length */\n      0x00\n        /* \"contracts/lesson3.2/UserManagementSystem.sol\":2550:2555  start */\n      dup4\n        /* \"contracts/lesson3.2/UserManagementSystem.sol\":2544:2547  end */\n      dup4\n        /* \"contracts/lesson3.2/UserManagementSystem.sol\":2544:2555  end - start */\n      tag_147\n      swap2\n      swap1\n      tag_148\n      jump\t// in\n    tag_147:\n        /* \"contracts/lesson3.2/UserManagementSystem.sol\":2527:2555  uint256 length = end - start */\n      swap1\n      pop\n        /* \"contracts/lesson3.2/UserManagementSystem.sol\":2565:2588  address[] memory result */\n      0x00\n        /* \"contracts/lesson3.2/UserManagementSystem.sol\":2605:2611  length */\n      dup2\n        /* \"contracts/lesson3.2/UserManagementSystem.sol\":2591:2612  new address[](length) */\n      0xffffffffffffffff\n      dup2\n      gt\n      iszero\n      tag_149\n      jumpi\n      tag_150\n      tag_151\n      jump\t// in\n    tag_150:\n    tag_149:\n      mload(0x40)\n      swap1\n      dup1\n      dup3\n      mstore\n      dup1\n      0x20\n      mul\n      0x20\n      add\n      dup3\n      add\n      0x40\n      mstore\n      dup1\n      iszero\n      tag_152\n      jumpi\n      dup2\n      0x20\n      add\n      0x20\n      dup3\n      mul\n      dup1\n      calldatasize\n      dup4\n      calldatacopy\n      dup1\n      dup3\n      add\n      swap2\n      pop\n      pop\n      swap1\n      pop\n    tag_152:\n      pop\n        /* \"contracts/lesson3.2/UserManagementSystem.sol\":2565:2612  address[] memory result = new address[](length) */\n      swap1\n      pop\n        /* \"contracts/lesson3.2/UserManagementSystem.sol\":2628:2637  uint256 i */\n      0x00\n        /* \"contracts/lesson3.2/UserManagementSystem.sol\":2640:2641  0 */\n      0x00\n        /* \"contracts/lesson3.2/UserManagementSystem.sol\":2628:2641  uint256 i = 0 */\n      swap1\n      pop\n        /* \"contracts/lesson3.2/UserManagementSystem.sol\":2623:2721  for (uint256 i = 0; i < length; i++) {... */\n    tag_153:\n        /* \"contracts/lesson3.2/UserManagementSystem.sol\":2647:2653  length */\n      dup3\n        /* \"contracts/lesson3.2/UserManagementSystem.sol\":2643:2644  i */\n      dup2\n        /* \"contracts/lesson3.2/UserManagementSystem.sol\":2643:2653  i < length */\n      lt\n        /* \"contracts/lesson3.2/UserManagementSystem.sol\":2623:2721  for (uint256 i = 0; i < length; i++) {... */\n      iszero\n      tag_154\n      jumpi\n        /* \"contracts/lesson3.2/UserManagementSystem.sol\":2686:2699  userAddresses */\n      0x01\n        /* \"contracts/lesson3.2/UserManagementSystem.sol\":2708:2709  i */\n      dup2\n        /* \"contracts/lesson3.2/UserManagementSystem.sol\":2700:2705  start */\n      dup8\n        /* \"contracts/lesson3.2/UserManagementSystem.sol\":2700:2709  start + i */\n      tag_156\n      swap2\n      swap1\n      tag_135\n      jump\t// in\n    tag_156:\n        /* \"contracts/lesson3.2/UserManagementSystem.sol\":2686:2710  userAddresses[start + i] */\n      dup2\n      sload\n      dup2\n      lt\n      tag_157\n      jumpi\n      tag_158\n      tag_159\n      jump\t// in\n    tag_158:\n    tag_157:\n      swap1\n      0x00\n      mstore\n      keccak256(0x00, 0x20)\n      add\n      0x00\n      swap1\n      sload\n      swap1\n      0x0100\n      exp\n      swap1\n      div\n      0xffffffffffffffffffffffffffffffffffffffff\n      and\n        /* \"contracts/lesson3.2/UserManagementSystem.sol\":2674:2680  result */\n      dup3\n        /* \"contracts/lesson3.2/UserManagementSystem.sol\":2681:2682  i */\n      dup3\n        /* \"contracts/lesson3.2/UserManagementSystem.sol\":2674:2683  result[i] */\n      dup2\n      mload\n      dup2\n      lt\n      tag_161\n      jumpi\n      tag_162\n      tag_159\n      jump\t// in\n    tag_162:\n    tag_161:\n      0x20\n      mul\n      0x20\n      add\n      add\n        /* \"contracts/lesson3.2/UserManagementSystem.sol\":2674:2710  result[i] = userAddresses[start + i] */\n      swap1\n      0xffffffffffffffffffffffffffffffffffffffff\n      and\n      swap1\n      dup2\n      0xffffffffffffffffffffffffffffffffffffffff\n      and\n      dup2\n      mstore\n      pop\n      pop\n        /* \"contracts/lesson3.2/UserManagementSystem.sol\":2655:2658  i++ */\n      dup1\n      dup1\n      0x01\n      add\n      swap2\n      pop\n      pop\n        /* \"contracts/lesson3.2/UserManagementSystem.sol\":2623:2721  for (uint256 i = 0; i < length; i++) {... */\n      jump(tag_153)\n    tag_154:\n      pop\n        /* \"contracts/lesson3.2/UserManagementSystem.sol\":2738:2744  result */\n      dup1\n        /* \"contracts/lesson3.2/UserManagementSystem.sol\":2731:2744  return result */\n      swap3\n      pop\n      pop\n      pop\n        /* \"contracts/lesson3.2/UserManagementSystem.sol\":2288:2751  function getUsersByRange(... */\n      swap3\n      swap2\n      pop\n      pop\n      jump\t// out\n        /* \"contracts/lesson3.2/UserManagementSystem.sol\":465:505  uint256 public constant MAX_USERS = 1000 */\n    tag_69:\n        /* \"contracts/lesson3.2/UserManagementSystem.sol\":501:505  1000 */\n      0x03e8\n        /* \"contracts/lesson3.2/UserManagementSystem.sol\":465:505  uint256 public constant MAX_USERS = 1000 */\n      dup2\n      jump\t// out\n    tag_95:\n      mload(0x40)\n      dup1\n      0xa0\n      add\n      0x40\n      mstore\n      dup1\n      0x60\n      dup2\n      mstore\n      0x20\n      add\n      0x60\n      dup2\n      mstore\n      0x20\n      add\n      0x00\n      dup2\n      mstore\n      0x20\n      add\n      0x00\n      dup2\n      mstore\n      0x20\n      add\n      iszero(iszero(0x00))\n      dup2\n      mstore\n      pop\n      swap1\n      jump\t// out\n        /* \"#utility.yul\":7:84   */\n    tag_163:\n        /* \"#utility.yul\":44:51   */\n      0x00\n        /* \"#utility.yul\":73:78   */\n      dup2\n        /* \"#utility.yul\":62:78   */\n      swap1\n      pop\n        /* \"#utility.yul\":7:84   */\n      swap2\n      swap1\n      pop\n      jump\t// out\n        /* \"#utility.yul\":90:208   */\n    tag_164:\n        /* \"#utility.yul\":177:201   */\n      tag_240\n        /* \"#utility.yul\":195:200   */\n      dup2\n        /* \"#utility.yul\":177:201   */\n      tag_163\n      jump\t// in\n    tag_240:\n        /* \"#utility.yul\":172:175   */\n      dup3\n        /* \"#utility.yul\":165:202   */\n      mstore\n        /* \"#utility.yul\":90:208   */\n      pop\n      pop\n      jump\t// out\n        /* \"#utility.yul\":214:436   */\n    tag_18:\n        /* \"#utility.yul\":307:311   */\n      0x00\n        /* \"#utility.yul\":345:347   */\n      0x20\n        /* \"#utility.yul\":334:343   */\n      dup3\n        /* \"#utility.yul\":330:348   */\n      add\n        /* \"#utility.yul\":322:348   */\n      swap1\n      pop\n        /* \"#utility.yul\":358:429   */\n      tag_242\n        /* \"#utility.yul\":426:427   */\n      0x00\n        /* \"#utility.yul\":415:424   */\n      dup4\n        /* \"#utility.yul\":411:428   */\n      add\n        /* \"#utility.yul\":402:408   */\n      dup5\n        /* \"#utility.yul\":358:429   */\n      tag_164\n      jump\t// in\n    tag_242:\n        /* \"#utility.yul\":214:436   */\n      swap3\n      swap2\n      pop\n      pop\n      jump\t// out\n        /* \"#utility.yul\":442:517   */\n    tag_165:\n        /* \"#utility.yul\":475:481   */\n      0x00\n        /* \"#utility.yul\":508:510   */\n      0x40\n        /* \"#utility.yul\":502:511   */\n      mload\n        /* \"#utility.yul\":492:511   */\n      swap1\n      pop\n        /* \"#utility.yul\":442:517   */\n      swap1\n      jump\t// out\n        /* \"#utility.yul\":523:640   */\n    tag_166:\n        /* \"#utility.yul\":632:633   */\n      0x00\n        /* \"#utility.yul\":629:630   */\n      0x00\n        /* \"#utility.yul\":622:634   */\n      revert\n        /* \"#utility.yul\":646:763   */\n    tag_167:\n        /* \"#utility.yul\":755:756   */\n      0x00\n        /* \"#utility.yul\":752:753   */\n      0x00\n        /* \"#utility.yul\":745:757   */\n      revert\n        /* \"#utility.yul\":769:886   */\n    tag_168:\n        /* \"#utility.yul\":878:879   */\n      0x00\n        /* \"#utility.yul\":875:876   */\n      0x00\n        /* \"#utility.yul\":868:880   */\n      revert\n        /* \"#utility.yul\":892:1009   */\n    tag_169:\n        /* \"#utility.yul\":1001:1002   */\n      0x00\n        /* \"#utility.yul\":998:999   */\n      0x00\n        /* \"#utility.yul\":991:1003   */\n      revert\n        /* \"#utility.yul\":1015:1117   */\n    tag_170:\n        /* \"#utility.yul\":1056:1062   */\n      0x00\n        /* \"#utility.yul\":1107:1109   */\n      0x1f\n        /* \"#utility.yul\":1103:1110   */\n      not\n        /* \"#utility.yul\":1098:1100   */\n      0x1f\n        /* \"#utility.yul\":1091:1096   */\n      dup4\n        /* \"#utility.yul\":1087:1101   */\n      add\n        /* \"#utility.yul\":1083:1111   */\n      and\n        /* \"#utility.yul\":1073:1111   */\n      swap1\n      pop\n        /* \"#utility.yul\":1015:1117   */\n      swap2\n      swap1\n      pop\n      jump\t// out\n        /* \"#utility.yul\":1123:1303   */\n    tag_151:\n        /* \"#utility.yul\":1171:1248   */\n      0x4e487b7100000000000000000000000000000000000000000000000000000000\n        /* \"#utility.yul\":1168:1169   */\n      0x00\n        /* \"#utility.yul\":1161:1249   */\n      mstore\n        /* \"#utility.yul\":1268:1272   */\n      0x41\n        /* \"#utility.yul\":1265:1266   */\n      0x04\n        /* \"#utility.yul\":1258:1273   */\n      mstore\n        /* \"#utility.yul\":1292:1296   */\n      0x24\n        /* \"#utility.yul\":1289:1290   */\n      0x00\n        /* \"#utility.yul\":1282:1297   */\n      revert\n        /* \"#utility.yul\":1309:1590   */\n    tag_171:\n        /* \"#utility.yul\":1392:1419   */\n      tag_251\n        /* \"#utility.yul\":1414:1418   */\n      dup3\n        /* \"#utility.yul\":1392:1419   */\n      tag_170\n      jump\t// in\n    tag_251:\n        /* \"#utility.yul\":1384:1390   */\n      dup2\n        /* \"#utility.yul\":1380:1420   */\n      add\n        /* \"#utility.yul\":1522:1528   */\n      dup2\n        /* \"#utility.yul\":1510:1520   */\n      dup2\n        /* \"#utility.yul\":1507:1529   */\n      lt\n        /* \"#utility.yul\":1486:1504   */\n      0xffffffffffffffff\n        /* \"#utility.yul\":1474:1484   */\n      dup3\n        /* \"#utility.yul\":1471:1505   */\n      gt\n        /* \"#utility.yul\":1468:1530   */\n      or\n        /* \"#utility.yul\":1465:1553   */\n      iszero\n      tag_252\n      jumpi\n        /* \"#utility.yul\":1533:1551   */\n      tag_253\n      tag_151\n      jump\t// in\n    tag_253:\n        /* \"#utility.yul\":1465:1553   */\n    tag_252:\n        /* \"#utility.yul\":1573:1583   */\n      dup1\n        /* \"#utility.yul\":1569:1571   */\n      0x40\n        /* \"#utility.yul\":1562:1584   */\n      mstore\n        /* \"#utility.yul\":1352:1590   */\n      pop\n        /* \"#utility.yul\":1309:1590   */\n      pop\n      pop\n      jump\t// out\n        /* \"#utility.yul\":1596:1725   */\n    tag_172:\n        /* \"#utility.yul\":1630:1636   */\n      0x00\n        /* \"#utility.yul\":1657:1677   */\n      tag_255\n      tag_165\n      jump\t// in\n    tag_255:\n        /* \"#utility.yul\":1647:1677   */\n      swap1\n      pop\n        /* \"#utility.yul\":1686:1719   */\n      tag_256\n        /* \"#utility.yul\":1714:1718   */\n      dup3\n        /* \"#utility.yul\":1706:1712   */\n      dup3\n        /* \"#utility.yul\":1686:1719   */\n      tag_171\n      jump\t// in\n    tag_256:\n        /* \"#utility.yul\":1596:1725   */\n      swap2\n      swap1\n      pop\n      jump\t// out\n        /* \"#utility.yul\":1731:2039   */\n    tag_173:\n        /* \"#utility.yul\":1793:1797   */\n      0x00\n        /* \"#utility.yul\":1883:1901   */\n      0xffffffffffffffff\n        /* \"#utility.yul\":1875:1881   */\n      dup3\n        /* \"#utility.yul\":1872:1902   */\n      gt\n        /* \"#utility.yul\":1869:1925   */\n      iszero\n      tag_258\n      jumpi\n        /* \"#utility.yul\":1905:1923   */\n      tag_259\n      tag_151\n      jump\t// in\n    tag_259:\n        /* \"#utility.yul\":1869:1925   */\n    tag_258:\n        /* \"#utility.yul\":1943:1972   */\n      tag_260\n        /* \"#utility.yul\":1965:1971   */\n      dup3\n        /* \"#utility.yul\":1943:1972   */\n      tag_170\n      jump\t// in\n    tag_260:\n        /* \"#utility.yul\":1935:1972   */\n      swap1\n      pop\n        /* \"#utility.yul\":2027:2031   */\n      0x20\n        /* \"#utility.yul\":2021:2025   */\n      dup2\n        /* \"#utility.yul\":2017:2032   */\n      add\n        /* \"#utility.yul\":2009:2032   */\n      swap1\n      pop\n        /* \"#utility.yul\":1731:2039   */\n      swap2\n      swap1\n      pop\n      jump\t// out\n        /* \"#utility.yul\":2045:2193   */\n    tag_174:\n        /* \"#utility.yul\":2143:2149   */\n      dup3\n        /* \"#utility.yul\":2138:2141   */\n      dup2\n        /* \"#utility.yul\":2133:2136   */\n      dup4\n        /* \"#utility.yul\":2120:2150   */\n      calldatacopy\n        /* \"#utility.yul\":2184:2185   */\n      0x00\n        /* \"#utility.yul\":2175:2181   */\n      dup4\n        /* \"#utility.yul\":2170:2173   */\n      dup4\n        /* \"#utility.yul\":2166:2182   */\n      add\n        /* \"#utility.yul\":2159:2186   */\n      mstore\n        /* \"#utility.yul\":2045:2193   */\n      pop\n      pop\n      pop\n      jump\t// out\n        /* \"#utility.yul\":2199:2624   */\n    tag_175:\n        /* \"#utility.yul\":2277:2282   */\n      0x00\n        /* \"#utility.yul\":2302:2368   */\n      tag_263\n        /* \"#utility.yul\":2318:2367   */\n      tag_264\n        /* \"#utility.yul\":2360:2366   */\n      dup5\n        /* \"#utility.yul\":2318:2367   */\n      tag_173\n      jump\t// in\n    tag_264:\n        /* \"#utility.yul\":2302:2368   */\n      tag_172\n      jump\t// in\n    tag_263:\n        /* \"#utility.yul\":2293:2368   */\n      swap1\n      pop\n        /* \"#utility.yul\":2391:2397   */\n      dup3\n        /* \"#utility.yul\":2384:2389   */\n      dup2\n        /* \"#utility.yul\":2377:2398   */\n      mstore\n        /* \"#utility.yul\":2429:2433   */\n      0x20\n        /* \"#utility.yul\":2422:2427   */\n      dup2\n        /* \"#utility.yul\":2418:2434   */\n      add\n        /* \"#utility.yul\":2467:2470   */\n      dup5\n        /* \"#utility.yul\":2458:2464   */\n      dup5\n        /* \"#utility.yul\":2453:2456   */\n      dup5\n        /* \"#utility.yul\":2449:2465   */\n      add\n        /* \"#utility.yul\":2446:2471   */\n      gt\n        /* \"#utility.yul\":2443:2555   */\n      iszero\n      tag_265\n      jumpi\n        /* \"#utility.yul\":2474:2553   */\n      tag_266\n      tag_169\n      jump\t// in\n    tag_266:\n        /* \"#utility.yul\":2443:2555   */\n    tag_265:\n        /* \"#utility.yul\":2564:2618   */\n      tag_267\n        /* \"#utility.yul\":2611:2617   */\n      dup5\n        /* \"#utility.yul\":2606:2609   */\n      dup3\n        /* \"#utility.yul\":2601:2604   */\n      dup6\n        /* \"#utility.yul\":2564:2618   */\n      tag_174\n      jump\t// in\n    tag_267:\n        /* \"#utility.yul\":2283:2624   */\n      pop\n        /* \"#utility.yul\":2199:2624   */\n      swap4\n      swap3\n      pop\n      pop\n      pop\n      jump\t// out\n        /* \"#utility.yul\":2644:2984   */\n    tag_176:\n        /* \"#utility.yul\":2700:2705   */\n      0x00\n        /* \"#utility.yul\":2749:2752   */\n      dup3\n        /* \"#utility.yul\":2742:2746   */\n      0x1f\n        /* \"#utility.yul\":2734:2740   */\n      dup4\n        /* \"#utility.yul\":2730:2747   */\n      add\n        /* \"#utility.yul\":2726:2753   */\n      slt\n        /* \"#utility.yul\":2716:2838   */\n      tag_269\n      jumpi\n        /* \"#utility.yul\":2757:2836   */\n      tag_270\n      tag_168\n      jump\t// in\n    tag_270:\n        /* \"#utility.yul\":2716:2838   */\n    tag_269:\n        /* \"#utility.yul\":2874:2880   */\n      dup2\n        /* \"#utility.yul\":2861:2881   */\n      calldataload\n        /* \"#utility.yul\":2899:2978   */\n      tag_271\n        /* \"#utility.yul\":2974:2977   */\n      dup5\n        /* \"#utility.yul\":2966:2972   */\n      dup3\n        /* \"#utility.yul\":2959:2963   */\n      0x20\n        /* \"#utility.yul\":2951:2957   */\n      dup7\n        /* \"#utility.yul\":2947:2964   */\n      add\n        /* \"#utility.yul\":2899:2978   */\n      tag_175\n      jump\t// in\n    tag_271:\n        /* \"#utility.yul\":2890:2978   */\n      swap2\n      pop\n        /* \"#utility.yul\":2706:2984   */\n      pop\n        /* \"#utility.yul\":2644:2984   */\n      swap3\n      swap2\n      pop\n      pop\n      jump\t// out\n        /* \"#utility.yul\":2990:3824   */\n    tag_22:\n        /* \"#utility.yul\":3078:3084   */\n      0x00\n        /* \"#utility.yul\":3086:3092   */\n      0x00\n        /* \"#utility.yul\":3135:3137   */\n      0x40\n        /* \"#utility.yul\":3123:3132   */\n      dup4\n        /* \"#utility.yul\":3114:3121   */\n      dup6\n        /* \"#utility.yul\":3110:3133   */\n      sub\n        /* \"#utility.yul\":3106:3138   */\n      slt\n        /* \"#utility.yul\":3103:3222   */\n      iszero\n      tag_273\n      jumpi\n        /* \"#utility.yul\":3141:3220   */\n      tag_274\n      tag_166\n      jump\t// in\n    tag_274:\n        /* \"#utility.yul\":3103:3222   */\n    tag_273:\n        /* \"#utility.yul\":3289:3290   */\n      0x00\n        /* \"#utility.yul\":3278:3287   */\n      dup4\n        /* \"#utility.yul\":3274:3291   */\n      add\n        /* \"#utility.yul\":3261:3292   */\n      calldataload\n        /* \"#utility.yul\":3319:3337   */\n      0xffffffffffffffff\n        /* \"#utility.yul\":3311:3317   */\n      dup2\n        /* \"#utility.yul\":3308:3338   */\n      gt\n        /* \"#utility.yul\":3305:3422   */\n      iszero\n      tag_275\n      jumpi\n        /* \"#utility.yul\":3341:3420   */\n      tag_276\n      tag_167\n      jump\t// in\n    tag_276:\n        /* \"#utility.yul\":3305:3422   */\n    tag_275:\n        /* \"#utility.yul\":3446:3509   */\n      tag_277\n        /* \"#utility.yul\":3501:3508   */\n      dup6\n        /* \"#utility.yul\":3492:3498   */\n      dup3\n        /* \"#utility.yul\":3481:3490   */\n      dup7\n        /* \"#utility.yul\":3477:3499   */\n      add\n        /* \"#utility.yul\":3446:3509   */\n      tag_176\n      jump\t// in\n    tag_277:\n        /* \"#utility.yul\":3436:3509   */\n      swap3\n      pop\n        /* \"#utility.yul\":3232:3519   */\n      pop\n        /* \"#utility.yul\":3586:3588   */\n      0x20\n        /* \"#utility.yul\":3575:3584   */\n      dup4\n        /* \"#utility.yul\":3571:3589   */\n      add\n        /* \"#utility.yul\":3558:3590   */\n      calldataload\n        /* \"#utility.yul\":3617:3635   */\n      0xffffffffffffffff\n        /* \"#utility.yul\":3609:3615   */\n      dup2\n        /* \"#utility.yul\":3606:3636   */\n      gt\n        /* \"#utility.yul\":3603:3720   */\n      iszero\n      tag_278\n      jumpi\n        /* \"#utility.yul\":3639:3718   */\n      tag_279\n      tag_167\n      jump\t// in\n    tag_279:\n        /* \"#utility.yul\":3603:3720   */\n    tag_278:\n        /* \"#utility.yul\":3744:3807   */\n      tag_280\n        /* \"#utility.yul\":3799:3806   */\n      dup6\n        /* \"#utility.yul\":3790:3796   */\n      dup3\n        /* \"#utility.yul\":3779:3788   */\n      dup7\n        /* \"#utility.yul\":3775:3797   */\n      add\n        /* \"#utility.yul\":3744:3807   */\n      tag_176\n      jump\t// in\n    tag_280:\n        /* \"#utility.yul\":3734:3807   */\n      swap2\n      pop\n        /* \"#utility.yul\":3529:3817   */\n      pop\n        /* \"#utility.yul\":2990:3824   */\n      swap3\n      pop\n      swap3\n      swap1\n      pop\n      jump\t// out\n        /* \"#utility.yul\":3830:3952   */\n    tag_177:\n        /* \"#utility.yul\":3903:3927   */\n      tag_282\n        /* \"#utility.yul\":3921:3926   */\n      dup2\n        /* \"#utility.yul\":3903:3927   */\n      tag_163\n      jump\t// in\n    tag_282:\n        /* \"#utility.yul\":3896:3901   */\n      dup2\n        /* \"#utility.yul\":3893:3928   */\n      eq\n        /* \"#utility.yul\":3883:3946   */\n      tag_283\n      jumpi\n        /* \"#utility.yul\":3942:3943   */\n      0x00\n        /* \"#utility.yul\":3939:3940   */\n      0x00\n        /* \"#utility.yul\":3932:3944   */\n      revert\n        /* \"#utility.yul\":3883:3946   */\n    tag_283:\n        /* \"#utility.yul\":3830:3952   */\n      pop\n      jump\t// out\n        /* \"#utility.yul\":3958:4097   */\n    tag_178:\n        /* \"#utility.yul\":4004:4009   */\n      0x00\n        /* \"#utility.yul\":4042:4048   */\n      dup2\n        /* \"#utility.yul\":4029:4049   */\n      calldataload\n        /* \"#utility.yul\":4020:4049   */\n      swap1\n      pop\n        /* \"#utility.yul\":4058:4091   */\n      tag_285\n        /* \"#utility.yul\":4085:4090   */\n      dup2\n        /* \"#utility.yul\":4058:4091   */\n      tag_177\n      jump\t// in\n    tag_285:\n        /* \"#utility.yul\":3958:4097   */\n      swap3\n      swap2\n      pop\n      pop\n      jump\t// out\n        /* \"#utility.yul\":4103:4432   */\n    tag_27:\n        /* \"#utility.yul\":4162:4168   */\n      0x00\n        /* \"#utility.yul\":4211:4213   */\n      0x20\n        /* \"#utility.yul\":4199:4208   */\n      dup3\n        /* \"#utility.yul\":4190:4197   */\n      dup5\n        /* \"#utility.yul\":4186:4209   */\n      sub\n        /* \"#utility.yul\":4182:4214   */\n      slt\n        /* \"#utility.yul\":4179:4298   */\n      iszero\n      tag_287\n      jumpi\n        /* \"#utility.yul\":4217:4296   */\n      tag_288\n      tag_166\n      jump\t// in\n    tag_288:\n        /* \"#utility.yul\":4179:4298   */\n    tag_287:\n        /* \"#utility.yul\":4337:4338   */\n      0x00\n        /* \"#utility.yul\":4362:4415   */\n      tag_289\n        /* \"#utility.yul\":4407:4414   */\n      dup5\n        /* \"#utility.yul\":4398:4404   */\n      dup3\n        /* \"#utility.yul\":4387:4396   */\n      dup6\n        /* \"#utility.yul\":4383:4405   */\n      add\n        /* \"#utility.yul\":4362:4415   */\n      tag_178\n      jump\t// in\n    tag_289:\n        /* \"#utility.yul\":4352:4415   */\n      swap2\n      pop\n        /* \"#utility.yul\":4308:4425   */\n      pop\n        /* \"#utility.yul\":4103:4432   */\n      swap3\n      swap2\n      pop\n      pop\n      jump\t// out\n        /* \"#utility.yul\":4438:4564   */\n    tag_179:\n        /* \"#utility.yul\":4475:4482   */\n      0x00\n        /* \"#utility.yul\":4515:4557   */\n      0xffffffffffffffffffffffffffffffffffffffff\n        /* \"#utility.yul\":4508:4513   */\n      dup3\n        /* \"#utility.yul\":4504:4558   */\n      and\n        /* \"#utility.yul\":4493:4558   */\n      swap1\n      pop\n        /* \"#utility.yul\":4438:4564   */\n      swap2\n      swap1\n      pop\n      jump\t// out\n        /* \"#utility.yul\":4570:4666   */\n    tag_180:\n        /* \"#utility.yul\":4607:4614   */\n      0x00\n        /* \"#utility.yul\":4636:4660   */\n      tag_292\n        /* \"#utility.yul\":4654:4659   */\n      dup3\n        /* \"#utility.yul\":4636:4660   */\n      tag_179\n      jump\t// in\n    tag_292:\n        /* \"#utility.yul\":4625:4660   */\n      swap1\n      pop\n        /* \"#utility.yul\":4570:4666   */\n      swap2\n      swap1\n      pop\n      jump\t// out\n        /* \"#utility.yul\":4672:4790   */\n    tag_181:\n        /* \"#utility.yul\":4759:4783   */\n      tag_294\n        /* \"#utility.yul\":4777:4782   */\n      dup2\n        /* \"#utility.yul\":4759:4783   */\n      tag_180\n      jump\t// in\n    tag_294:\n        /* \"#utility.yul\":4754:4757   */\n      dup3\n        /* \"#utility.yul\":4747:4784   */\n      mstore\n        /* \"#utility.yul\":4672:4790   */\n      pop\n      pop\n      jump\t// out\n        /* \"#utility.yul\":4796:5018   */\n    tag_30:\n        /* \"#utility.yul\":4889:4893   */\n      0x00\n        /* \"#utility.yul\":4927:4929   */\n      0x20\n        /* \"#utility.yul\":4916:4925   */\n      dup3\n        /* \"#utility.yul\":4912:4930   */\n      add\n        /* \"#utility.yul\":4904:4930   */\n      swap1\n      pop\n        /* \"#utility.yul\":4940:5011   */\n      tag_296\n        /* \"#utility.yul\":5008:5009   */\n      0x00\n        /* \"#utility.yul\":4997:5006   */\n      dup4\n        /* \"#utility.yul\":4993:5010   */\n      add\n        /* \"#utility.yul\":4984:4990   */\n      dup5\n        /* \"#utility.yul\":4940:5011   */\n      tag_181\n      jump\t// in\n    tag_296:\n        /* \"#utility.yul\":4796:5018   */\n      swap3\n      swap2\n      pop\n      pop\n      jump\t// out\n        /* \"#utility.yul\":5024:5146   */\n    tag_182:\n        /* \"#utility.yul\":5097:5121   */\n      tag_298\n        /* \"#utility.yul\":5115:5120   */\n      dup2\n        /* \"#utility.yul\":5097:5121   */\n      tag_180\n      jump\t// in\n    tag_298:\n        /* \"#utility.yul\":5090:5095   */\n      dup2\n        /* \"#utility.yul\":5087:5122   */\n      eq\n        /* \"#utility.yul\":5077:5140   */\n      tag_299\n      jumpi\n        /* \"#utility.yul\":5136:5137   */\n      0x00\n        /* \"#utility.yul\":5133:5134   */\n      0x00\n        /* \"#utility.yul\":5126:5138   */\n      revert\n        /* \"#utility.yul\":5077:5140   */\n    tag_299:\n        /* \"#utility.yul\":5024:5146   */\n      pop\n      jump\t// out\n        /* \"#utility.yul\":5152:5291   */\n    tag_183:\n        /* \"#utility.yul\":5198:5203   */\n      0x00\n        /* \"#utility.yul\":5236:5242   */\n      dup2\n        /* \"#utility.yul\":5223:5243   */\n      calldataload\n        /* \"#utility.yul\":5214:5243   */\n      swap1\n      pop\n        /* \"#utility.yul\":5252:5285   */\n      tag_301\n        /* \"#utility.yul\":5279:5284   */\n      dup2\n        /* \"#utility.yul\":5252:5285   */\n      tag_182\n      jump\t// in\n    tag_301:\n        /* \"#utility.yul\":5152:5291   */\n      swap3\n      swap2\n      pop\n      pop\n      jump\t// out\n        /* \"#utility.yul\":5297:5626   */\n    tag_34:\n        /* \"#utility.yul\":5356:5362   */\n      0x00\n        /* \"#utility.yul\":5405:5407   */\n      0x20\n        /* \"#utility.yul\":5393:5402   */\n      dup3\n        /* \"#utility.yul\":5384:5391   */\n      dup5\n        /* \"#utility.yul\":5380:5403   */\n      sub\n        /* \"#utility.yul\":5376:5408   */\n      slt\n        /* \"#utility.yul\":5373:5492   */\n      iszero\n      tag_303\n      jumpi\n        /* \"#utility.yul\":5411:5490   */\n      tag_304\n      tag_166\n      jump\t// in\n    tag_304:\n        /* \"#utility.yul\":5373:5492   */\n    tag_303:\n        /* \"#utility.yul\":5531:5532   */\n      0x00\n        /* \"#utility.yul\":5556:5609   */\n      tag_305\n        /* \"#utility.yul\":5601:5608   */\n      dup5\n        /* \"#utility.yul\":5592:5598   */\n      dup3\n        /* \"#utility.yul\":5581:5590   */\n      dup6\n        /* \"#utility.yul\":5577:5599   */\n      add\n        /* \"#utility.yul\":5556:5609   */\n      tag_183\n      jump\t// in\n    tag_305:\n        /* \"#utility.yul\":5546:5609   */\n      swap2\n      pop\n        /* \"#utility.yul\":5502:5619   */\n      pop\n        /* \"#utility.yul\":5297:5626   */\n      swap3\n      swap2\n      pop\n      pop\n      jump\t// out\n        /* \"#utility.yul\":5632:5731   */\n    tag_184:\n        /* \"#utility.yul\":5684:5690   */\n      0x00\n        /* \"#utility.yul\":5718:5723   */\n      dup2\n        /* \"#utility.yul\":5712:5724   */\n      mload\n        /* \"#utility.yul\":5702:5724   */\n      swap1\n      pop\n        /* \"#utility.yul\":5632:5731   */\n      swap2\n      swap1\n      pop\n      jump\t// out\n        /* \"#utility.yul\":5737:5896   */\n    tag_185:\n        /* \"#utility.yul\":5811:5822   */\n      0x00\n        /* \"#utility.yul\":5845:5851   */\n      dup3\n        /* \"#utility.yul\":5840:5843   */\n      dup3\n        /* \"#utility.yul\":5833:5852   */\n      mstore\n        /* \"#utility.yul\":5885:5889   */\n      0x20\n        /* \"#utility.yul\":5880:5883   */\n      dup3\n        /* \"#utility.yul\":5876:5890   */\n      add\n        /* \"#utility.yul\":5861:5890   */\n      swap1\n      pop\n        /* \"#utility.yul\":5737:5896   */\n      swap3\n      swap2\n      pop\n      pop\n      jump\t// out\n        /* \"#utility.yul\":5902:6041   */\n    tag_186:\n        /* \"#utility.yul\":5991:5997   */\n      dup3\n        /* \"#utility.yul\":5986:5989   */\n      dup2\n        /* \"#utility.yul\":5981:5984   */\n      dup4\n        /* \"#utility.yul\":5975:5998   */\n      mcopy\n        /* \"#utility.yul\":6032:6033   */\n      0x00\n        /* \"#utility.yul\":6023:6029   */\n      dup4\n        /* \"#utility.yul\":6018:6021   */\n      dup4\n        /* \"#utility.yul\":6014:6030   */\n      add\n        /* \"#utility.yul\":6007:6034   */\n      mstore\n        /* \"#utility.yul\":5902:6041   */\n      pop\n      pop\n      pop\n      jump\t// out\n        /* \"#utility.yul\":6047:6404   */\n    tag_187:\n        /* \"#utility.yul\":6125:6128   */\n      0x00\n        /* \"#utility.yul\":6153:6192   */\n      tag_310\n        /* \"#utility.yul\":6186:6191   */\n      dup3\n        /* \"#utility.yul\":6153:6192   */\n      tag_184\n      jump\t// in\n    tag_310:\n        /* \"#utility.yul\":6208:6269   */\n      tag_311\n        /* \"#utility.yul\":6262:6268   */\n      dup2\n        /* \"#utility.yul\":6257:6260   */\n      dup6\n        /* \"#utility.yul\":6208:6269   */\n      tag_185\n      jump\t// in\n    tag_311:\n        /* \"#utility.yul\":6201:6269   */\n      swap4\n      pop\n        /* \"#utility.yul\":6278:6343   */\n      tag_312\n        /* \"#utility.yul\":6336:6342   */\n      dup2\n        /* \"#utility.yul\":6331:6334   */\n      dup6\n        /* \"#utility.yul\":6324:6328   */\n      0x20\n        /* \"#utility.yul\":6317:6322   */\n      dup7\n        /* \"#utility.yul\":6313:6329   */\n      add\n        /* \"#utility.yul\":6278:6343   */\n      tag_186\n      jump\t// in\n    tag_312:\n        /* \"#utility.yul\":6368:6397   */\n      tag_313\n        /* \"#utility.yul\":6390:6396   */\n      dup2\n        /* \"#utility.yul\":6368:6397   */\n      tag_170\n      jump\t// in\n    tag_313:\n        /* \"#utility.yul\":6363:6366   */\n      dup5\n        /* \"#utility.yul\":6359:6398   */\n      add\n        /* \"#utility.yul\":6352:6398   */\n      swap2\n      pop\n        /* \"#utility.yul\":6129:6404   */\n      pop\n        /* \"#utility.yul\":6047:6404   */\n      swap3\n      swap2\n      pop\n      pop\n      jump\t// out\n        /* \"#utility.yul\":6410:6518   */\n    tag_188:\n        /* \"#utility.yul\":6487:6511   */\n      tag_315\n        /* \"#utility.yul\":6505:6510   */\n      dup2\n        /* \"#utility.yul\":6487:6511   */\n      tag_163\n      jump\t// in\n    tag_315:\n        /* \"#utility.yul\":6482:6485   */\n      dup3\n        /* \"#utility.yul\":6475:6512   */\n      mstore\n        /* \"#utility.yul\":6410:6518   */\n      pop\n      pop\n      jump\t// out\n        /* \"#utility.yul\":6524:6614   */\n    tag_189:\n        /* \"#utility.yul\":6558:6565   */\n      0x00\n        /* \"#utility.yul\":6601:6606   */\n      dup2\n        /* \"#utility.yul\":6594:6607   */\n      iszero\n        /* \"#utility.yul\":6587:6608   */\n      iszero\n        /* \"#utility.yul\":6576:6608   */\n      swap1\n      pop\n        /* \"#utility.yul\":6524:6614   */\n      swap2\n      swap1\n      pop\n      jump\t// out\n        /* \"#utility.yul\":6620:6719   */\n    tag_190:\n        /* \"#utility.yul\":6691:6712   */\n      tag_318\n        /* \"#utility.yul\":6706:6711   */\n      dup2\n        /* \"#utility.yul\":6691:6712   */\n      tag_189\n      jump\t// in\n    tag_318:\n        /* \"#utility.yul\":6686:6689   */\n      dup3\n        /* \"#utility.yul\":6679:6713   */\n      mstore\n        /* \"#utility.yul\":6620:6719   */\n      pop\n      pop\n      jump\t// out\n        /* \"#utility.yul\":6801:7998   */\n    tag_191:\n        /* \"#utility.yul\":6910:6913   */\n      0x00\n        /* \"#utility.yul\":6946:6950   */\n      0xa0\n        /* \"#utility.yul\":6941:6944   */\n      dup4\n        /* \"#utility.yul\":6937:6951   */\n      add\n        /* \"#utility.yul\":7033:7037   */\n      0x00\n        /* \"#utility.yul\":7026:7031   */\n      dup4\n        /* \"#utility.yul\":7022:7038   */\n      add\n        /* \"#utility.yul\":7016:7039   */\n      mload\n        /* \"#utility.yul\":7086:7089   */\n      dup5\n        /* \"#utility.yul\":7080:7084   */\n      dup3\n        /* \"#utility.yul\":7076:7090   */\n      sub\n        /* \"#utility.yul\":7069:7073   */\n      0x00\n        /* \"#utility.yul\":7064:7067   */\n      dup7\n        /* \"#utility.yul\":7060:7074   */\n      add\n        /* \"#utility.yul\":7053:7091   */\n      mstore\n        /* \"#utility.yul\":7112:7185   */\n      tag_320\n        /* \"#utility.yul\":7180:7184   */\n      dup3\n        /* \"#utility.yul\":7166:7178   */\n      dup3\n        /* \"#utility.yul\":7112:7185   */\n      tag_187\n      jump\t// in\n    tag_320:\n        /* \"#utility.yul\":7104:7185   */\n      swap2\n      pop\n        /* \"#utility.yul\":6961:7196   */\n      pop\n        /* \"#utility.yul\":7279:7283   */\n      0x20\n        /* \"#utility.yul\":7272:7277   */\n      dup4\n        /* \"#utility.yul\":7268:7284   */\n      add\n        /* \"#utility.yul\":7262:7285   */\n      mload\n        /* \"#utility.yul\":7332:7335   */\n      dup5\n        /* \"#utility.yul\":7326:7330   */\n      dup3\n        /* \"#utility.yul\":7322:7336   */\n      sub\n        /* \"#utility.yul\":7315:7319   */\n      0x20\n        /* \"#utility.yul\":7310:7313   */\n      dup7\n        /* \"#utility.yul\":7306:7320   */\n      add\n        /* \"#utility.yul\":7299:7337   */\n      mstore\n        /* \"#utility.yul\":7358:7431   */\n      tag_321\n        /* \"#utility.yul\":7426:7430   */\n      dup3\n        /* \"#utility.yul\":7412:7424   */\n      dup3\n        /* \"#utility.yul\":7358:7431   */\n      tag_187\n      jump\t// in\n    tag_321:\n        /* \"#utility.yul\":7350:7431   */\n      swap2\n      pop\n        /* \"#utility.yul\":7206:7442   */\n      pop\n        /* \"#utility.yul\":7527:7531   */\n      0x40\n        /* \"#utility.yul\":7520:7525   */\n      dup4\n        /* \"#utility.yul\":7516:7532   */\n      add\n        /* \"#utility.yul\":7510:7533   */\n      mload\n        /* \"#utility.yul\":7546:7609   */\n      tag_322\n        /* \"#utility.yul\":7603:7607   */\n      0x40\n        /* \"#utility.yul\":7598:7601   */\n      dup7\n        /* \"#utility.yul\":7594:7608   */\n      add\n        /* \"#utility.yul\":7580:7592   */\n      dup3\n        /* \"#utility.yul\":7546:7609   */\n      tag_188\n      jump\t// in\n    tag_322:\n        /* \"#utility.yul\":7452:7619   */\n      pop\n        /* \"#utility.yul\":7709:7713   */\n      0x60\n        /* \"#utility.yul\":7702:7707   */\n      dup4\n        /* \"#utility.yul\":7698:7714   */\n      add\n        /* \"#utility.yul\":7692:7715   */\n      mload\n        /* \"#utility.yul\":7728:7791   */\n      tag_323\n        /* \"#utility.yul\":7785:7789   */\n      0x60\n        /* \"#utility.yul\":7780:7783   */\n      dup7\n        /* \"#utility.yul\":7776:7790   */\n      add\n        /* \"#utility.yul\":7762:7774   */\n      dup3\n        /* \"#utility.yul\":7728:7791   */\n      tag_188\n      jump\t// in\n    tag_323:\n        /* \"#utility.yul\":7629:7801   */\n      pop\n        /* \"#utility.yul\":7885:7889   */\n      0x80\n        /* \"#utility.yul\":7878:7883   */\n      dup4\n        /* \"#utility.yul\":7874:7890   */\n      add\n        /* \"#utility.yul\":7868:7891   */\n      mload\n        /* \"#utility.yul\":7904:7961   */\n      tag_324\n        /* \"#utility.yul\":7955:7959   */\n      0x80\n        /* \"#utility.yul\":7950:7953   */\n      dup7\n        /* \"#utility.yul\":7946:7960   */\n      add\n        /* \"#utility.yul\":7932:7944   */\n      dup3\n        /* \"#utility.yul\":7904:7961   */\n      tag_190\n      jump\t// in\n    tag_324:\n        /* \"#utility.yul\":7811:7971   */\n      pop\n        /* \"#utility.yul\":7988:7992   */\n      dup1\n        /* \"#utility.yul\":7981:7992   */\n      swap2\n      pop\n        /* \"#utility.yul\":6915:7998   */\n      pop\n        /* \"#utility.yul\":6801:7998   */\n      swap3\n      swap2\n      pop\n      pop\n      jump\t// out\n        /* \"#utility.yul\":8004:8357   */\n    tag_37:\n        /* \"#utility.yul\":8137:8141   */\n      0x00\n        /* \"#utility.yul\":8175:8177   */\n      0x20\n        /* \"#utility.yul\":8164:8173   */\n      dup3\n        /* \"#utility.yul\":8160:8178   */\n      add\n        /* \"#utility.yul\":8152:8178   */\n      swap1\n      pop\n        /* \"#utility.yul\":8224:8233   */\n      dup2\n        /* \"#utility.yul\":8218:8222   */\n      dup2\n        /* \"#utility.yul\":8214:8234   */\n      sub\n        /* \"#utility.yul\":8210:8211   */\n      0x00\n        /* \"#utility.yul\":8199:8208   */\n      dup4\n        /* \"#utility.yul\":8195:8212   */\n      add\n        /* \"#utility.yul\":8188:8235   */\n      mstore\n        /* \"#utility.yul\":8252:8350   */\n      tag_326\n        /* \"#utility.yul\":8345:8349   */\n      dup2\n        /* \"#utility.yul\":8336:8342   */\n      dup5\n        /* \"#utility.yul\":8252:8350   */\n      tag_191\n      jump\t// in\n    tag_326:\n        /* \"#utility.yul\":8244:8350   */\n      swap1\n      pop\n        /* \"#utility.yul\":8004:8357   */\n      swap3\n      swap2\n      pop\n      pop\n      jump\t// out\n        /* \"#utility.yul\":8363:8532   */\n    tag_192:\n        /* \"#utility.yul\":8447:8458   */\n      0x00\n        /* \"#utility.yul\":8481:8487   */\n      dup3\n        /* \"#utility.yul\":8476:8479   */\n      dup3\n        /* \"#utility.yul\":8469:8488   */\n      mstore\n        /* \"#utility.yul\":8521:8525   */\n      0x20\n        /* \"#utility.yul\":8516:8519   */\n      dup3\n        /* \"#utility.yul\":8512:8526   */\n      add\n        /* \"#utility.yul\":8497:8526   */\n      swap1\n      pop\n        /* \"#utility.yul\":8363:8532   */\n      swap3\n      swap2\n      pop\n      pop\n      jump\t// out\n        /* \"#utility.yul\":8538:8915   */\n    tag_193:\n        /* \"#utility.yul\":8626:8629   */\n      0x00\n        /* \"#utility.yul\":8654:8693   */\n      tag_329\n        /* \"#utility.yul\":8687:8692   */\n      dup3\n        /* \"#utility.yul\":8654:8693   */\n      tag_184\n      jump\t// in\n    tag_329:\n        /* \"#utility.yul\":8709:8780   */\n      tag_330\n        /* \"#utility.yul\":8773:8779   */\n      dup2\n        /* \"#utility.yul\":8768:8771   */\n      dup6\n        /* \"#utility.yul\":8709:8780   */\n      tag_192\n      jump\t// in\n    tag_330:\n        /* \"#utility.yul\":8702:8780   */\n      swap4\n      pop\n        /* \"#utility.yul\":8789:8854   */\n      tag_331\n        /* \"#utility.yul\":8847:8853   */\n      dup2\n        /* \"#utility.yul\":8842:8845   */\n      dup6\n        /* \"#utility.yul\":8835:8839   */\n      0x20\n        /* \"#utility.yul\":8828:8833   */\n      dup7\n        /* \"#utility.yul\":8824:8840   */\n      add\n        /* \"#utility.yul\":8789:8854   */\n      tag_186\n      jump\t// in\n    tag_331:\n        /* \"#utility.yul\":8879:8908   */\n      tag_332\n        /* \"#utility.yul\":8901:8907   */\n      dup2\n        /* \"#utility.yul\":8879:8908   */\n      tag_170\n      jump\t// in\n    tag_332:\n        /* \"#utility.yul\":8874:8877   */\n      dup5\n        /* \"#utility.yul\":8870:8909   */\n      add\n        /* \"#utility.yul\":8863:8909   */\n      swap2\n      pop\n        /* \"#utility.yul\":8630:8915   */\n      pop\n        /* \"#utility.yul\":8538:8915   */\n      swap3\n      swap2\n      pop\n      pop\n      jump\t// out\n        /* \"#utility.yul\":8921:9030   */\n    tag_194:\n        /* \"#utility.yul\":9002:9023   */\n      tag_334\n        /* \"#utility.yul\":9017:9022   */\n      dup2\n        /* \"#utility.yul\":9002:9023   */\n      tag_189\n      jump\t// in\n    tag_334:\n        /* \"#utility.yul\":8997:9000   */\n      dup3\n        /* \"#utility.yul\":8990:9024   */\n      mstore\n        /* \"#utility.yul\":8921:9030   */\n      pop\n      pop\n      jump\t// out\n        /* \"#utility.yul\":9036:9870   */\n    tag_43:\n        /* \"#utility.yul\":9275:9279   */\n      0x00\n        /* \"#utility.yul\":9313:9316   */\n      0xa0\n        /* \"#utility.yul\":9302:9311   */\n      dup3\n        /* \"#utility.yul\":9298:9317   */\n      add\n        /* \"#utility.yul\":9290:9317   */\n      swap1\n      pop\n        /* \"#utility.yul\":9363:9372   */\n      dup2\n        /* \"#utility.yul\":9357:9361   */\n      dup2\n        /* \"#utility.yul\":9353:9373   */\n      sub\n        /* \"#utility.yul\":9349:9350   */\n      0x00\n        /* \"#utility.yul\":9338:9347   */\n      dup4\n        /* \"#utility.yul\":9334:9351   */\n      add\n        /* \"#utility.yul\":9327:9374   */\n      mstore\n        /* \"#utility.yul\":9391:9469   */\n      tag_336\n        /* \"#utility.yul\":9464:9468   */\n      dup2\n        /* \"#utility.yul\":9455:9461   */\n      dup9\n        /* \"#utility.yul\":9391:9469   */\n      tag_193\n      jump\t// in\n    tag_336:\n        /* \"#utility.yul\":9383:9469   */\n      swap1\n      pop\n        /* \"#utility.yul\":9516:9525   */\n      dup2\n        /* \"#utility.yul\":9510:9514   */\n      dup2\n        /* \"#utility.yul\":9506:9526   */\n      sub\n        /* \"#utility.yul\":9501:9503   */\n      0x20\n        /* \"#utility.yul\":9490:9499   */\n      dup4\n        /* \"#utility.yul\":9486:9504   */\n      add\n        /* \"#utility.yul\":9479:9527   */\n      mstore\n        /* \"#utility.yul\":9544:9622   */\n      tag_337\n        /* \"#utility.yul\":9617:9621   */\n      dup2\n        /* \"#utility.yul\":9608:9614   */\n      dup8\n        /* \"#utility.yul\":9544:9622   */\n      tag_193\n      jump\t// in\n    tag_337:\n        /* \"#utility.yul\":9536:9622   */\n      swap1\n      pop\n        /* \"#utility.yul\":9632:9704   */\n      tag_338\n        /* \"#utility.yul\":9700:9702   */\n      0x40\n        /* \"#utility.yul\":9689:9698   */\n      dup4\n        /* \"#utility.yul\":9685:9703   */\n      add\n        /* \"#utility.yul\":9676:9682   */\n      dup7\n        /* \"#utility.yul\":9632:9704   */\n      tag_164\n      jump\t// in\n    tag_338:\n        /* \"#utility.yul\":9714:9786   */\n      tag_339\n        /* \"#utility.yul\":9782:9784   */\n      0x60\n        /* \"#utility.yul\":9771:9780   */\n      dup4\n        /* \"#utility.yul\":9767:9785   */\n      add\n        /* \"#utility.yul\":9758:9764   */\n      dup6\n        /* \"#utility.yul\":9714:9786   */\n      tag_164\n      jump\t// in\n    tag_339:\n        /* \"#utility.yul\":9796:9863   */\n      tag_340\n        /* \"#utility.yul\":9858:9861   */\n      0x80\n        /* \"#utility.yul\":9847:9856   */\n      dup4\n        /* \"#utility.yul\":9843:9862   */\n      add\n        /* \"#utility.yul\":9834:9840   */\n      dup5\n        /* \"#utility.yul\":9796:9863   */\n      tag_194\n      jump\t// in\n    tag_340:\n        /* \"#utility.yul\":9036:9870   */\n      swap7\n      swap6\n      pop\n      pop\n      pop\n      pop\n      pop\n      pop\n      jump\t// out\n        /* \"#utility.yul\":9876:10086   */\n    tag_49:\n        /* \"#utility.yul\":9963:9967   */\n      0x00\n        /* \"#utility.yul\":10001:10003   */\n      0x20\n        /* \"#utility.yul\":9990:9999   */\n      dup3\n        /* \"#utility.yul\":9986:10004   */\n      add\n        /* \"#utility.yul\":9978:10004   */\n      swap1\n      pop\n        /* \"#utility.yul\":10014:10079   */\n      tag_342\n        /* \"#utility.yul\":10076:10077   */\n      0x00\n        /* \"#utility.yul\":10065:10074   */\n      dup4\n        /* \"#utility.yul\":10061:10078   */\n      add\n        /* \"#utility.yul\":10052:10058   */\n      dup5\n        /* \"#utility.yul\":10014:10079   */\n      tag_194\n      jump\t// in\n    tag_342:\n        /* \"#utility.yul\":9876:10086   */\n      swap3\n      swap2\n      pop\n      pop\n      jump\t// out\n        /* \"#utility.yul\":10092:10206   */\n    tag_195:\n        /* \"#utility.yul\":10159:10165   */\n      0x00\n        /* \"#utility.yul\":10193:10198   */\n      dup2\n        /* \"#utility.yul\":10187:10199   */\n      mload\n        /* \"#utility.yul\":10177:10199   */\n      swap1\n      pop\n        /* \"#utility.yul\":10092:10206   */\n      swap2\n      swap1\n      pop\n      jump\t// out\n        /* \"#utility.yul\":10212:10396   */\n    tag_196:\n        /* \"#utility.yul\":10311:10322   */\n      0x00\n        /* \"#utility.yul\":10345:10351   */\n      dup3\n        /* \"#utility.yul\":10340:10343   */\n      dup3\n        /* \"#utility.yul\":10333:10352   */\n      mstore\n        /* \"#utility.yul\":10385:10389   */\n      0x20\n        /* \"#utility.yul\":10380:10383   */\n      dup3\n        /* \"#utility.yul\":10376:10390   */\n      add\n        /* \"#utility.yul\":10361:10390   */\n      swap1\n      pop\n        /* \"#utility.yul\":10212:10396   */\n      swap3\n      swap2\n      pop\n      pop\n      jump\t// out\n        /* \"#utility.yul\":10402:10534   */\n    tag_197:\n        /* \"#utility.yul\":10469:10473   */\n      0x00\n        /* \"#utility.yul\":10492:10495   */\n      dup2\n        /* \"#utility.yul\":10484:10495   */\n      swap1\n      pop\n        /* \"#utility.yul\":10522:10526   */\n      0x20\n        /* \"#utility.yul\":10517:10520   */\n      dup3\n        /* \"#utility.yul\":10513:10527   */\n      add\n        /* \"#utility.yul\":10505:10527   */\n      swap1\n      pop\n        /* \"#utility.yul\":10402:10534   */\n      swap2\n      swap1\n      pop\n      jump\t// out\n        /* \"#utility.yul\":10540:10648   */\n    tag_198:\n        /* \"#utility.yul\":10617:10641   */\n      tag_347\n        /* \"#utility.yul\":10635:10640   */\n      dup2\n        /* \"#utility.yul\":10617:10641   */\n      tag_180\n      jump\t// in\n    tag_347:\n        /* \"#utility.yul\":10612:10615   */\n      dup3\n        /* \"#utility.yul\":10605:10642   */\n      mstore\n        /* \"#utility.yul\":10540:10648   */\n      pop\n      pop\n      jump\t// out\n        /* \"#utility.yul\":10654:10833   */\n    tag_199:\n        /* \"#utility.yul\":10723:10733   */\n      0x00\n        /* \"#utility.yul\":10744:10790   */\n      tag_349\n        /* \"#utility.yul\":10786:10789   */\n      dup4\n        /* \"#utility.yul\":10778:10784   */\n      dup4\n        /* \"#utility.yul\":10744:10790   */\n      tag_198\n      jump\t// in\n    tag_349:\n        /* \"#utility.yul\":10822:10826   */\n      0x20\n        /* \"#utility.yul\":10817:10820   */\n      dup4\n        /* \"#utility.yul\":10813:10827   */\n      add\n        /* \"#utility.yul\":10799:10827   */\n      swap1\n      pop\n        /* \"#utility.yul\":10654:10833   */\n      swap3\n      swap2\n      pop\n      pop\n      jump\t// out\n        /* \"#utility.yul\":10839:10952   */\n    tag_200:\n        /* \"#utility.yul\":10909:10913   */\n      0x00\n        /* \"#utility.yul\":10941:10945   */\n      0x20\n        /* \"#utility.yul\":10936:10939   */\n      dup3\n        /* \"#utility.yul\":10932:10946   */\n      add\n        /* \"#utility.yul\":10924:10946   */\n      swap1\n      pop\n        /* \"#utility.yul\":10839:10952   */\n      swap2\n      swap1\n      pop\n      jump\t// out\n        /* \"#utility.yul\":10988:11720   */\n    tag_201:\n        /* \"#utility.yul\":11107:11110   */\n      0x00\n        /* \"#utility.yul\":11136:11190   */\n      tag_352\n        /* \"#utility.yul\":11184:11189   */\n      dup3\n        /* \"#utility.yul\":11136:11190   */\n      tag_195\n      jump\t// in\n    tag_352:\n        /* \"#utility.yul\":11206:11292   */\n      tag_353\n        /* \"#utility.yul\":11285:11291   */\n      dup2\n        /* \"#utility.yul\":11280:11283   */\n      dup6\n        /* \"#utility.yul\":11206:11292   */\n      tag_196\n      jump\t// in\n    tag_353:\n        /* \"#utility.yul\":11199:11292   */\n      swap4\n      pop\n        /* \"#utility.yul\":11316:11372   */\n      tag_354\n        /* \"#utility.yul\":11366:11371   */\n      dup4\n        /* \"#utility.yul\":11316:11372   */\n      tag_197\n      jump\t// in\n    tag_354:\n        /* \"#utility.yul\":11395:11402   */\n      dup1\n        /* \"#utility.yul\":11426:11427   */\n      0x00\n        /* \"#utility.yul\":11411:11695   */\n    tag_355:\n        /* \"#utility.yul\":11436:11442   */\n      dup4\n        /* \"#utility.yul\":11433:11434   */\n      dup2\n        /* \"#utility.yul\":11430:11443   */\n      lt\n        /* \"#utility.yul\":11411:11695   */\n      iszero\n      tag_357\n      jumpi\n        /* \"#utility.yul\":11512:11518   */\n      dup2\n        /* \"#utility.yul\":11506:11519   */\n      mload\n        /* \"#utility.yul\":11539:11602   */\n      tag_358\n        /* \"#utility.yul\":11598:11601   */\n      dup9\n        /* \"#utility.yul\":11583:11596   */\n      dup3\n        /* \"#utility.yul\":11539:11602   */\n      tag_199\n      jump\t// in\n    tag_358:\n        /* \"#utility.yul\":11532:11602   */\n      swap8\n      pop\n        /* \"#utility.yul\":11625:11685   */\n      tag_359\n        /* \"#utility.yul\":11678:11684   */\n      dup4\n        /* \"#utility.yul\":11625:11685   */\n      tag_200\n      jump\t// in\n    tag_359:\n        /* \"#utility.yul\":11615:11685   */\n      swap3\n      pop\n        /* \"#utility.yul\":11471:11695   */\n      pop\n        /* \"#utility.yul\":11458:11459   */\n      0x01\n        /* \"#utility.yul\":11455:11456   */\n      dup2\n        /* \"#utility.yul\":11451:11460   */\n      add\n        /* \"#utility.yul\":11446:11460   */\n      swap1\n      pop\n        /* \"#utility.yul\":11411:11695   */\n      jump(tag_355)\n    tag_357:\n        /* \"#utility.yul\":11415:11429   */\n      pop\n        /* \"#utility.yul\":11711:11714   */\n      dup6\n        /* \"#utility.yul\":11704:11714   */\n      swap4\n      pop\n        /* \"#utility.yul\":11112:11720   */\n      pop\n      pop\n      pop\n        /* \"#utility.yul\":10988:11720   */\n      swap3\n      swap2\n      pop\n      pop\n      jump\t// out\n        /* \"#utility.yul\":11726:12099   */\n    tag_60:\n        /* \"#utility.yul\":11869:11873   */\n      0x00\n        /* \"#utility.yul\":11907:11909   */\n      0x20\n        /* \"#utility.yul\":11896:11905   */\n      dup3\n        /* \"#utility.yul\":11892:11910   */\n      add\n        /* \"#utility.yul\":11884:11910   */\n      swap1\n      pop\n        /* \"#utility.yul\":11956:11965   */\n      dup2\n        /* \"#utility.yul\":11950:11954   */\n      dup2\n        /* \"#utility.yul\":11946:11966   */\n      sub\n        /* \"#utility.yul\":11942:11943   */\n      0x00\n        /* \"#utility.yul\":11931:11940   */\n      dup4\n        /* \"#utility.yul\":11927:11944   */\n      add\n        /* \"#utility.yul\":11920:11967   */\n      mstore\n        /* \"#utility.yul\":11984:12092   */\n      tag_361\n        /* \"#utility.yul\":12087:12091   */\n      dup2\n        /* \"#utility.yul\":12078:12084   */\n      dup5\n        /* \"#utility.yul\":11984:12092   */\n      tag_201\n      jump\t// in\n    tag_361:\n        /* \"#utility.yul\":11976:12092   */\n      swap1\n      pop\n        /* \"#utility.yul\":11726:12099   */\n      swap3\n      swap2\n      pop\n      pop\n      jump\t// out\n        /* \"#utility.yul\":12105:12579   */\n    tag_64:\n        /* \"#utility.yul\":12173:12179   */\n      0x00\n        /* \"#utility.yul\":12181:12187   */\n      0x00\n        /* \"#utility.yul\":12230:12232   */\n      0x40\n        /* \"#utility.yul\":12218:12227   */\n      dup4\n        /* \"#utility.yul\":12209:12216   */\n      dup6\n        /* \"#utility.yul\":12205:12228   */\n      sub\n        /* \"#utility.yul\":12201:12233   */\n      slt\n        /* \"#utility.yul\":12198:12317   */\n      iszero\n      tag_363\n      jumpi\n        /* \"#utility.yul\":12236:12315   */\n      tag_364\n      tag_166\n      jump\t// in\n    tag_364:\n        /* \"#utility.yul\":12198:12317   */\n    tag_363:\n        /* \"#utility.yul\":12356:12357   */\n      0x00\n        /* \"#utility.yul\":12381:12434   */\n      tag_365\n        /* \"#utility.yul\":12426:12433   */\n      dup6\n        /* \"#utility.yul\":12417:12423   */\n      dup3\n        /* \"#utility.yul\":12406:12415   */\n      dup7\n        /* \"#utility.yul\":12402:12424   */\n      add\n        /* \"#utility.yul\":12381:12434   */\n      tag_178\n      jump\t// in\n    tag_365:\n        /* \"#utility.yul\":12371:12434   */\n      swap3\n      pop\n        /* \"#utility.yul\":12327:12444   */\n      pop\n        /* \"#utility.yul\":12483:12485   */\n      0x20\n        /* \"#utility.yul\":12509:12562   */\n      tag_366\n        /* \"#utility.yul\":12554:12561   */\n      dup6\n        /* \"#utility.yul\":12545:12551   */\n      dup3\n        /* \"#utility.yul\":12534:12543   */\n      dup7\n        /* \"#utility.yul\":12530:12552   */\n      add\n        /* \"#utility.yul\":12509:12562   */\n      tag_178\n      jump\t// in\n    tag_366:\n        /* \"#utility.yul\":12499:12562   */\n      swap2\n      pop\n        /* \"#utility.yul\":12454:12572   */\n      pop\n        /* \"#utility.yul\":12105:12579   */\n      swap3\n      pop\n      swap3\n      swap1\n      pop\n      jump\t// out\n        /* \"#utility.yul\":12585:12753   */\n    tag_202:\n        /* \"#utility.yul\":12725:12745   */\n      0x416c726561647920726567697374657265640000000000000000000000000000\n        /* \"#utility.yul\":12721:12722   */\n      0x00\n        /* \"#utility.yul\":12713:12719   */\n      dup3\n        /* \"#utility.yul\":12709:12723   */\n      add\n        /* \"#utility.yul\":12702:12746   */\n      mstore\n        /* \"#utility.yul\":12585:12753   */\n      pop\n      jump\t// out\n        /* \"#utility.yul\":12759:13125   */\n    tag_203:\n        /* \"#utility.yul\":12901:12904   */\n      0x00\n        /* \"#utility.yul\":12922:12989   */\n      tag_369\n        /* \"#utility.yul\":12986:12988   */\n      0x12\n        /* \"#utility.yul\":12981:12984   */\n      dup4\n        /* \"#utility.yul\":12922:12989   */\n      tag_192\n      jump\t// in\n    tag_369:\n        /* \"#utility.yul\":12915:12989   */\n      swap2\n      pop\n        /* \"#utility.yul\":12998:13091   */\n      tag_370\n        /* \"#utility.yul\":13087:13090   */\n      dup3\n        /* \"#utility.yul\":12998:13091   */\n      tag_202\n      jump\t// in\n    tag_370:\n        /* \"#utility.yul\":13116:13118   */\n      0x20\n        /* \"#utility.yul\":13111:13114   */\n      dup3\n        /* \"#utility.yul\":13107:13119   */\n      add\n        /* \"#utility.yul\":13100:13119   */\n      swap1\n      pop\n        /* \"#utility.yul\":12759:13125   */\n      swap2\n      swap1\n      pop\n      jump\t// out\n        /* \"#utility.yul\":13131:13550   */\n    tag_74:\n        /* \"#utility.yul\":13297:13301   */\n      0x00\n        /* \"#utility.yul\":13335:13337   */\n      0x20\n        /* \"#utility.yul\":13324:13333   */\n      dup3\n        /* \"#utility.yul\":13320:13338   */\n      add\n        /* \"#utility.yul\":13312:13338   */\n      swap1\n      pop\n        /* \"#utility.yul\":13384:13393   */\n      dup2\n        /* \"#utility.yul\":13378:13382   */\n      dup2\n        /* \"#utility.yul\":13374:13394   */\n      sub\n        /* \"#utility.yul\":13370:13371   */\n      0x00\n        /* \"#utility.yul\":13359:13368   */\n      dup4\n        /* \"#utility.yul\":13355:13372   */\n      add\n        /* \"#utility.yul\":13348:13395   */\n      mstore\n        /* \"#utility.yul\":13412:13543   */\n      tag_372\n        /* \"#utility.yul\":13538:13542   */\n      dup2\n        /* \"#utility.yul\":13412:13543   */\n      tag_203\n      jump\t// in\n    tag_372:\n        /* \"#utility.yul\":13404:13543   */\n      swap1\n      pop\n        /* \"#utility.yul\":13131:13550   */\n      swap2\n      swap1\n      pop\n      jump\t// out\n        /* \"#utility.yul\":13556:13723   */\n    tag_204:\n        /* \"#utility.yul\":13696:13715   */\n      0x4d61782075736572732072656163686564000000000000000000000000000000\n        /* \"#utility.yul\":13692:13693   */\n      0x00\n        /* \"#utility.yul\":13684:13690   */\n      dup3\n        /* \"#utility.yul\":13680:13694   */\n      add\n        /* \"#utility.yul\":13673:13716   */\n      mstore\n        /* \"#utility.yul\":13556:13723   */\n      pop\n      jump\t// out\n        /* \"#utility.yul\":13729:14095   */\n    tag_205:\n        /* \"#utility.yul\":13871:13874   */\n      0x00\n        /* \"#utility.yul\":13892:13959   */\n      tag_375\n        /* \"#utility.yul\":13956:13958   */\n      0x11\n        /* \"#utility.yul\":13951:13954   */\n      dup4\n        /* \"#utility.yul\":13892:13959   */\n      tag_192\n      jump\t// in\n    tag_375:\n        /* \"#utility.yul\":13885:13959   */\n      swap2\n      pop\n        /* \"#utility.yul\":13968:14061   */\n      tag_376\n        /* \"#utility.yul\":14057:14060   */\n      dup3\n        /* \"#utility.yul\":13968:14061   */\n      tag_204\n      jump\t// in\n    tag_376:\n        /* \"#utility.yul\":14086:14088   */\n      0x20\n        /* \"#utility.yul\":14081:14084   */\n      dup3\n        /* \"#utility.yul\":14077:14089   */\n      add\n        /* \"#utility.yul\":14070:14089   */\n      swap1\n      pop\n        /* \"#utility.yul\":13729:14095   */\n      swap2\n      swap1\n      pop\n      jump\t// out\n        /* \"#utility.yul\":14101:14520   */\n    tag_77:\n        /* \"#utility.yul\":14267:14271   */\n      0x00\n        /* \"#utility.yul\":14305:14307   */\n      0x20\n        /* \"#utility.yul\":14294:14303   */\n      dup3\n        /* \"#utility.yul\":14290:14308   */\n      add\n        /* \"#utility.yul\":14282:14308   */\n      swap1\n      pop\n        /* \"#utility.yul\":14354:14363   */\n      dup2\n        /* \"#utility.yul\":14348:14352   */\n      dup2\n        /* \"#utility.yul\":14344:14364   */\n      sub\n        /* \"#utility.yul\":14340:14341   */\n      0x00\n        /* \"#utility.yul\":14329:14338   */\n      dup4\n        /* \"#utility.yul\":14325:14342   */\n      add\n        /* \"#utility.yul\":14318:14365   */\n      mstore\n        /* \"#utility.yul\":14382:14513   */\n      tag_378\n        /* \"#utility.yul\":14508:14512   */\n      dup2\n        /* \"#utility.yul\":14382:14513   */\n      tag_205\n      jump\t// in\n    tag_378:\n        /* \"#utility.yul\":14374:14513   */\n      swap1\n      pop\n        /* \"#utility.yul\":14101:14520   */\n      swap2\n      swap1\n      pop\n      jump\t// out\n        /* \"#utility.yul\":14526:14689   */\n    tag_206:\n        /* \"#utility.yul\":14666:14681   */\n      0x4e616d6520726571756972656400000000000000000000000000000000000000\n        /* \"#utility.yul\":14662:14663   */\n      0x00\n        /* \"#utility.yul\":14654:14660   */\n      dup3\n        /* \"#utility.yul\":14650:14664   */\n      add\n        /* \"#utility.yul\":14643:14682   */\n      mstore\n        /* \"#utility.yul\":14526:14689   */\n      pop\n      jump\t// out\n        /* \"#utility.yul\":14695:15061   */\n    tag_207:\n        /* \"#utility.yul\":14837:14840   */\n      0x00\n        /* \"#utility.yul\":14858:14925   */\n      tag_381\n        /* \"#utility.yul\":14922:14924   */\n      0x0d\n        /* \"#utility.yul\":14917:14920   */\n      dup4\n        /* \"#utility.yul\":14858:14925   */\n      tag_192\n      jump\t// in\n    tag_381:\n        /* \"#utility.yul\":14851:14925   */\n      swap2\n      pop\n        /* \"#utility.yul\":14934:15027   */\n      tag_382\n        /* \"#utility.yul\":15023:15026   */\n      dup3\n        /* \"#utility.yul\":14934:15027   */\n      tag_206\n      jump\t// in\n    tag_382:\n        /* \"#utility.yul\":15052:15054   */\n      0x20\n        /* \"#utility.yul\":15047:15050   */\n      dup3\n        /* \"#utility.yul\":15043:15055   */\n      add\n        /* \"#utility.yul\":15036:15055   */\n      swap1\n      pop\n        /* \"#utility.yul\":14695:15061   */\n      swap2\n      swap1\n      pop\n      jump\t// out\n        /* \"#utility.yul\":15067:15486   */\n    tag_80:\n        /* \"#utility.yul\":15233:15237   */\n      0x00\n        /* \"#utility.yul\":15271:15273   */\n      0x20\n        /* \"#utility.yul\":15260:15269   */\n      dup3\n        /* \"#utility.yul\":15256:15274   */\n      add\n        /* \"#utility.yul\":15248:15274   */\n      swap1\n      pop\n        /* \"#utility.yul\":15320:15329   */\n      dup2\n        /* \"#utility.yul\":15314:15318   */\n      dup2\n        /* \"#utility.yul\":15310:15330   */\n      sub\n        /* \"#utility.yul\":15306:15307   */\n      0x00\n        /* \"#utility.yul\":15295:15304   */\n      dup4\n        /* \"#utility.yul\":15291:15308   */\n      add\n        /* \"#utility.yul\":15284:15331   */\n      mstore\n        /* \"#utility.yul\":15348:15479   */\n      tag_384\n        /* \"#utility.yul\":15474:15478   */\n      dup2\n        /* \"#utility.yul\":15348:15479   */\n      tag_207\n      jump\t// in\n    tag_384:\n        /* \"#utility.yul\":15340:15479   */\n      swap1\n      pop\n        /* \"#utility.yul\":15067:15486   */\n      swap2\n      swap1\n      pop\n      jump\t// out\n        /* \"#utility.yul\":15492:15656   */\n    tag_208:\n        /* \"#utility.yul\":15632:15648   */\n      0x456d61696c207265717569726564000000000000000000000000000000000000\n        /* \"#utility.yul\":15628:15629   */\n      0x00\n        /* \"#utility.yul\":15620:15626   */\n      dup3\n        /* \"#utility.yul\":15616:15630   */\n      add\n        /* \"#utility.yul\":15609:15649   */\n      mstore\n        /* \"#utility.yul\":15492:15656   */\n      pop\n      jump\t// out\n        /* \"#utility.yul\":15662:16028   */\n    tag_209:\n        /* \"#utility.yul\":15804:15807   */\n      0x00\n        /* \"#utility.yul\":15825:15892   */\n      tag_387\n        /* \"#utility.yul\":15889:15891   */\n      0x0e\n        /* \"#utility.yul\":15884:15887   */\n      dup4\n        /* \"#utility.yul\":15825:15892   */\n      tag_192\n      jump\t// in\n    tag_387:\n        /* \"#utility.yul\":15818:15892   */\n      swap2\n      pop\n        /* \"#utility.yul\":15901:15994   */\n      tag_388\n        /* \"#utility.yul\":15990:15993   */\n      dup3\n        /* \"#utility.yul\":15901:15994   */\n      tag_208\n      jump\t// in\n    tag_388:\n        /* \"#utility.yul\":16019:16021   */\n      0x20\n        /* \"#utility.yul\":16014:16017   */\n      dup3\n        /* \"#utility.yul\":16010:16022   */\n      add\n        /* \"#utility.yul\":16003:16022   */\n      swap1\n      pop\n        /* \"#utility.yul\":15662:16028   */\n      swap2\n      swap1\n      pop\n      jump\t// out\n        /* \"#utility.yul\":16034:16453   */\n    tag_83:\n        /* \"#utility.yul\":16200:16204   */\n      0x00\n        /* \"#utility.yul\":16238:16240   */\n      0x20\n        /* \"#utility.yul\":16227:16236   */\n      dup3\n        /* \"#utility.yul\":16223:16241   */\n      add\n        /* \"#utility.yul\":16215:16241   */\n      swap1\n      pop\n        /* \"#utility.yul\":16287:16296   */\n      dup2\n        /* \"#utility.yul\":16281:16285   */\n      dup2\n        /* \"#utility.yul\":16277:16297   */\n      sub\n        /* \"#utility.yul\":16273:16274   */\n      0x00\n        /* \"#utility.yul\":16262:16271   */\n      dup4\n        /* \"#utility.yul\":16258:16275   */\n      add\n        /* \"#utility.yul\":16251:16298   */\n      mstore\n        /* \"#utility.yul\":16315:16446   */\n      tag_390\n        /* \"#utility.yul\":16441:16445   */\n      dup2\n        /* \"#utility.yul\":16315:16446   */\n      tag_209\n      jump\t// in\n    tag_390:\n        /* \"#utility.yul\":16307:16446   */\n      swap1\n      pop\n        /* \"#utility.yul\":16034:16453   */\n      swap2\n      swap1\n      pop\n      jump\t// out\n        /* \"#utility.yul\":16459:16639   */\n    tag_210:\n        /* \"#utility.yul\":16507:16584   */\n      0x4e487b7100000000000000000000000000000000000000000000000000000000\n        /* \"#utility.yul\":16504:16505   */\n      0x00\n        /* \"#utility.yul\":16497:16585   */\n      mstore\n        /* \"#utility.yul\":16604:16608   */\n      0x22\n        /* \"#utility.yul\":16601:16602   */\n      0x04\n        /* \"#utility.yul\":16594:16609   */\n      mstore\n        /* \"#utility.yul\":16628:16632   */\n      0x24\n        /* \"#utility.yul\":16625:16626   */\n      0x00\n        /* \"#utility.yul\":16618:16633   */\n      revert\n        /* \"#utility.yul\":16645:16965   */\n    tag_101:\n        /* \"#utility.yul\":16689:16695   */\n      0x00\n        /* \"#utility.yul\":16726:16727   */\n      0x02\n        /* \"#utility.yul\":16720:16724   */\n      dup3\n        /* \"#utility.yul\":16716:16728   */\n      div\n        /* \"#utility.yul\":16706:16728   */\n      swap1\n      pop\n        /* \"#utility.yul\":16773:16774   */\n      0x01\n        /* \"#utility.yul\":16767:16771   */\n      dup3\n        /* \"#utility.yul\":16763:16775   */\n      and\n        /* \"#utility.yul\":16794:16812   */\n      dup1\n        /* \"#utility.yul\":16784:16865   */\n      tag_393\n      jumpi\n        /* \"#utility.yul\":16850:16854   */\n      0x7f\n        /* \"#utility.yul\":16842:16848   */\n      dup3\n        /* \"#utility.yul\":16838:16855   */\n      and\n        /* \"#utility.yul\":16828:16855   */\n      swap2\n      pop\n        /* \"#utility.yul\":16784:16865   */\n    tag_393:\n        /* \"#utility.yul\":16912:16914   */\n      0x20\n        /* \"#utility.yul\":16904:16910   */\n      dup3\n        /* \"#utility.yul\":16901:16915   */\n      lt\n        /* \"#utility.yul\":16881:16899   */\n      dup2\n        /* \"#utility.yul\":16878:16916   */\n      sub\n        /* \"#utility.yul\":16875:16959   */\n      tag_394\n      jumpi\n        /* \"#utility.yul\":16931:16949   */\n      tag_395\n      tag_210\n      jump\t// in\n    tag_395:\n        /* \"#utility.yul\":16875:16959   */\n    tag_394:\n        /* \"#utility.yul\":16696:16965   */\n      pop\n        /* \"#utility.yul\":16645:16965   */\n      swap2\n      swap1\n      pop\n      jump\t// out\n        /* \"#utility.yul\":16971:17112   */\n    tag_211:\n        /* \"#utility.yul\":17020:17024   */\n      0x00\n        /* \"#utility.yul\":17043:17046   */\n      dup2\n        /* \"#utility.yul\":17035:17046   */\n      swap1\n      pop\n        /* \"#utility.yul\":17066:17069   */\n      dup2\n        /* \"#utility.yul\":17063:17064   */\n      0x00\n        /* \"#utility.yul\":17056:17070   */\n      mstore\n        /* \"#utility.yul\":17100:17104   */\n      0x20\n        /* \"#utility.yul\":17097:17098   */\n      0x00\n        /* \"#utility.yul\":17087:17105   */\n      keccak256\n        /* \"#utility.yul\":17079:17105   */\n      swap1\n      pop\n        /* \"#utility.yul\":16971:17112   */\n      swap2\n      swap1\n      pop\n      jump\t// out\n        /* \"#utility.yul\":17118:17211   */\n    tag_212:\n        /* \"#utility.yul\":17155:17161   */\n      0x00\n        /* \"#utility.yul\":17202:17204   */\n      0x20\n        /* \"#utility.yul\":17197:17199   */\n      0x1f\n        /* \"#utility.yul\":17190:17195   */\n      dup4\n        /* \"#utility.yul\":17186:17200   */\n      add\n        /* \"#utility.yul\":17182:17205   */\n      div\n        /* \"#utility.yul\":17172:17205   */\n      swap1\n      pop\n        /* \"#utility.yul\":17118:17211   */\n      swap2\n      swap1\n      pop\n      jump\t// out\n        /* \"#utility.yul\":17217:17324   */\n    tag_213:\n        /* \"#utility.yul\":17261:17269   */\n      0x00\n        /* \"#utility.yul\":17311:17316   */\n      dup3\n        /* \"#utility.yul\":17305:17309   */\n      dup3\n        /* \"#utility.yul\":17301:17317   */\n      shl\n        /* \"#utility.yul\":17280:17317   */\n      swap1\n      pop\n        /* \"#utility.yul\":17217:17324   */\n      swap3\n      swap2\n      pop\n      pop\n      jump\t// out\n        /* \"#utility.yul\":17330:17723   */\n    tag_214:\n        /* \"#utility.yul\":17399:17405   */\n      0x00\n        /* \"#utility.yul\":17449:17450   */\n      0x08\n        /* \"#utility.yul\":17437:17447   */\n      dup4\n        /* \"#utility.yul\":17433:17451   */\n      mul\n        /* \"#utility.yul\":17472:17569   */\n      tag_400\n        /* \"#utility.yul\":17502:17568   */\n      0xffffffffffffffffffffffffffffffffffffffffffffffffffffffffffffffff\n        /* \"#utility.yul\":17491:17500   */\n      dup3\n        /* \"#utility.yul\":17472:17569   */\n      tag_213\n      jump\t// in\n    tag_400:\n        /* \"#utility.yul\":17590:17629   */\n      tag_401\n        /* \"#utility.yul\":17620:17628   */\n      dup7\n        /* \"#utility.yul\":17609:17618   */\n      dup4\n        /* \"#utility.yul\":17590:17629   */\n      tag_213\n      jump\t// in\n    tag_401:\n        /* \"#utility.yul\":17578:17629   */\n      swap6\n      pop\n        /* \"#utility.yul\":17662:17666   */\n      dup1\n        /* \"#utility.yul\":17658:17667   */\n      not\n        /* \"#utility.yul\":17651:17656   */\n      dup5\n        /* \"#utility.yul\":17647:17668   */\n      and\n        /* \"#utility.yul\":17638:17668   */\n      swap4\n      pop\n        /* \"#utility.yul\":17711:17715   */\n      dup1\n        /* \"#utility.yul\":17701:17709   */\n      dup7\n        /* \"#utility.yul\":17697:17716   */\n      and\n        /* \"#utility.yul\":17690:17695   */\n      dup5\n        /* \"#utility.yul\":17687:17717   */\n      or\n        /* \"#utility.yul\":17677:17717   */\n      swap3\n      pop\n        /* \"#utility.yul\":17406:17723   */\n      pop\n      pop\n        /* \"#utility.yul\":17330:17723   */\n      swap4\n      swap3\n      pop\n      pop\n      pop\n      jump\t// out\n        /* \"#utility.yul\":17729:17789   */\n    tag_215:\n        /* \"#utility.yul\":17757:17760   */\n      0x00\n        /* \"#utility.yul\":17778:17783   */\n      dup2\n        /* \"#utility.yul\":17771:17783   */\n      swap1\n      pop\n        /* \"#utility.yul\":17729:17789   */\n      swap2\n      swap1\n      pop\n      jump\t// out\n        /* \"#utility.yul\":17795:17937   */\n    tag_216:\n        /* \"#utility.yul\":17845:17854   */\n      0x00\n        /* \"#utility.yul\":17878:17931   */\n      tag_404\n        /* \"#utility.yul\":17896:17930   */\n      tag_405\n        /* \"#utility.yul\":17905:17929   */\n      tag_406\n        /* \"#utility.yul\":17923:17928   */\n      dup5\n        /* \"#utility.yul\":17905:17929   */\n      tag_163\n      jump\t// in\n    tag_406:\n        /* \"#utility.yul\":17896:17930   */\n      tag_215\n      jump\t// in\n    tag_405:\n        /* \"#utility.yul\":17878:17931   */\n      tag_163\n      jump\t// in\n    tag_404:\n        /* \"#utility.yul\":17865:17931   */\n      swap1\n      pop\n        /* \"#utility.yul\":17795:17937   */\n      swap2\n      swap1\n      pop\n      jump\t// out\n        /* \"#utility.yul\":17943:18018   */\n    tag_217:\n        /* \"#utility.yul\":17986:17989   */\n      0x00\n        /* \"#utility.yul\":18007:18012   */\n      dup2\n        /* \"#utility.yul\":18000:18012   */\n      swap1\n      pop\n        /* \"#utility.yul\":17943:18018   */\n      swap2\n      swap1\n      pop\n      jump\t// out\n        /* \"#utility.yul\":18024:18293   */\n    tag_218:\n        /* \"#utility.yul\":18134:18173   */\n      tag_409\n        /* \"#utility.yul\":18165:18172   */\n      dup4\n        /* \"#utility.yul\":18134:18173   */\n      tag_216\n      jump\t// in\n    tag_409:\n        /* \"#utility.yul\":18195:18286   */\n      tag_410\n        /* \"#utility.yul\":18244:18285   */\n      tag_411\n        /* \"#utility.yul\":18268:18284   */\n      dup3\n        /* \"#utility.yul\":18244:18285   */\n      tag_217\n      jump\t// in\n    tag_411:\n        /* \"#utility.yul\":18236:18242   */\n      dup5\n        /* \"#utility.yul\":18229:18233   */\n      dup5\n        /* \"#utility.yul\":18223:18234   */\n      sload\n        /* \"#utility.yul\":18195:18286   */\n      tag_214\n      jump\t// in\n    tag_410:\n        /* \"#utility.yul\":18189:18193   */\n      dup3\n        /* \"#utility.yul\":18182:18287   */\n      sstore\n        /* \"#utility.yul\":18100:18293   */\n      pop\n        /* \"#utility.yul\":18024:18293   */\n      pop\n      pop\n      pop\n      jump\t// out\n        /* \"#utility.yul\":18299:18372   */\n    tag_219:\n        /* \"#utility.yul\":18344:18347   */\n      0x00\n        /* \"#utility.yul\":18365:18366   */\n      0x00\n        /* \"#utility.yul\":18358:18366   */\n      swap1\n      pop\n        /* \"#utility.yul\":18299:18372   */\n      swap1\n      jump\t// out\n        /* \"#utility.yul\":18378:18567   */\n    tag_220:\n        /* \"#utility.yul\":18455:18487   */\n      tag_414\n      tag_219\n      jump\t// in\n    tag_414:\n        /* \"#utility.yul\":18496:18561   */\n      tag_415\n        /* \"#utility.yul\":18554:18560   */\n      dup2\n        /* \"#utility.yul\":18546:18552   */\n      dup5\n        /* \"#utility.yul\":18540:18544   */\n      dup5\n        /* \"#utility.yul\":18496:18561   */\n      tag_218\n      jump\t// in\n    tag_415:\n        /* \"#utility.yul\":18431:18567   */\n      pop\n        /* \"#utility.yul\":18378:18567   */\n      pop\n      pop\n      jump\t// out\n        /* \"#utility.yul\":18573:18759   */\n    tag_221:\n        /* \"#utility.yul\":18633:18753   */\n    tag_417:\n        /* \"#utility.yul\":18650:18653   */\n      dup2\n        /* \"#utility.yul\":18643:18648   */\n      dup2\n        /* \"#utility.yul\":18640:18654   */\n      lt\n        /* \"#utility.yul\":18633:18753   */\n      iszero\n      tag_419\n      jumpi\n        /* \"#utility.yul\":18704:18743   */\n      tag_420\n        /* \"#utility.yul\":18741:18742   */\n      0x00\n        /* \"#utility.yul\":18734:18739   */\n      dup3\n        /* \"#utility.yul\":18704:18743   */\n      tag_220\n      jump\t// in\n    tag_420:\n        /* \"#utility.yul\":18677:18678   */\n      0x01\n        /* \"#utility.yul\":18670:18675   */\n      dup2\n        /* \"#utility.yul\":18666:18679   */\n      add\n        /* \"#utility.yul\":18657:18679   */\n      swap1\n      pop\n        /* \"#utility.yul\":18633:18753   */\n      jump(tag_417)\n    tag_419:\n        /* \"#utility.yul\":18573:18759   */\n      pop\n      pop\n      jump\t// out\n        /* \"#utility.yul\":18765:19308   */\n    tag_222:\n        /* \"#utility.yul\":18866:18868   */\n      0x1f\n        /* \"#utility.yul\":18861:18864   */\n      dup3\n        /* \"#utility.yul\":18858:18869   */\n      gt\n        /* \"#utility.yul\":18855:19301   */\n      iszero\n      tag_422\n      jumpi\n        /* \"#utility.yul\":18900:18938   */\n      tag_423\n        /* \"#utility.yul\":18932:18937   */\n      dup2\n        /* \"#utility.yul\":18900:18938   */\n      tag_211\n      jump\t// in\n    tag_423:\n        /* \"#utility.yul\":18984:19013   */\n      tag_424\n        /* \"#utility.yul\":19002:19012   */\n      dup5\n        /* \"#utility.yul\":18984:19013   */\n      tag_212\n      jump\t// in\n    tag_424:\n        /* \"#utility.yul\":18974:18982   */\n      dup2\n        /* \"#utility.yul\":18970:19014   */\n      add\n        /* \"#utility.yul\":19167:19169   */\n      0x20\n        /* \"#utility.yul\":19155:19165   */\n      dup6\n        /* \"#utility.yul\":19152:19170   */\n      lt\n        /* \"#utility.yul\":19149:19198   */\n      iszero\n      tag_425\n      jumpi\n        /* \"#utility.yul\":19188:19196   */\n      dup2\n        /* \"#utility.yul\":19173:19196   */\n      swap1\n      pop\n        /* \"#utility.yul\":19149:19198   */\n    tag_425:\n        /* \"#utility.yul\":19211:19291   */\n      tag_426\n        /* \"#utility.yul\":19267:19289   */\n      tag_427\n        /* \"#utility.yul\":19285:19288   */\n      dup6\n        /* \"#utility.yul\":19267:19289   */\n      tag_212\n      jump\t// in\n    tag_427:\n        /* \"#utility.yul\":19257:19265   */\n      dup4\n        /* \"#utility.yul\":19253:19290   */\n      add\n        /* \"#utility.yul\":19240:19251   */\n      dup3\n        /* \"#utility.yul\":19211:19291   */\n      tag_221\n      jump\t// in\n    tag_426:\n        /* \"#utility.yul\":18870:19301   */\n      pop\n      pop\n        /* \"#utility.yul\":18855:19301   */\n    tag_422:\n        /* \"#utility.yul\":18765:19308   */\n      pop\n      pop\n      pop\n      jump\t// out\n        /* \"#utility.yul\":19314:19431   */\n    tag_223:\n        /* \"#utility.yul\":19368:19376   */\n      0x00\n        /* \"#utility.yul\":19418:19423   */\n      dup3\n        /* \"#utility.yul\":19412:19416   */\n      dup3\n        /* \"#utility.yul\":19408:19424   */\n      shr\n        /* \"#utility.yul\":19387:19424   */\n      swap1\n      pop\n        /* \"#utility.yul\":19314:19431   */\n      swap3\n      swap2\n      pop\n      pop\n      jump\t// out\n        /* \"#utility.yul\":19437:19606   */\n    tag_224:\n        /* \"#utility.yul\":19481:19487   */\n      0x00\n        /* \"#utility.yul\":19514:19565   */\n      tag_430\n        /* \"#utility.yul\":19562:19563   */\n      0x00\n        /* \"#utility.yul\":19558:19564   */\n      not\n        /* \"#utility.yul\":19550:19555   */\n      dup5\n        /* \"#utility.yul\":19547:19548   */\n      0x08\n        /* \"#utility.yul\":19543:19556   */\n      mul\n        /* \"#utility.yul\":19514:19565   */\n      tag_223\n      jump\t// in\n    tag_430:\n        /* \"#utility.yul\":19510:19566   */\n      not\n        /* \"#utility.yul\":19595:19599   */\n      dup1\n        /* \"#utility.yul\":19589:19593   */\n      dup4\n        /* \"#utility.yul\":19585:19600   */\n      and\n        /* \"#utility.yul\":19575:19600   */\n      swap2\n      pop\n        /* \"#utility.yul\":19488:19606   */\n      pop\n        /* \"#utility.yul\":19437:19606   */\n      swap3\n      swap2\n      pop\n      pop\n      jump\t// out\n        /* \"#utility.yul\":19611:19906   */\n    tag_225:\n        /* \"#utility.yul\":19687:19691   */\n      0x00\n        /* \"#utility.yul\":19833:19862   */\n      tag_432\n        /* \"#utility.yul\":19858:19861   */\n      dup4\n        /* \"#utility.yul\":19852:19856   */\n      dup4\n        /* \"#utility.yul\":19833:19862   */\n      tag_224\n      jump\t// in\n    tag_432:\n        /* \"#utility.yul\":19825:19862   */\n      swap2\n      pop\n        /* \"#utility.yul\":19895:19898   */\n      dup3\n        /* \"#utility.yul\":19892:19893   */\n      0x02\n        /* \"#utility.yul\":19888:19899   */\n      mul\n        /* \"#utility.yul\":19882:19886   */\n      dup3\n        /* \"#utility.yul\":19879:19900   */\n      or\n        /* \"#utility.yul\":19871:19900   */\n      swap1\n      pop\n        /* \"#utility.yul\":19611:19906   */\n      swap3\n      swap2\n      pop\n      pop\n      jump\t// out\n        /* \"#utility.yul\":19911:21306   */\n    tag_85:\n        /* \"#utility.yul\":20028:20065   */\n      tag_434\n        /* \"#utility.yul\":20061:20064   */\n      dup3\n        /* \"#utility.yul\":20028:20065   */\n      tag_184\n      jump\t// in\n    tag_434:\n        /* \"#utility.yul\":20130:20148   */\n      0xffffffffffffffff\n        /* \"#utility.yul\":20122:20128   */\n      dup2\n        /* \"#utility.yul\":20119:20149   */\n      gt\n        /* \"#utility.yul\":20116:20172   */\n      iszero\n      tag_435\n      jumpi\n        /* \"#utility.yul\":20152:20170   */\n      tag_436\n      tag_151\n      jump\t// in\n    tag_436:\n        /* \"#utility.yul\":20116:20172   */\n    tag_435:\n        /* \"#utility.yul\":20196:20234   */\n      tag_437\n        /* \"#utility.yul\":20228:20232   */\n      dup3\n        /* \"#utility.yul\":20222:20233   */\n      sload\n        /* \"#utility.yul\":20196:20234   */\n      tag_101\n      jump\t// in\n    tag_437:\n        /* \"#utility.yul\":20281:20348   */\n      tag_438\n        /* \"#utility.yul\":20341:20347   */\n      dup3\n        /* \"#utility.yul\":20333:20339   */\n      dup3\n        /* \"#utility.yul\":20327:20331   */\n      dup6\n        /* \"#utility.yul\":20281:20348   */\n      tag_222\n      jump\t// in\n    tag_438:\n        /* \"#utility.yul\":20375:20376   */\n      0x00\n        /* \"#utility.yul\":20399:20403   */\n      0x20\n        /* \"#utility.yul\":20386:20403   */\n      swap1\n      pop\n        /* \"#utility.yul\":20431:20433   */\n      0x1f\n        /* \"#utility.yul\":20423:20429   */\n      dup4\n        /* \"#utility.yul\":20420:20434   */\n      gt\n        /* \"#utility.yul\":20448:20449   */\n      0x01\n        /* \"#utility.yul\":20443:21061   */\n      dup2\n      eq\n      tag_440\n      jumpi\n        /* \"#utility.yul\":21105:21106   */\n      0x00\n        /* \"#utility.yul\":21122:21128   */\n      dup5\n        /* \"#utility.yul\":21119:21196   */\n      iszero\n      tag_441\n      jumpi\n        /* \"#utility.yul\":21171:21180   */\n      dup3\n        /* \"#utility.yul\":21166:21169   */\n      dup8\n        /* \"#utility.yul\":21162:21181   */\n      add\n        /* \"#utility.yul\":21156:21182   */\n      mload\n        /* \"#utility.yul\":21147:21182   */\n      swap1\n      pop\n        /* \"#utility.yul\":21119:21196   */\n    tag_441:\n        /* \"#utility.yul\":21222:21289   */\n      tag_442\n        /* \"#utility.yul\":21282:21288   */\n      dup6\n        /* \"#utility.yul\":21275:21280   */\n      dup3\n        /* \"#utility.yul\":21222:21289   */\n      tag_225\n      jump\t// in\n    tag_442:\n        /* \"#utility.yul\":21216:21220   */\n      dup7\n        /* \"#utility.yul\":21209:21290   */\n      sstore\n        /* \"#utility.yul\":21078:21300   */\n      pop\n        /* \"#utility.yul\":20413:21300   */\n      jump(tag_439)\n        /* \"#utility.yul\":20443:21061   */\n    tag_440:\n        /* \"#utility.yul\":20495:20499   */\n      0x1f\n        /* \"#utility.yul\":20491:20500   */\n      not\n        /* \"#utility.yul\":20483:20489   */\n      dup5\n        /* \"#utility.yul\":20479:20501   */\n      and\n        /* \"#utility.yul\":20529:20566   */\n      tag_443\n        /* \"#utility.yul\":20561:20565   */\n      dup7\n        /* \"#utility.yul\":20529:20566   */\n      tag_211\n      jump\t// in\n    tag_443:\n        /* \"#utility.yul\":20588:20589   */\n      0x00\n        /* \"#utility.yul\":20602:20810   */\n    tag_444:\n        /* \"#utility.yul\":20616:20623   */\n      dup3\n        /* \"#utility.yul\":20613:20614   */\n      dup2\n        /* \"#utility.yul\":20610:20624   */\n      lt\n        /* \"#utility.yul\":20602:20810   */\n      iszero\n      tag_446\n      jumpi\n        /* \"#utility.yul\":20695:20704   */\n      dup5\n        /* \"#utility.yul\":20690:20693   */\n      dup10\n        /* \"#utility.yul\":20686:20705   */\n      add\n        /* \"#utility.yul\":20680:20706   */\n      mload\n        /* \"#utility.yul\":20672:20678   */\n      dup3\n        /* \"#utility.yul\":20665:20707   */\n      sstore\n        /* \"#utility.yul\":20746:20747   */\n      0x01\n        /* \"#utility.yul\":20738:20744   */\n      dup3\n        /* \"#utility.yul\":20734:20748   */\n      add\n        /* \"#utility.yul\":20724:20748   */\n      swap2\n      pop\n        /* \"#utility.yul\":20793:20795   */\n      0x20\n        /* \"#utility.yul\":20782:20791   */\n      dup6\n        /* \"#utility.yul\":20778:20796   */\n      add\n        /* \"#utility.yul\":20765:20796   */\n      swap5\n      pop\n        /* \"#utility.yul\":20639:20643   */\n      0x20\n        /* \"#utility.yul\":20636:20637   */\n      dup2\n        /* \"#utility.yul\":20632:20644   */\n      add\n        /* \"#utility.yul\":20627:20644   */\n      swap1\n      pop\n        /* \"#utility.yul\":20602:20810   */\n      jump(tag_444)\n    tag_446:\n        /* \"#utility.yul\":20838:20844   */\n      dup7\n        /* \"#utility.yul\":20829:20836   */\n      dup4\n        /* \"#utility.yul\":20826:20845   */\n      lt\n        /* \"#utility.yul\":20823:21002   */\n      iszero\n      tag_447\n      jumpi\n        /* \"#utility.yul\":20896:20905   */\n      dup5\n        /* \"#utility.yul\":20891:20894   */\n      dup10\n        /* \"#utility.yul\":20887:20906   */\n      add\n        /* \"#utility.yul\":20881:20907   */\n      mload\n        /* \"#utility.yul\":20939:20987   */\n      tag_448\n        /* \"#utility.yul\":20981:20985   */\n      0x1f\n        /* \"#utility.yul\":20973:20979   */\n      dup10\n        /* \"#utility.yul\":20969:20986   */\n      and\n        /* \"#utility.yul\":20958:20967   */\n      dup3\n        /* \"#utility.yul\":20939:20987   */\n      tag_224\n      jump\t// in\n    tag_448:\n        /* \"#utility.yul\":20931:20937   */\n      dup4\n        /* \"#utility.yul\":20924:20988   */\n      sstore\n        /* \"#utility.yul\":20846:21002   */\n      pop\n        /* \"#utility.yul\":20823:21002   */\n    tag_447:\n        /* \"#utility.yul\":21048:21049   */\n      0x01\n        /* \"#utility.yul\":21044:21045   */\n      0x02\n        /* \"#utility.yul\":21036:21042   */\n      dup9\n        /* \"#utility.yul\":21032:21046   */\n      mul\n        /* \"#utility.yul\":21028:21050   */\n      add\n        /* \"#utility.yul\":21022:21026   */\n      dup9\n        /* \"#utility.yul\":21015:21051   */\n      sstore\n        /* \"#utility.yul\":20450:21061   */\n      pop\n      pop\n      pop\n        /* \"#utility.yul\":20413:21300   */\n    tag_439:\n      pop\n        /* \"#utility.yul\":20003:21306   */\n      pop\n      pop\n      pop\n        /* \"#utility.yul\":19911:21306   */\n      pop\n      pop\n      jump\t// out\n        /* \"#utility.yul\":21312:21492   */\n    tag_226:\n        /* \"#utility.yul\":21360:21437   */\n      0x4e487b7100000000000000000000000000000000000000000000000000000000\n        /* \"#utility.yul\":21357:21358   */\n      0x00\n        /* \"#utility.yul\":21350:21438   */\n      mstore\n        /* \"#utility.yul\":21457:21461   */\n      0x11\n        /* \"#utility.yul\":21454:21455   */\n      0x04\n        /* \"#utility.yul\":21447:21462   */\n      mstore\n        /* \"#utility.yul\":21481:21485   */\n      0x24\n        /* \"#utility.yul\":21478:21479   */\n      0x00\n        /* \"#utility.yul\":21471:21486   */\n      revert\n        /* \"#utility.yul\":21498:21731   */\n    tag_89:\n        /* \"#utility.yul\":21537:21540   */\n      0x00\n        /* \"#utility.yul\":21560:21584   */\n      tag_451\n        /* \"#utility.yul\":21578:21583   */\n      dup3\n        /* \"#utility.yul\":21560:21584   */\n      tag_163\n      jump\t// in\n    tag_451:\n        /* \"#utility.yul\":21551:21584   */\n      swap2\n      pop\n        /* \"#utility.yul\":21606:21672   */\n      0xffffffffffffffffffffffffffffffffffffffffffffffffffffffffffffffff\n        /* \"#utility.yul\":21599:21604   */\n      dup3\n        /* \"#utility.yul\":21596:21673   */\n      sub\n        /* \"#utility.yul\":21593:21696   */\n      tag_452\n      jumpi\n        /* \"#utility.yul\":21676:21694   */\n      tag_453\n      tag_226\n      jump\t// in\n    tag_453:\n        /* \"#utility.yul\":21593:21696   */\n    tag_452:\n        /* \"#utility.yul\":21723:21724   */\n      0x01\n        /* \"#utility.yul\":21716:21721   */\n      dup3\n        /* \"#utility.yul\":21712:21725   */\n      add\n        /* \"#utility.yul\":21705:21725   */\n      swap1\n      pop\n        /* \"#utility.yul\":21498:21731   */\n      swap2\n      swap1\n      pop\n      jump\t// out\n        /* \"#utility.yul\":21737:22050   */\n    tag_91:\n        /* \"#utility.yul\":21850:21854   */\n      0x00\n        /* \"#utility.yul\":21888:21890   */\n      0x20\n        /* \"#utility.yul\":21877:21886   */\n      dup3\n        /* \"#utility.yul\":21873:21891   */\n      add\n        /* \"#utility.yul\":21865:21891   */\n      swap1\n      pop\n        /* \"#utility.yul\":21937:21946   */\n      dup2\n        /* \"#utility.yul\":21931:21935   */\n      dup2\n        /* \"#utility.yul\":21927:21947   */\n      sub\n        /* \"#utility.yul\":21923:21924   */\n      0x00\n        /* \"#utility.yul\":21912:21921   */\n      dup4\n        /* \"#utility.yul\":21908:21925   */\n      add\n        /* \"#utility.yul\":21901:21948   */\n      mstore\n        /* \"#utility.yul\":21965:22043   */\n      tag_455\n        /* \"#utility.yul\":22038:22042   */\n      dup2\n        /* \"#utility.yul\":22029:22035   */\n      dup5\n        /* \"#utility.yul\":21965:22043   */\n      tag_193\n      jump\t// in\n    tag_455:\n        /* \"#utility.yul\":21957:22043   */\n      swap1\n      pop\n        /* \"#utility.yul\":21737:22050   */\n      swap3\n      swap2\n      pop\n      pop\n      jump\t// out\n        /* \"#utility.yul\":22056:22220   */\n    tag_227:\n        /* \"#utility.yul\":22196:22212   */\n      0x55736572206e6f7420666f756e64000000000000000000000000000000000000\n        /* \"#utility.yul\":22192:22193   */\n      0x00\n        /* \"#utility.yul\":22184:22190   */\n      dup3\n        /* \"#utility.yul\":22180:22194   */\n      add\n        /* \"#utility.yul\":22173:22213   */\n      mstore\n        /* \"#utility.yul\":22056:22220   */\n      pop\n      jump\t// out\n        /* \"#utility.yul\":22226:22592   */\n    tag_228:\n        /* \"#utility.yul\":22368:22371   */\n      0x00\n        /* \"#utility.yul\":22389:22456   */\n      tag_458\n        /* \"#utility.yul\":22453:22455   */\n      0x0e\n        /* \"#utility.yul\":22448:22451   */\n      dup4\n        /* \"#utility.yul\":22389:22456   */\n      tag_192\n      jump\t// in\n    tag_458:\n        /* \"#utility.yul\":22382:22456   */\n      swap2\n      pop\n        /* \"#utility.yul\":22465:22558   */\n      tag_459\n        /* \"#utility.yul\":22554:22557   */\n      dup3\n        /* \"#utility.yul\":22465:22558   */\n      tag_227\n      jump\t// in\n    tag_459:\n        /* \"#utility.yul\":22583:22585   */\n      0x20\n        /* \"#utility.yul\":22578:22581   */\n      dup3\n        /* \"#utility.yul\":22574:22586   */\n      add\n        /* \"#utility.yul\":22567:22586   */\n      swap1\n      pop\n        /* \"#utility.yul\":22226:22592   */\n      swap2\n      swap1\n      pop\n      jump\t// out\n        /* \"#utility.yul\":22598:23017   */\n    tag_99:\n        /* \"#utility.yul\":22764:22768   */\n      0x00\n        /* \"#utility.yul\":22802:22804   */\n      0x20\n        /* \"#utility.yul\":22791:22800   */\n      dup3\n        /* \"#utility.yul\":22787:22805   */\n      add\n        /* \"#utility.yul\":22779:22805   */\n      swap1\n      pop\n        /* \"#utility.yul\":22851:22860   */\n      dup2\n        /* \"#utility.yul\":22845:22849   */\n      dup2\n        /* \"#utility.yul\":22841:22861   */\n      sub\n        /* \"#utility.yul\":22837:22838   */\n      0x00\n        /* \"#utility.yul\":22826:22835   */\n      dup4\n        /* \"#utility.yul\":22822:22839   */\n      add\n        /* \"#utility.yul\":22815:22862   */\n      mstore\n        /* \"#utility.yul\":22879:23010   */\n      tag_461\n        /* \"#utility.yul\":23005:23009   */\n      dup2\n        /* \"#utility.yul\":22879:23010   */\n      tag_228\n      jump\t// in\n    tag_461:\n        /* \"#utility.yul\":22871:23010   */\n      swap1\n      pop\n        /* \"#utility.yul\":22598:23017   */\n      swap2\n      swap1\n      pop\n      jump\t// out\n        /* \"#utility.yul\":23023:23187   */\n    tag_229:\n        /* \"#utility.yul\":23163:23179   */\n      0x4e6f742072656769737465726564000000000000000000000000000000000000\n        /* \"#utility.yul\":23159:23160   */\n      0x00\n        /* \"#utility.yul\":23151:23157   */\n      dup3\n        /* \"#utility.yul\":23147:23161   */\n      add\n        /* \"#utility.yul\":23140:23180   */\n      mstore\n        /* \"#utility.yul\":23023:23187   */\n      pop\n      jump\t// out\n        /* \"#utility.yul\":23193:23559   */\n    tag_230:\n        /* \"#utility.yul\":23335:23338   */\n      0x00\n        /* \"#utility.yul\":23356:23423   */\n      tag_464\n        /* \"#utility.yul\":23420:23422   */\n      0x0e\n        /* \"#utility.yul\":23415:23418   */\n      dup4\n        /* \"#utility.yul\":23356:23423   */\n      tag_192\n      jump\t// in\n    tag_464:\n        /* \"#utility.yul\":23349:23423   */\n      swap2\n      pop\n        /* \"#utility.yul\":23432:23525   */\n      tag_465\n        /* \"#utility.yul\":23521:23524   */\n      dup3\n        /* \"#utility.yul\":23432:23525   */\n      tag_229\n      jump\t// in\n    tag_465:\n        /* \"#utility.yul\":23550:23552   */\n      0x20\n        /* \"#utility.yul\":23545:23548   */\n      dup3\n        /* \"#utility.yul\":23541:23553   */\n      add\n        /* \"#utility.yul\":23534:23553   */\n      swap1\n      pop\n        /* \"#utility.yul\":23193:23559   */\n      swap2\n      swap1\n      pop\n      jump\t// out\n        /* \"#utility.yul\":23565:23984   */\n    tag_125:\n        /* \"#utility.yul\":23731:23735   */\n      0x00\n        /* \"#utility.yul\":23769:23771   */\n      0x20\n        /* \"#utility.yul\":23758:23767   */\n      dup3\n        /* \"#utility.yul\":23754:23772   */\n      add\n        /* \"#utility.yul\":23746:23772   */\n      swap1\n      pop\n        /* \"#utility.yul\":23818:23827   */\n      dup2\n        /* \"#utility.yul\":23812:23816   */\n      dup2\n        /* \"#utility.yul\":23808:23828   */\n      sub\n        /* \"#utility.yul\":23804:23805   */\n      0x00\n        /* \"#utility.yul\":23793:23802   */\n      dup4\n        /* \"#utility.yul\":23789:23806   */\n      add\n        /* \"#utility.yul\":23782:23829   */\n      mstore\n        /* \"#utility.yul\":23846:23977   */\n      tag_467\n        /* \"#utility.yul\":23972:23976   */\n      dup2\n        /* \"#utility.yul\":23846:23977   */\n      tag_230\n      jump\t// in\n    tag_467:\n        /* \"#utility.yul\":23838:23977   */\n      swap1\n      pop\n        /* \"#utility.yul\":23565:23984   */\n      swap2\n      swap1\n      pop\n      jump\t// out\n        /* \"#utility.yul\":23990:24153   */\n    tag_231:\n        /* \"#utility.yul\":24130:24145   */\n      0x4d7573742073656e642045544800000000000000000000000000000000000000\n        /* \"#utility.yul\":24126:24127   */\n      0x00\n        /* \"#utility.yul\":24118:24124   */\n      dup3\n        /* \"#utility.yul\":24114:24128   */\n      add\n        /* \"#utility.yul\":24107:24146   */\n      mstore\n        /* \"#utility.yul\":23990:24153   */\n      pop\n      jump\t// out\n        /* \"#utility.yul\":24159:24525   */\n    tag_232:\n        /* \"#utility.yul\":24301:24304   */\n      0x00\n        /* \"#utility.yul\":24322:24389   */\n      tag_470\n        /* \"#utility.yul\":24386:24388   */\n      0x0d\n        /* \"#utility.yul\":24381:24384   */\n      dup4\n        /* \"#utility.yul\":24322:24389   */\n      tag_192\n      jump\t// in\n    tag_470:\n        /* \"#utility.yul\":24315:24389   */\n      swap2\n      pop\n        /* \"#utility.yul\":24398:24491   */\n      tag_471\n        /* \"#utility.yul\":24487:24490   */\n      dup3\n        /* \"#utility.yul\":24398:24491   */\n      tag_231\n      jump\t// in\n    tag_471:\n        /* \"#utility.yul\":24516:24518   */\n      0x20\n        /* \"#utility.yul\":24511:24514   */\n      dup3\n        /* \"#utility.yul\":24507:24519   */\n      add\n        /* \"#utility.yul\":24500:24519   */\n      swap1\n      pop\n        /* \"#utility.yul\":24159:24525   */\n      swap2\n      swap1\n      pop\n      jump\t// out\n        /* \"#utility.yul\":24531:24950   */\n    tag_133:\n        /* \"#utility.yul\":24697:24701   */\n      0x00\n        /* \"#utility.yul\":24735:24737   */\n      0x20\n        /* \"#utility.yul\":24724:24733   */\n      dup3\n        /* \"#utility.yul\":24720:24738   */\n      add\n        /* \"#utility.yul\":24712:24738   */\n      swap1\n      pop\n        /* \"#utility.yul\":24784:24793   */\n      dup2\n        /* \"#utility.yul\":24778:24782   */\n      dup2\n        /* \"#utility.yul\":24774:24794   */\n      sub\n        /* \"#utility.yul\":24770:24771   */\n      0x00\n        /* \"#utility.yul\":24759:24768   */\n      dup4\n        /* \"#utility.yul\":24755:24772   */\n      add\n        /* \"#utility.yul\":24748:24795   */\n      mstore\n        /* \"#utility.yul\":24812:24943   */\n      tag_473\n        /* \"#utility.yul\":24938:24942   */\n      dup2\n        /* \"#utility.yul\":24812:24943   */\n      tag_232\n      jump\t// in\n    tag_473:\n        /* \"#utility.yul\":24804:24943   */\n      swap1\n      pop\n        /* \"#utility.yul\":24531:24950   */\n      swap2\n      swap1\n      pop\n      jump\t// out\n        /* \"#utility.yul\":24956:25147   */\n    tag_135:\n        /* \"#utility.yul\":24996:24999   */\n      0x00\n        /* \"#utility.yul\":25015:25035   */\n      tag_475\n        /* \"#utility.yul\":25033:25034   */\n      dup3\n        /* \"#utility.yul\":25015:25035   */\n      tag_163\n      jump\t// in\n    tag_475:\n        /* \"#utility.yul\":25010:25035   */\n      swap2\n      pop\n        /* \"#utility.yul\":25049:25069   */\n      tag_476\n        /* \"#utility.yul\":25067:25068   */\n      dup4\n        /* \"#utility.yul\":25049:25069   */\n      tag_163\n      jump\t// in\n    tag_476:\n        /* \"#utility.yul\":25044:25069   */\n      swap3\n      pop\n        /* \"#utility.yul\":25092:25093   */\n      dup3\n        /* \"#utility.yul\":25089:25090   */\n      dup3\n        /* \"#utility.yul\":25085:25094   */\n      add\n        /* \"#utility.yul\":25078:25094   */\n      swap1\n      pop\n        /* \"#utility.yul\":25113:25116   */\n      dup1\n        /* \"#utility.yul\":25110:25111   */\n      dup3\n        /* \"#utility.yul\":25107:25117   */\n      gt\n        /* \"#utility.yul\":25104:25140   */\n      iszero\n      tag_477\n      jumpi\n        /* \"#utility.yul\":25120:25138   */\n      tag_478\n      tag_226\n      jump\t// in\n    tag_478:\n        /* \"#utility.yul\":25104:25140   */\n    tag_477:\n        /* \"#utility.yul\":24956:25147   */\n      swap3\n      swap2\n      pop\n      pop\n      jump\t// out\n        /* \"#utility.yul\":25153:25316   */\n    tag_233:\n        /* \"#utility.yul\":25293:25308   */\n      0x496e76616c69642072616e676500000000000000000000000000000000000000\n        /* \"#utility.yul\":25289:25290   */\n      0x00\n        /* \"#utility.yul\":25281:25287   */\n      dup3\n        /* \"#utility.yul\":25277:25291   */\n      add\n        /* \"#utility.yul\":25270:25309   */\n      mstore\n        /* \"#utility.yul\":25153:25316   */\n      pop\n      jump\t// out\n        /* \"#utility.yul\":25322:25688   */\n    tag_234:\n        /* \"#utility.yul\":25464:25467   */\n      0x00\n        /* \"#utility.yul\":25485:25552   */\n      tag_481\n        /* \"#utility.yul\":25549:25551   */\n      0x0d\n        /* \"#utility.yul\":25544:25547   */\n      dup4\n        /* \"#utility.yul\":25485:25552   */\n      tag_192\n      jump\t// in\n    tag_481:\n        /* \"#utility.yul\":25478:25552   */\n      swap2\n      pop\n        /* \"#utility.yul\":25561:25654   */\n      tag_482\n        /* \"#utility.yul\":25650:25653   */\n      dup3\n        /* \"#utility.yul\":25561:25654   */\n      tag_233\n      jump\t// in\n    tag_482:\n        /* \"#utility.yul\":25679:25681   */\n      0x20\n        /* \"#utility.yul\":25674:25677   */\n      dup3\n        /* \"#utility.yul\":25670:25682   */\n      add\n        /* \"#utility.yul\":25663:25682   */\n      swap1\n      pop\n        /* \"#utility.yul\":25322:25688   */\n      swap2\n      swap1\n      pop\n      jump\t// out\n        /* \"#utility.yul\":25694:26113   */\n    tag_143:\n        /* \"#utility.yul\":25860:25864   */\n      0x00\n        /* \"#utility.yul\":25898:25900   */\n      0x20\n        /* \"#utility.yul\":25887:25896   */\n      dup3\n        /* \"#utility.yul\":25883:25901   */\n      add\n        /* \"#utility.yul\":25875:25901   */\n      swap1\n      pop\n        /* \"#utility.yul\":25947:25956   */\n      dup2\n        /* \"#utility.yul\":25941:25945   */\n      dup2\n        /* \"#utility.yul\":25937:25957   */\n      sub\n        /* \"#utility.yul\":25933:25934   */\n      0x00\n        /* \"#utility.yul\":25922:25931   */\n      dup4\n        /* \"#utility.yul\":25918:25935   */\n      add\n        /* \"#utility.yul\":25911:25958   */\n      mstore\n        /* \"#utility.yul\":25975:26106   */\n      tag_484\n        /* \"#utility.yul\":26101:26105   */\n      dup2\n        /* \"#utility.yul\":25975:26106   */\n      tag_234\n      jump\t// in\n    tag_484:\n        /* \"#utility.yul\":25967:26106   */\n      swap1\n      pop\n        /* \"#utility.yul\":25694:26113   */\n      swap2\n      swap1\n      pop\n      jump\t// out\n        /* \"#utility.yul\":26119:26286   */\n    tag_235:\n        /* \"#utility.yul\":26259:26278   */\n      0x456e64206f7574206f6620626f756e6473000000000000000000000000000000\n        /* \"#utility.yul\":26255:26256   */\n      0x00\n        /* \"#utility.yul\":26247:26253   */\n      dup3\n        /* \"#utility.yul\":26243:26257   */\n      add\n        /* \"#utility.yul\":26236:26279   */\n      mstore\n        /* \"#utility.yul\":26119:26286   */\n      pop\n      jump\t// out\n        /* \"#utility.yul\":26292:26658   */\n    tag_236:\n        /* \"#utility.yul\":26434:26437   */\n      0x00\n        /* \"#utility.yul\":26455:26522   */\n      tag_487\n        /* \"#utility.yul\":26519:26521   */\n      0x11\n        /* \"#utility.yul\":26514:26517   */\n      dup4\n        /* \"#utility.yul\":26455:26522   */\n      tag_192\n      jump\t// in\n    tag_487:\n        /* \"#utility.yul\":26448:26522   */\n      swap2\n      pop\n        /* \"#utility.yul\":26531:26624   */\n      tag_488\n        /* \"#utility.yul\":26620:26623   */\n      dup3\n        /* \"#utility.yul\":26531:26624   */\n      tag_235\n      jump\t// in\n    tag_488:\n        /* \"#utility.yul\":26649:26651   */\n      0x20\n        /* \"#utility.yul\":26644:26647   */\n      dup3\n        /* \"#utility.yul\":26640:26652   */\n      add\n        /* \"#utility.yul\":26633:26652   */\n      swap1\n      pop\n        /* \"#utility.yul\":26292:26658   */\n      swap2\n      swap1\n      pop\n      jump\t// out\n        /* \"#utility.yul\":26664:27083   */\n    tag_146:\n        /* \"#utility.yul\":26830:26834   */\n      0x00\n        /* \"#utility.yul\":26868:26870   */\n      0x20\n        /* \"#utility.yul\":26857:26866   */\n      dup3\n        /* \"#utility.yul\":26853:26871   */\n      add\n        /* \"#utility.yul\":26845:26871   */\n      swap1\n      pop\n        /* \"#utility.yul\":26917:26926   */\n      dup2\n        /* \"#utility.yul\":26911:26915   */\n      dup2\n        /* \"#utility.yul\":26907:26927   */\n      sub\n        /* \"#utility.yul\":26903:26904   */\n      0x00\n        /* \"#utility.yul\":26892:26901   */\n      dup4\n        /* \"#utility.yul\":26888:26905   */\n      add\n        /* \"#utility.yul\":26881:26928   */\n      mstore\n        /* \"#utility.yul\":26945:27076   */\n      tag_490\n        /* \"#utility.yul\":27071:27075   */\n      dup2\n        /* \"#utility.yul\":26945:27076   */\n      tag_236\n      jump\t// in\n    tag_490:\n        /* \"#utility.yul\":26937:27076   */\n      swap1\n      pop\n        /* \"#utility.yul\":26664:27083   */\n      swap2\n      swap1\n      pop\n      jump\t// out\n        /* \"#utility.yul\":27089:27283   */\n    tag_148:\n        /* \"#utility.yul\":27129:27133   */\n      0x00\n        /* \"#utility.yul\":27149:27169   */\n      tag_492\n        /* \"#utility.yul\":27167:27168   */\n      dup3\n        /* \"#utility.yul\":27149:27169   */\n      tag_163\n      jump\t// in\n    tag_492:\n        /* \"#utility.yul\":27144:27169   */\n      swap2\n      pop\n        /* \"#utility.yul\":27183:27203   */\n      tag_493\n        /* \"#utility.yul\":27201:27202   */\n      dup4\n        /* \"#utility.yul\":27183:27203   */\n      tag_163\n      jump\t// in\n    tag_493:\n        /* \"#utility.yul\":27178:27203   */\n      swap3\n      pop\n        /* \"#utility.yul\":27227:27228   */\n      dup3\n        /* \"#utility.yul\":27224:27225   */\n      dup3\n        /* \"#utility.yul\":27220:27229   */\n      sub\n        /* \"#utility.yul\":27212:27229   */\n      swap1\n      pop\n        /* \"#utility.yul\":27251:27252   */\n      dup2\n        /* \"#utility.yul\":27245:27249   */\n      dup2\n        /* \"#utility.yul\":27242:27253   */\n      gt\n        /* \"#utility.yul\":27239:27276   */\n      iszero\n      tag_494\n      jumpi\n        /* \"#utility.yul\":27256:27274   */\n      tag_495\n      tag_226\n      jump\t// in\n    tag_495:\n        /* \"#utility.yul\":27239:27276   */\n    tag_494:\n        /* \"#utility.yul\":27089:27283   */\n      swap3\n      swap2\n      pop\n      pop\n      jump\t// out\n        /* \"#utility.yul\":27289:27469   */\n    tag_159:\n        /* \"#utility.yul\":27337:27414   */\n      0x4e487b7100000000000000000000000000000000000000000000000000000000\n        /* \"#utility.yul\":27334:27335   */\n      0x00\n        /* \"#utility.yul\":27327:27415   */\n      mstore\n        /* \"#utility.yul\":27434:27438   */\n      0x32\n        /* \"#utility.yul\":27431:27432   */\n      0x04\n        /* \"#utility.yul\":27424:27439   */\n      mstore\n        /* \"#utility.yul\":27458:27462   */\n      0x24\n        /* \"#utility.yul\":27455:27456   */\n      0x00\n        /* \"#utility.yul\":27448:27463   */\n      revert\n\n    auxdata: 0xa2646970667358221220c59d5d4f0f96b3523bfc4f32212e988c154813f04d4775a4c2182a3d05b3b4ad64736f6c634300081f0033\n}\n",
				"bytecode": {
					"linkReferences": {},
					"object": "6080604052348015600e575f5ffd5b50611ca58061001c5f395ff3fe60806040526004361061009b575f3560e01c8063c3c5a54711610063578063c3c5a547146101a9578063c9d3cc6a146101e5578063d0e30db01461020d578063e2842d7914610217578063ed5cd0e714610241578063fa6ac1311461027d5761009b565b806307973ccf1461009f5780633ffbd47f146100c9578063502c9bd5146100f15780636386c1c71461012d578063a87430ba14610169575b5f5ffd5b3480156100aa575f5ffd5b506100b36102a7565b6040516100c09190610eef565b60405180910390f35b3480156100d4575f5ffd5b506100ef60048036038101906100ea9190611055565b6102ad565b005b3480156100fc575f5ffd5b50610117600480360381019061011291906110f5565b610594565b604051610124919061115f565b60405180910390f35b348015610138575f5ffd5b50610153600480360381019061014e91906111a2565b6105cf565b60405161016091906112d0565b60405180910390f35b348015610174575f5ffd5b5061018f600480360381019061018a91906111a2565b6107fd565b6040516101a0959493929190611347565b60405180910390f35b3480156101b4575f5ffd5b506101cf60048036038101906101ca91906111a2565b610946565b6040516101dc91906113a6565b60405180910390f35b3480156101f0575f5ffd5b5061020b60048036038101906102069190611055565b61099a565b005b610215610b05565b005b348015610222575f5ffd5b5061022b610c77565b6040516102389190611476565b60405180910390f35b34801561024c575f5ffd5b5061026760048036038101906102629190611496565b610d02565b6040516102749190611476565b60405180910390f35b348015610288575f5ffd5b50610291610ea3565b60405161029e9190610eef565b60405180910390f35b60025481565b5f5f3373ffffffffffffffffffffffffffffffffffffffff1673ffffffffffffffffffffffffffffffffffffffff1681526020019081526020015f206004015f9054906101000a900460ff1615610339576040517f08c379a00000000000000000000000000000000000000000000000000000000081526004016103309061151e565b60405180910390fd5b6103e86002541061037f576040517f08c379a000000000000000000000000000000000000000000000000000000000815260040161037690611586565b60405180910390fd5b5f8251116103c2576040517f08c379a00000000000000000000000000000000000000000000000000000000081526004016103b9906115ee565b60405180910390fd5b5f815111610405576040517f08c379a00000000000000000000000000000000000000000000000000000000081526004016103fc90611656565b60405180910390fd5b6040518060a001604052808381526020018281526020015f8152602001428152602001600115158152505f5f3373ffffffffffffffffffffffffffffffffffffffff1673ffffffffffffffffffffffffffffffffffffffff1681526020019081526020015f205f820151815f01908161047e9190611871565b5060208201518160010190816104949190611871565b5060408201518160020155606082015181600301556080820151816004015f6101000a81548160ff021916908315150217905550905050600133908060018154018082558091505060019003905f5260205f20015f9091909190916101000a81548173ffffffffffffffffffffffffffffffffffffffff021916908373ffffffffffffffffffffffffffffffffffffffff16021790555060025f81548092919061053d9061196d565b91905055503373ffffffffffffffffffffffffffffffffffffffff167f48cac28ad4dc618e15f4c2dd5e97751182f166de97b25618318b2112aa951a2f8360405161058891906119b4565b60405180910390a25050565b600181815481106105a3575f80fd5b905f5260205f20015f915054906101000a900473ffffffffffffffffffffffffffffffffffffffff1681565b6105d7610ea9565b5f5f8373ffffffffffffffffffffffffffffffffffffffff1673ffffffffffffffffffffffffffffffffffffffff1681526020019081526020015f206004015f9054906101000a900460ff16610662576040517f08c379a000000000000000000000000000000000000000000000000000000000815260040161065990611a1e565b60405180910390fd5b5f5f8373ffffffffffffffffffffffffffffffffffffffff1673ffffffffffffffffffffffffffffffffffffffff1681526020019081526020015f206040518060a00160405290815f820180546106b8906116a1565b80601f01602080910402602001604051908101604052809291908181526020018280546106e4906116a1565b801561072f5780601f106107065761010080835404028352916020019161072f565b820191905f5260205f20905b81548152906001019060200180831161071257829003601f168201915b50505050508152602001600182018054610748906116a1565b80601f0160208091040260200160405190810160405280929190818152602001828054610774906116a1565b80156107bf5780601f10610796576101008083540402835291602001916107bf565b820191905f5260205f20905b8154815290600101906020018083116107a257829003601f168201915b505050505081526020016002820154815260200160038201548152602001600482015f9054906101000a900460ff1615151515815250509050919050565b5f602052805f5260405f205f91509050805f01805461081b906116a1565b80601f0160208091040260200160405190810160405280929190818152602001828054610847906116a1565b80156108925780601f1061086957610100808354040283529160200191610892565b820191905f5260205f20905b81548152906001019060200180831161087557829003601f168201915b5050505050908060010180546108a7906116a1565b80601f01602080910402602001604051908101604052809291908181526020018280546108d3906116a1565b801561091e5780601f106108f55761010080835404028352916020019161091e565b820191905f5260205f20905b81548152906001019060200180831161090157829003601f168201915b505050505090806002015490806003015490806004015f9054906101000a900460ff16905085565b5f5f5f8373ffffffffffffffffffffffffffffffffffffffff1673ffffffffffffffffffffffffffffffffffffffff1681526020019081526020015f206004015f9054906101000a900460ff169050919050565b5f5f3373ffffffffffffffffffffffffffffffffffffffff1673ffffffffffffffffffffffffffffffffffffffff1681526020019081526020015f206004015f9054906101000a900460ff16610a25576040517f08c379a0000000000000000000000000000000000000000000000000000000008152600401610a1c90611a86565b60405180910390fd5b815f5f3373ffffffffffffffffffffffffffffffffffffffff1673ffffffffffffffffffffffffffffffffffffffff1681526020019081526020015f205f019081610a709190611871565b50805f5f3373ffffffffffffffffffffffffffffffffffffffff1673ffffffffffffffffffffffffffffffffffffffff1681526020019081526020015f206001019081610abd9190611871565b503373ffffffffffffffffffffffffffffffffffffffff167f0163b5f10e25c839f35e6f2b201b31e88e17f49e6956232de5d2e6bbae3b78b860405160405180910390a25050565b5f5f3373ffffffffffffffffffffffffffffffffffffffff1673ffffffffffffffffffffffffffffffffffffffff1681526020019081526020015f206004015f9054906101000a900460ff16610b90576040517f08c379a0000000000000000000000000000000000000000000000000000000008152600401610b8790611a86565b60405180910390fd5b5f3411610bd2576040517f08c379a0000000000000000000000000000000000000000000000000000000008152600401610bc990611aee565b60405180910390fd5b345f5f3373ffffffffffffffffffffffffffffffffffffffff1673ffffffffffffffffffffffffffffffffffffffff1681526020019081526020015f206002015f828254610c209190611b0c565b925050819055503373ffffffffffffffffffffffffffffffffffffffff167fe1fffcc4923d04b559f4d29a8bfc6cda04eb5b0d3c460751c2402c5c5cc9109c34604051610c6d9190610eef565b60405180910390a2565b60606001805480602002602001604051908101604052809291908181526020018280548015610cf857602002820191905f5260205f20905b815f9054906101000a900473ffffffffffffffffffffffffffffffffffffffff1673ffffffffffffffffffffffffffffffffffffffff1681526020019060010190808311610caf575b5050505050905090565b6060818310610d46576040517f08c379a0000000000000000000000000000000000000000000000000000000008152600401610d3d90611b89565b60405180910390fd5b600180549050821115610d8e576040517f08c379a0000000000000000000000000000000000000000000000000000000008152600401610d8590611bf1565b60405180910390fd5b5f8383610d9b9190611c0f565b90505f8167ffffffffffffffff811115610db857610db7610f31565b5b604051908082528060200260200182016040528015610de65781602001602082028036833780820191505090505b5090505f5f90505b82811015610e975760018187610e049190611b0c565b81548110610e1557610e14611c42565b5b905f5260205f20015f9054906101000a900473ffffffffffffffffffffffffffffffffffffffff16828281518110610e5057610e4f611c42565b5b602002602001019073ffffffffffffffffffffffffffffffffffffffff16908173ffffffffffffffffffffffffffffffffffffffff16815250508080600101915050610dee565b50809250505092915050565b6103e881565b6040518060a0016040528060608152602001606081526020015f81526020015f81526020015f151581525090565b5f819050919050565b610ee981610ed7565b82525050565b5f602082019050610f025f830184610ee0565b92915050565b5f604051905090565b5f5ffd5b5f5ffd5b5f5ffd5b5f5ffd5b5f601f19601f8301169050919050565b7f4e487b71000000000000000000000000000000000000000000000000000000005f52604160045260245ffd5b610f6782610f21565b810181811067ffffffffffffffff82111715610f8657610f85610f31565b5b80604052505050565b5f610f98610f08565b9050610fa48282610f5e565b919050565b5f67ffffffffffffffff821115610fc357610fc2610f31565b5b610fcc82610f21565b9050602081019050919050565b828183375f83830152505050565b5f610ff9610ff484610fa9565b610f8f565b90508281526020810184848401111561101557611014610f1d565b5b611020848285610fd9565b509392505050565b5f82601f83011261103c5761103b610f19565b5b813561104c848260208601610fe7565b91505092915050565b5f5f6040838503121561106b5761106a610f11565b5b5f83013567ffffffffffffffff81111561108857611087610f15565b5b61109485828601611028565b925050602083013567ffffffffffffffff8111156110b5576110b4610f15565b5b6110c185828601611028565b9150509250929050565b6110d481610ed7565b81146110de575f5ffd5b50565b5f813590506110ef816110cb565b92915050565b5f6020828403121561110a57611109610f11565b5b5f611117848285016110e1565b91505092915050565b5f73ffffffffffffffffffffffffffffffffffffffff82169050919050565b5f61114982611120565b9050919050565b6111598161113f565b82525050565b5f6020820190506111725f830184611150565b92915050565b6111818161113f565b811461118b575f5ffd5b50565b5f8135905061119c81611178565b92915050565b5f602082840312156111b7576111b6610f11565b5b5f6111c48482850161118e565b91505092915050565b5f81519050919050565b5f82825260208201905092915050565b8281835e5f83830152505050565b5f6111ff826111cd565b61120981856111d7565b93506112198185602086016111e7565b61122281610f21565b840191505092915050565b61123681610ed7565b82525050565b5f8115159050919050565b6112508161123c565b82525050565b5f60a083015f8301518482035f86015261127082826111f5565b9150506020830151848203602086015261128a82826111f5565b915050604083015161129f604086018261122d565b5060608301516112b2606086018261122d565b5060808301516112c56080860182611247565b508091505092915050565b5f6020820190508181035f8301526112e88184611256565b905092915050565b5f82825260208201905092915050565b5f61130a826111cd565b61131481856112f0565b93506113248185602086016111e7565b61132d81610f21565b840191505092915050565b6113418161123c565b82525050565b5f60a0820190508181035f83015261135f8188611300565b905081810360208301526113738187611300565b90506113826040830186610ee0565b61138f6060830185610ee0565b61139c6080830184611338565b9695505050505050565b5f6020820190506113b95f830184611338565b92915050565b5f81519050919050565b5f82825260208201905092915050565b5f819050602082019050919050565b6113f18161113f565b82525050565b5f61140283836113e8565b60208301905092915050565b5f602082019050919050565b5f611424826113bf565b61142e81856113c9565b9350611439836113d9565b805f5b8381101561146957815161145088826113f7565b975061145b8361140e565b92505060018101905061143c565b5085935050505092915050565b5f6020820190508181035f83015261148e818461141a565b905092915050565b5f5f604083850312156114ac576114ab610f11565b5b5f6114b9858286016110e1565b92505060206114ca858286016110e1565b9150509250929050565b7f416c7265616479207265676973746572656400000000000000000000000000005f82015250565b5f6115086012836112f0565b9150611513826114d4565b602082019050919050565b5f6020820190508181035f830152611535816114fc565b9050919050565b7f4d617820757365727320726561636865640000000000000000000000000000005f82015250565b5f6115706011836112f0565b915061157b8261153c565b602082019050919050565b5f6020820190508181035f83015261159d81611564565b9050919050565b7f4e616d65207265717569726564000000000000000000000000000000000000005f82015250565b5f6115d8600d836112f0565b91506115e3826115a4565b602082019050919050565b5f6020820190508181035f830152611605816115cc565b9050919050565b7f456d61696c2072657175697265640000000000000000000000000000000000005f82015250565b5f611640600e836112f0565b915061164b8261160c565b602082019050919050565b5f6020820190508181035f83015261166d81611634565b9050919050565b7f4e487b71000000000000000000000000000000000000000000000000000000005f52602260045260245ffd5b5f60028204905060018216806116b857607f821691505b6020821081036116cb576116ca611674565b5b50919050565b5f819050815f5260205f209050919050565b5f6020601f8301049050919050565b5f82821b905092915050565b5f6008830261172d7fffffffffffffffffffffffffffffffffffffffffffffffffffffffffffffffff826116f2565b61173786836116f2565b95508019841693508086168417925050509392505050565b5f819050919050565b5f61177261176d61176884610ed7565b61174f565b610ed7565b9050919050565b5f819050919050565b61178b83611758565b61179f61179782611779565b8484546116fe565b825550505050565b5f5f905090565b6117b66117a7565b6117c1818484611782565b505050565b5b818110156117e4576117d95f826117ae565b6001810190506117c7565b5050565b601f821115611829576117fa816116d1565b611803846116e3565b81016020851015611812578190505b61182661181e856116e3565b8301826117c6565b50505b505050565b5f82821c905092915050565b5f6118495f198460080261182e565b1980831691505092915050565b5f611861838361183a565b9150826002028217905092915050565b61187a826111cd565b67ffffffffffffffff81111561189357611892610f31565b5b61189d82546116a1565b6118a88282856117e8565b5f60209050601f8311600181146118d9575f84156118c7578287015190505b6118d18582611856565b865550611938565b601f1984166118e7866116d1565b5f5b8281101561190e578489015182556001820191506020850194506020810190506118e9565b8683101561192b5784890151611927601f89168261183a565b8355505b6001600288020188555050505b505050505050565b7f4e487b71000000000000000000000000000000000000000000000000000000005f52601160045260245ffd5b5f61197782610ed7565b91507fffffffffffffffffffffffffffffffffffffffffffffffffffffffffffffffff82036119a9576119a8611940565b5b600182019050919050565b5f6020820190508181035f8301526119cc8184611300565b905092915050565b7f55736572206e6f7420666f756e640000000000000000000000000000000000005f82015250565b5f611a08600e836112f0565b9150611a13826119d4565b602082019050919050565b5f6020820190508181035f830152611a35816119fc565b9050919050565b7f4e6f7420726567697374657265640000000000000000000000000000000000005f82015250565b5f611a70600e836112f0565b9150611a7b82611a3c565b602082019050919050565b5f6020820190508181035f830152611a9d81611a64565b9050919050565b7f4d7573742073656e6420455448000000000000000000000000000000000000005f82015250565b5f611ad8600d836112f0565b9150611ae382611aa4565b602082019050919050565b5f6020820190508181035f830152611b0581611acc565b9050919050565b5f611b1682610ed7565b9150611b2183610ed7565b9250828201905080821115611b3957611b38611940565b5b92915050565b7f496e76616c69642072616e6765000000000000000000000000000000000000005f82015250565b5f611b73600d836112f0565b9150611b7e82611b3f565b602082019050919050565b5f6020820190508181035f830152611ba081611b67565b9050919050565b7f456e64206f7574206f6620626f756e64730000000000000000000000000000005f82015250565b5f611bdb6011836112f0565b9150611be682611ba7565b602082019050919050565b5f6020820190508181035f830152611c0881611bcf565b9050919050565b5f611c1982610ed7565b9150611c2483610ed7565b9250828203905081811115611c3c57611c3b611940565b5b92915050565b7f4e487b71000000000000000000000000000000000000000000000000000000005f52603260045260245ffdfea2646970667358221220c59d5d4f0f96b3523bfc4f32212e988c154813f04d4775a4c2182a3d05b3b4ad64736f6c634300081f0033",
					"opcodes": "PUSH1 0x80 PUSH1 0x40 MSTORE CALLVALUE DUP1 ISZERO PUSH1 0xE JUMPI PUSH0 PUSH0 REVERT JUMPDEST POP PUSH2 0x1CA5 DUP1 PUSH2 0x1C PUSH0 CODECOPY PUSH0 RETURN INVALID PUSH1 0x80 PUSH1 0x40 MSTORE PUSH1 0x4 CALLDATASIZE LT PUSH2 0x9B JUMPI PUSH0 CALLDATALOAD PUSH1 0xE0 SHR DUP1 PUSH4 0xC3C5A547 GT PUSH2 0x63 JUMPI DUP1 PUSH4 0xC3C5A547 EQ PUSH2 0x1A9 JUMPI DUP1 PUSH4 0xC9D3CC6A EQ PUSH2 0x1E5 JUMPI DUP1 PUSH4 0xD0E30DB0 EQ PUSH2 0x20D JUMPI DUP1 PUSH4 0xE2842D79 EQ PUSH2 0x217 JUMPI DUP1 PUSH4 0xED5CD0E7 EQ PUSH2 0x241 JUMPI DUP1 PUSH4 0xFA6AC131 EQ PUSH2 0x27D JUMPI PUSH2 0x9B JUMP JUMPDEST DUP1 PUSH4 0x7973CCF EQ PUSH2 0x9F JUMPI DUP1 PUSH4 0x3FFBD47F EQ PUSH2 0xC9 JUMPI DUP1 PUSH4 0x502C9BD5 EQ PUSH2 0xF1 JUMPI DUP1 PUSH4 0x6386C1C7 EQ PUSH2 0x12D JUMPI DUP1 PUSH4 0xA87430BA EQ PUSH2 0x169 JUMPI JUMPDEST PUSH0 PUSH0 REVERT JUMPDEST CALLVALUE DUP1 ISZERO PUSH2 0xAA JUMPI PUSH0 PUSH0 REVERT JUMPDEST POP PUSH2 0xB3 PUSH2 0x2A7 JUMP JUMPDEST PUSH1 0x40 MLOAD PUSH2 0xC0 SWAP2 SWAP1 PUSH2 0xEEF JUMP JUMPDEST PUSH1 0x40 MLOAD DUP1 SWAP2 SUB SWAP1 RETURN JUMPDEST CALLVALUE DUP1 ISZERO PUSH2 0xD4 JUMPI PUSH0 PUSH0 REVERT JUMPDEST POP PUSH2 0xEF PUSH1 0x4 DUP1 CALLDATASIZE SUB DUP2 ADD SWAP1 PUSH2 0xEA SWAP2 SWAP1 PUSH2 0x1055 JUMP JUMPDEST PUSH2 0x2AD JUMP JUMPDEST STOP JUMPDEST CALLVALUE DUP1 ISZERO PUSH2 0xFC JUMPI PUSH0 PUSH0 REVERT JUMPDEST POP PUSH2 0x117 PUSH1 0x4 DUP1 CALLDATASIZE SUB DUP2 ADD SWAP1 PUSH2 0x112 SWAP2 SWAP1 PUSH2 0x10F5 JUMP JUMPDEST PUSH2 0x594 JUMP JUMPDEST PUSH1 0x40 MLOAD PUSH2 0x124 SWAP2 SWAP1 PUSH2 0x115F JUMP JUMPDEST PUSH1 0x40 MLOAD DUP1 SWAP2 SUB SWAP1 RETURN JUMPDEST CALLVALUE DUP1 ISZERO PUSH2 0x138 JUMPI PUSH0 PUSH0 REVERT JUMPDEST POP PUSH2 0x153 PUSH1 0x4 DUP1 CALLDATASIZE SUB DUP2 ADD SWAP1 PUSH2 0x14E SWAP2 SWAP1 PUSH2 0x11A2 JUMP JUMPDEST PUSH2 0x5CF JUMP JUMPDEST PUSH1 0x40 MLOAD PUSH2 0x160 SWAP2 SWAP1 PUSH2 0x12D0 JUMP JUMPDEST PUSH1 0x40 MLOAD DUP1 SWAP2 SUB SWAP1 RETURN JUMPDEST CALLVALUE DUP1 ISZERO PUSH2 0x174 JUMPI PUSH0 PUSH0 REVERT JUMPDEST POP PUSH2 0x18F PUSH1 0x4 DUP1 CALLDATASIZE SUB DUP2 ADD SWAP1 PUSH2 0x18A SWAP2 SWAP1 PUSH2 0x11A2 JUMP JUMPDEST PUSH2 0x7FD JUMP JUMPDEST PUSH1 0x40 MLOAD PUSH2 0x1A0 SWAP6 SWAP5 SWAP4 SWAP3 SWAP2 SWAP1 PUSH2 0x1347 JUMP JUMPDEST PUSH1 0x40 MLOAD DUP1 SWAP2 SUB SWAP1 RETURN JUMPDEST CALLVALUE DUP1 ISZERO PUSH2 0x1B4 JUMPI PUSH0 PUSH0 REVERT JUMPDEST POP PUSH2 0x1CF PUSH1 0x4 DUP1 CALLDATASIZE SUB DUP2 ADD SWAP1 PUSH2 0x1CA SWAP2 SWAP1 PUSH2 0x11A2 JUMP JUMPDEST PUSH2 0x946 JUMP JUMPDEST PUSH1 0x40 MLOAD PUSH2 0x1DC SWAP2 SWAP1 PUSH2 0x13A6 JUMP JUMPDEST PUSH1 0x40 MLOAD DUP1 SWAP2 SUB SWAP1 RETURN JUMPDEST CALLVALUE DUP1 ISZERO PUSH2 0x1F0 JUMPI PUSH0 PUSH0 REVERT JUMPDEST POP PUSH2 0x20B PUSH1 0x4 DUP1 CALLDATASIZE SUB DUP2 ADD SWAP1 PUSH2 0x206 SWAP2 SWAP1 PUSH2 0x1055 JUMP JUMPDEST PUSH2 0x99A JUMP JUMPDEST STOP JUMPDEST PUSH2 0x215 PUSH2 0xB05 JUMP JUMPDEST STOP JUMPDEST CALLVALUE DUP1 ISZERO PUSH2 0x222 JUMPI PUSH0 PUSH0 REVERT JUMPDEST POP PUSH2 0x22B PUSH2 0xC77 JUMP JUMPDEST PUSH1 0x40 MLOAD PUSH2 0x238 SWAP2 SWAP1 PUSH2 0x1476 JUMP JUMPDEST PUSH1 0x40 MLOAD DUP1 SWAP2 SUB SWAP1 RETURN JUMPDEST CALLVALUE DUP1 ISZERO PUSH2 0x24C JUMPI PUSH0 PUSH0 REVERT JUMPDEST POP PUSH2 0x267 PUSH1 0x4 DUP1 CALLDATASIZE SUB DUP2 ADD SWAP1 PUSH2 0x262 SWAP2 SWAP1 PUSH2 0x1496 JUMP JUMPDEST PUSH2 0xD02 JUMP JUMPDEST PUSH1 0x40 MLOAD PUSH2 0x274 SWAP2 SWAP1 PUSH2 0x1476 JUMP JUMPDEST PUSH1 0x40 MLOAD DUP1 SWAP2 SUB SWAP1 RETURN JUMPDEST CALLVALUE DUP1 ISZERO PUSH2 0x288 JUMPI PUSH0 PUSH0 REVERT JUMPDEST POP PUSH2 0x291 PUSH2 0xEA3 JUMP JUMPDEST PUSH1 0x40 MLOAD PUSH2 0x29E SWAP2 SWAP1 PUSH2 0xEEF JUMP JUMPDEST PUSH1 0x40 MLOAD DUP1 SWAP2 SUB SWAP1 RETURN JUMPDEST PUSH1 0x2 SLOAD DUP2 JUMP JUMPDEST PUSH0 PUSH0 CALLER PUSH20 0xFFFFFFFFFFFFFFFFFFFFFFFFFFFFFFFFFFFFFFFF AND PUSH20 0xFFFFFFFFFFFFFFFFFFFFFFFFFFFFFFFFFFFFFFFF AND DUP2 MSTORE PUSH1 0x20 ADD SWAP1 DUP2 MSTORE PUSH1 0x20 ADD PUSH0 KECCAK256 PUSH1 0x4 ADD PUSH0 SWAP1 SLOAD SWAP1 PUSH2 0x100 EXP SWAP1 DIV PUSH1 0xFF AND ISZERO PUSH2 0x339 JUMPI PUSH1 0x40 MLOAD PUSH32 0x8C379A000000000000000000000000000000000000000000000000000000000 DUP2 MSTORE PUSH1 0x4 ADD PUSH2 0x330 SWAP1 PUSH2 0x151E JUMP JUMPDEST PUSH1 0x40 MLOAD DUP1 SWAP2 SUB SWAP1 REVERT JUMPDEST PUSH2 0x3E8 PUSH1 0x2 SLOAD LT PUSH2 0x37F JUMPI PUSH1 0x40 MLOAD PUSH32 0x8C379A000000000000000000000000000000000000000000000000000000000 DUP2 MSTORE PUSH1 0x4 ADD PUSH2 0x376 SWAP1 PUSH2 0x1586 JUMP JUMPDEST PUSH1 0x40 MLOAD DUP1 SWAP2 SUB SWAP1 REVERT JUMPDEST PUSH0 DUP3 MLOAD GT PUSH2 0x3C2 JUMPI PUSH1 0x40 MLOAD PUSH32 0x8C379A000000000000000000000000000000000000000000000000000000000 DUP2 MSTORE PUSH1 0x4 ADD PUSH2 0x3B9 SWAP1 PUSH2 0x15EE JUMP JUMPDEST PUSH1 0x40 MLOAD DUP1 SWAP2 SUB SWAP1 REVERT JUMPDEST PUSH0 DUP2 MLOAD GT PUSH2 0x405 JUMPI PUSH1 0x40 MLOAD PUSH32 0x8C379A000000000000000000000000000000000000000000000000000000000 DUP2 MSTORE PUSH1 0x4 ADD PUSH2 0x3FC SWAP1 PUSH2 0x1656 JUMP JUMPDEST PUSH1 0x40 MLOAD DUP1 SWAP2 SUB SWAP1 REVERT JUMPDEST PUSH1 0x40 MLOAD DUP1 PUSH1 0xA0 ADD PUSH1 0x40 MSTORE DUP1 DUP4 DUP2 MSTORE PUSH1 0x20 ADD DUP3 DUP2 MSTORE PUSH1 0x20 ADD PUSH0 DUP2 MSTORE PUSH1 0x20 ADD TIMESTAMP DUP2 MSTORE PUSH1 0x20 ADD PUSH1 0x1 ISZERO ISZERO DUP2 MSTORE POP PUSH0 PUSH0 CALLER PUSH20 0xFFFFFFFFFFFFFFFFFFFFFFFFFFFFFFFFFFFFFFFF AND PUSH20 0xFFFFFFFFFFFFFFFFFFFFFFFFFFFFFFFFFFFFFFFF AND DUP2 MSTORE PUSH1 0x20 ADD SWAP1 DUP2 MSTORE PUSH1 0x20 ADD PUSH0 KECCAK256 PUSH0 DUP3 ADD MLOAD DUP2 PUSH0 ADD SWAP1 DUP2 PUSH2 0x47E SWAP2 SWAP1 PUSH2 0x1871 JUMP JUMPDEST POP PUSH1 0x20 DUP3 ADD MLOAD DUP2 PUSH1 0x1 ADD SWAP1 DUP2 PUSH2 0x494 SWAP2 SWAP1 PUSH2 0x1871 JUMP JUMPDEST POP PUSH1 0x40 DUP3 ADD MLOAD DUP2 PUSH1 0x2 ADD SSTORE PUSH1 0x60 DUP3 ADD MLOAD DUP2 PUSH1 0x3 ADD SSTORE PUSH1 0x80 DUP3 ADD MLOAD DUP2 PUSH1 0x4 ADD PUSH0 PUSH2 0x100 EXP DUP2 SLOAD DUP2 PUSH1 0xFF MUL NOT AND SWAP1 DUP4 ISZERO ISZERO MUL OR SWAP1 SSTORE POP SWAP1 POP POP PUSH1 0x1 CALLER SWAP1 DUP1 PUSH1 0x1 DUP2 SLOAD ADD DUP1 DUP3 SSTORE DUP1 SWAP2 POP POP PUSH1 0x1 SWAP1 SUB SWAP1 PUSH0 MSTORE PUSH1 0x20 PUSH0 KECCAK256 ADD PUSH0 SWAP1 SWAP2 SWAP1 SWAP2 SWAP1 SWAP2 PUSH2 0x100 EXP DUP2 SLOAD DUP2 PUSH20 0xFFFFFFFFFFFFFFFFFFFFFFFFFFFFFFFFFFFFFFFF MUL NOT AND SWAP1 DUP4 PUSH20 0xFFFFFFFFFFFFFFFFFFFFFFFFFFFFFFFFFFFFFFFF AND MUL OR SWAP1 SSTORE POP PUSH1 0x2 PUSH0 DUP2 SLOAD DUP1 SWAP3 SWAP2 SWAP1 PUSH2 0x53D SWAP1 PUSH2 0x196D JUMP JUMPDEST SWAP2 SWAP1 POP SSTORE POP CALLER PUSH20 0xFFFFFFFFFFFFFFFFFFFFFFFFFFFFFFFFFFFFFFFF AND PUSH32 0x48CAC28AD4DC618E15F4C2DD5E97751182F166DE97B25618318B2112AA951A2F DUP4 PUSH1 0x40 MLOAD PUSH2 0x588 SWAP2 SWAP1 PUSH2 0x19B4 JUMP JUMPDEST PUSH1 0x40 MLOAD DUP1 SWAP2 SUB SWAP1 LOG2 POP POP JUMP JUMPDEST PUSH1 0x1 DUP2 DUP2 SLOAD DUP2 LT PUSH2 0x5A3 JUMPI PUSH0 DUP1 REVERT JUMPDEST SWAP1 PUSH0 MSTORE PUSH1 0x20 PUSH0 KECCAK256 ADD PUSH0 SWAP2 POP SLOAD SWAP1 PUSH2 0x100 EXP SWAP1 DIV PUSH20 0xFFFFFFFFFFFFFFFFFFFFFFFFFFFFFFFFFFFFFFFF AND DUP2 JUMP JUMPDEST PUSH2 0x5D7 PUSH2 0xEA9 JUMP JUMPDEST PUSH0 PUSH0 DUP4 PUSH20 0xFFFFFFFFFFFFFFFFFFFFFFFFFFFFFFFFFFFFFFFF AND PUSH20 0xFFFFFFFFFFFFFFFFFFFFFFFFFFFFFFFFFFFFFFFF AND DUP2 MSTORE PUSH1 0x20 ADD SWAP1 DUP2 MSTORE PUSH1 0x20 ADD PUSH0 KECCAK256 PUSH1 0x4 ADD PUSH0 SWAP1 SLOAD SWAP1 PUSH2 0x100 EXP SWAP1 DIV PUSH1 0xFF AND PUSH2 0x662 JUMPI PUSH1 0x40 MLOAD PUSH32 0x8C379A000000000000000000000000000000000000000000000000000000000 DUP2 MSTORE PUSH1 0x4 ADD PUSH2 0x659 SWAP1 PUSH2 0x1A1E JUMP JUMPDEST PUSH1 0x40 MLOAD DUP1 SWAP2 SUB SWAP1 REVERT JUMPDEST PUSH0 PUSH0 DUP4 PUSH20 0xFFFFFFFFFFFFFFFFFFFFFFFFFFFFFFFFFFFFFFFF AND PUSH20 0xFFFFFFFFFFFFFFFFFFFFFFFFFFFFFFFFFFFFFFFF AND DUP2 MSTORE PUSH1 0x20 ADD SWAP1 DUP2 MSTORE PUSH1 0x20 ADD PUSH0 KECCAK256 PUSH1 0x40 MLOAD DUP1 PUSH1 0xA0 ADD PUSH1 0x40 MSTORE SWAP1 DUP2 PUSH0 DUP3 ADD DUP1 SLOAD PUSH2 0x6B8 SWAP1 PUSH2 0x16A1 JUMP JUMPDEST DUP1 PUSH1 0x1F ADD PUSH1 0x20 DUP1 SWAP2 DIV MUL PUSH1 0x20 ADD PUSH1 0x40 MLOAD SWAP1 DUP2 ADD PUSH1 0x40 MSTORE DUP1 SWAP3 SWAP2 SWAP1 DUP2 DUP2 MSTORE PUSH1 0x20 ADD DUP3 DUP1 SLOAD PUSH2 0x6E4 SWAP1 PUSH2 0x16A1 JUMP JUMPDEST DUP1 ISZERO PUSH2 0x72F JUMPI DUP1 PUSH1 0x1F LT PUSH2 0x706 JUMPI PUSH2 0x100 DUP1 DUP4 SLOAD DIV MUL DUP4 MSTORE SWAP2 PUSH1 0x20 ADD SWAP2 PUSH2 0x72F JUMP JUMPDEST DUP3 ADD SWAP2 SWAP1 PUSH0 MSTORE PUSH1 0x20 PUSH0 KECCAK256 SWAP1 JUMPDEST DUP2 SLOAD DUP2 MSTORE SWAP1 PUSH1 0x1 ADD SWAP1 PUSH1 0x20 ADD DUP1 DUP4 GT PUSH2 0x712 JUMPI DUP3 SWAP1 SUB PUSH1 0x1F AND DUP3 ADD SWAP2 JUMPDEST POP POP POP POP POP DUP2 MSTORE PUSH1 0x20 ADD PUSH1 0x1 DUP3 ADD DUP1 SLOAD PUSH2 0x748 SWAP1 PUSH2 0x16A1 JUMP JUMPDEST DUP1 PUSH1 0x1F ADD PUSH1 0x20 DUP1 SWAP2 DIV MUL PUSH1 0x20 ADD PUSH1 0x40 MLOAD SWAP1 DUP2 ADD PUSH1 0x40 MSTORE DUP1 SWAP3 SWAP2 SWAP1 DUP2 DUP2 MSTORE PUSH1 0x20 ADD DUP3 DUP1 SLOAD PUSH2 0x774 SWAP1 PUSH2 0x16A1 JUMP JUMPDEST DUP1 ISZERO PUSH2 0x7BF JUMPI DUP1 PUSH1 0x1F LT PUSH2 0x796 JUMPI PUSH2 0x100 DUP1 DUP4 SLOAD DIV MUL DUP4 MSTORE SWAP2 PUSH1 0x20 ADD SWAP2 PUSH2 0x7BF JUMP JUMPDEST DUP3 ADD SWAP2 SWAP1 PUSH0 MSTORE PUSH1 0x20 PUSH0 KECCAK256 SWAP1 JUMPDEST DUP2 SLOAD DUP2 MSTORE SWAP1 PUSH1 0x1 ADD SWAP1 PUSH1 0x20 ADD DUP1 DUP4 GT PUSH2 0x7A2 JUMPI DUP3 SWAP1 SUB PUSH1 0x1F AND DUP3 ADD SWAP2 JUMPDEST POP POP POP POP POP DUP2 MSTORE PUSH1 0x20 ADD PUSH1 0x2 DUP3 ADD SLOAD DUP2 MSTORE PUSH1 0x20 ADD PUSH1 0x3 DUP3 ADD SLOAD DUP2 MSTORE PUSH1 0x20 ADD PUSH1 0x4 DUP3 ADD PUSH0 SWAP1 SLOAD SWAP1 PUSH2 0x100 EXP SWAP1 DIV PUSH1 0xFF AND ISZERO ISZERO ISZERO ISZERO DUP2 MSTORE POP POP SWAP1 POP SWAP2 SWAP1 POP JUMP JUMPDEST PUSH0 PUSH1 0x20 MSTORE DUP1 PUSH0 MSTORE PUSH1 0x40 PUSH0 KECCAK256 PUSH0 SWAP2 POP SWAP1 POP DUP1 PUSH0 ADD DUP1 SLOAD PUSH2 0x81B SWAP1 PUSH2 0x16A1 JUMP JUMPDEST DUP1 PUSH1 0x1F ADD PUSH1 0x20 DUP1 SWAP2 DIV MUL PUSH1 0x20 ADD PUSH1 0x40 MLOAD SWAP1 DUP2 ADD PUSH1 0x40 MSTORE DUP1 SWAP3 SWAP2 SWAP1 DUP2 DUP2 MSTORE PUSH1 0x20 ADD DUP3 DUP1 SLOAD PUSH2 0x847 SWAP1 PUSH2 0x16A1 JUMP JUMPDEST DUP1 ISZERO PUSH2 0x892 JUMPI DUP1 PUSH1 0x1F LT PUSH2 0x869 JUMPI PUSH2 0x100 DUP1 DUP4 SLOAD DIV MUL DUP4 MSTORE SWAP2 PUSH1 0x20 ADD SWAP2 PUSH2 0x892 JUMP JUMPDEST DUP3 ADD SWAP2 SWAP1 PUSH0 MSTORE PUSH1 0x20 PUSH0 KECCAK256 SWAP1 JUMPDEST DUP2 SLOAD DUP2 MSTORE SWAP1 PUSH1 0x1 ADD SWAP1 PUSH1 0x20 ADD DUP1 DUP4 GT PUSH2 0x875 JUMPI DUP3 SWAP1 SUB PUSH1 0x1F AND DUP3 ADD SWAP2 JUMPDEST POP POP POP POP POP SWAP1 DUP1 PUSH1 0x1 ADD DUP1 SLOAD PUSH2 0x8A7 SWAP1 PUSH2 0x16A1 JUMP JUMPDEST DUP1 PUSH1 0x1F ADD PUSH1 0x20 DUP1 SWAP2 DIV MUL PUSH1 0x20 ADD PUSH1 0x40 MLOAD SWAP1 DUP2 ADD PUSH1 0x40 MSTORE DUP1 SWAP3 SWAP2 SWAP1 DUP2 DUP2 MSTORE PUSH1 0x20 ADD DUP3 DUP1 SLOAD PUSH2 0x8D3 SWAP1 PUSH2 0x16A1 JUMP JUMPDEST DUP1 ISZERO PUSH2 0x91E JUMPI DUP1 PUSH1 0x1F LT PUSH2 0x8F5 JUMPI PUSH2 0x100 DUP1 DUP4 SLOAD DIV MUL DUP4 MSTORE SWAP2 PUSH1 0x20 ADD SWAP2 PUSH2 0x91E JUMP JUMPDEST DUP3 ADD SWAP2 SWAP1 PUSH0 MSTORE PUSH1 0x20 PUSH0 KECCAK256 SWAP1 JUMPDEST DUP2 SLOAD DUP2 MSTORE SWAP1 PUSH1 0x1 ADD SWAP1 PUSH1 0x20 ADD DUP1 DUP4 GT PUSH2 0x901 JUMPI DUP3 SWAP1 SUB PUSH1 0x1F AND DUP3 ADD SWAP2 JUMPDEST POP POP POP POP POP SWAP1 DUP1 PUSH1 0x2 ADD SLOAD SWAP1 DUP1 PUSH1 0x3 ADD SLOAD SWAP1 DUP1 PUSH1 0x4 ADD PUSH0 SWAP1 SLOAD SWAP1 PUSH2 0x100 EXP SWAP1 DIV PUSH1 0xFF AND SWAP1 POP DUP6 JUMP JUMPDEST PUSH0 PUSH0 PUSH0 DUP4 PUSH20 0xFFFFFFFFFFFFFFFFFFFFFFFFFFFFFFFFFFFFFFFF AND PUSH20 0xFFFFFFFFFFFFFFFFFFFFFFFFFFFFFFFFFFFFFFFF AND DUP2 MSTORE PUSH1 0x20 ADD SWAP1 DUP2 MSTORE PUSH1 0x20 ADD PUSH0 KECCAK256 PUSH1 0x4 ADD PUSH0 SWAP1 SLOAD SWAP1 PUSH2 0x100 EXP SWAP1 DIV PUSH1 0xFF AND SWAP1 POP SWAP2 SWAP1 POP JUMP JUMPDEST PUSH0 PUSH0 CALLER PUSH20 0xFFFFFFFFFFFFFFFFFFFFFFFFFFFFFFFFFFFFFFFF AND PUSH20 0xFFFFFFFFFFFFFFFFFFFFFFFFFFFFFFFFFFFFFFFF AND DUP2 MSTORE PUSH1 0x20 ADD SWAP1 DUP2 MSTORE PUSH1 0x20 ADD PUSH0 KECCAK256 PUSH1 0x4 ADD PUSH0 SWAP1 SLOAD SWAP1 PUSH2 0x100 EXP SWAP1 DIV PUSH1 0xFF AND PUSH2 0xA25 JUMPI PUSH1 0x40 MLOAD PUSH32 0x8C379A000000000000000000000000000000000000000000000000000000000 DUP2 MSTORE PUSH1 0x4 ADD PUSH2 0xA1C SWAP1 PUSH2 0x1A86 JUMP JUMPDEST PUSH1 0x40 MLOAD DUP1 SWAP2 SUB SWAP1 REVERT JUMPDEST DUP2 PUSH0 PUSH0 CALLER PUSH20 0xFFFFFFFFFFFFFFFFFFFFFFFFFFFFFFFFFFFFFFFF AND PUSH20 0xFFFFFFFFFFFFFFFFFFFFFFFFFFFFFFFFFFFFFFFF AND DUP2 MSTORE PUSH1 0x20 ADD SWAP1 DUP2 MSTORE PUSH1 0x20 ADD PUSH0 KECCAK256 PUSH0 ADD SWAP1 DUP2 PUSH2 0xA70 SWAP2 SWAP1 PUSH2 0x1871 JUMP JUMPDEST POP DUP1 PUSH0 PUSH0 CALLER PUSH20 0xFFFFFFFFFFFFFFFFFFFFFFFFFFFFFFFFFFFFFFFF AND PUSH20 0xFFFFFFFFFFFFFFFFFFFFFFFFFFFFFFFFFFFFFFFF AND DUP2 MSTORE PUSH1 0x20 ADD SWAP1 DUP2 MSTORE PUSH1 0x20 ADD PUSH0 KECCAK256 PUSH1 0x1 ADD SWAP1 DUP2 PUSH2 0xABD SWAP2 SWAP1 PUSH2 0x1871 JUMP JUMPDEST POP CALLER PUSH20 0xFFFFFFFFFFFFFFFFFFFFFFFFFFFFFFFFFFFFFFFF AND PUSH32 0x163B5F10E25C839F35E6F2B201B31E88E17F49E6956232DE5D2E6BBAE3B78B8 PUSH1 0x40 MLOAD PUSH1 0x40 MLOAD DUP1 SWAP2 SUB SWAP1 LOG2 POP POP JUMP JUMPDEST PUSH0 PUSH0 CALLER PUSH20 0xFFFFFFFFFFFFFFFFFFFFFFFFFFFFFFFFFFFFFFFF AND PUSH20 0xFFFFFFFFFFFFFFFFFFFFFFFFFFFFFFFFFFFFFFFF AND DUP2 MSTORE PUSH1 0x20 ADD SWAP1 DUP2 MSTORE PUSH1 0x20 ADD PUSH0 KECCAK256 PUSH1 0x4 ADD PUSH0 SWAP1 SLOAD SWAP1 PUSH2 0x100 EXP SWAP1 DIV PUSH1 0xFF AND PUSH2 0xB90 JUMPI PUSH1 0x40 MLOAD PUSH32 0x8C379A000000000000000000000000000000000000000000000000000000000 DUP2 MSTORE PUSH1 0x4 ADD PUSH2 0xB87 SWAP1 PUSH2 0x1A86 JUMP JUMPDEST PUSH1 0x40 MLOAD DUP1 SWAP2 SUB SWAP1 REVERT JUMPDEST PUSH0 CALLVALUE GT PUSH2 0xBD2 JUMPI PUSH1 0x40 MLOAD PUSH32 0x8C379A000000000000000000000000000000000000000000000000000000000 DUP2 MSTORE PUSH1 0x4 ADD PUSH2 0xBC9 SWAP1 PUSH2 0x1AEE JUMP JUMPDEST PUSH1 0x40 MLOAD DUP1 SWAP2 SUB SWAP1 REVERT JUMPDEST CALLVALUE PUSH0 PUSH0 CALLER PUSH20 0xFFFFFFFFFFFFFFFFFFFFFFFFFFFFFFFFFFFFFFFF AND PUSH20 0xFFFFFFFFFFFFFFFFFFFFFFFFFFFFFFFFFFFFFFFF AND DUP2 MSTORE PUSH1 0x20 ADD SWAP1 DUP2 MSTORE PUSH1 0x20 ADD PUSH0 KECCAK256 PUSH1 0x2 ADD PUSH0 DUP3 DUP3 SLOAD PUSH2 0xC20 SWAP2 SWAP1 PUSH2 0x1B0C JUMP JUMPDEST SWAP3 POP POP DUP2 SWAP1 SSTORE POP CALLER PUSH20 0xFFFFFFFFFFFFFFFFFFFFFFFFFFFFFFFFFFFFFFFF AND PUSH32 0xE1FFFCC4923D04B559F4D29A8BFC6CDA04EB5B0D3C460751C2402C5C5CC9109C CALLVALUE PUSH1 0x40 MLOAD PUSH2 0xC6D SWAP2 SWAP1 PUSH2 0xEEF JUMP JUMPDEST PUSH1 0x40 MLOAD DUP1 SWAP2 SUB SWAP1 LOG2 JUMP JUMPDEST PUSH1 0x60 PUSH1 0x1 DUP1 SLOAD DUP1 PUSH1 0x20 MUL PUSH1 0x20 ADD PUSH1 0x40 MLOAD SWAP1 DUP2 ADD PUSH1 0x40 MSTORE DUP1 SWAP3 SWAP2 SWAP1 DUP2 DUP2 MSTORE PUSH1 0x20 ADD DUP3 DUP1 SLOAD DUP1 ISZERO PUSH2 0xCF8 JUMPI PUSH1 0x20 MUL DUP3 ADD SWAP2 SWAP1 PUSH0 MSTORE PUSH1 0x20 PUSH0 KECCAK256 SWAP1 JUMPDEST DUP2 PUSH0 SWAP1 SLOAD SWAP1 PUSH2 0x100 EXP SWAP1 DIV PUSH20 0xFFFFFFFFFFFFFFFFFFFFFFFFFFFFFFFFFFFFFFFF AND PUSH20 0xFFFFFFFFFFFFFFFFFFFFFFFFFFFFFFFFFFFFFFFF AND DUP2 MSTORE PUSH1 0x20 ADD SWAP1 PUSH1 0x1 ADD SWAP1 DUP1 DUP4 GT PUSH2 0xCAF JUMPI JUMPDEST POP POP POP POP POP SWAP1 POP SWAP1 JUMP JUMPDEST PUSH1 0x60 DUP2 DUP4 LT PUSH2 0xD46 JUMPI PUSH1 0x40 MLOAD PUSH32 0x8C379A000000000000000000000000000000000000000000000000000000000 DUP2 MSTORE PUSH1 0x4 ADD PUSH2 0xD3D SWAP1 PUSH2 0x1B89 JUMP JUMPDEST PUSH1 0x40 MLOAD DUP1 SWAP2 SUB SWAP1 REVERT JUMPDEST PUSH1 0x1 DUP1 SLOAD SWAP1 POP DUP3 GT ISZERO PUSH2 0xD8E JUMPI PUSH1 0x40 MLOAD PUSH32 0x8C379A000000000000000000000000000000000000000000000000000000000 DUP2 MSTORE PUSH1 0x4 ADD PUSH2 0xD85 SWAP1 PUSH2 0x1BF1 JUMP JUMPDEST PUSH1 0x40 MLOAD DUP1 SWAP2 SUB SWAP1 REVERT JUMPDEST PUSH0 DUP4 DUP4 PUSH2 0xD9B SWAP2 SWAP1 PUSH2 0x1C0F JUMP JUMPDEST SWAP1 POP PUSH0 DUP2 PUSH8 0xFFFFFFFFFFFFFFFF DUP2 GT ISZERO PUSH2 0xDB8 JUMPI PUSH2 0xDB7 PUSH2 0xF31 JUMP JUMPDEST JUMPDEST PUSH1 0x40 MLOAD SWAP1 DUP1 DUP3 MSTORE DUP1 PUSH1 0x20 MUL PUSH1 0x20 ADD DUP3 ADD PUSH1 0x40 MSTORE DUP1 ISZERO PUSH2 0xDE6 JUMPI DUP2 PUSH1 0x20 ADD PUSH1 0x20 DUP3 MUL DUP1 CALLDATASIZE DUP4 CALLDATACOPY DUP1 DUP3 ADD SWAP2 POP POP SWAP1 POP JUMPDEST POP SWAP1 POP PUSH0 PUSH0 SWAP1 POP JUMPDEST DUP3 DUP2 LT ISZERO PUSH2 0xE97 JUMPI PUSH1 0x1 DUP2 DUP8 PUSH2 0xE04 SWAP2 SWAP1 PUSH2 0x1B0C JUMP JUMPDEST DUP2 SLOAD DUP2 LT PUSH2 0xE15 JUMPI PUSH2 0xE14 PUSH2 0x1C42 JUMP JUMPDEST JUMPDEST SWAP1 PUSH0 MSTORE PUSH1 0x20 PUSH0 KECCAK256 ADD PUSH0 SWAP1 SLOAD SWAP1 PUSH2 0x100 EXP SWAP1 DIV PUSH20 0xFFFFFFFFFFFFFFFFFFFFFFFFFFFFFFFFFFFFFFFF AND DUP3 DUP3 DUP2 MLOAD DUP2 LT PUSH2 0xE50 JUMPI PUSH2 0xE4F PUSH2 0x1C42 JUMP JUMPDEST JUMPDEST PUSH1 0x20 MUL PUSH1 0x20 ADD ADD SWAP1 PUSH20 0xFFFFFFFFFFFFFFFFFFFFFFFFFFFFFFFFFFFFFFFF AND SWAP1 DUP2 PUSH20 0xFFFFFFFFFFFFFFFFFFFFFFFFFFFFFFFFFFFFFFFF AND DUP2 MSTORE POP POP DUP1 DUP1 PUSH1 0x1 ADD SWAP2 POP POP PUSH2 0xDEE JUMP JUMPDEST POP DUP1 SWAP3 POP POP POP SWAP3 SWAP2 POP POP JUMP JUMPDEST PUSH2 0x3E8 DUP2 JUMP JUMPDEST PUSH1 0x40 MLOAD DUP1 PUSH1 0xA0 ADD PUSH1 0x40 MSTORE DUP1 PUSH1 0x60 DUP2 MSTORE PUSH1 0x20 ADD PUSH1 0x60 DUP2 MSTORE PUSH1 0x20 ADD PUSH0 DUP2 MSTORE PUSH1 0x20 ADD PUSH0 DUP2 MSTORE PUSH1 0x20 ADD PUSH0 ISZERO ISZERO DUP2 MSTORE POP SWAP1 JUMP JUMPDEST PUSH0 DUP2 SWAP1 POP SWAP2 SWAP1 POP JUMP JUMPDEST PUSH2 0xEE9 DUP2 PUSH2 0xED7 JUMP JUMPDEST DUP3 MSTORE POP POP JUMP JUMPDEST PUSH0 PUSH1 0x20 DUP3 ADD SWAP1 POP PUSH2 0xF02 PUSH0 DUP4 ADD DUP5 PUSH2 0xEE0 JUMP JUMPDEST SWAP3 SWAP2 POP POP JUMP JUMPDEST PUSH0 PUSH1 0x40 MLOAD SWAP1 POP SWAP1 JUMP JUMPDEST PUSH0 PUSH0 REVERT JUMPDEST PUSH0 PUSH0 REVERT JUMPDEST PUSH0 PUSH0 REVERT JUMPDEST PUSH0 PUSH0 REVERT JUMPDEST PUSH0 PUSH1 0x1F NOT PUSH1 0x1F DUP4 ADD AND SWAP1 POP SWAP2 SWAP1 POP JUMP JUMPDEST PUSH32 0x4E487B7100000000000000000000000000000000000000000000000000000000 PUSH0 MSTORE PUSH1 0x41 PUSH1 0x4 MSTORE PUSH1 0x24 PUSH0 REVERT JUMPDEST PUSH2 0xF67 DUP3 PUSH2 0xF21 JUMP JUMPDEST DUP2 ADD DUP2 DUP2 LT PUSH8 0xFFFFFFFFFFFFFFFF DUP3 GT OR ISZERO PUSH2 0xF86 JUMPI PUSH2 0xF85 PUSH2 0xF31 JUMP JUMPDEST JUMPDEST DUP1 PUSH1 0x40 MSTORE POP POP POP JUMP JUMPDEST PUSH0 PUSH2 0xF98 PUSH2 0xF08 JUMP JUMPDEST SWAP1 POP PUSH2 0xFA4 DUP3 DUP3 PUSH2 0xF5E JUMP JUMPDEST SWAP2 SWAP1 POP JUMP JUMPDEST PUSH0 PUSH8 0xFFFFFFFFFFFFFFFF DUP3 GT ISZERO PUSH2 0xFC3 JUMPI PUSH2 0xFC2 PUSH2 0xF31 JUMP JUMPDEST JUMPDEST PUSH2 0xFCC DUP3 PUSH2 0xF21 JUMP JUMPDEST SWAP1 POP PUSH1 0x20 DUP2 ADD SWAP1 POP SWAP2 SWAP1 POP JUMP JUMPDEST DUP3 DUP2 DUP4 CALLDATACOPY PUSH0 DUP4 DUP4 ADD MSTORE POP POP POP JUMP JUMPDEST PUSH0 PUSH2 0xFF9 PUSH2 0xFF4 DUP5 PUSH2 0xFA9 JUMP JUMPDEST PUSH2 0xF8F JUMP JUMPDEST SWAP1 POP DUP3 DUP2 MSTORE PUSH1 0x20 DUP2 ADD DUP5 DUP5 DUP5 ADD GT ISZERO PUSH2 0x1015 JUMPI PUSH2 0x1014 PUSH2 0xF1D JUMP JUMPDEST JUMPDEST PUSH2 0x1020 DUP5 DUP3 DUP6 PUSH2 0xFD9 JUMP JUMPDEST POP SWAP4 SWAP3 POP POP POP JUMP JUMPDEST PUSH0 DUP3 PUSH1 0x1F DUP4 ADD SLT PUSH2 0x103C JUMPI PUSH2 0x103B PUSH2 0xF19 JUMP JUMPDEST JUMPDEST DUP2 CALLDATALOAD PUSH2 0x104C DUP5 DUP3 PUSH1 0x20 DUP7 ADD PUSH2 0xFE7 JUMP JUMPDEST SWAP2 POP POP SWAP3 SWAP2 POP POP JUMP JUMPDEST PUSH0 PUSH0 PUSH1 0x40 DUP4 DUP6 SUB SLT ISZERO PUSH2 0x106B JUMPI PUSH2 0x106A PUSH2 0xF11 JUMP JUMPDEST JUMPDEST PUSH0 DUP4 ADD CALLDATALOAD PUSH8 0xFFFFFFFFFFFFFFFF DUP2 GT ISZERO PUSH2 0x1088 JUMPI PUSH2 0x1087 PUSH2 0xF15 JUMP JUMPDEST JUMPDEST PUSH2 0x1094 DUP6 DUP3 DUP7 ADD PUSH2 0x1028 JUMP JUMPDEST SWAP3 POP POP PUSH1 0x20 DUP4 ADD CALLDATALOAD PUSH8 0xFFFFFFFFFFFFFFFF DUP2 GT ISZERO PUSH2 0x10B5 JUMPI PUSH2 0x10B4 PUSH2 0xF15 JUMP JUMPDEST JUMPDEST PUSH2 0x10C1 DUP6 DUP3 DUP7 ADD PUSH2 0x1028 JUMP JUMPDEST SWAP2 POP POP SWAP3 POP SWAP3 SWAP1 POP JUMP JUMPDEST PUSH2 0x10D4 DUP2 PUSH2 0xED7 JUMP JUMPDEST DUP2 EQ PUSH2 0x10DE JUMPI PUSH0 PUSH0 REVERT JUMPDEST POP JUMP JUMPDEST PUSH0 DUP2 CALLDATALOAD SWAP1 POP PUSH2 0x10EF DUP2 PUSH2 0x10CB JUMP JUMPDEST SWAP3 SWAP2 POP POP JUMP JUMPDEST PUSH0 PUSH1 0x20 DUP3 DUP5 SUB SLT ISZERO PUSH2 0x110A JUMPI PUSH2 0x1109 PUSH2 0xF11 JUMP JUMPDEST JUMPDEST PUSH0 PUSH2 0x1117 DUP5 DUP3 DUP6 ADD PUSH2 0x10E1 JUMP JUMPDEST SWAP2 POP POP SWAP3 SWAP2 POP POP JUMP JUMPDEST PUSH0 PUSH20 0xFFFFFFFFFFFFFFFFFFFFFFFFFFFFFFFFFFFFFFFF DUP3 AND SWAP1 POP SWAP2 SWAP1 POP JUMP JUMPDEST PUSH0 PUSH2 0x1149 DUP3 PUSH2 0x1120 JUMP JUMPDEST SWAP1 POP SWAP2 SWAP1 POP JUMP JUMPDEST PUSH2 0x1159 DUP2 PUSH2 0x113F JUMP JUMPDEST DUP3 MSTORE POP POP JUMP JUMPDEST PUSH0 PUSH1 0x20 DUP3 ADD SWAP1 POP PUSH2 0x1172 PUSH0 DUP4 ADD DUP5 PUSH2 0x1150 JUMP JUMPDEST SWAP3 SWAP2 POP POP JUMP JUMPDEST PUSH2 0x1181 DUP2 PUSH2 0x113F JUMP JUMPDEST DUP2 EQ PUSH2 0x118B JUMPI PUSH0 PUSH0 REVERT JUMPDEST POP JUMP JUMPDEST PUSH0 DUP2 CALLDATALOAD SWAP1 POP PUSH2 0x119C DUP2 PUSH2 0x1178 JUMP JUMPDEST SWAP3 SWAP2 POP POP JUMP JUMPDEST PUSH0 PUSH1 0x20 DUP3 DUP5 SUB SLT ISZERO PUSH2 0x11B7 JUMPI PUSH2 0x11B6 PUSH2 0xF11 JUMP JUMPDEST JUMPDEST PUSH0 PUSH2 0x11C4 DUP5 DUP3 DUP6 ADD PUSH2 0x118E JUMP JUMPDEST SWAP2 POP POP SWAP3 SWAP2 POP POP JUMP JUMPDEST PUSH0 DUP2 MLOAD SWAP1 POP SWAP2 SWAP1 POP JUMP JUMPDEST PUSH0 DUP3 DUP3 MSTORE PUSH1 0x20 DUP3 ADD SWAP1 POP SWAP3 SWAP2 POP POP JUMP JUMPDEST DUP3 DUP2 DUP4 MCOPY PUSH0 DUP4 DUP4 ADD MSTORE POP POP POP JUMP JUMPDEST PUSH0 PUSH2 0x11FF DUP3 PUSH2 0x11CD JUMP JUMPDEST PUSH2 0x1209 DUP2 DUP6 PUSH2 0x11D7 JUMP JUMPDEST SWAP4 POP PUSH2 0x1219 DUP2 DUP6 PUSH1 0x20 DUP7 ADD PUSH2 0x11E7 JUMP JUMPDEST PUSH2 0x1222 DUP2 PUSH2 0xF21 JUMP JUMPDEST DUP5 ADD SWAP2 POP POP SWAP3 SWAP2 POP POP JUMP JUMPDEST PUSH2 0x1236 DUP2 PUSH2 0xED7 JUMP JUMPDEST DUP3 MSTORE POP POP JUMP JUMPDEST PUSH0 DUP2 ISZERO ISZERO SWAP1 POP SWAP2 SWAP1 POP JUMP JUMPDEST PUSH2 0x1250 DUP2 PUSH2 0x123C JUMP JUMPDEST DUP3 MSTORE POP POP JUMP JUMPDEST PUSH0 PUSH1 0xA0 DUP4 ADD PUSH0 DUP4 ADD MLOAD DUP5 DUP3 SUB PUSH0 DUP7 ADD MSTORE PUSH2 0x1270 DUP3 DUP3 PUSH2 0x11F5 JUMP JUMPDEST SWAP2 POP POP PUSH1 0x20 DUP4 ADD MLOAD DUP5 DUP3 SUB PUSH1 0x20 DUP7 ADD MSTORE PUSH2 0x128A DUP3 DUP3 PUSH2 0x11F5 JUMP JUMPDEST SWAP2 POP POP PUSH1 0x40 DUP4 ADD MLOAD PUSH2 0x129F PUSH1 0x40 DUP7 ADD DUP3 PUSH2 0x122D JUMP JUMPDEST POP PUSH1 0x60 DUP4 ADD MLOAD PUSH2 0x12B2 PUSH1 0x60 DUP7 ADD DUP3 PUSH2 0x122D JUMP JUMPDEST POP PUSH1 0x80 DUP4 ADD MLOAD PUSH2 0x12C5 PUSH1 0x80 DUP7 ADD DUP3 PUSH2 0x1247 JUMP JUMPDEST POP DUP1 SWAP2 POP POP SWAP3 SWAP2 POP POP JUMP JUMPDEST PUSH0 PUSH1 0x20 DUP3 ADD SWAP1 POP DUP2 DUP2 SUB PUSH0 DUP4 ADD MSTORE PUSH2 0x12E8 DUP2 DUP5 PUSH2 0x1256 JUMP JUMPDEST SWAP1 POP SWAP3 SWAP2 POP POP JUMP JUMPDEST PUSH0 DUP3 DUP3 MSTORE PUSH1 0x20 DUP3 ADD SWAP1 POP SWAP3 SWAP2 POP POP JUMP JUMPDEST PUSH0 PUSH2 0x130A DUP3 PUSH2 0x11CD JUMP JUMPDEST PUSH2 0x1314 DUP2 DUP6 PUSH2 0x12F0 JUMP JUMPDEST SWAP4 POP PUSH2 0x1324 DUP2 DUP6 PUSH1 0x20 DUP7 ADD PUSH2 0x11E7 JUMP JUMPDEST PUSH2 0x132D DUP2 PUSH2 0xF21 JUMP JUMPDEST DUP5 ADD SWAP2 POP POP SWAP3 SWAP2 POP POP JUMP JUMPDEST PUSH2 0x1341 DUP2 PUSH2 0x123C JUMP JUMPDEST DUP3 MSTORE POP POP JUMP JUMPDEST PUSH0 PUSH1 0xA0 DUP3 ADD SWAP1 POP DUP2 DUP2 SUB PUSH0 DUP4 ADD MSTORE PUSH2 0x135F DUP2 DUP9 PUSH2 0x1300 JUMP JUMPDEST SWAP1 POP DUP2 DUP2 SUB PUSH1 0x20 DUP4 ADD MSTORE PUSH2 0x1373 DUP2 DUP8 PUSH2 0x1300 JUMP JUMPDEST SWAP1 POP PUSH2 0x1382 PUSH1 0x40 DUP4 ADD DUP7 PUSH2 0xEE0 JUMP JUMPDEST PUSH2 0x138F PUSH1 0x60 DUP4 ADD DUP6 PUSH2 0xEE0 JUMP JUMPDEST PUSH2 0x139C PUSH1 0x80 DUP4 ADD DUP5 PUSH2 0x1338 JUMP JUMPDEST SWAP7 SWAP6 POP POP POP POP POP POP JUMP JUMPDEST PUSH0 PUSH1 0x20 DUP3 ADD SWAP1 POP PUSH2 0x13B9 PUSH0 DUP4 ADD DUP5 PUSH2 0x1338 JUMP JUMPDEST SWAP3 SWAP2 POP POP JUMP JUMPDEST PUSH0 DUP2 MLOAD SWAP1 POP SWAP2 SWAP1 POP JUMP JUMPDEST PUSH0 DUP3 DUP3 MSTORE PUSH1 0x20 DUP3 ADD SWAP1 POP SWAP3 SWAP2 POP POP JUMP JUMPDEST PUSH0 DUP2 SWAP1 POP PUSH1 0x20 DUP3 ADD SWAP1 POP SWAP2 SWAP1 POP JUMP JUMPDEST PUSH2 0x13F1 DUP2 PUSH2 0x113F JUMP JUMPDEST DUP3 MSTORE POP POP JUMP JUMPDEST PUSH0 PUSH2 0x1402 DUP4 DUP4 PUSH2 0x13E8 JUMP JUMPDEST PUSH1 0x20 DUP4 ADD SWAP1 POP SWAP3 SWAP2 POP POP JUMP JUMPDEST PUSH0 PUSH1 0x20 DUP3 ADD SWAP1 POP SWAP2 SWAP1 POP JUMP JUMPDEST PUSH0 PUSH2 0x1424 DUP3 PUSH2 0x13BF JUMP JUMPDEST PUSH2 0x142E DUP2 DUP6 PUSH2 0x13C9 JUMP JUMPDEST SWAP4 POP PUSH2 0x1439 DUP4 PUSH2 0x13D9 JUMP JUMPDEST DUP1 PUSH0 JUMPDEST DUP4 DUP2 LT ISZERO PUSH2 0x1469 JUMPI DUP2 MLOAD PUSH2 0x1450 DUP9 DUP3 PUSH2 0x13F7 JUMP JUMPDEST SWAP8 POP PUSH2 0x145B DUP4 PUSH2 0x140E JUMP JUMPDEST SWAP3 POP POP PUSH1 0x1 DUP2 ADD SWAP1 POP PUSH2 0x143C JUMP JUMPDEST POP DUP6 SWAP4 POP POP POP POP SWAP3 SWAP2 POP POP JUMP JUMPDEST PUSH0 PUSH1 0x20 DUP3 ADD SWAP1 POP DUP2 DUP2 SUB PUSH0 DUP4 ADD MSTORE PUSH2 0x148E DUP2 DUP5 PUSH2 0x141A JUMP JUMPDEST SWAP1 POP SWAP3 SWAP2 POP POP JUMP JUMPDEST PUSH0 PUSH0 PUSH1 0x40 DUP4 DUP6 SUB SLT ISZERO PUSH2 0x14AC JUMPI PUSH2 0x14AB PUSH2 0xF11 JUMP JUMPDEST JUMPDEST PUSH0 PUSH2 0x14B9 DUP6 DUP3 DUP7 ADD PUSH2 0x10E1 JUMP JUMPDEST SWAP3 POP POP PUSH1 0x20 PUSH2 0x14CA DUP6 DUP3 DUP7 ADD PUSH2 0x10E1 JUMP JUMPDEST SWAP2 POP POP SWAP3 POP SWAP3 SWAP1 POP JUMP JUMPDEST PUSH32 0x416C726561647920726567697374657265640000000000000000000000000000 PUSH0 DUP3 ADD MSTORE POP JUMP JUMPDEST PUSH0 PUSH2 0x1508 PUSH1 0x12 DUP4 PUSH2 0x12F0 JUMP JUMPDEST SWAP2 POP PUSH2 0x1513 DUP3 PUSH2 0x14D4 JUMP JUMPDEST PUSH1 0x20 DUP3 ADD SWAP1 POP SWAP2 SWAP1 POP JUMP JUMPDEST PUSH0 PUSH1 0x20 DUP3 ADD SWAP1 POP DUP2 DUP2 SUB PUSH0 DUP4 ADD MSTORE PUSH2 0x1535 DUP2 PUSH2 0x14FC JUMP JUMPDEST SWAP1 POP SWAP2 SWAP1 POP JUMP JUMPDEST PUSH32 0x4D61782075736572732072656163686564000000000000000000000000000000 PUSH0 DUP3 ADD MSTORE POP JUMP JUMPDEST PUSH0 PUSH2 0x1570 PUSH1 0x11 DUP4 PUSH2 0x12F0 JUMP JUMPDEST SWAP2 POP PUSH2 0x157B DUP3 PUSH2 0x153C JUMP JUMPDEST PUSH1 0x20 DUP3 ADD SWAP1 POP SWAP2 SWAP1 POP JUMP JUMPDEST PUSH0 PUSH1 0x20 DUP3 ADD SWAP1 POP DUP2 DUP2 SUB PUSH0 DUP4 ADD MSTORE PUSH2 0x159D DUP2 PUSH2 0x1564 JUMP JUMPDEST SWAP1 POP SWAP2 SWAP1 POP JUMP JUMPDEST PUSH32 0x4E616D6520726571756972656400000000000000000000000000000000000000 PUSH0 DUP3 ADD MSTORE POP JUMP JUMPDEST PUSH0 PUSH2 0x15D8 PUSH1 0xD DUP4 PUSH2 0x12F0 JUMP JUMPDEST SWAP2 POP PUSH2 0x15E3 DUP3 PUSH2 0x15A4 JUMP JUMPDEST PUSH1 0x20 DUP3 ADD SWAP1 POP SWAP2 SWAP1 POP JUMP JUMPDEST PUSH0 PUSH1 0x20 DUP3 ADD SWAP1 POP DUP2 DUP2 SUB PUSH0 DUP4 ADD MSTORE PUSH2 0x1605 DUP2 PUSH2 0x15CC JUMP JUMPDEST SWAP1 POP SWAP2 SWAP1 POP JUMP JUMPDEST PUSH32 0x456D61696C207265717569726564000000000000000000000000000000000000 PUSH0 DUP3 ADD MSTORE POP JUMP JUMPDEST PUSH0 PUSH2 0x1640 PUSH1 0xE DUP4 PUSH2 0x12F0 JUMP JUMPDEST SWAP2 POP PUSH2 0x164B DUP3 PUSH2 0x160C JUMP JUMPDEST PUSH1 0x20 DUP3 ADD SWAP1 POP SWAP2 SWAP1 POP JUMP JUMPDEST PUSH0 PUSH1 0x20 DUP3 ADD SWAP1 POP DUP2 DUP2 SUB PUSH0 DUP4 ADD MSTORE PUSH2 0x166D DUP2 PUSH2 0x1634 JUMP JUMPDEST SWAP1 POP SWAP2 SWAP1 POP JUMP JUMPDEST PUSH32 0x4E487B7100000000000000000000000000000000000000000000000000000000 PUSH0 MSTORE PUSH1 0x22 PUSH1 0x4 MSTORE PUSH1 0x24 PUSH0 REVERT JUMPDEST PUSH0 PUSH1 0x2 DUP3 DIV SWAP1 POP PUSH1 0x1 DUP3 AND DUP1 PUSH2 0x16B8 JUMPI PUSH1 0x7F DUP3 AND SWAP2 POP JUMPDEST PUSH1 0x20 DUP3 LT DUP2 SUB PUSH2 0x16CB JUMPI PUSH2 0x16CA PUSH2 0x1674 JUMP JUMPDEST JUMPDEST POP SWAP2 SWAP1 POP JUMP JUMPDEST PUSH0 DUP2 SWAP1 POP DUP2 PUSH0 MSTORE PUSH1 0x20 PUSH0 KECCAK256 SWAP1 POP SWAP2 SWAP1 POP JUMP JUMPDEST PUSH0 PUSH1 0x20 PUSH1 0x1F DUP4 ADD DIV SWAP1 POP SWAP2 SWAP1 POP JUMP JUMPDEST PUSH0 DUP3 DUP3 SHL SWAP1 POP SWAP3 SWAP2 POP POP JUMP JUMPDEST PUSH0 PUSH1 0x8 DUP4 MUL PUSH2 0x172D PUSH32 0xFFFFFFFFFFFFFFFFFFFFFFFFFFFFFFFFFFFFFFFFFFFFFFFFFFFFFFFFFFFFFFFF DUP3 PUSH2 0x16F2 JUMP JUMPDEST PUSH2 0x1737 DUP7 DUP4 PUSH2 0x16F2 JUMP JUMPDEST SWAP6 POP DUP1 NOT DUP5 AND SWAP4 POP DUP1 DUP7 AND DUP5 OR SWAP3 POP POP POP SWAP4 SWAP3 POP POP POP JUMP JUMPDEST PUSH0 DUP2 SWAP1 POP SWAP2 SWAP1 POP JUMP JUMPDEST PUSH0 PUSH2 0x1772 PUSH2 0x176D PUSH2 0x1768 DUP5 PUSH2 0xED7 JUMP JUMPDEST PUSH2 0x174F JUMP JUMPDEST PUSH2 0xED7 JUMP JUMPDEST SWAP1 POP SWAP2 SWAP1 POP JUMP JUMPDEST PUSH0 DUP2 SWAP1 POP SWAP2 SWAP1 POP JUMP JUMPDEST PUSH2 0x178B DUP4 PUSH2 0x1758 JUMP JUMPDEST PUSH2 0x179F PUSH2 0x1797 DUP3 PUSH2 0x1779 JUMP JUMPDEST DUP5 DUP5 SLOAD PUSH2 0x16FE JUMP JUMPDEST DUP3 SSTORE POP POP POP POP JUMP JUMPDEST PUSH0 PUSH0 SWAP1 POP SWAP1 JUMP JUMPDEST PUSH2 0x17B6 PUSH2 0x17A7 JUMP JUMPDEST PUSH2 0x17C1 DUP2 DUP5 DUP5 PUSH2 0x1782 JUMP JUMPDEST POP POP POP JUMP JUMPDEST JUMPDEST DUP2 DUP2 LT ISZERO PUSH2 0x17E4 JUMPI PUSH2 0x17D9 PUSH0 DUP3 PUSH2 0x17AE JUMP JUMPDEST PUSH1 0x1 DUP2 ADD SWAP1 POP PUSH2 0x17C7 JUMP JUMPDEST POP POP JUMP JUMPDEST PUSH1 0x1F DUP3 GT ISZERO PUSH2 0x1829 JUMPI PUSH2 0x17FA DUP2 PUSH2 0x16D1 JUMP JUMPDEST PUSH2 0x1803 DUP5 PUSH2 0x16E3 JUMP JUMPDEST DUP2 ADD PUSH1 0x20 DUP6 LT ISZERO PUSH2 0x1812 JUMPI DUP2 SWAP1 POP JUMPDEST PUSH2 0x1826 PUSH2 0x181E DUP6 PUSH2 0x16E3 JUMP JUMPDEST DUP4 ADD DUP3 PUSH2 0x17C6 JUMP JUMPDEST POP POP JUMPDEST POP POP POP JUMP JUMPDEST PUSH0 DUP3 DUP3 SHR SWAP1 POP SWAP3 SWAP2 POP POP JUMP JUMPDEST PUSH0 PUSH2 0x1849 PUSH0 NOT DUP5 PUSH1 0x8 MUL PUSH2 0x182E JUMP JUMPDEST NOT DUP1 DUP4 AND SWAP2 POP POP SWAP3 SWAP2 POP POP JUMP JUMPDEST PUSH0 PUSH2 0x1861 DUP4 DUP4 PUSH2 0x183A JUMP JUMPDEST SWAP2 POP DUP3 PUSH1 0x2 MUL DUP3 OR SWAP1 POP SWAP3 SWAP2 POP POP JUMP JUMPDEST PUSH2 0x187A DUP3 PUSH2 0x11CD JUMP JUMPDEST PUSH8 0xFFFFFFFFFFFFFFFF DUP2 GT ISZERO PUSH2 0x1893 JUMPI PUSH2 0x1892 PUSH2 0xF31 JUMP JUMPDEST JUMPDEST PUSH2 0x189D DUP3 SLOAD PUSH2 0x16A1 JUMP JUMPDEST PUSH2 0x18A8 DUP3 DUP3 DUP6 PUSH2 0x17E8 JUMP JUMPDEST PUSH0 PUSH1 0x20 SWAP1 POP PUSH1 0x1F DUP4 GT PUSH1 0x1 DUP2 EQ PUSH2 0x18D9 JUMPI PUSH0 DUP5 ISZERO PUSH2 0x18C7 JUMPI DUP3 DUP8 ADD MLOAD SWAP1 POP JUMPDEST PUSH2 0x18D1 DUP6 DUP3 PUSH2 0x1856 JUMP JUMPDEST DUP7 SSTORE POP PUSH2 0x1938 JUMP JUMPDEST PUSH1 0x1F NOT DUP5 AND PUSH2 0x18E7 DUP7 PUSH2 0x16D1 JUMP JUMPDEST PUSH0 JUMPDEST DUP3 DUP2 LT ISZERO PUSH2 0x190E JUMPI DUP5 DUP10 ADD MLOAD DUP3 SSTORE PUSH1 0x1 DUP3 ADD SWAP2 POP PUSH1 0x20 DUP6 ADD SWAP5 POP PUSH1 0x20 DUP2 ADD SWAP1 POP PUSH2 0x18E9 JUMP JUMPDEST DUP7 DUP4 LT ISZERO PUSH2 0x192B JUMPI DUP5 DUP10 ADD MLOAD PUSH2 0x1927 PUSH1 0x1F DUP10 AND DUP3 PUSH2 0x183A JUMP JUMPDEST DUP4 SSTORE POP JUMPDEST PUSH1 0x1 PUSH1 0x2 DUP9 MUL ADD DUP9 SSTORE POP POP POP JUMPDEST POP POP POP POP POP POP JUMP JUMPDEST PUSH32 0x4E487B7100000000000000000000000000000000000000000000000000000000 PUSH0 MSTORE PUSH1 0x11 PUSH1 0x4 MSTORE PUSH1 0x24 PUSH0 REVERT JUMPDEST PUSH0 PUSH2 0x1977 DUP3 PUSH2 0xED7 JUMP JUMPDEST SWAP2 POP PUSH32 0xFFFFFFFFFFFFFFFFFFFFFFFFFFFFFFFFFFFFFFFFFFFFFFFFFFFFFFFFFFFFFFFF DUP3 SUB PUSH2 0x19A9 JUMPI PUSH2 0x19A8 PUSH2 0x1940 JUMP JUMPDEST JUMPDEST PUSH1 0x1 DUP3 ADD SWAP1 POP SWAP2 SWAP1 POP JUMP JUMPDEST PUSH0 PUSH1 0x20 DUP3 ADD SWAP1 POP DUP2 DUP2 SUB PUSH0 DUP4 ADD MSTORE PUSH2 0x19CC DUP2 DUP5 PUSH2 0x1300 JUMP JUMPDEST SWAP1 POP SWAP3 SWAP2 POP POP JUMP JUMPDEST PUSH32 0x55736572206E6F7420666F756E64000000000000000000000000000000000000 PUSH0 DUP3 ADD MSTORE POP JUMP JUMPDEST PUSH0 PUSH2 0x1A08 PUSH1 0xE DUP4 PUSH2 0x12F0 JUMP JUMPDEST SWAP2 POP PUSH2 0x1A13 DUP3 PUSH2 0x19D4 JUMP JUMPDEST PUSH1 0x20 DUP3 ADD SWAP1 POP SWAP2 SWAP1 POP JUMP JUMPDEST PUSH0 PUSH1 0x20 DUP3 ADD SWAP1 POP DUP2 DUP2 SUB PUSH0 DUP4 ADD MSTORE PUSH2 0x1A35 DUP2 PUSH2 0x19FC JUMP JUMPDEST SWAP1 POP SWAP2 SWAP1 POP JUMP JUMPDEST PUSH32 0x4E6F742072656769737465726564000000000000000000000000000000000000 PUSH0 DUP3 ADD MSTORE POP JUMP JUMPDEST PUSH0 PUSH2 0x1A70 PUSH1 0xE DUP4 PUSH2 0x12F0 JUMP JUMPDEST SWAP2 POP PUSH2 0x1A7B DUP3 PUSH2 0x1A3C JUMP JUMPDEST PUSH1 0x20 DUP3 ADD SWAP1 POP SWAP2 SWAP1 POP JUMP JUMPDEST PUSH0 PUSH1 0x20 DUP3 ADD SWAP1 POP DUP2 DUP2 SUB PUSH0 DUP4 ADD MSTORE PUSH2 0x1A9D DUP2 PUSH2 0x1A64 JUMP JUMPDEST SWAP1 POP SWAP2 SWAP1 POP JUMP JUMPDEST PUSH32 0x4D7573742073656E642045544800000000000000000000000000000000000000 PUSH0 DUP3 ADD MSTORE POP JUMP JUMPDEST PUSH0 PUSH2 0x1AD8 PUSH1 0xD DUP4 PUSH2 0x12F0 JUMP JUMPDEST SWAP2 POP PUSH2 0x1AE3 DUP3 PUSH2 0x1AA4 JUMP JUMPDEST PUSH1 0x20 DUP3 ADD SWAP1 POP SWAP2 SWAP1 POP JUMP JUMPDEST PUSH0 PUSH1 0x20 DUP3 ADD SWAP1 POP DUP2 DUP2 SUB PUSH0 DUP4 ADD MSTORE PUSH2 0x1B05 DUP2 PUSH2 0x1ACC JUMP JUMPDEST SWAP1 POP SWAP2 SWAP1 POP JUMP JUMPDEST PUSH0 PUSH2 0x1B16 DUP3 PUSH2 0xED7 JUMP JUMPDEST SWAP2 POP PUSH2 0x1B21 DUP4 PUSH2 0xED7 JUMP JUMPDEST SWAP3 POP DUP3 DUP3 ADD SWAP1 POP DUP1 DUP3 GT ISZERO PUSH2 0x1B39 JUMPI PUSH2 0x1B38 PUSH2 0x1940 JUMP JUMPDEST JUMPDEST SWAP3 SWAP2 POP POP JUMP JUMPDEST PUSH32 0x496E76616C69642072616E676500000000000000000000000000000000000000 PUSH0 DUP3 ADD MSTORE POP JUMP JUMPDEST PUSH0 PUSH2 0x1B73 PUSH1 0xD DUP4 PUSH2 0x12F0 JUMP JUMPDEST SWAP2 POP PUSH2 0x1B7E DUP3 PUSH2 0x1B3F JUMP JUMPDEST PUSH1 0x20 DUP3 ADD SWAP1 POP SWAP2 SWAP1 POP JUMP JUMPDEST PUSH0 PUSH1 0x20 DUP3 ADD SWAP1 POP DUP2 DUP2 SUB PUSH0 DUP4 ADD MSTORE PUSH2 0x1BA0 DUP2 PUSH2 0x1B67 JUMP JUMPDEST SWAP1 POP SWAP2 SWAP1 POP JUMP JUMPDEST PUSH32 0x456E64206F7574206F6620626F756E6473000000000000000000000000000000 PUSH0 DUP3 ADD MSTORE POP JUMP JUMPDEST PUSH0 PUSH2 0x1BDB PUSH1 0x11 DUP4 PUSH2 0x12F0 JUMP JUMPDEST SWAP2 POP PUSH2 0x1BE6 DUP3 PUSH2 0x1BA7 JUMP JUMPDEST PUSH1 0x20 DUP3 ADD SWAP1 POP SWAP2 SWAP1 POP JUMP JUMPDEST PUSH0 PUSH1 0x20 DUP3 ADD SWAP1 POP DUP2 DUP2 SUB PUSH0 DUP4 ADD MSTORE PUSH2 0x1C08 DUP2 PUSH2 0x1BCF JUMP JUMPDEST SWAP1 POP SWAP2 SWAP1 POP JUMP JUMPDEST PUSH0 PUSH2 0x1C19 DUP3 PUSH2 0xED7 JUMP JUMPDEST SWAP2 POP PUSH2 0x1C24 DUP4 PUSH2 0xED7 JUMP JUMPDEST SWAP3 POP DUP3 DUP3 SUB SWAP1 POP DUP2 DUP2 GT ISZERO PUSH2 0x1C3C JUMPI PUSH2 0x1C3B PUSH2 0x1940 JUMP JUMPDEST JUMPDEST SWAP3 SWAP2 POP POP JUMP JUMPDEST PUSH32 0x4E487B7100000000000000000000000000000000000000000000000000000000 PUSH0 MSTORE PUSH1 0x32 PUSH1 0x4 MSTORE PUSH1 0x24 PUSH0 REVERT INVALID LOG2 PUSH5 0x6970667358 0x22 SLT KECCAK256 0xC5 SWAP14 TSTORE 0x4F 0xF SWAP7 0xB3 MSTORE EXTCODESIZE 0xFC 0x4F ORIGIN 0x21 0x2E SWAP9 DUP13 ISZERO BASEFEE SGT CREATE 0x4D SELFBALANCE PUSH22 0xA4C2182A3D05B3B4AD64736F6C634300081F00330000 "
				},
				"gasEstimates": {
					"creation": {
						"codeDepositCost": "1466600",
						"executionCost": "1532",
						"totalCost": "1468132"
					},
					"external": {
						"MAX_USERS()": "435",
						"deposit()": "infinite",
						"getAllUsers()": "infinite",
						"getUserInfo(address)": "infinite",
						"getUsersByRange(uint256,uint256)": "infinite",
						"isRegistered(address)": "2875",
						"register(string,string)": "infinite",
						"updateProfile(string,string)": "infinite",
						"userAddresses(uint256)": "4989",
						"userCount()": "2426",
						"users(address)": "infinite"
					}
				},
				"methodIdentifiers": {
					"MAX_USERS()": "fa6ac131",
					"deposit()": "d0e30db0",
					"getAllUsers()": "e2842d79",
					"getUserInfo(address)": "6386c1c7",
					"getUsersByRange(uint256,uint256)": "ed5cd0e7",
					"isRegistered(address)": "c3c5a547",
					"register(string,string)": "3ffbd47f",
					"updateProfile(string,string)": "c9d3cc6a",
					"userAddresses(uint256)": "502c9bd5",
					"userCount()": "07973ccf",
					"users(address)": "a87430ba"
				}
			},
			"storageLayout": {
				"storage": [
					{
						"astId": 17,
						"contract": "contracts/lesson3.2/UserManagementSystem.sol:UserManagementSystem",
						"label": "users",
						"offset": 0,
						"slot": "0",
						"type": "t_mapping(t_address,t_struct(User)12_storage)"
					},
					{
						"astId": 20,
						"contract": "contracts/lesson3.2/UserManagementSystem.sol:UserManagementSystem",
						"label": "userAddresses",
						"offset": 0,
						"slot": "1",
						"type": "t_array(t_address)dyn_storage"
					},
					{
						"astId": 22,
						"contract": "contracts/lesson3.2/UserManagementSystem.sol:UserManagementSystem",
						"label": "userCount",
						"offset": 0,
						"slot": "2",
						"type": "t_uint256"
					}
				],
				"types": {
					"t_address": {
						"encoding": "inplace",
						"label": "address",
						"numberOfBytes": "20"
					},
					"t_array(t_address)dyn_storage": {
						"base": "t_address",
						"encoding": "dynamic_array",
						"label": "address[]",
						"numberOfBytes": "32"
					},
					"t_bool": {
						"encoding": "inplace",
						"label": "bool",
						"numberOfBytes": "1"
					},
					"t_mapping(t_address,t_struct(User)12_storage)": {
						"encoding": "mapping",
						"key": "t_address",
						"label": "mapping(address => struct UserManagementSystem.User)",
						"numberOfBytes": "32",
						"value": "t_struct(User)12_storage"
					},
					"t_string_storage": {
						"encoding": "bytes",
						"label": "string",
						"numberOfBytes": "32"
					},
					"t_struct(User)12_storage": {
						"encoding": "inplace",
						"label": "struct UserManagementSystem.User",
						"members": [
							{
								"astId": 3,
								"contract": "contracts/lesson3.2/UserManagementSystem.sol:UserManagementSystem",
								"label": "name",
								"offset": 0,
								"slot": "0",
								"type": "t_string_storage"
							},
							{
								"astId": 5,
								"contract": "contracts/lesson3.2/UserManagementSystem.sol:UserManagementSystem",
								"label": "email",
								"offset": 0,
								"slot": "1",
								"type": "t_string_storage"
							},
							{
								"astId": 7,
								"contract": "contracts/lesson3.2/UserManagementSystem.sol:UserManagementSystem",
								"label": "balance",
								"offset": 0,
								"slot": "2",
								"type": "t_uint256"
							},
							{
								"astId": 9,
								"contract": "contracts/lesson3.2/UserManagementSystem.sol:UserManagementSystem",
								"label": "registeredAt",
								"offset": 0,
								"slot": "3",
								"type": "t_uint256"
							},
							{
								"astId": 11,
								"contract": "contracts/lesson3.2/UserManagementSystem.sol:UserManagementSystem",
								"label": "exists",
								"offset": 0,
								"slot": "4",
								"type": "t_bool"
							}
						],
						"numberOfBytes": "160"
					},
					"t_uint256": {
						"encoding": "inplace",
						"label": "uint256",
						"numberOfBytes": "32"
					}
				}
			},
			"userdoc": {
				"kind": "user",
				"methods": {},
				"version": 1
			}
		}
	}
}