{
	"contracts/lesson8.1/MultiSigWallet.sol": {
		"MultiSigWallet": {
			"abi": [
				{
					"inputs": [
						{
							"internalType": "address[]",
							"name": "_owners",
							"type": "address[]"
						},
						{
							"internalType": "uint256",
							"name": "_required",
							"type": "uint256"
						}
					],
					"stateMutability": "nonpayable",
					"type": "constructor"
				},
				{
					"inputs": [
						{
							"internalType": "uint256",
							"name": "",
							"type": "uint256"
						}
					],
					"name": "MultiSigTxs",
					"outputs": [
						{
							"internalType": "address",
							"name": "to",
							"type": "address"
						},
						{
							"internalType": "uint256",
							"name": "value",
							"type": "uint256"
						},
						{
							"internalType": "bytes",
							"name": "data",
							"type": "bytes"
						},
						{
							"internalType": "bool",
							"name": "executed",
							"type": "bool"
						},
						{
							"internalType": "uint256",
							"name": "confirmations",
							"type": "uint256"
						}
					],
					"stateMutability": "view",
					"type": "function"
				},
				{
					"inputs": [
						{
							"internalType": "uint256",
							"name": "_txId",
							"type": "uint256"
						}
					],
					"name": "confirm",
					"outputs": [],
					"stateMutability": "nonpayable",
					"type": "function"
				},
				{
					"inputs": [
						{
							"internalType": "uint256",
							"name": "",
							"type": "uint256"
						},
						{
							"internalType": "address",
							"name": "",
							"type": "address"
						}
					],
					"name": "confirmations",
					"outputs": [
						{
							"internalType": "bool",
							"name": "",
							"type": "bool"
						}
					],
					"stateMutability": "view",
					"type": "function"
				},
				{
					"inputs": [
						{
							"internalType": "uint256",
							"name": "_txId",
							"type": "uint256"
						}
					],
					"name": "execute",
					"outputs": [],
					"stateMutability": "nonpayable",
					"type": "function"
				},
				{
					"inputs": [
						{
							"internalType": "address",
							"name": "",
							"type": "address"
						}
					],
					"name": "isOwner",
					"outputs": [
						{
							"internalType": "bool",
							"name": "",
							"type": "bool"
						}
					],
					"stateMutability": "view",
					"type": "function"
				},
				{
					"inputs": [
						{
							"internalType": "uint256",
							"name": "",
							"type": "uint256"
						}
					],
					"name": "owners",
					"outputs": [
						{
							"internalType": "address",
							"name": "",
							"type": "address"
						}
					],
					"stateMutability": "view",
					"type": "function"
				},
				{
					"inputs": [],
					"name": "required",
					"outputs": [
						{
							"internalType": "uint256",
							"name": "",
							"type": "uint256"
						}
					],
					"stateMutability": "view",
					"type": "function"
				},
				{
					"inputs": [
						{
							"internalType": "address",
							"name": "_to",
							"type": "address"
						},
						{
							"internalType": "uint256",
							"name": "_value",
							"type": "uint256"
						},
						{
							"internalType": "bytes",
							"name": "_data",
							"type": "bytes"
						}
					],
					"name": "submit",
					"outputs": [
						{
							"internalType": "uint256",
							"name": "",
							"type": "uint256"
						}
					],
					"stateMutability": "nonpayable",
					"type": "function"
				}
			],
			"devdoc": {
				"kind": "dev",
				"methods": {},
				"version": 1
			},
			"evm": {
				"assembly": "    /* \"contracts/lesson8.1/MultiSigWallet.sol\":58:2368  contract MultiSigWallet {... */\n  mstore(0x40, 0x80)\n    /* \"contracts/lesson8.1/MultiSigWallet.sol\":708:1118  constructor(address[] memory _owners, uint256 _required) {... */\n  callvalue\n  dup1\n  iszero\n  tag_1\n  jumpi\n  revert(0x00, 0x00)\ntag_1:\n  pop\n  mload(0x40)\n  sub(codesize, bytecodeSize)\n  dup1\n  bytecodeSize\n  dup4\n  codecopy\n  dup2\n  dup2\n  add\n  0x40\n  mstore\n  dup2\n  add\n  swap1\n  tag_2\n  swap2\n  swap1\n  tag_3\n  jump\t// in\ntag_2:\n    /* \"contracts/lesson8.1/MultiSigWallet.sol\":800:801  0 */\n  0x00\n    /* \"contracts/lesson8.1/MultiSigWallet.sol\":783:790  _owners */\n  dup3\n    /* \"contracts/lesson8.1/MultiSigWallet.sol\":783:797  _owners.length */\n  mload\n    /* \"contracts/lesson8.1/MultiSigWallet.sol\":783:801  _owners.length > 0 */\n  gt\n    /* \"contracts/lesson8.1/MultiSigWallet.sol\":775:821  require(_owners.length > 0, \"Owners required\") */\n  tag_6\n  jumpi\n  mload(0x40)\n  0x08c379a000000000000000000000000000000000000000000000000000000000\n  dup2\n  mstore\n  0x04\n  add\n  tag_7\n  swap1\n  tag_8\n  jump\t// in\ntag_7:\n  mload(0x40)\n  dup1\n  swap2\n  sub\n  swap1\n  revert\ntag_6:\n    /* \"contracts/lesson8.1/MultiSigWallet.sol\":864:865  0 */\n  0x00\n    /* \"contracts/lesson8.1/MultiSigWallet.sol\":852:861  _required */\n  dup2\n    /* \"contracts/lesson8.1/MultiSigWallet.sol\":852:865  _required > 0 */\n  gt\n    /* \"contracts/lesson8.1/MultiSigWallet.sol\":852:896  _required > 0 && _required <= _owners.length */\n  dup1\n  iszero\n  tag_9\n  jumpi\n  pop\n    /* \"contracts/lesson8.1/MultiSigWallet.sol\":882:889  _owners */\n  dup2\n    /* \"contracts/lesson8.1/MultiSigWallet.sol\":882:896  _owners.length */\n  mload\n    /* \"contracts/lesson8.1/MultiSigWallet.sol\":869:878  _required */\n  dup2\n    /* \"contracts/lesson8.1/MultiSigWallet.sol\":869:896  _required <= _owners.length */\n  gt\n  iszero\n    /* \"contracts/lesson8.1/MultiSigWallet.sol\":852:896  _required > 0 && _required <= _owners.length */\ntag_9:\n    /* \"contracts/lesson8.1/MultiSigWallet.sol\":831:938  require(... */\n  tag_10\n  jumpi\n  mload(0x40)\n  0x08c379a000000000000000000000000000000000000000000000000000000000\n  dup2\n  mstore\n  0x04\n  add\n  tag_11\n  swap1\n  tag_12\n  jump\t// in\ntag_11:\n  mload(0x40)\n  dup1\n  swap2\n  sub\n  swap1\n  revert\ntag_10:\n    /* \"contracts/lesson8.1/MultiSigWallet.sol\":954:963  uint256 i */\n  0x00\n    /* \"contracts/lesson8.1/MultiSigWallet.sol\":966:967  0 */\n  0x00\n    /* \"contracts/lesson8.1/MultiSigWallet.sol\":954:967  uint256 i = 0 */\n  swap1\n  pop\n    /* \"contracts/lesson8.1/MultiSigWallet.sol\":949:1082  for (uint256 i = 0; i < _owners.length; i++) {... */\ntag_13:\n    /* \"contracts/lesson8.1/MultiSigWallet.sol\":973:980  _owners */\n  dup3\n    /* \"contracts/lesson8.1/MultiSigWallet.sol\":973:987  _owners.length */\n  mload\n    /* \"contracts/lesson8.1/MultiSigWallet.sol\":969:970  i */\n  dup2\n    /* \"contracts/lesson8.1/MultiSigWallet.sol\":969:987  i < _owners.length */\n  lt\n    /* \"contracts/lesson8.1/MultiSigWallet.sol\":949:1082  for (uint256 i = 0; i < _owners.length; i++) {... */\n  iszero\n  tag_14\n  jumpi\n    /* \"contracts/lesson8.1/MultiSigWallet.sol\":1030:1034  true */\n  0x01\n    /* \"contracts/lesson8.1/MultiSigWallet.sol\":1008:1015  isOwner */\n  dup1\n    /* \"contracts/lesson8.1/MultiSigWallet.sol\":1008:1027  isOwner[_owners[i]] */\n  0x00\n    /* \"contracts/lesson8.1/MultiSigWallet.sol\":1016:1023  _owners */\n  dup6\n    /* \"contracts/lesson8.1/MultiSigWallet.sol\":1024:1025  i */\n  dup5\n    /* \"contracts/lesson8.1/MultiSigWallet.sol\":1016:1026  _owners[i] */\n  dup2\n  mload\n  dup2\n  lt\n  tag_16\n  jumpi\n  tag_17\n  tag_18\n  jump\t// in\ntag_17:\ntag_16:\n  0x20\n  mul\n  0x20\n  add\n  add\n  mload\n    /* \"contracts/lesson8.1/MultiSigWallet.sol\":1008:1027  isOwner[_owners[i]] */\n  0xffffffffffffffffffffffffffffffffffffffff\n  and\n  0xffffffffffffffffffffffffffffffffffffffff\n  and\n  dup2\n  mstore\n  0x20\n  add\n  swap1\n  dup2\n  mstore\n  0x20\n  add\n  0x00\n  keccak256\n  0x00\n    /* \"contracts/lesson8.1/MultiSigWallet.sol\":1008:1034  isOwner[_owners[i]] = true */\n  0x0100\n  exp\n  dup2\n  sload\n  dup2\n  0xff\n  mul\n  not\n  and\n  swap1\n  dup4\n  iszero\n  iszero\n  mul\n  or\n  swap1\n  sstore\n  pop\n    /* \"contracts/lesson8.1/MultiSigWallet.sol\":1048:1054  owners */\n  0x00\n    /* \"contracts/lesson8.1/MultiSigWallet.sol\":1060:1067  _owners */\n  dup4\n    /* \"contracts/lesson8.1/MultiSigWallet.sol\":1068:1069  i */\n  dup3\n    /* \"contracts/lesson8.1/MultiSigWallet.sol\":1060:1070  _owners[i] */\n  dup2\n  mload\n  dup2\n  lt\n  tag_19\n  jumpi\n  tag_20\n  tag_18\n  jump\t// in\ntag_20:\ntag_19:\n  0x20\n  mul\n  0x20\n  add\n  add\n  mload\n    /* \"contracts/lesson8.1/MultiSigWallet.sol\":1048:1071  owners.push(_owners[i]) */\n  swap1\n  dup1\n  0x01\n  dup2\n  sload\n  add\n  dup1\n  dup3\n  sstore\n  dup1\n  swap2\n  pop\n  pop\n  0x01\n  swap1\n  sub\n  swap1\n  0x00\n  mstore\n  keccak256(0x00, 0x20)\n  add\n  0x00\n  swap1\n  swap2\n  swap1\n  swap2\n  swap1\n  swap2\n  0x0100\n  exp\n  dup2\n  sload\n  dup2\n  0xffffffffffffffffffffffffffffffffffffffff\n  mul\n  not\n  and\n  swap1\n  dup4\n  0xffffffffffffffffffffffffffffffffffffffff\n  and\n  mul\n  or\n  swap1\n  sstore\n  pop\n    /* \"contracts/lesson8.1/MultiSigWallet.sol\":989:992  i++ */\n  dup1\n  dup1\n  0x01\n  add\n  swap2\n  pop\n  pop\n    /* \"contracts/lesson8.1/MultiSigWallet.sol\":949:1082  for (uint256 i = 0; i < _owners.length; i++) {... */\n  jump(tag_13)\ntag_14:\n  pop\n    /* \"contracts/lesson8.1/MultiSigWallet.sol\":1102:1111  _required */\n  dup1\n    /* \"contracts/lesson8.1/MultiSigWallet.sol\":1091:1099  required */\n  0x02\n    /* \"contracts/lesson8.1/MultiSigWallet.sol\":1091:1111  required = _required */\n  dup2\n  swap1\n  sstore\n  pop\n    /* \"contracts/lesson8.1/MultiSigWallet.sol\":708:1118  constructor(address[] memory _owners, uint256 _required) {... */\n  pop\n  pop\n    /* \"contracts/lesson8.1/MultiSigWallet.sol\":58:2368  contract MultiSigWallet {... */\n  jump(tag_22)\n    /* \"#utility.yul\":7:82   */\ntag_23:\n    /* \"#utility.yul\":40:46   */\n  0x00\n    /* \"#utility.yul\":73:75   */\n  0x40\n    /* \"#utility.yul\":67:76   */\n  mload\n    /* \"#utility.yul\":57:76   */\n  swap1\n  pop\n    /* \"#utility.yul\":7:82   */\n  swap1\n  jump\t// out\n    /* \"#utility.yul\":88:205   */\ntag_24:\n    /* \"#utility.yul\":197:198   */\n  0x00\n    /* \"#utility.yul\":194:195   */\n  0x00\n    /* \"#utility.yul\":187:199   */\n  revert\n    /* \"#utility.yul\":211:328   */\ntag_25:\n    /* \"#utility.yul\":320:321   */\n  0x00\n    /* \"#utility.yul\":317:318   */\n  0x00\n    /* \"#utility.yul\":310:322   */\n  revert\n    /* \"#utility.yul\":334:451   */\ntag_26:\n    /* \"#utility.yul\":443:444   */\n  0x00\n    /* \"#utility.yul\":440:441   */\n  0x00\n    /* \"#utility.yul\":433:445   */\n  revert\n    /* \"#utility.yul\":457:559   */\ntag_27:\n    /* \"#utility.yul\":498:504   */\n  0x00\n    /* \"#utility.yul\":549:551   */\n  0x1f\n    /* \"#utility.yul\":545:552   */\n  not\n    /* \"#utility.yul\":540:542   */\n  0x1f\n    /* \"#utility.yul\":533:538   */\n  dup4\n    /* \"#utility.yul\":529:543   */\n  add\n    /* \"#utility.yul\":525:553   */\n  and\n    /* \"#utility.yul\":515:553   */\n  swap1\n  pop\n    /* \"#utility.yul\":457:559   */\n  swap2\n  swap1\n  pop\n  jump\t// out\n    /* \"#utility.yul\":565:745   */\ntag_28:\n    /* \"#utility.yul\":613:690   */\n  0x4e487b7100000000000000000000000000000000000000000000000000000000\n    /* \"#utility.yul\":610:611   */\n  0x00\n    /* \"#utility.yul\":603:691   */\n  mstore\n    /* \"#utility.yul\":710:714   */\n  0x41\n    /* \"#utility.yul\":707:708   */\n  0x04\n    /* \"#utility.yul\":700:715   */\n  mstore\n    /* \"#utility.yul\":734:738   */\n  0x24\n    /* \"#utility.yul\":731:732   */\n  0x00\n    /* \"#utility.yul\":724:739   */\n  revert\n    /* \"#utility.yul\":751:1032   */\ntag_29:\n    /* \"#utility.yul\":834:861   */\n  tag_55\n    /* \"#utility.yul\":856:860   */\n  dup3\n    /* \"#utility.yul\":834:861   */\n  tag_27\n  jump\t// in\ntag_55:\n    /* \"#utility.yul\":826:832   */\n  dup2\n    /* \"#utility.yul\":822:862   */\n  add\n    /* \"#utility.yul\":964:970   */\n  dup2\n    /* \"#utility.yul\":952:962   */\n  dup2\n    /* \"#utility.yul\":949:971   */\n  lt\n    /* \"#utility.yul\":928:946   */\n  0xffffffffffffffff\n    /* \"#utility.yul\":916:926   */\n  dup3\n    /* \"#utility.yul\":913:947   */\n  gt\n    /* \"#utility.yul\":910:972   */\n  or\n    /* \"#utility.yul\":907:995   */\n  iszero\n  tag_56\n  jumpi\n    /* \"#utility.yul\":975:993   */\n  tag_57\n  tag_28\n  jump\t// in\ntag_57:\n    /* \"#utility.yul\":907:995   */\ntag_56:\n    /* \"#utility.yul\":1015:1025   */\n  dup1\n    /* \"#utility.yul\":1011:1013   */\n  0x40\n    /* \"#utility.yul\":1004:1026   */\n  mstore\n    /* \"#utility.yul\":794:1032   */\n  pop\n    /* \"#utility.yul\":751:1032   */\n  pop\n  pop\n  jump\t// out\n    /* \"#utility.yul\":1038:1167   */\ntag_30:\n    /* \"#utility.yul\":1072:1078   */\n  0x00\n    /* \"#utility.yul\":1099:1119   */\n  tag_59\n  tag_23\n  jump\t// in\ntag_59:\n    /* \"#utility.yul\":1089:1119   */\n  swap1\n  pop\n    /* \"#utility.yul\":1128:1161   */\n  tag_60\n    /* \"#utility.yul\":1156:1160   */\n  dup3\n    /* \"#utility.yul\":1148:1154   */\n  dup3\n    /* \"#utility.yul\":1128:1161   */\n  tag_29\n  jump\t// in\ntag_60:\n    /* \"#utility.yul\":1038:1167   */\n  swap2\n  swap1\n  pop\n  jump\t// out\n    /* \"#utility.yul\":1173:1484   */\ntag_31:\n    /* \"#utility.yul\":1250:1254   */\n  0x00\n    /* \"#utility.yul\":1340:1358   */\n  0xffffffffffffffff\n    /* \"#utility.yul\":1332:1338   */\n  dup3\n    /* \"#utility.yul\":1329:1359   */\n  gt\n    /* \"#utility.yul\":1326:1382   */\n  iszero\n  tag_62\n  jumpi\n    /* \"#utility.yul\":1362:1380   */\n  tag_63\n  tag_28\n  jump\t// in\ntag_63:\n    /* \"#utility.yul\":1326:1382   */\ntag_62:\n    /* \"#utility.yul\":1412:1416   */\n  0x20\n    /* \"#utility.yul\":1404:1410   */\n  dup3\n    /* \"#utility.yul\":1400:1417   */\n  mul\n    /* \"#utility.yul\":1392:1417   */\n  swap1\n  pop\n    /* \"#utility.yul\":1472:1476   */\n  0x20\n    /* \"#utility.yul\":1466:1470   */\n  dup2\n    /* \"#utility.yul\":1462:1477   */\n  add\n    /* \"#utility.yul\":1454:1477   */\n  swap1\n  pop\n    /* \"#utility.yul\":1173:1484   */\n  swap2\n  swap1\n  pop\n  jump\t// out\n    /* \"#utility.yul\":1490:1607   */\ntag_32:\n    /* \"#utility.yul\":1599:1600   */\n  0x00\n    /* \"#utility.yul\":1596:1597   */\n  0x00\n    /* \"#utility.yul\":1589:1601   */\n  revert\n    /* \"#utility.yul\":1613:1739   */\ntag_33:\n    /* \"#utility.yul\":1650:1657   */\n  0x00\n    /* \"#utility.yul\":1690:1732   */\n  0xffffffffffffffffffffffffffffffffffffffff\n    /* \"#utility.yul\":1683:1688   */\n  dup3\n    /* \"#utility.yul\":1679:1733   */\n  and\n    /* \"#utility.yul\":1668:1733   */\n  swap1\n  pop\n    /* \"#utility.yul\":1613:1739   */\n  swap2\n  swap1\n  pop\n  jump\t// out\n    /* \"#utility.yul\":1745:1841   */\ntag_34:\n    /* \"#utility.yul\":1782:1789   */\n  0x00\n    /* \"#utility.yul\":1811:1835   */\n  tag_67\n    /* \"#utility.yul\":1829:1834   */\n  dup3\n    /* \"#utility.yul\":1811:1835   */\n  tag_33\n  jump\t// in\ntag_67:\n    /* \"#utility.yul\":1800:1835   */\n  swap1\n  pop\n    /* \"#utility.yul\":1745:1841   */\n  swap2\n  swap1\n  pop\n  jump\t// out\n    /* \"#utility.yul\":1847:1969   */\ntag_35:\n    /* \"#utility.yul\":1920:1944   */\n  tag_69\n    /* \"#utility.yul\":1938:1943   */\n  dup2\n    /* \"#utility.yul\":1920:1944   */\n  tag_34\n  jump\t// in\ntag_69:\n    /* \"#utility.yul\":1913:1918   */\n  dup2\n    /* \"#utility.yul\":1910:1945   */\n  eq\n    /* \"#utility.yul\":1900:1963   */\n  tag_70\n  jumpi\n    /* \"#utility.yul\":1959:1960   */\n  0x00\n    /* \"#utility.yul\":1956:1957   */\n  0x00\n    /* \"#utility.yul\":1949:1961   */\n  revert\n    /* \"#utility.yul\":1900:1963   */\ntag_70:\n    /* \"#utility.yul\":1847:1969   */\n  pop\n  jump\t// out\n    /* \"#utility.yul\":1975:2118   */\ntag_36:\n    /* \"#utility.yul\":2032:2037   */\n  0x00\n    /* \"#utility.yul\":2063:2069   */\n  dup2\n    /* \"#utility.yul\":2057:2070   */\n  mload\n    /* \"#utility.yul\":2048:2070   */\n  swap1\n  pop\n    /* \"#utility.yul\":2079:2112   */\n  tag_72\n    /* \"#utility.yul\":2106:2111   */\n  dup2\n    /* \"#utility.yul\":2079:2112   */\n  tag_35\n  jump\t// in\ntag_72:\n    /* \"#utility.yul\":1975:2118   */\n  swap3\n  swap2\n  pop\n  pop\n  jump\t// out\n    /* \"#utility.yul\":2141:2873   */\ntag_37:\n    /* \"#utility.yul\":2248:2253   */\n  0x00\n    /* \"#utility.yul\":2273:2354   */\n  tag_74\n    /* \"#utility.yul\":2289:2353   */\n  tag_75\n    /* \"#utility.yul\":2346:2352   */\n  dup5\n    /* \"#utility.yul\":2289:2353   */\n  tag_31\n  jump\t// in\ntag_75:\n    /* \"#utility.yul\":2273:2354   */\n  tag_30\n  jump\t// in\ntag_74:\n    /* \"#utility.yul\":2264:2354   */\n  swap1\n  pop\n    /* \"#utility.yul\":2374:2379   */\n  dup1\n    /* \"#utility.yul\":2403:2409   */\n  dup4\n    /* \"#utility.yul\":2396:2401   */\n  dup3\n    /* \"#utility.yul\":2389:2410   */\n  mstore\n    /* \"#utility.yul\":2437:2441   */\n  0x20\n    /* \"#utility.yul\":2430:2435   */\n  dup3\n    /* \"#utility.yul\":2426:2442   */\n  add\n    /* \"#utility.yul\":2419:2442   */\n  swap1\n  pop\n    /* \"#utility.yul\":2490:2494   */\n  0x20\n    /* \"#utility.yul\":2482:2488   */\n  dup5\n    /* \"#utility.yul\":2478:2495   */\n  mul\n    /* \"#utility.yul\":2470:2476   */\n  dup4\n    /* \"#utility.yul\":2466:2496   */\n  add\n    /* \"#utility.yul\":2519:2522   */\n  dup6\n    /* \"#utility.yul\":2511:2517   */\n  dup2\n    /* \"#utility.yul\":2508:2523   */\n  gt\n    /* \"#utility.yul\":2505:2627   */\n  iszero\n  tag_76\n  jumpi\n    /* \"#utility.yul\":2538:2617   */\n  tag_77\n  tag_32\n  jump\t// in\ntag_77:\n    /* \"#utility.yul\":2505:2627   */\ntag_76:\n    /* \"#utility.yul\":2653:2659   */\n  dup4\n    /* \"#utility.yul\":2636:2867   */\ntag_78:\n    /* \"#utility.yul\":2670:2676   */\n  dup2\n    /* \"#utility.yul\":2665:2668   */\n  dup2\n    /* \"#utility.yul\":2662:2677   */\n  lt\n    /* \"#utility.yul\":2636:2867   */\n  iszero\n  tag_80\n  jumpi\n    /* \"#utility.yul\":2745:2748   */\n  dup1\n    /* \"#utility.yul\":2774:2822   */\n  tag_81\n    /* \"#utility.yul\":2818:2821   */\n  dup9\n    /* \"#utility.yul\":2806:2816   */\n  dup3\n    /* \"#utility.yul\":2774:2822   */\n  tag_36\n  jump\t// in\ntag_81:\n    /* \"#utility.yul\":2769:2772   */\n  dup5\n    /* \"#utility.yul\":2762:2823   */\n  mstore\n    /* \"#utility.yul\":2852:2856   */\n  0x20\n    /* \"#utility.yul\":2847:2850   */\n  dup5\n    /* \"#utility.yul\":2843:2857   */\n  add\n    /* \"#utility.yul\":2836:2857   */\n  swap4\n  pop\n    /* \"#utility.yul\":2712:2867   */\n  pop\n    /* \"#utility.yul\":2696:2700   */\n  0x20\n    /* \"#utility.yul\":2691:2694   */\n  dup2\n    /* \"#utility.yul\":2687:2701   */\n  add\n    /* \"#utility.yul\":2680:2701   */\n  swap1\n  pop\n    /* \"#utility.yul\":2636:2867   */\n  jump(tag_78)\ntag_80:\n    /* \"#utility.yul\":2640:2661   */\n  pop\n    /* \"#utility.yul\":2254:2873   */\n  pop\n  pop\n    /* \"#utility.yul\":2141:2873   */\n  swap4\n  swap3\n  pop\n  pop\n  pop\n  jump\t// out\n    /* \"#utility.yul\":2896:3281   */\ntag_38:\n    /* \"#utility.yul\":2978:2983   */\n  0x00\n    /* \"#utility.yul\":3027:3030   */\n  dup3\n    /* \"#utility.yul\":3020:3024   */\n  0x1f\n    /* \"#utility.yul\":3012:3018   */\n  dup4\n    /* \"#utility.yul\":3008:3025   */\n  add\n    /* \"#utility.yul\":3004:3031   */\n  slt\n    /* \"#utility.yul\":2994:3116   */\n  tag_83\n  jumpi\n    /* \"#utility.yul\":3035:3114   */\n  tag_84\n  tag_26\n  jump\t// in\ntag_84:\n    /* \"#utility.yul\":2994:3116   */\ntag_83:\n    /* \"#utility.yul\":3145:3151   */\n  dup2\n    /* \"#utility.yul\":3139:3152   */\n  mload\n    /* \"#utility.yul\":3170:3275   */\n  tag_85\n    /* \"#utility.yul\":3271:3274   */\n  dup5\n    /* \"#utility.yul\":3263:3269   */\n  dup3\n    /* \"#utility.yul\":3256:3260   */\n  0x20\n    /* \"#utility.yul\":3248:3254   */\n  dup7\n    /* \"#utility.yul\":3244:3261   */\n  add\n    /* \"#utility.yul\":3170:3275   */\n  tag_37\n  jump\t// in\ntag_85:\n    /* \"#utility.yul\":3161:3275   */\n  swap2\n  pop\n    /* \"#utility.yul\":2984:3281   */\n  pop\n    /* \"#utility.yul\":2896:3281   */\n  swap3\n  swap2\n  pop\n  pop\n  jump\t// out\n    /* \"#utility.yul\":3287:3364   */\ntag_39:\n    /* \"#utility.yul\":3324:3331   */\n  0x00\n    /* \"#utility.yul\":3353:3358   */\n  dup2\n    /* \"#utility.yul\":3342:3358   */\n  swap1\n  pop\n    /* \"#utility.yul\":3287:3364   */\n  swap2\n  swap1\n  pop\n  jump\t// out\n    /* \"#utility.yul\":3370:3492   */\ntag_40:\n    /* \"#utility.yul\":3443:3467   */\n  tag_88\n    /* \"#utility.yul\":3461:3466   */\n  dup2\n    /* \"#utility.yul\":3443:3467   */\n  tag_39\n  jump\t// in\ntag_88:\n    /* \"#utility.yul\":3436:3441   */\n  dup2\n    /* \"#utility.yul\":3433:3468   */\n  eq\n    /* \"#utility.yul\":3423:3486   */\n  tag_89\n  jumpi\n    /* \"#utility.yul\":3482:3483   */\n  0x00\n    /* \"#utility.yul\":3479:3480   */\n  0x00\n    /* \"#utility.yul\":3472:3484   */\n  revert\n    /* \"#utility.yul\":3423:3486   */\ntag_89:\n    /* \"#utility.yul\":3370:3492   */\n  pop\n  jump\t// out\n    /* \"#utility.yul\":3498:3641   */\ntag_41:\n    /* \"#utility.yul\":3555:3560   */\n  0x00\n    /* \"#utility.yul\":3586:3592   */\n  dup2\n    /* \"#utility.yul\":3580:3593   */\n  mload\n    /* \"#utility.yul\":3571:3593   */\n  swap1\n  pop\n    /* \"#utility.yul\":3602:3635   */\n  tag_91\n    /* \"#utility.yul\":3629:3634   */\n  dup2\n    /* \"#utility.yul\":3602:3635   */\n  tag_40\n  jump\t// in\ntag_91:\n    /* \"#utility.yul\":3498:3641   */\n  swap3\n  swap2\n  pop\n  pop\n  jump\t// out\n    /* \"#utility.yul\":3647:4357   */\ntag_3:\n    /* \"#utility.yul\":3751:3757   */\n  0x00\n    /* \"#utility.yul\":3759:3765   */\n  0x00\n    /* \"#utility.yul\":3808:3810   */\n  0x40\n    /* \"#utility.yul\":3796:3805   */\n  dup4\n    /* \"#utility.yul\":3787:3794   */\n  dup6\n    /* \"#utility.yul\":3783:3806   */\n  sub\n    /* \"#utility.yul\":3779:3811   */\n  slt\n    /* \"#utility.yul\":3776:3895   */\n  iszero\n  tag_93\n  jumpi\n    /* \"#utility.yul\":3814:3893   */\n  tag_94\n  tag_24\n  jump\t// in\ntag_94:\n    /* \"#utility.yul\":3776:3895   */\ntag_93:\n    /* \"#utility.yul\":3955:3956   */\n  0x00\n    /* \"#utility.yul\":3944:3953   */\n  dup4\n    /* \"#utility.yul\":3940:3957   */\n  add\n    /* \"#utility.yul\":3934:3958   */\n  mload\n    /* \"#utility.yul\":3985:4003   */\n  0xffffffffffffffff\n    /* \"#utility.yul\":3977:3983   */\n  dup2\n    /* \"#utility.yul\":3974:4004   */\n  gt\n    /* \"#utility.yul\":3971:4088   */\n  iszero\n  tag_95\n  jumpi\n    /* \"#utility.yul\":4007:4086   */\n  tag_96\n  tag_25\n  jump\t// in\ntag_96:\n    /* \"#utility.yul\":3971:4088   */\ntag_95:\n    /* \"#utility.yul\":4112:4201   */\n  tag_97\n    /* \"#utility.yul\":4193:4200   */\n  dup6\n    /* \"#utility.yul\":4184:4190   */\n  dup3\n    /* \"#utility.yul\":4173:4182   */\n  dup7\n    /* \"#utility.yul\":4169:4191   */\n  add\n    /* \"#utility.yul\":4112:4201   */\n  tag_38\n  jump\t// in\ntag_97:\n    /* \"#utility.yul\":4102:4201   */\n  swap3\n  pop\n    /* \"#utility.yul\":3905:4211   */\n  pop\n    /* \"#utility.yul\":4250:4252   */\n  0x20\n    /* \"#utility.yul\":4276:4340   */\n  tag_98\n    /* \"#utility.yul\":4332:4339   */\n  dup6\n    /* \"#utility.yul\":4323:4329   */\n  dup3\n    /* \"#utility.yul\":4312:4321   */\n  dup7\n    /* \"#utility.yul\":4308:4330   */\n  add\n    /* \"#utility.yul\":4276:4340   */\n  tag_41\n  jump\t// in\ntag_98:\n    /* \"#utility.yul\":4266:4340   */\n  swap2\n  pop\n    /* \"#utility.yul\":4221:4350   */\n  pop\n    /* \"#utility.yul\":3647:4357   */\n  swap3\n  pop\n  swap3\n  swap1\n  pop\n  jump\t// out\n    /* \"#utility.yul\":4363:4532   */\ntag_42:\n    /* \"#utility.yul\":4447:4458   */\n  0x00\n    /* \"#utility.yul\":4481:4487   */\n  dup3\n    /* \"#utility.yul\":4476:4479   */\n  dup3\n    /* \"#utility.yul\":4469:4488   */\n  mstore\n    /* \"#utility.yul\":4521:4525   */\n  0x20\n    /* \"#utility.yul\":4516:4519   */\n  dup3\n    /* \"#utility.yul\":4512:4526   */\n  add\n    /* \"#utility.yul\":4497:4526   */\n  swap1\n  pop\n    /* \"#utility.yul\":4363:4532   */\n  swap3\n  swap2\n  pop\n  pop\n  jump\t// out\n    /* \"#utility.yul\":4538:4703   */\ntag_43:\n    /* \"#utility.yul\":4678:4695   */\n  0x4f776e6572732072657175697265640000000000000000000000000000000000\n    /* \"#utility.yul\":4674:4675   */\n  0x00\n    /* \"#utility.yul\":4666:4672   */\n  dup3\n    /* \"#utility.yul\":4662:4676   */\n  add\n    /* \"#utility.yul\":4655:4696   */\n  mstore\n    /* \"#utility.yul\":4538:4703   */\n  pop\n  jump\t// out\n    /* \"#utility.yul\":4709:5075   */\ntag_44:\n    /* \"#utility.yul\":4851:4854   */\n  0x00\n    /* \"#utility.yul\":4872:4939   */\n  tag_102\n    /* \"#utility.yul\":4936:4938   */\n  0x0f\n    /* \"#utility.yul\":4931:4934   */\n  dup4\n    /* \"#utility.yul\":4872:4939   */\n  tag_42\n  jump\t// in\ntag_102:\n    /* \"#utility.yul\":4865:4939   */\n  swap2\n  pop\n    /* \"#utility.yul\":4948:5041   */\n  tag_103\n    /* \"#utility.yul\":5037:5040   */\n  dup3\n    /* \"#utility.yul\":4948:5041   */\n  tag_43\n  jump\t// in\ntag_103:\n    /* \"#utility.yul\":5066:5068   */\n  0x20\n    /* \"#utility.yul\":5061:5064   */\n  dup3\n    /* \"#utility.yul\":5057:5069   */\n  add\n    /* \"#utility.yul\":5050:5069   */\n  swap1\n  pop\n    /* \"#utility.yul\":4709:5075   */\n  swap2\n  swap1\n  pop\n  jump\t// out\n    /* \"#utility.yul\":5081:5500   */\ntag_8:\n    /* \"#utility.yul\":5247:5251   */\n  0x00\n    /* \"#utility.yul\":5285:5287   */\n  0x20\n    /* \"#utility.yul\":5274:5283   */\n  dup3\n    /* \"#utility.yul\":5270:5288   */\n  add\n    /* \"#utility.yul\":5262:5288   */\n  swap1\n  pop\n    /* \"#utility.yul\":5334:5343   */\n  dup2\n    /* \"#utility.yul\":5328:5332   */\n  dup2\n    /* \"#utility.yul\":5324:5344   */\n  sub\n    /* \"#utility.yul\":5320:5321   */\n  0x00\n    /* \"#utility.yul\":5309:5318   */\n  dup4\n    /* \"#utility.yul\":5305:5322   */\n  add\n    /* \"#utility.yul\":5298:5345   */\n  mstore\n    /* \"#utility.yul\":5362:5493   */\n  tag_105\n    /* \"#utility.yul\":5488:5492   */\n  dup2\n    /* \"#utility.yul\":5362:5493   */\n  tag_44\n  jump\t// in\ntag_105:\n    /* \"#utility.yul\":5354:5493   */\n  swap1\n  pop\n    /* \"#utility.yul\":5081:5500   */\n  swap2\n  swap1\n  pop\n  jump\t// out\n    /* \"#utility.yul\":5506:5672   */\ntag_45:\n    /* \"#utility.yul\":5646:5664   */\n  0x496e76616c696420726571756972656400000000000000000000000000000000\n    /* \"#utility.yul\":5642:5643   */\n  0x00\n    /* \"#utility.yul\":5634:5640   */\n  dup3\n    /* \"#utility.yul\":5630:5644   */\n  add\n    /* \"#utility.yul\":5623:5665   */\n  mstore\n    /* \"#utility.yul\":5506:5672   */\n  pop\n  jump\t// out\n    /* \"#utility.yul\":5678:6044   */\ntag_46:\n    /* \"#utility.yul\":5820:5823   */\n  0x00\n    /* \"#utility.yul\":5841:5908   */\n  tag_108\n    /* \"#utility.yul\":5905:5907   */\n  0x10\n    /* \"#utility.yul\":5900:5903   */\n  dup4\n    /* \"#utility.yul\":5841:5908   */\n  tag_42\n  jump\t// in\ntag_108:\n    /* \"#utility.yul\":5834:5908   */\n  swap2\n  pop\n    /* \"#utility.yul\":5917:6010   */\n  tag_109\n    /* \"#utility.yul\":6006:6009   */\n  dup3\n    /* \"#utility.yul\":5917:6010   */\n  tag_45\n  jump\t// in\ntag_109:\n    /* \"#utility.yul\":6035:6037   */\n  0x20\n    /* \"#utility.yul\":6030:6033   */\n  dup3\n    /* \"#utility.yul\":6026:6038   */\n  add\n    /* \"#utility.yul\":6019:6038   */\n  swap1\n  pop\n    /* \"#utility.yul\":5678:6044   */\n  swap2\n  swap1\n  pop\n  jump\t// out\n    /* \"#utility.yul\":6050:6469   */\ntag_12:\n    /* \"#utility.yul\":6216:6220   */\n  0x00\n    /* \"#utility.yul\":6254:6256   */\n  0x20\n    /* \"#utility.yul\":6243:6252   */\n  dup3\n    /* \"#utility.yul\":6239:6257   */\n  add\n    /* \"#utility.yul\":6231:6257   */\n  swap1\n  pop\n    /* \"#utility.yul\":6303:6312   */\n  dup2\n    /* \"#utility.yul\":6297:6301   */\n  dup2\n    /* \"#utility.yul\":6293:6313   */\n  sub\n    /* \"#utility.yul\":6289:6290   */\n  0x00\n    /* \"#utility.yul\":6278:6287   */\n  dup4\n    /* \"#utility.yul\":6274:6291   */\n  add\n    /* \"#utility.yul\":6267:6314   */\n  mstore\n    /* \"#utility.yul\":6331:6462   */\n  tag_111\n    /* \"#utility.yul\":6457:6461   */\n  dup2\n    /* \"#utility.yul\":6331:6462   */\n  tag_46\n  jump\t// in\ntag_111:\n    /* \"#utility.yul\":6323:6462   */\n  swap1\n  pop\n    /* \"#utility.yul\":6050:6469   */\n  swap2\n  swap1\n  pop\n  jump\t// out\n    /* \"#utility.yul\":6475:6655   */\ntag_18:\n    /* \"#utility.yul\":6523:6600   */\n  0x4e487b7100000000000000000000000000000000000000000000000000000000\n    /* \"#utility.yul\":6520:6521   */\n  0x00\n    /* \"#utility.yul\":6513:6601   */\n  mstore\n    /* \"#utility.yul\":6620:6624   */\n  0x32\n    /* \"#utility.yul\":6617:6618   */\n  0x04\n    /* \"#utility.yul\":6610:6625   */\n  mstore\n    /* \"#utility.yul\":6644:6648   */\n  0x24\n    /* \"#utility.yul\":6641:6642   */\n  0x00\n    /* \"#utility.yul\":6634:6649   */\n  revert\n    /* \"contracts/lesson8.1/MultiSigWallet.sol\":58:2368  contract MultiSigWallet {... */\ntag_22:\n  dataSize(sub_0)\n  dup1\n  dataOffset(sub_0)\n  0x00\n  codecopy\n  0x00\n  return\nstop\n\nsub_0: assembly {\n        /* \"contracts/lesson8.1/MultiSigWallet.sol\":58:2368  contract MultiSigWallet {... */\n      mstore(0x40, 0x80)\n      callvalue\n      dup1\n      iszero\n      tag_1\n      jumpi\n      revert(0x00, 0x00)\n    tag_1:\n      pop\n      jumpi(tag_2, lt(calldatasize, 0x04))\n      shr(0xe0, calldataload(0x00))\n      dup1\n      0x3411c81c\n      gt\n      tag_11\n      jumpi\n      dup1\n      0x3411c81c\n      eq\n      tag_7\n      jumpi\n      dup1\n      0xba0179b5\n      eq\n      tag_8\n      jumpi\n      dup1\n      0xdc8452cd\n      eq\n      tag_9\n      jumpi\n      dup1\n      0xfe0d94c1\n      eq\n      tag_10\n      jumpi\n      jump(tag_2)\n    tag_11:\n      dup1\n      0x025e7c27\n      eq\n      tag_3\n      jumpi\n      dup1\n      0x14de327f\n      eq\n      tag_4\n      jumpi\n      dup1\n      0x2b6c71cc\n      eq\n      tag_5\n      jumpi\n      dup1\n      0x2f54bf6e\n      eq\n      tag_6\n      jumpi\n    tag_2:\n      revert(0x00, 0x00)\n        /* \"contracts/lesson8.1/MultiSigWallet.sol\":88:111  address[] public owners */\n    tag_3:\n      tag_12\n      0x04\n      dup1\n      calldatasize\n      sub\n      dup2\n      add\n      swap1\n      tag_13\n      swap2\n      swap1\n      tag_14\n      jump\t// in\n    tag_13:\n      tag_15\n      jump\t// in\n    tag_12:\n      mload(0x40)\n      tag_16\n      swap2\n      swap1\n      tag_17\n      jump\t// in\n    tag_16:\n      mload(0x40)\n      dup1\n      swap2\n      sub\n      swap1\n      return\n        /* \"contracts/lesson8.1/MultiSigWallet.sol\":1124:1555  function submit(... */\n    tag_4:\n      tag_18\n      0x04\n      dup1\n      calldatasize\n      sub\n      dup2\n      add\n      swap1\n      tag_19\n      swap2\n      swap1\n      tag_20\n      jump\t// in\n    tag_19:\n      tag_21\n      jump\t// in\n    tag_18:\n      mload(0x40)\n      tag_22\n      swap2\n      swap1\n      tag_23\n      jump\t// in\n    tag_22:\n      mload(0x40)\n      dup1\n      swap2\n      sub\n      swap1\n      return\n        /* \"contracts/lesson8.1/MultiSigWallet.sol\":340:371  MultiSigTx[] public MultiSigTxs */\n    tag_5:\n      tag_24\n      0x04\n      dup1\n      calldatasize\n      sub\n      dup2\n      add\n      swap1\n      tag_25\n      swap2\n      swap1\n      tag_14\n      jump\t// in\n    tag_25:\n      tag_26\n      jump\t// in\n    tag_24:\n      mload(0x40)\n      tag_27\n      swap6\n      swap5\n      swap4\n      swap3\n      swap2\n      swap1\n      tag_28\n      jump\t// in\n    tag_27:\n      mload(0x40)\n      dup1\n      swap2\n      sub\n      swap1\n      return\n        /* \"contracts/lesson8.1/MultiSigWallet.sol\":117:156  mapping(address => bool) public isOwner */\n    tag_6:\n      tag_29\n      0x04\n      dup1\n      calldatasize\n      sub\n      dup2\n      add\n      swap1\n      tag_30\n      swap2\n      swap1\n      tag_31\n      jump\t// in\n    tag_30:\n      tag_32\n      jump\t// in\n    tag_29:\n      mload(0x40)\n      tag_33\n      swap2\n      swap1\n      tag_34\n      jump\t// in\n    tag_33:\n      mload(0x40)\n      dup1\n      swap2\n      sub\n      swap1\n      return\n        /* \"contracts/lesson8.1/MultiSigWallet.sol\":377:442  mapping(uint256 => mapping(address => bool)) public confirmations */\n    tag_7:\n      tag_35\n      0x04\n      dup1\n      calldatasize\n      sub\n      dup2\n      add\n      swap1\n      tag_36\n      swap2\n      swap1\n      tag_37\n      jump\t// in\n    tag_36:\n      tag_38\n      jump\t// in\n    tag_35:\n      mload(0x40)\n      tag_39\n      swap2\n      swap1\n      tag_34\n      jump\t// in\n    tag_39:\n      mload(0x40)\n      dup1\n      swap2\n      sub\n      swap1\n      return\n        /* \"contracts/lesson8.1/MultiSigWallet.sol\":1561:1788  function confirm(uint256 _txId) external onlyOwner {... */\n    tag_8:\n      tag_40\n      0x04\n      dup1\n      calldatasize\n      sub\n      dup2\n      add\n      swap1\n      tag_41\n      swap2\n      swap1\n      tag_14\n      jump\t// in\n    tag_41:\n      tag_42\n      jump\t// in\n    tag_40:\n      stop\n        /* \"contracts/lesson8.1/MultiSigWallet.sol\":162:185  uint256 public required */\n    tag_9:\n      tag_43\n      tag_44\n      jump\t// in\n    tag_43:\n      mload(0x40)\n      tag_45\n      swap2\n      swap1\n      tag_23\n      jump\t// in\n    tag_45:\n      mload(0x40)\n      dup1\n      swap2\n      sub\n      swap1\n      return\n        /* \"contracts/lesson8.1/MultiSigWallet.sol\":1794:2366  function execute(uint256 _txId) external onlyOwner noReentrant {... */\n    tag_10:\n      tag_46\n      0x04\n      dup1\n      calldatasize\n      sub\n      dup2\n      add\n      swap1\n      tag_47\n      swap2\n      swap1\n      tag_14\n      jump\t// in\n    tag_47:\n      tag_48\n      jump\t// in\n    tag_46:\n      stop\n        /* \"contracts/lesson8.1/MultiSigWallet.sol\":88:111  address[] public owners */\n    tag_15:\n      0x00\n      dup2\n      dup2\n      sload\n      dup2\n      lt\n      tag_49\n      jumpi\n      0x00\n      dup1\n      revert\n    tag_49:\n      swap1\n      0x00\n      mstore\n      keccak256(0x00, 0x20)\n      add\n      0x00\n      swap2\n      pop\n      sload\n      swap1\n      0x0100\n      exp\n      swap1\n      div\n      0xffffffffffffffffffffffffffffffffffffffff\n      and\n      dup2\n      jump\t// out\n        /* \"contracts/lesson8.1/MultiSigWallet.sol\":1124:1555  function submit(... */\n    tag_21:\n        /* \"contracts/lesson8.1/MultiSigWallet.sol\":1247:1254  uint256 */\n      0x00\n        /* \"contracts/lesson8.1/MultiSigWallet.sol\":651:658  isOwner */\n      0x01\n        /* \"contracts/lesson8.1/MultiSigWallet.sol\":651:670  isOwner[msg.sender] */\n      0x00\n        /* \"contracts/lesson8.1/MultiSigWallet.sol\":659:669  msg.sender */\n      caller\n        /* \"contracts/lesson8.1/MultiSigWallet.sol\":651:670  isOwner[msg.sender] */\n      0xffffffffffffffffffffffffffffffffffffffff\n      and\n      0xffffffffffffffffffffffffffffffffffffffff\n      and\n      dup2\n      mstore\n      0x20\n      add\n      swap1\n      dup2\n      mstore\n      0x20\n      add\n      0x00\n      keccak256\n      0x00\n      swap1\n      sload\n      swap1\n      0x0100\n      exp\n      swap1\n      div\n      0xff\n      and\n        /* \"contracts/lesson8.1/MultiSigWallet.sol\":643:684  require(isOwner[msg.sender], \"Not owner\") */\n      tag_52\n      jumpi\n      mload(0x40)\n      0x08c379a000000000000000000000000000000000000000000000000000000000\n      dup2\n      mstore\n      0x04\n      add\n      tag_53\n      swap1\n      tag_54\n      jump\t// in\n    tag_53:\n      mload(0x40)\n      dup1\n      swap2\n      sub\n      swap1\n      revert\n    tag_52:\n        /* \"contracts/lesson8.1/MultiSigWallet.sol\":1266:1278  uint256 txId */\n      0x00\n        /* \"contracts/lesson8.1/MultiSigWallet.sol\":1281:1292  MultiSigTxs */\n      0x03\n        /* \"contracts/lesson8.1/MultiSigWallet.sol\":1281:1299  MultiSigTxs.length */\n      dup1\n      sload\n      swap1\n      pop\n        /* \"contracts/lesson8.1/MultiSigWallet.sol\":1266:1299  uint256 txId = MultiSigTxs.length */\n      swap1\n      pop\n        /* \"contracts/lesson8.1/MultiSigWallet.sol\":1309:1320  MultiSigTxs */\n      0x03\n        /* \"contracts/lesson8.1/MultiSigWallet.sol\":1339:1517  MultiSigTx({... */\n      mload(0x40)\n      dup1\n      0xa0\n      add\n      0x40\n      mstore\n      dup1\n        /* \"contracts/lesson8.1/MultiSigWallet.sol\":1372:1375  _to */\n      dup8\n        /* \"contracts/lesson8.1/MultiSigWallet.sol\":1339:1517  MultiSigTx({... */\n      0xffffffffffffffffffffffffffffffffffffffff\n      and\n      dup2\n      mstore\n      0x20\n      add\n        /* \"contracts/lesson8.1/MultiSigWallet.sol\":1400:1406  _value */\n      dup7\n        /* \"contracts/lesson8.1/MultiSigWallet.sol\":1339:1517  MultiSigTx({... */\n      dup2\n      mstore\n      0x20\n      add\n        /* \"contracts/lesson8.1/MultiSigWallet.sol\":1430:1435  _data */\n      dup6\n        /* \"contracts/lesson8.1/MultiSigWallet.sol\":1339:1517  MultiSigTx({... */\n      dup2\n      mstore\n      0x20\n      add\n        /* \"contracts/lesson8.1/MultiSigWallet.sol\":1463:1468  false */\n      0x00\n        /* \"contracts/lesson8.1/MultiSigWallet.sol\":1339:1517  MultiSigTx({... */\n      iszero\n      iszero\n      dup2\n      mstore\n      0x20\n      add\n        /* \"contracts/lesson8.1/MultiSigWallet.sol\":1501:1502  0 */\n      0x00\n        /* \"contracts/lesson8.1/MultiSigWallet.sol\":1339:1517  MultiSigTx({... */\n      dup2\n      mstore\n      pop\n        /* \"contracts/lesson8.1/MultiSigWallet.sol\":1309:1527  MultiSigTxs.push(... */\n      swap1\n      dup1\n      0x01\n      dup2\n      sload\n      add\n      dup1\n      dup3\n      sstore\n      dup1\n      swap2\n      pop\n      pop\n      0x01\n      swap1\n      sub\n      swap1\n      0x00\n      mstore\n      keccak256(0x00, 0x20)\n      swap1\n      0x05\n      mul\n      add\n      0x00\n      swap1\n      swap2\n      swap1\n      swap2\n      swap1\n      swap2\n      pop\n      0x00\n      dup3\n      add\n      mload\n      dup2\n      0x00\n      add\n      exp(0x0100, 0x00)\n      dup2\n      sload\n      dup2\n      0xffffffffffffffffffffffffffffffffffffffff\n      mul\n      not\n      and\n      swap1\n      dup4\n      0xffffffffffffffffffffffffffffffffffffffff\n      and\n      mul\n      or\n      swap1\n      sstore\n      pop\n      0x20\n      dup3\n      add\n      mload\n      dup2\n      0x01\n      add\n      sstore\n      0x40\n      dup3\n      add\n      mload\n      dup2\n      0x02\n      add\n      swap1\n      dup2\n      tag_57\n      swap2\n      swap1\n      tag_58\n      jump\t// in\n    tag_57:\n      pop\n      0x60\n      dup3\n      add\n      mload\n      dup2\n      0x03\n      add\n      exp(0x0100, 0x00)\n      dup2\n      sload\n      dup2\n      0xff\n      mul\n      not\n      and\n      swap1\n      dup4\n      iszero\n      iszero\n      mul\n      or\n      swap1\n      sstore\n      pop\n      0x80\n      dup3\n      add\n      mload\n      dup2\n      0x04\n      add\n      sstore\n      pop\n      pop\n        /* \"contracts/lesson8.1/MultiSigWallet.sol\":1544:1548  txId */\n      dup1\n        /* \"contracts/lesson8.1/MultiSigWallet.sol\":1537:1548  return txId */\n      swap2\n      pop\n      pop\n        /* \"contracts/lesson8.1/MultiSigWallet.sol\":1124:1555  function submit(... */\n      swap4\n      swap3\n      pop\n      pop\n      pop\n      jump\t// out\n        /* \"contracts/lesson8.1/MultiSigWallet.sol\":340:371  MultiSigTx[] public MultiSigTxs */\n    tag_26:\n      0x03\n      dup2\n      dup2\n      sload\n      dup2\n      lt\n      tag_59\n      jumpi\n      0x00\n      dup1\n      revert\n    tag_59:\n      swap1\n      0x00\n      mstore\n      keccak256(0x00, 0x20)\n      swap1\n      0x05\n      mul\n      add\n      0x00\n      swap2\n      pop\n      swap1\n      pop\n      dup1\n      0x00\n      add\n      0x00\n      swap1\n      sload\n      swap1\n      0x0100\n      exp\n      swap1\n      div\n      0xffffffffffffffffffffffffffffffffffffffff\n      and\n      swap1\n      dup1\n      0x01\n      add\n      sload\n      swap1\n      dup1\n      0x02\n      add\n      dup1\n      sload\n      tag_61\n      swap1\n      tag_62\n      jump\t// in\n    tag_61:\n      dup1\n      0x1f\n      add\n      0x20\n      dup1\n      swap2\n      div\n      mul\n      0x20\n      add\n      mload(0x40)\n      swap1\n      dup2\n      add\n      0x40\n      mstore\n      dup1\n      swap3\n      swap2\n      swap1\n      dup2\n      dup2\n      mstore\n      0x20\n      add\n      dup3\n      dup1\n      sload\n      tag_63\n      swap1\n      tag_62\n      jump\t// in\n    tag_63:\n      dup1\n      iszero\n      tag_64\n      jumpi\n      dup1\n      0x1f\n      lt\n      tag_65\n      jumpi\n      0x0100\n      dup1\n      dup4\n      sload\n      div\n      mul\n      dup4\n      mstore\n      swap2\n      0x20\n      add\n      swap2\n      jump(tag_64)\n    tag_65:\n      dup3\n      add\n      swap2\n      swap1\n      0x00\n      mstore\n      keccak256(0x00, 0x20)\n      swap1\n    tag_66:\n      dup2\n      sload\n      dup2\n      mstore\n      swap1\n      0x01\n      add\n      swap1\n      0x20\n      add\n      dup1\n      dup4\n      gt\n      tag_66\n      jumpi\n      dup3\n      swap1\n      sub\n      0x1f\n      and\n      dup3\n      add\n      swap2\n    tag_64:\n      pop\n      pop\n      pop\n      pop\n      pop\n      swap1\n      dup1\n      0x03\n      add\n      0x00\n      swap1\n      sload\n      swap1\n      0x0100\n      exp\n      swap1\n      div\n      0xff\n      and\n      swap1\n      dup1\n      0x04\n      add\n      sload\n      swap1\n      pop\n      dup6\n      jump\t// out\n        /* \"contracts/lesson8.1/MultiSigWallet.sol\":117:156  mapping(address => bool) public isOwner */\n    tag_32:\n      mstore(0x20, 0x01)\n      dup1\n      0x00\n      mstore\n      keccak256(0x00, 0x40)\n      0x00\n      swap2\n      pop\n      sload\n      swap1\n      0x0100\n      exp\n      swap1\n      div\n      0xff\n      and\n      dup2\n      jump\t// out\n        /* \"contracts/lesson8.1/MultiSigWallet.sol\":377:442  mapping(uint256 => mapping(address => bool)) public confirmations */\n    tag_38:\n      mstore(0x20, 0x04)\n      dup2\n      0x00\n      mstore\n      mstore(0x20, keccak256(0x00, 0x40))\n      dup1\n      0x00\n      mstore\n      keccak256(0x00, 0x40)\n      0x00\n      swap2\n      pop\n      swap2\n      pop\n      swap1\n      sload\n      swap1\n      0x0100\n      exp\n      swap1\n      div\n      0xff\n      and\n      dup2\n      jump\t// out\n        /* \"contracts/lesson8.1/MultiSigWallet.sol\":1561:1788  function confirm(uint256 _txId) external onlyOwner {... */\n    tag_42:\n        /* \"contracts/lesson8.1/MultiSigWallet.sol\":651:658  isOwner */\n      0x01\n        /* \"contracts/lesson8.1/MultiSigWallet.sol\":651:670  isOwner[msg.sender] */\n      0x00\n        /* \"contracts/lesson8.1/MultiSigWallet.sol\":659:669  msg.sender */\n      caller\n        /* \"contracts/lesson8.1/MultiSigWallet.sol\":651:670  isOwner[msg.sender] */\n      0xffffffffffffffffffffffffffffffffffffffff\n      and\n      0xffffffffffffffffffffffffffffffffffffffff\n      and\n      dup2\n      mstore\n      0x20\n      add\n      swap1\n      dup2\n      mstore\n      0x20\n      add\n      0x00\n      keccak256\n      0x00\n      swap1\n      sload\n      swap1\n      0x0100\n      exp\n      swap1\n      div\n      0xff\n      and\n        /* \"contracts/lesson8.1/MultiSigWallet.sol\":643:684  require(isOwner[msg.sender], \"Not owner\") */\n      tag_68\n      jumpi\n      mload(0x40)\n      0x08c379a000000000000000000000000000000000000000000000000000000000\n      dup2\n      mstore\n      0x04\n      add\n      tag_69\n      swap1\n      tag_54\n      jump\t// in\n    tag_69:\n      mload(0x40)\n      dup1\n      swap2\n      sub\n      swap1\n      revert\n    tag_68:\n        /* \"contracts/lesson8.1/MultiSigWallet.sol\":1631:1644  confirmations */\n      0x04\n        /* \"contracts/lesson8.1/MultiSigWallet.sol\":1631:1651  confirmations[_txId] */\n      0x00\n        /* \"contracts/lesson8.1/MultiSigWallet.sol\":1645:1650  _txId */\n      dup3\n        /* \"contracts/lesson8.1/MultiSigWallet.sol\":1631:1651  confirmations[_txId] */\n      dup2\n      mstore\n      0x20\n      add\n      swap1\n      dup2\n      mstore\n      0x20\n      add\n      0x00\n      keccak256\n        /* \"contracts/lesson8.1/MultiSigWallet.sol\":1631:1663  confirmations[_txId][msg.sender] */\n      0x00\n        /* \"contracts/lesson8.1/MultiSigWallet.sol\":1652:1662  msg.sender */\n      caller\n        /* \"contracts/lesson8.1/MultiSigWallet.sol\":1631:1663  confirmations[_txId][msg.sender] */\n      0xffffffffffffffffffffffffffffffffffffffff\n      and\n      0xffffffffffffffffffffffffffffffffffffffff\n      and\n      dup2\n      mstore\n      0x20\n      add\n      swap1\n      dup2\n      mstore\n      0x20\n      add\n      0x00\n      keccak256\n      0x00\n      swap1\n      sload\n      swap1\n      0x0100\n      exp\n      swap1\n      div\n      0xff\n      and\n        /* \"contracts/lesson8.1/MultiSigWallet.sol\":1630:1663  !confirmations[_txId][msg.sender] */\n      iszero\n        /* \"contracts/lesson8.1/MultiSigWallet.sol\":1622:1685  require(!confirmations[_txId][msg.sender], \"Already confirmed\") */\n      tag_71\n      jumpi\n      mload(0x40)\n      0x08c379a000000000000000000000000000000000000000000000000000000000\n      dup2\n      mstore\n      0x04\n      add\n      tag_72\n      swap1\n      tag_73\n      jump\t// in\n    tag_72:\n      mload(0x40)\n      dup1\n      swap2\n      sub\n      swap1\n      revert\n    tag_71:\n        /* \"contracts/lesson8.1/MultiSigWallet.sol\":1730:1734  true */\n      0x01\n        /* \"contracts/lesson8.1/MultiSigWallet.sol\":1695:1708  confirmations */\n      0x04\n        /* \"contracts/lesson8.1/MultiSigWallet.sol\":1695:1715  confirmations[_txId] */\n      0x00\n        /* \"contracts/lesson8.1/MultiSigWallet.sol\":1709:1714  _txId */\n      dup4\n        /* \"contracts/lesson8.1/MultiSigWallet.sol\":1695:1715  confirmations[_txId] */\n      dup2\n      mstore\n      0x20\n      add\n      swap1\n      dup2\n      mstore\n      0x20\n      add\n      0x00\n      keccak256\n        /* \"contracts/lesson8.1/MultiSigWallet.sol\":1695:1727  confirmations[_txId][msg.sender] */\n      0x00\n        /* \"contracts/lesson8.1/MultiSigWallet.sol\":1716:1726  msg.sender */\n      caller\n        /* \"contracts/lesson8.1/MultiSigWallet.sol\":1695:1727  confirmations[_txId][msg.sender] */\n      0xffffffffffffffffffffffffffffffffffffffff\n      and\n      0xffffffffffffffffffffffffffffffffffffffff\n      and\n      dup2\n      mstore\n      0x20\n      add\n      swap1\n      dup2\n      mstore\n      0x20\n      add\n      0x00\n      keccak256\n      0x00\n        /* \"contracts/lesson8.1/MultiSigWallet.sol\":1695:1734  confirmations[_txId][msg.sender] = true */\n      0x0100\n      exp\n      dup2\n      sload\n      dup2\n      0xff\n      mul\n      not\n      and\n      swap1\n      dup4\n      iszero\n      iszero\n      mul\n      or\n      swap1\n      sstore\n      pop\n        /* \"contracts/lesson8.1/MultiSigWallet.sol\":1780:1781  1 */\n      0x01\n        /* \"contracts/lesson8.1/MultiSigWallet.sol\":1744:1755  MultiSigTxs */\n      0x03\n        /* \"contracts/lesson8.1/MultiSigWallet.sol\":1756:1761  _txId */\n      dup3\n        /* \"contracts/lesson8.1/MultiSigWallet.sol\":1744:1762  MultiSigTxs[_txId] */\n      dup2\n      sload\n      dup2\n      lt\n      tag_74\n      jumpi\n      tag_75\n      tag_76\n      jump\t// in\n    tag_75:\n    tag_74:\n      swap1\n      0x00\n      mstore\n      keccak256(0x00, 0x20)\n      swap1\n      0x05\n      mul\n      add\n        /* \"contracts/lesson8.1/MultiSigWallet.sol\":1744:1776  MultiSigTxs[_txId].confirmations */\n      0x04\n      add\n      0x00\n        /* \"contracts/lesson8.1/MultiSigWallet.sol\":1744:1781  MultiSigTxs[_txId].confirmations += 1 */\n      dup3\n      dup3\n      sload\n      tag_78\n      swap2\n      swap1\n      tag_79\n      jump\t// in\n    tag_78:\n      swap3\n      pop\n      pop\n      dup2\n      swap1\n      sstore\n      pop\n        /* \"contracts/lesson8.1/MultiSigWallet.sol\":1561:1788  function confirm(uint256 _txId) external onlyOwner {... */\n      pop\n      jump\t// out\n        /* \"contracts/lesson8.1/MultiSigWallet.sol\":162:185  uint256 public required */\n    tag_44:\n      sload(0x02)\n      dup2\n      jump\t// out\n        /* \"contracts/lesson8.1/MultiSigWallet.sol\":1794:2366  function execute(uint256 _txId) external onlyOwner noReentrant {... */\n    tag_48:\n        /* \"contracts/lesson8.1/MultiSigWallet.sol\":651:658  isOwner */\n      0x01\n        /* \"contracts/lesson8.1/MultiSigWallet.sol\":651:670  isOwner[msg.sender] */\n      0x00\n        /* \"contracts/lesson8.1/MultiSigWallet.sol\":659:669  msg.sender */\n      caller\n        /* \"contracts/lesson8.1/MultiSigWallet.sol\":651:670  isOwner[msg.sender] */\n      0xffffffffffffffffffffffffffffffffffffffff\n      and\n      0xffffffffffffffffffffffffffffffffffffffff\n      and\n      dup2\n      mstore\n      0x20\n      add\n      swap1\n      dup2\n      mstore\n      0x20\n      add\n      0x00\n      keccak256\n      0x00\n      swap1\n      sload\n      swap1\n      0x0100\n      exp\n      swap1\n      div\n      0xff\n      and\n        /* \"contracts/lesson8.1/MultiSigWallet.sol\":643:684  require(isOwner[msg.sender], \"Not owner\") */\n      tag_81\n      jumpi\n      mload(0x40)\n      0x08c379a000000000000000000000000000000000000000000000000000000000\n      dup2\n      mstore\n      0x04\n      add\n      tag_82\n      swap1\n      tag_54\n      jump\t// in\n    tag_82:\n      mload(0x40)\n      dup1\n      swap2\n      sub\n      swap1\n      revert\n    tag_81:\n        /* \"contracts/lesson8.1/MultiSigWallet.sol\":517:523  locked */\n      0x05\n      0x00\n      swap1\n      sload\n      swap1\n      0x0100\n      exp\n      swap1\n      div\n      0xff\n      and\n        /* \"contracts/lesson8.1/MultiSigWallet.sol\":516:523  !locked */\n      iszero\n        /* \"contracts/lesson8.1/MultiSigWallet.sol\":508:541  require(!locked, \"No reentrancy\") */\n      tag_84\n      jumpi\n      mload(0x40)\n      0x08c379a000000000000000000000000000000000000000000000000000000000\n      dup2\n      mstore\n      0x04\n      add\n      tag_85\n      swap1\n      tag_86\n      jump\t// in\n    tag_85:\n      mload(0x40)\n      dup1\n      swap2\n      sub\n      swap1\n      revert\n    tag_84:\n        /* \"contracts/lesson8.1/MultiSigWallet.sol\":560:564  true */\n      0x01\n        /* \"contracts/lesson8.1/MultiSigWallet.sol\":551:557  locked */\n      0x05\n      0x00\n        /* \"contracts/lesson8.1/MultiSigWallet.sol\":551:564  locked = true */\n      0x0100\n      exp\n      dup2\n      sload\n      dup2\n      0xff\n      mul\n      not\n      and\n      swap1\n      dup4\n      iszero\n      iszero\n      mul\n      or\n      swap1\n      sstore\n      pop\n        /* \"contracts/lesson8.1/MultiSigWallet.sol\":1867:1897  MultiSigTx storage transaction */\n      0x00\n        /* \"contracts/lesson8.1/MultiSigWallet.sol\":1900:1911  MultiSigTxs */\n      0x03\n        /* \"contracts/lesson8.1/MultiSigWallet.sol\":1912:1917  _txId */\n      dup3\n        /* \"contracts/lesson8.1/MultiSigWallet.sol\":1900:1918  MultiSigTxs[_txId] */\n      dup2\n      sload\n      dup2\n      lt\n      tag_88\n      jumpi\n      tag_89\n      tag_76\n      jump\t// in\n    tag_89:\n    tag_88:\n      swap1\n      0x00\n      mstore\n      keccak256(0x00, 0x20)\n      swap1\n      0x05\n      mul\n      add\n        /* \"contracts/lesson8.1/MultiSigWallet.sol\":1867:1918  MultiSigTx storage transaction = MultiSigTxs[_txId] */\n      swap1\n      pop\n        /* \"contracts/lesson8.1/MultiSigWallet.sol\":1948:1959  transaction */\n      dup1\n        /* \"contracts/lesson8.1/MultiSigWallet.sol\":1948:1968  transaction.executed */\n      0x03\n      add\n      0x00\n      swap1\n      sload\n      swap1\n      0x0100\n      exp\n      swap1\n      div\n      0xff\n      and\n        /* \"contracts/lesson8.1/MultiSigWallet.sol\":1947:1968  !transaction.executed */\n      iszero\n        /* \"contracts/lesson8.1/MultiSigWallet.sol\":1939:1989  require(!transaction.executed, \"Already executed\") */\n      tag_91\n      jumpi\n      mload(0x40)\n      0x08c379a000000000000000000000000000000000000000000000000000000000\n      dup2\n      mstore\n      0x04\n      add\n      tag_92\n      swap1\n      tag_93\n      jump\t// in\n    tag_92:\n      mload(0x40)\n      dup1\n      swap2\n      sub\n      swap1\n      revert\n    tag_91:\n        /* \"contracts/lesson8.1/MultiSigWallet.sol\":2049:2057  required */\n      sload(0x02)\n        /* \"contracts/lesson8.1/MultiSigWallet.sol\":2020:2031  transaction */\n      dup2\n        /* \"contracts/lesson8.1/MultiSigWallet.sol\":2020:2045  transaction.confirmations */\n      0x04\n      add\n      sload\n        /* \"contracts/lesson8.1/MultiSigWallet.sol\":2020:2057  transaction.confirmations >= required */\n      lt\n      iszero\n        /* \"contracts/lesson8.1/MultiSigWallet.sol\":1999:2109  require(... */\n      tag_94\n      jumpi\n      mload(0x40)\n      0x08c379a000000000000000000000000000000000000000000000000000000000\n      dup2\n      mstore\n      0x04\n      add\n      tag_95\n      swap1\n      tag_96\n      jump\t// in\n    tag_95:\n      mload(0x40)\n      dup1\n      swap2\n      sub\n      swap1\n      revert\n    tag_94:\n        /* \"contracts/lesson8.1/MultiSigWallet.sol\":2143:2147  true */\n      0x01\n        /* \"contracts/lesson8.1/MultiSigWallet.sol\":2120:2131  transaction */\n      dup2\n        /* \"contracts/lesson8.1/MultiSigWallet.sol\":2120:2140  transaction.executed */\n      0x03\n      add\n      0x00\n        /* \"contracts/lesson8.1/MultiSigWallet.sol\":2120:2147  transaction.executed = true */\n      0x0100\n      exp\n      dup2\n      sload\n      dup2\n      0xff\n      mul\n      not\n      and\n      swap1\n      dup4\n      iszero\n      iszero\n      mul\n      or\n      swap1\n      sstore\n      pop\n        /* \"contracts/lesson8.1/MultiSigWallet.sol\":2186:2198  bool success */\n      0x00\n        /* \"contracts/lesson8.1/MultiSigWallet.sol\":2204:2215  transaction */\n      dup2\n        /* \"contracts/lesson8.1/MultiSigWallet.sol\":2204:2218  transaction.to */\n      0x00\n      add\n      0x00\n      swap1\n      sload\n      swap1\n      0x0100\n      exp\n      swap1\n      div\n      0xffffffffffffffffffffffffffffffffffffffff\n      and\n        /* \"contracts/lesson8.1/MultiSigWallet.sol\":2204:2223  transaction.to.call */\n      0xffffffffffffffffffffffffffffffffffffffff\n      and\n        /* \"contracts/lesson8.1/MultiSigWallet.sol\":2242:2247  50000 */\n      0xc350\n        /* \"contracts/lesson8.1/MultiSigWallet.sol\":2268:2279  transaction */\n      dup4\n        /* \"contracts/lesson8.1/MultiSigWallet.sol\":2268:2285  transaction.value */\n      0x01\n      add\n      sload\n        /* \"contracts/lesson8.1/MultiSigWallet.sol\":2296:2307  transaction */\n      dup5\n        /* \"contracts/lesson8.1/MultiSigWallet.sol\":2296:2312  transaction.data */\n      0x02\n      add\n        /* \"contracts/lesson8.1/MultiSigWallet.sol\":2204:2313  transaction.to.call{... */\n      mload(0x40)\n      tag_97\n      swap2\n      swap1\n      tag_98\n      jump\t// in\n    tag_97:\n      0x00\n      mload(0x40)\n      dup1\n      dup4\n      sub\n      dup2\n      dup6\n      dup9\n      dup9\n      call\n      swap4\n      pop\n      pop\n      pop\n      pop\n      returndatasize\n      dup1\n      0x00\n      dup2\n      eq\n      tag_101\n      jumpi\n      mload(0x40)\n      swap2\n      pop\n      and(add(returndatasize, 0x3f), not(0x1f))\n      dup3\n      add\n      0x40\n      mstore\n      returndatasize\n      dup3\n      mstore\n      returndatasize\n      0x00\n      0x20\n      dup5\n      add\n      returndatacopy\n      jump(tag_100)\n    tag_101:\n      0x60\n      swap2\n      pop\n    tag_100:\n      pop\n        /* \"contracts/lesson8.1/MultiSigWallet.sol\":2185:2313  (bool success, ) = transaction.to.call{... */\n      pop\n      swap1\n      pop\n        /* \"contracts/lesson8.1/MultiSigWallet.sol\":2331:2338  success */\n      dup1\n        /* \"contracts/lesson8.1/MultiSigWallet.sol\":2323:2359  require(success, \"Execution failed\") */\n      tag_102\n      jumpi\n      mload(0x40)\n      0x08c379a000000000000000000000000000000000000000000000000000000000\n      dup2\n      mstore\n      0x04\n      add\n      tag_103\n      swap1\n      tag_104\n      jump\t// in\n    tag_103:\n      mload(0x40)\n      dup1\n      swap2\n      sub\n      swap1\n      revert\n    tag_102:\n        /* \"contracts/lesson8.1/MultiSigWallet.sol\":1857:2366  {... */\n      pop\n      pop\n        /* \"contracts/lesson8.1/MultiSigWallet.sol\":594:599  false */\n      0x00\n        /* \"contracts/lesson8.1/MultiSigWallet.sol\":585:591  locked */\n      0x05\n      0x00\n        /* \"contracts/lesson8.1/MultiSigWallet.sol\":585:599  locked = false */\n      0x0100\n      exp\n      dup2\n      sload\n      dup2\n      0xff\n      mul\n      not\n      and\n      swap1\n      dup4\n      iszero\n      iszero\n      mul\n      or\n      swap1\n      sstore\n      pop\n        /* \"contracts/lesson8.1/MultiSigWallet.sol\":1794:2366  function execute(uint256 _txId) external onlyOwner noReentrant {... */\n      pop\n      jump\t// out\n        /* \"#utility.yul\":7:82   */\n    tag_105:\n        /* \"#utility.yul\":40:46   */\n      0x00\n        /* \"#utility.yul\":73:75   */\n      0x40\n        /* \"#utility.yul\":67:76   */\n      mload\n        /* \"#utility.yul\":57:76   */\n      swap1\n      pop\n        /* \"#utility.yul\":7:82   */\n      swap1\n      jump\t// out\n        /* \"#utility.yul\":88:205   */\n    tag_106:\n        /* \"#utility.yul\":197:198   */\n      0x00\n        /* \"#utility.yul\":194:195   */\n      0x00\n        /* \"#utility.yul\":187:199   */\n      revert\n        /* \"#utility.yul\":211:328   */\n    tag_107:\n        /* \"#utility.yul\":320:321   */\n      0x00\n        /* \"#utility.yul\":317:318   */\n      0x00\n        /* \"#utility.yul\":310:322   */\n      revert\n        /* \"#utility.yul\":334:411   */\n    tag_108:\n        /* \"#utility.yul\":371:378   */\n      0x00\n        /* \"#utility.yul\":400:405   */\n      dup2\n        /* \"#utility.yul\":389:405   */\n      swap1\n      pop\n        /* \"#utility.yul\":334:411   */\n      swap2\n      swap1\n      pop\n      jump\t// out\n        /* \"#utility.yul\":417:539   */\n    tag_109:\n        /* \"#utility.yul\":490:514   */\n      tag_171\n        /* \"#utility.yul\":508:513   */\n      dup2\n        /* \"#utility.yul\":490:514   */\n      tag_108\n      jump\t// in\n    tag_171:\n        /* \"#utility.yul\":483:488   */\n      dup2\n        /* \"#utility.yul\":480:515   */\n      eq\n        /* \"#utility.yul\":470:533   */\n      tag_172\n      jumpi\n        /* \"#utility.yul\":529:530   */\n      0x00\n        /* \"#utility.yul\":526:527   */\n      0x00\n        /* \"#utility.yul\":519:531   */\n      revert\n        /* \"#utility.yul\":470:533   */\n    tag_172:\n        /* \"#utility.yul\":417:539   */\n      pop\n      jump\t// out\n        /* \"#utility.yul\":545:684   */\n    tag_110:\n        /* \"#utility.yul\":591:596   */\n      0x00\n        /* \"#utility.yul\":629:635   */\n      dup2\n        /* \"#utility.yul\":616:636   */\n      calldataload\n        /* \"#utility.yul\":607:636   */\n      swap1\n      pop\n        /* \"#utility.yul\":645:678   */\n      tag_174\n        /* \"#utility.yul\":672:677   */\n      dup2\n        /* \"#utility.yul\":645:678   */\n      tag_109\n      jump\t// in\n    tag_174:\n        /* \"#utility.yul\":545:684   */\n      swap3\n      swap2\n      pop\n      pop\n      jump\t// out\n        /* \"#utility.yul\":690:1019   */\n    tag_14:\n        /* \"#utility.yul\":749:755   */\n      0x00\n        /* \"#utility.yul\":798:800   */\n      0x20\n        /* \"#utility.yul\":786:795   */\n      dup3\n        /* \"#utility.yul\":777:784   */\n      dup5\n        /* \"#utility.yul\":773:796   */\n      sub\n        /* \"#utility.yul\":769:801   */\n      slt\n        /* \"#utility.yul\":766:885   */\n      iszero\n      tag_176\n      jumpi\n        /* \"#utility.yul\":804:883   */\n      tag_177\n      tag_106\n      jump\t// in\n    tag_177:\n        /* \"#utility.yul\":766:885   */\n    tag_176:\n        /* \"#utility.yul\":924:925   */\n      0x00\n        /* \"#utility.yul\":949:1002   */\n      tag_178\n        /* \"#utility.yul\":994:1001   */\n      dup5\n        /* \"#utility.yul\":985:991   */\n      dup3\n        /* \"#utility.yul\":974:983   */\n      dup6\n        /* \"#utility.yul\":970:992   */\n      add\n        /* \"#utility.yul\":949:1002   */\n      tag_110\n      jump\t// in\n    tag_178:\n        /* \"#utility.yul\":939:1002   */\n      swap2\n      pop\n        /* \"#utility.yul\":895:1012   */\n      pop\n        /* \"#utility.yul\":690:1019   */\n      swap3\n      swap2\n      pop\n      pop\n      jump\t// out\n        /* \"#utility.yul\":1025:1151   */\n    tag_111:\n        /* \"#utility.yul\":1062:1069   */\n      0x00\n        /* \"#utility.yul\":1102:1144   */\n      0xffffffffffffffffffffffffffffffffffffffff\n        /* \"#utility.yul\":1095:1100   */\n      dup3\n        /* \"#utility.yul\":1091:1145   */\n      and\n        /* \"#utility.yul\":1080:1145   */\n      swap1\n      pop\n        /* \"#utility.yul\":1025:1151   */\n      swap2\n      swap1\n      pop\n      jump\t// out\n        /* \"#utility.yul\":1157:1253   */\n    tag_112:\n        /* \"#utility.yul\":1194:1201   */\n      0x00\n        /* \"#utility.yul\":1223:1247   */\n      tag_181\n        /* \"#utility.yul\":1241:1246   */\n      dup3\n        /* \"#utility.yul\":1223:1247   */\n      tag_111\n      jump\t// in\n    tag_181:\n        /* \"#utility.yul\":1212:1247   */\n      swap1\n      pop\n        /* \"#utility.yul\":1157:1253   */\n      swap2\n      swap1\n      pop\n      jump\t// out\n        /* \"#utility.yul\":1259:1377   */\n    tag_113:\n        /* \"#utility.yul\":1346:1370   */\n      tag_183\n        /* \"#utility.yul\":1364:1369   */\n      dup2\n        /* \"#utility.yul\":1346:1370   */\n      tag_112\n      jump\t// in\n    tag_183:\n        /* \"#utility.yul\":1341:1344   */\n      dup3\n        /* \"#utility.yul\":1334:1371   */\n      mstore\n        /* \"#utility.yul\":1259:1377   */\n      pop\n      pop\n      jump\t// out\n        /* \"#utility.yul\":1383:1605   */\n    tag_17:\n        /* \"#utility.yul\":1476:1480   */\n      0x00\n        /* \"#utility.yul\":1514:1516   */\n      0x20\n        /* \"#utility.yul\":1503:1512   */\n      dup3\n        /* \"#utility.yul\":1499:1517   */\n      add\n        /* \"#utility.yul\":1491:1517   */\n      swap1\n      pop\n        /* \"#utility.yul\":1527:1598   */\n      tag_185\n        /* \"#utility.yul\":1595:1596   */\n      0x00\n        /* \"#utility.yul\":1584:1593   */\n      dup4\n        /* \"#utility.yul\":1580:1597   */\n      add\n        /* \"#utility.yul\":1571:1577   */\n      dup5\n        /* \"#utility.yul\":1527:1598   */\n      tag_113\n      jump\t// in\n    tag_185:\n        /* \"#utility.yul\":1383:1605   */\n      swap3\n      swap2\n      pop\n      pop\n      jump\t// out\n        /* \"#utility.yul\":1611:1733   */\n    tag_114:\n        /* \"#utility.yul\":1684:1708   */\n      tag_187\n        /* \"#utility.yul\":1702:1707   */\n      dup2\n        /* \"#utility.yul\":1684:1708   */\n      tag_112\n      jump\t// in\n    tag_187:\n        /* \"#utility.yul\":1677:1682   */\n      dup2\n        /* \"#utility.yul\":1674:1709   */\n      eq\n        /* \"#utility.yul\":1664:1727   */\n      tag_188\n      jumpi\n        /* \"#utility.yul\":1723:1724   */\n      0x00\n        /* \"#utility.yul\":1720:1721   */\n      0x00\n        /* \"#utility.yul\":1713:1725   */\n      revert\n        /* \"#utility.yul\":1664:1727   */\n    tag_188:\n        /* \"#utility.yul\":1611:1733   */\n      pop\n      jump\t// out\n        /* \"#utility.yul\":1739:1878   */\n    tag_115:\n        /* \"#utility.yul\":1785:1790   */\n      0x00\n        /* \"#utility.yul\":1823:1829   */\n      dup2\n        /* \"#utility.yul\":1810:1830   */\n      calldataload\n        /* \"#utility.yul\":1801:1830   */\n      swap1\n      pop\n        /* \"#utility.yul\":1839:1872   */\n      tag_190\n        /* \"#utility.yul\":1866:1871   */\n      dup2\n        /* \"#utility.yul\":1839:1872   */\n      tag_114\n      jump\t// in\n    tag_190:\n        /* \"#utility.yul\":1739:1878   */\n      swap3\n      swap2\n      pop\n      pop\n      jump\t// out\n        /* \"#utility.yul\":1884:2001   */\n    tag_116:\n        /* \"#utility.yul\":1993:1994   */\n      0x00\n        /* \"#utility.yul\":1990:1991   */\n      0x00\n        /* \"#utility.yul\":1983:1995   */\n      revert\n        /* \"#utility.yul\":2007:2124   */\n    tag_117:\n        /* \"#utility.yul\":2116:2117   */\n      0x00\n        /* \"#utility.yul\":2113:2114   */\n      0x00\n        /* \"#utility.yul\":2106:2118   */\n      revert\n        /* \"#utility.yul\":2130:2232   */\n    tag_118:\n        /* \"#utility.yul\":2171:2177   */\n      0x00\n        /* \"#utility.yul\":2222:2224   */\n      0x1f\n        /* \"#utility.yul\":2218:2225   */\n      not\n        /* \"#utility.yul\":2213:2215   */\n      0x1f\n        /* \"#utility.yul\":2206:2211   */\n      dup4\n        /* \"#utility.yul\":2202:2216   */\n      add\n        /* \"#utility.yul\":2198:2226   */\n      and\n        /* \"#utility.yul\":2188:2226   */\n      swap1\n      pop\n        /* \"#utility.yul\":2130:2232   */\n      swap2\n      swap1\n      pop\n      jump\t// out\n        /* \"#utility.yul\":2238:2418   */\n    tag_119:\n        /* \"#utility.yul\":2286:2363   */\n      0x4e487b7100000000000000000000000000000000000000000000000000000000\n        /* \"#utility.yul\":2283:2284   */\n      0x00\n        /* \"#utility.yul\":2276:2364   */\n      mstore\n        /* \"#utility.yul\":2383:2387   */\n      0x41\n        /* \"#utility.yul\":2380:2381   */\n      0x04\n        /* \"#utility.yul\":2373:2388   */\n      mstore\n        /* \"#utility.yul\":2407:2411   */\n      0x24\n        /* \"#utility.yul\":2404:2405   */\n      0x00\n        /* \"#utility.yul\":2397:2412   */\n      revert\n        /* \"#utility.yul\":2424:2705   */\n    tag_120:\n        /* \"#utility.yul\":2507:2534   */\n      tag_196\n        /* \"#utility.yul\":2529:2533   */\n      dup3\n        /* \"#utility.yul\":2507:2534   */\n      tag_118\n      jump\t// in\n    tag_196:\n        /* \"#utility.yul\":2499:2505   */\n      dup2\n        /* \"#utility.yul\":2495:2535   */\n      add\n        /* \"#utility.yul\":2637:2643   */\n      dup2\n        /* \"#utility.yul\":2625:2635   */\n      dup2\n        /* \"#utility.yul\":2622:2644   */\n      lt\n        /* \"#utility.yul\":2601:2619   */\n      0xffffffffffffffff\n        /* \"#utility.yul\":2589:2599   */\n      dup3\n        /* \"#utility.yul\":2586:2620   */\n      gt\n        /* \"#utility.yul\":2583:2645   */\n      or\n        /* \"#utility.yul\":2580:2668   */\n      iszero\n      tag_197\n      jumpi\n        /* \"#utility.yul\":2648:2666   */\n      tag_198\n      tag_119\n      jump\t// in\n    tag_198:\n        /* \"#utility.yul\":2580:2668   */\n    tag_197:\n        /* \"#utility.yul\":2688:2698   */\n      dup1\n        /* \"#utility.yul\":2684:2686   */\n      0x40\n        /* \"#utility.yul\":2677:2699   */\n      mstore\n        /* \"#utility.yul\":2467:2705   */\n      pop\n        /* \"#utility.yul\":2424:2705   */\n      pop\n      pop\n      jump\t// out\n        /* \"#utility.yul\":2711:2840   */\n    tag_121:\n        /* \"#utility.yul\":2745:2751   */\n      0x00\n        /* \"#utility.yul\":2772:2792   */\n      tag_200\n      tag_105\n      jump\t// in\n    tag_200:\n        /* \"#utility.yul\":2762:2792   */\n      swap1\n      pop\n        /* \"#utility.yul\":2801:2834   */\n      tag_201\n        /* \"#utility.yul\":2829:2833   */\n      dup3\n        /* \"#utility.yul\":2821:2827   */\n      dup3\n        /* \"#utility.yul\":2801:2834   */\n      tag_120\n      jump\t// in\n    tag_201:\n        /* \"#utility.yul\":2711:2840   */\n      swap2\n      swap1\n      pop\n      jump\t// out\n        /* \"#utility.yul\":2846:3153   */\n    tag_122:\n        /* \"#utility.yul\":2907:2911   */\n      0x00\n        /* \"#utility.yul\":2997:3015   */\n      0xffffffffffffffff\n        /* \"#utility.yul\":2989:2995   */\n      dup3\n        /* \"#utility.yul\":2986:3016   */\n      gt\n        /* \"#utility.yul\":2983:3039   */\n      iszero\n      tag_203\n      jumpi\n        /* \"#utility.yul\":3019:3037   */\n      tag_204\n      tag_119\n      jump\t// in\n    tag_204:\n        /* \"#utility.yul\":2983:3039   */\n    tag_203:\n        /* \"#utility.yul\":3057:3086   */\n      tag_205\n        /* \"#utility.yul\":3079:3085   */\n      dup3\n        /* \"#utility.yul\":3057:3086   */\n      tag_118\n      jump\t// in\n    tag_205:\n        /* \"#utility.yul\":3049:3086   */\n      swap1\n      pop\n        /* \"#utility.yul\":3141:3145   */\n      0x20\n        /* \"#utility.yul\":3135:3139   */\n      dup2\n        /* \"#utility.yul\":3131:3146   */\n      add\n        /* \"#utility.yul\":3123:3146   */\n      swap1\n      pop\n        /* \"#utility.yul\":2846:3153   */\n      swap2\n      swap1\n      pop\n      jump\t// out\n        /* \"#utility.yul\":3159:3307   */\n    tag_123:\n        /* \"#utility.yul\":3257:3263   */\n      dup3\n        /* \"#utility.yul\":3252:3255   */\n      dup2\n        /* \"#utility.yul\":3247:3250   */\n      dup4\n        /* \"#utility.yul\":3234:3264   */\n      calldatacopy\n        /* \"#utility.yul\":3298:3299   */\n      0x00\n        /* \"#utility.yul\":3289:3295   */\n      dup4\n        /* \"#utility.yul\":3284:3287   */\n      dup4\n        /* \"#utility.yul\":3280:3296   */\n      add\n        /* \"#utility.yul\":3273:3300   */\n      mstore\n        /* \"#utility.yul\":3159:3307   */\n      pop\n      pop\n      pop\n      jump\t// out\n        /* \"#utility.yul\":3313:3736   */\n    tag_124:\n        /* \"#utility.yul\":3390:3395   */\n      0x00\n        /* \"#utility.yul\":3415:3480   */\n      tag_208\n        /* \"#utility.yul\":3431:3479   */\n      tag_209\n        /* \"#utility.yul\":3472:3478   */\n      dup5\n        /* \"#utility.yul\":3431:3479   */\n      tag_122\n      jump\t// in\n    tag_209:\n        /* \"#utility.yul\":3415:3480   */\n      tag_121\n      jump\t// in\n    tag_208:\n        /* \"#utility.yul\":3406:3480   */\n      swap1\n      pop\n        /* \"#utility.yul\":3503:3509   */\n      dup3\n        /* \"#utility.yul\":3496:3501   */\n      dup2\n        /* \"#utility.yul\":3489:3510   */\n      mstore\n        /* \"#utility.yul\":3541:3545   */\n      0x20\n        /* \"#utility.yul\":3534:3539   */\n      dup2\n        /* \"#utility.yul\":3530:3546   */\n      add\n        /* \"#utility.yul\":3579:3582   */\n      dup5\n        /* \"#utility.yul\":3570:3576   */\n      dup5\n        /* \"#utility.yul\":3565:3568   */\n      dup5\n        /* \"#utility.yul\":3561:3577   */\n      add\n        /* \"#utility.yul\":3558:3583   */\n      gt\n        /* \"#utility.yul\":3555:3667   */\n      iszero\n      tag_210\n      jumpi\n        /* \"#utility.yul\":3586:3665   */\n      tag_211\n      tag_117\n      jump\t// in\n    tag_211:\n        /* \"#utility.yul\":3555:3667   */\n    tag_210:\n        /* \"#utility.yul\":3676:3730   */\n      tag_212\n        /* \"#utility.yul\":3723:3729   */\n      dup5\n        /* \"#utility.yul\":3718:3721   */\n      dup3\n        /* \"#utility.yul\":3713:3716   */\n      dup6\n        /* \"#utility.yul\":3676:3730   */\n      tag_123\n      jump\t// in\n    tag_212:\n        /* \"#utility.yul\":3396:3736   */\n      pop\n        /* \"#utility.yul\":3313:3736   */\n      swap4\n      swap3\n      pop\n      pop\n      pop\n      jump\t// out\n        /* \"#utility.yul\":3755:4093   */\n    tag_125:\n        /* \"#utility.yul\":3810:3815   */\n      0x00\n        /* \"#utility.yul\":3859:3862   */\n      dup3\n        /* \"#utility.yul\":3852:3856   */\n      0x1f\n        /* \"#utility.yul\":3844:3850   */\n      dup4\n        /* \"#utility.yul\":3840:3857   */\n      add\n        /* \"#utility.yul\":3836:3863   */\n      slt\n        /* \"#utility.yul\":3826:3948   */\n      tag_214\n      jumpi\n        /* \"#utility.yul\":3867:3946   */\n      tag_215\n      tag_116\n      jump\t// in\n    tag_215:\n        /* \"#utility.yul\":3826:3948   */\n    tag_214:\n        /* \"#utility.yul\":3984:3990   */\n      dup2\n        /* \"#utility.yul\":3971:3991   */\n      calldataload\n        /* \"#utility.yul\":4009:4087   */\n      tag_216\n        /* \"#utility.yul\":4083:4086   */\n      dup5\n        /* \"#utility.yul\":4075:4081   */\n      dup3\n        /* \"#utility.yul\":4068:4072   */\n      0x20\n        /* \"#utility.yul\":4060:4066   */\n      dup7\n        /* \"#utility.yul\":4056:4073   */\n      add\n        /* \"#utility.yul\":4009:4087   */\n      tag_124\n      jump\t// in\n    tag_216:\n        /* \"#utility.yul\":4000:4087   */\n      swap2\n      pop\n        /* \"#utility.yul\":3816:4093   */\n      pop\n        /* \"#utility.yul\":3755:4093   */\n      swap3\n      swap2\n      pop\n      pop\n      jump\t// out\n        /* \"#utility.yul\":4099:4896   */\n    tag_20:\n        /* \"#utility.yul\":4185:4191   */\n      0x00\n        /* \"#utility.yul\":4193:4199   */\n      0x00\n        /* \"#utility.yul\":4201:4207   */\n      0x00\n        /* \"#utility.yul\":4250:4252   */\n      0x60\n        /* \"#utility.yul\":4238:4247   */\n      dup5\n        /* \"#utility.yul\":4229:4236   */\n      dup7\n        /* \"#utility.yul\":4225:4248   */\n      sub\n        /* \"#utility.yul\":4221:4253   */\n      slt\n        /* \"#utility.yul\":4218:4337   */\n      iszero\n      tag_218\n      jumpi\n        /* \"#utility.yul\":4256:4335   */\n      tag_219\n      tag_106\n      jump\t// in\n    tag_219:\n        /* \"#utility.yul\":4218:4337   */\n    tag_218:\n        /* \"#utility.yul\":4376:4377   */\n      0x00\n        /* \"#utility.yul\":4401:4454   */\n      tag_220\n        /* \"#utility.yul\":4446:4453   */\n      dup7\n        /* \"#utility.yul\":4437:4443   */\n      dup3\n        /* \"#utility.yul\":4426:4435   */\n      dup8\n        /* \"#utility.yul\":4422:4444   */\n      add\n        /* \"#utility.yul\":4401:4454   */\n      tag_115\n      jump\t// in\n    tag_220:\n        /* \"#utility.yul\":4391:4454   */\n      swap4\n      pop\n        /* \"#utility.yul\":4347:4464   */\n      pop\n        /* \"#utility.yul\":4503:4505   */\n      0x20\n        /* \"#utility.yul\":4529:4582   */\n      tag_221\n        /* \"#utility.yul\":4574:4581   */\n      dup7\n        /* \"#utility.yul\":4565:4571   */\n      dup3\n        /* \"#utility.yul\":4554:4563   */\n      dup8\n        /* \"#utility.yul\":4550:4572   */\n      add\n        /* \"#utility.yul\":4529:4582   */\n      tag_110\n      jump\t// in\n    tag_221:\n        /* \"#utility.yul\":4519:4582   */\n      swap3\n      pop\n        /* \"#utility.yul\":4474:4592   */\n      pop\n        /* \"#utility.yul\":4659:4661   */\n      0x40\n        /* \"#utility.yul\":4648:4657   */\n      dup5\n        /* \"#utility.yul\":4644:4662   */\n      add\n        /* \"#utility.yul\":4631:4663   */\n      calldataload\n        /* \"#utility.yul\":4690:4708   */\n      0xffffffffffffffff\n        /* \"#utility.yul\":4682:4688   */\n      dup2\n        /* \"#utility.yul\":4679:4709   */\n      gt\n        /* \"#utility.yul\":4676:4793   */\n      iszero\n      tag_222\n      jumpi\n        /* \"#utility.yul\":4712:4791   */\n      tag_223\n      tag_107\n      jump\t// in\n    tag_223:\n        /* \"#utility.yul\":4676:4793   */\n    tag_222:\n        /* \"#utility.yul\":4817:4879   */\n      tag_224\n        /* \"#utility.yul\":4871:4878   */\n      dup7\n        /* \"#utility.yul\":4862:4868   */\n      dup3\n        /* \"#utility.yul\":4851:4860   */\n      dup8\n        /* \"#utility.yul\":4847:4869   */\n      add\n        /* \"#utility.yul\":4817:4879   */\n      tag_125\n      jump\t// in\n    tag_224:\n        /* \"#utility.yul\":4807:4879   */\n      swap2\n      pop\n        /* \"#utility.yul\":4602:4889   */\n      pop\n        /* \"#utility.yul\":4099:4896   */\n      swap3\n      pop\n      swap3\n      pop\n      swap3\n      jump\t// out\n        /* \"#utility.yul\":4902:5020   */\n    tag_126:\n        /* \"#utility.yul\":4989:5013   */\n      tag_226\n        /* \"#utility.yul\":5007:5012   */\n      dup2\n        /* \"#utility.yul\":4989:5013   */\n      tag_108\n      jump\t// in\n    tag_226:\n        /* \"#utility.yul\":4984:4987   */\n      dup3\n        /* \"#utility.yul\":4977:5014   */\n      mstore\n        /* \"#utility.yul\":4902:5020   */\n      pop\n      pop\n      jump\t// out\n        /* \"#utility.yul\":5026:5248   */\n    tag_23:\n        /* \"#utility.yul\":5119:5123   */\n      0x00\n        /* \"#utility.yul\":5157:5159   */\n      0x20\n        /* \"#utility.yul\":5146:5155   */\n      dup3\n        /* \"#utility.yul\":5142:5160   */\n      add\n        /* \"#utility.yul\":5134:5160   */\n      swap1\n      pop\n        /* \"#utility.yul\":5170:5241   */\n      tag_228\n        /* \"#utility.yul\":5238:5239   */\n      0x00\n        /* \"#utility.yul\":5227:5236   */\n      dup4\n        /* \"#utility.yul\":5223:5240   */\n      add\n        /* \"#utility.yul\":5214:5220   */\n      dup5\n        /* \"#utility.yul\":5170:5241   */\n      tag_126\n      jump\t// in\n    tag_228:\n        /* \"#utility.yul\":5026:5248   */\n      swap3\n      swap2\n      pop\n      pop\n      jump\t// out\n        /* \"#utility.yul\":5254:5352   */\n    tag_127:\n        /* \"#utility.yul\":5305:5311   */\n      0x00\n        /* \"#utility.yul\":5339:5344   */\n      dup2\n        /* \"#utility.yul\":5333:5345   */\n      mload\n        /* \"#utility.yul\":5323:5345   */\n      swap1\n      pop\n        /* \"#utility.yul\":5254:5352   */\n      swap2\n      swap1\n      pop\n      jump\t// out\n        /* \"#utility.yul\":5358:5526   */\n    tag_128:\n        /* \"#utility.yul\":5441:5452   */\n      0x00\n        /* \"#utility.yul\":5475:5481   */\n      dup3\n        /* \"#utility.yul\":5470:5473   */\n      dup3\n        /* \"#utility.yul\":5463:5482   */\n      mstore\n        /* \"#utility.yul\":5515:5519   */\n      0x20\n        /* \"#utility.yul\":5510:5513   */\n      dup3\n        /* \"#utility.yul\":5506:5520   */\n      add\n        /* \"#utility.yul\":5491:5520   */\n      swap1\n      pop\n        /* \"#utility.yul\":5358:5526   */\n      swap3\n      swap2\n      pop\n      pop\n      jump\t// out\n        /* \"#utility.yul\":5532:5671   */\n    tag_129:\n        /* \"#utility.yul\":5621:5627   */\n      dup3\n        /* \"#utility.yul\":5616:5619   */\n      dup2\n        /* \"#utility.yul\":5611:5614   */\n      dup4\n        /* \"#utility.yul\":5605:5628   */\n      mcopy\n        /* \"#utility.yul\":5662:5663   */\n      0x00\n        /* \"#utility.yul\":5653:5659   */\n      dup4\n        /* \"#utility.yul\":5648:5651   */\n      dup4\n        /* \"#utility.yul\":5644:5660   */\n      add\n        /* \"#utility.yul\":5637:5664   */\n      mstore\n        /* \"#utility.yul\":5532:5671   */\n      pop\n      pop\n      pop\n      jump\t// out\n        /* \"#utility.yul\":5677:6050   */\n    tag_130:\n        /* \"#utility.yul\":5763:5766   */\n      0x00\n        /* \"#utility.yul\":5791:5829   */\n      tag_233\n        /* \"#utility.yul\":5823:5828   */\n      dup3\n        /* \"#utility.yul\":5791:5829   */\n      tag_127\n      jump\t// in\n    tag_233:\n        /* \"#utility.yul\":5845:5915   */\n      tag_234\n        /* \"#utility.yul\":5908:5914   */\n      dup2\n        /* \"#utility.yul\":5903:5906   */\n      dup6\n        /* \"#utility.yul\":5845:5915   */\n      tag_128\n      jump\t// in\n    tag_234:\n        /* \"#utility.yul\":5838:5915   */\n      swap4\n      pop\n        /* \"#utility.yul\":5924:5989   */\n      tag_235\n        /* \"#utility.yul\":5982:5988   */\n      dup2\n        /* \"#utility.yul\":5977:5980   */\n      dup6\n        /* \"#utility.yul\":5970:5974   */\n      0x20\n        /* \"#utility.yul\":5963:5968   */\n      dup7\n        /* \"#utility.yul\":5959:5975   */\n      add\n        /* \"#utility.yul\":5924:5989   */\n      tag_129\n      jump\t// in\n    tag_235:\n        /* \"#utility.yul\":6014:6043   */\n      tag_236\n        /* \"#utility.yul\":6036:6042   */\n      dup2\n        /* \"#utility.yul\":6014:6043   */\n      tag_118\n      jump\t// in\n    tag_236:\n        /* \"#utility.yul\":6009:6012   */\n      dup5\n        /* \"#utility.yul\":6005:6044   */\n      add\n        /* \"#utility.yul\":5998:6044   */\n      swap2\n      pop\n        /* \"#utility.yul\":5767:6050   */\n      pop\n        /* \"#utility.yul\":5677:6050   */\n      swap3\n      swap2\n      pop\n      pop\n      jump\t// out\n        /* \"#utility.yul\":6056:6146   */\n    tag_131:\n        /* \"#utility.yul\":6090:6097   */\n      0x00\n        /* \"#utility.yul\":6133:6138   */\n      dup2\n        /* \"#utility.yul\":6126:6139   */\n      iszero\n        /* \"#utility.yul\":6119:6140   */\n      iszero\n        /* \"#utility.yul\":6108:6140   */\n      swap1\n      pop\n        /* \"#utility.yul\":6056:6146   */\n      swap2\n      swap1\n      pop\n      jump\t// out\n        /* \"#utility.yul\":6152:6261   */\n    tag_132:\n        /* \"#utility.yul\":6233:6254   */\n      tag_239\n        /* \"#utility.yul\":6248:6253   */\n      dup2\n        /* \"#utility.yul\":6233:6254   */\n      tag_131\n      jump\t// in\n    tag_239:\n        /* \"#utility.yul\":6228:6231   */\n      dup3\n        /* \"#utility.yul\":6221:6255   */\n      mstore\n        /* \"#utility.yul\":6152:6261   */\n      pop\n      pop\n      jump\t// out\n        /* \"#utility.yul\":6267:7006   */\n    tag_28:\n        /* \"#utility.yul\":6484:6488   */\n      0x00\n        /* \"#utility.yul\":6522:6525   */\n      0xa0\n        /* \"#utility.yul\":6511:6520   */\n      dup3\n        /* \"#utility.yul\":6507:6526   */\n      add\n        /* \"#utility.yul\":6499:6526   */\n      swap1\n      pop\n        /* \"#utility.yul\":6536:6607   */\n      tag_241\n        /* \"#utility.yul\":6604:6605   */\n      0x00\n        /* \"#utility.yul\":6593:6602   */\n      dup4\n        /* \"#utility.yul\":6589:6606   */\n      add\n        /* \"#utility.yul\":6580:6586   */\n      dup9\n        /* \"#utility.yul\":6536:6607   */\n      tag_113\n      jump\t// in\n    tag_241:\n        /* \"#utility.yul\":6617:6689   */\n      tag_242\n        /* \"#utility.yul\":6685:6687   */\n      0x20\n        /* \"#utility.yul\":6674:6683   */\n      dup4\n        /* \"#utility.yul\":6670:6688   */\n      add\n        /* \"#utility.yul\":6661:6667   */\n      dup8\n        /* \"#utility.yul\":6617:6689   */\n      tag_126\n      jump\t// in\n    tag_242:\n        /* \"#utility.yul\":6736:6745   */\n      dup2\n        /* \"#utility.yul\":6730:6734   */\n      dup2\n        /* \"#utility.yul\":6726:6746   */\n      sub\n        /* \"#utility.yul\":6721:6723   */\n      0x40\n        /* \"#utility.yul\":6710:6719   */\n      dup4\n        /* \"#utility.yul\":6706:6724   */\n      add\n        /* \"#utility.yul\":6699:6747   */\n      mstore\n        /* \"#utility.yul\":6764:6840   */\n      tag_243\n        /* \"#utility.yul\":6835:6839   */\n      dup2\n        /* \"#utility.yul\":6826:6832   */\n      dup7\n        /* \"#utility.yul\":6764:6840   */\n      tag_130\n      jump\t// in\n    tag_243:\n        /* \"#utility.yul\":6756:6840   */\n      swap1\n      pop\n        /* \"#utility.yul\":6850:6916   */\n      tag_244\n        /* \"#utility.yul\":6912:6914   */\n      0x60\n        /* \"#utility.yul\":6901:6910   */\n      dup4\n        /* \"#utility.yul\":6897:6915   */\n      add\n        /* \"#utility.yul\":6888:6894   */\n      dup6\n        /* \"#utility.yul\":6850:6916   */\n      tag_132\n      jump\t// in\n    tag_244:\n        /* \"#utility.yul\":6926:6999   */\n      tag_245\n        /* \"#utility.yul\":6994:6997   */\n      0x80\n        /* \"#utility.yul\":6983:6992   */\n      dup4\n        /* \"#utility.yul\":6979:6998   */\n      add\n        /* \"#utility.yul\":6970:6976   */\n      dup5\n        /* \"#utility.yul\":6926:6999   */\n      tag_126\n      jump\t// in\n    tag_245:\n        /* \"#utility.yul\":6267:7006   */\n      swap7\n      swap6\n      pop\n      pop\n      pop\n      pop\n      pop\n      pop\n      jump\t// out\n        /* \"#utility.yul\":7012:7341   */\n    tag_31:\n        /* \"#utility.yul\":7071:7077   */\n      0x00\n        /* \"#utility.yul\":7120:7122   */\n      0x20\n        /* \"#utility.yul\":7108:7117   */\n      dup3\n        /* \"#utility.yul\":7099:7106   */\n      dup5\n        /* \"#utility.yul\":7095:7118   */\n      sub\n        /* \"#utility.yul\":7091:7123   */\n      slt\n        /* \"#utility.yul\":7088:7207   */\n      iszero\n      tag_247\n      jumpi\n        /* \"#utility.yul\":7126:7205   */\n      tag_248\n      tag_106\n      jump\t// in\n    tag_248:\n        /* \"#utility.yul\":7088:7207   */\n    tag_247:\n        /* \"#utility.yul\":7246:7247   */\n      0x00\n        /* \"#utility.yul\":7271:7324   */\n      tag_249\n        /* \"#utility.yul\":7316:7323   */\n      dup5\n        /* \"#utility.yul\":7307:7313   */\n      dup3\n        /* \"#utility.yul\":7296:7305   */\n      dup6\n        /* \"#utility.yul\":7292:7314   */\n      add\n        /* \"#utility.yul\":7271:7324   */\n      tag_115\n      jump\t// in\n    tag_249:\n        /* \"#utility.yul\":7261:7324   */\n      swap2\n      pop\n        /* \"#utility.yul\":7217:7334   */\n      pop\n        /* \"#utility.yul\":7012:7341   */\n      swap3\n      swap2\n      pop\n      pop\n      jump\t// out\n        /* \"#utility.yul\":7347:7557   */\n    tag_34:\n        /* \"#utility.yul\":7434:7438   */\n      0x00\n        /* \"#utility.yul\":7472:7474   */\n      0x20\n        /* \"#utility.yul\":7461:7470   */\n      dup3\n        /* \"#utility.yul\":7457:7475   */\n      add\n        /* \"#utility.yul\":7449:7475   */\n      swap1\n      pop\n        /* \"#utility.yul\":7485:7550   */\n      tag_251\n        /* \"#utility.yul\":7547:7548   */\n      0x00\n        /* \"#utility.yul\":7536:7545   */\n      dup4\n        /* \"#utility.yul\":7532:7549   */\n      add\n        /* \"#utility.yul\":7523:7529   */\n      dup5\n        /* \"#utility.yul\":7485:7550   */\n      tag_132\n      jump\t// in\n    tag_251:\n        /* \"#utility.yul\":7347:7557   */\n      swap3\n      swap2\n      pop\n      pop\n      jump\t// out\n        /* \"#utility.yul\":7563:8037   */\n    tag_37:\n        /* \"#utility.yul\":7631:7637   */\n      0x00\n        /* \"#utility.yul\":7639:7645   */\n      0x00\n        /* \"#utility.yul\":7688:7690   */\n      0x40\n        /* \"#utility.yul\":7676:7685   */\n      dup4\n        /* \"#utility.yul\":7667:7674   */\n      dup6\n        /* \"#utility.yul\":7663:7686   */\n      sub\n        /* \"#utility.yul\":7659:7691   */\n      slt\n        /* \"#utility.yul\":7656:7775   */\n      iszero\n      tag_253\n      jumpi\n        /* \"#utility.yul\":7694:7773   */\n      tag_254\n      tag_106\n      jump\t// in\n    tag_254:\n        /* \"#utility.yul\":7656:7775   */\n    tag_253:\n        /* \"#utility.yul\":7814:7815   */\n      0x00\n        /* \"#utility.yul\":7839:7892   */\n      tag_255\n        /* \"#utility.yul\":7884:7891   */\n      dup6\n        /* \"#utility.yul\":7875:7881   */\n      dup3\n        /* \"#utility.yul\":7864:7873   */\n      dup7\n        /* \"#utility.yul\":7860:7882   */\n      add\n        /* \"#utility.yul\":7839:7892   */\n      tag_110\n      jump\t// in\n    tag_255:\n        /* \"#utility.yul\":7829:7892   */\n      swap3\n      pop\n        /* \"#utility.yul\":7785:7902   */\n      pop\n        /* \"#utility.yul\":7941:7943   */\n      0x20\n        /* \"#utility.yul\":7967:8020   */\n      tag_256\n        /* \"#utility.yul\":8012:8019   */\n      dup6\n        /* \"#utility.yul\":8003:8009   */\n      dup3\n        /* \"#utility.yul\":7992:8001   */\n      dup7\n        /* \"#utility.yul\":7988:8010   */\n      add\n        /* \"#utility.yul\":7967:8020   */\n      tag_115\n      jump\t// in\n    tag_256:\n        /* \"#utility.yul\":7957:8020   */\n      swap2\n      pop\n        /* \"#utility.yul\":7912:8030   */\n      pop\n        /* \"#utility.yul\":7563:8037   */\n      swap3\n      pop\n      swap3\n      swap1\n      pop\n      jump\t// out\n        /* \"#utility.yul\":8043:8212   */\n    tag_133:\n        /* \"#utility.yul\":8127:8138   */\n      0x00\n        /* \"#utility.yul\":8161:8167   */\n      dup3\n        /* \"#utility.yul\":8156:8159   */\n      dup3\n        /* \"#utility.yul\":8149:8168   */\n      mstore\n        /* \"#utility.yul\":8201:8205   */\n      0x20\n        /* \"#utility.yul\":8196:8199   */\n      dup3\n        /* \"#utility.yul\":8192:8206   */\n      add\n        /* \"#utility.yul\":8177:8206   */\n      swap1\n      pop\n        /* \"#utility.yul\":8043:8212   */\n      swap3\n      swap2\n      pop\n      pop\n      jump\t// out\n        /* \"#utility.yul\":8218:8377   */\n    tag_134:\n        /* \"#utility.yul\":8358:8369   */\n      0x4e6f74206f776e65720000000000000000000000000000000000000000000000\n        /* \"#utility.yul\":8354:8355   */\n      0x00\n        /* \"#utility.yul\":8346:8352   */\n      dup3\n        /* \"#utility.yul\":8342:8356   */\n      add\n        /* \"#utility.yul\":8335:8370   */\n      mstore\n        /* \"#utility.yul\":8218:8377   */\n      pop\n      jump\t// out\n        /* \"#utility.yul\":8383:8748   */\n    tag_135:\n        /* \"#utility.yul\":8525:8528   */\n      0x00\n        /* \"#utility.yul\":8546:8612   */\n      tag_260\n        /* \"#utility.yul\":8610:8611   */\n      0x09\n        /* \"#utility.yul\":8605:8608   */\n      dup4\n        /* \"#utility.yul\":8546:8612   */\n      tag_133\n      jump\t// in\n    tag_260:\n        /* \"#utility.yul\":8539:8612   */\n      swap2\n      pop\n        /* \"#utility.yul\":8621:8714   */\n      tag_261\n        /* \"#utility.yul\":8710:8713   */\n      dup3\n        /* \"#utility.yul\":8621:8714   */\n      tag_134\n      jump\t// in\n    tag_261:\n        /* \"#utility.yul\":8739:8741   */\n      0x20\n        /* \"#utility.yul\":8734:8737   */\n      dup3\n        /* \"#utility.yul\":8730:8742   */\n      add\n        /* \"#utility.yul\":8723:8742   */\n      swap1\n      pop\n        /* \"#utility.yul\":8383:8748   */\n      swap2\n      swap1\n      pop\n      jump\t// out\n        /* \"#utility.yul\":8754:9173   */\n    tag_54:\n        /* \"#utility.yul\":8920:8924   */\n      0x00\n        /* \"#utility.yul\":8958:8960   */\n      0x20\n        /* \"#utility.yul\":8947:8956   */\n      dup3\n        /* \"#utility.yul\":8943:8961   */\n      add\n        /* \"#utility.yul\":8935:8961   */\n      swap1\n      pop\n        /* \"#utility.yul\":9007:9016   */\n      dup2\n        /* \"#utility.yul\":9001:9005   */\n      dup2\n        /* \"#utility.yul\":8997:9017   */\n      sub\n        /* \"#utility.yul\":8993:8994   */\n      0x00\n        /* \"#utility.yul\":8982:8991   */\n      dup4\n        /* \"#utility.yul\":8978:8995   */\n      add\n        /* \"#utility.yul\":8971:9018   */\n      mstore\n        /* \"#utility.yul\":9035:9166   */\n      tag_263\n        /* \"#utility.yul\":9161:9165   */\n      dup2\n        /* \"#utility.yul\":9035:9166   */\n      tag_135\n      jump\t// in\n    tag_263:\n        /* \"#utility.yul\":9027:9166   */\n      swap1\n      pop\n        /* \"#utility.yul\":8754:9173   */\n      swap2\n      swap1\n      pop\n      jump\t// out\n        /* \"#utility.yul\":9179:9359   */\n    tag_136:\n        /* \"#utility.yul\":9227:9304   */\n      0x4e487b7100000000000000000000000000000000000000000000000000000000\n        /* \"#utility.yul\":9224:9225   */\n      0x00\n        /* \"#utility.yul\":9217:9305   */\n      mstore\n        /* \"#utility.yul\":9324:9328   */\n      0x22\n        /* \"#utility.yul\":9321:9322   */\n      0x04\n        /* \"#utility.yul\":9314:9329   */\n      mstore\n        /* \"#utility.yul\":9348:9352   */\n      0x24\n        /* \"#utility.yul\":9345:9346   */\n      0x00\n        /* \"#utility.yul\":9338:9353   */\n      revert\n        /* \"#utility.yul\":9365:9685   */\n    tag_62:\n        /* \"#utility.yul\":9409:9415   */\n      0x00\n        /* \"#utility.yul\":9446:9447   */\n      0x02\n        /* \"#utility.yul\":9440:9444   */\n      dup3\n        /* \"#utility.yul\":9436:9448   */\n      div\n        /* \"#utility.yul\":9426:9448   */\n      swap1\n      pop\n        /* \"#utility.yul\":9493:9494   */\n      0x01\n        /* \"#utility.yul\":9487:9491   */\n      dup3\n        /* \"#utility.yul\":9483:9495   */\n      and\n        /* \"#utility.yul\":9514:9532   */\n      dup1\n        /* \"#utility.yul\":9504:9585   */\n      tag_266\n      jumpi\n        /* \"#utility.yul\":9570:9574   */\n      0x7f\n        /* \"#utility.yul\":9562:9568   */\n      dup3\n        /* \"#utility.yul\":9558:9575   */\n      and\n        /* \"#utility.yul\":9548:9575   */\n      swap2\n      pop\n        /* \"#utility.yul\":9504:9585   */\n    tag_266:\n        /* \"#utility.yul\":9632:9634   */\n      0x20\n        /* \"#utility.yul\":9624:9630   */\n      dup3\n        /* \"#utility.yul\":9621:9635   */\n      lt\n        /* \"#utility.yul\":9601:9619   */\n      dup2\n        /* \"#utility.yul\":9598:9636   */\n      sub\n        /* \"#utility.yul\":9595:9679   */\n      tag_267\n      jumpi\n        /* \"#utility.yul\":9651:9669   */\n      tag_268\n      tag_136\n      jump\t// in\n    tag_268:\n        /* \"#utility.yul\":9595:9679   */\n    tag_267:\n        /* \"#utility.yul\":9416:9685   */\n      pop\n        /* \"#utility.yul\":9365:9685   */\n      swap2\n      swap1\n      pop\n      jump\t// out\n        /* \"#utility.yul\":9691:9831   */\n    tag_137:\n        /* \"#utility.yul\":9739:9743   */\n      0x00\n        /* \"#utility.yul\":9762:9765   */\n      dup2\n        /* \"#utility.yul\":9754:9765   */\n      swap1\n      pop\n        /* \"#utility.yul\":9785:9788   */\n      dup2\n        /* \"#utility.yul\":9782:9783   */\n      0x00\n        /* \"#utility.yul\":9775:9789   */\n      mstore\n        /* \"#utility.yul\":9819:9823   */\n      0x20\n        /* \"#utility.yul\":9816:9817   */\n      0x00\n        /* \"#utility.yul\":9806:9824   */\n      keccak256\n        /* \"#utility.yul\":9798:9824   */\n      swap1\n      pop\n        /* \"#utility.yul\":9691:9831   */\n      swap2\n      swap1\n      pop\n      jump\t// out\n        /* \"#utility.yul\":9837:9930   */\n    tag_138:\n        /* \"#utility.yul\":9874:9880   */\n      0x00\n        /* \"#utility.yul\":9921:9923   */\n      0x20\n        /* \"#utility.yul\":9916:9918   */\n      0x1f\n        /* \"#utility.yul\":9909:9914   */\n      dup4\n        /* \"#utility.yul\":9905:9919   */\n      add\n        /* \"#utility.yul\":9901:9924   */\n      div\n        /* \"#utility.yul\":9891:9924   */\n      swap1\n      pop\n        /* \"#utility.yul\":9837:9930   */\n      swap2\n      swap1\n      pop\n      jump\t// out\n        /* \"#utility.yul\":9936:10043   */\n    tag_139:\n        /* \"#utility.yul\":9980:9988   */\n      0x00\n        /* \"#utility.yul\":10030:10035   */\n      dup3\n        /* \"#utility.yul\":10024:10028   */\n      dup3\n        /* \"#utility.yul\":10020:10036   */\n      shl\n        /* \"#utility.yul\":9999:10036   */\n      swap1\n      pop\n        /* \"#utility.yul\":9936:10043   */\n      swap3\n      swap2\n      pop\n      pop\n      jump\t// out\n        /* \"#utility.yul\":10049:10442   */\n    tag_140:\n        /* \"#utility.yul\":10118:10124   */\n      0x00\n        /* \"#utility.yul\":10168:10169   */\n      0x08\n        /* \"#utility.yul\":10156:10166   */\n      dup4\n        /* \"#utility.yul\":10152:10170   */\n      mul\n        /* \"#utility.yul\":10191:10288   */\n      tag_273\n        /* \"#utility.yul\":10221:10287   */\n      0xffffffffffffffffffffffffffffffffffffffffffffffffffffffffffffffff\n        /* \"#utility.yul\":10210:10219   */\n      dup3\n        /* \"#utility.yul\":10191:10288   */\n      tag_139\n      jump\t// in\n    tag_273:\n        /* \"#utility.yul\":10309:10348   */\n      tag_274\n        /* \"#utility.yul\":10339:10347   */\n      dup7\n        /* \"#utility.yul\":10328:10337   */\n      dup4\n        /* \"#utility.yul\":10309:10348   */\n      tag_139\n      jump\t// in\n    tag_274:\n        /* \"#utility.yul\":10297:10348   */\n      swap6\n      pop\n        /* \"#utility.yul\":10381:10385   */\n      dup1\n        /* \"#utility.yul\":10377:10386   */\n      not\n        /* \"#utility.yul\":10370:10375   */\n      dup5\n        /* \"#utility.yul\":10366:10387   */\n      and\n        /* \"#utility.yul\":10357:10387   */\n      swap4\n      pop\n        /* \"#utility.yul\":10430:10434   */\n      dup1\n        /* \"#utility.yul\":10420:10428   */\n      dup7\n        /* \"#utility.yul\":10416:10435   */\n      and\n        /* \"#utility.yul\":10409:10414   */\n      dup5\n        /* \"#utility.yul\":10406:10436   */\n      or\n        /* \"#utility.yul\":10396:10436   */\n      swap3\n      pop\n        /* \"#utility.yul\":10125:10442   */\n      pop\n      pop\n        /* \"#utility.yul\":10049:10442   */\n      swap4\n      swap3\n      pop\n      pop\n      pop\n      jump\t// out\n        /* \"#utility.yul\":10448:10508   */\n    tag_141:\n        /* \"#utility.yul\":10476:10479   */\n      0x00\n        /* \"#utility.yul\":10497:10502   */\n      dup2\n        /* \"#utility.yul\":10490:10502   */\n      swap1\n      pop\n        /* \"#utility.yul\":10448:10508   */\n      swap2\n      swap1\n      pop\n      jump\t// out\n        /* \"#utility.yul\":10514:10656   */\n    tag_142:\n        /* \"#utility.yul\":10564:10573   */\n      0x00\n        /* \"#utility.yul\":10597:10650   */\n      tag_277\n        /* \"#utility.yul\":10615:10649   */\n      tag_278\n        /* \"#utility.yul\":10624:10648   */\n      tag_279\n        /* \"#utility.yul\":10642:10647   */\n      dup5\n        /* \"#utility.yul\":10624:10648   */\n      tag_108\n      jump\t// in\n    tag_279:\n        /* \"#utility.yul\":10615:10649   */\n      tag_141\n      jump\t// in\n    tag_278:\n        /* \"#utility.yul\":10597:10650   */\n      tag_108\n      jump\t// in\n    tag_277:\n        /* \"#utility.yul\":10584:10650   */\n      swap1\n      pop\n        /* \"#utility.yul\":10514:10656   */\n      swap2\n      swap1\n      pop\n      jump\t// out\n        /* \"#utility.yul\":10662:10737   */\n    tag_143:\n        /* \"#utility.yul\":10705:10708   */\n      0x00\n        /* \"#utility.yul\":10726:10731   */\n      dup2\n        /* \"#utility.yul\":10719:10731   */\n      swap1\n      pop\n        /* \"#utility.yul\":10662:10737   */\n      swap2\n      swap1\n      pop\n      jump\t// out\n        /* \"#utility.yul\":10743:11012   */\n    tag_144:\n        /* \"#utility.yul\":10853:10892   */\n      tag_282\n        /* \"#utility.yul\":10884:10891   */\n      dup4\n        /* \"#utility.yul\":10853:10892   */\n      tag_142\n      jump\t// in\n    tag_282:\n        /* \"#utility.yul\":10914:11005   */\n      tag_283\n        /* \"#utility.yul\":10963:11004   */\n      tag_284\n        /* \"#utility.yul\":10987:11003   */\n      dup3\n        /* \"#utility.yul\":10963:11004   */\n      tag_143\n      jump\t// in\n    tag_284:\n        /* \"#utility.yul\":10955:10961   */\n      dup5\n        /* \"#utility.yul\":10948:10952   */\n      dup5\n        /* \"#utility.yul\":10942:10953   */\n      sload\n        /* \"#utility.yul\":10914:11005   */\n      tag_140\n      jump\t// in\n    tag_283:\n        /* \"#utility.yul\":10908:10912   */\n      dup3\n        /* \"#utility.yul\":10901:11006   */\n      sstore\n        /* \"#utility.yul\":10819:11012   */\n      pop\n        /* \"#utility.yul\":10743:11012   */\n      pop\n      pop\n      pop\n      jump\t// out\n        /* \"#utility.yul\":11018:11091   */\n    tag_145:\n        /* \"#utility.yul\":11063:11066   */\n      0x00\n        /* \"#utility.yul\":11084:11085   */\n      0x00\n        /* \"#utility.yul\":11077:11085   */\n      swap1\n      pop\n        /* \"#utility.yul\":11018:11091   */\n      swap1\n      jump\t// out\n        /* \"#utility.yul\":11097:11286   */\n    tag_146:\n        /* \"#utility.yul\":11174:11206   */\n      tag_287\n      tag_145\n      jump\t// in\n    tag_287:\n        /* \"#utility.yul\":11215:11280   */\n      tag_288\n        /* \"#utility.yul\":11273:11279   */\n      dup2\n        /* \"#utility.yul\":11265:11271   */\n      dup5\n        /* \"#utility.yul\":11259:11263   */\n      dup5\n        /* \"#utility.yul\":11215:11280   */\n      tag_144\n      jump\t// in\n    tag_288:\n        /* \"#utility.yul\":11150:11286   */\n      pop\n        /* \"#utility.yul\":11097:11286   */\n      pop\n      pop\n      jump\t// out\n        /* \"#utility.yul\":11292:11478   */\n    tag_147:\n        /* \"#utility.yul\":11352:11472   */\n    tag_290:\n        /* \"#utility.yul\":11369:11372   */\n      dup2\n        /* \"#utility.yul\":11362:11367   */\n      dup2\n        /* \"#utility.yul\":11359:11373   */\n      lt\n        /* \"#utility.yul\":11352:11472   */\n      iszero\n      tag_292\n      jumpi\n        /* \"#utility.yul\":11423:11462   */\n      tag_293\n        /* \"#utility.yul\":11460:11461   */\n      0x00\n        /* \"#utility.yul\":11453:11458   */\n      dup3\n        /* \"#utility.yul\":11423:11462   */\n      tag_146\n      jump\t// in\n    tag_293:\n        /* \"#utility.yul\":11396:11397   */\n      0x01\n        /* \"#utility.yul\":11389:11394   */\n      dup2\n        /* \"#utility.yul\":11385:11398   */\n      add\n        /* \"#utility.yul\":11376:11398   */\n      swap1\n      pop\n        /* \"#utility.yul\":11352:11472   */\n      jump(tag_290)\n    tag_292:\n        /* \"#utility.yul\":11292:11478   */\n      pop\n      pop\n      jump\t// out\n        /* \"#utility.yul\":11484:12025   */\n    tag_148:\n        /* \"#utility.yul\":11584:11586   */\n      0x1f\n        /* \"#utility.yul\":11579:11582   */\n      dup3\n        /* \"#utility.yul\":11576:11587   */\n      gt\n        /* \"#utility.yul\":11573:12018   */\n      iszero\n      tag_295\n      jumpi\n        /* \"#utility.yul\":11618:11655   */\n      tag_296\n        /* \"#utility.yul\":11649:11654   */\n      dup2\n        /* \"#utility.yul\":11618:11655   */\n      tag_137\n      jump\t// in\n    tag_296:\n        /* \"#utility.yul\":11701:11730   */\n      tag_297\n        /* \"#utility.yul\":11719:11729   */\n      dup5\n        /* \"#utility.yul\":11701:11730   */\n      tag_138\n      jump\t// in\n    tag_297:\n        /* \"#utility.yul\":11691:11699   */\n      dup2\n        /* \"#utility.yul\":11687:11731   */\n      add\n        /* \"#utility.yul\":11884:11886   */\n      0x20\n        /* \"#utility.yul\":11872:11882   */\n      dup6\n        /* \"#utility.yul\":11869:11887   */\n      lt\n        /* \"#utility.yul\":11866:11915   */\n      iszero\n      tag_298\n      jumpi\n        /* \"#utility.yul\":11905:11913   */\n      dup2\n        /* \"#utility.yul\":11890:11913   */\n      swap1\n      pop\n        /* \"#utility.yul\":11866:11915   */\n    tag_298:\n        /* \"#utility.yul\":11928:12008   */\n      tag_299\n        /* \"#utility.yul\":11984:12006   */\n      tag_300\n        /* \"#utility.yul\":12002:12005   */\n      dup6\n        /* \"#utility.yul\":11984:12006   */\n      tag_138\n      jump\t// in\n    tag_300:\n        /* \"#utility.yul\":11974:11982   */\n      dup4\n        /* \"#utility.yul\":11970:12007   */\n      add\n        /* \"#utility.yul\":11957:11968   */\n      dup3\n        /* \"#utility.yul\":11928:12008   */\n      tag_147\n      jump\t// in\n    tag_299:\n        /* \"#utility.yul\":11588:12018   */\n      pop\n      pop\n        /* \"#utility.yul\":11573:12018   */\n    tag_295:\n        /* \"#utility.yul\":11484:12025   */\n      pop\n      pop\n      pop\n      jump\t// out\n        /* \"#utility.yul\":12031:12148   */\n    tag_149:\n        /* \"#utility.yul\":12085:12093   */\n      0x00\n        /* \"#utility.yul\":12135:12140   */\n      dup3\n        /* \"#utility.yul\":12129:12133   */\n      dup3\n        /* \"#utility.yul\":12125:12141   */\n      shr\n        /* \"#utility.yul\":12104:12141   */\n      swap1\n      pop\n        /* \"#utility.yul\":12031:12148   */\n      swap3\n      swap2\n      pop\n      pop\n      jump\t// out\n        /* \"#utility.yul\":12154:12323   */\n    tag_150:\n        /* \"#utility.yul\":12198:12204   */\n      0x00\n        /* \"#utility.yul\":12231:12282   */\n      tag_303\n        /* \"#utility.yul\":12279:12280   */\n      0x00\n        /* \"#utility.yul\":12275:12281   */\n      not\n        /* \"#utility.yul\":12267:12272   */\n      dup5\n        /* \"#utility.yul\":12264:12265   */\n      0x08\n        /* \"#utility.yul\":12260:12273   */\n      mul\n        /* \"#utility.yul\":12231:12282   */\n      tag_149\n      jump\t// in\n    tag_303:\n        /* \"#utility.yul\":12227:12283   */\n      not\n        /* \"#utility.yul\":12312:12316   */\n      dup1\n        /* \"#utility.yul\":12306:12310   */\n      dup4\n        /* \"#utility.yul\":12302:12317   */\n      and\n        /* \"#utility.yul\":12292:12317   */\n      swap2\n      pop\n        /* \"#utility.yul\":12205:12323   */\n      pop\n        /* \"#utility.yul\":12154:12323   */\n      swap3\n      swap2\n      pop\n      pop\n      jump\t// out\n        /* \"#utility.yul\":12328:12623   */\n    tag_151:\n        /* \"#utility.yul\":12404:12408   */\n      0x00\n        /* \"#utility.yul\":12550:12579   */\n      tag_305\n        /* \"#utility.yul\":12575:12578   */\n      dup4\n        /* \"#utility.yul\":12569:12573   */\n      dup4\n        /* \"#utility.yul\":12550:12579   */\n      tag_150\n      jump\t// in\n    tag_305:\n        /* \"#utility.yul\":12542:12579   */\n      swap2\n      pop\n        /* \"#utility.yul\":12612:12615   */\n      dup3\n        /* \"#utility.yul\":12609:12610   */\n      0x02\n        /* \"#utility.yul\":12605:12616   */\n      mul\n        /* \"#utility.yul\":12599:12603   */\n      dup3\n        /* \"#utility.yul\":12596:12617   */\n      or\n        /* \"#utility.yul\":12588:12617   */\n      swap1\n      pop\n        /* \"#utility.yul\":12328:12623   */\n      swap3\n      swap2\n      pop\n      pop\n      jump\t// out\n        /* \"#utility.yul\":12628:14018   */\n    tag_58:\n        /* \"#utility.yul\":12743:12779   */\n      tag_307\n        /* \"#utility.yul\":12775:12778   */\n      dup3\n        /* \"#utility.yul\":12743:12779   */\n      tag_127\n      jump\t// in\n    tag_307:\n        /* \"#utility.yul\":12844:12862   */\n      0xffffffffffffffff\n        /* \"#utility.yul\":12836:12842   */\n      dup2\n        /* \"#utility.yul\":12833:12863   */\n      gt\n        /* \"#utility.yul\":12830:12886   */\n      iszero\n      tag_308\n      jumpi\n        /* \"#utility.yul\":12866:12884   */\n      tag_309\n      tag_119\n      jump\t// in\n    tag_309:\n        /* \"#utility.yul\":12830:12886   */\n    tag_308:\n        /* \"#utility.yul\":12910:12948   */\n      tag_310\n        /* \"#utility.yul\":12942:12946   */\n      dup3\n        /* \"#utility.yul\":12936:12947   */\n      sload\n        /* \"#utility.yul\":12910:12948   */\n      tag_62\n      jump\t// in\n    tag_310:\n        /* \"#utility.yul\":12995:13061   */\n      tag_311\n        /* \"#utility.yul\":13054:13060   */\n      dup3\n        /* \"#utility.yul\":13046:13052   */\n      dup3\n        /* \"#utility.yul\":13040:13044   */\n      dup6\n        /* \"#utility.yul\":12995:13061   */\n      tag_148\n      jump\t// in\n    tag_311:\n        /* \"#utility.yul\":13088:13089   */\n      0x00\n        /* \"#utility.yul\":13112:13116   */\n      0x20\n        /* \"#utility.yul\":13099:13116   */\n      swap1\n      pop\n        /* \"#utility.yul\":13144:13146   */\n      0x1f\n        /* \"#utility.yul\":13136:13142   */\n      dup4\n        /* \"#utility.yul\":13133:13147   */\n      gt\n        /* \"#utility.yul\":13161:13162   */\n      0x01\n        /* \"#utility.yul\":13156:13773   */\n      dup2\n      eq\n      tag_313\n      jumpi\n        /* \"#utility.yul\":13817:13818   */\n      0x00\n        /* \"#utility.yul\":13834:13840   */\n      dup5\n        /* \"#utility.yul\":13831:13908   */\n      iszero\n      tag_314\n      jumpi\n        /* \"#utility.yul\":13883:13892   */\n      dup3\n        /* \"#utility.yul\":13878:13881   */\n      dup8\n        /* \"#utility.yul\":13874:13893   */\n      add\n        /* \"#utility.yul\":13868:13894   */\n      mload\n        /* \"#utility.yul\":13859:13894   */\n      swap1\n      pop\n        /* \"#utility.yul\":13831:13908   */\n    tag_314:\n        /* \"#utility.yul\":13934:14001   */\n      tag_315\n        /* \"#utility.yul\":13994:14000   */\n      dup6\n        /* \"#utility.yul\":13987:13992   */\n      dup3\n        /* \"#utility.yul\":13934:14001   */\n      tag_151\n      jump\t// in\n    tag_315:\n        /* \"#utility.yul\":13928:13932   */\n      dup7\n        /* \"#utility.yul\":13921:14002   */\n      sstore\n        /* \"#utility.yul\":13790:14012   */\n      pop\n        /* \"#utility.yul\":13126:14012   */\n      jump(tag_312)\n        /* \"#utility.yul\":13156:13773   */\n    tag_313:\n        /* \"#utility.yul\":13208:13212   */\n      0x1f\n        /* \"#utility.yul\":13204:13213   */\n      not\n        /* \"#utility.yul\":13196:13202   */\n      dup5\n        /* \"#utility.yul\":13192:13214   */\n      and\n        /* \"#utility.yul\":13242:13278   */\n      tag_316\n        /* \"#utility.yul\":13273:13277   */\n      dup7\n        /* \"#utility.yul\":13242:13278   */\n      tag_137\n      jump\t// in\n    tag_316:\n        /* \"#utility.yul\":13300:13301   */\n      0x00\n        /* \"#utility.yul\":13314:13522   */\n    tag_317:\n        /* \"#utility.yul\":13328:13335   */\n      dup3\n        /* \"#utility.yul\":13325:13326   */\n      dup2\n        /* \"#utility.yul\":13322:13336   */\n      lt\n        /* \"#utility.yul\":13314:13522   */\n      iszero\n      tag_319\n      jumpi\n        /* \"#utility.yul\":13407:13416   */\n      dup5\n        /* \"#utility.yul\":13402:13405   */\n      dup10\n        /* \"#utility.yul\":13398:13417   */\n      add\n        /* \"#utility.yul\":13392:13418   */\n      mload\n        /* \"#utility.yul\":13384:13390   */\n      dup3\n        /* \"#utility.yul\":13377:13419   */\n      sstore\n        /* \"#utility.yul\":13458:13459   */\n      0x01\n        /* \"#utility.yul\":13450:13456   */\n      dup3\n        /* \"#utility.yul\":13446:13460   */\n      add\n        /* \"#utility.yul\":13436:13460   */\n      swap2\n      pop\n        /* \"#utility.yul\":13505:13507   */\n      0x20\n        /* \"#utility.yul\":13494:13503   */\n      dup6\n        /* \"#utility.yul\":13490:13508   */\n      add\n        /* \"#utility.yul\":13477:13508   */\n      swap5\n      pop\n        /* \"#utility.yul\":13351:13355   */\n      0x20\n        /* \"#utility.yul\":13348:13349   */\n      dup2\n        /* \"#utility.yul\":13344:13356   */\n      add\n        /* \"#utility.yul\":13339:13356   */\n      swap1\n      pop\n        /* \"#utility.yul\":13314:13522   */\n      jump(tag_317)\n    tag_319:\n        /* \"#utility.yul\":13550:13556   */\n      dup7\n        /* \"#utility.yul\":13541:13548   */\n      dup4\n        /* \"#utility.yul\":13538:13557   */\n      lt\n        /* \"#utility.yul\":13535:13714   */\n      iszero\n      tag_320\n      jumpi\n        /* \"#utility.yul\":13608:13617   */\n      dup5\n        /* \"#utility.yul\":13603:13606   */\n      dup10\n        /* \"#utility.yul\":13599:13618   */\n      add\n        /* \"#utility.yul\":13593:13619   */\n      mload\n        /* \"#utility.yul\":13651:13699   */\n      tag_321\n        /* \"#utility.yul\":13693:13697   */\n      0x1f\n        /* \"#utility.yul\":13685:13691   */\n      dup10\n        /* \"#utility.yul\":13681:13698   */\n      and\n        /* \"#utility.yul\":13670:13679   */\n      dup3\n        /* \"#utility.yul\":13651:13699   */\n      tag_150\n      jump\t// in\n    tag_321:\n        /* \"#utility.yul\":13643:13649   */\n      dup4\n        /* \"#utility.yul\":13636:13700   */\n      sstore\n        /* \"#utility.yul\":13558:13714   */\n      pop\n        /* \"#utility.yul\":13535:13714   */\n    tag_320:\n        /* \"#utility.yul\":13760:13761   */\n      0x01\n        /* \"#utility.yul\":13756:13757   */\n      0x02\n        /* \"#utility.yul\":13748:13754   */\n      dup9\n        /* \"#utility.yul\":13744:13758   */\n      mul\n        /* \"#utility.yul\":13740:13762   */\n      add\n        /* \"#utility.yul\":13734:13738   */\n      dup9\n        /* \"#utility.yul\":13727:13763   */\n      sstore\n        /* \"#utility.yul\":13163:13773   */\n      pop\n      pop\n      pop\n        /* \"#utility.yul\":13126:14012   */\n    tag_312:\n      pop\n        /* \"#utility.yul\":12718:14018   */\n      pop\n      pop\n      pop\n        /* \"#utility.yul\":12628:14018   */\n      pop\n      pop\n      jump\t// out\n        /* \"#utility.yul\":14024:14191   */\n    tag_152:\n        /* \"#utility.yul\":14164:14183   */\n      0x416c726561647920636f6e6669726d6564000000000000000000000000000000\n        /* \"#utility.yul\":14160:14161   */\n      0x00\n        /* \"#utility.yul\":14152:14158   */\n      dup3\n        /* \"#utility.yul\":14148:14162   */\n      add\n        /* \"#utility.yul\":14141:14184   */\n      mstore\n        /* \"#utility.yul\":14024:14191   */\n      pop\n      jump\t// out\n        /* \"#utility.yul\":14197:14563   */\n    tag_153:\n        /* \"#utility.yul\":14339:14342   */\n      0x00\n        /* \"#utility.yul\":14360:14427   */\n      tag_324\n        /* \"#utility.yul\":14424:14426   */\n      0x11\n        /* \"#utility.yul\":14419:14422   */\n      dup4\n        /* \"#utility.yul\":14360:14427   */\n      tag_133\n      jump\t// in\n    tag_324:\n        /* \"#utility.yul\":14353:14427   */\n      swap2\n      pop\n        /* \"#utility.yul\":14436:14529   */\n      tag_325\n        /* \"#utility.yul\":14525:14528   */\n      dup3\n        /* \"#utility.yul\":14436:14529   */\n      tag_152\n      jump\t// in\n    tag_325:\n        /* \"#utility.yul\":14554:14556   */\n      0x20\n        /* \"#utility.yul\":14549:14552   */\n      dup3\n        /* \"#utility.yul\":14545:14557   */\n      add\n        /* \"#utility.yul\":14538:14557   */\n      swap1\n      pop\n        /* \"#utility.yul\":14197:14563   */\n      swap2\n      swap1\n      pop\n      jump\t// out\n        /* \"#utility.yul\":14569:14988   */\n    tag_73:\n        /* \"#utility.yul\":14735:14739   */\n      0x00\n        /* \"#utility.yul\":14773:14775   */\n      0x20\n        /* \"#utility.yul\":14762:14771   */\n      dup3\n        /* \"#utility.yul\":14758:14776   */\n      add\n        /* \"#utility.yul\":14750:14776   */\n      swap1\n      pop\n        /* \"#utility.yul\":14822:14831   */\n      dup2\n        /* \"#utility.yul\":14816:14820   */\n      dup2\n        /* \"#utility.yul\":14812:14832   */\n      sub\n        /* \"#utility.yul\":14808:14809   */\n      0x00\n        /* \"#utility.yul\":14797:14806   */\n      dup4\n        /* \"#utility.yul\":14793:14810   */\n      add\n        /* \"#utility.yul\":14786:14833   */\n      mstore\n        /* \"#utility.yul\":14850:14981   */\n      tag_327\n        /* \"#utility.yul\":14976:14980   */\n      dup2\n        /* \"#utility.yul\":14850:14981   */\n      tag_153\n      jump\t// in\n    tag_327:\n        /* \"#utility.yul\":14842:14981   */\n      swap1\n      pop\n        /* \"#utility.yul\":14569:14988   */\n      swap2\n      swap1\n      pop\n      jump\t// out\n        /* \"#utility.yul\":14994:15174   */\n    tag_76:\n        /* \"#utility.yul\":15042:15119   */\n      0x4e487b7100000000000000000000000000000000000000000000000000000000\n        /* \"#utility.yul\":15039:15040   */\n      0x00\n        /* \"#utility.yul\":15032:15120   */\n      mstore\n        /* \"#utility.yul\":15139:15143   */\n      0x32\n        /* \"#utility.yul\":15136:15137   */\n      0x04\n        /* \"#utility.yul\":15129:15144   */\n      mstore\n        /* \"#utility.yul\":15163:15167   */\n      0x24\n        /* \"#utility.yul\":15160:15161   */\n      0x00\n        /* \"#utility.yul\":15153:15168   */\n      revert\n        /* \"#utility.yul\":15180:15360   */\n    tag_154:\n        /* \"#utility.yul\":15228:15305   */\n      0x4e487b7100000000000000000000000000000000000000000000000000000000\n        /* \"#utility.yul\":15225:15226   */\n      0x00\n        /* \"#utility.yul\":15218:15306   */\n      mstore\n        /* \"#utility.yul\":15325:15329   */\n      0x11\n        /* \"#utility.yul\":15322:15323   */\n      0x04\n        /* \"#utility.yul\":15315:15330   */\n      mstore\n        /* \"#utility.yul\":15349:15353   */\n      0x24\n        /* \"#utility.yul\":15346:15347   */\n      0x00\n        /* \"#utility.yul\":15339:15354   */\n      revert\n        /* \"#utility.yul\":15366:15557   */\n    tag_79:\n        /* \"#utility.yul\":15406:15409   */\n      0x00\n        /* \"#utility.yul\":15425:15445   */\n      tag_331\n        /* \"#utility.yul\":15443:15444   */\n      dup3\n        /* \"#utility.yul\":15425:15445   */\n      tag_108\n      jump\t// in\n    tag_331:\n        /* \"#utility.yul\":15420:15445   */\n      swap2\n      pop\n        /* \"#utility.yul\":15459:15479   */\n      tag_332\n        /* \"#utility.yul\":15477:15478   */\n      dup4\n        /* \"#utility.yul\":15459:15479   */\n      tag_108\n      jump\t// in\n    tag_332:\n        /* \"#utility.yul\":15454:15479   */\n      swap3\n      pop\n        /* \"#utility.yul\":15502:15503   */\n      dup3\n        /* \"#utility.yul\":15499:15500   */\n      dup3\n        /* \"#utility.yul\":15495:15504   */\n      add\n        /* \"#utility.yul\":15488:15504   */\n      swap1\n      pop\n        /* \"#utility.yul\":15523:15526   */\n      dup1\n        /* \"#utility.yul\":15520:15521   */\n      dup3\n        /* \"#utility.yul\":15517:15527   */\n      gt\n        /* \"#utility.yul\":15514:15550   */\n      iszero\n      tag_333\n      jumpi\n        /* \"#utility.yul\":15530:15548   */\n      tag_334\n      tag_154\n      jump\t// in\n    tag_334:\n        /* \"#utility.yul\":15514:15550   */\n    tag_333:\n        /* \"#utility.yul\":15366:15557   */\n      swap3\n      swap2\n      pop\n      pop\n      jump\t// out\n        /* \"#utility.yul\":15563:15726   */\n    tag_155:\n        /* \"#utility.yul\":15703:15718   */\n      0x4e6f207265656e7472616e637900000000000000000000000000000000000000\n        /* \"#utility.yul\":15699:15700   */\n      0x00\n        /* \"#utility.yul\":15691:15697   */\n      dup3\n        /* \"#utility.yul\":15687:15701   */\n      add\n        /* \"#utility.yul\":15680:15719   */\n      mstore\n        /* \"#utility.yul\":15563:15726   */\n      pop\n      jump\t// out\n        /* \"#utility.yul\":15732:16098   */\n    tag_156:\n        /* \"#utility.yul\":15874:15877   */\n      0x00\n        /* \"#utility.yul\":15895:15962   */\n      tag_337\n        /* \"#utility.yul\":15959:15961   */\n      0x0d\n        /* \"#utility.yul\":15954:15957   */\n      dup4\n        /* \"#utility.yul\":15895:15962   */\n      tag_133\n      jump\t// in\n    tag_337:\n        /* \"#utility.yul\":15888:15962   */\n      swap2\n      pop\n        /* \"#utility.yul\":15971:16064   */\n      tag_338\n        /* \"#utility.yul\":16060:16063   */\n      dup3\n        /* \"#utility.yul\":15971:16064   */\n      tag_155\n      jump\t// in\n    tag_338:\n        /* \"#utility.yul\":16089:16091   */\n      0x20\n        /* \"#utility.yul\":16084:16087   */\n      dup3\n        /* \"#utility.yul\":16080:16092   */\n      add\n        /* \"#utility.yul\":16073:16092   */\n      swap1\n      pop\n        /* \"#utility.yul\":15732:16098   */\n      swap2\n      swap1\n      pop\n      jump\t// out\n        /* \"#utility.yul\":16104:16523   */\n    tag_86:\n        /* \"#utility.yul\":16270:16274   */\n      0x00\n        /* \"#utility.yul\":16308:16310   */\n      0x20\n        /* \"#utility.yul\":16297:16306   */\n      dup3\n        /* \"#utility.yul\":16293:16311   */\n      add\n        /* \"#utility.yul\":16285:16311   */\n      swap1\n      pop\n        /* \"#utility.yul\":16357:16366   */\n      dup2\n        /* \"#utility.yul\":16351:16355   */\n      dup2\n        /* \"#utility.yul\":16347:16367   */\n      sub\n        /* \"#utility.yul\":16343:16344   */\n      0x00\n        /* \"#utility.yul\":16332:16341   */\n      dup4\n        /* \"#utility.yul\":16328:16345   */\n      add\n        /* \"#utility.yul\":16321:16368   */\n      mstore\n        /* \"#utility.yul\":16385:16516   */\n      tag_340\n        /* \"#utility.yul\":16511:16515   */\n      dup2\n        /* \"#utility.yul\":16385:16516   */\n      tag_156\n      jump\t// in\n    tag_340:\n        /* \"#utility.yul\":16377:16516   */\n      swap1\n      pop\n        /* \"#utility.yul\":16104:16523   */\n      swap2\n      swap1\n      pop\n      jump\t// out\n        /* \"#utility.yul\":16529:16695   */\n    tag_157:\n        /* \"#utility.yul\":16669:16687   */\n      0x416c726561647920657865637574656400000000000000000000000000000000\n        /* \"#utility.yul\":16665:16666   */\n      0x00\n        /* \"#utility.yul\":16657:16663   */\n      dup3\n        /* \"#utility.yul\":16653:16667   */\n      add\n        /* \"#utility.yul\":16646:16688   */\n      mstore\n        /* \"#utility.yul\":16529:16695   */\n      pop\n      jump\t// out\n        /* \"#utility.yul\":16701:17067   */\n    tag_158:\n        /* \"#utility.yul\":16843:16846   */\n      0x00\n        /* \"#utility.yul\":16864:16931   */\n      tag_343\n        /* \"#utility.yul\":16928:16930   */\n      0x10\n        /* \"#utility.yul\":16923:16926   */\n      dup4\n        /* \"#utility.yul\":16864:16931   */\n      tag_133\n      jump\t// in\n    tag_343:\n        /* \"#utility.yul\":16857:16931   */\n      swap2\n      pop\n        /* \"#utility.yul\":16940:17033   */\n      tag_344\n        /* \"#utility.yul\":17029:17032   */\n      dup3\n        /* \"#utility.yul\":16940:17033   */\n      tag_157\n      jump\t// in\n    tag_344:\n        /* \"#utility.yul\":17058:17060   */\n      0x20\n        /* \"#utility.yul\":17053:17056   */\n      dup3\n        /* \"#utility.yul\":17049:17061   */\n      add\n        /* \"#utility.yul\":17042:17061   */\n      swap1\n      pop\n        /* \"#utility.yul\":16701:17067   */\n      swap2\n      swap1\n      pop\n      jump\t// out\n        /* \"#utility.yul\":17073:17492   */\n    tag_93:\n        /* \"#utility.yul\":17239:17243   */\n      0x00\n        /* \"#utility.yul\":17277:17279   */\n      0x20\n        /* \"#utility.yul\":17266:17275   */\n      dup3\n        /* \"#utility.yul\":17262:17280   */\n      add\n        /* \"#utility.yul\":17254:17280   */\n      swap1\n      pop\n        /* \"#utility.yul\":17326:17335   */\n      dup2\n        /* \"#utility.yul\":17320:17324   */\n      dup2\n        /* \"#utility.yul\":17316:17336   */\n      sub\n        /* \"#utility.yul\":17312:17313   */\n      0x00\n        /* \"#utility.yul\":17301:17310   */\n      dup4\n        /* \"#utility.yul\":17297:17314   */\n      add\n        /* \"#utility.yul\":17290:17337   */\n      mstore\n        /* \"#utility.yul\":17354:17485   */\n      tag_346\n        /* \"#utility.yul\":17480:17484   */\n      dup2\n        /* \"#utility.yul\":17354:17485   */\n      tag_158\n      jump\t// in\n    tag_346:\n        /* \"#utility.yul\":17346:17485   */\n      swap1\n      pop\n        /* \"#utility.yul\":17073:17492   */\n      swap2\n      swap1\n      pop\n      jump\t// out\n        /* \"#utility.yul\":17498:17674   */\n    tag_159:\n        /* \"#utility.yul\":17638:17666   */\n      0x496e73756666696369656e7420636f6e6669726d6174696f6e73000000000000\n        /* \"#utility.yul\":17634:17635   */\n      0x00\n        /* \"#utility.yul\":17626:17632   */\n      dup3\n        /* \"#utility.yul\":17622:17636   */\n      add\n        /* \"#utility.yul\":17615:17667   */\n      mstore\n        /* \"#utility.yul\":17498:17674   */\n      pop\n      jump\t// out\n        /* \"#utility.yul\":17680:18046   */\n    tag_160:\n        /* \"#utility.yul\":17822:17825   */\n      0x00\n        /* \"#utility.yul\":17843:17910   */\n      tag_349\n        /* \"#utility.yul\":17907:17909   */\n      0x1a\n        /* \"#utility.yul\":17902:17905   */\n      dup4\n        /* \"#utility.yul\":17843:17910   */\n      tag_133\n      jump\t// in\n    tag_349:\n        /* \"#utility.yul\":17836:17910   */\n      swap2\n      pop\n        /* \"#utility.yul\":17919:18012   */\n      tag_350\n        /* \"#utility.yul\":18008:18011   */\n      dup3\n        /* \"#utility.yul\":17919:18012   */\n      tag_159\n      jump\t// in\n    tag_350:\n        /* \"#utility.yul\":18037:18039   */\n      0x20\n        /* \"#utility.yul\":18032:18035   */\n      dup3\n        /* \"#utility.yul\":18028:18040   */\n      add\n        /* \"#utility.yul\":18021:18040   */\n      swap1\n      pop\n        /* \"#utility.yul\":17680:18046   */\n      swap2\n      swap1\n      pop\n      jump\t// out\n        /* \"#utility.yul\":18052:18471   */\n    tag_96:\n        /* \"#utility.yul\":18218:18222   */\n      0x00\n        /* \"#utility.yul\":18256:18258   */\n      0x20\n        /* \"#utility.yul\":18245:18254   */\n      dup3\n        /* \"#utility.yul\":18241:18259   */\n      add\n        /* \"#utility.yul\":18233:18259   */\n      swap1\n      pop\n        /* \"#utility.yul\":18305:18314   */\n      dup2\n        /* \"#utility.yul\":18299:18303   */\n      dup2\n        /* \"#utility.yul\":18295:18315   */\n      sub\n        /* \"#utility.yul\":18291:18292   */\n      0x00\n        /* \"#utility.yul\":18280:18289   */\n      dup4\n        /* \"#utility.yul\":18276:18293   */\n      add\n        /* \"#utility.yul\":18269:18316   */\n      mstore\n        /* \"#utility.yul\":18333:18464   */\n      tag_352\n        /* \"#utility.yul\":18459:18463   */\n      dup2\n        /* \"#utility.yul\":18333:18464   */\n      tag_160\n      jump\t// in\n    tag_352:\n        /* \"#utility.yul\":18325:18464   */\n      swap1\n      pop\n        /* \"#utility.yul\":18052:18471   */\n      swap2\n      swap1\n      pop\n      jump\t// out\n        /* \"#utility.yul\":18477:18624   */\n    tag_161:\n        /* \"#utility.yul\":18578:18589   */\n      0x00\n        /* \"#utility.yul\":18615:18618   */\n      dup2\n        /* \"#utility.yul\":18600:18618   */\n      swap1\n      pop\n        /* \"#utility.yul\":18477:18624   */\n      swap3\n      swap2\n      pop\n      pop\n      jump\t// out\n        /* \"#utility.yul\":18652:19522   */\n    tag_162:\n        /* \"#utility.yul\":18753:18756   */\n      0x00\n        /* \"#utility.yul\":18790:18795   */\n      dup2\n        /* \"#utility.yul\":18784:18796   */\n      sload\n        /* \"#utility.yul\":18819:18855   */\n      tag_355\n        /* \"#utility.yul\":18845:18854   */\n      dup2\n        /* \"#utility.yul\":18819:18855   */\n      tag_62\n      jump\t// in\n    tag_355:\n        /* \"#utility.yul\":18871:18959   */\n      tag_356\n        /* \"#utility.yul\":18952:18958   */\n      dup2\n        /* \"#utility.yul\":18947:18950   */\n      dup7\n        /* \"#utility.yul\":18871:18959   */\n      tag_161\n      jump\t// in\n    tag_356:\n        /* \"#utility.yul\":18864:18959   */\n      swap5\n      pop\n        /* \"#utility.yul\":18990:18991   */\n      0x01\n        /* \"#utility.yul\":18979:18988   */\n      dup3\n        /* \"#utility.yul\":18975:18992   */\n      and\n        /* \"#utility.yul\":19006:19007   */\n      0x00\n        /* \"#utility.yul\":19001:19167   */\n      dup2\n      eq\n      tag_358\n      jumpi\n        /* \"#utility.yul\":19181:19182   */\n      0x01\n        /* \"#utility.yul\":19176:19516   */\n      dup2\n      eq\n      tag_359\n      jumpi\n        /* \"#utility.yul\":18968:19516   */\n      jump(tag_357)\n        /* \"#utility.yul\":19001:19167   */\n    tag_358:\n        /* \"#utility.yul\":19085:19089   */\n      0xff\n        /* \"#utility.yul\":19081:19090   */\n      not\n        /* \"#utility.yul\":19070:19079   */\n      dup4\n        /* \"#utility.yul\":19066:19091   */\n      and\n        /* \"#utility.yul\":19061:19064   */\n      dup7\n        /* \"#utility.yul\":19054:19092   */\n      mstore\n        /* \"#utility.yul\":19147:19153   */\n      dup2\n        /* \"#utility.yul\":19140:19154   */\n      iszero\n        /* \"#utility.yul\":19133:19155   */\n      iszero\n        /* \"#utility.yul\":19125:19131   */\n      dup3\n        /* \"#utility.yul\":19121:19156   */\n      mul\n        /* \"#utility.yul\":19116:19119   */\n      dup7\n        /* \"#utility.yul\":19112:19157   */\n      add\n        /* \"#utility.yul\":19105:19157   */\n      swap4\n      pop\n        /* \"#utility.yul\":19001:19167   */\n      jump(tag_357)\n        /* \"#utility.yul\":19176:19516   */\n    tag_359:\n        /* \"#utility.yul\":19243:19280   */\n      tag_360\n        /* \"#utility.yul\":19274:19279   */\n      dup6\n        /* \"#utility.yul\":19243:19280   */\n      tag_137\n      jump\t// in\n    tag_360:\n        /* \"#utility.yul\":19302:19303   */\n      0x00\n        /* \"#utility.yul\":19316:19470   */\n    tag_361:\n        /* \"#utility.yul\":19330:19336   */\n      dup4\n        /* \"#utility.yul\":19327:19328   */\n      dup2\n        /* \"#utility.yul\":19324:19337   */\n      lt\n        /* \"#utility.yul\":19316:19470   */\n      iszero\n      tag_363\n      jumpi\n        /* \"#utility.yul\":19404:19411   */\n      dup2\n        /* \"#utility.yul\":19398:19412   */\n      sload\n        /* \"#utility.yul\":19394:19395   */\n      dup2\n        /* \"#utility.yul\":19389:19392   */\n      dup10\n        /* \"#utility.yul\":19385:19396   */\n      add\n        /* \"#utility.yul\":19378:19413   */\n      mstore\n        /* \"#utility.yul\":19454:19455   */\n      0x01\n        /* \"#utility.yul\":19445:19452   */\n      dup3\n        /* \"#utility.yul\":19441:19456   */\n      add\n        /* \"#utility.yul\":19430:19456   */\n      swap2\n      pop\n        /* \"#utility.yul\":19352:19356   */\n      0x20\n        /* \"#utility.yul\":19349:19350   */\n      dup2\n        /* \"#utility.yul\":19345:19357   */\n      add\n        /* \"#utility.yul\":19340:19357   */\n      swap1\n      pop\n        /* \"#utility.yul\":19316:19470   */\n      jump(tag_361)\n    tag_363:\n        /* \"#utility.yul\":19499:19505   */\n      dup4\n        /* \"#utility.yul\":19494:19497   */\n      dup9\n        /* \"#utility.yul\":19490:19506   */\n      add\n        /* \"#utility.yul\":19483:19506   */\n      swap6\n      pop\n        /* \"#utility.yul\":19183:19516   */\n      pop\n      pop\n        /* \"#utility.yul\":18968:19516   */\n    tag_357:\n      pop\n        /* \"#utility.yul\":18757:19522   */\n      pop\n      pop\n        /* \"#utility.yul\":18652:19522   */\n      swap3\n      swap2\n      pop\n      pop\n      jump\t// out\n        /* \"#utility.yul\":19528:19793   */\n    tag_98:\n        /* \"#utility.yul\":19655:19658   */\n      0x00\n        /* \"#utility.yul\":19677:19767   */\n      tag_365\n        /* \"#utility.yul\":19763:19766   */\n      dup3\n        /* \"#utility.yul\":19754:19760   */\n      dup5\n        /* \"#utility.yul\":19677:19767   */\n      tag_162\n      jump\t// in\n    tag_365:\n        /* \"#utility.yul\":19670:19767   */\n      swap2\n      pop\n        /* \"#utility.yul\":19784:19787   */\n      dup2\n        /* \"#utility.yul\":19777:19787   */\n      swap1\n      pop\n        /* \"#utility.yul\":19528:19793   */\n      swap3\n      swap2\n      pop\n      pop\n      jump\t// out\n        /* \"#utility.yul\":19799:19965   */\n    tag_163:\n        /* \"#utility.yul\":19939:19957   */\n      0x457865637574696f6e206661696c656400000000000000000000000000000000\n        /* \"#utility.yul\":19935:19936   */\n      0x00\n        /* \"#utility.yul\":19927:19933   */\n      dup3\n        /* \"#utility.yul\":19923:19937   */\n      add\n        /* \"#utility.yul\":19916:19958   */\n      mstore\n        /* \"#utility.yul\":19799:19965   */\n      pop\n      jump\t// out\n        /* \"#utility.yul\":19971:20337   */\n    tag_164:\n        /* \"#utility.yul\":20113:20116   */\n      0x00\n        /* \"#utility.yul\":20134:20201   */\n      tag_368\n        /* \"#utility.yul\":20198:20200   */\n      0x10\n        /* \"#utility.yul\":20193:20196   */\n      dup4\n        /* \"#utility.yul\":20134:20201   */\n      tag_133\n      jump\t// in\n    tag_368:\n        /* \"#utility.yul\":20127:20201   */\n      swap2\n      pop\n        /* \"#utility.yul\":20210:20303   */\n      tag_369\n        /* \"#utility.yul\":20299:20302   */\n      dup3\n        /* \"#utility.yul\":20210:20303   */\n      tag_163\n      jump\t// in\n    tag_369:\n        /* \"#utility.yul\":20328:20330   */\n      0x20\n        /* \"#utility.yul\":20323:20326   */\n      dup3\n        /* \"#utility.yul\":20319:20331   */\n      add\n        /* \"#utility.yul\":20312:20331   */\n      swap1\n      pop\n        /* \"#utility.yul\":19971:20337   */\n      swap2\n      swap1\n      pop\n      jump\t// out\n        /* \"#utility.yul\":20343:20762   */\n    tag_104:\n        /* \"#utility.yul\":20509:20513   */\n      0x00\n        /* \"#utility.yul\":20547:20549   */\n      0x20\n        /* \"#utility.yul\":20536:20545   */\n      dup3\n        /* \"#utility.yul\":20532:20550   */\n      add\n        /* \"#utility.yul\":20524:20550   */\n      swap1\n      pop\n        /* \"#utility.yul\":20596:20605   */\n      dup2\n        /* \"#utility.yul\":20590:20594   */\n      dup2\n        /* \"#utility.yul\":20586:20606   */\n      sub\n        /* \"#utility.yul\":20582:20583   */\n      0x00\n        /* \"#utility.yul\":20571:20580   */\n      dup4\n        /* \"#utility.yul\":20567:20584   */\n      add\n        /* \"#utility.yul\":20560:20607   */\n      mstore\n        /* \"#utility.yul\":20624:20755   */\n      tag_371\n        /* \"#utility.yul\":20750:20754   */\n      dup2\n        /* \"#utility.yul\":20624:20755   */\n      tag_164\n      jump\t// in\n    tag_371:\n        /* \"#utility.yul\":20616:20755   */\n      swap1\n      pop\n        /* \"#utility.yul\":20343:20762   */\n      swap2\n      swap1\n      pop\n      jump\t// out\n\n    auxdata: 0xa264697066735822122065705c31b5395adc459c45af420d7f371e8b296e76260f21a58898e6ef0d634064736f6c634300081f0033\n}\n",
				"bytecode": {
					"linkReferences": {},
					"object": "608060405234801561000f575f5ffd5b5060405161195e38038061195e833981810160405281019061003191906103c2565b5f825111610074576040517f08c379a000000000000000000000000000000000000000000000000000000000815260040161006b90610476565b60405180910390fd5b5f81118015610084575081518111155b6100c3576040517f08c379a00000000000000000000000000000000000000000000000000000000081526004016100ba906104de565b60405180910390fd5b5f5f90505b82518110156101c5576001805f8584815181106100e8576100e76104fc565b5b602002602001015173ffffffffffffffffffffffffffffffffffffffff1673ffffffffffffffffffffffffffffffffffffffff1681526020019081526020015f205f6101000a81548160ff0219169083151502179055505f838281518110610153576101526104fc565b5b6020026020010151908060018154018082558091505060019003905f5260205f20015f9091909190916101000a81548173ffffffffffffffffffffffffffffffffffffffff021916908373ffffffffffffffffffffffffffffffffffffffff16021790555080806001019150506100c8565b50806002819055505050610529565b5f604051905090565b5f5ffd5b5f5ffd5b5f5ffd5b5f601f19601f8301169050919050565b7f4e487b71000000000000000000000000000000000000000000000000000000005f52604160045260245ffd5b61022f826101e9565b810181811067ffffffffffffffff8211171561024e5761024d6101f9565b5b80604052505050565b5f6102606101d4565b905061026c8282610226565b919050565b5f67ffffffffffffffff82111561028b5761028a6101f9565b5b602082029050602081019050919050565b5f5ffd5b5f73ffffffffffffffffffffffffffffffffffffffff82169050919050565b5f6102c9826102a0565b9050919050565b6102d9816102bf565b81146102e3575f5ffd5b50565b5f815190506102f4816102d0565b92915050565b5f61030c61030784610271565b610257565b9050808382526020820190506020840283018581111561032f5761032e61029c565b5b835b81811015610358578061034488826102e6565b845260208401935050602081019050610331565b5050509392505050565b5f82601f830112610376576103756101e5565b5b81516103868482602086016102fa565b91505092915050565b5f819050919050565b6103a18161038f565b81146103ab575f5ffd5b50565b5f815190506103bc81610398565b92915050565b5f5f604083850312156103d8576103d76101dd565b5b5f83015167ffffffffffffffff8111156103f5576103f46101e1565b5b61040185828601610362565b9250506020610412858286016103ae565b9150509250929050565b5f82825260208201905092915050565b7f4f776e65727320726571756972656400000000000000000000000000000000005f82015250565b5f610460600f8361041c565b915061046b8261042c565b602082019050919050565b5f6020820190508181035f83015261048d81610454565b9050919050565b7f496e76616c6964207265717569726564000000000000000000000000000000005f82015250565b5f6104c860108361041c565b91506104d382610494565b602082019050919050565b5f6020820190508181035f8301526104f5816104bc565b9050919050565b7f4e487b71000000000000000000000000000000000000000000000000000000005f52603260045260245ffd5b611428806105365f395ff3fe608060405234801561000f575f5ffd5b5060043610610086575f3560e01c80633411c81c116100595780633411c81c1461014e578063ba0179b51461017e578063dc8452cd1461019a578063fe0d94c1146101b857610086565b8063025e7c271461008a57806314de327f146100ba5780632b6c71cc146100ea5780632f54bf6e1461011e575b5f5ffd5b6100a4600480360381019061009f91906109a8565b6101d4565b6040516100b19190610a12565b60405180910390f35b6100d460048036038101906100cf9190610b91565b61020e565b6040516100e19190610c0c565b60405180910390f35b61010460048036038101906100ff91906109a8565b6103a2565b604051610115959493929190610c9f565b60405180910390f35b61013860048036038101906101339190610cf7565b610494565b6040516101459190610d22565b60405180910390f35b61016860048036038101906101639190610d3b565b6104b1565b6040516101759190610d22565b60405180910390f35b610198600480360381019061019391906109a8565b6104db565b005b6101a261069e565b6040516101af9190610c0c565b60405180910390f35b6101d260048036038101906101cd91906109a8565b6106a4565b005b5f81815481106101e2575f80fd5b905f5260205f20015f915054906101000a900473ffffffffffffffffffffffffffffffffffffffff1681565b5f60015f3373ffffffffffffffffffffffffffffffffffffffff1673ffffffffffffffffffffffffffffffffffffffff1681526020019081526020015f205f9054906101000a900460ff16610298576040517f08c379a000000000000000000000000000000000000000000000000000000000815260040161028f90610dd3565b60405180910390fd5b5f600380549050905060036040518060a001604052808773ffffffffffffffffffffffffffffffffffffffff1681526020018681526020018581526020015f151581526020015f815250908060018154018082558091505060019003905f5260205f2090600502015f909190919091505f820151815f015f6101000a81548173ffffffffffffffffffffffffffffffffffffffff021916908373ffffffffffffffffffffffffffffffffffffffff16021790555060208201518160010155604082015181600201908161036b9190610fee565b506060820151816003015f6101000a81548160ff021916908315150217905550608082015181600401555050809150509392505050565b600381815481106103b1575f80fd5b905f5260205f2090600502015f91509050805f015f9054906101000a900473ffffffffffffffffffffffffffffffffffffffff16908060010154908060020180546103fb90610e1e565b80601f016020809104026020016040519081016040528092919081815260200182805461042790610e1e565b80156104725780601f1061044957610100808354040283529160200191610472565b820191905f5260205f20905b81548152906001019060200180831161045557829003601f168201915b505050505090806003015f9054906101000a900460ff16908060040154905085565b6001602052805f5260405f205f915054906101000a900460ff1681565b6004602052815f5260405f20602052805f5260405f205f915091509054906101000a900460ff1681565b60015f3373ffffffffffffffffffffffffffffffffffffffff1673ffffffffffffffffffffffffffffffffffffffff1681526020019081526020015f205f9054906101000a900460ff16610564576040517f08c379a000000000000000000000000000000000000000000000000000000000815260040161055b90610dd3565b60405180910390fd5b60045f8281526020019081526020015f205f3373ffffffffffffffffffffffffffffffffffffffff1673ffffffffffffffffffffffffffffffffffffffff1681526020019081526020015f205f9054906101000a900460ff16156105fd576040517f08c379a00000000000000000000000000000000000000000000000000000000081526004016105f490611107565b60405180910390fd5b600160045f8381526020019081526020015f205f3373ffffffffffffffffffffffffffffffffffffffff1673ffffffffffffffffffffffffffffffffffffffff1681526020019081526020015f205f6101000a81548160ff02191690831515021790555060016003828154811061067757610676611125565b5b905f5260205f2090600502016004015f828254610694919061117f565b9250508190555050565b60025481565b60015f3373ffffffffffffffffffffffffffffffffffffffff1673ffffffffffffffffffffffffffffffffffffffff1681526020019081526020015f205f9054906101000a900460ff1661072d576040517f08c379a000000000000000000000000000000000000000000000000000000000815260040161072490610dd3565b60405180910390fd5b60055f9054906101000a900460ff161561077c576040517f08c379a0000000000000000000000000000000000000000000000000000000008152600401610773906111fc565b60405180910390fd5b600160055f6101000a81548160ff0219169083151502179055505f600382815481106107ab576107aa611125565b5b905f5260205f2090600502019050806003015f9054906101000a900460ff161561080a576040517f08c379a000000000000000000000000000000000000000000000000000000000815260040161080190611264565b60405180910390fd5b60025481600401541015610853576040517f08c379a000000000000000000000000000000000000000000000000000000000815260040161084a906112cc565b60405180910390fd5b6001816003015f6101000a81548160ff0219169083151502179055505f815f015f9054906101000a900473ffffffffffffffffffffffffffffffffffffffff1673ffffffffffffffffffffffffffffffffffffffff1661c3508360010154846002016040516108c29190611374565b5f60405180830381858888f193505050503d805f81146108fd576040519150601f19603f3d011682016040523d82523d5f602084013e610902565b606091505b5050905080610946576040517f08c379a000000000000000000000000000000000000000000000000000000000815260040161093d906113d4565b60405180910390fd5b50505f60055f6101000a81548160ff02191690831515021790555050565b5f604051905090565b5f5ffd5b5f5ffd5b5f819050919050565b61098781610975565b8114610991575f5ffd5b50565b5f813590506109a28161097e565b92915050565b5f602082840312156109bd576109bc61096d565b5b5f6109ca84828501610994565b91505092915050565b5f73ffffffffffffffffffffffffffffffffffffffff82169050919050565b5f6109fc826109d3565b9050919050565b610a0c816109f2565b82525050565b5f602082019050610a255f830184610a03565b92915050565b610a34816109f2565b8114610a3e575f5ffd5b50565b5f81359050610a4f81610a2b565b92915050565b5f5ffd5b5f5ffd5b5f601f19601f8301169050919050565b7f4e487b71000000000000000000000000000000000000000000000000000000005f52604160045260245ffd5b610aa382610a5d565b810181811067ffffffffffffffff82111715610ac257610ac1610a6d565b5b80604052505050565b5f610ad4610964565b9050610ae08282610a9a565b919050565b5f67ffffffffffffffff821115610aff57610afe610a6d565b5b610b0882610a5d565b9050602081019050919050565b828183375f83830152505050565b5f610b35610b3084610ae5565b610acb565b905082815260208101848484011115610b5157610b50610a59565b5b610b5c848285610b15565b509392505050565b5f82601f830112610b7857610b77610a55565b5b8135610b88848260208601610b23565b91505092915050565b5f5f5f60608486031215610ba857610ba761096d565b5b5f610bb586828701610a41565b9350506020610bc686828701610994565b925050604084013567ffffffffffffffff811115610be757610be6610971565b5b610bf386828701610b64565b9150509250925092565b610c0681610975565b82525050565b5f602082019050610c1f5f830184610bfd565b92915050565b5f81519050919050565b5f82825260208201905092915050565b8281835e5f83830152505050565b5f610c5782610c25565b610c618185610c2f565b9350610c71818560208601610c3f565b610c7a81610a5d565b840191505092915050565b5f8115159050919050565b610c9981610c85565b82525050565b5f60a082019050610cb25f830188610a03565b610cbf6020830187610bfd565b8181036040830152610cd18186610c4d565b9050610ce06060830185610c90565b610ced6080830184610bfd565b9695505050505050565b5f60208284031215610d0c57610d0b61096d565b5b5f610d1984828501610a41565b91505092915050565b5f602082019050610d355f830184610c90565b92915050565b5f5f60408385031215610d5157610d5061096d565b5b5f610d5e85828601610994565b9250506020610d6f85828601610a41565b9150509250929050565b5f82825260208201905092915050565b7f4e6f74206f776e657200000000000000000000000000000000000000000000005f82015250565b5f610dbd600983610d79565b9150610dc882610d89565b602082019050919050565b5f6020820190508181035f830152610dea81610db1565b9050919050565b7f4e487b71000000000000000000000000000000000000000000000000000000005f52602260045260245ffd5b5f6002820490506001821680610e3557607f821691505b602082108103610e4857610e47610df1565b5b50919050565b5f819050815f5260205f209050919050565b5f6020601f8301049050919050565b5f82821b905092915050565b5f60088302610eaa7fffffffffffffffffffffffffffffffffffffffffffffffffffffffffffffffff82610e6f565b610eb48683610e6f565b95508019841693508086168417925050509392505050565b5f819050919050565b5f610eef610eea610ee584610975565b610ecc565b610975565b9050919050565b5f819050919050565b610f0883610ed5565b610f1c610f1482610ef6565b848454610e7b565b825550505050565b5f5f905090565b610f33610f24565b610f3e818484610eff565b505050565b5b81811015610f6157610f565f82610f2b565b600181019050610f44565b5050565b601f821115610fa657610f7781610e4e565b610f8084610e60565b81016020851015610f8f578190505b610fa3610f9b85610e60565b830182610f43565b50505b505050565b5f82821c905092915050565b5f610fc65f1984600802610fab565b1980831691505092915050565b5f610fde8383610fb7565b9150826002028217905092915050565b610ff782610c25565b67ffffffffffffffff8111156110105761100f610a6d565b5b61101a8254610e1e565b611025828285610f65565b5f60209050601f831160018114611056575f8415611044578287015190505b61104e8582610fd3565b8655506110b5565b601f19841661106486610e4e565b5f5b8281101561108b57848901518255600182019150602085019450602081019050611066565b868310156110a857848901516110a4601f891682610fb7565b8355505b6001600288020188555050505b505050505050565b7f416c726561647920636f6e6669726d65640000000000000000000000000000005f82015250565b5f6110f1601183610d79565b91506110fc826110bd565b602082019050919050565b5f6020820190508181035f83015261111e816110e5565b9050919050565b7f4e487b71000000000000000000000000000000000000000000000000000000005f52603260045260245ffd5b7f4e487b71000000000000000000000000000000000000000000000000000000005f52601160045260245ffd5b5f61118982610975565b915061119483610975565b92508282019050808211156111ac576111ab611152565b5b92915050565b7f4e6f207265656e7472616e6379000000000000000000000000000000000000005f82015250565b5f6111e6600d83610d79565b91506111f1826111b2565b602082019050919050565b5f6020820190508181035f830152611213816111da565b9050919050565b7f416c7265616479206578656375746564000000000000000000000000000000005f82015250565b5f61124e601083610d79565b91506112598261121a565b602082019050919050565b5f6020820190508181035f83015261127b81611242565b9050919050565b7f496e73756666696369656e7420636f6e6669726d6174696f6e730000000000005f82015250565b5f6112b6601a83610d79565b91506112c182611282565b602082019050919050565b5f6020820190508181035f8301526112e3816112aa565b9050919050565b5f81905092915050565b5f815461130081610e1e565b61130a81866112ea565b9450600182165f811461132457600181146113395761136b565b60ff198316865281151582028601935061136b565b61134285610e4e565b5f5b8381101561136357815481890152600182019150602081019050611344565b838801955050505b50505092915050565b5f61137f82846112f4565b915081905092915050565b7f457865637574696f6e206661696c6564000000000000000000000000000000005f82015250565b5f6113be601083610d79565b91506113c98261138a565b602082019050919050565b5f6020820190508181035f8301526113eb816113b2565b905091905056fea264697066735822122065705c31b5395adc459c45af420d7f371e8b296e76260f21a58898e6ef0d634064736f6c634300081f0033",
					"opcodes": "PUSH1 0x80 PUSH1 0x40 MSTORE CALLVALUE DUP1 ISZERO PUSH2 0xF JUMPI PUSH0 PUSH0 REVERT JUMPDEST POP PUSH1 0x40 MLOAD PUSH2 0x195E CODESIZE SUB DUP1 PUSH2 0x195E DUP4 CODECOPY DUP2 DUP2 ADD PUSH1 0x40 MSTORE DUP2 ADD SWAP1 PUSH2 0x31 SWAP2 SWAP1 PUSH2 0x3C2 JUMP JUMPDEST PUSH0 DUP3 MLOAD GT PUSH2 0x74 JUMPI PUSH1 0x40 MLOAD PUSH32 0x8C379A000000000000000000000000000000000000000000000000000000000 DUP2 MSTORE PUSH1 0x4 ADD PUSH2 0x6B SWAP1 PUSH2 0x476 JUMP JUMPDEST PUSH1 0x40 MLOAD DUP1 SWAP2 SUB SWAP1 REVERT JUMPDEST PUSH0 DUP2 GT DUP1 ISZERO PUSH2 0x84 JUMPI POP DUP2 MLOAD DUP2 GT ISZERO JUMPDEST PUSH2 0xC3 JUMPI PUSH1 0x40 MLOAD PUSH32 0x8C379A000000000000000000000000000000000000000000000000000000000 DUP2 MSTORE PUSH1 0x4 ADD PUSH2 0xBA SWAP1 PUSH2 0x4DE JUMP JUMPDEST PUSH1 0x40 MLOAD DUP1 SWAP2 SUB SWAP1 REVERT JUMPDEST PUSH0 PUSH0 SWAP1 POP JUMPDEST DUP3 MLOAD DUP2 LT ISZERO PUSH2 0x1C5 JUMPI PUSH1 0x1 DUP1 PUSH0 DUP6 DUP5 DUP2 MLOAD DUP2 LT PUSH2 0xE8 JUMPI PUSH2 0xE7 PUSH2 0x4FC JUMP JUMPDEST JUMPDEST PUSH1 0x20 MUL PUSH1 0x20 ADD ADD MLOAD PUSH20 0xFFFFFFFFFFFFFFFFFFFFFFFFFFFFFFFFFFFFFFFF AND PUSH20 0xFFFFFFFFFFFFFFFFFFFFFFFFFFFFFFFFFFFFFFFF AND DUP2 MSTORE PUSH1 0x20 ADD SWAP1 DUP2 MSTORE PUSH1 0x20 ADD PUSH0 KECCAK256 PUSH0 PUSH2 0x100 EXP DUP2 SLOAD DUP2 PUSH1 0xFF MUL NOT AND SWAP1 DUP4 ISZERO ISZERO MUL OR SWAP1 SSTORE POP PUSH0 DUP4 DUP3 DUP2 MLOAD DUP2 LT PUSH2 0x153 JUMPI PUSH2 0x152 PUSH2 0x4FC JUMP JUMPDEST JUMPDEST PUSH1 0x20 MUL PUSH1 0x20 ADD ADD MLOAD SWAP1 DUP1 PUSH1 0x1 DUP2 SLOAD ADD DUP1 DUP3 SSTORE DUP1 SWAP2 POP POP PUSH1 0x1 SWAP1 SUB SWAP1 PUSH0 MSTORE PUSH1 0x20 PUSH0 KECCAK256 ADD PUSH0 SWAP1 SWAP2 SWAP1 SWAP2 SWAP1 SWAP2 PUSH2 0x100 EXP DUP2 SLOAD DUP2 PUSH20 0xFFFFFFFFFFFFFFFFFFFFFFFFFFFFFFFFFFFFFFFF MUL NOT AND SWAP1 DUP4 PUSH20 0xFFFFFFFFFFFFFFFFFFFFFFFFFFFFFFFFFFFFFFFF AND MUL OR SWAP1 SSTORE POP DUP1 DUP1 PUSH1 0x1 ADD SWAP2 POP POP PUSH2 0xC8 JUMP JUMPDEST POP DUP1 PUSH1 0x2 DUP2 SWAP1 SSTORE POP POP POP PUSH2 0x529 JUMP JUMPDEST PUSH0 PUSH1 0x40 MLOAD SWAP1 POP SWAP1 JUMP JUMPDEST PUSH0 PUSH0 REVERT JUMPDEST PUSH0 PUSH0 REVERT JUMPDEST PUSH0 PUSH0 REVERT JUMPDEST PUSH0 PUSH1 0x1F NOT PUSH1 0x1F DUP4 ADD AND SWAP1 POP SWAP2 SWAP1 POP JUMP JUMPDEST PUSH32 0x4E487B7100000000000000000000000000000000000000000000000000000000 PUSH0 MSTORE PUSH1 0x41 PUSH1 0x4 MSTORE PUSH1 0x24 PUSH0 REVERT JUMPDEST PUSH2 0x22F DUP3 PUSH2 0x1E9 JUMP JUMPDEST DUP2 ADD DUP2 DUP2 LT PUSH8 0xFFFFFFFFFFFFFFFF DUP3 GT OR ISZERO PUSH2 0x24E JUMPI PUSH2 0x24D PUSH2 0x1F9 JUMP JUMPDEST JUMPDEST DUP1 PUSH1 0x40 MSTORE POP POP POP JUMP JUMPDEST PUSH0 PUSH2 0x260 PUSH2 0x1D4 JUMP JUMPDEST SWAP1 POP PUSH2 0x26C DUP3 DUP3 PUSH2 0x226 JUMP JUMPDEST SWAP2 SWAP1 POP JUMP JUMPDEST PUSH0 PUSH8 0xFFFFFFFFFFFFFFFF DUP3 GT ISZERO PUSH2 0x28B JUMPI PUSH2 0x28A PUSH2 0x1F9 JUMP JUMPDEST JUMPDEST PUSH1 0x20 DUP3 MUL SWAP1 POP PUSH1 0x20 DUP2 ADD SWAP1 POP SWAP2 SWAP1 POP JUMP JUMPDEST PUSH0 PUSH0 REVERT JUMPDEST PUSH0 PUSH20 0xFFFFFFFFFFFFFFFFFFFFFFFFFFFFFFFFFFFFFFFF DUP3 AND SWAP1 POP SWAP2 SWAP1 POP JUMP JUMPDEST PUSH0 PUSH2 0x2C9 DUP3 PUSH2 0x2A0 JUMP JUMPDEST SWAP1 POP SWAP2 SWAP1 POP JUMP JUMPDEST PUSH2 0x2D9 DUP2 PUSH2 0x2BF JUMP JUMPDEST DUP2 EQ PUSH2 0x2E3 JUMPI PUSH0 PUSH0 REVERT JUMPDEST POP JUMP JUMPDEST PUSH0 DUP2 MLOAD SWAP1 POP PUSH2 0x2F4 DUP2 PUSH2 0x2D0 JUMP JUMPDEST SWAP3 SWAP2 POP POP JUMP JUMPDEST PUSH0 PUSH2 0x30C PUSH2 0x307 DUP5 PUSH2 0x271 JUMP JUMPDEST PUSH2 0x257 JUMP JUMPDEST SWAP1 POP DUP1 DUP4 DUP3 MSTORE PUSH1 0x20 DUP3 ADD SWAP1 POP PUSH1 0x20 DUP5 MUL DUP4 ADD DUP6 DUP2 GT ISZERO PUSH2 0x32F JUMPI PUSH2 0x32E PUSH2 0x29C JUMP JUMPDEST JUMPDEST DUP4 JUMPDEST DUP2 DUP2 LT ISZERO PUSH2 0x358 JUMPI DUP1 PUSH2 0x344 DUP9 DUP3 PUSH2 0x2E6 JUMP JUMPDEST DUP5 MSTORE PUSH1 0x20 DUP5 ADD SWAP4 POP POP PUSH1 0x20 DUP2 ADD SWAP1 POP PUSH2 0x331 JUMP JUMPDEST POP POP POP SWAP4 SWAP3 POP POP POP JUMP JUMPDEST PUSH0 DUP3 PUSH1 0x1F DUP4 ADD SLT PUSH2 0x376 JUMPI PUSH2 0x375 PUSH2 0x1E5 JUMP JUMPDEST JUMPDEST DUP2 MLOAD PUSH2 0x386 DUP5 DUP3 PUSH1 0x20 DUP7 ADD PUSH2 0x2FA JUMP JUMPDEST SWAP2 POP POP SWAP3 SWAP2 POP POP JUMP JUMPDEST PUSH0 DUP2 SWAP1 POP SWAP2 SWAP1 POP JUMP JUMPDEST PUSH2 0x3A1 DUP2 PUSH2 0x38F JUMP JUMPDEST DUP2 EQ PUSH2 0x3AB JUMPI PUSH0 PUSH0 REVERT JUMPDEST POP JUMP JUMPDEST PUSH0 DUP2 MLOAD SWAP1 POP PUSH2 0x3BC DUP2 PUSH2 0x398 JUMP JUMPDEST SWAP3 SWAP2 POP POP JUMP JUMPDEST PUSH0 PUSH0 PUSH1 0x40 DUP4 DUP6 SUB SLT ISZERO PUSH2 0x3D8 JUMPI PUSH2 0x3D7 PUSH2 0x1DD JUMP JUMPDEST JUMPDEST PUSH0 DUP4 ADD MLOAD PUSH8 0xFFFFFFFFFFFFFFFF DUP2 GT ISZERO PUSH2 0x3F5 JUMPI PUSH2 0x3F4 PUSH2 0x1E1 JUMP JUMPDEST JUMPDEST PUSH2 0x401 DUP6 DUP3 DUP7 ADD PUSH2 0x362 JUMP JUMPDEST SWAP3 POP POP PUSH1 0x20 PUSH2 0x412 DUP6 DUP3 DUP7 ADD PUSH2 0x3AE JUMP JUMPDEST SWAP2 POP POP SWAP3 POP SWAP3 SWAP1 POP JUMP JUMPDEST PUSH0 DUP3 DUP3 MSTORE PUSH1 0x20 DUP3 ADD SWAP1 POP SWAP3 SWAP2 POP POP JUMP JUMPDEST PUSH32 0x4F776E6572732072657175697265640000000000000000000000000000000000 PUSH0 DUP3 ADD MSTORE POP JUMP JUMPDEST PUSH0 PUSH2 0x460 PUSH1 0xF DUP4 PUSH2 0x41C JUMP JUMPDEST SWAP2 POP PUSH2 0x46B DUP3 PUSH2 0x42C JUMP JUMPDEST PUSH1 0x20 DUP3 ADD SWAP1 POP SWAP2 SWAP1 POP JUMP JUMPDEST PUSH0 PUSH1 0x20 DUP3 ADD SWAP1 POP DUP2 DUP2 SUB PUSH0 DUP4 ADD MSTORE PUSH2 0x48D DUP2 PUSH2 0x454 JUMP JUMPDEST SWAP1 POP SWAP2 SWAP1 POP JUMP JUMPDEST PUSH32 0x496E76616C696420726571756972656400000000000000000000000000000000 PUSH0 DUP3 ADD MSTORE POP JUMP JUMPDEST PUSH0 PUSH2 0x4C8 PUSH1 0x10 DUP4 PUSH2 0x41C JUMP JUMPDEST SWAP2 POP PUSH2 0x4D3 DUP3 PUSH2 0x494 JUMP JUMPDEST PUSH1 0x20 DUP3 ADD SWAP1 POP SWAP2 SWAP1 POP JUMP JUMPDEST PUSH0 PUSH1 0x20 DUP3 ADD SWAP1 POP DUP2 DUP2 SUB PUSH0 DUP4 ADD MSTORE PUSH2 0x4F5 DUP2 PUSH2 0x4BC JUMP JUMPDEST SWAP1 POP SWAP2 SWAP1 POP JUMP JUMPDEST PUSH32 0x4E487B7100000000000000000000000000000000000000000000000000000000 PUSH0 MSTORE PUSH1 0x32 PUSH1 0x4 MSTORE PUSH1 0x24 PUSH0 REVERT JUMPDEST PUSH2 0x1428 DUP1 PUSH2 0x536 PUSH0 CODECOPY PUSH0 RETURN INVALID PUSH1 0x80 PUSH1 0x40 MSTORE CALLVALUE DUP1 ISZERO PUSH2 0xF JUMPI PUSH0 PUSH0 REVERT JUMPDEST POP PUSH1 0x4 CALLDATASIZE LT PUSH2 0x86 JUMPI PUSH0 CALLDATALOAD PUSH1 0xE0 SHR DUP1 PUSH4 0x3411C81C GT PUSH2 0x59 JUMPI DUP1 PUSH4 0x3411C81C EQ PUSH2 0x14E JUMPI DUP1 PUSH4 0xBA0179B5 EQ PUSH2 0x17E JUMPI DUP1 PUSH4 0xDC8452CD EQ PUSH2 0x19A JUMPI DUP1 PUSH4 0xFE0D94C1 EQ PUSH2 0x1B8 JUMPI PUSH2 0x86 JUMP JUMPDEST DUP1 PUSH4 0x25E7C27 EQ PUSH2 0x8A JUMPI DUP1 PUSH4 0x14DE327F EQ PUSH2 0xBA JUMPI DUP1 PUSH4 0x2B6C71CC EQ PUSH2 0xEA JUMPI DUP1 PUSH4 0x2F54BF6E EQ PUSH2 0x11E JUMPI JUMPDEST PUSH0 PUSH0 REVERT JUMPDEST PUSH2 0xA4 PUSH1 0x4 DUP1 CALLDATASIZE SUB DUP2 ADD SWAP1 PUSH2 0x9F SWAP2 SWAP1 PUSH2 0x9A8 JUMP JUMPDEST PUSH2 0x1D4 JUMP JUMPDEST PUSH1 0x40 MLOAD PUSH2 0xB1 SWAP2 SWAP1 PUSH2 0xA12 JUMP JUMPDEST PUSH1 0x40 MLOAD DUP1 SWAP2 SUB SWAP1 RETURN JUMPDEST PUSH2 0xD4 PUSH1 0x4 DUP1 CALLDATASIZE SUB DUP2 ADD SWAP1 PUSH2 0xCF SWAP2 SWAP1 PUSH2 0xB91 JUMP JUMPDEST PUSH2 0x20E JUMP JUMPDEST PUSH1 0x40 MLOAD PUSH2 0xE1 SWAP2 SWAP1 PUSH2 0xC0C JUMP JUMPDEST PUSH1 0x40 MLOAD DUP1 SWAP2 SUB SWAP1 RETURN JUMPDEST PUSH2 0x104 PUSH1 0x4 DUP1 CALLDATASIZE SUB DUP2 ADD SWAP1 PUSH2 0xFF SWAP2 SWAP1 PUSH2 0x9A8 JUMP JUMPDEST PUSH2 0x3A2 JUMP JUMPDEST PUSH1 0x40 MLOAD PUSH2 0x115 SWAP6 SWAP5 SWAP4 SWAP3 SWAP2 SWAP1 PUSH2 0xC9F JUMP JUMPDEST PUSH1 0x40 MLOAD DUP1 SWAP2 SUB SWAP1 RETURN JUMPDEST PUSH2 0x138 PUSH1 0x4 DUP1 CALLDATASIZE SUB DUP2 ADD SWAP1 PUSH2 0x133 SWAP2 SWAP1 PUSH2 0xCF7 JUMP JUMPDEST PUSH2 0x494 JUMP JUMPDEST PUSH1 0x40 MLOAD PUSH2 0x145 SWAP2 SWAP1 PUSH2 0xD22 JUMP JUMPDEST PUSH1 0x40 MLOAD DUP1 SWAP2 SUB SWAP1 RETURN JUMPDEST PUSH2 0x168 PUSH1 0x4 DUP1 CALLDATASIZE SUB DUP2 ADD SWAP1 PUSH2 0x163 SWAP2 SWAP1 PUSH2 0xD3B JUMP JUMPDEST PUSH2 0x4B1 JUMP JUMPDEST PUSH1 0x40 MLOAD PUSH2 0x175 SWAP2 SWAP1 PUSH2 0xD22 JUMP JUMPDEST PUSH1 0x40 MLOAD DUP1 SWAP2 SUB SWAP1 RETURN JUMPDEST PUSH2 0x198 PUSH1 0x4 DUP1 CALLDATASIZE SUB DUP2 ADD SWAP1 PUSH2 0x193 SWAP2 SWAP1 PUSH2 0x9A8 JUMP JUMPDEST PUSH2 0x4DB JUMP JUMPDEST STOP JUMPDEST PUSH2 0x1A2 PUSH2 0x69E JUMP JUMPDEST PUSH1 0x40 MLOAD PUSH2 0x1AF SWAP2 SWAP1 PUSH2 0xC0C JUMP JUMPDEST PUSH1 0x40 MLOAD DUP1 SWAP2 SUB SWAP1 RETURN JUMPDEST PUSH2 0x1D2 PUSH1 0x4 DUP1 CALLDATASIZE SUB DUP2 ADD SWAP1 PUSH2 0x1CD SWAP2 SWAP1 PUSH2 0x9A8 JUMP JUMPDEST PUSH2 0x6A4 JUMP JUMPDEST STOP JUMPDEST PUSH0 DUP2 DUP2 SLOAD DUP2 LT PUSH2 0x1E2 JUMPI PUSH0 DUP1 REVERT JUMPDEST SWAP1 PUSH0 MSTORE PUSH1 0x20 PUSH0 KECCAK256 ADD PUSH0 SWAP2 POP SLOAD SWAP1 PUSH2 0x100 EXP SWAP1 DIV PUSH20 0xFFFFFFFFFFFFFFFFFFFFFFFFFFFFFFFFFFFFFFFF AND DUP2 JUMP JUMPDEST PUSH0 PUSH1 0x1 PUSH0 CALLER PUSH20 0xFFFFFFFFFFFFFFFFFFFFFFFFFFFFFFFFFFFFFFFF AND PUSH20 0xFFFFFFFFFFFFFFFFFFFFFFFFFFFFFFFFFFFFFFFF AND DUP2 MSTORE PUSH1 0x20 ADD SWAP1 DUP2 MSTORE PUSH1 0x20 ADD PUSH0 KECCAK256 PUSH0 SWAP1 SLOAD SWAP1 PUSH2 0x100 EXP SWAP1 DIV PUSH1 0xFF AND PUSH2 0x298 JUMPI PUSH1 0x40 MLOAD PUSH32 0x8C379A000000000000000000000000000000000000000000000000000000000 DUP2 MSTORE PUSH1 0x4 ADD PUSH2 0x28F SWAP1 PUSH2 0xDD3 JUMP JUMPDEST PUSH1 0x40 MLOAD DUP1 SWAP2 SUB SWAP1 REVERT JUMPDEST PUSH0 PUSH1 0x3 DUP1 SLOAD SWAP1 POP SWAP1 POP PUSH1 0x3 PUSH1 0x40 MLOAD DUP1 PUSH1 0xA0 ADD PUSH1 0x40 MSTORE DUP1 DUP8 PUSH20 0xFFFFFFFFFFFFFFFFFFFFFFFFFFFFFFFFFFFFFFFF AND DUP2 MSTORE PUSH1 0x20 ADD DUP7 DUP2 MSTORE PUSH1 0x20 ADD DUP6 DUP2 MSTORE PUSH1 0x20 ADD PUSH0 ISZERO ISZERO DUP2 MSTORE PUSH1 0x20 ADD PUSH0 DUP2 MSTORE POP SWAP1 DUP1 PUSH1 0x1 DUP2 SLOAD ADD DUP1 DUP3 SSTORE DUP1 SWAP2 POP POP PUSH1 0x1 SWAP1 SUB SWAP1 PUSH0 MSTORE PUSH1 0x20 PUSH0 KECCAK256 SWAP1 PUSH1 0x5 MUL ADD PUSH0 SWAP1 SWAP2 SWAP1 SWAP2 SWAP1 SWAP2 POP PUSH0 DUP3 ADD MLOAD DUP2 PUSH0 ADD PUSH0 PUSH2 0x100 EXP DUP2 SLOAD DUP2 PUSH20 0xFFFFFFFFFFFFFFFFFFFFFFFFFFFFFFFFFFFFFFFF MUL NOT AND SWAP1 DUP4 PUSH20 0xFFFFFFFFFFFFFFFFFFFFFFFFFFFFFFFFFFFFFFFF AND MUL OR SWAP1 SSTORE POP PUSH1 0x20 DUP3 ADD MLOAD DUP2 PUSH1 0x1 ADD SSTORE PUSH1 0x40 DUP3 ADD MLOAD DUP2 PUSH1 0x2 ADD SWAP1 DUP2 PUSH2 0x36B SWAP2 SWAP1 PUSH2 0xFEE JUMP JUMPDEST POP PUSH1 0x60 DUP3 ADD MLOAD DUP2 PUSH1 0x3 ADD PUSH0 PUSH2 0x100 EXP DUP2 SLOAD DUP2 PUSH1 0xFF MUL NOT AND SWAP1 DUP4 ISZERO ISZERO MUL OR SWAP1 SSTORE POP PUSH1 0x80 DUP3 ADD MLOAD DUP2 PUSH1 0x4 ADD SSTORE POP POP DUP1 SWAP2 POP POP SWAP4 SWAP3 POP POP POP JUMP JUMPDEST PUSH1 0x3 DUP2 DUP2 SLOAD DUP2 LT PUSH2 0x3B1 JUMPI PUSH0 DUP1 REVERT JUMPDEST SWAP1 PUSH0 MSTORE PUSH1 0x20 PUSH0 KECCAK256 SWAP1 PUSH1 0x5 MUL ADD PUSH0 SWAP2 POP SWAP1 POP DUP1 PUSH0 ADD PUSH0 SWAP1 SLOAD SWAP1 PUSH2 0x100 EXP SWAP1 DIV PUSH20 0xFFFFFFFFFFFFFFFFFFFFFFFFFFFFFFFFFFFFFFFF AND SWAP1 DUP1 PUSH1 0x1 ADD SLOAD SWAP1 DUP1 PUSH1 0x2 ADD DUP1 SLOAD PUSH2 0x3FB SWAP1 PUSH2 0xE1E JUMP JUMPDEST DUP1 PUSH1 0x1F ADD PUSH1 0x20 DUP1 SWAP2 DIV MUL PUSH1 0x20 ADD PUSH1 0x40 MLOAD SWAP1 DUP2 ADD PUSH1 0x40 MSTORE DUP1 SWAP3 SWAP2 SWAP1 DUP2 DUP2 MSTORE PUSH1 0x20 ADD DUP3 DUP1 SLOAD PUSH2 0x427 SWAP1 PUSH2 0xE1E JUMP JUMPDEST DUP1 ISZERO PUSH2 0x472 JUMPI DUP1 PUSH1 0x1F LT PUSH2 0x449 JUMPI PUSH2 0x100 DUP1 DUP4 SLOAD DIV MUL DUP4 MSTORE SWAP2 PUSH1 0x20 ADD SWAP2 PUSH2 0x472 JUMP JUMPDEST DUP3 ADD SWAP2 SWAP1 PUSH0 MSTORE PUSH1 0x20 PUSH0 KECCAK256 SWAP1 JUMPDEST DUP2 SLOAD DUP2 MSTORE SWAP1 PUSH1 0x1 ADD SWAP1 PUSH1 0x20 ADD DUP1 DUP4 GT PUSH2 0x455 JUMPI DUP3 SWAP1 SUB PUSH1 0x1F AND DUP3 ADD SWAP2 JUMPDEST POP POP POP POP POP SWAP1 DUP1 PUSH1 0x3 ADD PUSH0 SWAP1 SLOAD SWAP1 PUSH2 0x100 EXP SWAP1 DIV PUSH1 0xFF AND SWAP1 DUP1 PUSH1 0x4 ADD SLOAD SWAP1 POP DUP6 JUMP JUMPDEST PUSH1 0x1 PUSH1 0x20 MSTORE DUP1 PUSH0 MSTORE PUSH1 0x40 PUSH0 KECCAK256 PUSH0 SWAP2 POP SLOAD SWAP1 PUSH2 0x100 EXP SWAP1 DIV PUSH1 0xFF AND DUP2 JUMP JUMPDEST PUSH1 0x4 PUSH1 0x20 MSTORE DUP2 PUSH0 MSTORE PUSH1 0x40 PUSH0 KECCAK256 PUSH1 0x20 MSTORE DUP1 PUSH0 MSTORE PUSH1 0x40 PUSH0 KECCAK256 PUSH0 SWAP2 POP SWAP2 POP SWAP1 SLOAD SWAP1 PUSH2 0x100 EXP SWAP1 DIV PUSH1 0xFF AND DUP2 JUMP JUMPDEST PUSH1 0x1 PUSH0 CALLER PUSH20 0xFFFFFFFFFFFFFFFFFFFFFFFFFFFFFFFFFFFFFFFF AND PUSH20 0xFFFFFFFFFFFFFFFFFFFFFFFFFFFFFFFFFFFFFFFF AND DUP2 MSTORE PUSH1 0x20 ADD SWAP1 DUP2 MSTORE PUSH1 0x20 ADD PUSH0 KECCAK256 PUSH0 SWAP1 SLOAD SWAP1 PUSH2 0x100 EXP SWAP1 DIV PUSH1 0xFF AND PUSH2 0x564 JUMPI PUSH1 0x40 MLOAD PUSH32 0x8C379A000000000000000000000000000000000000000000000000000000000 DUP2 MSTORE PUSH1 0x4 ADD PUSH2 0x55B SWAP1 PUSH2 0xDD3 JUMP JUMPDEST PUSH1 0x40 MLOAD DUP1 SWAP2 SUB SWAP1 REVERT JUMPDEST PUSH1 0x4 PUSH0 DUP3 DUP2 MSTORE PUSH1 0x20 ADD SWAP1 DUP2 MSTORE PUSH1 0x20 ADD PUSH0 KECCAK256 PUSH0 CALLER PUSH20 0xFFFFFFFFFFFFFFFFFFFFFFFFFFFFFFFFFFFFFFFF AND PUSH20 0xFFFFFFFFFFFFFFFFFFFFFFFFFFFFFFFFFFFFFFFF AND DUP2 MSTORE PUSH1 0x20 ADD SWAP1 DUP2 MSTORE PUSH1 0x20 ADD PUSH0 KECCAK256 PUSH0 SWAP1 SLOAD SWAP1 PUSH2 0x100 EXP SWAP1 DIV PUSH1 0xFF AND ISZERO PUSH2 0x5FD JUMPI PUSH1 0x40 MLOAD PUSH32 0x8C379A000000000000000000000000000000000000000000000000000000000 DUP2 MSTORE PUSH1 0x4 ADD PUSH2 0x5F4 SWAP1 PUSH2 0x1107 JUMP JUMPDEST PUSH1 0x40 MLOAD DUP1 SWAP2 SUB SWAP1 REVERT JUMPDEST PUSH1 0x1 PUSH1 0x4 PUSH0 DUP4 DUP2 MSTORE PUSH1 0x20 ADD SWAP1 DUP2 MSTORE PUSH1 0x20 ADD PUSH0 KECCAK256 PUSH0 CALLER PUSH20 0xFFFFFFFFFFFFFFFFFFFFFFFFFFFFFFFFFFFFFFFF AND PUSH20 0xFFFFFFFFFFFFFFFFFFFFFFFFFFFFFFFFFFFFFFFF AND DUP2 MSTORE PUSH1 0x20 ADD SWAP1 DUP2 MSTORE PUSH1 0x20 ADD PUSH0 KECCAK256 PUSH0 PUSH2 0x100 EXP DUP2 SLOAD DUP2 PUSH1 0xFF MUL NOT AND SWAP1 DUP4 ISZERO ISZERO MUL OR SWAP1 SSTORE POP PUSH1 0x1 PUSH1 0x3 DUP3 DUP2 SLOAD DUP2 LT PUSH2 0x677 JUMPI PUSH2 0x676 PUSH2 0x1125 JUMP JUMPDEST JUMPDEST SWAP1 PUSH0 MSTORE PUSH1 0x20 PUSH0 KECCAK256 SWAP1 PUSH1 0x5 MUL ADD PUSH1 0x4 ADD PUSH0 DUP3 DUP3 SLOAD PUSH2 0x694 SWAP2 SWAP1 PUSH2 0x117F JUMP JUMPDEST SWAP3 POP POP DUP2 SWAP1 SSTORE POP POP JUMP JUMPDEST PUSH1 0x2 SLOAD DUP2 JUMP JUMPDEST PUSH1 0x1 PUSH0 CALLER PUSH20 0xFFFFFFFFFFFFFFFFFFFFFFFFFFFFFFFFFFFFFFFF AND PUSH20 0xFFFFFFFFFFFFFFFFFFFFFFFFFFFFFFFFFFFFFFFF AND DUP2 MSTORE PUSH1 0x20 ADD SWAP1 DUP2 MSTORE PUSH1 0x20 ADD PUSH0 KECCAK256 PUSH0 SWAP1 SLOAD SWAP1 PUSH2 0x100 EXP SWAP1 DIV PUSH1 0xFF AND PUSH2 0x72D JUMPI PUSH1 0x40 MLOAD PUSH32 0x8C379A000000000000000000000000000000000000000000000000000000000 DUP2 MSTORE PUSH1 0x4 ADD PUSH2 0x724 SWAP1 PUSH2 0xDD3 JUMP JUMPDEST PUSH1 0x40 MLOAD DUP1 SWAP2 SUB SWAP1 REVERT JUMPDEST PUSH1 0x5 PUSH0 SWAP1 SLOAD SWAP1 PUSH2 0x100 EXP SWAP1 DIV PUSH1 0xFF AND ISZERO PUSH2 0x77C JUMPI PUSH1 0x40 MLOAD PUSH32 0x8C379A000000000000000000000000000000000000000000000000000000000 DUP2 MSTORE PUSH1 0x4 ADD PUSH2 0x773 SWAP1 PUSH2 0x11FC JUMP JUMPDEST PUSH1 0x40 MLOAD DUP1 SWAP2 SUB SWAP1 REVERT JUMPDEST PUSH1 0x1 PUSH1 0x5 PUSH0 PUSH2 0x100 EXP DUP2 SLOAD DUP2 PUSH1 0xFF MUL NOT AND SWAP1 DUP4 ISZERO ISZERO MUL OR SWAP1 SSTORE POP PUSH0 PUSH1 0x3 DUP3 DUP2 SLOAD DUP2 LT PUSH2 0x7AB JUMPI PUSH2 0x7AA PUSH2 0x1125 JUMP JUMPDEST JUMPDEST SWAP1 PUSH0 MSTORE PUSH1 0x20 PUSH0 KECCAK256 SWAP1 PUSH1 0x5 MUL ADD SWAP1 POP DUP1 PUSH1 0x3 ADD PUSH0 SWAP1 SLOAD SWAP1 PUSH2 0x100 EXP SWAP1 DIV PUSH1 0xFF AND ISZERO PUSH2 0x80A JUMPI PUSH1 0x40 MLOAD PUSH32 0x8C379A000000000000000000000000000000000000000000000000000000000 DUP2 MSTORE PUSH1 0x4 ADD PUSH2 0x801 SWAP1 PUSH2 0x1264 JUMP JUMPDEST PUSH1 0x40 MLOAD DUP1 SWAP2 SUB SWAP1 REVERT JUMPDEST PUSH1 0x2 SLOAD DUP2 PUSH1 0x4 ADD SLOAD LT ISZERO PUSH2 0x853 JUMPI PUSH1 0x40 MLOAD PUSH32 0x8C379A000000000000000000000000000000000000000000000000000000000 DUP2 MSTORE PUSH1 0x4 ADD PUSH2 0x84A SWAP1 PUSH2 0x12CC JUMP JUMPDEST PUSH1 0x40 MLOAD DUP1 SWAP2 SUB SWAP1 REVERT JUMPDEST PUSH1 0x1 DUP2 PUSH1 0x3 ADD PUSH0 PUSH2 0x100 EXP DUP2 SLOAD DUP2 PUSH1 0xFF MUL NOT AND SWAP1 DUP4 ISZERO ISZERO MUL OR SWAP1 SSTORE POP PUSH0 DUP2 PUSH0 ADD PUSH0 SWAP1 SLOAD SWAP1 PUSH2 0x100 EXP SWAP1 DIV PUSH20 0xFFFFFFFFFFFFFFFFFFFFFFFFFFFFFFFFFFFFFFFF AND PUSH20 0xFFFFFFFFFFFFFFFFFFFFFFFFFFFFFFFFFFFFFFFF AND PUSH2 0xC350 DUP4 PUSH1 0x1 ADD SLOAD DUP5 PUSH1 0x2 ADD PUSH1 0x40 MLOAD PUSH2 0x8C2 SWAP2 SWAP1 PUSH2 0x1374 JUMP JUMPDEST PUSH0 PUSH1 0x40 MLOAD DUP1 DUP4 SUB DUP2 DUP6 DUP9 DUP9 CALL SWAP4 POP POP POP POP RETURNDATASIZE DUP1 PUSH0 DUP2 EQ PUSH2 0x8FD JUMPI PUSH1 0x40 MLOAD SWAP2 POP PUSH1 0x1F NOT PUSH1 0x3F RETURNDATASIZE ADD AND DUP3 ADD PUSH1 0x40 MSTORE RETURNDATASIZE DUP3 MSTORE RETURNDATASIZE PUSH0 PUSH1 0x20 DUP5 ADD RETURNDATACOPY PUSH2 0x902 JUMP JUMPDEST PUSH1 0x60 SWAP2 POP JUMPDEST POP POP SWAP1 POP DUP1 PUSH2 0x946 JUMPI PUSH1 0x40 MLOAD PUSH32 0x8C379A000000000000000000000000000000000000000000000000000000000 DUP2 MSTORE PUSH1 0x4 ADD PUSH2 0x93D SWAP1 PUSH2 0x13D4 JUMP JUMPDEST PUSH1 0x40 MLOAD DUP1 SWAP2 SUB SWAP1 REVERT JUMPDEST POP POP PUSH0 PUSH1 0x5 PUSH0 PUSH2 0x100 EXP DUP2 SLOAD DUP2 PUSH1 0xFF MUL NOT AND SWAP1 DUP4 ISZERO ISZERO MUL OR SWAP1 SSTORE POP POP JUMP JUMPDEST PUSH0 PUSH1 0x40 MLOAD SWAP1 POP SWAP1 JUMP JUMPDEST PUSH0 PUSH0 REVERT JUMPDEST PUSH0 PUSH0 REVERT JUMPDEST PUSH0 DUP2 SWAP1 POP SWAP2 SWAP1 POP JUMP JUMPDEST PUSH2 0x987 DUP2 PUSH2 0x975 JUMP JUMPDEST DUP2 EQ PUSH2 0x991 JUMPI PUSH0 PUSH0 REVERT JUMPDEST POP JUMP JUMPDEST PUSH0 DUP2 CALLDATALOAD SWAP1 POP PUSH2 0x9A2 DUP2 PUSH2 0x97E JUMP JUMPDEST SWAP3 SWAP2 POP POP JUMP JUMPDEST PUSH0 PUSH1 0x20 DUP3 DUP5 SUB SLT ISZERO PUSH2 0x9BD JUMPI PUSH2 0x9BC PUSH2 0x96D JUMP JUMPDEST JUMPDEST PUSH0 PUSH2 0x9CA DUP5 DUP3 DUP6 ADD PUSH2 0x994 JUMP JUMPDEST SWAP2 POP POP SWAP3 SWAP2 POP POP JUMP JUMPDEST PUSH0 PUSH20 0xFFFFFFFFFFFFFFFFFFFFFFFFFFFFFFFFFFFFFFFF DUP3 AND SWAP1 POP SWAP2 SWAP1 POP JUMP JUMPDEST PUSH0 PUSH2 0x9FC DUP3 PUSH2 0x9D3 JUMP JUMPDEST SWAP1 POP SWAP2 SWAP1 POP JUMP JUMPDEST PUSH2 0xA0C DUP2 PUSH2 0x9F2 JUMP JUMPDEST DUP3 MSTORE POP POP JUMP JUMPDEST PUSH0 PUSH1 0x20 DUP3 ADD SWAP1 POP PUSH2 0xA25 PUSH0 DUP4 ADD DUP5 PUSH2 0xA03 JUMP JUMPDEST SWAP3 SWAP2 POP POP JUMP JUMPDEST PUSH2 0xA34 DUP2 PUSH2 0x9F2 JUMP JUMPDEST DUP2 EQ PUSH2 0xA3E JUMPI PUSH0 PUSH0 REVERT JUMPDEST POP JUMP JUMPDEST PUSH0 DUP2 CALLDATALOAD SWAP1 POP PUSH2 0xA4F DUP2 PUSH2 0xA2B JUMP JUMPDEST SWAP3 SWAP2 POP POP JUMP JUMPDEST PUSH0 PUSH0 REVERT JUMPDEST PUSH0 PUSH0 REVERT JUMPDEST PUSH0 PUSH1 0x1F NOT PUSH1 0x1F DUP4 ADD AND SWAP1 POP SWAP2 SWAP1 POP JUMP JUMPDEST PUSH32 0x4E487B7100000000000000000000000000000000000000000000000000000000 PUSH0 MSTORE PUSH1 0x41 PUSH1 0x4 MSTORE PUSH1 0x24 PUSH0 REVERT JUMPDEST PUSH2 0xAA3 DUP3 PUSH2 0xA5D JUMP JUMPDEST DUP2 ADD DUP2 DUP2 LT PUSH8 0xFFFFFFFFFFFFFFFF DUP3 GT OR ISZERO PUSH2 0xAC2 JUMPI PUSH2 0xAC1 PUSH2 0xA6D JUMP JUMPDEST JUMPDEST DUP1 PUSH1 0x40 MSTORE POP POP POP JUMP JUMPDEST PUSH0 PUSH2 0xAD4 PUSH2 0x964 JUMP JUMPDEST SWAP1 POP PUSH2 0xAE0 DUP3 DUP3 PUSH2 0xA9A JUMP JUMPDEST SWAP2 SWAP1 POP JUMP JUMPDEST PUSH0 PUSH8 0xFFFFFFFFFFFFFFFF DUP3 GT ISZERO PUSH2 0xAFF JUMPI PUSH2 0xAFE PUSH2 0xA6D JUMP JUMPDEST JUMPDEST PUSH2 0xB08 DUP3 PUSH2 0xA5D JUMP JUMPDEST SWAP1 POP PUSH1 0x20 DUP2 ADD SWAP1 POP SWAP2 SWAP1 POP JUMP JUMPDEST DUP3 DUP2 DUP4 CALLDATACOPY PUSH0 DUP4 DUP4 ADD MSTORE POP POP POP JUMP JUMPDEST PUSH0 PUSH2 0xB35 PUSH2 0xB30 DUP5 PUSH2 0xAE5 JUMP JUMPDEST PUSH2 0xACB JUMP JUMPDEST SWAP1 POP DUP3 DUP2 MSTORE PUSH1 0x20 DUP2 ADD DUP5 DUP5 DUP5 ADD GT ISZERO PUSH2 0xB51 JUMPI PUSH2 0xB50 PUSH2 0xA59 JUMP JUMPDEST JUMPDEST PUSH2 0xB5C DUP5 DUP3 DUP6 PUSH2 0xB15 JUMP JUMPDEST POP SWAP4 SWAP3 POP POP POP JUMP JUMPDEST PUSH0 DUP3 PUSH1 0x1F DUP4 ADD SLT PUSH2 0xB78 JUMPI PUSH2 0xB77 PUSH2 0xA55 JUMP JUMPDEST JUMPDEST DUP2 CALLDATALOAD PUSH2 0xB88 DUP5 DUP3 PUSH1 0x20 DUP7 ADD PUSH2 0xB23 JUMP JUMPDEST SWAP2 POP POP SWAP3 SWAP2 POP POP JUMP JUMPDEST PUSH0 PUSH0 PUSH0 PUSH1 0x60 DUP5 DUP7 SUB SLT ISZERO PUSH2 0xBA8 JUMPI PUSH2 0xBA7 PUSH2 0x96D JUMP JUMPDEST JUMPDEST PUSH0 PUSH2 0xBB5 DUP7 DUP3 DUP8 ADD PUSH2 0xA41 JUMP JUMPDEST SWAP4 POP POP PUSH1 0x20 PUSH2 0xBC6 DUP7 DUP3 DUP8 ADD PUSH2 0x994 JUMP JUMPDEST SWAP3 POP POP PUSH1 0x40 DUP5 ADD CALLDATALOAD PUSH8 0xFFFFFFFFFFFFFFFF DUP2 GT ISZERO PUSH2 0xBE7 JUMPI PUSH2 0xBE6 PUSH2 0x971 JUMP JUMPDEST JUMPDEST PUSH2 0xBF3 DUP7 DUP3 DUP8 ADD PUSH2 0xB64 JUMP JUMPDEST SWAP2 POP POP SWAP3 POP SWAP3 POP SWAP3 JUMP JUMPDEST PUSH2 0xC06 DUP2 PUSH2 0x975 JUMP JUMPDEST DUP3 MSTORE POP POP JUMP JUMPDEST PUSH0 PUSH1 0x20 DUP3 ADD SWAP1 POP PUSH2 0xC1F PUSH0 DUP4 ADD DUP5 PUSH2 0xBFD JUMP JUMPDEST SWAP3 SWAP2 POP POP JUMP JUMPDEST PUSH0 DUP2 MLOAD SWAP1 POP SWAP2 SWAP1 POP JUMP JUMPDEST PUSH0 DUP3 DUP3 MSTORE PUSH1 0x20 DUP3 ADD SWAP1 POP SWAP3 SWAP2 POP POP JUMP JUMPDEST DUP3 DUP2 DUP4 MCOPY PUSH0 DUP4 DUP4 ADD MSTORE POP POP POP JUMP JUMPDEST PUSH0 PUSH2 0xC57 DUP3 PUSH2 0xC25 JUMP JUMPDEST PUSH2 0xC61 DUP2 DUP6 PUSH2 0xC2F JUMP JUMPDEST SWAP4 POP PUSH2 0xC71 DUP2 DUP6 PUSH1 0x20 DUP7 ADD PUSH2 0xC3F JUMP JUMPDEST PUSH2 0xC7A DUP2 PUSH2 0xA5D JUMP JUMPDEST DUP5 ADD SWAP2 POP POP SWAP3 SWAP2 POP POP JUMP JUMPDEST PUSH0 DUP2 ISZERO ISZERO SWAP1 POP SWAP2 SWAP1 POP JUMP JUMPDEST PUSH2 0xC99 DUP2 PUSH2 0xC85 JUMP JUMPDEST DUP3 MSTORE POP POP JUMP JUMPDEST PUSH0 PUSH1 0xA0 DUP3 ADD SWAP1 POP PUSH2 0xCB2 PUSH0 DUP4 ADD DUP9 PUSH2 0xA03 JUMP JUMPDEST PUSH2 0xCBF PUSH1 0x20 DUP4 ADD DUP8 PUSH2 0xBFD JUMP JUMPDEST DUP2 DUP2 SUB PUSH1 0x40 DUP4 ADD MSTORE PUSH2 0xCD1 DUP2 DUP7 PUSH2 0xC4D JUMP JUMPDEST SWAP1 POP PUSH2 0xCE0 PUSH1 0x60 DUP4 ADD DUP6 PUSH2 0xC90 JUMP JUMPDEST PUSH2 0xCED PUSH1 0x80 DUP4 ADD DUP5 PUSH2 0xBFD JUMP JUMPDEST SWAP7 SWAP6 POP POP POP POP POP POP JUMP JUMPDEST PUSH0 PUSH1 0x20 DUP3 DUP5 SUB SLT ISZERO PUSH2 0xD0C JUMPI PUSH2 0xD0B PUSH2 0x96D JUMP JUMPDEST JUMPDEST PUSH0 PUSH2 0xD19 DUP5 DUP3 DUP6 ADD PUSH2 0xA41 JUMP JUMPDEST SWAP2 POP POP SWAP3 SWAP2 POP POP JUMP JUMPDEST PUSH0 PUSH1 0x20 DUP3 ADD SWAP1 POP PUSH2 0xD35 PUSH0 DUP4 ADD DUP5 PUSH2 0xC90 JUMP JUMPDEST SWAP3 SWAP2 POP POP JUMP JUMPDEST PUSH0 PUSH0 PUSH1 0x40 DUP4 DUP6 SUB SLT ISZERO PUSH2 0xD51 JUMPI PUSH2 0xD50 PUSH2 0x96D JUMP JUMPDEST JUMPDEST PUSH0 PUSH2 0xD5E DUP6 DUP3 DUP7 ADD PUSH2 0x994 JUMP JUMPDEST SWAP3 POP POP PUSH1 0x20 PUSH2 0xD6F DUP6 DUP3 DUP7 ADD PUSH2 0xA41 JUMP JUMPDEST SWAP2 POP POP SWAP3 POP SWAP3 SWAP1 POP JUMP JUMPDEST PUSH0 DUP3 DUP3 MSTORE PUSH1 0x20 DUP3 ADD SWAP1 POP SWAP3 SWAP2 POP POP JUMP JUMPDEST PUSH32 0x4E6F74206F776E65720000000000000000000000000000000000000000000000 PUSH0 DUP3 ADD MSTORE POP JUMP JUMPDEST PUSH0 PUSH2 0xDBD PUSH1 0x9 DUP4 PUSH2 0xD79 JUMP JUMPDEST SWAP2 POP PUSH2 0xDC8 DUP3 PUSH2 0xD89 JUMP JUMPDEST PUSH1 0x20 DUP3 ADD SWAP1 POP SWAP2 SWAP1 POP JUMP JUMPDEST PUSH0 PUSH1 0x20 DUP3 ADD SWAP1 POP DUP2 DUP2 SUB PUSH0 DUP4 ADD MSTORE PUSH2 0xDEA DUP2 PUSH2 0xDB1 JUMP JUMPDEST SWAP1 POP SWAP2 SWAP1 POP JUMP JUMPDEST PUSH32 0x4E487B7100000000000000000000000000000000000000000000000000000000 PUSH0 MSTORE PUSH1 0x22 PUSH1 0x4 MSTORE PUSH1 0x24 PUSH0 REVERT JUMPDEST PUSH0 PUSH1 0x2 DUP3 DIV SWAP1 POP PUSH1 0x1 DUP3 AND DUP1 PUSH2 0xE35 JUMPI PUSH1 0x7F DUP3 AND SWAP2 POP JUMPDEST PUSH1 0x20 DUP3 LT DUP2 SUB PUSH2 0xE48 JUMPI PUSH2 0xE47 PUSH2 0xDF1 JUMP JUMPDEST JUMPDEST POP SWAP2 SWAP1 POP JUMP JUMPDEST PUSH0 DUP2 SWAP1 POP DUP2 PUSH0 MSTORE PUSH1 0x20 PUSH0 KECCAK256 SWAP1 POP SWAP2 SWAP1 POP JUMP JUMPDEST PUSH0 PUSH1 0x20 PUSH1 0x1F DUP4 ADD DIV SWAP1 POP SWAP2 SWAP1 POP JUMP JUMPDEST PUSH0 DUP3 DUP3 SHL SWAP1 POP SWAP3 SWAP2 POP POP JUMP JUMPDEST PUSH0 PUSH1 0x8 DUP4 MUL PUSH2 0xEAA PUSH32 0xFFFFFFFFFFFFFFFFFFFFFFFFFFFFFFFFFFFFFFFFFFFFFFFFFFFFFFFFFFFFFFFF DUP3 PUSH2 0xE6F JUMP JUMPDEST PUSH2 0xEB4 DUP7 DUP4 PUSH2 0xE6F JUMP JUMPDEST SWAP6 POP DUP1 NOT DUP5 AND SWAP4 POP DUP1 DUP7 AND DUP5 OR SWAP3 POP POP POP SWAP4 SWAP3 POP POP POP JUMP JUMPDEST PUSH0 DUP2 SWAP1 POP SWAP2 SWAP1 POP JUMP JUMPDEST PUSH0 PUSH2 0xEEF PUSH2 0xEEA PUSH2 0xEE5 DUP5 PUSH2 0x975 JUMP JUMPDEST PUSH2 0xECC JUMP JUMPDEST PUSH2 0x975 JUMP JUMPDEST SWAP1 POP SWAP2 SWAP1 POP JUMP JUMPDEST PUSH0 DUP2 SWAP1 POP SWAP2 SWAP1 POP JUMP JUMPDEST PUSH2 0xF08 DUP4 PUSH2 0xED5 JUMP JUMPDEST PUSH2 0xF1C PUSH2 0xF14 DUP3 PUSH2 0xEF6 JUMP JUMPDEST DUP5 DUP5 SLOAD PUSH2 0xE7B JUMP JUMPDEST DUP3 SSTORE POP POP POP POP JUMP JUMPDEST PUSH0 PUSH0 SWAP1 POP SWAP1 JUMP JUMPDEST PUSH2 0xF33 PUSH2 0xF24 JUMP JUMPDEST PUSH2 0xF3E DUP2 DUP5 DUP5 PUSH2 0xEFF JUMP JUMPDEST POP POP POP JUMP JUMPDEST JUMPDEST DUP2 DUP2 LT ISZERO PUSH2 0xF61 JUMPI PUSH2 0xF56 PUSH0 DUP3 PUSH2 0xF2B JUMP JUMPDEST PUSH1 0x1 DUP2 ADD SWAP1 POP PUSH2 0xF44 JUMP JUMPDEST POP POP JUMP JUMPDEST PUSH1 0x1F DUP3 GT ISZERO PUSH2 0xFA6 JUMPI PUSH2 0xF77 DUP2 PUSH2 0xE4E JUMP JUMPDEST PUSH2 0xF80 DUP5 PUSH2 0xE60 JUMP JUMPDEST DUP2 ADD PUSH1 0x20 DUP6 LT ISZERO PUSH2 0xF8F JUMPI DUP2 SWAP1 POP JUMPDEST PUSH2 0xFA3 PUSH2 0xF9B DUP6 PUSH2 0xE60 JUMP JUMPDEST DUP4 ADD DUP3 PUSH2 0xF43 JUMP JUMPDEST POP POP JUMPDEST POP POP POP JUMP JUMPDEST PUSH0 DUP3 DUP3 SHR SWAP1 POP SWAP3 SWAP2 POP POP JUMP JUMPDEST PUSH0 PUSH2 0xFC6 PUSH0 NOT DUP5 PUSH1 0x8 MUL PUSH2 0xFAB JUMP JUMPDEST NOT DUP1 DUP4 AND SWAP2 POP POP SWAP3 SWAP2 POP POP JUMP JUMPDEST PUSH0 PUSH2 0xFDE DUP4 DUP4 PUSH2 0xFB7 JUMP JUMPDEST SWAP2 POP DUP3 PUSH1 0x2 MUL DUP3 OR SWAP1 POP SWAP3 SWAP2 POP POP JUMP JUMPDEST PUSH2 0xFF7 DUP3 PUSH2 0xC25 JUMP JUMPDEST PUSH8 0xFFFFFFFFFFFFFFFF DUP2 GT ISZERO PUSH2 0x1010 JUMPI PUSH2 0x100F PUSH2 0xA6D JUMP JUMPDEST JUMPDEST PUSH2 0x101A DUP3 SLOAD PUSH2 0xE1E JUMP JUMPDEST PUSH2 0x1025 DUP3 DUP3 DUP6 PUSH2 0xF65 JUMP JUMPDEST PUSH0 PUSH1 0x20 SWAP1 POP PUSH1 0x1F DUP4 GT PUSH1 0x1 DUP2 EQ PUSH2 0x1056 JUMPI PUSH0 DUP5 ISZERO PUSH2 0x1044 JUMPI DUP3 DUP8 ADD MLOAD SWAP1 POP JUMPDEST PUSH2 0x104E DUP6 DUP3 PUSH2 0xFD3 JUMP JUMPDEST DUP7 SSTORE POP PUSH2 0x10B5 JUMP JUMPDEST PUSH1 0x1F NOT DUP5 AND PUSH2 0x1064 DUP7 PUSH2 0xE4E JUMP JUMPDEST PUSH0 JUMPDEST DUP3 DUP2 LT ISZERO PUSH2 0x108B JUMPI DUP5 DUP10 ADD MLOAD DUP3 SSTORE PUSH1 0x1 DUP3 ADD SWAP2 POP PUSH1 0x20 DUP6 ADD SWAP5 POP PUSH1 0x20 DUP2 ADD SWAP1 POP PUSH2 0x1066 JUMP JUMPDEST DUP7 DUP4 LT ISZERO PUSH2 0x10A8 JUMPI DUP5 DUP10 ADD MLOAD PUSH2 0x10A4 PUSH1 0x1F DUP10 AND DUP3 PUSH2 0xFB7 JUMP JUMPDEST DUP4 SSTORE POP JUMPDEST PUSH1 0x1 PUSH1 0x2 DUP9 MUL ADD DUP9 SSTORE POP POP POP JUMPDEST POP POP POP POP POP POP JUMP JUMPDEST PUSH32 0x416C726561647920636F6E6669726D6564000000000000000000000000000000 PUSH0 DUP3 ADD MSTORE POP JUMP JUMPDEST PUSH0 PUSH2 0x10F1 PUSH1 0x11 DUP4 PUSH2 0xD79 JUMP JUMPDEST SWAP2 POP PUSH2 0x10FC DUP3 PUSH2 0x10BD JUMP JUMPDEST PUSH1 0x20 DUP3 ADD SWAP1 POP SWAP2 SWAP1 POP JUMP JUMPDEST PUSH0 PUSH1 0x20 DUP3 ADD SWAP1 POP DUP2 DUP2 SUB PUSH0 DUP4 ADD MSTORE PUSH2 0x111E DUP2 PUSH2 0x10E5 JUMP JUMPDEST SWAP1 POP SWAP2 SWAP1 POP JUMP JUMPDEST PUSH32 0x4E487B7100000000000000000000000000000000000000000000000000000000 PUSH0 MSTORE PUSH1 0x32 PUSH1 0x4 MSTORE PUSH1 0x24 PUSH0 REVERT JUMPDEST PUSH32 0x4E487B7100000000000000000000000000000000000000000000000000000000 PUSH0 MSTORE PUSH1 0x11 PUSH1 0x4 MSTORE PUSH1 0x24 PUSH0 REVERT JUMPDEST PUSH0 PUSH2 0x1189 DUP3 PUSH2 0x975 JUMP JUMPDEST SWAP2 POP PUSH2 0x1194 DUP4 PUSH2 0x975 JUMP JUMPDEST SWAP3 POP DUP3 DUP3 ADD SWAP1 POP DUP1 DUP3 GT ISZERO PUSH2 0x11AC JUMPI PUSH2 0x11AB PUSH2 0x1152 JUMP JUMPDEST JUMPDEST SWAP3 SWAP2 POP POP JUMP JUMPDEST PUSH32 0x4E6F207265656E7472616E637900000000000000000000000000000000000000 PUSH0 DUP3 ADD MSTORE POP JUMP JUMPDEST PUSH0 PUSH2 0x11E6 PUSH1 0xD DUP4 PUSH2 0xD79 JUMP JUMPDEST SWAP2 POP PUSH2 0x11F1 DUP3 PUSH2 0x11B2 JUMP JUMPDEST PUSH1 0x20 DUP3 ADD SWAP1 POP SWAP2 SWAP1 POP JUMP JUMPDEST PUSH0 PUSH1 0x20 DUP3 ADD SWAP1 POP DUP2 DUP2 SUB PUSH0 DUP4 ADD MSTORE PUSH2 0x1213 DUP2 PUSH2 0x11DA JUMP JUMPDEST SWAP1 POP SWAP2 SWAP1 POP JUMP JUMPDEST PUSH32 0x416C726561647920657865637574656400000000000000000000000000000000 PUSH0 DUP3 ADD MSTORE POP JUMP JUMPDEST PUSH0 PUSH2 0x124E PUSH1 0x10 DUP4 PUSH2 0xD79 JUMP JUMPDEST SWAP2 POP PUSH2 0x1259 DUP3 PUSH2 0x121A JUMP JUMPDEST PUSH1 0x20 DUP3 ADD SWAP1 POP SWAP2 SWAP1 POP JUMP JUMPDEST PUSH0 PUSH1 0x20 DUP3 ADD SWAP1 POP DUP2 DUP2 SUB PUSH0 DUP4 ADD MSTORE PUSH2 0x127B DUP2 PUSH2 0x1242 JUMP JUMPDEST SWAP1 POP SWAP2 SWAP1 POP JUMP JUMPDEST PUSH32 0x496E73756666696369656E7420636F6E6669726D6174696F6E73000000000000 PUSH0 DUP3 ADD MSTORE POP JUMP JUMPDEST PUSH0 PUSH2 0x12B6 PUSH1 0x1A DUP4 PUSH2 0xD79 JUMP JUMPDEST SWAP2 POP PUSH2 0x12C1 DUP3 PUSH2 0x1282 JUMP JUMPDEST PUSH1 0x20 DUP3 ADD SWAP1 POP SWAP2 SWAP1 POP JUMP JUMPDEST PUSH0 PUSH1 0x20 DUP3 ADD SWAP1 POP DUP2 DUP2 SUB PUSH0 DUP4 ADD MSTORE PUSH2 0x12E3 DUP2 PUSH2 0x12AA JUMP JUMPDEST SWAP1 POP SWAP2 SWAP1 POP JUMP JUMPDEST PUSH0 DUP2 SWAP1 POP SWAP3 SWAP2 POP POP JUMP JUMPDEST PUSH0 DUP2 SLOAD PUSH2 0x1300 DUP2 PUSH2 0xE1E JUMP JUMPDEST PUSH2 0x130A DUP2 DUP7 PUSH2 0x12EA JUMP JUMPDEST SWAP5 POP PUSH1 0x1 DUP3 AND PUSH0 DUP2 EQ PUSH2 0x1324 JUMPI PUSH1 0x1 DUP2 EQ PUSH2 0x1339 JUMPI PUSH2 0x136B JUMP JUMPDEST PUSH1 0xFF NOT DUP4 AND DUP7 MSTORE DUP2 ISZERO ISZERO DUP3 MUL DUP7 ADD SWAP4 POP PUSH2 0x136B JUMP JUMPDEST PUSH2 0x1342 DUP6 PUSH2 0xE4E JUMP JUMPDEST PUSH0 JUMPDEST DUP4 DUP2 LT ISZERO PUSH2 0x1363 JUMPI DUP2 SLOAD DUP2 DUP10 ADD MSTORE PUSH1 0x1 DUP3 ADD SWAP2 POP PUSH1 0x20 DUP2 ADD SWAP1 POP PUSH2 0x1344 JUMP JUMPDEST DUP4 DUP9 ADD SWAP6 POP POP POP JUMPDEST POP POP POP SWAP3 SWAP2 POP POP JUMP JUMPDEST PUSH0 PUSH2 0x137F DUP3 DUP5 PUSH2 0x12F4 JUMP JUMPDEST SWAP2 POP DUP2 SWAP1 POP SWAP3 SWAP2 POP POP JUMP JUMPDEST PUSH32 0x457865637574696F6E206661696C656400000000000000000000000000000000 PUSH0 DUP3 ADD MSTORE POP JUMP JUMPDEST PUSH0 PUSH2 0x13BE PUSH1 0x10 DUP4 PUSH2 0xD79 JUMP JUMPDEST SWAP2 POP PUSH2 0x13C9 DUP3 PUSH2 0x138A JUMP JUMPDEST PUSH1 0x20 DUP3 ADD SWAP1 POP SWAP2 SWAP1 POP JUMP JUMPDEST PUSH0 PUSH1 0x20 DUP3 ADD SWAP1 POP DUP2 DUP2 SUB PUSH0 DUP4 ADD MSTORE PUSH2 0x13EB DUP2 PUSH2 0x13B2 JUMP JUMPDEST SWAP1 POP SWAP2 SWAP1 POP JUMP INVALID LOG2 PUSH5 0x6970667358 0x22 SLT KECCAK256 PUSH6 0x705C31B5395A 0xDC GASLIMIT SWAP13 GASLIMIT 0xAF TIMESTAMP 0xD PUSH32 0x371E8B296E76260F21A58898E6EF0D634064736F6C634300081F003300000000 "
				},
				"gasEstimates": {
					"creation": {
						"codeDepositCost": "1032000",
						"executionCost": "infinite",
						"totalCost": "infinite"
					},
					"external": {
						"MultiSigTxs(uint256)": "infinite",
						"confirm(uint256)": "infinite",
						"confirmations(uint256,address)": "3070",
						"execute(uint256)": "infinite",
						"isOwner(address)": "2900",
						"owners(uint256)": "4944",
						"required()": "2469",
						"submit(address,uint256,bytes)": "infinite"
					}
				},
				"methodIdentifiers": {
					"MultiSigTxs(uint256)": "2b6c71cc",
					"confirm(uint256)": "ba0179b5",
					"confirmations(uint256,address)": "3411c81c",
					"execute(uint256)": "fe0d94c1",
					"isOwner(address)": "2f54bf6e",
					"owners(uint256)": "025e7c27",
					"required()": "dc8452cd",
					"submit(address,uint256,bytes)": "14de327f"
				}
			},
			"storageLayout": {
				"storage": [
					{
						"astId": 4,
						"contract": "contracts/lesson8.1/MultiSigWallet.sol:MultiSigWallet",
						"label": "owners",
						"offset": 0,
						"slot": "0",
						"type": "t_array(t_address)dyn_storage"
					},
					{
						"astId": 8,
						"contract": "contracts/lesson8.1/MultiSigWallet.sol:MultiSigWallet",
						"label": "isOwner",
						"offset": 0,
						"slot": "1",
						"type": "t_mapping(t_address,t_bool)"
					},
					{
						"astId": 10,
						"contract": "contracts/lesson8.1/MultiSigWallet.sol:MultiSigWallet",
						"label": "required",
						"offset": 0,
						"slot": "2",
						"type": "t_uint256"
					},
					{
						"astId": 25,
						"contract": "contracts/lesson8.1/MultiSigWallet.sol:MultiSigWallet",
						"label": "MultiSigTxs",
						"offset": 0,
						"slot": "3",
						"type": "t_array(t_struct(MultiSigTx)21_storage)dyn_storage"
					},
					{
						"astId": 31,
						"contract": "contracts/lesson8.1/MultiSigWallet.sol:MultiSigWallet",
						"label": "confirmations",
						"offset": 0,
						"slot": "4",
						"type": "t_mapping(t_uint256,t_mapping(t_address,t_bool))"
					},
					{
						"astId": 33,
						"contract": "contracts/lesson8.1/MultiSigWallet.sol:MultiSigWallet",
						"label": "locked",
						"offset": 0,
						"slot": "5",
						"type": "t_bool"
					}
				],
				"types": {
					"t_address": {
						"encoding": "inplace",
						"label": "address",
						"numberOfBytes": "20"
					},
					"t_array(t_address)dyn_storage": {
						"base": "t_address",
						"encoding": "dynamic_array",
						"label": "address[]",
						"numberOfBytes": "32"
					},
					"t_array(t_struct(MultiSigTx)21_storage)dyn_storage": {
						"base": "t_struct(MultiSigTx)21_storage",
						"encoding": "dynamic_array",
						"label": "struct MultiSigWallet.MultiSigTx[]",
						"numberOfBytes": "32"
					},
					"t_bool": {
						"encoding": "inplace",
						"label": "bool",
						"numberOfBytes": "1"
					},
					"t_bytes_storage": {
						"encoding": "bytes",
						"label": "bytes",
						"numberOfBytes": "32"
					},
					"t_mapping(t_address,t_bool)": {
						"encoding": "mapping",
						"key": "t_address",
						"label": "mapping(address => bool)",
						"numberOfBytes": "32",
						"value": "t_bool"
					},
					"t_mapping(t_uint256,t_mapping(t_address,t_bool))": {
						"encoding": "mapping",
						"key": "t_uint256",
						"label": "mapping(uint256 => mapping(address => bool))",
						"numberOfBytes": "32",
						"value": "t_mapping(t_address,t_bool)"
					},
					"t_struct(MultiSigTx)21_storage": {
						"encoding": "inplace",
						"label": "struct MultiSigWallet.MultiSigTx",
						"members": [
							{
								"astId": 12,
								"contract": "contracts/lesson8.1/MultiSigWallet.sol:MultiSigWallet",
								"label": "to",
								"offset": 0,
								"slot": "0",
								"type": "t_address"
							},
							{
								"astId": 14,
								"contract": "contracts/lesson8.1/MultiSigWallet.sol:MultiSigWallet",
								"label": "value",
								"offset": 0,
								"slot": "1",
								"type": "t_uint256"
							},
							{
								"astId": 16,
								"contract": "contracts/lesson8.1/MultiSigWallet.sol:MultiSigWallet",
								"label": "data",
								"offset": 0,
								"slot": "2",
								"type": "t_bytes_storage"
							},
							{
								"astId": 18,
								"contract": "contracts/lesson8.1/MultiSigWallet.sol:MultiSigWallet",
								"label": "executed",
								"offset": 0,
								"slot": "3",
								"type": "t_bool"
							},
							{
								"astId": 20,
								"contract": "contracts/lesson8.1/MultiSigWallet.sol:MultiSigWallet",
								"label": "confirmations",
								"offset": 0,
								"slot": "4",
								"type": "t_uint256"
							}
						],
						"numberOfBytes": "160"
					},
					"t_uint256": {
						"encoding": "inplace",
						"label": "uint256",
						"numberOfBytes": "32"
					}
				}
			},
			"userdoc": {
				"kind": "user",
				"methods": {},
				"version": 1
			}
		}
	}
}