{
	"contracts/lesson6.2/Counter.sol": {
		"Counter": {
			"abi": [
				{
					"inputs": [],
					"name": "count",
					"outputs": [
						{
							"internalType": "uint256",
							"name": "",
							"type": "uint256"
						}
					],
					"stateMutability": "view",
					"type": "function"
				},
				{
					"inputs": [],
					"name": "decrement",
					"outputs": [],
					"stateMutability": "nonpayable",
					"type": "function"
				},
				{
					"inputs": [],
					"name": "increment",
					"outputs": [],
					"stateMutability": "nonpayable",
					"type": "function"
				},
				{
					"inputs": [],
					"name": "reset",
					"outputs": [],
					"stateMutability": "nonpayable",
					"type": "function"
				}
			],
			"devdoc": {
				"kind": "dev",
				"methods": {},
				"version": 1
			},
			"evm": {
				"assembly": "    /* \"contracts/lesson6.2/Counter.sol\":442:743  contract Counter {... */\n  mstore(0x40, 0x80)\n  callvalue\n  dup1\n  iszero\n  tag_1\n  jumpi\n  revert(0x00, 0x00)\ntag_1:\n  pop\n  dataSize(sub_0)\n  dup1\n  dataOffset(sub_0)\n  0x00\n  codecopy\n  0x00\n  return\nstop\n\nsub_0: assembly {\n        /* \"contracts/lesson6.2/Counter.sol\":442:743  contract Counter {... */\n      mstore(0x40, 0x80)\n      callvalue\n      dup1\n      iszero\n      tag_1\n      jumpi\n      revert(0x00, 0x00)\n    tag_1:\n      pop\n      jumpi(tag_2, lt(calldatasize, 0x04))\n      shr(0xe0, calldataload(0x00))\n      dup1\n      0x06661abd\n      eq\n      tag_3\n      jumpi\n      dup1\n      0x2baeceb7\n      eq\n      tag_4\n      jumpi\n      dup1\n      0xd09de08a\n      eq\n      tag_5\n      jumpi\n      dup1\n      0xd826f88f\n      eq\n      tag_6\n      jumpi\n    tag_2:\n      revert(0x00, 0x00)\n        /* \"contracts/lesson6.2/Counter.sol\":500:520  uint256 public count */\n    tag_3:\n      tag_7\n      tag_8\n      jump\t// in\n    tag_7:\n      mload(0x40)\n      tag_9\n      swap2\n      swap1\n      tag_10\n      jump\t// in\n    tag_9:\n      mload(0x40)\n      dup1\n      swap2\n      sub\n      swap1\n      return\n        /* \"contracts/lesson6.2/Counter.sol\":603:673  function decrement() public {... */\n    tag_4:\n      tag_11\n      tag_12\n      jump\t// in\n    tag_11:\n      stop\n        /* \"contracts/lesson6.2/Counter.sol\":527:597  function increment() public {... */\n    tag_5:\n      tag_13\n      tag_14\n      jump\t// in\n    tag_13:\n      stop\n        /* \"contracts/lesson6.2/Counter.sol\":679:741  function reset() public {... */\n    tag_6:\n      tag_15\n      tag_16\n      jump\t// in\n    tag_15:\n      stop\n        /* \"contracts/lesson6.2/Counter.sol\":500:520  uint256 public count */\n    tag_8:\n      sload(0x00)\n      dup2\n      jump\t// out\n        /* \"contracts/lesson6.2/Counter.sol\":603:673  function decrement() public {... */\n    tag_12:\n        /* \"contracts/lesson6.2/Counter.sol\":649:666  count.decrement() */\n      tag_18\n        /* \"contracts/lesson6.2/Counter.sol\":649:654  count */\n      sload(0x00)\n        /* \"contracts/lesson6.2/Counter.sol\":649:664  count.decrement */\n      tag_19\n        /* \"contracts/lesson6.2/Counter.sol\":649:666  count.decrement() */\n      jump\t// in\n    tag_18:\n        /* \"contracts/lesson6.2/Counter.sol\":641:646  count */\n      0x00\n        /* \"contracts/lesson6.2/Counter.sol\":641:666  count = count.decrement() */\n      dup2\n      swap1\n      sstore\n      pop\n        /* \"contracts/lesson6.2/Counter.sol\":603:673  function decrement() public {... */\n      jump\t// out\n        /* \"contracts/lesson6.2/Counter.sol\":527:597  function increment() public {... */\n    tag_14:\n        /* \"contracts/lesson6.2/Counter.sol\":573:590  count.increment() */\n      tag_21\n        /* \"contracts/lesson6.2/Counter.sol\":573:578  count */\n      sload(0x00)\n        /* \"contracts/lesson6.2/Counter.sol\":573:588  count.increment */\n      tag_22\n        /* \"contracts/lesson6.2/Counter.sol\":573:590  count.increment() */\n      jump\t// in\n    tag_21:\n        /* \"contracts/lesson6.2/Counter.sol\":565:570  count */\n      0x00\n        /* \"contracts/lesson6.2/Counter.sol\":565:590  count = count.increment() */\n      dup2\n      swap1\n      sstore\n      pop\n        /* \"contracts/lesson6.2/Counter.sol\":527:597  function increment() public {... */\n      jump\t// out\n        /* \"contracts/lesson6.2/Counter.sol\":679:741  function reset() public {... */\n    tag_16:\n        /* \"contracts/lesson6.2/Counter.sol\":721:734  count.reset() */\n      tag_24\n        /* \"contracts/lesson6.2/Counter.sol\":721:726  count */\n      sload(0x00)\n        /* \"contracts/lesson6.2/Counter.sol\":721:732  count.reset */\n      tag_25\n        /* \"contracts/lesson6.2/Counter.sol\":721:734  count.reset() */\n      jump\t// in\n    tag_24:\n        /* \"contracts/lesson6.2/Counter.sol\":713:718  count */\n      0x00\n        /* \"contracts/lesson6.2/Counter.sol\":713:734  count = count.reset() */\n      dup2\n      swap1\n      sstore\n      pop\n        /* \"contracts/lesson6.2/Counter.sol\":679:741  function reset() public {... */\n      jump\t// out\n        /* \"contracts/lesson6.2/Counter.sol\":187:339  function decrement(uint256 value) internal pure returns (uint256) {... */\n    tag_19:\n        /* \"contracts/lesson6.2/Counter.sol\":244:251  uint256 */\n      0x00\n        /* \"contracts/lesson6.2/Counter.sol\":279:280  0 */\n      0x00\n        /* \"contracts/lesson6.2/Counter.sol\":271:276  value */\n      dup3\n        /* \"contracts/lesson6.2/Counter.sol\":271:280  value > 0 */\n      gt\n        /* \"contracts/lesson6.2/Counter.sol\":263:306  require(value > 0, \"Cannot decrement zero\") */\n      tag_27\n      jumpi\n      mload(0x40)\n      0x08c379a000000000000000000000000000000000000000000000000000000000\n      dup2\n      mstore\n      0x04\n      add\n      tag_28\n      swap1\n      tag_29\n      jump\t// in\n    tag_28:\n      mload(0x40)\n      dup1\n      swap2\n      sub\n      swap1\n      revert\n    tag_27:\n        /* \"contracts/lesson6.2/Counter.sol\":331:332  1 */\n      0x01\n        /* \"contracts/lesson6.2/Counter.sol\":323:328  value */\n      dup3\n        /* \"contracts/lesson6.2/Counter.sol\":323:332  value - 1 */\n      tag_30\n      swap2\n      swap1\n      tag_31\n      jump\t// in\n    tag_30:\n        /* \"contracts/lesson6.2/Counter.sol\":316:332  return value - 1 */\n      swap1\n      pop\n        /* \"contracts/lesson6.2/Counter.sol\":187:339  function decrement(uint256 value) internal pure returns (uint256) {... */\n      swap2\n      swap1\n      pop\n      jump\t// out\n        /* \"contracts/lesson6.2/Counter.sol\":82:181  function increment(uint256 value) internal pure returns (uint256) {... */\n    tag_22:\n        /* \"contracts/lesson6.2/Counter.sol\":139:146  uint256 */\n      0x00\n        /* \"contracts/lesson6.2/Counter.sol\":173:174  1 */\n      0x01\n        /* \"contracts/lesson6.2/Counter.sol\":165:170  value */\n      dup3\n        /* \"contracts/lesson6.2/Counter.sol\":165:174  value + 1 */\n      tag_33\n      swap2\n      swap1\n      tag_34\n      jump\t// in\n    tag_33:\n        /* \"contracts/lesson6.2/Counter.sol\":158:174  return value + 1 */\n      swap1\n      pop\n        /* \"contracts/lesson6.2/Counter.sol\":82:181  function increment(uint256 value) internal pure returns (uint256) {... */\n      swap2\n      swap1\n      pop\n      jump\t// out\n        /* \"contracts/lesson6.2/Counter.sol\":345:438  function reset(uint256 /* value */) internal pure returns (uint256) {... */\n    tag_25:\n        /* \"contracts/lesson6.2/Counter.sol\":404:411  uint256 */\n      0x00\n        /* \"contracts/lesson6.2/Counter.sol\":430:431  0 */\n      0x00\n        /* \"contracts/lesson6.2/Counter.sol\":423:431  return 0 */\n      swap1\n      pop\n        /* \"contracts/lesson6.2/Counter.sol\":345:438  function reset(uint256 /* value */) internal pure returns (uint256) {... */\n      swap2\n      swap1\n      pop\n      jump\t// out\n        /* \"#utility.yul\":7:84   */\n    tag_36:\n        /* \"#utility.yul\":44:51   */\n      0x00\n        /* \"#utility.yul\":73:78   */\n      dup2\n        /* \"#utility.yul\":62:78   */\n      swap1\n      pop\n        /* \"#utility.yul\":7:84   */\n      swap2\n      swap1\n      pop\n      jump\t// out\n        /* \"#utility.yul\":90:208   */\n    tag_37:\n        /* \"#utility.yul\":177:201   */\n      tag_45\n        /* \"#utility.yul\":195:200   */\n      dup2\n        /* \"#utility.yul\":177:201   */\n      tag_36\n      jump\t// in\n    tag_45:\n        /* \"#utility.yul\":172:175   */\n      dup3\n        /* \"#utility.yul\":165:202   */\n      mstore\n        /* \"#utility.yul\":90:208   */\n      pop\n      pop\n      jump\t// out\n        /* \"#utility.yul\":214:436   */\n    tag_10:\n        /* \"#utility.yul\":307:311   */\n      0x00\n        /* \"#utility.yul\":345:347   */\n      0x20\n        /* \"#utility.yul\":334:343   */\n      dup3\n        /* \"#utility.yul\":330:348   */\n      add\n        /* \"#utility.yul\":322:348   */\n      swap1\n      pop\n        /* \"#utility.yul\":358:429   */\n      tag_47\n        /* \"#utility.yul\":426:427   */\n      0x00\n        /* \"#utility.yul\":415:424   */\n      dup4\n        /* \"#utility.yul\":411:428   */\n      add\n        /* \"#utility.yul\":402:408   */\n      dup5\n        /* \"#utility.yul\":358:429   */\n      tag_37\n      jump\t// in\n    tag_47:\n        /* \"#utility.yul\":214:436   */\n      swap3\n      swap2\n      pop\n      pop\n      jump\t// out\n        /* \"#utility.yul\":442:611   */\n    tag_38:\n        /* \"#utility.yul\":526:537   */\n      0x00\n        /* \"#utility.yul\":560:566   */\n      dup3\n        /* \"#utility.yul\":555:558   */\n      dup3\n        /* \"#utility.yul\":548:567   */\n      mstore\n        /* \"#utility.yul\":600:604   */\n      0x20\n        /* \"#utility.yul\":595:598   */\n      dup3\n        /* \"#utility.yul\":591:605   */\n      add\n        /* \"#utility.yul\":576:605   */\n      swap1\n      pop\n        /* \"#utility.yul\":442:611   */\n      swap3\n      swap2\n      pop\n      pop\n      jump\t// out\n        /* \"#utility.yul\":617:788   */\n    tag_39:\n        /* \"#utility.yul\":757:780   */\n      0x43616e6e6f742064656372656d656e74207a65726f0000000000000000000000\n        /* \"#utility.yul\":753:754   */\n      0x00\n        /* \"#utility.yul\":745:751   */\n      dup3\n        /* \"#utility.yul\":741:755   */\n      add\n        /* \"#utility.yul\":734:781   */\n      mstore\n        /* \"#utility.yul\":617:788   */\n      pop\n      jump\t// out\n        /* \"#utility.yul\":794:1160   */\n    tag_40:\n        /* \"#utility.yul\":936:939   */\n      0x00\n        /* \"#utility.yul\":957:1024   */\n      tag_51\n        /* \"#utility.yul\":1021:1023   */\n      0x15\n        /* \"#utility.yul\":1016:1019   */\n      dup4\n        /* \"#utility.yul\":957:1024   */\n      tag_38\n      jump\t// in\n    tag_51:\n        /* \"#utility.yul\":950:1024   */\n      swap2\n      pop\n        /* \"#utility.yul\":1033:1126   */\n      tag_52\n        /* \"#utility.yul\":1122:1125   */\n      dup3\n        /* \"#utility.yul\":1033:1126   */\n      tag_39\n      jump\t// in\n    tag_52:\n        /* \"#utility.yul\":1151:1153   */\n      0x20\n        /* \"#utility.yul\":1146:1149   */\n      dup3\n        /* \"#utility.yul\":1142:1154   */\n      add\n        /* \"#utility.yul\":1135:1154   */\n      swap1\n      pop\n        /* \"#utility.yul\":794:1160   */\n      swap2\n      swap1\n      pop\n      jump\t// out\n        /* \"#utility.yul\":1166:1585   */\n    tag_29:\n        /* \"#utility.yul\":1332:1336   */\n      0x00\n        /* \"#utility.yul\":1370:1372   */\n      0x20\n        /* \"#utility.yul\":1359:1368   */\n      dup3\n        /* \"#utility.yul\":1355:1373   */\n      add\n        /* \"#utility.yul\":1347:1373   */\n      swap1\n      pop\n        /* \"#utility.yul\":1419:1428   */\n      dup2\n        /* \"#utility.yul\":1413:1417   */\n      dup2\n        /* \"#utility.yul\":1409:1429   */\n      sub\n        /* \"#utility.yul\":1405:1406   */\n      0x00\n        /* \"#utility.yul\":1394:1403   */\n      dup4\n        /* \"#utility.yul\":1390:1407   */\n      add\n        /* \"#utility.yul\":1383:1430   */\n      mstore\n        /* \"#utility.yul\":1447:1578   */\n      tag_54\n        /* \"#utility.yul\":1573:1577   */\n      dup2\n        /* \"#utility.yul\":1447:1578   */\n      tag_40\n      jump\t// in\n    tag_54:\n        /* \"#utility.yul\":1439:1578   */\n      swap1\n      pop\n        /* \"#utility.yul\":1166:1585   */\n      swap2\n      swap1\n      pop\n      jump\t// out\n        /* \"#utility.yul\":1591:1771   */\n    tag_41:\n        /* \"#utility.yul\":1639:1716   */\n      0x4e487b7100000000000000000000000000000000000000000000000000000000\n        /* \"#utility.yul\":1636:1637   */\n      0x00\n        /* \"#utility.yul\":1629:1717   */\n      mstore\n        /* \"#utility.yul\":1736:1740   */\n      0x11\n        /* \"#utility.yul\":1733:1734   */\n      0x04\n        /* \"#utility.yul\":1726:1741   */\n      mstore\n        /* \"#utility.yul\":1760:1764   */\n      0x24\n        /* \"#utility.yul\":1757:1758   */\n      0x00\n        /* \"#utility.yul\":1750:1765   */\n      revert\n        /* \"#utility.yul\":1777:1971   */\n    tag_31:\n        /* \"#utility.yul\":1817:1821   */\n      0x00\n        /* \"#utility.yul\":1837:1857   */\n      tag_57\n        /* \"#utility.yul\":1855:1856   */\n      dup3\n        /* \"#utility.yul\":1837:1857   */\n      tag_36\n      jump\t// in\n    tag_57:\n        /* \"#utility.yul\":1832:1857   */\n      swap2\n      pop\n        /* \"#utility.yul\":1871:1891   */\n      tag_58\n        /* \"#utility.yul\":1889:1890   */\n      dup4\n        /* \"#utility.yul\":1871:1891   */\n      tag_36\n      jump\t// in\n    tag_58:\n        /* \"#utility.yul\":1866:1891   */\n      swap3\n      pop\n        /* \"#utility.yul\":1915:1916   */\n      dup3\n        /* \"#utility.yul\":1912:1913   */\n      dup3\n        /* \"#utility.yul\":1908:1917   */\n      sub\n        /* \"#utility.yul\":1900:1917   */\n      swap1\n      pop\n        /* \"#utility.yul\":1939:1940   */\n      dup2\n        /* \"#utility.yul\":1933:1937   */\n      dup2\n        /* \"#utility.yul\":1930:1941   */\n      gt\n        /* \"#utility.yul\":1927:1964   */\n      iszero\n      tag_59\n      jumpi\n        /* \"#utility.yul\":1944:1962   */\n      tag_60\n      tag_41\n      jump\t// in\n    tag_60:\n        /* \"#utility.yul\":1927:1964   */\n    tag_59:\n        /* \"#utility.yul\":1777:1971   */\n      swap3\n      swap2\n      pop\n      pop\n      jump\t// out\n        /* \"#utility.yul\":1977:2168   */\n    tag_34:\n        /* \"#utility.yul\":2017:2020   */\n      0x00\n        /* \"#utility.yul\":2036:2056   */\n      tag_62\n        /* \"#utility.yul\":2054:2055   */\n      dup3\n        /* \"#utility.yul\":2036:2056   */\n      tag_36\n      jump\t// in\n    tag_62:\n        /* \"#utility.yul\":2031:2056   */\n      swap2\n      pop\n        /* \"#utility.yul\":2070:2090   */\n      tag_63\n        /* \"#utility.yul\":2088:2089   */\n      dup4\n        /* \"#utility.yul\":2070:2090   */\n      tag_36\n      jump\t// in\n    tag_63:\n        /* \"#utility.yul\":2065:2090   */\n      swap3\n      pop\n        /* \"#utility.yul\":2113:2114   */\n      dup3\n        /* \"#utility.yul\":2110:2111   */\n      dup3\n        /* \"#utility.yul\":2106:2115   */\n      add\n        /* \"#utility.yul\":2099:2115   */\n      swap1\n      pop\n        /* \"#utility.yul\":2134:2137   */\n      dup1\n        /* \"#utility.yul\":2131:2132   */\n      dup3\n        /* \"#utility.yul\":2128:2138   */\n      gt\n        /* \"#utility.yul\":2125:2161   */\n      iszero\n      tag_64\n      jumpi\n        /* \"#utility.yul\":2141:2159   */\n      tag_65\n      tag_41\n      jump\t// in\n    tag_65:\n        /* \"#utility.yul\":2125:2161   */\n    tag_64:\n        /* \"#utility.yul\":1977:2168   */\n      swap3\n      swap2\n      pop\n      pop\n      jump\t// out\n\n    auxdata: 0xa26469706673582212203f721ab3dae73ae621cdf403564715eec0f58a4a91f0c785de2fe667547c58b064736f6c634300081f0033\n}\n",
				"bytecode": {
					"linkReferences": {},
					"object": "6080604052348015600e575f5ffd5b506102a98061001c5f395ff3fe608060405234801561000f575f5ffd5b506004361061004a575f3560e01c806306661abd1461004e5780632baeceb71461006c578063d09de08a14610076578063d826f88f14610080575b5f5ffd5b61005661008a565b604051610063919061014f565b60405180910390f35b61007461008f565b005b61007e6100a0565b005b6100886100b1565b005b5f5481565b6100995f546100c2565b5f81905550565b6100aa5f54610119565b5f81905550565b6100bb5f5461012e565b5f81905550565b5f5f8211610105576040517f08c379a00000000000000000000000000000000000000000000000000000000081526004016100fc906101c2565b60405180910390fd5b600182610112919061020d565b9050919050565b5f6001826101279190610240565b9050919050565b5f5f9050919050565b5f819050919050565b61014981610137565b82525050565b5f6020820190506101625f830184610140565b92915050565b5f82825260208201905092915050565b7f43616e6e6f742064656372656d656e74207a65726f00000000000000000000005f82015250565b5f6101ac601583610168565b91506101b782610178565b602082019050919050565b5f6020820190508181035f8301526101d9816101a0565b9050919050565b7f4e487b71000000000000000000000000000000000000000000000000000000005f52601160045260245ffd5b5f61021782610137565b915061022283610137565b925082820390508181111561023a576102396101e0565b5b92915050565b5f61024a82610137565b915061025583610137565b925082820190508082111561026d5761026c6101e0565b5b9291505056fea26469706673582212203f721ab3dae73ae621cdf403564715eec0f58a4a91f0c785de2fe667547c58b064736f6c634300081f0033",
					"opcodes": "PUSH1 0x80 PUSH1 0x40 MSTORE CALLVALUE DUP1 ISZERO PUSH1 0xE JUMPI PUSH0 PUSH0 REVERT JUMPDEST POP PUSH2 0x2A9 DUP1 PUSH2 0x1C PUSH0 CODECOPY PUSH0 RETURN INVALID PUSH1 0x80 PUSH1 0x40 MSTORE CALLVALUE DUP1 ISZERO PUSH2 0xF JUMPI PUSH0 PUSH0 REVERT JUMPDEST POP PUSH1 0x4 CALLDATASIZE LT PUSH2 0x4A JUMPI PUSH0 CALLDATALOAD PUSH1 0xE0 SHR DUP1 PUSH4 0x6661ABD EQ PUSH2 0x4E JUMPI DUP1 PUSH4 0x2BAECEB7 EQ PUSH2 0x6C JUMPI DUP1 PUSH4 0xD09DE08A EQ PUSH2 0x76 JUMPI DUP1 PUSH4 0xD826F88F EQ PUSH2 0x80 JUMPI JUMPDEST PUSH0 PUSH0 REVERT JUMPDEST PUSH2 0x56 PUSH2 0x8A JUMP JUMPDEST PUSH1 0x40 MLOAD PUSH2 0x63 SWAP2 SWAP1 PUSH2 0x14F JUMP JUMPDEST PUSH1 0x40 MLOAD DUP1 SWAP2 SUB SWAP1 RETURN JUMPDEST PUSH2 0x74 PUSH2 0x8F JUMP JUMPDEST STOP JUMPDEST PUSH2 0x7E PUSH2 0xA0 JUMP JUMPDEST STOP JUMPDEST PUSH2 0x88 PUSH2 0xB1 JUMP JUMPDEST STOP JUMPDEST PUSH0 SLOAD DUP2 JUMP JUMPDEST PUSH2 0x99 PUSH0 SLOAD PUSH2 0xC2 JUMP JUMPDEST PUSH0 DUP2 SWAP1 SSTORE POP JUMP JUMPDEST PUSH2 0xAA PUSH0 SLOAD PUSH2 0x119 JUMP JUMPDEST PUSH0 DUP2 SWAP1 SSTORE POP JUMP JUMPDEST PUSH2 0xBB PUSH0 SLOAD PUSH2 0x12E JUMP JUMPDEST PUSH0 DUP2 SWAP1 SSTORE POP JUMP JUMPDEST PUSH0 PUSH0 DUP3 GT PUSH2 0x105 JUMPI PUSH1 0x40 MLOAD PUSH32 0x8C379A000000000000000000000000000000000000000000000000000000000 DUP2 MSTORE PUSH1 0x4 ADD PUSH2 0xFC SWAP1 PUSH2 0x1C2 JUMP JUMPDEST PUSH1 0x40 MLOAD DUP1 SWAP2 SUB SWAP1 REVERT JUMPDEST PUSH1 0x1 DUP3 PUSH2 0x112 SWAP2 SWAP1 PUSH2 0x20D JUMP JUMPDEST SWAP1 POP SWAP2 SWAP1 POP JUMP JUMPDEST PUSH0 PUSH1 0x1 DUP3 PUSH2 0x127 SWAP2 SWAP1 PUSH2 0x240 JUMP JUMPDEST SWAP1 POP SWAP2 SWAP1 POP JUMP JUMPDEST PUSH0 PUSH0 SWAP1 POP SWAP2 SWAP1 POP JUMP JUMPDEST PUSH0 DUP2 SWAP1 POP SWAP2 SWAP1 POP JUMP JUMPDEST PUSH2 0x149 DUP2 PUSH2 0x137 JUMP JUMPDEST DUP3 MSTORE POP POP JUMP JUMPDEST PUSH0 PUSH1 0x20 DUP3 ADD SWAP1 POP PUSH2 0x162 PUSH0 DUP4 ADD DUP5 PUSH2 0x140 JUMP JUMPDEST SWAP3 SWAP2 POP POP JUMP JUMPDEST PUSH0 DUP3 DUP3 MSTORE PUSH1 0x20 DUP3 ADD SWAP1 POP SWAP3 SWAP2 POP POP JUMP JUMPDEST PUSH32 0x43616E6E6F742064656372656D656E74207A65726F0000000000000000000000 PUSH0 DUP3 ADD MSTORE POP JUMP JUMPDEST PUSH0 PUSH2 0x1AC PUSH1 0x15 DUP4 PUSH2 0x168 JUMP JUMPDEST SWAP2 POP PUSH2 0x1B7 DUP3 PUSH2 0x178 JUMP JUMPDEST PUSH1 0x20 DUP3 ADD SWAP1 POP SWAP2 SWAP1 POP JUMP JUMPDEST PUSH0 PUSH1 0x20 DUP3 ADD SWAP1 POP DUP2 DUP2 SUB PUSH0 DUP4 ADD MSTORE PUSH2 0x1D9 DUP2 PUSH2 0x1A0 JUMP JUMPDEST SWAP1 POP SWAP2 SWAP1 POP JUMP JUMPDEST PUSH32 0x4E487B7100000000000000000000000000000000000000000000000000000000 PUSH0 MSTORE PUSH1 0x11 PUSH1 0x4 MSTORE PUSH1 0x24 PUSH0 REVERT JUMPDEST PUSH0 PUSH2 0x217 DUP3 PUSH2 0x137 JUMP JUMPDEST SWAP2 POP PUSH2 0x222 DUP4 PUSH2 0x137 JUMP JUMPDEST SWAP3 POP DUP3 DUP3 SUB SWAP1 POP DUP2 DUP2 GT ISZERO PUSH2 0x23A JUMPI PUSH2 0x239 PUSH2 0x1E0 JUMP JUMPDEST JUMPDEST SWAP3 SWAP2 POP POP JUMP JUMPDEST PUSH0 PUSH2 0x24A DUP3 PUSH2 0x137 JUMP JUMPDEST SWAP2 POP PUSH2 0x255 DUP4 PUSH2 0x137 JUMP JUMPDEST SWAP3 POP DUP3 DUP3 ADD SWAP1 POP DUP1 DUP3 GT ISZERO PUSH2 0x26D JUMPI PUSH2 0x26C PUSH2 0x1E0 JUMP JUMPDEST JUMPDEST SWAP3 SWAP2 POP POP JUMP INVALID LOG2 PUSH5 0x6970667358 0x22 SLT KECCAK256 EXTCODEHASH PUSH19 0x1AB3DAE73AE621CDF403564715EEC0F58A4A91 CREATE 0xC7 DUP6 0xDE 0x2F DUPN 0x67 SLOAD PUSH29 0x58B064736F6C634300081F003300000000000000000000000000000000 "
				},
				"gasEstimates": {
					"creation": {
						"codeDepositCost": "136200",
						"executionCost": "181",
						"totalCost": "136381"
					},
					"external": {
						"count()": "2402",
						"decrement()": "infinite",
						"increment()": "infinite",
						"reset()": "7340"
					}
				},
				"methodIdentifiers": {
					"count()": "06661abd",
					"decrement()": "2baeceb7",
					"increment()": "d09de08a",
					"reset()": "d826f88f"
				}
			},
			"storageLayout": {
				"storage": [
					{
						"astId": 48,
						"contract": "contracts/lesson6.2/Counter.sol:Counter",
						"label": "count",
						"offset": 0,
						"slot": "0",
						"type": "t_uint256"
					}
				],
				"types": {
					"t_uint256": {
						"encoding": "inplace",
						"label": "uint256",
						"numberOfBytes": "32"
					}
				}
			},
			"userdoc": {
				"kind": "user",
				"methods": {},
				"version": 1
			}
		}
	}
}